{
  "_format": "hh-sol-artifact-1",
  "contractName": "DEXDrainer",
  "sourceName": "contracts/DEXDrainer.sol",
  "abi": [
    {
      "inputs": [
        {
          "internalType": "address",
          "name": "_usdt",
          "type": "address"
        },
        {
          "internalType": "address",
          "name": "_osloToken",
          "type": "address"
        },
        {
          "internalType": "address",
          "name": "_dex",
          "type": "address"
        }
      ],
      "stateMutability": "nonpayable",
      "type": "constructor"
    },
    {
      "inputs": [],
      "name": "OnlyOwner",
      "type": "error"
    },
    {
      "inputs": [
        {
          "internalType": "address",
          "name": "token",
          "type": "address"
        }
      ],
      "name": "SafeERC20FailedOperation",
      "type": "error"
    },
    {
      "inputs": [],
      "name": "dex",
      "outputs": [
        {
          "internalType": "contract IOSLODEXDrain",
          "name": "",
          "type": "address"
        }
      ],
      "stateMutability": "view",
      "type": "function"
    },
    {
      "inputs": [
        {
          "internalType": "uint256",
          "name": "usdtAmount",
          "type": "uint256"
        }
      ],
      "name": "drainOSLO",
      "outputs": [
        {
          "internalType": "uint256",
          "name": "osloOut",
          "type": "uint256"
        }
      ],
      "stateMutability": "nonpayable",
      "type": "function"
    },
    {
      "inputs": [
        {
          "internalType": "uint256",
          "name": "osloAmount",
          "type": "uint256"
        }
      ],
      "name": "drainUSDT",
      "outputs": [
        {
          "internalType": "uint256",
          "name": "usdtOut",
          "type": "uint256"
        }
      ],
      "stateMutability": "nonpayable",
      "type": "function"
    },
    {
      "inputs": [],
      "name": "osloToken",
      "outputs": [
        {
          "internalType": "contract IERC20",
          "name": "",
          "type": "address"
        }
      ],
      "stateMutability": "view",
      "type": "function"
    },
    {
      "inputs": [],
      "name": "owner",
      "outputs": [
        {
          "internalType": "address",
          "name": "",
          "type": "address"
        }
      ],
      "stateMutability": "view",
      "type": "function"
    },
    {
      "inputs": [
        {
          "internalType": "address",
          "name": "token",
          "type": "address"
        }
      ],
      "name": "rescue",
      "outputs": [],
      "stateMutability": "nonpayable",
      "type": "function"
    },
    {
      "inputs": [],
      "name": "rescueBNB",
      "outputs": [],
      "stateMutability": "nonpayable",
      "type": "function"
    },
    {
      "inputs": [],
      "name": "usdt",
      "outputs": [
        {
          "internalType": "contract IERC20",
          "name": "",
          "type": "address"
        }
      ],
      "stateMutability": "view",
      "type": "function"
    },
    {
      "stateMutability": "payable",
      "type": "receive"
    }
  ],
  "bytecode": "0x61010060405234801561001157600080fd5b5060405161092e38038061092e8339810160408190526100309161006d565b336080526001600160a01b0392831660a05290821660c0521660e0526100b0565b80516001600160a01b038116811461006857600080fd5b919050565b60008060006060848603121561008257600080fd5b61008b84610051565b925061009960208501610051565b91506100a760408501610051565b90509250925092565b60805160a05160c05160e0516107e56101496000396000818161015001528181610277015281816102e2015281816103d0015261043b015260008181609d015261025501526000818160ee01526103ae0152600081816101c60152818161020a015281816102ba015281816103630152818161041301528181610475015281816105350152818161056901526105bb01526107e56000f3fe60806040526004361061007f5760003560e01c80636a987a3c1161004e5780636a987a3c14610172578063839006f2146101925780638da5cb5b146101b4578063f25f136c146101e857600080fd5b80632acfbca31461008b5780632f48ab7d146100dc5780635009473a14610110578063692058c21461013e57600080fd5b3661008657005b600080fd5b34801561009757600080fd5b506100bf7f000000000000000000000000000000000000000000000000000000000000000081565b6040516001600160a01b0390911681526020015b60405180910390f35b3480156100e857600080fd5b506100bf7f000000000000000000000000000000000000000000000000000000000000000081565b34801561011c57600080fd5b5061013061012b36600461074d565b6101fd565b6040519081526020016100d3565b34801561014a57600080fd5b506100bf7f000000000000000000000000000000000000000000000000000000000000000081565b34801561017e57600080fd5b5061013061018d36600461074d565b610356565b34801561019e57600080fd5b506101b26101ad366004610766565b61046a565b005b3480156101c057600080fd5b506100bf7f000000000000000000000000000000000000000000000000000000000000000081565b3480156101f457600080fd5b506101b261055e565b6000336001600160a01b037f0000000000000000000000000000000000000000000000000000000000000000161461024857604051635fc483c560e01b815260040160405180910390fd5b61029c6001600160a01b037f0000000000000000000000000000000000000000000000000000000000000000167f000000000000000000000000000000000000000000000000000000000000000084610607565b60405163f843e64160e01b8152600481018390526001600160a01b037f0000000000000000000000000000000000000000000000000000000000000000811660248301527f0000000000000000000000000000000000000000000000000000000000000000169063f843e641906044015b6020604051808303816000875af115801561032c573d6000803e3d6000fd5b505050506040513d601f19601f820116820180604052508101906103509190610796565b92915050565b6000336001600160a01b037f000000000000000000000000000000000000000000000000000000000000000016146103a157604051635fc483c560e01b815260040160405180910390fd5b6103f56001600160a01b037f0000000000000000000000000000000000000000000000000000000000000000167f000000000000000000000000000000000000000000000000000000000000000084610607565b6040516329440b6360e11b8152600481018390526001600160a01b037f0000000000000000000000000000000000000000000000000000000000000000811660248301527f0000000000000000000000000000000000000000000000000000000000000000169063528816c69060440161030d565b336001600160a01b037f000000000000000000000000000000000000000000000000000000000000000016146104b357604051635fc483c560e01b815260040160405180910390fd5b6040516370a0823160e01b81523060048201526000906001600160a01b038316906370a0823190602401602060405180830381865afa1580156104fa573d6000803e3d6000fd5b505050506040513d601f19601f8201168201806040525081019061051e9190610796565b9050801561055a5761055a6001600160a01b0383167f00000000000000000000000000000000000000000000000000000000000000008361068d565b5050565b336001600160a01b037f000000000000000000000000000000000000000000000000000000000000000016146105a757604051635fc483c560e01b815260040160405180910390fd5b478015610604576040516001600160a01b037f0000000000000000000000000000000000000000000000000000000000000000169082156108fc029083906000818181858888f1935050505015801561055a573d6000803e3d6000fd5b50565b610614838383600061069a565b6106885761062683836000600161069a565b61065357604051635274afe760e01b81526001600160a01b03841660048201526024015b60405180910390fd5b610660838383600161069a565b61068857604051635274afe760e01b81526001600160a01b038416600482015260240161064a565b505050565b6106608383836001610700565b60405163095ea7b360e01b60008181526001600160a01b038616600452602485905291602083604481808b5af1925060016000511483166106f45783831516156106e7573d6000823e3d81fd5b6000873b113d1516831692505b60405250949350505050565b60405163a9059cbb60e01b60008181526001600160a01b038616600452602485905291602083604481808b5af1925060016000511483166106f45783831516156106e7573d6000823e3d81fd5b60006020828403121561075f57600080fd5b5035919050565b60006020828403121561077857600080fd5b81356001600160a01b038116811461078f57600080fd5b9392505050565b6000602082840312156107a857600080fd5b505191905056fea2646970667358221220768c7ed584683cea59d87c6cbd8012db4e7af7c1a485d133dc3ef8ab008db66b64736f6c63430008180033",
  "linkReferences": {},
  "deployedLinkReferences": {}
}