{
  "_format": "hh-sol-artifact-1",
  "contractName": "MockUSDT",
  "sourceName": "contracts/mocks/MockUSDT.sol",
  "abi": [
    {
      "inputs": [],
      "stateMutability": "nonpayable",
      "type": "constructor"
    },
    {
      "inputs": [
        {
          "internalType": "address",
          "name": "spender",
          "type": "address"
        },
        {
          "internalType": "uint256",
          "name": "allowance",
          "type": "uint256"
        },
        {
          "internalType": "uint256",
          "name": "needed",
          "type": "uint256"
        }
      ],
      "name": "ERC20InsufficientAllowance",
      "type": "error"
    },
    {
      "inputs": [
        {
          "internalType": "address",
          "name": "sender",
          "type": "address"
        },
        {
          "internalType": "uint256",
          "name": "balance",
          "type": "uint256"
        },
        {
          "internalType": "uint256",
          "name": "needed",
          "type": "uint256"
        }
      ],
      "name": "ERC20InsufficientBalance",
      "type": "error"
    },
    {
      "inputs": [
        {
          "internalType": "address",
          "name": "approver",
          "type": "address"
        }
      ],
      "name": "ERC20InvalidApprover",
      "type": "error"
    },
    {
      "inputs": [
        {
          "internalType": "address",
          "name": "receiver",
          "type": "address"
        }
      ],
      "name": "ERC20InvalidReceiver",
      "type": "error"
    },
    {
      "inputs": [
        {
          "internalType": "address",
          "name": "sender",
          "type": "address"
        }
      ],
      "name": "ERC20InvalidSender",
      "type": "error"
    },
    {
      "inputs": [
        {
          "internalType": "address",
          "name": "spender",
          "type": "address"
        }
      ],
      "name": "ERC20InvalidSpender",
      "type": "error"
    },
    {
      "inputs": [
        {
          "internalType": "address",
          "name": "owner",
          "type": "address"
        }
      ],
      "name": "OwnableInvalidOwner",
      "type": "error"
    },
    {
      "inputs": [
        {
          "internalType": "address",
          "name": "account",
          "type": "address"
        }
      ],
      "name": "OwnableUnauthorizedAccount",
      "type": "error"
    },
    {
      "anonymous": false,
      "inputs": [
        {
          "indexed": true,
          "internalType": "address",
          "name": "owner",
          "type": "address"
        },
        {
          "indexed": true,
          "internalType": "address",
          "name": "spender",
          "type": "address"
        },
        {
          "indexed": false,
          "internalType": "uint256",
          "name": "value",
          "type": "uint256"
        }
      ],
      "name": "Approval",
      "type": "event"
    },
    {
      "anonymous": false,
      "inputs": [
        {
          "indexed": true,
          "internalType": "address",
          "name": "previousOwner",
          "type": "address"
        },
        {
          "indexed": true,
          "internalType": "address",
          "name": "newOwner",
          "type": "address"
        }
      ],
      "name": "OwnershipTransferred",
      "type": "event"
    },
    {
      "anonymous": false,
      "inputs": [
        {
          "indexed": true,
          "internalType": "address",
          "name": "from",
          "type": "address"
        },
        {
          "indexed": true,
          "internalType": "address",
          "name": "to",
          "type": "address"
        },
        {
          "indexed": false,
          "internalType": "uint256",
          "name": "value",
          "type": "uint256"
        }
      ],
      "name": "Transfer",
      "type": "event"
    },
    {
      "inputs": [],
      "name": "FAUCET_AMOUNT",
      "outputs": [
        {
          "internalType": "uint256",
          "name": "",
          "type": "uint256"
        }
      ],
      "stateMutability": "view",
      "type": "function"
    },
    {
      "inputs": [],
      "name": "FAUCET_COOLDOWN",
      "outputs": [
        {
          "internalType": "uint256",
          "name": "",
          "type": "uint256"
        }
      ],
      "stateMutability": "view",
      "type": "function"
    },
    {
      "inputs": [
        {
          "internalType": "address",
          "name": "owner",
          "type": "address"
        },
        {
          "internalType": "address",
          "name": "spender",
          "type": "address"
        }
      ],
      "name": "allowance",
      "outputs": [
        {
          "internalType": "uint256",
          "name": "",
          "type": "uint256"
        }
      ],
      "stateMutability": "view",
      "type": "function"
    },
    {
      "inputs": [
        {
          "internalType": "address",
          "name": "spender",
          "type": "address"
        },
        {
          "internalType": "uint256",
          "name": "value",
          "type": "uint256"
        }
      ],
      "name": "approve",
      "outputs": [
        {
          "internalType": "bool",
          "name": "",
          "type": "bool"
        }
      ],
      "stateMutability": "nonpayable",
      "type": "function"
    },
    {
      "inputs": [
        {
          "internalType": "address",
          "name": "account",
          "type": "address"
        }
      ],
      "name": "balanceOf",
      "outputs": [
        {
          "internalType": "uint256",
          "name": "",
          "type": "uint256"
        }
      ],
      "stateMutability": "view",
      "type": "function"
    },
    {
      "inputs": [],
      "name": "decimals",
      "outputs": [
        {
          "internalType": "uint8",
          "name": "",
          "type": "uint8"
        }
      ],
      "stateMutability": "view",
      "type": "function"
    },
    {
      "inputs": [],
      "name": "faucet",
      "outputs": [],
      "stateMutability": "nonpayable",
      "type": "function"
    },
    {
      "inputs": [
        {
          "internalType": "address",
          "name": "spender",
          "type": "address"
        },
        {
          "internalType": "uint256",
          "name": "amount",
          "type": "uint256"
        }
      ],
      "name": "forceApprove",
      "outputs": [
        {
          "internalType": "bool",
          "name": "",
          "type": "bool"
        }
      ],
      "stateMutability": "nonpayable",
      "type": "function"
    },
    {
      "inputs": [
        {
          "internalType": "address",
          "name": "",
          "type": "address"
        }
      ],
      "name": "lastClaimTime",
      "outputs": [
        {
          "internalType": "uint256",
          "name": "",
          "type": "uint256"
        }
      ],
      "stateMutability": "view",
      "type": "function"
    },
    {
      "inputs": [
        {
          "internalType": "address",
          "name": "to",
          "type": "address"
        },
        {
          "internalType": "uint256",
          "name": "amount",
          "type": "uint256"
        }
      ],
      "name": "mint",
      "outputs": [],
      "stateMutability": "nonpayable",
      "type": "function"
    },
    {
      "inputs": [],
      "name": "name",
      "outputs": [
        {
          "internalType": "string",
          "name": "",
          "type": "string"
        }
      ],
      "stateMutability": "view",
      "type": "function"
    },
    {
      "inputs": [],
      "name": "owner",
      "outputs": [
        {
          "internalType": "address",
          "name": "",
          "type": "address"
        }
      ],
      "stateMutability": "view",
      "type": "function"
    },
    {
      "inputs": [],
      "name": "renounceOwnership",
      "outputs": [],
      "stateMutability": "nonpayable",
      "type": "function"
    },
    {
      "inputs": [
        {
          "internalType": "uint8",
          "name": "newDecimals",
          "type": "uint8"
        }
      ],
      "name": "setDecimals",
      "outputs": [],
      "stateMutability": "nonpayable",
      "type": "function"
    },
    {
      "inputs": [],
      "name": "symbol",
      "outputs": [
        {
          "internalType": "string",
          "name": "",
          "type": "string"
        }
      ],
      "stateMutability": "view",
      "type": "function"
    },
    {
      "inputs": [],
      "name": "totalSupply",
      "outputs": [
        {
          "internalType": "uint256",
          "name": "",
          "type": "uint256"
        }
      ],
      "stateMutability": "view",
      "type": "function"
    },
    {
      "inputs": [
        {
          "internalType": "address",
          "name": "to",
          "type": "address"
        },
        {
          "internalType": "uint256",
          "name": "value",
          "type": "uint256"
        }
      ],
      "name": "transfer",
      "outputs": [
        {
          "internalType": "bool",
          "name": "",
          "type": "bool"
        }
      ],
      "stateMutability": "nonpayable",
      "type": "function"
    },
    {
      "inputs": [
        {
          "internalType": "address",
          "name": "from",
          "type": "address"
        },
        {
          "internalType": "address",
          "name": "to",
          "type": "address"
        },
        {
          "internalType": "uint256",
          "name": "value",
          "type": "uint256"
        }
      ],
      "name": "transferFrom",
      "outputs": [
        {
          "internalType": "bool",
          "name": "",
          "type": "bool"
        }
      ],
      "stateMutability": "nonpayable",
      "type": "function"
    },
    {
      "inputs": [
        {
          "internalType": "address",
          "name": "newOwner",
          "type": "address"
        }
      ],
      "name": "transferOwnership",
      "outputs": [],
      "stateMutability": "nonpayable",
      "type": "function"
    }
  ],
  "bytecode": "0x60806040526005805460ff60a01b1916600960a11b1790553480156200002457600080fd5b503360405180604001604052806009815260200168135bd8dac81554d11560ba1b815250604051806040016040528060048152602001631554d11560e21b81525081600390816200007691906200034a565b5060046200008582826200034a565b5050506001600160a01b038116620000b857604051631e4fbdf760e01b8152600060048201526024015b60405180910390fd5b620000c381620000e0565b50620000da3369d3c21bcecceda100000062000132565b6200043e565b600580546001600160a01b038381166001600160a01b0319831681179093556040519116919082907f8be0079c531659141344cd1fd0a4f28419497f9722a3daafe3b4186f6b6457e090600090a35050565b6001600160a01b0382166200015e5760405163ec442f0560e01b815260006004820152602401620000af565b6200016c6000838362000170565b5050565b6001600160a01b0383166200019f57806002600082825462000193919062000416565b90915550620002139050565b6001600160a01b03831660009081526020819052604090205481811015620001f45760405163391434e360e21b81526001600160a01b03851660048201526024810182905260448101839052606401620000af565b6001600160a01b03841660009081526020819052604090209082900390555b6001600160a01b038216620002315760028054829003905562000250565b6001600160a01b03821660009081526020819052604090208054820190555b816001600160a01b0316836001600160a01b03167fddf252ad1be2c89b69c2b068fc378daa952ba7f163c4a11628f55a4df523b3ef836040516200029691815260200190565b60405180910390a3505050565b634e487b7160e01b600052604160045260246000fd5b600181811c90821680620002ce57607f821691505b602082108103620002ef57634e487b7160e01b600052602260045260246000fd5b50919050565b601f82111562000345576000816000526020600020601f850160051c81016020861015620003205750805b601f850160051c820191505b8181101562000341578281556001016200032c565b5050505b505050565b81516001600160401b03811115620003665762000366620002a3565b6200037e81620003778454620002b9565b84620002f5565b602080601f831160018114620003b657600084156200039d5750858301515b600019600386901b1c1916600185901b17855562000341565b600085815260208120601f198616915b82811015620003e757888601518255948401946001909101908401620003c6565b5085821015620004065787850151600019600388901b60f8161c191681555b5050505050600190811b01905550565b808201808211156200043857634e487b7160e01b600052601160045260246000fd5b92915050565b610ae6806200044e6000396000f3fe608060405234801561001057600080fd5b50600436106101215760003560e01c806376697640116100ad578063a9059cbb11610071578063a9059cbb14610255578063b77cf9c614610268578063dd62ed3e14610288578063de5f72fd146102c1578063f2fde38b146102c957600080fd5b806376697640146102045780637a1395aa146102155780637d1d5d19146102285780638da5cb5b1461023257806395d89b411461024d57600080fd5b806323b872dd116100f457806323b872dd1461018c578063313ce5671461019f57806340c10f19146101be57806370a08231146101d3578063715018a6146101fc57600080fd5b806306fdde0314610126578063076c702a14610144578063095ea7b31461016757806318160ddd1461017a575b600080fd5b61012e6102dc565b60405161013b919061090c565b60405180910390f35b610157610152366004610977565b61036e565b604051901515815260200161013b565b610157610175366004610977565b610385565b6002545b60405190815260200161013b565b61015761019a3660046109a1565b61039d565b600554600160a01b900460ff1660405160ff909116815260200161013b565b6101d16101cc366004610977565b6103c1565b005b61017e6101e13660046109dd565b6001600160a01b031660009081526020819052604090205490565b6101d16103d7565b61017e69021e19e0c9bab240000081565b6101d16102233660046109ff565b6103eb565b61017e6201518081565b6005546040516001600160a01b03909116815260200161013b565b61012e61046b565b610157610263366004610977565b61047a565b61017e6102763660046109dd565b60066020526000908152604090205481565b61017e610296366004610a22565b6001600160a01b03918216600090815260016020908152604080832093909416825291909152205490565b6101d1610488565b6101d16102d73660046109dd565b61052a565b6060600380546102eb90610a55565b80601f016020809104026020016040519081016040528092919081815260200182805461031790610a55565b80156103645780601f1061033957610100808354040283529160200191610364565b820191906000526020600020905b81548152906001019060200180831161034757829003601f168201915b5050505050905090565b600061037b338484610568565b5060015b92915050565b600033610393818585610568565b5060019392505050565b6000336103ab85828561057a565b6103b68585856105f9565b506001949350505050565b6103c9610658565b6103d38282610685565b5050565b6103df610658565b6103e960006106bb565b565b6103f3610658565b8060ff166006148061040857508060ff166012145b61044b5760405162461bcd60e51b815260206004820152600f60248201526e09aeae6e840c4ca406c40dee440627608b1b60448201526064015b60405180910390fd5b6005805460ff909216600160a01b0260ff60a01b19909216919091179055565b6060600480546102eb90610a55565b6000336103938185856105f9565b336000908152600660205260409020546104a6906201518090610a8f565b4210156105045760405162461bcd60e51b815260206004820152602660248201527f506c65617365207761697420323420686f757273206265666f7265206e65787460448201526520636c61696d60d01b6064820152608401610442565b3360008181526006602052604090204290556103e99069021e19e0c9bab2400000610685565b610532610658565b6001600160a01b03811661055c57604051631e4fbdf760e01b815260006004820152602401610442565b610565816106bb565b50565b610575838383600161070d565b505050565b6001600160a01b038381166000908152600160209081526040808320938616835292905220546000198110156105f357818110156105e457604051637dc7a0d960e11b81526001600160a01b03841660048201526024810182905260448101839052606401610442565b6105f38484848403600061070d565b50505050565b6001600160a01b03831661062357604051634b637e8f60e11b815260006004820152602401610442565b6001600160a01b03821661064d5760405163ec442f0560e01b815260006004820152602401610442565b6105758383836107e2565b6005546001600160a01b031633146103e95760405163118cdaa760e01b8152336004820152602401610442565b6001600160a01b0382166106af5760405163ec442f0560e01b815260006004820152602401610442565b6103d3600083836107e2565b600580546001600160a01b038381166001600160a01b0319831681179093556040519116919082907f8be0079c531659141344cd1fd0a4f28419497f9722a3daafe3b4186f6b6457e090600090a35050565b6001600160a01b0384166107375760405163e602df0560e01b815260006004820152602401610442565b6001600160a01b03831661076157604051634a1406b160e11b815260006004820152602401610442565b6001600160a01b03808516600090815260016020908152604080832093871683529290522082905580156105f357826001600160a01b0316846001600160a01b03167f8c5be1e5ebec7d5bd14f71427d1e84f3dd0314c0f7b2291e5b200ac8c7c3b925846040516107d491815260200190565b60405180910390a350505050565b6001600160a01b03831661080d5780600260008282546108029190610a8f565b9091555061087f9050565b6001600160a01b038316600090815260208190526040902054818110156108605760405163391434e360e21b81526001600160a01b03851660048201526024810182905260448101839052606401610442565b6001600160a01b03841660009081526020819052604090209082900390555b6001600160a01b03821661089b576002805482900390556108ba565b6001600160a01b03821660009081526020819052604090208054820190555b816001600160a01b0316836001600160a01b03167fddf252ad1be2c89b69c2b068fc378daa952ba7f163c4a11628f55a4df523b3ef836040516108ff91815260200190565b60405180910390a3505050565b60006020808352835180602085015260005b8181101561093a5785810183015185820160400152820161091e565b506000604082860101526040601f19601f8301168501019250505092915050565b80356001600160a01b038116811461097257600080fd5b919050565b6000806040838503121561098a57600080fd5b6109938361095b565b946020939093013593505050565b6000806000606084860312156109b657600080fd5b6109bf8461095b565b92506109cd6020850161095b565b9150604084013590509250925092565b6000602082840312156109ef57600080fd5b6109f88261095b565b9392505050565b600060208284031215610a1157600080fd5b813560ff811681146109f857600080fd5b60008060408385031215610a3557600080fd5b610a3e8361095b565b9150610a4c6020840161095b565b90509250929050565b600181811c90821680610a6957607f821691505b602082108103610a8957634e487b7160e01b600052602260045260246000fd5b50919050565b8082018082111561037f57634e487b7160e01b600052601160045260246000fdfea2646970667358221220b65f8bf6b054ee1cac801126b9c9286a927fd8df06fb94a630ba5e67f4037a9064736f6c63430008180033",
  "linkReferences": {},
  "deployedLinkReferences": {}
}