{
  "_format": "hh-sol-artifact-1",
  "contractName": "OSLOReferral",
  "sourceName": "contracts/OSLOReferral.sol",
  "abi": [
    {
      "inputs": [
        {
          "internalType": "address",
          "name": "_usdt",
          "type": "address"
        },
        {
          "internalType": "address",
          "name": "_osloToken",
          "type": "address"
        }
      ],
      "stateMutability": "nonpayable",
      "type": "constructor"
    },
    {
      "inputs": [],
      "name": "AlreadyRegistered",
      "type": "error"
    },
    {
      "inputs": [],
      "name": "InvalidReferrer",
      "type": "error"
    },
    {
      "inputs": [],
      "name": "NotRegistered",
      "type": "error"
    },
    {
      "inputs": [],
      "name": "NothingToClaim",
      "type": "error"
    },
    {
      "inputs": [],
      "name": "OnlyAdmin",
      "type": "error"
    },
    {
      "inputs": [],
      "name": "OnlyInvestmentEngine",
      "type": "error"
    },
    {
      "inputs": [],
      "name": "OnlyTimelock",
      "type": "error"
    },
    {
      "inputs": [],
      "name": "ReentrancyGuardReentrantCall",
      "type": "error"
    },
    {
      "inputs": [
        {
          "internalType": "address",
          "name": "token",
          "type": "address"
        }
      ],
      "name": "SafeERC20FailedOperation",
      "type": "error"
    },
    {
      "inputs": [],
      "name": "SelfReferral",
      "type": "error"
    },
    {
      "inputs": [],
      "name": "SetupAlreadyComplete",
      "type": "error"
    },
    {
      "inputs": [],
      "name": "ZeroAddress",
      "type": "error"
    },
    {
      "anonymous": false,
      "inputs": [
        {
          "indexed": true,
          "internalType": "address",
          "name": "user",
          "type": "address"
        },
        {
          "indexed": false,
          "internalType": "uint256",
          "name": "level",
          "type": "uint256"
        }
      ],
      "name": "LevelUnlocked",
      "type": "event"
    },
    {
      "anonymous": false,
      "inputs": [
        {
          "indexed": true,
          "internalType": "address",
          "name": "upline",
          "type": "address"
        },
        {
          "indexed": true,
          "internalType": "address",
          "name": "downline",
          "type": "address"
        },
        {
          "indexed": false,
          "internalType": "uint256",
          "name": "level",
          "type": "uint256"
        },
        {
          "indexed": false,
          "internalType": "uint256",
          "name": "amount",
          "type": "uint256"
        }
      ],
      "name": "ReferralPaid",
      "type": "event"
    },
    {
      "anonymous": false,
      "inputs": [
        {
          "indexed": true,
          "internalType": "address",
          "name": "user",
          "type": "address"
        },
        {
          "indexed": false,
          "internalType": "uint256",
          "name": "amount",
          "type": "uint256"
        }
      ],
      "name": "ReferralRewardsClaimed",
      "type": "event"
    },
    {
      "anonymous": false,
      "inputs": [
        {
          "indexed": true,
          "internalType": "address",
          "name": "user",
          "type": "address"
        },
        {
          "indexed": false,
          "internalType": "uint256",
          "name": "fee",
          "type": "uint256"
        },
        {
          "indexed": false,
          "internalType": "uint256",
          "name": "osloBurned",
          "type": "uint256"
        }
      ],
      "name": "RegistrationFeeProcessed",
      "type": "event"
    },
    {
      "anonymous": false,
      "inputs": [
        {
          "indexed": true,
          "internalType": "address",
          "name": "user",
          "type": "address"
        },
        {
          "indexed": true,
          "internalType": "address",
          "name": "referrer",
          "type": "address"
        }
      ],
      "name": "UserRegistered",
      "type": "event"
    },
    {
      "inputs": [],
      "name": "REGISTRATION_FEE",
      "outputs": [
        {
          "internalType": "uint256",
          "name": "",
          "type": "uint256"
        }
      ],
      "stateMutability": "view",
      "type": "function"
    },
    {
      "inputs": [],
      "name": "admin",
      "outputs": [
        {
          "internalType": "address",
          "name": "",
          "type": "address"
        }
      ],
      "stateMutability": "view",
      "type": "function"
    },
    {
      "inputs": [
        {
          "internalType": "address",
          "name": "user",
          "type": "address"
        }
      ],
      "name": "checkAndUnlockLevels",
      "outputs": [],
      "stateMutability": "nonpayable",
      "type": "function"
    },
    {
      "inputs": [],
      "name": "claimReferralRewards",
      "outputs": [],
      "stateMutability": "nonpayable",
      "type": "function"
    },
    {
      "inputs": [],
      "name": "completeSetup",
      "outputs": [],
      "stateMutability": "nonpayable",
      "type": "function"
    },
    {
      "inputs": [
        {
          "internalType": "address",
          "name": "_investmentEngine",
          "type": "address"
        },
        {
          "internalType": "address",
          "name": "_osloDex",
          "type": "address"
        },
        {
          "internalType": "address",
          "name": "_timelock",
          "type": "address"
        }
      ],
      "name": "configure",
      "outputs": [],
      "stateMutability": "nonpayable",
      "type": "function"
    },
    {
      "inputs": [
        {
          "internalType": "address",
          "name": "user",
          "type": "address"
        },
        {
          "internalType": "uint256",
          "name": "profitAmount",
          "type": "uint256"
        }
      ],
      "name": "distributeReferralCommission",
      "outputs": [
        {
          "internalType": "uint256",
          "name": "totalDistributed",
          "type": "uint256"
        }
      ],
      "stateMutability": "nonpayable",
      "type": "function"
    },
    {
      "inputs": [
        {
          "internalType": "address",
          "name": "user",
          "type": "address"
        }
      ],
      "name": "getAllLevelIncome",
      "outputs": [
        {
          "internalType": "uint256[21]",
          "name": "",
          "type": "uint256[21]"
        }
      ],
      "stateMutability": "view",
      "type": "function"
    },
    {
      "inputs": [
        {
          "internalType": "address",
          "name": "user",
          "type": "address"
        }
      ],
      "name": "getDirectReferrals",
      "outputs": [
        {
          "internalType": "address[]",
          "name": "",
          "type": "address[]"
        }
      ],
      "stateMutability": "view",
      "type": "function"
    },
    {
      "inputs": [
        {
          "internalType": "address",
          "name": "user",
          "type": "address"
        },
        {
          "internalType": "uint256",
          "name": "level",
          "type": "uint256"
        }
      ],
      "name": "getLevelIncome",
      "outputs": [
        {
          "internalType": "uint256",
          "name": "",
          "type": "uint256"
        }
      ],
      "stateMutability": "view",
      "type": "function"
    },
    {
      "inputs": [
        {
          "internalType": "address",
          "name": "user",
          "type": "address"
        }
      ],
      "name": "getQualifiedDirectsCount",
      "outputs": [
        {
          "internalType": "uint256",
          "name": "",
          "type": "uint256"
        }
      ],
      "stateMutability": "view",
      "type": "function"
    },
    {
      "inputs": [
        {
          "internalType": "address",
          "name": "user",
          "type": "address"
        }
      ],
      "name": "getReferrer",
      "outputs": [
        {
          "internalType": "address",
          "name": "",
          "type": "address"
        }
      ],
      "stateMutability": "view",
      "type": "function"
    },
    {
      "inputs": [
        {
          "internalType": "address",
          "name": "user",
          "type": "address"
        }
      ],
      "name": "getTeamSize",
      "outputs": [
        {
          "internalType": "uint256",
          "name": "",
          "type": "uint256"
        }
      ],
      "stateMutability": "view",
      "type": "function"
    },
    {
      "inputs": [
        {
          "internalType": "address",
          "name": "user",
          "type": "address"
        }
      ],
      "name": "getUnlockedLevels",
      "outputs": [
        {
          "internalType": "uint256",
          "name": "",
          "type": "uint256"
        }
      ],
      "stateMutability": "view",
      "type": "function"
    },
    {
      "inputs": [],
      "name": "investmentEngine",
      "outputs": [
        {
          "internalType": "address",
          "name": "",
          "type": "address"
        }
      ],
      "stateMutability": "view",
      "type": "function"
    },
    {
      "inputs": [
        {
          "internalType": "address",
          "name": "user",
          "type": "address"
        }
      ],
      "name": "isRegistered",
      "outputs": [
        {
          "internalType": "bool",
          "name": "",
          "type": "bool"
        }
      ],
      "stateMutability": "view",
      "type": "function"
    },
    {
      "inputs": [
        {
          "internalType": "address",
          "name": "",
          "type": "address"
        },
        {
          "internalType": "uint256",
          "name": "",
          "type": "uint256"
        }
      ],
      "name": "levelIncome",
      "outputs": [
        {
          "internalType": "uint256",
          "name": "",
          "type": "uint256"
        }
      ],
      "stateMutability": "view",
      "type": "function"
    },
    {
      "inputs": [
        {
          "internalType": "address[]",
          "name": "_users",
          "type": "address[]"
        },
        {
          "internalType": "uint256[]",
          "name": "_totalEarned",
          "type": "uint256[]"
        },
        {
          "internalType": "uint256[]",
          "name": "_referralRewards",
          "type": "uint256[]"
        }
      ],
      "name": "migrateEarnings",
      "outputs": [],
      "stateMutability": "nonpayable",
      "type": "function"
    },
    {
      "inputs": [
        {
          "internalType": "address[]",
          "name": "_users",
          "type": "address[]"
        },
        {
          "internalType": "address[]",
          "name": "_referrers",
          "type": "address[]"
        },
        {
          "internalType": "uint256[]",
          "name": "_unlockedLevels",
          "type": "uint256[]"
        }
      ],
      "name": "migrateUsers",
      "outputs": [],
      "stateMutability": "nonpayable",
      "type": "function"
    },
    {
      "inputs": [],
      "name": "osloDex",
      "outputs": [
        {
          "internalType": "address",
          "name": "",
          "type": "address"
        }
      ],
      "stateMutability": "view",
      "type": "function"
    },
    {
      "inputs": [],
      "name": "osloToken",
      "outputs": [
        {
          "internalType": "contract IERC20",
          "name": "",
          "type": "address"
        }
      ],
      "stateMutability": "view",
      "type": "function"
    },
    {
      "inputs": [
        {
          "internalType": "address",
          "name": "",
          "type": "address"
        }
      ],
      "name": "referralRewards",
      "outputs": [
        {
          "internalType": "uint256",
          "name": "",
          "type": "uint256"
        }
      ],
      "stateMutability": "view",
      "type": "function"
    },
    {
      "inputs": [
        {
          "internalType": "address",
          "name": "user",
          "type": "address"
        },
        {
          "internalType": "address",
          "name": "referrer",
          "type": "address"
        }
      ],
      "name": "register",
      "outputs": [],
      "stateMutability": "nonpayable",
      "type": "function"
    },
    {
      "inputs": [
        {
          "internalType": "address",
          "name": "_investmentEngine",
          "type": "address"
        }
      ],
      "name": "setInvestmentEngine",
      "outputs": [],
      "stateMutability": "nonpayable",
      "type": "function"
    },
    {
      "inputs": [],
      "name": "setupComplete",
      "outputs": [
        {
          "internalType": "bool",
          "name": "",
          "type": "bool"
        }
      ],
      "stateMutability": "view",
      "type": "function"
    },
    {
      "inputs": [],
      "name": "timelock",
      "outputs": [
        {
          "internalType": "address",
          "name": "",
          "type": "address"
        }
      ],
      "stateMutability": "view",
      "type": "function"
    },
    {
      "inputs": [],
      "name": "totalCommissionsPaid",
      "outputs": [
        {
          "internalType": "uint256",
          "name": "",
          "type": "uint256"
        }
      ],
      "stateMutability": "view",
      "type": "function"
    },
    {
      "inputs": [],
      "name": "totalFeesCollected",
      "outputs": [
        {
          "internalType": "uint256",
          "name": "",
          "type": "uint256"
        }
      ],
      "stateMutability": "view",
      "type": "function"
    },
    {
      "inputs": [],
      "name": "totalRegistered",
      "outputs": [
        {
          "internalType": "uint256",
          "name": "",
          "type": "uint256"
        }
      ],
      "stateMutability": "view",
      "type": "function"
    },
    {
      "inputs": [],
      "name": "usdt",
      "outputs": [
        {
          "internalType": "contract IERC20",
          "name": "",
          "type": "address"
        }
      ],
      "stateMutability": "view",
      "type": "function"
    },
    {
      "inputs": [
        {
          "internalType": "address",
          "name": "",
          "type": "address"
        }
      ],
      "name": "userInfo",
      "outputs": [
        {
          "internalType": "address",
          "name": "referrer",
          "type": "address"
        },
        {
          "internalType": "uint256",
          "name": "unlockedLevels",
          "type": "uint256"
        },
        {
          "internalType": "uint256",
          "name": "totalEarned",
          "type": "uint256"
        },
        {
          "internalType": "bool",
          "name": "registered",
          "type": "bool"
        }
      ],
      "stateMutability": "view",
      "type": "function"
    }
  ],
  "bytecode": "0x60c06040523480156200001157600080fd5b5060405162001d6d38038062001d6d8339810160408190526200003491620000dc565b60017f9b779b17422d0df92223018b32b4d1fa46e071723d6817e2486d003becc55f00556001600160a01b03821615806200007657506001600160a01b038116155b15620000955760405163d92e233d60e01b815260040160405180910390fd5b6001600160a01b039182166080521660a052600280546001600160a01b0319163317905562000114565b80516001600160a01b0381168114620000d757600080fd5b919050565b60008060408385031215620000f057600080fd5b620000fb83620000bf565b91506200010b60208401620000bf565b90509250929050565b60805160a051611c1e6200014f60003960008181610306015261069101526000818161034501528181610ee50152610f750152611c1e6000f3fe608060405234801561001057600080fd5b50600436106101e55760003560e01c806364df82221161010f578063b8458282116100a2578063cb4f51d111610071578063cb4f51d11461051a578063d2c8e0e51461052d578063d33219b41461054d578063f851a4401461056057600080fd5b8063b8458282146104bb578063c3c5a547146104ce578063c631e2bd146104fe578063c6d83fcf1461051157600080fd5b8063927416c0116100de578063927416c0146104685780639d2d743d14610471578063aa67735414610484578063b6635be61461049757600080fd5b806364df8222146104045780638000d9911461043a5780638565c2bf1461044d5780638aea8f711461046057600080fd5b80632f48ab7d1161018757806353aaa63b1161015657806353aaa63b146103b957806355d28f20146103d957806360c6d8ae146103ec57806364b4f751146103f557600080fd5b80632f48ab7d1461034057806330131384146103675780634a9fefc71461037a578063519f1640146103a657600080fd5b80631e97f48a116101c35780631e97f48a146102a25780631f791b69146102c25780632573912c146102ee5780632acfbca31461030157600080fd5b806305eaab4b146101ea5780630b35d7d1146101f45780631959a00214610232575b600080fd5b6101f2610573565b005b61021f6102023660046118f5565b600660209081526000928352604080842090915290825290205481565b6040519081526020015b60405180910390f35b61027661024036600461191f565b600460208190526000918252604090912080546002820154600383015492909301546001600160a01b0390911692919060ff1684565b604080516001600160a01b03909516855260208501939093529183015215156060820152608001610229565b6102b56102b036600461191f565b61071a565b6040516102299190611941565b61021f6102d036600461191f565b6001600160a01b031660009081526004602052604090206002015490565b6101f26102fc36600461191f565b6107b2565b6103287f000000000000000000000000000000000000000000000000000000000000000081565b6040516001600160a01b039091168152602001610229565b6103287f000000000000000000000000000000000000000000000000000000000000000081565b600054610328906001600160a01b031681565b61032861038836600461191f565b6001600160a01b039081166000908152600460205260409020541690565b61021f6103b436600461191f565b6108ab565b61021f6103c736600461191f565b60056020526000908152604090205481565b6101f26103e7366004611973565b6108be565b61021f60095481565b61021f670de0b6b3a764000081565b61021f6104123660046118f5565b6001600160a01b03919091166000908152600660209081526040808320938352929052205490565b61021f6104483660046118f5565b610953565b600154610328906001600160a01b031681565b6101f2610be0565b61021f60075481565b6101f261047f366004611a02565b610c5b565b6101f2610492366004611a9c565b610ddd565b6003546104ab90600160a01b900460ff1681565b6040519015158152602001610229565b61021f6104c936600461191f565b61117d565b6104ab6104dc36600461191f565b6001600160a01b03166000908152600460208190526040909120015460ff1690565b6101f261050c366004611a02565b611188565b61021f60085481565b6101f261052836600461191f565b6113da565b61054061053b36600461191f565b611427565b6040516102299190611acf565b600354610328906001600160a01b031681565b600254610328906001600160a01b031681565b61057b6114a0565b336000908152600460205260409020546001600160a01b03166105b15760405163aba4733960e01b815260040160405180910390fd5b33600090815260056020526040812054908190036105e2576040516312d37ee560e31b815260040160405180910390fd5b3360009081526005602052604080822082905560015490516311ea9fa960e21b8152600481018490526001600160a01b03909116906347aa7ea490602401602060405180830381865afa15801561063d573d6000803e3d6000fd5b505050506040513d601f19601f820116820180604052508101906106619190611b1c565b905080600003610684576040516312d37ee560e31b815260040160405180910390fd5b6106b86001600160a01b037f00000000000000000000000000000000000000000000000000000000000000001633836114ce565b60405182815233907f98741ecf35c5d20a8ed68dbd8540500684864a6c98c2a41a5844d0b3a2357d439060200160405180910390a2505061071860017f9b779b17422d0df92223018b32b4d1fa46e071723d6817e2486d003becc55f0055565b565b6107226118ba565b61072a6118ba565b60015b601481116107ab576001600160a01b038416600090815260066020908152604080832084845290915290205482826015811061076b5761076b611b35565b602002015281816015811061078257610782611b35565b602002015182518390610796908390611b61565b905250806107a381611b74565b91505061072d565b5092915050565b6001600160a01b0381166000908152600460208190526040909120015460ff166107d95750565b60006107e482611503565b905060006107f18261160c565b6001600160a01b0384166000908152600460205260409020600201549091508111156108a6576001600160a01b038316600090815260046020526040812060020180549083905590610844826001611b61565b90505b8281116108a357846001600160a01b03167f084d80ac1b703449f5931daa49aa5ad902f79624e20313db57074f53c5aca3418260405161088991815260200190565b60405180910390a28061089b81611b74565b915050610847565b50505b505050565b60006108b8826000611666565b92915050565b6002546001600160a01b031633146108e957604051634755657960e01b815260040160405180910390fd5b600354600160a01b900460ff16156109145760405163238f75d360e01b815260040160405180910390fd5b600080546001600160a01b039485166001600160a01b031991821617909155600180549385169382169390931790925560038054919093169116179055565b600080546001600160a01b0316331461097f57604051630559b36f60e11b815260040160405180910390fd5b8160000361098f575060006108b8565b8260015b60148111610bd8576001600160a01b0380831660009081526004602052604090205416806109c15750610bd8565b6001600160a01b03818116600090815260046020526040902054166109e65750610bd8565b6001600160a01b0381166000908152600460205260409020600201548211610bc4576000610a13836116f8565b90506000612710610a248389611b8d565b610a2e9190611ba4565b90508015610bc1576001600160a01b03831660009081526005602052604081208054839290610a5e908490611b61565b90915550506001600160a01b038316600090815260066020908152604080832087845290915281208054839290610a96908490611b61565b90915550506001600160a01b03831660009081526004602052604081206003018054839290610ac6908490611b61565b925050819055508060086000828254610adf9190611b61565b90915550610aef90508187611b61565b6000549096506001600160a01b031615610b6a576000546040516335cfbd5b60e11b81526001600160a01b0385811660048301526024820184905290911690636b9f7ab690604401600060405180830381600087803b158015610b5157600080fd5b505af1158015610b65573d6000803e3d6000fd5b505050505b876001600160a01b0316836001600160a01b03167f65db98422e8b7340e0d6dfa99bbadd4ba95a51fefafd8f0e1cbbb2e819429a428684604051610bb8929190918252602082015260400190565b60405180910390a35b50505b915080610bd081611b74565b915050610993565b505092915050565b6002546001600160a01b03163314610c0b57604051634755657960e01b815260040160405180910390fd5b600354600160a01b900460ff1615610c365760405163238f75d360e01b815260040160405180910390fd5b6003805460ff60a01b1916600160a01b179055600280546001600160a01b0319169055565b6002546001600160a01b03163314610c8657604051634755657960e01b815260040160405180910390fd5b600354600160a01b900460ff1615610cb15760405163238f75d360e01b815260040160405180910390fd5b8483148015610cbf57508481145b610d025760405162461bcd60e51b815260206004820152600f60248201526e098cadccee8d040dad2e6dac2e8c6d608b1b60448201526064015b60405180910390fd5b60005b85811015610dd457848482818110610d1f57610d1f611b35565b9050602002013560046000898985818110610d3c57610d3c611b35565b9050602002016020810190610d51919061191f565b6001600160a01b03168152602081019190915260400160002060030155828282818110610d8057610d80611b35565b9050602002013560056000898985818110610d9d57610d9d611b35565b9050602002016020810190610db2919061191f565b6001600160a01b03168152602081019190915260400160002055600101610d05565b50505050505050565b6001600160a01b038216610e045760405163d92e233d60e01b815260040160405180910390fd5b6001600160a01b038116610e2b57604051630c22084560e31b815260040160405180910390fd5b6001600160a01b0382166000908152600460208190526040909120015460ff1615610e6957604051630ea075bf60e21b815260040160405180910390fd5b806001600160a01b0316826001600160a01b031603610e9b57604051632af47b8760e11b815260040160405180910390fd5b6001600160a01b0381166000908152600460208190526040909120015460ff16610ed857604051630c22084560e31b815260040160405180910390fd5b610f156001600160a01b037f0000000000000000000000000000000000000000000000000000000000000000168330670de0b6b3a7640000611764565b670de0b6b3a764000060096000828254610f2f9190611b61565b90915550506001546001600160a01b0316156110955760015460405163095ea7b360e01b81526001600160a01b039182166004820152670de0b6b3a764000060248201527f00000000000000000000000000000000000000000000000000000000000000009091169063095ea7b3906044016020604051808303816000875af1158015610fc0573d6000803e3d6000fd5b505050506040513d601f19601f82011682018060405250810190610fe49190611bc6565b50600154604051632276741b60e01b8152670de0b6b3a764000060048201526001600160a01b0390911690632276741b90602401600060405180830381600087803b15801561103257600080fd5b505af1925050508015611043575060015b156110955760408051670de0b6b3a76400008152600060208201526001600160a01b038416917f285cf258850ff8cf5d55ec19e46476d4e3d5209972f80a7880a38ac7011e7023910160405180910390a25b6001600160a01b038083166000908152600460208190526040909120908101805460ff1916600190811790915581549284166001600160a01b03199093168317825560029091015515611124576001600160a01b0381811660009081526004602090815260408220600190810180549182018155835291200180546001600160a01b0319169184169190911790555b6007805490600061113483611b74565b9190505550806001600160a01b0316826001600160a01b03167f2138b9314634f9fdd5e49bee3eaf17ca557b6637524d0db759711c3bfcd3d85060405160405180910390a35050565b60006108b882611503565b6002546001600160a01b031633146111b357604051634755657960e01b815260040160405180910390fd5b600354600160a01b900460ff16156111de5760405163238f75d360e01b815260040160405180910390fd5b84831480156111ec57508481145b61122a5760405162461bcd60e51b815260206004820152600f60248201526e098cadccee8d040dad2e6dac2e8c6d608b1b6044820152606401610cf9565b60005b85811015610dd457600087878381811061124957611249611b35565b905060200201602081019061125e919061191f565b9050600086868481811061127457611274611b35565b9050602002016020810190611289919061191f565b6001600160a01b0383166000908152600460208190526040909120015490915060ff16156112b85750506113d2565b6001600160a01b03828116600090815260046020819052604090912080546001600160a01b03191692841692909217825501805460ff1916600117905584848481811061130757611307611b35565b6001600160a01b038086166000908152600460209081526040909120920293909301356002909101555081161561137a576001600160a01b0381811660009081526004602090815260408220600190810180549182018155835291200180546001600160a01b0319169184169190911790555b6007805490600061138a83611b74565b9190505550806001600160a01b0316826001600160a01b03167f2138b9314634f9fdd5e49bee3eaf17ca557b6637524d0db759711c3bfcd3d85060405160405180910390a350505b60010161122d565b6003546001600160a01b0316331461140557604051630e05f48560e11b815260040160405180910390fd5b600080546001600160a01b0319166001600160a01b0392909216919091179055565b6001600160a01b03811660009081526004602090815260409182902060010180548351818402810184019094528084526060939283018282801561149457602002820191906000526020600020905b81546001600160a01b03168152600190910190602001808311611476575b50505050509050919050565b6114a86117a0565b60027f9b779b17422d0df92223018b32b4d1fa46e071723d6817e2486d003becc55f0055565b6114db83838360016117e2565b6108a657604051635274afe760e01b81526001600160a01b0384166004820152602401610cf9565b6001600160a01b03811660009081526004602052604081208190600101815b8154811015611603576000546001600160a01b0316156115fb576000805483546001600160a01b039091169063142a3da39085908590811061156657611566611b35565b60009182526020909120015460405160e083901b6001600160e01b03191681526001600160a01b039091166004820152602401602060405180830381865afa1580156115b6573d6000803e3d6000fd5b505050506040513d601f19601f820116820180604052508101906115da9190611b1c565b9050678ac7230489e8000081106115f957836115f581611b74565b9450505b505b600101611522565b50909392505050565b60006007821061161e57506014919050565b6005821061162e57506010919050565b6003821061163e5750600c919050565b6002821061164e57506008919050565b6001821061165e57506003919050565b506001919050565b600060148210611678575060006108b8565b6001600160a01b0383166000908152600460205260408120600101805490915b82548110156116ef576116db8382815481106116b6576116b6611b35565b6000918252602090912001546001600160a01b03166116d6876001611b61565b611666565b6116e59083611b61565b9150600101611698565b50949350505050565b60008160010361170b5750610bb8919050565b8160020361171c57506107d0919050565b6003821015801561172e5750600a8211155b1561173c57506103e8919050565b600b821015801561174e575060148211155b1561175c57506101f4919050565b506000919050565b611772848484846001611848565b61179a57604051635274afe760e01b81526001600160a01b0385166004820152602401610cf9565b50505050565b7f9b779b17422d0df92223018b32b4d1fa46e071723d6817e2486d003becc55f005460020361071857604051633ee5aeb560e01b815260040160405180910390fd5b60405163a9059cbb60e01b60008181526001600160a01b038616600452602485905291602083604481808b5af19250600160005114831661183c57838315161561182f573d6000823e3d81fd5b6000873b113d1516831692505b60405250949350505050565b6040516323b872dd60e01b60008181526001600160a01b038781166004528616602452604485905291602083606481808c5af1925060016000511483166118a857838315161561189b573d6000823e3d81fd5b6000883b113d1516831692505b60405250600060605295945050505050565b604051806102a001604052806015906020820280368337509192915050565b80356001600160a01b03811681146118f057600080fd5b919050565b6000806040838503121561190857600080fd5b611911836118d9565b946020939093013593505050565b60006020828403121561193157600080fd5b61193a826118d9565b9392505050565b6102a08101818360005b601581101561196a57815183526020928301929091019060010161194b565b50505092915050565b60008060006060848603121561198857600080fd5b611991846118d9565b925061199f602085016118d9565b91506119ad604085016118d9565b90509250925092565b60008083601f8401126119c857600080fd5b50813567ffffffffffffffff8111156119e057600080fd5b6020830191508360208260051b85010111156119fb57600080fd5b9250929050565b60008060008060008060608789031215611a1b57600080fd5b863567ffffffffffffffff80821115611a3357600080fd5b611a3f8a838b016119b6565b90985096506020890135915080821115611a5857600080fd5b611a648a838b016119b6565b90965094506040890135915080821115611a7d57600080fd5b50611a8a89828a016119b6565b979a9699509497509295939492505050565b60008060408385031215611aaf57600080fd5b611ab8836118d9565b9150611ac6602084016118d9565b90509250929050565b6020808252825182820181905260009190848201906040850190845b81811015611b105783516001600160a01b031683529284019291840191600101611aeb565b50909695505050505050565b600060208284031215611b2e57600080fd5b5051919050565b634e487b7160e01b600052603260045260246000fd5b634e487b7160e01b600052601160045260246000fd5b808201808211156108b8576108b8611b4b565b600060018201611b8657611b86611b4b565b5060010190565b80820281158282048414176108b8576108b8611b4b565b600082611bc157634e487b7160e01b600052601260045260246000fd5b500490565b600060208284031215611bd857600080fd5b8151801515811461193a57600080fdfea2646970667358221220e9d76218d71dd16627c34ca68fa082c0e3a72e3e8192e312e4749e5f2f4b4fd064736f6c63430008180033",
  "linkReferences": {},
  "deployedLinkReferences": {}
}