{
  "_format": "hh-sol-artifact-1",
  "contractName": "OSLORankSystem",
  "sourceName": "contracts/OSLORankSystem.sol",
  "abi": [
    {
      "inputs": [
        {
          "internalType": "address",
          "name": "_busd",
          "type": "address"
        }
      ],
      "stateMutability": "nonpayable",
      "type": "constructor"
    },
    {
      "inputs": [],
      "name": "AlreadyClaimed",
      "type": "error"
    },
    {
      "inputs": [],
      "name": "CurrentWeekNotClaimable",
      "type": "error"
    },
    {
      "inputs": [],
      "name": "DEXNotPriced",
      "type": "error"
    },
    {
      "inputs": [],
      "name": "InsufficientBonusPool",
      "type": "error"
    },
    {
      "inputs": [],
      "name": "NoBonus",
      "type": "error"
    },
    {
      "inputs": [],
      "name": "OnlyAdmin",
      "type": "error"
    },
    {
      "inputs": [],
      "name": "OnlyInvestmentEngine",
      "type": "error"
    },
    {
      "inputs": [],
      "name": "ReentrancyGuardReentrantCall",
      "type": "error"
    },
    {
      "inputs": [
        {
          "internalType": "address",
          "name": "token",
          "type": "address"
        }
      ],
      "name": "SafeERC20FailedOperation",
      "type": "error"
    },
    {
      "inputs": [],
      "name": "SetupAlreadyComplete",
      "type": "error"
    },
    {
      "inputs": [],
      "name": "ZeroAddress",
      "type": "error"
    },
    {
      "anonymous": false,
      "inputs": [
        {
          "indexed": false,
          "internalType": "uint256",
          "name": "amount",
          "type": "uint256"
        }
      ],
      "name": "BonusPoolFunded",
      "type": "event"
    },
    {
      "anonymous": false,
      "inputs": [
        {
          "indexed": true,
          "internalType": "address",
          "name": "user",
          "type": "address"
        },
        {
          "indexed": false,
          "internalType": "uint256",
          "name": "rank",
          "type": "uint256"
        },
        {
          "indexed": false,
          "internalType": "uint256",
          "name": "weekId",
          "type": "uint256"
        },
        {
          "indexed": false,
          "internalType": "uint256",
          "name": "turnover",
          "type": "uint256"
        }
      ],
      "name": "RankAchieved",
      "type": "event"
    },
    {
      "anonymous": false,
      "inputs": [
        {
          "indexed": true,
          "internalType": "address",
          "name": "user",
          "type": "address"
        },
        {
          "indexed": false,
          "internalType": "uint256",
          "name": "amount",
          "type": "uint256"
        },
        {
          "indexed": false,
          "internalType": "uint256",
          "name": "weekId",
          "type": "uint256"
        }
      ],
      "name": "RankBonusClaimed",
      "type": "event"
    },
    {
      "anonymous": false,
      "inputs": [
        {
          "indexed": true,
          "internalType": "address",
          "name": "user",
          "type": "address"
        },
        {
          "indexed": false,
          "internalType": "uint256",
          "name": "amount",
          "type": "uint256"
        },
        {
          "indexed": false,
          "internalType": "uint256",
          "name": "weekId",
          "type": "uint256"
        }
      ],
      "name": "TurnoverRecorded",
      "type": "event"
    },
    {
      "inputs": [],
      "name": "admin",
      "outputs": [
        {
          "internalType": "address",
          "name": "",
          "type": "address"
        }
      ],
      "stateMutability": "view",
      "type": "function"
    },
    {
      "inputs": [],
      "name": "bonusPoolBalance",
      "outputs": [
        {
          "internalType": "uint256",
          "name": "",
          "type": "uint256"
        }
      ],
      "stateMutability": "view",
      "type": "function"
    },
    {
      "inputs": [],
      "name": "busd",
      "outputs": [
        {
          "internalType": "contract IERC20",
          "name": "",
          "type": "address"
        }
      ],
      "stateMutability": "view",
      "type": "function"
    },
    {
      "inputs": [],
      "name": "claimRankBonus",
      "outputs": [],
      "stateMutability": "nonpayable",
      "type": "function"
    },
    {
      "inputs": [],
      "name": "completeSetup",
      "outputs": [],
      "stateMutability": "nonpayable",
      "type": "function"
    },
    {
      "inputs": [
        {
          "internalType": "address",
          "name": "_investmentEngine",
          "type": "address"
        },
        {
          "internalType": "address",
          "name": "_referral",
          "type": "address"
        },
        {
          "internalType": "address",
          "name": "_timelock",
          "type": "address"
        },
        {
          "internalType": "address",
          "name": "_osloToken",
          "type": "address"
        },
        {
          "internalType": "address",
          "name": "_osloDex",
          "type": "address"
        }
      ],
      "name": "configure",
      "outputs": [],
      "stateMutability": "nonpayable",
      "type": "function"
    },
    {
      "inputs": [],
      "name": "genesisTimestamp",
      "outputs": [
        {
          "internalType": "uint256",
          "name": "",
          "type": "uint256"
        }
      ],
      "stateMutability": "view",
      "type": "function"
    },
    {
      "inputs": [
        {
          "internalType": "address",
          "name": "user",
          "type": "address"
        }
      ],
      "name": "getCurrentRank",
      "outputs": [
        {
          "internalType": "uint256",
          "name": "",
          "type": "uint256"
        }
      ],
      "stateMutability": "view",
      "type": "function"
    },
    {
      "inputs": [],
      "name": "getCurrentWeekId",
      "outputs": [
        {
          "internalType": "uint256",
          "name": "",
          "type": "uint256"
        }
      ],
      "stateMutability": "view",
      "type": "function"
    },
    {
      "inputs": [
        {
          "internalType": "address",
          "name": "user",
          "type": "address"
        },
        {
          "internalType": "uint256",
          "name": "weekId",
          "type": "uint256"
        },
        {
          "internalType": "address",
          "name": "leg",
          "type": "address"
        }
      ],
      "name": "getLegTurnover",
      "outputs": [
        {
          "internalType": "uint256",
          "name": "",
          "type": "uint256"
        }
      ],
      "stateMutability": "view",
      "type": "function"
    },
    {
      "inputs": [
        {
          "internalType": "address",
          "name": "user",
          "type": "address"
        }
      ],
      "name": "getPendingBonus",
      "outputs": [
        {
          "internalType": "uint256",
          "name": "",
          "type": "uint256"
        }
      ],
      "stateMutability": "view",
      "type": "function"
    },
    {
      "inputs": [
        {
          "internalType": "address",
          "name": "user",
          "type": "address"
        },
        {
          "internalType": "uint256",
          "name": "weekId",
          "type": "uint256"
        }
      ],
      "name": "getWeeklyTurnover",
      "outputs": [
        {
          "internalType": "uint256",
          "name": "",
          "type": "uint256"
        }
      ],
      "stateMutability": "view",
      "type": "function"
    },
    {
      "inputs": [],
      "name": "investmentEngine",
      "outputs": [
        {
          "internalType": "address",
          "name": "",
          "type": "address"
        }
      ],
      "stateMutability": "view",
      "type": "function"
    },
    {
      "inputs": [
        {
          "internalType": "address",
          "name": "user",
          "type": "address"
        }
      ],
      "name": "isRankQualified",
      "outputs": [
        {
          "internalType": "bool",
          "name": "",
          "type": "bool"
        }
      ],
      "stateMutability": "view",
      "type": "function"
    },
    {
      "inputs": [
        {
          "internalType": "address",
          "name": "",
          "type": "address"
        },
        {
          "internalType": "uint256",
          "name": "",
          "type": "uint256"
        },
        {
          "internalType": "address",
          "name": "",
          "type": "address"
        }
      ],
      "name": "legTurnover",
      "outputs": [
        {
          "internalType": "uint256",
          "name": "",
          "type": "uint256"
        }
      ],
      "stateMutability": "view",
      "type": "function"
    },
    {
      "inputs": [],
      "name": "osloDex",
      "outputs": [
        {
          "internalType": "address",
          "name": "",
          "type": "address"
        }
      ],
      "stateMutability": "view",
      "type": "function"
    },
    {
      "inputs": [],
      "name": "osloToken",
      "outputs": [
        {
          "internalType": "address",
          "name": "",
          "type": "address"
        }
      ],
      "stateMutability": "view",
      "type": "function"
    },
    {
      "inputs": [
        {
          "internalType": "uint256",
          "name": "amount",
          "type": "uint256"
        }
      ],
      "name": "receiveBonusPool",
      "outputs": [],
      "stateMutability": "nonpayable",
      "type": "function"
    },
    {
      "inputs": [
        {
          "internalType": "address",
          "name": "user",
          "type": "address"
        },
        {
          "internalType": "address",
          "name": "leg",
          "type": "address"
        },
        {
          "internalType": "uint256",
          "name": "amount",
          "type": "uint256"
        }
      ],
      "name": "recordTurnover",
      "outputs": [],
      "stateMutability": "nonpayable",
      "type": "function"
    },
    {
      "inputs": [],
      "name": "referral",
      "outputs": [
        {
          "internalType": "address",
          "name": "",
          "type": "address"
        }
      ],
      "stateMutability": "view",
      "type": "function"
    },
    {
      "inputs": [],
      "name": "setupComplete",
      "outputs": [
        {
          "internalType": "bool",
          "name": "",
          "type": "bool"
        }
      ],
      "stateMutability": "view",
      "type": "function"
    },
    {
      "inputs": [],
      "name": "timelock",
      "outputs": [
        {
          "internalType": "address",
          "name": "",
          "type": "address"
        }
      ],
      "stateMutability": "view",
      "type": "function"
    },
    {
      "inputs": [],
      "name": "totalBonusesDistributed",
      "outputs": [
        {
          "internalType": "uint256",
          "name": "",
          "type": "uint256"
        }
      ],
      "stateMutability": "view",
      "type": "function"
    },
    {
      "inputs": [
        {
          "internalType": "address",
          "name": "",
          "type": "address"
        },
        {
          "internalType": "uint256",
          "name": "",
          "type": "uint256"
        }
      ],
      "name": "weekBonusClaimed",
      "outputs": [
        {
          "internalType": "bool",
          "name": "",
          "type": "bool"
        }
      ],
      "stateMutability": "view",
      "type": "function"
    },
    {
      "inputs": [
        {
          "internalType": "address",
          "name": "",
          "type": "address"
        },
        {
          "internalType": "uint256",
          "name": "",
          "type": "uint256"
        }
      ],
      "name": "weeklyTurnoverData",
      "outputs": [
        {
          "internalType": "uint256",
          "name": "",
          "type": "uint256"
        }
      ],
      "stateMutability": "view",
      "type": "function"
    }
  ],
  "bytecode": "0x60c060405234801561001057600080fd5b5060405161140238038061140283398101604081905261002f916100a5565b60017f9b779b17422d0df92223018b32b4d1fa46e071723d6817e2486d003becc55f00556001600160a01b03811661007a5760405163d92e233d60e01b815260040160405180910390fd5b6001600160a01b0316608052600280546001600160a01b03191633179055636592008060a0526100d5565b6000602082840312156100b757600080fd5b81516001600160a01b03811681146100ce57600080fd5b9392505050565b60805160a0516112fa6101086000396000818161038c01526109f3015260008181610220015261054901526112fa6000f3fe608060405234801561001057600080fd5b50600436106101735760003560e01c80638aea8f71116100de578063bcd3321e11610097578063d33219b411610071578063d33219b4146103b7578063d9bd5f2d146103ca578063f851a440146103dd578063fc22833e146103f057600080fd5b8063bcd3321e1461037f578063cacf66ab14610387578063d31725cc146103ae57600080fd5b80638aea8f71146102d95780638b19d70e146102e1578063952d4c01146102e9578063b594b0c714610317578063b6635be61461032a578063b835f3891461033e57600080fd5b80633ca5b234116101305780633ca5b2341461021b57806357cecd8b146102425780635b6bcf3b1461026d578063760fcb3e1461029e5780638565c2bf146102b357806388697547146102c657600080fd5b80631441a5a9146101785780632409c9a9146101a857806329e9ad82146101c95780632acfbca3146101d25780632fe3c0cc146101e55780633013138414610208575b600080fd5b60015461018b906001600160a01b031681565b6040516001600160a01b0390911681526020015b60405180910390f35b6101bb6101b6366004610fdf565b610403565b60405190815260200161019f565b6101bb60095481565b60045461018b906001600160a01b031681565b6101f86101f336600461100b565b61042e565b604051901515815260200161019f565b60005461018b906001600160a01b031681565b61018b7f000000000000000000000000000000000000000000000000000000000000000081565b6101bb610250366004610fdf565b600660209081526000928352604080842090915290825290205481565b6101bb61027b366004611028565b600760209081526000938452604080852082529284528284209052825290205481565b6102b16102ac36600461106a565b61044c565b005b60055461018b906001600160a01b031681565b6102b16102d43660046110db565b61053c565b6102b16105be565b6102b1610639565b6101f86102f7366004610fdf565b600860209081526000928352604080842090915290825290205460ff1681565b6101bb61032536600461100b565b61098f565b6005546101f890600160a01b900460ff1681565b6101bb61034c366004611028565b6001600160a01b039283166000908152600760209081526040808320948352938152838220929094168152925290205490565b6101bb6109e8565b6101bb7f000000000000000000000000000000000000000000000000000000000000000081565b6101bb600a5481565b60035461018b906001600160a01b031681565b6102b16103d83660046110f4565b610a32565b60025461018b906001600160a01b031681565b6101bb6103fe36600461100b565b610b07565b6001600160a01b03821660009081526006602090815260408083208484529091529020545b92915050565b6000806104396109e8565b90506104458382610bf6565b9392505050565b6002546001600160a01b0316331461047757604051634755657960e01b815260040160405180910390fd5b600554600160a01b900460ff16156104a25760405163238f75d360e01b815260040160405180910390fd5b6001600160a01b03821615806104bf57506001600160a01b038116155b156104dd5760405163d92e233d60e01b815260040160405180910390fd5b600080546001600160a01b03199081166001600160a01b03978816179091556001805482169587169590951790945560038054851693861693909317909255600480548416918516919091179055600580549092169216919091179055565b6105716001600160a01b037f000000000000000000000000000000000000000000000000000000000000000016333084610d79565b8060096000828254610583919061114b565b90915550506040518181527fe0489ce487df31ae7db1f183cd20f4589bfa5715c26827c41e89d4a4b11e4b079060200160405180910390a150565b6002546001600160a01b031633146105e957604051634755657960e01b815260040160405180910390fd5b600554600160a01b900460ff16156106145760405163238f75d360e01b815260040160405180910390fd5b6005805460ff60a01b1916600160a01b179055600280546001600160a01b0319169055565b610641610db9565b600061064b6109e8565b9050600061065a60018361115e565b90508060000361067d57604051630330b36160e21b815260040160405180910390fd5b33600090815260086020908152604080832084845290915290205460ff16156106b957604051630c8d9eab60e31b815260040160405180910390fd5b6106c33382610bf6565b6106e057604051630330b36160e21b815260040160405180910390fd5b3360009081526006602090815260408083208484529091528120549061070582610de7565b90508060000361072857604051630330b36160e21b815260040160405180910390fd5b600061073382610ea1565b905060006127106107448386611171565b61074e9190611188565b90508060000361077157604051630330b36160e21b815260040160405180910390fd5b60095481111561079457604051631476485760e31b815260040160405180910390fd5b3360009081526008602090815260408083208884529091528120805460ff19166001179055600980548392906107cb90849061115e565b9250508190555080600a60008282546107e4919061114b565b9091555050600554604051630687590960e11b8152600481018390526000916001600160a01b031690630d0eb21290602401602060405180830381865afa158015610833573d6000803e3d6000fd5b505050506040513d601f19601f8201168201806040525081019061085791906111aa565b90508060000361087a5760405163cc88465760e01b815260040160405180910390fd5b600480546040516340c10f1960e01b81523392810192909252602482018390526001600160a01b0316906340c10f1990604401600060405180830381600087803b1580156108c757600080fd5b505af11580156108db573d6000803e3d6000fd5b505060408051878152602081018a90529081018890523392507f3e7c6fa8ffec4566e8e55031ea1f71dee2bd6dfe73e926dfb6a8f9d449f3845c915060600160405180910390a2604080518381526020810188905233917fd5797264912088cd40b5265cc25f087a017182a84a0aacdca76ebbf8c0d04e89910160405180910390a25050505050505061098d60017f9b779b17422d0df92223018b32b4d1fa46e071723d6817e2486d003becc55f0055565b565b60008061099a6109e8565b90506109a68382610bf6565b6109b35750600092915050565b6001600160a01b03831660009081526006602090815260408083208484529091529020546109e081610de7565b949350505050565b600062093a80610a187f00000000000000000000000000000000000000000000000000000000000000004261115e565b610a229190611188565b610a2d90600161114b565b905090565b6000610a3c6109e8565b6001600160a01b0385166000908152600660209081526040808320848452909152812080549293508492909190610a7490849061114b565b90915550506001600160a01b038085166000908152600760209081526040808320858452825280832093871683529290529081208054849290610ab890849061114b565b909155505060408051838152602081018390526001600160a01b038616917fd5d37757267f0f02fe273b0ead41331fe90ae635b0954da937d3454e9623daf4910160405180910390a250505050565b600080610b126109e8565b905060018111610b255750600092915050565b6000610b3260018361115e565b6001600160a01b038516600090815260086020908152604080832084845290915290205490915060ff1615610b6b575060009392505050565b610b758482610bf6565b610b83575060009392505050565b6001600160a01b038416600090815260066020908152604080832084845290915281205490610bb182610de7565b905080600003610bc75750600095945050505050565b6000610bd282610ea1565b9050612710610be18285611171565b610beb9190611188565b979650505050505050565b6001600160a01b0382166000908152600660209081526040808320848452909152812054808203610c2b576000915050610428565b6001546001600160a01b0316610c45576001915050610428565b60015460405163d2c8e0e560e01b81526001600160a01b038681166004830152600092169063d2c8e0e590602401600060405180830381865afa158015610c90573d6000803e3d6000fd5b505050506040513d6000823e601f3d908101601f19168201604052610cb891908101906111e9565b90508051600003610cce57600092505050610428565b6000805b8251811015610d54576001600160a01b0387166000908152600760209081526040808320898452909152812084518290869085908110610d1457610d146112ae565b60200260200101516001600160a01b03166001600160a01b0316815260200190815260200160002054905082811115610d4b578092505b50600101610cd2565b50610d61610fa084611171565b610d6d61271083611171565b11159695505050505050565b610d87848484846001610f13565b610db357604051635274afe760e01b81526001600160a01b038516600482015260240160405180910390fd5b50505050565b610dc1610f85565b60027f9b779b17422d0df92223018b32b4d1fa46e071723d6817e2486d003becc55f0055565b60006a02116545850052128000008210610e0357506007919050565b69fe1c215e8f838e0000008210610e1c57506006919050565b6969e10de76676d08000008210610e3557506005919050565b692a5a058fc295ed0000008210610e4e57506004919050565b690fe1c215e8f838e000008210610e6757506003919050565b69054b40b1f852bda000008210610e8057506002919050565b69021e19e0c9bab24000008210610e9957506001919050565b506000919050565b600081600703610eb357506005919050565b81600603610ec35750600a919050565b81600503610ed35750600f919050565b81600403610ee357506014919050565b81600303610ef35750601e919050565b81600203610f0357506032919050565b81600103610e9957506064919050565b6040516323b872dd60e01b60008181526001600160a01b038781166004528616602452604485905291602083606481808c5af192506001600051148316610f73578383151615610f66573d6000823e3d81fd5b6000883b113d1516831692505b60405250600060605295945050505050565b7f9b779b17422d0df92223018b32b4d1fa46e071723d6817e2486d003becc55f005460020361098d57604051633ee5aeb560e01b815260040160405180910390fd5b6001600160a01b0381168114610fdc57600080fd5b50565b60008060408385031215610ff257600080fd5b8235610ffd81610fc7565b946020939093013593505050565b60006020828403121561101d57600080fd5b813561044581610fc7565b60008060006060848603121561103d57600080fd5b833561104881610fc7565b925060208401359150604084013561105f81610fc7565b809150509250925092565b600080600080600060a0868803121561108257600080fd5b853561108d81610fc7565b9450602086013561109d81610fc7565b935060408601356110ad81610fc7565b925060608601356110bd81610fc7565b915060808601356110cd81610fc7565b809150509295509295909350565b6000602082840312156110ed57600080fd5b5035919050565b60008060006060848603121561110957600080fd5b833561111481610fc7565b9250602084013561112481610fc7565b929592945050506040919091013590565b634e487b7160e01b600052601160045260246000fd5b8082018082111561042857610428611135565b8181038181111561042857610428611135565b808202811582820484141761042857610428611135565b6000826111a557634e487b7160e01b600052601260045260246000fd5b500490565b6000602082840312156111bc57600080fd5b5051919050565b634e487b7160e01b600052604160045260246000fd5b80516111e481610fc7565b919050565b600060208083850312156111fc57600080fd5b825167ffffffffffffffff8082111561121457600080fd5b818501915085601f83011261122857600080fd5b81518181111561123a5761123a6111c3565b8060051b604051601f19603f8301168101818110858211171561125f5761125f6111c3565b60405291825284820192508381018501918883111561127d57600080fd5b938501935b828510156112a257611293856111d9565b84529385019392850192611282565b98975050505050505050565b634e487b7160e01b600052603260045260246000fdfea26469706673582212204dde21b5be4a4de5c4a8a35202623470d572d234adc7579815f65d635f680a7064736f6c63430008180033",
  "linkReferences": {},
  "deployedLinkReferences": {}
}