{
  "_format": "hh-sol-artifact-1",
  "contractName": "OSLOReferral",
  "sourceName": "contracts/OSLOReferral.sol",
  "abi": [
    {
      "inputs": [
        {
          "internalType": "address",
          "name": "_busd",
          "type": "address"
        },
        {
          "internalType": "address",
          "name": "_osloToken",
          "type": "address"
        }
      ],
      "stateMutability": "nonpayable",
      "type": "constructor"
    },
    {
      "inputs": [],
      "name": "AlreadyRegistered",
      "type": "error"
    },
    {
      "inputs": [],
      "name": "DEXNotPriced",
      "type": "error"
    },
    {
      "inputs": [],
      "name": "InvalidReferrer",
      "type": "error"
    },
    {
      "inputs": [],
      "name": "NotRegistered",
      "type": "error"
    },
    {
      "inputs": [],
      "name": "NothingToClaim",
      "type": "error"
    },
    {
      "inputs": [],
      "name": "OnlyAdmin",
      "type": "error"
    },
    {
      "inputs": [],
      "name": "OnlyInvestmentEngine",
      "type": "error"
    },
    {
      "inputs": [],
      "name": "ReentrancyGuardReentrantCall",
      "type": "error"
    },
    {
      "inputs": [
        {
          "internalType": "address",
          "name": "token",
          "type": "address"
        }
      ],
      "name": "SafeERC20FailedOperation",
      "type": "error"
    },
    {
      "inputs": [],
      "name": "SelfReferral",
      "type": "error"
    },
    {
      "inputs": [],
      "name": "SetupAlreadyComplete",
      "type": "error"
    },
    {
      "inputs": [],
      "name": "ZeroAddress",
      "type": "error"
    },
    {
      "anonymous": false,
      "inputs": [
        {
          "indexed": true,
          "internalType": "address",
          "name": "user",
          "type": "address"
        },
        {
          "indexed": false,
          "internalType": "uint256",
          "name": "amount",
          "type": "uint256"
        }
      ],
      "name": "AirdropReleased",
      "type": "event"
    },
    {
      "anonymous": false,
      "inputs": [
        {
          "indexed": true,
          "internalType": "address",
          "name": "user",
          "type": "address"
        },
        {
          "indexed": false,
          "internalType": "uint256",
          "name": "amount",
          "type": "uint256"
        }
      ],
      "name": "EarlyAdopterAirdrop",
      "type": "event"
    },
    {
      "anonymous": false,
      "inputs": [
        {
          "indexed": true,
          "internalType": "address",
          "name": "user",
          "type": "address"
        },
        {
          "indexed": false,
          "internalType": "uint256",
          "name": "level",
          "type": "uint256"
        }
      ],
      "name": "LevelUnlocked",
      "type": "event"
    },
    {
      "anonymous": false,
      "inputs": [
        {
          "indexed": true,
          "internalType": "address",
          "name": "upline",
          "type": "address"
        },
        {
          "indexed": true,
          "internalType": "address",
          "name": "downline",
          "type": "address"
        },
        {
          "indexed": false,
          "internalType": "uint256",
          "name": "level",
          "type": "uint256"
        },
        {
          "indexed": false,
          "internalType": "uint256",
          "name": "amount",
          "type": "uint256"
        }
      ],
      "name": "ReferralPaid",
      "type": "event"
    },
    {
      "anonymous": false,
      "inputs": [
        {
          "indexed": true,
          "internalType": "address",
          "name": "user",
          "type": "address"
        },
        {
          "indexed": false,
          "internalType": "uint256",
          "name": "amount",
          "type": "uint256"
        }
      ],
      "name": "ReferralRewardsClaimed",
      "type": "event"
    },
    {
      "anonymous": false,
      "inputs": [
        {
          "indexed": true,
          "internalType": "address",
          "name": "user",
          "type": "address"
        },
        {
          "indexed": true,
          "internalType": "address",
          "name": "referrer",
          "type": "address"
        },
        {
          "indexed": false,
          "internalType": "uint256",
          "name": "registrationNumber",
          "type": "uint256"
        }
      ],
      "name": "UserRegistered",
      "type": "event"
    },
    {
      "anonymous": false,
      "inputs": [
        {
          "indexed": true,
          "internalType": "address",
          "name": "user",
          "type": "address"
        },
        {
          "indexed": false,
          "internalType": "uint256",
          "name": "amount",
          "type": "uint256"
        },
        {
          "indexed": false,
          "internalType": "uint256",
          "name": "totalClaimedSoFar",
          "type": "uint256"
        }
      ],
      "name": "VestingClaimed",
      "type": "event"
    },
    {
      "anonymous": false,
      "inputs": [
        {
          "indexed": true,
          "internalType": "address",
          "name": "user",
          "type": "address"
        },
        {
          "indexed": false,
          "internalType": "uint256",
          "name": "totalAmount",
          "type": "uint256"
        }
      ],
      "name": "VestingStarted",
      "type": "event"
    },
    {
      "inputs": [],
      "name": "admin",
      "outputs": [
        {
          "internalType": "address",
          "name": "",
          "type": "address"
        }
      ],
      "stateMutability": "view",
      "type": "function"
    },
    {
      "inputs": [
        {
          "internalType": "address",
          "name": "",
          "type": "address"
        }
      ],
      "name": "airdropEscrow",
      "outputs": [
        {
          "internalType": "uint256",
          "name": "",
          "type": "uint256"
        }
      ],
      "stateMutability": "view",
      "type": "function"
    },
    {
      "inputs": [],
      "name": "busd",
      "outputs": [
        {
          "internalType": "contract IERC20",
          "name": "",
          "type": "address"
        }
      ],
      "stateMutability": "view",
      "type": "function"
    },
    {
      "inputs": [
        {
          "internalType": "address",
          "name": "user",
          "type": "address"
        }
      ],
      "name": "checkAndUnlockLevels",
      "outputs": [],
      "stateMutability": "nonpayable",
      "type": "function"
    },
    {
      "inputs": [],
      "name": "claimAirdrop",
      "outputs": [],
      "stateMutability": "nonpayable",
      "type": "function"
    },
    {
      "inputs": [],
      "name": "claimReferralRewards",
      "outputs": [],
      "stateMutability": "nonpayable",
      "type": "function"
    },
    {
      "inputs": [],
      "name": "completeSetup",
      "outputs": [],
      "stateMutability": "nonpayable",
      "type": "function"
    },
    {
      "inputs": [
        {
          "internalType": "address",
          "name": "_investmentEngine",
          "type": "address"
        },
        {
          "internalType": "address",
          "name": "_earlyAdopterVault",
          "type": "address"
        },
        {
          "internalType": "address",
          "name": "_treasury",
          "type": "address"
        },
        {
          "internalType": "address",
          "name": "_liquidityManager",
          "type": "address"
        },
        {
          "internalType": "address",
          "name": "_timelock",
          "type": "address"
        },
        {
          "internalType": "address",
          "name": "_osloDex",
          "type": "address"
        }
      ],
      "name": "configure",
      "outputs": [],
      "stateMutability": "nonpayable",
      "type": "function"
    },
    {
      "inputs": [
        {
          "internalType": "address",
          "name": "user",
          "type": "address"
        },
        {
          "internalType": "uint256",
          "name": "profitAmount",
          "type": "uint256"
        }
      ],
      "name": "distributeReferralCommission",
      "outputs": [],
      "stateMutability": "nonpayable",
      "type": "function"
    },
    {
      "inputs": [],
      "name": "earlyAdopterVault",
      "outputs": [
        {
          "internalType": "address",
          "name": "",
          "type": "address"
        }
      ],
      "stateMutability": "view",
      "type": "function"
    },
    {
      "inputs": [
        {
          "internalType": "address",
          "name": "user",
          "type": "address"
        }
      ],
      "name": "getAirdropBalance",
      "outputs": [
        {
          "internalType": "uint256",
          "name": "",
          "type": "uint256"
        }
      ],
      "stateMutability": "view",
      "type": "function"
    },
    {
      "inputs": [
        {
          "internalType": "address",
          "name": "user",
          "type": "address"
        }
      ],
      "name": "getAllLevelIncome",
      "outputs": [
        {
          "internalType": "uint256[21]",
          "name": "",
          "type": "uint256[21]"
        }
      ],
      "stateMutability": "view",
      "type": "function"
    },
    {
      "inputs": [
        {
          "internalType": "address",
          "name": "user",
          "type": "address"
        }
      ],
      "name": "getClaimableAirdrop",
      "outputs": [
        {
          "internalType": "uint256",
          "name": "",
          "type": "uint256"
        }
      ],
      "stateMutability": "view",
      "type": "function"
    },
    {
      "inputs": [
        {
          "internalType": "address",
          "name": "user",
          "type": "address"
        }
      ],
      "name": "getDirectReferrals",
      "outputs": [
        {
          "internalType": "address[]",
          "name": "",
          "type": "address[]"
        }
      ],
      "stateMutability": "view",
      "type": "function"
    },
    {
      "inputs": [
        {
          "internalType": "address",
          "name": "user",
          "type": "address"
        },
        {
          "internalType": "uint256",
          "name": "level",
          "type": "uint256"
        }
      ],
      "name": "getLevelIncome",
      "outputs": [
        {
          "internalType": "uint256",
          "name": "",
          "type": "uint256"
        }
      ],
      "stateMutability": "view",
      "type": "function"
    },
    {
      "inputs": [
        {
          "internalType": "address",
          "name": "user",
          "type": "address"
        }
      ],
      "name": "getQualifiedDirectsCount",
      "outputs": [
        {
          "internalType": "uint256",
          "name": "",
          "type": "uint256"
        }
      ],
      "stateMutability": "view",
      "type": "function"
    },
    {
      "inputs": [
        {
          "internalType": "address",
          "name": "user",
          "type": "address"
        }
      ],
      "name": "getReferrer",
      "outputs": [
        {
          "internalType": "address",
          "name": "",
          "type": "address"
        }
      ],
      "stateMutability": "view",
      "type": "function"
    },
    {
      "inputs": [
        {
          "internalType": "address",
          "name": "user",
          "type": "address"
        }
      ],
      "name": "getTeamSize",
      "outputs": [
        {
          "internalType": "uint256",
          "name": "",
          "type": "uint256"
        }
      ],
      "stateMutability": "view",
      "type": "function"
    },
    {
      "inputs": [
        {
          "internalType": "address",
          "name": "user",
          "type": "address"
        }
      ],
      "name": "getUnlockedLevels",
      "outputs": [
        {
          "internalType": "uint256",
          "name": "",
          "type": "uint256"
        }
      ],
      "stateMutability": "view",
      "type": "function"
    },
    {
      "inputs": [],
      "name": "investmentEngine",
      "outputs": [
        {
          "internalType": "address",
          "name": "",
          "type": "address"
        }
      ],
      "stateMutability": "view",
      "type": "function"
    },
    {
      "inputs": [
        {
          "internalType": "address",
          "name": "user",
          "type": "address"
        }
      ],
      "name": "isRegistered",
      "outputs": [
        {
          "internalType": "bool",
          "name": "",
          "type": "bool"
        }
      ],
      "stateMutability": "view",
      "type": "function"
    },
    {
      "inputs": [
        {
          "internalType": "address",
          "name": "",
          "type": "address"
        },
        {
          "internalType": "uint256",
          "name": "",
          "type": "uint256"
        }
      ],
      "name": "levelIncome",
      "outputs": [
        {
          "internalType": "uint256",
          "name": "",
          "type": "uint256"
        }
      ],
      "stateMutability": "view",
      "type": "function"
    },
    {
      "inputs": [],
      "name": "liquidityManager",
      "outputs": [
        {
          "internalType": "address",
          "name": "",
          "type": "address"
        }
      ],
      "stateMutability": "view",
      "type": "function"
    },
    {
      "inputs": [],
      "name": "osloDex",
      "outputs": [
        {
          "internalType": "address",
          "name": "",
          "type": "address"
        }
      ],
      "stateMutability": "view",
      "type": "function"
    },
    {
      "inputs": [],
      "name": "osloToken",
      "outputs": [
        {
          "internalType": "contract IERC20",
          "name": "",
          "type": "address"
        }
      ],
      "stateMutability": "view",
      "type": "function"
    },
    {
      "inputs": [
        {
          "internalType": "address",
          "name": "",
          "type": "address"
        }
      ],
      "name": "referralRewards",
      "outputs": [
        {
          "internalType": "uint256",
          "name": "",
          "type": "uint256"
        }
      ],
      "stateMutability": "view",
      "type": "function"
    },
    {
      "inputs": [
        {
          "internalType": "address",
          "name": "user",
          "type": "address"
        },
        {
          "internalType": "address",
          "name": "referrer",
          "type": "address"
        }
      ],
      "name": "register",
      "outputs": [],
      "stateMutability": "nonpayable",
      "type": "function"
    },
    {
      "inputs": [
        {
          "internalType": "address",
          "name": "",
          "type": "address"
        }
      ],
      "name": "registrationNumber",
      "outputs": [
        {
          "internalType": "uint256",
          "name": "",
          "type": "uint256"
        }
      ],
      "stateMutability": "view",
      "type": "function"
    },
    {
      "inputs": [
        {
          "internalType": "address",
          "name": "user",
          "type": "address"
        }
      ],
      "name": "releaseAirdrop",
      "outputs": [],
      "stateMutability": "nonpayable",
      "type": "function"
    },
    {
      "inputs": [],
      "name": "setupComplete",
      "outputs": [
        {
          "internalType": "bool",
          "name": "",
          "type": "bool"
        }
      ],
      "stateMutability": "view",
      "type": "function"
    },
    {
      "inputs": [],
      "name": "timelock",
      "outputs": [
        {
          "internalType": "address",
          "name": "",
          "type": "address"
        }
      ],
      "stateMutability": "view",
      "type": "function"
    },
    {
      "inputs": [
        {
          "internalType": "address",
          "name": "",
          "type": "address"
        }
      ],
      "name": "totalClaimed",
      "outputs": [
        {
          "internalType": "uint256",
          "name": "",
          "type": "uint256"
        }
      ],
      "stateMutability": "view",
      "type": "function"
    },
    {
      "inputs": [],
      "name": "totalCommissionsPaid",
      "outputs": [
        {
          "internalType": "uint256",
          "name": "",
          "type": "uint256"
        }
      ],
      "stateMutability": "view",
      "type": "function"
    },
    {
      "inputs": [],
      "name": "totalRegistered",
      "outputs": [
        {
          "internalType": "uint256",
          "name": "",
          "type": "uint256"
        }
      ],
      "stateMutability": "view",
      "type": "function"
    },
    {
      "inputs": [],
      "name": "treasury",
      "outputs": [
        {
          "internalType": "address",
          "name": "",
          "type": "address"
        }
      ],
      "stateMutability": "view",
      "type": "function"
    },
    {
      "inputs": [
        {
          "internalType": "address",
          "name": "",
          "type": "address"
        }
      ],
      "name": "userInfo",
      "outputs": [
        {
          "internalType": "address",
          "name": "referrer",
          "type": "address"
        },
        {
          "internalType": "uint256",
          "name": "unlockedLevels",
          "type": "uint256"
        },
        {
          "internalType": "uint256",
          "name": "totalEarned",
          "type": "uint256"
        },
        {
          "internalType": "bool",
          "name": "registered",
          "type": "bool"
        }
      ],
      "stateMutability": "view",
      "type": "function"
    },
    {
      "inputs": [
        {
          "internalType": "address",
          "name": "",
          "type": "address"
        }
      ],
      "name": "vestingStartTime",
      "outputs": [
        {
          "internalType": "uint256",
          "name": "",
          "type": "uint256"
        }
      ],
      "stateMutability": "view",
      "type": "function"
    }
  ],
  "bytecode": "0x60c06040523480156200001157600080fd5b506040516200216c3803806200216c8339810160408190526200003491620000dc565b60017f9b779b17422d0df92223018b32b4d1fa46e071723d6817e2486d003becc55f00556001600160a01b03821615806200007657506001600160a01b038116155b15620000955760405163d92e233d60e01b815260040160405180910390fd5b6001600160a01b039182166080521660a052600580546001600160a01b0319163317905562000114565b80516001600160a01b0381168114620000d757600080fd5b919050565b60008060408385031215620000f057600080fd5b620000fb83620000bf565b91506200010b60208401620000bf565b90509250929050565b60805160a0516120016200016b600039600081816103660152818161076801528181610bfc015281816113010152818161138501526115e50152600081816103de0152818161110701526111b501526120016000f3fe608060405234801561001057600080fd5b50600436106102275760003560e01c80638000d99111610130578063badd13f2116100b8578063ea63fb261161007c578063ea63fb26146105e2578063ef5d9ae814610602578063efa94d4914610622578063f45f49911461064b578063f851a4401461065e57600080fd5b8063badd13f214610564578063c3c5a54714610577578063c6d83fcf146105a6578063d2c8e0e5146105af578063d33219b4146105cf57600080fd5b8063927416c0116100ff578063927416c0146104fe57806392da176114610507578063aa6773541461051a578063b6635be61461052d578063b84582821461055157600080fd5b80638000d991146104b05780638565c2bf146104c35780638aea8f71146104d65780638beafddb146104de57600080fd5b806333827438116101b3578063519f164011610182578063519f16401461042c57806353aaa63b1461043f5780635b88349d1461045f57806361d027b31461046757806364df82221461047a57600080fd5b806333827438146103b3578063349cdcc2146103c65780633ca5b234146103d95780634a9fefc71461040057600080fd5b80631f791b69116101fa5780631f791b69146103025780632573912c1461032e578063289c7a37146103415780632acfbca31461036157806330131384146103a057600080fd5b806305eaab4b1461022c5780630b35d7d1146102365780631959a002146102745780631e97f48a146102e2575b600080fd5b610234610671565b005b610261610244366004611da3565b600960209081526000928352604080842090915290825290205481565b6040519081526020015b60405180910390f35b6102b6610282366004611dcd565b60076020526000908152604090208054600282015460038301546004909301546001600160a01b0390921692909160ff1684565b604080516001600160a01b0390951685526020850193909352918301521515606082015260800161026b565b6102f56102f0366004611dcd565b61082e565b60405161026b9190611de8565b610261610310366004611dcd565b6001600160a01b031660009081526007602052604090206002015490565b61023461033c366004611dcd565b6108c6565b61026161034f366004611dcd565b600a6020526000908152604090205481565b6103887f000000000000000000000000000000000000000000000000000000000000000081565b6040516001600160a01b03909116815260200161026b565b600054610388906001600160a01b031681565b600354610388906001600160a01b031681565b6102616103d4366004611dcd565b6109be565b6103887f000000000000000000000000000000000000000000000000000000000000000081565b61038861040e366004611dcd565b6001600160a01b039081166000908152600760205260409020541690565b61026161043a366004611dcd565b610aaa565b61026161044d366004611dcd565b60086020526000908152604090205481565b610234610abd565b600254610388906001600160a01b031681565b610261610488366004611da3565b6001600160a01b03919091166000908152600960209081526040808320938352929052205490565b6102346104be366004611da3565b610cca565b600454610388906001600160a01b031681565b610234610e6d565b6102616104ec366004611dcd565b600b6020526000908152604090205481565b610261600e5481565b610234610515366004611e1a565b610ee8565b610234610528366004611e8e565b610fd4565b60065461054190600160a01b900460ff1681565b604051901515815260200161026b565b61026161055f366004611dcd565b61145a565b610234610572366004611dcd565b611465565b610541610585366004611dcd565b6001600160a01b031660009081526007602052604090206004015460ff1690565b610261600f5481565b6105c26105bd366004611dcd565b611655565b60405161026b9190611ec1565b600654610388906001600160a01b031681565b6102616105f0366004611dcd565b600c6020526000908152604090205481565b610261610610366004611dcd565b600d6020526000908152604090205481565b610261610630366004611dcd565b6001600160a01b03166000908152600a602052604090205490565b600154610388906001600160a01b031681565b600554610388906001600160a01b031681565b6106796116ce565b33600090815260086020526040812054908190036106aa576040516312d37ee560e31b815260040160405180910390fd5b33600090815260086020526040808220829055600480549151630687590960e11b81529081018490526001600160a01b0390911690630d0eb21290602401602060405180830381865afa158015610705573d6000803e3d6000fd5b505050506040513d601f19601f820116820180604052508101906107299190611f0e565b90508060000361074c5760405163cc88465760e01b815260040160405180910390fd5b6040516340c10f1960e01b8152336004820152602481018290527f00000000000000000000000000000000000000000000000000000000000000006001600160a01b0316906340c10f1990604401600060405180830381600087803b1580156107b457600080fd5b505af11580156107c8573d6000803e3d6000fd5b50506040518481523392507f98741ecf35c5d20a8ed68dbd8540500684864a6c98c2a41a5844d0b3a2357d43915060200160405180910390a2505061082c60017f9b779b17422d0df92223018b32b4d1fa46e071723d6817e2486d003becc55f0055565b565b610836611d68565b61083e611d68565b60015b601481116108bf576001600160a01b038416600090815260096020908152604080832084845290915290205482826015811061087f5761087f611f27565b602002015281816015811061089657610896611f27565b6020020151825183906108aa908390611f53565b905250806108b781611f66565b915050610841565b5092915050565b6001600160a01b03811660009081526007602052604090206004015460ff166108ec5750565b60006108f7826116fc565b9050600061090482611806565b6001600160a01b0384166000908152600760205260409020600201549091508111156109b9576001600160a01b038316600090815260076020526040812060020180549083905590610957826001611f53565b90505b8281116109b657846001600160a01b03167f084d80ac1b703449f5931daa49aa5ad902f79624e20313db57074f53c5aca3418260405161099c91815260200190565b60405180910390a2806109ae81611f66565b91505061095a565b50505b505050565b6001600160a01b0381166000908152600b60205260408120548015806109e45750609681115b15610a9a576000546001600160a01b031615610a91576000805460405163142a3da360e01b81526001600160a01b0386811660048301529091169063142a3da390602401602060405180830381865afa158015610a45573d6000803e3d6000fd5b505050506040513d601f19601f82011682018060405250810190610a699190611f0e565b90508015610a8f575050506001600160a01b03166000908152600a602052604090205490565b505b50600092915050565b610aa383611860565b9392505050565b6000610ab78260006119ec565b92915050565b336000908152600b6020526040902054801580610ada5750609681115b15610b2b57604051635d6e89f960e11b8152336004820152309063badd13f290602401600060405180830381600087803b158015610b1757600080fd5b505af11580156109b6573d6000803e3d6000fd5b336000908152600a60205260408120549003610b445750565b336000908152600c60205260408120549003610b5d5750565b6000610b6833611860565b905080600003610b76575050565b336000908152600d602052604081208054839290610b95908490611f53565b9091555050336000908152600a60205260409020548110610bca5750336000908152600a602052604081208054919055610bef565b336000908152600a602052604081208054839290610be9908490611f7f565b90915550505b610c236001600160a01b037f0000000000000000000000000000000000000000000000000000000000000000163383611a7e565b336000818152600d6020908152604091829020548251858152918201527f4a94c2c356e29a6583071e731bdacf2ca56565ba5efebcff6936eb7923b51721910160405180910390a2336000908152600a60205260408120549003610cc657336000818152600d60209081526040918290205491519182527fc5ef9994fe73dbc0f2aefb12c9123bd9ea17520691afa16bc666114f22a4c5df910160405180910390a25b5050565b80600003610cd6575050565b8160015b60148111610e67576001600160a01b038083166000908152600760205260409020541680610d085750610e67565b6001600160a01b0381166000908152600760205260409020600201548211610e53576000610d3583611ab8565b90506000612710610d468388611f92565b610d509190611fa9565b90508015610e50576001600160a01b03831660009081526008602052604081208054839290610d80908490611f53565b90915550506001600160a01b038316600090815260096020908152604080832087845290915281208054839290610db8908490611f53565b90915550506001600160a01b03831660009081526007602052604081206003018054839290610de8908490611f53565b9250508190555080600f6000828254610e019190611f53565b909155505060408051858152602081018390526001600160a01b03808a1692908616917f65db98422e8b7340e0d6dfa99bbadd4ba95a51fefafd8f0e1cbbb2e819429a42910160405180910390a35b50505b915080610e5f81611f66565b915050610cda565b50505050565b6005546001600160a01b03163314610e9857604051634755657960e01b815260040160405180910390fd5b600654600160a01b900460ff1615610ec35760405163238f75d360e01b815260040160405180910390fd5b6006805460ff60a01b1916600160a01b179055600580546001600160a01b0319169055565b6005546001600160a01b03163314610f1357604051634755657960e01b815260040160405180910390fd5b600654600160a01b900460ff1615610f3e5760405163238f75d360e01b815260040160405180910390fd5b6001600160a01b038116610f655760405163d92e233d60e01b815260040160405180910390fd5b600080546001600160a01b03199081166001600160a01b0398891617909155600180548216968816969096179095556002805486169487169490941790935560038054851692861692909217909155600680548416918516919091179055600480549092169216919091179055565b6001600160a01b038216610ffb5760405163d92e233d60e01b815260040160405180910390fd5b6001600160a01b03821660009081526007602052604090206004015460ff161561103857604051630ea075bf60e21b815260040160405180910390fd5b806001600160a01b0316826001600160a01b03160361106a57604051632af47b8760e11b815260040160405180910390fd5b6001600160a01b0381161580159061109e57506001600160a01b03811660009081526007602052604090206004015460ff16155b156110bc57604051630c22084560e31b815260040160405180910390fd5b6002546001600160a01b03166110e55760405163d92e233d60e01b815260040160405180910390fd5b6003546001600160a01b0316156111a45760035461113a906001600160a01b037f0000000000000000000000000000000000000000000000000000000000000000811691859116674563918244f40000611b39565b60035460405163ee3b038f60e01b8152674563918244f4000060048201526001600160a01b039091169063ee3b038f90602401600060405180830381600087803b15801561118757600080fd5b505af115801561119b573d6000803e3d6000fd5b505050506111e8565b6002546111e8906001600160a01b037f0000000000000000000000000000000000000000000000000000000000000000811691859116674563918244f40000611b39565b6001600160a01b03808316600090815260076020526040812060048101805460ff1916600117905580549284166001600160a01b0319909316831781556002015515611270576001600160a01b0381811660009081526007602090815260408220600190810180549182018155835291200180546001600160a01b0319169184169190911790555b600e805490600061128083611f66565b9091555050600e546001600160a01b0383166000908152600b6020526040902081905561a69a108015906112be57506001546001600160a01b031615155b156114075760006112d0600e54611b6f565b905060008111801561136f57506001546040516370a0823160e01b81526001600160a01b03918216600482015282917f000000000000000000000000000000000000000000000000000000000000000016906370a0823190602401602060405180830381865afa158015611348573d6000803e3d6000fd5b505050506040513d601f19601f8201168201806040525081019061136c9190611f0e565b10155b15611405576001546113af906001600160a01b037f0000000000000000000000000000000000000000000000000000000000000000811691163084611b39565b6001600160a01b0383166000818152600a602052604090819020839055517f320aa57355278aca6375ac1d7091c5c416429427a8a39bb72faa48584e476085906113fc9084815260200190565b60405180910390a25b505b806001600160a01b0316826001600160a01b03167f05345a91f639184e946e5aac384b1e9f74ae9ab08d775a7deddb3180cebecb23600e5460405161144e91815260200190565b60405180910390a35050565b6000610ab7826116fc565b6001600160a01b0381166000908152600a602052604081205490036114875750565b6000546001600160a01b031661149a5750565b6000805460405163142a3da360e01b81526001600160a01b0384811660048301529091169063142a3da390602401602060405180830381865afa1580156114e5573d6000803e3d6000fd5b505050506040513d601f19601f820116820180604052508101906115099190611f0e565b905080600003611517575050565b6001600160a01b0382166000908152600b60205260409020548015801590611540575060968111155b156115c0576001600160a01b0383166000908152600c602052604081205490036109b9576001600160a01b0383166000818152600c60209081526040808320429055600a8252918290205491519182527f7b97dcefcb9fdae22321c09ae87ed7865e06d2477325d246f8f1ff039a701a3d910160405180910390a2505050565b6001600160a01b038084166000908152600a6020526040812080549190559061160c907f0000000000000000000000000000000000000000000000000000000000000000168583611a7e565b836001600160a01b03167fc5ef9994fe73dbc0f2aefb12c9123bd9ea17520691afa16bc666114f22a4c5df8260405161164791815260200190565b60405180910390a250505050565b6001600160a01b0381166000908152600760209081526040918290206001018054835181840281018401909452808452606093928301828280156116c257602002820191906000526020600020905b81546001600160a01b031681526001909101906020018083116116a4575b50505050509050919050565b6116d6611c4e565b60027f9b779b17422d0df92223018b32b4d1fa46e071723d6817e2486d003becc55f0055565b6001600160a01b03811660009081526007602052604081208190600101815b81548110156117fd576000546001600160a01b0316156117f5576000805483546001600160a01b039091169063142a3da39085908590811061175f5761175f611f27565b60009182526020909120015460405160e083901b6001600160e01b03191681526001600160a01b039091166004820152602401602060405180830381865afa1580156117af573d6000803e3d6000fd5b505050506040513d601f19601f820116820180604052508101906117d39190611f0e565b905068056bc75e2d6310000081106117f357836117ef81611f66565b9450505b505b60010161171b565b50909392505050565b60006007821061181857506014919050565b6005821061182857506010919050565b600382106118385750600c919050565b6002821061184857506008919050565b6001821061185857506003919050565b506000919050565b6001600160a01b0381166000908152600c6020526040812054810361188757506000919050565b6001600160a01b0382166000908152600d6020908152604080832054600a9092528220546118b59190611f53565b9050806000036118c85750600092915050565b6001600160a01b0383166000908152600c60205260408120546118eb9042611f7f565b905060006118fc62278d0083611fa9565b90506064811061192557505050506001600160a01b03166000908152600a602052604090205490565b600061271060646119368487611f92565b6119409190611f92565b61194a9190611fa9565b6001600160a01b0387166000908152600d602052604090205490915081116119785750600095945050505050565b6001600160a01b0386166000908152600d602052604081205461199b9083611f7f565b6001600160a01b0388166000908152600a60205260409020549091508111156119e2575050506001600160a01b039093166000908152600a60205260409020549392505050565b9695505050505050565b6000601482106119fe57506000610ab7565b6001600160a01b0383166000908152600760205260408120600101805490915b8254811015611a7557611a61838281548110611a3c57611a3c611f27565b6000918252602090912001546001600160a01b0316611a5c876001611f53565b6119ec565b611a6b9083611f53565b9150600101611a1e565b50949350505050565b611a8b8383836001611c90565b6109b957604051635274afe760e01b81526001600160a01b03841660048201526024015b60405180910390fd5b600081600103611acb5750610bb8919050565b81600203611adc57506107d0919050565b60038210158015611aee5750600a8211155b15611afb57506064919050565b600b8210158015611b0d5750600f8211155b15611b1a57506032919050565b60108210158015611b2c575060148211155b1561185857506019919050565b611b47848484846001611cf6565b610e6757604051635274afe760e01b81526001600160a01b0385166004820152602401611aaf565b600060028211611b8a575069021e19e0c9bab2400000919050565b600c8211611ba3575069010f0cf064dd59200000919050565b60208211611bbb575068878678326eac900000919050565b60328211611bd35750685150ae84a8cdf00000919050565b60968211611beb5750683635c9adc5dea00000919050565b61047e8211611c045750680d8d726b7177a80000919050565b611de28211611c1d57506802b5e3af16b1880000919050565b61587a8211611c3657506801158e460913d00000919050565b61a69a82116118585750678ac7230489e80000919050565b7f9b779b17422d0df92223018b32b4d1fa46e071723d6817e2486d003becc55f005460020361082c57604051633ee5aeb560e01b815260040160405180910390fd5b60405163a9059cbb60e01b60008181526001600160a01b038616600452602485905291602083604481808b5af192506001600051148316611cea578383151615611cdd573d6000823e3d81fd5b6000873b113d1516831692505b60405250949350505050565b6040516323b872dd60e01b60008181526001600160a01b038781166004528616602452604485905291602083606481808c5af192506001600051148316611d56578383151615611d49573d6000823e3d81fd5b6000883b113d1516831692505b60405250600060605295945050505050565b604051806102a001604052806015906020820280368337509192915050565b80356001600160a01b0381168114611d9e57600080fd5b919050565b60008060408385031215611db657600080fd5b611dbf83611d87565b946020939093013593505050565b600060208284031215611ddf57600080fd5b610aa382611d87565b6102a08101818360005b6015811015611e11578151835260209283019290910190600101611df2565b50505092915050565b60008060008060008060c08789031215611e3357600080fd5b611e3c87611d87565b9550611e4a60208801611d87565b9450611e5860408801611d87565b9350611e6660608801611d87565b9250611e7460808801611d87565b9150611e8260a08801611d87565b90509295509295509295565b60008060408385031215611ea157600080fd5b611eaa83611d87565b9150611eb860208401611d87565b90509250929050565b6020808252825182820181905260009190848201906040850190845b81811015611f025783516001600160a01b031683529284019291840191600101611edd565b50909695505050505050565b600060208284031215611f2057600080fd5b5051919050565b634e487b7160e01b600052603260045260246000fd5b634e487b7160e01b600052601160045260246000fd5b80820180821115610ab757610ab7611f3d565b600060018201611f7857611f78611f3d565b5060010190565b81810381811115610ab757610ab7611f3d565b8082028115828204841417610ab757610ab7611f3d565b600082611fc657634e487b7160e01b600052601260045260246000fd5b50049056fea26469706673582212208e18fad768fa70670b85343ab9a09e0d6d0c95800540f721533e8a804e45ab3b64736f6c63430008180033",
  "linkReferences": {},
  "deployedLinkReferences": {}
}