{
  "_format": "hh-sol-artifact-1",
  "contractName": "OSLODAO",
  "sourceName": "contracts/OSLODAO.sol",
  "abi": [
    {
      "inputs": [
        {
          "internalType": "address",
          "name": "_busd",
          "type": "address"
        }
      ],
      "stateMutability": "nonpayable",
      "type": "constructor"
    },
    {
      "inputs": [],
      "name": "AlreadyClaimed",
      "type": "error"
    },
    {
      "inputs": [],
      "name": "AlreadyDAOMember",
      "type": "error"
    },
    {
      "inputs": [],
      "name": "CurrentMonthNotClaimable",
      "type": "error"
    },
    {
      "inputs": [],
      "name": "DEXNotPriced",
      "type": "error"
    },
    {
      "inputs": [],
      "name": "InsufficientRoyaltyPool",
      "type": "error"
    },
    {
      "inputs": [],
      "name": "MaxDAOMembersReached",
      "type": "error"
    },
    {
      "inputs": [],
      "name": "NoRoyalty",
      "type": "error"
    },
    {
      "inputs": [],
      "name": "NotDAOMember",
      "type": "error"
    },
    {
      "inputs": [],
      "name": "OnlyAdmin",
      "type": "error"
    },
    {
      "inputs": [],
      "name": "OnlyTimelock",
      "type": "error"
    },
    {
      "inputs": [],
      "name": "ReentrancyGuardReentrantCall",
      "type": "error"
    },
    {
      "inputs": [
        {
          "internalType": "address",
          "name": "token",
          "type": "address"
        }
      ],
      "name": "SafeERC20FailedOperation",
      "type": "error"
    },
    {
      "inputs": [],
      "name": "SetupAlreadyComplete",
      "type": "error"
    },
    {
      "inputs": [],
      "name": "ZeroAddress",
      "type": "error"
    },
    {
      "anonymous": false,
      "inputs": [
        {
          "indexed": true,
          "internalType": "address",
          "name": "user",
          "type": "address"
        },
        {
          "indexed": false,
          "internalType": "uint256",
          "name": "memberNumber",
          "type": "uint256"
        },
        {
          "indexed": false,
          "internalType": "uint256",
          "name": "teamSize",
          "type": "uint256"
        }
      ],
      "name": "DAOMemberQualified",
      "type": "event"
    },
    {
      "anonymous": false,
      "inputs": [
        {
          "indexed": false,
          "internalType": "uint256",
          "name": "monthId",
          "type": "uint256"
        },
        {
          "indexed": false,
          "internalType": "uint256",
          "name": "amount",
          "type": "uint256"
        }
      ],
      "name": "MonthlyTurnoverRecorded",
      "type": "event"
    },
    {
      "anonymous": false,
      "inputs": [
        {
          "indexed": true,
          "internalType": "address",
          "name": "user",
          "type": "address"
        },
        {
          "indexed": false,
          "internalType": "uint256",
          "name": "amount",
          "type": "uint256"
        },
        {
          "indexed": false,
          "internalType": "uint256",
          "name": "monthId",
          "type": "uint256"
        }
      ],
      "name": "RoyaltyClaimed",
      "type": "event"
    },
    {
      "anonymous": false,
      "inputs": [
        {
          "indexed": false,
          "internalType": "uint256",
          "name": "amount",
          "type": "uint256"
        }
      ],
      "name": "RoyaltyPoolFunded",
      "type": "event"
    },
    {
      "inputs": [],
      "name": "admin",
      "outputs": [
        {
          "internalType": "address",
          "name": "",
          "type": "address"
        }
      ],
      "stateMutability": "view",
      "type": "function"
    },
    {
      "inputs": [],
      "name": "busd",
      "outputs": [
        {
          "internalType": "contract IERC20",
          "name": "",
          "type": "address"
        }
      ],
      "stateMutability": "view",
      "type": "function"
    },
    {
      "inputs": [
        {
          "internalType": "address",
          "name": "user",
          "type": "address"
        },
        {
          "internalType": "uint256",
          "name": "teamSize",
          "type": "uint256"
        }
      ],
      "name": "checkAndQualify",
      "outputs": [],
      "stateMutability": "nonpayable",
      "type": "function"
    },
    {
      "inputs": [],
      "name": "claimRoyalty",
      "outputs": [],
      "stateMutability": "nonpayable",
      "type": "function"
    },
    {
      "inputs": [],
      "name": "completeSetup",
      "outputs": [],
      "stateMutability": "nonpayable",
      "type": "function"
    },
    {
      "inputs": [
        {
          "internalType": "address",
          "name": "_timelock",
          "type": "address"
        },
        {
          "internalType": "address",
          "name": "_osloToken",
          "type": "address"
        },
        {
          "internalType": "address",
          "name": "_osloDex",
          "type": "address"
        }
      ],
      "name": "configure",
      "outputs": [],
      "stateMutability": "nonpayable",
      "type": "function"
    },
    {
      "inputs": [],
      "name": "daoMemberCount",
      "outputs": [
        {
          "internalType": "uint256",
          "name": "",
          "type": "uint256"
        }
      ],
      "stateMutability": "view",
      "type": "function"
    },
    {
      "inputs": [
        {
          "internalType": "uint256",
          "name": "",
          "type": "uint256"
        }
      ],
      "name": "daoMembers",
      "outputs": [
        {
          "internalType": "address",
          "name": "",
          "type": "address"
        }
      ],
      "stateMutability": "view",
      "type": "function"
    },
    {
      "inputs": [],
      "name": "genesisTimestamp",
      "outputs": [
        {
          "internalType": "uint256",
          "name": "",
          "type": "uint256"
        }
      ],
      "stateMutability": "view",
      "type": "function"
    },
    {
      "inputs": [],
      "name": "getAllDAOMembers",
      "outputs": [
        {
          "internalType": "address[]",
          "name": "",
          "type": "address[]"
        }
      ],
      "stateMutability": "view",
      "type": "function"
    },
    {
      "inputs": [],
      "name": "getCurrentMonthId",
      "outputs": [
        {
          "internalType": "uint256",
          "name": "",
          "type": "uint256"
        }
      ],
      "stateMutability": "view",
      "type": "function"
    },
    {
      "inputs": [
        {
          "internalType": "address",
          "name": "user",
          "type": "address"
        }
      ],
      "name": "getPendingRoyalty",
      "outputs": [
        {
          "internalType": "uint256",
          "name": "",
          "type": "uint256"
        }
      ],
      "stateMutability": "view",
      "type": "function"
    },
    {
      "inputs": [
        {
          "internalType": "address",
          "name": "",
          "type": "address"
        }
      ],
      "name": "isDAOMember",
      "outputs": [
        {
          "internalType": "bool",
          "name": "",
          "type": "bool"
        }
      ],
      "stateMutability": "view",
      "type": "function"
    },
    {
      "inputs": [
        {
          "internalType": "uint256",
          "name": "",
          "type": "uint256"
        }
      ],
      "name": "monthlyTurnover",
      "outputs": [
        {
          "internalType": "uint256",
          "name": "",
          "type": "uint256"
        }
      ],
      "stateMutability": "view",
      "type": "function"
    },
    {
      "inputs": [],
      "name": "osloDex",
      "outputs": [
        {
          "internalType": "address",
          "name": "",
          "type": "address"
        }
      ],
      "stateMutability": "view",
      "type": "function"
    },
    {
      "inputs": [],
      "name": "osloToken",
      "outputs": [
        {
          "internalType": "address",
          "name": "",
          "type": "address"
        }
      ],
      "stateMutability": "view",
      "type": "function"
    },
    {
      "inputs": [
        {
          "internalType": "uint256",
          "name": "amount",
          "type": "uint256"
        }
      ],
      "name": "receiveRoyaltyPool",
      "outputs": [],
      "stateMutability": "nonpayable",
      "type": "function"
    },
    {
      "inputs": [
        {
          "internalType": "uint256",
          "name": "amount",
          "type": "uint256"
        }
      ],
      "name": "recordMonthlyTurnover",
      "outputs": [],
      "stateMutability": "nonpayable",
      "type": "function"
    },
    {
      "inputs": [
        {
          "internalType": "address",
          "name": "",
          "type": "address"
        },
        {
          "internalType": "uint256",
          "name": "",
          "type": "uint256"
        }
      ],
      "name": "royaltyClaimed",
      "outputs": [
        {
          "internalType": "bool",
          "name": "",
          "type": "bool"
        }
      ],
      "stateMutability": "view",
      "type": "function"
    },
    {
      "inputs": [],
      "name": "royaltyPoolBalance",
      "outputs": [
        {
          "internalType": "uint256",
          "name": "",
          "type": "uint256"
        }
      ],
      "stateMutability": "view",
      "type": "function"
    },
    {
      "inputs": [],
      "name": "setupComplete",
      "outputs": [
        {
          "internalType": "bool",
          "name": "",
          "type": "bool"
        }
      ],
      "stateMutability": "view",
      "type": "function"
    },
    {
      "inputs": [],
      "name": "timelock",
      "outputs": [
        {
          "internalType": "address",
          "name": "",
          "type": "address"
        }
      ],
      "stateMutability": "view",
      "type": "function"
    },
    {
      "inputs": [],
      "name": "totalRoyaltiesDistributed",
      "outputs": [
        {
          "internalType": "uint256",
          "name": "",
          "type": "uint256"
        }
      ],
      "stateMutability": "view",
      "type": "function"
    }
  ],
  "bytecode": "0x60c060405234801561001057600080fd5b50604051610f78380380610f7883398101604081905261002f9161008d565b60017f9b779b17422d0df92223018b32b4d1fa46e071723d6817e2486d003becc55f00556001600160a01b03811661006657600080fd5b6001600160a01b0316608052600880546001600160a01b031916331790554260a0526100bd565b60006020828403121561009f57600080fd5b81516001600160a01b03811681146100b657600080fd5b9392505050565b60805160a051610e886100f0600039600081816102be01526105560152600081816101c601526106720152610e886000f3fe608060405234801561001057600080fd5b506004361061014d5760003560e01c8063900e92c4116100c3578063cacf66ab1161007c578063cacf66ab146102b9578063d33219b4146102e0578063eade149c146102f3578063f5444d3614610306578063f851a44014610334578063fb2343471461034757600080fd5b8063900e92c41461023a5780639d51173f14610242578063af9221b414610255578063b1e44d8f1461025d578063b6635be614610290578063c7166dd5146102a457600080fd5b80634e9380a9116101155780634e9380a9146101e857806355d28f20146101f05780636f0803be1461020357806371a152b21461020c5780638565c2bf1461021f5780638aea8f711461023257600080fd5b806304d8adca1461015257806327ab371b146101785780632acfbca31461018d5780633a9f6292146101b85780633ca5b234146101c1575b600080fd5b610165610160366004610cc9565b610367565b6040519081526020015b60405180910390f35b61018b610186366004610ceb565b61045f565b005b6000546101a0906001600160a01b031681565b6040516001600160a01b03909116815260200161016f565b61016560065481565b6101a07f000000000000000000000000000000000000000000000000000000000000000081565b61016561054b565b61018b6101fe366004610d15565b610595565b61016560075481565b61018b61021a366004610d58565b610665565b6001546101a0906001600160a01b031681565b61018b6106e7565b61018b610762565b6101a0610250366004610d58565b610a8e565b600254610165565b61028061026b366004610cc9565b60036020526000908152604090205460ff1681565b604051901515815260200161016f565b60095461028090600160a01b900460ff1681565b6102ac610ab8565b60405161016f9190610d71565b6101657f000000000000000000000000000000000000000000000000000000000000000081565b6009546101a0906001600160a01b031681565b61018b610301366004610d58565b610b1a565b610280610314366004610ceb565b600560209081526000928352604080842090915290825290205460ff1681565b6008546101a0906001600160a01b031681565b610165610355366004610d58565b60046020526000908152604090205481565b6001600160a01b03811660009081526003602052604081205460ff1661038f57506000919050565b600061039961054b565b9050600181116103ac5750600092915050565b60006103b9600183610dd4565b6001600160a01b038516600090815260056020908152604080832084845290915290205490915060ff16156103f2575060009392505050565b6000818152600460205260408120549081900361041457506000949350505050565b6000612710610424603284610ded565b61042e9190610e04565b600254909150600081900361044a575060009695505050505050565b6104548183610e04565b979650505050505050565b6001600160a01b03821660009081526003602052604090205460ff1615610484575050565b60025460c811610492575050565b60fa81101561049f575050565b6001600160a01b038216600081815260036020526040808220805460ff19166001908117909155600280549182018155928390527f405787fa12a823e0f2b7631cc41b3ba8828b3321ca811111fa75cd3aa3bb5ace0180546001600160a01b03191684179055905490517fb0799360241064b125fa79f16388e5c5eb36b2d5b259b2b626838eb6a934b05f9161053f918590918252602082015260400190565b60405180910390a25050565b600062278d0061057b7f000000000000000000000000000000000000000000000000000000000000000042610dd4565b6105859190610e04565b610590906001610e26565b905090565b6008546001600160a01b031633146105c057604051634755657960e01b815260040160405180910390fd5b600954600160a01b900460ff16156105eb5760405163238f75d360e01b815260040160405180910390fd5b6001600160a01b038216158061060857506001600160a01b038116155b156106265760405163d92e233d60e01b815260040160405180910390fd5b600980546001600160a01b039485166001600160a01b031991821617909155600080549385169382169390931790925560018054919093169116179055565b61069a6001600160a01b037f000000000000000000000000000000000000000000000000000000000000000016333084610b8b565b80600660008282546106ac9190610e26565b90915550506040518181527f3c8ad648a1ddfefe02b27d709d3a201184855e03e5a57564dd8d3ddcd0912e639060200160405180910390a150565b6008546001600160a01b0316331461071257604051634755657960e01b815260040160405180910390fd5b600954600160a01b900460ff161561073d5760405163238f75d360e01b815260040160405180910390fd5b6009805460ff60a01b1916600160a01b179055600880546001600160a01b0319169055565b61076a610bcb565b3360009081526003602052604090205460ff1661079a57604051636acb7bb760e01b815260040160405180910390fd5b60006107a461054b565b9050600181116107c757604051633c9754b360e11b815260040160405180910390fd5b60006107d4600183610dd4565b33600090815260056020908152604080832084845290915290205490915060ff161561081357604051630c8d9eab60e31b815260040160405180910390fd5b6000818152600460205260408120549081900361084357604051633c9754b360e11b815260040160405180910390fd5b6000612710610853603284610ded565b61085d9190610e04565b600254909150600081900361088557604051633c9754b360e11b815260040160405180910390fd5b60006108918284610e04565b9050806000036108b457604051633c9754b360e11b815260040160405180910390fd5b6006548111156108d7576040516307d202ff60e11b815260040160405180910390fd5b3360009081526005602090815260408083208884529091528120805460ff191660011790556006805483929061090e908490610dd4565b9250508190555080600760008282546109279190610e26565b9091555050600154604051630687590960e11b8152600481018390526000916001600160a01b031690630d0eb21290602401602060405180830381865afa158015610976573d6000803e3d6000fd5b505050506040513d601f19601f8201168201806040525081019061099a9190610e39565b9050806000036109bd5760405163cc88465760e01b815260040160405180910390fd5b6000546040516340c10f1960e01b8152336004820152602481018390526001600160a01b03909116906340c10f1990604401600060405180830381600087803b158015610a0957600080fd5b505af1158015610a1d573d6000803e3d6000fd5b505060408051858152602081018a90523393507f6fe778711f06ca052305b633ba1b304f4d71c1523776f2aa3059d8d99f5420de92500160405180910390a250505050505050610a8c60017f9b779b17422d0df92223018b32b4d1fa46e071723d6817e2486d003becc55f0055565b565b60028181548110610a9e57600080fd5b6000918252602090912001546001600160a01b0316905081565b60606002805480602002602001604051908101604052809291908181526020018280548015610b1057602002820191906000526020600020905b81546001600160a01b03168152600190910190602001808311610af2575b5050505050905090565b6000610b2461054b565b905081600460008381526020019081526020016000206000828254610b499190610e26565b909155505060408051828152602081018490527f3b9c1e7aaf9f822c701e3b3eb12e06265bbd2e6871a1574446b3f8a9fda4e612910160405180910390a15050565b610b99848484846001610bf9565b610bc557604051635274afe760e01b81526001600160a01b038516600482015260240160405180910390fd5b50505050565b610bd3610c6b565b60027f9b779b17422d0df92223018b32b4d1fa46e071723d6817e2486d003becc55f0055565b6040516323b872dd60e01b60008181526001600160a01b038781166004528616602452604485905291602083606481808c5af192506001600051148316610c59578383151615610c4c573d6000823e3d81fd5b6000883b113d1516831692505b60405250600060605295945050505050565b7f9b779b17422d0df92223018b32b4d1fa46e071723d6817e2486d003becc55f0054600203610a8c57604051633ee5aeb560e01b815260040160405180910390fd5b80356001600160a01b0381168114610cc457600080fd5b919050565b600060208284031215610cdb57600080fd5b610ce482610cad565b9392505050565b60008060408385031215610cfe57600080fd5b610d0783610cad565b946020939093013593505050565b600080600060608486031215610d2a57600080fd5b610d3384610cad565b9250610d4160208501610cad565b9150610d4f60408501610cad565b90509250925092565b600060208284031215610d6a57600080fd5b5035919050565b6020808252825182820181905260009190848201906040850190845b81811015610db25783516001600160a01b031683529284019291840191600101610d8d565b50909695505050505050565b634e487b7160e01b600052601160045260246000fd5b81810381811115610de757610de7610dbe565b92915050565b8082028115828204841417610de757610de7610dbe565b600082610e2157634e487b7160e01b600052601260045260246000fd5b500490565b80820180821115610de757610de7610dbe565b600060208284031215610e4b57600080fd5b505191905056fea2646970667358221220d605157bc20b688014e0fc0062dd3160489cf532c787e636306b078d496f582964736f6c63430008180033",
  "linkReferences": {},
  "deployedLinkReferences": {}
}