{
  "_format": "hh-sol-artifact-1",
  "contractName": "OSLODEX",
  "sourceName": "contracts/OSLODEX.sol",
  "abi": [
    {
      "inputs": [
        {
          "internalType": "address",
          "name": "_busd",
          "type": "address"
        },
        {
          "internalType": "address",
          "name": "_osloToken",
          "type": "address"
        }
      ],
      "stateMutability": "nonpayable",
      "type": "constructor"
    },
    {
      "inputs": [],
      "name": "InsufficientReserve",
      "type": "error"
    },
    {
      "inputs": [],
      "name": "OnlyAdmin",
      "type": "error"
    },
    {
      "inputs": [],
      "name": "OnlyLiquidityManager",
      "type": "error"
    },
    {
      "inputs": [],
      "name": "OnlyTimelock",
      "type": "error"
    },
    {
      "inputs": [],
      "name": "ReentrancyGuardReentrantCall",
      "type": "error"
    },
    {
      "inputs": [
        {
          "internalType": "address",
          "name": "token",
          "type": "address"
        }
      ],
      "name": "SafeERC20FailedOperation",
      "type": "error"
    },
    {
      "inputs": [],
      "name": "SetupAlreadyComplete",
      "type": "error"
    },
    {
      "inputs": [],
      "name": "SlippageExceeded",
      "type": "error"
    },
    {
      "inputs": [],
      "name": "ZeroAddress",
      "type": "error"
    },
    {
      "inputs": [],
      "name": "ZeroAmount",
      "type": "error"
    },
    {
      "anonymous": false,
      "inputs": [
        {
          "indexed": false,
          "internalType": "uint256",
          "name": "busdAmount",
          "type": "uint256"
        },
        {
          "indexed": false,
          "internalType": "uint256",
          "name": "osloAmount",
          "type": "uint256"
        }
      ],
      "name": "LiquidityDeposited",
      "type": "event"
    },
    {
      "anonymous": false,
      "inputs": [
        {
          "indexed": false,
          "internalType": "uint256",
          "name": "busdAmount",
          "type": "uint256"
        },
        {
          "indexed": false,
          "internalType": "uint256",
          "name": "osloAmount",
          "type": "uint256"
        }
      ],
      "name": "LiquidityWithdrawn",
      "type": "event"
    },
    {
      "anonymous": false,
      "inputs": [
        {
          "indexed": false,
          "internalType": "uint256",
          "name": "newPrice",
          "type": "uint256"
        }
      ],
      "name": "PriceUpdated",
      "type": "event"
    },
    {
      "anonymous": false,
      "inputs": [
        {
          "indexed": true,
          "internalType": "address",
          "name": "user",
          "type": "address"
        },
        {
          "indexed": false,
          "internalType": "bool",
          "name": "busdToOslo",
          "type": "bool"
        },
        {
          "indexed": false,
          "internalType": "uint256",
          "name": "inputAmount",
          "type": "uint256"
        },
        {
          "indexed": false,
          "internalType": "uint256",
          "name": "outputAmount",
          "type": "uint256"
        },
        {
          "indexed": false,
          "internalType": "uint256",
          "name": "price",
          "type": "uint256"
        }
      ],
      "name": "Swapped",
      "type": "event"
    },
    {
      "inputs": [
        {
          "internalType": "uint256",
          "name": "busdAmount",
          "type": "uint256"
        },
        {
          "internalType": "uint256",
          "name": "osloAmount",
          "type": "uint256"
        }
      ],
      "name": "addInitialLiquidity",
      "outputs": [],
      "stateMutability": "nonpayable",
      "type": "function"
    },
    {
      "inputs": [
        {
          "internalType": "uint256",
          "name": "busdAmount",
          "type": "uint256"
        }
      ],
      "name": "addLiquidityFromFees",
      "outputs": [],
      "stateMutability": "nonpayable",
      "type": "function"
    },
    {
      "inputs": [],
      "name": "admin",
      "outputs": [
        {
          "internalType": "address",
          "name": "",
          "type": "address"
        }
      ],
      "stateMutability": "view",
      "type": "function"
    },
    {
      "inputs": [],
      "name": "busd",
      "outputs": [
        {
          "internalType": "contract IERC20",
          "name": "",
          "type": "address"
        }
      ],
      "stateMutability": "view",
      "type": "function"
    },
    {
      "inputs": [],
      "name": "busdReserve",
      "outputs": [
        {
          "internalType": "uint256",
          "name": "",
          "type": "uint256"
        }
      ],
      "stateMutability": "view",
      "type": "function"
    },
    {
      "inputs": [],
      "name": "completeSetup",
      "outputs": [],
      "stateMutability": "nonpayable",
      "type": "function"
    },
    {
      "inputs": [
        {
          "internalType": "address",
          "name": "_timelock",
          "type": "address"
        },
        {
          "internalType": "address",
          "name": "_liquidityManager",
          "type": "address"
        }
      ],
      "name": "configure",
      "outputs": [],
      "stateMutability": "nonpayable",
      "type": "function"
    },
    {
      "inputs": [
        {
          "internalType": "uint256",
          "name": "busdAmount",
          "type": "uint256"
        }
      ],
      "name": "getBUSDForOSLOOutput",
      "outputs": [
        {
          "internalType": "uint256",
          "name": "",
          "type": "uint256"
        }
      ],
      "stateMutability": "view",
      "type": "function"
    },
    {
      "inputs": [
        {
          "internalType": "uint256",
          "name": "osloAmount",
          "type": "uint256"
        }
      ],
      "name": "getOSLOForBUSDOutput",
      "outputs": [
        {
          "internalType": "uint256",
          "name": "",
          "type": "uint256"
        }
      ],
      "stateMutability": "view",
      "type": "function"
    },
    {
      "inputs": [],
      "name": "getPrice",
      "outputs": [
        {
          "internalType": "uint256",
          "name": "",
          "type": "uint256"
        }
      ],
      "stateMutability": "view",
      "type": "function"
    },
    {
      "inputs": [],
      "name": "getReserves",
      "outputs": [
        {
          "internalType": "uint256",
          "name": "busdRes",
          "type": "uint256"
        },
        {
          "internalType": "uint256",
          "name": "osloRes",
          "type": "uint256"
        }
      ],
      "stateMutability": "view",
      "type": "function"
    },
    {
      "inputs": [],
      "name": "lastPrice",
      "outputs": [
        {
          "internalType": "uint256",
          "name": "",
          "type": "uint256"
        }
      ],
      "stateMutability": "view",
      "type": "function"
    },
    {
      "inputs": [],
      "name": "liquidityManager",
      "outputs": [
        {
          "internalType": "address",
          "name": "",
          "type": "address"
        }
      ],
      "stateMutability": "view",
      "type": "function"
    },
    {
      "inputs": [],
      "name": "osloReserve",
      "outputs": [
        {
          "internalType": "uint256",
          "name": "",
          "type": "uint256"
        }
      ],
      "stateMutability": "view",
      "type": "function"
    },
    {
      "inputs": [],
      "name": "osloToken",
      "outputs": [
        {
          "internalType": "contract IERC20",
          "name": "",
          "type": "address"
        }
      ],
      "stateMutability": "view",
      "type": "function"
    },
    {
      "inputs": [],
      "name": "setupComplete",
      "outputs": [
        {
          "internalType": "bool",
          "name": "",
          "type": "bool"
        }
      ],
      "stateMutability": "view",
      "type": "function"
    },
    {
      "inputs": [
        {
          "internalType": "uint256",
          "name": "busdAmount",
          "type": "uint256"
        },
        {
          "internalType": "uint256",
          "name": "minOsloAmount",
          "type": "uint256"
        }
      ],
      "name": "swapBUSDForOSLO",
      "outputs": [
        {
          "internalType": "uint256",
          "name": "osloAmount",
          "type": "uint256"
        }
      ],
      "stateMutability": "nonpayable",
      "type": "function"
    },
    {
      "inputs": [
        {
          "internalType": "uint256",
          "name": "osloAmount",
          "type": "uint256"
        },
        {
          "internalType": "uint256",
          "name": "minUSDTOut",
          "type": "uint256"
        }
      ],
      "name": "sellOSLO",
      "outputs": [
        {
          "internalType": "uint256",
          "name": "toUser",
          "type": "uint256"
        }
      ],
      "stateMutability": "nonpayable",
      "type": "function"
    },
    {
      "inputs": [
        {
          "internalType": "uint256",
          "name": "osloAmount",
          "type": "uint256"
        },
        {
          "internalType": "uint256",
          "name": "minBUSDAmount",
          "type": "uint256"
        }
      ],
      "name": "swapOSLOForBUSD",
      "outputs": [
        {
          "internalType": "uint256",
          "name": "busdAmount",
          "type": "uint256"
        }
      ],
      "stateMutability": "nonpayable",
      "type": "function"
    },
    {
      "inputs": [],
      "name": "timelock",
      "outputs": [
        {
          "internalType": "address",
          "name": "",
          "type": "address"
        }
      ],
      "stateMutability": "view",
      "type": "function"
    },
    {
      "inputs": [],
      "name": "totalSwaps",
      "outputs": [
        {
          "internalType": "uint256",
          "name": "",
          "type": "uint256"
        }
      ],
      "stateMutability": "view",
      "type": "function"
    },
    {
      "inputs": [],
      "name": "totalVolumeBUSD",
      "outputs": [
        {
          "internalType": "uint256",
          "name": "",
          "type": "uint256"
        }
      ],
      "stateMutability": "view",
      "type": "function"
    }
  ],
  "bytecode": "0x60c060405234801561001057600080fd5b506040516200144038038062001440833981016040819052610031916100d5565b60017f9b779b17422d0df92223018b32b4d1fa46e071723d6817e2486d003becc55f00556001600160a01b038216158061007257506001600160a01b038116155b156100905760405163d92e233d60e01b815260040160405180910390fd5b6001600160a01b039182166080521660a052600080546001600160a01b03191633179055610108565b80516001600160a01b03811681146100d057600080fd5b919050565b600080604083850312156100e857600080fd5b6100f1836100b9565b91506100ff602084016100b9565b90509250929050565b60805160a0516112a9620001976000396000818161019e015281816103430152818161044b015281816104bb0152818161062d015281816106ee015281816107f3015281816108ea0152818161098f01528181610af901528181610c520152610e720152600081816101f0015281816104160152818161091f01528181610c1d0152610e2d01526112a96000f3fe608060405234801561001057600080fd5b50600436106101375760003560e01c80638aea8f71116100b8578063b6635be61161007c578063b6635be614610278578063d33219b41461029c578063e470d5cf146102af578063e63599e4146102c2578063ee3b038f146102cb578063f851a440146102de57600080fd5b80638aea8f711461024157806398d5fdca1461024b578063a1e26e7b14610253578063a40f4fa11461025c578063b4a800ce1461026f57600080fd5b806333827438116100ff57806333827438146101d85780633ca5b234146101eb578063440efa3114610212578063848eca9d1461021b5780638855da491461022e57600080fd5b8063053f14da1461013c5780630902f1ac1461015857806309439d90146101735780630d0eb212146101865780632acfbca314610199575b600080fd5b61014560075481565b6040519081526020015b60405180910390f35b6003546004546040805192835260208301919091520161014f565b610145610181366004611142565b6102f1565b610145610194366004611164565b61060d565b6101c07f000000000000000000000000000000000000000000000000000000000000000081565b6040516001600160a01b03909116815260200161014f565b6002546101c0906001600160a01b031681565b6101c07f000000000000000000000000000000000000000000000000000000000000000081565b61014560055481565b610145610229366004611164565b6106ce565b61014561023c366004611142565b6107a1565b610249610a79565b005b610145610af4565b61014560045481565b61024961026a366004611142565b610bbc565b61014560065481565b60025461028c90600160a01b900460ff1681565b604051901515815260200161014f565b6001546101c0906001600160a01b031681565b6102496102bd366004611199565b610d43565b61014560035481565b6102496102d9366004611164565b610dd4565b6000546101c0906001600160a01b031681565b60006102fb610f7d565b8260000361031c57604051631f2a200560e01b815260040160405180910390fd5b60035460000361033f576040516328b35f2160e01b815260040160405180910390fd5b60007f00000000000000000000000000000000000000000000000000000000000000006001600160a01b03166318160ddd6040518163ffffffff1660e01b8152600401602060405180830381865afa15801561039f573d6000803e3d6000fd5b505050506040513d601f19601f820116820180604052508101906103c391906111cc565b6003549091506103d382866111fb565b6103dd9190611212565b91508115806103eb57508282105b1561040957604051638199f5f360e01b815260040160405180910390fd5b61043e6001600160a01b037f000000000000000000000000000000000000000000000000000000000000000016333087610fab565b6104726001600160a01b037f0000000000000000000000000000000000000000000000000000000000000000163384610fec565b83600360008282546104849190611234565b92505081905550836005600082825461049d9190611234565b9091555050600680549060006104b283611247565b919050555060007f00000000000000000000000000000000000000000000000000000000000000006001600160a01b03166318160ddd6040518163ffffffff1660e01b8152600401602060405180830381865afa158015610517573d6000803e3d6000fd5b505050506040513d601f19601f8201168201806040525081019061053b91906111cc565b60035461055090670de0b6b3a76400006111fb565b61055a9190611212565b6040805160018152602081018890529081018590526060810182905290915033907f7c707038fb62cb248ec6b437a63ec556bb6233af235f4518d64693cba918a6e1906080015b60405180910390a26040518181527f66cbca4f3c64fecf1dcb9ce094abcf7f68c3450a1d4e3a8e917dd621edb4ebe09060200160405180910390a1505061060760017f9b779b17422d0df92223018b32b4d1fa46e071723d6817e2486d003becc55f0055565b92915050565b600081158061061c5750600354155b1561062957506000919050565b60007f00000000000000000000000000000000000000000000000000000000000000006001600160a01b03166318160ddd6040518163ffffffff1660e01b8152600401602060405180830381865afa158015610689573d6000803e3d6000fd5b505050506040513d601f19601f820116820180604052508101906106ad91906111cc565b6003549091506106bd82856111fb565b6106c79190611212565b9392505050565b60008115806106dd5750600354155b156106ea57506000919050565b60007f00000000000000000000000000000000000000000000000000000000000000006001600160a01b03166318160ddd6040518163ffffffff1660e01b8152600401602060405180830381865afa15801561074a573d6000803e3d6000fd5b505050506040513d601f19601f8201168201806040525081019061076e91906111cc565b90506000816003548561078191906111fb565b61078b9190611212565b90506003548111156106c7575060009392505050565b60006107ab610f7d565b826000036107cc57604051631f2a200560e01b815260040160405180910390fd5b6003546000036107ef576040516328b35f2160e01b815260040160405180910390fd5b60007f00000000000000000000000000000000000000000000000000000000000000006001600160a01b03166318160ddd6040518163ffffffff1660e01b8152600401602060405180830381865afa15801561084f573d6000803e3d6000fd5b505050506040513d601f19601f8201168201806040525081019061087391906111cc565b9050806003548561088491906111fb565b61088e9190611212565b915081158061089c57508282105b156108ba57604051638199f5f360e01b815260040160405180910390fd5b6003548211156108dd576040516328b35f2160e01b815260040160405180910390fd5b6109126001600160a01b037f000000000000000000000000000000000000000000000000000000000000000016333087610fab565b6109466001600160a01b037f0000000000000000000000000000000000000000000000000000000000000000163384610fec565b81600360008282546109589190611260565b9250508190555081600560008282546109719190611234565b90915550506006805490600061098683611247565b919050555060007f00000000000000000000000000000000000000000000000000000000000000006001600160a01b03166318160ddd6040518163ffffffff1660e01b8152600401602060405180830381865afa1580156109eb573d6000803e3d6000fd5b505050506040513d601f19601f82011682018060405250810190610a0f91906111cc565b600354610a2490670de0b6b3a76400006111fb565b610a2e9190611212565b6040805160008152602081018890529081018590526060810182905290915033907f7c707038fb62cb248ec6b437a63ec556bb6233af235f4518d64693cba918a6e1906080016105a1565b6000546001600160a01b03163314610aa457604051634755657960e01b815260040160405180910390fd5b600254600160a01b900460ff1615610acf5760405163238f75d360e01b815260040160405180910390fd5b6002805460ff60a01b1916600160a01b179055600080546001600160a01b0319169055565b6000807f00000000000000000000000000000000000000000000000000000000000000006001600160a01b03166318160ddd6040518163ffffffff1660e01b8152600401602060405180830381865afa158015610b55573d6000803e3d6000fd5b505050506040513d601f19601f82011682018060405250810190610b7991906111cc565b9050801580610b885750600354155b15610b9557600091505090565b80600354670de0b6b3a7640000610bac91906111fb565b610bb69190611212565b91505090565b6002546001600160a01b03163314610be757604051630be5a3e160e31b815260040160405180910390fd5b811580610bf2575080155b15610c1057604051631f2a200560e01b815260040160405180910390fd5b610c456001600160a01b037f000000000000000000000000000000000000000000000000000000000000000016333085610fab565b610c7a6001600160a01b037f000000000000000000000000000000000000000000000000000000000000000016333084610fab565b8160036000828254610c8c9190611234565b925050819055508060046000828254610ca59190611234565b90915550819050610cbe83670de0b6b3a76400006111fb565b610cc89190611212565b60075560408051838152602081018390527f9c86429231ed0411e3112a1dd5c6578826c2d48089d5ec491e874ce0029c0bbe910160405180910390a17f66cbca4f3c64fecf1dcb9ce094abcf7f68c3450a1d4e3a8e917dd621edb4ebe0600754604051610d3791815260200190565b60405180910390a15050565b6000546001600160a01b03163314610d6e57604051634755657960e01b815260040160405180910390fd5b600254600160a01b900460ff1615610d995760405163238f75d360e01b815260040160405180910390fd5b600180546001600160a01b039384166001600160a01b0319909116179055600280546001600160a81b0319169190921617600160a01b179055565b6002546001600160a01b03163314610dff57604051630be5a3e160e31b815260040160405180910390fd5b80600003610e2057604051631f2a200560e01b815260040160405180910390fd5b610e556001600160a01b037f000000000000000000000000000000000000000000000000000000000000000016333084610fab565b8060036000828254610e679190611234565b9250508190555060007f00000000000000000000000000000000000000000000000000000000000000006001600160a01b03166318160ddd6040518163ffffffff1660e01b8152600401602060405180830381865afa158015610ece573d6000803e3d6000fd5b505050506040513d601f19601f82011682018060405250810190610ef291906111cc565b600354610f0790670de0b6b3a76400006111fb565b610f119190611212565b60408051848152600060208201529192507f9c86429231ed0411e3112a1dd5c6578826c2d48089d5ec491e874ce0029c0bbe910160405180910390a16040518181527f66cbca4f3c64fecf1dcb9ce094abcf7f68c3450a1d4e3a8e917dd621edb4ebe090602001610d37565b610f85611026565b60027f9b779b17422d0df92223018b32b4d1fa46e071723d6817e2486d003becc55f0055565b610fb984848484600161106a565b610fe657604051635274afe760e01b81526001600160a01b03851660048201526024015b60405180910390fd5b50505050565b610ff983838360016110dc565b61102157604051635274afe760e01b81526001600160a01b0384166004820152602401610fdd565b505050565b7f9b779b17422d0df92223018b32b4d1fa46e071723d6817e2486d003becc55f005460020361106857604051633ee5aeb560e01b815260040160405180910390fd5b565b6040516323b872dd60e01b60008181526001600160a01b038781166004528616602452604485905291602083606481808c5af1925060016000511483166110ca5783831516156110bd573d6000823e3d81fd5b6000883b113d1516831692505b60405250600060605295945050505050565b60405163a9059cbb60e01b60008181526001600160a01b038616600452602485905291602083604481808b5af192506001600051148316611136578383151615611129573d6000823e3d81fd5b6000873b113d1516831692505b60405250949350505050565b6000806040838503121561115557600080fd5b50508035926020909101359150565b60006020828403121561117657600080fd5b5035919050565b80356001600160a01b038116811461119457600080fd5b919050565b600080604083850312156111ac57600080fd5b6111b58361117d565b91506111c36020840161117d565b90509250929050565b6000602082840312156111de57600080fd5b5051919050565b634e487b7160e01b600052601160045260246000fd5b8082028115828204841417610607576106076111e5565b60008261122f57634e487b7160e01b600052601260045260246000fd5b500490565b80820180821115610607576106076111e5565b600060018201611259576112596111e5565b5060010190565b81810381811115610607576106076111e556fea264697066735822122002dc22af8cee49d6e72e1c223d6a7c65d1f27845e2d06b29ed542716d722062d64736f6c63430008180033",
  "linkReferences": {},
  "deployedLinkReferences": {}
}