{
  "_format": "hh-sol-artifact-1",
  "contractName": "OSLOTreasury",
  "sourceName": "contracts/OSLOTreasury.sol",
  "abi": [
    {
      "inputs": [
        {
          "internalType": "address",
          "name": "_busd",
          "type": "address"
        },
        {
          "internalType": "address",
          "name": "_osloToken",
          "type": "address"
        }
      ],
      "stateMutability": "nonpayable",
      "type": "constructor"
    },
    {
      "inputs": [],
      "name": "CannotRescueProtocolTokens",
      "type": "error"
    },
    {
      "inputs": [],
      "name": "NotConfigured",
      "type": "error"
    },
    {
      "inputs": [],
      "name": "NothingToDistribute",
      "type": "error"
    },
    {
      "inputs": [],
      "name": "OnlyAdmin",
      "type": "error"
    },
    {
      "inputs": [],
      "name": "OnlyTimelock",
      "type": "error"
    },
    {
      "inputs": [],
      "name": "ReentrancyGuardReentrantCall",
      "type": "error"
    },
    {
      "inputs": [
        {
          "internalType": "address",
          "name": "token",
          "type": "address"
        }
      ],
      "name": "SafeERC20FailedOperation",
      "type": "error"
    },
    {
      "inputs": [],
      "name": "SetupAlreadyComplete",
      "type": "error"
    },
    {
      "inputs": [],
      "name": "ZeroAddress",
      "type": "error"
    },
    {
      "anonymous": false,
      "inputs": [
        {
          "indexed": false,
          "internalType": "uint256",
          "name": "toLiquidity",
          "type": "uint256"
        },
        {
          "indexed": false,
          "internalType": "uint256",
          "name": "toOwner",
          "type": "uint256"
        }
      ],
      "name": "Distributed",
      "type": "event"
    },
    {
      "anonymous": false,
      "inputs": [
        {
          "indexed": false,
          "internalType": "uint256",
          "name": "amount",
          "type": "uint256"
        }
      ],
      "name": "FeesReceived",
      "type": "event"
    },
    {
      "anonymous": false,
      "inputs": [
        {
          "indexed": true,
          "internalType": "address",
          "name": "token",
          "type": "address"
        },
        {
          "indexed": false,
          "internalType": "uint256",
          "name": "amount",
          "type": "uint256"
        },
        {
          "indexed": false,
          "internalType": "address",
          "name": "to",
          "type": "address"
        }
      ],
      "name": "TokensRescued",
      "type": "event"
    },
    {
      "inputs": [],
      "name": "admin",
      "outputs": [
        {
          "internalType": "address",
          "name": "",
          "type": "address"
        }
      ],
      "stateMutability": "view",
      "type": "function"
    },
    {
      "inputs": [],
      "name": "busd",
      "outputs": [
        {
          "internalType": "contract IERC20",
          "name": "",
          "type": "address"
        }
      ],
      "stateMutability": "view",
      "type": "function"
    },
    {
      "inputs": [],
      "name": "completeSetup",
      "outputs": [],
      "stateMutability": "nonpayable",
      "type": "function"
    },
    {
      "inputs": [
        {
          "internalType": "address",
          "name": "_rankSystem",
          "type": "address"
        },
        {
          "internalType": "address",
          "name": "_dao",
          "type": "address"
        },
        {
          "internalType": "address",
          "name": "_liquidityManager",
          "type": "address"
        },
        {
          "internalType": "address",
          "name": "_timelock",
          "type": "address"
        },
        {
          "internalType": "address",
          "name": "_ownerWallet",
          "type": "address"
        }
      ],
      "name": "configure",
      "outputs": [],
      "stateMutability": "nonpayable",
      "type": "function"
    },
    {
      "inputs": [],
      "name": "dao",
      "outputs": [
        {
          "internalType": "address",
          "name": "",
          "type": "address"
        }
      ],
      "stateMutability": "view",
      "type": "function"
    },
    {
      "inputs": [],
      "name": "distribute",
      "outputs": [],
      "stateMutability": "nonpayable",
      "type": "function"
    },
    {
      "inputs": [],
      "name": "liquidityManager",
      "outputs": [
        {
          "internalType": "address",
          "name": "",
          "type": "address"
        }
      ],
      "stateMutability": "view",
      "type": "function"
    },
    {
      "inputs": [],
      "name": "osloToken",
      "outputs": [
        {
          "internalType": "contract IERC20",
          "name": "",
          "type": "address"
        }
      ],
      "stateMutability": "view",
      "type": "function"
    },
    {
      "inputs": [],
      "name": "ownerWallet",
      "outputs": [
        {
          "internalType": "address",
          "name": "",
          "type": "address"
        }
      ],
      "stateMutability": "view",
      "type": "function"
    },
    {
      "inputs": [],
      "name": "pendingDistribution",
      "outputs": [
        {
          "internalType": "uint256",
          "name": "",
          "type": "uint256"
        }
      ],
      "stateMutability": "view",
      "type": "function"
    },
    {
      "inputs": [],
      "name": "rankSystem",
      "outputs": [
        {
          "internalType": "address",
          "name": "",
          "type": "address"
        }
      ],
      "stateMutability": "view",
      "type": "function"
    },
    {
      "inputs": [
        {
          "internalType": "uint256",
          "name": "amount",
          "type": "uint256"
        }
      ],
      "name": "receiveFees",
      "outputs": [],
      "stateMutability": "nonpayable",
      "type": "function"
    },
    {
      "inputs": [
        {
          "internalType": "address",
          "name": "token",
          "type": "address"
        },
        {
          "internalType": "uint256",
          "name": "amount",
          "type": "uint256"
        }
      ],
      "name": "rescueERC20",
      "outputs": [],
      "stateMutability": "nonpayable",
      "type": "function"
    },
    {
      "inputs": [],
      "name": "setupComplete",
      "outputs": [
        {
          "internalType": "bool",
          "name": "",
          "type": "bool"
        }
      ],
      "stateMutability": "view",
      "type": "function"
    },
    {
      "inputs": [],
      "name": "timelock",
      "outputs": [
        {
          "internalType": "address",
          "name": "",
          "type": "address"
        }
      ],
      "stateMutability": "view",
      "type": "function"
    },
    {
      "inputs": [],
      "name": "totalDistributed",
      "outputs": [
        {
          "internalType": "uint256",
          "name": "",
          "type": "uint256"
        }
      ],
      "stateMutability": "view",
      "type": "function"
    },
    {
      "inputs": [],
      "name": "totalReceived",
      "outputs": [
        {
          "internalType": "uint256",
          "name": "",
          "type": "uint256"
        }
      ],
      "stateMutability": "view",
      "type": "function"
    }
  ],
  "bytecode": "0x60c060405234801561001057600080fd5b50604051610c1d380380610c1d83398101604081905261002f916100d3565b60017f9b779b17422d0df92223018b32b4d1fa46e071723d6817e2486d003becc55f00556001600160a01b038216158061007057506001600160a01b038116155b1561008e5760405163d92e233d60e01b815260040160405180910390fd5b6001600160a01b039182166080521660a052600480546001600160a01b03191633179055610106565b80516001600160a01b03811681146100ce57600080fd5b919050565b600080604083850312156100e657600080fd5b6100ef836100b7565b91506100fd602084016100b7565b90509250929050565b60805160a051610acf61014e6000396000818161012a01526104f00152600081816101810152818161028b015281816104b50152818161065801526106ef0152610acf6000f3fe608060405234801561001057600080fd5b506004361061010b5760003560e01c80639335dcb7116100a2578063d33219b411610071578063d33219b414610234578063e4fc6b6d14610247578063e9a16bd51461024f578063efca2eed14610262578063f851a4401461026b57600080fd5b80639335dcb7146101e45780639c22b9a6146101f7578063a3c2c4621461020e578063b6635be61461021757600080fd5b80634162169f116100de5780634162169f146101a3578063760fcb3e146101b65780638aea8f71146101c95780638cd4426d146101d157600080fd5b80630420592e146101105780632acfbca31461012557806333827438146101695780633ca5b2341461017c575b600080fd5b61012361011e36600461095a565b61027e565b005b61014c7f000000000000000000000000000000000000000000000000000000000000000081565b6040516001600160a01b0390911681526020015b60405180910390f35b60025461014c906001600160a01b031681565b61014c7f000000000000000000000000000000000000000000000000000000000000000081565b60015461014c906001600160a01b031681565b6101236101c436600461098f565b610319565b6101236103c7565b6101236101df3660046109f4565b610488565b60055461014c906001600160a01b031681565b61020060085481565b604051908152602001610160565b61020060065481565b6009546102249060ff1681565b6040519015158152602001610160565b60035461014c906001600160a01b031681565b6101236105a9565b60005461014c906001600160a01b031681565b61020060075481565b60045461014c906001600160a01b031681565b6102b36001600160a01b037f000000000000000000000000000000000000000000000000000000000000000016333084610797565b80600660008282546102c59190610a34565b9250508190555080600860008282546102de9190610a34565b90915550506040518181527f91b044947b8ab661360de0aedacf8d16ad45adfb1f3bafb2ac8c4633e297b9719060200160405180910390a150565b6004546001600160a01b0316331461034457604051634755657960e01b815260040160405180910390fd5b60095460ff16156103685760405163238f75d360e01b815260040160405180910390fd5b600080546001600160a01b03199081166001600160a01b03978816179091556001805482169587169590951790945560028054851693861693909317909255600380548416918516919091179055600580549092169216919091179055565b6004546001600160a01b031633146103f257604051634755657960e01b815260040160405180910390fd5b60095460ff16156104165760405163238f75d360e01b815260040160405180910390fd5b6000546001600160a01b0316158061043757506001546001600160a01b0316155b8061044b57506002546001600160a01b0316155b156104695760405163d311bc3960e01b815260040160405180910390fd5b6009805460ff19166001179055600480546001600160a01b0319169055565b6003546001600160a01b031633146104b357604051630e05f48560e11b815260040160405180910390fd5b7f00000000000000000000000000000000000000000000000000000000000000006001600160a01b0316826001600160a01b0316148061052457507f00000000000000000000000000000000000000000000000000000000000000006001600160a01b0316826001600160a01b0316145b15610542576040516311c9c0e360e01b815260040160405180910390fd5b60035461055c906001600160a01b038481169116836107d8565b600354604080518381526001600160a01b039283166020820152918416917ffb475a842bad10d3800b61bd1a92e716051afba979b124b583bd99a2d1d7bfd5910160405180910390a25050565b6105b1610812565b6008546000036105d35760405162598fc960e21b815260040160405180910390fd5b6002546001600160a01b031615806105f457506005546001600160a01b0316155b156106125760405163d311bc3960e01b815260040160405180910390fd5b600880546000918290559061271061062c61264884610a4d565b6106369190610a64565b905060006106448284610a86565b600254909150610681906001600160a01b037f000000000000000000000000000000000000000000000000000000000000000081169116846107d8565b60025460405163ee3b038f60e01b8152600481018490526001600160a01b039091169063ee3b038f90602401600060405180830381600087803b1580156106c757600080fd5b505af11580156106db573d6000803e3d6000fd5b505060055461071992506001600160a01b037f00000000000000000000000000000000000000000000000000000000000000008116925016836107d8565b826007600082825461072b9190610a34565b909155505060408051838152602081018390527f97791d3ac1343e05805a2f905fa80b249c2ca58cf9fef455d4fa7ec13ce58321910160405180910390a150505061079560017f9b779b17422d0df92223018b32b4d1fa46e071723d6817e2486d003becc55f0055565b565b6107a5848484846001610840565b6107d257604051635274afe760e01b81526001600160a01b03851660048201526024015b60405180910390fd5b50505050565b6107e583838360016108b2565b61080d57604051635274afe760e01b81526001600160a01b03841660048201526024016107c9565b505050565b61081a610918565b60027f9b779b17422d0df92223018b32b4d1fa46e071723d6817e2486d003becc55f0055565b6040516323b872dd60e01b60008181526001600160a01b038781166004528616602452604485905291602083606481808c5af1925060016000511483166108a0578383151615610893573d6000823e3d81fd5b6000883b113d1516831692505b60405250600060605295945050505050565b60405163a9059cbb60e01b60008181526001600160a01b038616600452602485905291602083604481808b5af19250600160005114831661090c5783831516156108ff573d6000823e3d81fd5b6000873b113d1516831692505b60405250949350505050565b7f9b779b17422d0df92223018b32b4d1fa46e071723d6817e2486d003becc55f005460020361079557604051633ee5aeb560e01b815260040160405180910390fd5b60006020828403121561096c57600080fd5b5035919050565b80356001600160a01b038116811461098a57600080fd5b919050565b600080600080600060a086880312156109a757600080fd5b6109b086610973565b94506109be60208701610973565b93506109cc60408701610973565b92506109da60608701610973565b91506109e860808701610973565b90509295509295909350565b60008060408385031215610a0757600080fd5b610a1083610973565b946020939093013593505050565b634e487b7160e01b600052601160045260246000fd5b80820180821115610a4757610a47610a1e565b92915050565b8082028115828204841417610a4757610a47610a1e565b600082610a8157634e487b7160e01b600052601260045260246000fd5b500490565b81810381811115610a4757610a47610a1e56fea264697066735822122077b4f1a8671415a95b8f426e3ae7922a7cbea03c63d45fe12e84f906417eb1be64736f6c63430008180033",
  "linkReferences": {},
  "deployedLinkReferences": {}
}