{
  "_format": "hh-sol-artifact-1",
  "contractName": "OSLOInvestmentEngine",
  "sourceName": "contracts/OSLOInvestmentEngine.sol",
  "abi": [
    {
      "inputs": [
        {
          "internalType": "address",
          "name": "_busd",
          "type": "address"
        },
        {
          "internalType": "uint256",
          "name": "_launchTimestamp",
          "type": "uint256"
        }
      ],
      "stateMutability": "nonpayable",
      "type": "constructor"
    },
    {
      "inputs": [],
      "name": "DEXNotPriced",
      "type": "error"
    },
    {
      "inputs": [],
      "name": "DepositCapped",
      "type": "error"
    },
    {
      "inputs": [],
      "name": "DepositTooLow",
      "type": "error"
    },
    {
      "inputs": [],
      "name": "DepositsPausedError",
      "type": "error"
    },
    {
      "inputs": [],
      "name": "InsufficientRewardPool",
      "type": "error"
    },
    {
      "inputs": [],
      "name": "InvalidDeposit",
      "type": "error"
    },
    {
      "inputs": [],
      "name": "NotConfigured",
      "type": "error"
    },
    {
      "inputs": [],
      "name": "NothingToClaim",
      "type": "error"
    },
    {
      "inputs": [],
      "name": "OnlyAdmin",
      "type": "error"
    },
    {
      "inputs": [],
      "name": "OnlyTimelock",
      "type": "error"
    },
    {
      "inputs": [],
      "name": "PrincipalLocked",
      "type": "error"
    },
    {
      "inputs": [],
      "name": "ReentrancyGuardReentrantCall",
      "type": "error"
    },
    {
      "inputs": [
        {
          "internalType": "address",
          "name": "token",
          "type": "address"
        }
      ],
      "name": "SafeERC20FailedOperation",
      "type": "error"
    },
    {
      "inputs": [],
      "name": "SetupAlreadyComplete",
      "type": "error"
    },
    {
      "inputs": [],
      "name": "ZeroAddress",
      "type": "error"
    },
    {
      "anonymous": false,
      "inputs": [
        {
          "indexed": true,
          "internalType": "address",
          "name": "user",
          "type": "address"
        },
        {
          "indexed": false,
          "internalType": "uint256",
          "name": "cycleNumber",
          "type": "uint256"
        }
      ],
      "name": "CycleCompleted",
      "type": "event"
    },
    {
      "anonymous": false,
      "inputs": [
        {
          "indexed": true,
          "internalType": "address",
          "name": "user",
          "type": "address"
        },
        {
          "indexed": false,
          "internalType": "uint256",
          "name": "amount",
          "type": "uint256"
        },
        {
          "indexed": false,
          "internalType": "uint256",
          "name": "netAmount",
          "type": "uint256"
        },
        {
          "indexed": false,
          "internalType": "uint256",
          "name": "tier",
          "type": "uint256"
        },
        {
          "indexed": false,
          "internalType": "uint256",
          "name": "depositIndex",
          "type": "uint256"
        }
      ],
      "name": "Deposited",
      "type": "event"
    },
    {
      "anonymous": false,
      "inputs": [
        {
          "indexed": false,
          "internalType": "bool",
          "name": "paused",
          "type": "bool"
        }
      ],
      "name": "DepositsPaused",
      "type": "event"
    },
    {
      "anonymous": false,
      "inputs": [
        {
          "indexed": true,
          "internalType": "address",
          "name": "user",
          "type": "address"
        },
        {
          "indexed": false,
          "internalType": "uint256",
          "name": "amount",
          "type": "uint256"
        },
        {
          "indexed": false,
          "internalType": "uint256",
          "name": "penalty",
          "type": "uint256"
        },
        {
          "indexed": false,
          "internalType": "uint256",
          "name": "depositIndex",
          "type": "uint256"
        }
      ],
      "name": "PrincipalWithdrawn",
      "type": "event"
    },
    {
      "anonymous": false,
      "inputs": [
        {
          "indexed": true,
          "internalType": "address",
          "name": "user",
          "type": "address"
        },
        {
          "indexed": false,
          "internalType": "uint256",
          "name": "netReturn",
          "type": "uint256"
        },
        {
          "indexed": false,
          "internalType": "uint256",
          "name": "fee",
          "type": "uint256"
        }
      ],
      "name": "RewardPaid",
      "type": "event"
    },
    {
      "anonymous": false,
      "inputs": [
        {
          "indexed": true,
          "internalType": "address",
          "name": "user",
          "type": "address"
        },
        {
          "indexed": false,
          "internalType": "uint256",
          "name": "investmentReturn",
          "type": "uint256"
        },
        {
          "indexed": false,
          "internalType": "uint256",
          "name": "profitReturn",
          "type": "uint256"
        },
        {
          "indexed": false,
          "internalType": "uint256",
          "name": "depositIndex",
          "type": "uint256"
        }
      ],
      "name": "RewardsClaimed",
      "type": "event"
    },
    {
      "inputs": [],
      "name": "admin",
      "outputs": [
        {
          "internalType": "address",
          "name": "",
          "type": "address"
        }
      ],
      "stateMutability": "view",
      "type": "function"
    },
    {
      "inputs": [],
      "name": "busd",
      "outputs": [
        {
          "internalType": "contract IERC20",
          "name": "",
          "type": "address"
        }
      ],
      "stateMutability": "view",
      "type": "function"
    },
    {
      "inputs": [
        {
          "internalType": "uint256",
          "name": "depositIndex",
          "type": "uint256"
        }
      ],
      "name": "claimRewards",
      "outputs": [],
      "stateMutability": "nonpayable",
      "type": "function"
    },
    {
      "inputs": [],
      "name": "completeSetup",
      "outputs": [],
      "stateMutability": "nonpayable",
      "type": "function"
    },
    {
      "inputs": [
        {
          "internalType": "address",
          "name": "",
          "type": "address"
        }
      ],
      "name": "completedCycles",
      "outputs": [
        {
          "internalType": "uint256",
          "name": "",
          "type": "uint256"
        }
      ],
      "stateMutability": "view",
      "type": "function"
    },
    {
      "inputs": [
        {
          "internalType": "address",
          "name": "_treasury",
          "type": "address"
        },
        {
          "internalType": "address",
          "name": "_referral",
          "type": "address"
        },
        {
          "internalType": "address",
          "name": "_rankSystem",
          "type": "address"
        },
        {
          "internalType": "address",
          "name": "_liquidityManager",
          "type": "address"
        },
        {
          "internalType": "address",
          "name": "_timelock",
          "type": "address"
        },
        {
          "internalType": "address",
          "name": "_ownerWallet",
          "type": "address"
        },
        {
          "internalType": "address",
          "name": "_osloToken",
          "type": "address"
        },
        {
          "internalType": "address",
          "name": "_osloDex",
          "type": "address"
        },
        {
          "internalType": "address",
          "name": "_rewardPool",
          "type": "address"
        }
      ],
      "name": "configure",
      "outputs": [],
      "stateMutability": "nonpayable",
      "type": "function"
    },
    {
      "inputs": [
        {
          "internalType": "uint256",
          "name": "amount",
          "type": "uint256"
        }
      ],
      "name": "deposit",
      "outputs": [],
      "stateMutability": "nonpayable",
      "type": "function"
    },
    {
      "inputs": [],
      "name": "depositsPaused",
      "outputs": [
        {
          "internalType": "bool",
          "name": "",
          "type": "bool"
        }
      ],
      "stateMutability": "view",
      "type": "function"
    },
    {
      "inputs": [
        {
          "internalType": "address",
          "name": "user",
          "type": "address"
        }
      ],
      "name": "getActiveDeposit",
      "outputs": [
        {
          "internalType": "uint256",
          "name": "",
          "type": "uint256"
        }
      ],
      "stateMutability": "view",
      "type": "function"
    },
    {
      "inputs": [],
      "name": "getDAppBalance",
      "outputs": [
        {
          "internalType": "uint256",
          "name": "",
          "type": "uint256"
        }
      ],
      "stateMutability": "view",
      "type": "function"
    },
    {
      "inputs": [
        {
          "internalType": "address",
          "name": "user",
          "type": "address"
        }
      ],
      "name": "getDepositCount",
      "outputs": [
        {
          "internalType": "uint256",
          "name": "",
          "type": "uint256"
        }
      ],
      "stateMutability": "view",
      "type": "function"
    },
    {
      "inputs": [
        {
          "internalType": "address",
          "name": "user",
          "type": "address"
        },
        {
          "internalType": "uint256",
          "name": "depositIndex",
          "type": "uint256"
        }
      ],
      "name": "getPendingRewards",
      "outputs": [
        {
          "internalType": "uint256",
          "name": "investmentReturn",
          "type": "uint256"
        },
        {
          "internalType": "uint256",
          "name": "profitReturn",
          "type": "uint256"
        }
      ],
      "stateMutability": "view",
      "type": "function"
    },
    {
      "inputs": [
        {
          "internalType": "address",
          "name": "user",
          "type": "address"
        },
        {
          "internalType": "uint256",
          "name": "depositIndex",
          "type": "uint256"
        }
      ],
      "name": "getTrialTimeRemaining",
      "outputs": [
        {
          "internalType": "uint256",
          "name": "",
          "type": "uint256"
        }
      ],
      "stateMutability": "view",
      "type": "function"
    },
    {
      "inputs": [
        {
          "internalType": "address",
          "name": "user",
          "type": "address"
        }
      ],
      "name": "getUserTier",
      "outputs": [
        {
          "internalType": "uint256",
          "name": "",
          "type": "uint256"
        }
      ],
      "stateMutability": "view",
      "type": "function"
    },
    {
      "inputs": [
        {
          "internalType": "address",
          "name": "user",
          "type": "address"
        },
        {
          "internalType": "uint256",
          "name": "depositIndex",
          "type": "uint256"
        }
      ],
      "name": "isInTrialPeriod",
      "outputs": [
        {
          "internalType": "bool",
          "name": "",
          "type": "bool"
        }
      ],
      "stateMutability": "view",
      "type": "function"
    },
    {
      "inputs": [],
      "name": "launchTimestamp",
      "outputs": [
        {
          "internalType": "uint256",
          "name": "",
          "type": "uint256"
        }
      ],
      "stateMutability": "view",
      "type": "function"
    },
    {
      "inputs": [],
      "name": "liquidityManager",
      "outputs": [
        {
          "internalType": "address",
          "name": "",
          "type": "address"
        }
      ],
      "stateMutability": "view",
      "type": "function"
    },
    {
      "inputs": [],
      "name": "osloDex",
      "outputs": [
        {
          "internalType": "address",
          "name": "",
          "type": "address"
        }
      ],
      "stateMutability": "view",
      "type": "function"
    },
    {
      "inputs": [],
      "name": "osloToken",
      "outputs": [
        {
          "internalType": "address",
          "name": "",
          "type": "address"
        }
      ],
      "stateMutability": "view",
      "type": "function"
    },
    {
      "inputs": [],
      "name": "ownerWallet",
      "outputs": [
        {
          "internalType": "address",
          "name": "",
          "type": "address"
        }
      ],
      "stateMutability": "view",
      "type": "function"
    },
    {
      "inputs": [],
      "name": "rankSystem",
      "outputs": [
        {
          "internalType": "address",
          "name": "",
          "type": "address"
        }
      ],
      "stateMutability": "view",
      "type": "function"
    },
    {
      "inputs": [],
      "name": "referral",
      "outputs": [
        {
          "internalType": "address",
          "name": "",
          "type": "address"
        }
      ],
      "stateMutability": "view",
      "type": "function"
    },
    {
      "inputs": [],
      "name": "rewardPool",
      "outputs": [
        {
          "internalType": "address",
          "name": "",
          "type": "address"
        }
      ],
      "stateMutability": "view",
      "type": "function"
    },
    {
      "inputs": [
        {
          "internalType": "bool",
          "name": "_paused",
          "type": "bool"
        }
      ],
      "name": "setDepositsPaused",
      "outputs": [],
      "stateMutability": "nonpayable",
      "type": "function"
    },
    {
      "inputs": [],
      "name": "setupComplete",
      "outputs": [
        {
          "internalType": "bool",
          "name": "",
          "type": "bool"
        }
      ],
      "stateMutability": "view",
      "type": "function"
    },
    {
      "inputs": [],
      "name": "timelock",
      "outputs": [
        {
          "internalType": "address",
          "name": "",
          "type": "address"
        }
      ],
      "stateMutability": "view",
      "type": "function"
    },
    {
      "inputs": [],
      "name": "totalDeposited",
      "outputs": [
        {
          "internalType": "uint256",
          "name": "",
          "type": "uint256"
        }
      ],
      "stateMutability": "view",
      "type": "function"
    },
    {
      "inputs": [],
      "name": "totalRewardsPaid",
      "outputs": [
        {
          "internalType": "uint256",
          "name": "",
          "type": "uint256"
        }
      ],
      "stateMutability": "view",
      "type": "function"
    },
    {
      "inputs": [],
      "name": "totalWithdrawn",
      "outputs": [
        {
          "internalType": "uint256",
          "name": "",
          "type": "uint256"
        }
      ],
      "stateMutability": "view",
      "type": "function"
    },
    {
      "inputs": [],
      "name": "treasury",
      "outputs": [
        {
          "internalType": "address",
          "name": "",
          "type": "address"
        }
      ],
      "stateMutability": "view",
      "type": "function"
    },
    {
      "inputs": [
        {
          "internalType": "address",
          "name": "",
          "type": "address"
        },
        {
          "internalType": "uint256",
          "name": "",
          "type": "uint256"
        }
      ],
      "name": "userDeposits",
      "outputs": [
        {
          "internalType": "uint256",
          "name": "amount",
          "type": "uint256"
        },
        {
          "internalType": "uint256",
          "name": "tier",
          "type": "uint256"
        },
        {
          "internalType": "uint256",
          "name": "depositTime",
          "type": "uint256"
        },
        {
          "internalType": "uint256",
          "name": "lastClaimTime",
          "type": "uint256"
        },
        {
          "internalType": "uint256",
          "name": "totalClaimed",
          "type": "uint256"
        },
        {
          "internalType": "bool",
          "name": "active",
          "type": "bool"
        }
      ],
      "stateMutability": "view",
      "type": "function"
    },
    {
      "inputs": [
        {
          "internalType": "address",
          "name": "",
          "type": "address"
        }
      ],
      "name": "users",
      "outputs": [
        {
          "internalType": "uint256",
          "name": "totalActiveDeposit",
          "type": "uint256"
        },
        {
          "internalType": "uint256",
          "name": "depositCount",
          "type": "uint256"
        }
      ],
      "stateMutability": "view",
      "type": "function"
    },
    {
      "inputs": [
        {
          "internalType": "uint256",
          "name": "depositIndex",
          "type": "uint256"
        }
      ],
      "name": "withdrawPrincipal",
      "outputs": [],
      "stateMutability": "nonpayable",
      "type": "function"
    }
  ],
  "bytecode": "0x60c060405234801561001057600080fd5b506040516200203938038062002039833981016040819052610031916100a4565b60017f9b779b17422d0df92223018b32b4d1fa46e071723d6817e2486d003becc55f00556001600160a01b03821661007c5760405163d92e233d60e01b815260040160405180910390fd5b6001600160a01b0390911660805260a052600680546001600160a01b031916331790556100de565b600080604083850312156100b757600080fd5b82516001600160a01b03811681146100ce57600080fd5b6020939093015192949293505050565b60805160a051611efd6200013c600039600081816103d20152611b4b01526000818161034501528181610b5401528181610c1b01528181610ccd01528181610ddf015281816110910152818161111501526111cd0152611efd6000f3fe608060405234801561001057600080fd5b50600436106101fb5760003560e01c806366666aa91161011a578063b6635be6116100ad578063e4e7c6b41161007c578063e4e7c6b4146104e2578063e5c473e0146104f5578063e9a16bd514610508578063f851a4401461051b578063ff50abdc1461052e57600080fd5b8063b6635be614610495578063b6b55f25146104a9578063d33219b4146104bc578063e4d2620e146104cf57600080fd5b80638aea8f71116100e95780638aea8f711461042b5780639335dcb71461043357806398fe6d2e14610446578063a87430ba1461045957600080fd5b806366666aa9146103f457806374958e35146104075780637ce110cc146104105780638565c2bf1461041857600080fd5b8063338274381161019257806360da3e831161016157806360da3e831461038357806361d027b3146103a7578063658e28a4146103ba57806365cf7c9b146103cd57600080fd5b8063338274381461032d5780633ca5b234146103405780633fa28fb7146103675780634b3197131461037a57600080fd5b80631441a5a9116101ce5780631441a5a9146102bc5780631c481e2d146102e75780632acfbca3146102fa5780632d8724661461030d57600080fd5b806308f43333146102005780630962ef791461024757806313fcaf541461025c578063142a3da314610293575b600080fd5b61021361020e366004611c8d565b610537565b6040805196875260208701959095529385019290925260608401526080830152151560a082015260c0015b60405180910390f35b61025a610255366004611cb9565b61058e565b005b61028561026a366004611cd2565b6001600160a01b03166000908152600a602052604090205490565b60405190815260200161023e565b6102856102a1366004611cd2565b6001600160a01b03166000908152600b602052604090205490565b6001546102cf906001600160a01b031681565b6040516001600160a01b03909116815260200161023e565b61025a6102f5366004611cef565b61094e565b6004546102cf906001600160a01b031681565b61028561031b366004611cd2565b600c6020526000908152604090205481565b6003546102cf906001600160a01b031681565b6102cf7f000000000000000000000000000000000000000000000000000000000000000081565b610285610375366004611c8d565b6109d1565b610285600e5481565b60095461039790600160a81b900460ff1681565b604051901515815260200161023e565b6000546102cf906001600160a01b031681565b61025a6103c8366004611cb9565b610a6b565b6102857f000000000000000000000000000000000000000000000000000000000000000081565b6009546102cf906001600160a01b031681565b610285600f5481565b610285610dc7565b6005546102cf906001600160a01b031681565b61025a610e57565b6008546102cf906001600160a01b031681565b61025a610454366004611d11565b610efb565b610480610467366004611cd2565b600b602052600090815260409020805460019091015482565b6040805192835260208301919091520161023e565b60095461039790600160a01b900460ff1681565b61025a6104b7366004611cb9565b611029565b6007546102cf906001600160a01b031681565b6102856104dd366004611cd2565b611452565b6104806104f0366004611c8d565b61149b565b610397610503366004611c8d565b611534565b6002546102cf906001600160a01b031681565b6006546102cf906001600160a01b031681565b610285600d5481565b600a602052816000526040600020818154811061055357600080fd5b600091825260209091206006909102018054600182015460028301546003840154600485015460059095015493965091945092909160ff1686565b6105966115b0565b60006105a233836115cc565b90506000806105b1338461166d565b909250905060006105c28284611de3565b9050806000036105e5576040516312d37ee560e31b815260040160405180910390fd5b83546000906105f690600390611df6565b9050808286600401546106099190611de3565b106106cf57600485015461061d9082611e0d565b9150600061062b8486611de3565b111561065e5761063b8385611de3565b6106458484611df6565b61064f9190611e20565b925061065b8383611e0d565b93505b60058501805460ff19169055336000908152600c6020526040812080549161068583611e42565b9091555050336000818152600c60209081526040918290205491519182527f7a22242c42d1e94f110cb053b2cf343580c736816a22ac54ec7dd833bf0dbe63910160405180910390a25b60006127106106e06103e885611df6565b6106ea9190611e20565b905060006106f88285611e0d565b90508387600401600082825461070e9190611de3565b9091555050426003880155600f805485919060009061072e908490611de3565b9091555050600554604051630687590960e11b8152600481018390526000916001600160a01b031690630d0eb21290602401602060405180830381865afa15801561077d573d6000803e3d6000fd5b505050506040513d601f19601f820116820180604052508101906107a19190611e5b565b9050806000036107c45760405163cc88465760e01b815260040160405180910390fd5b600480546040516340c10f1960e01b81523392810192909252602482018390526001600160a01b0316906340c10f1990604401600060405180830381600087803b15801561081157600080fd5b505af1158015610825573d6000803e3d6000fd5b50506001546001600160a01b0316158015925090506108445750600086115b156108ae57600154604051638000d99160e01b8152336004820152602481018890526001600160a01b0390911690638000d99190604401600060405180830381600087803b15801561089557600080fd5b505af11580156108a9573d6000803e3d6000fd5b505050505b60408051888152602081018890529081018a905233907f56253d287efacdb2c4cd76dd03624a4821c1ce721d1152e8f5f5718f6087c9bf9060600160405180910390a2604080518381526020810185905233917fd6f2c8500df5b44f11e9e48b91ff9f1b9d81bc496d55570c2b1b75bf65243f51910160405180910390a2505050505050505061094b6001600080516020611ea883398151915255565b50565b6007546001600160a01b0316331461097957604051630e05f48560e11b815260040160405180910390fd5b60098054821515600160a81b0260ff60a81b199091161790556040517f5ef34f53269a04b5b817e5be24a51ba6b477118b399ec9dd5b2baf5b299563dc906109c690831515815260200190565b60405180910390a150565b6001600160a01b0382166000908152600a602052604081205482106109f857506000610a65565b6001600160a01b0383166000908152600a602052604081208054620d2f00919085908110610a2857610a28611e74565b906000526020600020906006020160020154610a449190611de3565b9050804210610a57576000915050610a65565b610a614282611e0d565b9150505b92915050565b610a736115b0565b6000610a7f33836115cc565b9050620d2f008160020154610a949190611de3565b4210610ab35760405163aa13ca9d60e01b815260040160405180910390fd5b805460048201546000908211610aca576000610ad9565b6004830154610ad99083611e0d565b90506000612710610aec6103e884611df6565b610af69190611e20565b90506000610b048284611e0d565b90506000612710610b1761264885611df6565b610b219190611e20565b6003549091506001600160a01b031615801590610b3e5750600081115b15610bdc57600354610b7d906001600160a01b037f000000000000000000000000000000000000000000000000000000000000000081169116836117e6565b60035460405163ee3b038f60e01b8152600481018390526001600160a01b039091169063ee3b038f90602401600060405180830381600087803b158015610bc357600080fd5b505af1158015610bd7573d6000803e3d6000fd5b505050505b6000610be88285611e0d565b6009549091506001600160a01b031615801590610c055750600081115b15610c4457600954610c44906001600160a01b037f000000000000000000000000000000000000000000000000000000000000000081169116836117e6565b60058701805460ff19169055336000908152600b602052604081208054889290610c6f908490611e0d565b9250508190555085600e6000828254610c889190611de3565b90915550508215610cf7576009546001600160a01b0316610cbc57604051633270436b60e01b815260040160405180910390fd5b600954610cf7906001600160a01b037f0000000000000000000000000000000000000000000000000000000000000000811691163386611825565b6001546001600160a01b031615610d665760015460405163095ce44b60e21b81523360048201526001600160a01b0390911690632573912c90602401600060405180830381600087803b158015610d4d57600080fd5b505af1158015610d61573d6000803e3d6000fd5b505050505b604080518781526020810186905290810189905233907f6c4902f017de597480c3345b45f94d280bb9c0a171c03d621318f9bf2d764a529060600160405180910390a25050505050505061094b6001600080516020611ea883398151915255565b6040516370a0823160e01b81523060048201526000907f00000000000000000000000000000000000000000000000000000000000000006001600160a01b0316906370a0823190602401602060405180830381865afa158015610e2e573d6000803e3d6000fd5b505050506040513d601f19601f82011682018060405250810190610e529190611e5b565b905090565b6006546001600160a01b03163314610e8257604051634755657960e01b815260040160405180910390fd5b600954600160a01b900460ff1615610ead5760405163238f75d360e01b815260040160405180910390fd5b6000546001600160a01b0316610ed65760405163d311bc3960e01b815260040160405180910390fd5b6009805460ff60a01b1916600160a01b179055600680546001600160a01b0319169055565b6006546001600160a01b03163314610f2657604051634755657960e01b815260040160405180910390fd5b600954600160a01b900460ff1615610f515760405163238f75d360e01b815260040160405180910390fd5b6001600160a01b0383161580610f6e57506001600160a01b038216155b15610f8c5760405163d92e233d60e01b815260040160405180910390fd5b600080546001600160a01b03199081166001600160a01b039b8c1617909155600180548216998b1699909917909855600280548916978a16979097179096556003805488169589169590951790945560078054871693881693909317909255600880548616918716919091179055600480548516918616919091179055600580548416918516919091179055600980549092169216919091179055565b6110316115b0565b600954600160a81b900460ff161561105b57604051627cfe7f60e31b815260040160405180910390fd5b678ac7230489e8000081101561108457604051632b7786bd60e21b815260040160405180910390fd5b6110b96001600160a01b037f000000000000000000000000000000000000000000000000000000000000000016333084611825565b60006127106110ca61264884611df6565b6110d49190611e20565b905060006110e28284611e0d565b6003549091506001600160a01b0316158015906110ff5750600082115b1561119d5760035461113e906001600160a01b037f000000000000000000000000000000000000000000000000000000000000000081169116846117e6565b60035460405163ee3b038f60e01b8152600481018490526001600160a01b039091169063ee3b038f90602401600060405180830381600087803b15801561118457600080fd5b505af1158015611198573d6000803e3d6000fd5b505050505b6009546001600160a01b0316158015906111b75750600081115b156111f6576009546111f6906001600160a01b037f000000000000000000000000000000000000000000000000000000000000000081169116836117e6565b600061120184611861565b336000818152600a60209081526040808320815160c0810183528a8152808401878152428285018181526060840191825260808401888152600160a0860181815287548083018955978b52898b2096516006909802909601968755935193860193909355516002850155516003840155516004830155516005909101805460ff1916911515919091179055928252600b9052908120805492935086929091906112ab908490611de3565b9091555050336000908152600b602052604081206001018054916112ce83611e42565b919050555083600d60008282546112e59190611de3565b90915550506001546001600160a01b0316156113b65760015460405163095ce44b60e21b81523360048201526001600160a01b0390911690632573912c90602401600060405180830381600087803b15801561134057600080fd5b505af1158015611354573d6000803e3d6000fd5b5050600154604051635d6e89f960e11b81523360048201526001600160a01b03909116925063badd13f29150602401600060405180830381600087803b15801561139d57600080fd5b505af11580156113b1573d6000803e3d6000fd5b505050505b6002546001600160a01b0316156113d1576113d133856118cd565b336000818152600a60205260409020547fe3b53cd1a44fbf11535e145d80b8ef1ed6d57a73bf5daa7e939b6b01657d65499086908690859061141590600190611e0d565b60408051948552602085019390935291830152606082015260800160405180910390a250505061094b6001600080516020611ea883398151915255565b6001600160a01b0381166000908152600b6020526040812054810361147957506000919050565b6001600160a01b0382166000908152600b6020526040902054610a6590611861565b6001600160a01b0382166000908152600a6020526040812054819083106114c75750600090508061152d565b6001600160a01b0384166000908152600a602052604081208054859081106114f1576114f1611e74565b60009182526020909120600690910201600581015490915060ff1661151d57600080925092505061152d565b611527858261166d565b92509250505b9250929050565b6001600160a01b0382166000908152600a6020526040812054821061155b57506000610a65565b6001600160a01b0383166000908152600a602052604090208054620d2f0091908490811061158b5761158b611e74565b9060005260206000209060060201600201546115a79190611de3565b42109392505050565b6115b8611a06565b6002600080516020611ea883398151915255565b6001600160a01b0382166000908152600a6020526040812054821061160457604051635972996f60e11b815260040160405180910390fd5b6001600160a01b0383166000908152600a6020526040812080548490811061162e5761162e611e74565b60009182526020909120600690910201600581015490915060ff16611666576040516305a2e88560e21b815260040160405180910390fd5b9392505050565b6005810154600090819060ff166116895750600090508061152d565b600083600301544261169b9190611e0d565b9050806000036116b257600080925092505061152d565b60006116c2868660010154611a38565b90506000603282116116d55760006116e0565b6116e0603283611e0d565b90506000603283116116f257826116f5565b60325b905061170661271062015180611df6565b87548590611715908590611df6565b61171f9190611df6565b6117299190611e20565b955061173a61271062015180611df6565b87548590611749908490611df6565b6117539190611df6565b61175d9190611e20565b94506000600388600001546117729190611df6565b905060006117808789611de3565b905081818a600401546117939190611de3565b11156117d95760008960040154836117ab9190611e0d565b905081156117d757816117be8983611df6565b6117c89190611e20565b97506117d48882611e0d565b98505b505b5050505050509250929050565b6117f38383836001611a6b565b61182057604051635274afe760e01b81526001600160a01b03841660048201526024015b60405180910390fd5b505050565b611833848484846001611ad1565b61185b57604051635274afe760e01b81526001600160a01b0385166004820152602401611817565b50505050565b600069021e19e0c9bab2400000821061187c57506005919050565b69010f0cf064dd59200000821061189557506004919050565b68878678326eac90000082106118ad57506003919050565b681b1ae4d6e2ef50000082106118c557506002919050565b506001919050565b6001546001600160a01b031615806118ee57506002546001600160a01b0316155b156118f7575050565b8160005b601481101561185b57600154604051634a9fefc760e01b81526001600160a01b0384811660048301526000921690634a9fefc790602401602060405180830381865afa15801561194f573d6000803e3d6000fd5b505050506040513d601f19601f820116820180604052508101906119739190611e8a565b90506001600160a01b038116611989575061185b565b60025460405163d9bd5f2d60e01b81526001600160a01b0383811660048301528581166024830152604482018790529091169063d9bd5f2d90606401600060405180830381600087803b1580156119df57600080fd5b505af11580156119f3573d6000803e3d6000fd5b5092945050600190920191506118fb9050565b600080516020611ea883398151915254600203611a3657604051633ee5aeb560e01b815260040160405180910390fd5b565b600080611a4483611b43565b90506000611a5185611bcd565b9050808210611a605780611a62565b815b95945050505050565b60405163a9059cbb60e01b60008181526001600160a01b038616600452602485905291602083604481808b5af192506001600051148316611ac5578383151615611ab8573d6000823e3d81fd5b6000873b113d1516831692505b60405250949350505050565b6040516323b872dd60e01b60008181526001600160a01b038781166004528616602452604485905291602083606481808c5af192506001600051148316611b31578383151615611b24573d6000823e3d81fd5b6000883b113d1516831692505b60405250600060605295945050505050565b600080611b707f000000000000000000000000000000000000000000000000000000000000000042611e0d565b90506276a700811015611b865761166683611c2a565b62ed4e00811015611b9a575060c892915050565b630163f500811015611baf5750609692915050565b6301e13380811015611bc45750606492915050565b50603292915050565b6001600160a01b0381166000908152600c6020526040812054808203611bf7575060001992915050565b80600103611c08575060c892915050565b80600203611c195750609692915050565b80600303611bc45750606492915050565b600081600503611c3d575061015e919050565b81600403611c4e5750610145919050565b81600303611c5f575061012c919050565b81600203611c705750610113919050565b5060fa919050565b6001600160a01b038116811461094b57600080fd5b60008060408385031215611ca057600080fd5b8235611cab81611c78565b946020939093013593505050565b600060208284031215611ccb57600080fd5b5035919050565b600060208284031215611ce457600080fd5b813561166681611c78565b600060208284031215611d0157600080fd5b8135801515811461166657600080fd5b60008060008060008060008060006101208a8c031215611d3057600080fd5b8935611d3b81611c78565b985060208a0135611d4b81611c78565b975060408a0135611d5b81611c78565b965060608a0135611d6b81611c78565b955060808a0135611d7b81611c78565b945060a08a0135611d8b81611c78565b935060c08a0135611d9b81611c78565b925060e08a0135611dab81611c78565b91506101008a0135611dbc81611c78565b809150509295985092959850929598565b634e487b7160e01b600052601160045260246000fd5b80820180821115610a6557610a65611dcd565b8082028115828204841417610a6557610a65611dcd565b81810381811115610a6557610a65611dcd565b600082611e3d57634e487b7160e01b600052601260045260246000fd5b500490565b600060018201611e5457611e54611dcd565b5060010190565b600060208284031215611e6d57600080fd5b5051919050565b634e487b7160e01b600052603260045260246000fd5b600060208284031215611e9c57600080fd5b815161166681611c7856fe9b779b17422d0df92223018b32b4d1fa46e071723d6817e2486d003becc55f00a26469706673582212204d597247324cf335f76c126af4b3bd0539eadbcb8289fe04ceccd580d60453be64736f6c63430008180033",
  "linkReferences": {},
  "deployedLinkReferences": {}
}