{
  "_format": "hh-sol-artifact-1",
  "contractName": "OSLOToken",
  "sourceName": "contracts/OSLOToken.sol",
  "abi": [
    {
      "inputs": [],
      "stateMutability": "nonpayable",
      "type": "constructor"
    },
    {
      "inputs": [
        {
          "internalType": "address",
          "name": "spender",
          "type": "address"
        },
        {
          "internalType": "uint256",
          "name": "allowance",
          "type": "uint256"
        },
        {
          "internalType": "uint256",
          "name": "needed",
          "type": "uint256"
        }
      ],
      "name": "ERC20InsufficientAllowance",
      "type": "error"
    },
    {
      "inputs": [
        {
          "internalType": "address",
          "name": "sender",
          "type": "address"
        },
        {
          "internalType": "uint256",
          "name": "balance",
          "type": "uint256"
        },
        {
          "internalType": "uint256",
          "name": "needed",
          "type": "uint256"
        }
      ],
      "name": "ERC20InsufficientBalance",
      "type": "error"
    },
    {
      "inputs": [
        {
          "internalType": "address",
          "name": "approver",
          "type": "address"
        }
      ],
      "name": "ERC20InvalidApprover",
      "type": "error"
    },
    {
      "inputs": [
        {
          "internalType": "address",
          "name": "receiver",
          "type": "address"
        }
      ],
      "name": "ERC20InvalidReceiver",
      "type": "error"
    },
    {
      "inputs": [
        {
          "internalType": "address",
          "name": "sender",
          "type": "address"
        }
      ],
      "name": "ERC20InvalidSender",
      "type": "error"
    },
    {
      "inputs": [
        {
          "internalType": "address",
          "name": "spender",
          "type": "address"
        }
      ],
      "name": "ERC20InvalidSpender",
      "type": "error"
    },
    {
      "inputs": [],
      "name": "OnlyAdmin",
      "type": "error"
    },
    {
      "inputs": [],
      "name": "OnlyMinter",
      "type": "error"
    },
    {
      "inputs": [],
      "name": "OnlyTimelock",
      "type": "error"
    },
    {
      "inputs": [],
      "name": "ReentrancyGuardReentrantCall",
      "type": "error"
    },
    {
      "inputs": [],
      "name": "SetupAlreadyComplete",
      "type": "error"
    },
    {
      "inputs": [],
      "name": "ZeroAddress",
      "type": "error"
    },
    {
      "anonymous": false,
      "inputs": [
        {
          "indexed": true,
          "internalType": "address",
          "name": "owner",
          "type": "address"
        },
        {
          "indexed": true,
          "internalType": "address",
          "name": "spender",
          "type": "address"
        },
        {
          "indexed": false,
          "internalType": "uint256",
          "name": "value",
          "type": "uint256"
        }
      ],
      "name": "Approval",
      "type": "event"
    },
    {
      "anonymous": false,
      "inputs": [
        {
          "indexed": true,
          "internalType": "address",
          "name": "minter",
          "type": "address"
        },
        {
          "indexed": false,
          "internalType": "bool",
          "name": "status",
          "type": "bool"
        }
      ],
      "name": "MinterSet",
      "type": "event"
    },
    {
      "anonymous": false,
      "inputs": [
        {
          "indexed": true,
          "internalType": "address",
          "name": "endpoint",
          "type": "address"
        },
        {
          "indexed": false,
          "internalType": "bool",
          "name": "status",
          "type": "bool"
        }
      ],
      "name": "SellEndpointSet",
      "type": "event"
    },
    {
      "anonymous": false,
      "inputs": [
        {
          "indexed": true,
          "internalType": "address",
          "name": "from",
          "type": "address"
        },
        {
          "indexed": false,
          "internalType": "uint256",
          "name": "taxAmount",
          "type": "uint256"
        },
        {
          "indexed": false,
          "internalType": "uint256",
          "name": "toLp",
          "type": "uint256"
        },
        {
          "indexed": false,
          "internalType": "uint256",
          "name": "burned",
          "type": "uint256"
        }
      ],
      "name": "SellTaxApplied",
      "type": "event"
    },
    {
      "anonymous": false,
      "inputs": [],
      "name": "SetupCompleted",
      "type": "event"
    },
    {
      "anonymous": false,
      "inputs": [
        {
          "indexed": true,
          "internalType": "address",
          "name": "from",
          "type": "address"
        },
        {
          "indexed": true,
          "internalType": "address",
          "name": "to",
          "type": "address"
        },
        {
          "indexed": false,
          "internalType": "uint256",
          "name": "value",
          "type": "uint256"
        }
      ],
      "name": "Transfer",
      "type": "event"
    },
    {
      "inputs": [],
      "name": "admin",
      "outputs": [
        {
          "internalType": "address",
          "name": "",
          "type": "address"
        }
      ],
      "stateMutability": "view",
      "type": "function"
    },
    {
      "inputs": [
        {
          "internalType": "address",
          "name": "owner",
          "type": "address"
        },
        {
          "internalType": "address",
          "name": "spender",
          "type": "address"
        }
      ],
      "name": "allowance",
      "outputs": [
        {
          "internalType": "uint256",
          "name": "",
          "type": "uint256"
        }
      ],
      "stateMutability": "view",
      "type": "function"
    },
    {
      "inputs": [
        {
          "internalType": "address",
          "name": "spender",
          "type": "address"
        },
        {
          "internalType": "uint256",
          "name": "value",
          "type": "uint256"
        }
      ],
      "name": "approve",
      "outputs": [
        {
          "internalType": "bool",
          "name": "",
          "type": "bool"
        }
      ],
      "stateMutability": "nonpayable",
      "type": "function"
    },
    {
      "inputs": [
        {
          "internalType": "address",
          "name": "account",
          "type": "address"
        }
      ],
      "name": "balanceOf",
      "outputs": [
        {
          "internalType": "uint256",
          "name": "",
          "type": "uint256"
        }
      ],
      "stateMutability": "view",
      "type": "function"
    },
    {
      "inputs": [
        {
          "internalType": "uint256",
          "name": "value",
          "type": "uint256"
        }
      ],
      "name": "burn",
      "outputs": [],
      "stateMutability": "nonpayable",
      "type": "function"
    },
    {
      "inputs": [
        {
          "internalType": "address",
          "name": "account",
          "type": "address"
        },
        {
          "internalType": "uint256",
          "name": "value",
          "type": "uint256"
        }
      ],
      "name": "burnFrom",
      "outputs": [],
      "stateMutability": "nonpayable",
      "type": "function"
    },
    {
      "inputs": [],
      "name": "completeSetup",
      "outputs": [],
      "stateMutability": "nonpayable",
      "type": "function"
    },
    {
      "inputs": [],
      "name": "decimals",
      "outputs": [
        {
          "internalType": "uint8",
          "name": "",
          "type": "uint8"
        }
      ],
      "stateMutability": "view",
      "type": "function"
    },
    {
      "inputs": [
        {
          "internalType": "address",
          "name": "account",
          "type": "address"
        }
      ],
      "name": "isMinter",
      "outputs": [
        {
          "internalType": "bool",
          "name": "",
          "type": "bool"
        }
      ],
      "stateMutability": "view",
      "type": "function"
    },
    {
      "inputs": [
        {
          "internalType": "address",
          "name": "",
          "type": "address"
        }
      ],
      "name": "isSellEndpoint",
      "outputs": [
        {
          "internalType": "bool",
          "name": "",
          "type": "bool"
        }
      ],
      "stateMutability": "view",
      "type": "function"
    },
    {
      "inputs": [
        {
          "internalType": "address",
          "name": "account",
          "type": "address"
        }
      ],
      "name": "isTaxWhitelisted",
      "outputs": [
        {
          "internalType": "bool",
          "name": "",
          "type": "bool"
        }
      ],
      "stateMutability": "view",
      "type": "function"
    },
    {
      "inputs": [],
      "name": "liquidityManager",
      "outputs": [
        {
          "internalType": "address",
          "name": "",
          "type": "address"
        }
      ],
      "stateMutability": "view",
      "type": "function"
    },
    {
      "inputs": [
        {
          "internalType": "address",
          "name": "to",
          "type": "address"
        },
        {
          "internalType": "uint256",
          "name": "amount",
          "type": "uint256"
        }
      ],
      "name": "mint",
      "outputs": [],
      "stateMutability": "nonpayable",
      "type": "function"
    },
    {
      "inputs": [],
      "name": "name",
      "outputs": [
        {
          "internalType": "string",
          "name": "",
          "type": "string"
        }
      ],
      "stateMutability": "view",
      "type": "function"
    },
    {
      "inputs": [
        {
          "internalType": "address",
          "name": "minter",
          "type": "address"
        },
        {
          "internalType": "bool",
          "name": "status",
          "type": "bool"
        }
      ],
      "name": "setMinter",
      "outputs": [],
      "stateMutability": "nonpayable",
      "type": "function"
    },
    {
      "inputs": [
        {
          "internalType": "address",
          "name": "endpoint",
          "type": "address"
        },
        {
          "internalType": "bool",
          "name": "status",
          "type": "bool"
        }
      ],
      "name": "setSellEndpoint",
      "outputs": [],
      "stateMutability": "nonpayable",
      "type": "function"
    },
    {
      "inputs": [
        {
          "internalType": "address",
          "name": "_liquidityManager",
          "type": "address"
        }
      ],
      "name": "setSellTaxAddresses",
      "outputs": [],
      "stateMutability": "nonpayable",
      "type": "function"
    },
    {
      "inputs": [
        {
          "internalType": "address",
          "name": "account",
          "type": "address"
        },
        {
          "internalType": "bool",
          "name": "whitelisted",
          "type": "bool"
        }
      ],
      "name": "setTaxWhitelist",
      "outputs": [],
      "stateMutability": "nonpayable",
      "type": "function"
    },
    {
      "inputs": [
        {
          "internalType": "address",
          "name": "_timelock",
          "type": "address"
        }
      ],
      "name": "setTimelock",
      "outputs": [],
      "stateMutability": "nonpayable",
      "type": "function"
    },
    {
      "inputs": [],
      "name": "setupComplete",
      "outputs": [
        {
          "internalType": "bool",
          "name": "",
          "type": "bool"
        }
      ],
      "stateMutability": "view",
      "type": "function"
    },
    {
      "inputs": [],
      "name": "symbol",
      "outputs": [
        {
          "internalType": "string",
          "name": "",
          "type": "string"
        }
      ],
      "stateMutability": "view",
      "type": "function"
    },
    {
      "inputs": [],
      "name": "timelock",
      "outputs": [
        {
          "internalType": "address",
          "name": "",
          "type": "address"
        }
      ],
      "stateMutability": "view",
      "type": "function"
    },
    {
      "inputs": [],
      "name": "totalBurned",
      "outputs": [
        {
          "internalType": "uint256",
          "name": "",
          "type": "uint256"
        }
      ],
      "stateMutability": "view",
      "type": "function"
    },
    {
      "inputs": [],
      "name": "totalSupply",
      "outputs": [
        {
          "internalType": "uint256",
          "name": "",
          "type": "uint256"
        }
      ],
      "stateMutability": "view",
      "type": "function"
    },
    {
      "inputs": [
        {
          "internalType": "address",
          "name": "to",
          "type": "address"
        },
        {
          "internalType": "uint256",
          "name": "value",
          "type": "uint256"
        }
      ],
      "name": "transfer",
      "outputs": [
        {
          "internalType": "bool",
          "name": "",
          "type": "bool"
        }
      ],
      "stateMutability": "nonpayable",
      "type": "function"
    },
    {
      "inputs": [
        {
          "internalType": "address",
          "name": "from",
          "type": "address"
        },
        {
          "internalType": "address",
          "name": "to",
          "type": "address"
        },
        {
          "internalType": "uint256",
          "name": "value",
          "type": "uint256"
        }
      ],
      "name": "transferFrom",
      "outputs": [
        {
          "internalType": "bool",
          "name": "",
          "type": "bool"
        }
      ],
      "stateMutability": "nonpayable",
      "type": "function"
    }
  ],
  "bytecode": "0x60806040523480156200001157600080fd5b506040518060400160405280600d81526020016c13d4d313c8141c9bdd1bd8dbdb609a1b815250604051806040016040528060048152602001634f534c4f60e01b815250816003908162000066919062000497565b50600462000075828262000497565b5050506001620000916200008e620000c460201b60201c565b90565b55600a80546001600160a01b03191633908117909155620000be906a092e8434aaaf80e1800000620000e8565b620005e8565b7f9b779b17422d0df92223018b32b4d1fa46e071723d6817e2486d003becc55f0090565b6001600160a01b038216620001185760405163ec442f0560e01b8152600060048201526024015b60405180910390fd5b62000126600083836200012a565b5050565b6001600160a01b03831615806200014857506001600160a01b038216155b806200016c57506001600160a01b03831660009081526007602052604090205460ff165b806200019157506001600160a01b03821660009081526008602052604090205460ff16155b80620001a657506006546001600160a01b0316155b15620001be57620001b9838383620002be565b505050565b6000612710620001d16103e88462000579565b620001dd919062000599565b90506000612710620001f26123288462000579565b620001fe919062000599565b905060006200020e8284620005bc565b9050620002288686620002228688620005bc565b620002be565b600654620002429087906001600160a01b031684620002be565b620002518661dead83620002be565b8060056000828254620002659190620005d2565b909155505060408051848152602081018490529081018290526001600160a01b038716907f03a28a3f260782b9c7457ce168826d3100aa6bf6e1124486977dde225498cc479060600160405180910390a2505050505050565b6001600160a01b038316620002ed578060026000828254620002e19190620005d2565b90915550620003619050565b6001600160a01b03831660009081526020819052604090205481811015620003425760405163391434e360e21b81526001600160a01b038516600482015260248101829052604481018390526064016200010f565b6001600160a01b03841660009081526020819052604090209082900390555b6001600160a01b0382166200037f576002805482900390556200039e565b6001600160a01b03821660009081526020819052604090208054820190555b816001600160a01b0316836001600160a01b03167fddf252ad1be2c89b69c2b068fc378daa952ba7f163c4a11628f55a4df523b3ef83604051620003e491815260200190565b60405180910390a3505050565b634e487b7160e01b600052604160045260246000fd5b600181811c908216806200041c57607f821691505b6020821081036200043d57634e487b7160e01b600052602260045260246000fd5b50919050565b601f821115620001b9576000816000526020600020601f850160051c810160208610156200046e5750805b601f850160051c820191505b818110156200048f578281556001016200047a565b505050505050565b81516001600160401b03811115620004b357620004b3620003f1565b620004cb81620004c4845462000407565b8462000443565b602080601f831160018114620005035760008415620004ea5750858301515b600019600386901b1c1916600185901b1785556200048f565b600085815260208120601f198616915b82811015620005345788860151825594840194600190910190840162000513565b5085821015620005535787850151600019600388901b60f8161c191681555b5050505050600190811b01905550565b634e487b7160e01b600052601160045260246000fd5b808202811582820484141762000593576200059362000563565b92915050565b600082620005b757634e487b7160e01b600052601260045260246000fd5b500490565b8181038181111562000593576200059362000563565b8082018082111562000593576200059362000563565b6110bd80620005f86000396000f3fe608060405234801561001057600080fd5b506004361061018e5760003560e01c80638aea8f71116100de578063bdacb30311610097578063d5f5b10f11610071578063d5f5b10f14610398578063d89135cd146103bb578063dd62ed3e146103c4578063f851a440146103fd57600080fd5b8063bdacb3031461035f578063cf456ae714610372578063d33219b41461038557600080fd5b80638aea8f71146102e957806395d89b41146102f157806399b8605f146102f9578063a9059cbb1461030c578063aa271e1a1461031f578063b6635be61461034b57600080fd5b806340c10f191161014b5780635383a2c4116101255780635383a2c41461026e5780635afde0631461029a57806370a08231146102ad57806379cc6790146102d657600080fd5b806340c10f191461023357806342966c681461024857806347ce0e4f1461025b57600080fd5b806306fdde0314610193578063095ea7b3146101b157806318160ddd146101d457806323b872dd146101e6578063313ce567146101f95780633382743814610208575b600080fd5b61019b610410565b6040516101a89190610e5d565b60405180910390f35b6101c46101bf366004610ec8565b6104a2565b60405190151581526020016101a8565b6002545b6040519081526020016101a8565b6101c46101f4366004610ef2565b6104bc565b604051601281526020016101a8565b60065461021b906001600160a01b031681565b6040516001600160a01b0390911681526020016101a8565b610246610241366004610ec8565b6104e0565b005b610246610256366004610f2e565b610545565b610246610269366004610f47565b610552565b6101c461027c366004610f83565b6001600160a01b031660009081526007602052604090205460ff1690565b6102466102a8366004610f47565b610608565b6101d86102bb366004610f83565b6001600160a01b031660009081526020819052604090205490565b6102466102e4366004610ec8565b610689565b61024661069e565b61019b610742565b610246610307366004610f83565b610751565b6101c461031a366004610ec8565b6107f0565b6101c461032d366004610f83565b6001600160a01b031660009081526009602052604090205460ff1690565b600b546101c490600160a01b900460ff1681565b61024661036d366004610f83565b6107fe565b610246610380366004610f47565b61089d565b600b5461021b906001600160a01b031681565b6101c46103a6366004610f83565b60086020526000908152604090205460ff1681565b6101d860055481565b6101d86103d2366004610fa5565b6001600160a01b03918216600090815260016020908152604080832093909416825291909152205490565b600a5461021b906001600160a01b031681565b60606003805461041f90610fd8565b80601f016020809104026020016040519081016040528092919081815260200182805461044b90610fd8565b80156104985780601f1061046d57610100808354040283529160200191610498565b820191906000526020600020905b81548152906001019060200180831161047b57829003601f168201915b5050505050905090565b6000336104b0818585610989565b60019150505b92915050565b6000336104ca85828561099b565b6104d5858585610a1f565b506001949350505050565b3360009081526009602052604090205460ff1661051057604051639cdc2ed560e01b815260040160405180910390fd5b6001600160a01b0382166105375760405163d92e233d60e01b815260040160405180910390fd5b6105418282610a7e565b5050565b61054f3382610ab4565b50565b600a546001600160a01b0316331461057d57604051634755657960e01b815260040160405180910390fd5b600b54600160a01b900460ff16156105a85760405163238f75d360e01b815260040160405180910390fd5b6001600160a01b038216600081815260086020908152604091829020805460ff191685151590811790915591519182527f63b13414a783af74e319d8e85d3970126f5cd6c94a17e53a01689efc01bd2f6e91015b60405180910390a25050565b600a546001600160a01b0316331461063357604051634755657960e01b815260040160405180910390fd5b600b54600160a01b900460ff161561065e5760405163238f75d360e01b815260040160405180910390fd5b6001600160a01b03919091166000908152600760205260409020805460ff1916911515919091179055565b61069482338361099b565b6105418282610ab4565b600a546001600160a01b031633146106c957604051634755657960e01b815260040160405180910390fd5b600b54600160a01b900460ff16156106f45760405163238f75d360e01b815260040160405180910390fd5b600b805460ff60a01b1916600160a01b179055600a80546001600160a01b03191690556040517f8601fb6b43cf244c5828073ea9e16745bc09e755520a6a80cecae662b31db52890600090a1565b60606004805461041f90610fd8565b600a546001600160a01b0316331461077c57604051634755657960e01b815260040160405180910390fd5b600b54600160a01b900460ff16156107a75760405163238f75d360e01b815260040160405180910390fd5b6001600160a01b0381166107ce5760405163d92e233d60e01b815260040160405180910390fd5b600680546001600160a01b0319166001600160a01b0392909216919091179055565b6000336104b0818585610a1f565b600a546001600160a01b0316331461082957604051634755657960e01b815260040160405180910390fd5b600b54600160a01b900460ff16156108545760405163238f75d360e01b815260040160405180910390fd5b6001600160a01b03811661087b5760405163d92e233d60e01b815260040160405180910390fd5b600b80546001600160a01b0319166001600160a01b0392909216919091179055565b6001600160a01b0382166108c45760405163d92e233d60e01b815260040160405180910390fd5b600b54600160a01b900460ff161561090657600b546001600160a01b0316331461090157604051630e05f48560e11b815260040160405180910390fd5b610931565b600a546001600160a01b0316331461093157604051634755657960e01b815260040160405180910390fd5b6001600160a01b038216600081815260096020908152604091829020805460ff191685151590811790915591519182527f583b0aa0e528532caf4b907c11d7a8158a122fe2a6fb80cd9b09776ebea8d92d91016105fc565b6109968383836001610aea565b505050565b6001600160a01b03838116600090815260016020908152604080832093861683529290522054600019811015610a195781811015610a0a57604051637dc7a0d960e11b81526001600160a01b038416600482015260248101829052604481018390526064015b60405180910390fd5b610a1984848484036000610aea565b50505050565b6001600160a01b038316610a4957604051634b637e8f60e11b815260006004820152602401610a01565b6001600160a01b038216610a735760405163ec442f0560e01b815260006004820152602401610a01565b610996838383610bbf565b6001600160a01b038216610aa85760405163ec442f0560e01b815260006004820152602401610a01565b61054160008383610bbf565b6001600160a01b038216610ade57604051634b637e8f60e11b815260006004820152602401610a01565b61054182600083610bbf565b6001600160a01b038416610b145760405163e602df0560e01b815260006004820152602401610a01565b6001600160a01b038316610b3e57604051634a1406b160e11b815260006004820152602401610a01565b6001600160a01b0380851660009081526001602090815260408083209387168352929052208290558015610a1957826001600160a01b0316846001600160a01b03167f8c5be1e5ebec7d5bd14f71427d1e84f3dd0314c0f7b2291e5b200ac8c7c3b92584604051610bb191815260200190565b60405180910390a350505050565b6001600160a01b0383161580610bdc57506001600160a01b038216155b80610bff57506001600160a01b03831660009081526007602052604090205460ff165b80610c2357506001600160a01b03821660009081526008602052604090205460ff16155b80610c3757506006546001600160a01b0316155b15610c4757610996838383610d33565b6000612710610c586103e884611028565b610c62919061103f565b90506000612710610c7561232884611028565b610c7f919061103f565b90506000610c8d8284611061565b9050610ca38686610c9e8688611061565b610d33565b600654610cbb9087906001600160a01b031684610d33565b610cc88661dead83610d33565b8060056000828254610cda9190611074565b909155505060408051848152602081018490529081018290526001600160a01b038716907f03a28a3f260782b9c7457ce168826d3100aa6bf6e1124486977dde225498cc479060600160405180910390a2505050505050565b6001600160a01b038316610d5e578060026000828254610d539190611074565b90915550610dd09050565b6001600160a01b03831660009081526020819052604090205481811015610db15760405163391434e360e21b81526001600160a01b03851660048201526024810182905260448101839052606401610a01565b6001600160a01b03841660009081526020819052604090209082900390555b6001600160a01b038216610dec57600280548290039055610e0b565b6001600160a01b03821660009081526020819052604090208054820190555b816001600160a01b0316836001600160a01b03167fddf252ad1be2c89b69c2b068fc378daa952ba7f163c4a11628f55a4df523b3ef83604051610e5091815260200190565b60405180910390a3505050565b60006020808352835180602085015260005b81811015610e8b57858101830151858201604001528201610e6f565b506000604082860101526040601f19601f8301168501019250505092915050565b80356001600160a01b0381168114610ec357600080fd5b919050565b60008060408385031215610edb57600080fd5b610ee483610eac565b946020939093013593505050565b600080600060608486031215610f0757600080fd5b610f1084610eac565b9250610f1e60208501610eac565b9150604084013590509250925092565b600060208284031215610f4057600080fd5b5035919050565b60008060408385031215610f5a57600080fd5b610f6383610eac565b915060208301358015158114610f7857600080fd5b809150509250929050565b600060208284031215610f9557600080fd5b610f9e82610eac565b9392505050565b60008060408385031215610fb857600080fd5b610fc183610eac565b9150610fcf60208401610eac565b90509250929050565b600181811c90821680610fec57607f821691505b60208210810361100c57634e487b7160e01b600052602260045260246000fd5b50919050565b634e487b7160e01b600052601160045260246000fd5b80820281158282048414176104b6576104b6611012565b60008261105c57634e487b7160e01b600052601260045260246000fd5b500490565b818103818111156104b6576104b6611012565b808201808211156104b6576104b661101256fea264697066735822122000edbf5da6193083e11c61eeae27b3c2ea898e265c9c9bbcbb935aead6b7e11364736f6c63430008180033",
  "linkReferences": {},
  "deployedLinkReferences": {}
}