{
  "_format": "hh-sol-artifact-1",
  "contractName": "OSLOLiquidityManager",
  "sourceName": "contracts/OSLOLiquidityManager.sol",
  "abi": [
    {
      "inputs": [
        {
          "internalType": "address",
          "name": "_busd",
          "type": "address"
        },
        {
          "internalType": "address",
          "name": "_osloToken",
          "type": "address"
        }
      ],
      "stateMutability": "nonpayable",
      "type": "constructor"
    },
    {
      "inputs": [],
      "name": "CannotRescueProtocolTokens",
      "type": "error"
    },
    {
      "inputs": [],
      "name": "OnlyAdmin",
      "type": "error"
    },
    {
      "inputs": [],
      "name": "OnlyTimelock",
      "type": "error"
    },
    {
      "inputs": [],
      "name": "ReentrancyGuardReentrantCall",
      "type": "error"
    },
    {
      "inputs": [
        {
          "internalType": "address",
          "name": "token",
          "type": "address"
        }
      ],
      "name": "SafeERC20FailedOperation",
      "type": "error"
    },
    {
      "inputs": [],
      "name": "SetupAlreadyComplete",
      "type": "error"
    },
    {
      "inputs": [],
      "name": "ZeroAddress",
      "type": "error"
    },
    {
      "inputs": [],
      "name": "ZeroAmount",
      "type": "error"
    },
    {
      "anonymous": false,
      "inputs": [
        {
          "indexed": false,
          "internalType": "uint256",
          "name": "busdSpent",
          "type": "uint256"
        },
        {
          "indexed": false,
          "internalType": "uint256",
          "name": "osloBurned",
          "type": "uint256"
        }
      ],
      "name": "BuybackBurned",
      "type": "event"
    },
    {
      "anonymous": false,
      "inputs": [
        {
          "indexed": false,
          "internalType": "uint256",
          "name": "busdAmount",
          "type": "uint256"
        },
        {
          "indexed": false,
          "internalType": "uint256",
          "name": "osloAmount",
          "type": "uint256"
        },
        {
          "indexed": false,
          "internalType": "uint256",
          "name": "liquidity",
          "type": "uint256"
        }
      ],
      "name": "LiquidityAdded",
      "type": "event"
    },
    {
      "anonymous": false,
      "inputs": [
        {
          "indexed": true,
          "internalType": "address",
          "name": "token",
          "type": "address"
        },
        {
          "indexed": false,
          "internalType": "uint256",
          "name": "amount",
          "type": "uint256"
        }
      ],
      "name": "TokensRescued",
      "type": "event"
    },
    {
      "inputs": [
        {
          "internalType": "uint256",
          "name": "busdAmount",
          "type": "uint256"
        }
      ],
      "name": "addInitialLiquidity",
      "outputs": [],
      "stateMutability": "nonpayable",
      "type": "function"
    },
    {
      "inputs": [
        {
          "internalType": "uint256",
          "name": "busdAmount",
          "type": "uint256"
        }
      ],
      "name": "addLiquidityFromFees",
      "outputs": [],
      "stateMutability": "nonpayable",
      "type": "function"
    },
    {
      "inputs": [],
      "name": "admin",
      "outputs": [
        {
          "internalType": "address",
          "name": "",
          "type": "address"
        }
      ],
      "stateMutability": "view",
      "type": "function"
    },
    {
      "inputs": [],
      "name": "busd",
      "outputs": [
        {
          "internalType": "contract IERC20",
          "name": "",
          "type": "address"
        }
      ],
      "stateMutability": "view",
      "type": "function"
    },
    {
      "inputs": [
        {
          "internalType": "uint256",
          "name": "busdAmount",
          "type": "uint256"
        }
      ],
      "name": "buybackAndBurn",
      "outputs": [],
      "stateMutability": "nonpayable",
      "type": "function"
    },
    {
      "inputs": [],
      "name": "completeSetup",
      "outputs": [],
      "stateMutability": "nonpayable",
      "type": "function"
    },
    {
      "inputs": [
        {
          "internalType": "address",
          "name": "_timelock",
          "type": "address"
        },
        {
          "internalType": "address",
          "name": "_oslodex",
          "type": "address"
        }
      ],
      "name": "configure",
      "outputs": [],
      "stateMutability": "nonpayable",
      "type": "function"
    },
    {
      "inputs": [],
      "name": "getDEXReserves",
      "outputs": [
        {
          "internalType": "uint256",
          "name": "busdRes",
          "type": "uint256"
        },
        {
          "internalType": "uint256",
          "name": "osloRes",
          "type": "uint256"
        }
      ],
      "stateMutability": "view",
      "type": "function"
    },
    {
      "inputs": [],
      "name": "getOSLOPrice",
      "outputs": [
        {
          "internalType": "uint256",
          "name": "",
          "type": "uint256"
        }
      ],
      "stateMutability": "view",
      "type": "function"
    },
    {
      "inputs": [],
      "name": "osloToken",
      "outputs": [
        {
          "internalType": "contract IERC20",
          "name": "",
          "type": "address"
        }
      ],
      "stateMutability": "view",
      "type": "function"
    },
    {
      "inputs": [],
      "name": "oslodex",
      "outputs": [
        {
          "internalType": "address",
          "name": "",
          "type": "address"
        }
      ],
      "stateMutability": "view",
      "type": "function"
    },
    {
      "inputs": [
        {
          "internalType": "address",
          "name": "token",
          "type": "address"
        },
        {
          "internalType": "uint256",
          "name": "amount",
          "type": "uint256"
        }
      ],
      "name": "rescueERC20",
      "outputs": [],
      "stateMutability": "nonpayable",
      "type": "function"
    },
    {
      "inputs": [],
      "name": "setupComplete",
      "outputs": [
        {
          "internalType": "bool",
          "name": "",
          "type": "bool"
        }
      ],
      "stateMutability": "view",
      "type": "function"
    },
    {
      "inputs": [],
      "name": "timelock",
      "outputs": [
        {
          "internalType": "address",
          "name": "",
          "type": "address"
        }
      ],
      "stateMutability": "view",
      "type": "function"
    },
    {
      "inputs": [],
      "name": "totalBurnedViaSwap",
      "outputs": [
        {
          "internalType": "uint256",
          "name": "",
          "type": "uint256"
        }
      ],
      "stateMutability": "view",
      "type": "function"
    },
    {
      "inputs": [],
      "name": "totalLiquidityAdded",
      "outputs": [
        {
          "internalType": "uint256",
          "name": "",
          "type": "uint256"
        }
      ],
      "stateMutability": "view",
      "type": "function"
    }
  ],
  "bytecode": "0x60c060405234801561001057600080fd5b50604051610ffb380380610ffb83398101604081905261002f916100d3565b60017f9b779b17422d0df92223018b32b4d1fa46e071723d6817e2486d003becc55f00556001600160a01b038216158061007057506001600160a01b038116155b1561008e5760405163d92e233d60e01b815260040160405180910390fd5b6001600160a01b039182166080521660a052600180546001600160a01b03191633179055610106565b80516001600160a01b03811681146100ce57600080fd5b919050565b600080604083850312156100e657600080fd5b6100ef836100b7565b91506100fd602084016100b7565b90509250929050565b60805160a051610e8a6101716000396000818161014301528181610373015281816104870152818161050b01528181610604015281816106e501526108b401526000818161018201528181610332015281816106ab015281816108790152610a970152610e8a6000f3fe608060405234801561001057600080fd5b50600436106101005760003560e01c80638cd4426d11610097578063d77ab17211610066578063d77ab1721461022f578063e470d5cf14610242578063ee3b038f14610255578063f851a4401461026857600080fd5b80638cd4426d146101c8578063b3906098146101db578063b6635be6146101f8578063d33219b41461021c57600080fd5b80633ca5b234116100d35780633ca5b2341461017d57806341a22cc2146101a457806343b63b9d146101b75780638aea8f71146101c057600080fd5b806304f8c8b3146101055780630dcaa63e1461012057806324aef389146101355780632acfbca31461013e575b600080fd5b61010d61027b565b6040519081526020015b60405180910390f35b61013361012e366004610d23565b6102f8565b005b61010d60045481565b6101657f000000000000000000000000000000000000000000000000000000000000000081565b6040516001600160a01b039091168152602001610117565b6101657f000000000000000000000000000000000000000000000000000000000000000081565b6101336101b2366004610d23565b6105a0565b61010d60035481565b6101336107d1565b6101336101d6366004610d58565b61084c565b6101e3610967565b60408051928352602083019190915201610117565b60025461020c90600160a01b900460ff1681565b6040519015158152602001610117565b600254610165906001600160a01b031681565b600054610165906001600160a01b031681565b610133610250366004610d82565b6109d9565b610133610263366004610d23565b610a5d565b600154610165906001600160a01b031681565b60008060009054906101000a90046001600160a01b03166001600160a01b03166398d5fdca6040518163ffffffff1660e01b8152600401602060405180830381865afa1580156102cf573d6000803e3d6000fd5b505050506040513d601f19601f820116820180604052508101906102f39190610db5565b905090565b610300610b8f565b8060000361032157604051631f2a200560e01b815260040160405180910390fd5b60005461035b906001600160a01b037f00000000000000000000000000000000000000000000000000000000000000008116911683610bab565b6040516370a0823160e01b81523060048201526000907f00000000000000000000000000000000000000000000000000000000000000006001600160a01b0316906370a0823190602401602060405180830381865afa1580156103c2573d6000803e3d6000fd5b505050506040513d601f19601f820116820180604052508101906103e69190610db5565b60008054604051629439d960e41b81529293506001600160a01b0316916309439d909161042191869190600401918252602082015260400190565b6020604051808303816000875af1158015610440573d6000803e3d6000fd5b505050506040513d601f19601f820116820180604052508101906104649190610db5565b506040516370a0823160e01b815230600482015260009082906001600160a01b037f000000000000000000000000000000000000000000000000000000000000000016906370a0823190602401602060405180830381865afa1580156104ce573d6000803e3d6000fd5b505050506040513d601f19601f820116820180604052508101906104f29190610db5565b6104fc9190610de4565b90506105346001600160a01b037f00000000000000000000000000000000000000000000000000000000000000001661dead83610c31565b80600460008282546105469190610dfd565b909155505060408051848152602081018390527fc65a4c73cfd820dccb7079db9e52bb2c09dfd56f9221e7d815e201b726b5c39d910160405180910390a1505061059d6001600080516020610e3583398151915255565b50565b6001546001600160a01b031633146105cb57604051634755657960e01b815260040160405180910390fd5b806000036105ec57604051631f2a200560e01b815260040160405180910390fd5b6040516370a0823160e01b81523060048201526000907f00000000000000000000000000000000000000000000000000000000000000006001600160a01b0316906370a0823190602401602060405180830381865afa158015610653573d6000803e3d6000fd5b505050506040513d601f19601f820116820180604052508101906106779190610db5565b90508060000361069a57604051631f2a200560e01b815260040160405180910390fd5b6000546106d4906001600160a01b037f00000000000000000000000000000000000000000000000000000000000000008116911684610bab565b60005461070e906001600160a01b037f00000000000000000000000000000000000000000000000000000000000000008116911683610bab565b60005460405163a40f4fa160e01b815260048101849052602481018390526001600160a01b039091169063a40f4fa190604401600060405180830381600087803b15801561075b57600080fd5b505af115801561076f573d6000803e3d6000fd5b5050505081600360008282546107859190610dfd565b9091555050600354604080518481526020810184905280820192909252517fd7f28048575eead8851d024ead087913957dfb4fd1a02b4d1573f5352a5a2be39181900360600190a15050565b6001546001600160a01b031633146107fc57604051634755657960e01b815260040160405180910390fd5b600254600160a01b900460ff16156108275760405163238f75d360e01b815260040160405180910390fd5b6002805460ff60a01b1916600160a01b179055600180546001600160a01b0319169055565b6002546001600160a01b0316331461087757604051630e05f48560e11b815260040160405180910390fd5b7f00000000000000000000000000000000000000000000000000000000000000006001600160a01b0316826001600160a01b031614806108e857507f00000000000000000000000000000000000000000000000000000000000000006001600160a01b0316826001600160a01b0316145b15610906576040516311c9c0e360e01b815260040160405180910390fd5b600254610920906001600160a01b03848116911683610c31565b816001600160a01b03167f68f67de89e96b13a3ea058af5fd44cc125efceb528482d539c7b43db2faa066e8260405161095b91815260200190565b60405180910390a25050565b6000805460408051630240bc6b60e21b8152815184936001600160a01b031692630902f1ac92600480820193918290030181865afa1580156109ad573d6000803e3d6000fd5b505050506040513d601f19601f820116820180604052508101906109d19190610e10565b915091509091565b6001546001600160a01b03163314610a0457604051634755657960e01b815260040160405180910390fd5b600254600160a01b900460ff1615610a2f5760405163238f75d360e01b815260040160405180910390fd5b600280546001600160a01b039384166001600160a01b03199182161790915560008054929093169116179055565b610a65610b8f565b80600003610a8657604051631f2a200560e01b815260040160405180910390fd5b600054610ac0906001600160a01b037f00000000000000000000000000000000000000000000000000000000000000008116911683610bab565b60005460405163ee3b038f60e01b8152600481018390526001600160a01b039091169063ee3b038f90602401600060405180830381600087803b158015610b0657600080fd5b505af1158015610b1a573d6000803e3d6000fd5b505050508060036000828254610b309190610dfd565b9091555050600354604080518381526000602082015280820192909252517fd7f28048575eead8851d024ead087913957dfb4fd1a02b4d1573f5352a5a2be39181900360600190a161059d6001600080516020610e3583398151915255565b610b97610c3e565b6002600080516020610e3583398151915255565b610bb88383836000610c70565b610c2c57610bca838360006001610c70565b610bf757604051635274afe760e01b81526001600160a01b03841660048201526024015b60405180910390fd5b610c048383836001610c70565b610c2c57604051635274afe760e01b81526001600160a01b0384166004820152602401610bee565b505050565b610c048383836001610cd6565b600080516020610e3583398151915254600203610c6e57604051633ee5aeb560e01b815260040160405180910390fd5b565b60405163095ea7b360e01b60008181526001600160a01b038616600452602485905291602083604481808b5af192506001600051148316610cca578383151615610cbd573d6000823e3d81fd5b6000873b113d1516831692505b60405250949350505050565b60405163a9059cbb60e01b60008181526001600160a01b038616600452602485905291602083604481808b5af192506001600051148316610cca578383151615610cbd573d6000823e3d81fd5b600060208284031215610d3557600080fd5b5035919050565b80356001600160a01b0381168114610d5357600080fd5b919050565b60008060408385031215610d6b57600080fd5b610d7483610d3c565b946020939093013593505050565b60008060408385031215610d9557600080fd5b610d9e83610d3c565b9150610dac60208401610d3c565b90509250929050565b600060208284031215610dc757600080fd5b5051919050565b634e487b7160e01b600052601160045260246000fd5b81810381811115610df757610df7610dce565b92915050565b80820180821115610df757610df7610dce565b60008060408385031215610e2357600080fd5b50508051602090910151909290915056fe9b779b17422d0df92223018b32b4d1fa46e071723d6817e2486d003becc55f00a26469706673582212204188f24eef334c5852cb3eb94f60ace71d67a6c6473e7948ee61063d5ca8175b64736f6c63430008180033",
  "linkReferences": {},
  "deployedLinkReferences": {}
}