{"contracts/OSLOVault.sol":{"OSLOVault":{"abi":[{"inputs":[{"internalType":"address","name":"_usdt","type":"address"},{"internalType":"address","name":"_osloToken","type":"address"},{"internalType":"uint256","name":"_launchTimestamp","type":"uint256"}],"stateMutability":"nonpayable","type":"constructor"},{"inputs":[],"name":"BelowWithdrawalThreshold","type":"error"},{"inputs":[],"name":"DEXNotPriced","type":"error"},{"inputs":[],"name":"DepositTooHigh","type":"error"},{"inputs":[],"name":"DepositTooLow","type":"error"},{"inputs":[],"name":"DepositsPausedError","type":"error"},{"inputs":[],"name":"InsufficientOsloReserve","type":"error"},{"inputs":[],"name":"InvalidExitPercentage","type":"error"},{"inputs":[],"name":"NoBalance","type":"error"},{"inputs":[],"name":"NotConfigured","type":"error"},{"inputs":[],"name":"NotInEarlyExitPeriod","type":"error"},{"inputs":[],"name":"NothingToClaim","type":"error"},{"inputs":[],"name":"OnlyAdmin","type":"error"},{"inputs":[],"name":"OnlyRankSystem","type":"error"},{"inputs":[],"name":"OnlyReferral","type":"error"},{"inputs":[],"name":"OnlyTimelock","type":"error"},{"inputs":[],"name":"PoolInactive","type":"error"},{"inputs":[],"name":"ReentrancyGuardReentrantCall","type":"error"},{"inputs":[{"internalType":"address","name":"token","type":"address"}],"name":"SafeERC20FailedOperation","type":"error"},{"inputs":[],"name":"SetupAlreadyComplete","type":"error"},{"inputs":[],"name":"ZeroAddress","type":"error"},{"anonymous":false,"inputs":[{"indexed":true,"internalType":"address","name":"user","type":"address"}],"name":"CombinedCapReached","type":"event"},{"anonymous":false,"inputs":[{"indexed":true,"internalType":"address","name":"user","type":"address"},{"indexed":false,"internalType":"uint256","name":"totalCombined","type":"uint256"}],"name":"CombinedEarningsUpdated","type":"event"},{"anonymous":false,"inputs":[{"indexed":true,"internalType":"address","name":"user","type":"address"},{"indexed":false,"internalType":"uint256","name":"amount","type":"uint256"},{"indexed":false,"internalType":"uint256","name":"newTotal","type":"uint256"},{"indexed":false,"internalType":"uint256","name":"tier","type":"uint256"}],"name":"Deposited","type":"event"},{"anonymous":false,"inputs":[{"indexed":false,"internalType":"bool","name":"paused","type":"bool"}],"name":"DepositsPaused","type":"event"},{"anonymous":false,"inputs":[{"indexed":true,"internalType":"address","name":"user","type":"address"},{"indexed":false,"internalType":"uint256","name":"amountReturned","type":"uint256"},{"indexed":false,"internalType":"uint256","name":"feeDeducted","type":"uint256"},{"indexed":false,"internalType":"uint256","name":"yieldDeducted","type":"uint256"}],"name":"EarlyExited","type":"event"},{"anonymous":false,"inputs":[{"indexed":true,"internalType":"address","name":"user","type":"address"},{"indexed":false,"internalType":"uint256","name":"usdtReward","type":"uint256"},{"indexed":false,"internalType":"uint256","name":"osloAmount","type":"uint256"}],"name":"RewardsClaimed","type":"event"},{"inputs":[],"name":"admin","outputs":[{"internalType":"address","name":"","type":"address"}],"stateMutability":"view","type":"function"},{"inputs":[],"name":"claimRewards","outputs":[],"stateMutability":"nonpayable","type":"function"},{"inputs":[],"name":"companyWallet","outputs":[{"internalType":"address","name":"","type":"address"}],"stateMutability":"view","type":"function"},{"inputs":[],"name":"completeSetup","outputs":[],"stateMutability":"nonpayable","type":"function"},{"inputs":[{"internalType":"address","name":"_osloDex","type":"address"},{"internalType":"address","name":"_referral","type":"address"},{"internalType":"address","name":"_rankSystem","type":"address"},{"internalType":"address","name":"_timelock","type":"address"}],"name":"configure","outputs":[],"stateMutability":"nonpayable","type":"function"},{"inputs":[{"internalType":"uint256","name":"amount","type":"uint256"}],"name":"deposit","outputs":[],"stateMutability":"nonpayable","type":"function"},{"inputs":[],"name":"depositsPaused","outputs":[{"internalType":"bool","name":"","type":"bool"}],"stateMutability":"view","type":"function"},{"inputs":[],"name":"earlyExit","outputs":[],"stateMutability":"nonpayable","type":"function"},{"inputs":[{"internalType":"address","name":"user","type":"address"}],"name":"getActiveDeposit","outputs":[{"internalType":"uint256","name":"","type":"uint256"}],"stateMutability":"view","type":"function"},{"inputs":[{"internalType":"address","name":"user","type":"address"}],"name":"getCombinedEarnings","outputs":[{"internalType":"uint256","name":"","type":"uint256"}],"stateMutability":"view","type":"function"},{"inputs":[{"internalType":"address","name":"user","type":"address"}],"name":"getPendingRewards","outputs":[{"internalType":"uint256","name":"pendingUSDT","type":"uint256"}],"stateMutability":"view","type":"function"},{"inputs":[{"internalType":"address","name":"user","type":"address"}],"name":"getUserPool","outputs":[{"internalType":"uint256","name":"totalBalance","type":"uint256"},{"internalType":"uint256","name":"lastClaimTime","type":"uint256"},{"internalType":"uint256","name":"accruedRewards","type":"uint256"},{"internalType":"uint256","name":"totalClaimed","type":"uint256"},{"internalType":"uint256","name":"maxReturn","type":"uint256"},{"internalType":"uint256","name":"totalCombinedEarnings","type":"uint256"},{"internalType":"uint256","name":"lastDepositTime","type":"uint256"},{"internalType":"bool","name":"active","type":"bool"}],"stateMutability":"view","type":"function"},{"inputs":[{"internalType":"address","name":"user","type":"address"}],"name":"getUserTier","outputs":[{"internalType":"uint256","name":"","type":"uint256"}],"stateMutability":"view","type":"function"},{"inputs":[{"internalType":"address","name":"user","type":"address"}],"name":"isInEarlyExitPeriod","outputs":[{"internalType":"bool","name":"","type":"bool"}],"stateMutability":"view","type":"function"},{"inputs":[],"name":"launchTimestamp","outputs":[{"internalType":"uint256","name":"","type":"uint256"}],"stateMutability":"view","type":"function"},{"inputs":[{"internalType":"address[]","name":"_users","type":"address[]"},{"internalType":"uint256[]","name":"_amounts","type":"uint256[]"}],"name":"migrateCombinedEarnings","outputs":[],"stateMutability":"nonpayable","type":"function"},{"inputs":[{"components":[{"internalType":"address","name":"owner","type":"address"},{"internalType":"uint256","name":"totalBalance","type":"uint256"},{"internalType":"uint256","name":"lastClaimTime","type":"uint256"},{"internalType":"uint256","name":"totalClaimed","type":"uint256"},{"internalType":"uint256","name":"totalCombinedEarnings","type":"uint256"},{"internalType":"uint256","name":"lastDepositTime","type":"uint256"}],"internalType":"struct OSLOVault.PoolMigration[]","name":"entries","type":"tuple[]"}],"name":"migrateConsolidated","outputs":[],"stateMutability":"nonpayable","type":"function"},{"inputs":[],"name":"minClaimThreshold","outputs":[{"internalType":"uint256","name":"","type":"uint256"}],"stateMutability":"view","type":"function"},{"inputs":[{"internalType":"address","name":"user","type":"address"},{"internalType":"uint256","name":"amount","type":"uint256"}],"name":"notifyLevelIncome","outputs":[],"stateMutability":"nonpayable","type":"function"},{"inputs":[{"internalType":"address","name":"user","type":"address"},{"internalType":"uint256","name":"amount","type":"uint256"}],"name":"notifyRankBonus","outputs":[],"stateMutability":"nonpayable","type":"function"},{"inputs":[],"name":"osloDex","outputs":[{"internalType":"address","name":"","type":"address"}],"stateMutability":"view","type":"function"},{"inputs":[],"name":"osloToken","outputs":[{"internalType":"contract IERC20","name":"","type":"address"}],"stateMutability":"view","type":"function"},{"inputs":[{"internalType":"uint256","name":"percentageBp","type":"uint256"}],"name":"partialEarlyExit","outputs":[],"stateMutability":"nonpayable","type":"function"},{"inputs":[],"name":"performanceWallet","outputs":[{"internalType":"address","name":"","type":"address"}],"stateMutability":"view","type":"function"},{"inputs":[],"name":"rankSystem","outputs":[{"internalType":"address","name":"","type":"address"}],"stateMutability":"view","type":"function"},{"inputs":[],"name":"referral","outputs":[{"internalType":"address","name":"","type":"address"}],"stateMutability":"view","type":"function"},{"inputs":[],"name":"rewardWallet","outputs":[{"internalType":"address","name":"","type":"address"}],"stateMutability":"view","type":"function"},{"inputs":[{"internalType":"bool","name":"_paused","type":"bool"}],"name":"setDepositsPaused","outputs":[],"stateMutability":"nonpayable","type":"function"},{"inputs":[{"internalType":"uint256","name":"_threshold","type":"uint256"}],"name":"setMinClaimThreshold","outputs":[],"stateMutability":"nonpayable","type":"function"},{"inputs":[{"internalType":"address","name":"_referral","type":"address"}],"name":"setReferral","outputs":[],"stateMutability":"nonpayable","type":"function"},{"inputs":[{"internalType":"address","name":"_rewardWallet","type":"address"},{"internalType":"address","name":"_companyWallet","type":"address"},{"internalType":"address","name":"_performanceWallet","type":"address"}],"name":"setRewardWallets","outputs":[],"stateMutability":"nonpayable","type":"function"},{"inputs":[],"name":"setupComplete","outputs":[{"internalType":"bool","name":"","type":"bool"}],"stateMutability":"view","type":"function"},{"inputs":[],"name":"timelock","outputs":[{"internalType":"address","name":"","type":"address"}],"stateMutability":"view","type":"function"},{"inputs":[],"name":"totalDeposited","outputs":[{"internalType":"uint256","name":"","type":"uint256"}],"stateMutability":"view","type":"function"},{"inputs":[],"name":"totalRewardsPaid","outputs":[{"internalType":"uint256","name":"","type":"uint256"}],"stateMutability":"view","type":"function"},{"inputs":[],"name":"totalWithdrawn","outputs":[{"internalType":"uint256","name":"","type":"uint256"}],"stateMutability":"view","type":"function"},{"inputs":[],"name":"usdt","outputs":[{"internalType":"contract IERC20","name":"","type":"address"}],"stateMutability":"view","type":"function"},{"inputs":[{"internalType":"address","name":"","type":"address"}],"name":"userPools","outputs":[{"internalType":"uint256","name":"totalBalance","type":"uint256"},{"internalType":"uint256","name":"lastClaimTime","type":"uint256"},{"internalType":"uint256","name":"accruedRewards","type":"uint256"},{"internalType":"uint256","name":"totalClaimed","type":"uint256"},{"internalType":"uint256","name":"maxReturn","type":"uint256"},{"internalType":"uint256","name":"totalCombinedEarnings","type":"uint256"},{"internalType":"uint256","name":"lastDepositTime","type":"uint256"},{"internalType":"bool","name":"active","type":"bool"}],"stateMutability":"view","type":"function"}],"evm":{"bytecode":{"linkReferences":{},"object":"60e0604052670de0b6b3a76400006005553480156200001d57600080fd5b5060405162002d3f38038062002d3f8339810160408190526200004091620000ec565b60017f9b779b17422d0df92223018b32b4d1fa46e071723d6817e2486d003becc55f00556001600160a01b03831615806200008257506001600160a01b038216155b15620000a15760405163d92e233d60e01b815260040160405180910390fd5b6001600160a01b03928316608052911660a05260c052600380546001600160a01b031916331790556200012d565b80516001600160a01b0381168114620000e757600080fd5b919050565b6000806000606084860312156200010257600080fd5b6200010d84620000cf565b92506200011d60208501620000cf565b9150604084015190509250925092565b60805160a05160c051612b79620001c6600039600081816104d401526119d201526000818161038f01528181610aab01528181610beb01528181610cf201528181610d7e01528181611f5f01528181611ff2015281816121fa015281816122be01526123430152600081816103b601528181611385015281816114540152818161148e015281816114c801526115310152612b796000f3fe608060405234801561001057600080fd5b50600436106102325760003560e01c80636b9f7ab611610130578063b6635be6116100b8578063e9a16bd51161007c578063e9a16bd5146105e1578063f6ed2017146105f4578063f851a44014610607578063fb75b2c71461061a578063ff50abdc1461062d57600080fd5b8063b6635be614610581578063b6b55f2514610595578063d33219b4146105a8578063e3bd35e3146105bb578063e4d2620e146105ce57600080fd5b80639e5914da116100ff5780639e5914da1461052d578063a470803d14610540578063a4dee15514610553578063ac948e831461055b578063b12cd6251461056e57600080fd5b80636b9f7ab6146104f657806374958e35146105095780638565c2bf146105125780638aea8f711461052557600080fd5b806333049e0e116101be5780634b319713116101825780634b3197131461047c57806351637ba9146104855780635acb50821461049857806360da3e83146104ab57806365cf7c9b146104cf57600080fd5b806333049e0e146103d85780633695dad11461042c578063372500ab1461043557806337914a071461043d5780633a6f2dcd1461045057600080fd5b80631d687f0c116102055780631d687f0c146103515780631ec32d15146103645780632955440e146103775780632acfbca31461038a5780632f48ab7d146103b157600080fd5b8063107a480214610237578063142a3da3146102da5780631441a5a9146103115780631c481e2d1461033c575b600080fd5b6102986102453660046127c3565b6001600160a01b031660009081526009602052604090208054600182015460028301546003840154600485015460058601546006870154600790970154959794969395929491939092909160ff90911690565b604080519889526020890197909752958701949094526060860192909252608085015260a084015260c0830152151560e0820152610100015b60405180910390f35b6103036102e83660046127c3565b6001600160a01b031660009081526009602052604090205490565b6040519081526020016102d1565b600154610324906001600160a01b031681565b6040516001600160a01b0390911681526020016102d1565b61034f61034a3660046127e7565b610636565b005b61034f61035f366004612809565b6106b9565b600754610324906001600160a01b031681565b61034f610385366004612854565b6107b2565b6103247f000000000000000000000000000000000000000000000000000000000000000081565b6103247f000000000000000000000000000000000000000000000000000000000000000081565b6102986103e63660046127c3565b6009602052600090815260409020805460018201546002830154600384015460048501546005860154600687015460079097015495969495939492939192909160ff1688565b61030360055481565b61034f6108bf565b61034f61044b366004612915565b610e3e565b61030361045e3660046127c3565b6001600160a01b031660009081526009602052604090206005015490565b610303600b5481565b61034f610493366004612981565b610f2a565b61034f6104a636600461299a565b610f5a565b6004546104bf90600160a81b900460ff1681565b60405190151581526020016102d1565b6103037f000000000000000000000000000000000000000000000000000000000000000081565b61034f6105043660046129f6565b611027565b610303600c5481565b600054610324906001600160a01b031681565b61034f6110d6565b61034f61053b3660046127c3565b61117a565b61034f61054e366004612981565b6111c7565b61034f6111f3565b61034f6105693660046129f6565b61121e565b600854610324906001600160a01b031681565b6004546104bf90600160a01b900460ff1681565b61034f6105a3366004612981565b611249565b600454610324906001600160a01b031681565b6104bf6105c93660046127c3565b611829565b6103036105dc3660046127c3565b61187f565b600254610324906001600160a01b031681565b6103036106023660046127c3565b6118ce565b600354610324906001600160a01b031681565b600654610324906001600160a01b031681565b610303600a5481565b6004546001600160a01b0316331461066157604051630e05f48560e11b815260040160405180910390fd5b60048054821515600160a81b0260ff60a81b199091161790556040517f5ef34f53269a04b5b817e5be24a51ba6b477118b399ec9dd5b2baf5b299563dc906106ae90831515815260200190565b60405180910390a150565b600454600160a01b900460ff16156106fb576004546001600160a01b031633146106f657604051630e05f48560e11b815260040160405180910390fd5b610726565b6003546001600160a01b0316331461072657604051634755657960e01b815260040160405180910390fd5b6001600160a01b038316158061074357506001600160a01b038216155b8061075557506001600160a01b038116155b156107735760405163d92e233d60e01b815260040160405180910390fd5b600680546001600160a01b039485166001600160a01b031991821617909155600780549385169382169390931790925560088054919093169116179055565b6003546001600160a01b031633146107dd57604051634755657960e01b815260040160405180910390fd5b60005b818110156108ba57368383838181106107fb576107fb612a22565b60c0029190910191506000905060098161081860208501856127c3565b6001600160a01b031681526020808201929092526040908101600090812092850135808455918501356001840155600283015560608401356003808401919091559192506108669190612a4e565b60048201556080820135600582015560a0820135600682015560078101805460ff19166001179055600a8054602084013591906000906108a7908490612a65565b9091555050600190920191506107e09050565b505050565b6108c7611962565b33600090815260096020526040812080549091036108f857604051636165515360e11b815260040160405180910390fd5b600781015460ff1661091d57604051630f509b1160e01b815260040160405180910390fd5b60006109288261197e565b82600201546109379190612a65565b90508060000361095a576040516312d37ee560e31b815260040160405180910390fd5b60055481101561097d57604051637e3f2b7d60e01b815260040160405180910390fd5b600082600301548360040154116109955760006109a9565b826003015483600401546109a99190612a78565b9050808211156109b7578091505b60008060009054906101000a90046001600160a01b03166001600160a01b03166398d5fdca6040518163ffffffff1660e01b8152600401602060405180830381865afa158015610a0b573d6000803e3d6000fd5b505050506040513d601f19601f82011682018060405250810190610a2f9190612a8b565b905080600003610a525760405163cc88465760e01b815260040160405180910390fd5b600081610a6785670de0b6b3a7640000612a4e565b610a719190612aba565b905080600003610a945760405163cc88465760e01b815260040160405180910390fd5b6040516370a0823160e01b815230600482015281907f00000000000000000000000000000000000000000000000000000000000000006001600160a01b0316906370a0823190602401602060405180830381865afa158015610afa573d6000803e3d6000fd5b505050506040513d601f19601f82011682018060405250810190610b1e9190612a8b565b1015610b3d5760405163075e464560e01b815260040160405180910390fd5b83856003016000828254610b519190612a65565b9091555050426001860155600060028601819055600586018054869290610b79908490612a65565b9250508190555083600c6000828254610b929190612a65565b90915550506004850154600386015410610bde5760078501805460ff1916905560405133907ffa1eb7ba4f65747c7c8882031eb92d63b6fcb684b75052185312fbe1a488d94390600090a25b610c126001600160a01b037f0000000000000000000000000000000000000000000000000000000000000000163383611ba2565b6001546001600160a01b031615801590610c2c5750600084115b15610dab57600154604051638000d99160e01b8152336004820152602481018690526000916001600160a01b031690638000d991906044016020604051808303816000875af1158015610c83573d6000803e3d6000fd5b505050506040513d601f19601f82011682018060405250810190610ca79190612a8b565b90508015610da957600083610cc483670de0b6b3a7640000612a4e565b610cce9190612aba565b9050600081118015610d6857506040516370a0823160e01b815230600482015281907f00000000000000000000000000000000000000000000000000000000000000006001600160a01b0316906370a0823190602401602060405180830381865afa158015610d41573d6000803e3d6000fd5b505050506040513d601f19601f82011682018060405250810190610d659190612a8b565b10155b15610da757600154610da7906001600160a01b037f00000000000000000000000000000000000000000000000000000000000000008116911683611ba2565b505b505b604080518581526020810183905233917fdacbdde355ba930696a362ea6738feb9f8bd52dfb3d81947558fd3217e23e325910160405180910390a2600585015460405190815233907fdad0e43afdd45daca2566e861ff76f0250960d86947518722c83b1e03f45edd59060200160405180910390a25050505050610e3c6001600080516020612b2483398151915255565b565b6003546001600160a01b03163314610e6957604051634755657960e01b815260040160405180910390fd5b828114610eaf5760405162461bcd60e51b815260206004820152600f60248201526e098cadccee8d040dad2e6dac2e8c6d608b1b60448201526064015b60405180910390fd5b60005b83811015610f2357828282818110610ecc57610ecc612a22565b9050602002013560096000878785818110610ee957610ee9612a22565b9050602002016020810190610efe91906127c3565b6001600160a01b03168152602081019190915260400160002060050155600101610eb2565b5050505050565b6004546001600160a01b03163314610f5557604051630e05f48560e11b815260040160405180910390fd5b600555565b6003546001600160a01b03163314610f8557604051634755657960e01b815260040160405180910390fd5b600454600160a01b900460ff1615610fb05760405163238f75d360e01b815260040160405180910390fd5b6001600160a01b038416610fd75760405163d92e233d60e01b815260040160405180910390fd5b600080546001600160a01b039586166001600160a01b0319918216179091556001805494861694821694909417909355600280549285169284169290921790915560048054919093169116179055565b6001546001600160a01b0316331461105257604051633864b1e560e21b815260040160405180910390fd5b6001600160a01b0382166000908152600960205260408120600501805483929061107d908490612a65565b90915550506001600160a01b0382166000818152600960209081526040918290206005015491519182527fdad0e43afdd45daca2566e861ff76f0250960d86947518722c83b1e03f45edd5910160405180910390a25050565b6003546001600160a01b0316331461110157604051634755657960e01b815260040160405180910390fd5b600454600160a01b900460ff161561112c5760405163238f75d360e01b815260040160405180910390fd5b6000546001600160a01b03166111555760405163d311bc3960e01b815260040160405180910390fd5b6004805460ff60a01b1916600160a01b179055600380546001600160a01b0319169055565b6004546001600160a01b031633146111a557604051630e05f48560e11b815260040160405180910390fd5b600180546001600160a01b0319166001600160a01b0392909216919091179055565b6111cf611962565b6111d93382611bd7565b6111f06001600080516020612b2483398151915255565b50565b6111fb611962565b61120733612710611bd7565b610e3c6001600080516020612b2483398151915255565b6002546001600160a01b0316331461105257604051633327311360e11b815260040160405180910390fd5b611251611962565b600454600160a81b900460ff161561127b57604051627cfe7f60e31b815260040160405180910390fd5b8060000361129c57604051632b7786bd60e21b815260040160405180910390fd5b69010f0cf064dd592000008111156112c75760405163c066e1e960e01b815260040160405180910390fd5b6000546001600160a01b03166112f05760405163d311bc3960e01b815260040160405180910390fd5b336000908152600960205260409020805469010f0cf064dd5920000090611318908490612a65565b11156113375760405163c066e1e960e01b815260040160405180910390fd5b80541580159061134b5750600781015460ff165b1561137857600061135b8261197e565b9050808260020160008282546113719190612a65565b9091555050505b6113ad6001600160a01b037f0000000000000000000000000000000000000000000000000000000000000000163330856120ef565b60065482906001600160a01b0316158015906113d357506007546001600160a01b031615155b80156113e957506008546001600160a01b031615155b156115175760006127106113fe606486612a4e565b6114089190612aba565b9050600061271061141a603287612a4e565b6114249190612aba565b90506000612710611436603288612a4e565b6114409190612aba565b60065490915061147d906001600160a01b037f00000000000000000000000000000000000000000000000000000000000000008116911685611ba2565b6007546114b7906001600160a01b037f00000000000000000000000000000000000000000000000000000000000000008116911684611ba2565b6008546114f1906001600160a01b037f00000000000000000000000000000000000000000000000000000000000000008116911683611ba2565b80826114fd8589612a78565b6115079190612a78565b6115119190612a78565b93505050505b6115208161212b565b60005461155a906001600160a01b037f000000000000000000000000000000000000000000000000000000000000000081169116836123d6565b600054604051631c79d1e560e21b8152600481018390526001600160a01b03909116906371e74794906024016020604051808303816000875af11580156115a5573d6000803e3d6000fd5b505050506040513d601f19601f820116820180604052508101906115c99190612a8b565b508154801590849084906000906115e1908490612a65565b909155505082546115f490600390612a4e565b6004840155426001840155801561160c574260068401555b60078301805460ff19166001179055600a8054859190600090611630908490612a65565b909155505082546000906116439061242a565b6001549091506001600160a01b0316156117965760015460405163095ce44b60e21b81523360048201526001600160a01b0390911690632573912c90602401600060405180830381600087803b15801561169c57600080fd5b505af11580156116b0573d6000803e3d6000fd5b5050600154604051634a9fefc760e01b8152336004820152600093506001600160a01b039091169150634a9fefc790602401602060405180830381865afa1580156116ff573d6000803e3d6000fd5b505050506040513d601f19601f820116820180604052508101906117239190612ace565b90506001600160a01b038116156117945760015460405163095ce44b60e21b81526001600160a01b03838116600483015290911690632573912c90602401600060405180830381600087803b15801561177b57600080fd5b505af115801561178f573d6000803e3d6000fd5b505050505b505b6002546001600160a01b0316158015906117ba57506001546001600160a01b031615155b156117c9576117c9338661244c565b8354604080518781526020810192909252810182905233907f91ede45f04a37a7c170f5c1207df3b6bc748dc1e04ad5e917a241d0f52feada39060600160405180910390a2505050506111f06001600080516020612b2483398151915255565b6001600160a01b0381166000908152600960205260408120805415806118545750600781015460ff16155b156118625750600092915050565b620d2f0081600601546118759190612a65565b4211159392505050565b6001600160a01b03811660009081526009602052604081205481036118a657506000919050565b6001600160a01b0382166000908152600960205260409020546118c89061242a565b92915050565b6001600160a01b0381166000908152600960205260408120805415806118f95750600781015460ff16155b156119075750600092915050565b6119108161197e565b816002015461191f9190612a65565b91506000816003015482600401541161193957600061194d565b8160030154826004015461194d9190612a78565b90508083111561195b578092505b5050919050565b61196a612585565b6002600080516020612b2483398151915255565b600781015460009060ff16158061199457508154155b156119a157506000919050565b6001820154428181116119b8575060009392505050565b60006119c48383612a78565b85549091506276a7006119f77f000000000000000000000000000000000000000000000000000000000000000085612a78565b10611a3257611a0b61271062015180612a4e565b82611a17602d84612a4e565b611a219190612a4e565b611a2b9190612aba565b9450611b99565b68878678326eac900000811015600081611a4e5761023f611a52565b6103025b90506000611a6362093a8086612aba565b905061271081611a738487612a4e565b611a7d9190612a4e565b611a879190612aba565b97506000611a988262093a80612a4e565b611aa29089612a65565b905060005b87821015611b645760006007611ac06201518085612aba565b611acb906003612a65565b611ad59190612aeb565b9050600086611aec57611ae7826125b5565b611af5565b611af58261261f565b90506000611b066201518086612aba565b611b11906001612a65565b611b1e9062015180612a4e565b90506000818c10611b2f5781611b31565b8b5b90506000611b3f8783612a78565b9050611b4b8185612a4e565b611b559087612a65565b95508296505050505050611aa7565b611b7361271062015180612a4e565b611b7d8288612a4e565b611b879190612aba565b611b91908b612a65565b995050505050505b50505050919050565b611baf8383836001612689565b6108ba57604051635274afe760e01b81526001600160a01b0384166004820152602401610ea6565b8061271014158015611beb57508061138814155b8015611bf95750806109c414155b15611c1757604051635c1d07cb60e01b815260040160405180910390fd5b6001600160a01b03821660009081526009602052604081208054909103611c5157604051636165515360e11b815260040160405180910390fd5b600781015460ff16611c7657604051630f509b1160e01b815260040160405180910390fd5b620d2f008160060154611c899190612a65565b421115611ca95760405163693ed15b60e11b815260040160405180910390fd5b6000612710838360000154611cbe9190612a4e565b611cc89190612aba565b90506000612710611cdb6103e884612a4e565b611ce59190612aba565b90506000612710858560030154611cfc9190612a4e565b611d069190612aba565b90506000611d148284612a65565b90506000818511611d26576000611d30565b611d308286612a78565b90508661271003611d5d5760078601805460ff191690556000808755600287018190556004870155611e0f565b6000611d688761197e565b905080876002016000828254611d7e9190612a65565b9091555050865486908890600090611d97908490612a78565b9250508190555083876003016000828254611db29190612a78565b90915550508654611dc590600390612a4e565b6004880155426001880155600287015460009061271090611de7908b90612a4e565b611df19190612aba565b905080886002016000828254611e079190612a78565b909155505050505b84600b6000828254611e219190612a65565b90915550506001546001600160a01b031615611e975760015460405163095ce44b60e21b81526001600160a01b038a8116600483015290911690632573912c90602401600060405180830381600087803b158015611e7e57600080fd5b505af1158015611e92573d6000803e3d6000fd5b505050505b80156120995760008060009054906101000a90046001600160a01b03166001600160a01b03166398d5fdca6040518163ffffffff1660e01b8152600401602060405180830381865afa158015611ef1573d6000803e3d6000fd5b505050506040513d601f19601f82011682018060405250810190611f159190612a8b565b9050801561209757600081611f3284670de0b6b3a7640000612a4e565b611f3c9190612aba565b6040516370a0823160e01b81523060048201529091506000906001600160a01b037f000000000000000000000000000000000000000000000000000000000000000016906370a0823190602401602060405180830381865afa158015611fa6573d6000803e3d6000fd5b505050506040513d601f19601f82011682018060405250810190611fca9190612a8b565b9050600082118015611fdc5750818110155b156120945760005461201b906001600160a01b037f000000000000000000000000000000000000000000000000000000000000000081169116846123d6565b60005460405163f843e64160e01b8152600481018490526001600160a01b038d811660248301529091169063f843e641906044016020604051808303816000875af115801561206e573d6000803e3d6000fd5b505050506040513d601f19601f820116820180604052508101906120929190612a8b565b505b50505b505b60408051828152602081018690529081018490526001600160a01b038916907fe9843be128547b50afd9e4a730fa3e3355384920a468b782535b42945db270449060600160405180910390a25050505050505050565b6120fd8484848460016126ef565b61212557604051635274afe760e01b81526001600160a01b0385166004820152602401610ea6565b50505050565b6000805460408051630240bc6b60e21b8152815184936001600160a01b031692630902f1ac92600480820193918290030181865afa158015612171573d6000803e3d6000fd5b505050506040513d601f19601f820116820180604052508101906121959190612aff565b91509150600080831180156121aa5750600082115b156121d4576121b98484612a65565b6121c38386612a4e565b6121cd9190612aba565b90506121d7565b50825b600080546040516370a0823160e01b81526001600160a01b0391821660048201527f0000000000000000000000000000000000000000000000000000000000000000909116906370a0823190602401602060405180830381865afa158015612243573d6000803e3d6000fd5b505050506040513d601f19601f820116820180604052508101906122679190612a8b565b9050683635c9adc5dea0000061227d8184612a65565b8210156123ce576000826122918386612a65565b61229b9190612a78565b6040516370a0823160e01b81523060048201529091506000906001600160a01b037f000000000000000000000000000000000000000000000000000000000000000016906370a0823190602401602060405180830381865afa158015612305573d6000803e3d6000fd5b505050506040513d601f19601f820116820180604052508101906123299190612a8b565b90508181106123cb5760005461236c906001600160a01b037f000000000000000000000000000000000000000000000000000000000000000081169116846123d6565b60005460405163362ce52b60e01b8152600481018490526001600160a01b039091169063362ce52b90602401600060405180830381600087803b1580156123b257600080fd5b505af11580156123c6573d6000803e3d6000fd5b505050505b50505b505050505050565b6123e38383836000612761565b6108ba576123f5838360006001612761565b61241d57604051635274afe760e01b81526001600160a01b0384166004820152602401610ea6565b611baf8383836001612761565b600068878678326eac900000821061244457506002919050565b506001919050565b6001546001600160a01b0316158061246d57506002546001600160a01b0316155b15612476575050565b8160005b601481101561212557600154604051634a9fefc760e01b81526001600160a01b0384811660048301526000921690634a9fefc790602401602060405180830381865afa1580156124ce573d6000803e3d6000fd5b505050506040513d601f19601f820116820180604052508101906124f29190612ace565b90506001600160a01b0381166125085750612125565b60025460405163d9bd5f2d60e01b81526001600160a01b0383811660048301528581166024830152604482018790529091169063d9bd5f2d90606401600060405180830381600087803b15801561255e57600080fd5b505af1158015612572573d6000803e3d6000fd5b50929450506001909201915061247a9050565b600080516020612b2483398151915254600203610e3c57604051633ee5aeb560e01b815260040160405180910390fd5b6000816000036125c757506064919050565b816001036125d75750604b919050565b816002036125e75750605f919050565b816003036125f757506041919050565b8160040361260757506064919050565b8160050361261757506055919050565b506037919050565b60008160000361263157506073919050565b8160010361264157506064919050565b8160020361265157506073919050565b816003036126615750606e919050565b8160040361267157506069919050565b8160050361268157506064919050565b50607d919050565b60405163a9059cbb60e01b60008181526001600160a01b038616600452602485905291602083604481808b5af1925060016000511483166126e35783831516156126d6573d6000823e3d81fd5b6000873b113d1516831692505b60405250949350505050565b6040516323b872dd60e01b60008181526001600160a01b038781166004528616602452604485905291602083606481808c5af19250600160005114831661274f578383151615612742573d6000823e3d81fd5b6000883b113d1516831692505b60405250600060605295945050505050565b60405163095ea7b360e01b60008181526001600160a01b038616600452602485905291602083604481808b5af1925060016000511483166126e35783831516156126d6573d6000823e3d81fd5b6001600160a01b03811681146111f057600080fd5b6000602082840312156127d557600080fd5b81356127e0816127ae565b9392505050565b6000602082840312156127f957600080fd5b813580151581146127e057600080fd5b60008060006060848603121561281e57600080fd5b8335612829816127ae565b92506020840135612839816127ae565b91506040840135612849816127ae565b809150509250925092565b6000806020838503121561286757600080fd5b823567ffffffffffffffff8082111561287f57600080fd5b818501915085601f83011261289357600080fd5b8135818111156128a257600080fd5b86602060c0830285010111156128b757600080fd5b60209290920196919550909350505050565b60008083601f8401126128db57600080fd5b50813567ffffffffffffffff8111156128f357600080fd5b6020830191508360208260051b850101111561290e57600080fd5b9250929050565b6000806000806040858703121561292b57600080fd5b843567ffffffffffffffff8082111561294357600080fd5b61294f888389016128c9565b9096509450602087013591508082111561296857600080fd5b50612975878288016128c9565b95989497509550505050565b60006020828403121561299357600080fd5b5035919050565b600080600080608085870312156129b057600080fd5b84356129bb816127ae565b935060208501356129cb816127ae565b925060408501356129db816127ae565b915060608501356129eb816127ae565b939692955090935050565b60008060408385031215612a0957600080fd5b8235612a14816127ae565b946020939093013593505050565b634e487b7160e01b600052603260045260246000fd5b634e487b7160e01b600052601160045260246000fd5b80820281158282048414176118c8576118c8612a38565b808201808211156118c8576118c8612a38565b818103818111156118c8576118c8612a38565b600060208284031215612a9d57600080fd5b5051919050565b634e487b7160e01b600052601260045260246000fd5b600082612ac957612ac9612aa4565b500490565b600060208284031215612ae057600080fd5b81516127e0816127ae565b600082612afa57612afa612aa4565b500690565b60008060408385031215612b1257600080fd5b50508051602090910151909290915056fe9b779b17422d0df92223018b32b4d1fa46e071723d6817e2486d003becc55f00a26469706673582212201bbccd2ff11c3121d0ad5a73bec8951e3802931ec3d4571455e5ca8185bc034564736f6c63430008180033","opcodes":"PUSH1 0xE0 PUSH1 0x40 MSTORE PUSH8 0xDE0B6B3A7640000 PUSH1 0x5 SSTORE CALLVALUE DUP1 ISZERO PUSH3 0x1D JUMPI PUSH1 0x0 DUP1 REVERT JUMPDEST POP PUSH1 0x40 MLOAD PUSH3 0x2D3F CODESIZE SUB DUP1 PUSH3 0x2D3F DUP4 CODECOPY DUP2 ADD PUSH1 0x40 DUP2 SWAP1 MSTORE PUSH3 0x40 SWAP2 PUSH3 0xEC JUMP JUMPDEST PUSH1 0x1 PUSH32 0x9B779B17422D0DF92223018B32B4D1FA46E071723D6817E2486D003BECC55F00 SSTORE PUSH1 0x1 PUSH1 0x1 PUSH1 0xA0 SHL SUB DUP4 AND ISZERO DUP1 PUSH3 0x82 JUMPI POP PUSH1 0x1 PUSH1 0x1 PUSH1 0xA0 SHL SUB DUP3 AND ISZERO JUMPDEST ISZERO PUSH3 0xA1 JUMPI PUSH1 0x40 MLOAD PUSH4 0xD92E233D PUSH1 0xE0 SHL DUP2 MSTORE PUSH1 0x4 ADD PUSH1 0x40 MLOAD DUP1 SWAP2 SUB SWAP1 REVERT JUMPDEST PUSH1 0x1 PUSH1 0x1 PUSH1 0xA0 SHL SUB SWAP3 DUP4 AND PUSH1 0x80 MSTORE SWAP2 AND PUSH1 0xA0 MSTORE PUSH1 0xC0 MSTORE PUSH1 0x3 DUP1 SLOAD PUSH1 0x1 PUSH1 0x1 PUSH1 0xA0 SHL SUB NOT AND CALLER OR SWAP1 SSTORE PUSH3 0x12D JUMP JUMPDEST DUP1 MLOAD PUSH1 0x1 PUSH1 0x1 PUSH1 0xA0 SHL SUB DUP2 AND DUP2 EQ PUSH3 0xE7 JUMPI PUSH1 0x0 DUP1 REVERT JUMPDEST SWAP2 SWAP1 POP JUMP JUMPDEST PUSH1 0x0 DUP1 PUSH1 0x0 PUSH1 0x60 DUP5 DUP7 SUB SLT ISZERO PUSH3 0x102 JUMPI PUSH1 0x0 DUP1 REVERT JUMPDEST PUSH3 0x10D DUP5 PUSH3 0xCF JUMP JUMPDEST SWAP3 POP PUSH3 0x11D PUSH1 0x20 DUP6 ADD PUSH3 0xCF JUMP JUMPDEST SWAP2 POP PUSH1 0x40 DUP5 ADD MLOAD SWAP1 POP SWAP3 POP SWAP3 POP SWAP3 JUMP JUMPDEST PUSH1 0x80 MLOAD PUSH1 0xA0 MLOAD PUSH1 0xC0 MLOAD PUSH2 0x2B79 PUSH3 0x1C6 PUSH1 0x0 CODECOPY PUSH1 0x0 DUP2 DUP2 PUSH2 0x4D4 ADD MSTORE PUSH2 0x19D2 ADD MSTORE PUSH1 0x0 DUP2 DUP2 PUSH2 0x38F ADD MSTORE DUP2 DUP2 PUSH2 0xAAB ADD MSTORE DUP2 DUP2 PUSH2 0xBEB ADD MSTORE DUP2 DUP2 PUSH2 0xCF2 ADD MSTORE DUP2 DUP2 PUSH2 0xD7E ADD MSTORE DUP2 DUP2 PUSH2 0x1F5F ADD MSTORE DUP2 DUP2 PUSH2 0x1FF2 ADD MSTORE DUP2 DUP2 PUSH2 0x21FA ADD MSTORE DUP2 DUP2 PUSH2 0x22BE ADD MSTORE PUSH2 0x2343 ADD MSTORE PUSH1 0x0 DUP2 DUP2 PUSH2 0x3B6 ADD MSTORE DUP2 DUP2 PUSH2 0x1385 ADD MSTORE DUP2 DUP2 PUSH2 0x1454 ADD MSTORE DUP2 DUP2 PUSH2 0x148E ADD MSTORE DUP2 DUP2 PUSH2 0x14C8 ADD MSTORE PUSH2 0x1531 ADD MSTORE PUSH2 0x2B79 PUSH1 0x0 RETURN INVALID PUSH1 0x80 PUSH1 0x40 MSTORE CALLVALUE DUP1 ISZERO PUSH2 0x10 JUMPI PUSH1 0x0 DUP1 REVERT JUMPDEST POP PUSH1 0x4 CALLDATASIZE LT PUSH2 0x232 JUMPI PUSH1 0x0 CALLDATALOAD PUSH1 0xE0 SHR DUP1 PUSH4 0x6B9F7AB6 GT PUSH2 0x130 JUMPI DUP1 PUSH4 0xB6635BE6 GT PUSH2 0xB8 JUMPI DUP1 PUSH4 0xE9A16BD5 GT PUSH2 0x7C JUMPI DUP1 PUSH4 0xE9A16BD5 EQ PUSH2 0x5E1 JUMPI DUP1 PUSH4 0xF6ED2017 EQ PUSH2 0x5F4 JUMPI DUP1 PUSH4 0xF851A440 EQ PUSH2 0x607 JUMPI DUP1 PUSH4 0xFB75B2C7 EQ PUSH2 0x61A JUMPI DUP1 PUSH4 0xFF50ABDC EQ PUSH2 0x62D JUMPI PUSH1 0x0 DUP1 REVERT JUMPDEST DUP1 PUSH4 0xB6635BE6 EQ PUSH2 0x581 JUMPI DUP1 PUSH4 0xB6B55F25 EQ PUSH2 0x595 JUMPI DUP1 PUSH4 0xD33219B4 EQ PUSH2 0x5A8 JUMPI DUP1 PUSH4 0xE3BD35E3 EQ PUSH2 0x5BB JUMPI DUP1 PUSH4 0xE4D2620E EQ PUSH2 0x5CE JUMPI PUSH1 0x0 DUP1 REVERT JUMPDEST DUP1 PUSH4 0x9E5914DA GT PUSH2 0xFF JUMPI DUP1 PUSH4 0x9E5914DA EQ PUSH2 0x52D JUMPI DUP1 PUSH4 0xA470803D EQ PUSH2 0x540 JUMPI DUP1 PUSH4 0xA4DEE155 EQ PUSH2 0x553 JUMPI DUP1 PUSH4 0xAC948E83 EQ PUSH2 0x55B JUMPI DUP1 PUSH4 0xB12CD625 EQ PUSH2 0x56E JUMPI PUSH1 0x0 DUP1 REVERT JUMPDEST DUP1 PUSH4 0x6B9F7AB6 EQ PUSH2 0x4F6 JUMPI DUP1 PUSH4 0x74958E35 EQ PUSH2 0x509 JUMPI DUP1 PUSH4 0x8565C2BF EQ PUSH2 0x512 JUMPI DUP1 PUSH4 0x8AEA8F71 EQ PUSH2 0x525 JUMPI PUSH1 0x0 DUP1 REVERT JUMPDEST DUP1 PUSH4 0x33049E0E GT PUSH2 0x1BE JUMPI DUP1 PUSH4 0x4B319713 GT PUSH2 0x182 JUMPI DUP1 PUSH4 0x4B319713 EQ PUSH2 0x47C JUMPI DUP1 PUSH4 0x51637BA9 EQ PUSH2 0x485 JUMPI DUP1 PUSH4 0x5ACB5082 EQ PUSH2 0x498 JUMPI DUP1 PUSH4 0x60DA3E83 EQ PUSH2 0x4AB JUMPI DUP1 PUSH4 0x65CF7C9B EQ PUSH2 0x4CF JUMPI PUSH1 0x0 DUP1 REVERT JUMPDEST DUP1 PUSH4 0x33049E0E EQ PUSH2 0x3D8 JUMPI DUP1 PUSH4 0x3695DAD1 EQ PUSH2 0x42C JUMPI DUP1 PUSH4 0x372500AB EQ PUSH2 0x435 JUMPI DUP1 PUSH4 0x37914A07 EQ PUSH2 0x43D JUMPI DUP1 PUSH4 0x3A6F2DCD EQ PUSH2 0x450 JUMPI PUSH1 0x0 DUP1 REVERT JUMPDEST DUP1 PUSH4 0x1D687F0C GT PUSH2 0x205 JUMPI DUP1 PUSH4 0x1D687F0C EQ PUSH2 0x351 JUMPI DUP1 PUSH4 0x1EC32D15 EQ PUSH2 0x364 JUMPI DUP1 PUSH4 0x2955440E EQ PUSH2 0x377 JUMPI DUP1 PUSH4 0x2ACFBCA3 EQ PUSH2 0x38A JUMPI DUP1 PUSH4 0x2F48AB7D EQ PUSH2 0x3B1 JUMPI PUSH1 0x0 DUP1 REVERT JUMPDEST DUP1 PUSH4 0x107A4802 EQ PUSH2 0x237 JUMPI DUP1 PUSH4 0x142A3DA3 EQ PUSH2 0x2DA JUMPI DUP1 PUSH4 0x1441A5A9 EQ PUSH2 0x311 JUMPI DUP1 PUSH4 0x1C481E2D EQ PUSH2 0x33C JUMPI JUMPDEST PUSH1 0x0 DUP1 REVERT JUMPDEST PUSH2 0x298 PUSH2 0x245 CALLDATASIZE PUSH1 0x4 PUSH2 0x27C3 JUMP JUMPDEST PUSH1 0x1 PUSH1 0x1 PUSH1 0xA0 SHL SUB AND PUSH1 0x0 SWAP1 DUP2 MSTORE PUSH1 0x9 PUSH1 0x20 MSTORE PUSH1 0x40 SWAP1 KECCAK256 DUP1 SLOAD PUSH1 0x1 DUP3 ADD SLOAD PUSH1 0x2 DUP4 ADD SLOAD PUSH1 0x3 DUP5 ADD SLOAD PUSH1 0x4 DUP6 ADD SLOAD PUSH1 0x5 DUP7 ADD SLOAD PUSH1 0x6 DUP8 ADD SLOAD PUSH1 0x7 SWAP1 SWAP8 ADD SLOAD SWAP6 SWAP8 SWAP5 SWAP7 SWAP4 SWAP6 SWAP3 SWAP5 SWAP2 SWAP4 SWAP1 SWAP3 SWAP1 SWAP2 PUSH1 0xFF SWAP1 SWAP2 AND SWAP1 JUMP JUMPDEST PUSH1 0x40 DUP1 MLOAD SWAP9 DUP10 MSTORE PUSH1 0x20 DUP10 ADD SWAP8 SWAP1 SWAP8 MSTORE SWAP6 DUP8 ADD SWAP5 SWAP1 SWAP5 MSTORE PUSH1 0x60 DUP7 ADD SWAP3 SWAP1 SWAP3 MSTORE PUSH1 0x80 DUP6 ADD MSTORE PUSH1 0xA0 DUP5 ADD MSTORE PUSH1 0xC0 DUP4 ADD MSTORE ISZERO ISZERO PUSH1 0xE0 DUP3 ADD MSTORE PUSH2 0x100 ADD JUMPDEST PUSH1 0x40 MLOAD DUP1 SWAP2 SUB SWAP1 RETURN JUMPDEST PUSH2 0x303 PUSH2 0x2E8 CALLDATASIZE PUSH1 0x4 PUSH2 0x27C3 JUMP JUMPDEST PUSH1 0x1 PUSH1 0x1 PUSH1 0xA0 SHL SUB AND PUSH1 0x0 SWAP1 DUP2 MSTORE PUSH1 0x9 PUSH1 0x20 MSTORE PUSH1 0x40 SWAP1 KECCAK256 SLOAD SWAP1 JUMP JUMPDEST PUSH1 0x40 MLOAD SWAP1 DUP2 MSTORE PUSH1 0x20 ADD PUSH2 0x2D1 JUMP JUMPDEST PUSH1 0x1 SLOAD PUSH2 0x324 SWAP1 PUSH1 0x1 PUSH1 0x1 PUSH1 0xA0 SHL SUB AND DUP2 JUMP JUMPDEST PUSH1 0x40 MLOAD PUSH1 0x1 PUSH1 0x1 PUSH1 0xA0 SHL SUB SWAP1 SWAP2 AND DUP2 MSTORE PUSH1 0x20 ADD PUSH2 0x2D1 JUMP JUMPDEST PUSH2 0x34F PUSH2 0x34A CALLDATASIZE PUSH1 0x4 PUSH2 0x27E7 JUMP JUMPDEST PUSH2 0x636 JUMP JUMPDEST STOP JUMPDEST PUSH2 0x34F PUSH2 0x35F CALLDATASIZE PUSH1 0x4 PUSH2 0x2809 JUMP JUMPDEST PUSH2 0x6B9 JUMP JUMPDEST PUSH1 0x7 SLOAD PUSH2 0x324 SWAP1 PUSH1 0x1 PUSH1 0x1 PUSH1 0xA0 SHL SUB AND DUP2 JUMP JUMPDEST PUSH2 0x34F PUSH2 0x385 CALLDATASIZE PUSH1 0x4 PUSH2 0x2854 JUMP JUMPDEST PUSH2 0x7B2 JUMP JUMPDEST PUSH2 0x324 PUSH32 0x0 DUP2 JUMP JUMPDEST PUSH2 0x324 PUSH32 0x0 DUP2 JUMP JUMPDEST PUSH2 0x298 PUSH2 0x3E6 CALLDATASIZE PUSH1 0x4 PUSH2 0x27C3 JUMP JUMPDEST PUSH1 0x9 PUSH1 0x20 MSTORE PUSH1 0x0 SWAP1 DUP2 MSTORE PUSH1 0x40 SWAP1 KECCAK256 DUP1 SLOAD PUSH1 0x1 DUP3 ADD SLOAD PUSH1 0x2 DUP4 ADD SLOAD PUSH1 0x3 DUP5 ADD SLOAD PUSH1 0x4 DUP6 ADD SLOAD PUSH1 0x5 DUP7 ADD SLOAD PUSH1 0x6 DUP8 ADD SLOAD PUSH1 0x7 SWAP1 SWAP8 ADD SLOAD SWAP6 SWAP7 SWAP5 SWAP6 SWAP4 SWAP5 SWAP3 SWAP4 SWAP2 SWAP3 SWAP1 SWAP2 PUSH1 0xFF AND DUP9 JUMP JUMPDEST PUSH2 0x303 PUSH1 0x5 SLOAD DUP2 JUMP JUMPDEST PUSH2 0x34F PUSH2 0x8BF JUMP JUMPDEST PUSH2 0x34F PUSH2 0x44B CALLDATASIZE PUSH1 0x4 PUSH2 0x2915 JUMP JUMPDEST PUSH2 0xE3E JUMP JUMPDEST PUSH2 0x303 PUSH2 0x45E CALLDATASIZE PUSH1 0x4 PUSH2 0x27C3 JUMP JUMPDEST PUSH1 0x1 PUSH1 0x1 PUSH1 0xA0 SHL SUB AND PUSH1 0x0 SWAP1 DUP2 MSTORE PUSH1 0x9 PUSH1 0x20 MSTORE PUSH1 0x40 SWAP1 KECCAK256 PUSH1 0x5 ADD SLOAD SWAP1 JUMP JUMPDEST PUSH2 0x303 PUSH1 0xB SLOAD DUP2 JUMP JUMPDEST PUSH2 0x34F PUSH2 0x493 CALLDATASIZE PUSH1 0x4 PUSH2 0x2981 JUMP JUMPDEST PUSH2 0xF2A JUMP JUMPDEST PUSH2 0x34F PUSH2 0x4A6 CALLDATASIZE PUSH1 0x4 PUSH2 0x299A JUMP JUMPDEST PUSH2 0xF5A JUMP JUMPDEST PUSH1 0x4 SLOAD PUSH2 0x4BF SWAP1 PUSH1 0x1 PUSH1 0xA8 SHL SWAP1 DIV PUSH1 0xFF AND DUP2 JUMP JUMPDEST PUSH1 0x40 MLOAD SWAP1 ISZERO ISZERO DUP2 MSTORE PUSH1 0x20 ADD PUSH2 0x2D1 JUMP JUMPDEST PUSH2 0x303 PUSH32 0x0 DUP2 JUMP JUMPDEST PUSH2 0x34F PUSH2 0x504 CALLDATASIZE PUSH1 0x4 PUSH2 0x29F6 JUMP JUMPDEST PUSH2 0x1027 JUMP JUMPDEST PUSH2 0x303 PUSH1 0xC SLOAD DUP2 JUMP JUMPDEST PUSH1 0x0 SLOAD PUSH2 0x324 SWAP1 PUSH1 0x1 PUSH1 0x1 PUSH1 0xA0 SHL SUB AND DUP2 JUMP JUMPDEST PUSH2 0x34F PUSH2 0x10D6 JUMP JUMPDEST PUSH2 0x34F PUSH2 0x53B CALLDATASIZE PUSH1 0x4 PUSH2 0x27C3 JUMP JUMPDEST PUSH2 0x117A JUMP JUMPDEST PUSH2 0x34F PUSH2 0x54E CALLDATASIZE PUSH1 0x4 PUSH2 0x2981 JUMP JUMPDEST PUSH2 0x11C7 JUMP JUMPDEST PUSH2 0x34F PUSH2 0x11F3 JUMP JUMPDEST PUSH2 0x34F PUSH2 0x569 CALLDATASIZE PUSH1 0x4 PUSH2 0x29F6 JUMP JUMPDEST PUSH2 0x121E JUMP JUMPDEST PUSH1 0x8 SLOAD PUSH2 0x324 SWAP1 PUSH1 0x1 PUSH1 0x1 PUSH1 0xA0 SHL SUB AND DUP2 JUMP JUMPDEST PUSH1 0x4 SLOAD PUSH2 0x4BF SWAP1 PUSH1 0x1 PUSH1 0xA0 SHL SWAP1 DIV PUSH1 0xFF AND DUP2 JUMP JUMPDEST PUSH2 0x34F PUSH2 0x5A3 CALLDATASIZE PUSH1 0x4 PUSH2 0x2981 JUMP JUMPDEST PUSH2 0x1249 JUMP JUMPDEST PUSH1 0x4 SLOAD PUSH2 0x324 SWAP1 PUSH1 0x1 PUSH1 0x1 PUSH1 0xA0 SHL SUB AND DUP2 JUMP JUMPDEST PUSH2 0x4BF PUSH2 0x5C9 CALLDATASIZE PUSH1 0x4 PUSH2 0x27C3 JUMP JUMPDEST PUSH2 0x1829 JUMP JUMPDEST PUSH2 0x303 PUSH2 0x5DC CALLDATASIZE PUSH1 0x4 PUSH2 0x27C3 JUMP JUMPDEST PUSH2 0x187F JUMP JUMPDEST PUSH1 0x2 SLOAD PUSH2 0x324 SWAP1 PUSH1 0x1 PUSH1 0x1 PUSH1 0xA0 SHL SUB AND DUP2 JUMP JUMPDEST PUSH2 0x303 PUSH2 0x602 CALLDATASIZE PUSH1 0x4 PUSH2 0x27C3 JUMP JUMPDEST PUSH2 0x18CE JUMP JUMPDEST PUSH1 0x3 SLOAD PUSH2 0x324 SWAP1 PUSH1 0x1 PUSH1 0x1 PUSH1 0xA0 SHL SUB AND DUP2 JUMP JUMPDEST PUSH1 0x6 SLOAD PUSH2 0x324 SWAP1 PUSH1 0x1 PUSH1 0x1 PUSH1 0xA0 SHL SUB AND DUP2 JUMP JUMPDEST PUSH2 0x303 PUSH1 0xA SLOAD DUP2 JUMP JUMPDEST PUSH1 0x4 SLOAD PUSH1 0x1 PUSH1 0x1 PUSH1 0xA0 SHL SUB AND CALLER EQ PUSH2 0x661 JUMPI PUSH1 0x40 MLOAD PUSH4 0xE05F485 PUSH1 0xE1 SHL DUP2 MSTORE PUSH1 0x4 ADD PUSH1 0x40 MLOAD DUP1 SWAP2 SUB SWAP1 REVERT JUMPDEST PUSH1 0x4 DUP1 SLOAD DUP3 ISZERO ISZERO PUSH1 0x1 PUSH1 0xA8 SHL MUL PUSH1 0xFF PUSH1 0xA8 SHL NOT SWAP1 SWAP2 AND OR SWAP1 SSTORE PUSH1 0x40 MLOAD PUSH32 0x5EF34F53269A04B5B817E5BE24A51BA6B477118B399EC9DD5B2BAF5B299563DC SWAP1 PUSH2 0x6AE SWAP1 DUP4 ISZERO ISZERO DUP2 MSTORE PUSH1 0x20 ADD SWAP1 JUMP JUMPDEST PUSH1 0x40 MLOAD DUP1 SWAP2 SUB SWAP1 LOG1 POP JUMP JUMPDEST PUSH1 0x4 SLOAD PUSH1 0x1 PUSH1 0xA0 SHL SWAP1 DIV PUSH1 0xFF AND ISZERO PUSH2 0x6FB JUMPI PUSH1 0x4 SLOAD PUSH1 0x1 PUSH1 0x1 PUSH1 0xA0 SHL SUB AND CALLER EQ PUSH2 0x6F6 JUMPI PUSH1 0x40 MLOAD PUSH4 0xE05F485 PUSH1 0xE1 SHL DUP2 MSTORE PUSH1 0x4 ADD PUSH1 0x40 MLOAD DUP1 SWAP2 SUB SWAP1 REVERT JUMPDEST PUSH2 0x726 JUMP JUMPDEST PUSH1 0x3 SLOAD PUSH1 0x1 PUSH1 0x1 PUSH1 0xA0 SHL SUB AND CALLER EQ PUSH2 0x726 JUMPI PUSH1 0x40 MLOAD PUSH4 0x47556579 PUSH1 0xE0 SHL DUP2 MSTORE PUSH1 0x4 ADD PUSH1 0x40 MLOAD DUP1 SWAP2 SUB SWAP1 REVERT JUMPDEST PUSH1 0x1 PUSH1 0x1 PUSH1 0xA0 SHL SUB DUP4 AND ISZERO DUP1 PUSH2 0x743 JUMPI POP PUSH1 0x1 PUSH1 0x1 PUSH1 0xA0 SHL SUB DUP3 AND ISZERO JUMPDEST DUP1 PUSH2 0x755 JUMPI POP PUSH1 0x1 PUSH1 0x1 PUSH1 0xA0 SHL SUB DUP2 AND ISZERO JUMPDEST ISZERO PUSH2 0x773 JUMPI PUSH1 0x40 MLOAD PUSH4 0xD92E233D PUSH1 0xE0 SHL DUP2 MSTORE PUSH1 0x4 ADD PUSH1 0x40 MLOAD DUP1 SWAP2 SUB SWAP1 REVERT JUMPDEST PUSH1 0x6 DUP1 SLOAD PUSH1 0x1 PUSH1 0x1 PUSH1 0xA0 SHL SUB SWAP5 DUP6 AND PUSH1 0x1 PUSH1 0x1 PUSH1 0xA0 SHL SUB NOT SWAP2 DUP3 AND OR SWAP1 SWAP2 SSTORE PUSH1 0x7 DUP1 SLOAD SWAP4 DUP6 AND SWAP4 DUP3 AND SWAP4 SWAP1 SWAP4 OR SWAP1 SWAP3 SSTORE PUSH1 0x8 DUP1 SLOAD SWAP2 SWAP1 SWAP4 AND SWAP2 AND OR SWAP1 SSTORE JUMP JUMPDEST PUSH1 0x3 SLOAD PUSH1 0x1 PUSH1 0x1 PUSH1 0xA0 SHL SUB AND CALLER EQ PUSH2 0x7DD JUMPI PUSH1 0x40 MLOAD PUSH4 0x47556579 PUSH1 0xE0 SHL DUP2 MSTORE PUSH1 0x4 ADD PUSH1 0x40 MLOAD DUP1 SWAP2 SUB SWAP1 REVERT JUMPDEST PUSH1 0x0 JUMPDEST DUP2 DUP2 LT ISZERO PUSH2 0x8BA JUMPI CALLDATASIZE DUP4 DUP4 DUP4 DUP2 DUP2 LT PUSH2 0x7FB JUMPI PUSH2 0x7FB PUSH2 0x2A22 JUMP JUMPDEST PUSH1 0xC0 MUL SWAP2 SWAP1 SWAP2 ADD SWAP2 POP PUSH1 0x0 SWAP1 POP PUSH1 0x9 DUP2 PUSH2 0x818 PUSH1 0x20 DUP6 ADD DUP6 PUSH2 0x27C3 JUMP JUMPDEST PUSH1 0x1 PUSH1 0x1 PUSH1 0xA0 SHL SUB AND DUP2 MSTORE PUSH1 0x20 DUP1 DUP3 ADD SWAP3 SWAP1 SWAP3 MSTORE PUSH1 0x40 SWAP1 DUP2 ADD PUSH1 0x0 SWAP1 DUP2 KECCAK256 SWAP3 DUP6 ADD CALLDATALOAD DUP1 DUP5 SSTORE SWAP2 DUP6 ADD CALLDATALOAD PUSH1 0x1 DUP5 ADD SSTORE PUSH1 0x2 DUP4 ADD SSTORE PUSH1 0x60 DUP5 ADD CALLDATALOAD PUSH1 0x3 DUP1 DUP5 ADD SWAP2 SWAP1 SWAP2 SSTORE SWAP2 SWAP3 POP PUSH2 0x866 SWAP2 SWAP1 PUSH2 0x2A4E JUMP JUMPDEST PUSH1 0x4 DUP3 ADD SSTORE PUSH1 0x80 DUP3 ADD CALLDATALOAD PUSH1 0x5 DUP3 ADD SSTORE PUSH1 0xA0 DUP3 ADD CALLDATALOAD PUSH1 0x6 DUP3 ADD SSTORE PUSH1 0x7 DUP2 ADD DUP1 SLOAD PUSH1 0xFF NOT AND PUSH1 0x1 OR SWAP1 SSTORE PUSH1 0xA DUP1 SLOAD PUSH1 0x20 DUP5 ADD CALLDATALOAD SWAP2 SWAP1 PUSH1 0x0 SWAP1 PUSH2 0x8A7 SWAP1 DUP5 SWAP1 PUSH2 0x2A65 JUMP JUMPDEST SWAP1 SWAP2 SSTORE POP POP PUSH1 0x1 SWAP1 SWAP3 ADD SWAP2 POP PUSH2 0x7E0 SWAP1 POP JUMP JUMPDEST POP POP POP JUMP JUMPDEST PUSH2 0x8C7 PUSH2 0x1962 JUMP JUMPDEST CALLER PUSH1 0x0 SWAP1 DUP2 MSTORE PUSH1 0x9 PUSH1 0x20 MSTORE PUSH1 0x40 DUP2 KECCAK256 DUP1 SLOAD SWAP1 SWAP2 SUB PUSH2 0x8F8 JUMPI PUSH1 0x40 MLOAD PUSH4 0x61655153 PUSH1 0xE1 SHL DUP2 MSTORE PUSH1 0x4 ADD PUSH1 0x40 MLOAD DUP1 SWAP2 SUB SWAP1 REVERT JUMPDEST PUSH1 0x7 DUP2 ADD SLOAD PUSH1 0xFF AND PUSH2 0x91D JUMPI PUSH1 0x40 MLOAD PUSH4 0xF509B11 PUSH1 0xE0 SHL DUP2 MSTORE PUSH1 0x4 ADD PUSH1 0x40 MLOAD DUP1 SWAP2 SUB SWAP1 REVERT JUMPDEST PUSH1 0x0 PUSH2 0x928 DUP3 PUSH2 0x197E JUMP JUMPDEST DUP3 PUSH1 0x2 ADD SLOAD PUSH2 0x937 SWAP2 SWAP1 PUSH2 0x2A65 JUMP JUMPDEST SWAP1 POP DUP1 PUSH1 0x0 SUB PUSH2 0x95A JUMPI PUSH1 0x40 MLOAD PUSH4 0x12D37EE5 PUSH1 0xE3 SHL DUP2 MSTORE PUSH1 0x4 ADD PUSH1 0x40 MLOAD DUP1 SWAP2 SUB SWAP1 REVERT JUMPDEST PUSH1 0x5 SLOAD DUP2 LT ISZERO PUSH2 0x97D JUMPI PUSH1 0x40 MLOAD PUSH4 0x7E3F2B7D PUSH1 0xE0 SHL DUP2 MSTORE PUSH1 0x4 ADD PUSH1 0x40 MLOAD DUP1 SWAP2 SUB SWAP1 REVERT JUMPDEST PUSH1 0x0 DUP3 PUSH1 0x3 ADD SLOAD DUP4 PUSH1 0x4 ADD SLOAD GT PUSH2 0x995 JUMPI PUSH1 0x0 PUSH2 0x9A9 JUMP JUMPDEST DUP3 PUSH1 0x3 ADD SLOAD DUP4 PUSH1 0x4 ADD SLOAD PUSH2 0x9A9 SWAP2 SWAP1 PUSH2 0x2A78 JUMP JUMPDEST SWAP1 POP DUP1 DUP3 GT ISZERO PUSH2 0x9B7 JUMPI DUP1 SWAP2 POP JUMPDEST PUSH1 0x0 DUP1 PUSH1 0x0 SWAP1 SLOAD SWAP1 PUSH2 0x100 EXP SWAP1 DIV PUSH1 0x1 PUSH1 0x1 PUSH1 0xA0 SHL SUB AND PUSH1 0x1 PUSH1 0x1 PUSH1 0xA0 SHL SUB AND PUSH4 0x98D5FDCA PUSH1 0x40 MLOAD DUP2 PUSH4 0xFFFFFFFF AND PUSH1 0xE0 SHL DUP2 MSTORE PUSH1 0x4 ADD PUSH1 0x20 PUSH1 0x40 MLOAD DUP1 DUP4 SUB DUP2 DUP7 GAS STATICCALL ISZERO DUP1 ISZERO PUSH2 0xA0B JUMPI RETURNDATASIZE PUSH1 0x0 DUP1 RETURNDATACOPY RETURNDATASIZE PUSH1 0x0 REVERT JUMPDEST POP POP POP POP PUSH1 0x40 MLOAD RETURNDATASIZE PUSH1 0x1F NOT PUSH1 0x1F DUP3 ADD AND DUP3 ADD DUP1 PUSH1 0x40 MSTORE POP DUP2 ADD SWAP1 PUSH2 0xA2F SWAP2 SWAP1 PUSH2 0x2A8B JUMP JUMPDEST SWAP1 POP DUP1 PUSH1 0x0 SUB PUSH2 0xA52 JUMPI PUSH1 0x40 MLOAD PUSH4 0xCC884657 PUSH1 0xE0 SHL DUP2 MSTORE PUSH1 0x4 ADD PUSH1 0x40 MLOAD DUP1 SWAP2 SUB SWAP1 REVERT JUMPDEST PUSH1 0x0 DUP2 PUSH2 0xA67 DUP6 PUSH8 0xDE0B6B3A7640000 PUSH2 0x2A4E JUMP JUMPDEST PUSH2 0xA71 SWAP2 SWAP1 PUSH2 0x2ABA JUMP JUMPDEST SWAP1 POP DUP1 PUSH1 0x0 SUB PUSH2 0xA94 JUMPI PUSH1 0x40 MLOAD PUSH4 0xCC884657 PUSH1 0xE0 SHL DUP2 MSTORE PUSH1 0x4 ADD PUSH1 0x40 MLOAD DUP1 SWAP2 SUB SWAP1 REVERT JUMPDEST PUSH1 0x40 MLOAD PUSH4 0x70A08231 PUSH1 0xE0 SHL DUP2 MSTORE ADDRESS PUSH1 0x4 DUP3 ADD MSTORE DUP2 SWAP1 PUSH32 0x0 PUSH1 0x1 PUSH1 0x1 PUSH1 0xA0 SHL SUB AND SWAP1 PUSH4 0x70A08231 SWAP1 PUSH1 0x24 ADD PUSH1 0x20 PUSH1 0x40 MLOAD DUP1 DUP4 SUB DUP2 DUP7 GAS STATICCALL ISZERO DUP1 ISZERO PUSH2 0xAFA JUMPI RETURNDATASIZE PUSH1 0x0 DUP1 RETURNDATACOPY RETURNDATASIZE PUSH1 0x0 REVERT JUMPDEST POP POP POP POP PUSH1 0x40 MLOAD RETURNDATASIZE PUSH1 0x1F NOT PUSH1 0x1F DUP3 ADD AND DUP3 ADD DUP1 PUSH1 0x40 MSTORE POP DUP2 ADD SWAP1 PUSH2 0xB1E SWAP2 SWAP1 PUSH2 0x2A8B JUMP JUMPDEST LT ISZERO PUSH2 0xB3D JUMPI PUSH1 0x40 MLOAD PUSH4 0x75E4645 PUSH1 0xE0 SHL DUP2 MSTORE PUSH1 0x4 ADD PUSH1 0x40 MLOAD DUP1 SWAP2 SUB SWAP1 REVERT JUMPDEST DUP4 DUP6 PUSH1 0x3 ADD PUSH1 0x0 DUP3 DUP3 SLOAD PUSH2 0xB51 SWAP2 SWAP1 PUSH2 0x2A65 JUMP JUMPDEST SWAP1 SWAP2 SSTORE POP POP TIMESTAMP PUSH1 0x1 DUP7 ADD SSTORE PUSH1 0x0 PUSH1 0x2 DUP7 ADD DUP2 SWAP1 SSTORE PUSH1 0x5 DUP7 ADD DUP1 SLOAD DUP7 SWAP3 SWAP1 PUSH2 0xB79 SWAP1 DUP5 SWAP1 PUSH2 0x2A65 JUMP JUMPDEST SWAP3 POP POP DUP2 SWAP1 SSTORE POP DUP4 PUSH1 0xC PUSH1 0x0 DUP3 DUP3 SLOAD PUSH2 0xB92 SWAP2 SWAP1 PUSH2 0x2A65 JUMP JUMPDEST SWAP1 SWAP2 SSTORE POP POP PUSH1 0x4 DUP6 ADD SLOAD PUSH1 0x3 DUP7 ADD SLOAD LT PUSH2 0xBDE JUMPI PUSH1 0x7 DUP6 ADD DUP1 SLOAD PUSH1 0xFF NOT AND SWAP1 SSTORE PUSH1 0x40 MLOAD CALLER SWAP1 PUSH32 0xFA1EB7BA4F65747C7C8882031EB92D63B6FCB684B75052185312FBE1A488D943 SWAP1 PUSH1 0x0 SWAP1 LOG2 JUMPDEST PUSH2 0xC12 PUSH1 0x1 PUSH1 0x1 PUSH1 0xA0 SHL SUB PUSH32 0x0 AND CALLER DUP4 PUSH2 0x1BA2 JUMP JUMPDEST PUSH1 0x1 SLOAD PUSH1 0x1 PUSH1 0x1 PUSH1 0xA0 SHL SUB AND ISZERO DUP1 ISZERO SWAP1 PUSH2 0xC2C JUMPI POP PUSH1 0x0 DUP5 GT JUMPDEST ISZERO PUSH2 0xDAB JUMPI PUSH1 0x1 SLOAD PUSH1 0x40 MLOAD PUSH4 0x8000D991 PUSH1 0xE0 SHL DUP2 MSTORE CALLER PUSH1 0x4 DUP3 ADD MSTORE PUSH1 0x24 DUP2 ADD DUP7 SWAP1 MSTORE PUSH1 0x0 SWAP2 PUSH1 0x1 PUSH1 0x1 PUSH1 0xA0 SHL SUB AND SWAP1 PUSH4 0x8000D991 SWAP1 PUSH1 0x44 ADD PUSH1 0x20 PUSH1 0x40 MLOAD DUP1 DUP4 SUB DUP2 PUSH1 0x0 DUP8 GAS CALL ISZERO DUP1 ISZERO PUSH2 0xC83 JUMPI RETURNDATASIZE PUSH1 0x0 DUP1 RETURNDATACOPY RETURNDATASIZE PUSH1 0x0 REVERT JUMPDEST POP POP POP POP PUSH1 0x40 MLOAD RETURNDATASIZE PUSH1 0x1F NOT PUSH1 0x1F DUP3 ADD AND DUP3 ADD DUP1 PUSH1 0x40 MSTORE POP DUP2 ADD SWAP1 PUSH2 0xCA7 SWAP2 SWAP1 PUSH2 0x2A8B JUMP JUMPDEST SWAP1 POP DUP1 ISZERO PUSH2 0xDA9 JUMPI PUSH1 0x0 DUP4 PUSH2 0xCC4 DUP4 PUSH8 0xDE0B6B3A7640000 PUSH2 0x2A4E JUMP JUMPDEST PUSH2 0xCCE SWAP2 SWAP1 PUSH2 0x2ABA JUMP JUMPDEST SWAP1 POP PUSH1 0x0 DUP2 GT DUP1 ISZERO PUSH2 0xD68 JUMPI POP PUSH1 0x40 MLOAD PUSH4 0x70A08231 PUSH1 0xE0 SHL DUP2 MSTORE ADDRESS PUSH1 0x4 DUP3 ADD MSTORE DUP2 SWAP1 PUSH32 0x0 PUSH1 0x1 PUSH1 0x1 PUSH1 0xA0 SHL SUB AND SWAP1 PUSH4 0x70A08231 SWAP1 PUSH1 0x24 ADD PUSH1 0x20 PUSH1 0x40 MLOAD DUP1 DUP4 SUB DUP2 DUP7 GAS STATICCALL ISZERO DUP1 ISZERO PUSH2 0xD41 JUMPI RETURNDATASIZE PUSH1 0x0 DUP1 RETURNDATACOPY RETURNDATASIZE PUSH1 0x0 REVERT JUMPDEST POP POP POP POP PUSH1 0x40 MLOAD RETURNDATASIZE PUSH1 0x1F NOT PUSH1 0x1F DUP3 ADD AND DUP3 ADD DUP1 PUSH1 0x40 MSTORE POP DUP2 ADD SWAP1 PUSH2 0xD65 SWAP2 SWAP1 PUSH2 0x2A8B JUMP JUMPDEST LT ISZERO JUMPDEST ISZERO PUSH2 0xDA7 JUMPI PUSH1 0x1 SLOAD PUSH2 0xDA7 SWAP1 PUSH1 0x1 PUSH1 0x1 PUSH1 0xA0 SHL SUB PUSH32 0x0 DUP2 AND SWAP2 AND DUP4 PUSH2 0x1BA2 JUMP JUMPDEST POP JUMPDEST POP JUMPDEST PUSH1 0x40 DUP1 MLOAD DUP6 DUP2 MSTORE PUSH1 0x20 DUP2 ADD DUP4 SWAP1 MSTORE CALLER SWAP2 PUSH32 0xDACBDDE355BA930696A362EA6738FEB9F8BD52DFB3D81947558FD3217E23E325 SWAP2 ADD PUSH1 0x40 MLOAD DUP1 SWAP2 SUB SWAP1 LOG2 PUSH1 0x5 DUP6 ADD SLOAD PUSH1 0x40 MLOAD SWAP1 DUP2 MSTORE CALLER SWAP1 PUSH32 0xDAD0E43AFDD45DACA2566E861FF76F0250960D86947518722C83B1E03F45EDD5 SWAP1 PUSH1 0x20 ADD PUSH1 0x40 MLOAD DUP1 SWAP2 SUB SWAP1 LOG2 POP POP POP POP POP PUSH2 0xE3C PUSH1 0x1 PUSH1 0x0 DUP1 MLOAD PUSH1 0x20 PUSH2 0x2B24 DUP4 CODECOPY DUP2 MLOAD SWAP2 MSTORE SSTORE JUMP JUMPDEST JUMP JUMPDEST PUSH1 0x3 SLOAD PUSH1 0x1 PUSH1 0x1 PUSH1 0xA0 SHL SUB AND CALLER EQ PUSH2 0xE69 JUMPI PUSH1 0x40 MLOAD PUSH4 0x47556579 PUSH1 0xE0 SHL DUP2 MSTORE PUSH1 0x4 ADD PUSH1 0x40 MLOAD DUP1 SWAP2 SUB SWAP1 REVERT JUMPDEST DUP3 DUP2 EQ PUSH2 0xEAF JUMPI PUSH1 0x40 MLOAD PUSH3 0x461BCD PUSH1 0xE5 SHL DUP2 MSTORE PUSH1 0x20 PUSH1 0x4 DUP3 ADD MSTORE PUSH1 0xF PUSH1 0x24 DUP3 ADD MSTORE PUSH15 0x98CADCCEE8D040DAD2E6DAC2E8C6D PUSH1 0x8B SHL PUSH1 0x44 DUP3 ADD MSTORE PUSH1 0x64 ADD JUMPDEST PUSH1 0x40 MLOAD DUP1 SWAP2 SUB SWAP1 REVERT JUMPDEST PUSH1 0x0 JUMPDEST DUP4 DUP2 LT ISZERO PUSH2 0xF23 JUMPI DUP3 DUP3 DUP3 DUP2 DUP2 LT PUSH2 0xECC JUMPI PUSH2 0xECC PUSH2 0x2A22 JUMP JUMPDEST SWAP1 POP PUSH1 0x20 MUL ADD CALLDATALOAD PUSH1 0x9 PUSH1 0x0 DUP8 DUP8 DUP6 DUP2 DUP2 LT PUSH2 0xEE9 JUMPI PUSH2 0xEE9 PUSH2 0x2A22 JUMP JUMPDEST SWAP1 POP PUSH1 0x20 MUL ADD PUSH1 0x20 DUP2 ADD SWAP1 PUSH2 0xEFE SWAP2 SWAP1 PUSH2 0x27C3 JUMP JUMPDEST PUSH1 0x1 PUSH1 0x1 PUSH1 0xA0 SHL SUB AND DUP2 MSTORE PUSH1 0x20 DUP2 ADD SWAP2 SWAP1 SWAP2 MSTORE PUSH1 0x40 ADD PUSH1 0x0 KECCAK256 PUSH1 0x5 ADD SSTORE PUSH1 0x1 ADD PUSH2 0xEB2 JUMP JUMPDEST POP POP POP POP POP JUMP JUMPDEST PUSH1 0x4 SLOAD PUSH1 0x1 PUSH1 0x1 PUSH1 0xA0 SHL SUB AND CALLER EQ PUSH2 0xF55 JUMPI PUSH1 0x40 MLOAD PUSH4 0xE05F485 PUSH1 0xE1 SHL DUP2 MSTORE PUSH1 0x4 ADD PUSH1 0x40 MLOAD DUP1 SWAP2 SUB SWAP1 REVERT JUMPDEST PUSH1 0x5 SSTORE JUMP JUMPDEST PUSH1 0x3 SLOAD PUSH1 0x1 PUSH1 0x1 PUSH1 0xA0 SHL SUB AND CALLER EQ PUSH2 0xF85 JUMPI PUSH1 0x40 MLOAD PUSH4 0x47556579 PUSH1 0xE0 SHL DUP2 MSTORE PUSH1 0x4 ADD PUSH1 0x40 MLOAD DUP1 SWAP2 SUB SWAP1 REVERT JUMPDEST PUSH1 0x4 SLOAD PUSH1 0x1 PUSH1 0xA0 SHL SWAP1 DIV PUSH1 0xFF AND ISZERO PUSH2 0xFB0 JUMPI PUSH1 0x40 MLOAD PUSH4 0x238F75D3 PUSH1 0xE0 SHL DUP2 MSTORE PUSH1 0x4 ADD PUSH1 0x40 MLOAD DUP1 SWAP2 SUB SWAP1 REVERT JUMPDEST PUSH1 0x1 PUSH1 0x1 PUSH1 0xA0 SHL SUB DUP5 AND PUSH2 0xFD7 JUMPI PUSH1 0x40 MLOAD PUSH4 0xD92E233D PUSH1 0xE0 SHL DUP2 MSTORE PUSH1 0x4 ADD PUSH1 0x40 MLOAD DUP1 SWAP2 SUB SWAP1 REVERT JUMPDEST PUSH1 0x0 DUP1 SLOAD PUSH1 0x1 PUSH1 0x1 PUSH1 0xA0 SHL SUB SWAP6 DUP7 AND PUSH1 0x1 PUSH1 0x1 PUSH1 0xA0 SHL SUB NOT SWAP2 DUP3 AND OR SWAP1 SWAP2 SSTORE PUSH1 0x1 DUP1 SLOAD SWAP5 DUP7 AND SWAP5 DUP3 AND SWAP5 SWAP1 SWAP5 OR SWAP1 SWAP4 SSTORE PUSH1 0x2 DUP1 SLOAD SWAP3 DUP6 AND SWAP3 DUP5 AND SWAP3 SWAP1 SWAP3 OR SWAP1 SWAP2 SSTORE PUSH1 0x4 DUP1 SLOAD SWAP2 SWAP1 SWAP4 AND SWAP2 AND OR SWAP1 SSTORE JUMP JUMPDEST PUSH1 0x1 SLOAD PUSH1 0x1 PUSH1 0x1 PUSH1 0xA0 SHL SUB AND CALLER EQ PUSH2 0x1052 JUMPI PUSH1 0x40 MLOAD PUSH4 0x3864B1E5 PUSH1 0xE2 SHL DUP2 MSTORE PUSH1 0x4 ADD PUSH1 0x40 MLOAD DUP1 SWAP2 SUB SWAP1 REVERT JUMPDEST PUSH1 0x1 PUSH1 0x1 PUSH1 0xA0 SHL SUB DUP3 AND PUSH1 0x0 SWAP1 DUP2 MSTORE PUSH1 0x9 PUSH1 0x20 MSTORE PUSH1 0x40 DUP2 KECCAK256 PUSH1 0x5 ADD DUP1 SLOAD DUP4 SWAP3 SWAP1 PUSH2 0x107D SWAP1 DUP5 SWAP1 PUSH2 0x2A65 JUMP JUMPDEST SWAP1 SWAP2 SSTORE POP POP PUSH1 0x1 PUSH1 0x1 PUSH1 0xA0 SHL SUB DUP3 AND PUSH1 0x0 DUP2 DUP2 MSTORE PUSH1 0x9 PUSH1 0x20 SWAP1 DUP2 MSTORE PUSH1 0x40 SWAP2 DUP3 SWAP1 KECCAK256 PUSH1 0x5 ADD SLOAD SWAP2 MLOAD SWAP2 DUP3 MSTORE PUSH32 0xDAD0E43AFDD45DACA2566E861FF76F0250960D86947518722C83B1E03F45EDD5 SWAP2 ADD PUSH1 0x40 MLOAD DUP1 SWAP2 SUB SWAP1 LOG2 POP POP JUMP JUMPDEST PUSH1 0x3 SLOAD PUSH1 0x1 PUSH1 0x1 PUSH1 0xA0 SHL SUB AND CALLER EQ PUSH2 0x1101 JUMPI PUSH1 0x40 MLOAD PUSH4 0x47556579 PUSH1 0xE0 SHL DUP2 MSTORE PUSH1 0x4 ADD PUSH1 0x40 MLOAD DUP1 SWAP2 SUB SWAP1 REVERT JUMPDEST PUSH1 0x4 SLOAD PUSH1 0x1 PUSH1 0xA0 SHL SWAP1 DIV PUSH1 0xFF AND ISZERO PUSH2 0x112C JUMPI PUSH1 0x40 MLOAD PUSH4 0x238F75D3 PUSH1 0xE0 SHL DUP2 MSTORE PUSH1 0x4 ADD PUSH1 0x40 MLOAD DUP1 SWAP2 SUB SWAP1 REVERT JUMPDEST PUSH1 0x0 SLOAD PUSH1 0x1 PUSH1 0x1 PUSH1 0xA0 SHL SUB AND PUSH2 0x1155 JUMPI PUSH1 0x40 MLOAD PUSH4 0xD311BC39 PUSH1 0xE0 SHL DUP2 MSTORE PUSH1 0x4 ADD PUSH1 0x40 MLOAD DUP1 SWAP2 SUB SWAP1 REVERT JUMPDEST PUSH1 0x4 DUP1 SLOAD PUSH1 0xFF PUSH1 0xA0 SHL NOT AND PUSH1 0x1 PUSH1 0xA0 SHL OR SWAP1 SSTORE PUSH1 0x3 DUP1 SLOAD PUSH1 0x1 PUSH1 0x1 PUSH1 0xA0 SHL SUB NOT AND SWAP1 SSTORE JUMP JUMPDEST PUSH1 0x4 SLOAD PUSH1 0x1 PUSH1 0x1 PUSH1 0xA0 SHL SUB AND CALLER EQ PUSH2 0x11A5 JUMPI PUSH1 0x40 MLOAD PUSH4 0xE05F485 PUSH1 0xE1 SHL DUP2 MSTORE PUSH1 0x4 ADD PUSH1 0x40 MLOAD DUP1 SWAP2 SUB SWAP1 REVERT JUMPDEST PUSH1 0x1 DUP1 SLOAD PUSH1 0x1 PUSH1 0x1 PUSH1 0xA0 SHL SUB NOT AND PUSH1 0x1 PUSH1 0x1 PUSH1 0xA0 SHL SUB SWAP3 SWAP1 SWAP3 AND SWAP2 SWAP1 SWAP2 OR SWAP1 SSTORE JUMP JUMPDEST PUSH2 0x11CF PUSH2 0x1962 JUMP JUMPDEST PUSH2 0x11D9 CALLER DUP3 PUSH2 0x1BD7 JUMP JUMPDEST PUSH2 0x11F0 PUSH1 0x1 PUSH1 0x0 DUP1 MLOAD PUSH1 0x20 PUSH2 0x2B24 DUP4 CODECOPY DUP2 MLOAD SWAP2 MSTORE SSTORE JUMP JUMPDEST POP JUMP JUMPDEST PUSH2 0x11FB PUSH2 0x1962 JUMP JUMPDEST PUSH2 0x1207 CALLER PUSH2 0x2710 PUSH2 0x1BD7 JUMP JUMPDEST PUSH2 0xE3C PUSH1 0x1 PUSH1 0x0 DUP1 MLOAD PUSH1 0x20 PUSH2 0x2B24 DUP4 CODECOPY DUP2 MLOAD SWAP2 MSTORE SSTORE JUMP JUMPDEST PUSH1 0x2 SLOAD PUSH1 0x1 PUSH1 0x1 PUSH1 0xA0 SHL SUB AND CALLER EQ PUSH2 0x1052 JUMPI PUSH1 0x40 MLOAD PUSH4 0x33273113 PUSH1 0xE1 SHL DUP2 MSTORE PUSH1 0x4 ADD PUSH1 0x40 MLOAD DUP1 SWAP2 SUB SWAP1 REVERT JUMPDEST PUSH2 0x1251 PUSH2 0x1962 JUMP JUMPDEST PUSH1 0x4 SLOAD PUSH1 0x1 PUSH1 0xA8 SHL SWAP1 DIV PUSH1 0xFF AND ISZERO PUSH2 0x127B JUMPI PUSH1 0x40 MLOAD PUSH3 0x7CFE7F PUSH1 0xE3 SHL DUP2 MSTORE PUSH1 0x4 ADD PUSH1 0x40 MLOAD DUP1 SWAP2 SUB SWAP1 REVERT JUMPDEST DUP1 PUSH1 0x0 SUB PUSH2 0x129C JUMPI PUSH1 0x40 MLOAD PUSH4 0x2B7786BD PUSH1 0xE2 SHL DUP2 MSTORE PUSH1 0x4 ADD PUSH1 0x40 MLOAD DUP1 SWAP2 SUB SWAP1 REVERT JUMPDEST PUSH10 0x10F0CF064DD59200000 DUP2 GT ISZERO PUSH2 0x12C7 JUMPI PUSH1 0x40 MLOAD PUSH4 0xC066E1E9 PUSH1 0xE0 SHL DUP2 MSTORE PUSH1 0x4 ADD PUSH1 0x40 MLOAD DUP1 SWAP2 SUB SWAP1 REVERT JUMPDEST PUSH1 0x0 SLOAD PUSH1 0x1 PUSH1 0x1 PUSH1 0xA0 SHL SUB AND PUSH2 0x12F0 JUMPI PUSH1 0x40 MLOAD PUSH4 0xD311BC39 PUSH1 0xE0 SHL DUP2 MSTORE PUSH1 0x4 ADD PUSH1 0x40 MLOAD DUP1 SWAP2 SUB SWAP1 REVERT JUMPDEST CALLER PUSH1 0x0 SWAP1 DUP2 MSTORE PUSH1 0x9 PUSH1 0x20 MSTORE PUSH1 0x40 SWAP1 KECCAK256 DUP1 SLOAD PUSH10 0x10F0CF064DD59200000 SWAP1 PUSH2 0x1318 SWAP1 DUP5 SWAP1 PUSH2 0x2A65 JUMP JUMPDEST GT ISZERO PUSH2 0x1337 JUMPI PUSH1 0x40 MLOAD PUSH4 0xC066E1E9 PUSH1 0xE0 SHL DUP2 MSTORE PUSH1 0x4 ADD PUSH1 0x40 MLOAD DUP1 SWAP2 SUB SWAP1 REVERT JUMPDEST DUP1 SLOAD ISZERO DUP1 ISZERO SWAP1 PUSH2 0x134B JUMPI POP PUSH1 0x7 DUP2 ADD SLOAD PUSH1 0xFF AND JUMPDEST ISZERO PUSH2 0x1378 JUMPI PUSH1 0x0 PUSH2 0x135B DUP3 PUSH2 0x197E JUMP JUMPDEST SWAP1 POP DUP1 DUP3 PUSH1 0x2 ADD PUSH1 0x0 DUP3 DUP3 SLOAD PUSH2 0x1371 SWAP2 SWAP1 PUSH2 0x2A65 JUMP JUMPDEST SWAP1 SWAP2 SSTORE POP POP POP JUMPDEST PUSH2 0x13AD PUSH1 0x1 PUSH1 0x1 PUSH1 0xA0 SHL SUB PUSH32 0x0 AND CALLER ADDRESS DUP6 PUSH2 0x20EF JUMP JUMPDEST PUSH1 0x6 SLOAD DUP3 SWAP1 PUSH1 0x1 PUSH1 0x1 PUSH1 0xA0 SHL SUB AND ISZERO DUP1 ISZERO SWAP1 PUSH2 0x13D3 JUMPI POP PUSH1 0x7 SLOAD PUSH1 0x1 PUSH1 0x1 PUSH1 0xA0 SHL SUB AND ISZERO ISZERO JUMPDEST DUP1 ISZERO PUSH2 0x13E9 JUMPI POP PUSH1 0x8 SLOAD PUSH1 0x1 PUSH1 0x1 PUSH1 0xA0 SHL SUB AND ISZERO ISZERO JUMPDEST ISZERO PUSH2 0x1517 JUMPI PUSH1 0x0 PUSH2 0x2710 PUSH2 0x13FE PUSH1 0x64 DUP7 PUSH2 0x2A4E JUMP JUMPDEST PUSH2 0x1408 SWAP2 SWAP1 PUSH2 0x2ABA JUMP JUMPDEST SWAP1 POP PUSH1 0x0 PUSH2 0x2710 PUSH2 0x141A PUSH1 0x32 DUP8 PUSH2 0x2A4E JUMP JUMPDEST PUSH2 0x1424 SWAP2 SWAP1 PUSH2 0x2ABA JUMP JUMPDEST SWAP1 POP PUSH1 0x0 PUSH2 0x2710 PUSH2 0x1436 PUSH1 0x32 DUP9 PUSH2 0x2A4E JUMP JUMPDEST PUSH2 0x1440 SWAP2 SWAP1 PUSH2 0x2ABA JUMP JUMPDEST PUSH1 0x6 SLOAD SWAP1 SWAP2 POP PUSH2 0x147D SWAP1 PUSH1 0x1 PUSH1 0x1 PUSH1 0xA0 SHL SUB PUSH32 0x0 DUP2 AND SWAP2 AND DUP6 PUSH2 0x1BA2 JUMP JUMPDEST PUSH1 0x7 SLOAD PUSH2 0x14B7 SWAP1 PUSH1 0x1 PUSH1 0x1 PUSH1 0xA0 SHL SUB PUSH32 0x0 DUP2 AND SWAP2 AND DUP5 PUSH2 0x1BA2 JUMP JUMPDEST PUSH1 0x8 SLOAD PUSH2 0x14F1 SWAP1 PUSH1 0x1 PUSH1 0x1 PUSH1 0xA0 SHL SUB PUSH32 0x0 DUP2 AND SWAP2 AND DUP4 PUSH2 0x1BA2 JUMP JUMPDEST DUP1 DUP3 PUSH2 0x14FD DUP6 DUP10 PUSH2 0x2A78 JUMP JUMPDEST PUSH2 0x1507 SWAP2 SWAP1 PUSH2 0x2A78 JUMP JUMPDEST PUSH2 0x1511 SWAP2 SWAP1 PUSH2 0x2A78 JUMP JUMPDEST SWAP4 POP POP POP POP JUMPDEST PUSH2 0x1520 DUP2 PUSH2 0x212B JUMP JUMPDEST PUSH1 0x0 SLOAD PUSH2 0x155A SWAP1 PUSH1 0x1 PUSH1 0x1 PUSH1 0xA0 SHL SUB PUSH32 0x0 DUP2 AND SWAP2 AND DUP4 PUSH2 0x23D6 JUMP JUMPDEST PUSH1 0x0 SLOAD PUSH1 0x40 MLOAD PUSH4 0x1C79D1E5 PUSH1 0xE2 SHL DUP2 MSTORE PUSH1 0x4 DUP2 ADD DUP4 SWAP1 MSTORE PUSH1 0x1 PUSH1 0x1 PUSH1 0xA0 SHL SUB SWAP1 SWAP2 AND SWAP1 PUSH4 0x71E74794 SWAP1 PUSH1 0x24 ADD PUSH1 0x20 PUSH1 0x40 MLOAD DUP1 DUP4 SUB DUP2 PUSH1 0x0 DUP8 GAS CALL ISZERO DUP1 ISZERO PUSH2 0x15A5 JUMPI RETURNDATASIZE PUSH1 0x0 DUP1 RETURNDATACOPY RETURNDATASIZE PUSH1 0x0 REVERT JUMPDEST POP POP POP POP PUSH1 0x40 MLOAD RETURNDATASIZE PUSH1 0x1F NOT PUSH1 0x1F DUP3 ADD AND DUP3 ADD DUP1 PUSH1 0x40 MSTORE POP DUP2 ADD SWAP1 PUSH2 0x15C9 SWAP2 SWAP1 PUSH2 0x2A8B JUMP JUMPDEST POP DUP2 SLOAD DUP1 ISZERO SWAP1 DUP5 SWAP1 DUP5 SWAP1 PUSH1 0x0 SWAP1 PUSH2 0x15E1 SWAP1 DUP5 SWAP1 PUSH2 0x2A65 JUMP JUMPDEST SWAP1 SWAP2 SSTORE POP POP DUP3 SLOAD PUSH2 0x15F4 SWAP1 PUSH1 0x3 SWAP1 PUSH2 0x2A4E JUMP JUMPDEST PUSH1 0x4 DUP5 ADD SSTORE TIMESTAMP PUSH1 0x1 DUP5 ADD SSTORE DUP1 ISZERO PUSH2 0x160C JUMPI TIMESTAMP PUSH1 0x6 DUP5 ADD SSTORE JUMPDEST PUSH1 0x7 DUP4 ADD DUP1 SLOAD PUSH1 0xFF NOT AND PUSH1 0x1 OR SWAP1 SSTORE PUSH1 0xA DUP1 SLOAD DUP6 SWAP2 SWAP1 PUSH1 0x0 SWAP1 PUSH2 0x1630 SWAP1 DUP5 SWAP1 PUSH2 0x2A65 JUMP JUMPDEST SWAP1 SWAP2 SSTORE POP POP DUP3 SLOAD PUSH1 0x0 SWAP1 PUSH2 0x1643 SWAP1 PUSH2 0x242A JUMP JUMPDEST PUSH1 0x1 SLOAD SWAP1 SWAP2 POP PUSH1 0x1 PUSH1 0x1 PUSH1 0xA0 SHL SUB AND ISZERO PUSH2 0x1796 JUMPI PUSH1 0x1 SLOAD PUSH1 0x40 MLOAD PUSH4 0x95CE44B PUSH1 0xE2 SHL DUP2 MSTORE CALLER PUSH1 0x4 DUP3 ADD MSTORE PUSH1 0x1 PUSH1 0x1 PUSH1 0xA0 SHL SUB SWAP1 SWAP2 AND SWAP1 PUSH4 0x2573912C SWAP1 PUSH1 0x24 ADD PUSH1 0x0 PUSH1 0x40 MLOAD DUP1 DUP4 SUB DUP2 PUSH1 0x0 DUP8 DUP1 EXTCODESIZE ISZERO DUP1 ISZERO PUSH2 0x169C JUMPI PUSH1 0x0 DUP1 REVERT JUMPDEST POP GAS CALL ISZERO DUP1 ISZERO PUSH2 0x16B0 JUMPI RETURNDATASIZE PUSH1 0x0 DUP1 RETURNDATACOPY RETURNDATASIZE PUSH1 0x0 REVERT JUMPDEST POP POP PUSH1 0x1 SLOAD PUSH1 0x40 MLOAD PUSH4 0x4A9FEFC7 PUSH1 0xE0 SHL DUP2 MSTORE CALLER PUSH1 0x4 DUP3 ADD MSTORE PUSH1 0x0 SWAP4 POP PUSH1 0x1 PUSH1 0x1 PUSH1 0xA0 SHL SUB SWAP1 SWAP2 AND SWAP2 POP PUSH4 0x4A9FEFC7 SWAP1 PUSH1 0x24 ADD PUSH1 0x20 PUSH1 0x40 MLOAD DUP1 DUP4 SUB DUP2 DUP7 GAS STATICCALL ISZERO DUP1 ISZERO PUSH2 0x16FF JUMPI RETURNDATASIZE PUSH1 0x0 DUP1 RETURNDATACOPY RETURNDATASIZE PUSH1 0x0 REVERT JUMPDEST POP POP POP POP PUSH1 0x40 MLOAD RETURNDATASIZE PUSH1 0x1F NOT PUSH1 0x1F DUP3 ADD AND DUP3 ADD DUP1 PUSH1 0x40 MSTORE POP DUP2 ADD SWAP1 PUSH2 0x1723 SWAP2 SWAP1 PUSH2 0x2ACE JUMP JUMPDEST SWAP1 POP PUSH1 0x1 PUSH1 0x1 PUSH1 0xA0 SHL SUB DUP2 AND ISZERO PUSH2 0x1794 JUMPI PUSH1 0x1 SLOAD PUSH1 0x40 MLOAD PUSH4 0x95CE44B PUSH1 0xE2 SHL DUP2 MSTORE PUSH1 0x1 PUSH1 0x1 PUSH1 0xA0 SHL SUB DUP4 DUP2 AND PUSH1 0x4 DUP4 ADD MSTORE SWAP1 SWAP2 AND SWAP1 PUSH4 0x2573912C SWAP1 PUSH1 0x24 ADD PUSH1 0x0 PUSH1 0x40 MLOAD DUP1 DUP4 SUB DUP2 PUSH1 0x0 DUP8 DUP1 EXTCODESIZE ISZERO DUP1 ISZERO PUSH2 0x177B JUMPI PUSH1 0x0 DUP1 REVERT JUMPDEST POP GAS CALL ISZERO DUP1 ISZERO PUSH2 0x178F JUMPI RETURNDATASIZE PUSH1 0x0 DUP1 RETURNDATACOPY RETURNDATASIZE PUSH1 0x0 REVERT JUMPDEST POP POP POP POP JUMPDEST POP JUMPDEST PUSH1 0x2 SLOAD PUSH1 0x1 PUSH1 0x1 PUSH1 0xA0 SHL SUB AND ISZERO DUP1 ISZERO SWAP1 PUSH2 0x17BA JUMPI POP PUSH1 0x1 SLOAD PUSH1 0x1 PUSH1 0x1 PUSH1 0xA0 SHL SUB AND ISZERO ISZERO JUMPDEST ISZERO PUSH2 0x17C9 JUMPI PUSH2 0x17C9 CALLER DUP7 PUSH2 0x244C JUMP JUMPDEST DUP4 SLOAD PUSH1 0x40 DUP1 MLOAD DUP8 DUP2 MSTORE PUSH1 0x20 DUP2 ADD SWAP3 SWAP1 SWAP3 MSTORE DUP2 ADD DUP3 SWAP1 MSTORE CALLER SWAP1 PUSH32 0x91EDE45F04A37A7C170F5C1207DF3B6BC748DC1E04AD5E917A241D0F52FEADA3 SWAP1 PUSH1 0x60 ADD PUSH1 0x40 MLOAD DUP1 SWAP2 SUB SWAP1 LOG2 POP POP POP POP PUSH2 0x11F0 PUSH1 0x1 PUSH1 0x0 DUP1 MLOAD PUSH1 0x20 PUSH2 0x2B24 DUP4 CODECOPY DUP2 MLOAD SWAP2 MSTORE SSTORE JUMP JUMPDEST PUSH1 0x1 PUSH1 0x1 PUSH1 0xA0 SHL SUB DUP2 AND PUSH1 0x0 SWAP1 DUP2 MSTORE PUSH1 0x9 PUSH1 0x20 MSTORE PUSH1 0x40 DUP2 KECCAK256 DUP1 SLOAD ISZERO DUP1 PUSH2 0x1854 JUMPI POP PUSH1 0x7 DUP2 ADD SLOAD PUSH1 0xFF AND ISZERO JUMPDEST ISZERO PUSH2 0x1862 JUMPI POP PUSH1 0x0 SWAP3 SWAP2 POP POP JUMP JUMPDEST PUSH3 0xD2F00 DUP2 PUSH1 0x6 ADD SLOAD PUSH2 0x1875 SWAP2 SWAP1 PUSH2 0x2A65 JUMP JUMPDEST TIMESTAMP GT ISZERO SWAP4 SWAP3 POP POP POP JUMP JUMPDEST PUSH1 0x1 PUSH1 0x1 PUSH1 0xA0 SHL SUB DUP2 AND PUSH1 0x0 SWAP1 DUP2 MSTORE PUSH1 0x9 PUSH1 0x20 MSTORE PUSH1 0x40 DUP2 KECCAK256 SLOAD DUP2 SUB PUSH2 0x18A6 JUMPI POP PUSH1 0x0 SWAP2 SWAP1 POP JUMP JUMPDEST PUSH1 0x1 PUSH1 0x1 PUSH1 0xA0 SHL SUB DUP3 AND PUSH1 0x0 SWAP1 DUP2 MSTORE PUSH1 0x9 PUSH1 0x20 MSTORE PUSH1 0x40 SWAP1 KECCAK256 SLOAD PUSH2 0x18C8 SWAP1 PUSH2 0x242A JUMP JUMPDEST SWAP3 SWAP2 POP POP JUMP JUMPDEST PUSH1 0x1 PUSH1 0x1 PUSH1 0xA0 SHL SUB DUP2 AND PUSH1 0x0 SWAP1 DUP2 MSTORE PUSH1 0x9 PUSH1 0x20 MSTORE PUSH1 0x40 DUP2 KECCAK256 DUP1 SLOAD ISZERO DUP1 PUSH2 0x18F9 JUMPI POP PUSH1 0x7 DUP2 ADD SLOAD PUSH1 0xFF AND ISZERO JUMPDEST ISZERO PUSH2 0x1907 JUMPI POP PUSH1 0x0 SWAP3 SWAP2 POP POP JUMP JUMPDEST PUSH2 0x1910 DUP2 PUSH2 0x197E JUMP JUMPDEST DUP2 PUSH1 0x2 ADD SLOAD PUSH2 0x191F SWAP2 SWAP1 PUSH2 0x2A65 JUMP JUMPDEST SWAP2 POP PUSH1 0x0 DUP2 PUSH1 0x3 ADD SLOAD DUP3 PUSH1 0x4 ADD SLOAD GT PUSH2 0x1939 JUMPI PUSH1 0x0 PUSH2 0x194D JUMP JUMPDEST DUP2 PUSH1 0x3 ADD SLOAD DUP3 PUSH1 0x4 ADD SLOAD PUSH2 0x194D SWAP2 SWAP1 PUSH2 0x2A78 JUMP JUMPDEST SWAP1 POP DUP1 DUP4 GT ISZERO PUSH2 0x195B JUMPI DUP1 SWAP3 POP JUMPDEST POP POP SWAP2 SWAP1 POP JUMP JUMPDEST PUSH2 0x196A PUSH2 0x2585 JUMP JUMPDEST PUSH1 0x2 PUSH1 0x0 DUP1 MLOAD PUSH1 0x20 PUSH2 0x2B24 DUP4 CODECOPY DUP2 MLOAD SWAP2 MSTORE SSTORE JUMP JUMPDEST PUSH1 0x7 DUP2 ADD SLOAD PUSH1 0x0 SWAP1 PUSH1 0xFF AND ISZERO DUP1 PUSH2 0x1994 JUMPI POP DUP2 SLOAD ISZERO JUMPDEST ISZERO PUSH2 0x19A1 JUMPI POP PUSH1 0x0 SWAP2 SWAP1 POP JUMP JUMPDEST PUSH1 0x1 DUP3 ADD SLOAD TIMESTAMP DUP2 DUP2 GT PUSH2 0x19B8 JUMPI POP PUSH1 0x0 SWAP4 SWAP3 POP POP POP JUMP JUMPDEST PUSH1 0x0 PUSH2 0x19C4 DUP4 DUP4 PUSH2 0x2A78 JUMP JUMPDEST DUP6 SLOAD SWAP1 SWAP2 POP PUSH3 0x76A700 PUSH2 0x19F7 PUSH32 0x0 DUP6 PUSH2 0x2A78 JUMP JUMPDEST LT PUSH2 0x1A32 JUMPI PUSH2 0x1A0B PUSH2 0x2710 PUSH3 0x15180 PUSH2 0x2A4E JUMP JUMPDEST DUP3 PUSH2 0x1A17 PUSH1 0x2D DUP5 PUSH2 0x2A4E JUMP JUMPDEST PUSH2 0x1A21 SWAP2 SWAP1 PUSH2 0x2A4E JUMP JUMPDEST PUSH2 0x1A2B SWAP2 SWAP1 PUSH2 0x2ABA JUMP JUMPDEST SWAP5 POP PUSH2 0x1B99 JUMP JUMPDEST PUSH9 0x878678326EAC900000 DUP2 LT ISZERO PUSH1 0x0 DUP2 PUSH2 0x1A4E JUMPI PUSH2 0x23F PUSH2 0x1A52 JUMP JUMPDEST PUSH2 0x302 JUMPDEST SWAP1 POP PUSH1 0x0 PUSH2 0x1A63 PUSH3 0x93A80 DUP7 PUSH2 0x2ABA JUMP JUMPDEST SWAP1 POP PUSH2 0x2710 DUP2 PUSH2 0x1A73 DUP5 DUP8 PUSH2 0x2A4E JUMP JUMPDEST PUSH2 0x1A7D SWAP2 SWAP1 PUSH2 0x2A4E JUMP JUMPDEST PUSH2 0x1A87 SWAP2 SWAP1 PUSH2 0x2ABA JUMP JUMPDEST SWAP8 POP PUSH1 0x0 PUSH2 0x1A98 DUP3 PUSH3 0x93A80 PUSH2 0x2A4E JUMP JUMPDEST PUSH2 0x1AA2 SWAP1 DUP10 PUSH2 0x2A65 JUMP JUMPDEST SWAP1 POP PUSH1 0x0 JUMPDEST DUP8 DUP3 LT ISZERO PUSH2 0x1B64 JUMPI PUSH1 0x0 PUSH1 0x7 PUSH2 0x1AC0 PUSH3 0x15180 DUP6 PUSH2 0x2ABA JUMP JUMPDEST PUSH2 0x1ACB SWAP1 PUSH1 0x3 PUSH2 0x2A65 JUMP JUMPDEST PUSH2 0x1AD5 SWAP2 SWAP1 PUSH2 0x2AEB JUMP JUMPDEST SWAP1 POP PUSH1 0x0 DUP7 PUSH2 0x1AEC JUMPI PUSH2 0x1AE7 DUP3 PUSH2 0x25B5 JUMP JUMPDEST PUSH2 0x1AF5 JUMP JUMPDEST PUSH2 0x1AF5 DUP3 PUSH2 0x261F JUMP JUMPDEST SWAP1 POP PUSH1 0x0 PUSH2 0x1B06 PUSH3 0x15180 DUP7 PUSH2 0x2ABA JUMP JUMPDEST PUSH2 0x1B11 SWAP1 PUSH1 0x1 PUSH2 0x2A65 JUMP JUMPDEST PUSH2 0x1B1E SWAP1 PUSH3 0x15180 PUSH2 0x2A4E JUMP JUMPDEST SWAP1 POP PUSH1 0x0 DUP2 DUP13 LT PUSH2 0x1B2F JUMPI DUP2 PUSH2 0x1B31 JUMP JUMPDEST DUP12 JUMPDEST SWAP1 POP PUSH1 0x0 PUSH2 0x1B3F DUP8 DUP4 PUSH2 0x2A78 JUMP JUMPDEST SWAP1 POP PUSH2 0x1B4B DUP2 DUP6 PUSH2 0x2A4E JUMP JUMPDEST PUSH2 0x1B55 SWAP1 DUP8 PUSH2 0x2A65 JUMP JUMPDEST SWAP6 POP DUP3 SWAP7 POP POP POP POP POP POP PUSH2 0x1AA7 JUMP JUMPDEST PUSH2 0x1B73 PUSH2 0x2710 PUSH3 0x15180 PUSH2 0x2A4E JUMP JUMPDEST PUSH2 0x1B7D DUP3 DUP9 PUSH2 0x2A4E JUMP JUMPDEST PUSH2 0x1B87 SWAP2 SWAP1 PUSH2 0x2ABA JUMP JUMPDEST PUSH2 0x1B91 SWAP1 DUP12 PUSH2 0x2A65 JUMP JUMPDEST SWAP10 POP POP POP POP POP POP JUMPDEST POP POP POP POP SWAP2 SWAP1 POP JUMP JUMPDEST PUSH2 0x1BAF DUP4 DUP4 DUP4 PUSH1 0x1 PUSH2 0x2689 JUMP JUMPDEST PUSH2 0x8BA JUMPI PUSH1 0x40 MLOAD PUSH4 0x5274AFE7 PUSH1 0xE0 SHL DUP2 MSTORE PUSH1 0x1 PUSH1 0x1 PUSH1 0xA0 SHL SUB DUP5 AND PUSH1 0x4 DUP3 ADD MSTORE PUSH1 0x24 ADD PUSH2 0xEA6 JUMP JUMPDEST DUP1 PUSH2 0x2710 EQ ISZERO DUP1 ISZERO PUSH2 0x1BEB JUMPI POP DUP1 PUSH2 0x1388 EQ ISZERO JUMPDEST DUP1 ISZERO PUSH2 0x1BF9 JUMPI POP DUP1 PUSH2 0x9C4 EQ ISZERO JUMPDEST ISZERO PUSH2 0x1C17 JUMPI PUSH1 0x40 MLOAD PUSH4 0x5C1D07CB PUSH1 0xE0 SHL DUP2 MSTORE PUSH1 0x4 ADD PUSH1 0x40 MLOAD DUP1 SWAP2 SUB SWAP1 REVERT JUMPDEST PUSH1 0x1 PUSH1 0x1 PUSH1 0xA0 SHL SUB DUP3 AND PUSH1 0x0 SWAP1 DUP2 MSTORE PUSH1 0x9 PUSH1 0x20 MSTORE PUSH1 0x40 DUP2 KECCAK256 DUP1 SLOAD SWAP1 SWAP2 SUB PUSH2 0x1C51 JUMPI PUSH1 0x40 MLOAD PUSH4 0x61655153 PUSH1 0xE1 SHL DUP2 MSTORE PUSH1 0x4 ADD PUSH1 0x40 MLOAD DUP1 SWAP2 SUB SWAP1 REVERT JUMPDEST PUSH1 0x7 DUP2 ADD SLOAD PUSH1 0xFF AND PUSH2 0x1C76 JUMPI PUSH1 0x40 MLOAD PUSH4 0xF509B11 PUSH1 0xE0 SHL DUP2 MSTORE PUSH1 0x4 ADD PUSH1 0x40 MLOAD DUP1 SWAP2 SUB SWAP1 REVERT JUMPDEST PUSH3 0xD2F00 DUP2 PUSH1 0x6 ADD SLOAD PUSH2 0x1C89 SWAP2 SWAP1 PUSH2 0x2A65 JUMP JUMPDEST TIMESTAMP GT ISZERO PUSH2 0x1CA9 JUMPI PUSH1 0x40 MLOAD PUSH4 0x693ED15B PUSH1 0xE1 SHL DUP2 MSTORE PUSH1 0x4 ADD PUSH1 0x40 MLOAD DUP1 SWAP2 SUB SWAP1 REVERT JUMPDEST PUSH1 0x0 PUSH2 0x2710 DUP4 DUP4 PUSH1 0x0 ADD SLOAD PUSH2 0x1CBE SWAP2 SWAP1 PUSH2 0x2A4E JUMP JUMPDEST PUSH2 0x1CC8 SWAP2 SWAP1 PUSH2 0x2ABA JUMP JUMPDEST SWAP1 POP PUSH1 0x0 PUSH2 0x2710 PUSH2 0x1CDB PUSH2 0x3E8 DUP5 PUSH2 0x2A4E JUMP JUMPDEST PUSH2 0x1CE5 SWAP2 SWAP1 PUSH2 0x2ABA JUMP JUMPDEST SWAP1 POP PUSH1 0x0 PUSH2 0x2710 DUP6 DUP6 PUSH1 0x3 ADD SLOAD PUSH2 0x1CFC SWAP2 SWAP1 PUSH2 0x2A4E JUMP JUMPDEST PUSH2 0x1D06 SWAP2 SWAP1 PUSH2 0x2ABA JUMP JUMPDEST SWAP1 POP PUSH1 0x0 PUSH2 0x1D14 DUP3 DUP5 PUSH2 0x2A65 JUMP JUMPDEST SWAP1 POP PUSH1 0x0 DUP2 DUP6 GT PUSH2 0x1D26 JUMPI PUSH1 0x0 PUSH2 0x1D30 JUMP JUMPDEST PUSH2 0x1D30 DUP3 DUP7 PUSH2 0x2A78 JUMP JUMPDEST SWAP1 POP DUP7 PUSH2 0x2710 SUB PUSH2 0x1D5D JUMPI PUSH1 0x7 DUP7 ADD DUP1 SLOAD PUSH1 0xFF NOT AND SWAP1 SSTORE PUSH1 0x0 DUP1 DUP8 SSTORE PUSH1 0x2 DUP8 ADD DUP2 SWAP1 SSTORE PUSH1 0x4 DUP8 ADD SSTORE PUSH2 0x1E0F JUMP JUMPDEST PUSH1 0x0 PUSH2 0x1D68 DUP8 PUSH2 0x197E JUMP JUMPDEST SWAP1 POP DUP1 DUP8 PUSH1 0x2 ADD PUSH1 0x0 DUP3 DUP3 SLOAD PUSH2 0x1D7E SWAP2 SWAP1 PUSH2 0x2A65 JUMP JUMPDEST SWAP1 SWAP2 SSTORE POP POP DUP7 SLOAD DUP7 SWAP1 DUP9 SWAP1 PUSH1 0x0 SWAP1 PUSH2 0x1D97 SWAP1 DUP5 SWAP1 PUSH2 0x2A78 JUMP JUMPDEST SWAP3 POP POP DUP2 SWAP1 SSTORE POP DUP4 DUP8 PUSH1 0x3 ADD PUSH1 0x0 DUP3 DUP3 SLOAD PUSH2 0x1DB2 SWAP2 SWAP1 PUSH2 0x2A78 JUMP JUMPDEST SWAP1 SWAP2 SSTORE POP POP DUP7 SLOAD PUSH2 0x1DC5 SWAP1 PUSH1 0x3 SWAP1 PUSH2 0x2A4E JUMP JUMPDEST PUSH1 0x4 DUP9 ADD SSTORE TIMESTAMP PUSH1 0x1 DUP9 ADD SSTORE PUSH1 0x2 DUP8 ADD SLOAD PUSH1 0x0 SWAP1 PUSH2 0x2710 SWAP1 PUSH2 0x1DE7 SWAP1 DUP12 SWAP1 PUSH2 0x2A4E JUMP JUMPDEST PUSH2 0x1DF1 SWAP2 SWAP1 PUSH2 0x2ABA JUMP JUMPDEST SWAP1 POP DUP1 DUP9 PUSH1 0x2 ADD PUSH1 0x0 DUP3 DUP3 SLOAD PUSH2 0x1E07 SWAP2 SWAP1 PUSH2 0x2A78 JUMP JUMPDEST SWAP1 SWAP2 SSTORE POP POP POP POP JUMPDEST DUP5 PUSH1 0xB PUSH1 0x0 DUP3 DUP3 SLOAD PUSH2 0x1E21 SWAP2 SWAP1 PUSH2 0x2A65 JUMP JUMPDEST SWAP1 SWAP2 SSTORE POP POP PUSH1 0x1 SLOAD PUSH1 0x1 PUSH1 0x1 PUSH1 0xA0 SHL SUB AND ISZERO PUSH2 0x1E97 JUMPI PUSH1 0x1 SLOAD PUSH1 0x40 MLOAD PUSH4 0x95CE44B PUSH1 0xE2 SHL DUP2 MSTORE PUSH1 0x1 PUSH1 0x1 PUSH1 0xA0 SHL SUB DUP11 DUP2 AND PUSH1 0x4 DUP4 ADD MSTORE SWAP1 SWAP2 AND SWAP1 PUSH4 0x2573912C SWAP1 PUSH1 0x24 ADD PUSH1 0x0 PUSH1 0x40 MLOAD DUP1 DUP4 SUB DUP2 PUSH1 0x0 DUP8 DUP1 EXTCODESIZE ISZERO DUP1 ISZERO PUSH2 0x1E7E JUMPI PUSH1 0x0 DUP1 REVERT JUMPDEST POP GAS CALL ISZERO DUP1 ISZERO PUSH2 0x1E92 JUMPI RETURNDATASIZE PUSH1 0x0 DUP1 RETURNDATACOPY RETURNDATASIZE PUSH1 0x0 REVERT JUMPDEST POP POP POP POP JUMPDEST DUP1 ISZERO PUSH2 0x2099 JUMPI PUSH1 0x0 DUP1 PUSH1 0x0 SWAP1 SLOAD SWAP1 PUSH2 0x100 EXP SWAP1 DIV PUSH1 0x1 PUSH1 0x1 PUSH1 0xA0 SHL SUB AND PUSH1 0x1 PUSH1 0x1 PUSH1 0xA0 SHL SUB AND PUSH4 0x98D5FDCA PUSH1 0x40 MLOAD DUP2 PUSH4 0xFFFFFFFF AND PUSH1 0xE0 SHL DUP2 MSTORE PUSH1 0x4 ADD PUSH1 0x20 PUSH1 0x40 MLOAD DUP1 DUP4 SUB DUP2 DUP7 GAS STATICCALL ISZERO DUP1 ISZERO PUSH2 0x1EF1 JUMPI RETURNDATASIZE PUSH1 0x0 DUP1 RETURNDATACOPY RETURNDATASIZE PUSH1 0x0 REVERT JUMPDEST POP POP POP POP PUSH1 0x40 MLOAD RETURNDATASIZE PUSH1 0x1F NOT PUSH1 0x1F DUP3 ADD AND DUP3 ADD DUP1 PUSH1 0x40 MSTORE POP DUP2 ADD SWAP1 PUSH2 0x1F15 SWAP2 SWAP1 PUSH2 0x2A8B JUMP JUMPDEST SWAP1 POP DUP1 ISZERO PUSH2 0x2097 JUMPI PUSH1 0x0 DUP2 PUSH2 0x1F32 DUP5 PUSH8 0xDE0B6B3A7640000 PUSH2 0x2A4E JUMP JUMPDEST PUSH2 0x1F3C SWAP2 SWAP1 PUSH2 0x2ABA JUMP JUMPDEST PUSH1 0x40 MLOAD PUSH4 0x70A08231 PUSH1 0xE0 SHL DUP2 MSTORE ADDRESS PUSH1 0x4 DUP3 ADD MSTORE SWAP1 SWAP2 POP PUSH1 0x0 SWAP1 PUSH1 0x1 PUSH1 0x1 PUSH1 0xA0 SHL SUB PUSH32 0x0 AND SWAP1 PUSH4 0x70A08231 SWAP1 PUSH1 0x24 ADD PUSH1 0x20 PUSH1 0x40 MLOAD DUP1 DUP4 SUB DUP2 DUP7 GAS STATICCALL ISZERO DUP1 ISZERO PUSH2 0x1FA6 JUMPI RETURNDATASIZE PUSH1 0x0 DUP1 RETURNDATACOPY RETURNDATASIZE PUSH1 0x0 REVERT JUMPDEST POP POP POP POP PUSH1 0x40 MLOAD RETURNDATASIZE PUSH1 0x1F NOT PUSH1 0x1F DUP3 ADD AND DUP3 ADD DUP1 PUSH1 0x40 MSTORE POP DUP2 ADD SWAP1 PUSH2 0x1FCA SWAP2 SWAP1 PUSH2 0x2A8B JUMP JUMPDEST SWAP1 POP PUSH1 0x0 DUP3 GT DUP1 ISZERO PUSH2 0x1FDC JUMPI POP DUP2 DUP2 LT ISZERO JUMPDEST ISZERO PUSH2 0x2094 JUMPI PUSH1 0x0 SLOAD PUSH2 0x201B SWAP1 PUSH1 0x1 PUSH1 0x1 PUSH1 0xA0 SHL SUB PUSH32 0x0 DUP2 AND SWAP2 AND DUP5 PUSH2 0x23D6 JUMP JUMPDEST PUSH1 0x0 SLOAD PUSH1 0x40 MLOAD PUSH4 0xF843E641 PUSH1 0xE0 SHL DUP2 MSTORE PUSH1 0x4 DUP2 ADD DUP5 SWAP1 MSTORE PUSH1 0x1 PUSH1 0x1 PUSH1 0xA0 SHL SUB DUP14 DUP2 AND PUSH1 0x24 DUP4 ADD MSTORE SWAP1 SWAP2 AND SWAP1 PUSH4 0xF843E641 SWAP1 PUSH1 0x44 ADD PUSH1 0x20 PUSH1 0x40 MLOAD DUP1 DUP4 SUB DUP2 PUSH1 0x0 DUP8 GAS CALL ISZERO DUP1 ISZERO PUSH2 0x206E JUMPI RETURNDATASIZE PUSH1 0x0 DUP1 RETURNDATACOPY RETURNDATASIZE PUSH1 0x0 REVERT JUMPDEST POP POP POP POP PUSH1 0x40 MLOAD RETURNDATASIZE PUSH1 0x1F NOT PUSH1 0x1F DUP3 ADD AND DUP3 ADD DUP1 PUSH1 0x40 MSTORE POP DUP2 ADD SWAP1 PUSH2 0x2092 SWAP2 SWAP1 PUSH2 0x2A8B JUMP JUMPDEST POP JUMPDEST POP POP JUMPDEST POP JUMPDEST PUSH1 0x40 DUP1 MLOAD DUP3 DUP2 MSTORE PUSH1 0x20 DUP2 ADD DUP7 SWAP1 MSTORE SWAP1 DUP2 ADD DUP5 SWAP1 MSTORE PUSH1 0x1 PUSH1 0x1 PUSH1 0xA0 SHL SUB DUP10 AND SWAP1 PUSH32 0xE9843BE128547B50AFD9E4A730FA3E3355384920A468B782535B42945DB27044 SWAP1 PUSH1 0x60 ADD PUSH1 0x40 MLOAD DUP1 SWAP2 SUB SWAP1 LOG2 POP POP POP POP POP POP POP POP JUMP JUMPDEST PUSH2 0x20FD DUP5 DUP5 DUP5 DUP5 PUSH1 0x1 PUSH2 0x26EF JUMP JUMPDEST PUSH2 0x2125 JUMPI PUSH1 0x40 MLOAD PUSH4 0x5274AFE7 PUSH1 0xE0 SHL DUP2 MSTORE PUSH1 0x1 PUSH1 0x1 PUSH1 0xA0 SHL SUB DUP6 AND PUSH1 0x4 DUP3 ADD MSTORE PUSH1 0x24 ADD PUSH2 0xEA6 JUMP JUMPDEST POP POP POP POP JUMP JUMPDEST PUSH1 0x0 DUP1 SLOAD PUSH1 0x40 DUP1 MLOAD PUSH4 0x240BC6B PUSH1 0xE2 SHL DUP2 MSTORE DUP2 MLOAD DUP5 SWAP4 PUSH1 0x1 PUSH1 0x1 PUSH1 0xA0 SHL SUB AND SWAP3 PUSH4 0x902F1AC SWAP3 PUSH1 0x4 DUP1 DUP3 ADD SWAP4 SWAP2 DUP3 SWAP1 SUB ADD DUP2 DUP7 GAS STATICCALL ISZERO DUP1 ISZERO PUSH2 0x2171 JUMPI RETURNDATASIZE PUSH1 0x0 DUP1 RETURNDATACOPY RETURNDATASIZE PUSH1 0x0 REVERT JUMPDEST POP POP POP POP PUSH1 0x40 MLOAD RETURNDATASIZE PUSH1 0x1F NOT PUSH1 0x1F DUP3 ADD AND DUP3 ADD DUP1 PUSH1 0x40 MSTORE POP DUP2 ADD SWAP1 PUSH2 0x2195 SWAP2 SWAP1 PUSH2 0x2AFF JUMP JUMPDEST SWAP2 POP SWAP2 POP PUSH1 0x0 DUP1 DUP4 GT DUP1 ISZERO PUSH2 0x21AA JUMPI POP PUSH1 0x0 DUP3 GT JUMPDEST ISZERO PUSH2 0x21D4 JUMPI PUSH2 0x21B9 DUP5 DUP5 PUSH2 0x2A65 JUMP JUMPDEST PUSH2 0x21C3 DUP4 DUP7 PUSH2 0x2A4E JUMP JUMPDEST PUSH2 0x21CD SWAP2 SWAP1 PUSH2 0x2ABA JUMP JUMPDEST SWAP1 POP PUSH2 0x21D7 JUMP JUMPDEST POP DUP3 JUMPDEST PUSH1 0x0 DUP1 SLOAD PUSH1 0x40 MLOAD PUSH4 0x70A08231 PUSH1 0xE0 SHL DUP2 MSTORE PUSH1 0x1 PUSH1 0x1 PUSH1 0xA0 SHL SUB SWAP2 DUP3 AND PUSH1 0x4 DUP3 ADD MSTORE PUSH32 0x0 SWAP1 SWAP2 AND SWAP1 PUSH4 0x70A08231 SWAP1 PUSH1 0x24 ADD PUSH1 0x20 PUSH1 0x40 MLOAD DUP1 DUP4 SUB DUP2 DUP7 GAS STATICCALL ISZERO DUP1 ISZERO PUSH2 0x2243 JUMPI RETURNDATASIZE PUSH1 0x0 DUP1 RETURNDATACOPY RETURNDATASIZE PUSH1 0x0 REVERT JUMPDEST POP POP POP POP PUSH1 0x40 MLOAD RETURNDATASIZE PUSH1 0x1F NOT PUSH1 0x1F DUP3 ADD AND DUP3 ADD DUP1 PUSH1 0x40 MSTORE POP DUP2 ADD SWAP1 PUSH2 0x2267 SWAP2 SWAP1 PUSH2 0x2A8B JUMP JUMPDEST SWAP1 POP PUSH9 0x3635C9ADC5DEA00000 PUSH2 0x227D DUP2 DUP5 PUSH2 0x2A65 JUMP JUMPDEST DUP3 LT ISZERO PUSH2 0x23CE JUMPI PUSH1 0x0 DUP3 PUSH2 0x2291 DUP4 DUP7 PUSH2 0x2A65 JUMP JUMPDEST PUSH2 0x229B SWAP2 SWAP1 PUSH2 0x2A78 JUMP JUMPDEST PUSH1 0x40 MLOAD PUSH4 0x70A08231 PUSH1 0xE0 SHL DUP2 MSTORE ADDRESS PUSH1 0x4 DUP3 ADD MSTORE SWAP1 SWAP2 POP PUSH1 0x0 SWAP1 PUSH1 0x1 PUSH1 0x1 PUSH1 0xA0 SHL SUB PUSH32 0x0 AND SWAP1 PUSH4 0x70A08231 SWAP1 PUSH1 0x24 ADD PUSH1 0x20 PUSH1 0x40 MLOAD DUP1 DUP4 SUB DUP2 DUP7 GAS STATICCALL ISZERO DUP1 ISZERO PUSH2 0x2305 JUMPI RETURNDATASIZE PUSH1 0x0 DUP1 RETURNDATACOPY RETURNDATASIZE PUSH1 0x0 REVERT JUMPDEST POP POP POP POP PUSH1 0x40 MLOAD RETURNDATASIZE PUSH1 0x1F NOT PUSH1 0x1F DUP3 ADD AND DUP3 ADD DUP1 PUSH1 0x40 MSTORE POP DUP2 ADD SWAP1 PUSH2 0x2329 SWAP2 SWAP1 PUSH2 0x2A8B JUMP JUMPDEST SWAP1 POP DUP2 DUP2 LT PUSH2 0x23CB JUMPI PUSH1 0x0 SLOAD PUSH2 0x236C SWAP1 PUSH1 0x1 PUSH1 0x1 PUSH1 0xA0 SHL SUB PUSH32 0x0 DUP2 AND SWAP2 AND DUP5 PUSH2 0x23D6 JUMP JUMPDEST PUSH1 0x0 SLOAD PUSH1 0x40 MLOAD PUSH4 0x362CE52B PUSH1 0xE0 SHL DUP2 MSTORE PUSH1 0x4 DUP2 ADD DUP5 SWAP1 MSTORE PUSH1 0x1 PUSH1 0x1 PUSH1 0xA0 SHL SUB SWAP1 SWAP2 AND SWAP1 PUSH4 0x362CE52B SWAP1 PUSH1 0x24 ADD PUSH1 0x0 PUSH1 0x40 MLOAD DUP1 DUP4 SUB DUP2 PUSH1 0x0 DUP8 DUP1 EXTCODESIZE ISZERO DUP1 ISZERO PUSH2 0x23B2 JUMPI PUSH1 0x0 DUP1 REVERT JUMPDEST POP GAS CALL ISZERO DUP1 ISZERO PUSH2 0x23C6 JUMPI RETURNDATASIZE PUSH1 0x0 DUP1 RETURNDATACOPY RETURNDATASIZE PUSH1 0x0 REVERT JUMPDEST POP POP POP POP JUMPDEST POP POP JUMPDEST POP POP POP POP POP POP JUMP JUMPDEST PUSH2 0x23E3 DUP4 DUP4 DUP4 PUSH1 0x0 PUSH2 0x2761 JUMP JUMPDEST PUSH2 0x8BA JUMPI PUSH2 0x23F5 DUP4 DUP4 PUSH1 0x0 PUSH1 0x1 PUSH2 0x2761 JUMP JUMPDEST PUSH2 0x241D JUMPI PUSH1 0x40 MLOAD PUSH4 0x5274AFE7 PUSH1 0xE0 SHL DUP2 MSTORE PUSH1 0x1 PUSH1 0x1 PUSH1 0xA0 SHL SUB DUP5 AND PUSH1 0x4 DUP3 ADD MSTORE PUSH1 0x24 ADD PUSH2 0xEA6 JUMP JUMPDEST PUSH2 0x1BAF DUP4 DUP4 DUP4 PUSH1 0x1 PUSH2 0x2761 JUMP JUMPDEST PUSH1 0x0 PUSH9 0x878678326EAC900000 DUP3 LT PUSH2 0x2444 JUMPI POP PUSH1 0x2 SWAP2 SWAP1 POP JUMP JUMPDEST POP PUSH1 0x1 SWAP2 SWAP1 POP JUMP JUMPDEST PUSH1 0x1 SLOAD PUSH1 0x1 PUSH1 0x1 PUSH1 0xA0 SHL SUB AND ISZERO DUP1 PUSH2 0x246D JUMPI POP PUSH1 0x2 SLOAD PUSH1 0x1 PUSH1 0x1 PUSH1 0xA0 SHL SUB AND ISZERO JUMPDEST ISZERO PUSH2 0x2476 JUMPI POP POP JUMP JUMPDEST DUP2 PUSH1 0x0 JUMPDEST PUSH1 0x14 DUP2 LT ISZERO PUSH2 0x2125 JUMPI PUSH1 0x1 SLOAD PUSH1 0x40 MLOAD PUSH4 0x4A9FEFC7 PUSH1 0xE0 SHL DUP2 MSTORE PUSH1 0x1 PUSH1 0x1 PUSH1 0xA0 SHL SUB DUP5 DUP2 AND PUSH1 0x4 DUP4 ADD MSTORE PUSH1 0x0 SWAP3 AND SWAP1 PUSH4 0x4A9FEFC7 SWAP1 PUSH1 0x24 ADD PUSH1 0x20 PUSH1 0x40 MLOAD DUP1 DUP4 SUB DUP2 DUP7 GAS STATICCALL ISZERO DUP1 ISZERO PUSH2 0x24CE JUMPI RETURNDATASIZE PUSH1 0x0 DUP1 RETURNDATACOPY RETURNDATASIZE PUSH1 0x0 REVERT JUMPDEST POP POP POP POP PUSH1 0x40 MLOAD RETURNDATASIZE PUSH1 0x1F NOT PUSH1 0x1F DUP3 ADD AND DUP3 ADD DUP1 PUSH1 0x40 MSTORE POP DUP2 ADD SWAP1 PUSH2 0x24F2 SWAP2 SWAP1 PUSH2 0x2ACE JUMP JUMPDEST SWAP1 POP PUSH1 0x1 PUSH1 0x1 PUSH1 0xA0 SHL SUB DUP2 AND PUSH2 0x2508 JUMPI POP PUSH2 0x2125 JUMP JUMPDEST PUSH1 0x2 SLOAD PUSH1 0x40 MLOAD PUSH4 0xD9BD5F2D PUSH1 0xE0 SHL DUP2 MSTORE PUSH1 0x1 PUSH1 0x1 PUSH1 0xA0 SHL SUB DUP4 DUP2 AND PUSH1 0x4 DUP4 ADD MSTORE DUP6 DUP2 AND PUSH1 0x24 DUP4 ADD MSTORE PUSH1 0x44 DUP3 ADD DUP8 SWAP1 MSTORE SWAP1 SWAP2 AND SWAP1 PUSH4 0xD9BD5F2D SWAP1 PUSH1 0x64 ADD PUSH1 0x0 PUSH1 0x40 MLOAD DUP1 DUP4 SUB DUP2 PUSH1 0x0 DUP8 DUP1 EXTCODESIZE ISZERO DUP1 ISZERO PUSH2 0x255E JUMPI PUSH1 0x0 DUP1 REVERT JUMPDEST POP GAS CALL ISZERO DUP1 ISZERO PUSH2 0x2572 JUMPI RETURNDATASIZE PUSH1 0x0 DUP1 RETURNDATACOPY RETURNDATASIZE PUSH1 0x0 REVERT JUMPDEST POP SWAP3 SWAP5 POP POP PUSH1 0x1 SWAP1 SWAP3 ADD SWAP2 POP PUSH2 0x247A SWAP1 POP JUMP JUMPDEST PUSH1 0x0 DUP1 MLOAD PUSH1 0x20 PUSH2 0x2B24 DUP4 CODECOPY DUP2 MLOAD SWAP2 MSTORE SLOAD PUSH1 0x2 SUB PUSH2 0xE3C JUMPI PUSH1 0x40 MLOAD PUSH4 0x3EE5AEB5 PUSH1 0xE0 SHL DUP2 MSTORE PUSH1 0x4 ADD PUSH1 0x40 MLOAD DUP1 SWAP2 SUB SWAP1 REVERT JUMPDEST PUSH1 0x0 DUP2 PUSH1 0x0 SUB PUSH2 0x25C7 JUMPI POP PUSH1 0x64 SWAP2 SWAP1 POP JUMP JUMPDEST DUP2 PUSH1 0x1 SUB PUSH2 0x25D7 JUMPI POP PUSH1 0x4B SWAP2 SWAP1 POP JUMP JUMPDEST DUP2 PUSH1 0x2 SUB PUSH2 0x25E7 JUMPI POP PUSH1 0x5F SWAP2 SWAP1 POP JUMP JUMPDEST DUP2 PUSH1 0x3 SUB PUSH2 0x25F7 JUMPI POP PUSH1 0x41 SWAP2 SWAP1 POP JUMP JUMPDEST DUP2 PUSH1 0x4 SUB PUSH2 0x2607 JUMPI POP PUSH1 0x64 SWAP2 SWAP1 POP JUMP JUMPDEST DUP2 PUSH1 0x5 SUB PUSH2 0x2617 JUMPI POP PUSH1 0x55 SWAP2 SWAP1 POP JUMP JUMPDEST POP PUSH1 0x37 SWAP2 SWAP1 POP JUMP JUMPDEST PUSH1 0x0 DUP2 PUSH1 0x0 SUB PUSH2 0x2631 JUMPI POP PUSH1 0x73 SWAP2 SWAP1 POP JUMP JUMPDEST DUP2 PUSH1 0x1 SUB PUSH2 0x2641 JUMPI POP PUSH1 0x64 SWAP2 SWAP1 POP JUMP JUMPDEST DUP2 PUSH1 0x2 SUB PUSH2 0x2651 JUMPI POP PUSH1 0x73 SWAP2 SWAP1 POP JUMP JUMPDEST DUP2 PUSH1 0x3 SUB PUSH2 0x2661 JUMPI POP PUSH1 0x6E SWAP2 SWAP1 POP JUMP JUMPDEST DUP2 PUSH1 0x4 SUB PUSH2 0x2671 JUMPI POP PUSH1 0x69 SWAP2 SWAP1 POP JUMP JUMPDEST DUP2 PUSH1 0x5 SUB PUSH2 0x2681 JUMPI POP PUSH1 0x64 SWAP2 SWAP1 POP JUMP JUMPDEST POP PUSH1 0x7D SWAP2 SWAP1 POP JUMP JUMPDEST PUSH1 0x40 MLOAD PUSH4 0xA9059CBB PUSH1 0xE0 SHL PUSH1 0x0 DUP2 DUP2 MSTORE PUSH1 0x1 PUSH1 0x1 PUSH1 0xA0 SHL SUB DUP7 AND PUSH1 0x4 MSTORE PUSH1 0x24 DUP6 SWAP1 MSTORE SWAP2 PUSH1 0x20 DUP4 PUSH1 0x44 DUP2 DUP1 DUP12 GAS CALL SWAP3 POP PUSH1 0x1 PUSH1 0x0 MLOAD EQ DUP4 AND PUSH2 0x26E3 JUMPI DUP4 DUP4 ISZERO AND ISZERO PUSH2 0x26D6 JUMPI RETURNDATASIZE PUSH1 0x0 DUP3 RETURNDATACOPY RETURNDATASIZE DUP2 REVERT JUMPDEST PUSH1 0x0 DUP8 EXTCODESIZE GT RETURNDATASIZE ISZERO AND DUP4 AND SWAP3 POP JUMPDEST PUSH1 0x40 MSTORE POP SWAP5 SWAP4 POP POP POP POP JUMP JUMPDEST PUSH1 0x40 MLOAD PUSH4 0x23B872DD PUSH1 0xE0 SHL PUSH1 0x0 DUP2 DUP2 MSTORE PUSH1 0x1 PUSH1 0x1 PUSH1 0xA0 SHL SUB DUP8 DUP2 AND PUSH1 0x4 MSTORE DUP7 AND PUSH1 0x24 MSTORE PUSH1 0x44 DUP6 SWAP1 MSTORE SWAP2 PUSH1 0x20 DUP4 PUSH1 0x64 DUP2 DUP1 DUP13 GAS CALL SWAP3 POP PUSH1 0x1 PUSH1 0x0 MLOAD EQ DUP4 AND PUSH2 0x274F JUMPI DUP4 DUP4 ISZERO AND ISZERO PUSH2 0x2742 JUMPI RETURNDATASIZE PUSH1 0x0 DUP3 RETURNDATACOPY RETURNDATASIZE DUP2 REVERT JUMPDEST PUSH1 0x0 DUP9 EXTCODESIZE GT RETURNDATASIZE ISZERO AND DUP4 AND SWAP3 POP JUMPDEST PUSH1 0x40 MSTORE POP PUSH1 0x0 PUSH1 0x60 MSTORE SWAP6 SWAP5 POP POP POP POP POP JUMP JUMPDEST PUSH1 0x40 MLOAD PUSH4 0x95EA7B3 PUSH1 0xE0 SHL PUSH1 0x0 DUP2 DUP2 MSTORE PUSH1 0x1 PUSH1 0x1 PUSH1 0xA0 SHL SUB DUP7 AND PUSH1 0x4 MSTORE PUSH1 0x24 DUP6 SWAP1 MSTORE SWAP2 PUSH1 0x20 DUP4 PUSH1 0x44 DUP2 DUP1 DUP12 GAS CALL SWAP3 POP PUSH1 0x1 PUSH1 0x0 MLOAD EQ DUP4 AND PUSH2 0x26E3 JUMPI DUP4 DUP4 ISZERO AND ISZERO PUSH2 0x26D6 JUMPI RETURNDATASIZE PUSH1 0x0 DUP3 RETURNDATACOPY RETURNDATASIZE DUP2 REVERT JUMPDEST PUSH1 0x1 PUSH1 0x1 PUSH1 0xA0 SHL SUB DUP2 AND DUP2 EQ PUSH2 0x11F0 JUMPI PUSH1 0x0 DUP1 REVERT JUMPDEST PUSH1 0x0 PUSH1 0x20 DUP3 DUP5 SUB SLT ISZERO PUSH2 0x27D5 JUMPI PUSH1 0x0 DUP1 REVERT JUMPDEST DUP2 CALLDATALOAD PUSH2 0x27E0 DUP2 PUSH2 0x27AE JUMP JUMPDEST SWAP4 SWAP3 POP POP POP JUMP JUMPDEST PUSH1 0x0 PUSH1 0x20 DUP3 DUP5 SUB SLT ISZERO PUSH2 0x27F9 JUMPI PUSH1 0x0 DUP1 REVERT JUMPDEST DUP2 CALLDATALOAD DUP1 ISZERO ISZERO DUP2 EQ PUSH2 0x27E0 JUMPI PUSH1 0x0 DUP1 REVERT JUMPDEST PUSH1 0x0 DUP1 PUSH1 0x0 PUSH1 0x60 DUP5 DUP7 SUB SLT ISZERO PUSH2 0x281E JUMPI PUSH1 0x0 DUP1 REVERT JUMPDEST DUP4 CALLDATALOAD PUSH2 0x2829 DUP2 PUSH2 0x27AE JUMP JUMPDEST SWAP3 POP PUSH1 0x20 DUP5 ADD CALLDATALOAD PUSH2 0x2839 DUP2 PUSH2 0x27AE JUMP JUMPDEST SWAP2 POP PUSH1 0x40 DUP5 ADD CALLDATALOAD PUSH2 0x2849 DUP2 PUSH2 0x27AE JUMP JUMPDEST DUP1 SWAP2 POP POP SWAP3 POP SWAP3 POP SWAP3 JUMP JUMPDEST PUSH1 0x0 DUP1 PUSH1 0x20 DUP4 DUP6 SUB SLT ISZERO PUSH2 0x2867 JUMPI PUSH1 0x0 DUP1 REVERT JUMPDEST DUP3 CALLDATALOAD PUSH8 0xFFFFFFFFFFFFFFFF DUP1 DUP3 GT ISZERO PUSH2 0x287F JUMPI PUSH1 0x0 DUP1 REVERT JUMPDEST DUP2 DUP6 ADD SWAP2 POP DUP6 PUSH1 0x1F DUP4 ADD SLT PUSH2 0x2893 JUMPI PUSH1 0x0 DUP1 REVERT JUMPDEST DUP2 CALLDATALOAD DUP2 DUP2 GT ISZERO PUSH2 0x28A2 JUMPI PUSH1 0x0 DUP1 REVERT JUMPDEST DUP7 PUSH1 0x20 PUSH1 0xC0 DUP4 MUL DUP6 ADD ADD GT ISZERO PUSH2 0x28B7 JUMPI PUSH1 0x0 DUP1 REVERT JUMPDEST PUSH1 0x20 SWAP3 SWAP1 SWAP3 ADD SWAP7 SWAP2 SWAP6 POP SWAP1 SWAP4 POP POP POP POP JUMP JUMPDEST PUSH1 0x0 DUP1 DUP4 PUSH1 0x1F DUP5 ADD SLT PUSH2 0x28DB JUMPI PUSH1 0x0 DUP1 REVERT JUMPDEST POP DUP2 CALLDATALOAD PUSH8 0xFFFFFFFFFFFFFFFF DUP2 GT ISZERO PUSH2 0x28F3 JUMPI PUSH1 0x0 DUP1 REVERT JUMPDEST PUSH1 0x20 DUP4 ADD SWAP2 POP DUP4 PUSH1 0x20 DUP3 PUSH1 0x5 SHL DUP6 ADD ADD GT ISZERO PUSH2 0x290E JUMPI PUSH1 0x0 DUP1 REVERT JUMPDEST SWAP3 POP SWAP3 SWAP1 POP JUMP JUMPDEST PUSH1 0x0 DUP1 PUSH1 0x0 DUP1 PUSH1 0x40 DUP6 DUP8 SUB SLT ISZERO PUSH2 0x292B JUMPI PUSH1 0x0 DUP1 REVERT JUMPDEST DUP5 CALLDATALOAD PUSH8 0xFFFFFFFFFFFFFFFF DUP1 DUP3 GT ISZERO PUSH2 0x2943 JUMPI PUSH1 0x0 DUP1 REVERT JUMPDEST PUSH2 0x294F DUP9 DUP4 DUP10 ADD PUSH2 0x28C9 JUMP JUMPDEST SWAP1 SWAP7 POP SWAP5 POP PUSH1 0x20 DUP8 ADD CALLDATALOAD SWAP2 POP DUP1 DUP3 GT ISZERO PUSH2 0x2968 JUMPI PUSH1 0x0 DUP1 REVERT JUMPDEST POP PUSH2 0x2975 DUP8 DUP3 DUP9 ADD PUSH2 0x28C9 JUMP JUMPDEST SWAP6 SWAP9 SWAP5 SWAP8 POP SWAP6 POP POP POP POP JUMP JUMPDEST PUSH1 0x0 PUSH1 0x20 DUP3 DUP5 SUB SLT ISZERO PUSH2 0x2993 JUMPI PUSH1 0x0 DUP1 REVERT JUMPDEST POP CALLDATALOAD SWAP2 SWAP1 POP JUMP JUMPDEST PUSH1 0x0 DUP1 PUSH1 0x0 DUP1 PUSH1 0x80 DUP6 DUP8 SUB SLT ISZERO PUSH2 0x29B0 JUMPI PUSH1 0x0 DUP1 REVERT JUMPDEST DUP5 CALLDATALOAD PUSH2 0x29BB DUP2 PUSH2 0x27AE JUMP JUMPDEST SWAP4 POP PUSH1 0x20 DUP6 ADD CALLDATALOAD PUSH2 0x29CB DUP2 PUSH2 0x27AE JUMP JUMPDEST SWAP3 POP PUSH1 0x40 DUP6 ADD CALLDATALOAD PUSH2 0x29DB DUP2 PUSH2 0x27AE JUMP JUMPDEST SWAP2 POP PUSH1 0x60 DUP6 ADD CALLDATALOAD PUSH2 0x29EB DUP2 PUSH2 0x27AE JUMP JUMPDEST SWAP4 SWAP7 SWAP3 SWAP6 POP SWAP1 SWAP4 POP POP JUMP JUMPDEST PUSH1 0x0 DUP1 PUSH1 0x40 DUP4 DUP6 SUB SLT ISZERO PUSH2 0x2A09 JUMPI PUSH1 0x0 DUP1 REVERT JUMPDEST DUP3 CALLDATALOAD PUSH2 0x2A14 DUP2 PUSH2 0x27AE JUMP JUMPDEST SWAP5 PUSH1 0x20 SWAP4 SWAP1 SWAP4 ADD CALLDATALOAD SWAP4 POP POP POP JUMP JUMPDEST PUSH4 0x4E487B71 PUSH1 0xE0 SHL PUSH1 0x0 MSTORE PUSH1 0x32 PUSH1 0x4 MSTORE PUSH1 0x24 PUSH1 0x0 REVERT JUMPDEST PUSH4 0x4E487B71 PUSH1 0xE0 SHL PUSH1 0x0 MSTORE PUSH1 0x11 PUSH1 0x4 MSTORE PUSH1 0x24 PUSH1 0x0 REVERT JUMPDEST DUP1 DUP3 MUL DUP2 ISZERO DUP3 DUP3 DIV DUP5 EQ OR PUSH2 0x18C8 JUMPI PUSH2 0x18C8 PUSH2 0x2A38 JUMP JUMPDEST DUP1 DUP3 ADD DUP1 DUP3 GT ISZERO PUSH2 0x18C8 JUMPI PUSH2 0x18C8 PUSH2 0x2A38 JUMP JUMPDEST DUP2 DUP2 SUB DUP2 DUP2 GT ISZERO PUSH2 0x18C8 JUMPI PUSH2 0x18C8 PUSH2 0x2A38 JUMP JUMPDEST PUSH1 0x0 PUSH1 0x20 DUP3 DUP5 SUB SLT ISZERO PUSH2 0x2A9D JUMPI PUSH1 0x0 DUP1 REVERT JUMPDEST POP MLOAD SWAP2 SWAP1 POP JUMP JUMPDEST PUSH4 0x4E487B71 PUSH1 0xE0 SHL PUSH1 0x0 MSTORE PUSH1 0x12 PUSH1 0x4 MSTORE PUSH1 0x24 PUSH1 0x0 REVERT JUMPDEST PUSH1 0x0 DUP3 PUSH2 0x2AC9 JUMPI PUSH2 0x2AC9 PUSH2 0x2AA4 JUMP JUMPDEST POP DIV SWAP1 JUMP JUMPDEST PUSH1 0x0 PUSH1 0x20 DUP3 DUP5 SUB SLT ISZERO PUSH2 0x2AE0 JUMPI PUSH1 0x0 DUP1 REVERT JUMPDEST DUP2 MLOAD PUSH2 0x27E0 DUP2 PUSH2 0x27AE JUMP JUMPDEST PUSH1 0x0 DUP3 PUSH2 0x2AFA JUMPI PUSH2 0x2AFA PUSH2 0x2AA4 JUMP JUMPDEST POP MOD SWAP1 JUMP JUMPDEST PUSH1 0x0 DUP1 PUSH1 0x40 DUP4 DUP6 SUB SLT ISZERO PUSH2 0x2B12 JUMPI PUSH1 0x0 DUP1 REVERT JUMPDEST POP POP DUP1 MLOAD PUSH1 0x20 SWAP1 SWAP2 ADD MLOAD SWAP1 SWAP3 SWAP1 SWAP2 POP JUMP INVALID SWAP12 PUSH24 0x9B17422D0DF92223018B32B4D1FA46E071723D6817E2486D STOP EXTCODESIZE 0xEC 0xC5 PUSH0 STOP LOG2 PUSH5 0x6970667358 0x22 SLT KECCAK256 SHL 0xBC 0xCD 0x2F CALL SHR BALANCE 0x21 0xD0 0xAD GAS PUSH20 0xBEC8951E3802931EC3D4571455E5CA8185BC0345 PUSH5 0x736F6C6343 STOP ADDMOD XOR STOP CALLER "},"methodIdentifiers":{"admin()":"f851a440","claimRewards()":"372500ab","companyWallet()":"1ec32d15","completeSetup()":"8aea8f71","configure(address,address,address,address)":"5acb5082","deposit(uint256)":"b6b55f25","depositsPaused()":"60da3e83","earlyExit()":"a4dee155","getActiveDeposit(address)":"142a3da3","getCombinedEarnings(address)":"3a6f2dcd","getPendingRewards(address)":"f6ed2017","getUserPool(address)":"107a4802","getUserTier(address)":"e4d2620e","isInEarlyExitPeriod(address)":"e3bd35e3","launchTimestamp()":"65cf7c9b","migrateCombinedEarnings(address[],uint256[])":"37914a07","migrateConsolidated((address,uint256,uint256,uint256,uint256,uint256)[])":"2955440e","minClaimThreshold()":"3695dad1","notifyLevelIncome(address,uint256)":"6b9f7ab6","notifyRankBonus(address,uint256)":"ac948e83","osloDex()":"8565c2bf","osloToken()":"2acfbca3","partialEarlyExit(uint256)":"a470803d","performanceWallet()":"b12cd625","rankSystem()":"e9a16bd5","referral()":"1441a5a9","rewardWallet()":"fb75b2c7","setDepositsPaused(bool)":"1c481e2d","setMinClaimThreshold(uint256)":"51637ba9","setReferral(address)":"9e5914da","setRewardWallets(address,address,address)":"1d687f0c","setupComplete()":"b6635be6","timelock()":"d33219b4","totalDeposited()":"ff50abdc","totalRewardsPaid()":"74958e35","totalWithdrawn()":"4b319713","usdt()":"2f48ab7d","userPools(address)":"33049e0e"}}}}}