{"contracts/OSLOInvestmentEngine.sol":{"OSLOInvestmentEngine":{"abi":[{"inputs":[{"internalType":"address","name":"_usdt","type":"address"},{"internalType":"address","name":"_osloToken","type":"address"},{"internalType":"uint256","name":"_launchTimestamp","type":"uint256"}],"stateMutability":"nonpayable","type":"constructor"},{"inputs":[],"name":"BelowWithdrawalThreshold","type":"error"},{"inputs":[],"name":"DEXNotPriced","type":"error"},{"inputs":[],"name":"DepositCapped","type":"error"},{"inputs":[],"name":"DepositTooHigh","type":"error"},{"inputs":[],"name":"DepositTooLow","type":"error"},{"inputs":[],"name":"DepositsPausedError","type":"error"},{"inputs":[],"name":"InsufficientOsloReserve","type":"error"},{"inputs":[],"name":"InsufficientUSDTReserve","type":"error"},{"inputs":[],"name":"InvalidDeposit","type":"error"},{"inputs":[],"name":"InvalidExitPercentage","type":"error"},{"inputs":[],"name":"NotConfigured","type":"error"},{"inputs":[],"name":"NotInEarlyExitPeriod","type":"error"},{"inputs":[],"name":"NothingToClaim","type":"error"},{"inputs":[],"name":"OnlyAdmin","type":"error"},{"inputs":[],"name":"OnlyRankSystem","type":"error"},{"inputs":[],"name":"OnlyReferral","type":"error"},{"inputs":[],"name":"OnlyTimelock","type":"error"},{"inputs":[],"name":"ReentrancyGuardReentrantCall","type":"error"},{"inputs":[{"internalType":"address","name":"token","type":"address"}],"name":"SafeERC20FailedOperation","type":"error"},{"inputs":[],"name":"SetupAlreadyComplete","type":"error"},{"inputs":[],"name":"ZeroAddress","type":"error"},{"anonymous":false,"inputs":[{"indexed":true,"internalType":"address","name":"user","type":"address"}],"name":"CombinedCapReached","type":"event"},{"anonymous":false,"inputs":[{"indexed":true,"internalType":"address","name":"user","type":"address"},{"indexed":false,"internalType":"uint256","name":"totalCombined","type":"uint256"}],"name":"CombinedEarningsUpdated","type":"event"},{"anonymous":false,"inputs":[{"indexed":true,"internalType":"address","name":"user","type":"address"},{"indexed":false,"internalType":"uint256","name":"amount","type":"uint256"},{"indexed":false,"internalType":"uint256","name":"tier","type":"uint256"},{"indexed":false,"internalType":"uint256","name":"dailyRate","type":"uint256"},{"indexed":false,"internalType":"uint256","name":"depositIndex","type":"uint256"}],"name":"Deposited","type":"event"},{"anonymous":false,"inputs":[{"indexed":false,"internalType":"bool","name":"paused","type":"bool"}],"name":"DepositsPaused","type":"event"},{"anonymous":false,"inputs":[{"indexed":true,"internalType":"address","name":"user","type":"address"},{"indexed":false,"internalType":"uint256","name":"amountReturned","type":"uint256"},{"indexed":false,"internalType":"uint256","name":"feeDeducted","type":"uint256"},{"indexed":false,"internalType":"uint256","name":"yieldDeducted","type":"uint256"},{"indexed":false,"internalType":"uint256","name":"depositIndex","type":"uint256"}],"name":"EarlyExited","type":"event"},{"anonymous":false,"inputs":[{"indexed":true,"internalType":"address","name":"user","type":"address"},{"indexed":false,"internalType":"uint256","name":"netPrincipal","type":"uint256"},{"indexed":false,"internalType":"uint256","name":"depositIndex","type":"uint256"}],"name":"PrincipalWithdrawn","type":"event"},{"anonymous":false,"inputs":[{"indexed":true,"internalType":"address","name":"oldReferral","type":"address"},{"indexed":true,"internalType":"address","name":"newReferral","type":"address"}],"name":"ReferralUpdated","type":"event"},{"anonymous":false,"inputs":[{"indexed":true,"internalType":"address","name":"user","type":"address"},{"indexed":false,"internalType":"uint256","name":"usdtReward","type":"uint256"},{"indexed":false,"internalType":"uint256","name":"osloAmount","type":"uint256"},{"indexed":false,"internalType":"uint256","name":"depositIndex","type":"uint256"}],"name":"RewardsClaimed","type":"event"},{"inputs":[],"name":"admin","outputs":[{"internalType":"address","name":"","type":"address"}],"stateMutability":"view","type":"function"},{"inputs":[{"internalType":"uint256","name":"depositIndex","type":"uint256"}],"name":"claimRewards","outputs":[],"stateMutability":"nonpayable","type":"function"},{"inputs":[],"name":"companyWallet","outputs":[{"internalType":"address","name":"","type":"address"}],"stateMutability":"view","type":"function"},{"inputs":[],"name":"completeSetup","outputs":[],"stateMutability":"nonpayable","type":"function"},{"inputs":[{"internalType":"address","name":"_treasury","type":"address"},{"internalType":"address","name":"_referral","type":"address"},{"internalType":"address","name":"_rankSystem","type":"address"},{"internalType":"address","name":"_osloDex","type":"address"},{"internalType":"address","name":"_timelock","type":"address"}],"name":"configure","outputs":[],"stateMutability":"nonpayable","type":"function"},{"inputs":[{"internalType":"uint256","name":"amount","type":"uint256"}],"name":"deposit","outputs":[],"stateMutability":"nonpayable","type":"function"},{"inputs":[],"name":"depositsPaused","outputs":[{"internalType":"bool","name":"","type":"bool"}],"stateMutability":"view","type":"function"},{"inputs":[{"internalType":"uint256","name":"depositIndex","type":"uint256"}],"name":"earlyExit","outputs":[],"stateMutability":"nonpayable","type":"function"},{"inputs":[{"internalType":"address","name":"user","type":"address"}],"name":"getActiveDeposit","outputs":[{"internalType":"uint256","name":"","type":"uint256"}],"stateMutability":"view","type":"function"},{"inputs":[{"internalType":"address","name":"user","type":"address"}],"name":"getCombinedEarnings","outputs":[{"internalType":"uint256","name":"","type":"uint256"}],"stateMutability":"view","type":"function"},{"inputs":[{"internalType":"address","name":"user","type":"address"}],"name":"getDepositCount","outputs":[{"internalType":"uint256","name":"","type":"uint256"}],"stateMutability":"view","type":"function"},{"inputs":[{"internalType":"address","name":"user","type":"address"},{"internalType":"uint256","name":"depositIndex","type":"uint256"}],"name":"getEarlyExitAmount","outputs":[{"internalType":"uint256","name":"principal","type":"uint256"},{"internalType":"uint256","name":"accruedYield","type":"uint256"},{"internalType":"uint256","name":"exitFee","type":"uint256"},{"internalType":"uint256","name":"netReturn","type":"uint256"}],"stateMutability":"view","type":"function"},{"inputs":[{"internalType":"address","name":"user","type":"address"},{"internalType":"uint256","name":"depositIndex","type":"uint256"},{"internalType":"uint256","name":"percentageBp","type":"uint256"}],"name":"getPartialEarlyExitAmount","outputs":[{"internalType":"uint256","name":"exitAmount","type":"uint256"},{"internalType":"uint256","name":"exitFee","type":"uint256"},{"internalType":"uint256","name":"netReturn","type":"uint256"},{"internalType":"uint256","name":"remainingBalance","type":"uint256"}],"stateMutability":"view","type":"function"},{"inputs":[{"internalType":"address","name":"user","type":"address"},{"internalType":"uint256","name":"depositIndex","type":"uint256"}],"name":"getPendingRewards","outputs":[{"internalType":"uint256","name":"pendingUSDT","type":"uint256"}],"stateMutability":"view","type":"function"},{"inputs":[{"internalType":"address","name":"user","type":"address"},{"internalType":"uint256","name":"depositIndex","type":"uint256"}],"name":"getTrialTimeRemaining","outputs":[{"internalType":"uint256","name":"","type":"uint256"}],"stateMutability":"view","type":"function"},{"inputs":[{"internalType":"address","name":"user","type":"address"}],"name":"getUserTier","outputs":[{"internalType":"uint256","name":"","type":"uint256"}],"stateMutability":"view","type":"function"},{"inputs":[{"internalType":"address","name":"user","type":"address"},{"internalType":"uint256","name":"depositIndex","type":"uint256"}],"name":"isInEarlyExitPeriod","outputs":[{"internalType":"bool","name":"","type":"bool"}],"stateMutability":"view","type":"function"},{"inputs":[{"internalType":"address","name":"user","type":"address"},{"internalType":"uint256","name":"depositIndex","type":"uint256"}],"name":"isInTrialPeriod","outputs":[{"internalType":"bool","name":"","type":"bool"}],"stateMutability":"view","type":"function"},{"inputs":[],"name":"launchTimestamp","outputs":[{"internalType":"uint256","name":"","type":"uint256"}],"stateMutability":"view","type":"function"},{"inputs":[{"internalType":"address[]","name":"_users","type":"address[]"},{"internalType":"uint256[]","name":"_amounts","type":"uint256[]"}],"name":"migrateCombinedEarnings","outputs":[],"stateMutability":"nonpayable","type":"function"},{"inputs":[{"components":[{"internalType":"address","name":"owner","type":"address"},{"internalType":"uint256","name":"amount","type":"uint256"},{"internalType":"uint256","name":"tier","type":"uint256"},{"internalType":"uint256","name":"dailyRate","type":"uint256"},{"internalType":"uint256","name":"depositTime","type":"uint256"},{"internalType":"uint256","name":"lastClaimTime","type":"uint256"},{"internalType":"uint256","name":"totalClaimed","type":"uint256"},{"internalType":"uint256","name":"maxReturn","type":"uint256"}],"internalType":"struct OSLOInvestmentEngine.DepositMigration[]","name":"entries","type":"tuple[]"}],"name":"migrateDeposits","outputs":[],"stateMutability":"nonpayable","type":"function"},{"inputs":[],"name":"minClaimThreshold","outputs":[{"internalType":"uint256","name":"","type":"uint256"}],"stateMutability":"view","type":"function"},{"inputs":[{"internalType":"address","name":"user","type":"address"},{"internalType":"uint256","name":"amount","type":"uint256"}],"name":"notifyLevelIncome","outputs":[],"stateMutability":"nonpayable","type":"function"},{"inputs":[{"internalType":"address","name":"user","type":"address"},{"internalType":"uint256","name":"amount","type":"uint256"}],"name":"notifyRankBonus","outputs":[],"stateMutability":"nonpayable","type":"function"},{"inputs":[],"name":"osloDex","outputs":[{"internalType":"address","name":"","type":"address"}],"stateMutability":"view","type":"function"},{"inputs":[],"name":"osloToken","outputs":[{"internalType":"contract IERC20","name":"","type":"address"}],"stateMutability":"view","type":"function"},{"inputs":[{"internalType":"uint256","name":"depositIndex","type":"uint256"},{"internalType":"uint256","name":"percentageBp","type":"uint256"}],"name":"partialEarlyExit","outputs":[],"stateMutability":"nonpayable","type":"function"},{"inputs":[],"name":"performanceWallet","outputs":[{"internalType":"address","name":"","type":"address"}],"stateMutability":"view","type":"function"},{"inputs":[],"name":"rankSystem","outputs":[{"internalType":"address","name":"","type":"address"}],"stateMutability":"view","type":"function"},{"inputs":[],"name":"referral","outputs":[{"internalType":"address","name":"","type":"address"}],"stateMutability":"view","type":"function"},{"inputs":[],"name":"rewardWallet","outputs":[{"internalType":"address","name":"","type":"address"}],"stateMutability":"view","type":"function"},{"inputs":[{"internalType":"bool","name":"_paused","type":"bool"}],"name":"setDepositsPaused","outputs":[],"stateMutability":"nonpayable","type":"function"},{"inputs":[{"internalType":"uint256","name":"_threshold","type":"uint256"}],"name":"setMinClaimThreshold","outputs":[],"stateMutability":"nonpayable","type":"function"},{"inputs":[{"internalType":"address","name":"_referral","type":"address"}],"name":"setReferral","outputs":[],"stateMutability":"nonpayable","type":"function"},{"inputs":[{"internalType":"address","name":"_rewardWallet","type":"address"},{"internalType":"address","name":"_companyWallet","type":"address"},{"internalType":"address","name":"_performanceWallet","type":"address"}],"name":"setRewardWallets","outputs":[],"stateMutability":"nonpayable","type":"function"},{"inputs":[],"name":"setupComplete","outputs":[{"internalType":"bool","name":"","type":"bool"}],"stateMutability":"view","type":"function"},{"inputs":[],"name":"timelock","outputs":[{"internalType":"address","name":"","type":"address"}],"stateMutability":"view","type":"function"},{"inputs":[],"name":"totalDeposited","outputs":[{"internalType":"uint256","name":"","type":"uint256"}],"stateMutability":"view","type":"function"},{"inputs":[],"name":"totalRewardsPaid","outputs":[{"internalType":"uint256","name":"","type":"uint256"}],"stateMutability":"view","type":"function"},{"inputs":[],"name":"totalWithdrawn","outputs":[{"internalType":"uint256","name":"","type":"uint256"}],"stateMutability":"view","type":"function"},{"inputs":[],"name":"treasury","outputs":[{"internalType":"address","name":"","type":"address"}],"stateMutability":"view","type":"function"},{"inputs":[],"name":"usdt","outputs":[{"internalType":"contract IERC20","name":"","type":"address"}],"stateMutability":"view","type":"function"},{"inputs":[{"internalType":"address","name":"","type":"address"},{"internalType":"uint256","name":"","type":"uint256"}],"name":"userDeposits","outputs":[{"internalType":"uint256","name":"amount","type":"uint256"},{"internalType":"uint256","name":"tier","type":"uint256"},{"internalType":"uint256","name":"dailyRate","type":"uint256"},{"internalType":"uint256","name":"depositTime","type":"uint256"},{"internalType":"uint256","name":"lastClaimTime","type":"uint256"},{"internalType":"uint256","name":"totalClaimed","type":"uint256"},{"internalType":"uint256","name":"maxReturn","type":"uint256"},{"internalType":"bool","name":"active","type":"bool"}],"stateMutability":"view","type":"function"},{"inputs":[{"internalType":"address","name":"","type":"address"}],"name":"users","outputs":[{"internalType":"uint256","name":"totalActiveDeposit","type":"uint256"},{"internalType":"uint256","name":"depositCount","type":"uint256"},{"internalType":"uint256","name":"totalCombinedEarnings","type":"uint256"},{"internalType":"bool","name":"earlyExitExpired","type":"bool"}],"stateMutability":"view","type":"function"}],"evm":{"bytecode":{"linkReferences":{},"object":"60e0604052670de0b6b3a76400006006553480156200001d57600080fd5b50604051620036f6380380620036f68339810160408190526200004091620000ec565b60017f9b779b17422d0df92223018b32b4d1fa46e071723d6817e2486d003becc55f00556001600160a01b03831615806200008257506001600160a01b038216155b15620000a15760405163d92e233d60e01b815260040160405180910390fd5b6001600160a01b03928316608052911660a05260c052600480546001600160a01b031916331790556200012d565b80516001600160a01b0381168114620000e757600080fd5b919050565b6000806000606084860312156200010257600080fd5b6200010d84620000cf565b92506200011d60208501620000cf565b9150604084015190509250925092565b60805160a05160c051613514620001e2600039600081816104a8015281816124820152612cd90152600081816103ac0152818161091101528181610a4b01528181610b9901528181610c2501528181611a3001528181611ba401528181611c2901528181612a8e0152612b1a0152600081816103d30152818161187b0152818161194a01528181611984015281816119be01528181611cc8015281816129000152818161298901526129c801526135146000f3fe608060405234801561001057600080fd5b50600436106102745760003560e01c8063786685e011610151578063b6b55f25116100c3578063e4e7c6b411610087578063e4e7c6b414610686578063e5c473e014610699578063e9a16bd5146106ac578063f851a440146106bf578063fb75b2c7146106d2578063ff50abdc146106e557600080fd5b8063b6b55f2514610627578063b8af3d3e1461063a578063ceace7dd1461064d578063d33219b414610660578063e4d2620e1461067357600080fd5b80639e5914da116101155780639e5914da1461054d578063a87430ba14610560578063aa9cc818146105ba578063ac948e83146105ed578063b12cd62514610600578063b6635be61461061357600080fd5b8063786685e0146104f957806384b273f61461050c5780638565c2bf1461051f5780638aea8f71146105325780638fb1bb501461053a57600080fd5b806337914a07116101ea57806360da3e83116101ae57806360da3e831461046c57806361d027b31461049057806365cf7c9b146104a35780636b9f7ab6146104ca57806374958e35146104dd578063760fcb3e146104e657600080fd5b806337914a07146103fe5780633a6f2dcd146104115780633fa28fb71461043d5780634b3197131461045057806351637ba91461045957600080fd5b80631c481e2d1161023c5780631c481e2d1461036e5780631d687f0c146103815780631ec32d15146103945780632acfbca3146103a75780632f48ab7d146103ce5780633695dad1146103f557600080fd5b806308f43333146102795780630962ef79146102ce57806313fcaf54146102e3578063142a3da31461031a5780631441a5a914610343575b600080fd5b61028c6102873660046130e0565b6106ee565b604080519889526020890197909752958701949094526060860192909252608085015260a084015260c0830152151560e0820152610100015b60405180910390f35b6102e16102dc36600461310c565b610753565b005b61030c6102f1366004613125565b6001600160a01b03166000908152600a602052604090205490565b6040519081526020016102c5565b61030c610328366004613125565b6001600160a01b03166000908152600b602052604090205490565b600254610356906001600160a01b031681565b6040516001600160a01b0390911681526020016102c5565b6102e161037c366004613142565b610ced565b6102e161038f366004613164565b610d70565b600854610356906001600160a01b031681565b6103567f000000000000000000000000000000000000000000000000000000000000000081565b6103567f000000000000000000000000000000000000000000000000000000000000000081565b61030c60065481565b6102e161040c3660046131fb565b610e69565b61030c61041f366004613125565b6001600160a01b03166000908152600b602052604090206002015490565b61030c61044b3660046130e0565b610f55565b61030c600d5481565b6102e161046736600461310c565b611039565b60055461048090600160a81b900460ff1681565b60405190151581526020016102c5565b600154610356906001600160a01b031681565b61030c7f000000000000000000000000000000000000000000000000000000000000000081565b6102e16104d83660046130e0565b611069565b61030c600e5481565b6102e16104f4366004613267565b611118565b6104806105073660046130e0565b6111f4565b6102e161051a3660046132d8565b61128c565b600054610356906001600160a01b031681565b6102e1611478565b6102e161054836600461334d565b61151c565b6102e161055b366004613125565b61154a565b61059861056e366004613125565b600b6020526000908152604090208054600182015460028301546003909301549192909160ff1684565b60408051948552602085019390935291830152151560608201526080016102c5565b6105cd6105c836600461336f565b6115d1565b6040805194855260208501939093529183015260608201526080016102c5565b6102e16105fb3660046130e0565b611756565b600954610356906001600160a01b031681565b60055461048090600160a01b900460ff1681565b6102e161063536600461310c565b611781565b6102e161064836600461310c565b61211c565b6105cd61065b3660046130e0565b612148565b600554610356906001600160a01b031681565b61030c610681366004613125565b612254565b61030c6106943660046130e0565b61229d565b6104806106a73660046130e0565b612329565b600354610356906001600160a01b031681565b600454610356906001600160a01b031681565b600754610356906001600160a01b031681565b61030c600c5481565b600a602052816000526040600020818154811061070a57600080fd5b6000918252602090912060089091020180546001820154600283015460038401546004850154600586015460068701546007909701549598509396509194909391929160ff1688565b61075b61237c565b60006107673383612398565b336000908152600b602052604090206003015490915060ff1615801561079b5750336000908152600a602052604090205415155b1561080957336000908152600a60205260408120805482906107bf576107bf6133a4565b90600052602060002090600802019050620d2f0081600301546107e291906133d0565b42111561080757336000908152600b60205260409020600301805460ff191660011790555b505b60006108153383612439565b905080600003610838576040516312d37ee560e31b815260040160405180910390fd5b60065481101561085b57604051637e3f2b7d60e01b815260040160405180910390fd5b336000908152600b6020526040808220825491516311ea9fa960e21b8152600481018590529092916001600160a01b0316906347aa7ea490602401602060405180830381865afa1580156108b3573d6000803e3d6000fd5b505050506040513d601f19601f820116820180604052508101906108d791906133e3565b9050806000036108fa5760405163cc88465760e01b815260040160405180910390fd5b6040516370a0823160e01b815230600482015281907f00000000000000000000000000000000000000000000000000000000000000006001600160a01b0316906370a0823190602401602060405180830381865afa158015610960573d6000803e3d6000fd5b505050506040513d601f19601f8201168201806040525081019061098491906133e3565b10156109a35760405163075e464560e01b815260040160405180910390fd5b828460050160008282546109b791906133d0565b90915550504260048501556002820180548491906000906109d99084906133d0565b9250508190555082600e60008282546109f291906133d0565b90915550506006840154600585015410610a3e5760078401805460ff1916905560405133907ffa1eb7ba4f65747c7c8882031eb92d63b6fcb684b75052185312fbe1a488d94390600090a25b610a726001600160a01b037f000000000000000000000000000000000000000000000000000000000000000016338361268e565b6002546001600160a01b031615610c52578215610c5257600254604051638000d99160e01b8152336004820152602481018590526000916001600160a01b031690638000d991906044016020604051808303816000875af1158015610adb573d6000803e3d6000fd5b505050506040513d601f19601f82011682018060405250810190610aff91906133e3565b90508015610c5057600080546040516311ea9fa960e21b8152600481018490526001600160a01b03909116906347aa7ea490602401602060405180830381865afa158015610b51573d6000803e3d6000fd5b505050506040513d601f19601f82011682018060405250810190610b7591906133e3565b9050600081118015610c0f57506040516370a0823160e01b815230600482015281907f00000000000000000000000000000000000000000000000000000000000000006001600160a01b0316906370a0823190602401602060405180830381865afa158015610be8573d6000803e3d6000fd5b505050506040513d601f19601f82011682018060405250810190610c0c91906133e3565b10155b15610c4e57600254610c4e906001600160a01b037f0000000000000000000000000000000000000000000000000000000000000000811691168361268e565b505b505b604080518481526020810183905290810186905233907f56253d287efacdb2c4cd76dd03624a4821c1ce721d1152e8f5f5718f6087c9bf9060600160405180910390a2600282015460405190815233907fdad0e43afdd45daca2566e861ff76f0250960d86947518722c83b1e03f45edd59060200160405180910390a250505050610cea60016000805160206134bf83398151915255565b50565b6005546001600160a01b03163314610d1857604051630e05f48560e11b815260040160405180910390fd5b60058054821515600160a81b0260ff60a81b199091161790556040517f5ef34f53269a04b5b817e5be24a51ba6b477118b399ec9dd5b2baf5b299563dc90610d6590831515815260200190565b60405180910390a150565b600554600160a01b900460ff1615610db2576005546001600160a01b03163314610dad57604051630e05f48560e11b815260040160405180910390fd5b610ddd565b6004546001600160a01b03163314610ddd57604051634755657960e01b815260040160405180910390fd5b6001600160a01b0383161580610dfa57506001600160a01b038216155b80610e0c57506001600160a01b038116155b15610e2a5760405163d92e233d60e01b815260040160405180910390fd5b600780546001600160a01b039485166001600160a01b031991821617909155600880549385169382169390931790925560098054919093169116179055565b6004546001600160a01b03163314610e9457604051634755657960e01b815260040160405180910390fd5b828114610eda5760405162461bcd60e51b815260206004820152600f60248201526e098cadccee8d040dad2e6dac2e8c6d608b1b60448201526064015b60405180910390fd5b60005b83811015610f4e57828282818110610ef757610ef76133a4565b90506020020135600b6000878785818110610f1457610f146133a4565b9050602002016020810190610f299190613125565b6001600160a01b03168152602081019190915260400160002060020155600101610edd565b5050505050565b6001600160a01b0382166000908152600b602052604081206003015460ff1615610f8157506000611033565b6001600160a01b0383166000908152600a60205260409020548210610fa857506000611033565b6001600160a01b0383166000908152600a60205260408120805484908110610fd257610fd26133a4565b60009182526020909120600890910201600781015490915060ff16610ffb576000915050611033565b6000620d2f00826003015461101091906133d0565b905080421061102457600092505050611033565b61102e42826133fc565b925050505b92915050565b6005546001600160a01b0316331461106457604051630e05f48560e11b815260040160405180910390fd5b600655565b6002546001600160a01b0316331461109457604051633864b1e560e21b815260040160405180910390fd5b6001600160a01b0382166000908152600b6020526040812060020180548392906110bf9084906133d0565b90915550506001600160a01b0382166000818152600b60209081526040918290206002015491519182527fdad0e43afdd45daca2566e861ff76f0250960d86947518722c83b1e03f45edd5910160405180910390a25050565b6004546001600160a01b0316331461114357604051634755657960e01b815260040160405180910390fd5b600554600160a01b900460ff161561116e5760405163238f75d360e01b815260040160405180910390fd5b6001600160a01b0382166111955760405163d92e233d60e01b815260040160405180910390fd5b600180546001600160a01b03199081166001600160a01b03978816179091556002805482169587169590951790945560038054851693861693909317909255600080548416918516919091179055600580549092169216919091179055565b6001600160a01b0382166000908152600a6020526040812054821061121b57506000611033565b6001600160a01b0383166000908152600a60205260408120805484908110611245576112456133a4565b60009182526020909120600890910201600781015490915060ff1661126e576000915050611033565b620d2f00816003015461128191906133d0565b421115949350505050565b6004546001600160a01b031633146112b757604051634755657960e01b815260040160405180910390fd5b60005b8181101561147357368383838181106112d5576112d56133a4565b61010002919091019150600a905060006112f26020840184613125565b6001600160a01b03168152602080820192909252604090810160009081208251610100810184528585018035808352878601358388019081526060808a01359785019788526080808b013591860191825260a0808c013591870191825260c0808d013591880191825260e0808e013591890191825260019089018181528a548083018c559a8c529c8b2098516008909a029098019889559351968801969096559751600287015551600386015595516004850155915160058401559351600683015593516007909101805460ff1916911515919091179055600b916113d79085613125565b6001600160a01b03166001600160a01b03168152602001908152602001600020600001600082825461140991906133d0565b90915550600b905060006114206020840184613125565b6001600160a01b031681526020810191909152604001600090812060010180549161144a8361340f565b91905055508060200135600c600082825461146591906133d0565b9091555050506001016112ba565b505050565b6004546001600160a01b031633146114a357604051634755657960e01b815260040160405180910390fd5b600554600160a01b900460ff16156114ce5760405163238f75d360e01b815260040160405180910390fd5b6001546001600160a01b03166114f75760405163d311bc3960e01b815260040160405180910390fd5b6005805460ff60a01b1916600160a01b179055600480546001600160a01b0319169055565b61152461237c565b61152f3383836126c3565b61154660016000805160206134bf83398151915255565b5050565b6005546001600160a01b0316331461157557604051630e05f48560e11b815260040160405180910390fd5b6002546040516001600160a01b038084169216907feefe1ce2782e4ba3bbccd79617fae74979fa22005f22f7075c0910cd51c8ffd990600090a3600280546001600160a01b0319166001600160a01b0392909216919091179055565b6001600160a01b0383166000908152600a602052604081205481908190819086106116075750600092508291508190508061174d565b6001600160a01b0387166000908152600a60205260408120805488908110611631576116316133a4565b60009182526020909120600890910201600781015490915060ff1615806116695750620d2f00816003015461166691906133d0565b42115b156116825760008060008094509450945094505061174d565b856127101415801561169657508561138814155b80156116a45750856109c414155b156116bd5760008060008094509450945094505061174d565b80546127106116cc8883613428565b6116d69190613455565b95506127106116e76103e888613428565b6116f19190613455565b945060006127108884600501546117089190613428565b6117129190613455565b9050600061172082886133d0565b905080881161173057600061173a565b61173a81896133fc565b955061174688846133fc565b9450505050505b93509350935093565b6003546001600160a01b0316331461109457604051633327311360e11b815260040160405180910390fd5b61178961237c565b600554600160a81b900460ff16156117b357604051627cfe7f60e31b815260040160405180910390fd5b806000036117d457604051632b7786bd60e21b815260040160405180910390fd5b69010f0cf064dd592000008111156117ff5760405163c066e1e960e01b815260040160405180910390fd5b336000908152600b602052604090205469010f0cf064dd59200000906118269083906133d0565b11156118455760405163c066e1e960e01b815260040160405180910390fd5b6000546001600160a01b031661186e5760405163d311bc3960e01b815260040160405180910390fd5b6118a36001600160a01b037f000000000000000000000000000000000000000000000000000000000000000016333084612c1f565b60075481906001600160a01b0316158015906118c957506008546001600160a01b031615155b80156118df57506009546001600160a01b031615155b15611a0d5760006127106118f4606485613428565b6118fe9190613455565b90506000612710611910603286613428565b61191a9190613455565b9050600061271061192c603287613428565b6119369190613455565b600754909150611973906001600160a01b037f0000000000000000000000000000000000000000000000000000000000000000811691168561268e565b6008546119ad906001600160a01b037f0000000000000000000000000000000000000000000000000000000000000000811691168461268e565b6009546119e7906001600160a01b037f0000000000000000000000000000000000000000000000000000000000000000811691168361268e565b80826119f385886133fc565b6119fd91906133fc565b611a0791906133fc565b93505050505b600080546040516370a0823160e01b81526001600160a01b0391821660048201527f0000000000000000000000000000000000000000000000000000000000000000909116906370a0823190602401602060405180830381865afa158015611a79573d6000803e3d6000fd5b505050506040513d601f19601f82011682018060405250810190611a9d91906133e3565b6000805460408051630240bc6b60e21b815281519495509293849384936001600160a01b031692630902f1ac926004808401938290030181865afa158015611ae9573d6000803e3d6000fd5b505050506040513d601f19601f82011682018060405250810190611b0d9190613469565b91509150600082118015611b215750600081115b15611b4b57611b3085836133d0565b611b3a8287613428565b611b449190613455565b9250611b4f565b8492505b683635c9adc5dea00000611b6381856133d0565b851015611cb457600085611b7783876133d0565b611b8191906133fc565b6040516370a0823160e01b81523060048201529091506000906001600160a01b037f000000000000000000000000000000000000000000000000000000000000000016906370a0823190602401602060405180830381865afa158015611beb573d6000803e3d6000fd5b505050506040513d601f19601f82011682018060405250810190611c0f91906133e3565b9050818110611cb157600054611c52906001600160a01b037f00000000000000000000000000000000000000000000000000000000000000008116911684612c5b565b60005460405163362ce52b60e01b8152600481018490526001600160a01b039091169063362ce52b90602401600060405180830381600087803b158015611c9857600080fd5b505af1158015611cac573d6000803e3d6000fd5b505050505b50505b5050600054611cf493506001600160a01b037f00000000000000000000000000000000000000000000000000000000000000008116935016905083612c5b565b6000805460405163066102ad60e11b8152600481018490526001600160a01b0390911690630cc2055a906024016020604051808303816000875af1158015611d40573d6000803e3d6000fd5b505050506040513d601f19601f82011682018060405250810190611d6491906133e3565b90506000611d7184612caf565b90506000611d7f8542612cd1565b90506000611d8e600387613428565b336000818152600a602090815260408083208151610100810183528c81528084018a81528184018a815242606084018181526080850191825260a0850189815260c086018c8152600160e0880181815289548083018b55998d528b8d2098516008909a0290980198895595519588019590955592516002870155516003860155516004850155516005840155516006830155516007909101805460ff1916911515919091179055928252600b905290812080549293508892909190611e549084906133d0565b9091555050336000908152600b60205260408120600101805491611e778361340f565b919050555085600c6000828254611e8e91906133d0565b9091555050336000908152600b6020526040902060019081015414611f1657336000908152600a6020526040812080548290611ecc57611ecc6133a4565b90600052602060002090600802019050620d2f008160030154611eef91906133d0565b421115611f1457336000908152600b60205260409020600301805460ff191660011790555b505b6002546001600160a01b0316156120665760025460405163095ce44b60e21b81523360048201526001600160a01b0390911690632573912c90602401600060405180830381600087803b158015611f6c57600080fd5b505af1158015611f80573d6000803e3d6000fd5b5050600254604051634a9fefc760e01b8152336004820152600093506001600160a01b039091169150634a9fefc790602401602060405180830381865afa158015611fcf573d6000803e3d6000fd5b505050506040513d601f19601f82011682018060405250810190611ff3919061348d565b90506001600160a01b038116156120645760025460405163095ce44b60e21b81526001600160a01b03838116600483015290911690632573912c90602401600060405180830381600087803b15801561204b57600080fd5b505af115801561205f573d6000803e3d6000fd5b505050505b505b6003546001600160a01b03161580159061208a57506002546001600160a01b031615155b15612099576120993387612d67565b336000818152600a60205260409020547fe3b53cd1a44fbf11535e145d80b8ef1ed6d57a73bf5daa7e939b6b01657d6549908890869086906120dd906001906133fc565b60408051948552602085019390935291830152606082015260800160405180910390a25050505050610cea60016000805160206134bf83398151915255565b61212461237c565b61213133826127106126c3565b610cea60016000805160206134bf83398151915255565b6001600160a01b0382166000908152600a6020526040812054819081908190851061217e5750600092508291508190508061224b565b6001600160a01b0386166000908152600a602052604081208054879081106121a8576121a86133a4565b60009182526020909120600890910201600781015490915060ff1615806121e05750620d2f0081600301546121dd91906133d0565b42115b156121f95760008060008094509450945094505061224b565b8054600582015490955093506127106122146103e887613428565b61221e9190613455565b9250600061222c85856133d0565b905080861161223c576000612246565b61224681876133fc565b925050505b92959194509250565b6001600160a01b0381166000908152600b6020526040812054810361227b57506000919050565b6001600160a01b0382166000908152600b602052604090205461103390612caf565b6001600160a01b0382166000908152600a602052604081205482106122c457506000611033565b6001600160a01b0383166000908152600a602052604081208054849081106122ee576122ee6133a4565b60009182526020909120600890910201600781015490915060ff16612317576000915050611033565b6123218482612439565b949350505050565b6001600160a01b0382166000908152600b602052604081206003015460ff161561235557506000611033565b6001600160a01b0383166000908152600a6020526040902054821061121b57506000611033565b612384612ea0565b60026000805160206134bf83398151915255565b6001600160a01b0382166000908152600a602052604081205482106123d057604051635972996f60e11b815260040160405180910390fd5b6001600160a01b0383166000908152600a602052604081208054849081106123fa576123fa6133a4565b60009182526020909120600890910201600781015490915060ff16612432576040516305a2e88560e21b815260040160405180910390fd5b9392505050565b600781015460009060ff1661245057506000611033565b60048201544281811161246857600092505050611033565b600061247483836133fc565b85549091506276a7006124a77f0000000000000000000000000000000000000000000000000000000000000000856133fc565b106124e2576124bb61271062015180613428565b826124c7602d84613428565b6124d19190613428565b6124db9190613455565b9450612649565b68878678326eac9000008110156000816124fe5761023f612502565b6103025b9050600061251362093a8086613455565b9050612710816125238487613428565b61252d9190613428565b6125379190613455565b975060006125488262093a80613428565b61255290896133d0565b905060005b8782101561261457600060076125706201518085613455565b61257b9060036133d0565b61258591906134aa565b905060008661259c5761259782612ed2565b6125a5565b6125a582612f3c565b905060006125b66201518086613455565b6125c19060016133d0565b6125ce9062015180613428565b90506000818c106125df57816125e1565b8b5b905060006125ef87836133fc565b90506125fb8185613428565b61260590876133d0565b95508296505050505050612557565b61262361271062015180613428565b61262d8288613428565b6126379190613455565b612641908b6133d0565b995050505050505b60008660050154876006015411612661576000612675565b8660050154876006015461267591906133fc565b905080861115612683578095505b505050505092915050565b61269b8383836001612fa6565b61147357604051635274afe760e01b81526001600160a01b0384166004820152602401610ed1565b80612710141580156126d757508061138814155b80156126e55750806109c414155b1561270357604051635c1d07cb60e01b815260040160405180910390fd5b600061270f8484612398565b9050620d2f00816003015461272491906133d0565b4211156127445760405163693ed15b60e11b815260040160405180910390fd5b805460006127106127558584613428565b61275f9190613455565b905060006127106127726103e884613428565b61277c9190613455565b905060006127108686600501546127939190613428565b61279d9190613455565b905060006127ab82846133d0565b905060008185116127bd5760006127c7565b6127c782866133fc565b905087612710036127e35760078701805460ff1916905561282b565b848760000160008282546127f791906133fc565b925050819055508287600501600082825461281291906133fc565b9091555050865461282590600390613428565b60068801555b6001600160a01b038a166000908152600b6020526040812080548792906128539084906133fc565b9250508190555084600d600082825461286c91906133d0565b90915550506002546001600160a01b0316156128e25760025460405163095ce44b60e21b81526001600160a01b038c8116600483015290911690632573912c90602401600060405180830381600087803b1580156128c957600080fd5b505af11580156128dd573d6000803e3d6000fd5b505050505b8015612bc0576040516370a0823160e01b81523060048201526000907f00000000000000000000000000000000000000000000000000000000000000006001600160a01b0316906370a0823190602401602060405180830381865afa15801561294f573d6000803e3d6000fd5b505050506040513d601f19601f8201168201806040525081019061297391906133e3565b90508181106129b5576129b06001600160a01b037f0000000000000000000000000000000000000000000000000000000000000000168c8461268e565b612bbe565b80156129fc576129ef6001600160a01b037f0000000000000000000000000000000000000000000000000000000000000000168c8361268e565b6129f981836133fc565b91505b600080546040516311ea9fa960e21b8152600481018590526001600160a01b03909116906347aa7ea490602401602060405180830381865afa158015612a46573d6000803e3d6000fd5b505050506040513d601f19601f82011682018060405250810190612a6a91906133e3565b9050600081118015612b0457506040516370a0823160e01b815230600482015281907f00000000000000000000000000000000000000000000000000000000000000006001600160a01b0316906370a0823190602401602060405180830381865afa158015612add573d6000803e3d6000fd5b505050506040513d601f19601f82011682018060405250810190612b0191906133e3565b10155b15612bbc57600054612b43906001600160a01b037f00000000000000000000000000000000000000000000000000000000000000008116911683612c5b565b60005460405163f843e64160e01b8152600481018390526001600160a01b038e811660248301529091169063f843e641906044016020604051808303816000875af1158015612b96573d6000803e3d6000fd5b505050506040513d601f19601f82011682018060405250810190612bba91906133e3565b505b505b505b6040805182815260208101869052908101849052606081018a90526001600160a01b038b16907f4ade67ef7e7c5e4d9c50de61a4e8c555be92c9b37e3ca6716eb02a1f0e471da59060800160405180910390a250505050505050505050565b612c2d84848484600161300c565b612c5557604051635274afe760e01b81526001600160a01b0385166004820152602401610ed1565b50505050565b612c68838383600061307e565b61147357612c7a83836000600161307e565b612ca257604051635274afe760e01b81526001600160a01b0384166004820152602401610ed1565b61269b838383600161307e565b600068878678326eac9000008210612cc957506002919050565b506001919050565b600080612cfe7f0000000000000000000000000000000000000000000000000000000000000000846133fc565b90506276a7008110612d1457602d915050611033565b60006007612d256201518086613455565b612d309060036133d0565b612d3a91906134aa565b905068878678326eac9000008510612d5e57612d5581612f3c565b92505050611033565b61102e81612ed2565b6002546001600160a01b03161580612d8857506003546001600160a01b0316155b15612d91575050565b8160005b6014811015612c5557600254604051634a9fefc760e01b81526001600160a01b0384811660048301526000921690634a9fefc790602401602060405180830381865afa158015612de9573d6000803e3d6000fd5b505050506040513d601f19601f82011682018060405250810190612e0d919061348d565b90506001600160a01b038116612e235750612c55565b60035460405163d9bd5f2d60e01b81526001600160a01b0383811660048301528581166024830152604482018790529091169063d9bd5f2d90606401600060405180830381600087803b158015612e7957600080fd5b505af1158015612e8d573d6000803e3d6000fd5b509294505060019092019150612d959050565b6000805160206134bf83398151915254600203612ed057604051633ee5aeb560e01b815260040160405180910390fd5b565b600081600003612ee457506064919050565b81600103612ef45750604b919050565b81600203612f045750605f919050565b81600303612f1457506041919050565b81600403612f2457506064919050565b81600503612f3457506055919050565b506037919050565b600081600003612f4e57506073919050565b81600103612f5e57506064919050565b81600203612f6e57506073919050565b81600303612f7e5750606e919050565b81600403612f8e57506069919050565b81600503612f9e57506064919050565b50607d919050565b60405163a9059cbb60e01b60008181526001600160a01b038616600452602485905291602083604481808b5af192506001600051148316613000578383151615612ff3573d6000823e3d81fd5b6000873b113d1516831692505b60405250949350505050565b6040516323b872dd60e01b60008181526001600160a01b038781166004528616602452604485905291602083606481808c5af19250600160005114831661306c57838315161561305f573d6000823e3d81fd5b6000883b113d1516831692505b60405250600060605295945050505050565b60405163095ea7b360e01b60008181526001600160a01b038616600452602485905291602083604481808b5af192506001600051148316613000578383151615612ff3573d6000823e3d81fd5b6001600160a01b0381168114610cea57600080fd5b600080604083850312156130f357600080fd5b82356130fe816130cb565b946020939093013593505050565b60006020828403121561311e57600080fd5b5035919050565b60006020828403121561313757600080fd5b8135612432816130cb565b60006020828403121561315457600080fd5b8135801515811461243257600080fd5b60008060006060848603121561317957600080fd5b8335613184816130cb565b92506020840135613194816130cb565b915060408401356131a4816130cb565b809150509250925092565b60008083601f8401126131c157600080fd5b50813567ffffffffffffffff8111156131d957600080fd5b6020830191508360208260051b85010111156131f457600080fd5b9250929050565b6000806000806040858703121561321157600080fd5b843567ffffffffffffffff8082111561322957600080fd5b613235888389016131af565b9096509450602087013591508082111561324e57600080fd5b5061325b878288016131af565b95989497509550505050565b600080600080600060a0868803121561327f57600080fd5b853561328a816130cb565b9450602086013561329a816130cb565b935060408601356132aa816130cb565b925060608601356132ba816130cb565b915060808601356132ca816130cb565b809150509295509295909350565b600080602083850312156132eb57600080fd5b823567ffffffffffffffff8082111561330357600080fd5b818501915085601f83011261331757600080fd5b81358181111561332657600080fd5b8660208260081b850101111561333b57600080fd5b60209290920196919550909350505050565b6000806040838503121561336057600080fd5b50508035926020909101359150565b60008060006060848603121561338457600080fd5b833561338f816130cb565b95602085013595506040909401359392505050565b634e487b7160e01b600052603260045260246000fd5b634e487b7160e01b600052601160045260246000fd5b80820180821115611033576110336133ba565b6000602082840312156133f557600080fd5b5051919050565b81810381811115611033576110336133ba565b600060018201613421576134216133ba565b5060010190565b8082028115828204841417611033576110336133ba565b634e487b7160e01b600052601260045260246000fd5b6000826134645761346461343f565b500490565b6000806040838503121561347c57600080fd5b505080516020909101519092909150565b60006020828403121561349f57600080fd5b8151612432816130cb565b6000826134b9576134b961343f565b50069056fe9b779b17422d0df92223018b32b4d1fa46e071723d6817e2486d003becc55f00a264697066735822122078a04f24186c8b337de7a4917546d1dd7ebf94beb705b82675ad19242af0fd8f64736f6c63430008180033","opcodes":"PUSH1 0xE0 PUSH1 0x40 MSTORE PUSH8 0xDE0B6B3A7640000 PUSH1 0x6 SSTORE CALLVALUE DUP1 ISZERO PUSH3 0x1D JUMPI PUSH1 0x0 DUP1 REVERT JUMPDEST POP PUSH1 0x40 MLOAD PUSH3 0x36F6 CODESIZE SUB DUP1 PUSH3 0x36F6 DUP4 CODECOPY DUP2 ADD PUSH1 0x40 DUP2 SWAP1 MSTORE PUSH3 0x40 SWAP2 PUSH3 0xEC JUMP JUMPDEST PUSH1 0x1 PUSH32 0x9B779B17422D0DF92223018B32B4D1FA46E071723D6817E2486D003BECC55F00 SSTORE PUSH1 0x1 PUSH1 0x1 PUSH1 0xA0 SHL SUB DUP4 AND ISZERO DUP1 PUSH3 0x82 JUMPI POP PUSH1 0x1 PUSH1 0x1 PUSH1 0xA0 SHL SUB DUP3 AND ISZERO JUMPDEST ISZERO PUSH3 0xA1 JUMPI PUSH1 0x40 MLOAD PUSH4 0xD92E233D PUSH1 0xE0 SHL DUP2 MSTORE PUSH1 0x4 ADD PUSH1 0x40 MLOAD DUP1 SWAP2 SUB SWAP1 REVERT JUMPDEST PUSH1 0x1 PUSH1 0x1 PUSH1 0xA0 SHL SUB SWAP3 DUP4 AND PUSH1 0x80 MSTORE SWAP2 AND PUSH1 0xA0 MSTORE PUSH1 0xC0 MSTORE PUSH1 0x4 DUP1 SLOAD PUSH1 0x1 PUSH1 0x1 PUSH1 0xA0 SHL SUB NOT AND CALLER OR SWAP1 SSTORE PUSH3 0x12D JUMP JUMPDEST DUP1 MLOAD PUSH1 0x1 PUSH1 0x1 PUSH1 0xA0 SHL SUB DUP2 AND DUP2 EQ PUSH3 0xE7 JUMPI PUSH1 0x0 DUP1 REVERT JUMPDEST SWAP2 SWAP1 POP JUMP JUMPDEST PUSH1 0x0 DUP1 PUSH1 0x0 PUSH1 0x60 DUP5 DUP7 SUB SLT ISZERO PUSH3 0x102 JUMPI PUSH1 0x0 DUP1 REVERT JUMPDEST PUSH3 0x10D DUP5 PUSH3 0xCF JUMP JUMPDEST SWAP3 POP PUSH3 0x11D PUSH1 0x20 DUP6 ADD PUSH3 0xCF JUMP JUMPDEST SWAP2 POP PUSH1 0x40 DUP5 ADD MLOAD SWAP1 POP SWAP3 POP SWAP3 POP SWAP3 JUMP JUMPDEST PUSH1 0x80 MLOAD PUSH1 0xA0 MLOAD PUSH1 0xC0 MLOAD PUSH2 0x3514 PUSH3 0x1E2 PUSH1 0x0 CODECOPY PUSH1 0x0 DUP2 DUP2 PUSH2 0x4A8 ADD MSTORE DUP2 DUP2 PUSH2 0x2482 ADD MSTORE PUSH2 0x2CD9 ADD MSTORE PUSH1 0x0 DUP2 DUP2 PUSH2 0x3AC ADD MSTORE DUP2 DUP2 PUSH2 0x911 ADD MSTORE DUP2 DUP2 PUSH2 0xA4B ADD MSTORE DUP2 DUP2 PUSH2 0xB99 ADD MSTORE DUP2 DUP2 PUSH2 0xC25 ADD MSTORE DUP2 DUP2 PUSH2 0x1A30 ADD MSTORE DUP2 DUP2 PUSH2 0x1BA4 ADD MSTORE DUP2 DUP2 PUSH2 0x1C29 ADD MSTORE DUP2 DUP2 PUSH2 0x2A8E ADD MSTORE PUSH2 0x2B1A ADD MSTORE PUSH1 0x0 DUP2 DUP2 PUSH2 0x3D3 ADD MSTORE DUP2 DUP2 PUSH2 0x187B ADD MSTORE DUP2 DUP2 PUSH2 0x194A ADD MSTORE DUP2 DUP2 PUSH2 0x1984 ADD MSTORE DUP2 DUP2 PUSH2 0x19BE ADD MSTORE DUP2 DUP2 PUSH2 0x1CC8 ADD MSTORE DUP2 DUP2 PUSH2 0x2900 ADD MSTORE DUP2 DUP2 PUSH2 0x2989 ADD MSTORE PUSH2 0x29C8 ADD MSTORE PUSH2 0x3514 PUSH1 0x0 RETURN INVALID PUSH1 0x80 PUSH1 0x40 MSTORE CALLVALUE DUP1 ISZERO PUSH2 0x10 JUMPI PUSH1 0x0 DUP1 REVERT JUMPDEST POP PUSH1 0x4 CALLDATASIZE LT PUSH2 0x274 JUMPI PUSH1 0x0 CALLDATALOAD PUSH1 0xE0 SHR DUP1 PUSH4 0x786685E0 GT PUSH2 0x151 JUMPI DUP1 PUSH4 0xB6B55F25 GT PUSH2 0xC3 JUMPI DUP1 PUSH4 0xE4E7C6B4 GT PUSH2 0x87 JUMPI DUP1 PUSH4 0xE4E7C6B4 EQ PUSH2 0x686 JUMPI DUP1 PUSH4 0xE5C473E0 EQ PUSH2 0x699 JUMPI DUP1 PUSH4 0xE9A16BD5 EQ PUSH2 0x6AC JUMPI DUP1 PUSH4 0xF851A440 EQ PUSH2 0x6BF JUMPI DUP1 PUSH4 0xFB75B2C7 EQ PUSH2 0x6D2 JUMPI DUP1 PUSH4 0xFF50ABDC EQ PUSH2 0x6E5 JUMPI PUSH1 0x0 DUP1 REVERT JUMPDEST DUP1 PUSH4 0xB6B55F25 EQ PUSH2 0x627 JUMPI DUP1 PUSH4 0xB8AF3D3E EQ PUSH2 0x63A JUMPI DUP1 PUSH4 0xCEACE7DD EQ PUSH2 0x64D JUMPI DUP1 PUSH4 0xD33219B4 EQ PUSH2 0x660 JUMPI DUP1 PUSH4 0xE4D2620E EQ PUSH2 0x673 JUMPI PUSH1 0x0 DUP1 REVERT JUMPDEST DUP1 PUSH4 0x9E5914DA GT PUSH2 0x115 JUMPI DUP1 PUSH4 0x9E5914DA EQ PUSH2 0x54D JUMPI DUP1 PUSH4 0xA87430BA EQ PUSH2 0x560 JUMPI DUP1 PUSH4 0xAA9CC818 EQ PUSH2 0x5BA JUMPI DUP1 PUSH4 0xAC948E83 EQ PUSH2 0x5ED JUMPI DUP1 PUSH4 0xB12CD625 EQ PUSH2 0x600 JUMPI DUP1 PUSH4 0xB6635BE6 EQ PUSH2 0x613 JUMPI PUSH1 0x0 DUP1 REVERT JUMPDEST DUP1 PUSH4 0x786685E0 EQ PUSH2 0x4F9 JUMPI DUP1 PUSH4 0x84B273F6 EQ PUSH2 0x50C JUMPI DUP1 PUSH4 0x8565C2BF EQ PUSH2 0x51F JUMPI DUP1 PUSH4 0x8AEA8F71 EQ PUSH2 0x532 JUMPI DUP1 PUSH4 0x8FB1BB50 EQ PUSH2 0x53A JUMPI PUSH1 0x0 DUP1 REVERT JUMPDEST DUP1 PUSH4 0x37914A07 GT PUSH2 0x1EA JUMPI DUP1 PUSH4 0x60DA3E83 GT PUSH2 0x1AE JUMPI DUP1 PUSH4 0x60DA3E83 EQ PUSH2 0x46C JUMPI DUP1 PUSH4 0x61D027B3 EQ PUSH2 0x490 JUMPI DUP1 PUSH4 0x65CF7C9B EQ PUSH2 0x4A3 JUMPI DUP1 PUSH4 0x6B9F7AB6 EQ PUSH2 0x4CA JUMPI DUP1 PUSH4 0x74958E35 EQ PUSH2 0x4DD JUMPI DUP1 PUSH4 0x760FCB3E EQ PUSH2 0x4E6 JUMPI PUSH1 0x0 DUP1 REVERT JUMPDEST DUP1 PUSH4 0x37914A07 EQ PUSH2 0x3FE JUMPI DUP1 PUSH4 0x3A6F2DCD EQ PUSH2 0x411 JUMPI DUP1 PUSH4 0x3FA28FB7 EQ PUSH2 0x43D JUMPI DUP1 PUSH4 0x4B319713 EQ PUSH2 0x450 JUMPI DUP1 PUSH4 0x51637BA9 EQ PUSH2 0x459 JUMPI PUSH1 0x0 DUP1 REVERT JUMPDEST DUP1 PUSH4 0x1C481E2D GT PUSH2 0x23C JUMPI DUP1 PUSH4 0x1C481E2D EQ PUSH2 0x36E JUMPI DUP1 PUSH4 0x1D687F0C EQ PUSH2 0x381 JUMPI DUP1 PUSH4 0x1EC32D15 EQ PUSH2 0x394 JUMPI DUP1 PUSH4 0x2ACFBCA3 EQ PUSH2 0x3A7 JUMPI DUP1 PUSH4 0x2F48AB7D EQ PUSH2 0x3CE JUMPI DUP1 PUSH4 0x3695DAD1 EQ PUSH2 0x3F5 JUMPI PUSH1 0x0 DUP1 REVERT JUMPDEST DUP1 PUSH4 0x8F43333 EQ PUSH2 0x279 JUMPI DUP1 PUSH4 0x962EF79 EQ PUSH2 0x2CE JUMPI DUP1 PUSH4 0x13FCAF54 EQ PUSH2 0x2E3 JUMPI DUP1 PUSH4 0x142A3DA3 EQ PUSH2 0x31A JUMPI DUP1 PUSH4 0x1441A5A9 EQ PUSH2 0x343 JUMPI JUMPDEST PUSH1 0x0 DUP1 REVERT JUMPDEST PUSH2 0x28C PUSH2 0x287 CALLDATASIZE PUSH1 0x4 PUSH2 0x30E0 JUMP JUMPDEST PUSH2 0x6EE JUMP JUMPDEST PUSH1 0x40 DUP1 MLOAD SWAP9 DUP10 MSTORE PUSH1 0x20 DUP10 ADD SWAP8 SWAP1 SWAP8 MSTORE SWAP6 DUP8 ADD SWAP5 SWAP1 SWAP5 MSTORE PUSH1 0x60 DUP7 ADD SWAP3 SWAP1 SWAP3 MSTORE PUSH1 0x80 DUP6 ADD MSTORE PUSH1 0xA0 DUP5 ADD MSTORE PUSH1 0xC0 DUP4 ADD MSTORE ISZERO ISZERO PUSH1 0xE0 DUP3 ADD MSTORE PUSH2 0x100 ADD JUMPDEST PUSH1 0x40 MLOAD DUP1 SWAP2 SUB SWAP1 RETURN JUMPDEST PUSH2 0x2E1 PUSH2 0x2DC CALLDATASIZE PUSH1 0x4 PUSH2 0x310C JUMP JUMPDEST PUSH2 0x753 JUMP JUMPDEST STOP JUMPDEST PUSH2 0x30C PUSH2 0x2F1 CALLDATASIZE PUSH1 0x4 PUSH2 0x3125 JUMP JUMPDEST PUSH1 0x1 PUSH1 0x1 PUSH1 0xA0 SHL SUB AND PUSH1 0x0 SWAP1 DUP2 MSTORE PUSH1 0xA PUSH1 0x20 MSTORE PUSH1 0x40 SWAP1 KECCAK256 SLOAD SWAP1 JUMP JUMPDEST PUSH1 0x40 MLOAD SWAP1 DUP2 MSTORE PUSH1 0x20 ADD PUSH2 0x2C5 JUMP JUMPDEST PUSH2 0x30C PUSH2 0x328 CALLDATASIZE PUSH1 0x4 PUSH2 0x3125 JUMP JUMPDEST PUSH1 0x1 PUSH1 0x1 PUSH1 0xA0 SHL SUB AND PUSH1 0x0 SWAP1 DUP2 MSTORE PUSH1 0xB PUSH1 0x20 MSTORE PUSH1 0x40 SWAP1 KECCAK256 SLOAD SWAP1 JUMP JUMPDEST PUSH1 0x2 SLOAD PUSH2 0x356 SWAP1 PUSH1 0x1 PUSH1 0x1 PUSH1 0xA0 SHL SUB AND DUP2 JUMP JUMPDEST PUSH1 0x40 MLOAD PUSH1 0x1 PUSH1 0x1 PUSH1 0xA0 SHL SUB SWAP1 SWAP2 AND DUP2 MSTORE PUSH1 0x20 ADD PUSH2 0x2C5 JUMP JUMPDEST PUSH2 0x2E1 PUSH2 0x37C CALLDATASIZE PUSH1 0x4 PUSH2 0x3142 JUMP JUMPDEST PUSH2 0xCED JUMP JUMPDEST PUSH2 0x2E1 PUSH2 0x38F CALLDATASIZE PUSH1 0x4 PUSH2 0x3164 JUMP JUMPDEST PUSH2 0xD70 JUMP JUMPDEST PUSH1 0x8 SLOAD PUSH2 0x356 SWAP1 PUSH1 0x1 PUSH1 0x1 PUSH1 0xA0 SHL SUB AND DUP2 JUMP JUMPDEST PUSH2 0x356 PUSH32 0x0 DUP2 JUMP JUMPDEST PUSH2 0x356 PUSH32 0x0 DUP2 JUMP JUMPDEST PUSH2 0x30C PUSH1 0x6 SLOAD DUP2 JUMP JUMPDEST PUSH2 0x2E1 PUSH2 0x40C CALLDATASIZE PUSH1 0x4 PUSH2 0x31FB JUMP JUMPDEST PUSH2 0xE69 JUMP JUMPDEST PUSH2 0x30C PUSH2 0x41F CALLDATASIZE PUSH1 0x4 PUSH2 0x3125 JUMP JUMPDEST PUSH1 0x1 PUSH1 0x1 PUSH1 0xA0 SHL SUB AND PUSH1 0x0 SWAP1 DUP2 MSTORE PUSH1 0xB PUSH1 0x20 MSTORE PUSH1 0x40 SWAP1 KECCAK256 PUSH1 0x2 ADD SLOAD SWAP1 JUMP JUMPDEST PUSH2 0x30C PUSH2 0x44B CALLDATASIZE PUSH1 0x4 PUSH2 0x30E0 JUMP JUMPDEST PUSH2 0xF55 JUMP JUMPDEST PUSH2 0x30C PUSH1 0xD SLOAD DUP2 JUMP JUMPDEST PUSH2 0x2E1 PUSH2 0x467 CALLDATASIZE PUSH1 0x4 PUSH2 0x310C JUMP JUMPDEST PUSH2 0x1039 JUMP JUMPDEST PUSH1 0x5 SLOAD PUSH2 0x480 SWAP1 PUSH1 0x1 PUSH1 0xA8 SHL SWAP1 DIV PUSH1 0xFF AND DUP2 JUMP JUMPDEST PUSH1 0x40 MLOAD SWAP1 ISZERO ISZERO DUP2 MSTORE PUSH1 0x20 ADD PUSH2 0x2C5 JUMP JUMPDEST PUSH1 0x1 SLOAD PUSH2 0x356 SWAP1 PUSH1 0x1 PUSH1 0x1 PUSH1 0xA0 SHL SUB AND DUP2 JUMP JUMPDEST PUSH2 0x30C PUSH32 0x0 DUP2 JUMP JUMPDEST PUSH2 0x2E1 PUSH2 0x4D8 CALLDATASIZE PUSH1 0x4 PUSH2 0x30E0 JUMP JUMPDEST PUSH2 0x1069 JUMP JUMPDEST PUSH2 0x30C PUSH1 0xE SLOAD DUP2 JUMP JUMPDEST PUSH2 0x2E1 PUSH2 0x4F4 CALLDATASIZE PUSH1 0x4 PUSH2 0x3267 JUMP JUMPDEST PUSH2 0x1118 JUMP JUMPDEST PUSH2 0x480 PUSH2 0x507 CALLDATASIZE PUSH1 0x4 PUSH2 0x30E0 JUMP JUMPDEST PUSH2 0x11F4 JUMP JUMPDEST PUSH2 0x2E1 PUSH2 0x51A CALLDATASIZE PUSH1 0x4 PUSH2 0x32D8 JUMP JUMPDEST PUSH2 0x128C JUMP JUMPDEST PUSH1 0x0 SLOAD PUSH2 0x356 SWAP1 PUSH1 0x1 PUSH1 0x1 PUSH1 0xA0 SHL SUB AND DUP2 JUMP JUMPDEST PUSH2 0x2E1 PUSH2 0x1478 JUMP JUMPDEST PUSH2 0x2E1 PUSH2 0x548 CALLDATASIZE PUSH1 0x4 PUSH2 0x334D JUMP JUMPDEST PUSH2 0x151C JUMP JUMPDEST PUSH2 0x2E1 PUSH2 0x55B CALLDATASIZE PUSH1 0x4 PUSH2 0x3125 JUMP JUMPDEST PUSH2 0x154A JUMP JUMPDEST PUSH2 0x598 PUSH2 0x56E CALLDATASIZE PUSH1 0x4 PUSH2 0x3125 JUMP JUMPDEST PUSH1 0xB PUSH1 0x20 MSTORE PUSH1 0x0 SWAP1 DUP2 MSTORE PUSH1 0x40 SWAP1 KECCAK256 DUP1 SLOAD PUSH1 0x1 DUP3 ADD SLOAD PUSH1 0x2 DUP4 ADD SLOAD PUSH1 0x3 SWAP1 SWAP4 ADD SLOAD SWAP2 SWAP3 SWAP1 SWAP2 PUSH1 0xFF AND DUP5 JUMP JUMPDEST PUSH1 0x40 DUP1 MLOAD SWAP5 DUP6 MSTORE PUSH1 0x20 DUP6 ADD SWAP4 SWAP1 SWAP4 MSTORE SWAP2 DUP4 ADD MSTORE ISZERO ISZERO PUSH1 0x60 DUP3 ADD MSTORE PUSH1 0x80 ADD PUSH2 0x2C5 JUMP JUMPDEST PUSH2 0x5CD PUSH2 0x5C8 CALLDATASIZE PUSH1 0x4 PUSH2 0x336F JUMP JUMPDEST PUSH2 0x15D1 JUMP JUMPDEST PUSH1 0x40 DUP1 MLOAD SWAP5 DUP6 MSTORE PUSH1 0x20 DUP6 ADD SWAP4 SWAP1 SWAP4 MSTORE SWAP2 DUP4 ADD MSTORE PUSH1 0x60 DUP3 ADD MSTORE PUSH1 0x80 ADD PUSH2 0x2C5 JUMP JUMPDEST PUSH2 0x2E1 PUSH2 0x5FB CALLDATASIZE PUSH1 0x4 PUSH2 0x30E0 JUMP JUMPDEST PUSH2 0x1756 JUMP JUMPDEST PUSH1 0x9 SLOAD PUSH2 0x356 SWAP1 PUSH1 0x1 PUSH1 0x1 PUSH1 0xA0 SHL SUB AND DUP2 JUMP JUMPDEST PUSH1 0x5 SLOAD PUSH2 0x480 SWAP1 PUSH1 0x1 PUSH1 0xA0 SHL SWAP1 DIV PUSH1 0xFF AND DUP2 JUMP JUMPDEST PUSH2 0x2E1 PUSH2 0x635 CALLDATASIZE PUSH1 0x4 PUSH2 0x310C JUMP JUMPDEST PUSH2 0x1781 JUMP JUMPDEST PUSH2 0x2E1 PUSH2 0x648 CALLDATASIZE PUSH1 0x4 PUSH2 0x310C JUMP JUMPDEST PUSH2 0x211C JUMP JUMPDEST PUSH2 0x5CD PUSH2 0x65B CALLDATASIZE PUSH1 0x4 PUSH2 0x30E0 JUMP JUMPDEST PUSH2 0x2148 JUMP JUMPDEST PUSH1 0x5 SLOAD PUSH2 0x356 SWAP1 PUSH1 0x1 PUSH1 0x1 PUSH1 0xA0 SHL SUB AND DUP2 JUMP JUMPDEST PUSH2 0x30C PUSH2 0x681 CALLDATASIZE PUSH1 0x4 PUSH2 0x3125 JUMP JUMPDEST PUSH2 0x2254 JUMP JUMPDEST PUSH2 0x30C PUSH2 0x694 CALLDATASIZE PUSH1 0x4 PUSH2 0x30E0 JUMP JUMPDEST PUSH2 0x229D JUMP JUMPDEST PUSH2 0x480 PUSH2 0x6A7 CALLDATASIZE PUSH1 0x4 PUSH2 0x30E0 JUMP JUMPDEST PUSH2 0x2329 JUMP JUMPDEST PUSH1 0x3 SLOAD PUSH2 0x356 SWAP1 PUSH1 0x1 PUSH1 0x1 PUSH1 0xA0 SHL SUB AND DUP2 JUMP JUMPDEST PUSH1 0x4 SLOAD PUSH2 0x356 SWAP1 PUSH1 0x1 PUSH1 0x1 PUSH1 0xA0 SHL SUB AND DUP2 JUMP JUMPDEST PUSH1 0x7 SLOAD PUSH2 0x356 SWAP1 PUSH1 0x1 PUSH1 0x1 PUSH1 0xA0 SHL SUB AND DUP2 JUMP JUMPDEST PUSH2 0x30C PUSH1 0xC SLOAD DUP2 JUMP JUMPDEST PUSH1 0xA PUSH1 0x20 MSTORE DUP2 PUSH1 0x0 MSTORE PUSH1 0x40 PUSH1 0x0 KECCAK256 DUP2 DUP2 SLOAD DUP2 LT PUSH2 0x70A JUMPI PUSH1 0x0 DUP1 REVERT JUMPDEST PUSH1 0x0 SWAP2 DUP3 MSTORE PUSH1 0x20 SWAP1 SWAP2 KECCAK256 PUSH1 0x8 SWAP1 SWAP2 MUL ADD DUP1 SLOAD PUSH1 0x1 DUP3 ADD SLOAD PUSH1 0x2 DUP4 ADD SLOAD PUSH1 0x3 DUP5 ADD SLOAD PUSH1 0x4 DUP6 ADD SLOAD PUSH1 0x5 DUP7 ADD SLOAD PUSH1 0x6 DUP8 ADD SLOAD PUSH1 0x7 SWAP1 SWAP8 ADD SLOAD SWAP6 SWAP9 POP SWAP4 SWAP7 POP SWAP2 SWAP5 SWAP1 SWAP4 SWAP2 SWAP3 SWAP2 PUSH1 0xFF AND DUP9 JUMP JUMPDEST PUSH2 0x75B PUSH2 0x237C JUMP JUMPDEST PUSH1 0x0 PUSH2 0x767 CALLER DUP4 PUSH2 0x2398 JUMP JUMPDEST CALLER PUSH1 0x0 SWAP1 DUP2 MSTORE PUSH1 0xB PUSH1 0x20 MSTORE PUSH1 0x40 SWAP1 KECCAK256 PUSH1 0x3 ADD SLOAD SWAP1 SWAP2 POP PUSH1 0xFF AND ISZERO DUP1 ISZERO PUSH2 0x79B JUMPI POP CALLER PUSH1 0x0 SWAP1 DUP2 MSTORE PUSH1 0xA PUSH1 0x20 MSTORE PUSH1 0x40 SWAP1 KECCAK256 SLOAD ISZERO ISZERO JUMPDEST ISZERO PUSH2 0x809 JUMPI CALLER PUSH1 0x0 SWAP1 DUP2 MSTORE PUSH1 0xA PUSH1 0x20 MSTORE PUSH1 0x40 DUP2 KECCAK256 DUP1 SLOAD DUP3 SWAP1 PUSH2 0x7BF JUMPI PUSH2 0x7BF PUSH2 0x33A4 JUMP JUMPDEST SWAP1 PUSH1 0x0 MSTORE PUSH1 0x20 PUSH1 0x0 KECCAK256 SWAP1 PUSH1 0x8 MUL ADD SWAP1 POP PUSH3 0xD2F00 DUP2 PUSH1 0x3 ADD SLOAD PUSH2 0x7E2 SWAP2 SWAP1 PUSH2 0x33D0 JUMP JUMPDEST TIMESTAMP GT ISZERO PUSH2 0x807 JUMPI CALLER PUSH1 0x0 SWAP1 DUP2 MSTORE PUSH1 0xB PUSH1 0x20 MSTORE PUSH1 0x40 SWAP1 KECCAK256 PUSH1 0x3 ADD DUP1 SLOAD PUSH1 0xFF NOT AND PUSH1 0x1 OR SWAP1 SSTORE JUMPDEST POP JUMPDEST PUSH1 0x0 PUSH2 0x815 CALLER DUP4 PUSH2 0x2439 JUMP JUMPDEST SWAP1 POP DUP1 PUSH1 0x0 SUB PUSH2 0x838 JUMPI PUSH1 0x40 MLOAD PUSH4 0x12D37EE5 PUSH1 0xE3 SHL DUP2 MSTORE PUSH1 0x4 ADD PUSH1 0x40 MLOAD DUP1 SWAP2 SUB SWAP1 REVERT JUMPDEST PUSH1 0x6 SLOAD DUP2 LT ISZERO PUSH2 0x85B JUMPI PUSH1 0x40 MLOAD PUSH4 0x7E3F2B7D PUSH1 0xE0 SHL DUP2 MSTORE PUSH1 0x4 ADD PUSH1 0x40 MLOAD DUP1 SWAP2 SUB SWAP1 REVERT JUMPDEST CALLER PUSH1 0x0 SWAP1 DUP2 MSTORE PUSH1 0xB PUSH1 0x20 MSTORE PUSH1 0x40 DUP1 DUP3 KECCAK256 DUP3 SLOAD SWAP2 MLOAD PUSH4 0x11EA9FA9 PUSH1 0xE2 SHL DUP2 MSTORE PUSH1 0x4 DUP2 ADD DUP6 SWAP1 MSTORE SWAP1 SWAP3 SWAP2 PUSH1 0x1 PUSH1 0x1 PUSH1 0xA0 SHL SUB AND SWAP1 PUSH4 0x47AA7EA4 SWAP1 PUSH1 0x24 ADD PUSH1 0x20 PUSH1 0x40 MLOAD DUP1 DUP4 SUB DUP2 DUP7 GAS STATICCALL ISZERO DUP1 ISZERO PUSH2 0x8B3 JUMPI RETURNDATASIZE PUSH1 0x0 DUP1 RETURNDATACOPY RETURNDATASIZE PUSH1 0x0 REVERT JUMPDEST POP POP POP POP PUSH1 0x40 MLOAD RETURNDATASIZE PUSH1 0x1F NOT PUSH1 0x1F DUP3 ADD AND DUP3 ADD DUP1 PUSH1 0x40 MSTORE POP DUP2 ADD SWAP1 PUSH2 0x8D7 SWAP2 SWAP1 PUSH2 0x33E3 JUMP JUMPDEST SWAP1 POP DUP1 PUSH1 0x0 SUB PUSH2 0x8FA JUMPI PUSH1 0x40 MLOAD PUSH4 0xCC884657 PUSH1 0xE0 SHL DUP2 MSTORE PUSH1 0x4 ADD PUSH1 0x40 MLOAD DUP1 SWAP2 SUB SWAP1 REVERT JUMPDEST PUSH1 0x40 MLOAD PUSH4 0x70A08231 PUSH1 0xE0 SHL DUP2 MSTORE ADDRESS PUSH1 0x4 DUP3 ADD MSTORE DUP2 SWAP1 PUSH32 0x0 PUSH1 0x1 PUSH1 0x1 PUSH1 0xA0 SHL SUB AND SWAP1 PUSH4 0x70A08231 SWAP1 PUSH1 0x24 ADD PUSH1 0x20 PUSH1 0x40 MLOAD DUP1 DUP4 SUB DUP2 DUP7 GAS STATICCALL ISZERO DUP1 ISZERO PUSH2 0x960 JUMPI RETURNDATASIZE PUSH1 0x0 DUP1 RETURNDATACOPY RETURNDATASIZE PUSH1 0x0 REVERT JUMPDEST POP POP POP POP PUSH1 0x40 MLOAD RETURNDATASIZE PUSH1 0x1F NOT PUSH1 0x1F DUP3 ADD AND DUP3 ADD DUP1 PUSH1 0x40 MSTORE POP DUP2 ADD SWAP1 PUSH2 0x984 SWAP2 SWAP1 PUSH2 0x33E3 JUMP JUMPDEST LT ISZERO PUSH2 0x9A3 JUMPI PUSH1 0x40 MLOAD PUSH4 0x75E4645 PUSH1 0xE0 SHL DUP2 MSTORE PUSH1 0x4 ADD PUSH1 0x40 MLOAD DUP1 SWAP2 SUB SWAP1 REVERT JUMPDEST DUP3 DUP5 PUSH1 0x5 ADD PUSH1 0x0 DUP3 DUP3 SLOAD PUSH2 0x9B7 SWAP2 SWAP1 PUSH2 0x33D0 JUMP JUMPDEST SWAP1 SWAP2 SSTORE POP POP TIMESTAMP PUSH1 0x4 DUP6 ADD SSTORE PUSH1 0x2 DUP3 ADD DUP1 SLOAD DUP5 SWAP2 SWAP1 PUSH1 0x0 SWAP1 PUSH2 0x9D9 SWAP1 DUP5 SWAP1 PUSH2 0x33D0 JUMP JUMPDEST SWAP3 POP POP DUP2 SWAP1 SSTORE POP DUP3 PUSH1 0xE PUSH1 0x0 DUP3 DUP3 SLOAD PUSH2 0x9F2 SWAP2 SWAP1 PUSH2 0x33D0 JUMP JUMPDEST SWAP1 SWAP2 SSTORE POP POP PUSH1 0x6 DUP5 ADD SLOAD PUSH1 0x5 DUP6 ADD SLOAD LT PUSH2 0xA3E JUMPI PUSH1 0x7 DUP5 ADD DUP1 SLOAD PUSH1 0xFF NOT AND SWAP1 SSTORE PUSH1 0x40 MLOAD CALLER SWAP1 PUSH32 0xFA1EB7BA4F65747C7C8882031EB92D63B6FCB684B75052185312FBE1A488D943 SWAP1 PUSH1 0x0 SWAP1 LOG2 JUMPDEST PUSH2 0xA72 PUSH1 0x1 PUSH1 0x1 PUSH1 0xA0 SHL SUB PUSH32 0x0 AND CALLER DUP4 PUSH2 0x268E JUMP JUMPDEST PUSH1 0x2 SLOAD PUSH1 0x1 PUSH1 0x1 PUSH1 0xA0 SHL SUB AND ISZERO PUSH2 0xC52 JUMPI DUP3 ISZERO PUSH2 0xC52 JUMPI PUSH1 0x2 SLOAD PUSH1 0x40 MLOAD PUSH4 0x8000D991 PUSH1 0xE0 SHL DUP2 MSTORE CALLER PUSH1 0x4 DUP3 ADD MSTORE PUSH1 0x24 DUP2 ADD DUP6 SWAP1 MSTORE PUSH1 0x0 SWAP2 PUSH1 0x1 PUSH1 0x1 PUSH1 0xA0 SHL SUB AND SWAP1 PUSH4 0x8000D991 SWAP1 PUSH1 0x44 ADD PUSH1 0x20 PUSH1 0x40 MLOAD DUP1 DUP4 SUB DUP2 PUSH1 0x0 DUP8 GAS CALL ISZERO DUP1 ISZERO PUSH2 0xADB JUMPI RETURNDATASIZE PUSH1 0x0 DUP1 RETURNDATACOPY RETURNDATASIZE PUSH1 0x0 REVERT JUMPDEST POP POP POP POP PUSH1 0x40 MLOAD RETURNDATASIZE PUSH1 0x1F NOT PUSH1 0x1F DUP3 ADD AND DUP3 ADD DUP1 PUSH1 0x40 MSTORE POP DUP2 ADD SWAP1 PUSH2 0xAFF SWAP2 SWAP1 PUSH2 0x33E3 JUMP JUMPDEST SWAP1 POP DUP1 ISZERO PUSH2 0xC50 JUMPI PUSH1 0x0 DUP1 SLOAD PUSH1 0x40 MLOAD PUSH4 0x11EA9FA9 PUSH1 0xE2 SHL DUP2 MSTORE PUSH1 0x4 DUP2 ADD DUP5 SWAP1 MSTORE PUSH1 0x1 PUSH1 0x1 PUSH1 0xA0 SHL SUB SWAP1 SWAP2 AND SWAP1 PUSH4 0x47AA7EA4 SWAP1 PUSH1 0x24 ADD PUSH1 0x20 PUSH1 0x40 MLOAD DUP1 DUP4 SUB DUP2 DUP7 GAS STATICCALL ISZERO DUP1 ISZERO PUSH2 0xB51 JUMPI RETURNDATASIZE PUSH1 0x0 DUP1 RETURNDATACOPY RETURNDATASIZE PUSH1 0x0 REVERT JUMPDEST POP POP POP POP PUSH1 0x40 MLOAD RETURNDATASIZE PUSH1 0x1F NOT PUSH1 0x1F DUP3 ADD AND DUP3 ADD DUP1 PUSH1 0x40 MSTORE POP DUP2 ADD SWAP1 PUSH2 0xB75 SWAP2 SWAP1 PUSH2 0x33E3 JUMP JUMPDEST SWAP1 POP PUSH1 0x0 DUP2 GT DUP1 ISZERO PUSH2 0xC0F JUMPI POP PUSH1 0x40 MLOAD PUSH4 0x70A08231 PUSH1 0xE0 SHL DUP2 MSTORE ADDRESS PUSH1 0x4 DUP3 ADD MSTORE DUP2 SWAP1 PUSH32 0x0 PUSH1 0x1 PUSH1 0x1 PUSH1 0xA0 SHL SUB AND SWAP1 PUSH4 0x70A08231 SWAP1 PUSH1 0x24 ADD PUSH1 0x20 PUSH1 0x40 MLOAD DUP1 DUP4 SUB DUP2 DUP7 GAS STATICCALL ISZERO DUP1 ISZERO PUSH2 0xBE8 JUMPI RETURNDATASIZE PUSH1 0x0 DUP1 RETURNDATACOPY RETURNDATASIZE PUSH1 0x0 REVERT JUMPDEST POP POP POP POP PUSH1 0x40 MLOAD RETURNDATASIZE PUSH1 0x1F NOT PUSH1 0x1F DUP3 ADD AND DUP3 ADD DUP1 PUSH1 0x40 MSTORE POP DUP2 ADD SWAP1 PUSH2 0xC0C SWAP2 SWAP1 PUSH2 0x33E3 JUMP JUMPDEST LT ISZERO JUMPDEST ISZERO PUSH2 0xC4E JUMPI PUSH1 0x2 SLOAD PUSH2 0xC4E SWAP1 PUSH1 0x1 PUSH1 0x1 PUSH1 0xA0 SHL SUB PUSH32 0x0 DUP2 AND SWAP2 AND DUP4 PUSH2 0x268E JUMP JUMPDEST POP JUMPDEST POP JUMPDEST PUSH1 0x40 DUP1 MLOAD DUP5 DUP2 MSTORE PUSH1 0x20 DUP2 ADD DUP4 SWAP1 MSTORE SWAP1 DUP2 ADD DUP7 SWAP1 MSTORE CALLER SWAP1 PUSH32 0x56253D287EFACDB2C4CD76DD03624A4821C1CE721D1152E8F5F5718F6087C9BF SWAP1 PUSH1 0x60 ADD PUSH1 0x40 MLOAD DUP1 SWAP2 SUB SWAP1 LOG2 PUSH1 0x2 DUP3 ADD SLOAD PUSH1 0x40 MLOAD SWAP1 DUP2 MSTORE CALLER SWAP1 PUSH32 0xDAD0E43AFDD45DACA2566E861FF76F0250960D86947518722C83B1E03F45EDD5 SWAP1 PUSH1 0x20 ADD PUSH1 0x40 MLOAD DUP1 SWAP2 SUB SWAP1 LOG2 POP POP POP POP PUSH2 0xCEA PUSH1 0x1 PUSH1 0x0 DUP1 MLOAD PUSH1 0x20 PUSH2 0x34BF DUP4 CODECOPY DUP2 MLOAD SWAP2 MSTORE SSTORE JUMP JUMPDEST POP JUMP JUMPDEST PUSH1 0x5 SLOAD PUSH1 0x1 PUSH1 0x1 PUSH1 0xA0 SHL SUB AND CALLER EQ PUSH2 0xD18 JUMPI PUSH1 0x40 MLOAD PUSH4 0xE05F485 PUSH1 0xE1 SHL DUP2 MSTORE PUSH1 0x4 ADD PUSH1 0x40 MLOAD DUP1 SWAP2 SUB SWAP1 REVERT JUMPDEST PUSH1 0x5 DUP1 SLOAD DUP3 ISZERO ISZERO PUSH1 0x1 PUSH1 0xA8 SHL MUL PUSH1 0xFF PUSH1 0xA8 SHL NOT SWAP1 SWAP2 AND OR SWAP1 SSTORE PUSH1 0x40 MLOAD PUSH32 0x5EF34F53269A04B5B817E5BE24A51BA6B477118B399EC9DD5B2BAF5B299563DC SWAP1 PUSH2 0xD65 SWAP1 DUP4 ISZERO ISZERO DUP2 MSTORE PUSH1 0x20 ADD SWAP1 JUMP JUMPDEST PUSH1 0x40 MLOAD DUP1 SWAP2 SUB SWAP1 LOG1 POP JUMP JUMPDEST PUSH1 0x5 SLOAD PUSH1 0x1 PUSH1 0xA0 SHL SWAP1 DIV PUSH1 0xFF AND ISZERO PUSH2 0xDB2 JUMPI PUSH1 0x5 SLOAD PUSH1 0x1 PUSH1 0x1 PUSH1 0xA0 SHL SUB AND CALLER EQ PUSH2 0xDAD JUMPI PUSH1 0x40 MLOAD PUSH4 0xE05F485 PUSH1 0xE1 SHL DUP2 MSTORE PUSH1 0x4 ADD PUSH1 0x40 MLOAD DUP1 SWAP2 SUB SWAP1 REVERT JUMPDEST PUSH2 0xDDD JUMP JUMPDEST PUSH1 0x4 SLOAD PUSH1 0x1 PUSH1 0x1 PUSH1 0xA0 SHL SUB AND CALLER EQ PUSH2 0xDDD JUMPI PUSH1 0x40 MLOAD PUSH4 0x47556579 PUSH1 0xE0 SHL DUP2 MSTORE PUSH1 0x4 ADD PUSH1 0x40 MLOAD DUP1 SWAP2 SUB SWAP1 REVERT JUMPDEST PUSH1 0x1 PUSH1 0x1 PUSH1 0xA0 SHL SUB DUP4 AND ISZERO DUP1 PUSH2 0xDFA JUMPI POP PUSH1 0x1 PUSH1 0x1 PUSH1 0xA0 SHL SUB DUP3 AND ISZERO JUMPDEST DUP1 PUSH2 0xE0C JUMPI POP PUSH1 0x1 PUSH1 0x1 PUSH1 0xA0 SHL SUB DUP2 AND ISZERO JUMPDEST ISZERO PUSH2 0xE2A JUMPI PUSH1 0x40 MLOAD PUSH4 0xD92E233D PUSH1 0xE0 SHL DUP2 MSTORE PUSH1 0x4 ADD PUSH1 0x40 MLOAD DUP1 SWAP2 SUB SWAP1 REVERT JUMPDEST PUSH1 0x7 DUP1 SLOAD PUSH1 0x1 PUSH1 0x1 PUSH1 0xA0 SHL SUB SWAP5 DUP6 AND PUSH1 0x1 PUSH1 0x1 PUSH1 0xA0 SHL SUB NOT SWAP2 DUP3 AND OR SWAP1 SWAP2 SSTORE PUSH1 0x8 DUP1 SLOAD SWAP4 DUP6 AND SWAP4 DUP3 AND SWAP4 SWAP1 SWAP4 OR SWAP1 SWAP3 SSTORE PUSH1 0x9 DUP1 SLOAD SWAP2 SWAP1 SWAP4 AND SWAP2 AND OR SWAP1 SSTORE JUMP JUMPDEST PUSH1 0x4 SLOAD PUSH1 0x1 PUSH1 0x1 PUSH1 0xA0 SHL SUB AND CALLER EQ PUSH2 0xE94 JUMPI PUSH1 0x40 MLOAD PUSH4 0x47556579 PUSH1 0xE0 SHL DUP2 MSTORE PUSH1 0x4 ADD PUSH1 0x40 MLOAD DUP1 SWAP2 SUB SWAP1 REVERT JUMPDEST DUP3 DUP2 EQ PUSH2 0xEDA JUMPI PUSH1 0x40 MLOAD PUSH3 0x461BCD PUSH1 0xE5 SHL DUP2 MSTORE PUSH1 0x20 PUSH1 0x4 DUP3 ADD MSTORE PUSH1 0xF PUSH1 0x24 DUP3 ADD MSTORE PUSH15 0x98CADCCEE8D040DAD2E6DAC2E8C6D PUSH1 0x8B SHL PUSH1 0x44 DUP3 ADD MSTORE PUSH1 0x64 ADD JUMPDEST PUSH1 0x40 MLOAD DUP1 SWAP2 SUB SWAP1 REVERT JUMPDEST PUSH1 0x0 JUMPDEST DUP4 DUP2 LT ISZERO PUSH2 0xF4E JUMPI DUP3 DUP3 DUP3 DUP2 DUP2 LT PUSH2 0xEF7 JUMPI PUSH2 0xEF7 PUSH2 0x33A4 JUMP JUMPDEST SWAP1 POP PUSH1 0x20 MUL ADD CALLDATALOAD PUSH1 0xB PUSH1 0x0 DUP8 DUP8 DUP6 DUP2 DUP2 LT PUSH2 0xF14 JUMPI PUSH2 0xF14 PUSH2 0x33A4 JUMP JUMPDEST SWAP1 POP PUSH1 0x20 MUL ADD PUSH1 0x20 DUP2 ADD SWAP1 PUSH2 0xF29 SWAP2 SWAP1 PUSH2 0x3125 JUMP JUMPDEST PUSH1 0x1 PUSH1 0x1 PUSH1 0xA0 SHL SUB AND DUP2 MSTORE PUSH1 0x20 DUP2 ADD SWAP2 SWAP1 SWAP2 MSTORE PUSH1 0x40 ADD PUSH1 0x0 KECCAK256 PUSH1 0x2 ADD SSTORE PUSH1 0x1 ADD PUSH2 0xEDD JUMP JUMPDEST POP POP POP POP POP JUMP JUMPDEST PUSH1 0x1 PUSH1 0x1 PUSH1 0xA0 SHL SUB DUP3 AND PUSH1 0x0 SWAP1 DUP2 MSTORE PUSH1 0xB PUSH1 0x20 MSTORE PUSH1 0x40 DUP2 KECCAK256 PUSH1 0x3 ADD SLOAD PUSH1 0xFF AND ISZERO PUSH2 0xF81 JUMPI POP PUSH1 0x0 PUSH2 0x1033 JUMP JUMPDEST PUSH1 0x1 PUSH1 0x1 PUSH1 0xA0 SHL SUB DUP4 AND PUSH1 0x0 SWAP1 DUP2 MSTORE PUSH1 0xA PUSH1 0x20 MSTORE PUSH1 0x40 SWAP1 KECCAK256 SLOAD DUP3 LT PUSH2 0xFA8 JUMPI POP PUSH1 0x0 PUSH2 0x1033 JUMP JUMPDEST PUSH1 0x1 PUSH1 0x1 PUSH1 0xA0 SHL SUB DUP4 AND PUSH1 0x0 SWAP1 DUP2 MSTORE PUSH1 0xA PUSH1 0x20 MSTORE PUSH1 0x40 DUP2 KECCAK256 DUP1 SLOAD DUP5 SWAP1 DUP2 LT PUSH2 0xFD2 JUMPI PUSH2 0xFD2 PUSH2 0x33A4 JUMP JUMPDEST PUSH1 0x0 SWAP2 DUP3 MSTORE PUSH1 0x20 SWAP1 SWAP2 KECCAK256 PUSH1 0x8 SWAP1 SWAP2 MUL ADD PUSH1 0x7 DUP2 ADD SLOAD SWAP1 SWAP2 POP PUSH1 0xFF AND PUSH2 0xFFB JUMPI PUSH1 0x0 SWAP2 POP POP PUSH2 0x1033 JUMP JUMPDEST PUSH1 0x0 PUSH3 0xD2F00 DUP3 PUSH1 0x3 ADD SLOAD PUSH2 0x1010 SWAP2 SWAP1 PUSH2 0x33D0 JUMP JUMPDEST SWAP1 POP DUP1 TIMESTAMP LT PUSH2 0x1024 JUMPI PUSH1 0x0 SWAP3 POP POP POP PUSH2 0x1033 JUMP JUMPDEST PUSH2 0x102E TIMESTAMP DUP3 PUSH2 0x33FC JUMP JUMPDEST SWAP3 POP POP POP JUMPDEST SWAP3 SWAP2 POP POP JUMP JUMPDEST PUSH1 0x5 SLOAD PUSH1 0x1 PUSH1 0x1 PUSH1 0xA0 SHL SUB AND CALLER EQ PUSH2 0x1064 JUMPI PUSH1 0x40 MLOAD PUSH4 0xE05F485 PUSH1 0xE1 SHL DUP2 MSTORE PUSH1 0x4 ADD PUSH1 0x40 MLOAD DUP1 SWAP2 SUB SWAP1 REVERT JUMPDEST PUSH1 0x6 SSTORE JUMP JUMPDEST PUSH1 0x2 SLOAD PUSH1 0x1 PUSH1 0x1 PUSH1 0xA0 SHL SUB AND CALLER EQ PUSH2 0x1094 JUMPI PUSH1 0x40 MLOAD PUSH4 0x3864B1E5 PUSH1 0xE2 SHL DUP2 MSTORE PUSH1 0x4 ADD PUSH1 0x40 MLOAD DUP1 SWAP2 SUB SWAP1 REVERT JUMPDEST PUSH1 0x1 PUSH1 0x1 PUSH1 0xA0 SHL SUB DUP3 AND PUSH1 0x0 SWAP1 DUP2 MSTORE PUSH1 0xB PUSH1 0x20 MSTORE PUSH1 0x40 DUP2 KECCAK256 PUSH1 0x2 ADD DUP1 SLOAD DUP4 SWAP3 SWAP1 PUSH2 0x10BF SWAP1 DUP5 SWAP1 PUSH2 0x33D0 JUMP JUMPDEST SWAP1 SWAP2 SSTORE POP POP PUSH1 0x1 PUSH1 0x1 PUSH1 0xA0 SHL SUB DUP3 AND PUSH1 0x0 DUP2 DUP2 MSTORE PUSH1 0xB PUSH1 0x20 SWAP1 DUP2 MSTORE PUSH1 0x40 SWAP2 DUP3 SWAP1 KECCAK256 PUSH1 0x2 ADD SLOAD SWAP2 MLOAD SWAP2 DUP3 MSTORE PUSH32 0xDAD0E43AFDD45DACA2566E861FF76F0250960D86947518722C83B1E03F45EDD5 SWAP2 ADD PUSH1 0x40 MLOAD DUP1 SWAP2 SUB SWAP1 LOG2 POP POP JUMP JUMPDEST PUSH1 0x4 SLOAD PUSH1 0x1 PUSH1 0x1 PUSH1 0xA0 SHL SUB AND CALLER EQ PUSH2 0x1143 JUMPI PUSH1 0x40 MLOAD PUSH4 0x47556579 PUSH1 0xE0 SHL DUP2 MSTORE PUSH1 0x4 ADD PUSH1 0x40 MLOAD DUP1 SWAP2 SUB SWAP1 REVERT JUMPDEST PUSH1 0x5 SLOAD PUSH1 0x1 PUSH1 0xA0 SHL SWAP1 DIV PUSH1 0xFF AND ISZERO PUSH2 0x116E JUMPI PUSH1 0x40 MLOAD PUSH4 0x238F75D3 PUSH1 0xE0 SHL DUP2 MSTORE PUSH1 0x4 ADD PUSH1 0x40 MLOAD DUP1 SWAP2 SUB SWAP1 REVERT JUMPDEST PUSH1 0x1 PUSH1 0x1 PUSH1 0xA0 SHL SUB DUP3 AND PUSH2 0x1195 JUMPI PUSH1 0x40 MLOAD PUSH4 0xD92E233D PUSH1 0xE0 SHL DUP2 MSTORE PUSH1 0x4 ADD PUSH1 0x40 MLOAD DUP1 SWAP2 SUB SWAP1 REVERT JUMPDEST PUSH1 0x1 DUP1 SLOAD PUSH1 0x1 PUSH1 0x1 PUSH1 0xA0 SHL SUB NOT SWAP1 DUP2 AND PUSH1 0x1 PUSH1 0x1 PUSH1 0xA0 SHL SUB SWAP8 DUP9 AND OR SWAP1 SWAP2 SSTORE PUSH1 0x2 DUP1 SLOAD DUP3 AND SWAP6 DUP8 AND SWAP6 SWAP1 SWAP6 OR SWAP1 SWAP5 SSTORE PUSH1 0x3 DUP1 SLOAD DUP6 AND SWAP4 DUP7 AND SWAP4 SWAP1 SWAP4 OR SWAP1 SWAP3 SSTORE PUSH1 0x0 DUP1 SLOAD DUP5 AND SWAP2 DUP6 AND SWAP2 SWAP1 SWAP2 OR SWAP1 SSTORE PUSH1 0x5 DUP1 SLOAD SWAP1 SWAP3 AND SWAP3 AND SWAP2 SWAP1 SWAP2 OR SWAP1 SSTORE JUMP JUMPDEST PUSH1 0x1 PUSH1 0x1 PUSH1 0xA0 SHL SUB DUP3 AND PUSH1 0x0 SWAP1 DUP2 MSTORE PUSH1 0xA PUSH1 0x20 MSTORE PUSH1 0x40 DUP2 KECCAK256 SLOAD DUP3 LT PUSH2 0x121B JUMPI POP PUSH1 0x0 PUSH2 0x1033 JUMP JUMPDEST PUSH1 0x1 PUSH1 0x1 PUSH1 0xA0 SHL SUB DUP4 AND PUSH1 0x0 SWAP1 DUP2 MSTORE PUSH1 0xA PUSH1 0x20 MSTORE PUSH1 0x40 DUP2 KECCAK256 DUP1 SLOAD DUP5 SWAP1 DUP2 LT PUSH2 0x1245 JUMPI PUSH2 0x1245 PUSH2 0x33A4 JUMP JUMPDEST PUSH1 0x0 SWAP2 DUP3 MSTORE PUSH1 0x20 SWAP1 SWAP2 KECCAK256 PUSH1 0x8 SWAP1 SWAP2 MUL ADD PUSH1 0x7 DUP2 ADD SLOAD SWAP1 SWAP2 POP PUSH1 0xFF AND PUSH2 0x126E JUMPI PUSH1 0x0 SWAP2 POP POP PUSH2 0x1033 JUMP JUMPDEST PUSH3 0xD2F00 DUP2 PUSH1 0x3 ADD SLOAD PUSH2 0x1281 SWAP2 SWAP1 PUSH2 0x33D0 JUMP JUMPDEST TIMESTAMP GT ISZERO SWAP5 SWAP4 POP POP POP POP JUMP JUMPDEST PUSH1 0x4 SLOAD PUSH1 0x1 PUSH1 0x1 PUSH1 0xA0 SHL SUB AND CALLER EQ PUSH2 0x12B7 JUMPI PUSH1 0x40 MLOAD PUSH4 0x47556579 PUSH1 0xE0 SHL DUP2 MSTORE PUSH1 0x4 ADD PUSH1 0x40 MLOAD DUP1 SWAP2 SUB SWAP1 REVERT JUMPDEST PUSH1 0x0 JUMPDEST DUP2 DUP2 LT ISZERO PUSH2 0x1473 JUMPI CALLDATASIZE DUP4 DUP4 DUP4 DUP2 DUP2 LT PUSH2 0x12D5 JUMPI PUSH2 0x12D5 PUSH2 0x33A4 JUMP JUMPDEST PUSH2 0x100 MUL SWAP2 SWAP1 SWAP2 ADD SWAP2 POP PUSH1 0xA SWAP1 POP PUSH1 0x0 PUSH2 0x12F2 PUSH1 0x20 DUP5 ADD DUP5 PUSH2 0x3125 JUMP JUMPDEST PUSH1 0x1 PUSH1 0x1 PUSH1 0xA0 SHL SUB AND DUP2 MSTORE PUSH1 0x20 DUP1 DUP3 ADD SWAP3 SWAP1 SWAP3 MSTORE PUSH1 0x40 SWAP1 DUP2 ADD PUSH1 0x0 SWAP1 DUP2 KECCAK256 DUP3 MLOAD PUSH2 0x100 DUP2 ADD DUP5 MSTORE DUP6 DUP6 ADD DUP1 CALLDATALOAD DUP1 DUP4 MSTORE DUP8 DUP7 ADD CALLDATALOAD DUP4 DUP9 ADD SWAP1 DUP2 MSTORE PUSH1 0x60 DUP1 DUP11 ADD CALLDATALOAD SWAP8 DUP6 ADD SWAP8 DUP9 MSTORE PUSH1 0x80 DUP1 DUP12 ADD CALLDATALOAD SWAP2 DUP7 ADD SWAP2 DUP3 MSTORE PUSH1 0xA0 DUP1 DUP13 ADD CALLDATALOAD SWAP2 DUP8 ADD SWAP2 DUP3 MSTORE PUSH1 0xC0 DUP1 DUP14 ADD CALLDATALOAD SWAP2 DUP9 ADD SWAP2 DUP3 MSTORE PUSH1 0xE0 DUP1 DUP15 ADD CALLDATALOAD SWAP2 DUP10 ADD SWAP2 DUP3 MSTORE PUSH1 0x1 SWAP1 DUP10 ADD DUP2 DUP2 MSTORE DUP11 SLOAD DUP1 DUP4 ADD DUP13 SSTORE SWAP11 DUP13 MSTORE SWAP13 DUP12 KECCAK256 SWAP9 MLOAD PUSH1 0x8 SWAP1 SWAP11 MUL SWAP1 SWAP9 ADD SWAP9 DUP10 SSTORE SWAP4 MLOAD SWAP7 DUP9 ADD SWAP7 SWAP1 SWAP7 SSTORE SWAP8 MLOAD PUSH1 0x2 DUP8 ADD SSTORE MLOAD PUSH1 0x3 DUP7 ADD SSTORE SWAP6 MLOAD PUSH1 0x4 DUP6 ADD SSTORE SWAP2 MLOAD PUSH1 0x5 DUP5 ADD SSTORE SWAP4 MLOAD PUSH1 0x6 DUP4 ADD SSTORE SWAP4 MLOAD PUSH1 0x7 SWAP1 SWAP2 ADD DUP1 SLOAD PUSH1 0xFF NOT AND SWAP2 ISZERO ISZERO SWAP2 SWAP1 SWAP2 OR SWAP1 SSTORE PUSH1 0xB SWAP2 PUSH2 0x13D7 SWAP1 DUP6 PUSH2 0x3125 JUMP JUMPDEST PUSH1 0x1 PUSH1 0x1 PUSH1 0xA0 SHL SUB AND PUSH1 0x1 PUSH1 0x1 PUSH1 0xA0 SHL SUB AND DUP2 MSTORE PUSH1 0x20 ADD SWAP1 DUP2 MSTORE PUSH1 0x20 ADD PUSH1 0x0 KECCAK256 PUSH1 0x0 ADD PUSH1 0x0 DUP3 DUP3 SLOAD PUSH2 0x1409 SWAP2 SWAP1 PUSH2 0x33D0 JUMP JUMPDEST SWAP1 SWAP2 SSTORE POP PUSH1 0xB SWAP1 POP PUSH1 0x0 PUSH2 0x1420 PUSH1 0x20 DUP5 ADD DUP5 PUSH2 0x3125 JUMP JUMPDEST PUSH1 0x1 PUSH1 0x1 PUSH1 0xA0 SHL SUB AND DUP2 MSTORE PUSH1 0x20 DUP2 ADD SWAP2 SWAP1 SWAP2 MSTORE PUSH1 0x40 ADD PUSH1 0x0 SWAP1 DUP2 KECCAK256 PUSH1 0x1 ADD DUP1 SLOAD SWAP2 PUSH2 0x144A DUP4 PUSH2 0x340F JUMP JUMPDEST SWAP2 SWAP1 POP SSTORE POP DUP1 PUSH1 0x20 ADD CALLDATALOAD PUSH1 0xC PUSH1 0x0 DUP3 DUP3 SLOAD PUSH2 0x1465 SWAP2 SWAP1 PUSH2 0x33D0 JUMP JUMPDEST SWAP1 SWAP2 SSTORE POP POP POP PUSH1 0x1 ADD PUSH2 0x12BA JUMP JUMPDEST POP POP POP JUMP JUMPDEST PUSH1 0x4 SLOAD PUSH1 0x1 PUSH1 0x1 PUSH1 0xA0 SHL SUB AND CALLER EQ PUSH2 0x14A3 JUMPI PUSH1 0x40 MLOAD PUSH4 0x47556579 PUSH1 0xE0 SHL DUP2 MSTORE PUSH1 0x4 ADD PUSH1 0x40 MLOAD DUP1 SWAP2 SUB SWAP1 REVERT JUMPDEST PUSH1 0x5 SLOAD PUSH1 0x1 PUSH1 0xA0 SHL SWAP1 DIV PUSH1 0xFF AND ISZERO PUSH2 0x14CE JUMPI PUSH1 0x40 MLOAD PUSH4 0x238F75D3 PUSH1 0xE0 SHL DUP2 MSTORE PUSH1 0x4 ADD PUSH1 0x40 MLOAD DUP1 SWAP2 SUB SWAP1 REVERT JUMPDEST PUSH1 0x1 SLOAD PUSH1 0x1 PUSH1 0x1 PUSH1 0xA0 SHL SUB AND PUSH2 0x14F7 JUMPI PUSH1 0x40 MLOAD PUSH4 0xD311BC39 PUSH1 0xE0 SHL DUP2 MSTORE PUSH1 0x4 ADD PUSH1 0x40 MLOAD DUP1 SWAP2 SUB SWAP1 REVERT JUMPDEST PUSH1 0x5 DUP1 SLOAD PUSH1 0xFF PUSH1 0xA0 SHL NOT AND PUSH1 0x1 PUSH1 0xA0 SHL OR SWAP1 SSTORE PUSH1 0x4 DUP1 SLOAD PUSH1 0x1 PUSH1 0x1 PUSH1 0xA0 SHL SUB NOT AND SWAP1 SSTORE JUMP JUMPDEST PUSH2 0x1524 PUSH2 0x237C JUMP JUMPDEST PUSH2 0x152F CALLER DUP4 DUP4 PUSH2 0x26C3 JUMP JUMPDEST PUSH2 0x1546 PUSH1 0x1 PUSH1 0x0 DUP1 MLOAD PUSH1 0x20 PUSH2 0x34BF DUP4 CODECOPY DUP2 MLOAD SWAP2 MSTORE SSTORE JUMP JUMPDEST POP POP JUMP JUMPDEST PUSH1 0x5 SLOAD PUSH1 0x1 PUSH1 0x1 PUSH1 0xA0 SHL SUB AND CALLER EQ PUSH2 0x1575 JUMPI PUSH1 0x40 MLOAD PUSH4 0xE05F485 PUSH1 0xE1 SHL DUP2 MSTORE PUSH1 0x4 ADD PUSH1 0x40 MLOAD DUP1 SWAP2 SUB SWAP1 REVERT JUMPDEST PUSH1 0x2 SLOAD PUSH1 0x40 MLOAD PUSH1 0x1 PUSH1 0x1 PUSH1 0xA0 SHL SUB DUP1 DUP5 AND SWAP3 AND SWAP1 PUSH32 0xEEFE1CE2782E4BA3BBCCD79617FAE74979FA22005F22F7075C0910CD51C8FFD9 SWAP1 PUSH1 0x0 SWAP1 LOG3 PUSH1 0x2 DUP1 SLOAD PUSH1 0x1 PUSH1 0x1 PUSH1 0xA0 SHL SUB NOT AND PUSH1 0x1 PUSH1 0x1 PUSH1 0xA0 SHL SUB SWAP3 SWAP1 SWAP3 AND SWAP2 SWAP1 SWAP2 OR SWAP1 SSTORE JUMP JUMPDEST PUSH1 0x1 PUSH1 0x1 PUSH1 0xA0 SHL SUB DUP4 AND PUSH1 0x0 SWAP1 DUP2 MSTORE PUSH1 0xA PUSH1 0x20 MSTORE PUSH1 0x40 DUP2 KECCAK256 SLOAD DUP2 SWAP1 DUP2 SWAP1 DUP2 SWAP1 DUP7 LT PUSH2 0x1607 JUMPI POP PUSH1 0x0 SWAP3 POP DUP3 SWAP2 POP DUP2 SWAP1 POP DUP1 PUSH2 0x174D JUMP JUMPDEST PUSH1 0x1 PUSH1 0x1 PUSH1 0xA0 SHL SUB DUP8 AND PUSH1 0x0 SWAP1 DUP2 MSTORE PUSH1 0xA PUSH1 0x20 MSTORE PUSH1 0x40 DUP2 KECCAK256 DUP1 SLOAD DUP9 SWAP1 DUP2 LT PUSH2 0x1631 JUMPI PUSH2 0x1631 PUSH2 0x33A4 JUMP JUMPDEST PUSH1 0x0 SWAP2 DUP3 MSTORE PUSH1 0x20 SWAP1 SWAP2 KECCAK256 PUSH1 0x8 SWAP1 SWAP2 MUL ADD PUSH1 0x7 DUP2 ADD SLOAD SWAP1 SWAP2 POP PUSH1 0xFF AND ISZERO DUP1 PUSH2 0x1669 JUMPI POP PUSH3 0xD2F00 DUP2 PUSH1 0x3 ADD SLOAD PUSH2 0x1666 SWAP2 SWAP1 PUSH2 0x33D0 JUMP JUMPDEST TIMESTAMP GT JUMPDEST ISZERO PUSH2 0x1682 JUMPI PUSH1 0x0 DUP1 PUSH1 0x0 DUP1 SWAP5 POP SWAP5 POP SWAP5 POP SWAP5 POP POP PUSH2 0x174D JUMP JUMPDEST DUP6 PUSH2 0x2710 EQ ISZERO DUP1 ISZERO PUSH2 0x1696 JUMPI POP DUP6 PUSH2 0x1388 EQ ISZERO JUMPDEST DUP1 ISZERO PUSH2 0x16A4 JUMPI POP DUP6 PUSH2 0x9C4 EQ ISZERO JUMPDEST ISZERO PUSH2 0x16BD JUMPI PUSH1 0x0 DUP1 PUSH1 0x0 DUP1 SWAP5 POP SWAP5 POP SWAP5 POP SWAP5 POP POP PUSH2 0x174D JUMP JUMPDEST DUP1 SLOAD PUSH2 0x2710 PUSH2 0x16CC DUP9 DUP4 PUSH2 0x3428 JUMP JUMPDEST PUSH2 0x16D6 SWAP2 SWAP1 PUSH2 0x3455 JUMP JUMPDEST SWAP6 POP PUSH2 0x2710 PUSH2 0x16E7 PUSH2 0x3E8 DUP9 PUSH2 0x3428 JUMP JUMPDEST PUSH2 0x16F1 SWAP2 SWAP1 PUSH2 0x3455 JUMP JUMPDEST SWAP5 POP PUSH1 0x0 PUSH2 0x2710 DUP9 DUP5 PUSH1 0x5 ADD SLOAD PUSH2 0x1708 SWAP2 SWAP1 PUSH2 0x3428 JUMP JUMPDEST PUSH2 0x1712 SWAP2 SWAP1 PUSH2 0x3455 JUMP JUMPDEST SWAP1 POP PUSH1 0x0 PUSH2 0x1720 DUP3 DUP9 PUSH2 0x33D0 JUMP JUMPDEST SWAP1 POP DUP1 DUP9 GT PUSH2 0x1730 JUMPI PUSH1 0x0 PUSH2 0x173A JUMP JUMPDEST PUSH2 0x173A DUP2 DUP10 PUSH2 0x33FC JUMP JUMPDEST SWAP6 POP PUSH2 0x1746 DUP9 DUP5 PUSH2 0x33FC JUMP JUMPDEST SWAP5 POP POP POP POP POP JUMPDEST SWAP4 POP SWAP4 POP SWAP4 POP SWAP4 JUMP JUMPDEST PUSH1 0x3 SLOAD PUSH1 0x1 PUSH1 0x1 PUSH1 0xA0 SHL SUB AND CALLER EQ PUSH2 0x1094 JUMPI PUSH1 0x40 MLOAD PUSH4 0x33273113 PUSH1 0xE1 SHL DUP2 MSTORE PUSH1 0x4 ADD PUSH1 0x40 MLOAD DUP1 SWAP2 SUB SWAP1 REVERT JUMPDEST PUSH2 0x1789 PUSH2 0x237C JUMP JUMPDEST PUSH1 0x5 SLOAD PUSH1 0x1 PUSH1 0xA8 SHL SWAP1 DIV PUSH1 0xFF AND ISZERO PUSH2 0x17B3 JUMPI PUSH1 0x40 MLOAD PUSH3 0x7CFE7F PUSH1 0xE3 SHL DUP2 MSTORE PUSH1 0x4 ADD PUSH1 0x40 MLOAD DUP1 SWAP2 SUB SWAP1 REVERT JUMPDEST DUP1 PUSH1 0x0 SUB PUSH2 0x17D4 JUMPI PUSH1 0x40 MLOAD PUSH4 0x2B7786BD PUSH1 0xE2 SHL DUP2 MSTORE PUSH1 0x4 ADD PUSH1 0x40 MLOAD DUP1 SWAP2 SUB SWAP1 REVERT JUMPDEST PUSH10 0x10F0CF064DD59200000 DUP2 GT ISZERO PUSH2 0x17FF JUMPI PUSH1 0x40 MLOAD PUSH4 0xC066E1E9 PUSH1 0xE0 SHL DUP2 MSTORE PUSH1 0x4 ADD PUSH1 0x40 MLOAD DUP1 SWAP2 SUB SWAP1 REVERT JUMPDEST CALLER PUSH1 0x0 SWAP1 DUP2 MSTORE PUSH1 0xB PUSH1 0x20 MSTORE PUSH1 0x40 SWAP1 KECCAK256 SLOAD PUSH10 0x10F0CF064DD59200000 SWAP1 PUSH2 0x1826 SWAP1 DUP4 SWAP1 PUSH2 0x33D0 JUMP JUMPDEST GT ISZERO PUSH2 0x1845 JUMPI PUSH1 0x40 MLOAD PUSH4 0xC066E1E9 PUSH1 0xE0 SHL DUP2 MSTORE PUSH1 0x4 ADD PUSH1 0x40 MLOAD DUP1 SWAP2 SUB SWAP1 REVERT JUMPDEST PUSH1 0x0 SLOAD PUSH1 0x1 PUSH1 0x1 PUSH1 0xA0 SHL SUB AND PUSH2 0x186E JUMPI PUSH1 0x40 MLOAD PUSH4 0xD311BC39 PUSH1 0xE0 SHL DUP2 MSTORE PUSH1 0x4 ADD PUSH1 0x40 MLOAD DUP1 SWAP2 SUB SWAP1 REVERT JUMPDEST PUSH2 0x18A3 PUSH1 0x1 PUSH1 0x1 PUSH1 0xA0 SHL SUB PUSH32 0x0 AND CALLER ADDRESS DUP5 PUSH2 0x2C1F JUMP JUMPDEST PUSH1 0x7 SLOAD DUP2 SWAP1 PUSH1 0x1 PUSH1 0x1 PUSH1 0xA0 SHL SUB AND ISZERO DUP1 ISZERO SWAP1 PUSH2 0x18C9 JUMPI POP PUSH1 0x8 SLOAD PUSH1 0x1 PUSH1 0x1 PUSH1 0xA0 SHL SUB AND ISZERO ISZERO JUMPDEST DUP1 ISZERO PUSH2 0x18DF JUMPI POP PUSH1 0x9 SLOAD PUSH1 0x1 PUSH1 0x1 PUSH1 0xA0 SHL SUB AND ISZERO ISZERO JUMPDEST ISZERO PUSH2 0x1A0D JUMPI PUSH1 0x0 PUSH2 0x2710 PUSH2 0x18F4 PUSH1 0x64 DUP6 PUSH2 0x3428 JUMP JUMPDEST PUSH2 0x18FE SWAP2 SWAP1 PUSH2 0x3455 JUMP JUMPDEST SWAP1 POP PUSH1 0x0 PUSH2 0x2710 PUSH2 0x1910 PUSH1 0x32 DUP7 PUSH2 0x3428 JUMP JUMPDEST PUSH2 0x191A SWAP2 SWAP1 PUSH2 0x3455 JUMP JUMPDEST SWAP1 POP PUSH1 0x0 PUSH2 0x2710 PUSH2 0x192C PUSH1 0x32 DUP8 PUSH2 0x3428 JUMP JUMPDEST PUSH2 0x1936 SWAP2 SWAP1 PUSH2 0x3455 JUMP JUMPDEST PUSH1 0x7 SLOAD SWAP1 SWAP2 POP PUSH2 0x1973 SWAP1 PUSH1 0x1 PUSH1 0x1 PUSH1 0xA0 SHL SUB PUSH32 0x0 DUP2 AND SWAP2 AND DUP6 PUSH2 0x268E JUMP JUMPDEST PUSH1 0x8 SLOAD PUSH2 0x19AD SWAP1 PUSH1 0x1 PUSH1 0x1 PUSH1 0xA0 SHL SUB PUSH32 0x0 DUP2 AND SWAP2 AND DUP5 PUSH2 0x268E JUMP JUMPDEST PUSH1 0x9 SLOAD PUSH2 0x19E7 SWAP1 PUSH1 0x1 PUSH1 0x1 PUSH1 0xA0 SHL SUB PUSH32 0x0 DUP2 AND SWAP2 AND DUP4 PUSH2 0x268E JUMP JUMPDEST DUP1 DUP3 PUSH2 0x19F3 DUP6 DUP9 PUSH2 0x33FC JUMP JUMPDEST PUSH2 0x19FD SWAP2 SWAP1 PUSH2 0x33FC JUMP JUMPDEST PUSH2 0x1A07 SWAP2 SWAP1 PUSH2 0x33FC JUMP JUMPDEST SWAP4 POP POP POP POP JUMPDEST PUSH1 0x0 DUP1 SLOAD PUSH1 0x40 MLOAD PUSH4 0x70A08231 PUSH1 0xE0 SHL DUP2 MSTORE PUSH1 0x1 PUSH1 0x1 PUSH1 0xA0 SHL SUB SWAP2 DUP3 AND PUSH1 0x4 DUP3 ADD MSTORE PUSH32 0x0 SWAP1 SWAP2 AND SWAP1 PUSH4 0x70A08231 SWAP1 PUSH1 0x24 ADD PUSH1 0x20 PUSH1 0x40 MLOAD DUP1 DUP4 SUB DUP2 DUP7 GAS STATICCALL ISZERO DUP1 ISZERO PUSH2 0x1A79 JUMPI RETURNDATASIZE PUSH1 0x0 DUP1 RETURNDATACOPY RETURNDATASIZE PUSH1 0x0 REVERT JUMPDEST POP POP POP POP PUSH1 0x40 MLOAD RETURNDATASIZE PUSH1 0x1F NOT PUSH1 0x1F DUP3 ADD AND DUP3 ADD DUP1 PUSH1 0x40 MSTORE POP DUP2 ADD SWAP1 PUSH2 0x1A9D SWAP2 SWAP1 PUSH2 0x33E3 JUMP JUMPDEST PUSH1 0x0 DUP1 SLOAD PUSH1 0x40 DUP1 MLOAD PUSH4 0x240BC6B PUSH1 0xE2 SHL DUP2 MSTORE DUP2 MLOAD SWAP5 SWAP6 POP SWAP3 SWAP4 DUP5 SWAP4 DUP5 SWAP4 PUSH1 0x1 PUSH1 0x1 PUSH1 0xA0 SHL SUB AND SWAP3 PUSH4 0x902F1AC SWAP3 PUSH1 0x4 DUP1 DUP5 ADD SWAP4 DUP3 SWAP1 SUB ADD DUP2 DUP7 GAS STATICCALL ISZERO DUP1 ISZERO PUSH2 0x1AE9 JUMPI RETURNDATASIZE PUSH1 0x0 DUP1 RETURNDATACOPY RETURNDATASIZE PUSH1 0x0 REVERT JUMPDEST POP POP POP POP PUSH1 0x40 MLOAD RETURNDATASIZE PUSH1 0x1F NOT PUSH1 0x1F DUP3 ADD AND DUP3 ADD DUP1 PUSH1 0x40 MSTORE POP DUP2 ADD SWAP1 PUSH2 0x1B0D SWAP2 SWAP1 PUSH2 0x3469 JUMP JUMPDEST SWAP2 POP SWAP2 POP PUSH1 0x0 DUP3 GT DUP1 ISZERO PUSH2 0x1B21 JUMPI POP PUSH1 0x0 DUP2 GT JUMPDEST ISZERO PUSH2 0x1B4B JUMPI PUSH2 0x1B30 DUP6 DUP4 PUSH2 0x33D0 JUMP JUMPDEST PUSH2 0x1B3A DUP3 DUP8 PUSH2 0x3428 JUMP JUMPDEST PUSH2 0x1B44 SWAP2 SWAP1 PUSH2 0x3455 JUMP JUMPDEST SWAP3 POP PUSH2 0x1B4F JUMP JUMPDEST DUP5 SWAP3 POP JUMPDEST PUSH9 0x3635C9ADC5DEA00000 PUSH2 0x1B63 DUP2 DUP6 PUSH2 0x33D0 JUMP JUMPDEST DUP6 LT ISZERO PUSH2 0x1CB4 JUMPI PUSH1 0x0 DUP6 PUSH2 0x1B77 DUP4 DUP8 PUSH2 0x33D0 JUMP JUMPDEST PUSH2 0x1B81 SWAP2 SWAP1 PUSH2 0x33FC JUMP JUMPDEST PUSH1 0x40 MLOAD PUSH4 0x70A08231 PUSH1 0xE0 SHL DUP2 MSTORE ADDRESS PUSH1 0x4 DUP3 ADD MSTORE SWAP1 SWAP2 POP PUSH1 0x0 SWAP1 PUSH1 0x1 PUSH1 0x1 PUSH1 0xA0 SHL SUB PUSH32 0x0 AND SWAP1 PUSH4 0x70A08231 SWAP1 PUSH1 0x24 ADD PUSH1 0x20 PUSH1 0x40 MLOAD DUP1 DUP4 SUB DUP2 DUP7 GAS STATICCALL ISZERO DUP1 ISZERO PUSH2 0x1BEB JUMPI RETURNDATASIZE PUSH1 0x0 DUP1 RETURNDATACOPY RETURNDATASIZE PUSH1 0x0 REVERT JUMPDEST POP POP POP POP PUSH1 0x40 MLOAD RETURNDATASIZE PUSH1 0x1F NOT PUSH1 0x1F DUP3 ADD AND DUP3 ADD DUP1 PUSH1 0x40 MSTORE POP DUP2 ADD SWAP1 PUSH2 0x1C0F SWAP2 SWAP1 PUSH2 0x33E3 JUMP JUMPDEST SWAP1 POP DUP2 DUP2 LT PUSH2 0x1CB1 JUMPI PUSH1 0x0 SLOAD PUSH2 0x1C52 SWAP1 PUSH1 0x1 PUSH1 0x1 PUSH1 0xA0 SHL SUB PUSH32 0x0 DUP2 AND SWAP2 AND DUP5 PUSH2 0x2C5B JUMP JUMPDEST PUSH1 0x0 SLOAD PUSH1 0x40 MLOAD PUSH4 0x362CE52B PUSH1 0xE0 SHL DUP2 MSTORE PUSH1 0x4 DUP2 ADD DUP5 SWAP1 MSTORE PUSH1 0x1 PUSH1 0x1 PUSH1 0xA0 SHL SUB SWAP1 SWAP2 AND SWAP1 PUSH4 0x362CE52B SWAP1 PUSH1 0x24 ADD PUSH1 0x0 PUSH1 0x40 MLOAD DUP1 DUP4 SUB DUP2 PUSH1 0x0 DUP8 DUP1 EXTCODESIZE ISZERO DUP1 ISZERO PUSH2 0x1C98 JUMPI PUSH1 0x0 DUP1 REVERT JUMPDEST POP GAS CALL ISZERO DUP1 ISZERO PUSH2 0x1CAC JUMPI RETURNDATASIZE PUSH1 0x0 DUP1 RETURNDATACOPY RETURNDATASIZE PUSH1 0x0 REVERT JUMPDEST POP POP POP POP JUMPDEST POP POP JUMPDEST POP POP PUSH1 0x0 SLOAD PUSH2 0x1CF4 SWAP4 POP PUSH1 0x1 PUSH1 0x1 PUSH1 0xA0 SHL SUB PUSH32 0x0 DUP2 AND SWAP4 POP AND SWAP1 POP DUP4 PUSH2 0x2C5B JUMP JUMPDEST PUSH1 0x0 DUP1 SLOAD PUSH1 0x40 MLOAD PUSH4 0x66102AD PUSH1 0xE1 SHL DUP2 MSTORE PUSH1 0x4 DUP2 ADD DUP5 SWAP1 MSTORE PUSH1 0x1 PUSH1 0x1 PUSH1 0xA0 SHL SUB SWAP1 SWAP2 AND SWAP1 PUSH4 0xCC2055A SWAP1 PUSH1 0x24 ADD PUSH1 0x20 PUSH1 0x40 MLOAD DUP1 DUP4 SUB DUP2 PUSH1 0x0 DUP8 GAS CALL ISZERO DUP1 ISZERO PUSH2 0x1D40 JUMPI RETURNDATASIZE PUSH1 0x0 DUP1 RETURNDATACOPY RETURNDATASIZE PUSH1 0x0 REVERT JUMPDEST POP POP POP POP PUSH1 0x40 MLOAD RETURNDATASIZE PUSH1 0x1F NOT PUSH1 0x1F DUP3 ADD AND DUP3 ADD DUP1 PUSH1 0x40 MSTORE POP DUP2 ADD SWAP1 PUSH2 0x1D64 SWAP2 SWAP1 PUSH2 0x33E3 JUMP JUMPDEST SWAP1 POP PUSH1 0x0 PUSH2 0x1D71 DUP5 PUSH2 0x2CAF JUMP JUMPDEST SWAP1 POP PUSH1 0x0 PUSH2 0x1D7F DUP6 TIMESTAMP PUSH2 0x2CD1 JUMP JUMPDEST SWAP1 POP PUSH1 0x0 PUSH2 0x1D8E PUSH1 0x3 DUP8 PUSH2 0x3428 JUMP JUMPDEST CALLER PUSH1 0x0 DUP2 DUP2 MSTORE PUSH1 0xA PUSH1 0x20 SWAP1 DUP2 MSTORE PUSH1 0x40 DUP1 DUP4 KECCAK256 DUP2 MLOAD PUSH2 0x100 DUP2 ADD DUP4 MSTORE DUP13 DUP2 MSTORE DUP1 DUP5 ADD DUP11 DUP2 MSTORE DUP2 DUP5 ADD DUP11 DUP2 MSTORE TIMESTAMP PUSH1 0x60 DUP5 ADD DUP2 DUP2 MSTORE PUSH1 0x80 DUP6 ADD SWAP2 DUP3 MSTORE PUSH1 0xA0 DUP6 ADD DUP10 DUP2 MSTORE PUSH1 0xC0 DUP7 ADD DUP13 DUP2 MSTORE PUSH1 0x1 PUSH1 0xE0 DUP9 ADD DUP2 DUP2 MSTORE DUP10 SLOAD DUP1 DUP4 ADD DUP12 SSTORE SWAP10 DUP14 MSTORE DUP12 DUP14 KECCAK256 SWAP9 MLOAD PUSH1 0x8 SWAP1 SWAP11 MUL SWAP1 SWAP9 ADD SWAP9 DUP10 SSTORE SWAP6 MLOAD SWAP6 DUP9 ADD SWAP6 SWAP1 SWAP6 SSTORE SWAP3 MLOAD PUSH1 0x2 DUP8 ADD SSTORE MLOAD PUSH1 0x3 DUP7 ADD SSTORE MLOAD PUSH1 0x4 DUP6 ADD SSTORE MLOAD PUSH1 0x5 DUP5 ADD SSTORE MLOAD PUSH1 0x6 DUP4 ADD SSTORE MLOAD PUSH1 0x7 SWAP1 SWAP2 ADD DUP1 SLOAD PUSH1 0xFF NOT AND SWAP2 ISZERO ISZERO SWAP2 SWAP1 SWAP2 OR SWAP1 SSTORE SWAP3 DUP3 MSTORE PUSH1 0xB SWAP1 MSTORE SWAP1 DUP2 KECCAK256 DUP1 SLOAD SWAP3 SWAP4 POP DUP9 SWAP3 SWAP1 SWAP2 SWAP1 PUSH2 0x1E54 SWAP1 DUP5 SWAP1 PUSH2 0x33D0 JUMP JUMPDEST SWAP1 SWAP2 SSTORE POP POP CALLER PUSH1 0x0 SWAP1 DUP2 MSTORE PUSH1 0xB PUSH1 0x20 MSTORE PUSH1 0x40 DUP2 KECCAK256 PUSH1 0x1 ADD DUP1 SLOAD SWAP2 PUSH2 0x1E77 DUP4 PUSH2 0x340F JUMP JUMPDEST SWAP2 SWAP1 POP SSTORE POP DUP6 PUSH1 0xC PUSH1 0x0 DUP3 DUP3 SLOAD PUSH2 0x1E8E SWAP2 SWAP1 PUSH2 0x33D0 JUMP JUMPDEST SWAP1 SWAP2 SSTORE POP POP CALLER PUSH1 0x0 SWAP1 DUP2 MSTORE PUSH1 0xB PUSH1 0x20 MSTORE PUSH1 0x40 SWAP1 KECCAK256 PUSH1 0x1 SWAP1 DUP2 ADD SLOAD EQ PUSH2 0x1F16 JUMPI CALLER PUSH1 0x0 SWAP1 DUP2 MSTORE PUSH1 0xA PUSH1 0x20 MSTORE PUSH1 0x40 DUP2 KECCAK256 DUP1 SLOAD DUP3 SWAP1 PUSH2 0x1ECC JUMPI PUSH2 0x1ECC PUSH2 0x33A4 JUMP JUMPDEST SWAP1 PUSH1 0x0 MSTORE PUSH1 0x20 PUSH1 0x0 KECCAK256 SWAP1 PUSH1 0x8 MUL ADD SWAP1 POP PUSH3 0xD2F00 DUP2 PUSH1 0x3 ADD SLOAD PUSH2 0x1EEF SWAP2 SWAP1 PUSH2 0x33D0 JUMP JUMPDEST TIMESTAMP GT ISZERO PUSH2 0x1F14 JUMPI CALLER PUSH1 0x0 SWAP1 DUP2 MSTORE PUSH1 0xB PUSH1 0x20 MSTORE PUSH1 0x40 SWAP1 KECCAK256 PUSH1 0x3 ADD DUP1 SLOAD PUSH1 0xFF NOT AND PUSH1 0x1 OR SWAP1 SSTORE JUMPDEST POP JUMPDEST PUSH1 0x2 SLOAD PUSH1 0x1 PUSH1 0x1 PUSH1 0xA0 SHL SUB AND ISZERO PUSH2 0x2066 JUMPI PUSH1 0x2 SLOAD PUSH1 0x40 MLOAD PUSH4 0x95CE44B PUSH1 0xE2 SHL DUP2 MSTORE CALLER PUSH1 0x4 DUP3 ADD MSTORE PUSH1 0x1 PUSH1 0x1 PUSH1 0xA0 SHL SUB SWAP1 SWAP2 AND SWAP1 PUSH4 0x2573912C SWAP1 PUSH1 0x24 ADD PUSH1 0x0 PUSH1 0x40 MLOAD DUP1 DUP4 SUB DUP2 PUSH1 0x0 DUP8 DUP1 EXTCODESIZE ISZERO DUP1 ISZERO PUSH2 0x1F6C JUMPI PUSH1 0x0 DUP1 REVERT JUMPDEST POP GAS CALL ISZERO DUP1 ISZERO PUSH2 0x1F80 JUMPI RETURNDATASIZE PUSH1 0x0 DUP1 RETURNDATACOPY RETURNDATASIZE PUSH1 0x0 REVERT JUMPDEST POP POP PUSH1 0x2 SLOAD PUSH1 0x40 MLOAD PUSH4 0x4A9FEFC7 PUSH1 0xE0 SHL DUP2 MSTORE CALLER PUSH1 0x4 DUP3 ADD MSTORE PUSH1 0x0 SWAP4 POP PUSH1 0x1 PUSH1 0x1 PUSH1 0xA0 SHL SUB SWAP1 SWAP2 AND SWAP2 POP PUSH4 0x4A9FEFC7 SWAP1 PUSH1 0x24 ADD PUSH1 0x20 PUSH1 0x40 MLOAD DUP1 DUP4 SUB DUP2 DUP7 GAS STATICCALL ISZERO DUP1 ISZERO PUSH2 0x1FCF JUMPI RETURNDATASIZE PUSH1 0x0 DUP1 RETURNDATACOPY RETURNDATASIZE PUSH1 0x0 REVERT JUMPDEST POP POP POP POP PUSH1 0x40 MLOAD RETURNDATASIZE PUSH1 0x1F NOT PUSH1 0x1F DUP3 ADD AND DUP3 ADD DUP1 PUSH1 0x40 MSTORE POP DUP2 ADD SWAP1 PUSH2 0x1FF3 SWAP2 SWAP1 PUSH2 0x348D JUMP JUMPDEST SWAP1 POP PUSH1 0x1 PUSH1 0x1 PUSH1 0xA0 SHL SUB DUP2 AND ISZERO PUSH2 0x2064 JUMPI PUSH1 0x2 SLOAD PUSH1 0x40 MLOAD PUSH4 0x95CE44B PUSH1 0xE2 SHL DUP2 MSTORE PUSH1 0x1 PUSH1 0x1 PUSH1 0xA0 SHL SUB DUP4 DUP2 AND PUSH1 0x4 DUP4 ADD MSTORE SWAP1 SWAP2 AND SWAP1 PUSH4 0x2573912C SWAP1 PUSH1 0x24 ADD PUSH1 0x0 PUSH1 0x40 MLOAD DUP1 DUP4 SUB DUP2 PUSH1 0x0 DUP8 DUP1 EXTCODESIZE ISZERO DUP1 ISZERO PUSH2 0x204B JUMPI PUSH1 0x0 DUP1 REVERT JUMPDEST POP GAS CALL ISZERO DUP1 ISZERO PUSH2 0x205F JUMPI RETURNDATASIZE PUSH1 0x0 DUP1 RETURNDATACOPY RETURNDATASIZE PUSH1 0x0 REVERT JUMPDEST POP POP POP POP JUMPDEST POP JUMPDEST PUSH1 0x3 SLOAD PUSH1 0x1 PUSH1 0x1 PUSH1 0xA0 SHL SUB AND ISZERO DUP1 ISZERO SWAP1 PUSH2 0x208A JUMPI POP PUSH1 0x2 SLOAD PUSH1 0x1 PUSH1 0x1 PUSH1 0xA0 SHL SUB AND ISZERO ISZERO JUMPDEST ISZERO PUSH2 0x2099 JUMPI PUSH2 0x2099 CALLER DUP8 PUSH2 0x2D67 JUMP JUMPDEST CALLER PUSH1 0x0 DUP2 DUP2 MSTORE PUSH1 0xA PUSH1 0x20 MSTORE PUSH1 0x40 SWAP1 KECCAK256 SLOAD PUSH32 0xE3B53CD1A44FBF11535E145D80B8EF1ED6D57A73BF5DAA7E939B6B01657D6549 SWAP1 DUP9 SWAP1 DUP7 SWAP1 DUP7 SWAP1 PUSH2 0x20DD SWAP1 PUSH1 0x1 SWAP1 PUSH2 0x33FC JUMP JUMPDEST PUSH1 0x40 DUP1 MLOAD SWAP5 DUP6 MSTORE PUSH1 0x20 DUP6 ADD SWAP4 SWAP1 SWAP4 MSTORE SWAP2 DUP4 ADD MSTORE PUSH1 0x60 DUP3 ADD MSTORE PUSH1 0x80 ADD PUSH1 0x40 MLOAD DUP1 SWAP2 SUB SWAP1 LOG2 POP POP POP POP POP PUSH2 0xCEA PUSH1 0x1 PUSH1 0x0 DUP1 MLOAD PUSH1 0x20 PUSH2 0x34BF DUP4 CODECOPY DUP2 MLOAD SWAP2 MSTORE SSTORE JUMP JUMPDEST PUSH2 0x2124 PUSH2 0x237C JUMP JUMPDEST PUSH2 0x2131 CALLER DUP3 PUSH2 0x2710 PUSH2 0x26C3 JUMP JUMPDEST PUSH2 0xCEA PUSH1 0x1 PUSH1 0x0 DUP1 MLOAD PUSH1 0x20 PUSH2 0x34BF DUP4 CODECOPY DUP2 MLOAD SWAP2 MSTORE SSTORE JUMP JUMPDEST PUSH1 0x1 PUSH1 0x1 PUSH1 0xA0 SHL SUB DUP3 AND PUSH1 0x0 SWAP1 DUP2 MSTORE PUSH1 0xA PUSH1 0x20 MSTORE PUSH1 0x40 DUP2 KECCAK256 SLOAD DUP2 SWAP1 DUP2 SWAP1 DUP2 SWAP1 DUP6 LT PUSH2 0x217E JUMPI POP PUSH1 0x0 SWAP3 POP DUP3 SWAP2 POP DUP2 SWAP1 POP DUP1 PUSH2 0x224B JUMP JUMPDEST PUSH1 0x1 PUSH1 0x1 PUSH1 0xA0 SHL SUB DUP7 AND PUSH1 0x0 SWAP1 DUP2 MSTORE PUSH1 0xA PUSH1 0x20 MSTORE PUSH1 0x40 DUP2 KECCAK256 DUP1 SLOAD DUP8 SWAP1 DUP2 LT PUSH2 0x21A8 JUMPI PUSH2 0x21A8 PUSH2 0x33A4 JUMP JUMPDEST PUSH1 0x0 SWAP2 DUP3 MSTORE PUSH1 0x20 SWAP1 SWAP2 KECCAK256 PUSH1 0x8 SWAP1 SWAP2 MUL ADD PUSH1 0x7 DUP2 ADD SLOAD SWAP1 SWAP2 POP PUSH1 0xFF AND ISZERO DUP1 PUSH2 0x21E0 JUMPI POP PUSH3 0xD2F00 DUP2 PUSH1 0x3 ADD SLOAD PUSH2 0x21DD SWAP2 SWAP1 PUSH2 0x33D0 JUMP JUMPDEST TIMESTAMP GT JUMPDEST ISZERO PUSH2 0x21F9 JUMPI PUSH1 0x0 DUP1 PUSH1 0x0 DUP1 SWAP5 POP SWAP5 POP SWAP5 POP SWAP5 POP POP PUSH2 0x224B JUMP JUMPDEST DUP1 SLOAD PUSH1 0x5 DUP3 ADD SLOAD SWAP1 SWAP6 POP SWAP4 POP PUSH2 0x2710 PUSH2 0x2214 PUSH2 0x3E8 DUP8 PUSH2 0x3428 JUMP JUMPDEST PUSH2 0x221E SWAP2 SWAP1 PUSH2 0x3455 JUMP JUMPDEST SWAP3 POP PUSH1 0x0 PUSH2 0x222C DUP6 DUP6 PUSH2 0x33D0 JUMP JUMPDEST SWAP1 POP DUP1 DUP7 GT PUSH2 0x223C JUMPI PUSH1 0x0 PUSH2 0x2246 JUMP JUMPDEST PUSH2 0x2246 DUP2 DUP8 PUSH2 0x33FC JUMP JUMPDEST SWAP3 POP POP POP JUMPDEST SWAP3 SWAP6 SWAP2 SWAP5 POP SWAP3 POP JUMP JUMPDEST PUSH1 0x1 PUSH1 0x1 PUSH1 0xA0 SHL SUB DUP2 AND PUSH1 0x0 SWAP1 DUP2 MSTORE PUSH1 0xB PUSH1 0x20 MSTORE PUSH1 0x40 DUP2 KECCAK256 SLOAD DUP2 SUB PUSH2 0x227B JUMPI POP PUSH1 0x0 SWAP2 SWAP1 POP JUMP JUMPDEST PUSH1 0x1 PUSH1 0x1 PUSH1 0xA0 SHL SUB DUP3 AND PUSH1 0x0 SWAP1 DUP2 MSTORE PUSH1 0xB PUSH1 0x20 MSTORE PUSH1 0x40 SWAP1 KECCAK256 SLOAD PUSH2 0x1033 SWAP1 PUSH2 0x2CAF JUMP JUMPDEST PUSH1 0x1 PUSH1 0x1 PUSH1 0xA0 SHL SUB DUP3 AND PUSH1 0x0 SWAP1 DUP2 MSTORE PUSH1 0xA PUSH1 0x20 MSTORE PUSH1 0x40 DUP2 KECCAK256 SLOAD DUP3 LT PUSH2 0x22C4 JUMPI POP PUSH1 0x0 PUSH2 0x1033 JUMP JUMPDEST PUSH1 0x1 PUSH1 0x1 PUSH1 0xA0 SHL SUB DUP4 AND PUSH1 0x0 SWAP1 DUP2 MSTORE PUSH1 0xA PUSH1 0x20 MSTORE PUSH1 0x40 DUP2 KECCAK256 DUP1 SLOAD DUP5 SWAP1 DUP2 LT PUSH2 0x22EE JUMPI PUSH2 0x22EE PUSH2 0x33A4 JUMP JUMPDEST PUSH1 0x0 SWAP2 DUP3 MSTORE PUSH1 0x20 SWAP1 SWAP2 KECCAK256 PUSH1 0x8 SWAP1 SWAP2 MUL ADD PUSH1 0x7 DUP2 ADD SLOAD SWAP1 SWAP2 POP PUSH1 0xFF AND PUSH2 0x2317 JUMPI PUSH1 0x0 SWAP2 POP POP PUSH2 0x1033 JUMP JUMPDEST PUSH2 0x2321 DUP5 DUP3 PUSH2 0x2439 JUMP JUMPDEST SWAP5 SWAP4 POP POP POP POP JUMP JUMPDEST PUSH1 0x1 PUSH1 0x1 PUSH1 0xA0 SHL SUB DUP3 AND PUSH1 0x0 SWAP1 DUP2 MSTORE PUSH1 0xB PUSH1 0x20 MSTORE PUSH1 0x40 DUP2 KECCAK256 PUSH1 0x3 ADD SLOAD PUSH1 0xFF AND ISZERO PUSH2 0x2355 JUMPI POP PUSH1 0x0 PUSH2 0x1033 JUMP JUMPDEST PUSH1 0x1 PUSH1 0x1 PUSH1 0xA0 SHL SUB DUP4 AND PUSH1 0x0 SWAP1 DUP2 MSTORE PUSH1 0xA PUSH1 0x20 MSTORE PUSH1 0x40 SWAP1 KECCAK256 SLOAD DUP3 LT PUSH2 0x121B JUMPI POP PUSH1 0x0 PUSH2 0x1033 JUMP JUMPDEST PUSH2 0x2384 PUSH2 0x2EA0 JUMP JUMPDEST PUSH1 0x2 PUSH1 0x0 DUP1 MLOAD PUSH1 0x20 PUSH2 0x34BF DUP4 CODECOPY DUP2 MLOAD SWAP2 MSTORE SSTORE JUMP JUMPDEST PUSH1 0x1 PUSH1 0x1 PUSH1 0xA0 SHL SUB DUP3 AND PUSH1 0x0 SWAP1 DUP2 MSTORE PUSH1 0xA PUSH1 0x20 MSTORE PUSH1 0x40 DUP2 KECCAK256 SLOAD DUP3 LT PUSH2 0x23D0 JUMPI PUSH1 0x40 MLOAD PUSH4 0x5972996F PUSH1 0xE1 SHL DUP2 MSTORE PUSH1 0x4 ADD PUSH1 0x40 MLOAD DUP1 SWAP2 SUB SWAP1 REVERT JUMPDEST PUSH1 0x1 PUSH1 0x1 PUSH1 0xA0 SHL SUB DUP4 AND PUSH1 0x0 SWAP1 DUP2 MSTORE PUSH1 0xA PUSH1 0x20 MSTORE PUSH1 0x40 DUP2 KECCAK256 DUP1 SLOAD DUP5 SWAP1 DUP2 LT PUSH2 0x23FA JUMPI PUSH2 0x23FA PUSH2 0x33A4 JUMP JUMPDEST PUSH1 0x0 SWAP2 DUP3 MSTORE PUSH1 0x20 SWAP1 SWAP2 KECCAK256 PUSH1 0x8 SWAP1 SWAP2 MUL ADD PUSH1 0x7 DUP2 ADD SLOAD SWAP1 SWAP2 POP PUSH1 0xFF AND PUSH2 0x2432 JUMPI PUSH1 0x40 MLOAD PUSH4 0x5A2E885 PUSH1 0xE2 SHL DUP2 MSTORE PUSH1 0x4 ADD PUSH1 0x40 MLOAD DUP1 SWAP2 SUB SWAP1 REVERT JUMPDEST SWAP4 SWAP3 POP POP POP JUMP JUMPDEST PUSH1 0x7 DUP2 ADD SLOAD PUSH1 0x0 SWAP1 PUSH1 0xFF AND PUSH2 0x2450 JUMPI POP PUSH1 0x0 PUSH2 0x1033 JUMP JUMPDEST PUSH1 0x4 DUP3 ADD SLOAD TIMESTAMP DUP2 DUP2 GT PUSH2 0x2468 JUMPI PUSH1 0x0 SWAP3 POP POP POP PUSH2 0x1033 JUMP JUMPDEST PUSH1 0x0 PUSH2 0x2474 DUP4 DUP4 PUSH2 0x33FC JUMP JUMPDEST DUP6 SLOAD SWAP1 SWAP2 POP PUSH3 0x76A700 PUSH2 0x24A7 PUSH32 0x0 DUP6 PUSH2 0x33FC JUMP JUMPDEST LT PUSH2 0x24E2 JUMPI PUSH2 0x24BB PUSH2 0x2710 PUSH3 0x15180 PUSH2 0x3428 JUMP JUMPDEST DUP3 PUSH2 0x24C7 PUSH1 0x2D DUP5 PUSH2 0x3428 JUMP JUMPDEST PUSH2 0x24D1 SWAP2 SWAP1 PUSH2 0x3428 JUMP JUMPDEST PUSH2 0x24DB SWAP2 SWAP1 PUSH2 0x3455 JUMP JUMPDEST SWAP5 POP PUSH2 0x2649 JUMP JUMPDEST PUSH9 0x878678326EAC900000 DUP2 LT ISZERO PUSH1 0x0 DUP2 PUSH2 0x24FE JUMPI PUSH2 0x23F PUSH2 0x2502 JUMP JUMPDEST PUSH2 0x302 JUMPDEST SWAP1 POP PUSH1 0x0 PUSH2 0x2513 PUSH3 0x93A80 DUP7 PUSH2 0x3455 JUMP JUMPDEST SWAP1 POP PUSH2 0x2710 DUP2 PUSH2 0x2523 DUP5 DUP8 PUSH2 0x3428 JUMP JUMPDEST PUSH2 0x252D SWAP2 SWAP1 PUSH2 0x3428 JUMP JUMPDEST PUSH2 0x2537 SWAP2 SWAP1 PUSH2 0x3455 JUMP JUMPDEST SWAP8 POP PUSH1 0x0 PUSH2 0x2548 DUP3 PUSH3 0x93A80 PUSH2 0x3428 JUMP JUMPDEST PUSH2 0x2552 SWAP1 DUP10 PUSH2 0x33D0 JUMP JUMPDEST SWAP1 POP PUSH1 0x0 JUMPDEST DUP8 DUP3 LT ISZERO PUSH2 0x2614 JUMPI PUSH1 0x0 PUSH1 0x7 PUSH2 0x2570 PUSH3 0x15180 DUP6 PUSH2 0x3455 JUMP JUMPDEST PUSH2 0x257B SWAP1 PUSH1 0x3 PUSH2 0x33D0 JUMP JUMPDEST PUSH2 0x2585 SWAP2 SWAP1 PUSH2 0x34AA JUMP JUMPDEST SWAP1 POP PUSH1 0x0 DUP7 PUSH2 0x259C JUMPI PUSH2 0x2597 DUP3 PUSH2 0x2ED2 JUMP JUMPDEST PUSH2 0x25A5 JUMP JUMPDEST PUSH2 0x25A5 DUP3 PUSH2 0x2F3C JUMP JUMPDEST SWAP1 POP PUSH1 0x0 PUSH2 0x25B6 PUSH3 0x15180 DUP7 PUSH2 0x3455 JUMP JUMPDEST PUSH2 0x25C1 SWAP1 PUSH1 0x1 PUSH2 0x33D0 JUMP JUMPDEST PUSH2 0x25CE SWAP1 PUSH3 0x15180 PUSH2 0x3428 JUMP JUMPDEST SWAP1 POP PUSH1 0x0 DUP2 DUP13 LT PUSH2 0x25DF JUMPI DUP2 PUSH2 0x25E1 JUMP JUMPDEST DUP12 JUMPDEST SWAP1 POP PUSH1 0x0 PUSH2 0x25EF DUP8 DUP4 PUSH2 0x33FC JUMP JUMPDEST SWAP1 POP PUSH2 0x25FB DUP2 DUP6 PUSH2 0x3428 JUMP JUMPDEST PUSH2 0x2605 SWAP1 DUP8 PUSH2 0x33D0 JUMP JUMPDEST SWAP6 POP DUP3 SWAP7 POP POP POP POP POP POP PUSH2 0x2557 JUMP JUMPDEST PUSH2 0x2623 PUSH2 0x2710 PUSH3 0x15180 PUSH2 0x3428 JUMP JUMPDEST PUSH2 0x262D DUP3 DUP9 PUSH2 0x3428 JUMP JUMPDEST PUSH2 0x2637 SWAP2 SWAP1 PUSH2 0x3455 JUMP JUMPDEST PUSH2 0x2641 SWAP1 DUP12 PUSH2 0x33D0 JUMP JUMPDEST SWAP10 POP POP POP POP POP POP JUMPDEST PUSH1 0x0 DUP7 PUSH1 0x5 ADD SLOAD DUP8 PUSH1 0x6 ADD SLOAD GT PUSH2 0x2661 JUMPI PUSH1 0x0 PUSH2 0x2675 JUMP JUMPDEST DUP7 PUSH1 0x5 ADD SLOAD DUP8 PUSH1 0x6 ADD SLOAD PUSH2 0x2675 SWAP2 SWAP1 PUSH2 0x33FC JUMP JUMPDEST SWAP1 POP DUP1 DUP7 GT ISZERO PUSH2 0x2683 JUMPI DUP1 SWAP6 POP JUMPDEST POP POP POP POP POP SWAP3 SWAP2 POP POP JUMP JUMPDEST PUSH2 0x269B DUP4 DUP4 DUP4 PUSH1 0x1 PUSH2 0x2FA6 JUMP JUMPDEST PUSH2 0x1473 JUMPI PUSH1 0x40 MLOAD PUSH4 0x5274AFE7 PUSH1 0xE0 SHL DUP2 MSTORE PUSH1 0x1 PUSH1 0x1 PUSH1 0xA0 SHL SUB DUP5 AND PUSH1 0x4 DUP3 ADD MSTORE PUSH1 0x24 ADD PUSH2 0xED1 JUMP JUMPDEST DUP1 PUSH2 0x2710 EQ ISZERO DUP1 ISZERO PUSH2 0x26D7 JUMPI POP DUP1 PUSH2 0x1388 EQ ISZERO JUMPDEST DUP1 ISZERO PUSH2 0x26E5 JUMPI POP DUP1 PUSH2 0x9C4 EQ ISZERO JUMPDEST ISZERO PUSH2 0x2703 JUMPI PUSH1 0x40 MLOAD PUSH4 0x5C1D07CB PUSH1 0xE0 SHL DUP2 MSTORE PUSH1 0x4 ADD PUSH1 0x40 MLOAD DUP1 SWAP2 SUB SWAP1 REVERT JUMPDEST PUSH1 0x0 PUSH2 0x270F DUP5 DUP5 PUSH2 0x2398 JUMP JUMPDEST SWAP1 POP PUSH3 0xD2F00 DUP2 PUSH1 0x3 ADD SLOAD PUSH2 0x2724 SWAP2 SWAP1 PUSH2 0x33D0 JUMP JUMPDEST TIMESTAMP GT ISZERO PUSH2 0x2744 JUMPI PUSH1 0x40 MLOAD PUSH4 0x693ED15B PUSH1 0xE1 SHL DUP2 MSTORE PUSH1 0x4 ADD PUSH1 0x40 MLOAD DUP1 SWAP2 SUB SWAP1 REVERT JUMPDEST DUP1 SLOAD PUSH1 0x0 PUSH2 0x2710 PUSH2 0x2755 DUP6 DUP5 PUSH2 0x3428 JUMP JUMPDEST PUSH2 0x275F SWAP2 SWAP1 PUSH2 0x3455 JUMP JUMPDEST SWAP1 POP PUSH1 0x0 PUSH2 0x2710 PUSH2 0x2772 PUSH2 0x3E8 DUP5 PUSH2 0x3428 JUMP JUMPDEST PUSH2 0x277C SWAP2 SWAP1 PUSH2 0x3455 JUMP JUMPDEST SWAP1 POP PUSH1 0x0 PUSH2 0x2710 DUP7 DUP7 PUSH1 0x5 ADD SLOAD PUSH2 0x2793 SWAP2 SWAP1 PUSH2 0x3428 JUMP JUMPDEST PUSH2 0x279D SWAP2 SWAP1 PUSH2 0x3455 JUMP JUMPDEST SWAP1 POP PUSH1 0x0 PUSH2 0x27AB DUP3 DUP5 PUSH2 0x33D0 JUMP JUMPDEST SWAP1 POP PUSH1 0x0 DUP2 DUP6 GT PUSH2 0x27BD JUMPI PUSH1 0x0 PUSH2 0x27C7 JUMP JUMPDEST PUSH2 0x27C7 DUP3 DUP7 PUSH2 0x33FC JUMP JUMPDEST SWAP1 POP DUP8 PUSH2 0x2710 SUB PUSH2 0x27E3 JUMPI PUSH1 0x7 DUP8 ADD DUP1 SLOAD PUSH1 0xFF NOT AND SWAP1 SSTORE PUSH2 0x282B JUMP JUMPDEST DUP5 DUP8 PUSH1 0x0 ADD PUSH1 0x0 DUP3 DUP3 SLOAD PUSH2 0x27F7 SWAP2 SWAP1 PUSH2 0x33FC JUMP JUMPDEST SWAP3 POP POP DUP2 SWAP1 SSTORE POP DUP3 DUP8 PUSH1 0x5 ADD PUSH1 0x0 DUP3 DUP3 SLOAD PUSH2 0x2812 SWAP2 SWAP1 PUSH2 0x33FC JUMP JUMPDEST SWAP1 SWAP2 SSTORE POP POP DUP7 SLOAD PUSH2 0x2825 SWAP1 PUSH1 0x3 SWAP1 PUSH2 0x3428 JUMP JUMPDEST PUSH1 0x6 DUP9 ADD SSTORE JUMPDEST PUSH1 0x1 PUSH1 0x1 PUSH1 0xA0 SHL SUB DUP11 AND PUSH1 0x0 SWAP1 DUP2 MSTORE PUSH1 0xB PUSH1 0x20 MSTORE PUSH1 0x40 DUP2 KECCAK256 DUP1 SLOAD DUP8 SWAP3 SWAP1 PUSH2 0x2853 SWAP1 DUP5 SWAP1 PUSH2 0x33FC JUMP JUMPDEST SWAP3 POP POP DUP2 SWAP1 SSTORE POP DUP5 PUSH1 0xD PUSH1 0x0 DUP3 DUP3 SLOAD PUSH2 0x286C SWAP2 SWAP1 PUSH2 0x33D0 JUMP JUMPDEST SWAP1 SWAP2 SSTORE POP POP PUSH1 0x2 SLOAD PUSH1 0x1 PUSH1 0x1 PUSH1 0xA0 SHL SUB AND ISZERO PUSH2 0x28E2 JUMPI PUSH1 0x2 SLOAD PUSH1 0x40 MLOAD PUSH4 0x95CE44B PUSH1 0xE2 SHL DUP2 MSTORE PUSH1 0x1 PUSH1 0x1 PUSH1 0xA0 SHL SUB DUP13 DUP2 AND PUSH1 0x4 DUP4 ADD MSTORE SWAP1 SWAP2 AND SWAP1 PUSH4 0x2573912C SWAP1 PUSH1 0x24 ADD PUSH1 0x0 PUSH1 0x40 MLOAD DUP1 DUP4 SUB DUP2 PUSH1 0x0 DUP8 DUP1 EXTCODESIZE ISZERO DUP1 ISZERO PUSH2 0x28C9 JUMPI PUSH1 0x0 DUP1 REVERT JUMPDEST POP GAS CALL ISZERO DUP1 ISZERO PUSH2 0x28DD JUMPI RETURNDATASIZE PUSH1 0x0 DUP1 RETURNDATACOPY RETURNDATASIZE PUSH1 0x0 REVERT JUMPDEST POP POP POP POP JUMPDEST DUP1 ISZERO PUSH2 0x2BC0 JUMPI PUSH1 0x40 MLOAD PUSH4 0x70A08231 PUSH1 0xE0 SHL DUP2 MSTORE ADDRESS PUSH1 0x4 DUP3 ADD MSTORE PUSH1 0x0 SWAP1 PUSH32 0x0 PUSH1 0x1 PUSH1 0x1 PUSH1 0xA0 SHL SUB AND SWAP1 PUSH4 0x70A08231 SWAP1 PUSH1 0x24 ADD PUSH1 0x20 PUSH1 0x40 MLOAD DUP1 DUP4 SUB DUP2 DUP7 GAS STATICCALL ISZERO DUP1 ISZERO PUSH2 0x294F JUMPI RETURNDATASIZE PUSH1 0x0 DUP1 RETURNDATACOPY RETURNDATASIZE PUSH1 0x0 REVERT JUMPDEST POP POP POP POP PUSH1 0x40 MLOAD RETURNDATASIZE PUSH1 0x1F NOT PUSH1 0x1F DUP3 ADD AND DUP3 ADD DUP1 PUSH1 0x40 MSTORE POP DUP2 ADD SWAP1 PUSH2 0x2973 SWAP2 SWAP1 PUSH2 0x33E3 JUMP JUMPDEST SWAP1 POP DUP2 DUP2 LT PUSH2 0x29B5 JUMPI PUSH2 0x29B0 PUSH1 0x1 PUSH1 0x1 PUSH1 0xA0 SHL SUB PUSH32 0x0 AND DUP13 DUP5 PUSH2 0x268E JUMP JUMPDEST PUSH2 0x2BBE JUMP JUMPDEST DUP1 ISZERO PUSH2 0x29FC JUMPI PUSH2 0x29EF PUSH1 0x1 PUSH1 0x1 PUSH1 0xA0 SHL SUB PUSH32 0x0 AND DUP13 DUP4 PUSH2 0x268E JUMP JUMPDEST PUSH2 0x29F9 DUP2 DUP4 PUSH2 0x33FC JUMP JUMPDEST SWAP2 POP JUMPDEST PUSH1 0x0 DUP1 SLOAD PUSH1 0x40 MLOAD PUSH4 0x11EA9FA9 PUSH1 0xE2 SHL DUP2 MSTORE PUSH1 0x4 DUP2 ADD DUP6 SWAP1 MSTORE PUSH1 0x1 PUSH1 0x1 PUSH1 0xA0 SHL SUB SWAP1 SWAP2 AND SWAP1 PUSH4 0x47AA7EA4 SWAP1 PUSH1 0x24 ADD PUSH1 0x20 PUSH1 0x40 MLOAD DUP1 DUP4 SUB DUP2 DUP7 GAS STATICCALL ISZERO DUP1 ISZERO PUSH2 0x2A46 JUMPI RETURNDATASIZE PUSH1 0x0 DUP1 RETURNDATACOPY RETURNDATASIZE PUSH1 0x0 REVERT JUMPDEST POP POP POP POP PUSH1 0x40 MLOAD RETURNDATASIZE PUSH1 0x1F NOT PUSH1 0x1F DUP3 ADD AND DUP3 ADD DUP1 PUSH1 0x40 MSTORE POP DUP2 ADD SWAP1 PUSH2 0x2A6A SWAP2 SWAP1 PUSH2 0x33E3 JUMP JUMPDEST SWAP1 POP PUSH1 0x0 DUP2 GT DUP1 ISZERO PUSH2 0x2B04 JUMPI POP PUSH1 0x40 MLOAD PUSH4 0x70A08231 PUSH1 0xE0 SHL DUP2 MSTORE ADDRESS PUSH1 0x4 DUP3 ADD MSTORE DUP2 SWAP1 PUSH32 0x0 PUSH1 0x1 PUSH1 0x1 PUSH1 0xA0 SHL SUB AND SWAP1 PUSH4 0x70A08231 SWAP1 PUSH1 0x24 ADD PUSH1 0x20 PUSH1 0x40 MLOAD DUP1 DUP4 SUB DUP2 DUP7 GAS STATICCALL ISZERO DUP1 ISZERO PUSH2 0x2ADD JUMPI RETURNDATASIZE PUSH1 0x0 DUP1 RETURNDATACOPY RETURNDATASIZE PUSH1 0x0 REVERT JUMPDEST POP POP POP POP PUSH1 0x40 MLOAD RETURNDATASIZE PUSH1 0x1F NOT PUSH1 0x1F DUP3 ADD AND DUP3 ADD DUP1 PUSH1 0x40 MSTORE POP DUP2 ADD SWAP1 PUSH2 0x2B01 SWAP2 SWAP1 PUSH2 0x33E3 JUMP JUMPDEST LT ISZERO JUMPDEST ISZERO PUSH2 0x2BBC JUMPI PUSH1 0x0 SLOAD PUSH2 0x2B43 SWAP1 PUSH1 0x1 PUSH1 0x1 PUSH1 0xA0 SHL SUB PUSH32 0x0 DUP2 AND SWAP2 AND DUP4 PUSH2 0x2C5B JUMP JUMPDEST PUSH1 0x0 SLOAD PUSH1 0x40 MLOAD PUSH4 0xF843E641 PUSH1 0xE0 SHL DUP2 MSTORE PUSH1 0x4 DUP2 ADD DUP4 SWAP1 MSTORE PUSH1 0x1 PUSH1 0x1 PUSH1 0xA0 SHL SUB DUP15 DUP2 AND PUSH1 0x24 DUP4 ADD MSTORE SWAP1 SWAP2 AND SWAP1 PUSH4 0xF843E641 SWAP1 PUSH1 0x44 ADD PUSH1 0x20 PUSH1 0x40 MLOAD DUP1 DUP4 SUB DUP2 PUSH1 0x0 DUP8 GAS CALL ISZERO DUP1 ISZERO PUSH2 0x2B96 JUMPI RETURNDATASIZE PUSH1 0x0 DUP1 RETURNDATACOPY RETURNDATASIZE PUSH1 0x0 REVERT JUMPDEST POP POP POP POP PUSH1 0x40 MLOAD RETURNDATASIZE PUSH1 0x1F NOT PUSH1 0x1F DUP3 ADD AND DUP3 ADD DUP1 PUSH1 0x40 MSTORE POP DUP2 ADD SWAP1 PUSH2 0x2BBA SWAP2 SWAP1 PUSH2 0x33E3 JUMP JUMPDEST POP JUMPDEST POP JUMPDEST POP JUMPDEST PUSH1 0x40 DUP1 MLOAD DUP3 DUP2 MSTORE PUSH1 0x20 DUP2 ADD DUP7 SWAP1 MSTORE SWAP1 DUP2 ADD DUP5 SWAP1 MSTORE PUSH1 0x60 DUP2 ADD DUP11 SWAP1 MSTORE PUSH1 0x1 PUSH1 0x1 PUSH1 0xA0 SHL SUB DUP12 AND SWAP1 PUSH32 0x4ADE67EF7E7C5E4D9C50DE61A4E8C555BE92C9B37E3CA6716EB02A1F0E471DA5 SWAP1 PUSH1 0x80 ADD PUSH1 0x40 MLOAD DUP1 SWAP2 SUB SWAP1 LOG2 POP POP POP POP POP POP POP POP POP POP JUMP JUMPDEST PUSH2 0x2C2D DUP5 DUP5 DUP5 DUP5 PUSH1 0x1 PUSH2 0x300C JUMP JUMPDEST PUSH2 0x2C55 JUMPI PUSH1 0x40 MLOAD PUSH4 0x5274AFE7 PUSH1 0xE0 SHL DUP2 MSTORE PUSH1 0x1 PUSH1 0x1 PUSH1 0xA0 SHL SUB DUP6 AND PUSH1 0x4 DUP3 ADD MSTORE PUSH1 0x24 ADD PUSH2 0xED1 JUMP JUMPDEST POP POP POP POP JUMP JUMPDEST PUSH2 0x2C68 DUP4 DUP4 DUP4 PUSH1 0x0 PUSH2 0x307E JUMP JUMPDEST PUSH2 0x1473 JUMPI PUSH2 0x2C7A DUP4 DUP4 PUSH1 0x0 PUSH1 0x1 PUSH2 0x307E JUMP JUMPDEST PUSH2 0x2CA2 JUMPI PUSH1 0x40 MLOAD PUSH4 0x5274AFE7 PUSH1 0xE0 SHL DUP2 MSTORE PUSH1 0x1 PUSH1 0x1 PUSH1 0xA0 SHL SUB DUP5 AND PUSH1 0x4 DUP3 ADD MSTORE PUSH1 0x24 ADD PUSH2 0xED1 JUMP JUMPDEST PUSH2 0x269B DUP4 DUP4 DUP4 PUSH1 0x1 PUSH2 0x307E JUMP JUMPDEST PUSH1 0x0 PUSH9 0x878678326EAC900000 DUP3 LT PUSH2 0x2CC9 JUMPI POP PUSH1 0x2 SWAP2 SWAP1 POP JUMP JUMPDEST POP PUSH1 0x1 SWAP2 SWAP1 POP JUMP JUMPDEST PUSH1 0x0 DUP1 PUSH2 0x2CFE PUSH32 0x0 DUP5 PUSH2 0x33FC JUMP JUMPDEST SWAP1 POP PUSH3 0x76A700 DUP2 LT PUSH2 0x2D14 JUMPI PUSH1 0x2D SWAP2 POP POP PUSH2 0x1033 JUMP JUMPDEST PUSH1 0x0 PUSH1 0x7 PUSH2 0x2D25 PUSH3 0x15180 DUP7 PUSH2 0x3455 JUMP JUMPDEST PUSH2 0x2D30 SWAP1 PUSH1 0x3 PUSH2 0x33D0 JUMP JUMPDEST PUSH2 0x2D3A SWAP2 SWAP1 PUSH2 0x34AA JUMP JUMPDEST SWAP1 POP PUSH9 0x878678326EAC900000 DUP6 LT PUSH2 0x2D5E JUMPI PUSH2 0x2D55 DUP2 PUSH2 0x2F3C JUMP JUMPDEST SWAP3 POP POP POP PUSH2 0x1033 JUMP JUMPDEST PUSH2 0x102E DUP2 PUSH2 0x2ED2 JUMP JUMPDEST PUSH1 0x2 SLOAD PUSH1 0x1 PUSH1 0x1 PUSH1 0xA0 SHL SUB AND ISZERO DUP1 PUSH2 0x2D88 JUMPI POP PUSH1 0x3 SLOAD PUSH1 0x1 PUSH1 0x1 PUSH1 0xA0 SHL SUB AND ISZERO JUMPDEST ISZERO PUSH2 0x2D91 JUMPI POP POP JUMP JUMPDEST DUP2 PUSH1 0x0 JUMPDEST PUSH1 0x14 DUP2 LT ISZERO PUSH2 0x2C55 JUMPI PUSH1 0x2 SLOAD PUSH1 0x40 MLOAD PUSH4 0x4A9FEFC7 PUSH1 0xE0 SHL DUP2 MSTORE PUSH1 0x1 PUSH1 0x1 PUSH1 0xA0 SHL SUB DUP5 DUP2 AND PUSH1 0x4 DUP4 ADD MSTORE PUSH1 0x0 SWAP3 AND SWAP1 PUSH4 0x4A9FEFC7 SWAP1 PUSH1 0x24 ADD PUSH1 0x20 PUSH1 0x40 MLOAD DUP1 DUP4 SUB DUP2 DUP7 GAS STATICCALL ISZERO DUP1 ISZERO PUSH2 0x2DE9 JUMPI RETURNDATASIZE PUSH1 0x0 DUP1 RETURNDATACOPY RETURNDATASIZE PUSH1 0x0 REVERT JUMPDEST POP POP POP POP PUSH1 0x40 MLOAD RETURNDATASIZE PUSH1 0x1F NOT PUSH1 0x1F DUP3 ADD AND DUP3 ADD DUP1 PUSH1 0x40 MSTORE POP DUP2 ADD SWAP1 PUSH2 0x2E0D SWAP2 SWAP1 PUSH2 0x348D JUMP JUMPDEST SWAP1 POP PUSH1 0x1 PUSH1 0x1 PUSH1 0xA0 SHL SUB DUP2 AND PUSH2 0x2E23 JUMPI POP PUSH2 0x2C55 JUMP JUMPDEST PUSH1 0x3 SLOAD PUSH1 0x40 MLOAD PUSH4 0xD9BD5F2D PUSH1 0xE0 SHL DUP2 MSTORE PUSH1 0x1 PUSH1 0x1 PUSH1 0xA0 SHL SUB DUP4 DUP2 AND PUSH1 0x4 DUP4 ADD MSTORE DUP6 DUP2 AND PUSH1 0x24 DUP4 ADD MSTORE PUSH1 0x44 DUP3 ADD DUP8 SWAP1 MSTORE SWAP1 SWAP2 AND SWAP1 PUSH4 0xD9BD5F2D SWAP1 PUSH1 0x64 ADD PUSH1 0x0 PUSH1 0x40 MLOAD DUP1 DUP4 SUB DUP2 PUSH1 0x0 DUP8 DUP1 EXTCODESIZE ISZERO DUP1 ISZERO PUSH2 0x2E79 JUMPI PUSH1 0x0 DUP1 REVERT JUMPDEST POP GAS CALL ISZERO DUP1 ISZERO PUSH2 0x2E8D JUMPI RETURNDATASIZE PUSH1 0x0 DUP1 RETURNDATACOPY RETURNDATASIZE PUSH1 0x0 REVERT JUMPDEST POP SWAP3 SWAP5 POP POP PUSH1 0x1 SWAP1 SWAP3 ADD SWAP2 POP PUSH2 0x2D95 SWAP1 POP JUMP JUMPDEST PUSH1 0x0 DUP1 MLOAD PUSH1 0x20 PUSH2 0x34BF DUP4 CODECOPY DUP2 MLOAD SWAP2 MSTORE SLOAD PUSH1 0x2 SUB PUSH2 0x2ED0 JUMPI PUSH1 0x40 MLOAD PUSH4 0x3EE5AEB5 PUSH1 0xE0 SHL DUP2 MSTORE PUSH1 0x4 ADD PUSH1 0x40 MLOAD DUP1 SWAP2 SUB SWAP1 REVERT JUMPDEST JUMP JUMPDEST PUSH1 0x0 DUP2 PUSH1 0x0 SUB PUSH2 0x2EE4 JUMPI POP PUSH1 0x64 SWAP2 SWAP1 POP JUMP JUMPDEST DUP2 PUSH1 0x1 SUB PUSH2 0x2EF4 JUMPI POP PUSH1 0x4B SWAP2 SWAP1 POP JUMP JUMPDEST DUP2 PUSH1 0x2 SUB PUSH2 0x2F04 JUMPI POP PUSH1 0x5F SWAP2 SWAP1 POP JUMP JUMPDEST DUP2 PUSH1 0x3 SUB PUSH2 0x2F14 JUMPI POP PUSH1 0x41 SWAP2 SWAP1 POP JUMP JUMPDEST DUP2 PUSH1 0x4 SUB PUSH2 0x2F24 JUMPI POP PUSH1 0x64 SWAP2 SWAP1 POP JUMP JUMPDEST DUP2 PUSH1 0x5 SUB PUSH2 0x2F34 JUMPI POP PUSH1 0x55 SWAP2 SWAP1 POP JUMP JUMPDEST POP PUSH1 0x37 SWAP2 SWAP1 POP JUMP JUMPDEST PUSH1 0x0 DUP2 PUSH1 0x0 SUB PUSH2 0x2F4E JUMPI POP PUSH1 0x73 SWAP2 SWAP1 POP JUMP JUMPDEST DUP2 PUSH1 0x1 SUB PUSH2 0x2F5E JUMPI POP PUSH1 0x64 SWAP2 SWAP1 POP JUMP JUMPDEST DUP2 PUSH1 0x2 SUB PUSH2 0x2F6E JUMPI POP PUSH1 0x73 SWAP2 SWAP1 POP JUMP JUMPDEST DUP2 PUSH1 0x3 SUB PUSH2 0x2F7E JUMPI POP PUSH1 0x6E SWAP2 SWAP1 POP JUMP JUMPDEST DUP2 PUSH1 0x4 SUB PUSH2 0x2F8E JUMPI POP PUSH1 0x69 SWAP2 SWAP1 POP JUMP JUMPDEST DUP2 PUSH1 0x5 SUB PUSH2 0x2F9E JUMPI POP PUSH1 0x64 SWAP2 SWAP1 POP JUMP JUMPDEST POP PUSH1 0x7D SWAP2 SWAP1 POP JUMP JUMPDEST PUSH1 0x40 MLOAD PUSH4 0xA9059CBB PUSH1 0xE0 SHL PUSH1 0x0 DUP2 DUP2 MSTORE PUSH1 0x1 PUSH1 0x1 PUSH1 0xA0 SHL SUB DUP7 AND PUSH1 0x4 MSTORE PUSH1 0x24 DUP6 SWAP1 MSTORE SWAP2 PUSH1 0x20 DUP4 PUSH1 0x44 DUP2 DUP1 DUP12 GAS CALL SWAP3 POP PUSH1 0x1 PUSH1 0x0 MLOAD EQ DUP4 AND PUSH2 0x3000 JUMPI DUP4 DUP4 ISZERO AND ISZERO PUSH2 0x2FF3 JUMPI RETURNDATASIZE PUSH1 0x0 DUP3 RETURNDATACOPY RETURNDATASIZE DUP2 REVERT JUMPDEST PUSH1 0x0 DUP8 EXTCODESIZE GT RETURNDATASIZE ISZERO AND DUP4 AND SWAP3 POP JUMPDEST PUSH1 0x40 MSTORE POP SWAP5 SWAP4 POP POP POP POP JUMP JUMPDEST PUSH1 0x40 MLOAD PUSH4 0x23B872DD PUSH1 0xE0 SHL PUSH1 0x0 DUP2 DUP2 MSTORE PUSH1 0x1 PUSH1 0x1 PUSH1 0xA0 SHL SUB DUP8 DUP2 AND PUSH1 0x4 MSTORE DUP7 AND PUSH1 0x24 MSTORE PUSH1 0x44 DUP6 SWAP1 MSTORE SWAP2 PUSH1 0x20 DUP4 PUSH1 0x64 DUP2 DUP1 DUP13 GAS CALL SWAP3 POP PUSH1 0x1 PUSH1 0x0 MLOAD EQ DUP4 AND PUSH2 0x306C JUMPI DUP4 DUP4 ISZERO AND ISZERO PUSH2 0x305F JUMPI RETURNDATASIZE PUSH1 0x0 DUP3 RETURNDATACOPY RETURNDATASIZE DUP2 REVERT JUMPDEST PUSH1 0x0 DUP9 EXTCODESIZE GT RETURNDATASIZE ISZERO AND DUP4 AND SWAP3 POP JUMPDEST PUSH1 0x40 MSTORE POP PUSH1 0x0 PUSH1 0x60 MSTORE SWAP6 SWAP5 POP POP POP POP POP JUMP JUMPDEST PUSH1 0x40 MLOAD PUSH4 0x95EA7B3 PUSH1 0xE0 SHL PUSH1 0x0 DUP2 DUP2 MSTORE PUSH1 0x1 PUSH1 0x1 PUSH1 0xA0 SHL SUB DUP7 AND PUSH1 0x4 MSTORE PUSH1 0x24 DUP6 SWAP1 MSTORE SWAP2 PUSH1 0x20 DUP4 PUSH1 0x44 DUP2 DUP1 DUP12 GAS CALL SWAP3 POP PUSH1 0x1 PUSH1 0x0 MLOAD EQ DUP4 AND PUSH2 0x3000 JUMPI DUP4 DUP4 ISZERO AND ISZERO PUSH2 0x2FF3 JUMPI RETURNDATASIZE PUSH1 0x0 DUP3 RETURNDATACOPY RETURNDATASIZE DUP2 REVERT JUMPDEST PUSH1 0x1 PUSH1 0x1 PUSH1 0xA0 SHL SUB DUP2 AND DUP2 EQ PUSH2 0xCEA JUMPI PUSH1 0x0 DUP1 REVERT JUMPDEST PUSH1 0x0 DUP1 PUSH1 0x40 DUP4 DUP6 SUB SLT ISZERO PUSH2 0x30F3 JUMPI PUSH1 0x0 DUP1 REVERT JUMPDEST DUP3 CALLDATALOAD PUSH2 0x30FE DUP2 PUSH2 0x30CB JUMP JUMPDEST SWAP5 PUSH1 0x20 SWAP4 SWAP1 SWAP4 ADD CALLDATALOAD SWAP4 POP POP POP JUMP JUMPDEST PUSH1 0x0 PUSH1 0x20 DUP3 DUP5 SUB SLT ISZERO PUSH2 0x311E JUMPI PUSH1 0x0 DUP1 REVERT JUMPDEST POP CALLDATALOAD SWAP2 SWAP1 POP JUMP JUMPDEST PUSH1 0x0 PUSH1 0x20 DUP3 DUP5 SUB SLT ISZERO PUSH2 0x3137 JUMPI PUSH1 0x0 DUP1 REVERT JUMPDEST DUP2 CALLDATALOAD PUSH2 0x2432 DUP2 PUSH2 0x30CB JUMP JUMPDEST PUSH1 0x0 PUSH1 0x20 DUP3 DUP5 SUB SLT ISZERO PUSH2 0x3154 JUMPI PUSH1 0x0 DUP1 REVERT JUMPDEST DUP2 CALLDATALOAD DUP1 ISZERO ISZERO DUP2 EQ PUSH2 0x2432 JUMPI PUSH1 0x0 DUP1 REVERT JUMPDEST PUSH1 0x0 DUP1 PUSH1 0x0 PUSH1 0x60 DUP5 DUP7 SUB SLT ISZERO PUSH2 0x3179 JUMPI PUSH1 0x0 DUP1 REVERT JUMPDEST DUP4 CALLDATALOAD PUSH2 0x3184 DUP2 PUSH2 0x30CB JUMP JUMPDEST SWAP3 POP PUSH1 0x20 DUP5 ADD CALLDATALOAD PUSH2 0x3194 DUP2 PUSH2 0x30CB JUMP JUMPDEST SWAP2 POP PUSH1 0x40 DUP5 ADD CALLDATALOAD PUSH2 0x31A4 DUP2 PUSH2 0x30CB JUMP JUMPDEST DUP1 SWAP2 POP POP SWAP3 POP SWAP3 POP SWAP3 JUMP JUMPDEST PUSH1 0x0 DUP1 DUP4 PUSH1 0x1F DUP5 ADD SLT PUSH2 0x31C1 JUMPI PUSH1 0x0 DUP1 REVERT JUMPDEST POP DUP2 CALLDATALOAD PUSH8 0xFFFFFFFFFFFFFFFF DUP2 GT ISZERO PUSH2 0x31D9 JUMPI PUSH1 0x0 DUP1 REVERT JUMPDEST PUSH1 0x20 DUP4 ADD SWAP2 POP DUP4 PUSH1 0x20 DUP3 PUSH1 0x5 SHL DUP6 ADD ADD GT ISZERO PUSH2 0x31F4 JUMPI PUSH1 0x0 DUP1 REVERT JUMPDEST SWAP3 POP SWAP3 SWAP1 POP JUMP JUMPDEST PUSH1 0x0 DUP1 PUSH1 0x0 DUP1 PUSH1 0x40 DUP6 DUP8 SUB SLT ISZERO PUSH2 0x3211 JUMPI PUSH1 0x0 DUP1 REVERT JUMPDEST DUP5 CALLDATALOAD PUSH8 0xFFFFFFFFFFFFFFFF DUP1 DUP3 GT ISZERO PUSH2 0x3229 JUMPI PUSH1 0x0 DUP1 REVERT JUMPDEST PUSH2 0x3235 DUP9 DUP4 DUP10 ADD PUSH2 0x31AF JUMP JUMPDEST SWAP1 SWAP7 POP SWAP5 POP PUSH1 0x20 DUP8 ADD CALLDATALOAD SWAP2 POP DUP1 DUP3 GT ISZERO PUSH2 0x324E JUMPI PUSH1 0x0 DUP1 REVERT JUMPDEST POP PUSH2 0x325B DUP8 DUP3 DUP9 ADD PUSH2 0x31AF JUMP JUMPDEST SWAP6 SWAP9 SWAP5 SWAP8 POP SWAP6 POP POP POP POP JUMP JUMPDEST PUSH1 0x0 DUP1 PUSH1 0x0 DUP1 PUSH1 0x0 PUSH1 0xA0 DUP7 DUP9 SUB SLT ISZERO PUSH2 0x327F JUMPI PUSH1 0x0 DUP1 REVERT JUMPDEST DUP6 CALLDATALOAD PUSH2 0x328A DUP2 PUSH2 0x30CB JUMP JUMPDEST SWAP5 POP PUSH1 0x20 DUP7 ADD CALLDATALOAD PUSH2 0x329A DUP2 PUSH2 0x30CB JUMP JUMPDEST SWAP4 POP PUSH1 0x40 DUP7 ADD CALLDATALOAD PUSH2 0x32AA DUP2 PUSH2 0x30CB JUMP JUMPDEST SWAP3 POP PUSH1 0x60 DUP7 ADD CALLDATALOAD PUSH2 0x32BA DUP2 PUSH2 0x30CB JUMP JUMPDEST SWAP2 POP PUSH1 0x80 DUP7 ADD CALLDATALOAD PUSH2 0x32CA DUP2 PUSH2 0x30CB JUMP JUMPDEST DUP1 SWAP2 POP POP SWAP3 SWAP6 POP SWAP3 SWAP6 SWAP1 SWAP4 POP JUMP JUMPDEST PUSH1 0x0 DUP1 PUSH1 0x20 DUP4 DUP6 SUB SLT ISZERO PUSH2 0x32EB JUMPI PUSH1 0x0 DUP1 REVERT JUMPDEST DUP3 CALLDATALOAD PUSH8 0xFFFFFFFFFFFFFFFF DUP1 DUP3 GT ISZERO PUSH2 0x3303 JUMPI PUSH1 0x0 DUP1 REVERT JUMPDEST DUP2 DUP6 ADD SWAP2 POP DUP6 PUSH1 0x1F DUP4 ADD SLT PUSH2 0x3317 JUMPI PUSH1 0x0 DUP1 REVERT JUMPDEST DUP2 CALLDATALOAD DUP2 DUP2 GT ISZERO PUSH2 0x3326 JUMPI PUSH1 0x0 DUP1 REVERT JUMPDEST DUP7 PUSH1 0x20 DUP3 PUSH1 0x8 SHL DUP6 ADD ADD GT ISZERO PUSH2 0x333B JUMPI PUSH1 0x0 DUP1 REVERT JUMPDEST PUSH1 0x20 SWAP3 SWAP1 SWAP3 ADD SWAP7 SWAP2 SWAP6 POP SWAP1 SWAP4 POP POP POP POP JUMP JUMPDEST PUSH1 0x0 DUP1 PUSH1 0x40 DUP4 DUP6 SUB SLT ISZERO PUSH2 0x3360 JUMPI PUSH1 0x0 DUP1 REVERT JUMPDEST POP POP DUP1 CALLDATALOAD SWAP3 PUSH1 0x20 SWAP1 SWAP2 ADD CALLDATALOAD SWAP2 POP JUMP JUMPDEST PUSH1 0x0 DUP1 PUSH1 0x0 PUSH1 0x60 DUP5 DUP7 SUB SLT ISZERO PUSH2 0x3384 JUMPI PUSH1 0x0 DUP1 REVERT JUMPDEST DUP4 CALLDATALOAD PUSH2 0x338F DUP2 PUSH2 0x30CB JUMP JUMPDEST SWAP6 PUSH1 0x20 DUP6 ADD CALLDATALOAD SWAP6 POP PUSH1 0x40 SWAP1 SWAP5 ADD CALLDATALOAD SWAP4 SWAP3 POP POP POP JUMP JUMPDEST PUSH4 0x4E487B71 PUSH1 0xE0 SHL PUSH1 0x0 MSTORE PUSH1 0x32 PUSH1 0x4 MSTORE PUSH1 0x24 PUSH1 0x0 REVERT JUMPDEST PUSH4 0x4E487B71 PUSH1 0xE0 SHL PUSH1 0x0 MSTORE PUSH1 0x11 PUSH1 0x4 MSTORE PUSH1 0x24 PUSH1 0x0 REVERT JUMPDEST DUP1 DUP3 ADD DUP1 DUP3 GT ISZERO PUSH2 0x1033 JUMPI PUSH2 0x1033 PUSH2 0x33BA JUMP JUMPDEST PUSH1 0x0 PUSH1 0x20 DUP3 DUP5 SUB SLT ISZERO PUSH2 0x33F5 JUMPI PUSH1 0x0 DUP1 REVERT JUMPDEST POP MLOAD SWAP2 SWAP1 POP JUMP JUMPDEST DUP2 DUP2 SUB DUP2 DUP2 GT ISZERO PUSH2 0x1033 JUMPI PUSH2 0x1033 PUSH2 0x33BA JUMP JUMPDEST PUSH1 0x0 PUSH1 0x1 DUP3 ADD PUSH2 0x3421 JUMPI PUSH2 0x3421 PUSH2 0x33BA JUMP JUMPDEST POP PUSH1 0x1 ADD SWAP1 JUMP JUMPDEST DUP1 DUP3 MUL DUP2 ISZERO DUP3 DUP3 DIV DUP5 EQ OR PUSH2 0x1033 JUMPI PUSH2 0x1033 PUSH2 0x33BA JUMP JUMPDEST PUSH4 0x4E487B71 PUSH1 0xE0 SHL PUSH1 0x0 MSTORE PUSH1 0x12 PUSH1 0x4 MSTORE PUSH1 0x24 PUSH1 0x0 REVERT JUMPDEST PUSH1 0x0 DUP3 PUSH2 0x3464 JUMPI PUSH2 0x3464 PUSH2 0x343F JUMP JUMPDEST POP DIV SWAP1 JUMP JUMPDEST PUSH1 0x0 DUP1 PUSH1 0x40 DUP4 DUP6 SUB SLT ISZERO PUSH2 0x347C JUMPI PUSH1 0x0 DUP1 REVERT JUMPDEST POP POP DUP1 MLOAD PUSH1 0x20 SWAP1 SWAP2 ADD MLOAD SWAP1 SWAP3 SWAP1 SWAP2 POP JUMP JUMPDEST PUSH1 0x0 PUSH1 0x20 DUP3 DUP5 SUB SLT ISZERO PUSH2 0x349F JUMPI PUSH1 0x0 DUP1 REVERT JUMPDEST DUP2 MLOAD PUSH2 0x2432 DUP2 PUSH2 0x30CB JUMP JUMPDEST PUSH1 0x0 DUP3 PUSH2 0x34B9 JUMPI PUSH2 0x34B9 PUSH2 0x343F JUMP JUMPDEST POP MOD SWAP1 JUMP INVALID SWAP12 PUSH24 0x9B17422D0DF92223018B32B4D1FA46E071723D6817E2486D STOP EXTCODESIZE 0xEC 0xC5 PUSH0 STOP LOG2 PUSH5 0x6970667358 0x22 SLT KECCAK256 PUSH25 0xA04F24186C8B337DE7A4917546D1DD7EBF94BEB705B82675AD NOT 0x24 0x2A CREATE REVERT DUP16 PUSH5 0x736F6C6343 STOP ADDMOD XOR STOP CALLER "},"methodIdentifiers":{"admin()":"f851a440","claimRewards(uint256)":"0962ef79","companyWallet()":"1ec32d15","completeSetup()":"8aea8f71","configure(address,address,address,address,address)":"760fcb3e","deposit(uint256)":"b6b55f25","depositsPaused()":"60da3e83","earlyExit(uint256)":"b8af3d3e","getActiveDeposit(address)":"142a3da3","getCombinedEarnings(address)":"3a6f2dcd","getDepositCount(address)":"13fcaf54","getEarlyExitAmount(address,uint256)":"ceace7dd","getPartialEarlyExitAmount(address,uint256,uint256)":"aa9cc818","getPendingRewards(address,uint256)":"e4e7c6b4","getTrialTimeRemaining(address,uint256)":"3fa28fb7","getUserTier(address)":"e4d2620e","isInEarlyExitPeriod(address,uint256)":"786685e0","isInTrialPeriod(address,uint256)":"e5c473e0","launchTimestamp()":"65cf7c9b","migrateCombinedEarnings(address[],uint256[])":"37914a07","migrateDeposits((address,uint256,uint256,uint256,uint256,uint256,uint256,uint256)[])":"84b273f6","minClaimThreshold()":"3695dad1","notifyLevelIncome(address,uint256)":"6b9f7ab6","notifyRankBonus(address,uint256)":"ac948e83","osloDex()":"8565c2bf","osloToken()":"2acfbca3","partialEarlyExit(uint256,uint256)":"8fb1bb50","performanceWallet()":"b12cd625","rankSystem()":"e9a16bd5","referral()":"1441a5a9","rewardWallet()":"fb75b2c7","setDepositsPaused(bool)":"1c481e2d","setMinClaimThreshold(uint256)":"51637ba9","setReferral(address)":"9e5914da","setRewardWallets(address,address,address)":"1d687f0c","setupComplete()":"b6635be6","timelock()":"d33219b4","totalDeposited()":"ff50abdc","totalRewardsPaid()":"74958e35","totalWithdrawn()":"4b319713","treasury()":"61d027b3","usdt()":"2f48ab7d","userDeposits(address,uint256)":"08f43333","users(address)":"a87430ba"}}}}}