{"contracts/libraries/OSLOConstants.sol":{"OSLOConstants":{"abi":[{"inputs":[],"name":"BASIS_POINTS","outputs":[{"internalType":"uint256","name":"","type":"uint256"}],"stateMutability":"view","type":"function"},{"inputs":[],"name":"CONTRACT_RESERVE","outputs":[{"internalType":"uint256","name":"","type":"uint256"}],"stateMutability":"view","type":"function"},{"inputs":[],"name":"DAO_MONTHLY_ROYALTY_BP","outputs":[{"internalType":"uint256","name":"","type":"uint256"}],"stateMutability":"view","type":"function"},{"inputs":[],"name":"DAO_TEAM_SIZE_REQUIREMENT","outputs":[{"internalType":"uint256","name":"","type":"uint256"}],"stateMutability":"view","type":"function"},{"inputs":[],"name":"DEAD_ADDRESS","outputs":[{"internalType":"address","name":"","type":"address"}],"stateMutability":"view","type":"function"},{"inputs":[],"name":"DEPOSIT_TO_COMPANY_BP","outputs":[{"internalType":"uint256","name":"","type":"uint256"}],"stateMutability":"view","type":"function"},{"inputs":[],"name":"DEPOSIT_TO_DEX_BP","outputs":[{"internalType":"uint256","name":"","type":"uint256"}],"stateMutability":"view","type":"function"},{"inputs":[],"name":"DEPOSIT_TO_PERFORMANCE_BP","outputs":[{"internalType":"uint256","name":"","type":"uint256"}],"stateMutability":"view","type":"function"},{"inputs":[],"name":"DEPOSIT_TO_REWARD_BP","outputs":[{"internalType":"uint256","name":"","type":"uint256"}],"stateMutability":"view","type":"function"},{"inputs":[],"name":"DEX_ALLOCATION","outputs":[{"internalType":"uint256","name":"","type":"uint256"}],"stateMutability":"view","type":"function"},{"inputs":[],"name":"EARLY_EXIT_FEE_BP","outputs":[{"internalType":"uint256","name":"","type":"uint256"}],"stateMutability":"view","type":"function"},{"inputs":[],"name":"EARLY_EXIT_PERIOD","outputs":[{"internalType":"uint256","name":"","type":"uint256"}],"stateMutability":"view","type":"function"},{"inputs":[],"name":"LAUNCH_TIMESTAMP","outputs":[{"internalType":"uint256","name":"","type":"uint256"}],"stateMutability":"view","type":"function"},{"inputs":[],"name":"LIFETIME_RATE","outputs":[{"internalType":"uint256","name":"","type":"uint256"}],"stateMutability":"view","type":"function"},{"inputs":[],"name":"LIFETIME_RATE_START","outputs":[{"internalType":"uint256","name":"","type":"uint256"}],"stateMutability":"view","type":"function"},{"inputs":[],"name":"MAX_BURN_SUPPLY","outputs":[{"internalType":"uint256","name":"","type":"uint256"}],"stateMutability":"view","type":"function"},{"inputs":[],"name":"MAX_DAO_MEMBERS","outputs":[{"internalType":"uint256","name":"","type":"uint256"}],"stateMutability":"view","type":"function"},{"inputs":[],"name":"MAX_DEPOSIT_PER_TX","outputs":[{"internalType":"uint256","name":"","type":"uint256"}],"stateMutability":"view","type":"function"},{"inputs":[],"name":"MAX_REFERRAL_LEVELS","outputs":[{"internalType":"uint256","name":"","type":"uint256"}],"stateMutability":"view","type":"function"},{"inputs":[],"name":"MIN_REMAINING_SUPPLY","outputs":[{"internalType":"uint256","name":"","type":"uint256"}],"stateMutability":"view","type":"function"},{"inputs":[],"name":"MIN_WITHDRAWAL_THRESHOLD","outputs":[{"internalType":"uint256","name":"","type":"uint256"}],"stateMutability":"view","type":"function"},{"inputs":[],"name":"PKG1_FRI","outputs":[{"internalType":"uint256","name":"","type":"uint256"}],"stateMutability":"view","type":"function"},{"inputs":[],"name":"PKG1_MIN","outputs":[{"internalType":"uint256","name":"","type":"uint256"}],"stateMutability":"view","type":"function"},{"inputs":[],"name":"PKG1_MON","outputs":[{"internalType":"uint256","name":"","type":"uint256"}],"stateMutability":"view","type":"function"},{"inputs":[],"name":"PKG1_SAT","outputs":[{"internalType":"uint256","name":"","type":"uint256"}],"stateMutability":"view","type":"function"},{"inputs":[],"name":"PKG1_SUN","outputs":[{"internalType":"uint256","name":"","type":"uint256"}],"stateMutability":"view","type":"function"},{"inputs":[],"name":"PKG1_THU","outputs":[{"internalType":"uint256","name":"","type":"uint256"}],"stateMutability":"view","type":"function"},{"inputs":[],"name":"PKG1_TUE","outputs":[{"internalType":"uint256","name":"","type":"uint256"}],"stateMutability":"view","type":"function"},{"inputs":[],"name":"PKG1_WED","outputs":[{"internalType":"uint256","name":"","type":"uint256"}],"stateMutability":"view","type":"function"},{"inputs":[],"name":"PKG1_WEEKLY_TOTAL","outputs":[{"internalType":"uint256","name":"","type":"uint256"}],"stateMutability":"view","type":"function"},{"inputs":[],"name":"PKG2_FRI","outputs":[{"internalType":"uint256","name":"","type":"uint256"}],"stateMutability":"view","type":"function"},{"inputs":[],"name":"PKG2_MIN","outputs":[{"internalType":"uint256","name":"","type":"uint256"}],"stateMutability":"view","type":"function"},{"inputs":[],"name":"PKG2_MON","outputs":[{"internalType":"uint256","name":"","type":"uint256"}],"stateMutability":"view","type":"function"},{"inputs":[],"name":"PKG2_SAT","outputs":[{"internalType":"uint256","name":"","type":"uint256"}],"stateMutability":"view","type":"function"},{"inputs":[],"name":"PKG2_SUN","outputs":[{"internalType":"uint256","name":"","type":"uint256"}],"stateMutability":"view","type":"function"},{"inputs":[],"name":"PKG2_THU","outputs":[{"internalType":"uint256","name":"","type":"uint256"}],"stateMutability":"view","type":"function"},{"inputs":[],"name":"PKG2_TUE","outputs":[{"internalType":"uint256","name":"","type":"uint256"}],"stateMutability":"view","type":"function"},{"inputs":[],"name":"PKG2_WED","outputs":[{"internalType":"uint256","name":"","type":"uint256"}],"stateMutability":"view","type":"function"},{"inputs":[],"name":"PKG2_WEEKLY_TOTAL","outputs":[{"internalType":"uint256","name":"","type":"uint256"}],"stateMutability":"view","type":"function"},{"inputs":[],"name":"PROPOSAL_THRESHOLD_BP","outputs":[{"internalType":"uint256","name":"","type":"uint256"}],"stateMutability":"view","type":"function"},{"inputs":[],"name":"QUALIFIED_DIRECT_MIN_DEPOSIT","outputs":[{"internalType":"uint256","name":"","type":"uint256"}],"stateMutability":"view","type":"function"},{"inputs":[],"name":"RANK1_BONUS_BP","outputs":[{"internalType":"uint256","name":"","type":"uint256"}],"stateMutability":"view","type":"function"},{"inputs":[],"name":"RANK1_TURNOVER","outputs":[{"internalType":"uint256","name":"","type":"uint256"}],"stateMutability":"view","type":"function"},{"inputs":[],"name":"RANK2_BONUS_BP","outputs":[{"internalType":"uint256","name":"","type":"uint256"}],"stateMutability":"view","type":"function"},{"inputs":[],"name":"RANK2_TURNOVER","outputs":[{"internalType":"uint256","name":"","type":"uint256"}],"stateMutability":"view","type":"function"},{"inputs":[],"name":"RANK3_BONUS_BP","outputs":[{"internalType":"uint256","name":"","type":"uint256"}],"stateMutability":"view","type":"function"},{"inputs":[],"name":"RANK3_TURNOVER","outputs":[{"internalType":"uint256","name":"","type":"uint256"}],"stateMutability":"view","type":"function"},{"inputs":[],"name":"RANK4_BONUS_BP","outputs":[{"internalType":"uint256","name":"","type":"uint256"}],"stateMutability":"view","type":"function"},{"inputs":[],"name":"RANK4_TURNOVER","outputs":[{"internalType":"uint256","name":"","type":"uint256"}],"stateMutability":"view","type":"function"},{"inputs":[],"name":"RANK5_BONUS_BP","outputs":[{"internalType":"uint256","name":"","type":"uint256"}],"stateMutability":"view","type":"function"},{"inputs":[],"name":"RANK5_TURNOVER","outputs":[{"internalType":"uint256","name":"","type":"uint256"}],"stateMutability":"view","type":"function"},{"inputs":[],"name":"RANK6_BONUS_BP","outputs":[{"internalType":"uint256","name":"","type":"uint256"}],"stateMutability":"view","type":"function"},{"inputs":[],"name":"RANK6_TURNOVER","outputs":[{"internalType":"uint256","name":"","type":"uint256"}],"stateMutability":"view","type":"function"},{"inputs":[],"name":"RANK7_BONUS_BP","outputs":[{"internalType":"uint256","name":"","type":"uint256"}],"stateMutability":"view","type":"function"},{"inputs":[],"name":"RANK7_TURNOVER","outputs":[{"internalType":"uint256","name":"","type":"uint256"}],"stateMutability":"view","type":"function"},{"inputs":[],"name":"RANK_MAIN_LEG_MAX_BP","outputs":[{"internalType":"uint256","name":"","type":"uint256"}],"stateMutability":"view","type":"function"},{"inputs":[],"name":"RANK_OTHER_LEGS_MIN_BP","outputs":[{"internalType":"uint256","name":"","type":"uint256"}],"stateMutability":"view","type":"function"},{"inputs":[],"name":"REFERRAL_L11_15_BP","outputs":[{"internalType":"uint256","name":"","type":"uint256"}],"stateMutability":"view","type":"function"},{"inputs":[],"name":"REFERRAL_L16_20_BP","outputs":[{"internalType":"uint256","name":"","type":"uint256"}],"stateMutability":"view","type":"function"},{"inputs":[],"name":"REFERRAL_L1_BP","outputs":[{"internalType":"uint256","name":"","type":"uint256"}],"stateMutability":"view","type":"function"},{"inputs":[],"name":"REFERRAL_L2_BP","outputs":[{"internalType":"uint256","name":"","type":"uint256"}],"stateMutability":"view","type":"function"},{"inputs":[],"name":"REFERRAL_L3_10_BP","outputs":[{"internalType":"uint256","name":"","type":"uint256"}],"stateMutability":"view","type":"function"},{"inputs":[],"name":"RETURN_CAP_MULTIPLIER","outputs":[{"internalType":"uint256","name":"","type":"uint256"}],"stateMutability":"view","type":"function"},{"inputs":[],"name":"SELL_TAX_BP","outputs":[{"internalType":"uint256","name":"","type":"uint256"}],"stateMutability":"view","type":"function"},{"inputs":[],"name":"SELL_TAX_FEE_BURN_BP","outputs":[{"internalType":"uint256","name":"","type":"uint256"}],"stateMutability":"view","type":"function"},{"inputs":[],"name":"SELL_TAX_TO_BURN_BP","outputs":[{"internalType":"uint256","name":"","type":"uint256"}],"stateMutability":"view","type":"function"},{"inputs":[],"name":"SELL_TAX_TO_CONTRACT_BP","outputs":[{"internalType":"uint256","name":"","type":"uint256"}],"stateMutability":"view","type":"function"},{"inputs":[],"name":"TIMELOCK_DELAY","outputs":[{"internalType":"uint256","name":"","type":"uint256"}],"stateMutability":"view","type":"function"},{"inputs":[],"name":"TOTAL_SUPPLY","outputs":[{"internalType":"uint256","name":"","type":"uint256"}],"stateMutability":"view","type":"function"},{"inputs":[],"name":"TREASURY_TO_DAO_BP","outputs":[{"internalType":"uint256","name":"","type":"uint256"}],"stateMutability":"view","type":"function"},{"inputs":[],"name":"TREASURY_TO_LP_BP","outputs":[{"internalType":"uint256","name":"","type":"uint256"}],"stateMutability":"view","type":"function"},{"inputs":[],"name":"TREASURY_TO_RANK_BP","outputs":[{"internalType":"uint256","name":"","type":"uint256"}],"stateMutability":"view","type":"function"},{"inputs":[],"name":"VOTING_PERIOD_BLOCKS","outputs":[{"internalType":"uint256","name":"","type":"uint256"}],"stateMutability":"view","type":"function"},{"inputs":[],"name":"WEEK_DURATION","outputs":[{"internalType":"uint256","name":"","type":"uint256"}],"stateMutability":"view","type":"function"},{"inputs":[],"name":"WITHDRAWAL_FEE_BP","outputs":[{"internalType":"uint256","name":"","type":"uint256"}],"stateMutability":"view","type":"function"}],"evm":{"bytecode":{"linkReferences":{},"object":"61070961003a600b82828239805160001a60731461002d57634e487b7160e01b600052600060045260246000fd5b30600052607381538281f3fe73000000000000000000000000000000000000000030146080604052600436106104535760003560e01c80637b6e349a1161024b578063a497b13411610145578063d9bc6cc4116100cd578063ed4d5f9711610091578063ed4d5f97146106aa578063eda6c732146106bb578063f494e41e146106c3578063f81172f6146105c8578063fdce696c146106cb57600080fd5b8063d9bc6cc414610697578063dadf402214610592578063dc67edbe1461048d578063e1f1c4a71461066c578063e954f41d1461069f57600080fd5b8063b8b8fe8611610114578063b8b8fe8614610485578063b9d39bb41461048d578063c7ccbafe1461067e578063c86ebc9914610513578063ce18b69f1461068f57600080fd5b8063a497b13414610663578063a4f8bd151461066c578063adf9ef9e1461048d578063b136bdda1461067557600080fd5b80638bffc5b5116101d35780639fb69154116101975780639fb6915414610639578063a060dfb014610641578063a23df8dc1461048d578063a29dfff314610651578063a35e793d1461065b57600080fd5b80638bffc5b51461048d5780638c46387a14610615578063902d55a5146106275780639c6637371461048d5780639fa425721461051357600080fd5b806382b14df31161021a57806382b14df31461050a578063831f23ee146105e157806386f72d9f146105e9578063882d893b146105fa5780638bfef2f41461060357600080fd5b80637b6e349a1461048d5780637d4ceb12146105c8578063810f01b9146105d05780638138c046146105d957600080fd5b806341554dc51161035c5780635ba1c1a9116102e45780636f140bb7116102a85780636f140bb71461059a57806373662711146105a4578063740bb5fa146105ad57806376f5f700146105be5780637a8ba8ad1461057857600080fd5b80635ba1c1a9146105805780635cbbd382146104855780635e5966f11461058a578063617b99d21461059257806364d196091461045857600080fd5b80634bcaeb8d1161032b5780634bcaeb8d1461054d5780634cdf912b146104585780634e6fd6c4146105575780635049700f1461057857806356b505401461048557600080fd5b806341554dc51461052257806341f1c0d91461052b578063484d395f1461053c5780634936704e1461048557600080fd5b8063196039c7116103df578063232c5348116103ae578063232c5348146104f2578063309cb946146104fa578063313b0df4146105025780633ca73ba11461050a57806340c0eff31461051357600080fd5b8063196039c7146104c05780631b14f4eb146104c85780631d55c1c4146104d957806320f57350146104e157600080fd5b806307f47c501161042657806307f47c501461048d578063080c1b3e146104955780630e3fce46146104a75780630feb116a146104af57806318b64e03146104b857600080fd5b8063018b21f614610458578063039a9a2814610474578063059d7efc14610485578063063f391114610458575b600080fd5b6104616103e881565b6040519081526020015b60405180910390f35b61046169054b40b1f852bda0000081565b610461603281565b610461606481565b6104616a09195731e2ce35eb00000081565b610461602d81565b61046161023f81565b610461601981565b610461605581565b61046169152d02c7e14af680000081565b610461601e81565b6104616969e10de76676d080000081565b61046160c881565b610461605f81565b610461600f81565b6104616107d081565b610461678ac7230489e8000081565b61046161030281565b61046169010f0cf064dd5920000081565b610461690fe1c215e8f838e0000081565b6104616276a70081565b61056061dead81565b6040516001600160a01b03909116815260200161046b565b610461600081565b6104616202a30081565b610461607d81565b610461601481565b610461620d2f0081565b61046161264881565b61046169fe1c215e8f838e00000081565b61046162093a8081565b610461607381565b610461610fa081565b610461606981565b610461600a81565b610461692a5a058fc295ed00000081565b610461610bb881565b6104616a021165458500521280000081565b6104616a084376fc33378d97c0000081565b6104616a092e8434aaaf80e180000081565b610461603781565b61046168878678326eac90000081565b6104616201518081565b61046160fa81565b61046161177081565b61046161271081565b610461611b5881565b61046169021e19e0c9bab240000081565b610461600381565b610461604b81565b6104616369ffca8081565b61046169eb0d387777f349c0000081565b610461606e81565b610461604181565b61046160058156fea2646970667358221220f145cfccfefbf3e5d634b8140acffd27c915d84f20a17f12a9f37ce64956337764736f6c63430008180033","opcodes":"PUSH2 0x709 PUSH2 0x3A PUSH1 0xB DUP3 DUP3 DUP3 CODECOPY DUP1 MLOAD PUSH1 0x0 BYTE PUSH1 0x73 EQ PUSH2 0x2D JUMPI PUSH4 0x4E487B71 PUSH1 0xE0 SHL PUSH1 0x0 MSTORE PUSH1 0x0 PUSH1 0x4 MSTORE PUSH1 0x24 PUSH1 0x0 REVERT JUMPDEST ADDRESS PUSH1 0x0 MSTORE PUSH1 0x73 DUP2 MSTORE8 DUP3 DUP2 RETURN INVALID PUSH20 0x0 ADDRESS EQ PUSH1 0x80 PUSH1 0x40 MSTORE PUSH1 0x4 CALLDATASIZE LT PUSH2 0x453 JUMPI PUSH1 0x0 CALLDATALOAD PUSH1 0xE0 SHR DUP1 PUSH4 0x7B6E349A GT PUSH2 0x24B JUMPI DUP1 PUSH4 0xA497B134 GT PUSH2 0x145 JUMPI DUP1 PUSH4 0xD9BC6CC4 GT PUSH2 0xCD JUMPI DUP1 PUSH4 0xED4D5F97 GT PUSH2 0x91 JUMPI DUP1 PUSH4 0xED4D5F97 EQ PUSH2 0x6AA JUMPI DUP1 PUSH4 0xEDA6C732 EQ PUSH2 0x6BB JUMPI DUP1 PUSH4 0xF494E41E EQ PUSH2 0x6C3 JUMPI DUP1 PUSH4 0xF81172F6 EQ PUSH2 0x5C8 JUMPI DUP1 PUSH4 0xFDCE696C EQ PUSH2 0x6CB JUMPI PUSH1 0x0 DUP1 REVERT JUMPDEST DUP1 PUSH4 0xD9BC6CC4 EQ PUSH2 0x697 JUMPI DUP1 PUSH4 0xDADF4022 EQ PUSH2 0x592 JUMPI DUP1 PUSH4 0xDC67EDBE EQ PUSH2 0x48D JUMPI DUP1 PUSH4 0xE1F1C4A7 EQ PUSH2 0x66C JUMPI DUP1 PUSH4 0xE954F41D EQ PUSH2 0x69F JUMPI PUSH1 0x0 DUP1 REVERT JUMPDEST DUP1 PUSH4 0xB8B8FE86 GT PUSH2 0x114 JUMPI DUP1 PUSH4 0xB8B8FE86 EQ PUSH2 0x485 JUMPI DUP1 PUSH4 0xB9D39BB4 EQ PUSH2 0x48D JUMPI DUP1 PUSH4 0xC7CCBAFE EQ PUSH2 0x67E JUMPI DUP1 PUSH4 0xC86EBC99 EQ PUSH2 0x513 JUMPI DUP1 PUSH4 0xCE18B69F EQ PUSH2 0x68F JUMPI PUSH1 0x0 DUP1 REVERT JUMPDEST DUP1 PUSH4 0xA497B134 EQ PUSH2 0x663 JUMPI DUP1 PUSH4 0xA4F8BD15 EQ PUSH2 0x66C JUMPI DUP1 PUSH4 0xADF9EF9E EQ PUSH2 0x48D JUMPI DUP1 PUSH4 0xB136BDDA EQ PUSH2 0x675 JUMPI PUSH1 0x0 DUP1 REVERT JUMPDEST DUP1 PUSH4 0x8BFFC5B5 GT PUSH2 0x1D3 JUMPI DUP1 PUSH4 0x9FB69154 GT PUSH2 0x197 JUMPI DUP1 PUSH4 0x9FB69154 EQ PUSH2 0x639 JUMPI DUP1 PUSH4 0xA060DFB0 EQ PUSH2 0x641 JUMPI DUP1 PUSH4 0xA23DF8DC EQ PUSH2 0x48D JUMPI DUP1 PUSH4 0xA29DFFF3 EQ PUSH2 0x651 JUMPI DUP1 PUSH4 0xA35E793D EQ PUSH2 0x65B JUMPI PUSH1 0x0 DUP1 REVERT JUMPDEST DUP1 PUSH4 0x8BFFC5B5 EQ PUSH2 0x48D JUMPI DUP1 PUSH4 0x8C46387A EQ PUSH2 0x615 JUMPI DUP1 PUSH4 0x902D55A5 EQ PUSH2 0x627 JUMPI DUP1 PUSH4 0x9C663737 EQ PUSH2 0x48D JUMPI DUP1 PUSH4 0x9FA42572 EQ PUSH2 0x513 JUMPI PUSH1 0x0 DUP1 REVERT JUMPDEST DUP1 PUSH4 0x82B14DF3 GT PUSH2 0x21A JUMPI DUP1 PUSH4 0x82B14DF3 EQ PUSH2 0x50A JUMPI DUP1 PUSH4 0x831F23EE EQ PUSH2 0x5E1 JUMPI DUP1 PUSH4 0x86F72D9F EQ PUSH2 0x5E9 JUMPI DUP1 PUSH4 0x882D893B EQ PUSH2 0x5FA JUMPI DUP1 PUSH4 0x8BFEF2F4 EQ PUSH2 0x603 JUMPI PUSH1 0x0 DUP1 REVERT JUMPDEST DUP1 PUSH4 0x7B6E349A EQ PUSH2 0x48D JUMPI DUP1 PUSH4 0x7D4CEB12 EQ PUSH2 0x5C8 JUMPI DUP1 PUSH4 0x810F01B9 EQ PUSH2 0x5D0 JUMPI DUP1 PUSH4 0x8138C046 EQ PUSH2 0x5D9 JUMPI PUSH1 0x0 DUP1 REVERT JUMPDEST DUP1 PUSH4 0x41554DC5 GT PUSH2 0x35C JUMPI DUP1 PUSH4 0x5BA1C1A9 GT PUSH2 0x2E4 JUMPI DUP1 PUSH4 0x6F140BB7 GT PUSH2 0x2A8 JUMPI DUP1 PUSH4 0x6F140BB7 EQ PUSH2 0x59A JUMPI DUP1 PUSH4 0x73662711 EQ PUSH2 0x5A4 JUMPI DUP1 PUSH4 0x740BB5FA EQ PUSH2 0x5AD JUMPI DUP1 PUSH4 0x76F5F700 EQ PUSH2 0x5BE JUMPI DUP1 PUSH4 0x7A8BA8AD EQ PUSH2 0x578 JUMPI PUSH1 0x0 DUP1 REVERT JUMPDEST DUP1 PUSH4 0x5BA1C1A9 EQ PUSH2 0x580 JUMPI DUP1 PUSH4 0x5CBBD382 EQ PUSH2 0x485 JUMPI DUP1 PUSH4 0x5E5966F1 EQ PUSH2 0x58A JUMPI DUP1 PUSH4 0x617B99D2 EQ PUSH2 0x592 JUMPI DUP1 PUSH4 0x64D19609 EQ PUSH2 0x458 JUMPI PUSH1 0x0 DUP1 REVERT JUMPDEST DUP1 PUSH4 0x4BCAEB8D GT PUSH2 0x32B JUMPI DUP1 PUSH4 0x4BCAEB8D EQ PUSH2 0x54D JUMPI DUP1 PUSH4 0x4CDF912B EQ PUSH2 0x458 JUMPI DUP1 PUSH4 0x4E6FD6C4 EQ PUSH2 0x557 JUMPI DUP1 PUSH4 0x5049700F EQ PUSH2 0x578 JUMPI DUP1 PUSH4 0x56B50540 EQ PUSH2 0x485 JUMPI PUSH1 0x0 DUP1 REVERT JUMPDEST DUP1 PUSH4 0x41554DC5 EQ PUSH2 0x522 JUMPI DUP1 PUSH4 0x41F1C0D9 EQ PUSH2 0x52B JUMPI DUP1 PUSH4 0x484D395F EQ PUSH2 0x53C JUMPI DUP1 PUSH4 0x4936704E EQ PUSH2 0x485 JUMPI PUSH1 0x0 DUP1 REVERT JUMPDEST DUP1 PUSH4 0x196039C7 GT PUSH2 0x3DF JUMPI DUP1 PUSH4 0x232C5348 GT PUSH2 0x3AE JUMPI DUP1 PUSH4 0x232C5348 EQ PUSH2 0x4F2 JUMPI DUP1 PUSH4 0x309CB946 EQ PUSH2 0x4FA JUMPI DUP1 PUSH4 0x313B0DF4 EQ PUSH2 0x502 JUMPI DUP1 PUSH4 0x3CA73BA1 EQ PUSH2 0x50A JUMPI DUP1 PUSH4 0x40C0EFF3 EQ PUSH2 0x513 JUMPI PUSH1 0x0 DUP1 REVERT JUMPDEST DUP1 PUSH4 0x196039C7 EQ PUSH2 0x4C0 JUMPI DUP1 PUSH4 0x1B14F4EB EQ PUSH2 0x4C8 JUMPI DUP1 PUSH4 0x1D55C1C4 EQ PUSH2 0x4D9 JUMPI DUP1 PUSH4 0x20F57350 EQ PUSH2 0x4E1 JUMPI PUSH1 0x0 DUP1 REVERT JUMPDEST DUP1 PUSH4 0x7F47C50 GT PUSH2 0x426 JUMPI DUP1 PUSH4 0x7F47C50 EQ PUSH2 0x48D JUMPI DUP1 PUSH4 0x80C1B3E EQ PUSH2 0x495 JUMPI DUP1 PUSH4 0xE3FCE46 EQ PUSH2 0x4A7 JUMPI DUP1 PUSH4 0xFEB116A EQ PUSH2 0x4AF JUMPI DUP1 PUSH4 0x18B64E03 EQ PUSH2 0x4B8 JUMPI PUSH1 0x0 DUP1 REVERT JUMPDEST DUP1 PUSH4 0x18B21F6 EQ PUSH2 0x458 JUMPI DUP1 PUSH4 0x39A9A28 EQ PUSH2 0x474 JUMPI DUP1 PUSH4 0x59D7EFC EQ PUSH2 0x485 JUMPI DUP1 PUSH4 0x63F3911 EQ PUSH2 0x458 JUMPI JUMPDEST PUSH1 0x0 DUP1 REVERT JUMPDEST PUSH2 0x461 PUSH2 0x3E8 DUP2 JUMP JUMPDEST PUSH1 0x40 MLOAD SWAP1 DUP2 MSTORE PUSH1 0x20 ADD JUMPDEST PUSH1 0x40 MLOAD DUP1 SWAP2 SUB SWAP1 RETURN JUMPDEST PUSH2 0x461 PUSH10 0x54B40B1F852BDA00000 DUP2 JUMP JUMPDEST PUSH2 0x461 PUSH1 0x32 DUP2 JUMP JUMPDEST PUSH2 0x461 PUSH1 0x64 DUP2 JUMP JUMPDEST PUSH2 0x461 PUSH11 0x9195731E2CE35EB000000 DUP2 JUMP JUMPDEST PUSH2 0x461 PUSH1 0x2D DUP2 JUMP JUMPDEST PUSH2 0x461 PUSH2 0x23F DUP2 JUMP JUMPDEST PUSH2 0x461 PUSH1 0x19 DUP2 JUMP JUMPDEST PUSH2 0x461 PUSH1 0x55 DUP2 JUMP JUMPDEST PUSH2 0x461 PUSH10 0x152D02C7E14AF6800000 DUP2 JUMP JUMPDEST PUSH2 0x461 PUSH1 0x1E DUP2 JUMP JUMPDEST PUSH2 0x461 PUSH10 0x69E10DE76676D0800000 DUP2 JUMP JUMPDEST PUSH2 0x461 PUSH1 0xC8 DUP2 JUMP JUMPDEST PUSH2 0x461 PUSH1 0x5F DUP2 JUMP JUMPDEST PUSH2 0x461 PUSH1 0xF DUP2 JUMP JUMPDEST PUSH2 0x461 PUSH2 0x7D0 DUP2 JUMP JUMPDEST PUSH2 0x461 PUSH8 0x8AC7230489E80000 DUP2 JUMP JUMPDEST PUSH2 0x461 PUSH2 0x302 DUP2 JUMP JUMPDEST PUSH2 0x461 PUSH10 0x10F0CF064DD59200000 DUP2 JUMP JUMPDEST PUSH2 0x461 PUSH10 0xFE1C215E8F838E00000 DUP2 JUMP JUMPDEST PUSH2 0x461 PUSH3 0x76A700 DUP2 JUMP JUMPDEST PUSH2 0x560 PUSH2 0xDEAD DUP2 JUMP JUMPDEST PUSH1 0x40 MLOAD PUSH1 0x1 PUSH1 0x1 PUSH1 0xA0 SHL SUB SWAP1 SWAP2 AND DUP2 MSTORE PUSH1 0x20 ADD PUSH2 0x46B JUMP JUMPDEST PUSH2 0x461 PUSH1 0x0 DUP2 JUMP JUMPDEST PUSH2 0x461 PUSH3 0x2A300 DUP2 JUMP JUMPDEST PUSH2 0x461 PUSH1 0x7D DUP2 JUMP JUMPDEST PUSH2 0x461 PUSH1 0x14 DUP2 JUMP JUMPDEST PUSH2 0x461 PUSH3 0xD2F00 DUP2 JUMP JUMPDEST PUSH2 0x461 PUSH2 0x2648 DUP2 JUMP JUMPDEST PUSH2 0x461 PUSH10 0xFE1C215E8F838E000000 DUP2 JUMP JUMPDEST PUSH2 0x461 PUSH3 0x93A80 DUP2 JUMP JUMPDEST PUSH2 0x461 PUSH1 0x73 DUP2 JUMP JUMPDEST PUSH2 0x461 PUSH2 0xFA0 DUP2 JUMP JUMPDEST PUSH2 0x461 PUSH1 0x69 DUP2 JUMP JUMPDEST PUSH2 0x461 PUSH1 0xA DUP2 JUMP JUMPDEST PUSH2 0x461 PUSH10 0x2A5A058FC295ED000000 DUP2 JUMP JUMPDEST PUSH2 0x461 PUSH2 0xBB8 DUP2 JUMP JUMPDEST PUSH2 0x461 PUSH11 0x211654585005212800000 DUP2 JUMP JUMPDEST PUSH2 0x461 PUSH11 0x84376FC33378D97C00000 DUP2 JUMP JUMPDEST PUSH2 0x461 PUSH11 0x92E8434AAAF80E1800000 DUP2 JUMP JUMPDEST PUSH2 0x461 PUSH1 0x37 DUP2 JUMP JUMPDEST PUSH2 0x461 PUSH9 0x878678326EAC900000 DUP2 JUMP JUMPDEST PUSH2 0x461 PUSH3 0x15180 DUP2 JUMP JUMPDEST PUSH2 0x461 PUSH1 0xFA DUP2 JUMP JUMPDEST PUSH2 0x461 PUSH2 0x1770 DUP2 JUMP JUMPDEST PUSH2 0x461 PUSH2 0x2710 DUP2 JUMP JUMPDEST PUSH2 0x461 PUSH2 0x1B58 DUP2 JUMP JUMPDEST PUSH2 0x461 PUSH10 0x21E19E0C9BAB2400000 DUP2 JUMP JUMPDEST PUSH2 0x461 PUSH1 0x3 DUP2 JUMP JUMPDEST PUSH2 0x461 PUSH1 0x4B DUP2 JUMP JUMPDEST PUSH2 0x461 PUSH4 0x69FFCA80 DUP2 JUMP JUMPDEST PUSH2 0x461 PUSH10 0xEB0D387777F349C00000 DUP2 JUMP JUMPDEST PUSH2 0x461 PUSH1 0x6E DUP2 JUMP JUMPDEST PUSH2 0x461 PUSH1 0x41 DUP2 JUMP JUMPDEST PUSH2 0x461 PUSH1 0x5 DUP2 JUMP INVALID LOG2 PUSH5 0x6970667358 0x22 SLT KECCAK256 CALL GASLIMIT 0xCF 0xCC INVALID 0xFB RETURN 0xE5 0xD6 CALLVALUE 0xB8 EQ EXP 0xCF REVERT 0x27 0xC9 ISZERO 0xD8 0x4F KECCAK256 LOG1 PUSH32 0x12A9F37CE64956337764736F6C63430008180033000000000000000000000000 "},"methodIdentifiers":{"BASIS_POINTS()":"e1f1c4a7","CONTRACT_RESERVE()":"080c1b3e","DAO_MONTHLY_ROYALTY_BP()":"56b50540","DAO_TEAM_SIZE_REQUIREMENT()":"a35e793d","DEAD_ADDRESS()":"4e6fd6c4","DEPOSIT_TO_COMPANY_BP()":"b8b8fe86","DEPOSIT_TO_DEX_BP()":"73662711","DEPOSIT_TO_PERFORMANCE_BP()":"059d7efc","DEPOSIT_TO_REWARD_BP()":"b9d39bb4","DEX_ALLOCATION()":"1b14f4eb","EARLY_EXIT_FEE_BP()":"4cdf912b","EARLY_EXIT_PERIOD()":"6f140bb7","LAUNCH_TIMESTAMP()":"e954f41d","LIFETIME_RATE()":"0e3fce46","LIFETIME_RATE_START()":"4bcaeb8d","MAX_BURN_SUPPLY()":"8c46387a","MAX_DAO_MEMBERS()":"232c5348","MAX_DEPOSIT_PER_TX()":"41f1c0d9","MAX_REFERRAL_LEVELS()":"617b99d2","MIN_REMAINING_SUPPLY()":"ed4d5f97","MIN_WITHDRAWAL_THRESHOLD()":"c86ebc99","PKG1_FRI()":"adf9ef9e","PKG1_MIN()":"40c0eff3","PKG1_MON()":"07f47c50","PKG1_SAT()":"196039c7","PKG1_SUN()":"9fb69154","PKG1_THU()":"f494e41e","PKG1_TUE()":"d9bc6cc4","PKG1_WED()":"309cb946","PKG1_WEEKLY_TOTAL()":"0feb116a","PKG2_FRI()":"8138c046","PKG2_MIN()":"a060dfb0","PKG2_MON()":"f81172f6","PKG2_SAT()":"9c663737","PKG2_SUN()":"5e5966f1","PKG2_THU()":"eda6c732","PKG2_TUE()":"7b6e349a","PKG2_WED()":"7d4ceb12","PKG2_WEEKLY_TOTAL()":"41554dc5","PROPOSAL_THRESHOLD_BP()":"dc67edbe","QUALIFIED_DIRECT_MIN_DEPOSIT()":"9fa42572","RANK1_BONUS_BP()":"8bffc5b5","RANK1_TURNOVER()":"c7ccbafe","RANK2_BONUS_BP()":"4936704e","RANK2_TURNOVER()":"039a9a28","RANK3_BONUS_BP()":"1d55c1c4","RANK3_TURNOVER()":"484d395f","RANK4_BONUS_BP()":"dadf4022","RANK4_TURNOVER()":"86f72d9f","RANK5_BONUS_BP()":"313b0df4","RANK5_TURNOVER()":"20f57350","RANK6_BONUS_BP()":"831f23ee","RANK6_TURNOVER()":"740bb5fa","RANK7_BONUS_BP()":"fdce696c","RANK7_TURNOVER()":"8bfef2f4","RANK_MAIN_LEG_MAX_BP()":"810f01b9","RANK_OTHER_LEGS_MIN_BP()":"a497b134","REFERRAL_L11_15_BP()":"5cbbd382","REFERRAL_L16_20_BP()":"18b64e03","REFERRAL_L1_BP()":"882d893b","REFERRAL_L2_BP()":"82b14df3","REFERRAL_L3_10_BP()":"a23df8dc","RETURN_CAP_MULTIPLIER()":"ce18b69f","SELL_TAX_BP()":"64d19609","SELL_TAX_FEE_BURN_BP()":"063f3911","SELL_TAX_TO_BURN_BP()":"3ca73ba1","SELL_TAX_TO_CONTRACT_BP()":"b136bdda","TIMELOCK_DELAY()":"5ba1c1a9","TOTAL_SUPPLY()":"902d55a5","TREASURY_TO_DAO_BP()":"7a8ba8ad","TREASURY_TO_LP_BP()":"a4f8bd15","TREASURY_TO_RANK_BP()":"5049700f","VOTING_PERIOD_BLOCKS()":"a29dfff3","WEEK_DURATION()":"76f5f700","WITHDRAWAL_FEE_BP()":"018b21f6"}}}}}