{"contracts/OSLODEX.sol":{"OSLODEX":{"abi":[{"inputs":[{"internalType":"address","name":"_usdt","type":"address"},{"internalType":"address","name":"_osloToken","type":"address"}],"stateMutability":"nonpayable","type":"constructor"},{"inputs":[],"name":"InsufficientReserve","type":"error"},{"inputs":[],"name":"OnlyAdmin","type":"error"},{"inputs":[],"name":"OnlyInvestmentEngine","type":"error"},{"inputs":[],"name":"OnlyLiquidityManager","type":"error"},{"inputs":[],"name":"OnlyTimelock","type":"error"},{"inputs":[],"name":"ReentrancyGuardReentrantCall","type":"error"},{"inputs":[{"internalType":"address","name":"token","type":"address"}],"name":"SafeERC20FailedOperation","type":"error"},{"inputs":[],"name":"SetupAlreadyComplete","type":"error"},{"inputs":[],"name":"SlippageExceeded","type":"error"},{"inputs":[],"name":"ZeroAddress","type":"error"},{"inputs":[],"name":"ZeroAmount","type":"error"},{"anonymous":false,"inputs":[{"indexed":false,"internalType":"uint256","name":"usdtIn","type":"uint256"},{"indexed":false,"internalType":"uint256","name":"osloOut","type":"uint256"}],"name":"DepositProcessed","type":"event"},{"anonymous":false,"inputs":[{"indexed":false,"internalType":"uint256","name":"usdtAmount","type":"uint256"},{"indexed":false,"internalType":"uint256","name":"osloAmount","type":"uint256"}],"name":"LiquidityDeposited","type":"event"},{"anonymous":false,"inputs":[{"indexed":false,"internalType":"uint256","name":"newPrice","type":"uint256"}],"name":"PriceUpdated","type":"event"},{"anonymous":false,"inputs":[{"indexed":true,"internalType":"address","name":"user","type":"address"},{"indexed":false,"internalType":"bool","name":"usdtToOslo","type":"bool"},{"indexed":false,"internalType":"uint256","name":"inputAmount","type":"uint256"},{"indexed":false,"internalType":"uint256","name":"outputAmount","type":"uint256"},{"indexed":false,"internalType":"uint256","name":"price","type":"uint256"}],"name":"Swapped","type":"event"},{"anonymous":false,"inputs":[{"indexed":false,"internalType":"uint256","name":"osloIn","type":"uint256"},{"indexed":false,"internalType":"uint256","name":"usdtOut","type":"uint256"},{"indexed":false,"internalType":"address","name":"recipient","type":"address"}],"name":"WithdrawalProcessed","type":"event"},{"inputs":[{"internalType":"uint256","name":"usdtAmount","type":"uint256"},{"internalType":"uint256","name":"osloAmount","type":"uint256"}],"name":"addInitialLiquidity","outputs":[],"stateMutability":"nonpayable","type":"function"},{"inputs":[{"internalType":"uint256","name":"usdtAmount","type":"uint256"}],"name":"addLiquidityFromFees","outputs":[],"stateMutability":"nonpayable","type":"function"},{"inputs":[],"name":"admin","outputs":[{"internalType":"address","name":"","type":"address"}],"stateMutability":"view","type":"function"},{"inputs":[],"name":"completeSetup","outputs":[],"stateMutability":"nonpayable","type":"function"},{"inputs":[{"internalType":"address","name":"_timelock","type":"address"},{"internalType":"address","name":"_liquidityManager","type":"address"},{"internalType":"address","name":"_investmentEngine","type":"address"}],"name":"configure","outputs":[],"stateMutability":"nonpayable","type":"function"},{"inputs":[{"internalType":"uint256","name":"osloAmount","type":"uint256"}],"name":"getOSLOForUSDTOutput","outputs":[{"internalType":"uint256","name":"","type":"uint256"}],"stateMutability":"view","type":"function"},{"inputs":[],"name":"getPrice","outputs":[{"internalType":"uint256","name":"","type":"uint256"}],"stateMutability":"view","type":"function"},{"inputs":[],"name":"getReserves","outputs":[{"internalType":"uint256","name":"_usdtRes","type":"uint256"},{"internalType":"uint256","name":"_osloRes","type":"uint256"}],"stateMutability":"view","type":"function"},{"inputs":[{"internalType":"uint256","name":"usdtAmount","type":"uint256"}],"name":"getUSDTForOSLOOutput","outputs":[{"internalType":"uint256","name":"","type":"uint256"}],"stateMutability":"view","type":"function"},{"inputs":[],"name":"investmentEngine","outputs":[{"internalType":"address","name":"","type":"address"}],"stateMutability":"view","type":"function"},{"inputs":[],"name":"lastPrice","outputs":[{"internalType":"uint256","name":"","type":"uint256"}],"stateMutability":"view","type":"function"},{"inputs":[],"name":"liquidityManager","outputs":[{"internalType":"address","name":"","type":"address"}],"stateMutability":"view","type":"function"},{"inputs":[],"name":"osloReserve","outputs":[{"internalType":"uint256","name":"","type":"uint256"}],"stateMutability":"view","type":"function"},{"inputs":[],"name":"osloToken","outputs":[{"internalType":"contract IERC20","name":"","type":"address"}],"stateMutability":"view","type":"function"},{"inputs":[{"internalType":"uint256","name":"usdtAmount","type":"uint256"}],"name":"processDeposit","outputs":[{"internalType":"uint256","name":"osloAmount","type":"uint256"}],"stateMutability":"nonpayable","type":"function"},{"inputs":[{"internalType":"uint256","name":"osloAmount","type":"uint256"},{"internalType":"address","name":"recipient","type":"address"}],"name":"processWithdrawal","outputs":[{"internalType":"uint256","name":"usdtAmount","type":"uint256"}],"stateMutability":"nonpayable","type":"function"},{"inputs":[{"internalType":"uint256","name":"osloAmount","type":"uint256"}],"name":"replenishOsloReserve","outputs":[],"stateMutability":"nonpayable","type":"function"},{"inputs":[],"name":"setupComplete","outputs":[{"internalType":"bool","name":"","type":"bool"}],"stateMutability":"view","type":"function"},{"inputs":[{"internalType":"uint256","name":"osloAmount","type":"uint256"},{"internalType":"uint256","name":"minUSDTAmount","type":"uint256"}],"name":"swapOSLOForUSDT","outputs":[{"internalType":"uint256","name":"usdtAmount","type":"uint256"}],"stateMutability":"nonpayable","type":"function"},{"inputs":[{"internalType":"uint256","name":"usdtAmount","type":"uint256"},{"internalType":"uint256","name":"minOsloAmount","type":"uint256"}],"name":"swapUSDTForOSLO","outputs":[{"internalType":"uint256","name":"osloAmount","type":"uint256"}],"stateMutability":"nonpayable","type":"function"},{"inputs":[],"name":"timelock","outputs":[{"internalType":"address","name":"","type":"address"}],"stateMutability":"view","type":"function"},{"inputs":[],"name":"totalSwaps","outputs":[{"internalType":"uint256","name":"","type":"uint256"}],"stateMutability":"view","type":"function"},{"inputs":[],"name":"totalVolumeUSDT","outputs":[{"internalType":"uint256","name":"","type":"uint256"}],"stateMutability":"view","type":"function"},{"inputs":[],"name":"usdt","outputs":[{"internalType":"contract IERC20","name":"","type":"address"}],"stateMutability":"view","type":"function"},{"inputs":[],"name":"usdtReserve","outputs":[{"internalType":"uint256","name":"","type":"uint256"}],"stateMutability":"view","type":"function"}],"evm":{"bytecode":{"linkReferences":{},"object":"60c06040523480156200001157600080fd5b506040516200194b3803806200194b8339810160408190526200003491620000dc565b60017f9b779b17422d0df92223018b32b4d1fa46e071723d6817e2486d003becc55f00556001600160a01b03821615806200007657506001600160a01b038116155b15620000955760405163d92e233d60e01b815260040160405180910390fd5b6001600160a01b039182166080521660a052600080546001600160a01b0319163317905562000114565b80516001600160a01b0381168114620000d757600080fd5b919050565b60008060408385031215620000f057600080fd5b620000fb83620000bf565b91506200010b60208401620000bf565b90509250929050565b60805160a0516117a1620001aa600039600081816101c70152818161048501528181610555015281816106c5015281816107470152818161079101528181610a2901528181610cb101528181610ede015281816110bd0152611241015260008181610206015281816103dd015281816108ba01528181610c7c01528181610ea901528181611078015261133301526117a16000f3fe608060405234801561001057600080fd5b50600436106101735760003560e01c80638aea8f71116100de578063b4a800ce11610097578063d33219b411610071578063d33219b41461032d578063ee3b038f14610340578063f843e64114610353578063f851a4401461036657600080fd5b8063b4a800ce146102ed578063b6635be6146102f6578063c2c906871461031a57600080fd5b80638aea8f71146102a557806398d5fdca146102ad578063a1e26e7b146102b5578063a40f4fa1146102be578063a7978031146102d1578063ac257a6e146102e457600080fd5b806330cf2aeb1161013057806330cf2aeb1461023b578063338274381461024e578063362ce52b1461026157806347aa7ea41461027657806355d28f201461028957806383bbdd5f1461029c57600080fd5b8063053f14da146101785780630902f1ac146101945780630cc2055a146101af5780632acfbca3146101c25780632f48ab7d146102015780633013138414610228575b600080fd5b61018160085481565b6040519081526020015b60405180910390f35b6004546005546040805192835260208301919091520161018b565b6101816101bd3660046115c3565b610379565b6101e97f000000000000000000000000000000000000000000000000000000000000000081565b6040516001600160a01b03909116815260200161018b565b6101e97f000000000000000000000000000000000000000000000000000000000000000081565b6003546101e9906001600160a01b031681565b6101816102493660046115dc565b610655565b6002546101e9906001600160a01b031681565b61027461026f3660046115c3565b6109d0565b005b6101816102843660046115c3565b610a6b565b610274610297366004611615565b610ab7565b61018160065481565b610274610b5b565b610181610bd6565b61018160055481565b6102746102cc3660046115dc565b610c1b565b6101816102df3660046115c3565b610d90565b61018160045481565b61018160075481565b60035461030a90600160a01b900460ff1681565b604051901515815260200161018b565b6101816103283660046115dc565b610df3565b6001546101e9906001600160a01b031681565b61027461034e3660046115c3565b61101f565b610181610361366004611658565b6111b6565b6000546101e9906001600160a01b031681565b6003546000906001600160a01b031633146103a757604051630559b36f60e11b815260040160405180910390fd5b6103af611422565b816000036103d057604051631f2a200560e01b815260040160405180910390fd5b6104056001600160a01b037f00000000000000000000000000000000000000000000000000000000000000001633308561143e565b600060045411801561041957506000600554115b1561044a578160045461042c919061169a565b60055461043990846116ad565b61044391906116c4565b905061044d565b50805b8060000361046e57604051631f2a200560e01b815260040160405180910390fd5b6040516370a0823160e01b815230600482015281907f00000000000000000000000000000000000000000000000000000000000000006001600160a01b0316906370a0823190602401602060405180830381865afa1580156104d4573d6000803e3d6000fd5b505050506040513d601f19601f820116820180604052508101906104f891906116e6565b1015610517576040516328b35f2160e01b815260040160405180910390fd5b8160046000828254610529919061169a565b92505081905550806005600082825461054291906116ff565b9091555061057c90506001600160a01b037f000000000000000000000000000000000000000000000000000000000000000016338361147f565b6000806005541161058e5760006105b0565b6005546004546105a690670de0b6b3a76400006116ad565b6105b091906116c4565b905082600660008282546105c4919061169a565b9091555050600780549060006105d983611712565b909155505060408051848152602081018490527f3d53ffd94e6169fe8616aef06a81eba2335ff27eac4a60886ad869b22c4f347b910160405180910390a160405181815260008051602061172c8339815191529060200160405180910390a150610650600160008051602061174c83398151915255565b919050565b600061065f611422565b8260000361068057604051631f2a200560e01b815260040160405180910390fd5b600454158061068f5750600554155b156106ad576040516328b35f2160e01b815260040160405180910390fd5b6040516370a0823160e01b81523060048201526000907f00000000000000000000000000000000000000000000000000000000000000006001600160a01b0316906370a0823190602401602060405180830381865afa158015610714573d6000803e3d6000fd5b505050506040513d601f19601f8201168201806040525081019061073891906116e6565b905061076f6001600160a01b037f00000000000000000000000000000000000000000000000000000000000000001633308761143e565b6040516370a0823160e01b815230600482015260009082906001600160a01b037f000000000000000000000000000000000000000000000000000000000000000016906370a0823190602401602060405180830381865afa1580156107d8573d6000803e3d6000fd5b505050506040513d601f19601f820116820180604052508101906107fc91906116e6565b61080691906116ff565b905084600554610816919061169a565b60045461082390876116ad565b61082d91906116c4565b925082158061083b57508383105b1561085957604051638199f5f360e01b815260040160405180910390fd5b60045483111561087c576040516328b35f2160e01b815260040160405180910390fd5b826004600082825461088e91906116ff565b9250508190555080600560008282546108a7919061169a565b909155506108e190506001600160a01b037f000000000000000000000000000000000000000000000000000000000000000016338561147f565b82600660008282546108f3919061169a565b90915550506007805490600061090883611712565b91905055506000806005541161091f576000610941565b60055460045461093790670de0b6b3a76400006116ad565b61094191906116c4565b6040805160008152602081018990529081018690526060810182905290915033907f7c707038fb62cb248ec6b437a63ec556bb6233af235f4518d64693cba918a6e19060800160405180910390a260405181815260008051602061172c8339815191529060200160405180910390a15050506109ca600160008051602061174c83398151915255565b92915050565b6003546001600160a01b031633146109fb57604051630559b36f60e11b815260040160405180910390fd5b80600003610a1c57604051631f2a200560e01b815260040160405180910390fd5b610a516001600160a01b037f00000000000000000000000000000000000000000000000000000000000000001633308461143e565b8060056000828254610a63919061169a565b909155505050565b6000811580610a7a5750600454155b80610a855750600554155b15610a9257506000919050565b81600454610aa0919061169a565b600554610aad90846116ad565b6109ca91906116c4565b6000546001600160a01b03163314610ae257604051634755657960e01b815260040160405180910390fd5b600354600160a01b900460ff1615610b0d5760405163238f75d360e01b815260040160405180910390fd5b600180546001600160a01b039485166001600160a01b031991821617909155600280549385169390911692909217909155600380546001600160a81b0319169190921617600160a01b179055565b6000546001600160a01b03163314610b8657604051634755657960e01b815260040160405180910390fd5b600354600160a01b900460ff1615610bb15760405163238f75d360e01b815260040160405180910390fd5b6003805460ff60a01b1916600160a01b179055600080546001600160a01b0319169055565b600060055460001480610be95750600454155b15610bf45750600090565b600554600454610c0c90670de0b6b3a76400006116ad565b610c1691906116c4565b905090565b6002546001600160a01b03163314610c4657604051630be5a3e160e31b815260040160405180910390fd5b811580610c51575080155b15610c6f57604051631f2a200560e01b815260040160405180910390fd5b610ca46001600160a01b037f00000000000000000000000000000000000000000000000000000000000000001633308561143e565b610cd96001600160a01b037f00000000000000000000000000000000000000000000000000000000000000001633308461143e565b8160046000828254610ceb919061169a565b925050819055508060056000828254610d04919061169a565b90915550819050610d1d83670de0b6b3a76400006116ad565b610d2791906116c4565b60085560408051838152602081018390527f9c86429231ed0411e3112a1dd5c6578826c2d48089d5ec491e874ce0029c0bbe910160405180910390a160008051602061172c833981519152600854604051610d8491815260200190565b60405180910390a15050565b6000811580610d9f5750600454155b80610daa5750600554155b15610db757506000919050565b600082600554610dc7919061169a565b600454610dd490856116ad565b610dde91906116c4565b90506004548111156109ca5750600092915050565b6000610dfd611422565b82600003610e1e57604051631f2a200560e01b815260040160405180910390fd5b6004541580610e2d5750600554155b15610e4b576040516328b35f2160e01b815260040160405180910390fd5b82600454610e59919061169a565b600554610e6690856116ad565b610e7091906116c4565b9050801580610e7e57508181105b15610e9c57604051638199f5f360e01b815260040160405180910390fd5b610ed16001600160a01b037f00000000000000000000000000000000000000000000000000000000000000001633308661143e565b610f056001600160a01b037f000000000000000000000000000000000000000000000000000000000000000016338361147f565b8260046000828254610f17919061169a565b925050819055508060056000828254610f3091906116ff565b925050819055508260066000828254610f49919061169a565b909155505060078054906000610f5e83611712565b919050555060008060055411610f75576000610f97565b600554600454610f8d90670de0b6b3a76400006116ad565b610f9791906116c4565b6040805160018152602081018790529081018490526060810182905290915033907f7c707038fb62cb248ec6b437a63ec556bb6233af235f4518d64693cba918a6e19060800160405180910390a260405181815260008051602061172c833981519152906020015b60405180910390a1506109ca600160008051602061174c83398151915255565b6002546001600160a01b0316331461104a57604051630be5a3e160e31b815260040160405180910390fd5b8060000361106b57604051631f2a200560e01b815260040160405180910390fd5b6110a06001600160a01b037f00000000000000000000000000000000000000000000000000000000000000001633308461143e565b80600460008282546110b2919061169a565b9250508190555060007f00000000000000000000000000000000000000000000000000000000000000006001600160a01b03166318160ddd6040518163ffffffff1660e01b8152600401602060405180830381865afa158015611119573d6000803e3d6000fd5b505050506040513d601f19601f8201168201806040525081019061113d91906116e6565b60045461115290670de0b6b3a76400006116ad565b61115c91906116c4565b60408051848152600060208201529192507f9c86429231ed0411e3112a1dd5c6578826c2d48089d5ec491e874ce0029c0bbe910160405180910390a160405181815260008051602061172c83398151915290602001610d84565b6003546000906001600160a01b031633146111e457604051630559b36f60e11b815260040160405180910390fd5b6111ec611422565b8260000361120d57604051631f2a200560e01b815260040160405180910390fd5b6001600160a01b0382166112345760405163d92e233d60e01b815260040160405180910390fd5b6112696001600160a01b037f00000000000000000000000000000000000000000000000000000000000000001633308661143e565b600060045411801561127d57506000600554115b156112ae5782600554611290919061169a565b60045461129d90856116ad565b6112a791906116c4565b90506112b1565b50815b806000036112d257604051631f2a200560e01b815260040160405180910390fd5b6004548111156112f5576040516328b35f2160e01b815260040160405180910390fd5b8260056000828254611307919061169a565b92505081905550806004600082825461132091906116ff565b9091555061135a90506001600160a01b037f000000000000000000000000000000000000000000000000000000000000000016838361147f565b6000806005541161136c57600061138e565b60055460045461138490670de0b6b3a76400006116ad565b61138e91906116c4565b905081600660008282546113a2919061169a565b9091555050600780549060006113b783611712565b909155505060408051858152602081018490526001600160a01b0385168183015290517f1408158d52d7d739e0848c588738e9b79917e2773e51c49ff4544e3e6a538f8c9181900360600190a160405181815260008051602061172c83398151915290602001610fff565b61142a6114b9565b600260008051602061174c83398151915255565b61144c8484848460016114eb565b61147957604051635274afe760e01b81526001600160a01b03851660048201526024015b60405180910390fd5b50505050565b61148c838383600161155d565b6114b457604051635274afe760e01b81526001600160a01b0384166004820152602401611470565b505050565b60008051602061174c833981519152546002036114e957604051633ee5aeb560e01b815260040160405180910390fd5b565b6040516323b872dd60e01b60008181526001600160a01b038781166004528616602452604485905291602083606481808c5af19250600160005114831661154b57838315161561153e573d6000823e3d81fd5b6000883b113d1516831692505b60405250600060605295945050505050565b60405163a9059cbb60e01b60008181526001600160a01b038616600452602485905291602083604481808b5af1925060016000511483166115b75783831516156115aa573d6000823e3d81fd5b6000873b113d1516831692505b60405250949350505050565b6000602082840312156115d557600080fd5b5035919050565b600080604083850312156115ef57600080fd5b50508035926020909101359150565b80356001600160a01b038116811461065057600080fd5b60008060006060848603121561162a57600080fd5b611633846115fe565b9250611641602085016115fe565b915061164f604085016115fe565b90509250925092565b6000806040838503121561166b57600080fd5b8235915061167b602084016115fe565b90509250929050565b634e487b7160e01b600052601160045260246000fd5b808201808211156109ca576109ca611684565b80820281158282048414176109ca576109ca611684565b6000826116e157634e487b7160e01b600052601260045260246000fd5b500490565b6000602082840312156116f857600080fd5b5051919050565b818103818111156109ca576109ca611684565b60006001820161172457611724611684565b506001019056fe66cbca4f3c64fecf1dcb9ce094abcf7f68c3450a1d4e3a8e917dd621edb4ebe09b779b17422d0df92223018b32b4d1fa46e071723d6817e2486d003becc55f00a26469706673582212204174e49bf988e127fdceaf57f361066974745790648ff24e3efe700ec5fb85a664736f6c63430008180033","opcodes":"PUSH1 0xC0 PUSH1 0x40 MSTORE CALLVALUE DUP1 ISZERO PUSH3 0x11 JUMPI PUSH1 0x0 DUP1 REVERT JUMPDEST POP PUSH1 0x40 MLOAD PUSH3 0x194B CODESIZE SUB DUP1 PUSH3 0x194B DUP4 CODECOPY DUP2 ADD PUSH1 0x40 DUP2 SWAP1 MSTORE PUSH3 0x34 SWAP2 PUSH3 0xDC JUMP JUMPDEST PUSH1 0x1 PUSH32 0x9B779B17422D0DF92223018B32B4D1FA46E071723D6817E2486D003BECC55F00 SSTORE PUSH1 0x1 PUSH1 0x1 PUSH1 0xA0 SHL SUB DUP3 AND ISZERO DUP1 PUSH3 0x76 JUMPI POP PUSH1 0x1 PUSH1 0x1 PUSH1 0xA0 SHL SUB DUP2 AND ISZERO JUMPDEST ISZERO PUSH3 0x95 JUMPI PUSH1 0x40 MLOAD PUSH4 0xD92E233D PUSH1 0xE0 SHL DUP2 MSTORE PUSH1 0x4 ADD PUSH1 0x40 MLOAD DUP1 SWAP2 SUB SWAP1 REVERT JUMPDEST PUSH1 0x1 PUSH1 0x1 PUSH1 0xA0 SHL SUB SWAP2 DUP3 AND PUSH1 0x80 MSTORE AND PUSH1 0xA0 MSTORE PUSH1 0x0 DUP1 SLOAD PUSH1 0x1 PUSH1 0x1 PUSH1 0xA0 SHL SUB NOT AND CALLER OR SWAP1 SSTORE PUSH3 0x114 JUMP JUMPDEST DUP1 MLOAD PUSH1 0x1 PUSH1 0x1 PUSH1 0xA0 SHL SUB DUP2 AND DUP2 EQ PUSH3 0xD7 JUMPI PUSH1 0x0 DUP1 REVERT JUMPDEST SWAP2 SWAP1 POP JUMP JUMPDEST PUSH1 0x0 DUP1 PUSH1 0x40 DUP4 DUP6 SUB SLT ISZERO PUSH3 0xF0 JUMPI PUSH1 0x0 DUP1 REVERT JUMPDEST PUSH3 0xFB DUP4 PUSH3 0xBF JUMP JUMPDEST SWAP2 POP PUSH3 0x10B PUSH1 0x20 DUP5 ADD PUSH3 0xBF JUMP JUMPDEST SWAP1 POP SWAP3 POP SWAP3 SWAP1 POP JUMP JUMPDEST PUSH1 0x80 MLOAD PUSH1 0xA0 MLOAD PUSH2 0x17A1 PUSH3 0x1AA PUSH1 0x0 CODECOPY PUSH1 0x0 DUP2 DUP2 PUSH2 0x1C7 ADD MSTORE DUP2 DUP2 PUSH2 0x485 ADD MSTORE DUP2 DUP2 PUSH2 0x555 ADD MSTORE DUP2 DUP2 PUSH2 0x6C5 ADD MSTORE DUP2 DUP2 PUSH2 0x747 ADD MSTORE DUP2 DUP2 PUSH2 0x791 ADD MSTORE DUP2 DUP2 PUSH2 0xA29 ADD MSTORE DUP2 DUP2 PUSH2 0xCB1 ADD MSTORE DUP2 DUP2 PUSH2 0xEDE ADD MSTORE DUP2 DUP2 PUSH2 0x10BD ADD MSTORE PUSH2 0x1241 ADD MSTORE PUSH1 0x0 DUP2 DUP2 PUSH2 0x206 ADD MSTORE DUP2 DUP2 PUSH2 0x3DD ADD MSTORE DUP2 DUP2 PUSH2 0x8BA ADD MSTORE DUP2 DUP2 PUSH2 0xC7C ADD MSTORE DUP2 DUP2 PUSH2 0xEA9 ADD MSTORE DUP2 DUP2 PUSH2 0x1078 ADD MSTORE PUSH2 0x1333 ADD MSTORE PUSH2 0x17A1 PUSH1 0x0 RETURN INVALID PUSH1 0x80 PUSH1 0x40 MSTORE CALLVALUE DUP1 ISZERO PUSH2 0x10 JUMPI PUSH1 0x0 DUP1 REVERT JUMPDEST POP PUSH1 0x4 CALLDATASIZE LT PUSH2 0x173 JUMPI PUSH1 0x0 CALLDATALOAD PUSH1 0xE0 SHR DUP1 PUSH4 0x8AEA8F71 GT PUSH2 0xDE JUMPI DUP1 PUSH4 0xB4A800CE GT PUSH2 0x97 JUMPI DUP1 PUSH4 0xD33219B4 GT PUSH2 0x71 JUMPI DUP1 PUSH4 0xD33219B4 EQ PUSH2 0x32D JUMPI DUP1 PUSH4 0xEE3B038F EQ PUSH2 0x340 JUMPI DUP1 PUSH4 0xF843E641 EQ PUSH2 0x353 JUMPI DUP1 PUSH4 0xF851A440 EQ PUSH2 0x366 JUMPI PUSH1 0x0 DUP1 REVERT JUMPDEST DUP1 PUSH4 0xB4A800CE EQ PUSH2 0x2ED JUMPI DUP1 PUSH4 0xB6635BE6 EQ PUSH2 0x2F6 JUMPI DUP1 PUSH4 0xC2C90687 EQ PUSH2 0x31A JUMPI PUSH1 0x0 DUP1 REVERT JUMPDEST DUP1 PUSH4 0x8AEA8F71 EQ PUSH2 0x2A5 JUMPI DUP1 PUSH4 0x98D5FDCA EQ PUSH2 0x2AD JUMPI DUP1 PUSH4 0xA1E26E7B EQ PUSH2 0x2B5 JUMPI DUP1 PUSH4 0xA40F4FA1 EQ PUSH2 0x2BE JUMPI DUP1 PUSH4 0xA7978031 EQ PUSH2 0x2D1 JUMPI DUP1 PUSH4 0xAC257A6E EQ PUSH2 0x2E4 JUMPI PUSH1 0x0 DUP1 REVERT JUMPDEST DUP1 PUSH4 0x30CF2AEB GT PUSH2 0x130 JUMPI DUP1 PUSH4 0x30CF2AEB EQ PUSH2 0x23B JUMPI DUP1 PUSH4 0x33827438 EQ PUSH2 0x24E JUMPI DUP1 PUSH4 0x362CE52B EQ PUSH2 0x261 JUMPI DUP1 PUSH4 0x47AA7EA4 EQ PUSH2 0x276 JUMPI DUP1 PUSH4 0x55D28F20 EQ PUSH2 0x289 JUMPI DUP1 PUSH4 0x83BBDD5F EQ PUSH2 0x29C JUMPI PUSH1 0x0 DUP1 REVERT JUMPDEST DUP1 PUSH4 0x53F14DA EQ PUSH2 0x178 JUMPI DUP1 PUSH4 0x902F1AC EQ PUSH2 0x194 JUMPI DUP1 PUSH4 0xCC2055A EQ PUSH2 0x1AF JUMPI DUP1 PUSH4 0x2ACFBCA3 EQ PUSH2 0x1C2 JUMPI DUP1 PUSH4 0x2F48AB7D EQ PUSH2 0x201 JUMPI DUP1 PUSH4 0x30131384 EQ PUSH2 0x228 JUMPI JUMPDEST PUSH1 0x0 DUP1 REVERT JUMPDEST PUSH2 0x181 PUSH1 0x8 SLOAD DUP2 JUMP JUMPDEST PUSH1 0x40 MLOAD SWAP1 DUP2 MSTORE PUSH1 0x20 ADD JUMPDEST PUSH1 0x40 MLOAD DUP1 SWAP2 SUB SWAP1 RETURN JUMPDEST PUSH1 0x4 SLOAD PUSH1 0x5 SLOAD PUSH1 0x40 DUP1 MLOAD SWAP3 DUP4 MSTORE PUSH1 0x20 DUP4 ADD SWAP2 SWAP1 SWAP2 MSTORE ADD PUSH2 0x18B JUMP JUMPDEST PUSH2 0x181 PUSH2 0x1BD CALLDATASIZE PUSH1 0x4 PUSH2 0x15C3 JUMP JUMPDEST PUSH2 0x379 JUMP JUMPDEST PUSH2 0x1E9 PUSH32 0x0 DUP2 JUMP JUMPDEST PUSH1 0x40 MLOAD PUSH1 0x1 PUSH1 0x1 PUSH1 0xA0 SHL SUB SWAP1 SWAP2 AND DUP2 MSTORE PUSH1 0x20 ADD PUSH2 0x18B JUMP JUMPDEST PUSH2 0x1E9 PUSH32 0x0 DUP2 JUMP JUMPDEST PUSH1 0x3 SLOAD PUSH2 0x1E9 SWAP1 PUSH1 0x1 PUSH1 0x1 PUSH1 0xA0 SHL SUB AND DUP2 JUMP JUMPDEST PUSH2 0x181 PUSH2 0x249 CALLDATASIZE PUSH1 0x4 PUSH2 0x15DC JUMP JUMPDEST PUSH2 0x655 JUMP JUMPDEST PUSH1 0x2 SLOAD PUSH2 0x1E9 SWAP1 PUSH1 0x1 PUSH1 0x1 PUSH1 0xA0 SHL SUB AND DUP2 JUMP JUMPDEST PUSH2 0x274 PUSH2 0x26F CALLDATASIZE PUSH1 0x4 PUSH2 0x15C3 JUMP JUMPDEST PUSH2 0x9D0 JUMP JUMPDEST STOP JUMPDEST PUSH2 0x181 PUSH2 0x284 CALLDATASIZE PUSH1 0x4 PUSH2 0x15C3 JUMP JUMPDEST PUSH2 0xA6B JUMP JUMPDEST PUSH2 0x274 PUSH2 0x297 CALLDATASIZE PUSH1 0x4 PUSH2 0x1615 JUMP JUMPDEST PUSH2 0xAB7 JUMP JUMPDEST PUSH2 0x181 PUSH1 0x6 SLOAD DUP2 JUMP JUMPDEST PUSH2 0x274 PUSH2 0xB5B JUMP JUMPDEST PUSH2 0x181 PUSH2 0xBD6 JUMP JUMPDEST PUSH2 0x181 PUSH1 0x5 SLOAD DUP2 JUMP JUMPDEST PUSH2 0x274 PUSH2 0x2CC CALLDATASIZE PUSH1 0x4 PUSH2 0x15DC JUMP JUMPDEST PUSH2 0xC1B JUMP JUMPDEST PUSH2 0x181 PUSH2 0x2DF CALLDATASIZE PUSH1 0x4 PUSH2 0x15C3 JUMP JUMPDEST PUSH2 0xD90 JUMP JUMPDEST PUSH2 0x181 PUSH1 0x4 SLOAD DUP2 JUMP JUMPDEST PUSH2 0x181 PUSH1 0x7 SLOAD DUP2 JUMP JUMPDEST PUSH1 0x3 SLOAD PUSH2 0x30A SWAP1 PUSH1 0x1 PUSH1 0xA0 SHL SWAP1 DIV PUSH1 0xFF AND DUP2 JUMP JUMPDEST PUSH1 0x40 MLOAD SWAP1 ISZERO ISZERO DUP2 MSTORE PUSH1 0x20 ADD PUSH2 0x18B JUMP JUMPDEST PUSH2 0x181 PUSH2 0x328 CALLDATASIZE PUSH1 0x4 PUSH2 0x15DC JUMP JUMPDEST PUSH2 0xDF3 JUMP JUMPDEST PUSH1 0x1 SLOAD PUSH2 0x1E9 SWAP1 PUSH1 0x1 PUSH1 0x1 PUSH1 0xA0 SHL SUB AND DUP2 JUMP JUMPDEST PUSH2 0x274 PUSH2 0x34E CALLDATASIZE PUSH1 0x4 PUSH2 0x15C3 JUMP JUMPDEST PUSH2 0x101F JUMP JUMPDEST PUSH2 0x181 PUSH2 0x361 CALLDATASIZE PUSH1 0x4 PUSH2 0x1658 JUMP JUMPDEST PUSH2 0x11B6 JUMP JUMPDEST PUSH1 0x0 SLOAD PUSH2 0x1E9 SWAP1 PUSH1 0x1 PUSH1 0x1 PUSH1 0xA0 SHL SUB AND DUP2 JUMP JUMPDEST PUSH1 0x3 SLOAD PUSH1 0x0 SWAP1 PUSH1 0x1 PUSH1 0x1 PUSH1 0xA0 SHL SUB AND CALLER EQ PUSH2 0x3A7 JUMPI PUSH1 0x40 MLOAD PUSH4 0x559B36F PUSH1 0xE1 SHL DUP2 MSTORE PUSH1 0x4 ADD PUSH1 0x40 MLOAD DUP1 SWAP2 SUB SWAP1 REVERT JUMPDEST PUSH2 0x3AF PUSH2 0x1422 JUMP JUMPDEST DUP2 PUSH1 0x0 SUB PUSH2 0x3D0 JUMPI PUSH1 0x40 MLOAD PUSH4 0x1F2A2005 PUSH1 0xE0 SHL DUP2 MSTORE PUSH1 0x4 ADD PUSH1 0x40 MLOAD DUP1 SWAP2 SUB SWAP1 REVERT JUMPDEST PUSH2 0x405 PUSH1 0x1 PUSH1 0x1 PUSH1 0xA0 SHL SUB PUSH32 0x0 AND CALLER ADDRESS DUP6 PUSH2 0x143E JUMP JUMPDEST PUSH1 0x0 PUSH1 0x4 SLOAD GT DUP1 ISZERO PUSH2 0x419 JUMPI POP PUSH1 0x0 PUSH1 0x5 SLOAD GT JUMPDEST ISZERO PUSH2 0x44A JUMPI DUP2 PUSH1 0x4 SLOAD PUSH2 0x42C SWAP2 SWAP1 PUSH2 0x169A JUMP JUMPDEST PUSH1 0x5 SLOAD PUSH2 0x439 SWAP1 DUP5 PUSH2 0x16AD JUMP JUMPDEST PUSH2 0x443 SWAP2 SWAP1 PUSH2 0x16C4 JUMP JUMPDEST SWAP1 POP PUSH2 0x44D JUMP JUMPDEST POP DUP1 JUMPDEST DUP1 PUSH1 0x0 SUB PUSH2 0x46E JUMPI PUSH1 0x40 MLOAD PUSH4 0x1F2A2005 PUSH1 0xE0 SHL DUP2 MSTORE PUSH1 0x4 ADD PUSH1 0x40 MLOAD DUP1 SWAP2 SUB SWAP1 REVERT JUMPDEST PUSH1 0x40 MLOAD PUSH4 0x70A08231 PUSH1 0xE0 SHL DUP2 MSTORE ADDRESS PUSH1 0x4 DUP3 ADD MSTORE DUP2 SWAP1 PUSH32 0x0 PUSH1 0x1 PUSH1 0x1 PUSH1 0xA0 SHL SUB AND SWAP1 PUSH4 0x70A08231 SWAP1 PUSH1 0x24 ADD PUSH1 0x20 PUSH1 0x40 MLOAD DUP1 DUP4 SUB DUP2 DUP7 GAS STATICCALL ISZERO DUP1 ISZERO PUSH2 0x4D4 JUMPI RETURNDATASIZE PUSH1 0x0 DUP1 RETURNDATACOPY RETURNDATASIZE PUSH1 0x0 REVERT JUMPDEST POP POP POP POP PUSH1 0x40 MLOAD RETURNDATASIZE PUSH1 0x1F NOT PUSH1 0x1F DUP3 ADD AND DUP3 ADD DUP1 PUSH1 0x40 MSTORE POP DUP2 ADD SWAP1 PUSH2 0x4F8 SWAP2 SWAP1 PUSH2 0x16E6 JUMP JUMPDEST LT ISZERO PUSH2 0x517 JUMPI PUSH1 0x40 MLOAD PUSH4 0x28B35F21 PUSH1 0xE0 SHL DUP2 MSTORE PUSH1 0x4 ADD PUSH1 0x40 MLOAD DUP1 SWAP2 SUB SWAP1 REVERT JUMPDEST DUP2 PUSH1 0x4 PUSH1 0x0 DUP3 DUP3 SLOAD PUSH2 0x529 SWAP2 SWAP1 PUSH2 0x169A JUMP JUMPDEST SWAP3 POP POP DUP2 SWAP1 SSTORE POP DUP1 PUSH1 0x5 PUSH1 0x0 DUP3 DUP3 SLOAD PUSH2 0x542 SWAP2 SWAP1 PUSH2 0x16FF JUMP JUMPDEST SWAP1 SWAP2 SSTORE POP PUSH2 0x57C SWAP1 POP PUSH1 0x1 PUSH1 0x1 PUSH1 0xA0 SHL SUB PUSH32 0x0 AND CALLER DUP4 PUSH2 0x147F JUMP JUMPDEST PUSH1 0x0 DUP1 PUSH1 0x5 SLOAD GT PUSH2 0x58E JUMPI PUSH1 0x0 PUSH2 0x5B0 JUMP JUMPDEST PUSH1 0x5 SLOAD PUSH1 0x4 SLOAD PUSH2 0x5A6 SWAP1 PUSH8 0xDE0B6B3A7640000 PUSH2 0x16AD JUMP JUMPDEST PUSH2 0x5B0 SWAP2 SWAP1 PUSH2 0x16C4 JUMP JUMPDEST SWAP1 POP DUP3 PUSH1 0x6 PUSH1 0x0 DUP3 DUP3 SLOAD PUSH2 0x5C4 SWAP2 SWAP1 PUSH2 0x169A JUMP JUMPDEST SWAP1 SWAP2 SSTORE POP POP PUSH1 0x7 DUP1 SLOAD SWAP1 PUSH1 0x0 PUSH2 0x5D9 DUP4 PUSH2 0x1712 JUMP JUMPDEST SWAP1 SWAP2 SSTORE POP POP PUSH1 0x40 DUP1 MLOAD DUP5 DUP2 MSTORE PUSH1 0x20 DUP2 ADD DUP5 SWAP1 MSTORE PUSH32 0x3D53FFD94E6169FE8616AEF06A81EBA2335FF27EAC4A60886AD869B22C4F347B SWAP2 ADD PUSH1 0x40 MLOAD DUP1 SWAP2 SUB SWAP1 LOG1 PUSH1 0x40 MLOAD DUP2 DUP2 MSTORE PUSH1 0x0 DUP1 MLOAD PUSH1 0x20 PUSH2 0x172C DUP4 CODECOPY DUP2 MLOAD SWAP2 MSTORE SWAP1 PUSH1 0x20 ADD PUSH1 0x40 MLOAD DUP1 SWAP2 SUB SWAP1 LOG1 POP PUSH2 0x650 PUSH1 0x1 PUSH1 0x0 DUP1 MLOAD PUSH1 0x20 PUSH2 0x174C DUP4 CODECOPY DUP2 MLOAD SWAP2 MSTORE SSTORE JUMP JUMPDEST SWAP2 SWAP1 POP JUMP JUMPDEST PUSH1 0x0 PUSH2 0x65F PUSH2 0x1422 JUMP JUMPDEST DUP3 PUSH1 0x0 SUB PUSH2 0x680 JUMPI PUSH1 0x40 MLOAD PUSH4 0x1F2A2005 PUSH1 0xE0 SHL DUP2 MSTORE PUSH1 0x4 ADD PUSH1 0x40 MLOAD DUP1 SWAP2 SUB SWAP1 REVERT JUMPDEST PUSH1 0x4 SLOAD ISZERO DUP1 PUSH2 0x68F JUMPI POP PUSH1 0x5 SLOAD ISZERO JUMPDEST ISZERO PUSH2 0x6AD JUMPI PUSH1 0x40 MLOAD PUSH4 0x28B35F21 PUSH1 0xE0 SHL DUP2 MSTORE PUSH1 0x4 ADD PUSH1 0x40 MLOAD DUP1 SWAP2 SUB SWAP1 REVERT JUMPDEST PUSH1 0x40 MLOAD PUSH4 0x70A08231 PUSH1 0xE0 SHL DUP2 MSTORE ADDRESS PUSH1 0x4 DUP3 ADD MSTORE PUSH1 0x0 SWAP1 PUSH32 0x0 PUSH1 0x1 PUSH1 0x1 PUSH1 0xA0 SHL SUB AND SWAP1 PUSH4 0x70A08231 SWAP1 PUSH1 0x24 ADD PUSH1 0x20 PUSH1 0x40 MLOAD DUP1 DUP4 SUB DUP2 DUP7 GAS STATICCALL ISZERO DUP1 ISZERO PUSH2 0x714 JUMPI RETURNDATASIZE PUSH1 0x0 DUP1 RETURNDATACOPY RETURNDATASIZE PUSH1 0x0 REVERT JUMPDEST POP POP POP POP PUSH1 0x40 MLOAD RETURNDATASIZE PUSH1 0x1F NOT PUSH1 0x1F DUP3 ADD AND DUP3 ADD DUP1 PUSH1 0x40 MSTORE POP DUP2 ADD SWAP1 PUSH2 0x738 SWAP2 SWAP1 PUSH2 0x16E6 JUMP JUMPDEST SWAP1 POP PUSH2 0x76F PUSH1 0x1 PUSH1 0x1 PUSH1 0xA0 SHL SUB PUSH32 0x0 AND CALLER ADDRESS DUP8 PUSH2 0x143E JUMP JUMPDEST PUSH1 0x40 MLOAD PUSH4 0x70A08231 PUSH1 0xE0 SHL DUP2 MSTORE ADDRESS PUSH1 0x4 DUP3 ADD MSTORE PUSH1 0x0 SWAP1 DUP3 SWAP1 PUSH1 0x1 PUSH1 0x1 PUSH1 0xA0 SHL SUB PUSH32 0x0 AND SWAP1 PUSH4 0x70A08231 SWAP1 PUSH1 0x24 ADD PUSH1 0x20 PUSH1 0x40 MLOAD DUP1 DUP4 SUB DUP2 DUP7 GAS STATICCALL ISZERO DUP1 ISZERO PUSH2 0x7D8 JUMPI RETURNDATASIZE PUSH1 0x0 DUP1 RETURNDATACOPY RETURNDATASIZE PUSH1 0x0 REVERT JUMPDEST POP POP POP POP PUSH1 0x40 MLOAD RETURNDATASIZE PUSH1 0x1F NOT PUSH1 0x1F DUP3 ADD AND DUP3 ADD DUP1 PUSH1 0x40 MSTORE POP DUP2 ADD SWAP1 PUSH2 0x7FC SWAP2 SWAP1 PUSH2 0x16E6 JUMP JUMPDEST PUSH2 0x806 SWAP2 SWAP1 PUSH2 0x16FF JUMP JUMPDEST SWAP1 POP DUP5 PUSH1 0x5 SLOAD PUSH2 0x816 SWAP2 SWAP1 PUSH2 0x169A JUMP JUMPDEST PUSH1 0x4 SLOAD PUSH2 0x823 SWAP1 DUP8 PUSH2 0x16AD JUMP JUMPDEST PUSH2 0x82D SWAP2 SWAP1 PUSH2 0x16C4 JUMP JUMPDEST SWAP3 POP DUP3 ISZERO DUP1 PUSH2 0x83B JUMPI POP DUP4 DUP4 LT JUMPDEST ISZERO PUSH2 0x859 JUMPI PUSH1 0x40 MLOAD PUSH4 0x8199F5F3 PUSH1 0xE0 SHL DUP2 MSTORE PUSH1 0x4 ADD PUSH1 0x40 MLOAD DUP1 SWAP2 SUB SWAP1 REVERT JUMPDEST PUSH1 0x4 SLOAD DUP4 GT ISZERO PUSH2 0x87C JUMPI PUSH1 0x40 MLOAD PUSH4 0x28B35F21 PUSH1 0xE0 SHL DUP2 MSTORE PUSH1 0x4 ADD PUSH1 0x40 MLOAD DUP1 SWAP2 SUB SWAP1 REVERT JUMPDEST DUP3 PUSH1 0x4 PUSH1 0x0 DUP3 DUP3 SLOAD PUSH2 0x88E SWAP2 SWAP1 PUSH2 0x16FF JUMP JUMPDEST SWAP3 POP POP DUP2 SWAP1 SSTORE POP DUP1 PUSH1 0x5 PUSH1 0x0 DUP3 DUP3 SLOAD PUSH2 0x8A7 SWAP2 SWAP1 PUSH2 0x169A JUMP JUMPDEST SWAP1 SWAP2 SSTORE POP PUSH2 0x8E1 SWAP1 POP PUSH1 0x1 PUSH1 0x1 PUSH1 0xA0 SHL SUB PUSH32 0x0 AND CALLER DUP6 PUSH2 0x147F JUMP JUMPDEST DUP3 PUSH1 0x6 PUSH1 0x0 DUP3 DUP3 SLOAD PUSH2 0x8F3 SWAP2 SWAP1 PUSH2 0x169A JUMP JUMPDEST SWAP1 SWAP2 SSTORE POP POP PUSH1 0x7 DUP1 SLOAD SWAP1 PUSH1 0x0 PUSH2 0x908 DUP4 PUSH2 0x1712 JUMP JUMPDEST SWAP2 SWAP1 POP SSTORE POP PUSH1 0x0 DUP1 PUSH1 0x5 SLOAD GT PUSH2 0x91F JUMPI PUSH1 0x0 PUSH2 0x941 JUMP JUMPDEST PUSH1 0x5 SLOAD PUSH1 0x4 SLOAD PUSH2 0x937 SWAP1 PUSH8 0xDE0B6B3A7640000 PUSH2 0x16AD JUMP JUMPDEST PUSH2 0x941 SWAP2 SWAP1 PUSH2 0x16C4 JUMP JUMPDEST PUSH1 0x40 DUP1 MLOAD PUSH1 0x0 DUP2 MSTORE PUSH1 0x20 DUP2 ADD DUP10 SWAP1 MSTORE SWAP1 DUP2 ADD DUP7 SWAP1 MSTORE PUSH1 0x60 DUP2 ADD DUP3 SWAP1 MSTORE SWAP1 SWAP2 POP CALLER SWAP1 PUSH32 0x7C707038FB62CB248EC6B437A63EC556BB6233AF235F4518D64693CBA918A6E1 SWAP1 PUSH1 0x80 ADD PUSH1 0x40 MLOAD DUP1 SWAP2 SUB SWAP1 LOG2 PUSH1 0x40 MLOAD DUP2 DUP2 MSTORE PUSH1 0x0 DUP1 MLOAD PUSH1 0x20 PUSH2 0x172C DUP4 CODECOPY DUP2 MLOAD SWAP2 MSTORE SWAP1 PUSH1 0x20 ADD PUSH1 0x40 MLOAD DUP1 SWAP2 SUB SWAP1 LOG1 POP POP POP PUSH2 0x9CA PUSH1 0x1 PUSH1 0x0 DUP1 MLOAD PUSH1 0x20 PUSH2 0x174C DUP4 CODECOPY DUP2 MLOAD SWAP2 MSTORE SSTORE JUMP JUMPDEST SWAP3 SWAP2 POP POP JUMP JUMPDEST PUSH1 0x3 SLOAD PUSH1 0x1 PUSH1 0x1 PUSH1 0xA0 SHL SUB AND CALLER EQ PUSH2 0x9FB JUMPI PUSH1 0x40 MLOAD PUSH4 0x559B36F PUSH1 0xE1 SHL DUP2 MSTORE PUSH1 0x4 ADD PUSH1 0x40 MLOAD DUP1 SWAP2 SUB SWAP1 REVERT JUMPDEST DUP1 PUSH1 0x0 SUB PUSH2 0xA1C JUMPI PUSH1 0x40 MLOAD PUSH4 0x1F2A2005 PUSH1 0xE0 SHL DUP2 MSTORE PUSH1 0x4 ADD PUSH1 0x40 MLOAD DUP1 SWAP2 SUB SWAP1 REVERT JUMPDEST PUSH2 0xA51 PUSH1 0x1 PUSH1 0x1 PUSH1 0xA0 SHL SUB PUSH32 0x0 AND CALLER ADDRESS DUP5 PUSH2 0x143E JUMP JUMPDEST DUP1 PUSH1 0x5 PUSH1 0x0 DUP3 DUP3 SLOAD PUSH2 0xA63 SWAP2 SWAP1 PUSH2 0x169A JUMP JUMPDEST SWAP1 SWAP2 SSTORE POP POP POP JUMP JUMPDEST PUSH1 0x0 DUP2 ISZERO DUP1 PUSH2 0xA7A JUMPI POP PUSH1 0x4 SLOAD ISZERO JUMPDEST DUP1 PUSH2 0xA85 JUMPI POP PUSH1 0x5 SLOAD ISZERO JUMPDEST ISZERO PUSH2 0xA92 JUMPI POP PUSH1 0x0 SWAP2 SWAP1 POP JUMP JUMPDEST DUP2 PUSH1 0x4 SLOAD PUSH2 0xAA0 SWAP2 SWAP1 PUSH2 0x169A JUMP JUMPDEST PUSH1 0x5 SLOAD PUSH2 0xAAD SWAP1 DUP5 PUSH2 0x16AD JUMP JUMPDEST PUSH2 0x9CA SWAP2 SWAP1 PUSH2 0x16C4 JUMP JUMPDEST PUSH1 0x0 SLOAD PUSH1 0x1 PUSH1 0x1 PUSH1 0xA0 SHL SUB AND CALLER EQ PUSH2 0xAE2 JUMPI PUSH1 0x40 MLOAD PUSH4 0x47556579 PUSH1 0xE0 SHL DUP2 MSTORE PUSH1 0x4 ADD PUSH1 0x40 MLOAD DUP1 SWAP2 SUB SWAP1 REVERT JUMPDEST PUSH1 0x3 SLOAD PUSH1 0x1 PUSH1 0xA0 SHL SWAP1 DIV PUSH1 0xFF AND ISZERO PUSH2 0xB0D JUMPI PUSH1 0x40 MLOAD PUSH4 0x238F75D3 PUSH1 0xE0 SHL DUP2 MSTORE PUSH1 0x4 ADD PUSH1 0x40 MLOAD DUP1 SWAP2 SUB SWAP1 REVERT JUMPDEST PUSH1 0x1 DUP1 SLOAD PUSH1 0x1 PUSH1 0x1 PUSH1 0xA0 SHL SUB SWAP5 DUP6 AND PUSH1 0x1 PUSH1 0x1 PUSH1 0xA0 SHL SUB NOT SWAP2 DUP3 AND OR SWAP1 SWAP2 SSTORE PUSH1 0x2 DUP1 SLOAD SWAP4 DUP6 AND SWAP4 SWAP1 SWAP2 AND SWAP3 SWAP1 SWAP3 OR SWAP1 SWAP2 SSTORE PUSH1 0x3 DUP1 SLOAD PUSH1 0x1 PUSH1 0x1 PUSH1 0xA8 SHL SUB NOT AND SWAP2 SWAP1 SWAP3 AND OR PUSH1 0x1 PUSH1 0xA0 SHL OR SWAP1 SSTORE JUMP JUMPDEST PUSH1 0x0 SLOAD PUSH1 0x1 PUSH1 0x1 PUSH1 0xA0 SHL SUB AND CALLER EQ PUSH2 0xB86 JUMPI PUSH1 0x40 MLOAD PUSH4 0x47556579 PUSH1 0xE0 SHL DUP2 MSTORE PUSH1 0x4 ADD PUSH1 0x40 MLOAD DUP1 SWAP2 SUB SWAP1 REVERT JUMPDEST PUSH1 0x3 SLOAD PUSH1 0x1 PUSH1 0xA0 SHL SWAP1 DIV PUSH1 0xFF AND ISZERO PUSH2 0xBB1 JUMPI PUSH1 0x40 MLOAD PUSH4 0x238F75D3 PUSH1 0xE0 SHL DUP2 MSTORE PUSH1 0x4 ADD PUSH1 0x40 MLOAD DUP1 SWAP2 SUB SWAP1 REVERT JUMPDEST PUSH1 0x3 DUP1 SLOAD PUSH1 0xFF PUSH1 0xA0 SHL NOT AND PUSH1 0x1 PUSH1 0xA0 SHL OR SWAP1 SSTORE PUSH1 0x0 DUP1 SLOAD PUSH1 0x1 PUSH1 0x1 PUSH1 0xA0 SHL SUB NOT AND SWAP1 SSTORE JUMP JUMPDEST PUSH1 0x0 PUSH1 0x5 SLOAD PUSH1 0x0 EQ DUP1 PUSH2 0xBE9 JUMPI POP PUSH1 0x4 SLOAD ISZERO JUMPDEST ISZERO PUSH2 0xBF4 JUMPI POP PUSH1 0x0 SWAP1 JUMP JUMPDEST PUSH1 0x5 SLOAD PUSH1 0x4 SLOAD PUSH2 0xC0C SWAP1 PUSH8 0xDE0B6B3A7640000 PUSH2 0x16AD JUMP JUMPDEST PUSH2 0xC16 SWAP2 SWAP1 PUSH2 0x16C4 JUMP JUMPDEST SWAP1 POP SWAP1 JUMP JUMPDEST PUSH1 0x2 SLOAD PUSH1 0x1 PUSH1 0x1 PUSH1 0xA0 SHL SUB AND CALLER EQ PUSH2 0xC46 JUMPI PUSH1 0x40 MLOAD PUSH4 0xBE5A3E1 PUSH1 0xE3 SHL DUP2 MSTORE PUSH1 0x4 ADD PUSH1 0x40 MLOAD DUP1 SWAP2 SUB SWAP1 REVERT JUMPDEST DUP2 ISZERO DUP1 PUSH2 0xC51 JUMPI POP DUP1 ISZERO JUMPDEST ISZERO PUSH2 0xC6F JUMPI PUSH1 0x40 MLOAD PUSH4 0x1F2A2005 PUSH1 0xE0 SHL DUP2 MSTORE PUSH1 0x4 ADD PUSH1 0x40 MLOAD DUP1 SWAP2 SUB SWAP1 REVERT JUMPDEST PUSH2 0xCA4 PUSH1 0x1 PUSH1 0x1 PUSH1 0xA0 SHL SUB PUSH32 0x0 AND CALLER ADDRESS DUP6 PUSH2 0x143E JUMP JUMPDEST PUSH2 0xCD9 PUSH1 0x1 PUSH1 0x1 PUSH1 0xA0 SHL SUB PUSH32 0x0 AND CALLER ADDRESS DUP5 PUSH2 0x143E JUMP JUMPDEST DUP2 PUSH1 0x4 PUSH1 0x0 DUP3 DUP3 SLOAD PUSH2 0xCEB SWAP2 SWAP1 PUSH2 0x169A JUMP JUMPDEST SWAP3 POP POP DUP2 SWAP1 SSTORE POP DUP1 PUSH1 0x5 PUSH1 0x0 DUP3 DUP3 SLOAD PUSH2 0xD04 SWAP2 SWAP1 PUSH2 0x169A JUMP JUMPDEST SWAP1 SWAP2 SSTORE POP DUP2 SWAP1 POP PUSH2 0xD1D DUP4 PUSH8 0xDE0B6B3A7640000 PUSH2 0x16AD JUMP JUMPDEST PUSH2 0xD27 SWAP2 SWAP1 PUSH2 0x16C4 JUMP JUMPDEST PUSH1 0x8 SSTORE PUSH1 0x40 DUP1 MLOAD DUP4 DUP2 MSTORE PUSH1 0x20 DUP2 ADD DUP4 SWAP1 MSTORE PUSH32 0x9C86429231ED0411E3112A1DD5C6578826C2D48089D5EC491E874CE0029C0BBE SWAP2 ADD PUSH1 0x40 MLOAD DUP1 SWAP2 SUB SWAP1 LOG1 PUSH1 0x0 DUP1 MLOAD PUSH1 0x20 PUSH2 0x172C DUP4 CODECOPY DUP2 MLOAD SWAP2 MSTORE PUSH1 0x8 SLOAD PUSH1 0x40 MLOAD PUSH2 0xD84 SWAP2 DUP2 MSTORE PUSH1 0x20 ADD SWAP1 JUMP JUMPDEST PUSH1 0x40 MLOAD DUP1 SWAP2 SUB SWAP1 LOG1 POP POP JUMP JUMPDEST PUSH1 0x0 DUP2 ISZERO DUP1 PUSH2 0xD9F JUMPI POP PUSH1 0x4 SLOAD ISZERO JUMPDEST DUP1 PUSH2 0xDAA JUMPI POP PUSH1 0x5 SLOAD ISZERO JUMPDEST ISZERO PUSH2 0xDB7 JUMPI POP PUSH1 0x0 SWAP2 SWAP1 POP JUMP JUMPDEST PUSH1 0x0 DUP3 PUSH1 0x5 SLOAD PUSH2 0xDC7 SWAP2 SWAP1 PUSH2 0x169A JUMP JUMPDEST PUSH1 0x4 SLOAD PUSH2 0xDD4 SWAP1 DUP6 PUSH2 0x16AD JUMP JUMPDEST PUSH2 0xDDE SWAP2 SWAP1 PUSH2 0x16C4 JUMP JUMPDEST SWAP1 POP PUSH1 0x4 SLOAD DUP2 GT ISZERO PUSH2 0x9CA JUMPI POP PUSH1 0x0 SWAP3 SWAP2 POP POP JUMP JUMPDEST PUSH1 0x0 PUSH2 0xDFD PUSH2 0x1422 JUMP JUMPDEST DUP3 PUSH1 0x0 SUB PUSH2 0xE1E JUMPI PUSH1 0x40 MLOAD PUSH4 0x1F2A2005 PUSH1 0xE0 SHL DUP2 MSTORE PUSH1 0x4 ADD PUSH1 0x40 MLOAD DUP1 SWAP2 SUB SWAP1 REVERT JUMPDEST PUSH1 0x4 SLOAD ISZERO DUP1 PUSH2 0xE2D JUMPI POP PUSH1 0x5 SLOAD ISZERO JUMPDEST ISZERO PUSH2 0xE4B JUMPI PUSH1 0x40 MLOAD PUSH4 0x28B35F21 PUSH1 0xE0 SHL DUP2 MSTORE PUSH1 0x4 ADD PUSH1 0x40 MLOAD DUP1 SWAP2 SUB SWAP1 REVERT JUMPDEST DUP3 PUSH1 0x4 SLOAD PUSH2 0xE59 SWAP2 SWAP1 PUSH2 0x169A JUMP JUMPDEST PUSH1 0x5 SLOAD PUSH2 0xE66 SWAP1 DUP6 PUSH2 0x16AD JUMP JUMPDEST PUSH2 0xE70 SWAP2 SWAP1 PUSH2 0x16C4 JUMP JUMPDEST SWAP1 POP DUP1 ISZERO DUP1 PUSH2 0xE7E JUMPI POP DUP2 DUP2 LT JUMPDEST ISZERO PUSH2 0xE9C JUMPI PUSH1 0x40 MLOAD PUSH4 0x8199F5F3 PUSH1 0xE0 SHL DUP2 MSTORE PUSH1 0x4 ADD PUSH1 0x40 MLOAD DUP1 SWAP2 SUB SWAP1 REVERT JUMPDEST PUSH2 0xED1 PUSH1 0x1 PUSH1 0x1 PUSH1 0xA0 SHL SUB PUSH32 0x0 AND CALLER ADDRESS DUP7 PUSH2 0x143E JUMP JUMPDEST PUSH2 0xF05 PUSH1 0x1 PUSH1 0x1 PUSH1 0xA0 SHL SUB PUSH32 0x0 AND CALLER DUP4 PUSH2 0x147F JUMP JUMPDEST DUP3 PUSH1 0x4 PUSH1 0x0 DUP3 DUP3 SLOAD PUSH2 0xF17 SWAP2 SWAP1 PUSH2 0x169A JUMP JUMPDEST SWAP3 POP POP DUP2 SWAP1 SSTORE POP DUP1 PUSH1 0x5 PUSH1 0x0 DUP3 DUP3 SLOAD PUSH2 0xF30 SWAP2 SWAP1 PUSH2 0x16FF JUMP JUMPDEST SWAP3 POP POP DUP2 SWAP1 SSTORE POP DUP3 PUSH1 0x6 PUSH1 0x0 DUP3 DUP3 SLOAD PUSH2 0xF49 SWAP2 SWAP1 PUSH2 0x169A JUMP JUMPDEST SWAP1 SWAP2 SSTORE POP POP PUSH1 0x7 DUP1 SLOAD SWAP1 PUSH1 0x0 PUSH2 0xF5E DUP4 PUSH2 0x1712 JUMP JUMPDEST SWAP2 SWAP1 POP SSTORE POP PUSH1 0x0 DUP1 PUSH1 0x5 SLOAD GT PUSH2 0xF75 JUMPI PUSH1 0x0 PUSH2 0xF97 JUMP JUMPDEST PUSH1 0x5 SLOAD PUSH1 0x4 SLOAD PUSH2 0xF8D SWAP1 PUSH8 0xDE0B6B3A7640000 PUSH2 0x16AD JUMP JUMPDEST PUSH2 0xF97 SWAP2 SWAP1 PUSH2 0x16C4 JUMP JUMPDEST PUSH1 0x40 DUP1 MLOAD PUSH1 0x1 DUP2 MSTORE PUSH1 0x20 DUP2 ADD DUP8 SWAP1 MSTORE SWAP1 DUP2 ADD DUP5 SWAP1 MSTORE PUSH1 0x60 DUP2 ADD DUP3 SWAP1 MSTORE SWAP1 SWAP2 POP CALLER SWAP1 PUSH32 0x7C707038FB62CB248EC6B437A63EC556BB6233AF235F4518D64693CBA918A6E1 SWAP1 PUSH1 0x80 ADD PUSH1 0x40 MLOAD DUP1 SWAP2 SUB SWAP1 LOG2 PUSH1 0x40 MLOAD DUP2 DUP2 MSTORE PUSH1 0x0 DUP1 MLOAD PUSH1 0x20 PUSH2 0x172C DUP4 CODECOPY DUP2 MLOAD SWAP2 MSTORE SWAP1 PUSH1 0x20 ADD JUMPDEST PUSH1 0x40 MLOAD DUP1 SWAP2 SUB SWAP1 LOG1 POP PUSH2 0x9CA PUSH1 0x1 PUSH1 0x0 DUP1 MLOAD PUSH1 0x20 PUSH2 0x174C DUP4 CODECOPY DUP2 MLOAD SWAP2 MSTORE SSTORE JUMP JUMPDEST PUSH1 0x2 SLOAD PUSH1 0x1 PUSH1 0x1 PUSH1 0xA0 SHL SUB AND CALLER EQ PUSH2 0x104A JUMPI PUSH1 0x40 MLOAD PUSH4 0xBE5A3E1 PUSH1 0xE3 SHL DUP2 MSTORE PUSH1 0x4 ADD PUSH1 0x40 MLOAD DUP1 SWAP2 SUB SWAP1 REVERT JUMPDEST DUP1 PUSH1 0x0 SUB PUSH2 0x106B JUMPI PUSH1 0x40 MLOAD PUSH4 0x1F2A2005 PUSH1 0xE0 SHL DUP2 MSTORE PUSH1 0x4 ADD PUSH1 0x40 MLOAD DUP1 SWAP2 SUB SWAP1 REVERT JUMPDEST PUSH2 0x10A0 PUSH1 0x1 PUSH1 0x1 PUSH1 0xA0 SHL SUB PUSH32 0x0 AND CALLER ADDRESS DUP5 PUSH2 0x143E JUMP JUMPDEST DUP1 PUSH1 0x4 PUSH1 0x0 DUP3 DUP3 SLOAD PUSH2 0x10B2 SWAP2 SWAP1 PUSH2 0x169A JUMP JUMPDEST SWAP3 POP POP DUP2 SWAP1 SSTORE POP PUSH1 0x0 PUSH32 0x0 PUSH1 0x1 PUSH1 0x1 PUSH1 0xA0 SHL SUB AND PUSH4 0x18160DDD PUSH1 0x40 MLOAD DUP2 PUSH4 0xFFFFFFFF AND PUSH1 0xE0 SHL DUP2 MSTORE PUSH1 0x4 ADD PUSH1 0x20 PUSH1 0x40 MLOAD DUP1 DUP4 SUB DUP2 DUP7 GAS STATICCALL ISZERO DUP1 ISZERO PUSH2 0x1119 JUMPI RETURNDATASIZE PUSH1 0x0 DUP1 RETURNDATACOPY RETURNDATASIZE PUSH1 0x0 REVERT JUMPDEST POP POP POP POP PUSH1 0x40 MLOAD RETURNDATASIZE PUSH1 0x1F NOT PUSH1 0x1F DUP3 ADD AND DUP3 ADD DUP1 PUSH1 0x40 MSTORE POP DUP2 ADD SWAP1 PUSH2 0x113D SWAP2 SWAP1 PUSH2 0x16E6 JUMP JUMPDEST PUSH1 0x4 SLOAD PUSH2 0x1152 SWAP1 PUSH8 0xDE0B6B3A7640000 PUSH2 0x16AD JUMP JUMPDEST PUSH2 0x115C SWAP2 SWAP1 PUSH2 0x16C4 JUMP JUMPDEST PUSH1 0x40 DUP1 MLOAD DUP5 DUP2 MSTORE PUSH1 0x0 PUSH1 0x20 DUP3 ADD MSTORE SWAP2 SWAP3 POP PUSH32 0x9C86429231ED0411E3112A1DD5C6578826C2D48089D5EC491E874CE0029C0BBE SWAP2 ADD PUSH1 0x40 MLOAD DUP1 SWAP2 SUB SWAP1 LOG1 PUSH1 0x40 MLOAD DUP2 DUP2 MSTORE PUSH1 0x0 DUP1 MLOAD PUSH1 0x20 PUSH2 0x172C DUP4 CODECOPY DUP2 MLOAD SWAP2 MSTORE SWAP1 PUSH1 0x20 ADD PUSH2 0xD84 JUMP JUMPDEST PUSH1 0x3 SLOAD PUSH1 0x0 SWAP1 PUSH1 0x1 PUSH1 0x1 PUSH1 0xA0 SHL SUB AND CALLER EQ PUSH2 0x11E4 JUMPI PUSH1 0x40 MLOAD PUSH4 0x559B36F PUSH1 0xE1 SHL DUP2 MSTORE PUSH1 0x4 ADD PUSH1 0x40 MLOAD DUP1 SWAP2 SUB SWAP1 REVERT JUMPDEST PUSH2 0x11EC PUSH2 0x1422 JUMP JUMPDEST DUP3 PUSH1 0x0 SUB PUSH2 0x120D JUMPI PUSH1 0x40 MLOAD PUSH4 0x1F2A2005 PUSH1 0xE0 SHL DUP2 MSTORE PUSH1 0x4 ADD PUSH1 0x40 MLOAD DUP1 SWAP2 SUB SWAP1 REVERT JUMPDEST PUSH1 0x1 PUSH1 0x1 PUSH1 0xA0 SHL SUB DUP3 AND PUSH2 0x1234 JUMPI PUSH1 0x40 MLOAD PUSH4 0xD92E233D PUSH1 0xE0 SHL DUP2 MSTORE PUSH1 0x4 ADD PUSH1 0x40 MLOAD DUP1 SWAP2 SUB SWAP1 REVERT JUMPDEST PUSH2 0x1269 PUSH1 0x1 PUSH1 0x1 PUSH1 0xA0 SHL SUB PUSH32 0x0 AND CALLER ADDRESS DUP7 PUSH2 0x143E JUMP JUMPDEST PUSH1 0x0 PUSH1 0x4 SLOAD GT DUP1 ISZERO PUSH2 0x127D JUMPI POP PUSH1 0x0 PUSH1 0x5 SLOAD GT JUMPDEST ISZERO PUSH2 0x12AE JUMPI DUP3 PUSH1 0x5 SLOAD PUSH2 0x1290 SWAP2 SWAP1 PUSH2 0x169A JUMP JUMPDEST PUSH1 0x4 SLOAD PUSH2 0x129D SWAP1 DUP6 PUSH2 0x16AD JUMP JUMPDEST PUSH2 0x12A7 SWAP2 SWAP1 PUSH2 0x16C4 JUMP JUMPDEST SWAP1 POP PUSH2 0x12B1 JUMP JUMPDEST POP DUP2 JUMPDEST DUP1 PUSH1 0x0 SUB PUSH2 0x12D2 JUMPI PUSH1 0x40 MLOAD PUSH4 0x1F2A2005 PUSH1 0xE0 SHL DUP2 MSTORE PUSH1 0x4 ADD PUSH1 0x40 MLOAD DUP1 SWAP2 SUB SWAP1 REVERT JUMPDEST PUSH1 0x4 SLOAD DUP2 GT ISZERO PUSH2 0x12F5 JUMPI PUSH1 0x40 MLOAD PUSH4 0x28B35F21 PUSH1 0xE0 SHL DUP2 MSTORE PUSH1 0x4 ADD PUSH1 0x40 MLOAD DUP1 SWAP2 SUB SWAP1 REVERT JUMPDEST DUP3 PUSH1 0x5 PUSH1 0x0 DUP3 DUP3 SLOAD PUSH2 0x1307 SWAP2 SWAP1 PUSH2 0x169A JUMP JUMPDEST SWAP3 POP POP DUP2 SWAP1 SSTORE POP DUP1 PUSH1 0x4 PUSH1 0x0 DUP3 DUP3 SLOAD PUSH2 0x1320 SWAP2 SWAP1 PUSH2 0x16FF JUMP JUMPDEST SWAP1 SWAP2 SSTORE POP PUSH2 0x135A SWAP1 POP PUSH1 0x1 PUSH1 0x1 PUSH1 0xA0 SHL SUB PUSH32 0x0 AND DUP4 DUP4 PUSH2 0x147F JUMP JUMPDEST PUSH1 0x0 DUP1 PUSH1 0x5 SLOAD GT PUSH2 0x136C JUMPI PUSH1 0x0 PUSH2 0x138E JUMP JUMPDEST PUSH1 0x5 SLOAD PUSH1 0x4 SLOAD PUSH2 0x1384 SWAP1 PUSH8 0xDE0B6B3A7640000 PUSH2 0x16AD JUMP JUMPDEST PUSH2 0x138E SWAP2 SWAP1 PUSH2 0x16C4 JUMP JUMPDEST SWAP1 POP DUP2 PUSH1 0x6 PUSH1 0x0 DUP3 DUP3 SLOAD PUSH2 0x13A2 SWAP2 SWAP1 PUSH2 0x169A JUMP JUMPDEST SWAP1 SWAP2 SSTORE POP POP PUSH1 0x7 DUP1 SLOAD SWAP1 PUSH1 0x0 PUSH2 0x13B7 DUP4 PUSH2 0x1712 JUMP JUMPDEST SWAP1 SWAP2 SSTORE POP POP PUSH1 0x40 DUP1 MLOAD DUP6 DUP2 MSTORE PUSH1 0x20 DUP2 ADD DUP5 SWAP1 MSTORE PUSH1 0x1 PUSH1 0x1 PUSH1 0xA0 SHL SUB DUP6 AND DUP2 DUP4 ADD MSTORE SWAP1 MLOAD PUSH32 0x1408158D52D7D739E0848C588738E9B79917E2773E51C49FF4544E3E6A538F8C SWAP2 DUP2 SWAP1 SUB PUSH1 0x60 ADD SWAP1 LOG1 PUSH1 0x40 MLOAD DUP2 DUP2 MSTORE PUSH1 0x0 DUP1 MLOAD PUSH1 0x20 PUSH2 0x172C DUP4 CODECOPY DUP2 MLOAD SWAP2 MSTORE SWAP1 PUSH1 0x20 ADD PUSH2 0xFFF JUMP JUMPDEST PUSH2 0x142A PUSH2 0x14B9 JUMP JUMPDEST PUSH1 0x2 PUSH1 0x0 DUP1 MLOAD PUSH1 0x20 PUSH2 0x174C DUP4 CODECOPY DUP2 MLOAD SWAP2 MSTORE SSTORE JUMP JUMPDEST PUSH2 0x144C DUP5 DUP5 DUP5 DUP5 PUSH1 0x1 PUSH2 0x14EB JUMP JUMPDEST PUSH2 0x1479 JUMPI PUSH1 0x40 MLOAD PUSH4 0x5274AFE7 PUSH1 0xE0 SHL DUP2 MSTORE PUSH1 0x1 PUSH1 0x1 PUSH1 0xA0 SHL SUB DUP6 AND PUSH1 0x4 DUP3 ADD MSTORE PUSH1 0x24 ADD JUMPDEST PUSH1 0x40 MLOAD DUP1 SWAP2 SUB SWAP1 REVERT JUMPDEST POP POP POP POP JUMP JUMPDEST PUSH2 0x148C DUP4 DUP4 DUP4 PUSH1 0x1 PUSH2 0x155D JUMP JUMPDEST PUSH2 0x14B4 JUMPI PUSH1 0x40 MLOAD PUSH4 0x5274AFE7 PUSH1 0xE0 SHL DUP2 MSTORE PUSH1 0x1 PUSH1 0x1 PUSH1 0xA0 SHL SUB DUP5 AND PUSH1 0x4 DUP3 ADD MSTORE PUSH1 0x24 ADD PUSH2 0x1470 JUMP JUMPDEST POP POP POP JUMP JUMPDEST PUSH1 0x0 DUP1 MLOAD PUSH1 0x20 PUSH2 0x174C DUP4 CODECOPY DUP2 MLOAD SWAP2 MSTORE SLOAD PUSH1 0x2 SUB PUSH2 0x14E9 JUMPI PUSH1 0x40 MLOAD PUSH4 0x3EE5AEB5 PUSH1 0xE0 SHL DUP2 MSTORE PUSH1 0x4 ADD PUSH1 0x40 MLOAD DUP1 SWAP2 SUB SWAP1 REVERT JUMPDEST JUMP JUMPDEST PUSH1 0x40 MLOAD PUSH4 0x23B872DD PUSH1 0xE0 SHL PUSH1 0x0 DUP2 DUP2 MSTORE PUSH1 0x1 PUSH1 0x1 PUSH1 0xA0 SHL SUB DUP8 DUP2 AND PUSH1 0x4 MSTORE DUP7 AND PUSH1 0x24 MSTORE PUSH1 0x44 DUP6 SWAP1 MSTORE SWAP2 PUSH1 0x20 DUP4 PUSH1 0x64 DUP2 DUP1 DUP13 GAS CALL SWAP3 POP PUSH1 0x1 PUSH1 0x0 MLOAD EQ DUP4 AND PUSH2 0x154B JUMPI DUP4 DUP4 ISZERO AND ISZERO PUSH2 0x153E JUMPI RETURNDATASIZE PUSH1 0x0 DUP3 RETURNDATACOPY RETURNDATASIZE DUP2 REVERT JUMPDEST PUSH1 0x0 DUP9 EXTCODESIZE GT RETURNDATASIZE ISZERO AND DUP4 AND SWAP3 POP JUMPDEST PUSH1 0x40 MSTORE POP PUSH1 0x0 PUSH1 0x60 MSTORE SWAP6 SWAP5 POP POP POP POP POP JUMP JUMPDEST PUSH1 0x40 MLOAD PUSH4 0xA9059CBB PUSH1 0xE0 SHL PUSH1 0x0 DUP2 DUP2 MSTORE PUSH1 0x1 PUSH1 0x1 PUSH1 0xA0 SHL SUB DUP7 AND PUSH1 0x4 MSTORE PUSH1 0x24 DUP6 SWAP1 MSTORE SWAP2 PUSH1 0x20 DUP4 PUSH1 0x44 DUP2 DUP1 DUP12 GAS CALL SWAP3 POP PUSH1 0x1 PUSH1 0x0 MLOAD EQ DUP4 AND PUSH2 0x15B7 JUMPI DUP4 DUP4 ISZERO AND ISZERO PUSH2 0x15AA JUMPI RETURNDATASIZE PUSH1 0x0 DUP3 RETURNDATACOPY RETURNDATASIZE DUP2 REVERT JUMPDEST PUSH1 0x0 DUP8 EXTCODESIZE GT RETURNDATASIZE ISZERO AND DUP4 AND SWAP3 POP JUMPDEST PUSH1 0x40 MSTORE POP SWAP5 SWAP4 POP POP POP POP JUMP JUMPDEST PUSH1 0x0 PUSH1 0x20 DUP3 DUP5 SUB SLT ISZERO PUSH2 0x15D5 JUMPI PUSH1 0x0 DUP1 REVERT JUMPDEST POP CALLDATALOAD SWAP2 SWAP1 POP JUMP JUMPDEST PUSH1 0x0 DUP1 PUSH1 0x40 DUP4 DUP6 SUB SLT ISZERO PUSH2 0x15EF JUMPI PUSH1 0x0 DUP1 REVERT JUMPDEST POP POP DUP1 CALLDATALOAD SWAP3 PUSH1 0x20 SWAP1 SWAP2 ADD CALLDATALOAD SWAP2 POP JUMP JUMPDEST DUP1 CALLDATALOAD PUSH1 0x1 PUSH1 0x1 PUSH1 0xA0 SHL SUB DUP2 AND DUP2 EQ PUSH2 0x650 JUMPI PUSH1 0x0 DUP1 REVERT JUMPDEST PUSH1 0x0 DUP1 PUSH1 0x0 PUSH1 0x60 DUP5 DUP7 SUB SLT ISZERO PUSH2 0x162A JUMPI PUSH1 0x0 DUP1 REVERT JUMPDEST PUSH2 0x1633 DUP5 PUSH2 0x15FE JUMP JUMPDEST SWAP3 POP PUSH2 0x1641 PUSH1 0x20 DUP6 ADD PUSH2 0x15FE JUMP JUMPDEST SWAP2 POP PUSH2 0x164F PUSH1 0x40 DUP6 ADD PUSH2 0x15FE JUMP JUMPDEST SWAP1 POP SWAP3 POP SWAP3 POP SWAP3 JUMP JUMPDEST PUSH1 0x0 DUP1 PUSH1 0x40 DUP4 DUP6 SUB SLT ISZERO PUSH2 0x166B JUMPI PUSH1 0x0 DUP1 REVERT JUMPDEST DUP3 CALLDATALOAD SWAP2 POP PUSH2 0x167B PUSH1 0x20 DUP5 ADD PUSH2 0x15FE JUMP JUMPDEST SWAP1 POP SWAP3 POP SWAP3 SWAP1 POP JUMP JUMPDEST PUSH4 0x4E487B71 PUSH1 0xE0 SHL PUSH1 0x0 MSTORE PUSH1 0x11 PUSH1 0x4 MSTORE PUSH1 0x24 PUSH1 0x0 REVERT JUMPDEST DUP1 DUP3 ADD DUP1 DUP3 GT ISZERO PUSH2 0x9CA JUMPI PUSH2 0x9CA PUSH2 0x1684 JUMP JUMPDEST DUP1 DUP3 MUL DUP2 ISZERO DUP3 DUP3 DIV DUP5 EQ OR PUSH2 0x9CA JUMPI PUSH2 0x9CA PUSH2 0x1684 JUMP JUMPDEST PUSH1 0x0 DUP3 PUSH2 0x16E1 JUMPI PUSH4 0x4E487B71 PUSH1 0xE0 SHL PUSH1 0x0 MSTORE PUSH1 0x12 PUSH1 0x4 MSTORE PUSH1 0x24 PUSH1 0x0 REVERT JUMPDEST POP DIV SWAP1 JUMP JUMPDEST PUSH1 0x0 PUSH1 0x20 DUP3 DUP5 SUB SLT ISZERO PUSH2 0x16F8 JUMPI PUSH1 0x0 DUP1 REVERT JUMPDEST POP MLOAD SWAP2 SWAP1 POP JUMP JUMPDEST DUP2 DUP2 SUB DUP2 DUP2 GT ISZERO PUSH2 0x9CA JUMPI PUSH2 0x9CA PUSH2 0x1684 JUMP JUMPDEST PUSH1 0x0 PUSH1 0x1 DUP3 ADD PUSH2 0x1724 JUMPI PUSH2 0x1724 PUSH2 0x1684 JUMP JUMPDEST POP PUSH1 0x1 ADD SWAP1 JUMP INVALID PUSH7 0xCBCA4F3C64FECF SAR 0xCB SWAP13 0xE0 SWAP5 0xAB 0xCF PUSH32 0x68C3450A1D4E3A8E917DD621EDB4EBE09B779B17422D0DF92223018B32B4D1FA CHAINID 0xE0 PUSH18 0x723D6817E2486D003BECC55F00A264697066 PUSH20 0x582212204174E49BF988E127FDCEAF57F3610669 PUSH21 0x745790648FF24E3EFE700EC5FB85A664736F6C6343 STOP ADDMOD XOR STOP CALLER "},"methodIdentifiers":{"addInitialLiquidity(uint256,uint256)":"a40f4fa1","addLiquidityFromFees(uint256)":"ee3b038f","admin()":"f851a440","completeSetup()":"8aea8f71","configure(address,address,address)":"55d28f20","getOSLOForUSDTOutput(uint256)":"a7978031","getPrice()":"98d5fdca","getReserves()":"0902f1ac","getUSDTForOSLOOutput(uint256)":"47aa7ea4","investmentEngine()":"30131384","lastPrice()":"053f14da","liquidityManager()":"33827438","osloReserve()":"a1e26e7b","osloToken()":"2acfbca3","processDeposit(uint256)":"0cc2055a","processWithdrawal(uint256,address)":"f843e641","replenishOsloReserve(uint256)":"362ce52b","setupComplete()":"b6635be6","swapOSLOForUSDT(uint256,uint256)":"30cf2aeb","swapUSDTForOSLO(uint256,uint256)":"c2c90687","timelock()":"d33219b4","totalSwaps()":"b4a800ce","totalVolumeUSDT()":"83bbdd5f","usdt()":"2f48ab7d","usdtReserve()":"ac257a6e"}}}}}