{"contracts/OSLOVault.sol":{"OSLOVault":{"abi":[{"inputs":[{"internalType":"address","name":"_usdt","type":"address"},{"internalType":"address","name":"_osloToken","type":"address"},{"internalType":"uint256","name":"_launchTimestamp","type":"uint256"}],"stateMutability":"nonpayable","type":"constructor"},{"inputs":[],"name":"BelowWithdrawalThreshold","type":"error"},{"inputs":[],"name":"DEXNotPriced","type":"error"},{"inputs":[],"name":"DepositCapped","type":"error"},{"inputs":[],"name":"DepositTooHigh","type":"error"},{"inputs":[],"name":"DepositTooLow","type":"error"},{"inputs":[],"name":"DepositsPausedError","type":"error"},{"inputs":[],"name":"InsufficientOsloReserve","type":"error"},{"inputs":[],"name":"InvalidDeposit","type":"error"},{"inputs":[],"name":"InvalidExitPercentage","type":"error"},{"inputs":[],"name":"NotConfigured","type":"error"},{"inputs":[],"name":"NotInEarlyExitPeriod","type":"error"},{"inputs":[],"name":"NothingToClaim","type":"error"},{"inputs":[],"name":"OnlyAdmin","type":"error"},{"inputs":[],"name":"OnlyRankSystem","type":"error"},{"inputs":[],"name":"OnlyReferral","type":"error"},{"inputs":[],"name":"OnlyTimelock","type":"error"},{"inputs":[],"name":"ReentrancyGuardReentrantCall","type":"error"},{"inputs":[{"internalType":"address","name":"token","type":"address"}],"name":"SafeERC20FailedOperation","type":"error"},{"inputs":[],"name":"SetupAlreadyComplete","type":"error"},{"inputs":[],"name":"ZeroAddress","type":"error"},{"anonymous":false,"inputs":[{"indexed":true,"internalType":"address","name":"user","type":"address"}],"name":"CombinedCapReached","type":"event"},{"anonymous":false,"inputs":[{"indexed":true,"internalType":"address","name":"user","type":"address"},{"indexed":false,"internalType":"uint256","name":"totalCombined","type":"uint256"}],"name":"CombinedEarningsUpdated","type":"event"},{"anonymous":false,"inputs":[{"indexed":true,"internalType":"address","name":"user","type":"address"},{"indexed":false,"internalType":"uint256","name":"amount","type":"uint256"},{"indexed":false,"internalType":"uint256","name":"tier","type":"uint256"},{"indexed":false,"internalType":"uint256","name":"dailyRate","type":"uint256"},{"indexed":false,"internalType":"uint256","name":"depositIndex","type":"uint256"}],"name":"Deposited","type":"event"},{"anonymous":false,"inputs":[{"indexed":false,"internalType":"bool","name":"paused","type":"bool"}],"name":"DepositsPaused","type":"event"},{"anonymous":false,"inputs":[{"indexed":true,"internalType":"address","name":"user","type":"address"},{"indexed":false,"internalType":"uint256","name":"amountReturned","type":"uint256"},{"indexed":false,"internalType":"uint256","name":"feeDeducted","type":"uint256"},{"indexed":false,"internalType":"uint256","name":"yieldDeducted","type":"uint256"},{"indexed":false,"internalType":"uint256","name":"depositIndex","type":"uint256"}],"name":"EarlyExited","type":"event"},{"anonymous":false,"inputs":[{"indexed":true,"internalType":"address","name":"user","type":"address"},{"indexed":false,"internalType":"uint256","name":"usdtReward","type":"uint256"},{"indexed":false,"internalType":"uint256","name":"osloAmount","type":"uint256"},{"indexed":false,"internalType":"uint256","name":"depositIndex","type":"uint256"}],"name":"RewardsClaimed","type":"event"},{"inputs":[],"name":"admin","outputs":[{"internalType":"address","name":"","type":"address"}],"stateMutability":"view","type":"function"},{"inputs":[{"internalType":"uint256","name":"depositIndex","type":"uint256"}],"name":"claimRewards","outputs":[],"stateMutability":"nonpayable","type":"function"},{"inputs":[],"name":"companyWallet","outputs":[{"internalType":"address","name":"","type":"address"}],"stateMutability":"view","type":"function"},{"inputs":[],"name":"completeSetup","outputs":[],"stateMutability":"nonpayable","type":"function"},{"inputs":[{"internalType":"address","name":"_osloDex","type":"address"},{"internalType":"address","name":"_referral","type":"address"},{"internalType":"address","name":"_rankSystem","type":"address"},{"internalType":"address","name":"_timelock","type":"address"}],"name":"configure","outputs":[],"stateMutability":"nonpayable","type":"function"},{"inputs":[{"internalType":"uint256","name":"amount","type":"uint256"}],"name":"deposit","outputs":[],"stateMutability":"nonpayable","type":"function"},{"inputs":[],"name":"depositsPaused","outputs":[{"internalType":"bool","name":"","type":"bool"}],"stateMutability":"view","type":"function"},{"inputs":[{"internalType":"uint256","name":"depositIndex","type":"uint256"}],"name":"earlyExit","outputs":[],"stateMutability":"nonpayable","type":"function"},{"inputs":[{"internalType":"address","name":"user","type":"address"}],"name":"getActiveDeposit","outputs":[{"internalType":"uint256","name":"","type":"uint256"}],"stateMutability":"view","type":"function"},{"inputs":[{"internalType":"address","name":"user","type":"address"}],"name":"getCombinedEarnings","outputs":[{"internalType":"uint256","name":"","type":"uint256"}],"stateMutability":"view","type":"function"},{"inputs":[{"internalType":"address","name":"user","type":"address"}],"name":"getDepositCount","outputs":[{"internalType":"uint256","name":"","type":"uint256"}],"stateMutability":"view","type":"function"},{"inputs":[{"internalType":"address","name":"user","type":"address"},{"internalType":"uint256","name":"depositIndex","type":"uint256"}],"name":"getPendingRewards","outputs":[{"internalType":"uint256","name":"pendingUSDT","type":"uint256"}],"stateMutability":"view","type":"function"},{"inputs":[{"internalType":"address","name":"user","type":"address"}],"name":"getUserTier","outputs":[{"internalType":"uint256","name":"","type":"uint256"}],"stateMutability":"view","type":"function"},{"inputs":[{"internalType":"address","name":"user","type":"address"},{"internalType":"uint256","name":"depositIndex","type":"uint256"}],"name":"isInEarlyExitPeriod","outputs":[{"internalType":"bool","name":"","type":"bool"}],"stateMutability":"view","type":"function"},{"inputs":[],"name":"launchTimestamp","outputs":[{"internalType":"uint256","name":"","type":"uint256"}],"stateMutability":"view","type":"function"},{"inputs":[{"internalType":"address[]","name":"_users","type":"address[]"},{"internalType":"uint256[]","name":"_amounts","type":"uint256[]"}],"name":"migrateCombinedEarnings","outputs":[],"stateMutability":"nonpayable","type":"function"},{"inputs":[{"components":[{"internalType":"address","name":"owner","type":"address"},{"internalType":"uint256","name":"amount","type":"uint256"},{"internalType":"uint256","name":"tier","type":"uint256"},{"internalType":"uint256","name":"dailyRate","type":"uint256"},{"internalType":"uint256","name":"depositTime","type":"uint256"},{"internalType":"uint256","name":"lastClaimTime","type":"uint256"},{"internalType":"uint256","name":"totalClaimed","type":"uint256"},{"internalType":"uint256","name":"maxReturn","type":"uint256"}],"internalType":"struct OSLOVault.DepositMigration[]","name":"entries","type":"tuple[]"}],"name":"migrateDeposits","outputs":[],"stateMutability":"nonpayable","type":"function"},{"inputs":[],"name":"minClaimThreshold","outputs":[{"internalType":"uint256","name":"","type":"uint256"}],"stateMutability":"view","type":"function"},{"inputs":[{"internalType":"address","name":"user","type":"address"},{"internalType":"uint256","name":"amount","type":"uint256"}],"name":"notifyLevelIncome","outputs":[],"stateMutability":"nonpayable","type":"function"},{"inputs":[{"internalType":"address","name":"user","type":"address"},{"internalType":"uint256","name":"amount","type":"uint256"}],"name":"notifyRankBonus","outputs":[],"stateMutability":"nonpayable","type":"function"},{"inputs":[],"name":"osloDex","outputs":[{"internalType":"address","name":"","type":"address"}],"stateMutability":"view","type":"function"},{"inputs":[],"name":"osloToken","outputs":[{"internalType":"contract IERC20","name":"","type":"address"}],"stateMutability":"view","type":"function"},{"inputs":[{"internalType":"uint256","name":"depositIndex","type":"uint256"},{"internalType":"uint256","name":"percentageBp","type":"uint256"}],"name":"partialEarlyExit","outputs":[],"stateMutability":"nonpayable","type":"function"},{"inputs":[],"name":"performanceWallet","outputs":[{"internalType":"address","name":"","type":"address"}],"stateMutability":"view","type":"function"},{"inputs":[],"name":"rankSystem","outputs":[{"internalType":"address","name":"","type":"address"}],"stateMutability":"view","type":"function"},{"inputs":[],"name":"referral","outputs":[{"internalType":"address","name":"","type":"address"}],"stateMutability":"view","type":"function"},{"inputs":[],"name":"rewardWallet","outputs":[{"internalType":"address","name":"","type":"address"}],"stateMutability":"view","type":"function"},{"inputs":[{"internalType":"bool","name":"_paused","type":"bool"}],"name":"setDepositsPaused","outputs":[],"stateMutability":"nonpayable","type":"function"},{"inputs":[{"internalType":"uint256","name":"_threshold","type":"uint256"}],"name":"setMinClaimThreshold","outputs":[],"stateMutability":"nonpayable","type":"function"},{"inputs":[{"internalType":"address","name":"_referral","type":"address"}],"name":"setReferral","outputs":[],"stateMutability":"nonpayable","type":"function"},{"inputs":[{"internalType":"address","name":"_rewardWallet","type":"address"},{"internalType":"address","name":"_companyWallet","type":"address"},{"internalType":"address","name":"_performanceWallet","type":"address"}],"name":"setRewardWallets","outputs":[],"stateMutability":"nonpayable","type":"function"},{"inputs":[],"name":"setupComplete","outputs":[{"internalType":"bool","name":"","type":"bool"}],"stateMutability":"view","type":"function"},{"inputs":[],"name":"timelock","outputs":[{"internalType":"address","name":"","type":"address"}],"stateMutability":"view","type":"function"},{"inputs":[],"name":"totalDeposited","outputs":[{"internalType":"uint256","name":"","type":"uint256"}],"stateMutability":"view","type":"function"},{"inputs":[],"name":"totalRewardsPaid","outputs":[{"internalType":"uint256","name":"","type":"uint256"}],"stateMutability":"view","type":"function"},{"inputs":[],"name":"totalWithdrawn","outputs":[{"internalType":"uint256","name":"","type":"uint256"}],"stateMutability":"view","type":"function"},{"inputs":[],"name":"usdt","outputs":[{"internalType":"contract IERC20","name":"","type":"address"}],"stateMutability":"view","type":"function"},{"inputs":[{"internalType":"address","name":"","type":"address"},{"internalType":"uint256","name":"","type":"uint256"}],"name":"userDeposits","outputs":[{"internalType":"uint256","name":"amount","type":"uint256"},{"internalType":"uint256","name":"tier","type":"uint256"},{"internalType":"uint256","name":"dailyRate","type":"uint256"},{"internalType":"uint256","name":"depositTime","type":"uint256"},{"internalType":"uint256","name":"lastClaimTime","type":"uint256"},{"internalType":"uint256","name":"totalClaimed","type":"uint256"},{"internalType":"uint256","name":"maxReturn","type":"uint256"},{"internalType":"bool","name":"active","type":"bool"}],"stateMutability":"view","type":"function"},{"inputs":[{"internalType":"address","name":"","type":"address"}],"name":"users","outputs":[{"internalType":"uint256","name":"totalActiveDeposit","type":"uint256"},{"internalType":"uint256","name":"depositCount","type":"uint256"},{"internalType":"uint256","name":"totalCombinedEarnings","type":"uint256"}],"stateMutability":"view","type":"function"}],"evm":{"bytecode":{"linkReferences":{},"object":"60e0604052670de0b6b3a76400006005553480156200001d57600080fd5b5060405162002fe438038062002fe48339810160408190526200004091620000ec565b60017f9b779b17422d0df92223018b32b4d1fa46e071723d6817e2486d003becc55f00556001600160a01b03831615806200008257506001600160a01b038216155b15620000a15760405163d92e233d60e01b815260040160405180910390fd5b6001600160a01b03928316608052911660a05260c052600380546001600160a01b031916331790556200012d565b80516001600160a01b0381168114620000e757600080fd5b919050565b6000806000606084860312156200010257600080fd5b6200010d84620000cf565b92506200011d60208501620000cf565b9150604084015190509250925092565b60805160a05160c051612e17620001cd6000396000818161045e01528181611bf8015261261d015260008181610375015281816107e80152818161095301528181610a5a01528181610ae60152818161211f015281816121b2015281816123c301528181612487015261250c01526000818161039c0152818161149a01528181611569015281816115a3015281816115dd01526116460152612e176000f3fe608060405234801561001057600080fd5b506004361061023d5760003560e01c806374958e351161013b578063b6635be6116100b8578063e4e7c6b41161007c578063e4e7c6b4146105d3578063e9a16bd5146105e6578063f851a440146105f9578063fb75b2c71461060c578063ff50abdc1461061f57600080fd5b8063b6635be614610573578063b6b55f2514610587578063b8af3d3e1461059a578063d33219b4146105ad578063e4d2620e146105c057600080fd5b80638fb1bb50116100ff5780638fb1bb50146104dd5780639e5914da146104f0578063a87430ba14610503578063ac948e831461054d578063b12cd6251461056057600080fd5b806374958e3514610493578063786685e01461049c57806384b273f6146104af5780638565c2bf146104c25780638aea8f71146104d557600080fd5b80632f48ab7d116101c957806351637ba91161018d57806351637ba91461040f5780635acb50821461042257806360da3e831461043557806365cf7c9b146104595780636b9f7ab61461048057600080fd5b80632f48ab7d146103975780633695dad1146103be57806337914a07146103c75780633a6f2dcd146103da5780634b3197131461040657600080fd5b80631441a5a9116102105780631441a5a91461030c5780631c481e2d146103375780631d687f0c1461034a5780631ec32d151461035d5780632acfbca31461037057600080fd5b806308f43333146102425780630962ef791461029757806313fcaf54146102ac578063142a3da3146102e3575b600080fd5b610255610250366004612a2d565b610628565b604080519889526020890197909752958701949094526060860192909252608085015260a084015260c0830152151560e0820152610100015b60405180910390f35b6102aa6102a5366004612a59565b61068d565b005b6102d56102ba366004612a72565b6001600160a01b031660009081526009602052604090205490565b60405190815260200161028e565b6102d56102f1366004612a72565b6001600160a01b03166000908152600a602052604090205490565b60015461031f906001600160a01b031681565b6040516001600160a01b03909116815260200161028e565b6102aa610345366004612a8f565b610bbc565b6102aa610358366004612ab1565b610c3f565b60075461031f906001600160a01b031681565b61031f7f000000000000000000000000000000000000000000000000000000000000000081565b61031f7f000000000000000000000000000000000000000000000000000000000000000081565b6102d560055481565b6102aa6103d5366004612b48565b610d38565b6102d56103e8366004612a72565b6001600160a01b03166000908152600a602052604090206002015490565b6102d5600c5481565b6102aa61041d366004612a59565b610e24565b6102aa610430366004612bb4565b610e54565b60045461044990600160a81b900460ff1681565b604051901515815260200161028e565b6102d57f000000000000000000000000000000000000000000000000000000000000000081565b6102aa61048e366004612a2d565b610f21565b6102d5600d5481565b6104496104aa366004612a2d565b610fd0565b6102aa6104bd366004612c10565b61106a565b60005461031f906001600160a01b031681565b6102aa611256565b6102aa6104eb366004612c85565b6112fa565b6102aa6104fe366004612a72565b611328565b610532610511366004612a72565b600a6020526000908152604090208054600182015460029092015490919083565b6040805193845260208401929092529082015260600161028e565b6102aa61055b366004612a2d565b611375565b60085461031f906001600160a01b031681565b60045461044990600160a01b900460ff1681565b6102aa610595366004612a59565b6113a0565b6102aa6105a8366004612a59565b6119f3565b60045461031f906001600160a01b031681565b6102d56105ce366004612a72565b611a1f565b6102d56105e1366004612a2d565b611a68565b60025461031f906001600160a01b031681565b60035461031f906001600160a01b031681565b60065461031f906001600160a01b031681565b6102d5600b5481565b6009602052816000526040600020818154811061064457600080fd5b6000918252602090912060089091020180546001820154600283015460038401546004850154600586015460068701546007909701549598509396509194909391929160ff1688565b610695611af3565b60006106a13383611b0f565b905060006106ae82611bb0565b9050806000036106d1576040516312d37ee560e31b815260040160405180910390fd5b6005548110156106f457604051637e3f2b7d60e01b815260040160405180910390fd5b60008060009054906101000a90046001600160a01b03166001600160a01b03166398d5fdca6040518163ffffffff1660e01b8152600401602060405180830381865afa158015610748573d6000803e3d6000fd5b505050506040513d601f19601f8201168201806040525081019061076c9190612ca7565b90508060000361078f5760405163cc88465760e01b815260040160405180910390fd5b6000816107a484670de0b6b3a7640000612cd6565b6107ae9190612d03565b9050806000036107d15760405163cc88465760e01b815260040160405180910390fd5b6040516370a0823160e01b815230600482015281907f00000000000000000000000000000000000000000000000000000000000000006001600160a01b0316906370a0823190602401602060405180830381865afa158015610837573d6000803e3d6000fd5b505050506040513d601f19601f8201168201806040525081019061085b9190612ca7565b101561087a5760405163075e464560e01b815260040160405180910390fd5b8284600501600082825461088e9190612d17565b9091555050426004850155336000908152600a6020526040812060020180548592906108bb908490612d17565b9250508190555082600d60008282546108d49190612d17565b909155505060068401546005850154106109465760078401805460ff191690558354336000908152600a602052604081208054909190610915908490612d2a565b909155505060405133907ffa1eb7ba4f65747c7c8882031eb92d63b6fcb684b75052185312fbe1a488d94390600090a25b61097a6001600160a01b037f0000000000000000000000000000000000000000000000000000000000000000163383611e03565b6001546001600160a01b0316158015906109945750600083115b15610b1357600154604051638000d99160e01b8152336004820152602481018590526000916001600160a01b031690638000d991906044016020604051808303816000875af11580156109eb573d6000803e3d6000fd5b505050506040513d601f19601f82011682018060405250810190610a0f9190612ca7565b90508015610b1157600083610a2c83670de0b6b3a7640000612cd6565b610a369190612d03565b9050600081118015610ad057506040516370a0823160e01b815230600482015281907f00000000000000000000000000000000000000000000000000000000000000006001600160a01b0316906370a0823190602401602060405180830381865afa158015610aa9573d6000803e3d6000fd5b505050506040513d601f19601f82011682018060405250810190610acd9190612ca7565b10155b15610b0f57600154610b0f906001600160a01b037f00000000000000000000000000000000000000000000000000000000000000008116911683611e03565b505b505b604080518481526020810183905290810186905233907f56253d287efacdb2c4cd76dd03624a4821c1ce721d1152e8f5f5718f6087c9bf9060600160405180910390a2336000818152600a60209081526040918290206002015491519182527fdad0e43afdd45daca2566e861ff76f0250960d86947518722c83b1e03f45edd591015b60405180910390a250505050610bb96001600080516020612dc283398151915255565b50565b6004546001600160a01b03163314610be757604051630e05f48560e11b815260040160405180910390fd5b60048054821515600160a81b0260ff60a81b199091161790556040517f5ef34f53269a04b5b817e5be24a51ba6b477118b399ec9dd5b2baf5b299563dc90610c3490831515815260200190565b60405180910390a150565b600454600160a01b900460ff1615610c81576004546001600160a01b03163314610c7c57604051630e05f48560e11b815260040160405180910390fd5b610cac565b6003546001600160a01b03163314610cac57604051634755657960e01b815260040160405180910390fd5b6001600160a01b0383161580610cc957506001600160a01b038216155b80610cdb57506001600160a01b038116155b15610cf95760405163d92e233d60e01b815260040160405180910390fd5b600680546001600160a01b039485166001600160a01b031991821617909155600780549385169382169390931790925560088054919093169116179055565b6003546001600160a01b03163314610d6357604051634755657960e01b815260040160405180910390fd5b828114610da95760405162461bcd60e51b815260206004820152600f60248201526e098cadccee8d040dad2e6dac2e8c6d608b1b60448201526064015b60405180910390fd5b60005b83811015610e1d57828282818110610dc657610dc6612d3d565b90506020020135600a6000878785818110610de357610de3612d3d565b9050602002016020810190610df89190612a72565b6001600160a01b03168152602081019190915260400160002060020155600101610dac565b5050505050565b6004546001600160a01b03163314610e4f57604051630e05f48560e11b815260040160405180910390fd5b600555565b6003546001600160a01b03163314610e7f57604051634755657960e01b815260040160405180910390fd5b600454600160a01b900460ff1615610eaa5760405163238f75d360e01b815260040160405180910390fd5b6001600160a01b038416610ed15760405163d92e233d60e01b815260040160405180910390fd5b600080546001600160a01b039586166001600160a01b0319918216179091556001805494861694821694909417909355600280549285169284169290921790915560048054919093169116179055565b6001546001600160a01b03163314610f4c57604051633864b1e560e21b815260040160405180910390fd5b6001600160a01b0382166000908152600a602052604081206002018054839290610f77908490612d17565b90915550506001600160a01b0382166000818152600a60209081526040918290206002015491519182527fdad0e43afdd45daca2566e861ff76f0250960d86947518722c83b1e03f45edd5910160405180910390a25050565b6001600160a01b0382166000908152600960205260408120548210610ff757506000611064565b6001600160a01b038316600090815260096020526040812080548490811061102157611021612d3d565b60009182526020909120600890910201600781015490915060ff1661104a576000915050611064565b620d2f00816003015461105d9190612d17565b4211159150505b92915050565b6003546001600160a01b0316331461109557604051634755657960e01b815260040160405180910390fd5b60005b8181101561125157368383838181106110b3576110b3612d3d565b610100029190910191506009905060006110d06020840184612a72565b6001600160a01b03168152602080820192909252604090810160009081208251610100810184528585018035808352878601358388019081526060808a01359785019788526080808b013591860191825260a0808c013591870191825260c0808d013591880191825260e0808e013591890191825260019089018181528a548083018c559a8c529c8b2098516008909a029098019889559351968801969096559751600287015551600386015595516004850155915160058401559351600683015593516007909101805460ff1916911515919091179055600a916111b59085612a72565b6001600160a01b03166001600160a01b0316815260200190815260200160002060000160008282546111e79190612d17565b90915550600a905060006111fe6020840184612a72565b6001600160a01b031681526020810191909152604001600090812060010180549161122883612d53565b91905055508060200135600b60008282546112439190612d17565b909155505050600101611098565b505050565b6003546001600160a01b0316331461128157604051634755657960e01b815260040160405180910390fd5b600454600160a01b900460ff16156112ac5760405163238f75d360e01b815260040160405180910390fd5b6000546001600160a01b03166112d55760405163d311bc3960e01b815260040160405180910390fd5b6004805460ff60a01b1916600160a01b179055600380546001600160a01b0319169055565b611302611af3565b61130d338383611e38565b6113246001600080516020612dc283398151915255565b5050565b6004546001600160a01b0316331461135357604051630e05f48560e11b815260040160405180910390fd5b600180546001600160a01b0319166001600160a01b0392909216919091179055565b6002546001600160a01b03163314610f4c57604051633327311360e11b815260040160405180910390fd5b6113a8611af3565b600454600160a81b900460ff16156113d257604051627cfe7f60e31b815260040160405180910390fd5b806000036113f357604051632b7786bd60e21b815260040160405180910390fd5b69010f0cf064dd5920000081111561141e5760405163c066e1e960e01b815260040160405180910390fd5b336000908152600a602052604090205469010f0cf064dd5920000090611445908390612d17565b11156114645760405163c066e1e960e01b815260040160405180910390fd5b6000546001600160a01b031661148d5760405163d311bc3960e01b815260040160405180910390fd5b6114c26001600160a01b037f0000000000000000000000000000000000000000000000000000000000000000163330846122b8565b60065481906001600160a01b0316158015906114e857506007546001600160a01b031615155b80156114fe57506008546001600160a01b031615155b1561162c576000612710611513606485612cd6565b61151d9190612d03565b9050600061271061152f603286612cd6565b6115399190612d03565b9050600061271061154b603287612cd6565b6115559190612d03565b600654909150611592906001600160a01b037f00000000000000000000000000000000000000000000000000000000000000008116911685611e03565b6007546115cc906001600160a01b037f00000000000000000000000000000000000000000000000000000000000000008116911684611e03565b600854611606906001600160a01b037f00000000000000000000000000000000000000000000000000000000000000008116911683611e03565b80826116128588612d2a565b61161c9190612d2a565b6116269190612d2a565b93505050505b611635816122f4565b60005461166f906001600160a01b037f0000000000000000000000000000000000000000000000000000000000000000811691168361259f565b600054604051631c79d1e560e21b8152600481018390526001600160a01b03909116906371e74794906024016020604051808303816000875af11580156116ba573d6000803e3d6000fd5b505050506040513d601f19601f820116820180604052508101906116de9190612ca7565b5060006116ea836125f3565b905060006116f88442612615565b90506000611707600386612cd6565b3360008181526009602090815260408083208151610100810183528b81528084018a81528184018a815242606084018181526080850191825260a0850189815260c086018c8152600160e0880181815289548083018b55998d528b8d2098516008909a0290980198895595519588019590955592516002870155516003860155516004850155516005840155516006830155516007909101805460ff1916911515919091179055928252600a9052908120805492935087929091906117cd908490612d17565b9091555050336000908152600a602052604081206001018054916117f083612d53565b919050555084600b60008282546118079190612d17565b90915550506001546001600160a01b03161561195c5760015460405163095ce44b60e21b81523360048201526001600160a01b0390911690632573912c90602401600060405180830381600087803b15801561186257600080fd5b505af1158015611876573d6000803e3d6000fd5b5050600154604051634a9fefc760e01b8152336004820152600093506001600160a01b039091169150634a9fefc790602401602060405180830381865afa1580156118c5573d6000803e3d6000fd5b505050506040513d601f19601f820116820180604052508101906118e99190612d6c565b90506001600160a01b0381161561195a5760015460405163095ce44b60e21b81526001600160a01b03838116600483015290911690632573912c90602401600060405180830381600087803b15801561194157600080fd5b505af1158015611955573d6000803e3d6000fd5b505050505b505b6002546001600160a01b03161580159061198057506001546001600160a01b031615155b1561198f5761198f33866126b4565b336000818152600960205260409020547fe3b53cd1a44fbf11535e145d80b8ef1ed6d57a73bf5daa7e939b6b01657d6549908790869086906119d390600190612d2a565b604080519485526020850193909352918301526060820152608001610b96565b6119fb611af3565b611a083382612710611e38565b610bb96001600080516020612dc283398151915255565b6001600160a01b0381166000908152600a60205260408120548103611a4657506000919050565b6001600160a01b0382166000908152600a6020526040902054611064906125f3565b6001600160a01b0382166000908152600960205260408120548210611a8f57506000611064565b6001600160a01b0383166000908152600960205260408120805484908110611ab957611ab9612d3d565b60009182526020909120600890910201600781015490915060ff16611ae2576000915050611064565b611aeb81611bb0565b949350505050565b611afb6127ed565b6002600080516020612dc283398151915255565b6001600160a01b0382166000908152600960205260408120548210611b4757604051635972996f60e11b815260040160405180910390fd5b6001600160a01b0383166000908152600960205260408120805484908110611b7157611b71612d3d565b60009182526020909120600890910201600781015490915060ff16611ba9576040516305a2e88560e21b815260040160405180910390fd5b9392505050565b600781015460009060ff16611bc757506000919050565b600482015442818111611bde575060009392505050565b6000611bea8383612d2a565b85549091506276a700611c1d7f000000000000000000000000000000000000000000000000000000000000000085612d2a565b10611c5857611c3161271062015180612cd6565b82611c3d602d84612cd6565b611c479190612cd6565b611c519190612d03565b9450611dbf565b68878678326eac900000811015600081611c745761023f611c78565b6103025b90506000611c8962093a8086612d03565b905061271081611c998487612cd6565b611ca39190612cd6565b611cad9190612d03565b97506000611cbe8262093a80612cd6565b611cc89089612d17565b905060005b87821015611d8a5760006007611ce66201518085612d03565b611cf1906003612d17565b611cfb9190612d89565b9050600086611d1257611d0d8261281f565b611d1b565b611d1b82612889565b90506000611d2c6201518086612d03565b611d37906001612d17565b611d449062015180612cd6565b90506000818c10611d555781611d57565b8b5b90506000611d658783612d2a565b9050611d718185612cd6565b611d7b9087612d17565b95508296505050505050611ccd565b611d9961271062015180612cd6565b611da38288612cd6565b611dad9190612d03565b611db7908b612d17565b995050505050505b60008660050154876006015411611dd7576000611deb565b86600501548760060154611deb9190612d2a565b905080861115611df9578095505b5050505050919050565b611e1083838360016128f3565b61125157604051635274afe760e01b81526001600160a01b0384166004820152602401610da0565b8061271014158015611e4c57508061138814155b8015611e5a5750806109c414155b15611e7857604051635c1d07cb60e01b815260040160405180910390fd5b6000611e848484611b0f565b9050620d2f008160030154611e999190612d17565b421115611eb95760405163693ed15b60e11b815260040160405180910390fd5b80546000612710611eca8584612cd6565b611ed49190612d03565b90506000612710611ee76103e884612cd6565b611ef19190612d03565b90506000612710868660050154611f089190612cd6565b611f129190612d03565b90506000611f208284612d17565b90506000818511611f32576000611f3c565b611f3c8286612d2a565b90508761271003611f585760078701805460ff19169055611fa0565b84876000016000828254611f6c9190612d2a565b9250508190555082876005016000828254611f879190612d2a565b90915550508654611f9a90600390612cd6565b60068801555b6001600160a01b038a166000908152600a602052604081208054879290611fc8908490612d2a565b9250508190555084600c6000828254611fe19190612d17565b90915550506001546001600160a01b0316156120575760015460405163095ce44b60e21b81526001600160a01b038c8116600483015290911690632573912c90602401600060405180830381600087803b15801561203e57600080fd5b505af1158015612052573d6000803e3d6000fd5b505050505b80156122595760008060009054906101000a90046001600160a01b03166001600160a01b03166398d5fdca6040518163ffffffff1660e01b8152600401602060405180830381865afa1580156120b1573d6000803e3d6000fd5b505050506040513d601f19601f820116820180604052508101906120d59190612ca7565b90508015612257576000816120f284670de0b6b3a7640000612cd6565b6120fc9190612d03565b6040516370a0823160e01b81523060048201529091506000906001600160a01b037f000000000000000000000000000000000000000000000000000000000000000016906370a0823190602401602060405180830381865afa158015612166573d6000803e3d6000fd5b505050506040513d601f19601f8201168201806040525081019061218a9190612ca7565b905060008211801561219c5750818110155b15612254576000546121db906001600160a01b037f0000000000000000000000000000000000000000000000000000000000000000811691168461259f565b60005460405163f843e64160e01b8152600481018490526001600160a01b038f811660248301529091169063f843e641906044016020604051808303816000875af115801561222e573d6000803e3d6000fd5b505050506040513d601f19601f820116820180604052508101906122529190612ca7565b505b50505b505b6040805182815260208101869052908101849052606081018a90526001600160a01b038b16907f4ade67ef7e7c5e4d9c50de61a4e8c555be92c9b37e3ca6716eb02a1f0e471da59060800160405180910390a250505050505050505050565b6122c6848484846001612959565b6122ee57604051635274afe760e01b81526001600160a01b0385166004820152602401610da0565b50505050565b6000805460408051630240bc6b60e21b8152815184936001600160a01b031692630902f1ac92600480820193918290030181865afa15801561233a573d6000803e3d6000fd5b505050506040513d601f19601f8201168201806040525081019061235e9190612d9d565b91509150600080831180156123735750600082115b1561239d576123828484612d17565b61238c8386612cd6565b6123969190612d03565b90506123a0565b50825b600080546040516370a0823160e01b81526001600160a01b0391821660048201527f0000000000000000000000000000000000000000000000000000000000000000909116906370a0823190602401602060405180830381865afa15801561240c573d6000803e3d6000fd5b505050506040513d601f19601f820116820180604052508101906124309190612ca7565b9050683635c9adc5dea000006124468184612d17565b8210156125975760008261245a8386612d17565b6124649190612d2a565b6040516370a0823160e01b81523060048201529091506000906001600160a01b037f000000000000000000000000000000000000000000000000000000000000000016906370a0823190602401602060405180830381865afa1580156124ce573d6000803e3d6000fd5b505050506040513d601f19601f820116820180604052508101906124f29190612ca7565b905081811061259457600054612535906001600160a01b037f0000000000000000000000000000000000000000000000000000000000000000811691168461259f565b60005460405163362ce52b60e01b8152600481018490526001600160a01b039091169063362ce52b90602401600060405180830381600087803b15801561257b57600080fd5b505af115801561258f573d6000803e3d6000fd5b505050505b50505b505050505050565b6125ac83838360006129cb565b611251576125be8383600060016129cb565b6125e657604051635274afe760e01b81526001600160a01b0384166004820152602401610da0565b611e1083838360016129cb565b600068878678326eac900000821061260d57506002919050565b506001919050565b6000806126427f000000000000000000000000000000000000000000000000000000000000000084612d2a565b90506276a700811061265857602d915050611064565b600060076126696201518086612d03565b612674906003612d17565b61267e9190612d89565b905068878678326eac90000085106126a25761269981612889565b92505050611064565b6126ab8161281f565b95945050505050565b6001546001600160a01b031615806126d557506002546001600160a01b0316155b156126de575050565b8160005b60148110156122ee57600154604051634a9fefc760e01b81526001600160a01b0384811660048301526000921690634a9fefc790602401602060405180830381865afa158015612736573d6000803e3d6000fd5b505050506040513d601f19601f8201168201806040525081019061275a9190612d6c565b90506001600160a01b03811661277057506122ee565b60025460405163d9bd5f2d60e01b81526001600160a01b0383811660048301528581166024830152604482018790529091169063d9bd5f2d90606401600060405180830381600087803b1580156127c657600080fd5b505af11580156127da573d6000803e3d6000fd5b5092945050600190920191506126e29050565b600080516020612dc28339815191525460020361281d57604051633ee5aeb560e01b815260040160405180910390fd5b565b60008160000361283157506064919050565b816001036128415750604b919050565b816002036128515750605f919050565b8160030361286157506041919050565b8160040361287157506064919050565b8160050361288157506055919050565b506037919050565b60008160000361289b57506073919050565b816001036128ab57506064919050565b816002036128bb57506073919050565b816003036128cb5750606e919050565b816004036128db57506069919050565b816005036128eb57506064919050565b50607d919050565b60405163a9059cbb60e01b60008181526001600160a01b038616600452602485905291602083604481808b5af19250600160005114831661294d578383151615612940573d6000823e3d81fd5b6000873b113d1516831692505b60405250949350505050565b6040516323b872dd60e01b60008181526001600160a01b038781166004528616602452604485905291602083606481808c5af1925060016000511483166129b95783831516156129ac573d6000823e3d81fd5b6000883b113d1516831692505b60405250600060605295945050505050565b60405163095ea7b360e01b60008181526001600160a01b038616600452602485905291602083604481808b5af19250600160005114831661294d578383151615612940573d6000823e3d81fd5b6001600160a01b0381168114610bb957600080fd5b60008060408385031215612a4057600080fd5b8235612a4b81612a18565b946020939093013593505050565b600060208284031215612a6b57600080fd5b5035919050565b600060208284031215612a8457600080fd5b8135611ba981612a18565b600060208284031215612aa157600080fd5b81358015158114611ba957600080fd5b600080600060608486031215612ac657600080fd5b8335612ad181612a18565b92506020840135612ae181612a18565b91506040840135612af181612a18565b809150509250925092565b60008083601f840112612b0e57600080fd5b50813567ffffffffffffffff811115612b2657600080fd5b6020830191508360208260051b8501011115612b4157600080fd5b9250929050565b60008060008060408587031215612b5e57600080fd5b843567ffffffffffffffff80821115612b7657600080fd5b612b8288838901612afc565b90965094506020870135915080821115612b9b57600080fd5b50612ba887828801612afc565b95989497509550505050565b60008060008060808587031215612bca57600080fd5b8435612bd581612a18565b93506020850135612be581612a18565b92506040850135612bf581612a18565b91506060850135612c0581612a18565b939692955090935050565b60008060208385031215612c2357600080fd5b823567ffffffffffffffff80821115612c3b57600080fd5b818501915085601f830112612c4f57600080fd5b813581811115612c5e57600080fd5b8660208260081b8501011115612c7357600080fd5b60209290920196919550909350505050565b60008060408385031215612c9857600080fd5b50508035926020909101359150565b600060208284031215612cb957600080fd5b5051919050565b634e487b7160e01b600052601160045260246000fd5b808202811582820484141761106457611064612cc0565b634e487b7160e01b600052601260045260246000fd5b600082612d1257612d12612ced565b500490565b8082018082111561106457611064612cc0565b8181038181111561106457611064612cc0565b634e487b7160e01b600052603260045260246000fd5b600060018201612d6557612d65612cc0565b5060010190565b600060208284031215612d7e57600080fd5b8151611ba981612a18565b600082612d9857612d98612ced565b500690565b60008060408385031215612db057600080fd5b50508051602090910151909290915056fe9b779b17422d0df92223018b32b4d1fa46e071723d6817e2486d003becc55f00a26469706673582212207d4ec038719e5c5050316ea438cdebc94c882bca42001d17926448526fe54d6864736f6c63430008180033","opcodes":"PUSH1 0xE0 PUSH1 0x40 MSTORE PUSH8 0xDE0B6B3A7640000 PUSH1 0x5 SSTORE CALLVALUE DUP1 ISZERO PUSH3 0x1D JUMPI PUSH1 0x0 DUP1 REVERT JUMPDEST POP PUSH1 0x40 MLOAD PUSH3 0x2FE4 CODESIZE SUB DUP1 PUSH3 0x2FE4 DUP4 CODECOPY DUP2 ADD PUSH1 0x40 DUP2 SWAP1 MSTORE PUSH3 0x40 SWAP2 PUSH3 0xEC JUMP JUMPDEST PUSH1 0x1 PUSH32 0x9B779B17422D0DF92223018B32B4D1FA46E071723D6817E2486D003BECC55F00 SSTORE PUSH1 0x1 PUSH1 0x1 PUSH1 0xA0 SHL SUB DUP4 AND ISZERO DUP1 PUSH3 0x82 JUMPI POP PUSH1 0x1 PUSH1 0x1 PUSH1 0xA0 SHL SUB DUP3 AND ISZERO JUMPDEST ISZERO PUSH3 0xA1 JUMPI PUSH1 0x40 MLOAD PUSH4 0xD92E233D PUSH1 0xE0 SHL DUP2 MSTORE PUSH1 0x4 ADD PUSH1 0x40 MLOAD DUP1 SWAP2 SUB SWAP1 REVERT JUMPDEST PUSH1 0x1 PUSH1 0x1 PUSH1 0xA0 SHL SUB SWAP3 DUP4 AND PUSH1 0x80 MSTORE SWAP2 AND PUSH1 0xA0 MSTORE PUSH1 0xC0 MSTORE PUSH1 0x3 DUP1 SLOAD PUSH1 0x1 PUSH1 0x1 PUSH1 0xA0 SHL SUB NOT AND CALLER OR SWAP1 SSTORE PUSH3 0x12D JUMP JUMPDEST DUP1 MLOAD PUSH1 0x1 PUSH1 0x1 PUSH1 0xA0 SHL SUB DUP2 AND DUP2 EQ PUSH3 0xE7 JUMPI PUSH1 0x0 DUP1 REVERT JUMPDEST SWAP2 SWAP1 POP JUMP JUMPDEST PUSH1 0x0 DUP1 PUSH1 0x0 PUSH1 0x60 DUP5 DUP7 SUB SLT ISZERO PUSH3 0x102 JUMPI PUSH1 0x0 DUP1 REVERT JUMPDEST PUSH3 0x10D DUP5 PUSH3 0xCF JUMP JUMPDEST SWAP3 POP PUSH3 0x11D PUSH1 0x20 DUP6 ADD PUSH3 0xCF JUMP JUMPDEST SWAP2 POP PUSH1 0x40 DUP5 ADD MLOAD SWAP1 POP SWAP3 POP SWAP3 POP SWAP3 JUMP JUMPDEST PUSH1 0x80 MLOAD PUSH1 0xA0 MLOAD PUSH1 0xC0 MLOAD PUSH2 0x2E17 PUSH3 0x1CD PUSH1 0x0 CODECOPY PUSH1 0x0 DUP2 DUP2 PUSH2 0x45E ADD MSTORE DUP2 DUP2 PUSH2 0x1BF8 ADD MSTORE PUSH2 0x261D ADD MSTORE PUSH1 0x0 DUP2 DUP2 PUSH2 0x375 ADD MSTORE DUP2 DUP2 PUSH2 0x7E8 ADD MSTORE DUP2 DUP2 PUSH2 0x953 ADD MSTORE DUP2 DUP2 PUSH2 0xA5A ADD MSTORE DUP2 DUP2 PUSH2 0xAE6 ADD MSTORE DUP2 DUP2 PUSH2 0x211F ADD MSTORE DUP2 DUP2 PUSH2 0x21B2 ADD MSTORE DUP2 DUP2 PUSH2 0x23C3 ADD MSTORE DUP2 DUP2 PUSH2 0x2487 ADD MSTORE PUSH2 0x250C ADD MSTORE PUSH1 0x0 DUP2 DUP2 PUSH2 0x39C ADD MSTORE DUP2 DUP2 PUSH2 0x149A ADD MSTORE DUP2 DUP2 PUSH2 0x1569 ADD MSTORE DUP2 DUP2 PUSH2 0x15A3 ADD MSTORE DUP2 DUP2 PUSH2 0x15DD ADD MSTORE PUSH2 0x1646 ADD MSTORE PUSH2 0x2E17 PUSH1 0x0 RETURN INVALID PUSH1 0x80 PUSH1 0x40 MSTORE CALLVALUE DUP1 ISZERO PUSH2 0x10 JUMPI PUSH1 0x0 DUP1 REVERT JUMPDEST POP PUSH1 0x4 CALLDATASIZE LT PUSH2 0x23D JUMPI PUSH1 0x0 CALLDATALOAD PUSH1 0xE0 SHR DUP1 PUSH4 0x74958E35 GT PUSH2 0x13B JUMPI DUP1 PUSH4 0xB6635BE6 GT PUSH2 0xB8 JUMPI DUP1 PUSH4 0xE4E7C6B4 GT PUSH2 0x7C JUMPI DUP1 PUSH4 0xE4E7C6B4 EQ PUSH2 0x5D3 JUMPI DUP1 PUSH4 0xE9A16BD5 EQ PUSH2 0x5E6 JUMPI DUP1 PUSH4 0xF851A440 EQ PUSH2 0x5F9 JUMPI DUP1 PUSH4 0xFB75B2C7 EQ PUSH2 0x60C JUMPI DUP1 PUSH4 0xFF50ABDC EQ PUSH2 0x61F JUMPI PUSH1 0x0 DUP1 REVERT JUMPDEST DUP1 PUSH4 0xB6635BE6 EQ PUSH2 0x573 JUMPI DUP1 PUSH4 0xB6B55F25 EQ PUSH2 0x587 JUMPI DUP1 PUSH4 0xB8AF3D3E EQ PUSH2 0x59A JUMPI DUP1 PUSH4 0xD33219B4 EQ PUSH2 0x5AD JUMPI DUP1 PUSH4 0xE4D2620E EQ PUSH2 0x5C0 JUMPI PUSH1 0x0 DUP1 REVERT JUMPDEST DUP1 PUSH4 0x8FB1BB50 GT PUSH2 0xFF JUMPI DUP1 PUSH4 0x8FB1BB50 EQ PUSH2 0x4DD JUMPI DUP1 PUSH4 0x9E5914DA EQ PUSH2 0x4F0 JUMPI DUP1 PUSH4 0xA87430BA EQ PUSH2 0x503 JUMPI DUP1 PUSH4 0xAC948E83 EQ PUSH2 0x54D JUMPI DUP1 PUSH4 0xB12CD625 EQ PUSH2 0x560 JUMPI PUSH1 0x0 DUP1 REVERT JUMPDEST DUP1 PUSH4 0x74958E35 EQ PUSH2 0x493 JUMPI DUP1 PUSH4 0x786685E0 EQ PUSH2 0x49C JUMPI DUP1 PUSH4 0x84B273F6 EQ PUSH2 0x4AF JUMPI DUP1 PUSH4 0x8565C2BF EQ PUSH2 0x4C2 JUMPI DUP1 PUSH4 0x8AEA8F71 EQ PUSH2 0x4D5 JUMPI PUSH1 0x0 DUP1 REVERT JUMPDEST DUP1 PUSH4 0x2F48AB7D GT PUSH2 0x1C9 JUMPI DUP1 PUSH4 0x51637BA9 GT PUSH2 0x18D JUMPI DUP1 PUSH4 0x51637BA9 EQ PUSH2 0x40F JUMPI DUP1 PUSH4 0x5ACB5082 EQ PUSH2 0x422 JUMPI DUP1 PUSH4 0x60DA3E83 EQ PUSH2 0x435 JUMPI DUP1 PUSH4 0x65CF7C9B EQ PUSH2 0x459 JUMPI DUP1 PUSH4 0x6B9F7AB6 EQ PUSH2 0x480 JUMPI PUSH1 0x0 DUP1 REVERT JUMPDEST DUP1 PUSH4 0x2F48AB7D EQ PUSH2 0x397 JUMPI DUP1 PUSH4 0x3695DAD1 EQ PUSH2 0x3BE JUMPI DUP1 PUSH4 0x37914A07 EQ PUSH2 0x3C7 JUMPI DUP1 PUSH4 0x3A6F2DCD EQ PUSH2 0x3DA JUMPI DUP1 PUSH4 0x4B319713 EQ PUSH2 0x406 JUMPI PUSH1 0x0 DUP1 REVERT JUMPDEST DUP1 PUSH4 0x1441A5A9 GT PUSH2 0x210 JUMPI DUP1 PUSH4 0x1441A5A9 EQ PUSH2 0x30C JUMPI DUP1 PUSH4 0x1C481E2D EQ PUSH2 0x337 JUMPI DUP1 PUSH4 0x1D687F0C EQ PUSH2 0x34A JUMPI DUP1 PUSH4 0x1EC32D15 EQ PUSH2 0x35D JUMPI DUP1 PUSH4 0x2ACFBCA3 EQ PUSH2 0x370 JUMPI PUSH1 0x0 DUP1 REVERT JUMPDEST DUP1 PUSH4 0x8F43333 EQ PUSH2 0x242 JUMPI DUP1 PUSH4 0x962EF79 EQ PUSH2 0x297 JUMPI DUP1 PUSH4 0x13FCAF54 EQ PUSH2 0x2AC JUMPI DUP1 PUSH4 0x142A3DA3 EQ PUSH2 0x2E3 JUMPI JUMPDEST PUSH1 0x0 DUP1 REVERT JUMPDEST PUSH2 0x255 PUSH2 0x250 CALLDATASIZE PUSH1 0x4 PUSH2 0x2A2D JUMP JUMPDEST PUSH2 0x628 JUMP JUMPDEST PUSH1 0x40 DUP1 MLOAD SWAP9 DUP10 MSTORE PUSH1 0x20 DUP10 ADD SWAP8 SWAP1 SWAP8 MSTORE SWAP6 DUP8 ADD SWAP5 SWAP1 SWAP5 MSTORE PUSH1 0x60 DUP7 ADD SWAP3 SWAP1 SWAP3 MSTORE PUSH1 0x80 DUP6 ADD MSTORE PUSH1 0xA0 DUP5 ADD MSTORE PUSH1 0xC0 DUP4 ADD MSTORE ISZERO ISZERO PUSH1 0xE0 DUP3 ADD MSTORE PUSH2 0x100 ADD JUMPDEST PUSH1 0x40 MLOAD DUP1 SWAP2 SUB SWAP1 RETURN JUMPDEST PUSH2 0x2AA PUSH2 0x2A5 CALLDATASIZE PUSH1 0x4 PUSH2 0x2A59 JUMP JUMPDEST PUSH2 0x68D JUMP JUMPDEST STOP JUMPDEST PUSH2 0x2D5 PUSH2 0x2BA CALLDATASIZE PUSH1 0x4 PUSH2 0x2A72 JUMP JUMPDEST PUSH1 0x1 PUSH1 0x1 PUSH1 0xA0 SHL SUB AND PUSH1 0x0 SWAP1 DUP2 MSTORE PUSH1 0x9 PUSH1 0x20 MSTORE PUSH1 0x40 SWAP1 KECCAK256 SLOAD SWAP1 JUMP JUMPDEST PUSH1 0x40 MLOAD SWAP1 DUP2 MSTORE PUSH1 0x20 ADD PUSH2 0x28E JUMP JUMPDEST PUSH2 0x2D5 PUSH2 0x2F1 CALLDATASIZE PUSH1 0x4 PUSH2 0x2A72 JUMP JUMPDEST PUSH1 0x1 PUSH1 0x1 PUSH1 0xA0 SHL SUB AND PUSH1 0x0 SWAP1 DUP2 MSTORE PUSH1 0xA PUSH1 0x20 MSTORE PUSH1 0x40 SWAP1 KECCAK256 SLOAD SWAP1 JUMP JUMPDEST PUSH1 0x1 SLOAD PUSH2 0x31F SWAP1 PUSH1 0x1 PUSH1 0x1 PUSH1 0xA0 SHL SUB AND DUP2 JUMP JUMPDEST PUSH1 0x40 MLOAD PUSH1 0x1 PUSH1 0x1 PUSH1 0xA0 SHL SUB SWAP1 SWAP2 AND DUP2 MSTORE PUSH1 0x20 ADD PUSH2 0x28E JUMP JUMPDEST PUSH2 0x2AA PUSH2 0x345 CALLDATASIZE PUSH1 0x4 PUSH2 0x2A8F JUMP JUMPDEST PUSH2 0xBBC JUMP JUMPDEST PUSH2 0x2AA PUSH2 0x358 CALLDATASIZE PUSH1 0x4 PUSH2 0x2AB1 JUMP JUMPDEST PUSH2 0xC3F JUMP JUMPDEST PUSH1 0x7 SLOAD PUSH2 0x31F SWAP1 PUSH1 0x1 PUSH1 0x1 PUSH1 0xA0 SHL SUB AND DUP2 JUMP JUMPDEST PUSH2 0x31F PUSH32 0x0 DUP2 JUMP JUMPDEST PUSH2 0x31F PUSH32 0x0 DUP2 JUMP JUMPDEST PUSH2 0x2D5 PUSH1 0x5 SLOAD DUP2 JUMP JUMPDEST PUSH2 0x2AA PUSH2 0x3D5 CALLDATASIZE PUSH1 0x4 PUSH2 0x2B48 JUMP JUMPDEST PUSH2 0xD38 JUMP JUMPDEST PUSH2 0x2D5 PUSH2 0x3E8 CALLDATASIZE PUSH1 0x4 PUSH2 0x2A72 JUMP JUMPDEST PUSH1 0x1 PUSH1 0x1 PUSH1 0xA0 SHL SUB AND PUSH1 0x0 SWAP1 DUP2 MSTORE PUSH1 0xA PUSH1 0x20 MSTORE PUSH1 0x40 SWAP1 KECCAK256 PUSH1 0x2 ADD SLOAD SWAP1 JUMP JUMPDEST PUSH2 0x2D5 PUSH1 0xC SLOAD DUP2 JUMP JUMPDEST PUSH2 0x2AA PUSH2 0x41D CALLDATASIZE PUSH1 0x4 PUSH2 0x2A59 JUMP JUMPDEST PUSH2 0xE24 JUMP JUMPDEST PUSH2 0x2AA PUSH2 0x430 CALLDATASIZE PUSH1 0x4 PUSH2 0x2BB4 JUMP JUMPDEST PUSH2 0xE54 JUMP JUMPDEST PUSH1 0x4 SLOAD PUSH2 0x449 SWAP1 PUSH1 0x1 PUSH1 0xA8 SHL SWAP1 DIV PUSH1 0xFF AND DUP2 JUMP JUMPDEST PUSH1 0x40 MLOAD SWAP1 ISZERO ISZERO DUP2 MSTORE PUSH1 0x20 ADD PUSH2 0x28E JUMP JUMPDEST PUSH2 0x2D5 PUSH32 0x0 DUP2 JUMP JUMPDEST PUSH2 0x2AA PUSH2 0x48E CALLDATASIZE PUSH1 0x4 PUSH2 0x2A2D JUMP JUMPDEST PUSH2 0xF21 JUMP JUMPDEST PUSH2 0x2D5 PUSH1 0xD SLOAD DUP2 JUMP JUMPDEST PUSH2 0x449 PUSH2 0x4AA CALLDATASIZE PUSH1 0x4 PUSH2 0x2A2D JUMP JUMPDEST PUSH2 0xFD0 JUMP JUMPDEST PUSH2 0x2AA PUSH2 0x4BD CALLDATASIZE PUSH1 0x4 PUSH2 0x2C10 JUMP JUMPDEST PUSH2 0x106A JUMP JUMPDEST PUSH1 0x0 SLOAD PUSH2 0x31F SWAP1 PUSH1 0x1 PUSH1 0x1 PUSH1 0xA0 SHL SUB AND DUP2 JUMP JUMPDEST PUSH2 0x2AA PUSH2 0x1256 JUMP JUMPDEST PUSH2 0x2AA PUSH2 0x4EB CALLDATASIZE PUSH1 0x4 PUSH2 0x2C85 JUMP JUMPDEST PUSH2 0x12FA JUMP JUMPDEST PUSH2 0x2AA PUSH2 0x4FE CALLDATASIZE PUSH1 0x4 PUSH2 0x2A72 JUMP JUMPDEST PUSH2 0x1328 JUMP JUMPDEST PUSH2 0x532 PUSH2 0x511 CALLDATASIZE PUSH1 0x4 PUSH2 0x2A72 JUMP JUMPDEST PUSH1 0xA PUSH1 0x20 MSTORE PUSH1 0x0 SWAP1 DUP2 MSTORE PUSH1 0x40 SWAP1 KECCAK256 DUP1 SLOAD PUSH1 0x1 DUP3 ADD SLOAD PUSH1 0x2 SWAP1 SWAP3 ADD SLOAD SWAP1 SWAP2 SWAP1 DUP4 JUMP JUMPDEST PUSH1 0x40 DUP1 MLOAD SWAP4 DUP5 MSTORE PUSH1 0x20 DUP5 ADD SWAP3 SWAP1 SWAP3 MSTORE SWAP1 DUP3 ADD MSTORE PUSH1 0x60 ADD PUSH2 0x28E JUMP JUMPDEST PUSH2 0x2AA PUSH2 0x55B CALLDATASIZE PUSH1 0x4 PUSH2 0x2A2D JUMP JUMPDEST PUSH2 0x1375 JUMP JUMPDEST PUSH1 0x8 SLOAD PUSH2 0x31F SWAP1 PUSH1 0x1 PUSH1 0x1 PUSH1 0xA0 SHL SUB AND DUP2 JUMP JUMPDEST PUSH1 0x4 SLOAD PUSH2 0x449 SWAP1 PUSH1 0x1 PUSH1 0xA0 SHL SWAP1 DIV PUSH1 0xFF AND DUP2 JUMP JUMPDEST PUSH2 0x2AA PUSH2 0x595 CALLDATASIZE PUSH1 0x4 PUSH2 0x2A59 JUMP JUMPDEST PUSH2 0x13A0 JUMP JUMPDEST PUSH2 0x2AA PUSH2 0x5A8 CALLDATASIZE PUSH1 0x4 PUSH2 0x2A59 JUMP JUMPDEST PUSH2 0x19F3 JUMP JUMPDEST PUSH1 0x4 SLOAD PUSH2 0x31F SWAP1 PUSH1 0x1 PUSH1 0x1 PUSH1 0xA0 SHL SUB AND DUP2 JUMP JUMPDEST PUSH2 0x2D5 PUSH2 0x5CE CALLDATASIZE PUSH1 0x4 PUSH2 0x2A72 JUMP JUMPDEST PUSH2 0x1A1F JUMP JUMPDEST PUSH2 0x2D5 PUSH2 0x5E1 CALLDATASIZE PUSH1 0x4 PUSH2 0x2A2D JUMP JUMPDEST PUSH2 0x1A68 JUMP JUMPDEST PUSH1 0x2 SLOAD PUSH2 0x31F SWAP1 PUSH1 0x1 PUSH1 0x1 PUSH1 0xA0 SHL SUB AND DUP2 JUMP JUMPDEST PUSH1 0x3 SLOAD PUSH2 0x31F SWAP1 PUSH1 0x1 PUSH1 0x1 PUSH1 0xA0 SHL SUB AND DUP2 JUMP JUMPDEST PUSH1 0x6 SLOAD PUSH2 0x31F SWAP1 PUSH1 0x1 PUSH1 0x1 PUSH1 0xA0 SHL SUB AND DUP2 JUMP JUMPDEST PUSH2 0x2D5 PUSH1 0xB SLOAD DUP2 JUMP JUMPDEST PUSH1 0x9 PUSH1 0x20 MSTORE DUP2 PUSH1 0x0 MSTORE PUSH1 0x40 PUSH1 0x0 KECCAK256 DUP2 DUP2 SLOAD DUP2 LT PUSH2 0x644 JUMPI PUSH1 0x0 DUP1 REVERT JUMPDEST PUSH1 0x0 SWAP2 DUP3 MSTORE PUSH1 0x20 SWAP1 SWAP2 KECCAK256 PUSH1 0x8 SWAP1 SWAP2 MUL ADD DUP1 SLOAD PUSH1 0x1 DUP3 ADD SLOAD PUSH1 0x2 DUP4 ADD SLOAD PUSH1 0x3 DUP5 ADD SLOAD PUSH1 0x4 DUP6 ADD SLOAD PUSH1 0x5 DUP7 ADD SLOAD PUSH1 0x6 DUP8 ADD SLOAD PUSH1 0x7 SWAP1 SWAP8 ADD SLOAD SWAP6 SWAP9 POP SWAP4 SWAP7 POP SWAP2 SWAP5 SWAP1 SWAP4 SWAP2 SWAP3 SWAP2 PUSH1 0xFF AND DUP9 JUMP JUMPDEST PUSH2 0x695 PUSH2 0x1AF3 JUMP JUMPDEST PUSH1 0x0 PUSH2 0x6A1 CALLER DUP4 PUSH2 0x1B0F JUMP JUMPDEST SWAP1 POP PUSH1 0x0 PUSH2 0x6AE DUP3 PUSH2 0x1BB0 JUMP JUMPDEST SWAP1 POP DUP1 PUSH1 0x0 SUB PUSH2 0x6D1 JUMPI PUSH1 0x40 MLOAD PUSH4 0x12D37EE5 PUSH1 0xE3 SHL DUP2 MSTORE PUSH1 0x4 ADD PUSH1 0x40 MLOAD DUP1 SWAP2 SUB SWAP1 REVERT JUMPDEST PUSH1 0x5 SLOAD DUP2 LT ISZERO PUSH2 0x6F4 JUMPI PUSH1 0x40 MLOAD PUSH4 0x7E3F2B7D PUSH1 0xE0 SHL DUP2 MSTORE PUSH1 0x4 ADD PUSH1 0x40 MLOAD DUP1 SWAP2 SUB SWAP1 REVERT JUMPDEST PUSH1 0x0 DUP1 PUSH1 0x0 SWAP1 SLOAD SWAP1 PUSH2 0x100 EXP SWAP1 DIV PUSH1 0x1 PUSH1 0x1 PUSH1 0xA0 SHL SUB AND PUSH1 0x1 PUSH1 0x1 PUSH1 0xA0 SHL SUB AND PUSH4 0x98D5FDCA PUSH1 0x40 MLOAD DUP2 PUSH4 0xFFFFFFFF AND PUSH1 0xE0 SHL DUP2 MSTORE PUSH1 0x4 ADD PUSH1 0x20 PUSH1 0x40 MLOAD DUP1 DUP4 SUB DUP2 DUP7 GAS STATICCALL ISZERO DUP1 ISZERO PUSH2 0x748 JUMPI RETURNDATASIZE PUSH1 0x0 DUP1 RETURNDATACOPY RETURNDATASIZE PUSH1 0x0 REVERT JUMPDEST POP POP POP POP PUSH1 0x40 MLOAD RETURNDATASIZE PUSH1 0x1F NOT PUSH1 0x1F DUP3 ADD AND DUP3 ADD DUP1 PUSH1 0x40 MSTORE POP DUP2 ADD SWAP1 PUSH2 0x76C SWAP2 SWAP1 PUSH2 0x2CA7 JUMP JUMPDEST SWAP1 POP DUP1 PUSH1 0x0 SUB PUSH2 0x78F JUMPI PUSH1 0x40 MLOAD PUSH4 0xCC884657 PUSH1 0xE0 SHL DUP2 MSTORE PUSH1 0x4 ADD PUSH1 0x40 MLOAD DUP1 SWAP2 SUB SWAP1 REVERT JUMPDEST PUSH1 0x0 DUP2 PUSH2 0x7A4 DUP5 PUSH8 0xDE0B6B3A7640000 PUSH2 0x2CD6 JUMP JUMPDEST PUSH2 0x7AE SWAP2 SWAP1 PUSH2 0x2D03 JUMP JUMPDEST SWAP1 POP DUP1 PUSH1 0x0 SUB PUSH2 0x7D1 JUMPI PUSH1 0x40 MLOAD PUSH4 0xCC884657 PUSH1 0xE0 SHL DUP2 MSTORE PUSH1 0x4 ADD PUSH1 0x40 MLOAD DUP1 SWAP2 SUB SWAP1 REVERT JUMPDEST PUSH1 0x40 MLOAD PUSH4 0x70A08231 PUSH1 0xE0 SHL DUP2 MSTORE ADDRESS PUSH1 0x4 DUP3 ADD MSTORE DUP2 SWAP1 PUSH32 0x0 PUSH1 0x1 PUSH1 0x1 PUSH1 0xA0 SHL SUB AND SWAP1 PUSH4 0x70A08231 SWAP1 PUSH1 0x24 ADD PUSH1 0x20 PUSH1 0x40 MLOAD DUP1 DUP4 SUB DUP2 DUP7 GAS STATICCALL ISZERO DUP1 ISZERO PUSH2 0x837 JUMPI RETURNDATASIZE PUSH1 0x0 DUP1 RETURNDATACOPY RETURNDATASIZE PUSH1 0x0 REVERT JUMPDEST POP POP POP POP PUSH1 0x40 MLOAD RETURNDATASIZE PUSH1 0x1F NOT PUSH1 0x1F DUP3 ADD AND DUP3 ADD DUP1 PUSH1 0x40 MSTORE POP DUP2 ADD SWAP1 PUSH2 0x85B SWAP2 SWAP1 PUSH2 0x2CA7 JUMP JUMPDEST LT ISZERO PUSH2 0x87A JUMPI PUSH1 0x40 MLOAD PUSH4 0x75E4645 PUSH1 0xE0 SHL DUP2 MSTORE PUSH1 0x4 ADD PUSH1 0x40 MLOAD DUP1 SWAP2 SUB SWAP1 REVERT JUMPDEST DUP3 DUP5 PUSH1 0x5 ADD PUSH1 0x0 DUP3 DUP3 SLOAD PUSH2 0x88E SWAP2 SWAP1 PUSH2 0x2D17 JUMP JUMPDEST SWAP1 SWAP2 SSTORE POP POP TIMESTAMP PUSH1 0x4 DUP6 ADD SSTORE CALLER PUSH1 0x0 SWAP1 DUP2 MSTORE PUSH1 0xA PUSH1 0x20 MSTORE PUSH1 0x40 DUP2 KECCAK256 PUSH1 0x2 ADD DUP1 SLOAD DUP6 SWAP3 SWAP1 PUSH2 0x8BB SWAP1 DUP5 SWAP1 PUSH2 0x2D17 JUMP JUMPDEST SWAP3 POP POP DUP2 SWAP1 SSTORE POP DUP3 PUSH1 0xD PUSH1 0x0 DUP3 DUP3 SLOAD PUSH2 0x8D4 SWAP2 SWAP1 PUSH2 0x2D17 JUMP JUMPDEST SWAP1 SWAP2 SSTORE POP POP PUSH1 0x6 DUP5 ADD SLOAD PUSH1 0x5 DUP6 ADD SLOAD LT PUSH2 0x946 JUMPI PUSH1 0x7 DUP5 ADD DUP1 SLOAD PUSH1 0xFF NOT AND SWAP1 SSTORE DUP4 SLOAD CALLER PUSH1 0x0 SWAP1 DUP2 MSTORE PUSH1 0xA PUSH1 0x20 MSTORE PUSH1 0x40 DUP2 KECCAK256 DUP1 SLOAD SWAP1 SWAP2 SWAP1 PUSH2 0x915 SWAP1 DUP5 SWAP1 PUSH2 0x2D2A JUMP JUMPDEST SWAP1 SWAP2 SSTORE POP POP PUSH1 0x40 MLOAD CALLER SWAP1 PUSH32 0xFA1EB7BA4F65747C7C8882031EB92D63B6FCB684B75052185312FBE1A488D943 SWAP1 PUSH1 0x0 SWAP1 LOG2 JUMPDEST PUSH2 0x97A PUSH1 0x1 PUSH1 0x1 PUSH1 0xA0 SHL SUB PUSH32 0x0 AND CALLER DUP4 PUSH2 0x1E03 JUMP JUMPDEST PUSH1 0x1 SLOAD PUSH1 0x1 PUSH1 0x1 PUSH1 0xA0 SHL SUB AND ISZERO DUP1 ISZERO SWAP1 PUSH2 0x994 JUMPI POP PUSH1 0x0 DUP4 GT JUMPDEST ISZERO PUSH2 0xB13 JUMPI PUSH1 0x1 SLOAD PUSH1 0x40 MLOAD PUSH4 0x8000D991 PUSH1 0xE0 SHL DUP2 MSTORE CALLER PUSH1 0x4 DUP3 ADD MSTORE PUSH1 0x24 DUP2 ADD DUP6 SWAP1 MSTORE PUSH1 0x0 SWAP2 PUSH1 0x1 PUSH1 0x1 PUSH1 0xA0 SHL SUB AND SWAP1 PUSH4 0x8000D991 SWAP1 PUSH1 0x44 ADD PUSH1 0x20 PUSH1 0x40 MLOAD DUP1 DUP4 SUB DUP2 PUSH1 0x0 DUP8 GAS CALL ISZERO DUP1 ISZERO PUSH2 0x9EB JUMPI RETURNDATASIZE PUSH1 0x0 DUP1 RETURNDATACOPY RETURNDATASIZE PUSH1 0x0 REVERT JUMPDEST POP POP POP POP PUSH1 0x40 MLOAD RETURNDATASIZE PUSH1 0x1F NOT PUSH1 0x1F DUP3 ADD AND DUP3 ADD DUP1 PUSH1 0x40 MSTORE POP DUP2 ADD SWAP1 PUSH2 0xA0F SWAP2 SWAP1 PUSH2 0x2CA7 JUMP JUMPDEST SWAP1 POP DUP1 ISZERO PUSH2 0xB11 JUMPI PUSH1 0x0 DUP4 PUSH2 0xA2C DUP4 PUSH8 0xDE0B6B3A7640000 PUSH2 0x2CD6 JUMP JUMPDEST PUSH2 0xA36 SWAP2 SWAP1 PUSH2 0x2D03 JUMP JUMPDEST SWAP1 POP PUSH1 0x0 DUP2 GT DUP1 ISZERO PUSH2 0xAD0 JUMPI POP PUSH1 0x40 MLOAD PUSH4 0x70A08231 PUSH1 0xE0 SHL DUP2 MSTORE ADDRESS PUSH1 0x4 DUP3 ADD MSTORE DUP2 SWAP1 PUSH32 0x0 PUSH1 0x1 PUSH1 0x1 PUSH1 0xA0 SHL SUB AND SWAP1 PUSH4 0x70A08231 SWAP1 PUSH1 0x24 ADD PUSH1 0x20 PUSH1 0x40 MLOAD DUP1 DUP4 SUB DUP2 DUP7 GAS STATICCALL ISZERO DUP1 ISZERO PUSH2 0xAA9 JUMPI RETURNDATASIZE PUSH1 0x0 DUP1 RETURNDATACOPY RETURNDATASIZE PUSH1 0x0 REVERT JUMPDEST POP POP POP POP PUSH1 0x40 MLOAD RETURNDATASIZE PUSH1 0x1F NOT PUSH1 0x1F DUP3 ADD AND DUP3 ADD DUP1 PUSH1 0x40 MSTORE POP DUP2 ADD SWAP1 PUSH2 0xACD SWAP2 SWAP1 PUSH2 0x2CA7 JUMP JUMPDEST LT ISZERO JUMPDEST ISZERO PUSH2 0xB0F JUMPI PUSH1 0x1 SLOAD PUSH2 0xB0F SWAP1 PUSH1 0x1 PUSH1 0x1 PUSH1 0xA0 SHL SUB PUSH32 0x0 DUP2 AND SWAP2 AND DUP4 PUSH2 0x1E03 JUMP JUMPDEST POP JUMPDEST POP JUMPDEST PUSH1 0x40 DUP1 MLOAD DUP5 DUP2 MSTORE PUSH1 0x20 DUP2 ADD DUP4 SWAP1 MSTORE SWAP1 DUP2 ADD DUP7 SWAP1 MSTORE CALLER SWAP1 PUSH32 0x56253D287EFACDB2C4CD76DD03624A4821C1CE721D1152E8F5F5718F6087C9BF SWAP1 PUSH1 0x60 ADD PUSH1 0x40 MLOAD DUP1 SWAP2 SUB SWAP1 LOG2 CALLER PUSH1 0x0 DUP2 DUP2 MSTORE PUSH1 0xA PUSH1 0x20 SWAP1 DUP2 MSTORE PUSH1 0x40 SWAP2 DUP3 SWAP1 KECCAK256 PUSH1 0x2 ADD SLOAD SWAP2 MLOAD SWAP2 DUP3 MSTORE PUSH32 0xDAD0E43AFDD45DACA2566E861FF76F0250960D86947518722C83B1E03F45EDD5 SWAP2 ADD JUMPDEST PUSH1 0x40 MLOAD DUP1 SWAP2 SUB SWAP1 LOG2 POP POP POP POP PUSH2 0xBB9 PUSH1 0x1 PUSH1 0x0 DUP1 MLOAD PUSH1 0x20 PUSH2 0x2DC2 DUP4 CODECOPY DUP2 MLOAD SWAP2 MSTORE SSTORE JUMP JUMPDEST POP JUMP JUMPDEST PUSH1 0x4 SLOAD PUSH1 0x1 PUSH1 0x1 PUSH1 0xA0 SHL SUB AND CALLER EQ PUSH2 0xBE7 JUMPI PUSH1 0x40 MLOAD PUSH4 0xE05F485 PUSH1 0xE1 SHL DUP2 MSTORE PUSH1 0x4 ADD PUSH1 0x40 MLOAD DUP1 SWAP2 SUB SWAP1 REVERT JUMPDEST PUSH1 0x4 DUP1 SLOAD DUP3 ISZERO ISZERO PUSH1 0x1 PUSH1 0xA8 SHL MUL PUSH1 0xFF PUSH1 0xA8 SHL NOT SWAP1 SWAP2 AND OR SWAP1 SSTORE PUSH1 0x40 MLOAD PUSH32 0x5EF34F53269A04B5B817E5BE24A51BA6B477118B399EC9DD5B2BAF5B299563DC SWAP1 PUSH2 0xC34 SWAP1 DUP4 ISZERO ISZERO DUP2 MSTORE PUSH1 0x20 ADD SWAP1 JUMP JUMPDEST PUSH1 0x40 MLOAD DUP1 SWAP2 SUB SWAP1 LOG1 POP JUMP JUMPDEST PUSH1 0x4 SLOAD PUSH1 0x1 PUSH1 0xA0 SHL SWAP1 DIV PUSH1 0xFF AND ISZERO PUSH2 0xC81 JUMPI PUSH1 0x4 SLOAD PUSH1 0x1 PUSH1 0x1 PUSH1 0xA0 SHL SUB AND CALLER EQ PUSH2 0xC7C JUMPI PUSH1 0x40 MLOAD PUSH4 0xE05F485 PUSH1 0xE1 SHL DUP2 MSTORE PUSH1 0x4 ADD PUSH1 0x40 MLOAD DUP1 SWAP2 SUB SWAP1 REVERT JUMPDEST PUSH2 0xCAC JUMP JUMPDEST PUSH1 0x3 SLOAD PUSH1 0x1 PUSH1 0x1 PUSH1 0xA0 SHL SUB AND CALLER EQ PUSH2 0xCAC JUMPI PUSH1 0x40 MLOAD PUSH4 0x47556579 PUSH1 0xE0 SHL DUP2 MSTORE PUSH1 0x4 ADD PUSH1 0x40 MLOAD DUP1 SWAP2 SUB SWAP1 REVERT JUMPDEST PUSH1 0x1 PUSH1 0x1 PUSH1 0xA0 SHL SUB DUP4 AND ISZERO DUP1 PUSH2 0xCC9 JUMPI POP PUSH1 0x1 PUSH1 0x1 PUSH1 0xA0 SHL SUB DUP3 AND ISZERO JUMPDEST DUP1 PUSH2 0xCDB JUMPI POP PUSH1 0x1 PUSH1 0x1 PUSH1 0xA0 SHL SUB DUP2 AND ISZERO JUMPDEST ISZERO PUSH2 0xCF9 JUMPI PUSH1 0x40 MLOAD PUSH4 0xD92E233D PUSH1 0xE0 SHL DUP2 MSTORE PUSH1 0x4 ADD PUSH1 0x40 MLOAD DUP1 SWAP2 SUB SWAP1 REVERT JUMPDEST PUSH1 0x6 DUP1 SLOAD PUSH1 0x1 PUSH1 0x1 PUSH1 0xA0 SHL SUB SWAP5 DUP6 AND PUSH1 0x1 PUSH1 0x1 PUSH1 0xA0 SHL SUB NOT SWAP2 DUP3 AND OR SWAP1 SWAP2 SSTORE PUSH1 0x7 DUP1 SLOAD SWAP4 DUP6 AND SWAP4 DUP3 AND SWAP4 SWAP1 SWAP4 OR SWAP1 SWAP3 SSTORE PUSH1 0x8 DUP1 SLOAD SWAP2 SWAP1 SWAP4 AND SWAP2 AND OR SWAP1 SSTORE JUMP JUMPDEST PUSH1 0x3 SLOAD PUSH1 0x1 PUSH1 0x1 PUSH1 0xA0 SHL SUB AND CALLER EQ PUSH2 0xD63 JUMPI PUSH1 0x40 MLOAD PUSH4 0x47556579 PUSH1 0xE0 SHL DUP2 MSTORE PUSH1 0x4 ADD PUSH1 0x40 MLOAD DUP1 SWAP2 SUB SWAP1 REVERT JUMPDEST DUP3 DUP2 EQ PUSH2 0xDA9 JUMPI PUSH1 0x40 MLOAD PUSH3 0x461BCD PUSH1 0xE5 SHL DUP2 MSTORE PUSH1 0x20 PUSH1 0x4 DUP3 ADD MSTORE PUSH1 0xF PUSH1 0x24 DUP3 ADD MSTORE PUSH15 0x98CADCCEE8D040DAD2E6DAC2E8C6D PUSH1 0x8B SHL PUSH1 0x44 DUP3 ADD MSTORE PUSH1 0x64 ADD JUMPDEST PUSH1 0x40 MLOAD DUP1 SWAP2 SUB SWAP1 REVERT JUMPDEST PUSH1 0x0 JUMPDEST DUP4 DUP2 LT ISZERO PUSH2 0xE1D JUMPI DUP3 DUP3 DUP3 DUP2 DUP2 LT PUSH2 0xDC6 JUMPI PUSH2 0xDC6 PUSH2 0x2D3D JUMP JUMPDEST SWAP1 POP PUSH1 0x20 MUL ADD CALLDATALOAD PUSH1 0xA PUSH1 0x0 DUP8 DUP8 DUP6 DUP2 DUP2 LT PUSH2 0xDE3 JUMPI PUSH2 0xDE3 PUSH2 0x2D3D JUMP JUMPDEST SWAP1 POP PUSH1 0x20 MUL ADD PUSH1 0x20 DUP2 ADD SWAP1 PUSH2 0xDF8 SWAP2 SWAP1 PUSH2 0x2A72 JUMP JUMPDEST PUSH1 0x1 PUSH1 0x1 PUSH1 0xA0 SHL SUB AND DUP2 MSTORE PUSH1 0x20 DUP2 ADD SWAP2 SWAP1 SWAP2 MSTORE PUSH1 0x40 ADD PUSH1 0x0 KECCAK256 PUSH1 0x2 ADD SSTORE PUSH1 0x1 ADD PUSH2 0xDAC JUMP JUMPDEST POP POP POP POP POP JUMP JUMPDEST PUSH1 0x4 SLOAD PUSH1 0x1 PUSH1 0x1 PUSH1 0xA0 SHL SUB AND CALLER EQ PUSH2 0xE4F JUMPI PUSH1 0x40 MLOAD PUSH4 0xE05F485 PUSH1 0xE1 SHL DUP2 MSTORE PUSH1 0x4 ADD PUSH1 0x40 MLOAD DUP1 SWAP2 SUB SWAP1 REVERT JUMPDEST PUSH1 0x5 SSTORE JUMP JUMPDEST PUSH1 0x3 SLOAD PUSH1 0x1 PUSH1 0x1 PUSH1 0xA0 SHL SUB AND CALLER EQ PUSH2 0xE7F JUMPI PUSH1 0x40 MLOAD PUSH4 0x47556579 PUSH1 0xE0 SHL DUP2 MSTORE PUSH1 0x4 ADD PUSH1 0x40 MLOAD DUP1 SWAP2 SUB SWAP1 REVERT JUMPDEST PUSH1 0x4 SLOAD PUSH1 0x1 PUSH1 0xA0 SHL SWAP1 DIV PUSH1 0xFF AND ISZERO PUSH2 0xEAA JUMPI PUSH1 0x40 MLOAD PUSH4 0x238F75D3 PUSH1 0xE0 SHL DUP2 MSTORE PUSH1 0x4 ADD PUSH1 0x40 MLOAD DUP1 SWAP2 SUB SWAP1 REVERT JUMPDEST PUSH1 0x1 PUSH1 0x1 PUSH1 0xA0 SHL SUB DUP5 AND PUSH2 0xED1 JUMPI PUSH1 0x40 MLOAD PUSH4 0xD92E233D PUSH1 0xE0 SHL DUP2 MSTORE PUSH1 0x4 ADD PUSH1 0x40 MLOAD DUP1 SWAP2 SUB SWAP1 REVERT JUMPDEST PUSH1 0x0 DUP1 SLOAD PUSH1 0x1 PUSH1 0x1 PUSH1 0xA0 SHL SUB SWAP6 DUP7 AND PUSH1 0x1 PUSH1 0x1 PUSH1 0xA0 SHL SUB NOT SWAP2 DUP3 AND OR SWAP1 SWAP2 SSTORE PUSH1 0x1 DUP1 SLOAD SWAP5 DUP7 AND SWAP5 DUP3 AND SWAP5 SWAP1 SWAP5 OR SWAP1 SWAP4 SSTORE PUSH1 0x2 DUP1 SLOAD SWAP3 DUP6 AND SWAP3 DUP5 AND SWAP3 SWAP1 SWAP3 OR SWAP1 SWAP2 SSTORE PUSH1 0x4 DUP1 SLOAD SWAP2 SWAP1 SWAP4 AND SWAP2 AND OR SWAP1 SSTORE JUMP JUMPDEST PUSH1 0x1 SLOAD PUSH1 0x1 PUSH1 0x1 PUSH1 0xA0 SHL SUB AND CALLER EQ PUSH2 0xF4C JUMPI PUSH1 0x40 MLOAD PUSH4 0x3864B1E5 PUSH1 0xE2 SHL DUP2 MSTORE PUSH1 0x4 ADD PUSH1 0x40 MLOAD DUP1 SWAP2 SUB SWAP1 REVERT JUMPDEST PUSH1 0x1 PUSH1 0x1 PUSH1 0xA0 SHL SUB DUP3 AND PUSH1 0x0 SWAP1 DUP2 MSTORE PUSH1 0xA PUSH1 0x20 MSTORE PUSH1 0x40 DUP2 KECCAK256 PUSH1 0x2 ADD DUP1 SLOAD DUP4 SWAP3 SWAP1 PUSH2 0xF77 SWAP1 DUP5 SWAP1 PUSH2 0x2D17 JUMP JUMPDEST SWAP1 SWAP2 SSTORE POP POP PUSH1 0x1 PUSH1 0x1 PUSH1 0xA0 SHL SUB DUP3 AND PUSH1 0x0 DUP2 DUP2 MSTORE PUSH1 0xA PUSH1 0x20 SWAP1 DUP2 MSTORE PUSH1 0x40 SWAP2 DUP3 SWAP1 KECCAK256 PUSH1 0x2 ADD SLOAD SWAP2 MLOAD SWAP2 DUP3 MSTORE PUSH32 0xDAD0E43AFDD45DACA2566E861FF76F0250960D86947518722C83B1E03F45EDD5 SWAP2 ADD PUSH1 0x40 MLOAD DUP1 SWAP2 SUB SWAP1 LOG2 POP POP JUMP JUMPDEST PUSH1 0x1 PUSH1 0x1 PUSH1 0xA0 SHL SUB DUP3 AND PUSH1 0x0 SWAP1 DUP2 MSTORE PUSH1 0x9 PUSH1 0x20 MSTORE PUSH1 0x40 DUP2 KECCAK256 SLOAD DUP3 LT PUSH2 0xFF7 JUMPI POP PUSH1 0x0 PUSH2 0x1064 JUMP JUMPDEST PUSH1 0x1 PUSH1 0x1 PUSH1 0xA0 SHL SUB DUP4 AND PUSH1 0x0 SWAP1 DUP2 MSTORE PUSH1 0x9 PUSH1 0x20 MSTORE PUSH1 0x40 DUP2 KECCAK256 DUP1 SLOAD DUP5 SWAP1 DUP2 LT PUSH2 0x1021 JUMPI PUSH2 0x1021 PUSH2 0x2D3D JUMP JUMPDEST PUSH1 0x0 SWAP2 DUP3 MSTORE PUSH1 0x20 SWAP1 SWAP2 KECCAK256 PUSH1 0x8 SWAP1 SWAP2 MUL ADD PUSH1 0x7 DUP2 ADD SLOAD SWAP1 SWAP2 POP PUSH1 0xFF AND PUSH2 0x104A JUMPI PUSH1 0x0 SWAP2 POP POP PUSH2 0x1064 JUMP JUMPDEST PUSH3 0xD2F00 DUP2 PUSH1 0x3 ADD SLOAD PUSH2 0x105D SWAP2 SWAP1 PUSH2 0x2D17 JUMP JUMPDEST TIMESTAMP GT ISZERO SWAP2 POP POP JUMPDEST SWAP3 SWAP2 POP POP JUMP JUMPDEST PUSH1 0x3 SLOAD PUSH1 0x1 PUSH1 0x1 PUSH1 0xA0 SHL SUB AND CALLER EQ PUSH2 0x1095 JUMPI PUSH1 0x40 MLOAD PUSH4 0x47556579 PUSH1 0xE0 SHL DUP2 MSTORE PUSH1 0x4 ADD PUSH1 0x40 MLOAD DUP1 SWAP2 SUB SWAP1 REVERT JUMPDEST PUSH1 0x0 JUMPDEST DUP2 DUP2 LT ISZERO PUSH2 0x1251 JUMPI CALLDATASIZE DUP4 DUP4 DUP4 DUP2 DUP2 LT PUSH2 0x10B3 JUMPI PUSH2 0x10B3 PUSH2 0x2D3D JUMP JUMPDEST PUSH2 0x100 MUL SWAP2 SWAP1 SWAP2 ADD SWAP2 POP PUSH1 0x9 SWAP1 POP PUSH1 0x0 PUSH2 0x10D0 PUSH1 0x20 DUP5 ADD DUP5 PUSH2 0x2A72 JUMP JUMPDEST PUSH1 0x1 PUSH1 0x1 PUSH1 0xA0 SHL SUB AND DUP2 MSTORE PUSH1 0x20 DUP1 DUP3 ADD SWAP3 SWAP1 SWAP3 MSTORE PUSH1 0x40 SWAP1 DUP2 ADD PUSH1 0x0 SWAP1 DUP2 KECCAK256 DUP3 MLOAD PUSH2 0x100 DUP2 ADD DUP5 MSTORE DUP6 DUP6 ADD DUP1 CALLDATALOAD DUP1 DUP4 MSTORE DUP8 DUP7 ADD CALLDATALOAD DUP4 DUP9 ADD SWAP1 DUP2 MSTORE PUSH1 0x60 DUP1 DUP11 ADD CALLDATALOAD SWAP8 DUP6 ADD SWAP8 DUP9 MSTORE PUSH1 0x80 DUP1 DUP12 ADD CALLDATALOAD SWAP2 DUP7 ADD SWAP2 DUP3 MSTORE PUSH1 0xA0 DUP1 DUP13 ADD CALLDATALOAD SWAP2 DUP8 ADD SWAP2 DUP3 MSTORE PUSH1 0xC0 DUP1 DUP14 ADD CALLDATALOAD SWAP2 DUP9 ADD SWAP2 DUP3 MSTORE PUSH1 0xE0 DUP1 DUP15 ADD CALLDATALOAD SWAP2 DUP10 ADD SWAP2 DUP3 MSTORE PUSH1 0x1 SWAP1 DUP10 ADD DUP2 DUP2 MSTORE DUP11 SLOAD DUP1 DUP4 ADD DUP13 SSTORE SWAP11 DUP13 MSTORE SWAP13 DUP12 KECCAK256 SWAP9 MLOAD PUSH1 0x8 SWAP1 SWAP11 MUL SWAP1 SWAP9 ADD SWAP9 DUP10 SSTORE SWAP4 MLOAD SWAP7 DUP9 ADD SWAP7 SWAP1 SWAP7 SSTORE SWAP8 MLOAD PUSH1 0x2 DUP8 ADD SSTORE MLOAD PUSH1 0x3 DUP7 ADD SSTORE SWAP6 MLOAD PUSH1 0x4 DUP6 ADD SSTORE SWAP2 MLOAD PUSH1 0x5 DUP5 ADD SSTORE SWAP4 MLOAD PUSH1 0x6 DUP4 ADD SSTORE SWAP4 MLOAD PUSH1 0x7 SWAP1 SWAP2 ADD DUP1 SLOAD PUSH1 0xFF NOT AND SWAP2 ISZERO ISZERO SWAP2 SWAP1 SWAP2 OR SWAP1 SSTORE PUSH1 0xA SWAP2 PUSH2 0x11B5 SWAP1 DUP6 PUSH2 0x2A72 JUMP JUMPDEST PUSH1 0x1 PUSH1 0x1 PUSH1 0xA0 SHL SUB AND PUSH1 0x1 PUSH1 0x1 PUSH1 0xA0 SHL SUB AND DUP2 MSTORE PUSH1 0x20 ADD SWAP1 DUP2 MSTORE PUSH1 0x20 ADD PUSH1 0x0 KECCAK256 PUSH1 0x0 ADD PUSH1 0x0 DUP3 DUP3 SLOAD PUSH2 0x11E7 SWAP2 SWAP1 PUSH2 0x2D17 JUMP JUMPDEST SWAP1 SWAP2 SSTORE POP PUSH1 0xA SWAP1 POP PUSH1 0x0 PUSH2 0x11FE PUSH1 0x20 DUP5 ADD DUP5 PUSH2 0x2A72 JUMP JUMPDEST PUSH1 0x1 PUSH1 0x1 PUSH1 0xA0 SHL SUB AND DUP2 MSTORE PUSH1 0x20 DUP2 ADD SWAP2 SWAP1 SWAP2 MSTORE PUSH1 0x40 ADD PUSH1 0x0 SWAP1 DUP2 KECCAK256 PUSH1 0x1 ADD DUP1 SLOAD SWAP2 PUSH2 0x1228 DUP4 PUSH2 0x2D53 JUMP JUMPDEST SWAP2 SWAP1 POP SSTORE POP DUP1 PUSH1 0x20 ADD CALLDATALOAD PUSH1 0xB PUSH1 0x0 DUP3 DUP3 SLOAD PUSH2 0x1243 SWAP2 SWAP1 PUSH2 0x2D17 JUMP JUMPDEST SWAP1 SWAP2 SSTORE POP POP POP PUSH1 0x1 ADD PUSH2 0x1098 JUMP JUMPDEST POP POP POP JUMP JUMPDEST PUSH1 0x3 SLOAD PUSH1 0x1 PUSH1 0x1 PUSH1 0xA0 SHL SUB AND CALLER EQ PUSH2 0x1281 JUMPI PUSH1 0x40 MLOAD PUSH4 0x47556579 PUSH1 0xE0 SHL DUP2 MSTORE PUSH1 0x4 ADD PUSH1 0x40 MLOAD DUP1 SWAP2 SUB SWAP1 REVERT JUMPDEST PUSH1 0x4 SLOAD PUSH1 0x1 PUSH1 0xA0 SHL SWAP1 DIV PUSH1 0xFF AND ISZERO PUSH2 0x12AC JUMPI PUSH1 0x40 MLOAD PUSH4 0x238F75D3 PUSH1 0xE0 SHL DUP2 MSTORE PUSH1 0x4 ADD PUSH1 0x40 MLOAD DUP1 SWAP2 SUB SWAP1 REVERT JUMPDEST PUSH1 0x0 SLOAD PUSH1 0x1 PUSH1 0x1 PUSH1 0xA0 SHL SUB AND PUSH2 0x12D5 JUMPI PUSH1 0x40 MLOAD PUSH4 0xD311BC39 PUSH1 0xE0 SHL DUP2 MSTORE PUSH1 0x4 ADD PUSH1 0x40 MLOAD DUP1 SWAP2 SUB SWAP1 REVERT JUMPDEST PUSH1 0x4 DUP1 SLOAD PUSH1 0xFF PUSH1 0xA0 SHL NOT AND PUSH1 0x1 PUSH1 0xA0 SHL OR SWAP1 SSTORE PUSH1 0x3 DUP1 SLOAD PUSH1 0x1 PUSH1 0x1 PUSH1 0xA0 SHL SUB NOT AND SWAP1 SSTORE JUMP JUMPDEST PUSH2 0x1302 PUSH2 0x1AF3 JUMP JUMPDEST PUSH2 0x130D CALLER DUP4 DUP4 PUSH2 0x1E38 JUMP JUMPDEST PUSH2 0x1324 PUSH1 0x1 PUSH1 0x0 DUP1 MLOAD PUSH1 0x20 PUSH2 0x2DC2 DUP4 CODECOPY DUP2 MLOAD SWAP2 MSTORE SSTORE JUMP JUMPDEST POP POP JUMP JUMPDEST PUSH1 0x4 SLOAD PUSH1 0x1 PUSH1 0x1 PUSH1 0xA0 SHL SUB AND CALLER EQ PUSH2 0x1353 JUMPI PUSH1 0x40 MLOAD PUSH4 0xE05F485 PUSH1 0xE1 SHL DUP2 MSTORE PUSH1 0x4 ADD PUSH1 0x40 MLOAD DUP1 SWAP2 SUB SWAP1 REVERT JUMPDEST PUSH1 0x1 DUP1 SLOAD PUSH1 0x1 PUSH1 0x1 PUSH1 0xA0 SHL SUB NOT AND PUSH1 0x1 PUSH1 0x1 PUSH1 0xA0 SHL SUB SWAP3 SWAP1 SWAP3 AND SWAP2 SWAP1 SWAP2 OR SWAP1 SSTORE JUMP JUMPDEST PUSH1 0x2 SLOAD PUSH1 0x1 PUSH1 0x1 PUSH1 0xA0 SHL SUB AND CALLER EQ PUSH2 0xF4C JUMPI PUSH1 0x40 MLOAD PUSH4 0x33273113 PUSH1 0xE1 SHL DUP2 MSTORE PUSH1 0x4 ADD PUSH1 0x40 MLOAD DUP1 SWAP2 SUB SWAP1 REVERT JUMPDEST PUSH2 0x13A8 PUSH2 0x1AF3 JUMP JUMPDEST PUSH1 0x4 SLOAD PUSH1 0x1 PUSH1 0xA8 SHL SWAP1 DIV PUSH1 0xFF AND ISZERO PUSH2 0x13D2 JUMPI PUSH1 0x40 MLOAD PUSH3 0x7CFE7F PUSH1 0xE3 SHL DUP2 MSTORE PUSH1 0x4 ADD PUSH1 0x40 MLOAD DUP1 SWAP2 SUB SWAP1 REVERT JUMPDEST DUP1 PUSH1 0x0 SUB PUSH2 0x13F3 JUMPI PUSH1 0x40 MLOAD PUSH4 0x2B7786BD PUSH1 0xE2 SHL DUP2 MSTORE PUSH1 0x4 ADD PUSH1 0x40 MLOAD DUP1 SWAP2 SUB SWAP1 REVERT JUMPDEST PUSH10 0x10F0CF064DD59200000 DUP2 GT ISZERO PUSH2 0x141E JUMPI PUSH1 0x40 MLOAD PUSH4 0xC066E1E9 PUSH1 0xE0 SHL DUP2 MSTORE PUSH1 0x4 ADD PUSH1 0x40 MLOAD DUP1 SWAP2 SUB SWAP1 REVERT JUMPDEST CALLER PUSH1 0x0 SWAP1 DUP2 MSTORE PUSH1 0xA PUSH1 0x20 MSTORE PUSH1 0x40 SWAP1 KECCAK256 SLOAD PUSH10 0x10F0CF064DD59200000 SWAP1 PUSH2 0x1445 SWAP1 DUP4 SWAP1 PUSH2 0x2D17 JUMP JUMPDEST GT ISZERO PUSH2 0x1464 JUMPI PUSH1 0x40 MLOAD PUSH4 0xC066E1E9 PUSH1 0xE0 SHL DUP2 MSTORE PUSH1 0x4 ADD PUSH1 0x40 MLOAD DUP1 SWAP2 SUB SWAP1 REVERT JUMPDEST PUSH1 0x0 SLOAD PUSH1 0x1 PUSH1 0x1 PUSH1 0xA0 SHL SUB AND PUSH2 0x148D JUMPI PUSH1 0x40 MLOAD PUSH4 0xD311BC39 PUSH1 0xE0 SHL DUP2 MSTORE PUSH1 0x4 ADD PUSH1 0x40 MLOAD DUP1 SWAP2 SUB SWAP1 REVERT JUMPDEST PUSH2 0x14C2 PUSH1 0x1 PUSH1 0x1 PUSH1 0xA0 SHL SUB PUSH32 0x0 AND CALLER ADDRESS DUP5 PUSH2 0x22B8 JUMP JUMPDEST PUSH1 0x6 SLOAD DUP2 SWAP1 PUSH1 0x1 PUSH1 0x1 PUSH1 0xA0 SHL SUB AND ISZERO DUP1 ISZERO SWAP1 PUSH2 0x14E8 JUMPI POP PUSH1 0x7 SLOAD PUSH1 0x1 PUSH1 0x1 PUSH1 0xA0 SHL SUB AND ISZERO ISZERO JUMPDEST DUP1 ISZERO PUSH2 0x14FE JUMPI POP PUSH1 0x8 SLOAD PUSH1 0x1 PUSH1 0x1 PUSH1 0xA0 SHL SUB AND ISZERO ISZERO JUMPDEST ISZERO PUSH2 0x162C JUMPI PUSH1 0x0 PUSH2 0x2710 PUSH2 0x1513 PUSH1 0x64 DUP6 PUSH2 0x2CD6 JUMP JUMPDEST PUSH2 0x151D SWAP2 SWAP1 PUSH2 0x2D03 JUMP JUMPDEST SWAP1 POP PUSH1 0x0 PUSH2 0x2710 PUSH2 0x152F PUSH1 0x32 DUP7 PUSH2 0x2CD6 JUMP JUMPDEST PUSH2 0x1539 SWAP2 SWAP1 PUSH2 0x2D03 JUMP JUMPDEST SWAP1 POP PUSH1 0x0 PUSH2 0x2710 PUSH2 0x154B PUSH1 0x32 DUP8 PUSH2 0x2CD6 JUMP JUMPDEST PUSH2 0x1555 SWAP2 SWAP1 PUSH2 0x2D03 JUMP JUMPDEST PUSH1 0x6 SLOAD SWAP1 SWAP2 POP PUSH2 0x1592 SWAP1 PUSH1 0x1 PUSH1 0x1 PUSH1 0xA0 SHL SUB PUSH32 0x0 DUP2 AND SWAP2 AND DUP6 PUSH2 0x1E03 JUMP JUMPDEST PUSH1 0x7 SLOAD PUSH2 0x15CC SWAP1 PUSH1 0x1 PUSH1 0x1 PUSH1 0xA0 SHL SUB PUSH32 0x0 DUP2 AND SWAP2 AND DUP5 PUSH2 0x1E03 JUMP JUMPDEST PUSH1 0x8 SLOAD PUSH2 0x1606 SWAP1 PUSH1 0x1 PUSH1 0x1 PUSH1 0xA0 SHL SUB PUSH32 0x0 DUP2 AND SWAP2 AND DUP4 PUSH2 0x1E03 JUMP JUMPDEST DUP1 DUP3 PUSH2 0x1612 DUP6 DUP9 PUSH2 0x2D2A JUMP JUMPDEST PUSH2 0x161C SWAP2 SWAP1 PUSH2 0x2D2A JUMP JUMPDEST PUSH2 0x1626 SWAP2 SWAP1 PUSH2 0x2D2A JUMP JUMPDEST SWAP4 POP POP POP POP JUMPDEST PUSH2 0x1635 DUP2 PUSH2 0x22F4 JUMP JUMPDEST PUSH1 0x0 SLOAD PUSH2 0x166F SWAP1 PUSH1 0x1 PUSH1 0x1 PUSH1 0xA0 SHL SUB PUSH32 0x0 DUP2 AND SWAP2 AND DUP4 PUSH2 0x259F JUMP JUMPDEST PUSH1 0x0 SLOAD PUSH1 0x40 MLOAD PUSH4 0x1C79D1E5 PUSH1 0xE2 SHL DUP2 MSTORE PUSH1 0x4 DUP2 ADD DUP4 SWAP1 MSTORE PUSH1 0x1 PUSH1 0x1 PUSH1 0xA0 SHL SUB SWAP1 SWAP2 AND SWAP1 PUSH4 0x71E74794 SWAP1 PUSH1 0x24 ADD PUSH1 0x20 PUSH1 0x40 MLOAD DUP1 DUP4 SUB DUP2 PUSH1 0x0 DUP8 GAS CALL ISZERO DUP1 ISZERO PUSH2 0x16BA JUMPI RETURNDATASIZE PUSH1 0x0 DUP1 RETURNDATACOPY RETURNDATASIZE PUSH1 0x0 REVERT JUMPDEST POP POP POP POP PUSH1 0x40 MLOAD RETURNDATASIZE PUSH1 0x1F NOT PUSH1 0x1F DUP3 ADD AND DUP3 ADD DUP1 PUSH1 0x40 MSTORE POP DUP2 ADD SWAP1 PUSH2 0x16DE SWAP2 SWAP1 PUSH2 0x2CA7 JUMP JUMPDEST POP PUSH1 0x0 PUSH2 0x16EA DUP4 PUSH2 0x25F3 JUMP JUMPDEST SWAP1 POP PUSH1 0x0 PUSH2 0x16F8 DUP5 TIMESTAMP PUSH2 0x2615 JUMP JUMPDEST SWAP1 POP PUSH1 0x0 PUSH2 0x1707 PUSH1 0x3 DUP7 PUSH2 0x2CD6 JUMP JUMPDEST CALLER PUSH1 0x0 DUP2 DUP2 MSTORE PUSH1 0x9 PUSH1 0x20 SWAP1 DUP2 MSTORE PUSH1 0x40 DUP1 DUP4 KECCAK256 DUP2 MLOAD PUSH2 0x100 DUP2 ADD DUP4 MSTORE DUP12 DUP2 MSTORE DUP1 DUP5 ADD DUP11 DUP2 MSTORE DUP2 DUP5 ADD DUP11 DUP2 MSTORE TIMESTAMP PUSH1 0x60 DUP5 ADD DUP2 DUP2 MSTORE PUSH1 0x80 DUP6 ADD SWAP2 DUP3 MSTORE PUSH1 0xA0 DUP6 ADD DUP10 DUP2 MSTORE PUSH1 0xC0 DUP7 ADD DUP13 DUP2 MSTORE PUSH1 0x1 PUSH1 0xE0 DUP9 ADD DUP2 DUP2 MSTORE DUP10 SLOAD DUP1 DUP4 ADD DUP12 SSTORE SWAP10 DUP14 MSTORE DUP12 DUP14 KECCAK256 SWAP9 MLOAD PUSH1 0x8 SWAP1 SWAP11 MUL SWAP1 SWAP9 ADD SWAP9 DUP10 SSTORE SWAP6 MLOAD SWAP6 DUP9 ADD SWAP6 SWAP1 SWAP6 SSTORE SWAP3 MLOAD PUSH1 0x2 DUP8 ADD SSTORE MLOAD PUSH1 0x3 DUP7 ADD SSTORE MLOAD PUSH1 0x4 DUP6 ADD SSTORE MLOAD PUSH1 0x5 DUP5 ADD SSTORE MLOAD PUSH1 0x6 DUP4 ADD SSTORE MLOAD PUSH1 0x7 SWAP1 SWAP2 ADD DUP1 SLOAD PUSH1 0xFF NOT AND SWAP2 ISZERO ISZERO SWAP2 SWAP1 SWAP2 OR SWAP1 SSTORE SWAP3 DUP3 MSTORE PUSH1 0xA SWAP1 MSTORE SWAP1 DUP2 KECCAK256 DUP1 SLOAD SWAP3 SWAP4 POP DUP8 SWAP3 SWAP1 SWAP2 SWAP1 PUSH2 0x17CD SWAP1 DUP5 SWAP1 PUSH2 0x2D17 JUMP JUMPDEST SWAP1 SWAP2 SSTORE POP POP CALLER PUSH1 0x0 SWAP1 DUP2 MSTORE PUSH1 0xA PUSH1 0x20 MSTORE PUSH1 0x40 DUP2 KECCAK256 PUSH1 0x1 ADD DUP1 SLOAD SWAP2 PUSH2 0x17F0 DUP4 PUSH2 0x2D53 JUMP JUMPDEST SWAP2 SWAP1 POP SSTORE POP DUP5 PUSH1 0xB PUSH1 0x0 DUP3 DUP3 SLOAD PUSH2 0x1807 SWAP2 SWAP1 PUSH2 0x2D17 JUMP JUMPDEST SWAP1 SWAP2 SSTORE POP POP PUSH1 0x1 SLOAD PUSH1 0x1 PUSH1 0x1 PUSH1 0xA0 SHL SUB AND ISZERO PUSH2 0x195C JUMPI PUSH1 0x1 SLOAD PUSH1 0x40 MLOAD PUSH4 0x95CE44B PUSH1 0xE2 SHL DUP2 MSTORE CALLER PUSH1 0x4 DUP3 ADD MSTORE PUSH1 0x1 PUSH1 0x1 PUSH1 0xA0 SHL SUB SWAP1 SWAP2 AND SWAP1 PUSH4 0x2573912C SWAP1 PUSH1 0x24 ADD PUSH1 0x0 PUSH1 0x40 MLOAD DUP1 DUP4 SUB DUP2 PUSH1 0x0 DUP8 DUP1 EXTCODESIZE ISZERO DUP1 ISZERO PUSH2 0x1862 JUMPI PUSH1 0x0 DUP1 REVERT JUMPDEST POP GAS CALL ISZERO DUP1 ISZERO PUSH2 0x1876 JUMPI RETURNDATASIZE PUSH1 0x0 DUP1 RETURNDATACOPY RETURNDATASIZE PUSH1 0x0 REVERT JUMPDEST POP POP PUSH1 0x1 SLOAD PUSH1 0x40 MLOAD PUSH4 0x4A9FEFC7 PUSH1 0xE0 SHL DUP2 MSTORE CALLER PUSH1 0x4 DUP3 ADD MSTORE PUSH1 0x0 SWAP4 POP PUSH1 0x1 PUSH1 0x1 PUSH1 0xA0 SHL SUB SWAP1 SWAP2 AND SWAP2 POP PUSH4 0x4A9FEFC7 SWAP1 PUSH1 0x24 ADD PUSH1 0x20 PUSH1 0x40 MLOAD DUP1 DUP4 SUB DUP2 DUP7 GAS STATICCALL ISZERO DUP1 ISZERO PUSH2 0x18C5 JUMPI RETURNDATASIZE PUSH1 0x0 DUP1 RETURNDATACOPY RETURNDATASIZE PUSH1 0x0 REVERT JUMPDEST POP POP POP POP PUSH1 0x40 MLOAD RETURNDATASIZE PUSH1 0x1F NOT PUSH1 0x1F DUP3 ADD AND DUP3 ADD DUP1 PUSH1 0x40 MSTORE POP DUP2 ADD SWAP1 PUSH2 0x18E9 SWAP2 SWAP1 PUSH2 0x2D6C JUMP JUMPDEST SWAP1 POP PUSH1 0x1 PUSH1 0x1 PUSH1 0xA0 SHL SUB DUP2 AND ISZERO PUSH2 0x195A JUMPI PUSH1 0x1 SLOAD PUSH1 0x40 MLOAD PUSH4 0x95CE44B PUSH1 0xE2 SHL DUP2 MSTORE PUSH1 0x1 PUSH1 0x1 PUSH1 0xA0 SHL SUB DUP4 DUP2 AND PUSH1 0x4 DUP4 ADD MSTORE SWAP1 SWAP2 AND SWAP1 PUSH4 0x2573912C SWAP1 PUSH1 0x24 ADD PUSH1 0x0 PUSH1 0x40 MLOAD DUP1 DUP4 SUB DUP2 PUSH1 0x0 DUP8 DUP1 EXTCODESIZE ISZERO DUP1 ISZERO PUSH2 0x1941 JUMPI PUSH1 0x0 DUP1 REVERT JUMPDEST POP GAS CALL ISZERO DUP1 ISZERO PUSH2 0x1955 JUMPI RETURNDATASIZE PUSH1 0x0 DUP1 RETURNDATACOPY RETURNDATASIZE PUSH1 0x0 REVERT JUMPDEST POP POP POP POP JUMPDEST POP JUMPDEST PUSH1 0x2 SLOAD PUSH1 0x1 PUSH1 0x1 PUSH1 0xA0 SHL SUB AND ISZERO DUP1 ISZERO SWAP1 PUSH2 0x1980 JUMPI POP PUSH1 0x1 SLOAD PUSH1 0x1 PUSH1 0x1 PUSH1 0xA0 SHL SUB AND ISZERO ISZERO JUMPDEST ISZERO PUSH2 0x198F JUMPI PUSH2 0x198F CALLER DUP7 PUSH2 0x26B4 JUMP JUMPDEST CALLER PUSH1 0x0 DUP2 DUP2 MSTORE PUSH1 0x9 PUSH1 0x20 MSTORE PUSH1 0x40 SWAP1 KECCAK256 SLOAD PUSH32 0xE3B53CD1A44FBF11535E145D80B8EF1ED6D57A73BF5DAA7E939B6B01657D6549 SWAP1 DUP8 SWAP1 DUP7 SWAP1 DUP7 SWAP1 PUSH2 0x19D3 SWAP1 PUSH1 0x1 SWAP1 PUSH2 0x2D2A JUMP JUMPDEST PUSH1 0x40 DUP1 MLOAD SWAP5 DUP6 MSTORE PUSH1 0x20 DUP6 ADD SWAP4 SWAP1 SWAP4 MSTORE SWAP2 DUP4 ADD MSTORE PUSH1 0x60 DUP3 ADD MSTORE PUSH1 0x80 ADD PUSH2 0xB96 JUMP JUMPDEST PUSH2 0x19FB PUSH2 0x1AF3 JUMP JUMPDEST PUSH2 0x1A08 CALLER DUP3 PUSH2 0x2710 PUSH2 0x1E38 JUMP JUMPDEST PUSH2 0xBB9 PUSH1 0x1 PUSH1 0x0 DUP1 MLOAD PUSH1 0x20 PUSH2 0x2DC2 DUP4 CODECOPY DUP2 MLOAD SWAP2 MSTORE SSTORE JUMP JUMPDEST PUSH1 0x1 PUSH1 0x1 PUSH1 0xA0 SHL SUB DUP2 AND PUSH1 0x0 SWAP1 DUP2 MSTORE PUSH1 0xA PUSH1 0x20 MSTORE PUSH1 0x40 DUP2 KECCAK256 SLOAD DUP2 SUB PUSH2 0x1A46 JUMPI POP PUSH1 0x0 SWAP2 SWAP1 POP JUMP JUMPDEST PUSH1 0x1 PUSH1 0x1 PUSH1 0xA0 SHL SUB DUP3 AND PUSH1 0x0 SWAP1 DUP2 MSTORE PUSH1 0xA PUSH1 0x20 MSTORE PUSH1 0x40 SWAP1 KECCAK256 SLOAD PUSH2 0x1064 SWAP1 PUSH2 0x25F3 JUMP JUMPDEST PUSH1 0x1 PUSH1 0x1 PUSH1 0xA0 SHL SUB DUP3 AND PUSH1 0x0 SWAP1 DUP2 MSTORE PUSH1 0x9 PUSH1 0x20 MSTORE PUSH1 0x40 DUP2 KECCAK256 SLOAD DUP3 LT PUSH2 0x1A8F JUMPI POP PUSH1 0x0 PUSH2 0x1064 JUMP JUMPDEST PUSH1 0x1 PUSH1 0x1 PUSH1 0xA0 SHL SUB DUP4 AND PUSH1 0x0 SWAP1 DUP2 MSTORE PUSH1 0x9 PUSH1 0x20 MSTORE PUSH1 0x40 DUP2 KECCAK256 DUP1 SLOAD DUP5 SWAP1 DUP2 LT PUSH2 0x1AB9 JUMPI PUSH2 0x1AB9 PUSH2 0x2D3D JUMP JUMPDEST PUSH1 0x0 SWAP2 DUP3 MSTORE PUSH1 0x20 SWAP1 SWAP2 KECCAK256 PUSH1 0x8 SWAP1 SWAP2 MUL ADD PUSH1 0x7 DUP2 ADD SLOAD SWAP1 SWAP2 POP PUSH1 0xFF AND PUSH2 0x1AE2 JUMPI PUSH1 0x0 SWAP2 POP POP PUSH2 0x1064 JUMP JUMPDEST PUSH2 0x1AEB DUP2 PUSH2 0x1BB0 JUMP JUMPDEST SWAP5 SWAP4 POP POP POP POP JUMP JUMPDEST PUSH2 0x1AFB PUSH2 0x27ED JUMP JUMPDEST PUSH1 0x2 PUSH1 0x0 DUP1 MLOAD PUSH1 0x20 PUSH2 0x2DC2 DUP4 CODECOPY DUP2 MLOAD SWAP2 MSTORE SSTORE JUMP JUMPDEST PUSH1 0x1 PUSH1 0x1 PUSH1 0xA0 SHL SUB DUP3 AND PUSH1 0x0 SWAP1 DUP2 MSTORE PUSH1 0x9 PUSH1 0x20 MSTORE PUSH1 0x40 DUP2 KECCAK256 SLOAD DUP3 LT PUSH2 0x1B47 JUMPI PUSH1 0x40 MLOAD PUSH4 0x5972996F PUSH1 0xE1 SHL DUP2 MSTORE PUSH1 0x4 ADD PUSH1 0x40 MLOAD DUP1 SWAP2 SUB SWAP1 REVERT JUMPDEST PUSH1 0x1 PUSH1 0x1 PUSH1 0xA0 SHL SUB DUP4 AND PUSH1 0x0 SWAP1 DUP2 MSTORE PUSH1 0x9 PUSH1 0x20 MSTORE PUSH1 0x40 DUP2 KECCAK256 DUP1 SLOAD DUP5 SWAP1 DUP2 LT PUSH2 0x1B71 JUMPI PUSH2 0x1B71 PUSH2 0x2D3D JUMP JUMPDEST PUSH1 0x0 SWAP2 DUP3 MSTORE PUSH1 0x20 SWAP1 SWAP2 KECCAK256 PUSH1 0x8 SWAP1 SWAP2 MUL ADD PUSH1 0x7 DUP2 ADD SLOAD SWAP1 SWAP2 POP PUSH1 0xFF AND PUSH2 0x1BA9 JUMPI PUSH1 0x40 MLOAD PUSH4 0x5A2E885 PUSH1 0xE2 SHL DUP2 MSTORE PUSH1 0x4 ADD PUSH1 0x40 MLOAD DUP1 SWAP2 SUB SWAP1 REVERT JUMPDEST SWAP4 SWAP3 POP POP POP JUMP JUMPDEST PUSH1 0x7 DUP2 ADD SLOAD PUSH1 0x0 SWAP1 PUSH1 0xFF AND PUSH2 0x1BC7 JUMPI POP PUSH1 0x0 SWAP2 SWAP1 POP JUMP JUMPDEST PUSH1 0x4 DUP3 ADD SLOAD TIMESTAMP DUP2 DUP2 GT PUSH2 0x1BDE JUMPI POP PUSH1 0x0 SWAP4 SWAP3 POP POP POP JUMP JUMPDEST PUSH1 0x0 PUSH2 0x1BEA DUP4 DUP4 PUSH2 0x2D2A JUMP JUMPDEST DUP6 SLOAD SWAP1 SWAP2 POP PUSH3 0x76A700 PUSH2 0x1C1D PUSH32 0x0 DUP6 PUSH2 0x2D2A JUMP JUMPDEST LT PUSH2 0x1C58 JUMPI PUSH2 0x1C31 PUSH2 0x2710 PUSH3 0x15180 PUSH2 0x2CD6 JUMP JUMPDEST DUP3 PUSH2 0x1C3D PUSH1 0x2D DUP5 PUSH2 0x2CD6 JUMP JUMPDEST PUSH2 0x1C47 SWAP2 SWAP1 PUSH2 0x2CD6 JUMP JUMPDEST PUSH2 0x1C51 SWAP2 SWAP1 PUSH2 0x2D03 JUMP JUMPDEST SWAP5 POP PUSH2 0x1DBF JUMP JUMPDEST PUSH9 0x878678326EAC900000 DUP2 LT ISZERO PUSH1 0x0 DUP2 PUSH2 0x1C74 JUMPI PUSH2 0x23F PUSH2 0x1C78 JUMP JUMPDEST PUSH2 0x302 JUMPDEST SWAP1 POP PUSH1 0x0 PUSH2 0x1C89 PUSH3 0x93A80 DUP7 PUSH2 0x2D03 JUMP JUMPDEST SWAP1 POP PUSH2 0x2710 DUP2 PUSH2 0x1C99 DUP5 DUP8 PUSH2 0x2CD6 JUMP JUMPDEST PUSH2 0x1CA3 SWAP2 SWAP1 PUSH2 0x2CD6 JUMP JUMPDEST PUSH2 0x1CAD SWAP2 SWAP1 PUSH2 0x2D03 JUMP JUMPDEST SWAP8 POP PUSH1 0x0 PUSH2 0x1CBE DUP3 PUSH3 0x93A80 PUSH2 0x2CD6 JUMP JUMPDEST PUSH2 0x1CC8 SWAP1 DUP10 PUSH2 0x2D17 JUMP JUMPDEST SWAP1 POP PUSH1 0x0 JUMPDEST DUP8 DUP3 LT ISZERO PUSH2 0x1D8A JUMPI PUSH1 0x0 PUSH1 0x7 PUSH2 0x1CE6 PUSH3 0x15180 DUP6 PUSH2 0x2D03 JUMP JUMPDEST PUSH2 0x1CF1 SWAP1 PUSH1 0x3 PUSH2 0x2D17 JUMP JUMPDEST PUSH2 0x1CFB SWAP2 SWAP1 PUSH2 0x2D89 JUMP JUMPDEST SWAP1 POP PUSH1 0x0 DUP7 PUSH2 0x1D12 JUMPI PUSH2 0x1D0D DUP3 PUSH2 0x281F JUMP JUMPDEST PUSH2 0x1D1B JUMP JUMPDEST PUSH2 0x1D1B DUP3 PUSH2 0x2889 JUMP JUMPDEST SWAP1 POP PUSH1 0x0 PUSH2 0x1D2C PUSH3 0x15180 DUP7 PUSH2 0x2D03 JUMP JUMPDEST PUSH2 0x1D37 SWAP1 PUSH1 0x1 PUSH2 0x2D17 JUMP JUMPDEST PUSH2 0x1D44 SWAP1 PUSH3 0x15180 PUSH2 0x2CD6 JUMP JUMPDEST SWAP1 POP PUSH1 0x0 DUP2 DUP13 LT PUSH2 0x1D55 JUMPI DUP2 PUSH2 0x1D57 JUMP JUMPDEST DUP12 JUMPDEST SWAP1 POP PUSH1 0x0 PUSH2 0x1D65 DUP8 DUP4 PUSH2 0x2D2A JUMP JUMPDEST SWAP1 POP PUSH2 0x1D71 DUP2 DUP6 PUSH2 0x2CD6 JUMP JUMPDEST PUSH2 0x1D7B SWAP1 DUP8 PUSH2 0x2D17 JUMP JUMPDEST SWAP6 POP DUP3 SWAP7 POP POP POP POP POP POP PUSH2 0x1CCD JUMP JUMPDEST PUSH2 0x1D99 PUSH2 0x2710 PUSH3 0x15180 PUSH2 0x2CD6 JUMP JUMPDEST PUSH2 0x1DA3 DUP3 DUP9 PUSH2 0x2CD6 JUMP JUMPDEST PUSH2 0x1DAD SWAP2 SWAP1 PUSH2 0x2D03 JUMP JUMPDEST PUSH2 0x1DB7 SWAP1 DUP12 PUSH2 0x2D17 JUMP JUMPDEST SWAP10 POP POP POP POP POP POP JUMPDEST PUSH1 0x0 DUP7 PUSH1 0x5 ADD SLOAD DUP8 PUSH1 0x6 ADD SLOAD GT PUSH2 0x1DD7 JUMPI PUSH1 0x0 PUSH2 0x1DEB JUMP JUMPDEST DUP7 PUSH1 0x5 ADD SLOAD DUP8 PUSH1 0x6 ADD SLOAD PUSH2 0x1DEB SWAP2 SWAP1 PUSH2 0x2D2A JUMP JUMPDEST SWAP1 POP DUP1 DUP7 GT ISZERO PUSH2 0x1DF9 JUMPI DUP1 SWAP6 POP JUMPDEST POP POP POP POP POP SWAP2 SWAP1 POP JUMP JUMPDEST PUSH2 0x1E10 DUP4 DUP4 DUP4 PUSH1 0x1 PUSH2 0x28F3 JUMP JUMPDEST PUSH2 0x1251 JUMPI PUSH1 0x40 MLOAD PUSH4 0x5274AFE7 PUSH1 0xE0 SHL DUP2 MSTORE PUSH1 0x1 PUSH1 0x1 PUSH1 0xA0 SHL SUB DUP5 AND PUSH1 0x4 DUP3 ADD MSTORE PUSH1 0x24 ADD PUSH2 0xDA0 JUMP JUMPDEST DUP1 PUSH2 0x2710 EQ ISZERO DUP1 ISZERO PUSH2 0x1E4C JUMPI POP DUP1 PUSH2 0x1388 EQ ISZERO JUMPDEST DUP1 ISZERO PUSH2 0x1E5A JUMPI POP DUP1 PUSH2 0x9C4 EQ ISZERO JUMPDEST ISZERO PUSH2 0x1E78 JUMPI PUSH1 0x40 MLOAD PUSH4 0x5C1D07CB PUSH1 0xE0 SHL DUP2 MSTORE PUSH1 0x4 ADD PUSH1 0x40 MLOAD DUP1 SWAP2 SUB SWAP1 REVERT JUMPDEST PUSH1 0x0 PUSH2 0x1E84 DUP5 DUP5 PUSH2 0x1B0F JUMP JUMPDEST SWAP1 POP PUSH3 0xD2F00 DUP2 PUSH1 0x3 ADD SLOAD PUSH2 0x1E99 SWAP2 SWAP1 PUSH2 0x2D17 JUMP JUMPDEST TIMESTAMP GT ISZERO PUSH2 0x1EB9 JUMPI PUSH1 0x40 MLOAD PUSH4 0x693ED15B PUSH1 0xE1 SHL DUP2 MSTORE PUSH1 0x4 ADD PUSH1 0x40 MLOAD DUP1 SWAP2 SUB SWAP1 REVERT JUMPDEST DUP1 SLOAD PUSH1 0x0 PUSH2 0x2710 PUSH2 0x1ECA DUP6 DUP5 PUSH2 0x2CD6 JUMP JUMPDEST PUSH2 0x1ED4 SWAP2 SWAP1 PUSH2 0x2D03 JUMP JUMPDEST SWAP1 POP PUSH1 0x0 PUSH2 0x2710 PUSH2 0x1EE7 PUSH2 0x3E8 DUP5 PUSH2 0x2CD6 JUMP JUMPDEST PUSH2 0x1EF1 SWAP2 SWAP1 PUSH2 0x2D03 JUMP JUMPDEST SWAP1 POP PUSH1 0x0 PUSH2 0x2710 DUP7 DUP7 PUSH1 0x5 ADD SLOAD PUSH2 0x1F08 SWAP2 SWAP1 PUSH2 0x2CD6 JUMP JUMPDEST PUSH2 0x1F12 SWAP2 SWAP1 PUSH2 0x2D03 JUMP JUMPDEST SWAP1 POP PUSH1 0x0 PUSH2 0x1F20 DUP3 DUP5 PUSH2 0x2D17 JUMP JUMPDEST SWAP1 POP PUSH1 0x0 DUP2 DUP6 GT PUSH2 0x1F32 JUMPI PUSH1 0x0 PUSH2 0x1F3C JUMP JUMPDEST PUSH2 0x1F3C DUP3 DUP7 PUSH2 0x2D2A JUMP JUMPDEST SWAP1 POP DUP8 PUSH2 0x2710 SUB PUSH2 0x1F58 JUMPI PUSH1 0x7 DUP8 ADD DUP1 SLOAD PUSH1 0xFF NOT AND SWAP1 SSTORE PUSH2 0x1FA0 JUMP JUMPDEST DUP5 DUP8 PUSH1 0x0 ADD PUSH1 0x0 DUP3 DUP3 SLOAD PUSH2 0x1F6C SWAP2 SWAP1 PUSH2 0x2D2A JUMP JUMPDEST SWAP3 POP POP DUP2 SWAP1 SSTORE POP DUP3 DUP8 PUSH1 0x5 ADD PUSH1 0x0 DUP3 DUP3 SLOAD PUSH2 0x1F87 SWAP2 SWAP1 PUSH2 0x2D2A JUMP JUMPDEST SWAP1 SWAP2 SSTORE POP POP DUP7 SLOAD PUSH2 0x1F9A SWAP1 PUSH1 0x3 SWAP1 PUSH2 0x2CD6 JUMP JUMPDEST PUSH1 0x6 DUP9 ADD SSTORE JUMPDEST PUSH1 0x1 PUSH1 0x1 PUSH1 0xA0 SHL SUB DUP11 AND PUSH1 0x0 SWAP1 DUP2 MSTORE PUSH1 0xA PUSH1 0x20 MSTORE PUSH1 0x40 DUP2 KECCAK256 DUP1 SLOAD DUP8 SWAP3 SWAP1 PUSH2 0x1FC8 SWAP1 DUP5 SWAP1 PUSH2 0x2D2A JUMP JUMPDEST SWAP3 POP POP DUP2 SWAP1 SSTORE POP DUP5 PUSH1 0xC PUSH1 0x0 DUP3 DUP3 SLOAD PUSH2 0x1FE1 SWAP2 SWAP1 PUSH2 0x2D17 JUMP JUMPDEST SWAP1 SWAP2 SSTORE POP POP PUSH1 0x1 SLOAD PUSH1 0x1 PUSH1 0x1 PUSH1 0xA0 SHL SUB AND ISZERO PUSH2 0x2057 JUMPI PUSH1 0x1 SLOAD PUSH1 0x40 MLOAD PUSH4 0x95CE44B PUSH1 0xE2 SHL DUP2 MSTORE PUSH1 0x1 PUSH1 0x1 PUSH1 0xA0 SHL SUB DUP13 DUP2 AND PUSH1 0x4 DUP4 ADD MSTORE SWAP1 SWAP2 AND SWAP1 PUSH4 0x2573912C SWAP1 PUSH1 0x24 ADD PUSH1 0x0 PUSH1 0x40 MLOAD DUP1 DUP4 SUB DUP2 PUSH1 0x0 DUP8 DUP1 EXTCODESIZE ISZERO DUP1 ISZERO PUSH2 0x203E JUMPI PUSH1 0x0 DUP1 REVERT JUMPDEST POP GAS CALL ISZERO DUP1 ISZERO PUSH2 0x2052 JUMPI RETURNDATASIZE PUSH1 0x0 DUP1 RETURNDATACOPY RETURNDATASIZE PUSH1 0x0 REVERT JUMPDEST POP POP POP POP JUMPDEST DUP1 ISZERO PUSH2 0x2259 JUMPI PUSH1 0x0 DUP1 PUSH1 0x0 SWAP1 SLOAD SWAP1 PUSH2 0x100 EXP SWAP1 DIV PUSH1 0x1 PUSH1 0x1 PUSH1 0xA0 SHL SUB AND PUSH1 0x1 PUSH1 0x1 PUSH1 0xA0 SHL SUB AND PUSH4 0x98D5FDCA PUSH1 0x40 MLOAD DUP2 PUSH4 0xFFFFFFFF AND PUSH1 0xE0 SHL DUP2 MSTORE PUSH1 0x4 ADD PUSH1 0x20 PUSH1 0x40 MLOAD DUP1 DUP4 SUB DUP2 DUP7 GAS STATICCALL ISZERO DUP1 ISZERO PUSH2 0x20B1 JUMPI RETURNDATASIZE PUSH1 0x0 DUP1 RETURNDATACOPY RETURNDATASIZE PUSH1 0x0 REVERT JUMPDEST POP POP POP POP PUSH1 0x40 MLOAD RETURNDATASIZE PUSH1 0x1F NOT PUSH1 0x1F DUP3 ADD AND DUP3 ADD DUP1 PUSH1 0x40 MSTORE POP DUP2 ADD SWAP1 PUSH2 0x20D5 SWAP2 SWAP1 PUSH2 0x2CA7 JUMP JUMPDEST SWAP1 POP DUP1 ISZERO PUSH2 0x2257 JUMPI PUSH1 0x0 DUP2 PUSH2 0x20F2 DUP5 PUSH8 0xDE0B6B3A7640000 PUSH2 0x2CD6 JUMP JUMPDEST PUSH2 0x20FC SWAP2 SWAP1 PUSH2 0x2D03 JUMP JUMPDEST PUSH1 0x40 MLOAD PUSH4 0x70A08231 PUSH1 0xE0 SHL DUP2 MSTORE ADDRESS PUSH1 0x4 DUP3 ADD MSTORE SWAP1 SWAP2 POP PUSH1 0x0 SWAP1 PUSH1 0x1 PUSH1 0x1 PUSH1 0xA0 SHL SUB PUSH32 0x0 AND SWAP1 PUSH4 0x70A08231 SWAP1 PUSH1 0x24 ADD PUSH1 0x20 PUSH1 0x40 MLOAD DUP1 DUP4 SUB DUP2 DUP7 GAS STATICCALL ISZERO DUP1 ISZERO PUSH2 0x2166 JUMPI RETURNDATASIZE PUSH1 0x0 DUP1 RETURNDATACOPY RETURNDATASIZE PUSH1 0x0 REVERT JUMPDEST POP POP POP POP PUSH1 0x40 MLOAD RETURNDATASIZE PUSH1 0x1F NOT PUSH1 0x1F DUP3 ADD AND DUP3 ADD DUP1 PUSH1 0x40 MSTORE POP DUP2 ADD SWAP1 PUSH2 0x218A SWAP2 SWAP1 PUSH2 0x2CA7 JUMP JUMPDEST SWAP1 POP PUSH1 0x0 DUP3 GT DUP1 ISZERO PUSH2 0x219C JUMPI POP DUP2 DUP2 LT ISZERO JUMPDEST ISZERO PUSH2 0x2254 JUMPI PUSH1 0x0 SLOAD PUSH2 0x21DB SWAP1 PUSH1 0x1 PUSH1 0x1 PUSH1 0xA0 SHL SUB PUSH32 0x0 DUP2 AND SWAP2 AND DUP5 PUSH2 0x259F JUMP JUMPDEST PUSH1 0x0 SLOAD PUSH1 0x40 MLOAD PUSH4 0xF843E641 PUSH1 0xE0 SHL DUP2 MSTORE PUSH1 0x4 DUP2 ADD DUP5 SWAP1 MSTORE PUSH1 0x1 PUSH1 0x1 PUSH1 0xA0 SHL SUB DUP16 DUP2 AND PUSH1 0x24 DUP4 ADD MSTORE SWAP1 SWAP2 AND SWAP1 PUSH4 0xF843E641 SWAP1 PUSH1 0x44 ADD PUSH1 0x20 PUSH1 0x40 MLOAD DUP1 DUP4 SUB DUP2 PUSH1 0x0 DUP8 GAS CALL ISZERO DUP1 ISZERO PUSH2 0x222E JUMPI RETURNDATASIZE PUSH1 0x0 DUP1 RETURNDATACOPY RETURNDATASIZE PUSH1 0x0 REVERT JUMPDEST POP POP POP POP PUSH1 0x40 MLOAD RETURNDATASIZE PUSH1 0x1F NOT PUSH1 0x1F DUP3 ADD AND DUP3 ADD DUP1 PUSH1 0x40 MSTORE POP DUP2 ADD SWAP1 PUSH2 0x2252 SWAP2 SWAP1 PUSH2 0x2CA7 JUMP JUMPDEST POP JUMPDEST POP POP JUMPDEST POP JUMPDEST PUSH1 0x40 DUP1 MLOAD DUP3 DUP2 MSTORE PUSH1 0x20 DUP2 ADD DUP7 SWAP1 MSTORE SWAP1 DUP2 ADD DUP5 SWAP1 MSTORE PUSH1 0x60 DUP2 ADD DUP11 SWAP1 MSTORE PUSH1 0x1 PUSH1 0x1 PUSH1 0xA0 SHL SUB DUP12 AND SWAP1 PUSH32 0x4ADE67EF7E7C5E4D9C50DE61A4E8C555BE92C9B37E3CA6716EB02A1F0E471DA5 SWAP1 PUSH1 0x80 ADD PUSH1 0x40 MLOAD DUP1 SWAP2 SUB SWAP1 LOG2 POP POP POP POP POP POP POP POP POP POP JUMP JUMPDEST PUSH2 0x22C6 DUP5 DUP5 DUP5 DUP5 PUSH1 0x1 PUSH2 0x2959 JUMP JUMPDEST PUSH2 0x22EE JUMPI PUSH1 0x40 MLOAD PUSH4 0x5274AFE7 PUSH1 0xE0 SHL DUP2 MSTORE PUSH1 0x1 PUSH1 0x1 PUSH1 0xA0 SHL SUB DUP6 AND PUSH1 0x4 DUP3 ADD MSTORE PUSH1 0x24 ADD PUSH2 0xDA0 JUMP JUMPDEST POP POP POP POP JUMP JUMPDEST PUSH1 0x0 DUP1 SLOAD PUSH1 0x40 DUP1 MLOAD PUSH4 0x240BC6B PUSH1 0xE2 SHL DUP2 MSTORE DUP2 MLOAD DUP5 SWAP4 PUSH1 0x1 PUSH1 0x1 PUSH1 0xA0 SHL SUB AND SWAP3 PUSH4 0x902F1AC SWAP3 PUSH1 0x4 DUP1 DUP3 ADD SWAP4 SWAP2 DUP3 SWAP1 SUB ADD DUP2 DUP7 GAS STATICCALL ISZERO DUP1 ISZERO PUSH2 0x233A JUMPI RETURNDATASIZE PUSH1 0x0 DUP1 RETURNDATACOPY RETURNDATASIZE PUSH1 0x0 REVERT JUMPDEST POP POP POP POP PUSH1 0x40 MLOAD RETURNDATASIZE PUSH1 0x1F NOT PUSH1 0x1F DUP3 ADD AND DUP3 ADD DUP1 PUSH1 0x40 MSTORE POP DUP2 ADD SWAP1 PUSH2 0x235E SWAP2 SWAP1 PUSH2 0x2D9D JUMP JUMPDEST SWAP2 POP SWAP2 POP PUSH1 0x0 DUP1 DUP4 GT DUP1 ISZERO PUSH2 0x2373 JUMPI POP PUSH1 0x0 DUP3 GT JUMPDEST ISZERO PUSH2 0x239D JUMPI PUSH2 0x2382 DUP5 DUP5 PUSH2 0x2D17 JUMP JUMPDEST PUSH2 0x238C DUP4 DUP7 PUSH2 0x2CD6 JUMP JUMPDEST PUSH2 0x2396 SWAP2 SWAP1 PUSH2 0x2D03 JUMP JUMPDEST SWAP1 POP PUSH2 0x23A0 JUMP JUMPDEST POP DUP3 JUMPDEST PUSH1 0x0 DUP1 SLOAD PUSH1 0x40 MLOAD PUSH4 0x70A08231 PUSH1 0xE0 SHL DUP2 MSTORE PUSH1 0x1 PUSH1 0x1 PUSH1 0xA0 SHL SUB SWAP2 DUP3 AND PUSH1 0x4 DUP3 ADD MSTORE PUSH32 0x0 SWAP1 SWAP2 AND SWAP1 PUSH4 0x70A08231 SWAP1 PUSH1 0x24 ADD PUSH1 0x20 PUSH1 0x40 MLOAD DUP1 DUP4 SUB DUP2 DUP7 GAS STATICCALL ISZERO DUP1 ISZERO PUSH2 0x240C JUMPI RETURNDATASIZE PUSH1 0x0 DUP1 RETURNDATACOPY RETURNDATASIZE PUSH1 0x0 REVERT JUMPDEST POP POP POP POP PUSH1 0x40 MLOAD RETURNDATASIZE PUSH1 0x1F NOT PUSH1 0x1F DUP3 ADD AND DUP3 ADD DUP1 PUSH1 0x40 MSTORE POP DUP2 ADD SWAP1 PUSH2 0x2430 SWAP2 SWAP1 PUSH2 0x2CA7 JUMP JUMPDEST SWAP1 POP PUSH9 0x3635C9ADC5DEA00000 PUSH2 0x2446 DUP2 DUP5 PUSH2 0x2D17 JUMP JUMPDEST DUP3 LT ISZERO PUSH2 0x2597 JUMPI PUSH1 0x0 DUP3 PUSH2 0x245A DUP4 DUP7 PUSH2 0x2D17 JUMP JUMPDEST PUSH2 0x2464 SWAP2 SWAP1 PUSH2 0x2D2A JUMP JUMPDEST PUSH1 0x40 MLOAD PUSH4 0x70A08231 PUSH1 0xE0 SHL DUP2 MSTORE ADDRESS PUSH1 0x4 DUP3 ADD MSTORE SWAP1 SWAP2 POP PUSH1 0x0 SWAP1 PUSH1 0x1 PUSH1 0x1 PUSH1 0xA0 SHL SUB PUSH32 0x0 AND SWAP1 PUSH4 0x70A08231 SWAP1 PUSH1 0x24 ADD PUSH1 0x20 PUSH1 0x40 MLOAD DUP1 DUP4 SUB DUP2 DUP7 GAS STATICCALL ISZERO DUP1 ISZERO PUSH2 0x24CE JUMPI RETURNDATASIZE PUSH1 0x0 DUP1 RETURNDATACOPY RETURNDATASIZE PUSH1 0x0 REVERT JUMPDEST POP POP POP POP PUSH1 0x40 MLOAD RETURNDATASIZE PUSH1 0x1F NOT PUSH1 0x1F DUP3 ADD AND DUP3 ADD DUP1 PUSH1 0x40 MSTORE POP DUP2 ADD SWAP1 PUSH2 0x24F2 SWAP2 SWAP1 PUSH2 0x2CA7 JUMP JUMPDEST SWAP1 POP DUP2 DUP2 LT PUSH2 0x2594 JUMPI PUSH1 0x0 SLOAD PUSH2 0x2535 SWAP1 PUSH1 0x1 PUSH1 0x1 PUSH1 0xA0 SHL SUB PUSH32 0x0 DUP2 AND SWAP2 AND DUP5 PUSH2 0x259F JUMP JUMPDEST PUSH1 0x0 SLOAD PUSH1 0x40 MLOAD PUSH4 0x362CE52B PUSH1 0xE0 SHL DUP2 MSTORE PUSH1 0x4 DUP2 ADD DUP5 SWAP1 MSTORE PUSH1 0x1 PUSH1 0x1 PUSH1 0xA0 SHL SUB SWAP1 SWAP2 AND SWAP1 PUSH4 0x362CE52B SWAP1 PUSH1 0x24 ADD PUSH1 0x0 PUSH1 0x40 MLOAD DUP1 DUP4 SUB DUP2 PUSH1 0x0 DUP8 DUP1 EXTCODESIZE ISZERO DUP1 ISZERO PUSH2 0x257B JUMPI PUSH1 0x0 DUP1 REVERT JUMPDEST POP GAS CALL ISZERO DUP1 ISZERO PUSH2 0x258F JUMPI RETURNDATASIZE PUSH1 0x0 DUP1 RETURNDATACOPY RETURNDATASIZE PUSH1 0x0 REVERT JUMPDEST POP POP POP POP JUMPDEST POP POP JUMPDEST POP POP POP POP POP POP JUMP JUMPDEST PUSH2 0x25AC DUP4 DUP4 DUP4 PUSH1 0x0 PUSH2 0x29CB JUMP JUMPDEST PUSH2 0x1251 JUMPI PUSH2 0x25BE DUP4 DUP4 PUSH1 0x0 PUSH1 0x1 PUSH2 0x29CB JUMP JUMPDEST PUSH2 0x25E6 JUMPI PUSH1 0x40 MLOAD PUSH4 0x5274AFE7 PUSH1 0xE0 SHL DUP2 MSTORE PUSH1 0x1 PUSH1 0x1 PUSH1 0xA0 SHL SUB DUP5 AND PUSH1 0x4 DUP3 ADD MSTORE PUSH1 0x24 ADD PUSH2 0xDA0 JUMP JUMPDEST PUSH2 0x1E10 DUP4 DUP4 DUP4 PUSH1 0x1 PUSH2 0x29CB JUMP JUMPDEST PUSH1 0x0 PUSH9 0x878678326EAC900000 DUP3 LT PUSH2 0x260D JUMPI POP PUSH1 0x2 SWAP2 SWAP1 POP JUMP JUMPDEST POP PUSH1 0x1 SWAP2 SWAP1 POP JUMP JUMPDEST PUSH1 0x0 DUP1 PUSH2 0x2642 PUSH32 0x0 DUP5 PUSH2 0x2D2A JUMP JUMPDEST SWAP1 POP PUSH3 0x76A700 DUP2 LT PUSH2 0x2658 JUMPI PUSH1 0x2D SWAP2 POP POP PUSH2 0x1064 JUMP JUMPDEST PUSH1 0x0 PUSH1 0x7 PUSH2 0x2669 PUSH3 0x15180 DUP7 PUSH2 0x2D03 JUMP JUMPDEST PUSH2 0x2674 SWAP1 PUSH1 0x3 PUSH2 0x2D17 JUMP JUMPDEST PUSH2 0x267E SWAP2 SWAP1 PUSH2 0x2D89 JUMP JUMPDEST SWAP1 POP PUSH9 0x878678326EAC900000 DUP6 LT PUSH2 0x26A2 JUMPI PUSH2 0x2699 DUP2 PUSH2 0x2889 JUMP JUMPDEST SWAP3 POP POP POP PUSH2 0x1064 JUMP JUMPDEST PUSH2 0x26AB DUP2 PUSH2 0x281F JUMP JUMPDEST SWAP6 SWAP5 POP POP POP POP POP JUMP JUMPDEST PUSH1 0x1 SLOAD PUSH1 0x1 PUSH1 0x1 PUSH1 0xA0 SHL SUB AND ISZERO DUP1 PUSH2 0x26D5 JUMPI POP PUSH1 0x2 SLOAD PUSH1 0x1 PUSH1 0x1 PUSH1 0xA0 SHL SUB AND ISZERO JUMPDEST ISZERO PUSH2 0x26DE JUMPI POP POP JUMP JUMPDEST DUP2 PUSH1 0x0 JUMPDEST PUSH1 0x14 DUP2 LT ISZERO PUSH2 0x22EE JUMPI PUSH1 0x1 SLOAD PUSH1 0x40 MLOAD PUSH4 0x4A9FEFC7 PUSH1 0xE0 SHL DUP2 MSTORE PUSH1 0x1 PUSH1 0x1 PUSH1 0xA0 SHL SUB DUP5 DUP2 AND PUSH1 0x4 DUP4 ADD MSTORE PUSH1 0x0 SWAP3 AND SWAP1 PUSH4 0x4A9FEFC7 SWAP1 PUSH1 0x24 ADD PUSH1 0x20 PUSH1 0x40 MLOAD DUP1 DUP4 SUB DUP2 DUP7 GAS STATICCALL ISZERO DUP1 ISZERO PUSH2 0x2736 JUMPI RETURNDATASIZE PUSH1 0x0 DUP1 RETURNDATACOPY RETURNDATASIZE PUSH1 0x0 REVERT JUMPDEST POP POP POP POP PUSH1 0x40 MLOAD RETURNDATASIZE PUSH1 0x1F NOT PUSH1 0x1F DUP3 ADD AND DUP3 ADD DUP1 PUSH1 0x40 MSTORE POP DUP2 ADD SWAP1 PUSH2 0x275A SWAP2 SWAP1 PUSH2 0x2D6C JUMP JUMPDEST SWAP1 POP PUSH1 0x1 PUSH1 0x1 PUSH1 0xA0 SHL SUB DUP2 AND PUSH2 0x2770 JUMPI POP PUSH2 0x22EE JUMP JUMPDEST PUSH1 0x2 SLOAD PUSH1 0x40 MLOAD PUSH4 0xD9BD5F2D PUSH1 0xE0 SHL DUP2 MSTORE PUSH1 0x1 PUSH1 0x1 PUSH1 0xA0 SHL SUB DUP4 DUP2 AND PUSH1 0x4 DUP4 ADD MSTORE DUP6 DUP2 AND PUSH1 0x24 DUP4 ADD MSTORE PUSH1 0x44 DUP3 ADD DUP8 SWAP1 MSTORE SWAP1 SWAP2 AND SWAP1 PUSH4 0xD9BD5F2D SWAP1 PUSH1 0x64 ADD PUSH1 0x0 PUSH1 0x40 MLOAD DUP1 DUP4 SUB DUP2 PUSH1 0x0 DUP8 DUP1 EXTCODESIZE ISZERO DUP1 ISZERO PUSH2 0x27C6 JUMPI PUSH1 0x0 DUP1 REVERT JUMPDEST POP GAS CALL ISZERO DUP1 ISZERO PUSH2 0x27DA JUMPI RETURNDATASIZE PUSH1 0x0 DUP1 RETURNDATACOPY RETURNDATASIZE PUSH1 0x0 REVERT JUMPDEST POP SWAP3 SWAP5 POP POP PUSH1 0x1 SWAP1 SWAP3 ADD SWAP2 POP PUSH2 0x26E2 SWAP1 POP JUMP JUMPDEST PUSH1 0x0 DUP1 MLOAD PUSH1 0x20 PUSH2 0x2DC2 DUP4 CODECOPY DUP2 MLOAD SWAP2 MSTORE SLOAD PUSH1 0x2 SUB PUSH2 0x281D JUMPI PUSH1 0x40 MLOAD PUSH4 0x3EE5AEB5 PUSH1 0xE0 SHL DUP2 MSTORE PUSH1 0x4 ADD PUSH1 0x40 MLOAD DUP1 SWAP2 SUB SWAP1 REVERT JUMPDEST JUMP JUMPDEST PUSH1 0x0 DUP2 PUSH1 0x0 SUB PUSH2 0x2831 JUMPI POP PUSH1 0x64 SWAP2 SWAP1 POP JUMP JUMPDEST DUP2 PUSH1 0x1 SUB PUSH2 0x2841 JUMPI POP PUSH1 0x4B SWAP2 SWAP1 POP JUMP JUMPDEST DUP2 PUSH1 0x2 SUB PUSH2 0x2851 JUMPI POP PUSH1 0x5F SWAP2 SWAP1 POP JUMP JUMPDEST DUP2 PUSH1 0x3 SUB PUSH2 0x2861 JUMPI POP PUSH1 0x41 SWAP2 SWAP1 POP JUMP JUMPDEST DUP2 PUSH1 0x4 SUB PUSH2 0x2871 JUMPI POP PUSH1 0x64 SWAP2 SWAP1 POP JUMP JUMPDEST DUP2 PUSH1 0x5 SUB PUSH2 0x2881 JUMPI POP PUSH1 0x55 SWAP2 SWAP1 POP JUMP JUMPDEST POP PUSH1 0x37 SWAP2 SWAP1 POP JUMP JUMPDEST PUSH1 0x0 DUP2 PUSH1 0x0 SUB PUSH2 0x289B JUMPI POP PUSH1 0x73 SWAP2 SWAP1 POP JUMP JUMPDEST DUP2 PUSH1 0x1 SUB PUSH2 0x28AB JUMPI POP PUSH1 0x64 SWAP2 SWAP1 POP JUMP JUMPDEST DUP2 PUSH1 0x2 SUB PUSH2 0x28BB JUMPI POP PUSH1 0x73 SWAP2 SWAP1 POP JUMP JUMPDEST DUP2 PUSH1 0x3 SUB PUSH2 0x28CB JUMPI POP PUSH1 0x6E SWAP2 SWAP1 POP JUMP JUMPDEST DUP2 PUSH1 0x4 SUB PUSH2 0x28DB JUMPI POP PUSH1 0x69 SWAP2 SWAP1 POP JUMP JUMPDEST DUP2 PUSH1 0x5 SUB PUSH2 0x28EB JUMPI POP PUSH1 0x64 SWAP2 SWAP1 POP JUMP JUMPDEST POP PUSH1 0x7D SWAP2 SWAP1 POP JUMP JUMPDEST PUSH1 0x40 MLOAD PUSH4 0xA9059CBB PUSH1 0xE0 SHL PUSH1 0x0 DUP2 DUP2 MSTORE PUSH1 0x1 PUSH1 0x1 PUSH1 0xA0 SHL SUB DUP7 AND PUSH1 0x4 MSTORE PUSH1 0x24 DUP6 SWAP1 MSTORE SWAP2 PUSH1 0x20 DUP4 PUSH1 0x44 DUP2 DUP1 DUP12 GAS CALL SWAP3 POP PUSH1 0x1 PUSH1 0x0 MLOAD EQ DUP4 AND PUSH2 0x294D JUMPI DUP4 DUP4 ISZERO AND ISZERO PUSH2 0x2940 JUMPI RETURNDATASIZE PUSH1 0x0 DUP3 RETURNDATACOPY RETURNDATASIZE DUP2 REVERT JUMPDEST PUSH1 0x0 DUP8 EXTCODESIZE GT RETURNDATASIZE ISZERO AND DUP4 AND SWAP3 POP JUMPDEST PUSH1 0x40 MSTORE POP SWAP5 SWAP4 POP POP POP POP JUMP JUMPDEST PUSH1 0x40 MLOAD PUSH4 0x23B872DD PUSH1 0xE0 SHL PUSH1 0x0 DUP2 DUP2 MSTORE PUSH1 0x1 PUSH1 0x1 PUSH1 0xA0 SHL SUB DUP8 DUP2 AND PUSH1 0x4 MSTORE DUP7 AND PUSH1 0x24 MSTORE PUSH1 0x44 DUP6 SWAP1 MSTORE SWAP2 PUSH1 0x20 DUP4 PUSH1 0x64 DUP2 DUP1 DUP13 GAS CALL SWAP3 POP PUSH1 0x1 PUSH1 0x0 MLOAD EQ DUP4 AND PUSH2 0x29B9 JUMPI DUP4 DUP4 ISZERO AND ISZERO PUSH2 0x29AC JUMPI RETURNDATASIZE PUSH1 0x0 DUP3 RETURNDATACOPY RETURNDATASIZE DUP2 REVERT JUMPDEST PUSH1 0x0 DUP9 EXTCODESIZE GT RETURNDATASIZE ISZERO AND DUP4 AND SWAP3 POP JUMPDEST PUSH1 0x40 MSTORE POP PUSH1 0x0 PUSH1 0x60 MSTORE SWAP6 SWAP5 POP POP POP POP POP JUMP JUMPDEST PUSH1 0x40 MLOAD PUSH4 0x95EA7B3 PUSH1 0xE0 SHL PUSH1 0x0 DUP2 DUP2 MSTORE PUSH1 0x1 PUSH1 0x1 PUSH1 0xA0 SHL SUB DUP7 AND PUSH1 0x4 MSTORE PUSH1 0x24 DUP6 SWAP1 MSTORE SWAP2 PUSH1 0x20 DUP4 PUSH1 0x44 DUP2 DUP1 DUP12 GAS CALL SWAP3 POP PUSH1 0x1 PUSH1 0x0 MLOAD EQ DUP4 AND PUSH2 0x294D JUMPI DUP4 DUP4 ISZERO AND ISZERO PUSH2 0x2940 JUMPI RETURNDATASIZE PUSH1 0x0 DUP3 RETURNDATACOPY RETURNDATASIZE DUP2 REVERT JUMPDEST PUSH1 0x1 PUSH1 0x1 PUSH1 0xA0 SHL SUB DUP2 AND DUP2 EQ PUSH2 0xBB9 JUMPI PUSH1 0x0 DUP1 REVERT JUMPDEST PUSH1 0x0 DUP1 PUSH1 0x40 DUP4 DUP6 SUB SLT ISZERO PUSH2 0x2A40 JUMPI PUSH1 0x0 DUP1 REVERT JUMPDEST DUP3 CALLDATALOAD PUSH2 0x2A4B DUP2 PUSH2 0x2A18 JUMP JUMPDEST SWAP5 PUSH1 0x20 SWAP4 SWAP1 SWAP4 ADD CALLDATALOAD SWAP4 POP POP POP JUMP JUMPDEST PUSH1 0x0 PUSH1 0x20 DUP3 DUP5 SUB SLT ISZERO PUSH2 0x2A6B JUMPI PUSH1 0x0 DUP1 REVERT JUMPDEST POP CALLDATALOAD SWAP2 SWAP1 POP JUMP JUMPDEST PUSH1 0x0 PUSH1 0x20 DUP3 DUP5 SUB SLT ISZERO PUSH2 0x2A84 JUMPI PUSH1 0x0 DUP1 REVERT JUMPDEST DUP2 CALLDATALOAD PUSH2 0x1BA9 DUP2 PUSH2 0x2A18 JUMP JUMPDEST PUSH1 0x0 PUSH1 0x20 DUP3 DUP5 SUB SLT ISZERO PUSH2 0x2AA1 JUMPI PUSH1 0x0 DUP1 REVERT JUMPDEST DUP2 CALLDATALOAD DUP1 ISZERO ISZERO DUP2 EQ PUSH2 0x1BA9 JUMPI PUSH1 0x0 DUP1 REVERT JUMPDEST PUSH1 0x0 DUP1 PUSH1 0x0 PUSH1 0x60 DUP5 DUP7 SUB SLT ISZERO PUSH2 0x2AC6 JUMPI PUSH1 0x0 DUP1 REVERT JUMPDEST DUP4 CALLDATALOAD PUSH2 0x2AD1 DUP2 PUSH2 0x2A18 JUMP JUMPDEST SWAP3 POP PUSH1 0x20 DUP5 ADD CALLDATALOAD PUSH2 0x2AE1 DUP2 PUSH2 0x2A18 JUMP JUMPDEST SWAP2 POP PUSH1 0x40 DUP5 ADD CALLDATALOAD PUSH2 0x2AF1 DUP2 PUSH2 0x2A18 JUMP JUMPDEST DUP1 SWAP2 POP POP SWAP3 POP SWAP3 POP SWAP3 JUMP JUMPDEST PUSH1 0x0 DUP1 DUP4 PUSH1 0x1F DUP5 ADD SLT PUSH2 0x2B0E JUMPI PUSH1 0x0 DUP1 REVERT JUMPDEST POP DUP2 CALLDATALOAD PUSH8 0xFFFFFFFFFFFFFFFF DUP2 GT ISZERO PUSH2 0x2B26 JUMPI PUSH1 0x0 DUP1 REVERT JUMPDEST PUSH1 0x20 DUP4 ADD SWAP2 POP DUP4 PUSH1 0x20 DUP3 PUSH1 0x5 SHL DUP6 ADD ADD GT ISZERO PUSH2 0x2B41 JUMPI PUSH1 0x0 DUP1 REVERT JUMPDEST SWAP3 POP SWAP3 SWAP1 POP JUMP JUMPDEST PUSH1 0x0 DUP1 PUSH1 0x0 DUP1 PUSH1 0x40 DUP6 DUP8 SUB SLT ISZERO PUSH2 0x2B5E JUMPI PUSH1 0x0 DUP1 REVERT JUMPDEST DUP5 CALLDATALOAD PUSH8 0xFFFFFFFFFFFFFFFF DUP1 DUP3 GT ISZERO PUSH2 0x2B76 JUMPI PUSH1 0x0 DUP1 REVERT JUMPDEST PUSH2 0x2B82 DUP9 DUP4 DUP10 ADD PUSH2 0x2AFC JUMP JUMPDEST SWAP1 SWAP7 POP SWAP5 POP PUSH1 0x20 DUP8 ADD CALLDATALOAD SWAP2 POP DUP1 DUP3 GT ISZERO PUSH2 0x2B9B JUMPI PUSH1 0x0 DUP1 REVERT JUMPDEST POP PUSH2 0x2BA8 DUP8 DUP3 DUP9 ADD PUSH2 0x2AFC JUMP JUMPDEST SWAP6 SWAP9 SWAP5 SWAP8 POP SWAP6 POP POP POP POP JUMP JUMPDEST PUSH1 0x0 DUP1 PUSH1 0x0 DUP1 PUSH1 0x80 DUP6 DUP8 SUB SLT ISZERO PUSH2 0x2BCA JUMPI PUSH1 0x0 DUP1 REVERT JUMPDEST DUP5 CALLDATALOAD PUSH2 0x2BD5 DUP2 PUSH2 0x2A18 JUMP JUMPDEST SWAP4 POP PUSH1 0x20 DUP6 ADD CALLDATALOAD PUSH2 0x2BE5 DUP2 PUSH2 0x2A18 JUMP JUMPDEST SWAP3 POP PUSH1 0x40 DUP6 ADD CALLDATALOAD PUSH2 0x2BF5 DUP2 PUSH2 0x2A18 JUMP JUMPDEST SWAP2 POP PUSH1 0x60 DUP6 ADD CALLDATALOAD PUSH2 0x2C05 DUP2 PUSH2 0x2A18 JUMP JUMPDEST SWAP4 SWAP7 SWAP3 SWAP6 POP SWAP1 SWAP4 POP POP JUMP JUMPDEST PUSH1 0x0 DUP1 PUSH1 0x20 DUP4 DUP6 SUB SLT ISZERO PUSH2 0x2C23 JUMPI PUSH1 0x0 DUP1 REVERT JUMPDEST DUP3 CALLDATALOAD PUSH8 0xFFFFFFFFFFFFFFFF DUP1 DUP3 GT ISZERO PUSH2 0x2C3B JUMPI PUSH1 0x0 DUP1 REVERT JUMPDEST DUP2 DUP6 ADD SWAP2 POP DUP6 PUSH1 0x1F DUP4 ADD SLT PUSH2 0x2C4F JUMPI PUSH1 0x0 DUP1 REVERT JUMPDEST DUP2 CALLDATALOAD DUP2 DUP2 GT ISZERO PUSH2 0x2C5E JUMPI PUSH1 0x0 DUP1 REVERT JUMPDEST DUP7 PUSH1 0x20 DUP3 PUSH1 0x8 SHL DUP6 ADD ADD GT ISZERO PUSH2 0x2C73 JUMPI PUSH1 0x0 DUP1 REVERT JUMPDEST PUSH1 0x20 SWAP3 SWAP1 SWAP3 ADD SWAP7 SWAP2 SWAP6 POP SWAP1 SWAP4 POP POP POP POP JUMP JUMPDEST PUSH1 0x0 DUP1 PUSH1 0x40 DUP4 DUP6 SUB SLT ISZERO PUSH2 0x2C98 JUMPI PUSH1 0x0 DUP1 REVERT JUMPDEST POP POP DUP1 CALLDATALOAD SWAP3 PUSH1 0x20 SWAP1 SWAP2 ADD CALLDATALOAD SWAP2 POP JUMP JUMPDEST PUSH1 0x0 PUSH1 0x20 DUP3 DUP5 SUB SLT ISZERO PUSH2 0x2CB9 JUMPI PUSH1 0x0 DUP1 REVERT JUMPDEST POP MLOAD SWAP2 SWAP1 POP JUMP JUMPDEST PUSH4 0x4E487B71 PUSH1 0xE0 SHL PUSH1 0x0 MSTORE PUSH1 0x11 PUSH1 0x4 MSTORE PUSH1 0x24 PUSH1 0x0 REVERT JUMPDEST DUP1 DUP3 MUL DUP2 ISZERO DUP3 DUP3 DIV DUP5 EQ OR PUSH2 0x1064 JUMPI PUSH2 0x1064 PUSH2 0x2CC0 JUMP JUMPDEST PUSH4 0x4E487B71 PUSH1 0xE0 SHL PUSH1 0x0 MSTORE PUSH1 0x12 PUSH1 0x4 MSTORE PUSH1 0x24 PUSH1 0x0 REVERT JUMPDEST PUSH1 0x0 DUP3 PUSH2 0x2D12 JUMPI PUSH2 0x2D12 PUSH2 0x2CED JUMP JUMPDEST POP DIV SWAP1 JUMP JUMPDEST DUP1 DUP3 ADD DUP1 DUP3 GT ISZERO PUSH2 0x1064 JUMPI PUSH2 0x1064 PUSH2 0x2CC0 JUMP JUMPDEST DUP2 DUP2 SUB DUP2 DUP2 GT ISZERO PUSH2 0x1064 JUMPI PUSH2 0x1064 PUSH2 0x2CC0 JUMP JUMPDEST PUSH4 0x4E487B71 PUSH1 0xE0 SHL PUSH1 0x0 MSTORE PUSH1 0x32 PUSH1 0x4 MSTORE PUSH1 0x24 PUSH1 0x0 REVERT JUMPDEST PUSH1 0x0 PUSH1 0x1 DUP3 ADD PUSH2 0x2D65 JUMPI PUSH2 0x2D65 PUSH2 0x2CC0 JUMP JUMPDEST POP PUSH1 0x1 ADD SWAP1 JUMP JUMPDEST PUSH1 0x0 PUSH1 0x20 DUP3 DUP5 SUB SLT ISZERO PUSH2 0x2D7E JUMPI PUSH1 0x0 DUP1 REVERT JUMPDEST DUP2 MLOAD PUSH2 0x1BA9 DUP2 PUSH2 0x2A18 JUMP JUMPDEST PUSH1 0x0 DUP3 PUSH2 0x2D98 JUMPI PUSH2 0x2D98 PUSH2 0x2CED JUMP JUMPDEST POP MOD SWAP1 JUMP JUMPDEST PUSH1 0x0 DUP1 PUSH1 0x40 DUP4 DUP6 SUB SLT ISZERO PUSH2 0x2DB0 JUMPI PUSH1 0x0 DUP1 REVERT JUMPDEST POP POP DUP1 MLOAD PUSH1 0x20 SWAP1 SWAP2 ADD MLOAD SWAP1 SWAP3 SWAP1 SWAP2 POP JUMP INVALID SWAP12 PUSH24 0x9B17422D0DF92223018B32B4D1FA46E071723D6817E2486D STOP EXTCODESIZE 0xEC 0xC5 PUSH0 STOP LOG2 PUSH5 0x6970667358 0x22 SLT KECCAK256 PUSH30 0x4EC038719E5C5050316EA438CDEBC94C882BCA42001D17926448526FE54D PUSH9 0x64736F6C6343000818 STOP CALLER "},"methodIdentifiers":{"admin()":"f851a440","claimRewards(uint256)":"0962ef79","companyWallet()":"1ec32d15","completeSetup()":"8aea8f71","configure(address,address,address,address)":"5acb5082","deposit(uint256)":"b6b55f25","depositsPaused()":"60da3e83","earlyExit(uint256)":"b8af3d3e","getActiveDeposit(address)":"142a3da3","getCombinedEarnings(address)":"3a6f2dcd","getDepositCount(address)":"13fcaf54","getPendingRewards(address,uint256)":"e4e7c6b4","getUserTier(address)":"e4d2620e","isInEarlyExitPeriod(address,uint256)":"786685e0","launchTimestamp()":"65cf7c9b","migrateCombinedEarnings(address[],uint256[])":"37914a07","migrateDeposits((address,uint256,uint256,uint256,uint256,uint256,uint256,uint256)[])":"84b273f6","minClaimThreshold()":"3695dad1","notifyLevelIncome(address,uint256)":"6b9f7ab6","notifyRankBonus(address,uint256)":"ac948e83","osloDex()":"8565c2bf","osloToken()":"2acfbca3","partialEarlyExit(uint256,uint256)":"8fb1bb50","performanceWallet()":"b12cd625","rankSystem()":"e9a16bd5","referral()":"1441a5a9","rewardWallet()":"fb75b2c7","setDepositsPaused(bool)":"1c481e2d","setMinClaimThreshold(uint256)":"51637ba9","setReferral(address)":"9e5914da","setRewardWallets(address,address,address)":"1d687f0c","setupComplete()":"b6635be6","timelock()":"d33219b4","totalDeposited()":"ff50abdc","totalRewardsPaid()":"74958e35","totalWithdrawn()":"4b319713","usdt()":"2f48ab7d","userDeposits(address,uint256)":"08f43333","users(address)":"a87430ba"}}}}}