{"contracts/OSLOInvestmentEngine.sol":{"OSLOInvestmentEngine":{"abi":[{"inputs":[{"internalType":"address","name":"_usdt","type":"address"},{"internalType":"address","name":"_osloToken","type":"address"},{"internalType":"uint256","name":"_launchTimestamp","type":"uint256"}],"stateMutability":"nonpayable","type":"constructor"},{"inputs":[],"name":"BelowWithdrawalThreshold","type":"error"},{"inputs":[],"name":"DEXNotPriced","type":"error"},{"inputs":[],"name":"DepositCapped","type":"error"},{"inputs":[],"name":"DepositTooHigh","type":"error"},{"inputs":[],"name":"DepositTooLow","type":"error"},{"inputs":[],"name":"DepositsPausedError","type":"error"},{"inputs":[],"name":"InsufficientOsloReserve","type":"error"},{"inputs":[],"name":"InsufficientUSDTReserve","type":"error"},{"inputs":[],"name":"InvalidDeposit","type":"error"},{"inputs":[],"name":"NotConfigured","type":"error"},{"inputs":[],"name":"NotInEarlyExitPeriod","type":"error"},{"inputs":[],"name":"NothingToClaim","type":"error"},{"inputs":[],"name":"OnlyAdmin","type":"error"},{"inputs":[],"name":"OnlyRankSystem","type":"error"},{"inputs":[],"name":"OnlyReferral","type":"error"},{"inputs":[],"name":"OnlyTimelock","type":"error"},{"inputs":[],"name":"ReentrancyGuardReentrantCall","type":"error"},{"inputs":[{"internalType":"address","name":"token","type":"address"}],"name":"SafeERC20FailedOperation","type":"error"},{"inputs":[],"name":"SetupAlreadyComplete","type":"error"},{"inputs":[],"name":"ZeroAddress","type":"error"},{"anonymous":false,"inputs":[{"indexed":true,"internalType":"address","name":"user","type":"address"}],"name":"CombinedCapReached","type":"event"},{"anonymous":false,"inputs":[{"indexed":true,"internalType":"address","name":"user","type":"address"},{"indexed":false,"internalType":"uint256","name":"totalCombined","type":"uint256"}],"name":"CombinedEarningsUpdated","type":"event"},{"anonymous":false,"inputs":[{"indexed":true,"internalType":"address","name":"user","type":"address"},{"indexed":false,"internalType":"uint256","name":"amount","type":"uint256"},{"indexed":false,"internalType":"uint256","name":"tier","type":"uint256"},{"indexed":false,"internalType":"uint256","name":"dailyRate","type":"uint256"},{"indexed":false,"internalType":"uint256","name":"depositIndex","type":"uint256"}],"name":"Deposited","type":"event"},{"anonymous":false,"inputs":[{"indexed":false,"internalType":"bool","name":"paused","type":"bool"}],"name":"DepositsPaused","type":"event"},{"anonymous":false,"inputs":[{"indexed":true,"internalType":"address","name":"user","type":"address"},{"indexed":false,"internalType":"uint256","name":"amountReturned","type":"uint256"},{"indexed":false,"internalType":"uint256","name":"feeDeducted","type":"uint256"},{"indexed":false,"internalType":"uint256","name":"yieldDeducted","type":"uint256"},{"indexed":false,"internalType":"uint256","name":"depositIndex","type":"uint256"}],"name":"EarlyExited","type":"event"},{"anonymous":false,"inputs":[{"indexed":true,"internalType":"address","name":"user","type":"address"},{"indexed":false,"internalType":"uint256","name":"netPrincipal","type":"uint256"},{"indexed":false,"internalType":"uint256","name":"depositIndex","type":"uint256"}],"name":"PrincipalWithdrawn","type":"event"},{"anonymous":false,"inputs":[{"indexed":true,"internalType":"address","name":"oldReferral","type":"address"},{"indexed":true,"internalType":"address","name":"newReferral","type":"address"}],"name":"ReferralUpdated","type":"event"},{"anonymous":false,"inputs":[{"indexed":true,"internalType":"address","name":"user","type":"address"},{"indexed":false,"internalType":"uint256","name":"usdtReward","type":"uint256"},{"indexed":false,"internalType":"uint256","name":"osloAmount","type":"uint256"},{"indexed":false,"internalType":"uint256","name":"depositIndex","type":"uint256"}],"name":"RewardsClaimed","type":"event"},{"inputs":[],"name":"admin","outputs":[{"internalType":"address","name":"","type":"address"}],"stateMutability":"view","type":"function"},{"inputs":[{"internalType":"uint256","name":"depositIndex","type":"uint256"}],"name":"claimRewards","outputs":[],"stateMutability":"nonpayable","type":"function"},{"inputs":[],"name":"completeSetup","outputs":[],"stateMutability":"nonpayable","type":"function"},{"inputs":[{"internalType":"address","name":"_treasury","type":"address"},{"internalType":"address","name":"_referral","type":"address"},{"internalType":"address","name":"_rankSystem","type":"address"},{"internalType":"address","name":"_osloDex","type":"address"},{"internalType":"address","name":"_timelock","type":"address"}],"name":"configure","outputs":[],"stateMutability":"nonpayable","type":"function"},{"inputs":[{"internalType":"uint256","name":"amount","type":"uint256"}],"name":"deposit","outputs":[],"stateMutability":"nonpayable","type":"function"},{"inputs":[],"name":"depositsPaused","outputs":[{"internalType":"bool","name":"","type":"bool"}],"stateMutability":"view","type":"function"},{"inputs":[{"internalType":"uint256","name":"depositIndex","type":"uint256"}],"name":"earlyExit","outputs":[],"stateMutability":"nonpayable","type":"function"},{"inputs":[{"internalType":"address","name":"user","type":"address"}],"name":"getActiveDeposit","outputs":[{"internalType":"uint256","name":"","type":"uint256"}],"stateMutability":"view","type":"function"},{"inputs":[{"internalType":"address","name":"user","type":"address"}],"name":"getCombinedEarnings","outputs":[{"internalType":"uint256","name":"","type":"uint256"}],"stateMutability":"view","type":"function"},{"inputs":[{"internalType":"address","name":"user","type":"address"}],"name":"getDepositCount","outputs":[{"internalType":"uint256","name":"","type":"uint256"}],"stateMutability":"view","type":"function"},{"inputs":[{"internalType":"address","name":"user","type":"address"},{"internalType":"uint256","name":"depositIndex","type":"uint256"}],"name":"getEarlyExitAmount","outputs":[{"internalType":"uint256","name":"principal","type":"uint256"},{"internalType":"uint256","name":"accruedYield","type":"uint256"},{"internalType":"uint256","name":"exitFee","type":"uint256"},{"internalType":"uint256","name":"netReturn","type":"uint256"}],"stateMutability":"view","type":"function"},{"inputs":[{"internalType":"address","name":"user","type":"address"},{"internalType":"uint256","name":"depositIndex","type":"uint256"}],"name":"getPendingRewards","outputs":[{"internalType":"uint256","name":"pendingUSDT","type":"uint256"}],"stateMutability":"view","type":"function"},{"inputs":[{"internalType":"address","name":"user","type":"address"}],"name":"getUserTier","outputs":[{"internalType":"uint256","name":"","type":"uint256"}],"stateMutability":"view","type":"function"},{"inputs":[{"internalType":"address","name":"user","type":"address"},{"internalType":"uint256","name":"depositIndex","type":"uint256"}],"name":"isInEarlyExitPeriod","outputs":[{"internalType":"bool","name":"","type":"bool"}],"stateMutability":"view","type":"function"},{"inputs":[],"name":"launchTimestamp","outputs":[{"internalType":"uint256","name":"","type":"uint256"}],"stateMutability":"view","type":"function"},{"inputs":[{"internalType":"address","name":"user","type":"address"},{"internalType":"uint256","name":"amount","type":"uint256"}],"name":"notifyLevelIncome","outputs":[],"stateMutability":"nonpayable","type":"function"},{"inputs":[{"internalType":"address","name":"user","type":"address"},{"internalType":"uint256","name":"amount","type":"uint256"}],"name":"notifyRankBonus","outputs":[],"stateMutability":"nonpayable","type":"function"},{"inputs":[],"name":"osloDex","outputs":[{"internalType":"address","name":"","type":"address"}],"stateMutability":"view","type":"function"},{"inputs":[],"name":"osloToken","outputs":[{"internalType":"contract IERC20","name":"","type":"address"}],"stateMutability":"view","type":"function"},{"inputs":[],"name":"rankSystem","outputs":[{"internalType":"address","name":"","type":"address"}],"stateMutability":"view","type":"function"},{"inputs":[],"name":"referral","outputs":[{"internalType":"address","name":"","type":"address"}],"stateMutability":"view","type":"function"},{"inputs":[{"internalType":"bool","name":"_paused","type":"bool"}],"name":"setDepositsPaused","outputs":[],"stateMutability":"nonpayable","type":"function"},{"inputs":[{"internalType":"address","name":"_referral","type":"address"}],"name":"setReferral","outputs":[],"stateMutability":"nonpayable","type":"function"},{"inputs":[],"name":"setupComplete","outputs":[{"internalType":"bool","name":"","type":"bool"}],"stateMutability":"view","type":"function"},{"inputs":[],"name":"timelock","outputs":[{"internalType":"address","name":"","type":"address"}],"stateMutability":"view","type":"function"},{"inputs":[],"name":"totalDeposited","outputs":[{"internalType":"uint256","name":"","type":"uint256"}],"stateMutability":"view","type":"function"},{"inputs":[],"name":"totalRewardsPaid","outputs":[{"internalType":"uint256","name":"","type":"uint256"}],"stateMutability":"view","type":"function"},{"inputs":[],"name":"totalWithdrawn","outputs":[{"internalType":"uint256","name":"","type":"uint256"}],"stateMutability":"view","type":"function"},{"inputs":[],"name":"treasury","outputs":[{"internalType":"address","name":"","type":"address"}],"stateMutability":"view","type":"function"},{"inputs":[],"name":"usdt","outputs":[{"internalType":"contract IERC20","name":"","type":"address"}],"stateMutability":"view","type":"function"},{"inputs":[{"internalType":"address","name":"","type":"address"},{"internalType":"uint256","name":"","type":"uint256"}],"name":"userDeposits","outputs":[{"internalType":"uint256","name":"amount","type":"uint256"},{"internalType":"uint256","name":"tier","type":"uint256"},{"internalType":"uint256","name":"dailyRate","type":"uint256"},{"internalType":"uint256","name":"depositTime","type":"uint256"},{"internalType":"uint256","name":"lastClaimTime","type":"uint256"},{"internalType":"uint256","name":"totalClaimed","type":"uint256"},{"internalType":"uint256","name":"maxReturn","type":"uint256"},{"internalType":"bool","name":"active","type":"bool"}],"stateMutability":"view","type":"function"},{"inputs":[{"internalType":"address","name":"","type":"address"}],"name":"users","outputs":[{"internalType":"uint256","name":"totalActiveDeposit","type":"uint256"},{"internalType":"uint256","name":"depositCount","type":"uint256"},{"internalType":"uint256","name":"totalCombinedEarnings","type":"uint256"}],"stateMutability":"view","type":"function"}],"evm":{"bytecode":{"linkReferences":{},"object":"60e06040523480156200001157600080fd5b506040516200260c3803806200260c8339810160408190526200003491620000e0565b60017f9b779b17422d0df92223018b32b4d1fa46e071723d6817e2486d003becc55f00556001600160a01b03831615806200007657506001600160a01b038216155b15620000955760405163d92e233d60e01b815260040160405180910390fd5b6001600160a01b03928316608052911660a05260c052600480546001600160a01b0319163317905562000121565b80516001600160a01b0381168114620000db57600080fd5b919050565b600080600060608486031215620000f657600080fd5b6200010184620000c3565b92506200011160208501620000c3565b9150604084015190509250925092565b60805160a05160c051612459620001b3600039600081816103bc01528181611c250152611df4015260008181610302015281816107a6015281816108e001528181610f260152818161109a0152818161111f015281816117b5015261184101526000818161032901528181610edb015281816111be01528181611627015281816116b001526116ef01526124596000f3fe608060405234801561001057600080fd5b50600436106101f05760003560e01c8063786685e01161010f578063b8af3d3e116100a2578063e4e7c6b411610071578063e4e7c6b41461053e578063e9a16bd514610551578063f851a44014610564578063ff50abdc1461057757600080fd5b8063b8af3d3e146104d2578063ceace7dd146104e5578063d33219b414610518578063e4d2620e1461052b57600080fd5b8063a87430ba116100de578063a87430ba1461044e578063ac948e8314610498578063b6635be6146104ab578063b6b55f25146104bf57600080fd5b8063786685e01461040d5780638565c2bf146104205780638aea8f71146104335780639e5914da1461043b57600080fd5b80633a6f2dcd1161018757806365cf7c9b1161015657806365cf7c9b146103b75780636b9f7ab6146103de57806374958e35146103f1578063760fcb3e146103fa57600080fd5b80633a6f2dcd1461034b5780634b3197131461037757806360da3e831461038057806361d027b3146103a457600080fd5b80631441a5a9116101c35780631441a5a9146102bf5780631c481e2d146102ea5780632acfbca3146102fd5780632f48ab7d1461032457600080fd5b806308f43333146101f55780630962ef791461024a57806313fcaf541461025f578063142a3da314610296575b600080fd5b610208610203366004612210565b610580565b604080519889526020890197909752958701949094526060860192909252608085015260a084015260c0830152151560e0820152610100015b60405180910390f35b61025d61025836600461223c565b6105e5565b005b61028861026d366004612255565b6001600160a01b031660009081526006602052604090205490565b604051908152602001610241565b6102886102a4366004612255565b6001600160a01b031660009081526007602052604090205490565b6002546102d2906001600160a01b031681565b6040516001600160a01b039091168152602001610241565b61025d6102f8366004612272565b610a21565b6102d27f000000000000000000000000000000000000000000000000000000000000000081565b6102d27f000000000000000000000000000000000000000000000000000000000000000081565b610288610359366004612255565b6001600160a01b031660009081526007602052604090206002015490565b61028860095481565b60055461039490600160a81b900460ff1681565b6040519015158152602001610241565b6001546102d2906001600160a01b031681565b6102887f000000000000000000000000000000000000000000000000000000000000000081565b61025d6103ec366004612210565b610aa4565b610288600a5481565b61025d610408366004612294565b610b53565b61039461041b366004612210565b610c2f565b6000546102d2906001600160a01b031681565b61025d610cc9565b61025d610449366004612255565b610d6d565b61047d61045c366004612255565b60076020526000908152604090208054600182015460029092015490919083565b60408051938452602084019290925290820152606001610241565b61025d6104a6366004612210565b610df4565b60055461039490600160a01b900460ff1681565b61025d6104cd36600461223c565b610e1f565b61025d6104e036600461223c565b6114ac565b6104f86104f3366004612210565b61192c565b604080519485526020850193909352918301526060820152608001610241565b6005546102d2906001600160a01b031681565b610288610539366004612255565b611a3c565b61028861054c366004612210565b611a85565b6003546102d2906001600160a01b031681565b6004546102d2906001600160a01b031681565b61028860085481565b6006602052816000526040600020818154811061059c57600080fd5b6000918252602090912060089091020180546001820154600283015460038401546004850154600586015460068701546007909701549598509396509194909391929160ff1688565b6105ed611b11565b60006105f93383611b2d565b905060006106073383611bce565b90508060000361062a576040516312d37ee560e31b815260040160405180910390fd5b678ac7230489e8000081101561065357604051637e3f2b7d60e01b815260040160405180910390fd5b81546000906106649060039061231b565b3360009081526007602052604081206002810154929350918311610689576000610698565b60028201546106989084612332565b9050806000036106f25760078501805460ff1916905560405133907ffa1eb7ba4f65747c7c8882031eb92d63b6fcb684b75052185312fbe1a488d94390600090a26040516305a2e88560e21b815260040160405180910390fd5b808411156106fe578093505b600080546040516311ea9fa960e21b8152600481018790526001600160a01b03909116906347aa7ea490602401602060405180830381865afa158015610748573d6000803e3d6000fd5b505050506040513d601f19601f8201168201806040525081019061076c9190612345565b90508060000361078f5760405163cc88465760e01b815260040160405180910390fd5b6040516370a0823160e01b815230600482015281907f00000000000000000000000000000000000000000000000000000000000000006001600160a01b0316906370a0823190602401602060405180830381865afa1580156107f5573d6000803e3d6000fd5b505050506040513d601f19601f820116820180604052508101906108199190612345565b10156108385760405163075e464560e01b815260040160405180910390fd5b8486600501600082825461084c919061235e565b909155505042600487015560028301805486919060009061086e90849061235e565b9250508190555084600a6000828254610887919061235e565b909155505060068601546005870154106108d35760078601805460ff1916905560405133907ffa1eb7ba4f65747c7c8882031eb92d63b6fcb684b75052185312fbe1a488d94390600090a25b6109076001600160a01b037f0000000000000000000000000000000000000000000000000000000000000000163383611cca565b6002546001600160a01b03161561098357841561098357600254604051638000d99160e01b8152336004820152602481018790526001600160a01b0390911690638000d99190604401600060405180830381600087803b15801561096a57600080fd5b505af115801561097e573d6000803e3d6000fd5b505050505b604080518681526020810183905290810188905233907f56253d287efacdb2c4cd76dd03624a4821c1ce721d1152e8f5f5718f6087c9bf9060600160405180910390a2600283015460405190815233907fdad0e43afdd45daca2566e861ff76f0250960d86947518722c83b1e03f45edd5906020015b60405180910390a2505050505050610a1e600160008051602061240483398151915255565b50565b6005546001600160a01b03163314610a4c57604051630e05f48560e11b815260040160405180910390fd5b60058054821515600160a81b0260ff60a81b199091161790556040517f5ef34f53269a04b5b817e5be24a51ba6b477118b399ec9dd5b2baf5b299563dc90610a9990831515815260200190565b60405180910390a150565b6002546001600160a01b03163314610acf57604051633864b1e560e21b815260040160405180910390fd5b6001600160a01b03821660009081526007602052604081206002018054839290610afa90849061235e565b90915550506001600160a01b0382166000818152600760209081526040918290206002015491519182527fdad0e43afdd45daca2566e861ff76f0250960d86947518722c83b1e03f45edd5910160405180910390a25050565b6004546001600160a01b03163314610b7e57604051634755657960e01b815260040160405180910390fd5b600554600160a01b900460ff1615610ba95760405163238f75d360e01b815260040160405180910390fd5b6001600160a01b038216610bd05760405163d92e233d60e01b815260040160405180910390fd5b600180546001600160a01b03199081166001600160a01b03978816179091556002805482169587169590951790945560038054851693861693909317909255600080548416918516919091179055600580549092169216919091179055565b6001600160a01b0382166000908152600660205260408120548210610c5657506000610cc3565b6001600160a01b0383166000908152600660205260408120805484908110610c8057610c80612371565b60009182526020909120600890910201600781015490915060ff16610ca9576000915050610cc3565b620d2f008160030154610cbc919061235e565b4211159150505b92915050565b6004546001600160a01b03163314610cf457604051634755657960e01b815260040160405180910390fd5b600554600160a01b900460ff1615610d1f5760405163238f75d360e01b815260040160405180910390fd5b6001546001600160a01b0316610d485760405163d311bc3960e01b815260040160405180910390fd5b6005805460ff60a01b1916600160a01b179055600480546001600160a01b0319169055565b6005546001600160a01b03163314610d9857604051630e05f48560e11b815260040160405180910390fd5b6002546040516001600160a01b038084169216907feefe1ce2782e4ba3bbccd79617fae74979fa22005f22f7075c0910cd51c8ffd990600090a3600280546001600160a01b0319166001600160a01b0392909216919091179055565b6003546001600160a01b03163314610acf57604051633327311360e11b815260040160405180910390fd5b610e27611b11565b600554600160a81b900460ff1615610e5157604051627cfe7f60e31b815260040160405180910390fd5b678ac7230489e80000811015610e7a57604051632b7786bd60e21b815260040160405180910390fd5b69010f0cf064dd59200000811115610ea55760405163c066e1e960e01b815260040160405180910390fd5b6000546001600160a01b0316610ece5760405163d311bc3960e01b815260040160405180910390fd5b610f036001600160a01b037f000000000000000000000000000000000000000000000000000000000000000016333084611d09565b600080546040516370a0823160e01b81526001600160a01b0391821660048201527f0000000000000000000000000000000000000000000000000000000000000000909116906370a0823190602401602060405180830381865afa158015610f6f573d6000803e3d6000fd5b505050506040513d601f19601f82011682018060405250810190610f939190612345565b6000805460408051630240bc6b60e21b815281519495509293849384936001600160a01b031692630902f1ac926004808401938290030181865afa158015610fdf573d6000803e3d6000fd5b505050506040513d601f19601f820116820180604052508101906110039190612387565b915091506000821180156110175750600081115b1561104157611026858361235e565b611030828761231b565b61103a91906123ab565b9250611045565b8492505b683635c9adc5dea00000611059818561235e565b8510156111aa5760008561106d838761235e565b6110779190612332565b6040516370a0823160e01b81523060048201529091506000906001600160a01b037f000000000000000000000000000000000000000000000000000000000000000016906370a0823190602401602060405180830381865afa1580156110e1573d6000803e3d6000fd5b505050506040513d601f19601f820116820180604052508101906111059190612345565b90508181106111a757600054611148906001600160a01b037f00000000000000000000000000000000000000000000000000000000000000008116911684611d45565b60005460405163362ce52b60e01b8152600481018490526001600160a01b039091169063362ce52b90602401600060405180830381600087803b15801561118e57600080fd5b505af11580156111a2573d6000803e3d6000fd5b505050505b50505b50506000546111ea93506001600160a01b037f00000000000000000000000000000000000000000000000000000000000000008116935016905083611d45565b6000805460405163066102ad60e11b8152600481018490526001600160a01b0390911690630cc2055a906024016020604051808303816000875af1158015611236573d6000803e3d6000fd5b505050506040513d601f19601f8201168201806040525081019061125a9190612345565b9050600061126783611d99565b9050600061127484611dec565b9050600061128360038661231b565b3360008181526006602081815260408084208151610100810183528c81528084018b81528184018b815242606084018181526080850191825260a085018a815260c086018d8152600160e0880181815289548083018b55998e528b8e2098516008909a0290980198895595519588019590955592516002870155516003860155516004850155516005840155519482019490945592516007938401805460ff1916911515919091179055938352529081208054929350879290919061134990849061235e565b909155505033600090815260076020526040812060010180549161136c836123cd565b91905055508460086000828254611383919061235e565b90915550506002546001600160a01b0316156113f75760025460405163095ce44b60e21b81523360048201526001600160a01b0390911690632573912c90602401600060405180830381600087803b1580156113de57600080fd5b505af11580156113f2573d6000803e3d6000fd5b505050505b6003546001600160a01b03161580159061141b57506002546001600160a01b031615155b1561142a5761142a3386611f09565b336000818152600660205260409020547fe3b53cd1a44fbf11535e145d80b8ef1ed6d57a73bf5daa7e939b6b01657d65499087908690869061146e90600190612332565b60408051948552602085019390935291830152606082015260800160405180910390a250505050610a1e600160008051602061240483398151915255565b6114b4611b11565b60006114c03383611b2d565b9050620d2f0081600301546114d5919061235e565b4211156114f55760405163693ed15b60e11b815260040160405180910390fd5b805460006115033384611bce565b905060006127106115166103e88561231b565b61152091906123ab565b9050600061152e828461235e565b9050600081851161154057600061154a565b61154a8286612332565b6007808801805460ff19169055336000908152602091909152604081208054929350879290919061157c908490612332565b925050819055508460096000828254611595919061235e565b90915550506002546001600160a01b0316156116095760025460405163095ce44b60e21b81523360048201526001600160a01b0390911690632573912c90602401600060405180830381600087803b1580156115f057600080fd5b505af1158015611604573d6000803e3d6000fd5b505050505b80156118e5576040516370a0823160e01b81523060048201526000907f00000000000000000000000000000000000000000000000000000000000000006001600160a01b0316906370a0823190602401602060405180830381865afa158015611676573d6000803e3d6000fd5b505050506040513d601f19601f8201168201806040525081019061169a9190612345565b90508181106116dc576116d76001600160a01b037f0000000000000000000000000000000000000000000000000000000000000000163384611cca565b6118e3565b8015611723576117166001600160a01b037f0000000000000000000000000000000000000000000000000000000000000000163383611cca565b6117208183612332565b91505b600080546040516311ea9fa960e21b8152600481018590526001600160a01b03909116906347aa7ea490602401602060405180830381865afa15801561176d573d6000803e3d6000fd5b505050506040513d601f19601f820116820180604052508101906117919190612345565b905060008111801561182b57506040516370a0823160e01b815230600482015281907f00000000000000000000000000000000000000000000000000000000000000006001600160a01b0316906370a0823190602401602060405180830381865afa158015611804573d6000803e3d6000fd5b505050506040513d601f19601f820116820180604052508101906118289190612345565b10155b156118e15760005461186a906001600160a01b037f00000000000000000000000000000000000000000000000000000000000000008116911683611d45565b60005460405163f843e64160e01b8152600481018390523360248201526001600160a01b039091169063f843e641906044016020604051808303816000875af11580156118bb573d6000803e3d6000fd5b505050506040513d601f19601f820116820180604052508101906118df9190612345565b505b505b505b60408051828152602081018590529081018590526060810188905233907f4ade67ef7e7c5e4d9c50de61a4e8c555be92c9b37e3ca6716eb02a1f0e471da5906080016109f9565b6001600160a01b038216600090815260066020526040812054819081908190851061196257506000925082915081905080611a33565b6001600160a01b038616600090815260066020526040812080548790811061198c5761198c612371565b60009182526020909120600890910201600781015490915060ff1615806119c45750620d2f0081600301546119c1919061235e565b42115b156119dd57600080600080945094509450945050611a33565b805494506119eb8782611bce565b93506127106119fc6103e88761231b565b611a0691906123ab565b92506000611a14848661235e565b9050808611611a24576000611a2e565b611a2e8187612332565b925050505b92959194509250565b6001600160a01b0381166000908152600760205260408120548103611a6357506000919050565b6001600160a01b038216600090815260076020526040902054610cc390611d99565b6001600160a01b0382166000908152600660205260408120548210611aac57506000610cc3565b6001600160a01b0383166000908152600660205260408120805484908110611ad657611ad6612371565b60009182526020909120600890910201600781015490915060ff16611aff576000915050610cc3565b611b098482611bce565b949350505050565b611b19612042565b600260008051602061240483398151915255565b6001600160a01b0382166000908152600660205260408120548210611b6557604051635972996f60e11b815260040160405180910390fd5b6001600160a01b0383166000908152600660205260408120805484908110611b8f57611b8f612371565b60009182526020909120600890910201600781015490915060ff16611bc7576040516305a2e88560e21b815260040160405180910390fd5b9392505050565b600781015460009060ff16611be557506000610cc3565b6000826004015442611bf79190612332565b905080600003611c0b576000915050610cc3565b6000611c1a8460000154611dec565b90506276a700611c4a7f000000000000000000000000000000000000000000000000000000000000000042612332565b10611c535750602d5b611c626127106201518061231b565b84548390611c7190849061231b565b611c7b919061231b565b611c8591906123ab565b925060008460050154856006015411611c9f576000611cb3565b84600501548560060154611cb39190612332565b905080841115611cc1578093505b50505092915050565b611cd78383836001612074565b611d0457604051635274afe760e01b81526001600160a01b03841660048201526024015b60405180910390fd5b505050565b611d178484848460016120da565b611d3f57604051635274afe760e01b81526001600160a01b0385166004820152602401611cfb565b50505050565b611d52838383600061214c565b611d0457611d6483836000600161214c565b611d8c57604051635274afe760e01b81526001600160a01b0384166004820152602401611cfb565b611cd7838383600161214c565b600069010f0cf064dd592000008210611db457506004919050565b68878678326eac9000008210611dcc57506003919050565b681b1ae4d6e2ef5000008210611de457506002919050565b506001919050565b600080611e197f000000000000000000000000000000000000000000000000000000000000000042612332565b90506276a7008110611e2e5750602d92915050565b6000611e3984611d99565b905080600103611e6357611b0984678ac7230489e80000681b0d04202f47ec000060326064612199565b80600203611e8c57611b0984681b1ae4d6e2ef500000688778977bbb052c0000604b6073612199565b80600303611eb657611b098468878678326eac90000069010eff0fae29b1bc000060646096612199565b6000690a968163f0a57b4000008511611ecf5784611edb565b690a968163f0a57b4000005b9050611f008169010f0cf064dd59200000690a968163f0a57b400000606460af612199565b95945050505050565b6002546001600160a01b03161580611f2a57506003546001600160a01b0316155b15611f33575050565b8160005b6014811015611d3f57600254604051634a9fefc760e01b81526001600160a01b0384811660048301526000921690634a9fefc790602401602060405180830381865afa158015611f8b573d6000803e3d6000fd5b505050506040513d601f19601f82011682018060405250810190611faf91906123e6565b90506001600160a01b038116611fc55750611d3f565b60035460405163d9bd5f2d60e01b81526001600160a01b0383811660048301528581166024830152604482018790529091169063d9bd5f2d90606401600060405180830381600087803b15801561201b57600080fd5b505af115801561202f573d6000803e3d6000fd5b509294505060019092019150611f379050565b6000805160206124048339815191525460020361207257604051633ee5aeb560e01b815260040160405180910390fd5b565b60405163a9059cbb60e01b60008181526001600160a01b038616600452602485905291602083604481808b5af1925060016000511483166120ce5783831516156120c1573d6000823e3d81fd5b6000873b113d1516831692505b60405250949350505050565b6040516323b872dd60e01b60008181526001600160a01b038781166004528616602452604485905291602083606481808c5af19250600160005114831661213a57838315161561212d573d6000823e3d81fd5b6000883b113d1516831692505b60405250600060605295945050505050565b60405163095ea7b360e01b60008181526001600160a01b038616600452602485905291602083604481808b5af1925060016000511483166120ce5783831516156120c1573d6000823e3d81fd5b60008484116121a9575081611f00565b60006121b58484612332565b905060006121c38787612332565b905080826121d1898b612332565b6121db919061231b565b6121e591906123ab565b6121ef908661235e565b98975050505050505050565b6001600160a01b0381168114610a1e57600080fd5b6000806040838503121561222357600080fd5b823561222e816121fb565b946020939093013593505050565b60006020828403121561224e57600080fd5b5035919050565b60006020828403121561226757600080fd5b8135611bc7816121fb565b60006020828403121561228457600080fd5b81358015158114611bc757600080fd5b600080600080600060a086880312156122ac57600080fd5b85356122b7816121fb565b945060208601356122c7816121fb565b935060408601356122d7816121fb565b925060608601356122e7816121fb565b915060808601356122f7816121fb565b809150509295509295909350565b634e487b7160e01b600052601160045260246000fd5b8082028115828204841417610cc357610cc3612305565b81810381811115610cc357610cc3612305565b60006020828403121561235757600080fd5b5051919050565b80820180821115610cc357610cc3612305565b634e487b7160e01b600052603260045260246000fd5b6000806040838503121561239a57600080fd5b505080516020909101519092909150565b6000826123c857634e487b7160e01b600052601260045260246000fd5b500490565b6000600182016123df576123df612305565b5060010190565b6000602082840312156123f857600080fd5b8151611bc7816121fb56fe9b779b17422d0df92223018b32b4d1fa46e071723d6817e2486d003becc55f00a264697066735822122038cb9c600c0e7e12b97356d7733e28e0ed1a48e7d529d0535209f94c74c3815a64736f6c63430008180033","opcodes":"PUSH1 0xE0 PUSH1 0x40 MSTORE CALLVALUE DUP1 ISZERO PUSH3 0x11 JUMPI PUSH1 0x0 DUP1 REVERT JUMPDEST POP PUSH1 0x40 MLOAD PUSH3 0x260C CODESIZE SUB DUP1 PUSH3 0x260C DUP4 CODECOPY DUP2 ADD PUSH1 0x40 DUP2 SWAP1 MSTORE PUSH3 0x34 SWAP2 PUSH3 0xE0 JUMP JUMPDEST PUSH1 0x1 PUSH32 0x9B779B17422D0DF92223018B32B4D1FA46E071723D6817E2486D003BECC55F00 SSTORE PUSH1 0x1 PUSH1 0x1 PUSH1 0xA0 SHL SUB DUP4 AND ISZERO DUP1 PUSH3 0x76 JUMPI POP PUSH1 0x1 PUSH1 0x1 PUSH1 0xA0 SHL SUB DUP3 AND ISZERO JUMPDEST ISZERO PUSH3 0x95 JUMPI PUSH1 0x40 MLOAD PUSH4 0xD92E233D PUSH1 0xE0 SHL DUP2 MSTORE PUSH1 0x4 ADD PUSH1 0x40 MLOAD DUP1 SWAP2 SUB SWAP1 REVERT JUMPDEST PUSH1 0x1 PUSH1 0x1 PUSH1 0xA0 SHL SUB SWAP3 DUP4 AND PUSH1 0x80 MSTORE SWAP2 AND PUSH1 0xA0 MSTORE PUSH1 0xC0 MSTORE PUSH1 0x4 DUP1 SLOAD PUSH1 0x1 PUSH1 0x1 PUSH1 0xA0 SHL SUB NOT AND CALLER OR SWAP1 SSTORE PUSH3 0x121 JUMP JUMPDEST DUP1 MLOAD PUSH1 0x1 PUSH1 0x1 PUSH1 0xA0 SHL SUB DUP2 AND DUP2 EQ PUSH3 0xDB JUMPI PUSH1 0x0 DUP1 REVERT JUMPDEST SWAP2 SWAP1 POP JUMP JUMPDEST PUSH1 0x0 DUP1 PUSH1 0x0 PUSH1 0x60 DUP5 DUP7 SUB SLT ISZERO PUSH3 0xF6 JUMPI PUSH1 0x0 DUP1 REVERT JUMPDEST PUSH3 0x101 DUP5 PUSH3 0xC3 JUMP JUMPDEST SWAP3 POP PUSH3 0x111 PUSH1 0x20 DUP6 ADD PUSH3 0xC3 JUMP JUMPDEST SWAP2 POP PUSH1 0x40 DUP5 ADD MLOAD SWAP1 POP SWAP3 POP SWAP3 POP SWAP3 JUMP JUMPDEST PUSH1 0x80 MLOAD PUSH1 0xA0 MLOAD PUSH1 0xC0 MLOAD PUSH2 0x2459 PUSH3 0x1B3 PUSH1 0x0 CODECOPY PUSH1 0x0 DUP2 DUP2 PUSH2 0x3BC ADD MSTORE DUP2 DUP2 PUSH2 0x1C25 ADD MSTORE PUSH2 0x1DF4 ADD MSTORE PUSH1 0x0 DUP2 DUP2 PUSH2 0x302 ADD MSTORE DUP2 DUP2 PUSH2 0x7A6 ADD MSTORE DUP2 DUP2 PUSH2 0x8E0 ADD MSTORE DUP2 DUP2 PUSH2 0xF26 ADD MSTORE DUP2 DUP2 PUSH2 0x109A ADD MSTORE DUP2 DUP2 PUSH2 0x111F ADD MSTORE DUP2 DUP2 PUSH2 0x17B5 ADD MSTORE PUSH2 0x1841 ADD MSTORE PUSH1 0x0 DUP2 DUP2 PUSH2 0x329 ADD MSTORE DUP2 DUP2 PUSH2 0xEDB ADD MSTORE DUP2 DUP2 PUSH2 0x11BE ADD MSTORE DUP2 DUP2 PUSH2 0x1627 ADD MSTORE DUP2 DUP2 PUSH2 0x16B0 ADD MSTORE PUSH2 0x16EF ADD MSTORE PUSH2 0x2459 PUSH1 0x0 RETURN INVALID PUSH1 0x80 PUSH1 0x40 MSTORE CALLVALUE DUP1 ISZERO PUSH2 0x10 JUMPI PUSH1 0x0 DUP1 REVERT JUMPDEST POP PUSH1 0x4 CALLDATASIZE LT PUSH2 0x1F0 JUMPI PUSH1 0x0 CALLDATALOAD PUSH1 0xE0 SHR DUP1 PUSH4 0x786685E0 GT PUSH2 0x10F JUMPI DUP1 PUSH4 0xB8AF3D3E GT PUSH2 0xA2 JUMPI DUP1 PUSH4 0xE4E7C6B4 GT PUSH2 0x71 JUMPI DUP1 PUSH4 0xE4E7C6B4 EQ PUSH2 0x53E JUMPI DUP1 PUSH4 0xE9A16BD5 EQ PUSH2 0x551 JUMPI DUP1 PUSH4 0xF851A440 EQ PUSH2 0x564 JUMPI DUP1 PUSH4 0xFF50ABDC EQ PUSH2 0x577 JUMPI PUSH1 0x0 DUP1 REVERT JUMPDEST DUP1 PUSH4 0xB8AF3D3E EQ PUSH2 0x4D2 JUMPI DUP1 PUSH4 0xCEACE7DD EQ PUSH2 0x4E5 JUMPI DUP1 PUSH4 0xD33219B4 EQ PUSH2 0x518 JUMPI DUP1 PUSH4 0xE4D2620E EQ PUSH2 0x52B JUMPI PUSH1 0x0 DUP1 REVERT JUMPDEST DUP1 PUSH4 0xA87430BA GT PUSH2 0xDE JUMPI DUP1 PUSH4 0xA87430BA EQ PUSH2 0x44E JUMPI DUP1 PUSH4 0xAC948E83 EQ PUSH2 0x498 JUMPI DUP1 PUSH4 0xB6635BE6 EQ PUSH2 0x4AB JUMPI DUP1 PUSH4 0xB6B55F25 EQ PUSH2 0x4BF JUMPI PUSH1 0x0 DUP1 REVERT JUMPDEST DUP1 PUSH4 0x786685E0 EQ PUSH2 0x40D JUMPI DUP1 PUSH4 0x8565C2BF EQ PUSH2 0x420 JUMPI DUP1 PUSH4 0x8AEA8F71 EQ PUSH2 0x433 JUMPI DUP1 PUSH4 0x9E5914DA EQ PUSH2 0x43B JUMPI PUSH1 0x0 DUP1 REVERT JUMPDEST DUP1 PUSH4 0x3A6F2DCD GT PUSH2 0x187 JUMPI DUP1 PUSH4 0x65CF7C9B GT PUSH2 0x156 JUMPI DUP1 PUSH4 0x65CF7C9B EQ PUSH2 0x3B7 JUMPI DUP1 PUSH4 0x6B9F7AB6 EQ PUSH2 0x3DE JUMPI DUP1 PUSH4 0x74958E35 EQ PUSH2 0x3F1 JUMPI DUP1 PUSH4 0x760FCB3E EQ PUSH2 0x3FA JUMPI PUSH1 0x0 DUP1 REVERT JUMPDEST DUP1 PUSH4 0x3A6F2DCD EQ PUSH2 0x34B JUMPI DUP1 PUSH4 0x4B319713 EQ PUSH2 0x377 JUMPI DUP1 PUSH4 0x60DA3E83 EQ PUSH2 0x380 JUMPI DUP1 PUSH4 0x61D027B3 EQ PUSH2 0x3A4 JUMPI PUSH1 0x0 DUP1 REVERT JUMPDEST DUP1 PUSH4 0x1441A5A9 GT PUSH2 0x1C3 JUMPI DUP1 PUSH4 0x1441A5A9 EQ PUSH2 0x2BF JUMPI DUP1 PUSH4 0x1C481E2D EQ PUSH2 0x2EA JUMPI DUP1 PUSH4 0x2ACFBCA3 EQ PUSH2 0x2FD JUMPI DUP1 PUSH4 0x2F48AB7D EQ PUSH2 0x324 JUMPI PUSH1 0x0 DUP1 REVERT JUMPDEST DUP1 PUSH4 0x8F43333 EQ PUSH2 0x1F5 JUMPI DUP1 PUSH4 0x962EF79 EQ PUSH2 0x24A JUMPI DUP1 PUSH4 0x13FCAF54 EQ PUSH2 0x25F JUMPI DUP1 PUSH4 0x142A3DA3 EQ PUSH2 0x296 JUMPI JUMPDEST PUSH1 0x0 DUP1 REVERT JUMPDEST PUSH2 0x208 PUSH2 0x203 CALLDATASIZE PUSH1 0x4 PUSH2 0x2210 JUMP JUMPDEST PUSH2 0x580 JUMP JUMPDEST PUSH1 0x40 DUP1 MLOAD SWAP9 DUP10 MSTORE PUSH1 0x20 DUP10 ADD SWAP8 SWAP1 SWAP8 MSTORE SWAP6 DUP8 ADD SWAP5 SWAP1 SWAP5 MSTORE PUSH1 0x60 DUP7 ADD SWAP3 SWAP1 SWAP3 MSTORE PUSH1 0x80 DUP6 ADD MSTORE PUSH1 0xA0 DUP5 ADD MSTORE PUSH1 0xC0 DUP4 ADD MSTORE ISZERO ISZERO PUSH1 0xE0 DUP3 ADD MSTORE PUSH2 0x100 ADD JUMPDEST PUSH1 0x40 MLOAD DUP1 SWAP2 SUB SWAP1 RETURN JUMPDEST PUSH2 0x25D PUSH2 0x258 CALLDATASIZE PUSH1 0x4 PUSH2 0x223C JUMP JUMPDEST PUSH2 0x5E5 JUMP JUMPDEST STOP JUMPDEST PUSH2 0x288 PUSH2 0x26D CALLDATASIZE PUSH1 0x4 PUSH2 0x2255 JUMP JUMPDEST PUSH1 0x1 PUSH1 0x1 PUSH1 0xA0 SHL SUB AND PUSH1 0x0 SWAP1 DUP2 MSTORE PUSH1 0x6 PUSH1 0x20 MSTORE PUSH1 0x40 SWAP1 KECCAK256 SLOAD SWAP1 JUMP JUMPDEST PUSH1 0x40 MLOAD SWAP1 DUP2 MSTORE PUSH1 0x20 ADD PUSH2 0x241 JUMP JUMPDEST PUSH2 0x288 PUSH2 0x2A4 CALLDATASIZE PUSH1 0x4 PUSH2 0x2255 JUMP JUMPDEST PUSH1 0x1 PUSH1 0x1 PUSH1 0xA0 SHL SUB AND PUSH1 0x0 SWAP1 DUP2 MSTORE PUSH1 0x7 PUSH1 0x20 MSTORE PUSH1 0x40 SWAP1 KECCAK256 SLOAD SWAP1 JUMP JUMPDEST PUSH1 0x2 SLOAD PUSH2 0x2D2 SWAP1 PUSH1 0x1 PUSH1 0x1 PUSH1 0xA0 SHL SUB AND DUP2 JUMP JUMPDEST PUSH1 0x40 MLOAD PUSH1 0x1 PUSH1 0x1 PUSH1 0xA0 SHL SUB SWAP1 SWAP2 AND DUP2 MSTORE PUSH1 0x20 ADD PUSH2 0x241 JUMP JUMPDEST PUSH2 0x25D PUSH2 0x2F8 CALLDATASIZE PUSH1 0x4 PUSH2 0x2272 JUMP JUMPDEST PUSH2 0xA21 JUMP JUMPDEST PUSH2 0x2D2 PUSH32 0x0 DUP2 JUMP JUMPDEST PUSH2 0x2D2 PUSH32 0x0 DUP2 JUMP JUMPDEST PUSH2 0x288 PUSH2 0x359 CALLDATASIZE PUSH1 0x4 PUSH2 0x2255 JUMP JUMPDEST PUSH1 0x1 PUSH1 0x1 PUSH1 0xA0 SHL SUB AND PUSH1 0x0 SWAP1 DUP2 MSTORE PUSH1 0x7 PUSH1 0x20 MSTORE PUSH1 0x40 SWAP1 KECCAK256 PUSH1 0x2 ADD SLOAD SWAP1 JUMP JUMPDEST PUSH2 0x288 PUSH1 0x9 SLOAD DUP2 JUMP JUMPDEST PUSH1 0x5 SLOAD PUSH2 0x394 SWAP1 PUSH1 0x1 PUSH1 0xA8 SHL SWAP1 DIV PUSH1 0xFF AND DUP2 JUMP JUMPDEST PUSH1 0x40 MLOAD SWAP1 ISZERO ISZERO DUP2 MSTORE PUSH1 0x20 ADD PUSH2 0x241 JUMP JUMPDEST PUSH1 0x1 SLOAD PUSH2 0x2D2 SWAP1 PUSH1 0x1 PUSH1 0x1 PUSH1 0xA0 SHL SUB AND DUP2 JUMP JUMPDEST PUSH2 0x288 PUSH32 0x0 DUP2 JUMP JUMPDEST PUSH2 0x25D PUSH2 0x3EC CALLDATASIZE PUSH1 0x4 PUSH2 0x2210 JUMP JUMPDEST PUSH2 0xAA4 JUMP JUMPDEST PUSH2 0x288 PUSH1 0xA SLOAD DUP2 JUMP JUMPDEST PUSH2 0x25D PUSH2 0x408 CALLDATASIZE PUSH1 0x4 PUSH2 0x2294 JUMP JUMPDEST PUSH2 0xB53 JUMP JUMPDEST PUSH2 0x394 PUSH2 0x41B CALLDATASIZE PUSH1 0x4 PUSH2 0x2210 JUMP JUMPDEST PUSH2 0xC2F JUMP JUMPDEST PUSH1 0x0 SLOAD PUSH2 0x2D2 SWAP1 PUSH1 0x1 PUSH1 0x1 PUSH1 0xA0 SHL SUB AND DUP2 JUMP JUMPDEST PUSH2 0x25D PUSH2 0xCC9 JUMP JUMPDEST PUSH2 0x25D PUSH2 0x449 CALLDATASIZE PUSH1 0x4 PUSH2 0x2255 JUMP JUMPDEST PUSH2 0xD6D JUMP JUMPDEST PUSH2 0x47D PUSH2 0x45C CALLDATASIZE PUSH1 0x4 PUSH2 0x2255 JUMP JUMPDEST PUSH1 0x7 PUSH1 0x20 MSTORE PUSH1 0x0 SWAP1 DUP2 MSTORE PUSH1 0x40 SWAP1 KECCAK256 DUP1 SLOAD PUSH1 0x1 DUP3 ADD SLOAD PUSH1 0x2 SWAP1 SWAP3 ADD SLOAD SWAP1 SWAP2 SWAP1 DUP4 JUMP JUMPDEST PUSH1 0x40 DUP1 MLOAD SWAP4 DUP5 MSTORE PUSH1 0x20 DUP5 ADD SWAP3 SWAP1 SWAP3 MSTORE SWAP1 DUP3 ADD MSTORE PUSH1 0x60 ADD PUSH2 0x241 JUMP JUMPDEST PUSH2 0x25D PUSH2 0x4A6 CALLDATASIZE PUSH1 0x4 PUSH2 0x2210 JUMP JUMPDEST PUSH2 0xDF4 JUMP JUMPDEST PUSH1 0x5 SLOAD PUSH2 0x394 SWAP1 PUSH1 0x1 PUSH1 0xA0 SHL SWAP1 DIV PUSH1 0xFF AND DUP2 JUMP JUMPDEST PUSH2 0x25D PUSH2 0x4CD CALLDATASIZE PUSH1 0x4 PUSH2 0x223C JUMP JUMPDEST PUSH2 0xE1F JUMP JUMPDEST PUSH2 0x25D PUSH2 0x4E0 CALLDATASIZE PUSH1 0x4 PUSH2 0x223C JUMP JUMPDEST PUSH2 0x14AC JUMP JUMPDEST PUSH2 0x4F8 PUSH2 0x4F3 CALLDATASIZE PUSH1 0x4 PUSH2 0x2210 JUMP JUMPDEST PUSH2 0x192C JUMP JUMPDEST PUSH1 0x40 DUP1 MLOAD SWAP5 DUP6 MSTORE PUSH1 0x20 DUP6 ADD SWAP4 SWAP1 SWAP4 MSTORE SWAP2 DUP4 ADD MSTORE PUSH1 0x60 DUP3 ADD MSTORE PUSH1 0x80 ADD PUSH2 0x241 JUMP JUMPDEST PUSH1 0x5 SLOAD PUSH2 0x2D2 SWAP1 PUSH1 0x1 PUSH1 0x1 PUSH1 0xA0 SHL SUB AND DUP2 JUMP JUMPDEST PUSH2 0x288 PUSH2 0x539 CALLDATASIZE PUSH1 0x4 PUSH2 0x2255 JUMP JUMPDEST PUSH2 0x1A3C JUMP JUMPDEST PUSH2 0x288 PUSH2 0x54C CALLDATASIZE PUSH1 0x4 PUSH2 0x2210 JUMP JUMPDEST PUSH2 0x1A85 JUMP JUMPDEST PUSH1 0x3 SLOAD PUSH2 0x2D2 SWAP1 PUSH1 0x1 PUSH1 0x1 PUSH1 0xA0 SHL SUB AND DUP2 JUMP JUMPDEST PUSH1 0x4 SLOAD PUSH2 0x2D2 SWAP1 PUSH1 0x1 PUSH1 0x1 PUSH1 0xA0 SHL SUB AND DUP2 JUMP JUMPDEST PUSH2 0x288 PUSH1 0x8 SLOAD DUP2 JUMP JUMPDEST PUSH1 0x6 PUSH1 0x20 MSTORE DUP2 PUSH1 0x0 MSTORE PUSH1 0x40 PUSH1 0x0 KECCAK256 DUP2 DUP2 SLOAD DUP2 LT PUSH2 0x59C JUMPI PUSH1 0x0 DUP1 REVERT JUMPDEST PUSH1 0x0 SWAP2 DUP3 MSTORE PUSH1 0x20 SWAP1 SWAP2 KECCAK256 PUSH1 0x8 SWAP1 SWAP2 MUL ADD DUP1 SLOAD PUSH1 0x1 DUP3 ADD SLOAD PUSH1 0x2 DUP4 ADD SLOAD PUSH1 0x3 DUP5 ADD SLOAD PUSH1 0x4 DUP6 ADD SLOAD PUSH1 0x5 DUP7 ADD SLOAD PUSH1 0x6 DUP8 ADD SLOAD PUSH1 0x7 SWAP1 SWAP8 ADD SLOAD SWAP6 SWAP9 POP SWAP4 SWAP7 POP SWAP2 SWAP5 SWAP1 SWAP4 SWAP2 SWAP3 SWAP2 PUSH1 0xFF AND DUP9 JUMP JUMPDEST PUSH2 0x5ED PUSH2 0x1B11 JUMP JUMPDEST PUSH1 0x0 PUSH2 0x5F9 CALLER DUP4 PUSH2 0x1B2D JUMP JUMPDEST SWAP1 POP PUSH1 0x0 PUSH2 0x607 CALLER DUP4 PUSH2 0x1BCE JUMP JUMPDEST SWAP1 POP DUP1 PUSH1 0x0 SUB PUSH2 0x62A JUMPI PUSH1 0x40 MLOAD PUSH4 0x12D37EE5 PUSH1 0xE3 SHL DUP2 MSTORE PUSH1 0x4 ADD PUSH1 0x40 MLOAD DUP1 SWAP2 SUB SWAP1 REVERT JUMPDEST PUSH8 0x8AC7230489E80000 DUP2 LT ISZERO PUSH2 0x653 JUMPI PUSH1 0x40 MLOAD PUSH4 0x7E3F2B7D PUSH1 0xE0 SHL DUP2 MSTORE PUSH1 0x4 ADD PUSH1 0x40 MLOAD DUP1 SWAP2 SUB SWAP1 REVERT JUMPDEST DUP2 SLOAD PUSH1 0x0 SWAP1 PUSH2 0x664 SWAP1 PUSH1 0x3 SWAP1 PUSH2 0x231B JUMP JUMPDEST CALLER PUSH1 0x0 SWAP1 DUP2 MSTORE PUSH1 0x7 PUSH1 0x20 MSTORE PUSH1 0x40 DUP2 KECCAK256 PUSH1 0x2 DUP2 ADD SLOAD SWAP3 SWAP4 POP SWAP2 DUP4 GT PUSH2 0x689 JUMPI PUSH1 0x0 PUSH2 0x698 JUMP JUMPDEST PUSH1 0x2 DUP3 ADD SLOAD PUSH2 0x698 SWAP1 DUP5 PUSH2 0x2332 JUMP JUMPDEST SWAP1 POP DUP1 PUSH1 0x0 SUB PUSH2 0x6F2 JUMPI PUSH1 0x7 DUP6 ADD DUP1 SLOAD PUSH1 0xFF NOT AND SWAP1 SSTORE PUSH1 0x40 MLOAD CALLER SWAP1 PUSH32 0xFA1EB7BA4F65747C7C8882031EB92D63B6FCB684B75052185312FBE1A488D943 SWAP1 PUSH1 0x0 SWAP1 LOG2 PUSH1 0x40 MLOAD PUSH4 0x5A2E885 PUSH1 0xE2 SHL DUP2 MSTORE PUSH1 0x4 ADD PUSH1 0x40 MLOAD DUP1 SWAP2 SUB SWAP1 REVERT JUMPDEST DUP1 DUP5 GT ISZERO PUSH2 0x6FE JUMPI DUP1 SWAP4 POP JUMPDEST PUSH1 0x0 DUP1 SLOAD PUSH1 0x40 MLOAD PUSH4 0x11EA9FA9 PUSH1 0xE2 SHL DUP2 MSTORE PUSH1 0x4 DUP2 ADD DUP8 SWAP1 MSTORE PUSH1 0x1 PUSH1 0x1 PUSH1 0xA0 SHL SUB SWAP1 SWAP2 AND SWAP1 PUSH4 0x47AA7EA4 SWAP1 PUSH1 0x24 ADD PUSH1 0x20 PUSH1 0x40 MLOAD DUP1 DUP4 SUB DUP2 DUP7 GAS STATICCALL ISZERO DUP1 ISZERO PUSH2 0x748 JUMPI RETURNDATASIZE PUSH1 0x0 DUP1 RETURNDATACOPY RETURNDATASIZE PUSH1 0x0 REVERT JUMPDEST POP POP POP POP PUSH1 0x40 MLOAD RETURNDATASIZE PUSH1 0x1F NOT PUSH1 0x1F DUP3 ADD AND DUP3 ADD DUP1 PUSH1 0x40 MSTORE POP DUP2 ADD SWAP1 PUSH2 0x76C SWAP2 SWAP1 PUSH2 0x2345 JUMP JUMPDEST SWAP1 POP DUP1 PUSH1 0x0 SUB PUSH2 0x78F JUMPI PUSH1 0x40 MLOAD PUSH4 0xCC884657 PUSH1 0xE0 SHL DUP2 MSTORE PUSH1 0x4 ADD PUSH1 0x40 MLOAD DUP1 SWAP2 SUB SWAP1 REVERT JUMPDEST PUSH1 0x40 MLOAD PUSH4 0x70A08231 PUSH1 0xE0 SHL DUP2 MSTORE ADDRESS PUSH1 0x4 DUP3 ADD MSTORE DUP2 SWAP1 PUSH32 0x0 PUSH1 0x1 PUSH1 0x1 PUSH1 0xA0 SHL SUB AND SWAP1 PUSH4 0x70A08231 SWAP1 PUSH1 0x24 ADD PUSH1 0x20 PUSH1 0x40 MLOAD DUP1 DUP4 SUB DUP2 DUP7 GAS STATICCALL ISZERO DUP1 ISZERO PUSH2 0x7F5 JUMPI RETURNDATASIZE PUSH1 0x0 DUP1 RETURNDATACOPY RETURNDATASIZE PUSH1 0x0 REVERT JUMPDEST POP POP POP POP PUSH1 0x40 MLOAD RETURNDATASIZE PUSH1 0x1F NOT PUSH1 0x1F DUP3 ADD AND DUP3 ADD DUP1 PUSH1 0x40 MSTORE POP DUP2 ADD SWAP1 PUSH2 0x819 SWAP2 SWAP1 PUSH2 0x2345 JUMP JUMPDEST LT ISZERO PUSH2 0x838 JUMPI PUSH1 0x40 MLOAD PUSH4 0x75E4645 PUSH1 0xE0 SHL DUP2 MSTORE PUSH1 0x4 ADD PUSH1 0x40 MLOAD DUP1 SWAP2 SUB SWAP1 REVERT JUMPDEST DUP5 DUP7 PUSH1 0x5 ADD PUSH1 0x0 DUP3 DUP3 SLOAD PUSH2 0x84C SWAP2 SWAP1 PUSH2 0x235E JUMP JUMPDEST SWAP1 SWAP2 SSTORE POP POP TIMESTAMP PUSH1 0x4 DUP8 ADD SSTORE PUSH1 0x2 DUP4 ADD DUP1 SLOAD DUP7 SWAP2 SWAP1 PUSH1 0x0 SWAP1 PUSH2 0x86E SWAP1 DUP5 SWAP1 PUSH2 0x235E JUMP JUMPDEST SWAP3 POP POP DUP2 SWAP1 SSTORE POP DUP5 PUSH1 0xA PUSH1 0x0 DUP3 DUP3 SLOAD PUSH2 0x887 SWAP2 SWAP1 PUSH2 0x235E JUMP JUMPDEST SWAP1 SWAP2 SSTORE POP POP PUSH1 0x6 DUP7 ADD SLOAD PUSH1 0x5 DUP8 ADD SLOAD LT PUSH2 0x8D3 JUMPI PUSH1 0x7 DUP7 ADD DUP1 SLOAD PUSH1 0xFF NOT AND SWAP1 SSTORE PUSH1 0x40 MLOAD CALLER SWAP1 PUSH32 0xFA1EB7BA4F65747C7C8882031EB92D63B6FCB684B75052185312FBE1A488D943 SWAP1 PUSH1 0x0 SWAP1 LOG2 JUMPDEST PUSH2 0x907 PUSH1 0x1 PUSH1 0x1 PUSH1 0xA0 SHL SUB PUSH32 0x0 AND CALLER DUP4 PUSH2 0x1CCA JUMP JUMPDEST PUSH1 0x2 SLOAD PUSH1 0x1 PUSH1 0x1 PUSH1 0xA0 SHL SUB AND ISZERO PUSH2 0x983 JUMPI DUP5 ISZERO PUSH2 0x983 JUMPI PUSH1 0x2 SLOAD PUSH1 0x40 MLOAD PUSH4 0x8000D991 PUSH1 0xE0 SHL DUP2 MSTORE CALLER PUSH1 0x4 DUP3 ADD MSTORE PUSH1 0x24 DUP2 ADD DUP8 SWAP1 MSTORE PUSH1 0x1 PUSH1 0x1 PUSH1 0xA0 SHL SUB SWAP1 SWAP2 AND SWAP1 PUSH4 0x8000D991 SWAP1 PUSH1 0x44 ADD PUSH1 0x0 PUSH1 0x40 MLOAD DUP1 DUP4 SUB DUP2 PUSH1 0x0 DUP8 DUP1 EXTCODESIZE ISZERO DUP1 ISZERO PUSH2 0x96A JUMPI PUSH1 0x0 DUP1 REVERT JUMPDEST POP GAS CALL ISZERO DUP1 ISZERO PUSH2 0x97E JUMPI RETURNDATASIZE PUSH1 0x0 DUP1 RETURNDATACOPY RETURNDATASIZE PUSH1 0x0 REVERT JUMPDEST POP POP POP POP JUMPDEST PUSH1 0x40 DUP1 MLOAD DUP7 DUP2 MSTORE PUSH1 0x20 DUP2 ADD DUP4 SWAP1 MSTORE SWAP1 DUP2 ADD DUP9 SWAP1 MSTORE CALLER SWAP1 PUSH32 0x56253D287EFACDB2C4CD76DD03624A4821C1CE721D1152E8F5F5718F6087C9BF SWAP1 PUSH1 0x60 ADD PUSH1 0x40 MLOAD DUP1 SWAP2 SUB SWAP1 LOG2 PUSH1 0x2 DUP4 ADD SLOAD PUSH1 0x40 MLOAD SWAP1 DUP2 MSTORE CALLER SWAP1 PUSH32 0xDAD0E43AFDD45DACA2566E861FF76F0250960D86947518722C83B1E03F45EDD5 SWAP1 PUSH1 0x20 ADD JUMPDEST PUSH1 0x40 MLOAD DUP1 SWAP2 SUB SWAP1 LOG2 POP POP POP POP POP POP PUSH2 0xA1E PUSH1 0x1 PUSH1 0x0 DUP1 MLOAD PUSH1 0x20 PUSH2 0x2404 DUP4 CODECOPY DUP2 MLOAD SWAP2 MSTORE SSTORE JUMP JUMPDEST POP JUMP JUMPDEST PUSH1 0x5 SLOAD PUSH1 0x1 PUSH1 0x1 PUSH1 0xA0 SHL SUB AND CALLER EQ PUSH2 0xA4C JUMPI PUSH1 0x40 MLOAD PUSH4 0xE05F485 PUSH1 0xE1 SHL DUP2 MSTORE PUSH1 0x4 ADD PUSH1 0x40 MLOAD DUP1 SWAP2 SUB SWAP1 REVERT JUMPDEST PUSH1 0x5 DUP1 SLOAD DUP3 ISZERO ISZERO PUSH1 0x1 PUSH1 0xA8 SHL MUL PUSH1 0xFF PUSH1 0xA8 SHL NOT SWAP1 SWAP2 AND OR SWAP1 SSTORE PUSH1 0x40 MLOAD PUSH32 0x5EF34F53269A04B5B817E5BE24A51BA6B477118B399EC9DD5B2BAF5B299563DC SWAP1 PUSH2 0xA99 SWAP1 DUP4 ISZERO ISZERO DUP2 MSTORE PUSH1 0x20 ADD SWAP1 JUMP JUMPDEST PUSH1 0x40 MLOAD DUP1 SWAP2 SUB SWAP1 LOG1 POP JUMP JUMPDEST PUSH1 0x2 SLOAD PUSH1 0x1 PUSH1 0x1 PUSH1 0xA0 SHL SUB AND CALLER EQ PUSH2 0xACF JUMPI PUSH1 0x40 MLOAD PUSH4 0x3864B1E5 PUSH1 0xE2 SHL DUP2 MSTORE PUSH1 0x4 ADD PUSH1 0x40 MLOAD DUP1 SWAP2 SUB SWAP1 REVERT JUMPDEST PUSH1 0x1 PUSH1 0x1 PUSH1 0xA0 SHL SUB DUP3 AND PUSH1 0x0 SWAP1 DUP2 MSTORE PUSH1 0x7 PUSH1 0x20 MSTORE PUSH1 0x40 DUP2 KECCAK256 PUSH1 0x2 ADD DUP1 SLOAD DUP4 SWAP3 SWAP1 PUSH2 0xAFA SWAP1 DUP5 SWAP1 PUSH2 0x235E JUMP JUMPDEST SWAP1 SWAP2 SSTORE POP POP PUSH1 0x1 PUSH1 0x1 PUSH1 0xA0 SHL SUB DUP3 AND PUSH1 0x0 DUP2 DUP2 MSTORE PUSH1 0x7 PUSH1 0x20 SWAP1 DUP2 MSTORE PUSH1 0x40 SWAP2 DUP3 SWAP1 KECCAK256 PUSH1 0x2 ADD SLOAD SWAP2 MLOAD SWAP2 DUP3 MSTORE PUSH32 0xDAD0E43AFDD45DACA2566E861FF76F0250960D86947518722C83B1E03F45EDD5 SWAP2 ADD PUSH1 0x40 MLOAD DUP1 SWAP2 SUB SWAP1 LOG2 POP POP JUMP JUMPDEST PUSH1 0x4 SLOAD PUSH1 0x1 PUSH1 0x1 PUSH1 0xA0 SHL SUB AND CALLER EQ PUSH2 0xB7E JUMPI PUSH1 0x40 MLOAD PUSH4 0x47556579 PUSH1 0xE0 SHL DUP2 MSTORE PUSH1 0x4 ADD PUSH1 0x40 MLOAD DUP1 SWAP2 SUB SWAP1 REVERT JUMPDEST PUSH1 0x5 SLOAD PUSH1 0x1 PUSH1 0xA0 SHL SWAP1 DIV PUSH1 0xFF AND ISZERO PUSH2 0xBA9 JUMPI PUSH1 0x40 MLOAD PUSH4 0x238F75D3 PUSH1 0xE0 SHL DUP2 MSTORE PUSH1 0x4 ADD PUSH1 0x40 MLOAD DUP1 SWAP2 SUB SWAP1 REVERT JUMPDEST PUSH1 0x1 PUSH1 0x1 PUSH1 0xA0 SHL SUB DUP3 AND PUSH2 0xBD0 JUMPI PUSH1 0x40 MLOAD PUSH4 0xD92E233D PUSH1 0xE0 SHL DUP2 MSTORE PUSH1 0x4 ADD PUSH1 0x40 MLOAD DUP1 SWAP2 SUB SWAP1 REVERT JUMPDEST PUSH1 0x1 DUP1 SLOAD PUSH1 0x1 PUSH1 0x1 PUSH1 0xA0 SHL SUB NOT SWAP1 DUP2 AND PUSH1 0x1 PUSH1 0x1 PUSH1 0xA0 SHL SUB SWAP8 DUP9 AND OR SWAP1 SWAP2 SSTORE PUSH1 0x2 DUP1 SLOAD DUP3 AND SWAP6 DUP8 AND SWAP6 SWAP1 SWAP6 OR SWAP1 SWAP5 SSTORE PUSH1 0x3 DUP1 SLOAD DUP6 AND SWAP4 DUP7 AND SWAP4 SWAP1 SWAP4 OR SWAP1 SWAP3 SSTORE PUSH1 0x0 DUP1 SLOAD DUP5 AND SWAP2 DUP6 AND SWAP2 SWAP1 SWAP2 OR SWAP1 SSTORE PUSH1 0x5 DUP1 SLOAD SWAP1 SWAP3 AND SWAP3 AND SWAP2 SWAP1 SWAP2 OR SWAP1 SSTORE JUMP JUMPDEST PUSH1 0x1 PUSH1 0x1 PUSH1 0xA0 SHL SUB DUP3 AND PUSH1 0x0 SWAP1 DUP2 MSTORE PUSH1 0x6 PUSH1 0x20 MSTORE PUSH1 0x40 DUP2 KECCAK256 SLOAD DUP3 LT PUSH2 0xC56 JUMPI POP PUSH1 0x0 PUSH2 0xCC3 JUMP JUMPDEST PUSH1 0x1 PUSH1 0x1 PUSH1 0xA0 SHL SUB DUP4 AND PUSH1 0x0 SWAP1 DUP2 MSTORE PUSH1 0x6 PUSH1 0x20 MSTORE PUSH1 0x40 DUP2 KECCAK256 DUP1 SLOAD DUP5 SWAP1 DUP2 LT PUSH2 0xC80 JUMPI PUSH2 0xC80 PUSH2 0x2371 JUMP JUMPDEST PUSH1 0x0 SWAP2 DUP3 MSTORE PUSH1 0x20 SWAP1 SWAP2 KECCAK256 PUSH1 0x8 SWAP1 SWAP2 MUL ADD PUSH1 0x7 DUP2 ADD SLOAD SWAP1 SWAP2 POP PUSH1 0xFF AND PUSH2 0xCA9 JUMPI PUSH1 0x0 SWAP2 POP POP PUSH2 0xCC3 JUMP JUMPDEST PUSH3 0xD2F00 DUP2 PUSH1 0x3 ADD SLOAD PUSH2 0xCBC SWAP2 SWAP1 PUSH2 0x235E JUMP JUMPDEST TIMESTAMP GT ISZERO SWAP2 POP POP JUMPDEST SWAP3 SWAP2 POP POP JUMP JUMPDEST PUSH1 0x4 SLOAD PUSH1 0x1 PUSH1 0x1 PUSH1 0xA0 SHL SUB AND CALLER EQ PUSH2 0xCF4 JUMPI PUSH1 0x40 MLOAD PUSH4 0x47556579 PUSH1 0xE0 SHL DUP2 MSTORE PUSH1 0x4 ADD PUSH1 0x40 MLOAD DUP1 SWAP2 SUB SWAP1 REVERT JUMPDEST PUSH1 0x5 SLOAD PUSH1 0x1 PUSH1 0xA0 SHL SWAP1 DIV PUSH1 0xFF AND ISZERO PUSH2 0xD1F JUMPI PUSH1 0x40 MLOAD PUSH4 0x238F75D3 PUSH1 0xE0 SHL DUP2 MSTORE PUSH1 0x4 ADD PUSH1 0x40 MLOAD DUP1 SWAP2 SUB SWAP1 REVERT JUMPDEST PUSH1 0x1 SLOAD PUSH1 0x1 PUSH1 0x1 PUSH1 0xA0 SHL SUB AND PUSH2 0xD48 JUMPI PUSH1 0x40 MLOAD PUSH4 0xD311BC39 PUSH1 0xE0 SHL DUP2 MSTORE PUSH1 0x4 ADD PUSH1 0x40 MLOAD DUP1 SWAP2 SUB SWAP1 REVERT JUMPDEST PUSH1 0x5 DUP1 SLOAD PUSH1 0xFF PUSH1 0xA0 SHL NOT AND PUSH1 0x1 PUSH1 0xA0 SHL OR SWAP1 SSTORE PUSH1 0x4 DUP1 SLOAD PUSH1 0x1 PUSH1 0x1 PUSH1 0xA0 SHL SUB NOT AND SWAP1 SSTORE JUMP JUMPDEST PUSH1 0x5 SLOAD PUSH1 0x1 PUSH1 0x1 PUSH1 0xA0 SHL SUB AND CALLER EQ PUSH2 0xD98 JUMPI PUSH1 0x40 MLOAD PUSH4 0xE05F485 PUSH1 0xE1 SHL DUP2 MSTORE PUSH1 0x4 ADD PUSH1 0x40 MLOAD DUP1 SWAP2 SUB SWAP1 REVERT JUMPDEST PUSH1 0x2 SLOAD PUSH1 0x40 MLOAD PUSH1 0x1 PUSH1 0x1 PUSH1 0xA0 SHL SUB DUP1 DUP5 AND SWAP3 AND SWAP1 PUSH32 0xEEFE1CE2782E4BA3BBCCD79617FAE74979FA22005F22F7075C0910CD51C8FFD9 SWAP1 PUSH1 0x0 SWAP1 LOG3 PUSH1 0x2 DUP1 SLOAD PUSH1 0x1 PUSH1 0x1 PUSH1 0xA0 SHL SUB NOT AND PUSH1 0x1 PUSH1 0x1 PUSH1 0xA0 SHL SUB SWAP3 SWAP1 SWAP3 AND SWAP2 SWAP1 SWAP2 OR SWAP1 SSTORE JUMP JUMPDEST PUSH1 0x3 SLOAD PUSH1 0x1 PUSH1 0x1 PUSH1 0xA0 SHL SUB AND CALLER EQ PUSH2 0xACF JUMPI PUSH1 0x40 MLOAD PUSH4 0x33273113 PUSH1 0xE1 SHL DUP2 MSTORE PUSH1 0x4 ADD PUSH1 0x40 MLOAD DUP1 SWAP2 SUB SWAP1 REVERT JUMPDEST PUSH2 0xE27 PUSH2 0x1B11 JUMP JUMPDEST PUSH1 0x5 SLOAD PUSH1 0x1 PUSH1 0xA8 SHL SWAP1 DIV PUSH1 0xFF AND ISZERO PUSH2 0xE51 JUMPI PUSH1 0x40 MLOAD PUSH3 0x7CFE7F PUSH1 0xE3 SHL DUP2 MSTORE PUSH1 0x4 ADD PUSH1 0x40 MLOAD DUP1 SWAP2 SUB SWAP1 REVERT JUMPDEST PUSH8 0x8AC7230489E80000 DUP2 LT ISZERO PUSH2 0xE7A JUMPI PUSH1 0x40 MLOAD PUSH4 0x2B7786BD PUSH1 0xE2 SHL DUP2 MSTORE PUSH1 0x4 ADD PUSH1 0x40 MLOAD DUP1 SWAP2 SUB SWAP1 REVERT JUMPDEST PUSH10 0x10F0CF064DD59200000 DUP2 GT ISZERO PUSH2 0xEA5 JUMPI PUSH1 0x40 MLOAD PUSH4 0xC066E1E9 PUSH1 0xE0 SHL DUP2 MSTORE PUSH1 0x4 ADD PUSH1 0x40 MLOAD DUP1 SWAP2 SUB SWAP1 REVERT JUMPDEST PUSH1 0x0 SLOAD PUSH1 0x1 PUSH1 0x1 PUSH1 0xA0 SHL SUB AND PUSH2 0xECE JUMPI PUSH1 0x40 MLOAD PUSH4 0xD311BC39 PUSH1 0xE0 SHL DUP2 MSTORE PUSH1 0x4 ADD PUSH1 0x40 MLOAD DUP1 SWAP2 SUB SWAP1 REVERT JUMPDEST PUSH2 0xF03 PUSH1 0x1 PUSH1 0x1 PUSH1 0xA0 SHL SUB PUSH32 0x0 AND CALLER ADDRESS DUP5 PUSH2 0x1D09 JUMP JUMPDEST PUSH1 0x0 DUP1 SLOAD PUSH1 0x40 MLOAD PUSH4 0x70A08231 PUSH1 0xE0 SHL DUP2 MSTORE PUSH1 0x1 PUSH1 0x1 PUSH1 0xA0 SHL SUB SWAP2 DUP3 AND PUSH1 0x4 DUP3 ADD MSTORE PUSH32 0x0 SWAP1 SWAP2 AND SWAP1 PUSH4 0x70A08231 SWAP1 PUSH1 0x24 ADD PUSH1 0x20 PUSH1 0x40 MLOAD DUP1 DUP4 SUB DUP2 DUP7 GAS STATICCALL ISZERO DUP1 ISZERO PUSH2 0xF6F JUMPI RETURNDATASIZE PUSH1 0x0 DUP1 RETURNDATACOPY RETURNDATASIZE PUSH1 0x0 REVERT JUMPDEST POP POP POP POP PUSH1 0x40 MLOAD RETURNDATASIZE PUSH1 0x1F NOT PUSH1 0x1F DUP3 ADD AND DUP3 ADD DUP1 PUSH1 0x40 MSTORE POP DUP2 ADD SWAP1 PUSH2 0xF93 SWAP2 SWAP1 PUSH2 0x2345 JUMP JUMPDEST PUSH1 0x0 DUP1 SLOAD PUSH1 0x40 DUP1 MLOAD PUSH4 0x240BC6B PUSH1 0xE2 SHL DUP2 MSTORE DUP2 MLOAD SWAP5 SWAP6 POP SWAP3 SWAP4 DUP5 SWAP4 DUP5 SWAP4 PUSH1 0x1 PUSH1 0x1 PUSH1 0xA0 SHL SUB AND SWAP3 PUSH4 0x902F1AC SWAP3 PUSH1 0x4 DUP1 DUP5 ADD SWAP4 DUP3 SWAP1 SUB ADD DUP2 DUP7 GAS STATICCALL ISZERO DUP1 ISZERO PUSH2 0xFDF JUMPI RETURNDATASIZE PUSH1 0x0 DUP1 RETURNDATACOPY RETURNDATASIZE PUSH1 0x0 REVERT JUMPDEST POP POP POP POP PUSH1 0x40 MLOAD RETURNDATASIZE PUSH1 0x1F NOT PUSH1 0x1F DUP3 ADD AND DUP3 ADD DUP1 PUSH1 0x40 MSTORE POP DUP2 ADD SWAP1 PUSH2 0x1003 SWAP2 SWAP1 PUSH2 0x2387 JUMP JUMPDEST SWAP2 POP SWAP2 POP PUSH1 0x0 DUP3 GT DUP1 ISZERO PUSH2 0x1017 JUMPI POP PUSH1 0x0 DUP2 GT JUMPDEST ISZERO PUSH2 0x1041 JUMPI PUSH2 0x1026 DUP6 DUP4 PUSH2 0x235E JUMP JUMPDEST PUSH2 0x1030 DUP3 DUP8 PUSH2 0x231B JUMP JUMPDEST PUSH2 0x103A SWAP2 SWAP1 PUSH2 0x23AB JUMP JUMPDEST SWAP3 POP PUSH2 0x1045 JUMP JUMPDEST DUP5 SWAP3 POP JUMPDEST PUSH9 0x3635C9ADC5DEA00000 PUSH2 0x1059 DUP2 DUP6 PUSH2 0x235E JUMP JUMPDEST DUP6 LT ISZERO PUSH2 0x11AA JUMPI PUSH1 0x0 DUP6 PUSH2 0x106D DUP4 DUP8 PUSH2 0x235E JUMP JUMPDEST PUSH2 0x1077 SWAP2 SWAP1 PUSH2 0x2332 JUMP JUMPDEST PUSH1 0x40 MLOAD PUSH4 0x70A08231 PUSH1 0xE0 SHL DUP2 MSTORE ADDRESS PUSH1 0x4 DUP3 ADD MSTORE SWAP1 SWAP2 POP PUSH1 0x0 SWAP1 PUSH1 0x1 PUSH1 0x1 PUSH1 0xA0 SHL SUB PUSH32 0x0 AND SWAP1 PUSH4 0x70A08231 SWAP1 PUSH1 0x24 ADD PUSH1 0x20 PUSH1 0x40 MLOAD DUP1 DUP4 SUB DUP2 DUP7 GAS STATICCALL ISZERO DUP1 ISZERO PUSH2 0x10E1 JUMPI RETURNDATASIZE PUSH1 0x0 DUP1 RETURNDATACOPY RETURNDATASIZE PUSH1 0x0 REVERT JUMPDEST POP POP POP POP PUSH1 0x40 MLOAD RETURNDATASIZE PUSH1 0x1F NOT PUSH1 0x1F DUP3 ADD AND DUP3 ADD DUP1 PUSH1 0x40 MSTORE POP DUP2 ADD SWAP1 PUSH2 0x1105 SWAP2 SWAP1 PUSH2 0x2345 JUMP JUMPDEST SWAP1 POP DUP2 DUP2 LT PUSH2 0x11A7 JUMPI PUSH1 0x0 SLOAD PUSH2 0x1148 SWAP1 PUSH1 0x1 PUSH1 0x1 PUSH1 0xA0 SHL SUB PUSH32 0x0 DUP2 AND SWAP2 AND DUP5 PUSH2 0x1D45 JUMP JUMPDEST PUSH1 0x0 SLOAD PUSH1 0x40 MLOAD PUSH4 0x362CE52B PUSH1 0xE0 SHL DUP2 MSTORE PUSH1 0x4 DUP2 ADD DUP5 SWAP1 MSTORE PUSH1 0x1 PUSH1 0x1 PUSH1 0xA0 SHL SUB SWAP1 SWAP2 AND SWAP1 PUSH4 0x362CE52B SWAP1 PUSH1 0x24 ADD PUSH1 0x0 PUSH1 0x40 MLOAD DUP1 DUP4 SUB DUP2 PUSH1 0x0 DUP8 DUP1 EXTCODESIZE ISZERO DUP1 ISZERO PUSH2 0x118E JUMPI PUSH1 0x0 DUP1 REVERT JUMPDEST POP GAS CALL ISZERO DUP1 ISZERO PUSH2 0x11A2 JUMPI RETURNDATASIZE PUSH1 0x0 DUP1 RETURNDATACOPY RETURNDATASIZE PUSH1 0x0 REVERT JUMPDEST POP POP POP POP JUMPDEST POP POP JUMPDEST POP POP PUSH1 0x0 SLOAD PUSH2 0x11EA SWAP4 POP PUSH1 0x1 PUSH1 0x1 PUSH1 0xA0 SHL SUB PUSH32 0x0 DUP2 AND SWAP4 POP AND SWAP1 POP DUP4 PUSH2 0x1D45 JUMP JUMPDEST PUSH1 0x0 DUP1 SLOAD PUSH1 0x40 MLOAD PUSH4 0x66102AD PUSH1 0xE1 SHL DUP2 MSTORE PUSH1 0x4 DUP2 ADD DUP5 SWAP1 MSTORE PUSH1 0x1 PUSH1 0x1 PUSH1 0xA0 SHL SUB SWAP1 SWAP2 AND SWAP1 PUSH4 0xCC2055A SWAP1 PUSH1 0x24 ADD PUSH1 0x20 PUSH1 0x40 MLOAD DUP1 DUP4 SUB DUP2 PUSH1 0x0 DUP8 GAS CALL ISZERO DUP1 ISZERO PUSH2 0x1236 JUMPI RETURNDATASIZE PUSH1 0x0 DUP1 RETURNDATACOPY RETURNDATASIZE PUSH1 0x0 REVERT JUMPDEST POP POP POP POP PUSH1 0x40 MLOAD RETURNDATASIZE PUSH1 0x1F NOT PUSH1 0x1F DUP3 ADD AND DUP3 ADD DUP1 PUSH1 0x40 MSTORE POP DUP2 ADD SWAP1 PUSH2 0x125A SWAP2 SWAP1 PUSH2 0x2345 JUMP JUMPDEST SWAP1 POP PUSH1 0x0 PUSH2 0x1267 DUP4 PUSH2 0x1D99 JUMP JUMPDEST SWAP1 POP PUSH1 0x0 PUSH2 0x1274 DUP5 PUSH2 0x1DEC JUMP JUMPDEST SWAP1 POP PUSH1 0x0 PUSH2 0x1283 PUSH1 0x3 DUP7 PUSH2 0x231B JUMP JUMPDEST CALLER PUSH1 0x0 DUP2 DUP2 MSTORE PUSH1 0x6 PUSH1 0x20 DUP2 DUP2 MSTORE PUSH1 0x40 DUP1 DUP5 KECCAK256 DUP2 MLOAD PUSH2 0x100 DUP2 ADD DUP4 MSTORE DUP13 DUP2 MSTORE DUP1 DUP5 ADD DUP12 DUP2 MSTORE DUP2 DUP5 ADD DUP12 DUP2 MSTORE TIMESTAMP PUSH1 0x60 DUP5 ADD DUP2 DUP2 MSTORE PUSH1 0x80 DUP6 ADD SWAP2 DUP3 MSTORE PUSH1 0xA0 DUP6 ADD DUP11 DUP2 MSTORE PUSH1 0xC0 DUP7 ADD DUP14 DUP2 MSTORE PUSH1 0x1 PUSH1 0xE0 DUP9 ADD DUP2 DUP2 MSTORE DUP10 SLOAD DUP1 DUP4 ADD DUP12 SSTORE SWAP10 DUP15 MSTORE DUP12 DUP15 KECCAK256 SWAP9 MLOAD PUSH1 0x8 SWAP1 SWAP11 MUL SWAP1 SWAP9 ADD SWAP9 DUP10 SSTORE SWAP6 MLOAD SWAP6 DUP9 ADD SWAP6 SWAP1 SWAP6 SSTORE SWAP3 MLOAD PUSH1 0x2 DUP8 ADD SSTORE MLOAD PUSH1 0x3 DUP7 ADD SSTORE MLOAD PUSH1 0x4 DUP6 ADD SSTORE MLOAD PUSH1 0x5 DUP5 ADD SSTORE MLOAD SWAP5 DUP3 ADD SWAP5 SWAP1 SWAP5 SSTORE SWAP3 MLOAD PUSH1 0x7 SWAP4 DUP5 ADD DUP1 SLOAD PUSH1 0xFF NOT AND SWAP2 ISZERO ISZERO SWAP2 SWAP1 SWAP2 OR SWAP1 SSTORE SWAP4 DUP4 MSTORE MSTORE SWAP1 DUP2 KECCAK256 DUP1 SLOAD SWAP3 SWAP4 POP DUP8 SWAP3 SWAP1 SWAP2 SWAP1 PUSH2 0x1349 SWAP1 DUP5 SWAP1 PUSH2 0x235E JUMP JUMPDEST SWAP1 SWAP2 SSTORE POP POP CALLER PUSH1 0x0 SWAP1 DUP2 MSTORE PUSH1 0x7 PUSH1 0x20 MSTORE PUSH1 0x40 DUP2 KECCAK256 PUSH1 0x1 ADD DUP1 SLOAD SWAP2 PUSH2 0x136C DUP4 PUSH2 0x23CD JUMP JUMPDEST SWAP2 SWAP1 POP SSTORE POP DUP5 PUSH1 0x8 PUSH1 0x0 DUP3 DUP3 SLOAD PUSH2 0x1383 SWAP2 SWAP1 PUSH2 0x235E JUMP JUMPDEST SWAP1 SWAP2 SSTORE POP POP PUSH1 0x2 SLOAD PUSH1 0x1 PUSH1 0x1 PUSH1 0xA0 SHL SUB AND ISZERO PUSH2 0x13F7 JUMPI PUSH1 0x2 SLOAD PUSH1 0x40 MLOAD PUSH4 0x95CE44B PUSH1 0xE2 SHL DUP2 MSTORE CALLER PUSH1 0x4 DUP3 ADD MSTORE PUSH1 0x1 PUSH1 0x1 PUSH1 0xA0 SHL SUB SWAP1 SWAP2 AND SWAP1 PUSH4 0x2573912C SWAP1 PUSH1 0x24 ADD PUSH1 0x0 PUSH1 0x40 MLOAD DUP1 DUP4 SUB DUP2 PUSH1 0x0 DUP8 DUP1 EXTCODESIZE ISZERO DUP1 ISZERO PUSH2 0x13DE JUMPI PUSH1 0x0 DUP1 REVERT JUMPDEST POP GAS CALL ISZERO DUP1 ISZERO PUSH2 0x13F2 JUMPI RETURNDATASIZE PUSH1 0x0 DUP1 RETURNDATACOPY RETURNDATASIZE PUSH1 0x0 REVERT JUMPDEST POP POP POP POP JUMPDEST PUSH1 0x3 SLOAD PUSH1 0x1 PUSH1 0x1 PUSH1 0xA0 SHL SUB AND ISZERO DUP1 ISZERO SWAP1 PUSH2 0x141B JUMPI POP PUSH1 0x2 SLOAD PUSH1 0x1 PUSH1 0x1 PUSH1 0xA0 SHL SUB AND ISZERO ISZERO JUMPDEST ISZERO PUSH2 0x142A JUMPI PUSH2 0x142A CALLER DUP7 PUSH2 0x1F09 JUMP JUMPDEST CALLER PUSH1 0x0 DUP2 DUP2 MSTORE PUSH1 0x6 PUSH1 0x20 MSTORE PUSH1 0x40 SWAP1 KECCAK256 SLOAD PUSH32 0xE3B53CD1A44FBF11535E145D80B8EF1ED6D57A73BF5DAA7E939B6B01657D6549 SWAP1 DUP8 SWAP1 DUP7 SWAP1 DUP7 SWAP1 PUSH2 0x146E SWAP1 PUSH1 0x1 SWAP1 PUSH2 0x2332 JUMP JUMPDEST PUSH1 0x40 DUP1 MLOAD SWAP5 DUP6 MSTORE PUSH1 0x20 DUP6 ADD SWAP4 SWAP1 SWAP4 MSTORE SWAP2 DUP4 ADD MSTORE PUSH1 0x60 DUP3 ADD MSTORE PUSH1 0x80 ADD PUSH1 0x40 MLOAD DUP1 SWAP2 SUB SWAP1 LOG2 POP POP POP POP PUSH2 0xA1E PUSH1 0x1 PUSH1 0x0 DUP1 MLOAD PUSH1 0x20 PUSH2 0x2404 DUP4 CODECOPY DUP2 MLOAD SWAP2 MSTORE SSTORE JUMP JUMPDEST PUSH2 0x14B4 PUSH2 0x1B11 JUMP JUMPDEST PUSH1 0x0 PUSH2 0x14C0 CALLER DUP4 PUSH2 0x1B2D JUMP JUMPDEST SWAP1 POP PUSH3 0xD2F00 DUP2 PUSH1 0x3 ADD SLOAD PUSH2 0x14D5 SWAP2 SWAP1 PUSH2 0x235E JUMP JUMPDEST TIMESTAMP GT ISZERO PUSH2 0x14F5 JUMPI PUSH1 0x40 MLOAD PUSH4 0x693ED15B PUSH1 0xE1 SHL DUP2 MSTORE PUSH1 0x4 ADD PUSH1 0x40 MLOAD DUP1 SWAP2 SUB SWAP1 REVERT JUMPDEST DUP1 SLOAD PUSH1 0x0 PUSH2 0x1503 CALLER DUP5 PUSH2 0x1BCE JUMP JUMPDEST SWAP1 POP PUSH1 0x0 PUSH2 0x2710 PUSH2 0x1516 PUSH2 0x3E8 DUP6 PUSH2 0x231B JUMP JUMPDEST PUSH2 0x1520 SWAP2 SWAP1 PUSH2 0x23AB JUMP JUMPDEST SWAP1 POP PUSH1 0x0 PUSH2 0x152E DUP3 DUP5 PUSH2 0x235E JUMP JUMPDEST SWAP1 POP PUSH1 0x0 DUP2 DUP6 GT PUSH2 0x1540 JUMPI PUSH1 0x0 PUSH2 0x154A JUMP JUMPDEST PUSH2 0x154A DUP3 DUP7 PUSH2 0x2332 JUMP JUMPDEST PUSH1 0x7 DUP1 DUP9 ADD DUP1 SLOAD PUSH1 0xFF NOT AND SWAP1 SSTORE CALLER PUSH1 0x0 SWAP1 DUP2 MSTORE PUSH1 0x20 SWAP2 SWAP1 SWAP2 MSTORE PUSH1 0x40 DUP2 KECCAK256 DUP1 SLOAD SWAP3 SWAP4 POP DUP8 SWAP3 SWAP1 SWAP2 SWAP1 PUSH2 0x157C SWAP1 DUP5 SWAP1 PUSH2 0x2332 JUMP JUMPDEST SWAP3 POP POP DUP2 SWAP1 SSTORE POP DUP5 PUSH1 0x9 PUSH1 0x0 DUP3 DUP3 SLOAD PUSH2 0x1595 SWAP2 SWAP1 PUSH2 0x235E JUMP JUMPDEST SWAP1 SWAP2 SSTORE POP POP PUSH1 0x2 SLOAD PUSH1 0x1 PUSH1 0x1 PUSH1 0xA0 SHL SUB AND ISZERO PUSH2 0x1609 JUMPI PUSH1 0x2 SLOAD PUSH1 0x40 MLOAD PUSH4 0x95CE44B PUSH1 0xE2 SHL DUP2 MSTORE CALLER PUSH1 0x4 DUP3 ADD MSTORE PUSH1 0x1 PUSH1 0x1 PUSH1 0xA0 SHL SUB SWAP1 SWAP2 AND SWAP1 PUSH4 0x2573912C SWAP1 PUSH1 0x24 ADD PUSH1 0x0 PUSH1 0x40 MLOAD DUP1 DUP4 SUB DUP2 PUSH1 0x0 DUP8 DUP1 EXTCODESIZE ISZERO DUP1 ISZERO PUSH2 0x15F0 JUMPI PUSH1 0x0 DUP1 REVERT JUMPDEST POP GAS CALL ISZERO DUP1 ISZERO PUSH2 0x1604 JUMPI RETURNDATASIZE PUSH1 0x0 DUP1 RETURNDATACOPY RETURNDATASIZE PUSH1 0x0 REVERT JUMPDEST POP POP POP POP JUMPDEST DUP1 ISZERO PUSH2 0x18E5 JUMPI PUSH1 0x40 MLOAD PUSH4 0x70A08231 PUSH1 0xE0 SHL DUP2 MSTORE ADDRESS PUSH1 0x4 DUP3 ADD MSTORE PUSH1 0x0 SWAP1 PUSH32 0x0 PUSH1 0x1 PUSH1 0x1 PUSH1 0xA0 SHL SUB AND SWAP1 PUSH4 0x70A08231 SWAP1 PUSH1 0x24 ADD PUSH1 0x20 PUSH1 0x40 MLOAD DUP1 DUP4 SUB DUP2 DUP7 GAS STATICCALL ISZERO DUP1 ISZERO PUSH2 0x1676 JUMPI RETURNDATASIZE PUSH1 0x0 DUP1 RETURNDATACOPY RETURNDATASIZE PUSH1 0x0 REVERT JUMPDEST POP POP POP POP PUSH1 0x40 MLOAD RETURNDATASIZE PUSH1 0x1F NOT PUSH1 0x1F DUP3 ADD AND DUP3 ADD DUP1 PUSH1 0x40 MSTORE POP DUP2 ADD SWAP1 PUSH2 0x169A SWAP2 SWAP1 PUSH2 0x2345 JUMP JUMPDEST SWAP1 POP DUP2 DUP2 LT PUSH2 0x16DC JUMPI PUSH2 0x16D7 PUSH1 0x1 PUSH1 0x1 PUSH1 0xA0 SHL SUB PUSH32 0x0 AND CALLER DUP5 PUSH2 0x1CCA JUMP JUMPDEST PUSH2 0x18E3 JUMP JUMPDEST DUP1 ISZERO PUSH2 0x1723 JUMPI PUSH2 0x1716 PUSH1 0x1 PUSH1 0x1 PUSH1 0xA0 SHL SUB PUSH32 0x0 AND CALLER DUP4 PUSH2 0x1CCA JUMP JUMPDEST PUSH2 0x1720 DUP2 DUP4 PUSH2 0x2332 JUMP JUMPDEST SWAP2 POP JUMPDEST PUSH1 0x0 DUP1 SLOAD PUSH1 0x40 MLOAD PUSH4 0x11EA9FA9 PUSH1 0xE2 SHL DUP2 MSTORE PUSH1 0x4 DUP2 ADD DUP6 SWAP1 MSTORE PUSH1 0x1 PUSH1 0x1 PUSH1 0xA0 SHL SUB SWAP1 SWAP2 AND SWAP1 PUSH4 0x47AA7EA4 SWAP1 PUSH1 0x24 ADD PUSH1 0x20 PUSH1 0x40 MLOAD DUP1 DUP4 SUB DUP2 DUP7 GAS STATICCALL ISZERO DUP1 ISZERO PUSH2 0x176D JUMPI RETURNDATASIZE PUSH1 0x0 DUP1 RETURNDATACOPY RETURNDATASIZE PUSH1 0x0 REVERT JUMPDEST POP POP POP POP PUSH1 0x40 MLOAD RETURNDATASIZE PUSH1 0x1F NOT PUSH1 0x1F DUP3 ADD AND DUP3 ADD DUP1 PUSH1 0x40 MSTORE POP DUP2 ADD SWAP1 PUSH2 0x1791 SWAP2 SWAP1 PUSH2 0x2345 JUMP JUMPDEST SWAP1 POP PUSH1 0x0 DUP2 GT DUP1 ISZERO PUSH2 0x182B JUMPI POP PUSH1 0x40 MLOAD PUSH4 0x70A08231 PUSH1 0xE0 SHL DUP2 MSTORE ADDRESS PUSH1 0x4 DUP3 ADD MSTORE DUP2 SWAP1 PUSH32 0x0 PUSH1 0x1 PUSH1 0x1 PUSH1 0xA0 SHL SUB AND SWAP1 PUSH4 0x70A08231 SWAP1 PUSH1 0x24 ADD PUSH1 0x20 PUSH1 0x40 MLOAD DUP1 DUP4 SUB DUP2 DUP7 GAS STATICCALL ISZERO DUP1 ISZERO PUSH2 0x1804 JUMPI RETURNDATASIZE PUSH1 0x0 DUP1 RETURNDATACOPY RETURNDATASIZE PUSH1 0x0 REVERT JUMPDEST POP POP POP POP PUSH1 0x40 MLOAD RETURNDATASIZE PUSH1 0x1F NOT PUSH1 0x1F DUP3 ADD AND DUP3 ADD DUP1 PUSH1 0x40 MSTORE POP DUP2 ADD SWAP1 PUSH2 0x1828 SWAP2 SWAP1 PUSH2 0x2345 JUMP JUMPDEST LT ISZERO JUMPDEST ISZERO PUSH2 0x18E1 JUMPI PUSH1 0x0 SLOAD PUSH2 0x186A SWAP1 PUSH1 0x1 PUSH1 0x1 PUSH1 0xA0 SHL SUB PUSH32 0x0 DUP2 AND SWAP2 AND DUP4 PUSH2 0x1D45 JUMP JUMPDEST PUSH1 0x0 SLOAD PUSH1 0x40 MLOAD PUSH4 0xF843E641 PUSH1 0xE0 SHL DUP2 MSTORE PUSH1 0x4 DUP2 ADD DUP4 SWAP1 MSTORE CALLER PUSH1 0x24 DUP3 ADD MSTORE PUSH1 0x1 PUSH1 0x1 PUSH1 0xA0 SHL SUB SWAP1 SWAP2 AND SWAP1 PUSH4 0xF843E641 SWAP1 PUSH1 0x44 ADD PUSH1 0x20 PUSH1 0x40 MLOAD DUP1 DUP4 SUB DUP2 PUSH1 0x0 DUP8 GAS CALL ISZERO DUP1 ISZERO PUSH2 0x18BB JUMPI RETURNDATASIZE PUSH1 0x0 DUP1 RETURNDATACOPY RETURNDATASIZE PUSH1 0x0 REVERT JUMPDEST POP POP POP POP PUSH1 0x40 MLOAD RETURNDATASIZE PUSH1 0x1F NOT PUSH1 0x1F DUP3 ADD AND DUP3 ADD DUP1 PUSH1 0x40 MSTORE POP DUP2 ADD SWAP1 PUSH2 0x18DF SWAP2 SWAP1 PUSH2 0x2345 JUMP JUMPDEST POP JUMPDEST POP JUMPDEST POP JUMPDEST PUSH1 0x40 DUP1 MLOAD DUP3 DUP2 MSTORE PUSH1 0x20 DUP2 ADD DUP6 SWAP1 MSTORE SWAP1 DUP2 ADD DUP6 SWAP1 MSTORE PUSH1 0x60 DUP2 ADD DUP9 SWAP1 MSTORE CALLER SWAP1 PUSH32 0x4ADE67EF7E7C5E4D9C50DE61A4E8C555BE92C9B37E3CA6716EB02A1F0E471DA5 SWAP1 PUSH1 0x80 ADD PUSH2 0x9F9 JUMP JUMPDEST PUSH1 0x1 PUSH1 0x1 PUSH1 0xA0 SHL SUB DUP3 AND PUSH1 0x0 SWAP1 DUP2 MSTORE PUSH1 0x6 PUSH1 0x20 MSTORE PUSH1 0x40 DUP2 KECCAK256 SLOAD DUP2 SWAP1 DUP2 SWAP1 DUP2 SWAP1 DUP6 LT PUSH2 0x1962 JUMPI POP PUSH1 0x0 SWAP3 POP DUP3 SWAP2 POP DUP2 SWAP1 POP DUP1 PUSH2 0x1A33 JUMP JUMPDEST PUSH1 0x1 PUSH1 0x1 PUSH1 0xA0 SHL SUB DUP7 AND PUSH1 0x0 SWAP1 DUP2 MSTORE PUSH1 0x6 PUSH1 0x20 MSTORE PUSH1 0x40 DUP2 KECCAK256 DUP1 SLOAD DUP8 SWAP1 DUP2 LT PUSH2 0x198C JUMPI PUSH2 0x198C PUSH2 0x2371 JUMP JUMPDEST PUSH1 0x0 SWAP2 DUP3 MSTORE PUSH1 0x20 SWAP1 SWAP2 KECCAK256 PUSH1 0x8 SWAP1 SWAP2 MUL ADD PUSH1 0x7 DUP2 ADD SLOAD SWAP1 SWAP2 POP PUSH1 0xFF AND ISZERO DUP1 PUSH2 0x19C4 JUMPI POP PUSH3 0xD2F00 DUP2 PUSH1 0x3 ADD SLOAD PUSH2 0x19C1 SWAP2 SWAP1 PUSH2 0x235E JUMP JUMPDEST TIMESTAMP GT JUMPDEST ISZERO PUSH2 0x19DD JUMPI PUSH1 0x0 DUP1 PUSH1 0x0 DUP1 SWAP5 POP SWAP5 POP SWAP5 POP SWAP5 POP POP PUSH2 0x1A33 JUMP JUMPDEST DUP1 SLOAD SWAP5 POP PUSH2 0x19EB DUP8 DUP3 PUSH2 0x1BCE JUMP JUMPDEST SWAP4 POP PUSH2 0x2710 PUSH2 0x19FC PUSH2 0x3E8 DUP8 PUSH2 0x231B JUMP JUMPDEST PUSH2 0x1A06 SWAP2 SWAP1 PUSH2 0x23AB JUMP JUMPDEST SWAP3 POP PUSH1 0x0 PUSH2 0x1A14 DUP5 DUP7 PUSH2 0x235E JUMP JUMPDEST SWAP1 POP DUP1 DUP7 GT PUSH2 0x1A24 JUMPI PUSH1 0x0 PUSH2 0x1A2E JUMP JUMPDEST PUSH2 0x1A2E DUP2 DUP8 PUSH2 0x2332 JUMP JUMPDEST SWAP3 POP POP POP JUMPDEST SWAP3 SWAP6 SWAP2 SWAP5 POP SWAP3 POP JUMP JUMPDEST PUSH1 0x1 PUSH1 0x1 PUSH1 0xA0 SHL SUB DUP2 AND PUSH1 0x0 SWAP1 DUP2 MSTORE PUSH1 0x7 PUSH1 0x20 MSTORE PUSH1 0x40 DUP2 KECCAK256 SLOAD DUP2 SUB PUSH2 0x1A63 JUMPI POP PUSH1 0x0 SWAP2 SWAP1 POP JUMP JUMPDEST PUSH1 0x1 PUSH1 0x1 PUSH1 0xA0 SHL SUB DUP3 AND PUSH1 0x0 SWAP1 DUP2 MSTORE PUSH1 0x7 PUSH1 0x20 MSTORE PUSH1 0x40 SWAP1 KECCAK256 SLOAD PUSH2 0xCC3 SWAP1 PUSH2 0x1D99 JUMP JUMPDEST PUSH1 0x1 PUSH1 0x1 PUSH1 0xA0 SHL SUB DUP3 AND PUSH1 0x0 SWAP1 DUP2 MSTORE PUSH1 0x6 PUSH1 0x20 MSTORE PUSH1 0x40 DUP2 KECCAK256 SLOAD DUP3 LT PUSH2 0x1AAC JUMPI POP PUSH1 0x0 PUSH2 0xCC3 JUMP JUMPDEST PUSH1 0x1 PUSH1 0x1 PUSH1 0xA0 SHL SUB DUP4 AND PUSH1 0x0 SWAP1 DUP2 MSTORE PUSH1 0x6 PUSH1 0x20 MSTORE PUSH1 0x40 DUP2 KECCAK256 DUP1 SLOAD DUP5 SWAP1 DUP2 LT PUSH2 0x1AD6 JUMPI PUSH2 0x1AD6 PUSH2 0x2371 JUMP JUMPDEST PUSH1 0x0 SWAP2 DUP3 MSTORE PUSH1 0x20 SWAP1 SWAP2 KECCAK256 PUSH1 0x8 SWAP1 SWAP2 MUL ADD PUSH1 0x7 DUP2 ADD SLOAD SWAP1 SWAP2 POP PUSH1 0xFF AND PUSH2 0x1AFF JUMPI PUSH1 0x0 SWAP2 POP POP PUSH2 0xCC3 JUMP JUMPDEST PUSH2 0x1B09 DUP5 DUP3 PUSH2 0x1BCE JUMP JUMPDEST SWAP5 SWAP4 POP POP POP POP JUMP JUMPDEST PUSH2 0x1B19 PUSH2 0x2042 JUMP JUMPDEST PUSH1 0x2 PUSH1 0x0 DUP1 MLOAD PUSH1 0x20 PUSH2 0x2404 DUP4 CODECOPY DUP2 MLOAD SWAP2 MSTORE SSTORE JUMP JUMPDEST PUSH1 0x1 PUSH1 0x1 PUSH1 0xA0 SHL SUB DUP3 AND PUSH1 0x0 SWAP1 DUP2 MSTORE PUSH1 0x6 PUSH1 0x20 MSTORE PUSH1 0x40 DUP2 KECCAK256 SLOAD DUP3 LT PUSH2 0x1B65 JUMPI PUSH1 0x40 MLOAD PUSH4 0x5972996F PUSH1 0xE1 SHL DUP2 MSTORE PUSH1 0x4 ADD PUSH1 0x40 MLOAD DUP1 SWAP2 SUB SWAP1 REVERT JUMPDEST PUSH1 0x1 PUSH1 0x1 PUSH1 0xA0 SHL SUB DUP4 AND PUSH1 0x0 SWAP1 DUP2 MSTORE PUSH1 0x6 PUSH1 0x20 MSTORE PUSH1 0x40 DUP2 KECCAK256 DUP1 SLOAD DUP5 SWAP1 DUP2 LT PUSH2 0x1B8F JUMPI PUSH2 0x1B8F PUSH2 0x2371 JUMP JUMPDEST PUSH1 0x0 SWAP2 DUP3 MSTORE PUSH1 0x20 SWAP1 SWAP2 KECCAK256 PUSH1 0x8 SWAP1 SWAP2 MUL ADD PUSH1 0x7 DUP2 ADD SLOAD SWAP1 SWAP2 POP PUSH1 0xFF AND PUSH2 0x1BC7 JUMPI PUSH1 0x40 MLOAD PUSH4 0x5A2E885 PUSH1 0xE2 SHL DUP2 MSTORE PUSH1 0x4 ADD PUSH1 0x40 MLOAD DUP1 SWAP2 SUB SWAP1 REVERT JUMPDEST SWAP4 SWAP3 POP POP POP JUMP JUMPDEST PUSH1 0x7 DUP2 ADD SLOAD PUSH1 0x0 SWAP1 PUSH1 0xFF AND PUSH2 0x1BE5 JUMPI POP PUSH1 0x0 PUSH2 0xCC3 JUMP JUMPDEST PUSH1 0x0 DUP3 PUSH1 0x4 ADD SLOAD TIMESTAMP PUSH2 0x1BF7 SWAP2 SWAP1 PUSH2 0x2332 JUMP JUMPDEST SWAP1 POP DUP1 PUSH1 0x0 SUB PUSH2 0x1C0B JUMPI PUSH1 0x0 SWAP2 POP POP PUSH2 0xCC3 JUMP JUMPDEST PUSH1 0x0 PUSH2 0x1C1A DUP5 PUSH1 0x0 ADD SLOAD PUSH2 0x1DEC JUMP JUMPDEST SWAP1 POP PUSH3 0x76A700 PUSH2 0x1C4A PUSH32 0x0 TIMESTAMP PUSH2 0x2332 JUMP JUMPDEST LT PUSH2 0x1C53 JUMPI POP PUSH1 0x2D JUMPDEST PUSH2 0x1C62 PUSH2 0x2710 PUSH3 0x15180 PUSH2 0x231B JUMP JUMPDEST DUP5 SLOAD DUP4 SWAP1 PUSH2 0x1C71 SWAP1 DUP5 SWAP1 PUSH2 0x231B JUMP JUMPDEST PUSH2 0x1C7B SWAP2 SWAP1 PUSH2 0x231B JUMP JUMPDEST PUSH2 0x1C85 SWAP2 SWAP1 PUSH2 0x23AB JUMP JUMPDEST SWAP3 POP PUSH1 0x0 DUP5 PUSH1 0x5 ADD SLOAD DUP6 PUSH1 0x6 ADD SLOAD GT PUSH2 0x1C9F JUMPI PUSH1 0x0 PUSH2 0x1CB3 JUMP JUMPDEST DUP5 PUSH1 0x5 ADD SLOAD DUP6 PUSH1 0x6 ADD SLOAD PUSH2 0x1CB3 SWAP2 SWAP1 PUSH2 0x2332 JUMP JUMPDEST SWAP1 POP DUP1 DUP5 GT ISZERO PUSH2 0x1CC1 JUMPI DUP1 SWAP4 POP JUMPDEST POP POP POP SWAP3 SWAP2 POP POP JUMP JUMPDEST PUSH2 0x1CD7 DUP4 DUP4 DUP4 PUSH1 0x1 PUSH2 0x2074 JUMP JUMPDEST PUSH2 0x1D04 JUMPI PUSH1 0x40 MLOAD PUSH4 0x5274AFE7 PUSH1 0xE0 SHL DUP2 MSTORE PUSH1 0x1 PUSH1 0x1 PUSH1 0xA0 SHL SUB DUP5 AND PUSH1 0x4 DUP3 ADD MSTORE PUSH1 0x24 ADD JUMPDEST PUSH1 0x40 MLOAD DUP1 SWAP2 SUB SWAP1 REVERT JUMPDEST POP POP POP JUMP JUMPDEST PUSH2 0x1D17 DUP5 DUP5 DUP5 DUP5 PUSH1 0x1 PUSH2 0x20DA JUMP JUMPDEST PUSH2 0x1D3F JUMPI PUSH1 0x40 MLOAD PUSH4 0x5274AFE7 PUSH1 0xE0 SHL DUP2 MSTORE PUSH1 0x1 PUSH1 0x1 PUSH1 0xA0 SHL SUB DUP6 AND PUSH1 0x4 DUP3 ADD MSTORE PUSH1 0x24 ADD PUSH2 0x1CFB JUMP JUMPDEST POP POP POP POP JUMP JUMPDEST PUSH2 0x1D52 DUP4 DUP4 DUP4 PUSH1 0x0 PUSH2 0x214C JUMP JUMPDEST PUSH2 0x1D04 JUMPI PUSH2 0x1D64 DUP4 DUP4 PUSH1 0x0 PUSH1 0x1 PUSH2 0x214C JUMP JUMPDEST PUSH2 0x1D8C JUMPI PUSH1 0x40 MLOAD PUSH4 0x5274AFE7 PUSH1 0xE0 SHL DUP2 MSTORE PUSH1 0x1 PUSH1 0x1 PUSH1 0xA0 SHL SUB DUP5 AND PUSH1 0x4 DUP3 ADD MSTORE PUSH1 0x24 ADD PUSH2 0x1CFB JUMP JUMPDEST PUSH2 0x1CD7 DUP4 DUP4 DUP4 PUSH1 0x1 PUSH2 0x214C JUMP JUMPDEST PUSH1 0x0 PUSH10 0x10F0CF064DD59200000 DUP3 LT PUSH2 0x1DB4 JUMPI POP PUSH1 0x4 SWAP2 SWAP1 POP JUMP JUMPDEST PUSH9 0x878678326EAC900000 DUP3 LT PUSH2 0x1DCC JUMPI POP PUSH1 0x3 SWAP2 SWAP1 POP JUMP JUMPDEST PUSH9 0x1B1AE4D6E2EF500000 DUP3 LT PUSH2 0x1DE4 JUMPI POP PUSH1 0x2 SWAP2 SWAP1 POP JUMP JUMPDEST POP PUSH1 0x1 SWAP2 SWAP1 POP JUMP JUMPDEST PUSH1 0x0 DUP1 PUSH2 0x1E19 PUSH32 0x0 TIMESTAMP PUSH2 0x2332 JUMP JUMPDEST SWAP1 POP PUSH3 0x76A700 DUP2 LT PUSH2 0x1E2E JUMPI POP PUSH1 0x2D SWAP3 SWAP2 POP POP JUMP JUMPDEST PUSH1 0x0 PUSH2 0x1E39 DUP5 PUSH2 0x1D99 JUMP JUMPDEST SWAP1 POP DUP1 PUSH1 0x1 SUB PUSH2 0x1E63 JUMPI PUSH2 0x1B09 DUP5 PUSH8 0x8AC7230489E80000 PUSH9 0x1B0D04202F47EC0000 PUSH1 0x32 PUSH1 0x64 PUSH2 0x2199 JUMP JUMPDEST DUP1 PUSH1 0x2 SUB PUSH2 0x1E8C JUMPI PUSH2 0x1B09 DUP5 PUSH9 0x1B1AE4D6E2EF500000 PUSH9 0x8778977BBB052C0000 PUSH1 0x4B PUSH1 0x73 PUSH2 0x2199 JUMP JUMPDEST DUP1 PUSH1 0x3 SUB PUSH2 0x1EB6 JUMPI PUSH2 0x1B09 DUP5 PUSH9 0x878678326EAC900000 PUSH10 0x10EFF0FAE29B1BC0000 PUSH1 0x64 PUSH1 0x96 PUSH2 0x2199 JUMP JUMPDEST PUSH1 0x0 PUSH10 0xA968163F0A57B400000 DUP6 GT PUSH2 0x1ECF JUMPI DUP5 PUSH2 0x1EDB JUMP JUMPDEST PUSH10 0xA968163F0A57B400000 JUMPDEST SWAP1 POP PUSH2 0x1F00 DUP2 PUSH10 0x10F0CF064DD59200000 PUSH10 0xA968163F0A57B400000 PUSH1 0x64 PUSH1 0xAF PUSH2 0x2199 JUMP JUMPDEST SWAP6 SWAP5 POP POP POP POP POP JUMP JUMPDEST PUSH1 0x2 SLOAD PUSH1 0x1 PUSH1 0x1 PUSH1 0xA0 SHL SUB AND ISZERO DUP1 PUSH2 0x1F2A JUMPI POP PUSH1 0x3 SLOAD PUSH1 0x1 PUSH1 0x1 PUSH1 0xA0 SHL SUB AND ISZERO JUMPDEST ISZERO PUSH2 0x1F33 JUMPI POP POP JUMP JUMPDEST DUP2 PUSH1 0x0 JUMPDEST PUSH1 0x14 DUP2 LT ISZERO PUSH2 0x1D3F JUMPI PUSH1 0x2 SLOAD PUSH1 0x40 MLOAD PUSH4 0x4A9FEFC7 PUSH1 0xE0 SHL DUP2 MSTORE PUSH1 0x1 PUSH1 0x1 PUSH1 0xA0 SHL SUB DUP5 DUP2 AND PUSH1 0x4 DUP4 ADD MSTORE PUSH1 0x0 SWAP3 AND SWAP1 PUSH4 0x4A9FEFC7 SWAP1 PUSH1 0x24 ADD PUSH1 0x20 PUSH1 0x40 MLOAD DUP1 DUP4 SUB DUP2 DUP7 GAS STATICCALL ISZERO DUP1 ISZERO PUSH2 0x1F8B JUMPI RETURNDATASIZE PUSH1 0x0 DUP1 RETURNDATACOPY RETURNDATASIZE PUSH1 0x0 REVERT JUMPDEST POP POP POP POP PUSH1 0x40 MLOAD RETURNDATASIZE PUSH1 0x1F NOT PUSH1 0x1F DUP3 ADD AND DUP3 ADD DUP1 PUSH1 0x40 MSTORE POP DUP2 ADD SWAP1 PUSH2 0x1FAF SWAP2 SWAP1 PUSH2 0x23E6 JUMP JUMPDEST SWAP1 POP PUSH1 0x1 PUSH1 0x1 PUSH1 0xA0 SHL SUB DUP2 AND PUSH2 0x1FC5 JUMPI POP PUSH2 0x1D3F JUMP JUMPDEST PUSH1 0x3 SLOAD PUSH1 0x40 MLOAD PUSH4 0xD9BD5F2D PUSH1 0xE0 SHL DUP2 MSTORE PUSH1 0x1 PUSH1 0x1 PUSH1 0xA0 SHL SUB DUP4 DUP2 AND PUSH1 0x4 DUP4 ADD MSTORE DUP6 DUP2 AND PUSH1 0x24 DUP4 ADD MSTORE PUSH1 0x44 DUP3 ADD DUP8 SWAP1 MSTORE SWAP1 SWAP2 AND SWAP1 PUSH4 0xD9BD5F2D SWAP1 PUSH1 0x64 ADD PUSH1 0x0 PUSH1 0x40 MLOAD DUP1 DUP4 SUB DUP2 PUSH1 0x0 DUP8 DUP1 EXTCODESIZE ISZERO DUP1 ISZERO PUSH2 0x201B JUMPI PUSH1 0x0 DUP1 REVERT JUMPDEST POP GAS CALL ISZERO DUP1 ISZERO PUSH2 0x202F JUMPI RETURNDATASIZE PUSH1 0x0 DUP1 RETURNDATACOPY RETURNDATASIZE PUSH1 0x0 REVERT JUMPDEST POP SWAP3 SWAP5 POP POP PUSH1 0x1 SWAP1 SWAP3 ADD SWAP2 POP PUSH2 0x1F37 SWAP1 POP JUMP JUMPDEST PUSH1 0x0 DUP1 MLOAD PUSH1 0x20 PUSH2 0x2404 DUP4 CODECOPY DUP2 MLOAD SWAP2 MSTORE SLOAD PUSH1 0x2 SUB PUSH2 0x2072 JUMPI PUSH1 0x40 MLOAD PUSH4 0x3EE5AEB5 PUSH1 0xE0 SHL DUP2 MSTORE PUSH1 0x4 ADD PUSH1 0x40 MLOAD DUP1 SWAP2 SUB SWAP1 REVERT JUMPDEST JUMP JUMPDEST PUSH1 0x40 MLOAD PUSH4 0xA9059CBB PUSH1 0xE0 SHL PUSH1 0x0 DUP2 DUP2 MSTORE PUSH1 0x1 PUSH1 0x1 PUSH1 0xA0 SHL SUB DUP7 AND PUSH1 0x4 MSTORE PUSH1 0x24 DUP6 SWAP1 MSTORE SWAP2 PUSH1 0x20 DUP4 PUSH1 0x44 DUP2 DUP1 DUP12 GAS CALL SWAP3 POP PUSH1 0x1 PUSH1 0x0 MLOAD EQ DUP4 AND PUSH2 0x20CE JUMPI DUP4 DUP4 ISZERO AND ISZERO PUSH2 0x20C1 JUMPI RETURNDATASIZE PUSH1 0x0 DUP3 RETURNDATACOPY RETURNDATASIZE DUP2 REVERT JUMPDEST PUSH1 0x0 DUP8 EXTCODESIZE GT RETURNDATASIZE ISZERO AND DUP4 AND SWAP3 POP JUMPDEST PUSH1 0x40 MSTORE POP SWAP5 SWAP4 POP POP POP POP JUMP JUMPDEST PUSH1 0x40 MLOAD PUSH4 0x23B872DD PUSH1 0xE0 SHL PUSH1 0x0 DUP2 DUP2 MSTORE PUSH1 0x1 PUSH1 0x1 PUSH1 0xA0 SHL SUB DUP8 DUP2 AND PUSH1 0x4 MSTORE DUP7 AND PUSH1 0x24 MSTORE PUSH1 0x44 DUP6 SWAP1 MSTORE SWAP2 PUSH1 0x20 DUP4 PUSH1 0x64 DUP2 DUP1 DUP13 GAS CALL SWAP3 POP PUSH1 0x1 PUSH1 0x0 MLOAD EQ DUP4 AND PUSH2 0x213A JUMPI DUP4 DUP4 ISZERO AND ISZERO PUSH2 0x212D JUMPI RETURNDATASIZE PUSH1 0x0 DUP3 RETURNDATACOPY RETURNDATASIZE DUP2 REVERT JUMPDEST PUSH1 0x0 DUP9 EXTCODESIZE GT RETURNDATASIZE ISZERO AND DUP4 AND SWAP3 POP JUMPDEST PUSH1 0x40 MSTORE POP PUSH1 0x0 PUSH1 0x60 MSTORE SWAP6 SWAP5 POP POP POP POP POP JUMP JUMPDEST PUSH1 0x40 MLOAD PUSH4 0x95EA7B3 PUSH1 0xE0 SHL PUSH1 0x0 DUP2 DUP2 MSTORE PUSH1 0x1 PUSH1 0x1 PUSH1 0xA0 SHL SUB DUP7 AND PUSH1 0x4 MSTORE PUSH1 0x24 DUP6 SWAP1 MSTORE SWAP2 PUSH1 0x20 DUP4 PUSH1 0x44 DUP2 DUP1 DUP12 GAS CALL SWAP3 POP PUSH1 0x1 PUSH1 0x0 MLOAD EQ DUP4 AND PUSH2 0x20CE JUMPI DUP4 DUP4 ISZERO AND ISZERO PUSH2 0x20C1 JUMPI RETURNDATASIZE PUSH1 0x0 DUP3 RETURNDATACOPY RETURNDATASIZE DUP2 REVERT JUMPDEST PUSH1 0x0 DUP5 DUP5 GT PUSH2 0x21A9 JUMPI POP DUP2 PUSH2 0x1F00 JUMP JUMPDEST PUSH1 0x0 PUSH2 0x21B5 DUP5 DUP5 PUSH2 0x2332 JUMP JUMPDEST SWAP1 POP PUSH1 0x0 PUSH2 0x21C3 DUP8 DUP8 PUSH2 0x2332 JUMP JUMPDEST SWAP1 POP DUP1 DUP3 PUSH2 0x21D1 DUP10 DUP12 PUSH2 0x2332 JUMP JUMPDEST PUSH2 0x21DB SWAP2 SWAP1 PUSH2 0x231B JUMP JUMPDEST PUSH2 0x21E5 SWAP2 SWAP1 PUSH2 0x23AB JUMP JUMPDEST PUSH2 0x21EF SWAP1 DUP7 PUSH2 0x235E JUMP JUMPDEST SWAP9 SWAP8 POP POP POP POP POP POP POP POP JUMP JUMPDEST PUSH1 0x1 PUSH1 0x1 PUSH1 0xA0 SHL SUB DUP2 AND DUP2 EQ PUSH2 0xA1E JUMPI PUSH1 0x0 DUP1 REVERT JUMPDEST PUSH1 0x0 DUP1 PUSH1 0x40 DUP4 DUP6 SUB SLT ISZERO PUSH2 0x2223 JUMPI PUSH1 0x0 DUP1 REVERT JUMPDEST DUP3 CALLDATALOAD PUSH2 0x222E DUP2 PUSH2 0x21FB JUMP JUMPDEST SWAP5 PUSH1 0x20 SWAP4 SWAP1 SWAP4 ADD CALLDATALOAD SWAP4 POP POP POP JUMP JUMPDEST PUSH1 0x0 PUSH1 0x20 DUP3 DUP5 SUB SLT ISZERO PUSH2 0x224E JUMPI PUSH1 0x0 DUP1 REVERT JUMPDEST POP CALLDATALOAD SWAP2 SWAP1 POP JUMP JUMPDEST PUSH1 0x0 PUSH1 0x20 DUP3 DUP5 SUB SLT ISZERO PUSH2 0x2267 JUMPI PUSH1 0x0 DUP1 REVERT JUMPDEST DUP2 CALLDATALOAD PUSH2 0x1BC7 DUP2 PUSH2 0x21FB JUMP JUMPDEST PUSH1 0x0 PUSH1 0x20 DUP3 DUP5 SUB SLT ISZERO PUSH2 0x2284 JUMPI PUSH1 0x0 DUP1 REVERT JUMPDEST DUP2 CALLDATALOAD DUP1 ISZERO ISZERO DUP2 EQ PUSH2 0x1BC7 JUMPI PUSH1 0x0 DUP1 REVERT JUMPDEST PUSH1 0x0 DUP1 PUSH1 0x0 DUP1 PUSH1 0x0 PUSH1 0xA0 DUP7 DUP9 SUB SLT ISZERO PUSH2 0x22AC JUMPI PUSH1 0x0 DUP1 REVERT JUMPDEST DUP6 CALLDATALOAD PUSH2 0x22B7 DUP2 PUSH2 0x21FB JUMP JUMPDEST SWAP5 POP PUSH1 0x20 DUP7 ADD CALLDATALOAD PUSH2 0x22C7 DUP2 PUSH2 0x21FB JUMP JUMPDEST SWAP4 POP PUSH1 0x40 DUP7 ADD CALLDATALOAD PUSH2 0x22D7 DUP2 PUSH2 0x21FB JUMP JUMPDEST SWAP3 POP PUSH1 0x60 DUP7 ADD CALLDATALOAD PUSH2 0x22E7 DUP2 PUSH2 0x21FB JUMP JUMPDEST SWAP2 POP PUSH1 0x80 DUP7 ADD CALLDATALOAD PUSH2 0x22F7 DUP2 PUSH2 0x21FB JUMP JUMPDEST DUP1 SWAP2 POP POP SWAP3 SWAP6 POP SWAP3 SWAP6 SWAP1 SWAP4 POP JUMP JUMPDEST PUSH4 0x4E487B71 PUSH1 0xE0 SHL PUSH1 0x0 MSTORE PUSH1 0x11 PUSH1 0x4 MSTORE PUSH1 0x24 PUSH1 0x0 REVERT JUMPDEST DUP1 DUP3 MUL DUP2 ISZERO DUP3 DUP3 DIV DUP5 EQ OR PUSH2 0xCC3 JUMPI PUSH2 0xCC3 PUSH2 0x2305 JUMP JUMPDEST DUP2 DUP2 SUB DUP2 DUP2 GT ISZERO PUSH2 0xCC3 JUMPI PUSH2 0xCC3 PUSH2 0x2305 JUMP JUMPDEST PUSH1 0x0 PUSH1 0x20 DUP3 DUP5 SUB SLT ISZERO PUSH2 0x2357 JUMPI PUSH1 0x0 DUP1 REVERT JUMPDEST POP MLOAD SWAP2 SWAP1 POP JUMP JUMPDEST DUP1 DUP3 ADD DUP1 DUP3 GT ISZERO PUSH2 0xCC3 JUMPI PUSH2 0xCC3 PUSH2 0x2305 JUMP JUMPDEST PUSH4 0x4E487B71 PUSH1 0xE0 SHL PUSH1 0x0 MSTORE PUSH1 0x32 PUSH1 0x4 MSTORE PUSH1 0x24 PUSH1 0x0 REVERT JUMPDEST PUSH1 0x0 DUP1 PUSH1 0x40 DUP4 DUP6 SUB SLT ISZERO PUSH2 0x239A JUMPI PUSH1 0x0 DUP1 REVERT JUMPDEST POP POP DUP1 MLOAD PUSH1 0x20 SWAP1 SWAP2 ADD MLOAD SWAP1 SWAP3 SWAP1 SWAP2 POP JUMP JUMPDEST PUSH1 0x0 DUP3 PUSH2 0x23C8 JUMPI PUSH4 0x4E487B71 PUSH1 0xE0 SHL PUSH1 0x0 MSTORE PUSH1 0x12 PUSH1 0x4 MSTORE PUSH1 0x24 PUSH1 0x0 REVERT JUMPDEST POP DIV SWAP1 JUMP JUMPDEST PUSH1 0x0 PUSH1 0x1 DUP3 ADD PUSH2 0x23DF JUMPI PUSH2 0x23DF PUSH2 0x2305 JUMP JUMPDEST POP PUSH1 0x1 ADD SWAP1 JUMP JUMPDEST PUSH1 0x0 PUSH1 0x20 DUP3 DUP5 SUB SLT ISZERO PUSH2 0x23F8 JUMPI PUSH1 0x0 DUP1 REVERT JUMPDEST DUP2 MLOAD PUSH2 0x1BC7 DUP2 PUSH2 0x21FB JUMP INVALID SWAP12 PUSH24 0x9B17422D0DF92223018B32B4D1FA46E071723D6817E2486D STOP EXTCODESIZE 0xEC 0xC5 PUSH0 STOP LOG2 PUSH5 0x6970667358 0x22 SLT KECCAK256 CODESIZE 0xCB SWAP13 PUSH1 0xC 0xE PUSH31 0x12B97356D7733E28E0ED1A48E7D529D0535209F94C74C3815A64736F6C6343 STOP ADDMOD XOR STOP CALLER "},"methodIdentifiers":{"admin()":"f851a440","claimRewards(uint256)":"0962ef79","completeSetup()":"8aea8f71","configure(address,address,address,address,address)":"760fcb3e","deposit(uint256)":"b6b55f25","depositsPaused()":"60da3e83","earlyExit(uint256)":"b8af3d3e","getActiveDeposit(address)":"142a3da3","getCombinedEarnings(address)":"3a6f2dcd","getDepositCount(address)":"13fcaf54","getEarlyExitAmount(address,uint256)":"ceace7dd","getPendingRewards(address,uint256)":"e4e7c6b4","getUserTier(address)":"e4d2620e","isInEarlyExitPeriod(address,uint256)":"786685e0","launchTimestamp()":"65cf7c9b","notifyLevelIncome(address,uint256)":"6b9f7ab6","notifyRankBonus(address,uint256)":"ac948e83","osloDex()":"8565c2bf","osloToken()":"2acfbca3","rankSystem()":"e9a16bd5","referral()":"1441a5a9","setDepositsPaused(bool)":"1c481e2d","setReferral(address)":"9e5914da","setupComplete()":"b6635be6","timelock()":"d33219b4","totalDeposited()":"ff50abdc","totalRewardsPaid()":"74958e35","totalWithdrawn()":"4b319713","treasury()":"61d027b3","usdt()":"2f48ab7d","userDeposits(address,uint256)":"08f43333","users(address)":"a87430ba"}}}}}