{"contracts/OSLOReferral.sol":{"OSLOReferral":{"abi":[{"inputs":[{"internalType":"address","name":"_usdt","type":"address"},{"internalType":"address","name":"_osloToken","type":"address"}],"stateMutability":"nonpayable","type":"constructor"},{"inputs":[],"name":"AlreadyRegistered","type":"error"},{"inputs":[],"name":"InvalidReferrer","type":"error"},{"inputs":[],"name":"NotRegistered","type":"error"},{"inputs":[],"name":"NothingToClaim","type":"error"},{"inputs":[],"name":"OnlyAdmin","type":"error"},{"inputs":[],"name":"OnlyInvestmentEngine","type":"error"},{"inputs":[],"name":"OnlyTimelock","type":"error"},{"inputs":[],"name":"ReentrancyGuardReentrantCall","type":"error"},{"inputs":[{"internalType":"address","name":"token","type":"address"}],"name":"SafeERC20FailedOperation","type":"error"},{"inputs":[],"name":"SelfReferral","type":"error"},{"inputs":[],"name":"SetupAlreadyComplete","type":"error"},{"inputs":[],"name":"ZeroAddress","type":"error"},{"anonymous":false,"inputs":[{"indexed":true,"internalType":"address","name":"user","type":"address"},{"indexed":false,"internalType":"uint256","name":"level","type":"uint256"}],"name":"LevelUnlocked","type":"event"},{"anonymous":false,"inputs":[{"indexed":true,"internalType":"address","name":"upline","type":"address"},{"indexed":true,"internalType":"address","name":"downline","type":"address"},{"indexed":false,"internalType":"uint256","name":"level","type":"uint256"},{"indexed":false,"internalType":"uint256","name":"amount","type":"uint256"}],"name":"ReferralPaid","type":"event"},{"anonymous":false,"inputs":[{"indexed":true,"internalType":"address","name":"user","type":"address"},{"indexed":false,"internalType":"uint256","name":"amount","type":"uint256"}],"name":"ReferralRewardsClaimed","type":"event"},{"anonymous":false,"inputs":[{"indexed":true,"internalType":"address","name":"user","type":"address"},{"indexed":false,"internalType":"uint256","name":"fee","type":"uint256"},{"indexed":false,"internalType":"uint256","name":"osloBurned","type":"uint256"}],"name":"RegistrationFeeProcessed","type":"event"},{"anonymous":false,"inputs":[{"indexed":true,"internalType":"address","name":"user","type":"address"},{"indexed":true,"internalType":"address","name":"referrer","type":"address"}],"name":"UserRegistered","type":"event"},{"inputs":[],"name":"REGISTRATION_FEE","outputs":[{"internalType":"uint256","name":"","type":"uint256"}],"stateMutability":"view","type":"function"},{"inputs":[],"name":"admin","outputs":[{"internalType":"address","name":"","type":"address"}],"stateMutability":"view","type":"function"},{"inputs":[{"internalType":"address","name":"user","type":"address"}],"name":"checkAndUnlockLevels","outputs":[],"stateMutability":"nonpayable","type":"function"},{"inputs":[],"name":"claimReferralRewards","outputs":[],"stateMutability":"nonpayable","type":"function"},{"inputs":[],"name":"completeSetup","outputs":[],"stateMutability":"nonpayable","type":"function"},{"inputs":[{"internalType":"address","name":"_investmentEngine","type":"address"},{"internalType":"address","name":"_osloDex","type":"address"},{"internalType":"address","name":"_timelock","type":"address"}],"name":"configure","outputs":[],"stateMutability":"nonpayable","type":"function"},{"inputs":[{"internalType":"address","name":"user","type":"address"},{"internalType":"uint256","name":"profitAmount","type":"uint256"}],"name":"distributeReferralCommission","outputs":[],"stateMutability":"nonpayable","type":"function"},{"inputs":[{"internalType":"address","name":"user","type":"address"}],"name":"getAllLevelIncome","outputs":[{"internalType":"uint256[21]","name":"","type":"uint256[21]"}],"stateMutability":"view","type":"function"},{"inputs":[{"internalType":"address","name":"user","type":"address"}],"name":"getDirectReferrals","outputs":[{"internalType":"address[]","name":"","type":"address[]"}],"stateMutability":"view","type":"function"},{"inputs":[{"internalType":"address","name":"user","type":"address"},{"internalType":"uint256","name":"level","type":"uint256"}],"name":"getLevelIncome","outputs":[{"internalType":"uint256","name":"","type":"uint256"}],"stateMutability":"view","type":"function"},{"inputs":[{"internalType":"address","name":"user","type":"address"}],"name":"getQualifiedDirectsCount","outputs":[{"internalType":"uint256","name":"","type":"uint256"}],"stateMutability":"view","type":"function"},{"inputs":[{"internalType":"address","name":"user","type":"address"}],"name":"getReferrer","outputs":[{"internalType":"address","name":"","type":"address"}],"stateMutability":"view","type":"function"},{"inputs":[{"internalType":"address","name":"user","type":"address"}],"name":"getTeamSize","outputs":[{"internalType":"uint256","name":"","type":"uint256"}],"stateMutability":"view","type":"function"},{"inputs":[{"internalType":"address","name":"user","type":"address"}],"name":"getUnlockedLevels","outputs":[{"internalType":"uint256","name":"","type":"uint256"}],"stateMutability":"view","type":"function"},{"inputs":[],"name":"investmentEngine","outputs":[{"internalType":"address","name":"","type":"address"}],"stateMutability":"view","type":"function"},{"inputs":[{"internalType":"address","name":"user","type":"address"}],"name":"isRegistered","outputs":[{"internalType":"bool","name":"","type":"bool"}],"stateMutability":"view","type":"function"},{"inputs":[{"internalType":"address","name":"","type":"address"},{"internalType":"uint256","name":"","type":"uint256"}],"name":"levelIncome","outputs":[{"internalType":"uint256","name":"","type":"uint256"}],"stateMutability":"view","type":"function"},{"inputs":[],"name":"osloDex","outputs":[{"internalType":"address","name":"","type":"address"}],"stateMutability":"view","type":"function"},{"inputs":[],"name":"osloToken","outputs":[{"internalType":"contract IERC20","name":"","type":"address"}],"stateMutability":"view","type":"function"},{"inputs":[{"internalType":"address","name":"","type":"address"}],"name":"referralRewards","outputs":[{"internalType":"uint256","name":"","type":"uint256"}],"stateMutability":"view","type":"function"},{"inputs":[{"internalType":"address","name":"user","type":"address"},{"internalType":"address","name":"referrer","type":"address"}],"name":"register","outputs":[],"stateMutability":"nonpayable","type":"function"},{"inputs":[{"internalType":"address","name":"_investmentEngine","type":"address"}],"name":"setInvestmentEngine","outputs":[],"stateMutability":"nonpayable","type":"function"},{"inputs":[],"name":"setupComplete","outputs":[{"internalType":"bool","name":"","type":"bool"}],"stateMutability":"view","type":"function"},{"inputs":[],"name":"timelock","outputs":[{"internalType":"address","name":"","type":"address"}],"stateMutability":"view","type":"function"},{"inputs":[],"name":"totalCommissionsPaid","outputs":[{"internalType":"uint256","name":"","type":"uint256"}],"stateMutability":"view","type":"function"},{"inputs":[],"name":"totalFeesCollected","outputs":[{"internalType":"uint256","name":"","type":"uint256"}],"stateMutability":"view","type":"function"},{"inputs":[],"name":"totalRegistered","outputs":[{"internalType":"uint256","name":"","type":"uint256"}],"stateMutability":"view","type":"function"},{"inputs":[],"name":"usdt","outputs":[{"internalType":"contract IERC20","name":"","type":"address"}],"stateMutability":"view","type":"function"},{"inputs":[{"internalType":"address","name":"","type":"address"}],"name":"userInfo","outputs":[{"internalType":"address","name":"referrer","type":"address"},{"internalType":"uint256","name":"unlockedLevels","type":"uint256"},{"internalType":"uint256","name":"totalEarned","type":"uint256"},{"internalType":"bool","name":"registered","type":"bool"}],"stateMutability":"view","type":"function"}],"evm":{"bytecode":{"linkReferences":{},"object":"60c06040523480156200001157600080fd5b50604051620017c5380380620017c58339810160408190526200003491620000dc565b60017f9b779b17422d0df92223018b32b4d1fa46e071723d6817e2486d003becc55f00556001600160a01b03821615806200007657506001600160a01b038116155b15620000955760405163d92e233d60e01b815260040160405180910390fd5b6001600160a01b039182166080521660a052600280546001600160a01b0319163317905562000114565b80516001600160a01b0381168114620000d757600080fd5b919050565b60008060408385031215620000f057600080fd5b620000fb83620000bf565b91506200010b60208401620000bf565b90509250929050565b60805160a05161166f62000156600039600081816102f00152610d1801526000818161032f0152818161058601528181610be90152610c5a015261166f6000f3fe608060405234801561001057600080fd5b50600436106101cf5760003560e01c806364b4f75111610104578063b6635be6116100a2578063cb4f51d111610071578063cb4f51d1146104de578063d2c8e0e5146104f1578063d33219b414610511578063f851a4401461052457600080fd5b8063b6635be61461046e578063b845828214610492578063c3c5a547146104a5578063c6d83fcf146104d557600080fd5b80638565c2bf116100de5780638565c2bf146104375780638aea8f711461044a578063927416c014610452578063aa6773541461045b57600080fd5b806364b4f751146103df57806364df8222146103ee5780638000d9911461042457600080fd5b80632f48ab7d11610171578063519f16401161014b578063519f16401461039057806353aaa63b146103a357806355d28f20146103c357806360c6d8ae146103d657600080fd5b80632f48ab7d1461032a57806330131384146103515780634a9fefc71461036457600080fd5b80631e97f48a116101ad5780631e97f48a1461028c5780631f791b69146102ac5780632573912c146102d85780632acfbca3146102eb57600080fd5b806305eaab4b146101d45780630b35d7d1146101de5780631959a0021461021c575b600080fd5b6101dc610537565b005b6102096101ec36600461144e565b600660209081526000928352604080842090915290825290205481565b6040519081526020015b60405180910390f35b61026061022a366004611478565b600460208190526000918252604090912080546002820154600383015492909301546001600160a01b0390911692919060ff1684565b604080516001600160a01b03909516855260208501939093529183015215156060820152608001610213565b61029f61029a366004611478565b610616565b604051610213919061149a565b6102096102ba366004611478565b6001600160a01b031660009081526004602052604090206002015490565b6101dc6102e6366004611478565b6106ae565b6103127f000000000000000000000000000000000000000000000000000000000000000081565b6040516001600160a01b039091168152602001610213565b6103127f000000000000000000000000000000000000000000000000000000000000000081565b600054610312906001600160a01b031681565b610312610372366004611478565b6001600160a01b039081166000908152600460205260409020541690565b61020961039e366004611478565b6107a7565b6102096103b1366004611478565b60056020526000908152604090205481565b6101dc6103d13660046114cc565b6107ba565b61020960095481565b610209670de0b6b3a764000081565b6102096103fc36600461144e565b6001600160a01b03919091166000908152600660209081526040808320938352929052205490565b6101dc61043236600461144e565b61084f565b600154610312906001600160a01b031681565b6101dc610a77565b61020960075481565b6101dc61046936600461150f565b610af2565b60035461048290600160a01b900460ff1681565b6040519015158152602001610213565b6102096104a0366004611478565b610e72565b6104826104b3366004611478565b6001600160a01b03166000908152600460208190526040909120015460ff1690565b61020960085481565b6101dc6104ec366004611478565b610e7d565b6105046104ff366004611478565b610eca565b6040516102139190611542565b600354610312906001600160a01b031681565b600254610312906001600160a01b031681565b61053f610f43565b3360009081526005602052604081205490819003610570576040516312d37ee560e31b815260040160405180910390fd5b336000818152600560205260408120556105b5907f00000000000000000000000000000000000000000000000000000000000000006001600160a01b03169083610f71565b60405181815233907f98741ecf35c5d20a8ed68dbd8540500684864a6c98c2a41a5844d0b3a2357d439060200160405180910390a25061061460017f9b779b17422d0df92223018b32b4d1fa46e071723d6817e2486d003becc55f0055565b565b61061e611413565b610626611413565b60015b601481116106a7576001600160a01b03841660009081526006602090815260408083208484529091529020548282601581106106675761066761158f565b602002015281816015811061067e5761067e61158f565b6020020151825183906106929083906115bb565b9052508061069f816115ce565b915050610629565b5092915050565b6001600160a01b0381166000908152600460208190526040909120015460ff166106d55750565b60006106e082610fab565b905060006106ed826110b5565b6001600160a01b0384166000908152600460205260409020600201549091508111156107a2576001600160a01b0383166000908152600460205260408120600201805490839055906107408260016115bb565b90505b82811161079f57846001600160a01b03167f084d80ac1b703449f5931daa49aa5ad902f79624e20313db57074f53c5aca3418260405161078591815260200190565b60405180910390a280610797816115ce565b915050610743565b50505b505050565b60006107b482600061110f565b92915050565b6002546001600160a01b031633146107e557604051634755657960e01b815260040160405180910390fd5b600354600160a01b900460ff16156108105760405163238f75d360e01b815260040160405180910390fd5b600080546001600160a01b039485166001600160a01b031991821617909155600180549385169382169390931790925560038054919093169116179055565b8060000361085b575050565b8160015b60148111610a71576001600160a01b03808316600090815260046020526040902054168061088d5750610a71565b6001600160a01b0381166000908152600460205260409020600201548211610a5d5760006108ba836111a1565b905060006127106108cb83886115e7565b6108d591906115fe565b90508015610a5a576001600160a01b038316600090815260056020526040812080548392906109059084906115bb565b90915550506001600160a01b03831660009081526006602090815260408083208784529091528120805483929061093d9084906115bb565b90915550506001600160a01b0383166000908152600460205260408120600301805483929061096d9084906115bb565b92505081905550806008600082825461098691906115bb565b90915550506000546001600160a01b031615610a03576000546040516335cfbd5b60e11b81526001600160a01b0385811660048301526024820184905290911690636b9f7ab690604401600060405180830381600087803b1580156109ea57600080fd5b505af11580156109fe573d6000803e3d6000fd5b505050505b866001600160a01b0316836001600160a01b03167f65db98422e8b7340e0d6dfa99bbadd4ba95a51fefafd8f0e1cbbb2e819429a428684604051610a51929190918252602082015260400190565b60405180910390a35b50505b915080610a69816115ce565b91505061085f565b50505050565b6002546001600160a01b03163314610aa257604051634755657960e01b815260040160405180910390fd5b600354600160a01b900460ff1615610acd5760405163238f75d360e01b815260040160405180910390fd5b6003805460ff60a01b1916600160a01b179055600280546001600160a01b0319169055565b6001600160a01b038216610b195760405163d92e233d60e01b815260040160405180910390fd5b6001600160a01b0382166000908152600460208190526040909120015460ff1615610b5757604051630ea075bf60e21b815260040160405180910390fd5b806001600160a01b0316826001600160a01b031603610b8957604051632af47b8760e11b815260040160405180910390fd5b6001600160a01b03811615801590610bbe57506001600160a01b0381166000908152600460208190526040909120015460ff16155b15610bdc57604051630c22084560e31b815260040160405180910390fd5b610c196001600160a01b037f0000000000000000000000000000000000000000000000000000000000000000168330670de0b6b3a7640000611222565b670de0b6b3a764000060096000828254610c3391906115bb565b90915550506001546001600160a01b031615610d9057600154610c8b906001600160a01b037f000000000000000000000000000000000000000000000000000000000000000081169116670de0b6b3a7640000611258565b60015460405163c2c9068760e01b8152670de0b6b3a76400006004820152600060248201526001600160a01b039091169063c2c90687906044016020604051808303816000875af1925050508015610d00575060408051601f3d908101601f19168201909252610cfd91810190611620565b60015b15610d90578015610d8e57610d416001600160a01b037f00000000000000000000000000000000000000000000000000000000000000001661dead83610f71565b60408051670de0b6b3a76400008152602081018390526001600160a01b038516917f285cf258850ff8cf5d55ec19e46476d4e3d5209972f80a7880a38ac7011e7023910160405180910390a25b505b6001600160a01b0380831660009081526004602081905260408220908101805460ff1916600117905580549284166001600160a01b0319909316831781556002015515610e19576001600160a01b0381811660009081526004602090815260408220600190810180549182018155835291200180546001600160a01b0319169184169190911790555b60078054906000610e29836115ce565b9190505550806001600160a01b0316826001600160a01b03167f2138b9314634f9fdd5e49bee3eaf17ca557b6637524d0db759711c3bfcd3d85060405160405180910390a35050565b60006107b482610fab565b6003546001600160a01b03163314610ea857604051630e05f48560e11b815260040160405180910390fd5b600080546001600160a01b0319166001600160a01b0392909216919091179055565b6001600160a01b038116600090815260046020908152604091829020600101805483518184028101840190945280845260609392830182828015610f3757602002820191906000526020600020905b81546001600160a01b03168152600190910190602001808311610f19575b50505050509050919050565b610f4b6112ac565b60027f9b779b17422d0df92223018b32b4d1fa46e071723d6817e2486d003becc55f0055565b610f7e83838360016112ee565b6107a257604051635274afe760e01b81526001600160a01b03841660048201526024015b60405180910390fd5b6001600160a01b03811660009081526004602052604081208190600101815b81548110156110ac576000546001600160a01b0316156110a4576000805483546001600160a01b039091169063142a3da39085908590811061100e5761100e61158f565b60009182526020909120015460405160e083901b6001600160e01b03191681526001600160a01b039091166004820152602401602060405180830381865afa15801561105e573d6000803e3d6000fd5b505050506040513d601f19601f820116820180604052508101906110829190611620565b905068056bc75e2d6310000081106110a2578361109e816115ce565b9450505b505b600101610fca565b50909392505050565b6000600782106110c757506014919050565b600582106110d757506010919050565b600382106110e75750600c919050565b600282106110f757506008919050565b6001821061110757506003919050565b506000919050565b600060148210611121575060006107b4565b6001600160a01b0383166000908152600460205260408120600101805490915b82548110156111985761118483828154811061115f5761115f61158f565b6000918252602090912001546001600160a01b031661117f8760016115bb565b61110f565b61118e90836115bb565b9150600101611141565b50949350505050565b6000816001036111b45750610bb8919050565b816002036111c557506107d0919050565b600382101580156111d75750600a8211155b156111e457506064919050565b600b82101580156111f65750600f8211155b1561120357506032919050565b60108210158015611215575060148211155b1561110757506019919050565b611230848484846001611354565b610a7157604051635274afe760e01b81526001600160a01b0385166004820152602401610fa2565b61126583838360006113c6565b6107a2576112778383600060016113c6565b61129f57604051635274afe760e01b81526001600160a01b0384166004820152602401610fa2565b610f7e83838360016113c6565b7f9b779b17422d0df92223018b32b4d1fa46e071723d6817e2486d003becc55f005460020361061457604051633ee5aeb560e01b815260040160405180910390fd5b60405163a9059cbb60e01b60008181526001600160a01b038616600452602485905291602083604481808b5af19250600160005114831661134857838315161561133b573d6000823e3d81fd5b6000873b113d1516831692505b60405250949350505050565b6040516323b872dd60e01b60008181526001600160a01b038781166004528616602452604485905291602083606481808c5af1925060016000511483166113b45783831516156113a7573d6000823e3d81fd5b6000883b113d1516831692505b60405250600060605295945050505050565b60405163095ea7b360e01b60008181526001600160a01b038616600452602485905291602083604481808b5af19250600160005114831661134857838315161561133b573d6000823e3d81fd5b604051806102a001604052806015906020820280368337509192915050565b80356001600160a01b038116811461144957600080fd5b919050565b6000806040838503121561146157600080fd5b61146a83611432565b946020939093013593505050565b60006020828403121561148a57600080fd5b61149382611432565b9392505050565b6102a08101818360005b60158110156114c35781518352602092830192909101906001016114a4565b50505092915050565b6000806000606084860312156114e157600080fd5b6114ea84611432565b92506114f860208501611432565b915061150660408501611432565b90509250925092565b6000806040838503121561152257600080fd5b61152b83611432565b915061153960208401611432565b90509250929050565b6020808252825182820181905260009190848201906040850190845b818110156115835783516001600160a01b03168352928401929184019160010161155e565b50909695505050505050565b634e487b7160e01b600052603260045260246000fd5b634e487b7160e01b600052601160045260246000fd5b808201808211156107b4576107b46115a5565b6000600182016115e0576115e06115a5565b5060010190565b80820281158282048414176107b4576107b46115a5565b60008261161b57634e487b7160e01b600052601260045260246000fd5b500490565b60006020828403121561163257600080fd5b505191905056fea264697066735822122067164c5b0e8e4b584b38504ce1241cf4584e8b0d5df6282a50f5676eaf1804b564736f6c63430008180033","opcodes":"PUSH1 0xC0 PUSH1 0x40 MSTORE CALLVALUE DUP1 ISZERO PUSH3 0x11 JUMPI PUSH1 0x0 DUP1 REVERT JUMPDEST POP PUSH1 0x40 MLOAD PUSH3 0x17C5 CODESIZE SUB DUP1 PUSH3 0x17C5 DUP4 CODECOPY DUP2 ADD PUSH1 0x40 DUP2 SWAP1 MSTORE PUSH3 0x34 SWAP2 PUSH3 0xDC JUMP JUMPDEST PUSH1 0x1 PUSH32 0x9B779B17422D0DF92223018B32B4D1FA46E071723D6817E2486D003BECC55F00 SSTORE PUSH1 0x1 PUSH1 0x1 PUSH1 0xA0 SHL SUB DUP3 AND ISZERO DUP1 PUSH3 0x76 JUMPI POP PUSH1 0x1 PUSH1 0x1 PUSH1 0xA0 SHL SUB DUP2 AND ISZERO JUMPDEST ISZERO PUSH3 0x95 JUMPI PUSH1 0x40 MLOAD PUSH4 0xD92E233D PUSH1 0xE0 SHL DUP2 MSTORE PUSH1 0x4 ADD PUSH1 0x40 MLOAD DUP1 SWAP2 SUB SWAP1 REVERT JUMPDEST PUSH1 0x1 PUSH1 0x1 PUSH1 0xA0 SHL SUB SWAP2 DUP3 AND PUSH1 0x80 MSTORE AND PUSH1 0xA0 MSTORE PUSH1 0x2 DUP1 SLOAD PUSH1 0x1 PUSH1 0x1 PUSH1 0xA0 SHL SUB NOT AND CALLER OR SWAP1 SSTORE PUSH3 0x114 JUMP JUMPDEST DUP1 MLOAD PUSH1 0x1 PUSH1 0x1 PUSH1 0xA0 SHL SUB DUP2 AND DUP2 EQ PUSH3 0xD7 JUMPI PUSH1 0x0 DUP1 REVERT JUMPDEST SWAP2 SWAP1 POP JUMP JUMPDEST PUSH1 0x0 DUP1 PUSH1 0x40 DUP4 DUP6 SUB SLT ISZERO PUSH3 0xF0 JUMPI PUSH1 0x0 DUP1 REVERT JUMPDEST PUSH3 0xFB DUP4 PUSH3 0xBF JUMP JUMPDEST SWAP2 POP PUSH3 0x10B PUSH1 0x20 DUP5 ADD PUSH3 0xBF JUMP JUMPDEST SWAP1 POP SWAP3 POP SWAP3 SWAP1 POP JUMP JUMPDEST PUSH1 0x80 MLOAD PUSH1 0xA0 MLOAD PUSH2 0x166F PUSH3 0x156 PUSH1 0x0 CODECOPY PUSH1 0x0 DUP2 DUP2 PUSH2 0x2F0 ADD MSTORE PUSH2 0xD18 ADD MSTORE PUSH1 0x0 DUP2 DUP2 PUSH2 0x32F ADD MSTORE DUP2 DUP2 PUSH2 0x586 ADD MSTORE DUP2 DUP2 PUSH2 0xBE9 ADD MSTORE PUSH2 0xC5A ADD MSTORE PUSH2 0x166F PUSH1 0x0 RETURN INVALID PUSH1 0x80 PUSH1 0x40 MSTORE CALLVALUE DUP1 ISZERO PUSH2 0x10 JUMPI PUSH1 0x0 DUP1 REVERT JUMPDEST POP PUSH1 0x4 CALLDATASIZE LT PUSH2 0x1CF JUMPI PUSH1 0x0 CALLDATALOAD PUSH1 0xE0 SHR DUP1 PUSH4 0x64B4F751 GT PUSH2 0x104 JUMPI DUP1 PUSH4 0xB6635BE6 GT PUSH2 0xA2 JUMPI DUP1 PUSH4 0xCB4F51D1 GT PUSH2 0x71 JUMPI DUP1 PUSH4 0xCB4F51D1 EQ PUSH2 0x4DE JUMPI DUP1 PUSH4 0xD2C8E0E5 EQ PUSH2 0x4F1 JUMPI DUP1 PUSH4 0xD33219B4 EQ PUSH2 0x511 JUMPI DUP1 PUSH4 0xF851A440 EQ PUSH2 0x524 JUMPI PUSH1 0x0 DUP1 REVERT JUMPDEST DUP1 PUSH4 0xB6635BE6 EQ PUSH2 0x46E JUMPI DUP1 PUSH4 0xB8458282 EQ PUSH2 0x492 JUMPI DUP1 PUSH4 0xC3C5A547 EQ PUSH2 0x4A5 JUMPI DUP1 PUSH4 0xC6D83FCF EQ PUSH2 0x4D5 JUMPI PUSH1 0x0 DUP1 REVERT JUMPDEST DUP1 PUSH4 0x8565C2BF GT PUSH2 0xDE JUMPI DUP1 PUSH4 0x8565C2BF EQ PUSH2 0x437 JUMPI DUP1 PUSH4 0x8AEA8F71 EQ PUSH2 0x44A JUMPI DUP1 PUSH4 0x927416C0 EQ PUSH2 0x452 JUMPI DUP1 PUSH4 0xAA677354 EQ PUSH2 0x45B JUMPI PUSH1 0x0 DUP1 REVERT JUMPDEST DUP1 PUSH4 0x64B4F751 EQ PUSH2 0x3DF JUMPI DUP1 PUSH4 0x64DF8222 EQ PUSH2 0x3EE JUMPI DUP1 PUSH4 0x8000D991 EQ PUSH2 0x424 JUMPI PUSH1 0x0 DUP1 REVERT JUMPDEST DUP1 PUSH4 0x2F48AB7D GT PUSH2 0x171 JUMPI DUP1 PUSH4 0x519F1640 GT PUSH2 0x14B JUMPI DUP1 PUSH4 0x519F1640 EQ PUSH2 0x390 JUMPI DUP1 PUSH4 0x53AAA63B EQ PUSH2 0x3A3 JUMPI DUP1 PUSH4 0x55D28F20 EQ PUSH2 0x3C3 JUMPI DUP1 PUSH4 0x60C6D8AE EQ PUSH2 0x3D6 JUMPI PUSH1 0x0 DUP1 REVERT JUMPDEST DUP1 PUSH4 0x2F48AB7D EQ PUSH2 0x32A JUMPI DUP1 PUSH4 0x30131384 EQ PUSH2 0x351 JUMPI DUP1 PUSH4 0x4A9FEFC7 EQ PUSH2 0x364 JUMPI PUSH1 0x0 DUP1 REVERT JUMPDEST DUP1 PUSH4 0x1E97F48A GT PUSH2 0x1AD JUMPI DUP1 PUSH4 0x1E97F48A EQ PUSH2 0x28C JUMPI DUP1 PUSH4 0x1F791B69 EQ PUSH2 0x2AC JUMPI DUP1 PUSH4 0x2573912C EQ PUSH2 0x2D8 JUMPI DUP1 PUSH4 0x2ACFBCA3 EQ PUSH2 0x2EB JUMPI PUSH1 0x0 DUP1 REVERT JUMPDEST DUP1 PUSH4 0x5EAAB4B EQ PUSH2 0x1D4 JUMPI DUP1 PUSH4 0xB35D7D1 EQ PUSH2 0x1DE JUMPI DUP1 PUSH4 0x1959A002 EQ PUSH2 0x21C JUMPI JUMPDEST PUSH1 0x0 DUP1 REVERT JUMPDEST PUSH2 0x1DC PUSH2 0x537 JUMP JUMPDEST STOP JUMPDEST PUSH2 0x209 PUSH2 0x1EC CALLDATASIZE PUSH1 0x4 PUSH2 0x144E JUMP JUMPDEST PUSH1 0x6 PUSH1 0x20 SWAP1 DUP2 MSTORE PUSH1 0x0 SWAP3 DUP4 MSTORE PUSH1 0x40 DUP1 DUP5 KECCAK256 SWAP1 SWAP2 MSTORE SWAP1 DUP3 MSTORE SWAP1 KECCAK256 SLOAD DUP2 JUMP JUMPDEST PUSH1 0x40 MLOAD SWAP1 DUP2 MSTORE PUSH1 0x20 ADD JUMPDEST PUSH1 0x40 MLOAD DUP1 SWAP2 SUB SWAP1 RETURN JUMPDEST PUSH2 0x260 PUSH2 0x22A CALLDATASIZE PUSH1 0x4 PUSH2 0x1478 JUMP JUMPDEST PUSH1 0x4 PUSH1 0x20 DUP2 SWAP1 MSTORE PUSH1 0x0 SWAP2 DUP3 MSTORE PUSH1 0x40 SWAP1 SWAP2 KECCAK256 DUP1 SLOAD PUSH1 0x2 DUP3 ADD SLOAD PUSH1 0x3 DUP4 ADD SLOAD SWAP3 SWAP1 SWAP4 ADD SLOAD PUSH1 0x1 PUSH1 0x1 PUSH1 0xA0 SHL SUB SWAP1 SWAP2 AND SWAP3 SWAP2 SWAP1 PUSH1 0xFF AND DUP5 JUMP JUMPDEST PUSH1 0x40 DUP1 MLOAD PUSH1 0x1 PUSH1 0x1 PUSH1 0xA0 SHL SUB SWAP1 SWAP6 AND DUP6 MSTORE PUSH1 0x20 DUP6 ADD SWAP4 SWAP1 SWAP4 MSTORE SWAP2 DUP4 ADD MSTORE ISZERO ISZERO PUSH1 0x60 DUP3 ADD MSTORE PUSH1 0x80 ADD PUSH2 0x213 JUMP JUMPDEST PUSH2 0x29F PUSH2 0x29A CALLDATASIZE PUSH1 0x4 PUSH2 0x1478 JUMP JUMPDEST PUSH2 0x616 JUMP JUMPDEST PUSH1 0x40 MLOAD PUSH2 0x213 SWAP2 SWAP1 PUSH2 0x149A JUMP JUMPDEST PUSH2 0x209 PUSH2 0x2BA CALLDATASIZE PUSH1 0x4 PUSH2 0x1478 JUMP JUMPDEST PUSH1 0x1 PUSH1 0x1 PUSH1 0xA0 SHL SUB AND PUSH1 0x0 SWAP1 DUP2 MSTORE PUSH1 0x4 PUSH1 0x20 MSTORE PUSH1 0x40 SWAP1 KECCAK256 PUSH1 0x2 ADD SLOAD SWAP1 JUMP JUMPDEST PUSH2 0x1DC PUSH2 0x2E6 CALLDATASIZE PUSH1 0x4 PUSH2 0x1478 JUMP JUMPDEST PUSH2 0x6AE JUMP JUMPDEST PUSH2 0x312 PUSH32 0x0 DUP2 JUMP JUMPDEST PUSH1 0x40 MLOAD PUSH1 0x1 PUSH1 0x1 PUSH1 0xA0 SHL SUB SWAP1 SWAP2 AND DUP2 MSTORE PUSH1 0x20 ADD PUSH2 0x213 JUMP JUMPDEST PUSH2 0x312 PUSH32 0x0 DUP2 JUMP JUMPDEST PUSH1 0x0 SLOAD PUSH2 0x312 SWAP1 PUSH1 0x1 PUSH1 0x1 PUSH1 0xA0 SHL SUB AND DUP2 JUMP JUMPDEST PUSH2 0x312 PUSH2 0x372 CALLDATASIZE PUSH1 0x4 PUSH2 0x1478 JUMP JUMPDEST PUSH1 0x1 PUSH1 0x1 PUSH1 0xA0 SHL SUB SWAP1 DUP2 AND PUSH1 0x0 SWAP1 DUP2 MSTORE PUSH1 0x4 PUSH1 0x20 MSTORE PUSH1 0x40 SWAP1 KECCAK256 SLOAD AND SWAP1 JUMP JUMPDEST PUSH2 0x209 PUSH2 0x39E CALLDATASIZE PUSH1 0x4 PUSH2 0x1478 JUMP JUMPDEST PUSH2 0x7A7 JUMP JUMPDEST PUSH2 0x209 PUSH2 0x3B1 CALLDATASIZE PUSH1 0x4 PUSH2 0x1478 JUMP JUMPDEST PUSH1 0x5 PUSH1 0x20 MSTORE PUSH1 0x0 SWAP1 DUP2 MSTORE PUSH1 0x40 SWAP1 KECCAK256 SLOAD DUP2 JUMP JUMPDEST PUSH2 0x1DC PUSH2 0x3D1 CALLDATASIZE PUSH1 0x4 PUSH2 0x14CC JUMP JUMPDEST PUSH2 0x7BA JUMP JUMPDEST PUSH2 0x209 PUSH1 0x9 SLOAD DUP2 JUMP JUMPDEST PUSH2 0x209 PUSH8 0xDE0B6B3A7640000 DUP2 JUMP JUMPDEST PUSH2 0x209 PUSH2 0x3FC CALLDATASIZE PUSH1 0x4 PUSH2 0x144E JUMP JUMPDEST PUSH1 0x1 PUSH1 0x1 PUSH1 0xA0 SHL SUB SWAP2 SWAP1 SWAP2 AND PUSH1 0x0 SWAP1 DUP2 MSTORE PUSH1 0x6 PUSH1 0x20 SWAP1 DUP2 MSTORE PUSH1 0x40 DUP1 DUP4 KECCAK256 SWAP4 DUP4 MSTORE SWAP3 SWAP1 MSTORE KECCAK256 SLOAD SWAP1 JUMP JUMPDEST PUSH2 0x1DC PUSH2 0x432 CALLDATASIZE PUSH1 0x4 PUSH2 0x144E JUMP JUMPDEST PUSH2 0x84F JUMP JUMPDEST PUSH1 0x1 SLOAD PUSH2 0x312 SWAP1 PUSH1 0x1 PUSH1 0x1 PUSH1 0xA0 SHL SUB AND DUP2 JUMP JUMPDEST PUSH2 0x1DC PUSH2 0xA77 JUMP JUMPDEST PUSH2 0x209 PUSH1 0x7 SLOAD DUP2 JUMP JUMPDEST PUSH2 0x1DC PUSH2 0x469 CALLDATASIZE PUSH1 0x4 PUSH2 0x150F JUMP JUMPDEST PUSH2 0xAF2 JUMP JUMPDEST PUSH1 0x3 SLOAD PUSH2 0x482 SWAP1 PUSH1 0x1 PUSH1 0xA0 SHL SWAP1 DIV PUSH1 0xFF AND DUP2 JUMP JUMPDEST PUSH1 0x40 MLOAD SWAP1 ISZERO ISZERO DUP2 MSTORE PUSH1 0x20 ADD PUSH2 0x213 JUMP JUMPDEST PUSH2 0x209 PUSH2 0x4A0 CALLDATASIZE PUSH1 0x4 PUSH2 0x1478 JUMP JUMPDEST PUSH2 0xE72 JUMP JUMPDEST PUSH2 0x482 PUSH2 0x4B3 CALLDATASIZE PUSH1 0x4 PUSH2 0x1478 JUMP JUMPDEST PUSH1 0x1 PUSH1 0x1 PUSH1 0xA0 SHL SUB AND PUSH1 0x0 SWAP1 DUP2 MSTORE PUSH1 0x4 PUSH1 0x20 DUP2 SWAP1 MSTORE PUSH1 0x40 SWAP1 SWAP2 KECCAK256 ADD SLOAD PUSH1 0xFF AND SWAP1 JUMP JUMPDEST PUSH2 0x209 PUSH1 0x8 SLOAD DUP2 JUMP JUMPDEST PUSH2 0x1DC PUSH2 0x4EC CALLDATASIZE PUSH1 0x4 PUSH2 0x1478 JUMP JUMPDEST PUSH2 0xE7D JUMP JUMPDEST PUSH2 0x504 PUSH2 0x4FF CALLDATASIZE PUSH1 0x4 PUSH2 0x1478 JUMP JUMPDEST PUSH2 0xECA JUMP JUMPDEST PUSH1 0x40 MLOAD PUSH2 0x213 SWAP2 SWAP1 PUSH2 0x1542 JUMP JUMPDEST PUSH1 0x3 SLOAD PUSH2 0x312 SWAP1 PUSH1 0x1 PUSH1 0x1 PUSH1 0xA0 SHL SUB AND DUP2 JUMP JUMPDEST PUSH1 0x2 SLOAD PUSH2 0x312 SWAP1 PUSH1 0x1 PUSH1 0x1 PUSH1 0xA0 SHL SUB AND DUP2 JUMP JUMPDEST PUSH2 0x53F PUSH2 0xF43 JUMP JUMPDEST CALLER PUSH1 0x0 SWAP1 DUP2 MSTORE PUSH1 0x5 PUSH1 0x20 MSTORE PUSH1 0x40 DUP2 KECCAK256 SLOAD SWAP1 DUP2 SWAP1 SUB PUSH2 0x570 JUMPI PUSH1 0x40 MLOAD PUSH4 0x12D37EE5 PUSH1 0xE3 SHL DUP2 MSTORE PUSH1 0x4 ADD PUSH1 0x40 MLOAD DUP1 SWAP2 SUB SWAP1 REVERT JUMPDEST CALLER PUSH1 0x0 DUP2 DUP2 MSTORE PUSH1 0x5 PUSH1 0x20 MSTORE PUSH1 0x40 DUP2 KECCAK256 SSTORE PUSH2 0x5B5 SWAP1 PUSH32 0x0 PUSH1 0x1 PUSH1 0x1 PUSH1 0xA0 SHL SUB AND SWAP1 DUP4 PUSH2 0xF71 JUMP JUMPDEST PUSH1 0x40 MLOAD DUP2 DUP2 MSTORE CALLER SWAP1 PUSH32 0x98741ECF35C5D20A8ED68DBD8540500684864A6C98C2A41A5844D0B3A2357D43 SWAP1 PUSH1 0x20 ADD PUSH1 0x40 MLOAD DUP1 SWAP2 SUB SWAP1 LOG2 POP PUSH2 0x614 PUSH1 0x1 PUSH32 0x9B779B17422D0DF92223018B32B4D1FA46E071723D6817E2486D003BECC55F00 SSTORE JUMP JUMPDEST JUMP JUMPDEST PUSH2 0x61E PUSH2 0x1413 JUMP JUMPDEST PUSH2 0x626 PUSH2 0x1413 JUMP JUMPDEST PUSH1 0x1 JUMPDEST PUSH1 0x14 DUP2 GT PUSH2 0x6A7 JUMPI PUSH1 0x1 PUSH1 0x1 PUSH1 0xA0 SHL SUB DUP5 AND PUSH1 0x0 SWAP1 DUP2 MSTORE PUSH1 0x6 PUSH1 0x20 SWAP1 DUP2 MSTORE PUSH1 0x40 DUP1 DUP4 KECCAK256 DUP5 DUP5 MSTORE SWAP1 SWAP2 MSTORE SWAP1 KECCAK256 SLOAD DUP3 DUP3 PUSH1 0x15 DUP2 LT PUSH2 0x667 JUMPI PUSH2 0x667 PUSH2 0x158F JUMP JUMPDEST PUSH1 0x20 MUL ADD MSTORE DUP2 DUP2 PUSH1 0x15 DUP2 LT PUSH2 0x67E JUMPI PUSH2 0x67E PUSH2 0x158F JUMP JUMPDEST PUSH1 0x20 MUL ADD MLOAD DUP3 MLOAD DUP4 SWAP1 PUSH2 0x692 SWAP1 DUP4 SWAP1 PUSH2 0x15BB JUMP JUMPDEST SWAP1 MSTORE POP DUP1 PUSH2 0x69F DUP2 PUSH2 0x15CE JUMP JUMPDEST SWAP2 POP POP PUSH2 0x629 JUMP JUMPDEST POP SWAP3 SWAP2 POP POP JUMP JUMPDEST PUSH1 0x1 PUSH1 0x1 PUSH1 0xA0 SHL SUB DUP2 AND PUSH1 0x0 SWAP1 DUP2 MSTORE PUSH1 0x4 PUSH1 0x20 DUP2 SWAP1 MSTORE PUSH1 0x40 SWAP1 SWAP2 KECCAK256 ADD SLOAD PUSH1 0xFF AND PUSH2 0x6D5 JUMPI POP JUMP JUMPDEST PUSH1 0x0 PUSH2 0x6E0 DUP3 PUSH2 0xFAB JUMP JUMPDEST SWAP1 POP PUSH1 0x0 PUSH2 0x6ED DUP3 PUSH2 0x10B5 JUMP JUMPDEST PUSH1 0x1 PUSH1 0x1 PUSH1 0xA0 SHL SUB DUP5 AND PUSH1 0x0 SWAP1 DUP2 MSTORE PUSH1 0x4 PUSH1 0x20 MSTORE PUSH1 0x40 SWAP1 KECCAK256 PUSH1 0x2 ADD SLOAD SWAP1 SWAP2 POP DUP2 GT ISZERO PUSH2 0x7A2 JUMPI PUSH1 0x1 PUSH1 0x1 PUSH1 0xA0 SHL SUB DUP4 AND PUSH1 0x0 SWAP1 DUP2 MSTORE PUSH1 0x4 PUSH1 0x20 MSTORE PUSH1 0x40 DUP2 KECCAK256 PUSH1 0x2 ADD DUP1 SLOAD SWAP1 DUP4 SWAP1 SSTORE SWAP1 PUSH2 0x740 DUP3 PUSH1 0x1 PUSH2 0x15BB JUMP JUMPDEST SWAP1 POP JUMPDEST DUP3 DUP2 GT PUSH2 0x79F JUMPI DUP5 PUSH1 0x1 PUSH1 0x1 PUSH1 0xA0 SHL SUB AND PUSH32 0x84D80AC1B703449F5931DAA49AA5AD902F79624E20313DB57074F53C5ACA341 DUP3 PUSH1 0x40 MLOAD PUSH2 0x785 SWAP2 DUP2 MSTORE PUSH1 0x20 ADD SWAP1 JUMP JUMPDEST PUSH1 0x40 MLOAD DUP1 SWAP2 SUB SWAP1 LOG2 DUP1 PUSH2 0x797 DUP2 PUSH2 0x15CE JUMP JUMPDEST SWAP2 POP POP PUSH2 0x743 JUMP JUMPDEST POP POP JUMPDEST POP POP POP JUMP JUMPDEST PUSH1 0x0 PUSH2 0x7B4 DUP3 PUSH1 0x0 PUSH2 0x110F JUMP JUMPDEST SWAP3 SWAP2 POP POP JUMP JUMPDEST PUSH1 0x2 SLOAD PUSH1 0x1 PUSH1 0x1 PUSH1 0xA0 SHL SUB AND CALLER EQ PUSH2 0x7E5 JUMPI PUSH1 0x40 MLOAD PUSH4 0x47556579 PUSH1 0xE0 SHL DUP2 MSTORE PUSH1 0x4 ADD PUSH1 0x40 MLOAD DUP1 SWAP2 SUB SWAP1 REVERT JUMPDEST PUSH1 0x3 SLOAD PUSH1 0x1 PUSH1 0xA0 SHL SWAP1 DIV PUSH1 0xFF AND ISZERO PUSH2 0x810 JUMPI PUSH1 0x40 MLOAD PUSH4 0x238F75D3 PUSH1 0xE0 SHL DUP2 MSTORE PUSH1 0x4 ADD PUSH1 0x40 MLOAD DUP1 SWAP2 SUB SWAP1 REVERT JUMPDEST PUSH1 0x0 DUP1 SLOAD PUSH1 0x1 PUSH1 0x1 PUSH1 0xA0 SHL SUB SWAP5 DUP6 AND PUSH1 0x1 PUSH1 0x1 PUSH1 0xA0 SHL SUB NOT SWAP2 DUP3 AND OR SWAP1 SWAP2 SSTORE PUSH1 0x1 DUP1 SLOAD SWAP4 DUP6 AND SWAP4 DUP3 AND SWAP4 SWAP1 SWAP4 OR SWAP1 SWAP3 SSTORE PUSH1 0x3 DUP1 SLOAD SWAP2 SWAP1 SWAP4 AND SWAP2 AND OR SWAP1 SSTORE JUMP JUMPDEST DUP1 PUSH1 0x0 SUB PUSH2 0x85B JUMPI POP POP JUMP JUMPDEST DUP2 PUSH1 0x1 JUMPDEST PUSH1 0x14 DUP2 GT PUSH2 0xA71 JUMPI PUSH1 0x1 PUSH1 0x1 PUSH1 0xA0 SHL SUB DUP1 DUP4 AND PUSH1 0x0 SWAP1 DUP2 MSTORE PUSH1 0x4 PUSH1 0x20 MSTORE PUSH1 0x40 SWAP1 KECCAK256 SLOAD AND DUP1 PUSH2 0x88D JUMPI POP PUSH2 0xA71 JUMP JUMPDEST PUSH1 0x1 PUSH1 0x1 PUSH1 0xA0 SHL SUB DUP2 AND PUSH1 0x0 SWAP1 DUP2 MSTORE PUSH1 0x4 PUSH1 0x20 MSTORE PUSH1 0x40 SWAP1 KECCAK256 PUSH1 0x2 ADD SLOAD DUP3 GT PUSH2 0xA5D JUMPI PUSH1 0x0 PUSH2 0x8BA DUP4 PUSH2 0x11A1 JUMP JUMPDEST SWAP1 POP PUSH1 0x0 PUSH2 0x2710 PUSH2 0x8CB DUP4 DUP9 PUSH2 0x15E7 JUMP JUMPDEST PUSH2 0x8D5 SWAP2 SWAP1 PUSH2 0x15FE JUMP JUMPDEST SWAP1 POP DUP1 ISZERO PUSH2 0xA5A JUMPI PUSH1 0x1 PUSH1 0x1 PUSH1 0xA0 SHL SUB DUP4 AND PUSH1 0x0 SWAP1 DUP2 MSTORE PUSH1 0x5 PUSH1 0x20 MSTORE PUSH1 0x40 DUP2 KECCAK256 DUP1 SLOAD DUP4 SWAP3 SWAP1 PUSH2 0x905 SWAP1 DUP5 SWAP1 PUSH2 0x15BB JUMP JUMPDEST SWAP1 SWAP2 SSTORE POP POP PUSH1 0x1 PUSH1 0x1 PUSH1 0xA0 SHL SUB DUP4 AND PUSH1 0x0 SWAP1 DUP2 MSTORE PUSH1 0x6 PUSH1 0x20 SWAP1 DUP2 MSTORE PUSH1 0x40 DUP1 DUP4 KECCAK256 DUP8 DUP5 MSTORE SWAP1 SWAP2 MSTORE DUP2 KECCAK256 DUP1 SLOAD DUP4 SWAP3 SWAP1 PUSH2 0x93D SWAP1 DUP5 SWAP1 PUSH2 0x15BB JUMP JUMPDEST SWAP1 SWAP2 SSTORE POP POP PUSH1 0x1 PUSH1 0x1 PUSH1 0xA0 SHL SUB DUP4 AND PUSH1 0x0 SWAP1 DUP2 MSTORE PUSH1 0x4 PUSH1 0x20 MSTORE PUSH1 0x40 DUP2 KECCAK256 PUSH1 0x3 ADD DUP1 SLOAD DUP4 SWAP3 SWAP1 PUSH2 0x96D SWAP1 DUP5 SWAP1 PUSH2 0x15BB JUMP JUMPDEST SWAP3 POP POP DUP2 SWAP1 SSTORE POP DUP1 PUSH1 0x8 PUSH1 0x0 DUP3 DUP3 SLOAD PUSH2 0x986 SWAP2 SWAP1 PUSH2 0x15BB JUMP JUMPDEST SWAP1 SWAP2 SSTORE POP POP PUSH1 0x0 SLOAD PUSH1 0x1 PUSH1 0x1 PUSH1 0xA0 SHL SUB AND ISZERO PUSH2 0xA03 JUMPI PUSH1 0x0 SLOAD PUSH1 0x40 MLOAD PUSH4 0x35CFBD5B PUSH1 0xE1 SHL DUP2 MSTORE PUSH1 0x1 PUSH1 0x1 PUSH1 0xA0 SHL SUB DUP6 DUP2 AND PUSH1 0x4 DUP4 ADD MSTORE PUSH1 0x24 DUP3 ADD DUP5 SWAP1 MSTORE SWAP1 SWAP2 AND SWAP1 PUSH4 0x6B9F7AB6 SWAP1 PUSH1 0x44 ADD PUSH1 0x0 PUSH1 0x40 MLOAD DUP1 DUP4 SUB DUP2 PUSH1 0x0 DUP8 DUP1 EXTCODESIZE ISZERO DUP1 ISZERO PUSH2 0x9EA JUMPI PUSH1 0x0 DUP1 REVERT JUMPDEST POP GAS CALL ISZERO DUP1 ISZERO PUSH2 0x9FE JUMPI RETURNDATASIZE PUSH1 0x0 DUP1 RETURNDATACOPY RETURNDATASIZE PUSH1 0x0 REVERT JUMPDEST POP POP POP POP JUMPDEST DUP7 PUSH1 0x1 PUSH1 0x1 PUSH1 0xA0 SHL SUB AND DUP4 PUSH1 0x1 PUSH1 0x1 PUSH1 0xA0 SHL SUB AND PUSH32 0x65DB98422E8B7340E0D6DFA99BBADD4BA95A51FEFAFD8F0E1CBBB2E819429A42 DUP7 DUP5 PUSH1 0x40 MLOAD PUSH2 0xA51 SWAP3 SWAP2 SWAP1 SWAP2 DUP3 MSTORE PUSH1 0x20 DUP3 ADD MSTORE PUSH1 0x40 ADD SWAP1 JUMP JUMPDEST PUSH1 0x40 MLOAD DUP1 SWAP2 SUB SWAP1 LOG3 JUMPDEST POP POP JUMPDEST SWAP2 POP DUP1 PUSH2 0xA69 DUP2 PUSH2 0x15CE JUMP JUMPDEST SWAP2 POP POP PUSH2 0x85F JUMP JUMPDEST POP POP POP POP JUMP JUMPDEST PUSH1 0x2 SLOAD PUSH1 0x1 PUSH1 0x1 PUSH1 0xA0 SHL SUB AND CALLER EQ PUSH2 0xAA2 JUMPI PUSH1 0x40 MLOAD PUSH4 0x47556579 PUSH1 0xE0 SHL DUP2 MSTORE PUSH1 0x4 ADD PUSH1 0x40 MLOAD DUP1 SWAP2 SUB SWAP1 REVERT JUMPDEST PUSH1 0x3 SLOAD PUSH1 0x1 PUSH1 0xA0 SHL SWAP1 DIV PUSH1 0xFF AND ISZERO PUSH2 0xACD JUMPI PUSH1 0x40 MLOAD PUSH4 0x238F75D3 PUSH1 0xE0 SHL DUP2 MSTORE PUSH1 0x4 ADD PUSH1 0x40 MLOAD DUP1 SWAP2 SUB SWAP1 REVERT JUMPDEST PUSH1 0x3 DUP1 SLOAD PUSH1 0xFF PUSH1 0xA0 SHL NOT AND PUSH1 0x1 PUSH1 0xA0 SHL OR SWAP1 SSTORE PUSH1 0x2 DUP1 SLOAD PUSH1 0x1 PUSH1 0x1 PUSH1 0xA0 SHL SUB NOT AND SWAP1 SSTORE JUMP JUMPDEST PUSH1 0x1 PUSH1 0x1 PUSH1 0xA0 SHL SUB DUP3 AND PUSH2 0xB19 JUMPI PUSH1 0x40 MLOAD PUSH4 0xD92E233D PUSH1 0xE0 SHL DUP2 MSTORE PUSH1 0x4 ADD PUSH1 0x40 MLOAD DUP1 SWAP2 SUB SWAP1 REVERT JUMPDEST PUSH1 0x1 PUSH1 0x1 PUSH1 0xA0 SHL SUB DUP3 AND PUSH1 0x0 SWAP1 DUP2 MSTORE PUSH1 0x4 PUSH1 0x20 DUP2 SWAP1 MSTORE PUSH1 0x40 SWAP1 SWAP2 KECCAK256 ADD SLOAD PUSH1 0xFF AND ISZERO PUSH2 0xB57 JUMPI PUSH1 0x40 MLOAD PUSH4 0xEA075BF PUSH1 0xE2 SHL DUP2 MSTORE PUSH1 0x4 ADD PUSH1 0x40 MLOAD DUP1 SWAP2 SUB SWAP1 REVERT JUMPDEST DUP1 PUSH1 0x1 PUSH1 0x1 PUSH1 0xA0 SHL SUB AND DUP3 PUSH1 0x1 PUSH1 0x1 PUSH1 0xA0 SHL SUB AND SUB PUSH2 0xB89 JUMPI PUSH1 0x40 MLOAD PUSH4 0x2AF47B87 PUSH1 0xE1 SHL DUP2 MSTORE PUSH1 0x4 ADD PUSH1 0x40 MLOAD DUP1 SWAP2 SUB SWAP1 REVERT JUMPDEST PUSH1 0x1 PUSH1 0x1 PUSH1 0xA0 SHL SUB DUP2 AND ISZERO DUP1 ISZERO SWAP1 PUSH2 0xBBE JUMPI POP PUSH1 0x1 PUSH1 0x1 PUSH1 0xA0 SHL SUB DUP2 AND PUSH1 0x0 SWAP1 DUP2 MSTORE PUSH1 0x4 PUSH1 0x20 DUP2 SWAP1 MSTORE PUSH1 0x40 SWAP1 SWAP2 KECCAK256 ADD SLOAD PUSH1 0xFF AND ISZERO JUMPDEST ISZERO PUSH2 0xBDC JUMPI PUSH1 0x40 MLOAD PUSH4 0xC220845 PUSH1 0xE3 SHL DUP2 MSTORE PUSH1 0x4 ADD PUSH1 0x40 MLOAD DUP1 SWAP2 SUB SWAP1 REVERT JUMPDEST PUSH2 0xC19 PUSH1 0x1 PUSH1 0x1 PUSH1 0xA0 SHL SUB PUSH32 0x0 AND DUP4 ADDRESS PUSH8 0xDE0B6B3A7640000 PUSH2 0x1222 JUMP JUMPDEST PUSH8 0xDE0B6B3A7640000 PUSH1 0x9 PUSH1 0x0 DUP3 DUP3 SLOAD PUSH2 0xC33 SWAP2 SWAP1 PUSH2 0x15BB JUMP JUMPDEST SWAP1 SWAP2 SSTORE POP POP PUSH1 0x1 SLOAD PUSH1 0x1 PUSH1 0x1 PUSH1 0xA0 SHL SUB AND ISZERO PUSH2 0xD90 JUMPI PUSH1 0x1 SLOAD PUSH2 0xC8B SWAP1 PUSH1 0x1 PUSH1 0x1 PUSH1 0xA0 SHL SUB PUSH32 0x0 DUP2 AND SWAP2 AND PUSH8 0xDE0B6B3A7640000 PUSH2 0x1258 JUMP JUMPDEST PUSH1 0x1 SLOAD PUSH1 0x40 MLOAD PUSH4 0xC2C90687 PUSH1 0xE0 SHL DUP2 MSTORE PUSH8 0xDE0B6B3A7640000 PUSH1 0x4 DUP3 ADD MSTORE PUSH1 0x0 PUSH1 0x24 DUP3 ADD MSTORE PUSH1 0x1 PUSH1 0x1 PUSH1 0xA0 SHL SUB SWAP1 SWAP2 AND SWAP1 PUSH4 0xC2C90687 SWAP1 PUSH1 0x44 ADD PUSH1 0x20 PUSH1 0x40 MLOAD DUP1 DUP4 SUB DUP2 PUSH1 0x0 DUP8 GAS CALL SWAP3 POP POP POP DUP1 ISZERO PUSH2 0xD00 JUMPI POP PUSH1 0x40 DUP1 MLOAD PUSH1 0x1F RETURNDATASIZE SWAP1 DUP2 ADD PUSH1 0x1F NOT AND DUP3 ADD SWAP1 SWAP3 MSTORE PUSH2 0xCFD SWAP2 DUP2 ADD SWAP1 PUSH2 0x1620 JUMP JUMPDEST PUSH1 0x1 JUMPDEST ISZERO PUSH2 0xD90 JUMPI DUP1 ISZERO PUSH2 0xD8E JUMPI PUSH2 0xD41 PUSH1 0x1 PUSH1 0x1 PUSH1 0xA0 SHL SUB PUSH32 0x0 AND PUSH2 0xDEAD DUP4 PUSH2 0xF71 JUMP JUMPDEST PUSH1 0x40 DUP1 MLOAD PUSH8 0xDE0B6B3A7640000 DUP2 MSTORE PUSH1 0x20 DUP2 ADD DUP4 SWAP1 MSTORE PUSH1 0x1 PUSH1 0x1 PUSH1 0xA0 SHL SUB DUP6 AND SWAP2 PUSH32 0x285CF258850FF8CF5D55EC19E46476D4E3D5209972F80A7880A38AC7011E7023 SWAP2 ADD PUSH1 0x40 MLOAD DUP1 SWAP2 SUB SWAP1 LOG2 JUMPDEST POP JUMPDEST PUSH1 0x1 PUSH1 0x1 PUSH1 0xA0 SHL SUB DUP1 DUP4 AND PUSH1 0x0 SWAP1 DUP2 MSTORE PUSH1 0x4 PUSH1 0x20 DUP2 SWAP1 MSTORE PUSH1 0x40 DUP3 KECCAK256 SWAP1 DUP2 ADD DUP1 SLOAD PUSH1 0xFF NOT AND PUSH1 0x1 OR SWAP1 SSTORE DUP1 SLOAD SWAP3 DUP5 AND PUSH1 0x1 PUSH1 0x1 PUSH1 0xA0 SHL SUB NOT SWAP1 SWAP4 AND DUP4 OR DUP2 SSTORE PUSH1 0x2 ADD SSTORE ISZERO PUSH2 0xE19 JUMPI PUSH1 0x1 PUSH1 0x1 PUSH1 0xA0 SHL SUB DUP2 DUP2 AND PUSH1 0x0 SWAP1 DUP2 MSTORE PUSH1 0x4 PUSH1 0x20 SWAP1 DUP2 MSTORE PUSH1 0x40 DUP3 KECCAK256 PUSH1 0x1 SWAP1 DUP2 ADD DUP1 SLOAD SWAP2 DUP3 ADD DUP2 SSTORE DUP4 MSTORE SWAP2 KECCAK256 ADD DUP1 SLOAD PUSH1 0x1 PUSH1 0x1 PUSH1 0xA0 SHL SUB NOT AND SWAP2 DUP5 AND SWAP2 SWAP1 SWAP2 OR SWAP1 SSTORE JUMPDEST PUSH1 0x7 DUP1 SLOAD SWAP1 PUSH1 0x0 PUSH2 0xE29 DUP4 PUSH2 0x15CE JUMP JUMPDEST SWAP2 SWAP1 POP SSTORE POP DUP1 PUSH1 0x1 PUSH1 0x1 PUSH1 0xA0 SHL SUB AND DUP3 PUSH1 0x1 PUSH1 0x1 PUSH1 0xA0 SHL SUB AND PUSH32 0x2138B9314634F9FDD5E49BEE3EAF17CA557B6637524D0DB759711C3BFCD3D850 PUSH1 0x40 MLOAD PUSH1 0x40 MLOAD DUP1 SWAP2 SUB SWAP1 LOG3 POP POP JUMP JUMPDEST PUSH1 0x0 PUSH2 0x7B4 DUP3 PUSH2 0xFAB JUMP JUMPDEST PUSH1 0x3 SLOAD PUSH1 0x1 PUSH1 0x1 PUSH1 0xA0 SHL SUB AND CALLER EQ PUSH2 0xEA8 JUMPI PUSH1 0x40 MLOAD PUSH4 0xE05F485 PUSH1 0xE1 SHL DUP2 MSTORE PUSH1 0x4 ADD PUSH1 0x40 MLOAD DUP1 SWAP2 SUB SWAP1 REVERT JUMPDEST PUSH1 0x0 DUP1 SLOAD PUSH1 0x1 PUSH1 0x1 PUSH1 0xA0 SHL SUB NOT AND PUSH1 0x1 PUSH1 0x1 PUSH1 0xA0 SHL SUB SWAP3 SWAP1 SWAP3 AND SWAP2 SWAP1 SWAP2 OR SWAP1 SSTORE JUMP JUMPDEST PUSH1 0x1 PUSH1 0x1 PUSH1 0xA0 SHL SUB DUP2 AND PUSH1 0x0 SWAP1 DUP2 MSTORE PUSH1 0x4 PUSH1 0x20 SWAP1 DUP2 MSTORE PUSH1 0x40 SWAP2 DUP3 SWAP1 KECCAK256 PUSH1 0x1 ADD DUP1 SLOAD DUP4 MLOAD DUP2 DUP5 MUL DUP2 ADD DUP5 ADD SWAP1 SWAP5 MSTORE DUP1 DUP5 MSTORE PUSH1 0x60 SWAP4 SWAP3 DUP4 ADD DUP3 DUP3 DUP1 ISZERO PUSH2 0xF37 JUMPI PUSH1 0x20 MUL DUP3 ADD SWAP2 SWAP1 PUSH1 0x0 MSTORE PUSH1 0x20 PUSH1 0x0 KECCAK256 SWAP1 JUMPDEST DUP2 SLOAD PUSH1 0x1 PUSH1 0x1 PUSH1 0xA0 SHL SUB AND DUP2 MSTORE PUSH1 0x1 SWAP1 SWAP2 ADD SWAP1 PUSH1 0x20 ADD DUP1 DUP4 GT PUSH2 0xF19 JUMPI JUMPDEST POP POP POP POP POP SWAP1 POP SWAP2 SWAP1 POP JUMP JUMPDEST PUSH2 0xF4B PUSH2 0x12AC JUMP JUMPDEST PUSH1 0x2 PUSH32 0x9B779B17422D0DF92223018B32B4D1FA46E071723D6817E2486D003BECC55F00 SSTORE JUMP JUMPDEST PUSH2 0xF7E DUP4 DUP4 DUP4 PUSH1 0x1 PUSH2 0x12EE JUMP JUMPDEST PUSH2 0x7A2 JUMPI PUSH1 0x40 MLOAD PUSH4 0x5274AFE7 PUSH1 0xE0 SHL DUP2 MSTORE PUSH1 0x1 PUSH1 0x1 PUSH1 0xA0 SHL SUB DUP5 AND PUSH1 0x4 DUP3 ADD MSTORE PUSH1 0x24 ADD JUMPDEST PUSH1 0x40 MLOAD DUP1 SWAP2 SUB SWAP1 REVERT JUMPDEST PUSH1 0x1 PUSH1 0x1 PUSH1 0xA0 SHL SUB DUP2 AND PUSH1 0x0 SWAP1 DUP2 MSTORE PUSH1 0x4 PUSH1 0x20 MSTORE PUSH1 0x40 DUP2 KECCAK256 DUP2 SWAP1 PUSH1 0x1 ADD DUP2 JUMPDEST DUP2 SLOAD DUP2 LT ISZERO PUSH2 0x10AC JUMPI PUSH1 0x0 SLOAD PUSH1 0x1 PUSH1 0x1 PUSH1 0xA0 SHL SUB AND ISZERO PUSH2 0x10A4 JUMPI PUSH1 0x0 DUP1 SLOAD DUP4 SLOAD PUSH1 0x1 PUSH1 0x1 PUSH1 0xA0 SHL SUB SWAP1 SWAP2 AND SWAP1 PUSH4 0x142A3DA3 SWAP1 DUP6 SWAP1 DUP6 SWAP1 DUP2 LT PUSH2 0x100E JUMPI PUSH2 0x100E PUSH2 0x158F JUMP JUMPDEST PUSH1 0x0 SWAP2 DUP3 MSTORE PUSH1 0x20 SWAP1 SWAP2 KECCAK256 ADD SLOAD PUSH1 0x40 MLOAD PUSH1 0xE0 DUP4 SWAP1 SHL PUSH1 0x1 PUSH1 0x1 PUSH1 0xE0 SHL SUB NOT AND DUP2 MSTORE PUSH1 0x1 PUSH1 0x1 PUSH1 0xA0 SHL SUB SWAP1 SWAP2 AND PUSH1 0x4 DUP3 ADD MSTORE PUSH1 0x24 ADD PUSH1 0x20 PUSH1 0x40 MLOAD DUP1 DUP4 SUB DUP2 DUP7 GAS STATICCALL ISZERO DUP1 ISZERO PUSH2 0x105E JUMPI RETURNDATASIZE PUSH1 0x0 DUP1 RETURNDATACOPY RETURNDATASIZE PUSH1 0x0 REVERT JUMPDEST POP POP POP POP PUSH1 0x40 MLOAD RETURNDATASIZE PUSH1 0x1F NOT PUSH1 0x1F DUP3 ADD AND DUP3 ADD DUP1 PUSH1 0x40 MSTORE POP DUP2 ADD SWAP1 PUSH2 0x1082 SWAP2 SWAP1 PUSH2 0x1620 JUMP JUMPDEST SWAP1 POP PUSH9 0x56BC75E2D63100000 DUP2 LT PUSH2 0x10A2 JUMPI DUP4 PUSH2 0x109E DUP2 PUSH2 0x15CE JUMP JUMPDEST SWAP5 POP POP JUMPDEST POP JUMPDEST PUSH1 0x1 ADD PUSH2 0xFCA JUMP JUMPDEST POP SWAP1 SWAP4 SWAP3 POP POP POP JUMP JUMPDEST PUSH1 0x0 PUSH1 0x7 DUP3 LT PUSH2 0x10C7 JUMPI POP PUSH1 0x14 SWAP2 SWAP1 POP JUMP JUMPDEST PUSH1 0x5 DUP3 LT PUSH2 0x10D7 JUMPI POP PUSH1 0x10 SWAP2 SWAP1 POP JUMP JUMPDEST PUSH1 0x3 DUP3 LT PUSH2 0x10E7 JUMPI POP PUSH1 0xC SWAP2 SWAP1 POP JUMP JUMPDEST PUSH1 0x2 DUP3 LT PUSH2 0x10F7 JUMPI POP PUSH1 0x8 SWAP2 SWAP1 POP JUMP JUMPDEST PUSH1 0x1 DUP3 LT PUSH2 0x1107 JUMPI POP PUSH1 0x3 SWAP2 SWAP1 POP JUMP JUMPDEST POP PUSH1 0x0 SWAP2 SWAP1 POP JUMP JUMPDEST PUSH1 0x0 PUSH1 0x14 DUP3 LT PUSH2 0x1121 JUMPI POP PUSH1 0x0 PUSH2 0x7B4 JUMP JUMPDEST PUSH1 0x1 PUSH1 0x1 PUSH1 0xA0 SHL SUB DUP4 AND PUSH1 0x0 SWAP1 DUP2 MSTORE PUSH1 0x4 PUSH1 0x20 MSTORE PUSH1 0x40 DUP2 KECCAK256 PUSH1 0x1 ADD DUP1 SLOAD SWAP1 SWAP2 JUMPDEST DUP3 SLOAD DUP2 LT ISZERO PUSH2 0x1198 JUMPI PUSH2 0x1184 DUP4 DUP3 DUP2 SLOAD DUP2 LT PUSH2 0x115F JUMPI PUSH2 0x115F PUSH2 0x158F JUMP JUMPDEST PUSH1 0x0 SWAP2 DUP3 MSTORE PUSH1 0x20 SWAP1 SWAP2 KECCAK256 ADD SLOAD PUSH1 0x1 PUSH1 0x1 PUSH1 0xA0 SHL SUB AND PUSH2 0x117F DUP8 PUSH1 0x1 PUSH2 0x15BB JUMP JUMPDEST PUSH2 0x110F JUMP JUMPDEST PUSH2 0x118E SWAP1 DUP4 PUSH2 0x15BB JUMP JUMPDEST SWAP2 POP PUSH1 0x1 ADD PUSH2 0x1141 JUMP JUMPDEST POP SWAP5 SWAP4 POP POP POP POP JUMP JUMPDEST PUSH1 0x0 DUP2 PUSH1 0x1 SUB PUSH2 0x11B4 JUMPI POP PUSH2 0xBB8 SWAP2 SWAP1 POP JUMP JUMPDEST DUP2 PUSH1 0x2 SUB PUSH2 0x11C5 JUMPI POP PUSH2 0x7D0 SWAP2 SWAP1 POP JUMP JUMPDEST PUSH1 0x3 DUP3 LT ISZERO DUP1 ISZERO PUSH2 0x11D7 JUMPI POP PUSH1 0xA DUP3 GT ISZERO JUMPDEST ISZERO PUSH2 0x11E4 JUMPI POP PUSH1 0x64 SWAP2 SWAP1 POP JUMP JUMPDEST PUSH1 0xB DUP3 LT ISZERO DUP1 ISZERO PUSH2 0x11F6 JUMPI POP PUSH1 0xF DUP3 GT ISZERO JUMPDEST ISZERO PUSH2 0x1203 JUMPI POP PUSH1 0x32 SWAP2 SWAP1 POP JUMP JUMPDEST PUSH1 0x10 DUP3 LT ISZERO DUP1 ISZERO PUSH2 0x1215 JUMPI POP PUSH1 0x14 DUP3 GT ISZERO JUMPDEST ISZERO PUSH2 0x1107 JUMPI POP PUSH1 0x19 SWAP2 SWAP1 POP JUMP JUMPDEST PUSH2 0x1230 DUP5 DUP5 DUP5 DUP5 PUSH1 0x1 PUSH2 0x1354 JUMP JUMPDEST PUSH2 0xA71 JUMPI PUSH1 0x40 MLOAD PUSH4 0x5274AFE7 PUSH1 0xE0 SHL DUP2 MSTORE PUSH1 0x1 PUSH1 0x1 PUSH1 0xA0 SHL SUB DUP6 AND PUSH1 0x4 DUP3 ADD MSTORE PUSH1 0x24 ADD PUSH2 0xFA2 JUMP JUMPDEST PUSH2 0x1265 DUP4 DUP4 DUP4 PUSH1 0x0 PUSH2 0x13C6 JUMP JUMPDEST PUSH2 0x7A2 JUMPI PUSH2 0x1277 DUP4 DUP4 PUSH1 0x0 PUSH1 0x1 PUSH2 0x13C6 JUMP JUMPDEST PUSH2 0x129F JUMPI PUSH1 0x40 MLOAD PUSH4 0x5274AFE7 PUSH1 0xE0 SHL DUP2 MSTORE PUSH1 0x1 PUSH1 0x1 PUSH1 0xA0 SHL SUB DUP5 AND PUSH1 0x4 DUP3 ADD MSTORE PUSH1 0x24 ADD PUSH2 0xFA2 JUMP JUMPDEST PUSH2 0xF7E DUP4 DUP4 DUP4 PUSH1 0x1 PUSH2 0x13C6 JUMP JUMPDEST PUSH32 0x9B779B17422D0DF92223018B32B4D1FA46E071723D6817E2486D003BECC55F00 SLOAD PUSH1 0x2 SUB PUSH2 0x614 JUMPI PUSH1 0x40 MLOAD PUSH4 0x3EE5AEB5 PUSH1 0xE0 SHL DUP2 MSTORE PUSH1 0x4 ADD PUSH1 0x40 MLOAD DUP1 SWAP2 SUB SWAP1 REVERT JUMPDEST PUSH1 0x40 MLOAD PUSH4 0xA9059CBB PUSH1 0xE0 SHL PUSH1 0x0 DUP2 DUP2 MSTORE PUSH1 0x1 PUSH1 0x1 PUSH1 0xA0 SHL SUB DUP7 AND PUSH1 0x4 MSTORE PUSH1 0x24 DUP6 SWAP1 MSTORE SWAP2 PUSH1 0x20 DUP4 PUSH1 0x44 DUP2 DUP1 DUP12 GAS CALL SWAP3 POP PUSH1 0x1 PUSH1 0x0 MLOAD EQ DUP4 AND PUSH2 0x1348 JUMPI DUP4 DUP4 ISZERO AND ISZERO PUSH2 0x133B JUMPI RETURNDATASIZE PUSH1 0x0 DUP3 RETURNDATACOPY RETURNDATASIZE DUP2 REVERT JUMPDEST PUSH1 0x0 DUP8 EXTCODESIZE GT RETURNDATASIZE ISZERO AND DUP4 AND SWAP3 POP JUMPDEST PUSH1 0x40 MSTORE POP SWAP5 SWAP4 POP POP POP POP JUMP JUMPDEST PUSH1 0x40 MLOAD PUSH4 0x23B872DD PUSH1 0xE0 SHL PUSH1 0x0 DUP2 DUP2 MSTORE PUSH1 0x1 PUSH1 0x1 PUSH1 0xA0 SHL SUB DUP8 DUP2 AND PUSH1 0x4 MSTORE DUP7 AND PUSH1 0x24 MSTORE PUSH1 0x44 DUP6 SWAP1 MSTORE SWAP2 PUSH1 0x20 DUP4 PUSH1 0x64 DUP2 DUP1 DUP13 GAS CALL SWAP3 POP PUSH1 0x1 PUSH1 0x0 MLOAD EQ DUP4 AND PUSH2 0x13B4 JUMPI DUP4 DUP4 ISZERO AND ISZERO PUSH2 0x13A7 JUMPI RETURNDATASIZE PUSH1 0x0 DUP3 RETURNDATACOPY RETURNDATASIZE DUP2 REVERT JUMPDEST PUSH1 0x0 DUP9 EXTCODESIZE GT RETURNDATASIZE ISZERO AND DUP4 AND SWAP3 POP JUMPDEST PUSH1 0x40 MSTORE POP PUSH1 0x0 PUSH1 0x60 MSTORE SWAP6 SWAP5 POP POP POP POP POP JUMP JUMPDEST PUSH1 0x40 MLOAD PUSH4 0x95EA7B3 PUSH1 0xE0 SHL PUSH1 0x0 DUP2 DUP2 MSTORE PUSH1 0x1 PUSH1 0x1 PUSH1 0xA0 SHL SUB DUP7 AND PUSH1 0x4 MSTORE PUSH1 0x24 DUP6 SWAP1 MSTORE SWAP2 PUSH1 0x20 DUP4 PUSH1 0x44 DUP2 DUP1 DUP12 GAS CALL SWAP3 POP PUSH1 0x1 PUSH1 0x0 MLOAD EQ DUP4 AND PUSH2 0x1348 JUMPI DUP4 DUP4 ISZERO AND ISZERO PUSH2 0x133B JUMPI RETURNDATASIZE PUSH1 0x0 DUP3 RETURNDATACOPY RETURNDATASIZE DUP2 REVERT JUMPDEST PUSH1 0x40 MLOAD DUP1 PUSH2 0x2A0 ADD PUSH1 0x40 MSTORE DUP1 PUSH1 0x15 SWAP1 PUSH1 0x20 DUP3 MUL DUP1 CALLDATASIZE DUP4 CALLDATACOPY POP SWAP2 SWAP3 SWAP2 POP POP JUMP JUMPDEST DUP1 CALLDATALOAD PUSH1 0x1 PUSH1 0x1 PUSH1 0xA0 SHL SUB DUP2 AND DUP2 EQ PUSH2 0x1449 JUMPI PUSH1 0x0 DUP1 REVERT JUMPDEST SWAP2 SWAP1 POP JUMP JUMPDEST PUSH1 0x0 DUP1 PUSH1 0x40 DUP4 DUP6 SUB SLT ISZERO PUSH2 0x1461 JUMPI PUSH1 0x0 DUP1 REVERT JUMPDEST PUSH2 0x146A DUP4 PUSH2 0x1432 JUMP JUMPDEST SWAP5 PUSH1 0x20 SWAP4 SWAP1 SWAP4 ADD CALLDATALOAD SWAP4 POP POP POP JUMP JUMPDEST PUSH1 0x0 PUSH1 0x20 DUP3 DUP5 SUB SLT ISZERO PUSH2 0x148A JUMPI PUSH1 0x0 DUP1 REVERT JUMPDEST PUSH2 0x1493 DUP3 PUSH2 0x1432 JUMP JUMPDEST SWAP4 SWAP3 POP POP POP JUMP JUMPDEST PUSH2 0x2A0 DUP2 ADD DUP2 DUP4 PUSH1 0x0 JUMPDEST PUSH1 0x15 DUP2 LT ISZERO PUSH2 0x14C3 JUMPI DUP2 MLOAD DUP4 MSTORE PUSH1 0x20 SWAP3 DUP4 ADD SWAP3 SWAP1 SWAP2 ADD SWAP1 PUSH1 0x1 ADD PUSH2 0x14A4 JUMP JUMPDEST POP POP POP SWAP3 SWAP2 POP POP JUMP JUMPDEST PUSH1 0x0 DUP1 PUSH1 0x0 PUSH1 0x60 DUP5 DUP7 SUB SLT ISZERO PUSH2 0x14E1 JUMPI PUSH1 0x0 DUP1 REVERT JUMPDEST PUSH2 0x14EA DUP5 PUSH2 0x1432 JUMP JUMPDEST SWAP3 POP PUSH2 0x14F8 PUSH1 0x20 DUP6 ADD PUSH2 0x1432 JUMP JUMPDEST SWAP2 POP PUSH2 0x1506 PUSH1 0x40 DUP6 ADD PUSH2 0x1432 JUMP JUMPDEST SWAP1 POP SWAP3 POP SWAP3 POP SWAP3 JUMP JUMPDEST PUSH1 0x0 DUP1 PUSH1 0x40 DUP4 DUP6 SUB SLT ISZERO PUSH2 0x1522 JUMPI PUSH1 0x0 DUP1 REVERT JUMPDEST PUSH2 0x152B DUP4 PUSH2 0x1432 JUMP JUMPDEST SWAP2 POP PUSH2 0x1539 PUSH1 0x20 DUP5 ADD PUSH2 0x1432 JUMP JUMPDEST SWAP1 POP SWAP3 POP SWAP3 SWAP1 POP JUMP JUMPDEST PUSH1 0x20 DUP1 DUP3 MSTORE DUP3 MLOAD DUP3 DUP3 ADD DUP2 SWAP1 MSTORE PUSH1 0x0 SWAP2 SWAP1 DUP5 DUP3 ADD SWAP1 PUSH1 0x40 DUP6 ADD SWAP1 DUP5 JUMPDEST DUP2 DUP2 LT ISZERO PUSH2 0x1583 JUMPI DUP4 MLOAD PUSH1 0x1 PUSH1 0x1 PUSH1 0xA0 SHL SUB AND DUP4 MSTORE SWAP3 DUP5 ADD SWAP3 SWAP2 DUP5 ADD SWAP2 PUSH1 0x1 ADD PUSH2 0x155E JUMP JUMPDEST POP SWAP1 SWAP7 SWAP6 POP POP POP POP POP POP JUMP JUMPDEST PUSH4 0x4E487B71 PUSH1 0xE0 SHL PUSH1 0x0 MSTORE PUSH1 0x32 PUSH1 0x4 MSTORE PUSH1 0x24 PUSH1 0x0 REVERT JUMPDEST PUSH4 0x4E487B71 PUSH1 0xE0 SHL PUSH1 0x0 MSTORE PUSH1 0x11 PUSH1 0x4 MSTORE PUSH1 0x24 PUSH1 0x0 REVERT JUMPDEST DUP1 DUP3 ADD DUP1 DUP3 GT ISZERO PUSH2 0x7B4 JUMPI PUSH2 0x7B4 PUSH2 0x15A5 JUMP JUMPDEST PUSH1 0x0 PUSH1 0x1 DUP3 ADD PUSH2 0x15E0 JUMPI PUSH2 0x15E0 PUSH2 0x15A5 JUMP JUMPDEST POP PUSH1 0x1 ADD SWAP1 JUMP JUMPDEST DUP1 DUP3 MUL DUP2 ISZERO DUP3 DUP3 DIV DUP5 EQ OR PUSH2 0x7B4 JUMPI PUSH2 0x7B4 PUSH2 0x15A5 JUMP JUMPDEST PUSH1 0x0 DUP3 PUSH2 0x161B JUMPI PUSH4 0x4E487B71 PUSH1 0xE0 SHL PUSH1 0x0 MSTORE PUSH1 0x12 PUSH1 0x4 MSTORE PUSH1 0x24 PUSH1 0x0 REVERT JUMPDEST POP DIV SWAP1 JUMP JUMPDEST PUSH1 0x0 PUSH1 0x20 DUP3 DUP5 SUB SLT ISZERO PUSH2 0x1632 JUMPI PUSH1 0x0 DUP1 REVERT JUMPDEST POP MLOAD SWAP2 SWAP1 POP JUMP INVALID LOG2 PUSH5 0x6970667358 0x22 SLT KECCAK256 PUSH8 0x164C5B0E8E4B584B CODESIZE POP 0x4C 0xE1 0x24 SHR DELEGATECALL PC 0x4E DUP12 0xD TSTORE 0xF6 0x28 0x2A POP CREATE2 PUSH8 0x6EAF1804B564736F PUSH13 0x63430008180033000000000000 "},"methodIdentifiers":{"REGISTRATION_FEE()":"64b4f751","admin()":"f851a440","checkAndUnlockLevels(address)":"2573912c","claimReferralRewards()":"05eaab4b","completeSetup()":"8aea8f71","configure(address,address,address)":"55d28f20","distributeReferralCommission(address,uint256)":"8000d991","getAllLevelIncome(address)":"1e97f48a","getDirectReferrals(address)":"d2c8e0e5","getLevelIncome(address,uint256)":"64df8222","getQualifiedDirectsCount(address)":"b8458282","getReferrer(address)":"4a9fefc7","getTeamSize(address)":"519f1640","getUnlockedLevels(address)":"1f791b69","investmentEngine()":"30131384","isRegistered(address)":"c3c5a547","levelIncome(address,uint256)":"0b35d7d1","osloDex()":"8565c2bf","osloToken()":"2acfbca3","referralRewards(address)":"53aaa63b","register(address,address)":"aa677354","setInvestmentEngine(address)":"cb4f51d1","setupComplete()":"b6635be6","timelock()":"d33219b4","totalCommissionsPaid()":"c6d83fcf","totalFeesCollected()":"60c6d8ae","totalRegistered()":"927416c0","usdt()":"2f48ab7d","userInfo(address)":"1959a002"}}}}}