{"contracts/OSLOReferral.sol":{"OSLOReferral":{"abi":[{"inputs":[{"internalType":"address","name":"_usdt","type":"address"},{"internalType":"address","name":"_osloToken","type":"address"}],"stateMutability":"nonpayable","type":"constructor"},{"inputs":[],"name":"AlreadyRegistered","type":"error"},{"inputs":[],"name":"InvalidReferrer","type":"error"},{"inputs":[],"name":"NotRegistered","type":"error"},{"inputs":[],"name":"NothingToClaim","type":"error"},{"inputs":[],"name":"OnlyAdmin","type":"error"},{"inputs":[],"name":"OnlyInvestmentEngine","type":"error"},{"inputs":[],"name":"OnlyTimelock","type":"error"},{"inputs":[],"name":"ReentrancyGuardReentrantCall","type":"error"},{"inputs":[{"internalType":"address","name":"token","type":"address"}],"name":"SafeERC20FailedOperation","type":"error"},{"inputs":[],"name":"SelfReferral","type":"error"},{"inputs":[],"name":"SetupAlreadyComplete","type":"error"},{"inputs":[],"name":"ZeroAddress","type":"error"},{"anonymous":false,"inputs":[{"indexed":true,"internalType":"address","name":"user","type":"address"},{"indexed":false,"internalType":"uint256","name":"level","type":"uint256"}],"name":"LevelUnlocked","type":"event"},{"anonymous":false,"inputs":[{"indexed":true,"internalType":"address","name":"upline","type":"address"},{"indexed":true,"internalType":"address","name":"downline","type":"address"},{"indexed":false,"internalType":"uint256","name":"level","type":"uint256"},{"indexed":false,"internalType":"uint256","name":"amount","type":"uint256"}],"name":"ReferralPaid","type":"event"},{"anonymous":false,"inputs":[{"indexed":true,"internalType":"address","name":"user","type":"address"},{"indexed":false,"internalType":"uint256","name":"amount","type":"uint256"}],"name":"ReferralRewardsClaimed","type":"event"},{"anonymous":false,"inputs":[{"indexed":true,"internalType":"address","name":"user","type":"address"},{"indexed":false,"internalType":"uint256","name":"fee","type":"uint256"},{"indexed":false,"internalType":"uint256","name":"osloBurned","type":"uint256"}],"name":"RegistrationFeeProcessed","type":"event"},{"anonymous":false,"inputs":[{"indexed":true,"internalType":"address","name":"user","type":"address"},{"indexed":true,"internalType":"address","name":"referrer","type":"address"}],"name":"UserRegistered","type":"event"},{"inputs":[],"name":"REGISTRATION_FEE","outputs":[{"internalType":"uint256","name":"","type":"uint256"}],"stateMutability":"view","type":"function"},{"inputs":[],"name":"admin","outputs":[{"internalType":"address","name":"","type":"address"}],"stateMutability":"view","type":"function"},{"inputs":[{"internalType":"address","name":"user","type":"address"}],"name":"checkAndUnlockLevels","outputs":[],"stateMutability":"nonpayable","type":"function"},{"inputs":[],"name":"claimReferralRewards","outputs":[],"stateMutability":"nonpayable","type":"function"},{"inputs":[],"name":"completeSetup","outputs":[],"stateMutability":"nonpayable","type":"function"},{"inputs":[{"internalType":"address","name":"_investmentEngine","type":"address"},{"internalType":"address","name":"_osloDex","type":"address"},{"internalType":"address","name":"_timelock","type":"address"}],"name":"configure","outputs":[],"stateMutability":"nonpayable","type":"function"},{"inputs":[{"internalType":"address","name":"user","type":"address"},{"internalType":"uint256","name":"profitAmount","type":"uint256"}],"name":"distributeReferralCommission","outputs":[{"internalType":"uint256","name":"totalDistributed","type":"uint256"}],"stateMutability":"nonpayable","type":"function"},{"inputs":[{"internalType":"address","name":"user","type":"address"}],"name":"getAllLevelIncome","outputs":[{"internalType":"uint256[21]","name":"","type":"uint256[21]"}],"stateMutability":"view","type":"function"},{"inputs":[{"internalType":"address","name":"user","type":"address"}],"name":"getDirectReferrals","outputs":[{"internalType":"address[]","name":"","type":"address[]"}],"stateMutability":"view","type":"function"},{"inputs":[{"internalType":"address","name":"user","type":"address"},{"internalType":"uint256","name":"level","type":"uint256"}],"name":"getLevelIncome","outputs":[{"internalType":"uint256","name":"","type":"uint256"}],"stateMutability":"view","type":"function"},{"inputs":[{"internalType":"address","name":"user","type":"address"}],"name":"getQualifiedDirectsCount","outputs":[{"internalType":"uint256","name":"","type":"uint256"}],"stateMutability":"view","type":"function"},{"inputs":[{"internalType":"address","name":"user","type":"address"}],"name":"getReferrer","outputs":[{"internalType":"address","name":"","type":"address"}],"stateMutability":"view","type":"function"},{"inputs":[{"internalType":"address","name":"user","type":"address"}],"name":"getTeamSize","outputs":[{"internalType":"uint256","name":"","type":"uint256"}],"stateMutability":"view","type":"function"},{"inputs":[{"internalType":"address","name":"user","type":"address"}],"name":"getUnlockedLevels","outputs":[{"internalType":"uint256","name":"","type":"uint256"}],"stateMutability":"view","type":"function"},{"inputs":[],"name":"investmentEngine","outputs":[{"internalType":"address","name":"","type":"address"}],"stateMutability":"view","type":"function"},{"inputs":[{"internalType":"address","name":"user","type":"address"}],"name":"isRegistered","outputs":[{"internalType":"bool","name":"","type":"bool"}],"stateMutability":"view","type":"function"},{"inputs":[{"internalType":"address","name":"","type":"address"},{"internalType":"uint256","name":"","type":"uint256"}],"name":"levelIncome","outputs":[{"internalType":"uint256","name":"","type":"uint256"}],"stateMutability":"view","type":"function"},{"inputs":[{"internalType":"address[]","name":"_users","type":"address[]"},{"internalType":"uint256[]","name":"_totalEarned","type":"uint256[]"},{"internalType":"uint256[]","name":"_referralRewards","type":"uint256[]"}],"name":"migrateEarnings","outputs":[],"stateMutability":"nonpayable","type":"function"},{"inputs":[{"internalType":"address[]","name":"_users","type":"address[]"},{"internalType":"address[]","name":"_referrers","type":"address[]"},{"internalType":"uint256[]","name":"_unlockedLevels","type":"uint256[]"}],"name":"migrateUsers","outputs":[],"stateMutability":"nonpayable","type":"function"},{"inputs":[],"name":"osloDex","outputs":[{"internalType":"address","name":"","type":"address"}],"stateMutability":"view","type":"function"},{"inputs":[],"name":"osloToken","outputs":[{"internalType":"contract IERC20","name":"","type":"address"}],"stateMutability":"view","type":"function"},{"inputs":[{"internalType":"address","name":"","type":"address"}],"name":"referralRewards","outputs":[{"internalType":"uint256","name":"","type":"uint256"}],"stateMutability":"view","type":"function"},{"inputs":[{"internalType":"address","name":"user","type":"address"},{"internalType":"address","name":"referrer","type":"address"}],"name":"register","outputs":[],"stateMutability":"nonpayable","type":"function"},{"inputs":[{"internalType":"address","name":"_investmentEngine","type":"address"}],"name":"setInvestmentEngine","outputs":[],"stateMutability":"nonpayable","type":"function"},{"inputs":[],"name":"setupComplete","outputs":[{"internalType":"bool","name":"","type":"bool"}],"stateMutability":"view","type":"function"},{"inputs":[],"name":"timelock","outputs":[{"internalType":"address","name":"","type":"address"}],"stateMutability":"view","type":"function"},{"inputs":[],"name":"totalCommissionsPaid","outputs":[{"internalType":"uint256","name":"","type":"uint256"}],"stateMutability":"view","type":"function"},{"inputs":[],"name":"totalFeesCollected","outputs":[{"internalType":"uint256","name":"","type":"uint256"}],"stateMutability":"view","type":"function"},{"inputs":[],"name":"totalRegistered","outputs":[{"internalType":"uint256","name":"","type":"uint256"}],"stateMutability":"view","type":"function"},{"inputs":[],"name":"usdt","outputs":[{"internalType":"contract IERC20","name":"","type":"address"}],"stateMutability":"view","type":"function"},{"inputs":[{"internalType":"address","name":"","type":"address"}],"name":"userInfo","outputs":[{"internalType":"address","name":"referrer","type":"address"},{"internalType":"uint256","name":"unlockedLevels","type":"uint256"},{"internalType":"uint256","name":"totalEarned","type":"uint256"},{"internalType":"bool","name":"registered","type":"bool"}],"stateMutability":"view","type":"function"}],"evm":{"bytecode":{"linkReferences":{},"object":"60c06040523480156200001157600080fd5b5060405162001d0138038062001d018339810160408190526200003491620000dc565b60017f9b779b17422d0df92223018b32b4d1fa46e071723d6817e2486d003becc55f00556001600160a01b03821615806200007657506001600160a01b038116155b15620000955760405163d92e233d60e01b815260040160405180910390fd5b6001600160a01b039182166080521660a052600280546001600160a01b0319163317905562000114565b80516001600160a01b0381168114620000d757600080fd5b919050565b60008060408385031215620000f057600080fd5b620000fb83620000bf565b91506200010b60208401620000bf565b90509250929050565b60805160a051611bb26200014f60003960008181610306015261065b01526000818161034501528181610e790152610f090152611bb26000f3fe608060405234801561001057600080fd5b50600436106101e55760003560e01c806364df82221161010f578063b8458282116100a2578063cb4f51d111610071578063cb4f51d11461051a578063d2c8e0e51461052d578063d33219b41461054d578063f851a4401461056057600080fd5b8063b8458282146104bb578063c3c5a547146104ce578063c631e2bd146104fe578063c6d83fcf1461051157600080fd5b8063927416c0116100de578063927416c0146104685780639d2d743d14610471578063aa67735414610484578063b6635be61461049757600080fd5b806364df8222146104045780638000d9911461043a5780638565c2bf1461044d5780638aea8f711461046057600080fd5b80632f48ab7d1161018757806353aaa63b1161015657806353aaa63b146103b957806355d28f20146103d957806360c6d8ae146103ec57806364b4f751146103f557600080fd5b80632f48ab7d1461034057806330131384146103675780634a9fefc71461037a578063519f1640146103a657600080fd5b80631e97f48a116101c35780631e97f48a146102a25780631f791b69146102c25780632573912c146102ee5780632acfbca31461030157600080fd5b806305eaab4b146101ea5780630b35d7d1146101f45780631959a00214610232575b600080fd5b6101f2610573565b005b61021f610202366004611889565b600660209081526000928352604080842090915290825290205481565b6040519081526020015b60405180910390f35b6102766102403660046118b3565b600460208190526000918252604090912080546002820154600383015492909301546001600160a01b0390911692919060ff1684565b604080516001600160a01b03909516855260208501939093529183015215156060820152608001610229565b6102b56102b03660046118b3565b6106e4565b60405161022991906118d5565b61021f6102d03660046118b3565b6001600160a01b031660009081526004602052604090206002015490565b6101f26102fc3660046118b3565b61077c565b6103287f000000000000000000000000000000000000000000000000000000000000000081565b6040516001600160a01b039091168152602001610229565b6103287f000000000000000000000000000000000000000000000000000000000000000081565b600054610328906001600160a01b031681565b6103286103883660046118b3565b6001600160a01b039081166000908152600460205260409020541690565b61021f6103b43660046118b3565b610875565b61021f6103c73660046118b3565b60056020526000908152604090205481565b6101f26103e7366004611907565b610888565b61021f60095481565b61021f670de0b6b3a764000081565b61021f610412366004611889565b6001600160a01b03919091166000908152600660209081526040808320938352929052205490565b61021f610448366004611889565b61091d565b600154610328906001600160a01b031681565b6101f2610b85565b61021f60075481565b6101f261047f366004611996565b610c00565b6101f2610492366004611a30565b610d82565b6003546104ab90600160a01b900460ff1681565b6040519015158152602001610229565b61021f6104c93660046118b3565b611111565b6104ab6104dc3660046118b3565b6001600160a01b03166000908152600460208190526040909120015460ff1690565b6101f261050c366004611996565b61111c565b61021f60085481565b6101f26105283660046118b3565b61136e565b61054061053b3660046118b3565b6113bb565b6040516102299190611a63565b600354610328906001600160a01b031681565b600254610328906001600160a01b031681565b61057b611434565b33600090815260056020526040812054908190036105ac576040516312d37ee560e31b815260040160405180910390fd5b3360009081526005602052604080822082905560015490516311ea9fa960e21b8152600481018490526001600160a01b03909116906347aa7ea490602401602060405180830381865afa158015610607573d6000803e3d6000fd5b505050506040513d601f19601f8201168201806040525081019061062b9190611ab0565b90508060000361064e576040516312d37ee560e31b815260040160405180910390fd5b6106826001600160a01b037f0000000000000000000000000000000000000000000000000000000000000000163383611462565b60405182815233907f98741ecf35c5d20a8ed68dbd8540500684864a6c98c2a41a5844d0b3a2357d439060200160405180910390a250506106e260017f9b779b17422d0df92223018b32b4d1fa46e071723d6817e2486d003becc55f0055565b565b6106ec61184e565b6106f461184e565b60015b60148111610775576001600160a01b038416600090815260066020908152604080832084845290915290205482826015811061073557610735611ac9565b602002015281816015811061074c5761074c611ac9565b602002015182518390610760908390611af5565b9052508061076d81611b08565b9150506106f7565b5092915050565b6001600160a01b0381166000908152600460208190526040909120015460ff166107a35750565b60006107ae82611497565b905060006107bb826115a0565b6001600160a01b038416600090815260046020526040902060020154909150811115610870576001600160a01b03831660009081526004602052604081206002018054908390559061080e826001611af5565b90505b82811161086d57846001600160a01b03167f084d80ac1b703449f5931daa49aa5ad902f79624e20313db57074f53c5aca3418260405161085391815260200190565b60405180910390a28061086581611b08565b915050610811565b50505b505050565b60006108828260006115fa565b92915050565b6002546001600160a01b031633146108b357604051634755657960e01b815260040160405180910390fd5b600354600160a01b900460ff16156108de5760405163238f75d360e01b815260040160405180910390fd5b600080546001600160a01b039485166001600160a01b031991821617909155600180549385169382169390931790925560038054919093169116179055565b600080546001600160a01b0316331461094957604051630559b36f60e11b815260040160405180910390fd5b8160000361095957506000610882565b8260015b60148111610b7d576001600160a01b03808316600090815260046020526040902054168061098b5750610b7d565b6001600160a01b0381166000908152600460205260409020600201548211610b695760006109b88361168c565b905060006127106109c98389611b21565b6109d39190611b38565b90508015610b66576001600160a01b03831660009081526005602052604081208054839290610a03908490611af5565b90915550506001600160a01b038316600090815260066020908152604080832087845290915281208054839290610a3b908490611af5565b90915550506001600160a01b03831660009081526004602052604081206003018054839290610a6b908490611af5565b925050819055508060086000828254610a849190611af5565b90915550610a9490508187611af5565b6000549096506001600160a01b031615610b0f576000546040516335cfbd5b60e11b81526001600160a01b0385811660048301526024820184905290911690636b9f7ab690604401600060405180830381600087803b158015610af657600080fd5b505af1158015610b0a573d6000803e3d6000fd5b505050505b876001600160a01b0316836001600160a01b03167f65db98422e8b7340e0d6dfa99bbadd4ba95a51fefafd8f0e1cbbb2e819429a428684604051610b5d929190918252602082015260400190565b60405180910390a35b50505b915080610b7581611b08565b91505061095d565b505092915050565b6002546001600160a01b03163314610bb057604051634755657960e01b815260040160405180910390fd5b600354600160a01b900460ff1615610bdb5760405163238f75d360e01b815260040160405180910390fd5b6003805460ff60a01b1916600160a01b179055600280546001600160a01b0319169055565b6002546001600160a01b03163314610c2b57604051634755657960e01b815260040160405180910390fd5b600354600160a01b900460ff1615610c565760405163238f75d360e01b815260040160405180910390fd5b8483148015610c6457508481145b610ca75760405162461bcd60e51b815260206004820152600f60248201526e098cadccee8d040dad2e6dac2e8c6d608b1b60448201526064015b60405180910390fd5b60005b85811015610d7957848482818110610cc457610cc4611ac9565b9050602002013560046000898985818110610ce157610ce1611ac9565b9050602002016020810190610cf691906118b3565b6001600160a01b03168152602081019190915260400160002060030155828282818110610d2557610d25611ac9565b9050602002013560056000898985818110610d4257610d42611ac9565b9050602002016020810190610d5791906118b3565b6001600160a01b03168152602081019190915260400160002055600101610caa565b50505050505050565b6001600160a01b038216610da95760405163d92e233d60e01b815260040160405180910390fd5b6001600160a01b0382166000908152600460208190526040909120015460ff1615610de757604051630ea075bf60e21b815260040160405180910390fd5b806001600160a01b0316826001600160a01b031603610e1957604051632af47b8760e11b815260040160405180910390fd5b6001600160a01b03811615801590610e4e57506001600160a01b0381166000908152600460208190526040909120015460ff16155b15610e6c57604051630c22084560e31b815260040160405180910390fd5b610ea96001600160a01b037f0000000000000000000000000000000000000000000000000000000000000000168330670de0b6b3a76400006116f8565b670de0b6b3a764000060096000828254610ec39190611af5565b90915550506001546001600160a01b0316156110295760015460405163095ea7b360e01b81526001600160a01b039182166004820152670de0b6b3a764000060248201527f00000000000000000000000000000000000000000000000000000000000000009091169063095ea7b3906044016020604051808303816000875af1158015610f54573d6000803e3d6000fd5b505050506040513d601f19601f82011682018060405250810190610f789190611b5a565b50600154604051632276741b60e01b8152670de0b6b3a764000060048201526001600160a01b0390911690632276741b90602401600060405180830381600087803b158015610fc657600080fd5b505af1925050508015610fd7575060015b156110295760408051670de0b6b3a76400008152600060208201526001600160a01b038416917f285cf258850ff8cf5d55ec19e46476d4e3d5209972f80a7880a38ac7011e7023910160405180910390a25b6001600160a01b038083166000908152600460208190526040909120908101805460ff1916600190811790915581549284166001600160a01b031990931683178255600290910155156110b8576001600160a01b0381811660009081526004602090815260408220600190810180549182018155835291200180546001600160a01b0319169184169190911790555b600780549060006110c883611b08565b9190505550806001600160a01b0316826001600160a01b03167f2138b9314634f9fdd5e49bee3eaf17ca557b6637524d0db759711c3bfcd3d85060405160405180910390a35050565b600061088282611497565b6002546001600160a01b0316331461114757604051634755657960e01b815260040160405180910390fd5b600354600160a01b900460ff16156111725760405163238f75d360e01b815260040160405180910390fd5b848314801561118057508481145b6111be5760405162461bcd60e51b815260206004820152600f60248201526e098cadccee8d040dad2e6dac2e8c6d608b1b6044820152606401610c9e565b60005b85811015610d795760008787838181106111dd576111dd611ac9565b90506020020160208101906111f291906118b3565b9050600086868481811061120857611208611ac9565b905060200201602081019061121d91906118b3565b6001600160a01b0383166000908152600460208190526040909120015490915060ff161561124c575050611366565b6001600160a01b03828116600090815260046020819052604090912080546001600160a01b03191692841692909217825501805460ff1916600117905584848481811061129b5761129b611ac9565b6001600160a01b038086166000908152600460209081526040909120920293909301356002909101555081161561130e576001600160a01b0381811660009081526004602090815260408220600190810180549182018155835291200180546001600160a01b0319169184169190911790555b6007805490600061131e83611b08565b9190505550806001600160a01b0316826001600160a01b03167f2138b9314634f9fdd5e49bee3eaf17ca557b6637524d0db759711c3bfcd3d85060405160405180910390a350505b6001016111c1565b6003546001600160a01b0316331461139957604051630e05f48560e11b815260040160405180910390fd5b600080546001600160a01b0319166001600160a01b0392909216919091179055565b6001600160a01b03811660009081526004602090815260409182902060010180548351818402810184019094528084526060939283018282801561142857602002820191906000526020600020905b81546001600160a01b0316815260019091019060200180831161140a575b50505050509050919050565b61143c611734565b60027f9b779b17422d0df92223018b32b4d1fa46e071723d6817e2486d003becc55f0055565b61146f8383836001611776565b61087057604051635274afe760e01b81526001600160a01b0384166004820152602401610c9e565b6001600160a01b03811660009081526004602052604081208190600101815b8154811015611597576000546001600160a01b03161561158f576000805483546001600160a01b039091169063142a3da3908590859081106114fa576114fa611ac9565b60009182526020909120015460405160e083901b6001600160e01b03191681526001600160a01b039091166004820152602401602060405180830381865afa15801561154a573d6000803e3d6000fd5b505050506040513d601f19601f8201168201806040525081019061156e9190611ab0565b9050678ac7230489e80000811061158d578361158981611b08565b9450505b505b6001016114b6565b50909392505050565b6000600782106115b257506014919050565b600582106115c257506010919050565b600382106115d25750600c919050565b600282106115e257506008919050565b600182106115f257506003919050565b506001919050565b60006014821061160c57506000610882565b6001600160a01b0383166000908152600460205260408120600101805490915b82548110156116835761166f83828154811061164a5761164a611ac9565b6000918252602090912001546001600160a01b031661166a876001611af5565b6115fa565b6116799083611af5565b915060010161162c565b50949350505050565b60008160010361169f5750610bb8919050565b816002036116b057506107d0919050565b600382101580156116c25750600a8211155b156116d057506103e8919050565b600b82101580156116e2575060148211155b156116f057506101f4919050565b506000919050565b6117068484848460016117dc565b61172e57604051635274afe760e01b81526001600160a01b0385166004820152602401610c9e565b50505050565b7f9b779b17422d0df92223018b32b4d1fa46e071723d6817e2486d003becc55f00546002036106e257604051633ee5aeb560e01b815260040160405180910390fd5b60405163a9059cbb60e01b60008181526001600160a01b038616600452602485905291602083604481808b5af1925060016000511483166117d05783831516156117c3573d6000823e3d81fd5b6000873b113d1516831692505b60405250949350505050565b6040516323b872dd60e01b60008181526001600160a01b038781166004528616602452604485905291602083606481808c5af19250600160005114831661183c57838315161561182f573d6000823e3d81fd5b6000883b113d1516831692505b60405250600060605295945050505050565b604051806102a001604052806015906020820280368337509192915050565b80356001600160a01b038116811461188457600080fd5b919050565b6000806040838503121561189c57600080fd5b6118a58361186d565b946020939093013593505050565b6000602082840312156118c557600080fd5b6118ce8261186d565b9392505050565b6102a08101818360005b60158110156118fe5781518352602092830192909101906001016118df565b50505092915050565b60008060006060848603121561191c57600080fd5b6119258461186d565b92506119336020850161186d565b91506119416040850161186d565b90509250925092565b60008083601f84011261195c57600080fd5b50813567ffffffffffffffff81111561197457600080fd5b6020830191508360208260051b850101111561198f57600080fd5b9250929050565b600080600080600080606087890312156119af57600080fd5b863567ffffffffffffffff808211156119c757600080fd5b6119d38a838b0161194a565b909850965060208901359150808211156119ec57600080fd5b6119f88a838b0161194a565b90965094506040890135915080821115611a1157600080fd5b50611a1e89828a0161194a565b979a9699509497509295939492505050565b60008060408385031215611a4357600080fd5b611a4c8361186d565b9150611a5a6020840161186d565b90509250929050565b6020808252825182820181905260009190848201906040850190845b81811015611aa45783516001600160a01b031683529284019291840191600101611a7f565b50909695505050505050565b600060208284031215611ac257600080fd5b5051919050565b634e487b7160e01b600052603260045260246000fd5b634e487b7160e01b600052601160045260246000fd5b8082018082111561088257610882611adf565b600060018201611b1a57611b1a611adf565b5060010190565b808202811582820484141761088257610882611adf565b600082611b5557634e487b7160e01b600052601260045260246000fd5b500490565b600060208284031215611b6c57600080fd5b815180151581146118ce57600080fdfea2646970667358221220fe6d452e5b9c268b3b4f6b965ebff2e4647ba4478b317c3bd32493d86475a7cc64736f6c63430008180033","opcodes":"PUSH1 0xC0 PUSH1 0x40 MSTORE CALLVALUE DUP1 ISZERO PUSH3 0x11 JUMPI PUSH1 0x0 DUP1 REVERT JUMPDEST POP PUSH1 0x40 MLOAD PUSH3 0x1D01 CODESIZE SUB DUP1 PUSH3 0x1D01 DUP4 CODECOPY DUP2 ADD PUSH1 0x40 DUP2 SWAP1 MSTORE PUSH3 0x34 SWAP2 PUSH3 0xDC JUMP JUMPDEST PUSH1 0x1 PUSH32 0x9B779B17422D0DF92223018B32B4D1FA46E071723D6817E2486D003BECC55F00 SSTORE PUSH1 0x1 PUSH1 0x1 PUSH1 0xA0 SHL SUB DUP3 AND ISZERO DUP1 PUSH3 0x76 JUMPI POP PUSH1 0x1 PUSH1 0x1 PUSH1 0xA0 SHL SUB DUP2 AND ISZERO JUMPDEST ISZERO PUSH3 0x95 JUMPI PUSH1 0x40 MLOAD PUSH4 0xD92E233D PUSH1 0xE0 SHL DUP2 MSTORE PUSH1 0x4 ADD PUSH1 0x40 MLOAD DUP1 SWAP2 SUB SWAP1 REVERT JUMPDEST PUSH1 0x1 PUSH1 0x1 PUSH1 0xA0 SHL SUB SWAP2 DUP3 AND PUSH1 0x80 MSTORE AND PUSH1 0xA0 MSTORE PUSH1 0x2 DUP1 SLOAD PUSH1 0x1 PUSH1 0x1 PUSH1 0xA0 SHL SUB NOT AND CALLER OR SWAP1 SSTORE PUSH3 0x114 JUMP JUMPDEST DUP1 MLOAD PUSH1 0x1 PUSH1 0x1 PUSH1 0xA0 SHL SUB DUP2 AND DUP2 EQ PUSH3 0xD7 JUMPI PUSH1 0x0 DUP1 REVERT JUMPDEST SWAP2 SWAP1 POP JUMP JUMPDEST PUSH1 0x0 DUP1 PUSH1 0x40 DUP4 DUP6 SUB SLT ISZERO PUSH3 0xF0 JUMPI PUSH1 0x0 DUP1 REVERT JUMPDEST PUSH3 0xFB DUP4 PUSH3 0xBF JUMP JUMPDEST SWAP2 POP PUSH3 0x10B PUSH1 0x20 DUP5 ADD PUSH3 0xBF JUMP JUMPDEST SWAP1 POP SWAP3 POP SWAP3 SWAP1 POP JUMP JUMPDEST PUSH1 0x80 MLOAD PUSH1 0xA0 MLOAD PUSH2 0x1BB2 PUSH3 0x14F PUSH1 0x0 CODECOPY PUSH1 0x0 DUP2 DUP2 PUSH2 0x306 ADD MSTORE PUSH2 0x65B ADD MSTORE PUSH1 0x0 DUP2 DUP2 PUSH2 0x345 ADD MSTORE DUP2 DUP2 PUSH2 0xE79 ADD MSTORE PUSH2 0xF09 ADD MSTORE PUSH2 0x1BB2 PUSH1 0x0 RETURN INVALID PUSH1 0x80 PUSH1 0x40 MSTORE CALLVALUE DUP1 ISZERO PUSH2 0x10 JUMPI PUSH1 0x0 DUP1 REVERT JUMPDEST POP PUSH1 0x4 CALLDATASIZE LT PUSH2 0x1E5 JUMPI PUSH1 0x0 CALLDATALOAD PUSH1 0xE0 SHR DUP1 PUSH4 0x64DF8222 GT PUSH2 0x10F JUMPI DUP1 PUSH4 0xB8458282 GT PUSH2 0xA2 JUMPI DUP1 PUSH4 0xCB4F51D1 GT PUSH2 0x71 JUMPI DUP1 PUSH4 0xCB4F51D1 EQ PUSH2 0x51A JUMPI DUP1 PUSH4 0xD2C8E0E5 EQ PUSH2 0x52D JUMPI DUP1 PUSH4 0xD33219B4 EQ PUSH2 0x54D JUMPI DUP1 PUSH4 0xF851A440 EQ PUSH2 0x560 JUMPI PUSH1 0x0 DUP1 REVERT JUMPDEST DUP1 PUSH4 0xB8458282 EQ PUSH2 0x4BB JUMPI DUP1 PUSH4 0xC3C5A547 EQ PUSH2 0x4CE JUMPI DUP1 PUSH4 0xC631E2BD EQ PUSH2 0x4FE JUMPI DUP1 PUSH4 0xC6D83FCF EQ PUSH2 0x511 JUMPI PUSH1 0x0 DUP1 REVERT JUMPDEST DUP1 PUSH4 0x927416C0 GT PUSH2 0xDE JUMPI DUP1 PUSH4 0x927416C0 EQ PUSH2 0x468 JUMPI DUP1 PUSH4 0x9D2D743D EQ PUSH2 0x471 JUMPI DUP1 PUSH4 0xAA677354 EQ PUSH2 0x484 JUMPI DUP1 PUSH4 0xB6635BE6 EQ PUSH2 0x497 JUMPI PUSH1 0x0 DUP1 REVERT JUMPDEST DUP1 PUSH4 0x64DF8222 EQ PUSH2 0x404 JUMPI DUP1 PUSH4 0x8000D991 EQ PUSH2 0x43A JUMPI DUP1 PUSH4 0x8565C2BF EQ PUSH2 0x44D JUMPI DUP1 PUSH4 0x8AEA8F71 EQ PUSH2 0x460 JUMPI PUSH1 0x0 DUP1 REVERT JUMPDEST DUP1 PUSH4 0x2F48AB7D GT PUSH2 0x187 JUMPI DUP1 PUSH4 0x53AAA63B GT PUSH2 0x156 JUMPI DUP1 PUSH4 0x53AAA63B EQ PUSH2 0x3B9 JUMPI DUP1 PUSH4 0x55D28F20 EQ PUSH2 0x3D9 JUMPI DUP1 PUSH4 0x60C6D8AE EQ PUSH2 0x3EC JUMPI DUP1 PUSH4 0x64B4F751 EQ PUSH2 0x3F5 JUMPI PUSH1 0x0 DUP1 REVERT JUMPDEST DUP1 PUSH4 0x2F48AB7D EQ PUSH2 0x340 JUMPI DUP1 PUSH4 0x30131384 EQ PUSH2 0x367 JUMPI DUP1 PUSH4 0x4A9FEFC7 EQ PUSH2 0x37A JUMPI DUP1 PUSH4 0x519F1640 EQ PUSH2 0x3A6 JUMPI PUSH1 0x0 DUP1 REVERT JUMPDEST DUP1 PUSH4 0x1E97F48A GT PUSH2 0x1C3 JUMPI DUP1 PUSH4 0x1E97F48A EQ PUSH2 0x2A2 JUMPI DUP1 PUSH4 0x1F791B69 EQ PUSH2 0x2C2 JUMPI DUP1 PUSH4 0x2573912C EQ PUSH2 0x2EE JUMPI DUP1 PUSH4 0x2ACFBCA3 EQ PUSH2 0x301 JUMPI PUSH1 0x0 DUP1 REVERT JUMPDEST DUP1 PUSH4 0x5EAAB4B EQ PUSH2 0x1EA JUMPI DUP1 PUSH4 0xB35D7D1 EQ PUSH2 0x1F4 JUMPI DUP1 PUSH4 0x1959A002 EQ PUSH2 0x232 JUMPI JUMPDEST PUSH1 0x0 DUP1 REVERT JUMPDEST PUSH2 0x1F2 PUSH2 0x573 JUMP JUMPDEST STOP JUMPDEST PUSH2 0x21F PUSH2 0x202 CALLDATASIZE PUSH1 0x4 PUSH2 0x1889 JUMP JUMPDEST PUSH1 0x6 PUSH1 0x20 SWAP1 DUP2 MSTORE PUSH1 0x0 SWAP3 DUP4 MSTORE PUSH1 0x40 DUP1 DUP5 KECCAK256 SWAP1 SWAP2 MSTORE SWAP1 DUP3 MSTORE SWAP1 KECCAK256 SLOAD DUP2 JUMP JUMPDEST PUSH1 0x40 MLOAD SWAP1 DUP2 MSTORE PUSH1 0x20 ADD JUMPDEST PUSH1 0x40 MLOAD DUP1 SWAP2 SUB SWAP1 RETURN JUMPDEST PUSH2 0x276 PUSH2 0x240 CALLDATASIZE PUSH1 0x4 PUSH2 0x18B3 JUMP JUMPDEST PUSH1 0x4 PUSH1 0x20 DUP2 SWAP1 MSTORE PUSH1 0x0 SWAP2 DUP3 MSTORE PUSH1 0x40 SWAP1 SWAP2 KECCAK256 DUP1 SLOAD PUSH1 0x2 DUP3 ADD SLOAD PUSH1 0x3 DUP4 ADD SLOAD SWAP3 SWAP1 SWAP4 ADD SLOAD PUSH1 0x1 PUSH1 0x1 PUSH1 0xA0 SHL SUB SWAP1 SWAP2 AND SWAP3 SWAP2 SWAP1 PUSH1 0xFF AND DUP5 JUMP JUMPDEST PUSH1 0x40 DUP1 MLOAD PUSH1 0x1 PUSH1 0x1 PUSH1 0xA0 SHL SUB SWAP1 SWAP6 AND DUP6 MSTORE PUSH1 0x20 DUP6 ADD SWAP4 SWAP1 SWAP4 MSTORE SWAP2 DUP4 ADD MSTORE ISZERO ISZERO PUSH1 0x60 DUP3 ADD MSTORE PUSH1 0x80 ADD PUSH2 0x229 JUMP JUMPDEST PUSH2 0x2B5 PUSH2 0x2B0 CALLDATASIZE PUSH1 0x4 PUSH2 0x18B3 JUMP JUMPDEST PUSH2 0x6E4 JUMP JUMPDEST PUSH1 0x40 MLOAD PUSH2 0x229 SWAP2 SWAP1 PUSH2 0x18D5 JUMP JUMPDEST PUSH2 0x21F PUSH2 0x2D0 CALLDATASIZE PUSH1 0x4 PUSH2 0x18B3 JUMP JUMPDEST PUSH1 0x1 PUSH1 0x1 PUSH1 0xA0 SHL SUB AND PUSH1 0x0 SWAP1 DUP2 MSTORE PUSH1 0x4 PUSH1 0x20 MSTORE PUSH1 0x40 SWAP1 KECCAK256 PUSH1 0x2 ADD SLOAD SWAP1 JUMP JUMPDEST PUSH2 0x1F2 PUSH2 0x2FC CALLDATASIZE PUSH1 0x4 PUSH2 0x18B3 JUMP JUMPDEST PUSH2 0x77C JUMP JUMPDEST PUSH2 0x328 PUSH32 0x0 DUP2 JUMP JUMPDEST PUSH1 0x40 MLOAD PUSH1 0x1 PUSH1 0x1 PUSH1 0xA0 SHL SUB SWAP1 SWAP2 AND DUP2 MSTORE PUSH1 0x20 ADD PUSH2 0x229 JUMP JUMPDEST PUSH2 0x328 PUSH32 0x0 DUP2 JUMP JUMPDEST PUSH1 0x0 SLOAD PUSH2 0x328 SWAP1 PUSH1 0x1 PUSH1 0x1 PUSH1 0xA0 SHL SUB AND DUP2 JUMP JUMPDEST PUSH2 0x328 PUSH2 0x388 CALLDATASIZE PUSH1 0x4 PUSH2 0x18B3 JUMP JUMPDEST PUSH1 0x1 PUSH1 0x1 PUSH1 0xA0 SHL SUB SWAP1 DUP2 AND PUSH1 0x0 SWAP1 DUP2 MSTORE PUSH1 0x4 PUSH1 0x20 MSTORE PUSH1 0x40 SWAP1 KECCAK256 SLOAD AND SWAP1 JUMP JUMPDEST PUSH2 0x21F PUSH2 0x3B4 CALLDATASIZE PUSH1 0x4 PUSH2 0x18B3 JUMP JUMPDEST PUSH2 0x875 JUMP JUMPDEST PUSH2 0x21F PUSH2 0x3C7 CALLDATASIZE PUSH1 0x4 PUSH2 0x18B3 JUMP JUMPDEST PUSH1 0x5 PUSH1 0x20 MSTORE PUSH1 0x0 SWAP1 DUP2 MSTORE PUSH1 0x40 SWAP1 KECCAK256 SLOAD DUP2 JUMP JUMPDEST PUSH2 0x1F2 PUSH2 0x3E7 CALLDATASIZE PUSH1 0x4 PUSH2 0x1907 JUMP JUMPDEST PUSH2 0x888 JUMP JUMPDEST PUSH2 0x21F PUSH1 0x9 SLOAD DUP2 JUMP JUMPDEST PUSH2 0x21F PUSH8 0xDE0B6B3A7640000 DUP2 JUMP JUMPDEST PUSH2 0x21F PUSH2 0x412 CALLDATASIZE PUSH1 0x4 PUSH2 0x1889 JUMP JUMPDEST PUSH1 0x1 PUSH1 0x1 PUSH1 0xA0 SHL SUB SWAP2 SWAP1 SWAP2 AND PUSH1 0x0 SWAP1 DUP2 MSTORE PUSH1 0x6 PUSH1 0x20 SWAP1 DUP2 MSTORE PUSH1 0x40 DUP1 DUP4 KECCAK256 SWAP4 DUP4 MSTORE SWAP3 SWAP1 MSTORE KECCAK256 SLOAD SWAP1 JUMP JUMPDEST PUSH2 0x21F PUSH2 0x448 CALLDATASIZE PUSH1 0x4 PUSH2 0x1889 JUMP JUMPDEST PUSH2 0x91D JUMP JUMPDEST PUSH1 0x1 SLOAD PUSH2 0x328 SWAP1 PUSH1 0x1 PUSH1 0x1 PUSH1 0xA0 SHL SUB AND DUP2 JUMP JUMPDEST PUSH2 0x1F2 PUSH2 0xB85 JUMP JUMPDEST PUSH2 0x21F PUSH1 0x7 SLOAD DUP2 JUMP JUMPDEST PUSH2 0x1F2 PUSH2 0x47F CALLDATASIZE PUSH1 0x4 PUSH2 0x1996 JUMP JUMPDEST PUSH2 0xC00 JUMP JUMPDEST PUSH2 0x1F2 PUSH2 0x492 CALLDATASIZE PUSH1 0x4 PUSH2 0x1A30 JUMP JUMPDEST PUSH2 0xD82 JUMP JUMPDEST PUSH1 0x3 SLOAD PUSH2 0x4AB SWAP1 PUSH1 0x1 PUSH1 0xA0 SHL SWAP1 DIV PUSH1 0xFF AND DUP2 JUMP JUMPDEST PUSH1 0x40 MLOAD SWAP1 ISZERO ISZERO DUP2 MSTORE PUSH1 0x20 ADD PUSH2 0x229 JUMP JUMPDEST PUSH2 0x21F PUSH2 0x4C9 CALLDATASIZE PUSH1 0x4 PUSH2 0x18B3 JUMP JUMPDEST PUSH2 0x1111 JUMP JUMPDEST PUSH2 0x4AB PUSH2 0x4DC CALLDATASIZE PUSH1 0x4 PUSH2 0x18B3 JUMP JUMPDEST PUSH1 0x1 PUSH1 0x1 PUSH1 0xA0 SHL SUB AND PUSH1 0x0 SWAP1 DUP2 MSTORE PUSH1 0x4 PUSH1 0x20 DUP2 SWAP1 MSTORE PUSH1 0x40 SWAP1 SWAP2 KECCAK256 ADD SLOAD PUSH1 0xFF AND SWAP1 JUMP JUMPDEST PUSH2 0x1F2 PUSH2 0x50C CALLDATASIZE PUSH1 0x4 PUSH2 0x1996 JUMP JUMPDEST PUSH2 0x111C JUMP JUMPDEST PUSH2 0x21F PUSH1 0x8 SLOAD DUP2 JUMP JUMPDEST PUSH2 0x1F2 PUSH2 0x528 CALLDATASIZE PUSH1 0x4 PUSH2 0x18B3 JUMP JUMPDEST PUSH2 0x136E JUMP JUMPDEST PUSH2 0x540 PUSH2 0x53B CALLDATASIZE PUSH1 0x4 PUSH2 0x18B3 JUMP JUMPDEST PUSH2 0x13BB JUMP JUMPDEST PUSH1 0x40 MLOAD PUSH2 0x229 SWAP2 SWAP1 PUSH2 0x1A63 JUMP JUMPDEST PUSH1 0x3 SLOAD PUSH2 0x328 SWAP1 PUSH1 0x1 PUSH1 0x1 PUSH1 0xA0 SHL SUB AND DUP2 JUMP JUMPDEST PUSH1 0x2 SLOAD PUSH2 0x328 SWAP1 PUSH1 0x1 PUSH1 0x1 PUSH1 0xA0 SHL SUB AND DUP2 JUMP JUMPDEST PUSH2 0x57B PUSH2 0x1434 JUMP JUMPDEST CALLER PUSH1 0x0 SWAP1 DUP2 MSTORE PUSH1 0x5 PUSH1 0x20 MSTORE PUSH1 0x40 DUP2 KECCAK256 SLOAD SWAP1 DUP2 SWAP1 SUB PUSH2 0x5AC JUMPI PUSH1 0x40 MLOAD PUSH4 0x12D37EE5 PUSH1 0xE3 SHL DUP2 MSTORE PUSH1 0x4 ADD PUSH1 0x40 MLOAD DUP1 SWAP2 SUB SWAP1 REVERT JUMPDEST CALLER PUSH1 0x0 SWAP1 DUP2 MSTORE PUSH1 0x5 PUSH1 0x20 MSTORE PUSH1 0x40 DUP1 DUP3 KECCAK256 DUP3 SWAP1 SSTORE PUSH1 0x1 SLOAD SWAP1 MLOAD PUSH4 0x11EA9FA9 PUSH1 0xE2 SHL DUP2 MSTORE PUSH1 0x4 DUP2 ADD DUP5 SWAP1 MSTORE PUSH1 0x1 PUSH1 0x1 PUSH1 0xA0 SHL SUB SWAP1 SWAP2 AND SWAP1 PUSH4 0x47AA7EA4 SWAP1 PUSH1 0x24 ADD PUSH1 0x20 PUSH1 0x40 MLOAD DUP1 DUP4 SUB DUP2 DUP7 GAS STATICCALL ISZERO DUP1 ISZERO PUSH2 0x607 JUMPI RETURNDATASIZE PUSH1 0x0 DUP1 RETURNDATACOPY RETURNDATASIZE PUSH1 0x0 REVERT JUMPDEST POP POP POP POP PUSH1 0x40 MLOAD RETURNDATASIZE PUSH1 0x1F NOT PUSH1 0x1F DUP3 ADD AND DUP3 ADD DUP1 PUSH1 0x40 MSTORE POP DUP2 ADD SWAP1 PUSH2 0x62B SWAP2 SWAP1 PUSH2 0x1AB0 JUMP JUMPDEST SWAP1 POP DUP1 PUSH1 0x0 SUB PUSH2 0x64E JUMPI PUSH1 0x40 MLOAD PUSH4 0x12D37EE5 PUSH1 0xE3 SHL DUP2 MSTORE PUSH1 0x4 ADD PUSH1 0x40 MLOAD DUP1 SWAP2 SUB SWAP1 REVERT JUMPDEST PUSH2 0x682 PUSH1 0x1 PUSH1 0x1 PUSH1 0xA0 SHL SUB PUSH32 0x0 AND CALLER DUP4 PUSH2 0x1462 JUMP JUMPDEST PUSH1 0x40 MLOAD DUP3 DUP2 MSTORE CALLER SWAP1 PUSH32 0x98741ECF35C5D20A8ED68DBD8540500684864A6C98C2A41A5844D0B3A2357D43 SWAP1 PUSH1 0x20 ADD PUSH1 0x40 MLOAD DUP1 SWAP2 SUB SWAP1 LOG2 POP POP PUSH2 0x6E2 PUSH1 0x1 PUSH32 0x9B779B17422D0DF92223018B32B4D1FA46E071723D6817E2486D003BECC55F00 SSTORE JUMP JUMPDEST JUMP JUMPDEST PUSH2 0x6EC PUSH2 0x184E JUMP JUMPDEST PUSH2 0x6F4 PUSH2 0x184E JUMP JUMPDEST PUSH1 0x1 JUMPDEST PUSH1 0x14 DUP2 GT PUSH2 0x775 JUMPI PUSH1 0x1 PUSH1 0x1 PUSH1 0xA0 SHL SUB DUP5 AND PUSH1 0x0 SWAP1 DUP2 MSTORE PUSH1 0x6 PUSH1 0x20 SWAP1 DUP2 MSTORE PUSH1 0x40 DUP1 DUP4 KECCAK256 DUP5 DUP5 MSTORE SWAP1 SWAP2 MSTORE SWAP1 KECCAK256 SLOAD DUP3 DUP3 PUSH1 0x15 DUP2 LT PUSH2 0x735 JUMPI PUSH2 0x735 PUSH2 0x1AC9 JUMP JUMPDEST PUSH1 0x20 MUL ADD MSTORE DUP2 DUP2 PUSH1 0x15 DUP2 LT PUSH2 0x74C JUMPI PUSH2 0x74C PUSH2 0x1AC9 JUMP JUMPDEST PUSH1 0x20 MUL ADD MLOAD DUP3 MLOAD DUP4 SWAP1 PUSH2 0x760 SWAP1 DUP4 SWAP1 PUSH2 0x1AF5 JUMP JUMPDEST SWAP1 MSTORE POP DUP1 PUSH2 0x76D DUP2 PUSH2 0x1B08 JUMP JUMPDEST SWAP2 POP POP PUSH2 0x6F7 JUMP JUMPDEST POP SWAP3 SWAP2 POP POP JUMP JUMPDEST PUSH1 0x1 PUSH1 0x1 PUSH1 0xA0 SHL SUB DUP2 AND PUSH1 0x0 SWAP1 DUP2 MSTORE PUSH1 0x4 PUSH1 0x20 DUP2 SWAP1 MSTORE PUSH1 0x40 SWAP1 SWAP2 KECCAK256 ADD SLOAD PUSH1 0xFF AND PUSH2 0x7A3 JUMPI POP JUMP JUMPDEST PUSH1 0x0 PUSH2 0x7AE DUP3 PUSH2 0x1497 JUMP JUMPDEST SWAP1 POP PUSH1 0x0 PUSH2 0x7BB DUP3 PUSH2 0x15A0 JUMP JUMPDEST PUSH1 0x1 PUSH1 0x1 PUSH1 0xA0 SHL SUB DUP5 AND PUSH1 0x0 SWAP1 DUP2 MSTORE PUSH1 0x4 PUSH1 0x20 MSTORE PUSH1 0x40 SWAP1 KECCAK256 PUSH1 0x2 ADD SLOAD SWAP1 SWAP2 POP DUP2 GT ISZERO PUSH2 0x870 JUMPI PUSH1 0x1 PUSH1 0x1 PUSH1 0xA0 SHL SUB DUP4 AND PUSH1 0x0 SWAP1 DUP2 MSTORE PUSH1 0x4 PUSH1 0x20 MSTORE PUSH1 0x40 DUP2 KECCAK256 PUSH1 0x2 ADD DUP1 SLOAD SWAP1 DUP4 SWAP1 SSTORE SWAP1 PUSH2 0x80E DUP3 PUSH1 0x1 PUSH2 0x1AF5 JUMP JUMPDEST SWAP1 POP JUMPDEST DUP3 DUP2 GT PUSH2 0x86D JUMPI DUP5 PUSH1 0x1 PUSH1 0x1 PUSH1 0xA0 SHL SUB AND PUSH32 0x84D80AC1B703449F5931DAA49AA5AD902F79624E20313DB57074F53C5ACA341 DUP3 PUSH1 0x40 MLOAD PUSH2 0x853 SWAP2 DUP2 MSTORE PUSH1 0x20 ADD SWAP1 JUMP JUMPDEST PUSH1 0x40 MLOAD DUP1 SWAP2 SUB SWAP1 LOG2 DUP1 PUSH2 0x865 DUP2 PUSH2 0x1B08 JUMP JUMPDEST SWAP2 POP POP PUSH2 0x811 JUMP JUMPDEST POP POP JUMPDEST POP POP POP JUMP JUMPDEST PUSH1 0x0 PUSH2 0x882 DUP3 PUSH1 0x0 PUSH2 0x15FA JUMP JUMPDEST SWAP3 SWAP2 POP POP JUMP JUMPDEST PUSH1 0x2 SLOAD PUSH1 0x1 PUSH1 0x1 PUSH1 0xA0 SHL SUB AND CALLER EQ PUSH2 0x8B3 JUMPI PUSH1 0x40 MLOAD PUSH4 0x47556579 PUSH1 0xE0 SHL DUP2 MSTORE PUSH1 0x4 ADD PUSH1 0x40 MLOAD DUP1 SWAP2 SUB SWAP1 REVERT JUMPDEST PUSH1 0x3 SLOAD PUSH1 0x1 PUSH1 0xA0 SHL SWAP1 DIV PUSH1 0xFF AND ISZERO PUSH2 0x8DE JUMPI PUSH1 0x40 MLOAD PUSH4 0x238F75D3 PUSH1 0xE0 SHL DUP2 MSTORE PUSH1 0x4 ADD PUSH1 0x40 MLOAD DUP1 SWAP2 SUB SWAP1 REVERT JUMPDEST PUSH1 0x0 DUP1 SLOAD PUSH1 0x1 PUSH1 0x1 PUSH1 0xA0 SHL SUB SWAP5 DUP6 AND PUSH1 0x1 PUSH1 0x1 PUSH1 0xA0 SHL SUB NOT SWAP2 DUP3 AND OR SWAP1 SWAP2 SSTORE PUSH1 0x1 DUP1 SLOAD SWAP4 DUP6 AND SWAP4 DUP3 AND SWAP4 SWAP1 SWAP4 OR SWAP1 SWAP3 SSTORE PUSH1 0x3 DUP1 SLOAD SWAP2 SWAP1 SWAP4 AND SWAP2 AND OR SWAP1 SSTORE JUMP JUMPDEST PUSH1 0x0 DUP1 SLOAD PUSH1 0x1 PUSH1 0x1 PUSH1 0xA0 SHL SUB AND CALLER EQ PUSH2 0x949 JUMPI PUSH1 0x40 MLOAD PUSH4 0x559B36F PUSH1 0xE1 SHL DUP2 MSTORE PUSH1 0x4 ADD PUSH1 0x40 MLOAD DUP1 SWAP2 SUB SWAP1 REVERT JUMPDEST DUP2 PUSH1 0x0 SUB PUSH2 0x959 JUMPI POP PUSH1 0x0 PUSH2 0x882 JUMP JUMPDEST DUP3 PUSH1 0x1 JUMPDEST PUSH1 0x14 DUP2 GT PUSH2 0xB7D JUMPI PUSH1 0x1 PUSH1 0x1 PUSH1 0xA0 SHL SUB DUP1 DUP4 AND PUSH1 0x0 SWAP1 DUP2 MSTORE PUSH1 0x4 PUSH1 0x20 MSTORE PUSH1 0x40 SWAP1 KECCAK256 SLOAD AND DUP1 PUSH2 0x98B JUMPI POP PUSH2 0xB7D JUMP JUMPDEST PUSH1 0x1 PUSH1 0x1 PUSH1 0xA0 SHL SUB DUP2 AND PUSH1 0x0 SWAP1 DUP2 MSTORE PUSH1 0x4 PUSH1 0x20 MSTORE PUSH1 0x40 SWAP1 KECCAK256 PUSH1 0x2 ADD SLOAD DUP3 GT PUSH2 0xB69 JUMPI PUSH1 0x0 PUSH2 0x9B8 DUP4 PUSH2 0x168C JUMP JUMPDEST SWAP1 POP PUSH1 0x0 PUSH2 0x2710 PUSH2 0x9C9 DUP4 DUP10 PUSH2 0x1B21 JUMP JUMPDEST PUSH2 0x9D3 SWAP2 SWAP1 PUSH2 0x1B38 JUMP JUMPDEST SWAP1 POP DUP1 ISZERO PUSH2 0xB66 JUMPI PUSH1 0x1 PUSH1 0x1 PUSH1 0xA0 SHL SUB DUP4 AND PUSH1 0x0 SWAP1 DUP2 MSTORE PUSH1 0x5 PUSH1 0x20 MSTORE PUSH1 0x40 DUP2 KECCAK256 DUP1 SLOAD DUP4 SWAP3 SWAP1 PUSH2 0xA03 SWAP1 DUP5 SWAP1 PUSH2 0x1AF5 JUMP JUMPDEST SWAP1 SWAP2 SSTORE POP POP PUSH1 0x1 PUSH1 0x1 PUSH1 0xA0 SHL SUB DUP4 AND PUSH1 0x0 SWAP1 DUP2 MSTORE PUSH1 0x6 PUSH1 0x20 SWAP1 DUP2 MSTORE PUSH1 0x40 DUP1 DUP4 KECCAK256 DUP8 DUP5 MSTORE SWAP1 SWAP2 MSTORE DUP2 KECCAK256 DUP1 SLOAD DUP4 SWAP3 SWAP1 PUSH2 0xA3B SWAP1 DUP5 SWAP1 PUSH2 0x1AF5 JUMP JUMPDEST SWAP1 SWAP2 SSTORE POP POP PUSH1 0x1 PUSH1 0x1 PUSH1 0xA0 SHL SUB DUP4 AND PUSH1 0x0 SWAP1 DUP2 MSTORE PUSH1 0x4 PUSH1 0x20 MSTORE PUSH1 0x40 DUP2 KECCAK256 PUSH1 0x3 ADD DUP1 SLOAD DUP4 SWAP3 SWAP1 PUSH2 0xA6B SWAP1 DUP5 SWAP1 PUSH2 0x1AF5 JUMP JUMPDEST SWAP3 POP POP DUP2 SWAP1 SSTORE POP DUP1 PUSH1 0x8 PUSH1 0x0 DUP3 DUP3 SLOAD PUSH2 0xA84 SWAP2 SWAP1 PUSH2 0x1AF5 JUMP JUMPDEST SWAP1 SWAP2 SSTORE POP PUSH2 0xA94 SWAP1 POP DUP2 DUP8 PUSH2 0x1AF5 JUMP JUMPDEST PUSH1 0x0 SLOAD SWAP1 SWAP7 POP PUSH1 0x1 PUSH1 0x1 PUSH1 0xA0 SHL SUB AND ISZERO PUSH2 0xB0F JUMPI PUSH1 0x0 SLOAD PUSH1 0x40 MLOAD PUSH4 0x35CFBD5B PUSH1 0xE1 SHL DUP2 MSTORE PUSH1 0x1 PUSH1 0x1 PUSH1 0xA0 SHL SUB DUP6 DUP2 AND PUSH1 0x4 DUP4 ADD MSTORE PUSH1 0x24 DUP3 ADD DUP5 SWAP1 MSTORE SWAP1 SWAP2 AND SWAP1 PUSH4 0x6B9F7AB6 SWAP1 PUSH1 0x44 ADD PUSH1 0x0 PUSH1 0x40 MLOAD DUP1 DUP4 SUB DUP2 PUSH1 0x0 DUP8 DUP1 EXTCODESIZE ISZERO DUP1 ISZERO PUSH2 0xAF6 JUMPI PUSH1 0x0 DUP1 REVERT JUMPDEST POP GAS CALL ISZERO DUP1 ISZERO PUSH2 0xB0A JUMPI RETURNDATASIZE PUSH1 0x0 DUP1 RETURNDATACOPY RETURNDATASIZE PUSH1 0x0 REVERT JUMPDEST POP POP POP POP JUMPDEST DUP8 PUSH1 0x1 PUSH1 0x1 PUSH1 0xA0 SHL SUB AND DUP4 PUSH1 0x1 PUSH1 0x1 PUSH1 0xA0 SHL SUB AND PUSH32 0x65DB98422E8B7340E0D6DFA99BBADD4BA95A51FEFAFD8F0E1CBBB2E819429A42 DUP7 DUP5 PUSH1 0x40 MLOAD PUSH2 0xB5D SWAP3 SWAP2 SWAP1 SWAP2 DUP3 MSTORE PUSH1 0x20 DUP3 ADD MSTORE PUSH1 0x40 ADD SWAP1 JUMP JUMPDEST PUSH1 0x40 MLOAD DUP1 SWAP2 SUB SWAP1 LOG3 JUMPDEST POP POP JUMPDEST SWAP2 POP DUP1 PUSH2 0xB75 DUP2 PUSH2 0x1B08 JUMP JUMPDEST SWAP2 POP POP PUSH2 0x95D JUMP JUMPDEST POP POP SWAP3 SWAP2 POP POP JUMP JUMPDEST PUSH1 0x2 SLOAD PUSH1 0x1 PUSH1 0x1 PUSH1 0xA0 SHL SUB AND CALLER EQ PUSH2 0xBB0 JUMPI PUSH1 0x40 MLOAD PUSH4 0x47556579 PUSH1 0xE0 SHL DUP2 MSTORE PUSH1 0x4 ADD PUSH1 0x40 MLOAD DUP1 SWAP2 SUB SWAP1 REVERT JUMPDEST PUSH1 0x3 SLOAD PUSH1 0x1 PUSH1 0xA0 SHL SWAP1 DIV PUSH1 0xFF AND ISZERO PUSH2 0xBDB JUMPI PUSH1 0x40 MLOAD PUSH4 0x238F75D3 PUSH1 0xE0 SHL DUP2 MSTORE PUSH1 0x4 ADD PUSH1 0x40 MLOAD DUP1 SWAP2 SUB SWAP1 REVERT JUMPDEST PUSH1 0x3 DUP1 SLOAD PUSH1 0xFF PUSH1 0xA0 SHL NOT AND PUSH1 0x1 PUSH1 0xA0 SHL OR SWAP1 SSTORE PUSH1 0x2 DUP1 SLOAD PUSH1 0x1 PUSH1 0x1 PUSH1 0xA0 SHL SUB NOT AND SWAP1 SSTORE JUMP JUMPDEST PUSH1 0x2 SLOAD PUSH1 0x1 PUSH1 0x1 PUSH1 0xA0 SHL SUB AND CALLER EQ PUSH2 0xC2B JUMPI PUSH1 0x40 MLOAD PUSH4 0x47556579 PUSH1 0xE0 SHL DUP2 MSTORE PUSH1 0x4 ADD PUSH1 0x40 MLOAD DUP1 SWAP2 SUB SWAP1 REVERT JUMPDEST PUSH1 0x3 SLOAD PUSH1 0x1 PUSH1 0xA0 SHL SWAP1 DIV PUSH1 0xFF AND ISZERO PUSH2 0xC56 JUMPI PUSH1 0x40 MLOAD PUSH4 0x238F75D3 PUSH1 0xE0 SHL DUP2 MSTORE PUSH1 0x4 ADD PUSH1 0x40 MLOAD DUP1 SWAP2 SUB SWAP1 REVERT JUMPDEST DUP5 DUP4 EQ DUP1 ISZERO PUSH2 0xC64 JUMPI POP DUP5 DUP2 EQ JUMPDEST PUSH2 0xCA7 JUMPI PUSH1 0x40 MLOAD PUSH3 0x461BCD PUSH1 0xE5 SHL DUP2 MSTORE PUSH1 0x20 PUSH1 0x4 DUP3 ADD MSTORE PUSH1 0xF PUSH1 0x24 DUP3 ADD MSTORE PUSH15 0x98CADCCEE8D040DAD2E6DAC2E8C6D PUSH1 0x8B SHL PUSH1 0x44 DUP3 ADD MSTORE PUSH1 0x64 ADD JUMPDEST PUSH1 0x40 MLOAD DUP1 SWAP2 SUB SWAP1 REVERT JUMPDEST PUSH1 0x0 JUMPDEST DUP6 DUP2 LT ISZERO PUSH2 0xD79 JUMPI DUP5 DUP5 DUP3 DUP2 DUP2 LT PUSH2 0xCC4 JUMPI PUSH2 0xCC4 PUSH2 0x1AC9 JUMP JUMPDEST SWAP1 POP PUSH1 0x20 MUL ADD CALLDATALOAD PUSH1 0x4 PUSH1 0x0 DUP10 DUP10 DUP6 DUP2 DUP2 LT PUSH2 0xCE1 JUMPI PUSH2 0xCE1 PUSH2 0x1AC9 JUMP JUMPDEST SWAP1 POP PUSH1 0x20 MUL ADD PUSH1 0x20 DUP2 ADD SWAP1 PUSH2 0xCF6 SWAP2 SWAP1 PUSH2 0x18B3 JUMP JUMPDEST PUSH1 0x1 PUSH1 0x1 PUSH1 0xA0 SHL SUB AND DUP2 MSTORE PUSH1 0x20 DUP2 ADD SWAP2 SWAP1 SWAP2 MSTORE PUSH1 0x40 ADD PUSH1 0x0 KECCAK256 PUSH1 0x3 ADD SSTORE DUP3 DUP3 DUP3 DUP2 DUP2 LT PUSH2 0xD25 JUMPI PUSH2 0xD25 PUSH2 0x1AC9 JUMP JUMPDEST SWAP1 POP PUSH1 0x20 MUL ADD CALLDATALOAD PUSH1 0x5 PUSH1 0x0 DUP10 DUP10 DUP6 DUP2 DUP2 LT PUSH2 0xD42 JUMPI PUSH2 0xD42 PUSH2 0x1AC9 JUMP JUMPDEST SWAP1 POP PUSH1 0x20 MUL ADD PUSH1 0x20 DUP2 ADD SWAP1 PUSH2 0xD57 SWAP2 SWAP1 PUSH2 0x18B3 JUMP JUMPDEST PUSH1 0x1 PUSH1 0x1 PUSH1 0xA0 SHL SUB AND DUP2 MSTORE PUSH1 0x20 DUP2 ADD SWAP2 SWAP1 SWAP2 MSTORE PUSH1 0x40 ADD PUSH1 0x0 KECCAK256 SSTORE PUSH1 0x1 ADD PUSH2 0xCAA JUMP JUMPDEST POP POP POP POP POP POP POP JUMP JUMPDEST PUSH1 0x1 PUSH1 0x1 PUSH1 0xA0 SHL SUB DUP3 AND PUSH2 0xDA9 JUMPI PUSH1 0x40 MLOAD PUSH4 0xD92E233D PUSH1 0xE0 SHL DUP2 MSTORE PUSH1 0x4 ADD PUSH1 0x40 MLOAD DUP1 SWAP2 SUB SWAP1 REVERT JUMPDEST PUSH1 0x1 PUSH1 0x1 PUSH1 0xA0 SHL SUB DUP3 AND PUSH1 0x0 SWAP1 DUP2 MSTORE PUSH1 0x4 PUSH1 0x20 DUP2 SWAP1 MSTORE PUSH1 0x40 SWAP1 SWAP2 KECCAK256 ADD SLOAD PUSH1 0xFF AND ISZERO PUSH2 0xDE7 JUMPI PUSH1 0x40 MLOAD PUSH4 0xEA075BF PUSH1 0xE2 SHL DUP2 MSTORE PUSH1 0x4 ADD PUSH1 0x40 MLOAD DUP1 SWAP2 SUB SWAP1 REVERT JUMPDEST DUP1 PUSH1 0x1 PUSH1 0x1 PUSH1 0xA0 SHL SUB AND DUP3 PUSH1 0x1 PUSH1 0x1 PUSH1 0xA0 SHL SUB AND SUB PUSH2 0xE19 JUMPI PUSH1 0x40 MLOAD PUSH4 0x2AF47B87 PUSH1 0xE1 SHL DUP2 MSTORE PUSH1 0x4 ADD PUSH1 0x40 MLOAD DUP1 SWAP2 SUB SWAP1 REVERT JUMPDEST PUSH1 0x1 PUSH1 0x1 PUSH1 0xA0 SHL SUB DUP2 AND ISZERO DUP1 ISZERO SWAP1 PUSH2 0xE4E JUMPI POP PUSH1 0x1 PUSH1 0x1 PUSH1 0xA0 SHL SUB DUP2 AND PUSH1 0x0 SWAP1 DUP2 MSTORE PUSH1 0x4 PUSH1 0x20 DUP2 SWAP1 MSTORE PUSH1 0x40 SWAP1 SWAP2 KECCAK256 ADD SLOAD PUSH1 0xFF AND ISZERO JUMPDEST ISZERO PUSH2 0xE6C JUMPI PUSH1 0x40 MLOAD PUSH4 0xC220845 PUSH1 0xE3 SHL DUP2 MSTORE PUSH1 0x4 ADD PUSH1 0x40 MLOAD DUP1 SWAP2 SUB SWAP1 REVERT JUMPDEST PUSH2 0xEA9 PUSH1 0x1 PUSH1 0x1 PUSH1 0xA0 SHL SUB PUSH32 0x0 AND DUP4 ADDRESS PUSH8 0xDE0B6B3A7640000 PUSH2 0x16F8 JUMP JUMPDEST PUSH8 0xDE0B6B3A7640000 PUSH1 0x9 PUSH1 0x0 DUP3 DUP3 SLOAD PUSH2 0xEC3 SWAP2 SWAP1 PUSH2 0x1AF5 JUMP JUMPDEST SWAP1 SWAP2 SSTORE POP POP PUSH1 0x1 SLOAD PUSH1 0x1 PUSH1 0x1 PUSH1 0xA0 SHL SUB AND ISZERO PUSH2 0x1029 JUMPI PUSH1 0x1 SLOAD PUSH1 0x40 MLOAD PUSH4 0x95EA7B3 PUSH1 0xE0 SHL DUP2 MSTORE PUSH1 0x1 PUSH1 0x1 PUSH1 0xA0 SHL SUB SWAP2 DUP3 AND PUSH1 0x4 DUP3 ADD MSTORE PUSH8 0xDE0B6B3A7640000 PUSH1 0x24 DUP3 ADD MSTORE PUSH32 0x0 SWAP1 SWAP2 AND SWAP1 PUSH4 0x95EA7B3 SWAP1 PUSH1 0x44 ADD PUSH1 0x20 PUSH1 0x40 MLOAD DUP1 DUP4 SUB DUP2 PUSH1 0x0 DUP8 GAS CALL ISZERO DUP1 ISZERO PUSH2 0xF54 JUMPI RETURNDATASIZE PUSH1 0x0 DUP1 RETURNDATACOPY RETURNDATASIZE PUSH1 0x0 REVERT JUMPDEST POP POP POP POP PUSH1 0x40 MLOAD RETURNDATASIZE PUSH1 0x1F NOT PUSH1 0x1F DUP3 ADD AND DUP3 ADD DUP1 PUSH1 0x40 MSTORE POP DUP2 ADD SWAP1 PUSH2 0xF78 SWAP2 SWAP1 PUSH2 0x1B5A JUMP JUMPDEST POP PUSH1 0x1 SLOAD PUSH1 0x40 MLOAD PUSH4 0x2276741B PUSH1 0xE0 SHL DUP2 MSTORE PUSH8 0xDE0B6B3A7640000 PUSH1 0x4 DUP3 ADD MSTORE PUSH1 0x1 PUSH1 0x1 PUSH1 0xA0 SHL SUB SWAP1 SWAP2 AND SWAP1 PUSH4 0x2276741B SWAP1 PUSH1 0x24 ADD PUSH1 0x0 PUSH1 0x40 MLOAD DUP1 DUP4 SUB DUP2 PUSH1 0x0 DUP8 DUP1 EXTCODESIZE ISZERO DUP1 ISZERO PUSH2 0xFC6 JUMPI PUSH1 0x0 DUP1 REVERT JUMPDEST POP GAS CALL SWAP3 POP POP POP DUP1 ISZERO PUSH2 0xFD7 JUMPI POP PUSH1 0x1 JUMPDEST ISZERO PUSH2 0x1029 JUMPI PUSH1 0x40 DUP1 MLOAD PUSH8 0xDE0B6B3A7640000 DUP2 MSTORE PUSH1 0x0 PUSH1 0x20 DUP3 ADD MSTORE PUSH1 0x1 PUSH1 0x1 PUSH1 0xA0 SHL SUB DUP5 AND SWAP2 PUSH32 0x285CF258850FF8CF5D55EC19E46476D4E3D5209972F80A7880A38AC7011E7023 SWAP2 ADD PUSH1 0x40 MLOAD DUP1 SWAP2 SUB SWAP1 LOG2 JUMPDEST PUSH1 0x1 PUSH1 0x1 PUSH1 0xA0 SHL SUB DUP1 DUP4 AND PUSH1 0x0 SWAP1 DUP2 MSTORE PUSH1 0x4 PUSH1 0x20 DUP2 SWAP1 MSTORE PUSH1 0x40 SWAP1 SWAP2 KECCAK256 SWAP1 DUP2 ADD DUP1 SLOAD PUSH1 0xFF NOT AND PUSH1 0x1 SWAP1 DUP2 OR SWAP1 SWAP2 SSTORE DUP2 SLOAD SWAP3 DUP5 AND PUSH1 0x1 PUSH1 0x1 PUSH1 0xA0 SHL SUB NOT SWAP1 SWAP4 AND DUP4 OR DUP3 SSTORE PUSH1 0x2 SWAP1 SWAP2 ADD SSTORE ISZERO PUSH2 0x10B8 JUMPI PUSH1 0x1 PUSH1 0x1 PUSH1 0xA0 SHL SUB DUP2 DUP2 AND PUSH1 0x0 SWAP1 DUP2 MSTORE PUSH1 0x4 PUSH1 0x20 SWAP1 DUP2 MSTORE PUSH1 0x40 DUP3 KECCAK256 PUSH1 0x1 SWAP1 DUP2 ADD DUP1 SLOAD SWAP2 DUP3 ADD DUP2 SSTORE DUP4 MSTORE SWAP2 KECCAK256 ADD DUP1 SLOAD PUSH1 0x1 PUSH1 0x1 PUSH1 0xA0 SHL SUB NOT AND SWAP2 DUP5 AND SWAP2 SWAP1 SWAP2 OR SWAP1 SSTORE JUMPDEST PUSH1 0x7 DUP1 SLOAD SWAP1 PUSH1 0x0 PUSH2 0x10C8 DUP4 PUSH2 0x1B08 JUMP JUMPDEST SWAP2 SWAP1 POP SSTORE POP DUP1 PUSH1 0x1 PUSH1 0x1 PUSH1 0xA0 SHL SUB AND DUP3 PUSH1 0x1 PUSH1 0x1 PUSH1 0xA0 SHL SUB AND PUSH32 0x2138B9314634F9FDD5E49BEE3EAF17CA557B6637524D0DB759711C3BFCD3D850 PUSH1 0x40 MLOAD PUSH1 0x40 MLOAD DUP1 SWAP2 SUB SWAP1 LOG3 POP POP JUMP JUMPDEST PUSH1 0x0 PUSH2 0x882 DUP3 PUSH2 0x1497 JUMP JUMPDEST PUSH1 0x2 SLOAD PUSH1 0x1 PUSH1 0x1 PUSH1 0xA0 SHL SUB AND CALLER EQ PUSH2 0x1147 JUMPI PUSH1 0x40 MLOAD PUSH4 0x47556579 PUSH1 0xE0 SHL DUP2 MSTORE PUSH1 0x4 ADD PUSH1 0x40 MLOAD DUP1 SWAP2 SUB SWAP1 REVERT JUMPDEST PUSH1 0x3 SLOAD PUSH1 0x1 PUSH1 0xA0 SHL SWAP1 DIV PUSH1 0xFF AND ISZERO PUSH2 0x1172 JUMPI PUSH1 0x40 MLOAD PUSH4 0x238F75D3 PUSH1 0xE0 SHL DUP2 MSTORE PUSH1 0x4 ADD PUSH1 0x40 MLOAD DUP1 SWAP2 SUB SWAP1 REVERT JUMPDEST DUP5 DUP4 EQ DUP1 ISZERO PUSH2 0x1180 JUMPI POP DUP5 DUP2 EQ JUMPDEST PUSH2 0x11BE JUMPI PUSH1 0x40 MLOAD PUSH3 0x461BCD PUSH1 0xE5 SHL DUP2 MSTORE PUSH1 0x20 PUSH1 0x4 DUP3 ADD MSTORE PUSH1 0xF PUSH1 0x24 DUP3 ADD MSTORE PUSH15 0x98CADCCEE8D040DAD2E6DAC2E8C6D PUSH1 0x8B SHL PUSH1 0x44 DUP3 ADD MSTORE PUSH1 0x64 ADD PUSH2 0xC9E JUMP JUMPDEST PUSH1 0x0 JUMPDEST DUP6 DUP2 LT ISZERO PUSH2 0xD79 JUMPI PUSH1 0x0 DUP8 DUP8 DUP4 DUP2 DUP2 LT PUSH2 0x11DD JUMPI PUSH2 0x11DD PUSH2 0x1AC9 JUMP JUMPDEST SWAP1 POP PUSH1 0x20 MUL ADD PUSH1 0x20 DUP2 ADD SWAP1 PUSH2 0x11F2 SWAP2 SWAP1 PUSH2 0x18B3 JUMP JUMPDEST SWAP1 POP PUSH1 0x0 DUP7 DUP7 DUP5 DUP2 DUP2 LT PUSH2 0x1208 JUMPI PUSH2 0x1208 PUSH2 0x1AC9 JUMP JUMPDEST SWAP1 POP PUSH1 0x20 MUL ADD PUSH1 0x20 DUP2 ADD SWAP1 PUSH2 0x121D SWAP2 SWAP1 PUSH2 0x18B3 JUMP JUMPDEST PUSH1 0x1 PUSH1 0x1 PUSH1 0xA0 SHL SUB DUP4 AND PUSH1 0x0 SWAP1 DUP2 MSTORE PUSH1 0x4 PUSH1 0x20 DUP2 SWAP1 MSTORE PUSH1 0x40 SWAP1 SWAP2 KECCAK256 ADD SLOAD SWAP1 SWAP2 POP PUSH1 0xFF AND ISZERO PUSH2 0x124C JUMPI POP POP PUSH2 0x1366 JUMP JUMPDEST PUSH1 0x1 PUSH1 0x1 PUSH1 0xA0 SHL SUB DUP3 DUP2 AND PUSH1 0x0 SWAP1 DUP2 MSTORE PUSH1 0x4 PUSH1 0x20 DUP2 SWAP1 MSTORE PUSH1 0x40 SWAP1 SWAP2 KECCAK256 DUP1 SLOAD PUSH1 0x1 PUSH1 0x1 PUSH1 0xA0 SHL SUB NOT AND SWAP3 DUP5 AND SWAP3 SWAP1 SWAP3 OR DUP3 SSTORE ADD DUP1 SLOAD PUSH1 0xFF NOT AND PUSH1 0x1 OR SWAP1 SSTORE DUP5 DUP5 DUP5 DUP2 DUP2 LT PUSH2 0x129B JUMPI PUSH2 0x129B PUSH2 0x1AC9 JUMP JUMPDEST PUSH1 0x1 PUSH1 0x1 PUSH1 0xA0 SHL SUB DUP1 DUP7 AND PUSH1 0x0 SWAP1 DUP2 MSTORE PUSH1 0x4 PUSH1 0x20 SWAP1 DUP2 MSTORE PUSH1 0x40 SWAP1 SWAP2 KECCAK256 SWAP3 MUL SWAP4 SWAP1 SWAP4 ADD CALLDATALOAD PUSH1 0x2 SWAP1 SWAP2 ADD SSTORE POP DUP2 AND ISZERO PUSH2 0x130E JUMPI PUSH1 0x1 PUSH1 0x1 PUSH1 0xA0 SHL SUB DUP2 DUP2 AND PUSH1 0x0 SWAP1 DUP2 MSTORE PUSH1 0x4 PUSH1 0x20 SWAP1 DUP2 MSTORE PUSH1 0x40 DUP3 KECCAK256 PUSH1 0x1 SWAP1 DUP2 ADD DUP1 SLOAD SWAP2 DUP3 ADD DUP2 SSTORE DUP4 MSTORE SWAP2 KECCAK256 ADD DUP1 SLOAD PUSH1 0x1 PUSH1 0x1 PUSH1 0xA0 SHL SUB NOT AND SWAP2 DUP5 AND SWAP2 SWAP1 SWAP2 OR SWAP1 SSTORE JUMPDEST PUSH1 0x7 DUP1 SLOAD SWAP1 PUSH1 0x0 PUSH2 0x131E DUP4 PUSH2 0x1B08 JUMP JUMPDEST SWAP2 SWAP1 POP SSTORE POP DUP1 PUSH1 0x1 PUSH1 0x1 PUSH1 0xA0 SHL SUB AND DUP3 PUSH1 0x1 PUSH1 0x1 PUSH1 0xA0 SHL SUB AND PUSH32 0x2138B9314634F9FDD5E49BEE3EAF17CA557B6637524D0DB759711C3BFCD3D850 PUSH1 0x40 MLOAD PUSH1 0x40 MLOAD DUP1 SWAP2 SUB SWAP1 LOG3 POP POP JUMPDEST PUSH1 0x1 ADD PUSH2 0x11C1 JUMP JUMPDEST PUSH1 0x3 SLOAD PUSH1 0x1 PUSH1 0x1 PUSH1 0xA0 SHL SUB AND CALLER EQ PUSH2 0x1399 JUMPI PUSH1 0x40 MLOAD PUSH4 0xE05F485 PUSH1 0xE1 SHL DUP2 MSTORE PUSH1 0x4 ADD PUSH1 0x40 MLOAD DUP1 SWAP2 SUB SWAP1 REVERT JUMPDEST PUSH1 0x0 DUP1 SLOAD PUSH1 0x1 PUSH1 0x1 PUSH1 0xA0 SHL SUB NOT AND PUSH1 0x1 PUSH1 0x1 PUSH1 0xA0 SHL SUB SWAP3 SWAP1 SWAP3 AND SWAP2 SWAP1 SWAP2 OR SWAP1 SSTORE JUMP JUMPDEST PUSH1 0x1 PUSH1 0x1 PUSH1 0xA0 SHL SUB DUP2 AND PUSH1 0x0 SWAP1 DUP2 MSTORE PUSH1 0x4 PUSH1 0x20 SWAP1 DUP2 MSTORE PUSH1 0x40 SWAP2 DUP3 SWAP1 KECCAK256 PUSH1 0x1 ADD DUP1 SLOAD DUP4 MLOAD DUP2 DUP5 MUL DUP2 ADD DUP5 ADD SWAP1 SWAP5 MSTORE DUP1 DUP5 MSTORE PUSH1 0x60 SWAP4 SWAP3 DUP4 ADD DUP3 DUP3 DUP1 ISZERO PUSH2 0x1428 JUMPI PUSH1 0x20 MUL DUP3 ADD SWAP2 SWAP1 PUSH1 0x0 MSTORE PUSH1 0x20 PUSH1 0x0 KECCAK256 SWAP1 JUMPDEST DUP2 SLOAD PUSH1 0x1 PUSH1 0x1 PUSH1 0xA0 SHL SUB AND DUP2 MSTORE PUSH1 0x1 SWAP1 SWAP2 ADD SWAP1 PUSH1 0x20 ADD DUP1 DUP4 GT PUSH2 0x140A JUMPI JUMPDEST POP POP POP POP POP SWAP1 POP SWAP2 SWAP1 POP JUMP JUMPDEST PUSH2 0x143C PUSH2 0x1734 JUMP JUMPDEST PUSH1 0x2 PUSH32 0x9B779B17422D0DF92223018B32B4D1FA46E071723D6817E2486D003BECC55F00 SSTORE JUMP JUMPDEST PUSH2 0x146F DUP4 DUP4 DUP4 PUSH1 0x1 PUSH2 0x1776 JUMP JUMPDEST PUSH2 0x870 JUMPI PUSH1 0x40 MLOAD PUSH4 0x5274AFE7 PUSH1 0xE0 SHL DUP2 MSTORE PUSH1 0x1 PUSH1 0x1 PUSH1 0xA0 SHL SUB DUP5 AND PUSH1 0x4 DUP3 ADD MSTORE PUSH1 0x24 ADD PUSH2 0xC9E JUMP JUMPDEST PUSH1 0x1 PUSH1 0x1 PUSH1 0xA0 SHL SUB DUP2 AND PUSH1 0x0 SWAP1 DUP2 MSTORE PUSH1 0x4 PUSH1 0x20 MSTORE PUSH1 0x40 DUP2 KECCAK256 DUP2 SWAP1 PUSH1 0x1 ADD DUP2 JUMPDEST DUP2 SLOAD DUP2 LT ISZERO PUSH2 0x1597 JUMPI PUSH1 0x0 SLOAD PUSH1 0x1 PUSH1 0x1 PUSH1 0xA0 SHL SUB AND ISZERO PUSH2 0x158F JUMPI PUSH1 0x0 DUP1 SLOAD DUP4 SLOAD PUSH1 0x1 PUSH1 0x1 PUSH1 0xA0 SHL SUB SWAP1 SWAP2 AND SWAP1 PUSH4 0x142A3DA3 SWAP1 DUP6 SWAP1 DUP6 SWAP1 DUP2 LT PUSH2 0x14FA JUMPI PUSH2 0x14FA PUSH2 0x1AC9 JUMP JUMPDEST PUSH1 0x0 SWAP2 DUP3 MSTORE PUSH1 0x20 SWAP1 SWAP2 KECCAK256 ADD SLOAD PUSH1 0x40 MLOAD PUSH1 0xE0 DUP4 SWAP1 SHL PUSH1 0x1 PUSH1 0x1 PUSH1 0xE0 SHL SUB NOT AND DUP2 MSTORE PUSH1 0x1 PUSH1 0x1 PUSH1 0xA0 SHL SUB SWAP1 SWAP2 AND PUSH1 0x4 DUP3 ADD MSTORE PUSH1 0x24 ADD PUSH1 0x20 PUSH1 0x40 MLOAD DUP1 DUP4 SUB DUP2 DUP7 GAS STATICCALL ISZERO DUP1 ISZERO PUSH2 0x154A JUMPI RETURNDATASIZE PUSH1 0x0 DUP1 RETURNDATACOPY RETURNDATASIZE PUSH1 0x0 REVERT JUMPDEST POP POP POP POP PUSH1 0x40 MLOAD RETURNDATASIZE PUSH1 0x1F NOT PUSH1 0x1F DUP3 ADD AND DUP3 ADD DUP1 PUSH1 0x40 MSTORE POP DUP2 ADD SWAP1 PUSH2 0x156E SWAP2 SWAP1 PUSH2 0x1AB0 JUMP JUMPDEST SWAP1 POP PUSH8 0x8AC7230489E80000 DUP2 LT PUSH2 0x158D JUMPI DUP4 PUSH2 0x1589 DUP2 PUSH2 0x1B08 JUMP JUMPDEST SWAP5 POP POP JUMPDEST POP JUMPDEST PUSH1 0x1 ADD PUSH2 0x14B6 JUMP JUMPDEST POP SWAP1 SWAP4 SWAP3 POP POP POP JUMP JUMPDEST PUSH1 0x0 PUSH1 0x7 DUP3 LT PUSH2 0x15B2 JUMPI POP PUSH1 0x14 SWAP2 SWAP1 POP JUMP JUMPDEST PUSH1 0x5 DUP3 LT PUSH2 0x15C2 JUMPI POP PUSH1 0x10 SWAP2 SWAP1 POP JUMP JUMPDEST PUSH1 0x3 DUP3 LT PUSH2 0x15D2 JUMPI POP PUSH1 0xC SWAP2 SWAP1 POP JUMP JUMPDEST PUSH1 0x2 DUP3 LT PUSH2 0x15E2 JUMPI POP PUSH1 0x8 SWAP2 SWAP1 POP JUMP JUMPDEST PUSH1 0x1 DUP3 LT PUSH2 0x15F2 JUMPI POP PUSH1 0x3 SWAP2 SWAP1 POP JUMP JUMPDEST POP PUSH1 0x1 SWAP2 SWAP1 POP JUMP JUMPDEST PUSH1 0x0 PUSH1 0x14 DUP3 LT PUSH2 0x160C JUMPI POP PUSH1 0x0 PUSH2 0x882 JUMP JUMPDEST PUSH1 0x1 PUSH1 0x1 PUSH1 0xA0 SHL SUB DUP4 AND PUSH1 0x0 SWAP1 DUP2 MSTORE PUSH1 0x4 PUSH1 0x20 MSTORE PUSH1 0x40 DUP2 KECCAK256 PUSH1 0x1 ADD DUP1 SLOAD SWAP1 SWAP2 JUMPDEST DUP3 SLOAD DUP2 LT ISZERO PUSH2 0x1683 JUMPI PUSH2 0x166F DUP4 DUP3 DUP2 SLOAD DUP2 LT PUSH2 0x164A JUMPI PUSH2 0x164A PUSH2 0x1AC9 JUMP JUMPDEST PUSH1 0x0 SWAP2 DUP3 MSTORE PUSH1 0x20 SWAP1 SWAP2 KECCAK256 ADD SLOAD PUSH1 0x1 PUSH1 0x1 PUSH1 0xA0 SHL SUB AND PUSH2 0x166A DUP8 PUSH1 0x1 PUSH2 0x1AF5 JUMP JUMPDEST PUSH2 0x15FA JUMP JUMPDEST PUSH2 0x1679 SWAP1 DUP4 PUSH2 0x1AF5 JUMP JUMPDEST SWAP2 POP PUSH1 0x1 ADD PUSH2 0x162C JUMP JUMPDEST POP SWAP5 SWAP4 POP POP POP POP JUMP JUMPDEST PUSH1 0x0 DUP2 PUSH1 0x1 SUB PUSH2 0x169F JUMPI POP PUSH2 0xBB8 SWAP2 SWAP1 POP JUMP JUMPDEST DUP2 PUSH1 0x2 SUB PUSH2 0x16B0 JUMPI POP PUSH2 0x7D0 SWAP2 SWAP1 POP JUMP JUMPDEST PUSH1 0x3 DUP3 LT ISZERO DUP1 ISZERO PUSH2 0x16C2 JUMPI POP PUSH1 0xA DUP3 GT ISZERO JUMPDEST ISZERO PUSH2 0x16D0 JUMPI POP PUSH2 0x3E8 SWAP2 SWAP1 POP JUMP JUMPDEST PUSH1 0xB DUP3 LT ISZERO DUP1 ISZERO PUSH2 0x16E2 JUMPI POP PUSH1 0x14 DUP3 GT ISZERO JUMPDEST ISZERO PUSH2 0x16F0 JUMPI POP PUSH2 0x1F4 SWAP2 SWAP1 POP JUMP JUMPDEST POP PUSH1 0x0 SWAP2 SWAP1 POP JUMP JUMPDEST PUSH2 0x1706 DUP5 DUP5 DUP5 DUP5 PUSH1 0x1 PUSH2 0x17DC JUMP JUMPDEST PUSH2 0x172E JUMPI PUSH1 0x40 MLOAD PUSH4 0x5274AFE7 PUSH1 0xE0 SHL DUP2 MSTORE PUSH1 0x1 PUSH1 0x1 PUSH1 0xA0 SHL SUB DUP6 AND PUSH1 0x4 DUP3 ADD MSTORE PUSH1 0x24 ADD PUSH2 0xC9E JUMP JUMPDEST POP POP POP POP JUMP JUMPDEST PUSH32 0x9B779B17422D0DF92223018B32B4D1FA46E071723D6817E2486D003BECC55F00 SLOAD PUSH1 0x2 SUB PUSH2 0x6E2 JUMPI PUSH1 0x40 MLOAD PUSH4 0x3EE5AEB5 PUSH1 0xE0 SHL DUP2 MSTORE PUSH1 0x4 ADD PUSH1 0x40 MLOAD DUP1 SWAP2 SUB SWAP1 REVERT JUMPDEST PUSH1 0x40 MLOAD PUSH4 0xA9059CBB PUSH1 0xE0 SHL PUSH1 0x0 DUP2 DUP2 MSTORE PUSH1 0x1 PUSH1 0x1 PUSH1 0xA0 SHL SUB DUP7 AND PUSH1 0x4 MSTORE PUSH1 0x24 DUP6 SWAP1 MSTORE SWAP2 PUSH1 0x20 DUP4 PUSH1 0x44 DUP2 DUP1 DUP12 GAS CALL SWAP3 POP PUSH1 0x1 PUSH1 0x0 MLOAD EQ DUP4 AND PUSH2 0x17D0 JUMPI DUP4 DUP4 ISZERO AND ISZERO PUSH2 0x17C3 JUMPI RETURNDATASIZE PUSH1 0x0 DUP3 RETURNDATACOPY RETURNDATASIZE DUP2 REVERT JUMPDEST PUSH1 0x0 DUP8 EXTCODESIZE GT RETURNDATASIZE ISZERO AND DUP4 AND SWAP3 POP JUMPDEST PUSH1 0x40 MSTORE POP SWAP5 SWAP4 POP POP POP POP JUMP JUMPDEST PUSH1 0x40 MLOAD PUSH4 0x23B872DD PUSH1 0xE0 SHL PUSH1 0x0 DUP2 DUP2 MSTORE PUSH1 0x1 PUSH1 0x1 PUSH1 0xA0 SHL SUB DUP8 DUP2 AND PUSH1 0x4 MSTORE DUP7 AND PUSH1 0x24 MSTORE PUSH1 0x44 DUP6 SWAP1 MSTORE SWAP2 PUSH1 0x20 DUP4 PUSH1 0x64 DUP2 DUP1 DUP13 GAS CALL SWAP3 POP PUSH1 0x1 PUSH1 0x0 MLOAD EQ DUP4 AND PUSH2 0x183C JUMPI DUP4 DUP4 ISZERO AND ISZERO PUSH2 0x182F JUMPI RETURNDATASIZE PUSH1 0x0 DUP3 RETURNDATACOPY RETURNDATASIZE DUP2 REVERT JUMPDEST PUSH1 0x0 DUP9 EXTCODESIZE GT RETURNDATASIZE ISZERO AND DUP4 AND SWAP3 POP JUMPDEST PUSH1 0x40 MSTORE POP PUSH1 0x0 PUSH1 0x60 MSTORE SWAP6 SWAP5 POP POP POP POP POP JUMP JUMPDEST PUSH1 0x40 MLOAD DUP1 PUSH2 0x2A0 ADD PUSH1 0x40 MSTORE DUP1 PUSH1 0x15 SWAP1 PUSH1 0x20 DUP3 MUL DUP1 CALLDATASIZE DUP4 CALLDATACOPY POP SWAP2 SWAP3 SWAP2 POP POP JUMP JUMPDEST DUP1 CALLDATALOAD PUSH1 0x1 PUSH1 0x1 PUSH1 0xA0 SHL SUB DUP2 AND DUP2 EQ PUSH2 0x1884 JUMPI PUSH1 0x0 DUP1 REVERT JUMPDEST SWAP2 SWAP1 POP JUMP JUMPDEST PUSH1 0x0 DUP1 PUSH1 0x40 DUP4 DUP6 SUB SLT ISZERO PUSH2 0x189C JUMPI PUSH1 0x0 DUP1 REVERT JUMPDEST PUSH2 0x18A5 DUP4 PUSH2 0x186D JUMP JUMPDEST SWAP5 PUSH1 0x20 SWAP4 SWAP1 SWAP4 ADD CALLDATALOAD SWAP4 POP POP POP JUMP JUMPDEST PUSH1 0x0 PUSH1 0x20 DUP3 DUP5 SUB SLT ISZERO PUSH2 0x18C5 JUMPI PUSH1 0x0 DUP1 REVERT JUMPDEST PUSH2 0x18CE DUP3 PUSH2 0x186D JUMP JUMPDEST SWAP4 SWAP3 POP POP POP JUMP JUMPDEST PUSH2 0x2A0 DUP2 ADD DUP2 DUP4 PUSH1 0x0 JUMPDEST PUSH1 0x15 DUP2 LT ISZERO PUSH2 0x18FE JUMPI DUP2 MLOAD DUP4 MSTORE PUSH1 0x20 SWAP3 DUP4 ADD SWAP3 SWAP1 SWAP2 ADD SWAP1 PUSH1 0x1 ADD PUSH2 0x18DF JUMP JUMPDEST POP POP POP SWAP3 SWAP2 POP POP JUMP JUMPDEST PUSH1 0x0 DUP1 PUSH1 0x0 PUSH1 0x60 DUP5 DUP7 SUB SLT ISZERO PUSH2 0x191C JUMPI PUSH1 0x0 DUP1 REVERT JUMPDEST PUSH2 0x1925 DUP5 PUSH2 0x186D JUMP JUMPDEST SWAP3 POP PUSH2 0x1933 PUSH1 0x20 DUP6 ADD PUSH2 0x186D JUMP JUMPDEST SWAP2 POP PUSH2 0x1941 PUSH1 0x40 DUP6 ADD PUSH2 0x186D JUMP JUMPDEST SWAP1 POP SWAP3 POP SWAP3 POP SWAP3 JUMP JUMPDEST PUSH1 0x0 DUP1 DUP4 PUSH1 0x1F DUP5 ADD SLT PUSH2 0x195C JUMPI PUSH1 0x0 DUP1 REVERT JUMPDEST POP DUP2 CALLDATALOAD PUSH8 0xFFFFFFFFFFFFFFFF DUP2 GT ISZERO PUSH2 0x1974 JUMPI PUSH1 0x0 DUP1 REVERT JUMPDEST PUSH1 0x20 DUP4 ADD SWAP2 POP DUP4 PUSH1 0x20 DUP3 PUSH1 0x5 SHL DUP6 ADD ADD GT ISZERO PUSH2 0x198F JUMPI PUSH1 0x0 DUP1 REVERT JUMPDEST SWAP3 POP SWAP3 SWAP1 POP JUMP JUMPDEST PUSH1 0x0 DUP1 PUSH1 0x0 DUP1 PUSH1 0x0 DUP1 PUSH1 0x60 DUP8 DUP10 SUB SLT ISZERO PUSH2 0x19AF JUMPI PUSH1 0x0 DUP1 REVERT JUMPDEST DUP7 CALLDATALOAD PUSH8 0xFFFFFFFFFFFFFFFF DUP1 DUP3 GT ISZERO PUSH2 0x19C7 JUMPI PUSH1 0x0 DUP1 REVERT JUMPDEST PUSH2 0x19D3 DUP11 DUP4 DUP12 ADD PUSH2 0x194A JUMP JUMPDEST SWAP1 SWAP9 POP SWAP7 POP PUSH1 0x20 DUP10 ADD CALLDATALOAD SWAP2 POP DUP1 DUP3 GT ISZERO PUSH2 0x19EC JUMPI PUSH1 0x0 DUP1 REVERT JUMPDEST PUSH2 0x19F8 DUP11 DUP4 DUP12 ADD PUSH2 0x194A JUMP JUMPDEST SWAP1 SWAP7 POP SWAP5 POP PUSH1 0x40 DUP10 ADD CALLDATALOAD SWAP2 POP DUP1 DUP3 GT ISZERO PUSH2 0x1A11 JUMPI PUSH1 0x0 DUP1 REVERT JUMPDEST POP PUSH2 0x1A1E DUP10 DUP3 DUP11 ADD PUSH2 0x194A JUMP JUMPDEST SWAP8 SWAP11 SWAP7 SWAP10 POP SWAP5 SWAP8 POP SWAP3 SWAP6 SWAP4 SWAP5 SWAP3 POP POP POP JUMP JUMPDEST PUSH1 0x0 DUP1 PUSH1 0x40 DUP4 DUP6 SUB SLT ISZERO PUSH2 0x1A43 JUMPI PUSH1 0x0 DUP1 REVERT JUMPDEST PUSH2 0x1A4C DUP4 PUSH2 0x186D JUMP JUMPDEST SWAP2 POP PUSH2 0x1A5A PUSH1 0x20 DUP5 ADD PUSH2 0x186D JUMP JUMPDEST SWAP1 POP SWAP3 POP SWAP3 SWAP1 POP JUMP JUMPDEST PUSH1 0x20 DUP1 DUP3 MSTORE DUP3 MLOAD DUP3 DUP3 ADD DUP2 SWAP1 MSTORE PUSH1 0x0 SWAP2 SWAP1 DUP5 DUP3 ADD SWAP1 PUSH1 0x40 DUP6 ADD SWAP1 DUP5 JUMPDEST DUP2 DUP2 LT ISZERO PUSH2 0x1AA4 JUMPI DUP4 MLOAD PUSH1 0x1 PUSH1 0x1 PUSH1 0xA0 SHL SUB AND DUP4 MSTORE SWAP3 DUP5 ADD SWAP3 SWAP2 DUP5 ADD SWAP2 PUSH1 0x1 ADD PUSH2 0x1A7F JUMP JUMPDEST POP SWAP1 SWAP7 SWAP6 POP POP POP POP POP POP JUMP JUMPDEST PUSH1 0x0 PUSH1 0x20 DUP3 DUP5 SUB SLT ISZERO PUSH2 0x1AC2 JUMPI PUSH1 0x0 DUP1 REVERT JUMPDEST POP MLOAD SWAP2 SWAP1 POP JUMP JUMPDEST PUSH4 0x4E487B71 PUSH1 0xE0 SHL PUSH1 0x0 MSTORE PUSH1 0x32 PUSH1 0x4 MSTORE PUSH1 0x24 PUSH1 0x0 REVERT JUMPDEST PUSH4 0x4E487B71 PUSH1 0xE0 SHL PUSH1 0x0 MSTORE PUSH1 0x11 PUSH1 0x4 MSTORE PUSH1 0x24 PUSH1 0x0 REVERT JUMPDEST DUP1 DUP3 ADD DUP1 DUP3 GT ISZERO PUSH2 0x882 JUMPI PUSH2 0x882 PUSH2 0x1ADF JUMP JUMPDEST PUSH1 0x0 PUSH1 0x1 DUP3 ADD PUSH2 0x1B1A JUMPI PUSH2 0x1B1A PUSH2 0x1ADF JUMP JUMPDEST POP PUSH1 0x1 ADD SWAP1 JUMP JUMPDEST DUP1 DUP3 MUL DUP2 ISZERO DUP3 DUP3 DIV DUP5 EQ OR PUSH2 0x882 JUMPI PUSH2 0x882 PUSH2 0x1ADF JUMP JUMPDEST PUSH1 0x0 DUP3 PUSH2 0x1B55 JUMPI PUSH4 0x4E487B71 PUSH1 0xE0 SHL PUSH1 0x0 MSTORE PUSH1 0x12 PUSH1 0x4 MSTORE PUSH1 0x24 PUSH1 0x0 REVERT JUMPDEST POP DIV SWAP1 JUMP JUMPDEST PUSH1 0x0 PUSH1 0x20 DUP3 DUP5 SUB SLT ISZERO PUSH2 0x1B6C JUMPI PUSH1 0x0 DUP1 REVERT JUMPDEST DUP2 MLOAD DUP1 ISZERO ISZERO DUP2 EQ PUSH2 0x18CE JUMPI PUSH1 0x0 DUP1 REVERT INVALID LOG2 PUSH5 0x6970667358 0x22 SLT KECCAK256 INVALID PUSH14 0x452E5B9C268B3B4F6B965EBFF2E4 PUSH5 0x7BA4478B31 PUSH29 0x3BD32493D86475A7CC64736F6C63430008180033000000000000000000 "},"methodIdentifiers":{"REGISTRATION_FEE()":"64b4f751","admin()":"f851a440","checkAndUnlockLevels(address)":"2573912c","claimReferralRewards()":"05eaab4b","completeSetup()":"8aea8f71","configure(address,address,address)":"55d28f20","distributeReferralCommission(address,uint256)":"8000d991","getAllLevelIncome(address)":"1e97f48a","getDirectReferrals(address)":"d2c8e0e5","getLevelIncome(address,uint256)":"64df8222","getQualifiedDirectsCount(address)":"b8458282","getReferrer(address)":"4a9fefc7","getTeamSize(address)":"519f1640","getUnlockedLevels(address)":"1f791b69","investmentEngine()":"30131384","isRegistered(address)":"c3c5a547","levelIncome(address,uint256)":"0b35d7d1","migrateEarnings(address[],uint256[],uint256[])":"9d2d743d","migrateUsers(address[],address[],uint256[])":"c631e2bd","osloDex()":"8565c2bf","osloToken()":"2acfbca3","referralRewards(address)":"53aaa63b","register(address,address)":"aa677354","setInvestmentEngine(address)":"cb4f51d1","setupComplete()":"b6635be6","timelock()":"d33219b4","totalCommissionsPaid()":"c6d83fcf","totalFeesCollected()":"60c6d8ae","totalRegistered()":"927416c0","usdt()":"2f48ab7d","userInfo(address)":"1959a002"}}}}}