{"contracts/libraries/OSLOConstants.sol":{"OSLOConstants":{"abi":[{"inputs":[],"name":"BASIS_POINTS","outputs":[{"internalType":"uint256","name":"","type":"uint256"}],"stateMutability":"view","type":"function"},{"inputs":[],"name":"CONTRACT_RESERVE","outputs":[{"internalType":"uint256","name":"","type":"uint256"}],"stateMutability":"view","type":"function"},{"inputs":[],"name":"DAO_MONTHLY_ROYALTY_BP","outputs":[{"internalType":"uint256","name":"","type":"uint256"}],"stateMutability":"view","type":"function"},{"inputs":[],"name":"DAO_TEAM_SIZE_REQUIREMENT","outputs":[{"internalType":"uint256","name":"","type":"uint256"}],"stateMutability":"view","type":"function"},{"inputs":[],"name":"DEAD_ADDRESS","outputs":[{"internalType":"address","name":"","type":"address"}],"stateMutability":"view","type":"function"},{"inputs":[],"name":"DEPOSIT_TO_COMPANY_BP","outputs":[{"internalType":"uint256","name":"","type":"uint256"}],"stateMutability":"view","type":"function"},{"inputs":[],"name":"DEPOSIT_TO_DEX_BP","outputs":[{"internalType":"uint256","name":"","type":"uint256"}],"stateMutability":"view","type":"function"},{"inputs":[],"name":"DEPOSIT_TO_PERFORMANCE_BP","outputs":[{"internalType":"uint256","name":"","type":"uint256"}],"stateMutability":"view","type":"function"},{"inputs":[],"name":"DEPOSIT_TO_REWARD_BP","outputs":[{"internalType":"uint256","name":"","type":"uint256"}],"stateMutability":"view","type":"function"},{"inputs":[],"name":"DEX_ALLOCATION","outputs":[{"internalType":"uint256","name":"","type":"uint256"}],"stateMutability":"view","type":"function"},{"inputs":[],"name":"INITIAL_DEX_OSLO","outputs":[{"internalType":"uint256","name":"","type":"uint256"}],"stateMutability":"view","type":"function"},{"inputs":[],"name":"INITIAL_DEX_USDT","outputs":[{"internalType":"uint256","name":"","type":"uint256"}],"stateMutability":"view","type":"function"},{"inputs":[],"name":"LAUNCH_TIMESTAMP","outputs":[{"internalType":"uint256","name":"","type":"uint256"}],"stateMutability":"view","type":"function"},{"inputs":[],"name":"LIFETIME_RATE","outputs":[{"internalType":"uint256","name":"","type":"uint256"}],"stateMutability":"view","type":"function"},{"inputs":[],"name":"LIFETIME_RATE_START","outputs":[{"internalType":"uint256","name":"","type":"uint256"}],"stateMutability":"view","type":"function"},{"inputs":[],"name":"MAX_BURN_SUPPLY","outputs":[{"internalType":"uint256","name":"","type":"uint256"}],"stateMutability":"view","type":"function"},{"inputs":[],"name":"MAX_DAO_MEMBERS","outputs":[{"internalType":"uint256","name":"","type":"uint256"}],"stateMutability":"view","type":"function"},{"inputs":[],"name":"MAX_DEPOSIT_PER_TX","outputs":[{"internalType":"uint256","name":"","type":"uint256"}],"stateMutability":"view","type":"function"},{"inputs":[],"name":"MAX_REFERRAL_LEVELS","outputs":[{"internalType":"uint256","name":"","type":"uint256"}],"stateMutability":"view","type":"function"},{"inputs":[],"name":"MAX_TOTAL_DEPOSIT_PER_USER","outputs":[{"internalType":"uint256","name":"","type":"uint256"}],"stateMutability":"view","type":"function"},{"inputs":[],"name":"MIN_REMAINING_SUPPLY","outputs":[{"internalType":"uint256","name":"","type":"uint256"}],"stateMutability":"view","type":"function"},{"inputs":[],"name":"MIN_WITHDRAWAL_THRESHOLD","outputs":[{"internalType":"uint256","name":"","type":"uint256"}],"stateMutability":"view","type":"function"},{"inputs":[],"name":"PKG1_FRI","outputs":[{"internalType":"uint256","name":"","type":"uint256"}],"stateMutability":"view","type":"function"},{"inputs":[],"name":"PKG1_MIN","outputs":[{"internalType":"uint256","name":"","type":"uint256"}],"stateMutability":"view","type":"function"},{"inputs":[],"name":"PKG1_MON","outputs":[{"internalType":"uint256","name":"","type":"uint256"}],"stateMutability":"view","type":"function"},{"inputs":[],"name":"PKG1_SAT","outputs":[{"internalType":"uint256","name":"","type":"uint256"}],"stateMutability":"view","type":"function"},{"inputs":[],"name":"PKG1_SUN","outputs":[{"internalType":"uint256","name":"","type":"uint256"}],"stateMutability":"view","type":"function"},{"inputs":[],"name":"PKG1_THU","outputs":[{"internalType":"uint256","name":"","type":"uint256"}],"stateMutability":"view","type":"function"},{"inputs":[],"name":"PKG1_TUE","outputs":[{"internalType":"uint256","name":"","type":"uint256"}],"stateMutability":"view","type":"function"},{"inputs":[],"name":"PKG1_WED","outputs":[{"internalType":"uint256","name":"","type":"uint256"}],"stateMutability":"view","type":"function"},{"inputs":[],"name":"PKG1_WEEKLY_TOTAL","outputs":[{"internalType":"uint256","name":"","type":"uint256"}],"stateMutability":"view","type":"function"},{"inputs":[],"name":"PKG2_FRI","outputs":[{"internalType":"uint256","name":"","type":"uint256"}],"stateMutability":"view","type":"function"},{"inputs":[],"name":"PKG2_MIN","outputs":[{"internalType":"uint256","name":"","type":"uint256"}],"stateMutability":"view","type":"function"},{"inputs":[],"name":"PKG2_MON","outputs":[{"internalType":"uint256","name":"","type":"uint256"}],"stateMutability":"view","type":"function"},{"inputs":[],"name":"PKG2_SAT","outputs":[{"internalType":"uint256","name":"","type":"uint256"}],"stateMutability":"view","type":"function"},{"inputs":[],"name":"PKG2_SUN","outputs":[{"internalType":"uint256","name":"","type":"uint256"}],"stateMutability":"view","type":"function"},{"inputs":[],"name":"PKG2_THU","outputs":[{"internalType":"uint256","name":"","type":"uint256"}],"stateMutability":"view","type":"function"},{"inputs":[],"name":"PKG2_TUE","outputs":[{"internalType":"uint256","name":"","type":"uint256"}],"stateMutability":"view","type":"function"},{"inputs":[],"name":"PKG2_WED","outputs":[{"internalType":"uint256","name":"","type":"uint256"}],"stateMutability":"view","type":"function"},{"inputs":[],"name":"PKG2_WEEKLY_TOTAL","outputs":[{"internalType":"uint256","name":"","type":"uint256"}],"stateMutability":"view","type":"function"},{"inputs":[],"name":"PROPOSAL_THRESHOLD_BP","outputs":[{"internalType":"uint256","name":"","type":"uint256"}],"stateMutability":"view","type":"function"},{"inputs":[],"name":"QUALIFIED_DIRECT_MIN_DEPOSIT","outputs":[{"internalType":"uint256","name":"","type":"uint256"}],"stateMutability":"view","type":"function"},{"inputs":[],"name":"RANK1_BONUS_BP","outputs":[{"internalType":"uint256","name":"","type":"uint256"}],"stateMutability":"view","type":"function"},{"inputs":[],"name":"RANK1_TURNOVER","outputs":[{"internalType":"uint256","name":"","type":"uint256"}],"stateMutability":"view","type":"function"},{"inputs":[],"name":"RANK2_BONUS_BP","outputs":[{"internalType":"uint256","name":"","type":"uint256"}],"stateMutability":"view","type":"function"},{"inputs":[],"name":"RANK2_TURNOVER","outputs":[{"internalType":"uint256","name":"","type":"uint256"}],"stateMutability":"view","type":"function"},{"inputs":[],"name":"RANK3_BONUS_BP","outputs":[{"internalType":"uint256","name":"","type":"uint256"}],"stateMutability":"view","type":"function"},{"inputs":[],"name":"RANK3_TURNOVER","outputs":[{"internalType":"uint256","name":"","type":"uint256"}],"stateMutability":"view","type":"function"},{"inputs":[],"name":"RANK4_BONUS_BP","outputs":[{"internalType":"uint256","name":"","type":"uint256"}],"stateMutability":"view","type":"function"},{"inputs":[],"name":"RANK4_TURNOVER","outputs":[{"internalType":"uint256","name":"","type":"uint256"}],"stateMutability":"view","type":"function"},{"inputs":[],"name":"RANK5_BONUS_BP","outputs":[{"internalType":"uint256","name":"","type":"uint256"}],"stateMutability":"view","type":"function"},{"inputs":[],"name":"RANK5_TURNOVER","outputs":[{"internalType":"uint256","name":"","type":"uint256"}],"stateMutability":"view","type":"function"},{"inputs":[],"name":"RANK6_BONUS_BP","outputs":[{"internalType":"uint256","name":"","type":"uint256"}],"stateMutability":"view","type":"function"},{"inputs":[],"name":"RANK6_TURNOVER","outputs":[{"internalType":"uint256","name":"","type":"uint256"}],"stateMutability":"view","type":"function"},{"inputs":[],"name":"RANK7_BONUS_BP","outputs":[{"internalType":"uint256","name":"","type":"uint256"}],"stateMutability":"view","type":"function"},{"inputs":[],"name":"RANK7_TURNOVER","outputs":[{"internalType":"uint256","name":"","type":"uint256"}],"stateMutability":"view","type":"function"},{"inputs":[],"name":"RANK_MAIN_LEG_MAX_BP","outputs":[{"internalType":"uint256","name":"","type":"uint256"}],"stateMutability":"view","type":"function"},{"inputs":[],"name":"RANK_OTHER_LEGS_MIN_BP","outputs":[{"internalType":"uint256","name":"","type":"uint256"}],"stateMutability":"view","type":"function"},{"inputs":[],"name":"REFERRAL_L11_20_BP","outputs":[{"internalType":"uint256","name":"","type":"uint256"}],"stateMutability":"view","type":"function"},{"inputs":[],"name":"REFERRAL_L1_BP","outputs":[{"internalType":"uint256","name":"","type":"uint256"}],"stateMutability":"view","type":"function"},{"inputs":[],"name":"REFERRAL_L2_BP","outputs":[{"internalType":"uint256","name":"","type":"uint256"}],"stateMutability":"view","type":"function"},{"inputs":[],"name":"REFERRAL_L3_10_BP","outputs":[{"internalType":"uint256","name":"","type":"uint256"}],"stateMutability":"view","type":"function"},{"inputs":[],"name":"RETURN_CAP_MULTIPLIER","outputs":[{"internalType":"uint256","name":"","type":"uint256"}],"stateMutability":"view","type":"function"},{"inputs":[],"name":"SELL_BURN_BP","outputs":[{"internalType":"uint256","name":"","type":"uint256"}],"stateMutability":"view","type":"function"},{"inputs":[],"name":"SELL_TAX_BP","outputs":[{"internalType":"uint256","name":"","type":"uint256"}],"stateMutability":"view","type":"function"},{"inputs":[],"name":"SELL_TAX_FEE_BURN_BP","outputs":[{"internalType":"uint256","name":"","type":"uint256"}],"stateMutability":"view","type":"function"},{"inputs":[],"name":"SELL_TAX_TO_BURN_BP","outputs":[{"internalType":"uint256","name":"","type":"uint256"}],"stateMutability":"view","type":"function"},{"inputs":[],"name":"SELL_TAX_TO_CONTRACT_BP","outputs":[{"internalType":"uint256","name":"","type":"uint256"}],"stateMutability":"view","type":"function"},{"inputs":[],"name":"SELL_TO_LIQUIDITY_BP","outputs":[{"internalType":"uint256","name":"","type":"uint256"}],"stateMutability":"view","type":"function"},{"inputs":[],"name":"TIMELOCK_DELAY","outputs":[{"internalType":"uint256","name":"","type":"uint256"}],"stateMutability":"view","type":"function"},{"inputs":[],"name":"TOTAL_SUPPLY","outputs":[{"internalType":"uint256","name":"","type":"uint256"}],"stateMutability":"view","type":"function"},{"inputs":[],"name":"TREASURY_TO_DAO_BP","outputs":[{"internalType":"uint256","name":"","type":"uint256"}],"stateMutability":"view","type":"function"},{"inputs":[],"name":"TREASURY_TO_LP_BP","outputs":[{"internalType":"uint256","name":"","type":"uint256"}],"stateMutability":"view","type":"function"},{"inputs":[],"name":"TREASURY_TO_RANK_BP","outputs":[{"internalType":"uint256","name":"","type":"uint256"}],"stateMutability":"view","type":"function"},{"inputs":[],"name":"VOTING_PERIOD_BLOCKS","outputs":[{"internalType":"uint256","name":"","type":"uint256"}],"stateMutability":"view","type":"function"},{"inputs":[],"name":"WEEK_DURATION","outputs":[{"internalType":"uint256","name":"","type":"uint256"}],"stateMutability":"view","type":"function"},{"inputs":[],"name":"WITHDRAWAL_FEE_BP","outputs":[{"internalType":"uint256","name":"","type":"uint256"}],"stateMutability":"view","type":"function"}],"evm":{"bytecode":{"linkReferences":{},"object":"61072f61003a600b82828239805160001a60731461002d57634e487b7160e01b600052600060045260246000fd5b30600052607381538281f3fe73000000000000000000000000000000000000000030146080604052600436106104695760003560e01c80637d4ceb1211610256578063a4f8bd1511610150578063dadf4022116100cd578063ed4d5f9711610091578063ed4d5f97146106d0578063eda6c732146106e1578063f494e41e146106e9578063f81172f6146105e5578063fdce696c146106f157600080fd5b8063dadf4022146105b9578063dc6538e2146106ac578063dc67edbe146104a3578063e1f1c4a714610689578063e954f41d146106c557600080fd5b8063c7ccbafe11610114578063c7ccbafe1461069b578063c86ebc991461053a578063c8dc8111146106ac578063ce18b69f146106b5578063d9bc6cc4146106bd57600080fd5b8063a4f8bd1514610689578063adf9ef9e146104a3578063b136bdda14610692578063b8b8fe861461049b578063b9d39bb4146104a357600080fd5b80638c46387a116101de578063a060dfb0116101a2578063a060dfb01461065e578063a23df8dc1461046e578063a29dfff31461066e578063a35e793d14610678578063a497b1341461068057600080fd5b80638c46387a14610632578063902d55a5146106445780639c663737146104a35780639fa425721461053a5780639fb691541461065657600080fd5b8063831f23ee11610225578063831f23ee146105fe57806386f72d9f14610606578063882d893b146106175780638bfef2f4146106205780638bffc5b5146104a357600080fd5b80637d4ceb12146105e5578063810f01b9146105ed5780638138c046146105f657806382b14df31461053157600080fd5b806341554dc5116103675780635e5966f1116102ef578063740bb5fa116102b3578063740bb5fa146105ca57806376f5f700146105db5780637a8ba8ad1461059f5780637b6e349a146104a35780637ba65bfe1461055257600080fd5b80635e5966f1146105b1578063617b99d2146105b957806364d196091461046e578063700741c1146104d657806373662711146105c157600080fd5b80634bcaeb8d116103365780634bcaeb8d146105745780634e6fd6c41461057e5780635049700f1461059f57806356b505401461049b5780635ba1c1a9146105a757600080fd5b806341554dc51461054957806341f1c0d914610552578063484d395f146105635780634936704e1461049b57600080fd5b80631b14f4eb116103f5578063309cb946116103b9578063309cb94614610518578063313b0df4146105205780633a7046b5146105285780633ca73ba11461053157806340c0eff31461053a57600080fd5b80631b14f4eb146104d65780631d55c1c4146104e757806320f57350146104ef578063232c5348146105005780632ab542471461050857600080fd5b806307f47c501161043c57806307f47c50146104a3578063080c1b3e146104ab5780630e3fce46146104bd5780630feb116a146104c5578063196039c7146104ce57600080fd5b8063018b21f61461046e578063039a9a281461048a578063059d7efc1461049b578063063f39111461046e575b600080fd5b6104776103e881565b6040519081526020015b60405180910390f35b61047769054b40b1f852bda0000081565b610477603281565b610477606481565b6104776a09195731e2ce35eb00000081565b610477602d81565b61047761023f81565b610477605581565b61047769152d02c7e14af680000081565b610477601e81565b6104776969e10de76676d080000081565b61047760c881565b610477686c6b935b8bbd40000081565b610477605f81565b610477600f81565b6104776101f481565b6104776107d081565b610477678ac7230489e8000081565b61047761030281565b61047769010f0cf064dd5920000081565b610477690fe1c215e8f838e0000081565b6104776276a70081565b61058761dead81565b6040516001600160a01b039091168152602001610481565b610477600081565b6104776202a30081565b610477607d81565b610477601481565b61047761264881565b61047769fe1c215e8f838e00000081565b61047762093a8081565b610477607381565b610477610fa081565b610477606981565b610477600a81565b610477692a5a058fc295ed00000081565b610477610bb881565b6104776a021165458500521280000081565b6104776a084376fc33378d97c0000081565b6104776a092e8434aaaf80e180000081565b610477603781565b61047768878678326eac90000081565b6104776201518081565b61047760fa81565b61047761177081565b61047761271081565b610477611b5881565b61047769021e19e0c9bab240000081565b61047761138881565b610477600381565b610477604b81565b6104776369ffca8081565b61047769eb0d387777f349c0000081565b610477606e81565b610477604181565b61047760058156fea26469706673582212202917ff132d834b42a3d84fb8315eca3ed73e5cd34c2b46ae49dfb9d090f9af2d64736f6c63430008180033","opcodes":"PUSH2 0x72F PUSH2 0x3A PUSH1 0xB DUP3 DUP3 DUP3 CODECOPY DUP1 MLOAD PUSH1 0x0 BYTE PUSH1 0x73 EQ PUSH2 0x2D JUMPI PUSH4 0x4E487B71 PUSH1 0xE0 SHL PUSH1 0x0 MSTORE PUSH1 0x0 PUSH1 0x4 MSTORE PUSH1 0x24 PUSH1 0x0 REVERT JUMPDEST ADDRESS PUSH1 0x0 MSTORE PUSH1 0x73 DUP2 MSTORE8 DUP3 DUP2 RETURN INVALID PUSH20 0x0 ADDRESS EQ PUSH1 0x80 PUSH1 0x40 MSTORE PUSH1 0x4 CALLDATASIZE LT PUSH2 0x469 JUMPI PUSH1 0x0 CALLDATALOAD PUSH1 0xE0 SHR DUP1 PUSH4 0x7D4CEB12 GT PUSH2 0x256 JUMPI DUP1 PUSH4 0xA4F8BD15 GT PUSH2 0x150 JUMPI DUP1 PUSH4 0xDADF4022 GT PUSH2 0xCD JUMPI DUP1 PUSH4 0xED4D5F97 GT PUSH2 0x91 JUMPI DUP1 PUSH4 0xED4D5F97 EQ PUSH2 0x6D0 JUMPI DUP1 PUSH4 0xEDA6C732 EQ PUSH2 0x6E1 JUMPI DUP1 PUSH4 0xF494E41E EQ PUSH2 0x6E9 JUMPI DUP1 PUSH4 0xF81172F6 EQ PUSH2 0x5E5 JUMPI DUP1 PUSH4 0xFDCE696C EQ PUSH2 0x6F1 JUMPI PUSH1 0x0 DUP1 REVERT JUMPDEST DUP1 PUSH4 0xDADF4022 EQ PUSH2 0x5B9 JUMPI DUP1 PUSH4 0xDC6538E2 EQ PUSH2 0x6AC JUMPI DUP1 PUSH4 0xDC67EDBE EQ PUSH2 0x4A3 JUMPI DUP1 PUSH4 0xE1F1C4A7 EQ PUSH2 0x689 JUMPI DUP1 PUSH4 0xE954F41D EQ PUSH2 0x6C5 JUMPI PUSH1 0x0 DUP1 REVERT JUMPDEST DUP1 PUSH4 0xC7CCBAFE GT PUSH2 0x114 JUMPI DUP1 PUSH4 0xC7CCBAFE EQ PUSH2 0x69B JUMPI DUP1 PUSH4 0xC86EBC99 EQ PUSH2 0x53A JUMPI DUP1 PUSH4 0xC8DC8111 EQ PUSH2 0x6AC JUMPI DUP1 PUSH4 0xCE18B69F EQ PUSH2 0x6B5 JUMPI DUP1 PUSH4 0xD9BC6CC4 EQ PUSH2 0x6BD JUMPI PUSH1 0x0 DUP1 REVERT JUMPDEST DUP1 PUSH4 0xA4F8BD15 EQ PUSH2 0x689 JUMPI DUP1 PUSH4 0xADF9EF9E EQ PUSH2 0x4A3 JUMPI DUP1 PUSH4 0xB136BDDA EQ PUSH2 0x692 JUMPI DUP1 PUSH4 0xB8B8FE86 EQ PUSH2 0x49B JUMPI DUP1 PUSH4 0xB9D39BB4 EQ PUSH2 0x4A3 JUMPI PUSH1 0x0 DUP1 REVERT JUMPDEST DUP1 PUSH4 0x8C46387A GT PUSH2 0x1DE JUMPI DUP1 PUSH4 0xA060DFB0 GT PUSH2 0x1A2 JUMPI DUP1 PUSH4 0xA060DFB0 EQ PUSH2 0x65E JUMPI DUP1 PUSH4 0xA23DF8DC EQ PUSH2 0x46E JUMPI DUP1 PUSH4 0xA29DFFF3 EQ PUSH2 0x66E JUMPI DUP1 PUSH4 0xA35E793D EQ PUSH2 0x678 JUMPI DUP1 PUSH4 0xA497B134 EQ PUSH2 0x680 JUMPI PUSH1 0x0 DUP1 REVERT JUMPDEST DUP1 PUSH4 0x8C46387A EQ PUSH2 0x632 JUMPI DUP1 PUSH4 0x902D55A5 EQ PUSH2 0x644 JUMPI DUP1 PUSH4 0x9C663737 EQ PUSH2 0x4A3 JUMPI DUP1 PUSH4 0x9FA42572 EQ PUSH2 0x53A JUMPI DUP1 PUSH4 0x9FB69154 EQ PUSH2 0x656 JUMPI PUSH1 0x0 DUP1 REVERT JUMPDEST DUP1 PUSH4 0x831F23EE GT PUSH2 0x225 JUMPI DUP1 PUSH4 0x831F23EE EQ PUSH2 0x5FE JUMPI DUP1 PUSH4 0x86F72D9F EQ PUSH2 0x606 JUMPI DUP1 PUSH4 0x882D893B EQ PUSH2 0x617 JUMPI DUP1 PUSH4 0x8BFEF2F4 EQ PUSH2 0x620 JUMPI DUP1 PUSH4 0x8BFFC5B5 EQ PUSH2 0x4A3 JUMPI PUSH1 0x0 DUP1 REVERT JUMPDEST DUP1 PUSH4 0x7D4CEB12 EQ PUSH2 0x5E5 JUMPI DUP1 PUSH4 0x810F01B9 EQ PUSH2 0x5ED JUMPI DUP1 PUSH4 0x8138C046 EQ PUSH2 0x5F6 JUMPI DUP1 PUSH4 0x82B14DF3 EQ PUSH2 0x531 JUMPI PUSH1 0x0 DUP1 REVERT JUMPDEST DUP1 PUSH4 0x41554DC5 GT PUSH2 0x367 JUMPI DUP1 PUSH4 0x5E5966F1 GT PUSH2 0x2EF JUMPI DUP1 PUSH4 0x740BB5FA GT PUSH2 0x2B3 JUMPI DUP1 PUSH4 0x740BB5FA EQ PUSH2 0x5CA JUMPI DUP1 PUSH4 0x76F5F700 EQ PUSH2 0x5DB JUMPI DUP1 PUSH4 0x7A8BA8AD EQ PUSH2 0x59F JUMPI DUP1 PUSH4 0x7B6E349A EQ PUSH2 0x4A3 JUMPI DUP1 PUSH4 0x7BA65BFE EQ PUSH2 0x552 JUMPI PUSH1 0x0 DUP1 REVERT JUMPDEST DUP1 PUSH4 0x5E5966F1 EQ PUSH2 0x5B1 JUMPI DUP1 PUSH4 0x617B99D2 EQ PUSH2 0x5B9 JUMPI DUP1 PUSH4 0x64D19609 EQ PUSH2 0x46E JUMPI DUP1 PUSH4 0x700741C1 EQ PUSH2 0x4D6 JUMPI DUP1 PUSH4 0x73662711 EQ PUSH2 0x5C1 JUMPI PUSH1 0x0 DUP1 REVERT JUMPDEST DUP1 PUSH4 0x4BCAEB8D GT PUSH2 0x336 JUMPI DUP1 PUSH4 0x4BCAEB8D EQ PUSH2 0x574 JUMPI DUP1 PUSH4 0x4E6FD6C4 EQ PUSH2 0x57E JUMPI DUP1 PUSH4 0x5049700F EQ PUSH2 0x59F JUMPI DUP1 PUSH4 0x56B50540 EQ PUSH2 0x49B JUMPI DUP1 PUSH4 0x5BA1C1A9 EQ PUSH2 0x5A7 JUMPI PUSH1 0x0 DUP1 REVERT JUMPDEST DUP1 PUSH4 0x41554DC5 EQ PUSH2 0x549 JUMPI DUP1 PUSH4 0x41F1C0D9 EQ PUSH2 0x552 JUMPI DUP1 PUSH4 0x484D395F EQ PUSH2 0x563 JUMPI DUP1 PUSH4 0x4936704E EQ PUSH2 0x49B JUMPI PUSH1 0x0 DUP1 REVERT JUMPDEST DUP1 PUSH4 0x1B14F4EB GT PUSH2 0x3F5 JUMPI DUP1 PUSH4 0x309CB946 GT PUSH2 0x3B9 JUMPI DUP1 PUSH4 0x309CB946 EQ PUSH2 0x518 JUMPI DUP1 PUSH4 0x313B0DF4 EQ PUSH2 0x520 JUMPI DUP1 PUSH4 0x3A7046B5 EQ PUSH2 0x528 JUMPI DUP1 PUSH4 0x3CA73BA1 EQ PUSH2 0x531 JUMPI DUP1 PUSH4 0x40C0EFF3 EQ PUSH2 0x53A JUMPI PUSH1 0x0 DUP1 REVERT JUMPDEST DUP1 PUSH4 0x1B14F4EB EQ PUSH2 0x4D6 JUMPI DUP1 PUSH4 0x1D55C1C4 EQ PUSH2 0x4E7 JUMPI DUP1 PUSH4 0x20F57350 EQ PUSH2 0x4EF JUMPI DUP1 PUSH4 0x232C5348 EQ PUSH2 0x500 JUMPI DUP1 PUSH4 0x2AB54247 EQ PUSH2 0x508 JUMPI PUSH1 0x0 DUP1 REVERT JUMPDEST DUP1 PUSH4 0x7F47C50 GT PUSH2 0x43C JUMPI DUP1 PUSH4 0x7F47C50 EQ PUSH2 0x4A3 JUMPI DUP1 PUSH4 0x80C1B3E EQ PUSH2 0x4AB JUMPI DUP1 PUSH4 0xE3FCE46 EQ PUSH2 0x4BD JUMPI DUP1 PUSH4 0xFEB116A EQ PUSH2 0x4C5 JUMPI DUP1 PUSH4 0x196039C7 EQ PUSH2 0x4CE JUMPI PUSH1 0x0 DUP1 REVERT JUMPDEST DUP1 PUSH4 0x18B21F6 EQ PUSH2 0x46E JUMPI DUP1 PUSH4 0x39A9A28 EQ PUSH2 0x48A JUMPI DUP1 PUSH4 0x59D7EFC EQ PUSH2 0x49B JUMPI DUP1 PUSH4 0x63F3911 EQ PUSH2 0x46E JUMPI JUMPDEST PUSH1 0x0 DUP1 REVERT JUMPDEST PUSH2 0x477 PUSH2 0x3E8 DUP2 JUMP JUMPDEST PUSH1 0x40 MLOAD SWAP1 DUP2 MSTORE PUSH1 0x20 ADD JUMPDEST PUSH1 0x40 MLOAD DUP1 SWAP2 SUB SWAP1 RETURN JUMPDEST PUSH2 0x477 PUSH10 0x54B40B1F852BDA00000 DUP2 JUMP JUMPDEST PUSH2 0x477 PUSH1 0x32 DUP2 JUMP JUMPDEST PUSH2 0x477 PUSH1 0x64 DUP2 JUMP JUMPDEST PUSH2 0x477 PUSH11 0x9195731E2CE35EB000000 DUP2 JUMP JUMPDEST PUSH2 0x477 PUSH1 0x2D DUP2 JUMP JUMPDEST PUSH2 0x477 PUSH2 0x23F DUP2 JUMP JUMPDEST PUSH2 0x477 PUSH1 0x55 DUP2 JUMP JUMPDEST PUSH2 0x477 PUSH10 0x152D02C7E14AF6800000 DUP2 JUMP JUMPDEST PUSH2 0x477 PUSH1 0x1E DUP2 JUMP JUMPDEST PUSH2 0x477 PUSH10 0x69E10DE76676D0800000 DUP2 JUMP JUMPDEST PUSH2 0x477 PUSH1 0xC8 DUP2 JUMP JUMPDEST PUSH2 0x477 PUSH9 0x6C6B935B8BBD400000 DUP2 JUMP JUMPDEST PUSH2 0x477 PUSH1 0x5F DUP2 JUMP JUMPDEST PUSH2 0x477 PUSH1 0xF DUP2 JUMP JUMPDEST PUSH2 0x477 PUSH2 0x1F4 DUP2 JUMP JUMPDEST PUSH2 0x477 PUSH2 0x7D0 DUP2 JUMP JUMPDEST PUSH2 0x477 PUSH8 0x8AC7230489E80000 DUP2 JUMP JUMPDEST PUSH2 0x477 PUSH2 0x302 DUP2 JUMP JUMPDEST PUSH2 0x477 PUSH10 0x10F0CF064DD59200000 DUP2 JUMP JUMPDEST PUSH2 0x477 PUSH10 0xFE1C215E8F838E00000 DUP2 JUMP JUMPDEST PUSH2 0x477 PUSH3 0x76A700 DUP2 JUMP JUMPDEST PUSH2 0x587 PUSH2 0xDEAD DUP2 JUMP JUMPDEST PUSH1 0x40 MLOAD PUSH1 0x1 PUSH1 0x1 PUSH1 0xA0 SHL SUB SWAP1 SWAP2 AND DUP2 MSTORE PUSH1 0x20 ADD PUSH2 0x481 JUMP JUMPDEST PUSH2 0x477 PUSH1 0x0 DUP2 JUMP JUMPDEST PUSH2 0x477 PUSH3 0x2A300 DUP2 JUMP JUMPDEST PUSH2 0x477 PUSH1 0x7D DUP2 JUMP JUMPDEST PUSH2 0x477 PUSH1 0x14 DUP2 JUMP JUMPDEST PUSH2 0x477 PUSH2 0x2648 DUP2 JUMP JUMPDEST PUSH2 0x477 PUSH10 0xFE1C215E8F838E000000 DUP2 JUMP JUMPDEST PUSH2 0x477 PUSH3 0x93A80 DUP2 JUMP JUMPDEST PUSH2 0x477 PUSH1 0x73 DUP2 JUMP JUMPDEST PUSH2 0x477 PUSH2 0xFA0 DUP2 JUMP JUMPDEST PUSH2 0x477 PUSH1 0x69 DUP2 JUMP JUMPDEST PUSH2 0x477 PUSH1 0xA DUP2 JUMP JUMPDEST PUSH2 0x477 PUSH10 0x2A5A058FC295ED000000 DUP2 JUMP JUMPDEST PUSH2 0x477 PUSH2 0xBB8 DUP2 JUMP JUMPDEST PUSH2 0x477 PUSH11 0x211654585005212800000 DUP2 JUMP JUMPDEST PUSH2 0x477 PUSH11 0x84376FC33378D97C00000 DUP2 JUMP JUMPDEST PUSH2 0x477 PUSH11 0x92E8434AAAF80E1800000 DUP2 JUMP JUMPDEST PUSH2 0x477 PUSH1 0x37 DUP2 JUMP JUMPDEST PUSH2 0x477 PUSH9 0x878678326EAC900000 DUP2 JUMP JUMPDEST PUSH2 0x477 PUSH3 0x15180 DUP2 JUMP JUMPDEST PUSH2 0x477 PUSH1 0xFA DUP2 JUMP JUMPDEST PUSH2 0x477 PUSH2 0x1770 DUP2 JUMP JUMPDEST PUSH2 0x477 PUSH2 0x2710 DUP2 JUMP JUMPDEST PUSH2 0x477 PUSH2 0x1B58 DUP2 JUMP JUMPDEST PUSH2 0x477 PUSH10 0x21E19E0C9BAB2400000 DUP2 JUMP JUMPDEST PUSH2 0x477 PUSH2 0x1388 DUP2 JUMP JUMPDEST PUSH2 0x477 PUSH1 0x3 DUP2 JUMP JUMPDEST PUSH2 0x477 PUSH1 0x4B DUP2 JUMP JUMPDEST PUSH2 0x477 PUSH4 0x69FFCA80 DUP2 JUMP JUMPDEST PUSH2 0x477 PUSH10 0xEB0D387777F349C00000 DUP2 JUMP JUMPDEST PUSH2 0x477 PUSH1 0x6E DUP2 JUMP JUMPDEST PUSH2 0x477 PUSH1 0x41 DUP2 JUMP JUMPDEST PUSH2 0x477 PUSH1 0x5 DUP2 JUMP INVALID LOG2 PUSH5 0x6970667358 0x22 SLT KECCAK256 0x29 OR SELFDESTRUCT SGT 0x2D DUP4 0x4B TIMESTAMP LOG3 0xD8 0x4F 0xB8 BALANCE MCOPY 0xCA RETURNDATACOPY 0xD7 RETURNDATACOPY TLOAD 0xD3 0x4C 0x2B CHAINID 0xAE BLOBHASH 0xDF 0xB9 0xD0 SWAP1 0xF9 0xAF 0x2D PUSH5 0x736F6C6343 STOP ADDMOD XOR STOP CALLER "},"methodIdentifiers":{"BASIS_POINTS()":"e1f1c4a7","CONTRACT_RESERVE()":"080c1b3e","DAO_MONTHLY_ROYALTY_BP()":"56b50540","DAO_TEAM_SIZE_REQUIREMENT()":"a35e793d","DEAD_ADDRESS()":"4e6fd6c4","DEPOSIT_TO_COMPANY_BP()":"b8b8fe86","DEPOSIT_TO_DEX_BP()":"73662711","DEPOSIT_TO_PERFORMANCE_BP()":"059d7efc","DEPOSIT_TO_REWARD_BP()":"b9d39bb4","DEX_ALLOCATION()":"1b14f4eb","INITIAL_DEX_OSLO()":"700741c1","INITIAL_DEX_USDT()":"2ab54247","LAUNCH_TIMESTAMP()":"e954f41d","LIFETIME_RATE()":"0e3fce46","LIFETIME_RATE_START()":"4bcaeb8d","MAX_BURN_SUPPLY()":"8c46387a","MAX_DAO_MEMBERS()":"232c5348","MAX_DEPOSIT_PER_TX()":"41f1c0d9","MAX_REFERRAL_LEVELS()":"617b99d2","MAX_TOTAL_DEPOSIT_PER_USER()":"7ba65bfe","MIN_REMAINING_SUPPLY()":"ed4d5f97","MIN_WITHDRAWAL_THRESHOLD()":"c86ebc99","PKG1_FRI()":"adf9ef9e","PKG1_MIN()":"40c0eff3","PKG1_MON()":"07f47c50","PKG1_SAT()":"196039c7","PKG1_SUN()":"9fb69154","PKG1_THU()":"f494e41e","PKG1_TUE()":"d9bc6cc4","PKG1_WED()":"309cb946","PKG1_WEEKLY_TOTAL()":"0feb116a","PKG2_FRI()":"8138c046","PKG2_MIN()":"a060dfb0","PKG2_MON()":"f81172f6","PKG2_SAT()":"9c663737","PKG2_SUN()":"5e5966f1","PKG2_THU()":"eda6c732","PKG2_TUE()":"7b6e349a","PKG2_WED()":"7d4ceb12","PKG2_WEEKLY_TOTAL()":"41554dc5","PROPOSAL_THRESHOLD_BP()":"dc67edbe","QUALIFIED_DIRECT_MIN_DEPOSIT()":"9fa42572","RANK1_BONUS_BP()":"8bffc5b5","RANK1_TURNOVER()":"c7ccbafe","RANK2_BONUS_BP()":"4936704e","RANK2_TURNOVER()":"039a9a28","RANK3_BONUS_BP()":"1d55c1c4","RANK3_TURNOVER()":"484d395f","RANK4_BONUS_BP()":"dadf4022","RANK4_TURNOVER()":"86f72d9f","RANK5_BONUS_BP()":"313b0df4","RANK5_TURNOVER()":"20f57350","RANK6_BONUS_BP()":"831f23ee","RANK6_TURNOVER()":"740bb5fa","RANK7_BONUS_BP()":"fdce696c","RANK7_TURNOVER()":"8bfef2f4","RANK_MAIN_LEG_MAX_BP()":"810f01b9","RANK_OTHER_LEGS_MIN_BP()":"a497b134","REFERRAL_L11_20_BP()":"3a7046b5","REFERRAL_L1_BP()":"882d893b","REFERRAL_L2_BP()":"82b14df3","REFERRAL_L3_10_BP()":"a23df8dc","RETURN_CAP_MULTIPLIER()":"ce18b69f","SELL_BURN_BP()":"dc6538e2","SELL_TAX_BP()":"64d19609","SELL_TAX_FEE_BURN_BP()":"063f3911","SELL_TAX_TO_BURN_BP()":"3ca73ba1","SELL_TAX_TO_CONTRACT_BP()":"b136bdda","SELL_TO_LIQUIDITY_BP()":"c8dc8111","TIMELOCK_DELAY()":"5ba1c1a9","TOTAL_SUPPLY()":"902d55a5","TREASURY_TO_DAO_BP()":"7a8ba8ad","TREASURY_TO_LP_BP()":"a4f8bd15","TREASURY_TO_RANK_BP()":"5049700f","VOTING_PERIOD_BLOCKS()":"a29dfff3","WEEK_DURATION()":"76f5f700","WITHDRAWAL_FEE_BP()":"018b21f6"}}}}}