{"contracts/OSLODEX.sol":{"OSLODEX":{"abi":[{"inputs":[{"internalType":"address","name":"_usdt","type":"address"},{"internalType":"address","name":"_osloToken","type":"address"}],"stateMutability":"nonpayable","type":"constructor"},{"inputs":[],"name":"InsufficientReserve","type":"error"},{"inputs":[],"name":"OnlyAdmin","type":"error"},{"inputs":[],"name":"OnlyInvestmentEngine","type":"error"},{"inputs":[],"name":"OnlyLiquidityManager","type":"error"},{"inputs":[],"name":"OnlyReferralOrIE","type":"error"},{"inputs":[],"name":"OnlyTimelock","type":"error"},{"inputs":[],"name":"ReentrancyGuardReentrantCall","type":"error"},{"inputs":[{"internalType":"address","name":"token","type":"address"}],"name":"SafeERC20FailedOperation","type":"error"},{"inputs":[],"name":"SetupAlreadyComplete","type":"error"},{"inputs":[],"name":"SlippageExceeded","type":"error"},{"inputs":[],"name":"ZeroAddress","type":"error"},{"inputs":[],"name":"ZeroAmount","type":"error"},{"anonymous":false,"inputs":[{"indexed":false,"internalType":"uint256","name":"usdtIn","type":"uint256"},{"indexed":false,"internalType":"uint256","name":"osloOut","type":"uint256"}],"name":"DepositProcessed","type":"event"},{"anonymous":false,"inputs":[{"indexed":false,"internalType":"uint256","name":"usdtAmount","type":"uint256"},{"indexed":false,"internalType":"uint256","name":"osloAmount","type":"uint256"}],"name":"LiquidityDeposited","type":"event"},{"anonymous":false,"inputs":[{"indexed":false,"internalType":"uint256","name":"newPrice","type":"uint256"}],"name":"PriceUpdated","type":"event"},{"anonymous":false,"inputs":[{"indexed":true,"internalType":"address","name":"user","type":"address"},{"indexed":false,"internalType":"bool","name":"usdtToOslo","type":"bool"},{"indexed":false,"internalType":"uint256","name":"inputAmount","type":"uint256"},{"indexed":false,"internalType":"uint256","name":"outputAmount","type":"uint256"},{"indexed":false,"internalType":"uint256","name":"price","type":"uint256"}],"name":"Swapped","type":"event"},{"anonymous":false,"inputs":[{"indexed":false,"internalType":"uint256","name":"osloIn","type":"uint256"},{"indexed":false,"internalType":"uint256","name":"usdtOut","type":"uint256"},{"indexed":false,"internalType":"address","name":"recipient","type":"address"}],"name":"WithdrawalProcessed","type":"event"},{"inputs":[{"internalType":"uint256","name":"usdtAmount","type":"uint256"},{"internalType":"uint256","name":"osloAmount","type":"uint256"}],"name":"addInitialLiquidity","outputs":[],"stateMutability":"nonpayable","type":"function"},{"inputs":[{"internalType":"uint256","name":"usdtAmount","type":"uint256"}],"name":"addLiquidityFromFees","outputs":[],"stateMutability":"nonpayable","type":"function"},{"inputs":[],"name":"admin","outputs":[{"internalType":"address","name":"","type":"address"}],"stateMutability":"view","type":"function"},{"inputs":[],"name":"completeSetup","outputs":[],"stateMutability":"nonpayable","type":"function"},{"inputs":[{"internalType":"address","name":"_timelock","type":"address"},{"internalType":"address","name":"_liquidityManager","type":"address"},{"internalType":"address","name":"_investmentEngine","type":"address"}],"name":"configure","outputs":[],"stateMutability":"nonpayable","type":"function"},{"inputs":[{"internalType":"address","name":"_investmentEngine","type":"address"}],"name":"forceSetInvestmentEngine","outputs":[],"stateMutability":"nonpayable","type":"function"},{"inputs":[{"internalType":"address","name":"_referralContract","type":"address"}],"name":"forceSetReferralContract","outputs":[],"stateMutability":"nonpayable","type":"function"},{"inputs":[{"internalType":"uint256","name":"osloAmount","type":"uint256"}],"name":"getOSLOForUSDTOutput","outputs":[{"internalType":"uint256","name":"","type":"uint256"}],"stateMutability":"view","type":"function"},{"inputs":[],"name":"getPrice","outputs":[{"internalType":"uint256","name":"","type":"uint256"}],"stateMutability":"view","type":"function"},{"inputs":[],"name":"getReserves","outputs":[{"internalType":"uint256","name":"_usdtRes","type":"uint256"},{"internalType":"uint256","name":"_osloRes","type":"uint256"}],"stateMutability":"view","type":"function"},{"inputs":[{"internalType":"uint256","name":"usdtAmount","type":"uint256"}],"name":"getUSDTForOSLOOutput","outputs":[{"internalType":"uint256","name":"","type":"uint256"}],"stateMutability":"view","type":"function"},{"inputs":[{"internalType":"uint256","name":"usdtAmount","type":"uint256"}],"name":"injectUSDTLiquidity","outputs":[],"stateMutability":"nonpayable","type":"function"},{"inputs":[],"name":"investmentEngine","outputs":[{"internalType":"address","name":"","type":"address"}],"stateMutability":"view","type":"function"},{"inputs":[],"name":"lastPrice","outputs":[{"internalType":"uint256","name":"","type":"uint256"}],"stateMutability":"view","type":"function"},{"inputs":[],"name":"liquidityManager","outputs":[{"internalType":"address","name":"","type":"address"}],"stateMutability":"view","type":"function"},{"inputs":[],"name":"osloReserve","outputs":[{"internalType":"uint256","name":"","type":"uint256"}],"stateMutability":"view","type":"function"},{"inputs":[],"name":"osloToken","outputs":[{"internalType":"contract IERC20","name":"","type":"address"}],"stateMutability":"view","type":"function"},{"inputs":[{"internalType":"uint256","name":"usdtAmount","type":"uint256"}],"name":"processDeposit","outputs":[{"internalType":"uint256","name":"osloAmount","type":"uint256"}],"stateMutability":"nonpayable","type":"function"},{"inputs":[{"internalType":"uint256","name":"osloAmount","type":"uint256"},{"internalType":"address","name":"recipient","type":"address"}],"name":"processWithdrawal","outputs":[{"internalType":"uint256","name":"usdtAmount","type":"uint256"}],"stateMutability":"nonpayable","type":"function"},{"inputs":[],"name":"referralContract","outputs":[{"internalType":"address","name":"","type":"address"}],"stateMutability":"view","type":"function"},{"inputs":[{"internalType":"uint256","name":"osloAmount","type":"uint256"}],"name":"replenishOsloReserve","outputs":[],"stateMutability":"nonpayable","type":"function"},{"inputs":[{"internalType":"address","name":"_investmentEngine","type":"address"}],"name":"setInvestmentEngine","outputs":[],"stateMutability":"nonpayable","type":"function"},{"inputs":[{"internalType":"address","name":"_referralContract","type":"address"}],"name":"setReferralContract","outputs":[],"stateMutability":"nonpayable","type":"function"},{"inputs":[],"name":"setupComplete","outputs":[{"internalType":"bool","name":"","type":"bool"}],"stateMutability":"view","type":"function"},{"inputs":[{"internalType":"uint256","name":"osloAmount","type":"uint256"},{"internalType":"uint256","name":"minUSDTAmount","type":"uint256"}],"name":"swapOSLOForUSDT","outputs":[{"internalType":"uint256","name":"usdtAmount","type":"uint256"}],"stateMutability":"nonpayable","type":"function"},{"inputs":[{"internalType":"uint256","name":"usdtAmount","type":"uint256"},{"internalType":"uint256","name":"minOsloAmount","type":"uint256"}],"name":"swapUSDTForOSLO","outputs":[{"internalType":"uint256","name":"osloAmount","type":"uint256"}],"stateMutability":"nonpayable","type":"function"},{"inputs":[{"internalType":"uint256","name":"usdtAmount","type":"uint256"},{"internalType":"address","name":"recipient","type":"address"}],"name":"swapYieldForOSLO","outputs":[{"internalType":"uint256","name":"osloAmount","type":"uint256"}],"stateMutability":"nonpayable","type":"function"},{"inputs":[],"name":"timelock","outputs":[{"internalType":"address","name":"","type":"address"}],"stateMutability":"view","type":"function"},{"inputs":[],"name":"totalSwaps","outputs":[{"internalType":"uint256","name":"","type":"uint256"}],"stateMutability":"view","type":"function"},{"inputs":[],"name":"totalVolumeUSDT","outputs":[{"internalType":"uint256","name":"","type":"uint256"}],"stateMutability":"view","type":"function"},{"inputs":[],"name":"usdt","outputs":[{"internalType":"contract IERC20","name":"","type":"address"}],"stateMutability":"view","type":"function"},{"inputs":[],"name":"usdtReserve","outputs":[{"internalType":"uint256","name":"","type":"uint256"}],"stateMutability":"view","type":"function"}],"evm":{"bytecode":{"linkReferences":{},"object":"60c06040523480156200001157600080fd5b506040516200204c3803806200204c8339810160408190526200003491620000dc565b60017f9b779b17422d0df92223018b32b4d1fa46e071723d6817e2486d003becc55f00556001600160a01b03821615806200007657506001600160a01b038116155b15620000955760405163d92e233d60e01b815260040160405180910390fd5b6001600160a01b039182166080521660a052600080546001600160a01b0319163317905562000114565b80516001600160a01b0381168114620000d757600080fd5b919050565b60008060408385031215620000f057600080fd5b620000fb83620000bf565b91506200010b60208401620000bf565b90509250929050565b60805160a051611e7f620001cd6000396000818161026c015281816105fb015281816106cb01528181610968015281816109ea01528181610a3401528181610bd101528181610c3a01528181610dc70152818161100f0152818161135801528181611617015281816117e401526119040152600081816102ab015281816105530152818161082401528181610b4401528181610fda01528181611323015281816115e20152818161179f01526119f60152611e7f6000f3fe608060405234801561001057600080fd5b50600436106101f05760003560e01c806383bbdd5f1161010f578063b6635be6116100a2578063d33219b411610071578063d33219b41461042f578063ee3b038f14610442578063f843e64114610455578063f851a4401461046857600080fd5b8063b6635be6146103d2578063bb069b93146103f6578063c2c9068714610409578063cb4f51d11461041c57600080fd5b8063a40f4fa1116100de578063a40f4fa11461039a578063a7978031146103ad578063ac257a6e146103c0578063b4a800ce146103c957600080fd5b806383bbdd5f146103785780638aea8f711461038157806398d5fdca14610389578063a1e26e7b1461039157600080fd5b806330cf2aeb1161018757806347aa7ea41161015657806347aa7ea41461032c578063528816c61461033f57806355d28f20146103525780637dad19db1461036557600080fd5b806330cf2aeb146102e057806333827438146102f3578063362ce52b146103065780633984a3aa1461031957600080fd5b80632276741b116101c35780632276741b146102545780632acfbca3146102675780632f48ab7d146102a657806330131384146102cd57600080fd5b8063053f14da146101f557806306ad5a47146102115780630902f1ac146102265780630cc2055a14610241575b600080fd5b6101fe60095481565b6040519081526020015b60405180910390f35b61022461021f366004611c9d565b61047b565b005b60055460065460408051928352602083019190915201610208565b6101fe61024f366004611cb8565b6104ef565b610224610262366004611cb8565b6107cb565b61028e7f000000000000000000000000000000000000000000000000000000000000000081565b6040516001600160a01b039091168152602001610208565b61028e7f000000000000000000000000000000000000000000000000000000000000000081565b60035461028e906001600160a01b031681565b6101fe6102ee366004611cd1565b6108f8565b60025461028e906001600160a01b031681565b610224610314366004611cb8565b610d6e565b610224610327366004611c9d565b610e09565b6101fe61033a366004611cb8565b610e7d565b6101fe61034d366004611cf3565b610eda565b610224610360366004611d1f565b61115a565b60045461028e906001600160a01b031681565b6101fe60075481565b610224611202565b6101fe61127d565b6101fe60065481565b6102246103a8366004611cd1565b6112c2565b6101fe6103bb366004611cb8565b61142b565b6101fe60055481565b6101fe60085481565b6004546103e690600160a01b900460ff1681565b6040519015158152602001610208565b610224610404366004611c9d565b6114bd565b6101fe610417366004611cd1565b6114e8565b61022461042a366004611c9d565b61171b565b60015461028e906001600160a01b031681565b610224610450366004611cb8565b611746565b6101fe610463366004611cf3565b611879565b60005461028e906001600160a01b031681565b6001546001600160a01b031633146104a657604051630e05f48560e11b815260040160405180910390fd5b6001600160a01b0381166104cd5760405163d92e233d60e01b815260040160405180910390fd5b600480546001600160a01b0319166001600160a01b0392909216919091179055565b6003546000906001600160a01b0316331461051d57604051630559b36f60e11b815260040160405180910390fd5b610525611ae5565b8160000361054657604051631f2a200560e01b815260040160405180910390fd5b61057b6001600160a01b037f000000000000000000000000000000000000000000000000000000000000000016333085611b01565b600060055411801561058f57506000600654115b156105c057816005546105a29190611d78565b6006546105af9084611d8b565b6105b99190611da2565b90506105c3565b50805b806000036105e457604051631f2a200560e01b815260040160405180910390fd5b6040516370a0823160e01b815230600482015281907f00000000000000000000000000000000000000000000000000000000000000006001600160a01b0316906370a0823190602401602060405180830381865afa15801561064a573d6000803e3d6000fd5b505050506040513d601f19601f8201168201806040525081019061066e9190611dc4565b101561068d576040516328b35f2160e01b815260040160405180910390fd5b816005600082825461069f9190611d78565b9250508190555080600660008282546106b89190611ddd565b909155506106f290506001600160a01b037f0000000000000000000000000000000000000000000000000000000000000000163383611b42565b60008060065411610704576000610726565b60065460055461071c90670de0b6b3a7640000611d8b565b6107269190611da2565b9050826007600082825461073a9190611d78565b90915550506008805490600061074f83611df0565b909155505060408051848152602081018490527f3d53ffd94e6169fe8616aef06a81eba2335ff27eac4a60886ad869b22c4f347b910160405180910390a1604051818152600080516020611e0a8339815191529060200160405180910390a1506107c66001600080516020611e2a83398151915255565b919050565b6004546001600160a01b031633146107f65760405163a004974960e01b815260040160405180910390fd5b8060000361081757604051631f2a200560e01b815260040160405180910390fd5b61084c6001600160a01b037f000000000000000000000000000000000000000000000000000000000000000016333084611b01565b806005600082825461085e9190611d78565b9091555050600654600090610874576000610896565b60065460055461088c90670de0b6b3a7640000611d8b565b6108969190611da2565b60408051848152600060208201529192507f9c86429231ed0411e3112a1dd5c6578826c2d48089d5ec491e874ce0029c0bbe910160405180910390a1604051818152600080516020611e0a833981519152906020015b60405180910390a15050565b6000610902611ae5565b8260000361092357604051631f2a200560e01b815260040160405180910390fd5b60055415806109325750600654155b15610950576040516328b35f2160e01b815260040160405180910390fd5b6040516370a0823160e01b81523060048201526000907f00000000000000000000000000000000000000000000000000000000000000006001600160a01b0316906370a0823190602401602060405180830381865afa1580156109b7573d6000803e3d6000fd5b505050506040513d601f19601f820116820180604052508101906109db9190611dc4565b9050610a126001600160a01b037f000000000000000000000000000000000000000000000000000000000000000016333087611b01565b6040516370a0823160e01b815230600482015260009082906001600160a01b037f000000000000000000000000000000000000000000000000000000000000000016906370a0823190602401602060405180830381865afa158015610a7b573d6000803e3d6000fd5b505050506040513d601f19601f82011682018060405250810190610a9f9190611dc4565b610aa99190611ddd565b905080600654610ab99190611d78565b600554610ac69083611d8b565b610ad09190611da2565b9250821580610ade57508383105b15610afc57604051638199f5f360e01b815260040160405180910390fd5b600554831115610b1f576040516328b35f2160e01b815260040160405180910390fd5b8260056000828254610b319190611ddd565b90915550610b6b90506001600160a01b037f0000000000000000000000000000000000000000000000000000000000000000163385611b42565b6000612710610b7c6107d084611d8b565b610b869190611da2565b90506000612710610b99611b5885611d8b565b610ba39190611da2565b9050600081610bb28486611ddd565b610bbc9190611ddd565b90508215610bfa57610bfa6001600160a01b037f00000000000000000000000000000000000000000000000000000000000000001661dead85611b42565b8115610c63576003546001600160a01b0316610c295760405163d92e233d60e01b815260040160405180910390fd5b600354610c63906001600160a01b037f00000000000000000000000000000000000000000000000000000000000000008116911684611b42565b8060066000828254610c759190611d78565b925050819055508560076000828254610c8e9190611d78565b909155505060088054906000610ca383611df0565b919050555060008060065411610cba576000610cdc565b600654600554610cd290670de0b6b3a7640000611d8b565b610cdc9190611da2565b6040805160008152602081018c90529081018990526060810182905290915033907f7c707038fb62cb248ec6b437a63ec556bb6233af235f4518d64693cba918a6e19060800160405180910390a2604051818152600080516020611e0a8339815191529060200160405180910390a1505050505050610d686001600080516020611e2a83398151915255565b92915050565b6003546001600160a01b03163314610d9957604051630559b36f60e11b815260040160405180910390fd5b80600003610dba57604051631f2a200560e01b815260040160405180910390fd5b610def6001600160a01b037f000000000000000000000000000000000000000000000000000000000000000016333084611b01565b8060066000828254610e019190611d78565b909155505050565b6000546001600160a01b03163314610e3457604051634755657960e01b815260040160405180910390fd5b6001600160a01b038116610e5b5760405163d92e233d60e01b815260040160405180910390fd5b600380546001600160a01b0319166001600160a01b0392909216919091179055565b6000811580610e8c5750600554155b80610e975750600654155b15610ea457506000919050565b6005548210610eb557505060065490565b81600554610ec39190611ddd565b600654610ed09084611d8b565b610d689190611da2565b6003546000906001600160a01b03163314610f0857604051630559b36f60e11b815260040160405180910390fd5b610f10611ae5565b82600003610f3157604051631f2a200560e01b815260040160405180910390fd5b6001600160a01b038216610f585760405163d92e233d60e01b815260040160405180910390fd5b6005541580610f675750600654155b15610f85576040516328b35f2160e01b815260040160405180910390fd5b82600554610f939190611d78565b600654610fa09085611d8b565b610faa9190611da2565b905080600003610fcd57604051631f2a200560e01b815260040160405180910390fd5b6110026001600160a01b037f000000000000000000000000000000000000000000000000000000000000000016333086611b01565b6110366001600160a01b037f0000000000000000000000000000000000000000000000000000000000000000168383611b42565b82600560008282546110489190611d78565b9250508190555080600660008282546110619190611ddd565b92505081905550826007600082825461107a9190611d78565b90915550506008805490600061108f83611df0565b9190505550600080600654116110a65760006110c8565b6006546005546110be90670de0b6b3a7640000611d8b565b6110c89190611da2565b604080516001815260208101879052908101849052606081018290529091506001600160a01b038416907f7c707038fb62cb248ec6b437a63ec556bb6233af235f4518d64693cba918a6e1906080015b60405180910390a2604051818152600080516020611e0a833981519152906020015b60405180910390a150610d686001600080516020611e2a83398151915255565b6000546001600160a01b0316331461118557604051634755657960e01b815260040160405180910390fd5b600454600160a01b900460ff16156111b05760405163238f75d360e01b815260040160405180910390fd5b600180546001600160a01b039485166001600160a01b0319918216179091556002805493851693821693909317909255600380549190931691161790556004805460ff60a01b1916600160a01b179055565b6000546001600160a01b0316331461122d57604051634755657960e01b815260040160405180910390fd5b600454600160a01b900460ff16156112585760405163238f75d360e01b815260040160405180910390fd5b6004805460ff60a01b1916600160a01b179055600080546001600160a01b0319169055565b6000600654600014806112905750600554155b1561129b5750600090565b6006546005546112b390670de0b6b3a7640000611d8b565b6112bd9190611da2565b905090565b6002546001600160a01b031633146112ed57604051630be5a3e160e31b815260040160405180910390fd5b8115806112f8575080155b1561131657604051631f2a200560e01b815260040160405180910390fd5b61134b6001600160a01b037f000000000000000000000000000000000000000000000000000000000000000016333085611b01565b6113806001600160a01b037f000000000000000000000000000000000000000000000000000000000000000016333084611b01565b81600560008282546113929190611d78565b9250508190555080600660008282546113ab9190611d78565b909155508190506113c483670de0b6b3a7640000611d8b565b6113ce9190611da2565b60095560408051838152602081018390527f9c86429231ed0411e3112a1dd5c6578826c2d48089d5ec491e874ce0029c0bbe910160405180910390a1600080516020611e0a8339815191526009546040516108ec91815260200190565b600081158061143a5750600554155b806114455750600654155b1561145257506000919050565b60006127106114636103e885611d8b565b61146d9190611da2565b6114779084611ddd565b90506000816006546114899190611d78565b6005546114969084611d8b565b6114a09190611da2565b90506005548111156114b6575060009392505050565b9392505050565b6000546001600160a01b031633146104a657604051634755657960e01b815260040160405180910390fd5b60006114f2611ae5565b6003546001600160a01b0316331480159061151857506004546001600160a01b03163314155b156115365760405163a004974960e01b815260040160405180910390fd5b8260000361155757604051631f2a200560e01b815260040160405180910390fd5b60055415806115665750600654155b15611584576040516328b35f2160e01b815260040160405180910390fd5b826005546115929190611d78565b60065461159f9085611d8b565b6115a99190611da2565b90508015806115b757508181105b156115d557604051638199f5f360e01b815260040160405180910390fd5b61160a6001600160a01b037f000000000000000000000000000000000000000000000000000000000000000016333086611b01565b61163e6001600160a01b037f0000000000000000000000000000000000000000000000000000000000000000163383611b42565b82600560008282546116509190611d78565b9250508190555080600660008282546116699190611ddd565b9250508190555082600760008282546116829190611d78565b90915550506008805490600061169783611df0565b9190505550600080600654116116ae5760006116d0565b6006546005546116c690670de0b6b3a7640000611d8b565b6116d09190611da2565b6040805160018152602081018790529081018490526060810182905290915033907f7c707038fb62cb248ec6b437a63ec556bb6233af235f4518d64693cba918a6e190608001611118565b6001546001600160a01b03163314610e3457604051630e05f48560e11b815260040160405180910390fd5b6002546001600160a01b0316331461177157604051630be5a3e160e31b815260040160405180910390fd5b8060000361179257604051631f2a200560e01b815260040160405180910390fd5b6117c76001600160a01b037f000000000000000000000000000000000000000000000000000000000000000016333084611b01565b80600560008282546117d99190611d78565b9250508190555060007f00000000000000000000000000000000000000000000000000000000000000006001600160a01b03166318160ddd6040518163ffffffff1660e01b8152600401602060405180830381865afa158015611840573d6000803e3d6000fd5b505050506040513d601f19601f820116820180604052508101906118649190611dc4565b60055461088c90670de0b6b3a7640000611d8b565b6003546000906001600160a01b031633146118a757604051630559b36f60e11b815260040160405180910390fd5b6118af611ae5565b826000036118d057604051631f2a200560e01b815260040160405180910390fd5b6001600160a01b0382166118f75760405163d92e233d60e01b815260040160405180910390fd5b61192c6001600160a01b037f000000000000000000000000000000000000000000000000000000000000000016333086611b01565b600060055411801561194057506000600654115b1561197157826006546119539190611d78565b6005546119609085611d8b565b61196a9190611da2565b9050611974565b50815b8060000361199557604051631f2a200560e01b815260040160405180910390fd5b6005548111156119b8576040516328b35f2160e01b815260040160405180910390fd5b82600660008282546119ca9190611d78565b9250508190555080600560008282546119e39190611ddd565b90915550611a1d90506001600160a01b037f0000000000000000000000000000000000000000000000000000000000000000168383611b42565b60008060065411611a2f576000611a51565b600654600554611a4790670de0b6b3a7640000611d8b565b611a519190611da2565b90508160076000828254611a659190611d78565b909155505060088054906000611a7a83611df0565b909155505060408051858152602081018490526001600160a01b0385168183015290517f1408158d52d7d739e0848c588738e9b79917e2773e51c49ff4544e3e6a538f8c9181900360600190a1604051818152600080516020611e0a8339815191529060200161113a565b611aed611b7c565b6002600080516020611e2a83398151915255565b611b0f848484846001611bae565b611b3c57604051635274afe760e01b81526001600160a01b03851660048201526024015b60405180910390fd5b50505050565b611b4f8383836001611c20565b611b7757604051635274afe760e01b81526001600160a01b0384166004820152602401611b33565b505050565b600080516020611e2a83398151915254600203611bac57604051633ee5aeb560e01b815260040160405180910390fd5b565b6040516323b872dd60e01b60008181526001600160a01b038781166004528616602452604485905291602083606481808c5af192506001600051148316611c0e578383151615611c01573d6000823e3d81fd5b6000883b113d1516831692505b60405250600060605295945050505050565b60405163a9059cbb60e01b60008181526001600160a01b038616600452602485905291602083604481808b5af192506001600051148316611c7a578383151615611c6d573d6000823e3d81fd5b6000873b113d1516831692505b60405250949350505050565b80356001600160a01b03811681146107c657600080fd5b600060208284031215611caf57600080fd5b6114b682611c86565b600060208284031215611cca57600080fd5b5035919050565b60008060408385031215611ce457600080fd5b50508035926020909101359150565b60008060408385031215611d0657600080fd5b82359150611d1660208401611c86565b90509250929050565b600080600060608486031215611d3457600080fd5b611d3d84611c86565b9250611d4b60208501611c86565b9150611d5960408501611c86565b90509250925092565b634e487b7160e01b600052601160045260246000fd5b80820180821115610d6857610d68611d62565b8082028115828204841417610d6857610d68611d62565b600082611dbf57634e487b7160e01b600052601260045260246000fd5b500490565b600060208284031215611dd657600080fd5b5051919050565b81810381811115610d6857610d68611d62565b600060018201611e0257611e02611d62565b506001019056fe66cbca4f3c64fecf1dcb9ce094abcf7f68c3450a1d4e3a8e917dd621edb4ebe09b779b17422d0df92223018b32b4d1fa46e071723d6817e2486d003becc55f00a2646970667358221220beb03866a8f7a9ed6fc0d88d9a78bcff2b30932ecac9ffc5ff31d0a30ec6562d64736f6c63430008180033","opcodes":"PUSH1 0xC0 PUSH1 0x40 MSTORE CALLVALUE DUP1 ISZERO PUSH3 0x11 JUMPI PUSH1 0x0 DUP1 REVERT JUMPDEST POP PUSH1 0x40 MLOAD PUSH3 0x204C CODESIZE SUB DUP1 PUSH3 0x204C DUP4 CODECOPY DUP2 ADD PUSH1 0x40 DUP2 SWAP1 MSTORE PUSH3 0x34 SWAP2 PUSH3 0xDC JUMP JUMPDEST PUSH1 0x1 PUSH32 0x9B779B17422D0DF92223018B32B4D1FA46E071723D6817E2486D003BECC55F00 SSTORE PUSH1 0x1 PUSH1 0x1 PUSH1 0xA0 SHL SUB DUP3 AND ISZERO DUP1 PUSH3 0x76 JUMPI POP PUSH1 0x1 PUSH1 0x1 PUSH1 0xA0 SHL SUB DUP2 AND ISZERO JUMPDEST ISZERO PUSH3 0x95 JUMPI PUSH1 0x40 MLOAD PUSH4 0xD92E233D PUSH1 0xE0 SHL DUP2 MSTORE PUSH1 0x4 ADD PUSH1 0x40 MLOAD DUP1 SWAP2 SUB SWAP1 REVERT JUMPDEST PUSH1 0x1 PUSH1 0x1 PUSH1 0xA0 SHL SUB SWAP2 DUP3 AND PUSH1 0x80 MSTORE AND PUSH1 0xA0 MSTORE PUSH1 0x0 DUP1 SLOAD PUSH1 0x1 PUSH1 0x1 PUSH1 0xA0 SHL SUB NOT AND CALLER OR SWAP1 SSTORE PUSH3 0x114 JUMP JUMPDEST DUP1 MLOAD PUSH1 0x1 PUSH1 0x1 PUSH1 0xA0 SHL SUB DUP2 AND DUP2 EQ PUSH3 0xD7 JUMPI PUSH1 0x0 DUP1 REVERT JUMPDEST SWAP2 SWAP1 POP JUMP JUMPDEST PUSH1 0x0 DUP1 PUSH1 0x40 DUP4 DUP6 SUB SLT ISZERO PUSH3 0xF0 JUMPI PUSH1 0x0 DUP1 REVERT JUMPDEST PUSH3 0xFB DUP4 PUSH3 0xBF JUMP JUMPDEST SWAP2 POP PUSH3 0x10B PUSH1 0x20 DUP5 ADD PUSH3 0xBF JUMP JUMPDEST SWAP1 POP SWAP3 POP SWAP3 SWAP1 POP JUMP JUMPDEST PUSH1 0x80 MLOAD PUSH1 0xA0 MLOAD PUSH2 0x1E7F PUSH3 0x1CD PUSH1 0x0 CODECOPY PUSH1 0x0 DUP2 DUP2 PUSH2 0x26C ADD MSTORE DUP2 DUP2 PUSH2 0x5FB ADD MSTORE DUP2 DUP2 PUSH2 0x6CB ADD MSTORE DUP2 DUP2 PUSH2 0x968 ADD MSTORE DUP2 DUP2 PUSH2 0x9EA ADD MSTORE DUP2 DUP2 PUSH2 0xA34 ADD MSTORE DUP2 DUP2 PUSH2 0xBD1 ADD MSTORE DUP2 DUP2 PUSH2 0xC3A ADD MSTORE DUP2 DUP2 PUSH2 0xDC7 ADD MSTORE DUP2 DUP2 PUSH2 0x100F ADD MSTORE DUP2 DUP2 PUSH2 0x1358 ADD MSTORE DUP2 DUP2 PUSH2 0x1617 ADD MSTORE DUP2 DUP2 PUSH2 0x17E4 ADD MSTORE PUSH2 0x1904 ADD MSTORE PUSH1 0x0 DUP2 DUP2 PUSH2 0x2AB ADD MSTORE DUP2 DUP2 PUSH2 0x553 ADD MSTORE DUP2 DUP2 PUSH2 0x824 ADD MSTORE DUP2 DUP2 PUSH2 0xB44 ADD MSTORE DUP2 DUP2 PUSH2 0xFDA ADD MSTORE DUP2 DUP2 PUSH2 0x1323 ADD MSTORE DUP2 DUP2 PUSH2 0x15E2 ADD MSTORE DUP2 DUP2 PUSH2 0x179F ADD MSTORE PUSH2 0x19F6 ADD MSTORE PUSH2 0x1E7F PUSH1 0x0 RETURN INVALID PUSH1 0x80 PUSH1 0x40 MSTORE CALLVALUE DUP1 ISZERO PUSH2 0x10 JUMPI PUSH1 0x0 DUP1 REVERT JUMPDEST POP PUSH1 0x4 CALLDATASIZE LT PUSH2 0x1F0 JUMPI PUSH1 0x0 CALLDATALOAD PUSH1 0xE0 SHR DUP1 PUSH4 0x83BBDD5F GT PUSH2 0x10F JUMPI DUP1 PUSH4 0xB6635BE6 GT PUSH2 0xA2 JUMPI DUP1 PUSH4 0xD33219B4 GT PUSH2 0x71 JUMPI DUP1 PUSH4 0xD33219B4 EQ PUSH2 0x42F JUMPI DUP1 PUSH4 0xEE3B038F EQ PUSH2 0x442 JUMPI DUP1 PUSH4 0xF843E641 EQ PUSH2 0x455 JUMPI DUP1 PUSH4 0xF851A440 EQ PUSH2 0x468 JUMPI PUSH1 0x0 DUP1 REVERT JUMPDEST DUP1 PUSH4 0xB6635BE6 EQ PUSH2 0x3D2 JUMPI DUP1 PUSH4 0xBB069B93 EQ PUSH2 0x3F6 JUMPI DUP1 PUSH4 0xC2C90687 EQ PUSH2 0x409 JUMPI DUP1 PUSH4 0xCB4F51D1 EQ PUSH2 0x41C JUMPI PUSH1 0x0 DUP1 REVERT JUMPDEST DUP1 PUSH4 0xA40F4FA1 GT PUSH2 0xDE JUMPI DUP1 PUSH4 0xA40F4FA1 EQ PUSH2 0x39A JUMPI DUP1 PUSH4 0xA7978031 EQ PUSH2 0x3AD JUMPI DUP1 PUSH4 0xAC257A6E EQ PUSH2 0x3C0 JUMPI DUP1 PUSH4 0xB4A800CE EQ PUSH2 0x3C9 JUMPI PUSH1 0x0 DUP1 REVERT JUMPDEST DUP1 PUSH4 0x83BBDD5F EQ PUSH2 0x378 JUMPI DUP1 PUSH4 0x8AEA8F71 EQ PUSH2 0x381 JUMPI DUP1 PUSH4 0x98D5FDCA EQ PUSH2 0x389 JUMPI DUP1 PUSH4 0xA1E26E7B EQ PUSH2 0x391 JUMPI PUSH1 0x0 DUP1 REVERT JUMPDEST DUP1 PUSH4 0x30CF2AEB GT PUSH2 0x187 JUMPI DUP1 PUSH4 0x47AA7EA4 GT PUSH2 0x156 JUMPI DUP1 PUSH4 0x47AA7EA4 EQ PUSH2 0x32C JUMPI DUP1 PUSH4 0x528816C6 EQ PUSH2 0x33F JUMPI DUP1 PUSH4 0x55D28F20 EQ PUSH2 0x352 JUMPI DUP1 PUSH4 0x7DAD19DB EQ PUSH2 0x365 JUMPI PUSH1 0x0 DUP1 REVERT JUMPDEST DUP1 PUSH4 0x30CF2AEB EQ PUSH2 0x2E0 JUMPI DUP1 PUSH4 0x33827438 EQ PUSH2 0x2F3 JUMPI DUP1 PUSH4 0x362CE52B EQ PUSH2 0x306 JUMPI DUP1 PUSH4 0x3984A3AA EQ PUSH2 0x319 JUMPI PUSH1 0x0 DUP1 REVERT JUMPDEST DUP1 PUSH4 0x2276741B GT PUSH2 0x1C3 JUMPI DUP1 PUSH4 0x2276741B EQ PUSH2 0x254 JUMPI DUP1 PUSH4 0x2ACFBCA3 EQ PUSH2 0x267 JUMPI DUP1 PUSH4 0x2F48AB7D EQ PUSH2 0x2A6 JUMPI DUP1 PUSH4 0x30131384 EQ PUSH2 0x2CD JUMPI PUSH1 0x0 DUP1 REVERT JUMPDEST DUP1 PUSH4 0x53F14DA EQ PUSH2 0x1F5 JUMPI DUP1 PUSH4 0x6AD5A47 EQ PUSH2 0x211 JUMPI DUP1 PUSH4 0x902F1AC EQ PUSH2 0x226 JUMPI DUP1 PUSH4 0xCC2055A EQ PUSH2 0x241 JUMPI JUMPDEST PUSH1 0x0 DUP1 REVERT JUMPDEST PUSH2 0x1FE PUSH1 0x9 SLOAD DUP2 JUMP JUMPDEST PUSH1 0x40 MLOAD SWAP1 DUP2 MSTORE PUSH1 0x20 ADD JUMPDEST PUSH1 0x40 MLOAD DUP1 SWAP2 SUB SWAP1 RETURN JUMPDEST PUSH2 0x224 PUSH2 0x21F CALLDATASIZE PUSH1 0x4 PUSH2 0x1C9D JUMP JUMPDEST PUSH2 0x47B JUMP JUMPDEST STOP JUMPDEST PUSH1 0x5 SLOAD PUSH1 0x6 SLOAD PUSH1 0x40 DUP1 MLOAD SWAP3 DUP4 MSTORE PUSH1 0x20 DUP4 ADD SWAP2 SWAP1 SWAP2 MSTORE ADD PUSH2 0x208 JUMP JUMPDEST PUSH2 0x1FE PUSH2 0x24F CALLDATASIZE PUSH1 0x4 PUSH2 0x1CB8 JUMP JUMPDEST PUSH2 0x4EF JUMP JUMPDEST PUSH2 0x224 PUSH2 0x262 CALLDATASIZE PUSH1 0x4 PUSH2 0x1CB8 JUMP JUMPDEST PUSH2 0x7CB JUMP JUMPDEST PUSH2 0x28E PUSH32 0x0 DUP2 JUMP JUMPDEST PUSH1 0x40 MLOAD PUSH1 0x1 PUSH1 0x1 PUSH1 0xA0 SHL SUB SWAP1 SWAP2 AND DUP2 MSTORE PUSH1 0x20 ADD PUSH2 0x208 JUMP JUMPDEST PUSH2 0x28E PUSH32 0x0 DUP2 JUMP JUMPDEST PUSH1 0x3 SLOAD PUSH2 0x28E SWAP1 PUSH1 0x1 PUSH1 0x1 PUSH1 0xA0 SHL SUB AND DUP2 JUMP JUMPDEST PUSH2 0x1FE PUSH2 0x2EE CALLDATASIZE PUSH1 0x4 PUSH2 0x1CD1 JUMP JUMPDEST PUSH2 0x8F8 JUMP JUMPDEST PUSH1 0x2 SLOAD PUSH2 0x28E SWAP1 PUSH1 0x1 PUSH1 0x1 PUSH1 0xA0 SHL SUB AND DUP2 JUMP JUMPDEST PUSH2 0x224 PUSH2 0x314 CALLDATASIZE PUSH1 0x4 PUSH2 0x1CB8 JUMP JUMPDEST PUSH2 0xD6E JUMP JUMPDEST PUSH2 0x224 PUSH2 0x327 CALLDATASIZE PUSH1 0x4 PUSH2 0x1C9D JUMP JUMPDEST PUSH2 0xE09 JUMP JUMPDEST PUSH2 0x1FE PUSH2 0x33A CALLDATASIZE PUSH1 0x4 PUSH2 0x1CB8 JUMP JUMPDEST PUSH2 0xE7D JUMP JUMPDEST PUSH2 0x1FE PUSH2 0x34D CALLDATASIZE PUSH1 0x4 PUSH2 0x1CF3 JUMP JUMPDEST PUSH2 0xEDA JUMP JUMPDEST PUSH2 0x224 PUSH2 0x360 CALLDATASIZE PUSH1 0x4 PUSH2 0x1D1F JUMP JUMPDEST PUSH2 0x115A JUMP JUMPDEST PUSH1 0x4 SLOAD PUSH2 0x28E SWAP1 PUSH1 0x1 PUSH1 0x1 PUSH1 0xA0 SHL SUB AND DUP2 JUMP JUMPDEST PUSH2 0x1FE PUSH1 0x7 SLOAD DUP2 JUMP JUMPDEST PUSH2 0x224 PUSH2 0x1202 JUMP JUMPDEST PUSH2 0x1FE PUSH2 0x127D JUMP JUMPDEST PUSH2 0x1FE PUSH1 0x6 SLOAD DUP2 JUMP JUMPDEST PUSH2 0x224 PUSH2 0x3A8 CALLDATASIZE PUSH1 0x4 PUSH2 0x1CD1 JUMP JUMPDEST PUSH2 0x12C2 JUMP JUMPDEST PUSH2 0x1FE PUSH2 0x3BB CALLDATASIZE PUSH1 0x4 PUSH2 0x1CB8 JUMP JUMPDEST PUSH2 0x142B JUMP JUMPDEST PUSH2 0x1FE PUSH1 0x5 SLOAD DUP2 JUMP JUMPDEST PUSH2 0x1FE PUSH1 0x8 SLOAD DUP2 JUMP JUMPDEST PUSH1 0x4 SLOAD PUSH2 0x3E6 SWAP1 PUSH1 0x1 PUSH1 0xA0 SHL SWAP1 DIV PUSH1 0xFF AND DUP2 JUMP JUMPDEST PUSH1 0x40 MLOAD SWAP1 ISZERO ISZERO DUP2 MSTORE PUSH1 0x20 ADD PUSH2 0x208 JUMP JUMPDEST PUSH2 0x224 PUSH2 0x404 CALLDATASIZE PUSH1 0x4 PUSH2 0x1C9D JUMP JUMPDEST PUSH2 0x14BD JUMP JUMPDEST PUSH2 0x1FE PUSH2 0x417 CALLDATASIZE PUSH1 0x4 PUSH2 0x1CD1 JUMP JUMPDEST PUSH2 0x14E8 JUMP JUMPDEST PUSH2 0x224 PUSH2 0x42A CALLDATASIZE PUSH1 0x4 PUSH2 0x1C9D JUMP JUMPDEST PUSH2 0x171B JUMP JUMPDEST PUSH1 0x1 SLOAD PUSH2 0x28E SWAP1 PUSH1 0x1 PUSH1 0x1 PUSH1 0xA0 SHL SUB AND DUP2 JUMP JUMPDEST PUSH2 0x224 PUSH2 0x450 CALLDATASIZE PUSH1 0x4 PUSH2 0x1CB8 JUMP JUMPDEST PUSH2 0x1746 JUMP JUMPDEST PUSH2 0x1FE PUSH2 0x463 CALLDATASIZE PUSH1 0x4 PUSH2 0x1CF3 JUMP JUMPDEST PUSH2 0x1879 JUMP JUMPDEST PUSH1 0x0 SLOAD PUSH2 0x28E SWAP1 PUSH1 0x1 PUSH1 0x1 PUSH1 0xA0 SHL SUB AND DUP2 JUMP JUMPDEST PUSH1 0x1 SLOAD PUSH1 0x1 PUSH1 0x1 PUSH1 0xA0 SHL SUB AND CALLER EQ PUSH2 0x4A6 JUMPI PUSH1 0x40 MLOAD PUSH4 0xE05F485 PUSH1 0xE1 SHL DUP2 MSTORE PUSH1 0x4 ADD PUSH1 0x40 MLOAD DUP1 SWAP2 SUB SWAP1 REVERT JUMPDEST PUSH1 0x1 PUSH1 0x1 PUSH1 0xA0 SHL SUB DUP2 AND PUSH2 0x4CD JUMPI PUSH1 0x40 MLOAD PUSH4 0xD92E233D PUSH1 0xE0 SHL DUP2 MSTORE PUSH1 0x4 ADD PUSH1 0x40 MLOAD DUP1 SWAP2 SUB SWAP1 REVERT JUMPDEST PUSH1 0x4 DUP1 SLOAD PUSH1 0x1 PUSH1 0x1 PUSH1 0xA0 SHL SUB NOT AND PUSH1 0x1 PUSH1 0x1 PUSH1 0xA0 SHL SUB SWAP3 SWAP1 SWAP3 AND SWAP2 SWAP1 SWAP2 OR SWAP1 SSTORE JUMP JUMPDEST PUSH1 0x3 SLOAD PUSH1 0x0 SWAP1 PUSH1 0x1 PUSH1 0x1 PUSH1 0xA0 SHL SUB AND CALLER EQ PUSH2 0x51D JUMPI PUSH1 0x40 MLOAD PUSH4 0x559B36F PUSH1 0xE1 SHL DUP2 MSTORE PUSH1 0x4 ADD PUSH1 0x40 MLOAD DUP1 SWAP2 SUB SWAP1 REVERT JUMPDEST PUSH2 0x525 PUSH2 0x1AE5 JUMP JUMPDEST DUP2 PUSH1 0x0 SUB PUSH2 0x546 JUMPI PUSH1 0x40 MLOAD PUSH4 0x1F2A2005 PUSH1 0xE0 SHL DUP2 MSTORE PUSH1 0x4 ADD PUSH1 0x40 MLOAD DUP1 SWAP2 SUB SWAP1 REVERT JUMPDEST PUSH2 0x57B PUSH1 0x1 PUSH1 0x1 PUSH1 0xA0 SHL SUB PUSH32 0x0 AND CALLER ADDRESS DUP6 PUSH2 0x1B01 JUMP JUMPDEST PUSH1 0x0 PUSH1 0x5 SLOAD GT DUP1 ISZERO PUSH2 0x58F JUMPI POP PUSH1 0x0 PUSH1 0x6 SLOAD GT JUMPDEST ISZERO PUSH2 0x5C0 JUMPI DUP2 PUSH1 0x5 SLOAD PUSH2 0x5A2 SWAP2 SWAP1 PUSH2 0x1D78 JUMP JUMPDEST PUSH1 0x6 SLOAD PUSH2 0x5AF SWAP1 DUP5 PUSH2 0x1D8B JUMP JUMPDEST PUSH2 0x5B9 SWAP2 SWAP1 PUSH2 0x1DA2 JUMP JUMPDEST SWAP1 POP PUSH2 0x5C3 JUMP JUMPDEST POP DUP1 JUMPDEST DUP1 PUSH1 0x0 SUB PUSH2 0x5E4 JUMPI PUSH1 0x40 MLOAD PUSH4 0x1F2A2005 PUSH1 0xE0 SHL DUP2 MSTORE PUSH1 0x4 ADD PUSH1 0x40 MLOAD DUP1 SWAP2 SUB SWAP1 REVERT JUMPDEST PUSH1 0x40 MLOAD PUSH4 0x70A08231 PUSH1 0xE0 SHL DUP2 MSTORE ADDRESS PUSH1 0x4 DUP3 ADD MSTORE DUP2 SWAP1 PUSH32 0x0 PUSH1 0x1 PUSH1 0x1 PUSH1 0xA0 SHL SUB AND SWAP1 PUSH4 0x70A08231 SWAP1 PUSH1 0x24 ADD PUSH1 0x20 PUSH1 0x40 MLOAD DUP1 DUP4 SUB DUP2 DUP7 GAS STATICCALL ISZERO DUP1 ISZERO PUSH2 0x64A JUMPI RETURNDATASIZE PUSH1 0x0 DUP1 RETURNDATACOPY RETURNDATASIZE PUSH1 0x0 REVERT JUMPDEST POP POP POP POP PUSH1 0x40 MLOAD RETURNDATASIZE PUSH1 0x1F NOT PUSH1 0x1F DUP3 ADD AND DUP3 ADD DUP1 PUSH1 0x40 MSTORE POP DUP2 ADD SWAP1 PUSH2 0x66E SWAP2 SWAP1 PUSH2 0x1DC4 JUMP JUMPDEST LT ISZERO PUSH2 0x68D JUMPI PUSH1 0x40 MLOAD PUSH4 0x28B35F21 PUSH1 0xE0 SHL DUP2 MSTORE PUSH1 0x4 ADD PUSH1 0x40 MLOAD DUP1 SWAP2 SUB SWAP1 REVERT JUMPDEST DUP2 PUSH1 0x5 PUSH1 0x0 DUP3 DUP3 SLOAD PUSH2 0x69F SWAP2 SWAP1 PUSH2 0x1D78 JUMP JUMPDEST SWAP3 POP POP DUP2 SWAP1 SSTORE POP DUP1 PUSH1 0x6 PUSH1 0x0 DUP3 DUP3 SLOAD PUSH2 0x6B8 SWAP2 SWAP1 PUSH2 0x1DDD JUMP JUMPDEST SWAP1 SWAP2 SSTORE POP PUSH2 0x6F2 SWAP1 POP PUSH1 0x1 PUSH1 0x1 PUSH1 0xA0 SHL SUB PUSH32 0x0 AND CALLER DUP4 PUSH2 0x1B42 JUMP JUMPDEST PUSH1 0x0 DUP1 PUSH1 0x6 SLOAD GT PUSH2 0x704 JUMPI PUSH1 0x0 PUSH2 0x726 JUMP JUMPDEST PUSH1 0x6 SLOAD PUSH1 0x5 SLOAD PUSH2 0x71C SWAP1 PUSH8 0xDE0B6B3A7640000 PUSH2 0x1D8B JUMP JUMPDEST PUSH2 0x726 SWAP2 SWAP1 PUSH2 0x1DA2 JUMP JUMPDEST SWAP1 POP DUP3 PUSH1 0x7 PUSH1 0x0 DUP3 DUP3 SLOAD PUSH2 0x73A SWAP2 SWAP1 PUSH2 0x1D78 JUMP JUMPDEST SWAP1 SWAP2 SSTORE POP POP PUSH1 0x8 DUP1 SLOAD SWAP1 PUSH1 0x0 PUSH2 0x74F DUP4 PUSH2 0x1DF0 JUMP JUMPDEST SWAP1 SWAP2 SSTORE POP POP PUSH1 0x40 DUP1 MLOAD DUP5 DUP2 MSTORE PUSH1 0x20 DUP2 ADD DUP5 SWAP1 MSTORE PUSH32 0x3D53FFD94E6169FE8616AEF06A81EBA2335FF27EAC4A60886AD869B22C4F347B SWAP2 ADD PUSH1 0x40 MLOAD DUP1 SWAP2 SUB SWAP1 LOG1 PUSH1 0x40 MLOAD DUP2 DUP2 MSTORE PUSH1 0x0 DUP1 MLOAD PUSH1 0x20 PUSH2 0x1E0A DUP4 CODECOPY DUP2 MLOAD SWAP2 MSTORE SWAP1 PUSH1 0x20 ADD PUSH1 0x40 MLOAD DUP1 SWAP2 SUB SWAP1 LOG1 POP PUSH2 0x7C6 PUSH1 0x1 PUSH1 0x0 DUP1 MLOAD PUSH1 0x20 PUSH2 0x1E2A DUP4 CODECOPY DUP2 MLOAD SWAP2 MSTORE SSTORE JUMP JUMPDEST SWAP2 SWAP1 POP JUMP JUMPDEST PUSH1 0x4 SLOAD PUSH1 0x1 PUSH1 0x1 PUSH1 0xA0 SHL SUB AND CALLER EQ PUSH2 0x7F6 JUMPI PUSH1 0x40 MLOAD PUSH4 0xA0049749 PUSH1 0xE0 SHL DUP2 MSTORE PUSH1 0x4 ADD PUSH1 0x40 MLOAD DUP1 SWAP2 SUB SWAP1 REVERT JUMPDEST DUP1 PUSH1 0x0 SUB PUSH2 0x817 JUMPI PUSH1 0x40 MLOAD PUSH4 0x1F2A2005 PUSH1 0xE0 SHL DUP2 MSTORE PUSH1 0x4 ADD PUSH1 0x40 MLOAD DUP1 SWAP2 SUB SWAP1 REVERT JUMPDEST PUSH2 0x84C PUSH1 0x1 PUSH1 0x1 PUSH1 0xA0 SHL SUB PUSH32 0x0 AND CALLER ADDRESS DUP5 PUSH2 0x1B01 JUMP JUMPDEST DUP1 PUSH1 0x5 PUSH1 0x0 DUP3 DUP3 SLOAD PUSH2 0x85E SWAP2 SWAP1 PUSH2 0x1D78 JUMP JUMPDEST SWAP1 SWAP2 SSTORE POP POP PUSH1 0x6 SLOAD PUSH1 0x0 SWAP1 PUSH2 0x874 JUMPI PUSH1 0x0 PUSH2 0x896 JUMP JUMPDEST PUSH1 0x6 SLOAD PUSH1 0x5 SLOAD PUSH2 0x88C SWAP1 PUSH8 0xDE0B6B3A7640000 PUSH2 0x1D8B JUMP JUMPDEST PUSH2 0x896 SWAP2 SWAP1 PUSH2 0x1DA2 JUMP JUMPDEST PUSH1 0x40 DUP1 MLOAD DUP5 DUP2 MSTORE PUSH1 0x0 PUSH1 0x20 DUP3 ADD MSTORE SWAP2 SWAP3 POP PUSH32 0x9C86429231ED0411E3112A1DD5C6578826C2D48089D5EC491E874CE0029C0BBE SWAP2 ADD PUSH1 0x40 MLOAD DUP1 SWAP2 SUB SWAP1 LOG1 PUSH1 0x40 MLOAD DUP2 DUP2 MSTORE PUSH1 0x0 DUP1 MLOAD PUSH1 0x20 PUSH2 0x1E0A DUP4 CODECOPY DUP2 MLOAD SWAP2 MSTORE SWAP1 PUSH1 0x20 ADD JUMPDEST PUSH1 0x40 MLOAD DUP1 SWAP2 SUB SWAP1 LOG1 POP POP JUMP JUMPDEST PUSH1 0x0 PUSH2 0x902 PUSH2 0x1AE5 JUMP JUMPDEST DUP3 PUSH1 0x0 SUB PUSH2 0x923 JUMPI PUSH1 0x40 MLOAD PUSH4 0x1F2A2005 PUSH1 0xE0 SHL DUP2 MSTORE PUSH1 0x4 ADD PUSH1 0x40 MLOAD DUP1 SWAP2 SUB SWAP1 REVERT JUMPDEST PUSH1 0x5 SLOAD ISZERO DUP1 PUSH2 0x932 JUMPI POP PUSH1 0x6 SLOAD ISZERO JUMPDEST ISZERO PUSH2 0x950 JUMPI PUSH1 0x40 MLOAD PUSH4 0x28B35F21 PUSH1 0xE0 SHL DUP2 MSTORE PUSH1 0x4 ADD PUSH1 0x40 MLOAD DUP1 SWAP2 SUB SWAP1 REVERT JUMPDEST PUSH1 0x40 MLOAD PUSH4 0x70A08231 PUSH1 0xE0 SHL DUP2 MSTORE ADDRESS PUSH1 0x4 DUP3 ADD MSTORE PUSH1 0x0 SWAP1 PUSH32 0x0 PUSH1 0x1 PUSH1 0x1 PUSH1 0xA0 SHL SUB AND SWAP1 PUSH4 0x70A08231 SWAP1 PUSH1 0x24 ADD PUSH1 0x20 PUSH1 0x40 MLOAD DUP1 DUP4 SUB DUP2 DUP7 GAS STATICCALL ISZERO DUP1 ISZERO PUSH2 0x9B7 JUMPI RETURNDATASIZE PUSH1 0x0 DUP1 RETURNDATACOPY RETURNDATASIZE PUSH1 0x0 REVERT JUMPDEST POP POP POP POP PUSH1 0x40 MLOAD RETURNDATASIZE PUSH1 0x1F NOT PUSH1 0x1F DUP3 ADD AND DUP3 ADD DUP1 PUSH1 0x40 MSTORE POP DUP2 ADD SWAP1 PUSH2 0x9DB SWAP2 SWAP1 PUSH2 0x1DC4 JUMP JUMPDEST SWAP1 POP PUSH2 0xA12 PUSH1 0x1 PUSH1 0x1 PUSH1 0xA0 SHL SUB PUSH32 0x0 AND CALLER ADDRESS DUP8 PUSH2 0x1B01 JUMP JUMPDEST PUSH1 0x40 MLOAD PUSH4 0x70A08231 PUSH1 0xE0 SHL DUP2 MSTORE ADDRESS PUSH1 0x4 DUP3 ADD MSTORE PUSH1 0x0 SWAP1 DUP3 SWAP1 PUSH1 0x1 PUSH1 0x1 PUSH1 0xA0 SHL SUB PUSH32 0x0 AND SWAP1 PUSH4 0x70A08231 SWAP1 PUSH1 0x24 ADD PUSH1 0x20 PUSH1 0x40 MLOAD DUP1 DUP4 SUB DUP2 DUP7 GAS STATICCALL ISZERO DUP1 ISZERO PUSH2 0xA7B JUMPI RETURNDATASIZE PUSH1 0x0 DUP1 RETURNDATACOPY RETURNDATASIZE PUSH1 0x0 REVERT JUMPDEST POP POP POP POP PUSH1 0x40 MLOAD RETURNDATASIZE PUSH1 0x1F NOT PUSH1 0x1F DUP3 ADD AND DUP3 ADD DUP1 PUSH1 0x40 MSTORE POP DUP2 ADD SWAP1 PUSH2 0xA9F SWAP2 SWAP1 PUSH2 0x1DC4 JUMP JUMPDEST PUSH2 0xAA9 SWAP2 SWAP1 PUSH2 0x1DDD JUMP JUMPDEST SWAP1 POP DUP1 PUSH1 0x6 SLOAD PUSH2 0xAB9 SWAP2 SWAP1 PUSH2 0x1D78 JUMP JUMPDEST PUSH1 0x5 SLOAD PUSH2 0xAC6 SWAP1 DUP4 PUSH2 0x1D8B JUMP JUMPDEST PUSH2 0xAD0 SWAP2 SWAP1 PUSH2 0x1DA2 JUMP JUMPDEST SWAP3 POP DUP3 ISZERO DUP1 PUSH2 0xADE JUMPI POP DUP4 DUP4 LT JUMPDEST ISZERO PUSH2 0xAFC JUMPI PUSH1 0x40 MLOAD PUSH4 0x8199F5F3 PUSH1 0xE0 SHL DUP2 MSTORE PUSH1 0x4 ADD PUSH1 0x40 MLOAD DUP1 SWAP2 SUB SWAP1 REVERT JUMPDEST PUSH1 0x5 SLOAD DUP4 GT ISZERO PUSH2 0xB1F JUMPI PUSH1 0x40 MLOAD PUSH4 0x28B35F21 PUSH1 0xE0 SHL DUP2 MSTORE PUSH1 0x4 ADD PUSH1 0x40 MLOAD DUP1 SWAP2 SUB SWAP1 REVERT JUMPDEST DUP3 PUSH1 0x5 PUSH1 0x0 DUP3 DUP3 SLOAD PUSH2 0xB31 SWAP2 SWAP1 PUSH2 0x1DDD JUMP JUMPDEST SWAP1 SWAP2 SSTORE POP PUSH2 0xB6B SWAP1 POP PUSH1 0x1 PUSH1 0x1 PUSH1 0xA0 SHL SUB PUSH32 0x0 AND CALLER DUP6 PUSH2 0x1B42 JUMP JUMPDEST PUSH1 0x0 PUSH2 0x2710 PUSH2 0xB7C PUSH2 0x7D0 DUP5 PUSH2 0x1D8B JUMP JUMPDEST PUSH2 0xB86 SWAP2 SWAP1 PUSH2 0x1DA2 JUMP JUMPDEST SWAP1 POP PUSH1 0x0 PUSH2 0x2710 PUSH2 0xB99 PUSH2 0x1B58 DUP6 PUSH2 0x1D8B JUMP JUMPDEST PUSH2 0xBA3 SWAP2 SWAP1 PUSH2 0x1DA2 JUMP JUMPDEST SWAP1 POP PUSH1 0x0 DUP2 PUSH2 0xBB2 DUP5 DUP7 PUSH2 0x1DDD JUMP JUMPDEST PUSH2 0xBBC SWAP2 SWAP1 PUSH2 0x1DDD JUMP JUMPDEST SWAP1 POP DUP3 ISZERO PUSH2 0xBFA JUMPI PUSH2 0xBFA PUSH1 0x1 PUSH1 0x1 PUSH1 0xA0 SHL SUB PUSH32 0x0 AND PUSH2 0xDEAD DUP6 PUSH2 0x1B42 JUMP JUMPDEST DUP2 ISZERO PUSH2 0xC63 JUMPI PUSH1 0x3 SLOAD PUSH1 0x1 PUSH1 0x1 PUSH1 0xA0 SHL SUB AND PUSH2 0xC29 JUMPI PUSH1 0x40 MLOAD PUSH4 0xD92E233D PUSH1 0xE0 SHL DUP2 MSTORE PUSH1 0x4 ADD PUSH1 0x40 MLOAD DUP1 SWAP2 SUB SWAP1 REVERT JUMPDEST PUSH1 0x3 SLOAD PUSH2 0xC63 SWAP1 PUSH1 0x1 PUSH1 0x1 PUSH1 0xA0 SHL SUB PUSH32 0x0 DUP2 AND SWAP2 AND DUP5 PUSH2 0x1B42 JUMP JUMPDEST DUP1 PUSH1 0x6 PUSH1 0x0 DUP3 DUP3 SLOAD PUSH2 0xC75 SWAP2 SWAP1 PUSH2 0x1D78 JUMP JUMPDEST SWAP3 POP POP DUP2 SWAP1 SSTORE POP DUP6 PUSH1 0x7 PUSH1 0x0 DUP3 DUP3 SLOAD PUSH2 0xC8E SWAP2 SWAP1 PUSH2 0x1D78 JUMP JUMPDEST SWAP1 SWAP2 SSTORE POP POP PUSH1 0x8 DUP1 SLOAD SWAP1 PUSH1 0x0 PUSH2 0xCA3 DUP4 PUSH2 0x1DF0 JUMP JUMPDEST SWAP2 SWAP1 POP SSTORE POP PUSH1 0x0 DUP1 PUSH1 0x6 SLOAD GT PUSH2 0xCBA JUMPI PUSH1 0x0 PUSH2 0xCDC JUMP JUMPDEST PUSH1 0x6 SLOAD PUSH1 0x5 SLOAD PUSH2 0xCD2 SWAP1 PUSH8 0xDE0B6B3A7640000 PUSH2 0x1D8B JUMP JUMPDEST PUSH2 0xCDC SWAP2 SWAP1 PUSH2 0x1DA2 JUMP JUMPDEST PUSH1 0x40 DUP1 MLOAD PUSH1 0x0 DUP2 MSTORE PUSH1 0x20 DUP2 ADD DUP13 SWAP1 MSTORE SWAP1 DUP2 ADD DUP10 SWAP1 MSTORE PUSH1 0x60 DUP2 ADD DUP3 SWAP1 MSTORE SWAP1 SWAP2 POP CALLER SWAP1 PUSH32 0x7C707038FB62CB248EC6B437A63EC556BB6233AF235F4518D64693CBA918A6E1 SWAP1 PUSH1 0x80 ADD PUSH1 0x40 MLOAD DUP1 SWAP2 SUB SWAP1 LOG2 PUSH1 0x40 MLOAD DUP2 DUP2 MSTORE PUSH1 0x0 DUP1 MLOAD PUSH1 0x20 PUSH2 0x1E0A DUP4 CODECOPY DUP2 MLOAD SWAP2 MSTORE SWAP1 PUSH1 0x20 ADD PUSH1 0x40 MLOAD DUP1 SWAP2 SUB SWAP1 LOG1 POP POP POP POP POP POP PUSH2 0xD68 PUSH1 0x1 PUSH1 0x0 DUP1 MLOAD PUSH1 0x20 PUSH2 0x1E2A DUP4 CODECOPY DUP2 MLOAD SWAP2 MSTORE SSTORE JUMP JUMPDEST SWAP3 SWAP2 POP POP JUMP JUMPDEST PUSH1 0x3 SLOAD PUSH1 0x1 PUSH1 0x1 PUSH1 0xA0 SHL SUB AND CALLER EQ PUSH2 0xD99 JUMPI PUSH1 0x40 MLOAD PUSH4 0x559B36F PUSH1 0xE1 SHL DUP2 MSTORE PUSH1 0x4 ADD PUSH1 0x40 MLOAD DUP1 SWAP2 SUB SWAP1 REVERT JUMPDEST DUP1 PUSH1 0x0 SUB PUSH2 0xDBA JUMPI PUSH1 0x40 MLOAD PUSH4 0x1F2A2005 PUSH1 0xE0 SHL DUP2 MSTORE PUSH1 0x4 ADD PUSH1 0x40 MLOAD DUP1 SWAP2 SUB SWAP1 REVERT JUMPDEST PUSH2 0xDEF PUSH1 0x1 PUSH1 0x1 PUSH1 0xA0 SHL SUB PUSH32 0x0 AND CALLER ADDRESS DUP5 PUSH2 0x1B01 JUMP JUMPDEST DUP1 PUSH1 0x6 PUSH1 0x0 DUP3 DUP3 SLOAD PUSH2 0xE01 SWAP2 SWAP1 PUSH2 0x1D78 JUMP JUMPDEST SWAP1 SWAP2 SSTORE POP POP POP JUMP JUMPDEST PUSH1 0x0 SLOAD PUSH1 0x1 PUSH1 0x1 PUSH1 0xA0 SHL SUB AND CALLER EQ PUSH2 0xE34 JUMPI PUSH1 0x40 MLOAD PUSH4 0x47556579 PUSH1 0xE0 SHL DUP2 MSTORE PUSH1 0x4 ADD PUSH1 0x40 MLOAD DUP1 SWAP2 SUB SWAP1 REVERT JUMPDEST PUSH1 0x1 PUSH1 0x1 PUSH1 0xA0 SHL SUB DUP2 AND PUSH2 0xE5B JUMPI PUSH1 0x40 MLOAD PUSH4 0xD92E233D PUSH1 0xE0 SHL DUP2 MSTORE PUSH1 0x4 ADD PUSH1 0x40 MLOAD DUP1 SWAP2 SUB SWAP1 REVERT JUMPDEST PUSH1 0x3 DUP1 SLOAD PUSH1 0x1 PUSH1 0x1 PUSH1 0xA0 SHL SUB NOT AND PUSH1 0x1 PUSH1 0x1 PUSH1 0xA0 SHL SUB SWAP3 SWAP1 SWAP3 AND SWAP2 SWAP1 SWAP2 OR SWAP1 SSTORE JUMP JUMPDEST PUSH1 0x0 DUP2 ISZERO DUP1 PUSH2 0xE8C JUMPI POP PUSH1 0x5 SLOAD ISZERO JUMPDEST DUP1 PUSH2 0xE97 JUMPI POP PUSH1 0x6 SLOAD ISZERO JUMPDEST ISZERO PUSH2 0xEA4 JUMPI POP PUSH1 0x0 SWAP2 SWAP1 POP JUMP JUMPDEST PUSH1 0x5 SLOAD DUP3 LT PUSH2 0xEB5 JUMPI POP POP PUSH1 0x6 SLOAD SWAP1 JUMP JUMPDEST DUP2 PUSH1 0x5 SLOAD PUSH2 0xEC3 SWAP2 SWAP1 PUSH2 0x1DDD JUMP JUMPDEST PUSH1 0x6 SLOAD PUSH2 0xED0 SWAP1 DUP5 PUSH2 0x1D8B JUMP JUMPDEST PUSH2 0xD68 SWAP2 SWAP1 PUSH2 0x1DA2 JUMP JUMPDEST PUSH1 0x3 SLOAD PUSH1 0x0 SWAP1 PUSH1 0x1 PUSH1 0x1 PUSH1 0xA0 SHL SUB AND CALLER EQ PUSH2 0xF08 JUMPI PUSH1 0x40 MLOAD PUSH4 0x559B36F PUSH1 0xE1 SHL DUP2 MSTORE PUSH1 0x4 ADD PUSH1 0x40 MLOAD DUP1 SWAP2 SUB SWAP1 REVERT JUMPDEST PUSH2 0xF10 PUSH2 0x1AE5 JUMP JUMPDEST DUP3 PUSH1 0x0 SUB PUSH2 0xF31 JUMPI PUSH1 0x40 MLOAD PUSH4 0x1F2A2005 PUSH1 0xE0 SHL DUP2 MSTORE PUSH1 0x4 ADD PUSH1 0x40 MLOAD DUP1 SWAP2 SUB SWAP1 REVERT JUMPDEST PUSH1 0x1 PUSH1 0x1 PUSH1 0xA0 SHL SUB DUP3 AND PUSH2 0xF58 JUMPI PUSH1 0x40 MLOAD PUSH4 0xD92E233D PUSH1 0xE0 SHL DUP2 MSTORE PUSH1 0x4 ADD PUSH1 0x40 MLOAD DUP1 SWAP2 SUB SWAP1 REVERT JUMPDEST PUSH1 0x5 SLOAD ISZERO DUP1 PUSH2 0xF67 JUMPI POP PUSH1 0x6 SLOAD ISZERO JUMPDEST ISZERO PUSH2 0xF85 JUMPI PUSH1 0x40 MLOAD PUSH4 0x28B35F21 PUSH1 0xE0 SHL DUP2 MSTORE PUSH1 0x4 ADD PUSH1 0x40 MLOAD DUP1 SWAP2 SUB SWAP1 REVERT JUMPDEST DUP3 PUSH1 0x5 SLOAD PUSH2 0xF93 SWAP2 SWAP1 PUSH2 0x1D78 JUMP JUMPDEST PUSH1 0x6 SLOAD PUSH2 0xFA0 SWAP1 DUP6 PUSH2 0x1D8B JUMP JUMPDEST PUSH2 0xFAA SWAP2 SWAP1 PUSH2 0x1DA2 JUMP JUMPDEST SWAP1 POP DUP1 PUSH1 0x0 SUB PUSH2 0xFCD JUMPI PUSH1 0x40 MLOAD PUSH4 0x1F2A2005 PUSH1 0xE0 SHL DUP2 MSTORE PUSH1 0x4 ADD PUSH1 0x40 MLOAD DUP1 SWAP2 SUB SWAP1 REVERT JUMPDEST PUSH2 0x1002 PUSH1 0x1 PUSH1 0x1 PUSH1 0xA0 SHL SUB PUSH32 0x0 AND CALLER ADDRESS DUP7 PUSH2 0x1B01 JUMP JUMPDEST PUSH2 0x1036 PUSH1 0x1 PUSH1 0x1 PUSH1 0xA0 SHL SUB PUSH32 0x0 AND DUP4 DUP4 PUSH2 0x1B42 JUMP JUMPDEST DUP3 PUSH1 0x5 PUSH1 0x0 DUP3 DUP3 SLOAD PUSH2 0x1048 SWAP2 SWAP1 PUSH2 0x1D78 JUMP JUMPDEST SWAP3 POP POP DUP2 SWAP1 SSTORE POP DUP1 PUSH1 0x6 PUSH1 0x0 DUP3 DUP3 SLOAD PUSH2 0x1061 SWAP2 SWAP1 PUSH2 0x1DDD JUMP JUMPDEST SWAP3 POP POP DUP2 SWAP1 SSTORE POP DUP3 PUSH1 0x7 PUSH1 0x0 DUP3 DUP3 SLOAD PUSH2 0x107A SWAP2 SWAP1 PUSH2 0x1D78 JUMP JUMPDEST SWAP1 SWAP2 SSTORE POP POP PUSH1 0x8 DUP1 SLOAD SWAP1 PUSH1 0x0 PUSH2 0x108F DUP4 PUSH2 0x1DF0 JUMP JUMPDEST SWAP2 SWAP1 POP SSTORE POP PUSH1 0x0 DUP1 PUSH1 0x6 SLOAD GT PUSH2 0x10A6 JUMPI PUSH1 0x0 PUSH2 0x10C8 JUMP JUMPDEST PUSH1 0x6 SLOAD PUSH1 0x5 SLOAD PUSH2 0x10BE SWAP1 PUSH8 0xDE0B6B3A7640000 PUSH2 0x1D8B JUMP JUMPDEST PUSH2 0x10C8 SWAP2 SWAP1 PUSH2 0x1DA2 JUMP JUMPDEST PUSH1 0x40 DUP1 MLOAD PUSH1 0x1 DUP2 MSTORE PUSH1 0x20 DUP2 ADD DUP8 SWAP1 MSTORE SWAP1 DUP2 ADD DUP5 SWAP1 MSTORE PUSH1 0x60 DUP2 ADD DUP3 SWAP1 MSTORE SWAP1 SWAP2 POP PUSH1 0x1 PUSH1 0x1 PUSH1 0xA0 SHL SUB DUP5 AND SWAP1 PUSH32 0x7C707038FB62CB248EC6B437A63EC556BB6233AF235F4518D64693CBA918A6E1 SWAP1 PUSH1 0x80 ADD JUMPDEST PUSH1 0x40 MLOAD DUP1 SWAP2 SUB SWAP1 LOG2 PUSH1 0x40 MLOAD DUP2 DUP2 MSTORE PUSH1 0x0 DUP1 MLOAD PUSH1 0x20 PUSH2 0x1E0A DUP4 CODECOPY DUP2 MLOAD SWAP2 MSTORE SWAP1 PUSH1 0x20 ADD JUMPDEST PUSH1 0x40 MLOAD DUP1 SWAP2 SUB SWAP1 LOG1 POP PUSH2 0xD68 PUSH1 0x1 PUSH1 0x0 DUP1 MLOAD PUSH1 0x20 PUSH2 0x1E2A DUP4 CODECOPY DUP2 MLOAD SWAP2 MSTORE SSTORE JUMP JUMPDEST PUSH1 0x0 SLOAD PUSH1 0x1 PUSH1 0x1 PUSH1 0xA0 SHL SUB AND CALLER EQ PUSH2 0x1185 JUMPI PUSH1 0x40 MLOAD PUSH4 0x47556579 PUSH1 0xE0 SHL DUP2 MSTORE PUSH1 0x4 ADD PUSH1 0x40 MLOAD DUP1 SWAP2 SUB SWAP1 REVERT JUMPDEST PUSH1 0x4 SLOAD PUSH1 0x1 PUSH1 0xA0 SHL SWAP1 DIV PUSH1 0xFF AND ISZERO PUSH2 0x11B0 JUMPI PUSH1 0x40 MLOAD PUSH4 0x238F75D3 PUSH1 0xE0 SHL DUP2 MSTORE PUSH1 0x4 ADD PUSH1 0x40 MLOAD DUP1 SWAP2 SUB SWAP1 REVERT JUMPDEST PUSH1 0x1 DUP1 SLOAD PUSH1 0x1 PUSH1 0x1 PUSH1 0xA0 SHL SUB SWAP5 DUP6 AND PUSH1 0x1 PUSH1 0x1 PUSH1 0xA0 SHL SUB NOT SWAP2 DUP3 AND OR SWAP1 SWAP2 SSTORE PUSH1 0x2 DUP1 SLOAD SWAP4 DUP6 AND SWAP4 DUP3 AND SWAP4 SWAP1 SWAP4 OR SWAP1 SWAP3 SSTORE PUSH1 0x3 DUP1 SLOAD SWAP2 SWAP1 SWAP4 AND SWAP2 AND OR SWAP1 SSTORE PUSH1 0x4 DUP1 SLOAD PUSH1 0xFF PUSH1 0xA0 SHL NOT AND PUSH1 0x1 PUSH1 0xA0 SHL OR SWAP1 SSTORE JUMP JUMPDEST PUSH1 0x0 SLOAD PUSH1 0x1 PUSH1 0x1 PUSH1 0xA0 SHL SUB AND CALLER EQ PUSH2 0x122D JUMPI PUSH1 0x40 MLOAD PUSH4 0x47556579 PUSH1 0xE0 SHL DUP2 MSTORE PUSH1 0x4 ADD PUSH1 0x40 MLOAD DUP1 SWAP2 SUB SWAP1 REVERT JUMPDEST PUSH1 0x4 SLOAD PUSH1 0x1 PUSH1 0xA0 SHL SWAP1 DIV PUSH1 0xFF AND ISZERO PUSH2 0x1258 JUMPI PUSH1 0x40 MLOAD PUSH4 0x238F75D3 PUSH1 0xE0 SHL DUP2 MSTORE PUSH1 0x4 ADD PUSH1 0x40 MLOAD DUP1 SWAP2 SUB SWAP1 REVERT JUMPDEST PUSH1 0x4 DUP1 SLOAD PUSH1 0xFF PUSH1 0xA0 SHL NOT AND PUSH1 0x1 PUSH1 0xA0 SHL OR SWAP1 SSTORE PUSH1 0x0 DUP1 SLOAD PUSH1 0x1 PUSH1 0x1 PUSH1 0xA0 SHL SUB NOT AND SWAP1 SSTORE JUMP JUMPDEST PUSH1 0x0 PUSH1 0x6 SLOAD PUSH1 0x0 EQ DUP1 PUSH2 0x1290 JUMPI POP PUSH1 0x5 SLOAD ISZERO JUMPDEST ISZERO PUSH2 0x129B JUMPI POP PUSH1 0x0 SWAP1 JUMP JUMPDEST PUSH1 0x6 SLOAD PUSH1 0x5 SLOAD PUSH2 0x12B3 SWAP1 PUSH8 0xDE0B6B3A7640000 PUSH2 0x1D8B JUMP JUMPDEST PUSH2 0x12BD SWAP2 SWAP1 PUSH2 0x1DA2 JUMP JUMPDEST SWAP1 POP SWAP1 JUMP JUMPDEST PUSH1 0x2 SLOAD PUSH1 0x1 PUSH1 0x1 PUSH1 0xA0 SHL SUB AND CALLER EQ PUSH2 0x12ED JUMPI PUSH1 0x40 MLOAD PUSH4 0xBE5A3E1 PUSH1 0xE3 SHL DUP2 MSTORE PUSH1 0x4 ADD PUSH1 0x40 MLOAD DUP1 SWAP2 SUB SWAP1 REVERT JUMPDEST DUP2 ISZERO DUP1 PUSH2 0x12F8 JUMPI POP DUP1 ISZERO JUMPDEST ISZERO PUSH2 0x1316 JUMPI PUSH1 0x40 MLOAD PUSH4 0x1F2A2005 PUSH1 0xE0 SHL DUP2 MSTORE PUSH1 0x4 ADD PUSH1 0x40 MLOAD DUP1 SWAP2 SUB SWAP1 REVERT JUMPDEST PUSH2 0x134B PUSH1 0x1 PUSH1 0x1 PUSH1 0xA0 SHL SUB PUSH32 0x0 AND CALLER ADDRESS DUP6 PUSH2 0x1B01 JUMP JUMPDEST PUSH2 0x1380 PUSH1 0x1 PUSH1 0x1 PUSH1 0xA0 SHL SUB PUSH32 0x0 AND CALLER ADDRESS DUP5 PUSH2 0x1B01 JUMP JUMPDEST DUP2 PUSH1 0x5 PUSH1 0x0 DUP3 DUP3 SLOAD PUSH2 0x1392 SWAP2 SWAP1 PUSH2 0x1D78 JUMP JUMPDEST SWAP3 POP POP DUP2 SWAP1 SSTORE POP DUP1 PUSH1 0x6 PUSH1 0x0 DUP3 DUP3 SLOAD PUSH2 0x13AB SWAP2 SWAP1 PUSH2 0x1D78 JUMP JUMPDEST SWAP1 SWAP2 SSTORE POP DUP2 SWAP1 POP PUSH2 0x13C4 DUP4 PUSH8 0xDE0B6B3A7640000 PUSH2 0x1D8B JUMP JUMPDEST PUSH2 0x13CE SWAP2 SWAP1 PUSH2 0x1DA2 JUMP JUMPDEST PUSH1 0x9 SSTORE PUSH1 0x40 DUP1 MLOAD DUP4 DUP2 MSTORE PUSH1 0x20 DUP2 ADD DUP4 SWAP1 MSTORE PUSH32 0x9C86429231ED0411E3112A1DD5C6578826C2D48089D5EC491E874CE0029C0BBE SWAP2 ADD PUSH1 0x40 MLOAD DUP1 SWAP2 SUB SWAP1 LOG1 PUSH1 0x0 DUP1 MLOAD PUSH1 0x20 PUSH2 0x1E0A DUP4 CODECOPY DUP2 MLOAD SWAP2 MSTORE PUSH1 0x9 SLOAD PUSH1 0x40 MLOAD PUSH2 0x8EC SWAP2 DUP2 MSTORE PUSH1 0x20 ADD SWAP1 JUMP JUMPDEST PUSH1 0x0 DUP2 ISZERO DUP1 PUSH2 0x143A JUMPI POP PUSH1 0x5 SLOAD ISZERO JUMPDEST DUP1 PUSH2 0x1445 JUMPI POP PUSH1 0x6 SLOAD ISZERO JUMPDEST ISZERO PUSH2 0x1452 JUMPI POP PUSH1 0x0 SWAP2 SWAP1 POP JUMP JUMPDEST PUSH1 0x0 PUSH2 0x2710 PUSH2 0x1463 PUSH2 0x3E8 DUP6 PUSH2 0x1D8B JUMP JUMPDEST PUSH2 0x146D SWAP2 SWAP1 PUSH2 0x1DA2 JUMP JUMPDEST PUSH2 0x1477 SWAP1 DUP5 PUSH2 0x1DDD JUMP JUMPDEST SWAP1 POP PUSH1 0x0 DUP2 PUSH1 0x6 SLOAD PUSH2 0x1489 SWAP2 SWAP1 PUSH2 0x1D78 JUMP JUMPDEST PUSH1 0x5 SLOAD PUSH2 0x1496 SWAP1 DUP5 PUSH2 0x1D8B JUMP JUMPDEST PUSH2 0x14A0 SWAP2 SWAP1 PUSH2 0x1DA2 JUMP JUMPDEST SWAP1 POP PUSH1 0x5 SLOAD DUP2 GT ISZERO PUSH2 0x14B6 JUMPI POP PUSH1 0x0 SWAP4 SWAP3 POP POP POP JUMP JUMPDEST SWAP4 SWAP3 POP POP POP JUMP JUMPDEST PUSH1 0x0 SLOAD PUSH1 0x1 PUSH1 0x1 PUSH1 0xA0 SHL SUB AND CALLER EQ PUSH2 0x4A6 JUMPI PUSH1 0x40 MLOAD PUSH4 0x47556579 PUSH1 0xE0 SHL DUP2 MSTORE PUSH1 0x4 ADD PUSH1 0x40 MLOAD DUP1 SWAP2 SUB SWAP1 REVERT JUMPDEST PUSH1 0x0 PUSH2 0x14F2 PUSH2 0x1AE5 JUMP JUMPDEST PUSH1 0x3 SLOAD PUSH1 0x1 PUSH1 0x1 PUSH1 0xA0 SHL SUB AND CALLER EQ DUP1 ISZERO SWAP1 PUSH2 0x1518 JUMPI POP PUSH1 0x4 SLOAD PUSH1 0x1 PUSH1 0x1 PUSH1 0xA0 SHL SUB AND CALLER EQ ISZERO JUMPDEST ISZERO PUSH2 0x1536 JUMPI PUSH1 0x40 MLOAD PUSH4 0xA0049749 PUSH1 0xE0 SHL DUP2 MSTORE PUSH1 0x4 ADD PUSH1 0x40 MLOAD DUP1 SWAP2 SUB SWAP1 REVERT JUMPDEST DUP3 PUSH1 0x0 SUB PUSH2 0x1557 JUMPI PUSH1 0x40 MLOAD PUSH4 0x1F2A2005 PUSH1 0xE0 SHL DUP2 MSTORE PUSH1 0x4 ADD PUSH1 0x40 MLOAD DUP1 SWAP2 SUB SWAP1 REVERT JUMPDEST PUSH1 0x5 SLOAD ISZERO DUP1 PUSH2 0x1566 JUMPI POP PUSH1 0x6 SLOAD ISZERO JUMPDEST ISZERO PUSH2 0x1584 JUMPI PUSH1 0x40 MLOAD PUSH4 0x28B35F21 PUSH1 0xE0 SHL DUP2 MSTORE PUSH1 0x4 ADD PUSH1 0x40 MLOAD DUP1 SWAP2 SUB SWAP1 REVERT JUMPDEST DUP3 PUSH1 0x5 SLOAD PUSH2 0x1592 SWAP2 SWAP1 PUSH2 0x1D78 JUMP JUMPDEST PUSH1 0x6 SLOAD PUSH2 0x159F SWAP1 DUP6 PUSH2 0x1D8B JUMP JUMPDEST PUSH2 0x15A9 SWAP2 SWAP1 PUSH2 0x1DA2 JUMP JUMPDEST SWAP1 POP DUP1 ISZERO DUP1 PUSH2 0x15B7 JUMPI POP DUP2 DUP2 LT JUMPDEST ISZERO PUSH2 0x15D5 JUMPI PUSH1 0x40 MLOAD PUSH4 0x8199F5F3 PUSH1 0xE0 SHL DUP2 MSTORE PUSH1 0x4 ADD PUSH1 0x40 MLOAD DUP1 SWAP2 SUB SWAP1 REVERT JUMPDEST PUSH2 0x160A PUSH1 0x1 PUSH1 0x1 PUSH1 0xA0 SHL SUB PUSH32 0x0 AND CALLER ADDRESS DUP7 PUSH2 0x1B01 JUMP JUMPDEST PUSH2 0x163E PUSH1 0x1 PUSH1 0x1 PUSH1 0xA0 SHL SUB PUSH32 0x0 AND CALLER DUP4 PUSH2 0x1B42 JUMP JUMPDEST DUP3 PUSH1 0x5 PUSH1 0x0 DUP3 DUP3 SLOAD PUSH2 0x1650 SWAP2 SWAP1 PUSH2 0x1D78 JUMP JUMPDEST SWAP3 POP POP DUP2 SWAP1 SSTORE POP DUP1 PUSH1 0x6 PUSH1 0x0 DUP3 DUP3 SLOAD PUSH2 0x1669 SWAP2 SWAP1 PUSH2 0x1DDD JUMP JUMPDEST SWAP3 POP POP DUP2 SWAP1 SSTORE POP DUP3 PUSH1 0x7 PUSH1 0x0 DUP3 DUP3 SLOAD PUSH2 0x1682 SWAP2 SWAP1 PUSH2 0x1D78 JUMP JUMPDEST SWAP1 SWAP2 SSTORE POP POP PUSH1 0x8 DUP1 SLOAD SWAP1 PUSH1 0x0 PUSH2 0x1697 DUP4 PUSH2 0x1DF0 JUMP JUMPDEST SWAP2 SWAP1 POP SSTORE POP PUSH1 0x0 DUP1 PUSH1 0x6 SLOAD GT PUSH2 0x16AE JUMPI PUSH1 0x0 PUSH2 0x16D0 JUMP JUMPDEST PUSH1 0x6 SLOAD PUSH1 0x5 SLOAD PUSH2 0x16C6 SWAP1 PUSH8 0xDE0B6B3A7640000 PUSH2 0x1D8B JUMP JUMPDEST PUSH2 0x16D0 SWAP2 SWAP1 PUSH2 0x1DA2 JUMP JUMPDEST PUSH1 0x40 DUP1 MLOAD PUSH1 0x1 DUP2 MSTORE PUSH1 0x20 DUP2 ADD DUP8 SWAP1 MSTORE SWAP1 DUP2 ADD DUP5 SWAP1 MSTORE PUSH1 0x60 DUP2 ADD DUP3 SWAP1 MSTORE SWAP1 SWAP2 POP CALLER SWAP1 PUSH32 0x7C707038FB62CB248EC6B437A63EC556BB6233AF235F4518D64693CBA918A6E1 SWAP1 PUSH1 0x80 ADD PUSH2 0x1118 JUMP JUMPDEST PUSH1 0x1 SLOAD PUSH1 0x1 PUSH1 0x1 PUSH1 0xA0 SHL SUB AND CALLER EQ PUSH2 0xE34 JUMPI PUSH1 0x40 MLOAD PUSH4 0xE05F485 PUSH1 0xE1 SHL DUP2 MSTORE PUSH1 0x4 ADD PUSH1 0x40 MLOAD DUP1 SWAP2 SUB SWAP1 REVERT JUMPDEST PUSH1 0x2 SLOAD PUSH1 0x1 PUSH1 0x1 PUSH1 0xA0 SHL SUB AND CALLER EQ PUSH2 0x1771 JUMPI PUSH1 0x40 MLOAD PUSH4 0xBE5A3E1 PUSH1 0xE3 SHL DUP2 MSTORE PUSH1 0x4 ADD PUSH1 0x40 MLOAD DUP1 SWAP2 SUB SWAP1 REVERT JUMPDEST DUP1 PUSH1 0x0 SUB PUSH2 0x1792 JUMPI PUSH1 0x40 MLOAD PUSH4 0x1F2A2005 PUSH1 0xE0 SHL DUP2 MSTORE PUSH1 0x4 ADD PUSH1 0x40 MLOAD DUP1 SWAP2 SUB SWAP1 REVERT JUMPDEST PUSH2 0x17C7 PUSH1 0x1 PUSH1 0x1 PUSH1 0xA0 SHL SUB PUSH32 0x0 AND CALLER ADDRESS DUP5 PUSH2 0x1B01 JUMP JUMPDEST DUP1 PUSH1 0x5 PUSH1 0x0 DUP3 DUP3 SLOAD PUSH2 0x17D9 SWAP2 SWAP1 PUSH2 0x1D78 JUMP JUMPDEST SWAP3 POP POP DUP2 SWAP1 SSTORE POP PUSH1 0x0 PUSH32 0x0 PUSH1 0x1 PUSH1 0x1 PUSH1 0xA0 SHL SUB AND PUSH4 0x18160DDD PUSH1 0x40 MLOAD DUP2 PUSH4 0xFFFFFFFF AND PUSH1 0xE0 SHL DUP2 MSTORE PUSH1 0x4 ADD PUSH1 0x20 PUSH1 0x40 MLOAD DUP1 DUP4 SUB DUP2 DUP7 GAS STATICCALL ISZERO DUP1 ISZERO PUSH2 0x1840 JUMPI RETURNDATASIZE PUSH1 0x0 DUP1 RETURNDATACOPY RETURNDATASIZE PUSH1 0x0 REVERT JUMPDEST POP POP POP POP PUSH1 0x40 MLOAD RETURNDATASIZE PUSH1 0x1F NOT PUSH1 0x1F DUP3 ADD AND DUP3 ADD DUP1 PUSH1 0x40 MSTORE POP DUP2 ADD SWAP1 PUSH2 0x1864 SWAP2 SWAP1 PUSH2 0x1DC4 JUMP JUMPDEST PUSH1 0x5 SLOAD PUSH2 0x88C SWAP1 PUSH8 0xDE0B6B3A7640000 PUSH2 0x1D8B JUMP JUMPDEST PUSH1 0x3 SLOAD PUSH1 0x0 SWAP1 PUSH1 0x1 PUSH1 0x1 PUSH1 0xA0 SHL SUB AND CALLER EQ PUSH2 0x18A7 JUMPI PUSH1 0x40 MLOAD PUSH4 0x559B36F PUSH1 0xE1 SHL DUP2 MSTORE PUSH1 0x4 ADD PUSH1 0x40 MLOAD DUP1 SWAP2 SUB SWAP1 REVERT JUMPDEST PUSH2 0x18AF PUSH2 0x1AE5 JUMP JUMPDEST DUP3 PUSH1 0x0 SUB PUSH2 0x18D0 JUMPI PUSH1 0x40 MLOAD PUSH4 0x1F2A2005 PUSH1 0xE0 SHL DUP2 MSTORE PUSH1 0x4 ADD PUSH1 0x40 MLOAD DUP1 SWAP2 SUB SWAP1 REVERT JUMPDEST PUSH1 0x1 PUSH1 0x1 PUSH1 0xA0 SHL SUB DUP3 AND PUSH2 0x18F7 JUMPI PUSH1 0x40 MLOAD PUSH4 0xD92E233D PUSH1 0xE0 SHL DUP2 MSTORE PUSH1 0x4 ADD PUSH1 0x40 MLOAD DUP1 SWAP2 SUB SWAP1 REVERT JUMPDEST PUSH2 0x192C PUSH1 0x1 PUSH1 0x1 PUSH1 0xA0 SHL SUB PUSH32 0x0 AND CALLER ADDRESS DUP7 PUSH2 0x1B01 JUMP JUMPDEST PUSH1 0x0 PUSH1 0x5 SLOAD GT DUP1 ISZERO PUSH2 0x1940 JUMPI POP PUSH1 0x0 PUSH1 0x6 SLOAD GT JUMPDEST ISZERO PUSH2 0x1971 JUMPI DUP3 PUSH1 0x6 SLOAD PUSH2 0x1953 SWAP2 SWAP1 PUSH2 0x1D78 JUMP JUMPDEST PUSH1 0x5 SLOAD PUSH2 0x1960 SWAP1 DUP6 PUSH2 0x1D8B JUMP JUMPDEST PUSH2 0x196A SWAP2 SWAP1 PUSH2 0x1DA2 JUMP JUMPDEST SWAP1 POP PUSH2 0x1974 JUMP JUMPDEST POP DUP2 JUMPDEST DUP1 PUSH1 0x0 SUB PUSH2 0x1995 JUMPI PUSH1 0x40 MLOAD PUSH4 0x1F2A2005 PUSH1 0xE0 SHL DUP2 MSTORE PUSH1 0x4 ADD PUSH1 0x40 MLOAD DUP1 SWAP2 SUB SWAP1 REVERT JUMPDEST PUSH1 0x5 SLOAD DUP2 GT ISZERO PUSH2 0x19B8 JUMPI PUSH1 0x40 MLOAD PUSH4 0x28B35F21 PUSH1 0xE0 SHL DUP2 MSTORE PUSH1 0x4 ADD PUSH1 0x40 MLOAD DUP1 SWAP2 SUB SWAP1 REVERT JUMPDEST DUP3 PUSH1 0x6 PUSH1 0x0 DUP3 DUP3 SLOAD PUSH2 0x19CA SWAP2 SWAP1 PUSH2 0x1D78 JUMP JUMPDEST SWAP3 POP POP DUP2 SWAP1 SSTORE POP DUP1 PUSH1 0x5 PUSH1 0x0 DUP3 DUP3 SLOAD PUSH2 0x19E3 SWAP2 SWAP1 PUSH2 0x1DDD JUMP JUMPDEST SWAP1 SWAP2 SSTORE POP PUSH2 0x1A1D SWAP1 POP PUSH1 0x1 PUSH1 0x1 PUSH1 0xA0 SHL SUB PUSH32 0x0 AND DUP4 DUP4 PUSH2 0x1B42 JUMP JUMPDEST PUSH1 0x0 DUP1 PUSH1 0x6 SLOAD GT PUSH2 0x1A2F JUMPI PUSH1 0x0 PUSH2 0x1A51 JUMP JUMPDEST PUSH1 0x6 SLOAD PUSH1 0x5 SLOAD PUSH2 0x1A47 SWAP1 PUSH8 0xDE0B6B3A7640000 PUSH2 0x1D8B JUMP JUMPDEST PUSH2 0x1A51 SWAP2 SWAP1 PUSH2 0x1DA2 JUMP JUMPDEST SWAP1 POP DUP2 PUSH1 0x7 PUSH1 0x0 DUP3 DUP3 SLOAD PUSH2 0x1A65 SWAP2 SWAP1 PUSH2 0x1D78 JUMP JUMPDEST SWAP1 SWAP2 SSTORE POP POP PUSH1 0x8 DUP1 SLOAD SWAP1 PUSH1 0x0 PUSH2 0x1A7A DUP4 PUSH2 0x1DF0 JUMP JUMPDEST SWAP1 SWAP2 SSTORE POP POP PUSH1 0x40 DUP1 MLOAD DUP6 DUP2 MSTORE PUSH1 0x20 DUP2 ADD DUP5 SWAP1 MSTORE PUSH1 0x1 PUSH1 0x1 PUSH1 0xA0 SHL SUB DUP6 AND DUP2 DUP4 ADD MSTORE SWAP1 MLOAD PUSH32 0x1408158D52D7D739E0848C588738E9B79917E2773E51C49FF4544E3E6A538F8C SWAP2 DUP2 SWAP1 SUB PUSH1 0x60 ADD SWAP1 LOG1 PUSH1 0x40 MLOAD DUP2 DUP2 MSTORE PUSH1 0x0 DUP1 MLOAD PUSH1 0x20 PUSH2 0x1E0A DUP4 CODECOPY DUP2 MLOAD SWAP2 MSTORE SWAP1 PUSH1 0x20 ADD PUSH2 0x113A JUMP JUMPDEST PUSH2 0x1AED PUSH2 0x1B7C JUMP JUMPDEST PUSH1 0x2 PUSH1 0x0 DUP1 MLOAD PUSH1 0x20 PUSH2 0x1E2A DUP4 CODECOPY DUP2 MLOAD SWAP2 MSTORE SSTORE JUMP JUMPDEST PUSH2 0x1B0F DUP5 DUP5 DUP5 DUP5 PUSH1 0x1 PUSH2 0x1BAE JUMP JUMPDEST PUSH2 0x1B3C JUMPI PUSH1 0x40 MLOAD PUSH4 0x5274AFE7 PUSH1 0xE0 SHL DUP2 MSTORE PUSH1 0x1 PUSH1 0x1 PUSH1 0xA0 SHL SUB DUP6 AND PUSH1 0x4 DUP3 ADD MSTORE PUSH1 0x24 ADD JUMPDEST PUSH1 0x40 MLOAD DUP1 SWAP2 SUB SWAP1 REVERT JUMPDEST POP POP POP POP JUMP JUMPDEST PUSH2 0x1B4F DUP4 DUP4 DUP4 PUSH1 0x1 PUSH2 0x1C20 JUMP JUMPDEST PUSH2 0x1B77 JUMPI PUSH1 0x40 MLOAD PUSH4 0x5274AFE7 PUSH1 0xE0 SHL DUP2 MSTORE PUSH1 0x1 PUSH1 0x1 PUSH1 0xA0 SHL SUB DUP5 AND PUSH1 0x4 DUP3 ADD MSTORE PUSH1 0x24 ADD PUSH2 0x1B33 JUMP JUMPDEST POP POP POP JUMP JUMPDEST PUSH1 0x0 DUP1 MLOAD PUSH1 0x20 PUSH2 0x1E2A DUP4 CODECOPY DUP2 MLOAD SWAP2 MSTORE SLOAD PUSH1 0x2 SUB PUSH2 0x1BAC JUMPI PUSH1 0x40 MLOAD PUSH4 0x3EE5AEB5 PUSH1 0xE0 SHL DUP2 MSTORE PUSH1 0x4 ADD PUSH1 0x40 MLOAD DUP1 SWAP2 SUB SWAP1 REVERT JUMPDEST JUMP JUMPDEST PUSH1 0x40 MLOAD PUSH4 0x23B872DD PUSH1 0xE0 SHL PUSH1 0x0 DUP2 DUP2 MSTORE PUSH1 0x1 PUSH1 0x1 PUSH1 0xA0 SHL SUB DUP8 DUP2 AND PUSH1 0x4 MSTORE DUP7 AND PUSH1 0x24 MSTORE PUSH1 0x44 DUP6 SWAP1 MSTORE SWAP2 PUSH1 0x20 DUP4 PUSH1 0x64 DUP2 DUP1 DUP13 GAS CALL SWAP3 POP PUSH1 0x1 PUSH1 0x0 MLOAD EQ DUP4 AND PUSH2 0x1C0E JUMPI DUP4 DUP4 ISZERO AND ISZERO PUSH2 0x1C01 JUMPI RETURNDATASIZE PUSH1 0x0 DUP3 RETURNDATACOPY RETURNDATASIZE DUP2 REVERT JUMPDEST PUSH1 0x0 DUP9 EXTCODESIZE GT RETURNDATASIZE ISZERO AND DUP4 AND SWAP3 POP JUMPDEST PUSH1 0x40 MSTORE POP PUSH1 0x0 PUSH1 0x60 MSTORE SWAP6 SWAP5 POP POP POP POP POP JUMP JUMPDEST PUSH1 0x40 MLOAD PUSH4 0xA9059CBB PUSH1 0xE0 SHL PUSH1 0x0 DUP2 DUP2 MSTORE PUSH1 0x1 PUSH1 0x1 PUSH1 0xA0 SHL SUB DUP7 AND PUSH1 0x4 MSTORE PUSH1 0x24 DUP6 SWAP1 MSTORE SWAP2 PUSH1 0x20 DUP4 PUSH1 0x44 DUP2 DUP1 DUP12 GAS CALL SWAP3 POP PUSH1 0x1 PUSH1 0x0 MLOAD EQ DUP4 AND PUSH2 0x1C7A JUMPI DUP4 DUP4 ISZERO AND ISZERO PUSH2 0x1C6D JUMPI RETURNDATASIZE PUSH1 0x0 DUP3 RETURNDATACOPY RETURNDATASIZE DUP2 REVERT JUMPDEST PUSH1 0x0 DUP8 EXTCODESIZE GT RETURNDATASIZE ISZERO AND DUP4 AND SWAP3 POP JUMPDEST PUSH1 0x40 MSTORE POP SWAP5 SWAP4 POP POP POP POP JUMP JUMPDEST DUP1 CALLDATALOAD PUSH1 0x1 PUSH1 0x1 PUSH1 0xA0 SHL SUB DUP2 AND DUP2 EQ PUSH2 0x7C6 JUMPI PUSH1 0x0 DUP1 REVERT JUMPDEST PUSH1 0x0 PUSH1 0x20 DUP3 DUP5 SUB SLT ISZERO PUSH2 0x1CAF JUMPI PUSH1 0x0 DUP1 REVERT JUMPDEST PUSH2 0x14B6 DUP3 PUSH2 0x1C86 JUMP JUMPDEST PUSH1 0x0 PUSH1 0x20 DUP3 DUP5 SUB SLT ISZERO PUSH2 0x1CCA JUMPI PUSH1 0x0 DUP1 REVERT JUMPDEST POP CALLDATALOAD SWAP2 SWAP1 POP JUMP JUMPDEST PUSH1 0x0 DUP1 PUSH1 0x40 DUP4 DUP6 SUB SLT ISZERO PUSH2 0x1CE4 JUMPI PUSH1 0x0 DUP1 REVERT JUMPDEST POP POP DUP1 CALLDATALOAD SWAP3 PUSH1 0x20 SWAP1 SWAP2 ADD CALLDATALOAD SWAP2 POP JUMP JUMPDEST PUSH1 0x0 DUP1 PUSH1 0x40 DUP4 DUP6 SUB SLT ISZERO PUSH2 0x1D06 JUMPI PUSH1 0x0 DUP1 REVERT JUMPDEST DUP3 CALLDATALOAD SWAP2 POP PUSH2 0x1D16 PUSH1 0x20 DUP5 ADD PUSH2 0x1C86 JUMP JUMPDEST SWAP1 POP SWAP3 POP SWAP3 SWAP1 POP JUMP JUMPDEST PUSH1 0x0 DUP1 PUSH1 0x0 PUSH1 0x60 DUP5 DUP7 SUB SLT ISZERO PUSH2 0x1D34 JUMPI PUSH1 0x0 DUP1 REVERT JUMPDEST PUSH2 0x1D3D DUP5 PUSH2 0x1C86 JUMP JUMPDEST SWAP3 POP PUSH2 0x1D4B PUSH1 0x20 DUP6 ADD PUSH2 0x1C86 JUMP JUMPDEST SWAP2 POP PUSH2 0x1D59 PUSH1 0x40 DUP6 ADD PUSH2 0x1C86 JUMP JUMPDEST SWAP1 POP SWAP3 POP SWAP3 POP SWAP3 JUMP JUMPDEST PUSH4 0x4E487B71 PUSH1 0xE0 SHL PUSH1 0x0 MSTORE PUSH1 0x11 PUSH1 0x4 MSTORE PUSH1 0x24 PUSH1 0x0 REVERT JUMPDEST DUP1 DUP3 ADD DUP1 DUP3 GT ISZERO PUSH2 0xD68 JUMPI PUSH2 0xD68 PUSH2 0x1D62 JUMP JUMPDEST DUP1 DUP3 MUL DUP2 ISZERO DUP3 DUP3 DIV DUP5 EQ OR PUSH2 0xD68 JUMPI PUSH2 0xD68 PUSH2 0x1D62 JUMP JUMPDEST PUSH1 0x0 DUP3 PUSH2 0x1DBF JUMPI PUSH4 0x4E487B71 PUSH1 0xE0 SHL PUSH1 0x0 MSTORE PUSH1 0x12 PUSH1 0x4 MSTORE PUSH1 0x24 PUSH1 0x0 REVERT JUMPDEST POP DIV SWAP1 JUMP JUMPDEST PUSH1 0x0 PUSH1 0x20 DUP3 DUP5 SUB SLT ISZERO PUSH2 0x1DD6 JUMPI PUSH1 0x0 DUP1 REVERT JUMPDEST POP MLOAD SWAP2 SWAP1 POP JUMP JUMPDEST DUP2 DUP2 SUB DUP2 DUP2 GT ISZERO PUSH2 0xD68 JUMPI PUSH2 0xD68 PUSH2 0x1D62 JUMP JUMPDEST PUSH1 0x0 PUSH1 0x1 DUP3 ADD PUSH2 0x1E02 JUMPI PUSH2 0x1E02 PUSH2 0x1D62 JUMP JUMPDEST POP PUSH1 0x1 ADD SWAP1 JUMP INVALID PUSH7 0xCBCA4F3C64FECF SAR 0xCB SWAP13 0xE0 SWAP5 0xAB 0xCF PUSH32 0x68C3450A1D4E3A8E917DD621EDB4EBE09B779B17422D0DF92223018B32B4D1FA CHAINID 0xE0 PUSH18 0x723D6817E2486D003BECC55F00A264697066 PUSH20 0x58221220BEB03866A8F7A9ED6FC0D88D9A78BCFF 0x2B ADDRESS SWAP4 0x2E 0xCA 0xC9 SELFDESTRUCT 0xC5 SELFDESTRUCT BALANCE 0xD0 LOG3 0xE 0xC6 JUMP 0x2D PUSH5 0x736F6C6343 STOP ADDMOD XOR STOP CALLER "},"methodIdentifiers":{"addInitialLiquidity(uint256,uint256)":"a40f4fa1","addLiquidityFromFees(uint256)":"ee3b038f","admin()":"f851a440","completeSetup()":"8aea8f71","configure(address,address,address)":"55d28f20","forceSetInvestmentEngine(address)":"3984a3aa","forceSetReferralContract(address)":"bb069b93","getOSLOForUSDTOutput(uint256)":"a7978031","getPrice()":"98d5fdca","getReserves()":"0902f1ac","getUSDTForOSLOOutput(uint256)":"47aa7ea4","injectUSDTLiquidity(uint256)":"2276741b","investmentEngine()":"30131384","lastPrice()":"053f14da","liquidityManager()":"33827438","osloReserve()":"a1e26e7b","osloToken()":"2acfbca3","processDeposit(uint256)":"0cc2055a","processWithdrawal(uint256,address)":"f843e641","referralContract()":"7dad19db","replenishOsloReserve(uint256)":"362ce52b","setInvestmentEngine(address)":"cb4f51d1","setReferralContract(address)":"06ad5a47","setupComplete()":"b6635be6","swapOSLOForUSDT(uint256,uint256)":"30cf2aeb","swapUSDTForOSLO(uint256,uint256)":"c2c90687","swapYieldForOSLO(uint256,address)":"528816c6","timelock()":"d33219b4","totalSwaps()":"b4a800ce","totalVolumeUSDT()":"83bbdd5f","usdt()":"2f48ab7d","usdtReserve()":"ac257a6e"}}}}}