{"contracts/FeeRouterV2.sol":{"FeeRouterV2":{"abi":[{"inputs":[{"internalType":"address","name":"_usdt","type":"address"},{"internalType":"address","name":"_dex","type":"address"}],"stateMutability":"nonpayable","type":"constructor"},{"inputs":[],"name":"OnlyAdmin","type":"error"},{"inputs":[{"internalType":"address","name":"token","type":"address"}],"name":"SafeERC20FailedOperation","type":"error"},{"inputs":[],"name":"ZeroAddress","type":"error"},{"inputs":[],"name":"ZeroAmount","type":"error"},{"anonymous":false,"inputs":[{"indexed":true,"internalType":"address","name":"newDex","type":"address"}],"name":"DexUpdated","type":"event"},{"anonymous":false,"inputs":[{"indexed":true,"internalType":"address","name":"from","type":"address"},{"indexed":false,"internalType":"uint256","name":"amount","type":"uint256"},{"indexed":true,"internalType":"address","name":"dex","type":"address"}],"name":"FeeForwarded","type":"event"},{"inputs":[],"name":"admin","outputs":[{"internalType":"address","name":"","type":"address"}],"stateMutability":"view","type":"function"},{"inputs":[],"name":"dex","outputs":[{"internalType":"address","name":"","type":"address"}],"stateMutability":"view","type":"function"},{"inputs":[{"internalType":"uint256","name":"amount","type":"uint256"}],"name":"injectUSDTLiquidity","outputs":[],"stateMutability":"nonpayable","type":"function"},{"inputs":[{"internalType":"address","name":"token","type":"address"},{"internalType":"uint256","name":"amount","type":"uint256"}],"name":"rescue","outputs":[],"stateMutability":"nonpayable","type":"function"},{"inputs":[{"internalType":"address","name":"_dex","type":"address"}],"name":"setDex","outputs":[],"stateMutability":"nonpayable","type":"function"},{"inputs":[],"name":"usdt","outputs":[{"internalType":"contract IERC20","name":"","type":"address"}],"stateMutability":"view","type":"function"}],"evm":{"bytecode":{"linkReferences":{},"object":"60c060405234801561001057600080fd5b5060405161066438038061066483398101604081905261002f916100b2565b6001600160a01b038216158061004c57506001600160a01b038116155b1561006a5760405163d92e233d60e01b815260040160405180910390fd5b6001600160a01b039182166080523360a052600080546001600160a01b031916919092161790556100e5565b80516001600160a01b03811681146100ad57600080fd5b919050565b600080604083850312156100c557600080fd5b6100ce83610096565b91506100dc60208401610096565b90509250929050565b60805160a05161053961012b6000396000818160fd01528181610201015281816102b9015261030601526000818160810152818161014d015261018601526105396000f3fe608060405234801561001057600080fd5b50600436106100625760003560e01c80632276741b146100675780632f48ab7d1461007c578063447fa8b7146100bf578063692058c2146100d25780637a4e4ecf146100e5578063f851a440146100f8575b600080fd5b61007a610075366004610482565b61011f565b005b6100a37f000000000000000000000000000000000000000000000000000000000000000081565b6040516001600160a01b03909116815260200160405180910390f35b61007a6100cd3660046104b7565b6101f6565b6000546100a3906001600160a01b031681565b61007a6100f33660046104d9565b6102ae565b6100a37f000000000000000000000000000000000000000000000000000000000000000081565b8060000361014057604051631f2a200560e01b815260040160405180910390fd5b6101756001600160a01b037f00000000000000000000000000000000000000000000000000000000000000001633308461032f565b6000546101af906001600160a01b037f00000000000000000000000000000000000000000000000000000000000000008116911683610370565b6000546040518281526001600160a01b039091169033907fd6638fe01cb17b5c4dc9cda93285b8c43f1c8a0b88e4243f3af7c314d0b3cefb9060200160405180910390a350565b336001600160a01b037f0000000000000000000000000000000000000000000000000000000000000000161461023f57604051634755657960e01b815260040160405180910390fd5b6001600160a01b0381166102665760405163d92e233d60e01b815260040160405180910390fd5b600080546001600160a01b0319166001600160a01b038316908117825560405190917faacb837fd75c322df09111e08088e3f80699286f494e4d7d93b3b35623e8520d91a250565b336001600160a01b037f000000000000000000000000000000000000000000000000000000000000000016146102f757604051634755657960e01b815260040160405180910390fd5b61032b6001600160a01b0383167f000000000000000000000000000000000000000000000000000000000000000083610370565b5050565b61033d8484848460016103aa565b61036a57604051635274afe760e01b81526001600160a01b03851660048201526024015b60405180910390fd5b50505050565b61037d838383600161041c565b6103a557604051635274afe760e01b81526001600160a01b0384166004820152602401610361565b505050565b6040516323b872dd60e01b60008181526001600160a01b038781166004528616602452604485905291602083606481808c5af19250600160005114831661040a5783831516156103fd573d6000823e3d81fd5b6000883b113d1516831692505b60405250600060605295945050505050565b60405163a9059cbb60e01b60008181526001600160a01b038616600452602485905291602083604481808b5af192506001600051148316610476578383151615610469573d6000823e3d81fd5b6000873b113d1516831692505b60405250949350505050565b60006020828403121561049457600080fd5b5035919050565b80356001600160a01b03811681146104b257600080fd5b919050565b6000602082840312156104c957600080fd5b6104d28261049b565b9392505050565b600080604083850312156104ec57600080fd5b6104f58361049b565b94602093909301359350505056fea2646970667358221220db383af8daccd27983f2778fbb2629de31d14708e162640f8cfdf1465afa956164736f6c63430008180033","opcodes":"PUSH1 0xC0 PUSH1 0x40 MSTORE CALLVALUE DUP1 ISZERO PUSH2 0x10 JUMPI PUSH1 0x0 DUP1 REVERT JUMPDEST POP PUSH1 0x40 MLOAD PUSH2 0x664 CODESIZE SUB DUP1 PUSH2 0x664 DUP4 CODECOPY DUP2 ADD PUSH1 0x40 DUP2 SWAP1 MSTORE PUSH2 0x2F SWAP2 PUSH2 0xB2 JUMP JUMPDEST PUSH1 0x1 PUSH1 0x1 PUSH1 0xA0 SHL SUB DUP3 AND ISZERO DUP1 PUSH2 0x4C JUMPI POP PUSH1 0x1 PUSH1 0x1 PUSH1 0xA0 SHL SUB DUP2 AND ISZERO JUMPDEST ISZERO PUSH2 0x6A JUMPI PUSH1 0x40 MLOAD PUSH4 0xD92E233D PUSH1 0xE0 SHL DUP2 MSTORE PUSH1 0x4 ADD PUSH1 0x40 MLOAD DUP1 SWAP2 SUB SWAP1 REVERT JUMPDEST PUSH1 0x1 PUSH1 0x1 PUSH1 0xA0 SHL SUB SWAP2 DUP3 AND PUSH1 0x80 MSTORE CALLER PUSH1 0xA0 MSTORE PUSH1 0x0 DUP1 SLOAD PUSH1 0x1 PUSH1 0x1 PUSH1 0xA0 SHL SUB NOT AND SWAP2 SWAP1 SWAP3 AND OR SWAP1 SSTORE PUSH2 0xE5 JUMP JUMPDEST DUP1 MLOAD PUSH1 0x1 PUSH1 0x1 PUSH1 0xA0 SHL SUB DUP2 AND DUP2 EQ PUSH2 0xAD JUMPI PUSH1 0x0 DUP1 REVERT JUMPDEST SWAP2 SWAP1 POP JUMP JUMPDEST PUSH1 0x0 DUP1 PUSH1 0x40 DUP4 DUP6 SUB SLT ISZERO PUSH2 0xC5 JUMPI PUSH1 0x0 DUP1 REVERT JUMPDEST PUSH2 0xCE DUP4 PUSH2 0x96 JUMP JUMPDEST SWAP2 POP PUSH2 0xDC PUSH1 0x20 DUP5 ADD PUSH2 0x96 JUMP JUMPDEST SWAP1 POP SWAP3 POP SWAP3 SWAP1 POP JUMP JUMPDEST PUSH1 0x80 MLOAD PUSH1 0xA0 MLOAD PUSH2 0x539 PUSH2 0x12B PUSH1 0x0 CODECOPY PUSH1 0x0 DUP2 DUP2 PUSH1 0xFD ADD MSTORE DUP2 DUP2 PUSH2 0x201 ADD MSTORE DUP2 DUP2 PUSH2 0x2B9 ADD MSTORE PUSH2 0x306 ADD MSTORE PUSH1 0x0 DUP2 DUP2 PUSH1 0x81 ADD MSTORE DUP2 DUP2 PUSH2 0x14D ADD MSTORE PUSH2 0x186 ADD MSTORE PUSH2 0x539 PUSH1 0x0 RETURN INVALID PUSH1 0x80 PUSH1 0x40 MSTORE CALLVALUE DUP1 ISZERO PUSH2 0x10 JUMPI PUSH1 0x0 DUP1 REVERT JUMPDEST POP PUSH1 0x4 CALLDATASIZE LT PUSH2 0x62 JUMPI PUSH1 0x0 CALLDATALOAD PUSH1 0xE0 SHR DUP1 PUSH4 0x2276741B EQ PUSH2 0x67 JUMPI DUP1 PUSH4 0x2F48AB7D EQ PUSH2 0x7C JUMPI DUP1 PUSH4 0x447FA8B7 EQ PUSH2 0xBF JUMPI DUP1 PUSH4 0x692058C2 EQ PUSH2 0xD2 JUMPI DUP1 PUSH4 0x7A4E4ECF EQ PUSH2 0xE5 JUMPI DUP1 PUSH4 0xF851A440 EQ PUSH2 0xF8 JUMPI JUMPDEST PUSH1 0x0 DUP1 REVERT JUMPDEST PUSH2 0x7A PUSH2 0x75 CALLDATASIZE PUSH1 0x4 PUSH2 0x482 JUMP JUMPDEST PUSH2 0x11F JUMP JUMPDEST STOP JUMPDEST PUSH2 0xA3 PUSH32 0x0 DUP2 JUMP JUMPDEST PUSH1 0x40 MLOAD PUSH1 0x1 PUSH1 0x1 PUSH1 0xA0 SHL SUB SWAP1 SWAP2 AND DUP2 MSTORE PUSH1 0x20 ADD PUSH1 0x40 MLOAD DUP1 SWAP2 SUB SWAP1 RETURN JUMPDEST PUSH2 0x7A PUSH2 0xCD CALLDATASIZE PUSH1 0x4 PUSH2 0x4B7 JUMP JUMPDEST PUSH2 0x1F6 JUMP JUMPDEST PUSH1 0x0 SLOAD PUSH2 0xA3 SWAP1 PUSH1 0x1 PUSH1 0x1 PUSH1 0xA0 SHL SUB AND DUP2 JUMP JUMPDEST PUSH2 0x7A PUSH2 0xF3 CALLDATASIZE PUSH1 0x4 PUSH2 0x4D9 JUMP JUMPDEST PUSH2 0x2AE JUMP JUMPDEST PUSH2 0xA3 PUSH32 0x0 DUP2 JUMP JUMPDEST DUP1 PUSH1 0x0 SUB PUSH2 0x140 JUMPI PUSH1 0x40 MLOAD PUSH4 0x1F2A2005 PUSH1 0xE0 SHL DUP2 MSTORE PUSH1 0x4 ADD PUSH1 0x40 MLOAD DUP1 SWAP2 SUB SWAP1 REVERT JUMPDEST PUSH2 0x175 PUSH1 0x1 PUSH1 0x1 PUSH1 0xA0 SHL SUB PUSH32 0x0 AND CALLER ADDRESS DUP5 PUSH2 0x32F JUMP JUMPDEST PUSH1 0x0 SLOAD PUSH2 0x1AF SWAP1 PUSH1 0x1 PUSH1 0x1 PUSH1 0xA0 SHL SUB PUSH32 0x0 DUP2 AND SWAP2 AND DUP4 PUSH2 0x370 JUMP JUMPDEST PUSH1 0x0 SLOAD PUSH1 0x40 MLOAD DUP3 DUP2 MSTORE PUSH1 0x1 PUSH1 0x1 PUSH1 0xA0 SHL SUB SWAP1 SWAP2 AND SWAP1 CALLER SWAP1 PUSH32 0xD6638FE01CB17B5C4DC9CDA93285B8C43F1C8A0B88E4243F3AF7C314D0B3CEFB SWAP1 PUSH1 0x20 ADD PUSH1 0x40 MLOAD DUP1 SWAP2 SUB SWAP1 LOG3 POP JUMP JUMPDEST CALLER PUSH1 0x1 PUSH1 0x1 PUSH1 0xA0 SHL SUB PUSH32 0x0 AND EQ PUSH2 0x23F JUMPI PUSH1 0x40 MLOAD PUSH4 0x47556579 PUSH1 0xE0 SHL DUP2 MSTORE PUSH1 0x4 ADD PUSH1 0x40 MLOAD DUP1 SWAP2 SUB SWAP1 REVERT JUMPDEST PUSH1 0x1 PUSH1 0x1 PUSH1 0xA0 SHL SUB DUP2 AND PUSH2 0x266 JUMPI PUSH1 0x40 MLOAD PUSH4 0xD92E233D PUSH1 0xE0 SHL DUP2 MSTORE PUSH1 0x4 ADD PUSH1 0x40 MLOAD DUP1 SWAP2 SUB SWAP1 REVERT JUMPDEST PUSH1 0x0 DUP1 SLOAD PUSH1 0x1 PUSH1 0x1 PUSH1 0xA0 SHL SUB NOT AND PUSH1 0x1 PUSH1 0x1 PUSH1 0xA0 SHL SUB DUP4 AND SWAP1 DUP2 OR DUP3 SSTORE PUSH1 0x40 MLOAD SWAP1 SWAP2 PUSH32 0xAACB837FD75C322DF09111E08088E3F80699286F494E4D7D93B3B35623E8520D SWAP2 LOG2 POP JUMP JUMPDEST CALLER PUSH1 0x1 PUSH1 0x1 PUSH1 0xA0 SHL SUB PUSH32 0x0 AND EQ PUSH2 0x2F7 JUMPI PUSH1 0x40 MLOAD PUSH4 0x47556579 PUSH1 0xE0 SHL DUP2 MSTORE PUSH1 0x4 ADD PUSH1 0x40 MLOAD DUP1 SWAP2 SUB SWAP1 REVERT JUMPDEST PUSH2 0x32B PUSH1 0x1 PUSH1 0x1 PUSH1 0xA0 SHL SUB DUP4 AND PUSH32 0x0 DUP4 PUSH2 0x370 JUMP JUMPDEST POP POP JUMP JUMPDEST PUSH2 0x33D DUP5 DUP5 DUP5 DUP5 PUSH1 0x1 PUSH2 0x3AA JUMP JUMPDEST PUSH2 0x36A JUMPI PUSH1 0x40 MLOAD PUSH4 0x5274AFE7 PUSH1 0xE0 SHL DUP2 MSTORE PUSH1 0x1 PUSH1 0x1 PUSH1 0xA0 SHL SUB DUP6 AND PUSH1 0x4 DUP3 ADD MSTORE PUSH1 0x24 ADD JUMPDEST PUSH1 0x40 MLOAD DUP1 SWAP2 SUB SWAP1 REVERT JUMPDEST POP POP POP POP JUMP JUMPDEST PUSH2 0x37D DUP4 DUP4 DUP4 PUSH1 0x1 PUSH2 0x41C JUMP JUMPDEST PUSH2 0x3A5 JUMPI PUSH1 0x40 MLOAD PUSH4 0x5274AFE7 PUSH1 0xE0 SHL DUP2 MSTORE PUSH1 0x1 PUSH1 0x1 PUSH1 0xA0 SHL SUB DUP5 AND PUSH1 0x4 DUP3 ADD MSTORE PUSH1 0x24 ADD PUSH2 0x361 JUMP JUMPDEST POP POP POP JUMP JUMPDEST PUSH1 0x40 MLOAD PUSH4 0x23B872DD PUSH1 0xE0 SHL PUSH1 0x0 DUP2 DUP2 MSTORE PUSH1 0x1 PUSH1 0x1 PUSH1 0xA0 SHL SUB DUP8 DUP2 AND PUSH1 0x4 MSTORE DUP7 AND PUSH1 0x24 MSTORE PUSH1 0x44 DUP6 SWAP1 MSTORE SWAP2 PUSH1 0x20 DUP4 PUSH1 0x64 DUP2 DUP1 DUP13 GAS CALL SWAP3 POP PUSH1 0x1 PUSH1 0x0 MLOAD EQ DUP4 AND PUSH2 0x40A JUMPI DUP4 DUP4 ISZERO AND ISZERO PUSH2 0x3FD JUMPI RETURNDATASIZE PUSH1 0x0 DUP3 RETURNDATACOPY RETURNDATASIZE DUP2 REVERT JUMPDEST PUSH1 0x0 DUP9 EXTCODESIZE GT RETURNDATASIZE ISZERO AND DUP4 AND SWAP3 POP JUMPDEST PUSH1 0x40 MSTORE POP PUSH1 0x0 PUSH1 0x60 MSTORE SWAP6 SWAP5 POP POP POP POP POP JUMP JUMPDEST PUSH1 0x40 MLOAD PUSH4 0xA9059CBB PUSH1 0xE0 SHL PUSH1 0x0 DUP2 DUP2 MSTORE PUSH1 0x1 PUSH1 0x1 PUSH1 0xA0 SHL SUB DUP7 AND PUSH1 0x4 MSTORE PUSH1 0x24 DUP6 SWAP1 MSTORE SWAP2 PUSH1 0x20 DUP4 PUSH1 0x44 DUP2 DUP1 DUP12 GAS CALL SWAP3 POP PUSH1 0x1 PUSH1 0x0 MLOAD EQ DUP4 AND PUSH2 0x476 JUMPI DUP4 DUP4 ISZERO AND ISZERO PUSH2 0x469 JUMPI RETURNDATASIZE PUSH1 0x0 DUP3 RETURNDATACOPY RETURNDATASIZE DUP2 REVERT JUMPDEST PUSH1 0x0 DUP8 EXTCODESIZE GT RETURNDATASIZE ISZERO AND DUP4 AND SWAP3 POP JUMPDEST PUSH1 0x40 MSTORE POP SWAP5 SWAP4 POP POP POP POP JUMP JUMPDEST PUSH1 0x0 PUSH1 0x20 DUP3 DUP5 SUB SLT ISZERO PUSH2 0x494 JUMPI PUSH1 0x0 DUP1 REVERT JUMPDEST POP CALLDATALOAD SWAP2 SWAP1 POP JUMP JUMPDEST DUP1 CALLDATALOAD PUSH1 0x1 PUSH1 0x1 PUSH1 0xA0 SHL SUB DUP2 AND DUP2 EQ PUSH2 0x4B2 JUMPI PUSH1 0x0 DUP1 REVERT JUMPDEST SWAP2 SWAP1 POP JUMP JUMPDEST PUSH1 0x0 PUSH1 0x20 DUP3 DUP5 SUB SLT ISZERO PUSH2 0x4C9 JUMPI PUSH1 0x0 DUP1 REVERT JUMPDEST PUSH2 0x4D2 DUP3 PUSH2 0x49B JUMP JUMPDEST SWAP4 SWAP3 POP POP POP JUMP JUMPDEST PUSH1 0x0 DUP1 PUSH1 0x40 DUP4 DUP6 SUB SLT ISZERO PUSH2 0x4EC JUMPI PUSH1 0x0 DUP1 REVERT JUMPDEST PUSH2 0x4F5 DUP4 PUSH2 0x49B JUMP JUMPDEST SWAP5 PUSH1 0x20 SWAP4 SWAP1 SWAP4 ADD CALLDATALOAD SWAP4 POP POP POP JUMP INVALID LOG2 PUSH5 0x6970667358 0x22 SLT KECCAK256 0xDB CODESIZE GASPRICE 0xF8 0xDA 0xCC 0xD2 PUSH26 0x83F2778FBB2629DE31D14708E162640F8CFDF1465AFA95616473 PUSH16 0x6C634300081800330000000000000000 "},"methodIdentifiers":{"admin()":"f851a440","dex()":"692058c2","injectUSDTLiquidity(uint256)":"2276741b","rescue(address,uint256)":"7a4e4ecf","setDex(address)":"447fa8b7","usdt()":"2f48ab7d"}}}}}