{"contracts/OSLODEX.sol":{"OSLODEX":{"abi":[{"inputs":[{"internalType":"address","name":"_usdt","type":"address"},{"internalType":"address","name":"_osloToken","type":"address"}],"stateMutability":"nonpayable","type":"constructor"},{"inputs":[],"name":"InsufficientReserve","type":"error"},{"inputs":[],"name":"OnlyAdmin","type":"error"},{"inputs":[],"name":"OnlyInvestmentEngine","type":"error"},{"inputs":[],"name":"OnlyLiquidityManager","type":"error"},{"inputs":[],"name":"OnlyTimelock","type":"error"},{"inputs":[],"name":"ReentrancyGuardReentrantCall","type":"error"},{"inputs":[{"internalType":"address","name":"token","type":"address"}],"name":"SafeERC20FailedOperation","type":"error"},{"inputs":[],"name":"SetupAlreadyComplete","type":"error"},{"inputs":[],"name":"SlippageExceeded","type":"error"},{"inputs":[],"name":"ZeroAddress","type":"error"},{"inputs":[],"name":"ZeroAmount","type":"error"},{"anonymous":false,"inputs":[{"indexed":false,"internalType":"uint256","name":"usdtIn","type":"uint256"},{"indexed":false,"internalType":"uint256","name":"osloOut","type":"uint256"}],"name":"DepositProcessed","type":"event"},{"anonymous":false,"inputs":[{"indexed":false,"internalType":"uint256","name":"usdtAmount","type":"uint256"},{"indexed":false,"internalType":"uint256","name":"osloAmount","type":"uint256"}],"name":"LiquidityDeposited","type":"event"},{"anonymous":false,"inputs":[{"indexed":false,"internalType":"uint256","name":"newPrice","type":"uint256"}],"name":"PriceUpdated","type":"event"},{"anonymous":false,"inputs":[{"indexed":true,"internalType":"address","name":"user","type":"address"},{"indexed":false,"internalType":"bool","name":"usdtToOslo","type":"bool"},{"indexed":false,"internalType":"uint256","name":"inputAmount","type":"uint256"},{"indexed":false,"internalType":"uint256","name":"outputAmount","type":"uint256"},{"indexed":false,"internalType":"uint256","name":"price","type":"uint256"}],"name":"Swapped","type":"event"},{"anonymous":false,"inputs":[{"indexed":false,"internalType":"uint256","name":"osloIn","type":"uint256"},{"indexed":false,"internalType":"uint256","name":"usdtOut","type":"uint256"},{"indexed":false,"internalType":"address","name":"recipient","type":"address"}],"name":"WithdrawalProcessed","type":"event"},{"inputs":[{"internalType":"uint256","name":"usdtAmount","type":"uint256"},{"internalType":"uint256","name":"osloAmount","type":"uint256"}],"name":"addInitialLiquidity","outputs":[],"stateMutability":"nonpayable","type":"function"},{"inputs":[{"internalType":"uint256","name":"usdtAmount","type":"uint256"}],"name":"addLiquidityFromFees","outputs":[],"stateMutability":"nonpayable","type":"function"},{"inputs":[],"name":"admin","outputs":[{"internalType":"address","name":"","type":"address"}],"stateMutability":"view","type":"function"},{"inputs":[],"name":"completeSetup","outputs":[],"stateMutability":"nonpayable","type":"function"},{"inputs":[{"internalType":"address","name":"_timelock","type":"address"},{"internalType":"address","name":"_liquidityManager","type":"address"},{"internalType":"address","name":"_investmentEngine","type":"address"}],"name":"configure","outputs":[],"stateMutability":"nonpayable","type":"function"},{"inputs":[{"internalType":"address","name":"_investmentEngine","type":"address"}],"name":"forceSetInvestmentEngine","outputs":[],"stateMutability":"nonpayable","type":"function"},{"inputs":[{"internalType":"uint256","name":"osloAmount","type":"uint256"}],"name":"getOSLOForUSDTOutput","outputs":[{"internalType":"uint256","name":"","type":"uint256"}],"stateMutability":"view","type":"function"},{"inputs":[],"name":"getPrice","outputs":[{"internalType":"uint256","name":"","type":"uint256"}],"stateMutability":"view","type":"function"},{"inputs":[],"name":"getReserves","outputs":[{"internalType":"uint256","name":"_usdtRes","type":"uint256"},{"internalType":"uint256","name":"_osloRes","type":"uint256"}],"stateMutability":"view","type":"function"},{"inputs":[{"internalType":"uint256","name":"usdtAmount","type":"uint256"}],"name":"getUSDTForOSLOOutput","outputs":[{"internalType":"uint256","name":"","type":"uint256"}],"stateMutability":"view","type":"function"},{"inputs":[],"name":"investmentEngine","outputs":[{"internalType":"address","name":"","type":"address"}],"stateMutability":"view","type":"function"},{"inputs":[],"name":"lastPrice","outputs":[{"internalType":"uint256","name":"","type":"uint256"}],"stateMutability":"view","type":"function"},{"inputs":[],"name":"liquidityManager","outputs":[{"internalType":"address","name":"","type":"address"}],"stateMutability":"view","type":"function"},{"inputs":[],"name":"osloReserve","outputs":[{"internalType":"uint256","name":"","type":"uint256"}],"stateMutability":"view","type":"function"},{"inputs":[],"name":"osloToken","outputs":[{"internalType":"contract IERC20","name":"","type":"address"}],"stateMutability":"view","type":"function"},{"inputs":[{"internalType":"uint256","name":"usdtAmount","type":"uint256"}],"name":"processDeposit","outputs":[{"internalType":"uint256","name":"osloAmount","type":"uint256"}],"stateMutability":"nonpayable","type":"function"},{"inputs":[{"internalType":"uint256","name":"osloAmount","type":"uint256"},{"internalType":"address","name":"recipient","type":"address"}],"name":"processWithdrawal","outputs":[{"internalType":"uint256","name":"usdtAmount","type":"uint256"}],"stateMutability":"nonpayable","type":"function"},{"inputs":[{"internalType":"uint256","name":"osloAmount","type":"uint256"}],"name":"replenishOsloReserve","outputs":[],"stateMutability":"nonpayable","type":"function"},{"inputs":[{"internalType":"address","name":"_investmentEngine","type":"address"}],"name":"setInvestmentEngine","outputs":[],"stateMutability":"nonpayable","type":"function"},{"inputs":[],"name":"setupComplete","outputs":[{"internalType":"bool","name":"","type":"bool"}],"stateMutability":"view","type":"function"},{"inputs":[{"internalType":"uint256","name":"osloAmount","type":"uint256"},{"internalType":"uint256","name":"minUSDTAmount","type":"uint256"}],"name":"swapOSLOForUSDT","outputs":[{"internalType":"uint256","name":"usdtAmount","type":"uint256"}],"stateMutability":"nonpayable","type":"function"},{"inputs":[{"internalType":"uint256","name":"usdtAmount","type":"uint256"},{"internalType":"uint256","name":"minOsloAmount","type":"uint256"}],"name":"swapUSDTForOSLO","outputs":[{"internalType":"uint256","name":"osloAmount","type":"uint256"}],"stateMutability":"nonpayable","type":"function"},{"inputs":[{"internalType":"uint256","name":"usdtAmount","type":"uint256"},{"internalType":"address","name":"recipient","type":"address"}],"name":"swapYieldForOSLO","outputs":[{"internalType":"uint256","name":"osloAmount","type":"uint256"}],"stateMutability":"nonpayable","type":"function"},{"inputs":[],"name":"timelock","outputs":[{"internalType":"address","name":"","type":"address"}],"stateMutability":"view","type":"function"},{"inputs":[],"name":"totalSwaps","outputs":[{"internalType":"uint256","name":"","type":"uint256"}],"stateMutability":"view","type":"function"},{"inputs":[],"name":"totalVolumeUSDT","outputs":[{"internalType":"uint256","name":"","type":"uint256"}],"stateMutability":"view","type":"function"},{"inputs":[],"name":"usdt","outputs":[{"internalType":"contract IERC20","name":"","type":"address"}],"stateMutability":"view","type":"function"},{"inputs":[],"name":"usdtReserve","outputs":[{"internalType":"uint256","name":"","type":"uint256"}],"stateMutability":"view","type":"function"}],"evm":{"bytecode":{"linkReferences":{},"object":"60c06040523480156200001157600080fd5b5060405162001d1338038062001d138339810160408190526200003491620000dc565b60017f9b779b17422d0df92223018b32b4d1fa46e071723d6817e2486d003becc55f00556001600160a01b03821615806200007657506001600160a01b038116155b15620000955760405163d92e233d60e01b815260040160405180910390fd5b6001600160a01b039182166080521660a052600080546001600160a01b0319163317905562000114565b80516001600160a01b0381168114620000d757600080fd5b919050565b60008060408385031215620000f057600080fd5b620000fb83620000bf565b91506200010b60208401620000bf565b90509250929050565b60805160a051611b5b620001b8600039600081816102180152818161050f015281816105df0152818161074f015281816107d10152818161081b01528181610ab301528181610cea0152818161102f015281816112880152818161145501526115d9015260008181610257015281816104670152818161094401528181610cb501528181610ffa015281816112530152818161141001526116cb0152611b5b6000f3fe608060405234801561001057600080fd5b50600436106101c45760003560e01c80638aea8f71116100f9578063b6635be611610097578063d33219b411610071578063d33219b4146103b7578063ee3b038f146103ca578063f843e641146103dd578063f851a440146103f057600080fd5b8063b6635be61461036d578063c2c9068714610391578063cb4f51d1146103a457600080fd5b8063a40f4fa1116100d3578063a40f4fa114610335578063a797803114610348578063ac257a6e1461035b578063b4a800ce1461036457600080fd5b80638aea8f711461031c57806398d5fdca14610324578063a1e26e7b1461032c57600080fd5b8063338274381161016657806347aa7ea41161014057806347aa7ea4146102da578063528816c6146102ed57806355d28f201461030057806383bbdd5f1461031357600080fd5b8063338274381461029f578063362ce52b146102b25780633984a3aa146102c757600080fd5b80632acfbca3116101a25780632acfbca3146102135780632f48ab7d14610252578063301313841461027957806330cf2aeb1461028c57600080fd5b8063053f14da146101c95780630902f1ac146101e55780630cc2055a14610200575b600080fd5b6101d260085481565b6040519081526020015b60405180910390f35b600454600554604080519283526020830191909152016101dc565b6101d261020e36600461195b565b610403565b61023a7f000000000000000000000000000000000000000000000000000000000000000081565b6040516001600160a01b0390911681526020016101dc565b61023a7f000000000000000000000000000000000000000000000000000000000000000081565b60035461023a906001600160a01b031681565b6101d261029a366004611974565b6106df565b60025461023a906001600160a01b031681565b6102c56102c036600461195b565b610a5a565b005b6102c56102d53660046119ad565b610af5565b6101d26102e836600461195b565b610b69565b6101d26102fb3660046119cf565b610bb5565b6102c561030e3660046119fb565b610e35565b6101d260065481565b6102c5610ed9565b6101d2610f54565b6101d260055481565b6102c5610343366004611974565b610f99565b6101d261035636600461195b565b61110e565b6101d260045481565b6101d260075481565b60035461038190600160a01b900460ff1681565b60405190151581526020016101dc565b6101d261039f366004611974565b611171565b6102c56103b23660046119ad565b61138c565b60015461023a906001600160a01b031681565b6102c56103d836600461195b565b6113b7565b6101d26103eb3660046119cf565b61154e565b60005461023a906001600160a01b031681565b6003546000906001600160a01b0316331461043157604051630559b36f60e11b815260040160405180910390fd5b6104396117ba565b8160000361045a57604051631f2a200560e01b815260040160405180910390fd5b61048f6001600160a01b037f0000000000000000000000000000000000000000000000000000000000000000163330856117d6565b60006004541180156104a357506000600554115b156104d457816004546104b69190611a54565b6005546104c39084611a67565b6104cd9190611a7e565b90506104d7565b50805b806000036104f857604051631f2a200560e01b815260040160405180910390fd5b6040516370a0823160e01b815230600482015281907f00000000000000000000000000000000000000000000000000000000000000006001600160a01b0316906370a0823190602401602060405180830381865afa15801561055e573d6000803e3d6000fd5b505050506040513d601f19601f820116820180604052508101906105829190611aa0565b10156105a1576040516328b35f2160e01b815260040160405180910390fd5b81600460008282546105b39190611a54565b9250508190555080600560008282546105cc9190611ab9565b9091555061060690506001600160a01b037f0000000000000000000000000000000000000000000000000000000000000000163383611817565b6000806005541161061857600061063a565b60055460045461063090670de0b6b3a7640000611a67565b61063a9190611a7e565b9050826006600082825461064e9190611a54565b90915550506007805490600061066383611acc565b909155505060408051848152602081018490527f3d53ffd94e6169fe8616aef06a81eba2335ff27eac4a60886ad869b22c4f347b910160405180910390a1604051818152600080516020611ae68339815191529060200160405180910390a1506106da6001600080516020611b0683398151915255565b919050565b60006106e96117ba565b8260000361070a57604051631f2a200560e01b815260040160405180910390fd5b60045415806107195750600554155b15610737576040516328b35f2160e01b815260040160405180910390fd5b6040516370a0823160e01b81523060048201526000907f00000000000000000000000000000000000000000000000000000000000000006001600160a01b0316906370a0823190602401602060405180830381865afa15801561079e573d6000803e3d6000fd5b505050506040513d601f19601f820116820180604052508101906107c29190611aa0565b90506107f96001600160a01b037f0000000000000000000000000000000000000000000000000000000000000000163330876117d6565b6040516370a0823160e01b815230600482015260009082906001600160a01b037f000000000000000000000000000000000000000000000000000000000000000016906370a0823190602401602060405180830381865afa158015610862573d6000803e3d6000fd5b505050506040513d601f19601f820116820180604052508101906108869190611aa0565b6108909190611ab9565b9050846005546108a09190611a54565b6004546108ad9087611a67565b6108b79190611a7e565b92508215806108c557508383105b156108e357604051638199f5f360e01b815260040160405180910390fd5b600454831115610906576040516328b35f2160e01b815260040160405180910390fd5b82600460008282546109189190611ab9565b9250508190555080600560008282546109319190611a54565b9091555061096b90506001600160a01b037f0000000000000000000000000000000000000000000000000000000000000000163385611817565b826006600082825461097d9190611a54565b90915550506007805490600061099283611acc565b9190505550600080600554116109a95760006109cb565b6005546004546109c190670de0b6b3a7640000611a67565b6109cb9190611a7e565b6040805160008152602081018990529081018690526060810182905290915033907f7c707038fb62cb248ec6b437a63ec556bb6233af235f4518d64693cba918a6e19060800160405180910390a2604051818152600080516020611ae68339815191529060200160405180910390a1505050610a546001600080516020611b0683398151915255565b92915050565b6003546001600160a01b03163314610a8557604051630559b36f60e11b815260040160405180910390fd5b80600003610aa657604051631f2a200560e01b815260040160405180910390fd5b610adb6001600160a01b037f0000000000000000000000000000000000000000000000000000000000000000163330846117d6565b8060056000828254610aed9190611a54565b909155505050565b6000546001600160a01b03163314610b2057604051634755657960e01b815260040160405180910390fd5b6001600160a01b038116610b475760405163d92e233d60e01b815260040160405180910390fd5b600380546001600160a01b0319166001600160a01b0392909216919091179055565b6000811580610b785750600454155b80610b835750600554155b15610b9057506000919050565b81600454610b9e9190611a54565b600554610bab9084611a67565b610a549190611a7e565b6003546000906001600160a01b03163314610be357604051630559b36f60e11b815260040160405180910390fd5b610beb6117ba565b82600003610c0c57604051631f2a200560e01b815260040160405180910390fd5b6001600160a01b038216610c335760405163d92e233d60e01b815260040160405180910390fd5b6004541580610c425750600554155b15610c60576040516328b35f2160e01b815260040160405180910390fd5b82600454610c6e9190611a54565b600554610c7b9085611a67565b610c859190611a7e565b905080600003610ca857604051631f2a200560e01b815260040160405180910390fd5b610cdd6001600160a01b037f0000000000000000000000000000000000000000000000000000000000000000163330866117d6565b610d116001600160a01b037f0000000000000000000000000000000000000000000000000000000000000000168383611817565b8260046000828254610d239190611a54565b925050819055508060056000828254610d3c9190611ab9565b925050819055508260066000828254610d559190611a54565b909155505060078054906000610d6a83611acc565b919050555060008060055411610d81576000610da3565b600554600454610d9990670de0b6b3a7640000611a67565b610da39190611a7e565b604080516001815260208101879052908101849052606081018290529091506001600160a01b038416907f7c707038fb62cb248ec6b437a63ec556bb6233af235f4518d64693cba918a6e1906080015b60405180910390a2604051818152600080516020611ae6833981519152906020015b60405180910390a150610a546001600080516020611b0683398151915255565b6000546001600160a01b03163314610e6057604051634755657960e01b815260040160405180910390fd5b600354600160a01b900460ff1615610e8b5760405163238f75d360e01b815260040160405180910390fd5b600180546001600160a01b039485166001600160a01b031991821617909155600280549385169390911692909217909155600380546001600160a81b0319169190921617600160a01b179055565b6000546001600160a01b03163314610f0457604051634755657960e01b815260040160405180910390fd5b600354600160a01b900460ff1615610f2f5760405163238f75d360e01b815260040160405180910390fd5b6003805460ff60a01b1916600160a01b179055600080546001600160a01b0319169055565b600060055460001480610f675750600454155b15610f725750600090565b600554600454610f8a90670de0b6b3a7640000611a67565b610f949190611a7e565b905090565b6002546001600160a01b03163314610fc457604051630be5a3e160e31b815260040160405180910390fd5b811580610fcf575080155b15610fed57604051631f2a200560e01b815260040160405180910390fd5b6110226001600160a01b037f0000000000000000000000000000000000000000000000000000000000000000163330856117d6565b6110576001600160a01b037f0000000000000000000000000000000000000000000000000000000000000000163330846117d6565b81600460008282546110699190611a54565b9250508190555080600560008282546110829190611a54565b9091555081905061109b83670de0b6b3a7640000611a67565b6110a59190611a7e565b60085560408051838152602081018390527f9c86429231ed0411e3112a1dd5c6578826c2d48089d5ec491e874ce0029c0bbe910160405180910390a1600080516020611ae683398151915260085460405161110291815260200190565b60405180910390a15050565b600081158061111d5750600454155b806111285750600554155b1561113557506000919050565b6000826005546111459190611a54565b6004546111529085611a67565b61115c9190611a7e565b9050600454811115610a545750600092915050565b6003546000906001600160a01b0316331461119f57604051630559b36f60e11b815260040160405180910390fd5b6111a76117ba565b826000036111c857604051631f2a200560e01b815260040160405180910390fd5b60045415806111d75750600554155b156111f5576040516328b35f2160e01b815260040160405180910390fd5b826004546112039190611a54565b6005546112109085611a67565b61121a9190611a7e565b905080158061122857508181105b1561124657604051638199f5f360e01b815260040160405180910390fd5b61127b6001600160a01b037f0000000000000000000000000000000000000000000000000000000000000000163330866117d6565b6112af6001600160a01b037f0000000000000000000000000000000000000000000000000000000000000000163383611817565b82600460008282546112c19190611a54565b9250508190555080600560008282546112da9190611ab9565b9250508190555082600660008282546112f39190611a54565b90915550506007805490600061130883611acc565b91905055506000806005541161131f576000611341565b60055460045461133790670de0b6b3a7640000611a67565b6113419190611a7e565b6040805160018152602081018790529081018490526060810182905290915033907f7c707038fb62cb248ec6b437a63ec556bb6233af235f4518d64693cba918a6e190608001610df3565b6001546001600160a01b03163314610b2057604051630e05f48560e11b815260040160405180910390fd5b6002546001600160a01b031633146113e257604051630be5a3e160e31b815260040160405180910390fd5b8060000361140357604051631f2a200560e01b815260040160405180910390fd5b6114386001600160a01b037f0000000000000000000000000000000000000000000000000000000000000000163330846117d6565b806004600082825461144a9190611a54565b9250508190555060007f00000000000000000000000000000000000000000000000000000000000000006001600160a01b03166318160ddd6040518163ffffffff1660e01b8152600401602060405180830381865afa1580156114b1573d6000803e3d6000fd5b505050506040513d601f19601f820116820180604052508101906114d59190611aa0565b6004546114ea90670de0b6b3a7640000611a67565b6114f49190611a7e565b60408051848152600060208201529192507f9c86429231ed0411e3112a1dd5c6578826c2d48089d5ec491e874ce0029c0bbe910160405180910390a1604051818152600080516020611ae683398151915290602001611102565b6003546000906001600160a01b0316331461157c57604051630559b36f60e11b815260040160405180910390fd5b6115846117ba565b826000036115a557604051631f2a200560e01b815260040160405180910390fd5b6001600160a01b0382166115cc5760405163d92e233d60e01b815260040160405180910390fd5b6116016001600160a01b037f0000000000000000000000000000000000000000000000000000000000000000163330866117d6565b600060045411801561161557506000600554115b1561164657826005546116289190611a54565b6004546116359085611a67565b61163f9190611a7e565b9050611649565b50815b8060000361166a57604051631f2a200560e01b815260040160405180910390fd5b60045481111561168d576040516328b35f2160e01b815260040160405180910390fd5b826005600082825461169f9190611a54565b9250508190555080600460008282546116b89190611ab9565b909155506116f290506001600160a01b037f0000000000000000000000000000000000000000000000000000000000000000168383611817565b60008060055411611704576000611726565b60055460045461171c90670de0b6b3a7640000611a67565b6117269190611a7e565b9050816006600082825461173a9190611a54565b90915550506007805490600061174f83611acc565b909155505060408051858152602081018490526001600160a01b0385168183015290517f1408158d52d7d739e0848c588738e9b79917e2773e51c49ff4544e3e6a538f8c9181900360600190a1604051818152600080516020611ae683398151915290602001610e15565b6117c2611851565b6002600080516020611b0683398151915255565b6117e4848484846001611883565b61181157604051635274afe760e01b81526001600160a01b03851660048201526024015b60405180910390fd5b50505050565b61182483838360016118f5565b61184c57604051635274afe760e01b81526001600160a01b0384166004820152602401611808565b505050565b600080516020611b068339815191525460020361188157604051633ee5aeb560e01b815260040160405180910390fd5b565b6040516323b872dd60e01b60008181526001600160a01b038781166004528616602452604485905291602083606481808c5af1925060016000511483166118e35783831516156118d6573d6000823e3d81fd5b6000883b113d1516831692505b60405250600060605295945050505050565b60405163a9059cbb60e01b60008181526001600160a01b038616600452602485905291602083604481808b5af19250600160005114831661194f578383151615611942573d6000823e3d81fd5b6000873b113d1516831692505b60405250949350505050565b60006020828403121561196d57600080fd5b5035919050565b6000806040838503121561198757600080fd5b50508035926020909101359150565b80356001600160a01b03811681146106da57600080fd5b6000602082840312156119bf57600080fd5b6119c882611996565b9392505050565b600080604083850312156119e257600080fd5b823591506119f260208401611996565b90509250929050565b600080600060608486031215611a1057600080fd5b611a1984611996565b9250611a2760208501611996565b9150611a3560408501611996565b90509250925092565b634e487b7160e01b600052601160045260246000fd5b80820180821115610a5457610a54611a3e565b8082028115828204841417610a5457610a54611a3e565b600082611a9b57634e487b7160e01b600052601260045260246000fd5b500490565b600060208284031215611ab257600080fd5b5051919050565b81810381811115610a5457610a54611a3e565b600060018201611ade57611ade611a3e565b506001019056fe66cbca4f3c64fecf1dcb9ce094abcf7f68c3450a1d4e3a8e917dd621edb4ebe09b779b17422d0df92223018b32b4d1fa46e071723d6817e2486d003becc55f00a26469706673582212207dc5b8d4f2593c68c666a6265387acc6fc07a96b97c6189a0b144bb67d1a2a4664736f6c63430008180033","opcodes":"PUSH1 0xC0 PUSH1 0x40 MSTORE CALLVALUE DUP1 ISZERO PUSH3 0x11 JUMPI PUSH1 0x0 DUP1 REVERT JUMPDEST POP PUSH1 0x40 MLOAD PUSH3 0x1D13 CODESIZE SUB DUP1 PUSH3 0x1D13 DUP4 CODECOPY DUP2 ADD PUSH1 0x40 DUP2 SWAP1 MSTORE PUSH3 0x34 SWAP2 PUSH3 0xDC JUMP JUMPDEST PUSH1 0x1 PUSH32 0x9B779B17422D0DF92223018B32B4D1FA46E071723D6817E2486D003BECC55F00 SSTORE PUSH1 0x1 PUSH1 0x1 PUSH1 0xA0 SHL SUB DUP3 AND ISZERO DUP1 PUSH3 0x76 JUMPI POP PUSH1 0x1 PUSH1 0x1 PUSH1 0xA0 SHL SUB DUP2 AND ISZERO JUMPDEST ISZERO PUSH3 0x95 JUMPI PUSH1 0x40 MLOAD PUSH4 0xD92E233D PUSH1 0xE0 SHL DUP2 MSTORE PUSH1 0x4 ADD PUSH1 0x40 MLOAD DUP1 SWAP2 SUB SWAP1 REVERT JUMPDEST PUSH1 0x1 PUSH1 0x1 PUSH1 0xA0 SHL SUB SWAP2 DUP3 AND PUSH1 0x80 MSTORE AND PUSH1 0xA0 MSTORE PUSH1 0x0 DUP1 SLOAD PUSH1 0x1 PUSH1 0x1 PUSH1 0xA0 SHL SUB NOT AND CALLER OR SWAP1 SSTORE PUSH3 0x114 JUMP JUMPDEST DUP1 MLOAD PUSH1 0x1 PUSH1 0x1 PUSH1 0xA0 SHL SUB DUP2 AND DUP2 EQ PUSH3 0xD7 JUMPI PUSH1 0x0 DUP1 REVERT JUMPDEST SWAP2 SWAP1 POP JUMP JUMPDEST PUSH1 0x0 DUP1 PUSH1 0x40 DUP4 DUP6 SUB SLT ISZERO PUSH3 0xF0 JUMPI PUSH1 0x0 DUP1 REVERT JUMPDEST PUSH3 0xFB DUP4 PUSH3 0xBF JUMP JUMPDEST SWAP2 POP PUSH3 0x10B PUSH1 0x20 DUP5 ADD PUSH3 0xBF JUMP JUMPDEST SWAP1 POP SWAP3 POP SWAP3 SWAP1 POP JUMP JUMPDEST PUSH1 0x80 MLOAD PUSH1 0xA0 MLOAD PUSH2 0x1B5B PUSH3 0x1B8 PUSH1 0x0 CODECOPY PUSH1 0x0 DUP2 DUP2 PUSH2 0x218 ADD MSTORE DUP2 DUP2 PUSH2 0x50F ADD MSTORE DUP2 DUP2 PUSH2 0x5DF ADD MSTORE DUP2 DUP2 PUSH2 0x74F ADD MSTORE DUP2 DUP2 PUSH2 0x7D1 ADD MSTORE DUP2 DUP2 PUSH2 0x81B ADD MSTORE DUP2 DUP2 PUSH2 0xAB3 ADD MSTORE DUP2 DUP2 PUSH2 0xCEA ADD MSTORE DUP2 DUP2 PUSH2 0x102F ADD MSTORE DUP2 DUP2 PUSH2 0x1288 ADD MSTORE DUP2 DUP2 PUSH2 0x1455 ADD MSTORE PUSH2 0x15D9 ADD MSTORE PUSH1 0x0 DUP2 DUP2 PUSH2 0x257 ADD MSTORE DUP2 DUP2 PUSH2 0x467 ADD MSTORE DUP2 DUP2 PUSH2 0x944 ADD MSTORE DUP2 DUP2 PUSH2 0xCB5 ADD MSTORE DUP2 DUP2 PUSH2 0xFFA ADD MSTORE DUP2 DUP2 PUSH2 0x1253 ADD MSTORE DUP2 DUP2 PUSH2 0x1410 ADD MSTORE PUSH2 0x16CB ADD MSTORE PUSH2 0x1B5B PUSH1 0x0 RETURN INVALID PUSH1 0x80 PUSH1 0x40 MSTORE CALLVALUE DUP1 ISZERO PUSH2 0x10 JUMPI PUSH1 0x0 DUP1 REVERT JUMPDEST POP PUSH1 0x4 CALLDATASIZE LT PUSH2 0x1C4 JUMPI PUSH1 0x0 CALLDATALOAD PUSH1 0xE0 SHR DUP1 PUSH4 0x8AEA8F71 GT PUSH2 0xF9 JUMPI DUP1 PUSH4 0xB6635BE6 GT PUSH2 0x97 JUMPI DUP1 PUSH4 0xD33219B4 GT PUSH2 0x71 JUMPI DUP1 PUSH4 0xD33219B4 EQ PUSH2 0x3B7 JUMPI DUP1 PUSH4 0xEE3B038F EQ PUSH2 0x3CA JUMPI DUP1 PUSH4 0xF843E641 EQ PUSH2 0x3DD JUMPI DUP1 PUSH4 0xF851A440 EQ PUSH2 0x3F0 JUMPI PUSH1 0x0 DUP1 REVERT JUMPDEST DUP1 PUSH4 0xB6635BE6 EQ PUSH2 0x36D JUMPI DUP1 PUSH4 0xC2C90687 EQ PUSH2 0x391 JUMPI DUP1 PUSH4 0xCB4F51D1 EQ PUSH2 0x3A4 JUMPI PUSH1 0x0 DUP1 REVERT JUMPDEST DUP1 PUSH4 0xA40F4FA1 GT PUSH2 0xD3 JUMPI DUP1 PUSH4 0xA40F4FA1 EQ PUSH2 0x335 JUMPI DUP1 PUSH4 0xA7978031 EQ PUSH2 0x348 JUMPI DUP1 PUSH4 0xAC257A6E EQ PUSH2 0x35B JUMPI DUP1 PUSH4 0xB4A800CE EQ PUSH2 0x364 JUMPI PUSH1 0x0 DUP1 REVERT JUMPDEST DUP1 PUSH4 0x8AEA8F71 EQ PUSH2 0x31C JUMPI DUP1 PUSH4 0x98D5FDCA EQ PUSH2 0x324 JUMPI DUP1 PUSH4 0xA1E26E7B EQ PUSH2 0x32C JUMPI PUSH1 0x0 DUP1 REVERT JUMPDEST DUP1 PUSH4 0x33827438 GT PUSH2 0x166 JUMPI DUP1 PUSH4 0x47AA7EA4 GT PUSH2 0x140 JUMPI DUP1 PUSH4 0x47AA7EA4 EQ PUSH2 0x2DA JUMPI DUP1 PUSH4 0x528816C6 EQ PUSH2 0x2ED JUMPI DUP1 PUSH4 0x55D28F20 EQ PUSH2 0x300 JUMPI DUP1 PUSH4 0x83BBDD5F EQ PUSH2 0x313 JUMPI PUSH1 0x0 DUP1 REVERT JUMPDEST DUP1 PUSH4 0x33827438 EQ PUSH2 0x29F JUMPI DUP1 PUSH4 0x362CE52B EQ PUSH2 0x2B2 JUMPI DUP1 PUSH4 0x3984A3AA EQ PUSH2 0x2C7 JUMPI PUSH1 0x0 DUP1 REVERT JUMPDEST DUP1 PUSH4 0x2ACFBCA3 GT PUSH2 0x1A2 JUMPI DUP1 PUSH4 0x2ACFBCA3 EQ PUSH2 0x213 JUMPI DUP1 PUSH4 0x2F48AB7D EQ PUSH2 0x252 JUMPI DUP1 PUSH4 0x30131384 EQ PUSH2 0x279 JUMPI DUP1 PUSH4 0x30CF2AEB EQ PUSH2 0x28C JUMPI PUSH1 0x0 DUP1 REVERT JUMPDEST DUP1 PUSH4 0x53F14DA EQ PUSH2 0x1C9 JUMPI DUP1 PUSH4 0x902F1AC EQ PUSH2 0x1E5 JUMPI DUP1 PUSH4 0xCC2055A EQ PUSH2 0x200 JUMPI JUMPDEST PUSH1 0x0 DUP1 REVERT JUMPDEST PUSH2 0x1D2 PUSH1 0x8 SLOAD DUP2 JUMP JUMPDEST PUSH1 0x40 MLOAD SWAP1 DUP2 MSTORE PUSH1 0x20 ADD JUMPDEST PUSH1 0x40 MLOAD DUP1 SWAP2 SUB SWAP1 RETURN JUMPDEST PUSH1 0x4 SLOAD PUSH1 0x5 SLOAD PUSH1 0x40 DUP1 MLOAD SWAP3 DUP4 MSTORE PUSH1 0x20 DUP4 ADD SWAP2 SWAP1 SWAP2 MSTORE ADD PUSH2 0x1DC JUMP JUMPDEST PUSH2 0x1D2 PUSH2 0x20E CALLDATASIZE PUSH1 0x4 PUSH2 0x195B JUMP JUMPDEST PUSH2 0x403 JUMP JUMPDEST PUSH2 0x23A PUSH32 0x0 DUP2 JUMP JUMPDEST PUSH1 0x40 MLOAD PUSH1 0x1 PUSH1 0x1 PUSH1 0xA0 SHL SUB SWAP1 SWAP2 AND DUP2 MSTORE PUSH1 0x20 ADD PUSH2 0x1DC JUMP JUMPDEST PUSH2 0x23A PUSH32 0x0 DUP2 JUMP JUMPDEST PUSH1 0x3 SLOAD PUSH2 0x23A SWAP1 PUSH1 0x1 PUSH1 0x1 PUSH1 0xA0 SHL SUB AND DUP2 JUMP JUMPDEST PUSH2 0x1D2 PUSH2 0x29A CALLDATASIZE PUSH1 0x4 PUSH2 0x1974 JUMP JUMPDEST PUSH2 0x6DF JUMP JUMPDEST PUSH1 0x2 SLOAD PUSH2 0x23A SWAP1 PUSH1 0x1 PUSH1 0x1 PUSH1 0xA0 SHL SUB AND DUP2 JUMP JUMPDEST PUSH2 0x2C5 PUSH2 0x2C0 CALLDATASIZE PUSH1 0x4 PUSH2 0x195B JUMP JUMPDEST PUSH2 0xA5A JUMP JUMPDEST STOP JUMPDEST PUSH2 0x2C5 PUSH2 0x2D5 CALLDATASIZE PUSH1 0x4 PUSH2 0x19AD JUMP JUMPDEST PUSH2 0xAF5 JUMP JUMPDEST PUSH2 0x1D2 PUSH2 0x2E8 CALLDATASIZE PUSH1 0x4 PUSH2 0x195B JUMP JUMPDEST PUSH2 0xB69 JUMP JUMPDEST PUSH2 0x1D2 PUSH2 0x2FB CALLDATASIZE PUSH1 0x4 PUSH2 0x19CF JUMP JUMPDEST PUSH2 0xBB5 JUMP JUMPDEST PUSH2 0x2C5 PUSH2 0x30E CALLDATASIZE PUSH1 0x4 PUSH2 0x19FB JUMP JUMPDEST PUSH2 0xE35 JUMP JUMPDEST PUSH2 0x1D2 PUSH1 0x6 SLOAD DUP2 JUMP JUMPDEST PUSH2 0x2C5 PUSH2 0xED9 JUMP JUMPDEST PUSH2 0x1D2 PUSH2 0xF54 JUMP JUMPDEST PUSH2 0x1D2 PUSH1 0x5 SLOAD DUP2 JUMP JUMPDEST PUSH2 0x2C5 PUSH2 0x343 CALLDATASIZE PUSH1 0x4 PUSH2 0x1974 JUMP JUMPDEST PUSH2 0xF99 JUMP JUMPDEST PUSH2 0x1D2 PUSH2 0x356 CALLDATASIZE PUSH1 0x4 PUSH2 0x195B JUMP JUMPDEST PUSH2 0x110E JUMP JUMPDEST PUSH2 0x1D2 PUSH1 0x4 SLOAD DUP2 JUMP JUMPDEST PUSH2 0x1D2 PUSH1 0x7 SLOAD DUP2 JUMP JUMPDEST PUSH1 0x3 SLOAD PUSH2 0x381 SWAP1 PUSH1 0x1 PUSH1 0xA0 SHL SWAP1 DIV PUSH1 0xFF AND DUP2 JUMP JUMPDEST PUSH1 0x40 MLOAD SWAP1 ISZERO ISZERO DUP2 MSTORE PUSH1 0x20 ADD PUSH2 0x1DC JUMP JUMPDEST PUSH2 0x1D2 PUSH2 0x39F CALLDATASIZE PUSH1 0x4 PUSH2 0x1974 JUMP JUMPDEST PUSH2 0x1171 JUMP JUMPDEST PUSH2 0x2C5 PUSH2 0x3B2 CALLDATASIZE PUSH1 0x4 PUSH2 0x19AD JUMP JUMPDEST PUSH2 0x138C JUMP JUMPDEST PUSH1 0x1 SLOAD PUSH2 0x23A SWAP1 PUSH1 0x1 PUSH1 0x1 PUSH1 0xA0 SHL SUB AND DUP2 JUMP JUMPDEST PUSH2 0x2C5 PUSH2 0x3D8 CALLDATASIZE PUSH1 0x4 PUSH2 0x195B JUMP JUMPDEST PUSH2 0x13B7 JUMP JUMPDEST PUSH2 0x1D2 PUSH2 0x3EB CALLDATASIZE PUSH1 0x4 PUSH2 0x19CF JUMP JUMPDEST PUSH2 0x154E JUMP JUMPDEST PUSH1 0x0 SLOAD PUSH2 0x23A SWAP1 PUSH1 0x1 PUSH1 0x1 PUSH1 0xA0 SHL SUB AND DUP2 JUMP JUMPDEST PUSH1 0x3 SLOAD PUSH1 0x0 SWAP1 PUSH1 0x1 PUSH1 0x1 PUSH1 0xA0 SHL SUB AND CALLER EQ PUSH2 0x431 JUMPI PUSH1 0x40 MLOAD PUSH4 0x559B36F PUSH1 0xE1 SHL DUP2 MSTORE PUSH1 0x4 ADD PUSH1 0x40 MLOAD DUP1 SWAP2 SUB SWAP1 REVERT JUMPDEST PUSH2 0x439 PUSH2 0x17BA JUMP JUMPDEST DUP2 PUSH1 0x0 SUB PUSH2 0x45A JUMPI PUSH1 0x40 MLOAD PUSH4 0x1F2A2005 PUSH1 0xE0 SHL DUP2 MSTORE PUSH1 0x4 ADD PUSH1 0x40 MLOAD DUP1 SWAP2 SUB SWAP1 REVERT JUMPDEST PUSH2 0x48F PUSH1 0x1 PUSH1 0x1 PUSH1 0xA0 SHL SUB PUSH32 0x0 AND CALLER ADDRESS DUP6 PUSH2 0x17D6 JUMP JUMPDEST PUSH1 0x0 PUSH1 0x4 SLOAD GT DUP1 ISZERO PUSH2 0x4A3 JUMPI POP PUSH1 0x0 PUSH1 0x5 SLOAD GT JUMPDEST ISZERO PUSH2 0x4D4 JUMPI DUP2 PUSH1 0x4 SLOAD PUSH2 0x4B6 SWAP2 SWAP1 PUSH2 0x1A54 JUMP JUMPDEST PUSH1 0x5 SLOAD PUSH2 0x4C3 SWAP1 DUP5 PUSH2 0x1A67 JUMP JUMPDEST PUSH2 0x4CD SWAP2 SWAP1 PUSH2 0x1A7E JUMP JUMPDEST SWAP1 POP PUSH2 0x4D7 JUMP JUMPDEST POP DUP1 JUMPDEST DUP1 PUSH1 0x0 SUB PUSH2 0x4F8 JUMPI PUSH1 0x40 MLOAD PUSH4 0x1F2A2005 PUSH1 0xE0 SHL DUP2 MSTORE PUSH1 0x4 ADD PUSH1 0x40 MLOAD DUP1 SWAP2 SUB SWAP1 REVERT JUMPDEST PUSH1 0x40 MLOAD PUSH4 0x70A08231 PUSH1 0xE0 SHL DUP2 MSTORE ADDRESS PUSH1 0x4 DUP3 ADD MSTORE DUP2 SWAP1 PUSH32 0x0 PUSH1 0x1 PUSH1 0x1 PUSH1 0xA0 SHL SUB AND SWAP1 PUSH4 0x70A08231 SWAP1 PUSH1 0x24 ADD PUSH1 0x20 PUSH1 0x40 MLOAD DUP1 DUP4 SUB DUP2 DUP7 GAS STATICCALL ISZERO DUP1 ISZERO PUSH2 0x55E JUMPI RETURNDATASIZE PUSH1 0x0 DUP1 RETURNDATACOPY RETURNDATASIZE PUSH1 0x0 REVERT JUMPDEST POP POP POP POP PUSH1 0x40 MLOAD RETURNDATASIZE PUSH1 0x1F NOT PUSH1 0x1F DUP3 ADD AND DUP3 ADD DUP1 PUSH1 0x40 MSTORE POP DUP2 ADD SWAP1 PUSH2 0x582 SWAP2 SWAP1 PUSH2 0x1AA0 JUMP JUMPDEST LT ISZERO PUSH2 0x5A1 JUMPI PUSH1 0x40 MLOAD PUSH4 0x28B35F21 PUSH1 0xE0 SHL DUP2 MSTORE PUSH1 0x4 ADD PUSH1 0x40 MLOAD DUP1 SWAP2 SUB SWAP1 REVERT JUMPDEST DUP2 PUSH1 0x4 PUSH1 0x0 DUP3 DUP3 SLOAD PUSH2 0x5B3 SWAP2 SWAP1 PUSH2 0x1A54 JUMP JUMPDEST SWAP3 POP POP DUP2 SWAP1 SSTORE POP DUP1 PUSH1 0x5 PUSH1 0x0 DUP3 DUP3 SLOAD PUSH2 0x5CC SWAP2 SWAP1 PUSH2 0x1AB9 JUMP JUMPDEST SWAP1 SWAP2 SSTORE POP PUSH2 0x606 SWAP1 POP PUSH1 0x1 PUSH1 0x1 PUSH1 0xA0 SHL SUB PUSH32 0x0 AND CALLER DUP4 PUSH2 0x1817 JUMP JUMPDEST PUSH1 0x0 DUP1 PUSH1 0x5 SLOAD GT PUSH2 0x618 JUMPI PUSH1 0x0 PUSH2 0x63A JUMP JUMPDEST PUSH1 0x5 SLOAD PUSH1 0x4 SLOAD PUSH2 0x630 SWAP1 PUSH8 0xDE0B6B3A7640000 PUSH2 0x1A67 JUMP JUMPDEST PUSH2 0x63A SWAP2 SWAP1 PUSH2 0x1A7E JUMP JUMPDEST SWAP1 POP DUP3 PUSH1 0x6 PUSH1 0x0 DUP3 DUP3 SLOAD PUSH2 0x64E SWAP2 SWAP1 PUSH2 0x1A54 JUMP JUMPDEST SWAP1 SWAP2 SSTORE POP POP PUSH1 0x7 DUP1 SLOAD SWAP1 PUSH1 0x0 PUSH2 0x663 DUP4 PUSH2 0x1ACC JUMP JUMPDEST SWAP1 SWAP2 SSTORE POP POP PUSH1 0x40 DUP1 MLOAD DUP5 DUP2 MSTORE PUSH1 0x20 DUP2 ADD DUP5 SWAP1 MSTORE PUSH32 0x3D53FFD94E6169FE8616AEF06A81EBA2335FF27EAC4A60886AD869B22C4F347B SWAP2 ADD PUSH1 0x40 MLOAD DUP1 SWAP2 SUB SWAP1 LOG1 PUSH1 0x40 MLOAD DUP2 DUP2 MSTORE PUSH1 0x0 DUP1 MLOAD PUSH1 0x20 PUSH2 0x1AE6 DUP4 CODECOPY DUP2 MLOAD SWAP2 MSTORE SWAP1 PUSH1 0x20 ADD PUSH1 0x40 MLOAD DUP1 SWAP2 SUB SWAP1 LOG1 POP PUSH2 0x6DA PUSH1 0x1 PUSH1 0x0 DUP1 MLOAD PUSH1 0x20 PUSH2 0x1B06 DUP4 CODECOPY DUP2 MLOAD SWAP2 MSTORE SSTORE JUMP JUMPDEST SWAP2 SWAP1 POP JUMP JUMPDEST PUSH1 0x0 PUSH2 0x6E9 PUSH2 0x17BA JUMP JUMPDEST DUP3 PUSH1 0x0 SUB PUSH2 0x70A JUMPI PUSH1 0x40 MLOAD PUSH4 0x1F2A2005 PUSH1 0xE0 SHL DUP2 MSTORE PUSH1 0x4 ADD PUSH1 0x40 MLOAD DUP1 SWAP2 SUB SWAP1 REVERT JUMPDEST PUSH1 0x4 SLOAD ISZERO DUP1 PUSH2 0x719 JUMPI POP PUSH1 0x5 SLOAD ISZERO JUMPDEST ISZERO PUSH2 0x737 JUMPI PUSH1 0x40 MLOAD PUSH4 0x28B35F21 PUSH1 0xE0 SHL DUP2 MSTORE PUSH1 0x4 ADD PUSH1 0x40 MLOAD DUP1 SWAP2 SUB SWAP1 REVERT JUMPDEST PUSH1 0x40 MLOAD PUSH4 0x70A08231 PUSH1 0xE0 SHL DUP2 MSTORE ADDRESS PUSH1 0x4 DUP3 ADD MSTORE PUSH1 0x0 SWAP1 PUSH32 0x0 PUSH1 0x1 PUSH1 0x1 PUSH1 0xA0 SHL SUB AND SWAP1 PUSH4 0x70A08231 SWAP1 PUSH1 0x24 ADD PUSH1 0x20 PUSH1 0x40 MLOAD DUP1 DUP4 SUB DUP2 DUP7 GAS STATICCALL ISZERO DUP1 ISZERO PUSH2 0x79E JUMPI RETURNDATASIZE PUSH1 0x0 DUP1 RETURNDATACOPY RETURNDATASIZE PUSH1 0x0 REVERT JUMPDEST POP POP POP POP PUSH1 0x40 MLOAD RETURNDATASIZE PUSH1 0x1F NOT PUSH1 0x1F DUP3 ADD AND DUP3 ADD DUP1 PUSH1 0x40 MSTORE POP DUP2 ADD SWAP1 PUSH2 0x7C2 SWAP2 SWAP1 PUSH2 0x1AA0 JUMP JUMPDEST SWAP1 POP PUSH2 0x7F9 PUSH1 0x1 PUSH1 0x1 PUSH1 0xA0 SHL SUB PUSH32 0x0 AND CALLER ADDRESS DUP8 PUSH2 0x17D6 JUMP JUMPDEST PUSH1 0x40 MLOAD PUSH4 0x70A08231 PUSH1 0xE0 SHL DUP2 MSTORE ADDRESS PUSH1 0x4 DUP3 ADD MSTORE PUSH1 0x0 SWAP1 DUP3 SWAP1 PUSH1 0x1 PUSH1 0x1 PUSH1 0xA0 SHL SUB PUSH32 0x0 AND SWAP1 PUSH4 0x70A08231 SWAP1 PUSH1 0x24 ADD PUSH1 0x20 PUSH1 0x40 MLOAD DUP1 DUP4 SUB DUP2 DUP7 GAS STATICCALL ISZERO DUP1 ISZERO PUSH2 0x862 JUMPI RETURNDATASIZE PUSH1 0x0 DUP1 RETURNDATACOPY RETURNDATASIZE PUSH1 0x0 REVERT JUMPDEST POP POP POP POP PUSH1 0x40 MLOAD RETURNDATASIZE PUSH1 0x1F NOT PUSH1 0x1F DUP3 ADD AND DUP3 ADD DUP1 PUSH1 0x40 MSTORE POP DUP2 ADD SWAP1 PUSH2 0x886 SWAP2 SWAP1 PUSH2 0x1AA0 JUMP JUMPDEST PUSH2 0x890 SWAP2 SWAP1 PUSH2 0x1AB9 JUMP JUMPDEST SWAP1 POP DUP5 PUSH1 0x5 SLOAD PUSH2 0x8A0 SWAP2 SWAP1 PUSH2 0x1A54 JUMP JUMPDEST PUSH1 0x4 SLOAD PUSH2 0x8AD SWAP1 DUP8 PUSH2 0x1A67 JUMP JUMPDEST PUSH2 0x8B7 SWAP2 SWAP1 PUSH2 0x1A7E JUMP JUMPDEST SWAP3 POP DUP3 ISZERO DUP1 PUSH2 0x8C5 JUMPI POP DUP4 DUP4 LT JUMPDEST ISZERO PUSH2 0x8E3 JUMPI PUSH1 0x40 MLOAD PUSH4 0x8199F5F3 PUSH1 0xE0 SHL DUP2 MSTORE PUSH1 0x4 ADD PUSH1 0x40 MLOAD DUP1 SWAP2 SUB SWAP1 REVERT JUMPDEST PUSH1 0x4 SLOAD DUP4 GT ISZERO PUSH2 0x906 JUMPI PUSH1 0x40 MLOAD PUSH4 0x28B35F21 PUSH1 0xE0 SHL DUP2 MSTORE PUSH1 0x4 ADD PUSH1 0x40 MLOAD DUP1 SWAP2 SUB SWAP1 REVERT JUMPDEST DUP3 PUSH1 0x4 PUSH1 0x0 DUP3 DUP3 SLOAD PUSH2 0x918 SWAP2 SWAP1 PUSH2 0x1AB9 JUMP JUMPDEST SWAP3 POP POP DUP2 SWAP1 SSTORE POP DUP1 PUSH1 0x5 PUSH1 0x0 DUP3 DUP3 SLOAD PUSH2 0x931 SWAP2 SWAP1 PUSH2 0x1A54 JUMP JUMPDEST SWAP1 SWAP2 SSTORE POP PUSH2 0x96B SWAP1 POP PUSH1 0x1 PUSH1 0x1 PUSH1 0xA0 SHL SUB PUSH32 0x0 AND CALLER DUP6 PUSH2 0x1817 JUMP JUMPDEST DUP3 PUSH1 0x6 PUSH1 0x0 DUP3 DUP3 SLOAD PUSH2 0x97D SWAP2 SWAP1 PUSH2 0x1A54 JUMP JUMPDEST SWAP1 SWAP2 SSTORE POP POP PUSH1 0x7 DUP1 SLOAD SWAP1 PUSH1 0x0 PUSH2 0x992 DUP4 PUSH2 0x1ACC JUMP JUMPDEST SWAP2 SWAP1 POP SSTORE POP PUSH1 0x0 DUP1 PUSH1 0x5 SLOAD GT PUSH2 0x9A9 JUMPI PUSH1 0x0 PUSH2 0x9CB JUMP JUMPDEST PUSH1 0x5 SLOAD PUSH1 0x4 SLOAD PUSH2 0x9C1 SWAP1 PUSH8 0xDE0B6B3A7640000 PUSH2 0x1A67 JUMP JUMPDEST PUSH2 0x9CB SWAP2 SWAP1 PUSH2 0x1A7E JUMP JUMPDEST PUSH1 0x40 DUP1 MLOAD PUSH1 0x0 DUP2 MSTORE PUSH1 0x20 DUP2 ADD DUP10 SWAP1 MSTORE SWAP1 DUP2 ADD DUP7 SWAP1 MSTORE PUSH1 0x60 DUP2 ADD DUP3 SWAP1 MSTORE SWAP1 SWAP2 POP CALLER SWAP1 PUSH32 0x7C707038FB62CB248EC6B437A63EC556BB6233AF235F4518D64693CBA918A6E1 SWAP1 PUSH1 0x80 ADD PUSH1 0x40 MLOAD DUP1 SWAP2 SUB SWAP1 LOG2 PUSH1 0x40 MLOAD DUP2 DUP2 MSTORE PUSH1 0x0 DUP1 MLOAD PUSH1 0x20 PUSH2 0x1AE6 DUP4 CODECOPY DUP2 MLOAD SWAP2 MSTORE SWAP1 PUSH1 0x20 ADD PUSH1 0x40 MLOAD DUP1 SWAP2 SUB SWAP1 LOG1 POP POP POP PUSH2 0xA54 PUSH1 0x1 PUSH1 0x0 DUP1 MLOAD PUSH1 0x20 PUSH2 0x1B06 DUP4 CODECOPY DUP2 MLOAD SWAP2 MSTORE SSTORE JUMP JUMPDEST SWAP3 SWAP2 POP POP JUMP JUMPDEST PUSH1 0x3 SLOAD PUSH1 0x1 PUSH1 0x1 PUSH1 0xA0 SHL SUB AND CALLER EQ PUSH2 0xA85 JUMPI PUSH1 0x40 MLOAD PUSH4 0x559B36F PUSH1 0xE1 SHL DUP2 MSTORE PUSH1 0x4 ADD PUSH1 0x40 MLOAD DUP1 SWAP2 SUB SWAP1 REVERT JUMPDEST DUP1 PUSH1 0x0 SUB PUSH2 0xAA6 JUMPI PUSH1 0x40 MLOAD PUSH4 0x1F2A2005 PUSH1 0xE0 SHL DUP2 MSTORE PUSH1 0x4 ADD PUSH1 0x40 MLOAD DUP1 SWAP2 SUB SWAP1 REVERT JUMPDEST PUSH2 0xADB PUSH1 0x1 PUSH1 0x1 PUSH1 0xA0 SHL SUB PUSH32 0x0 AND CALLER ADDRESS DUP5 PUSH2 0x17D6 JUMP JUMPDEST DUP1 PUSH1 0x5 PUSH1 0x0 DUP3 DUP3 SLOAD PUSH2 0xAED SWAP2 SWAP1 PUSH2 0x1A54 JUMP JUMPDEST SWAP1 SWAP2 SSTORE POP POP POP JUMP JUMPDEST PUSH1 0x0 SLOAD PUSH1 0x1 PUSH1 0x1 PUSH1 0xA0 SHL SUB AND CALLER EQ PUSH2 0xB20 JUMPI PUSH1 0x40 MLOAD PUSH4 0x47556579 PUSH1 0xE0 SHL DUP2 MSTORE PUSH1 0x4 ADD PUSH1 0x40 MLOAD DUP1 SWAP2 SUB SWAP1 REVERT JUMPDEST PUSH1 0x1 PUSH1 0x1 PUSH1 0xA0 SHL SUB DUP2 AND PUSH2 0xB47 JUMPI PUSH1 0x40 MLOAD PUSH4 0xD92E233D PUSH1 0xE0 SHL DUP2 MSTORE PUSH1 0x4 ADD PUSH1 0x40 MLOAD DUP1 SWAP2 SUB SWAP1 REVERT JUMPDEST PUSH1 0x3 DUP1 SLOAD PUSH1 0x1 PUSH1 0x1 PUSH1 0xA0 SHL SUB NOT AND PUSH1 0x1 PUSH1 0x1 PUSH1 0xA0 SHL SUB SWAP3 SWAP1 SWAP3 AND SWAP2 SWAP1 SWAP2 OR SWAP1 SSTORE JUMP JUMPDEST PUSH1 0x0 DUP2 ISZERO DUP1 PUSH2 0xB78 JUMPI POP PUSH1 0x4 SLOAD ISZERO JUMPDEST DUP1 PUSH2 0xB83 JUMPI POP PUSH1 0x5 SLOAD ISZERO JUMPDEST ISZERO PUSH2 0xB90 JUMPI POP PUSH1 0x0 SWAP2 SWAP1 POP JUMP JUMPDEST DUP2 PUSH1 0x4 SLOAD PUSH2 0xB9E SWAP2 SWAP1 PUSH2 0x1A54 JUMP JUMPDEST PUSH1 0x5 SLOAD PUSH2 0xBAB SWAP1 DUP5 PUSH2 0x1A67 JUMP JUMPDEST PUSH2 0xA54 SWAP2 SWAP1 PUSH2 0x1A7E JUMP JUMPDEST PUSH1 0x3 SLOAD PUSH1 0x0 SWAP1 PUSH1 0x1 PUSH1 0x1 PUSH1 0xA0 SHL SUB AND CALLER EQ PUSH2 0xBE3 JUMPI PUSH1 0x40 MLOAD PUSH4 0x559B36F PUSH1 0xE1 SHL DUP2 MSTORE PUSH1 0x4 ADD PUSH1 0x40 MLOAD DUP1 SWAP2 SUB SWAP1 REVERT JUMPDEST PUSH2 0xBEB PUSH2 0x17BA JUMP JUMPDEST DUP3 PUSH1 0x0 SUB PUSH2 0xC0C JUMPI PUSH1 0x40 MLOAD PUSH4 0x1F2A2005 PUSH1 0xE0 SHL DUP2 MSTORE PUSH1 0x4 ADD PUSH1 0x40 MLOAD DUP1 SWAP2 SUB SWAP1 REVERT JUMPDEST PUSH1 0x1 PUSH1 0x1 PUSH1 0xA0 SHL SUB DUP3 AND PUSH2 0xC33 JUMPI PUSH1 0x40 MLOAD PUSH4 0xD92E233D PUSH1 0xE0 SHL DUP2 MSTORE PUSH1 0x4 ADD PUSH1 0x40 MLOAD DUP1 SWAP2 SUB SWAP1 REVERT JUMPDEST PUSH1 0x4 SLOAD ISZERO DUP1 PUSH2 0xC42 JUMPI POP PUSH1 0x5 SLOAD ISZERO JUMPDEST ISZERO PUSH2 0xC60 JUMPI PUSH1 0x40 MLOAD PUSH4 0x28B35F21 PUSH1 0xE0 SHL DUP2 MSTORE PUSH1 0x4 ADD PUSH1 0x40 MLOAD DUP1 SWAP2 SUB SWAP1 REVERT JUMPDEST DUP3 PUSH1 0x4 SLOAD PUSH2 0xC6E SWAP2 SWAP1 PUSH2 0x1A54 JUMP JUMPDEST PUSH1 0x5 SLOAD PUSH2 0xC7B SWAP1 DUP6 PUSH2 0x1A67 JUMP JUMPDEST PUSH2 0xC85 SWAP2 SWAP1 PUSH2 0x1A7E JUMP JUMPDEST SWAP1 POP DUP1 PUSH1 0x0 SUB PUSH2 0xCA8 JUMPI PUSH1 0x40 MLOAD PUSH4 0x1F2A2005 PUSH1 0xE0 SHL DUP2 MSTORE PUSH1 0x4 ADD PUSH1 0x40 MLOAD DUP1 SWAP2 SUB SWAP1 REVERT JUMPDEST PUSH2 0xCDD PUSH1 0x1 PUSH1 0x1 PUSH1 0xA0 SHL SUB PUSH32 0x0 AND CALLER ADDRESS DUP7 PUSH2 0x17D6 JUMP JUMPDEST PUSH2 0xD11 PUSH1 0x1 PUSH1 0x1 PUSH1 0xA0 SHL SUB PUSH32 0x0 AND DUP4 DUP4 PUSH2 0x1817 JUMP JUMPDEST DUP3 PUSH1 0x4 PUSH1 0x0 DUP3 DUP3 SLOAD PUSH2 0xD23 SWAP2 SWAP1 PUSH2 0x1A54 JUMP JUMPDEST SWAP3 POP POP DUP2 SWAP1 SSTORE POP DUP1 PUSH1 0x5 PUSH1 0x0 DUP3 DUP3 SLOAD PUSH2 0xD3C SWAP2 SWAP1 PUSH2 0x1AB9 JUMP JUMPDEST SWAP3 POP POP DUP2 SWAP1 SSTORE POP DUP3 PUSH1 0x6 PUSH1 0x0 DUP3 DUP3 SLOAD PUSH2 0xD55 SWAP2 SWAP1 PUSH2 0x1A54 JUMP JUMPDEST SWAP1 SWAP2 SSTORE POP POP PUSH1 0x7 DUP1 SLOAD SWAP1 PUSH1 0x0 PUSH2 0xD6A DUP4 PUSH2 0x1ACC JUMP JUMPDEST SWAP2 SWAP1 POP SSTORE POP PUSH1 0x0 DUP1 PUSH1 0x5 SLOAD GT PUSH2 0xD81 JUMPI PUSH1 0x0 PUSH2 0xDA3 JUMP JUMPDEST PUSH1 0x5 SLOAD PUSH1 0x4 SLOAD PUSH2 0xD99 SWAP1 PUSH8 0xDE0B6B3A7640000 PUSH2 0x1A67 JUMP JUMPDEST PUSH2 0xDA3 SWAP2 SWAP1 PUSH2 0x1A7E JUMP JUMPDEST PUSH1 0x40 DUP1 MLOAD PUSH1 0x1 DUP2 MSTORE PUSH1 0x20 DUP2 ADD DUP8 SWAP1 MSTORE SWAP1 DUP2 ADD DUP5 SWAP1 MSTORE PUSH1 0x60 DUP2 ADD DUP3 SWAP1 MSTORE SWAP1 SWAP2 POP PUSH1 0x1 PUSH1 0x1 PUSH1 0xA0 SHL SUB DUP5 AND SWAP1 PUSH32 0x7C707038FB62CB248EC6B437A63EC556BB6233AF235F4518D64693CBA918A6E1 SWAP1 PUSH1 0x80 ADD JUMPDEST PUSH1 0x40 MLOAD DUP1 SWAP2 SUB SWAP1 LOG2 PUSH1 0x40 MLOAD DUP2 DUP2 MSTORE PUSH1 0x0 DUP1 MLOAD PUSH1 0x20 PUSH2 0x1AE6 DUP4 CODECOPY DUP2 MLOAD SWAP2 MSTORE SWAP1 PUSH1 0x20 ADD JUMPDEST PUSH1 0x40 MLOAD DUP1 SWAP2 SUB SWAP1 LOG1 POP PUSH2 0xA54 PUSH1 0x1 PUSH1 0x0 DUP1 MLOAD PUSH1 0x20 PUSH2 0x1B06 DUP4 CODECOPY DUP2 MLOAD SWAP2 MSTORE SSTORE JUMP JUMPDEST PUSH1 0x0 SLOAD PUSH1 0x1 PUSH1 0x1 PUSH1 0xA0 SHL SUB AND CALLER EQ PUSH2 0xE60 JUMPI PUSH1 0x40 MLOAD PUSH4 0x47556579 PUSH1 0xE0 SHL DUP2 MSTORE PUSH1 0x4 ADD PUSH1 0x40 MLOAD DUP1 SWAP2 SUB SWAP1 REVERT JUMPDEST PUSH1 0x3 SLOAD PUSH1 0x1 PUSH1 0xA0 SHL SWAP1 DIV PUSH1 0xFF AND ISZERO PUSH2 0xE8B JUMPI PUSH1 0x40 MLOAD PUSH4 0x238F75D3 PUSH1 0xE0 SHL DUP2 MSTORE PUSH1 0x4 ADD PUSH1 0x40 MLOAD DUP1 SWAP2 SUB SWAP1 REVERT JUMPDEST PUSH1 0x1 DUP1 SLOAD PUSH1 0x1 PUSH1 0x1 PUSH1 0xA0 SHL SUB SWAP5 DUP6 AND PUSH1 0x1 PUSH1 0x1 PUSH1 0xA0 SHL SUB NOT SWAP2 DUP3 AND OR SWAP1 SWAP2 SSTORE PUSH1 0x2 DUP1 SLOAD SWAP4 DUP6 AND SWAP4 SWAP1 SWAP2 AND SWAP3 SWAP1 SWAP3 OR SWAP1 SWAP2 SSTORE PUSH1 0x3 DUP1 SLOAD PUSH1 0x1 PUSH1 0x1 PUSH1 0xA8 SHL SUB NOT AND SWAP2 SWAP1 SWAP3 AND OR PUSH1 0x1 PUSH1 0xA0 SHL OR SWAP1 SSTORE JUMP JUMPDEST PUSH1 0x0 SLOAD PUSH1 0x1 PUSH1 0x1 PUSH1 0xA0 SHL SUB AND CALLER EQ PUSH2 0xF04 JUMPI PUSH1 0x40 MLOAD PUSH4 0x47556579 PUSH1 0xE0 SHL DUP2 MSTORE PUSH1 0x4 ADD PUSH1 0x40 MLOAD DUP1 SWAP2 SUB SWAP1 REVERT JUMPDEST PUSH1 0x3 SLOAD PUSH1 0x1 PUSH1 0xA0 SHL SWAP1 DIV PUSH1 0xFF AND ISZERO PUSH2 0xF2F JUMPI PUSH1 0x40 MLOAD PUSH4 0x238F75D3 PUSH1 0xE0 SHL DUP2 MSTORE PUSH1 0x4 ADD PUSH1 0x40 MLOAD DUP1 SWAP2 SUB SWAP1 REVERT JUMPDEST PUSH1 0x3 DUP1 SLOAD PUSH1 0xFF PUSH1 0xA0 SHL NOT AND PUSH1 0x1 PUSH1 0xA0 SHL OR SWAP1 SSTORE PUSH1 0x0 DUP1 SLOAD PUSH1 0x1 PUSH1 0x1 PUSH1 0xA0 SHL SUB NOT AND SWAP1 SSTORE JUMP JUMPDEST PUSH1 0x0 PUSH1 0x5 SLOAD PUSH1 0x0 EQ DUP1 PUSH2 0xF67 JUMPI POP PUSH1 0x4 SLOAD ISZERO JUMPDEST ISZERO PUSH2 0xF72 JUMPI POP PUSH1 0x0 SWAP1 JUMP JUMPDEST PUSH1 0x5 SLOAD PUSH1 0x4 SLOAD PUSH2 0xF8A SWAP1 PUSH8 0xDE0B6B3A7640000 PUSH2 0x1A67 JUMP JUMPDEST PUSH2 0xF94 SWAP2 SWAP1 PUSH2 0x1A7E JUMP JUMPDEST SWAP1 POP SWAP1 JUMP JUMPDEST PUSH1 0x2 SLOAD PUSH1 0x1 PUSH1 0x1 PUSH1 0xA0 SHL SUB AND CALLER EQ PUSH2 0xFC4 JUMPI PUSH1 0x40 MLOAD PUSH4 0xBE5A3E1 PUSH1 0xE3 SHL DUP2 MSTORE PUSH1 0x4 ADD PUSH1 0x40 MLOAD DUP1 SWAP2 SUB SWAP1 REVERT JUMPDEST DUP2 ISZERO DUP1 PUSH2 0xFCF JUMPI POP DUP1 ISZERO JUMPDEST ISZERO PUSH2 0xFED JUMPI PUSH1 0x40 MLOAD PUSH4 0x1F2A2005 PUSH1 0xE0 SHL DUP2 MSTORE PUSH1 0x4 ADD PUSH1 0x40 MLOAD DUP1 SWAP2 SUB SWAP1 REVERT JUMPDEST PUSH2 0x1022 PUSH1 0x1 PUSH1 0x1 PUSH1 0xA0 SHL SUB PUSH32 0x0 AND CALLER ADDRESS DUP6 PUSH2 0x17D6 JUMP JUMPDEST PUSH2 0x1057 PUSH1 0x1 PUSH1 0x1 PUSH1 0xA0 SHL SUB PUSH32 0x0 AND CALLER ADDRESS DUP5 PUSH2 0x17D6 JUMP JUMPDEST DUP2 PUSH1 0x4 PUSH1 0x0 DUP3 DUP3 SLOAD PUSH2 0x1069 SWAP2 SWAP1 PUSH2 0x1A54 JUMP JUMPDEST SWAP3 POP POP DUP2 SWAP1 SSTORE POP DUP1 PUSH1 0x5 PUSH1 0x0 DUP3 DUP3 SLOAD PUSH2 0x1082 SWAP2 SWAP1 PUSH2 0x1A54 JUMP JUMPDEST SWAP1 SWAP2 SSTORE POP DUP2 SWAP1 POP PUSH2 0x109B DUP4 PUSH8 0xDE0B6B3A7640000 PUSH2 0x1A67 JUMP JUMPDEST PUSH2 0x10A5 SWAP2 SWAP1 PUSH2 0x1A7E JUMP JUMPDEST PUSH1 0x8 SSTORE PUSH1 0x40 DUP1 MLOAD DUP4 DUP2 MSTORE PUSH1 0x20 DUP2 ADD DUP4 SWAP1 MSTORE PUSH32 0x9C86429231ED0411E3112A1DD5C6578826C2D48089D5EC491E874CE0029C0BBE SWAP2 ADD PUSH1 0x40 MLOAD DUP1 SWAP2 SUB SWAP1 LOG1 PUSH1 0x0 DUP1 MLOAD PUSH1 0x20 PUSH2 0x1AE6 DUP4 CODECOPY DUP2 MLOAD SWAP2 MSTORE PUSH1 0x8 SLOAD PUSH1 0x40 MLOAD PUSH2 0x1102 SWAP2 DUP2 MSTORE PUSH1 0x20 ADD SWAP1 JUMP JUMPDEST PUSH1 0x40 MLOAD DUP1 SWAP2 SUB SWAP1 LOG1 POP POP JUMP JUMPDEST PUSH1 0x0 DUP2 ISZERO DUP1 PUSH2 0x111D JUMPI POP PUSH1 0x4 SLOAD ISZERO JUMPDEST DUP1 PUSH2 0x1128 JUMPI POP PUSH1 0x5 SLOAD ISZERO JUMPDEST ISZERO PUSH2 0x1135 JUMPI POP PUSH1 0x0 SWAP2 SWAP1 POP JUMP JUMPDEST PUSH1 0x0 DUP3 PUSH1 0x5 SLOAD PUSH2 0x1145 SWAP2 SWAP1 PUSH2 0x1A54 JUMP JUMPDEST PUSH1 0x4 SLOAD PUSH2 0x1152 SWAP1 DUP6 PUSH2 0x1A67 JUMP JUMPDEST PUSH2 0x115C SWAP2 SWAP1 PUSH2 0x1A7E JUMP JUMPDEST SWAP1 POP PUSH1 0x4 SLOAD DUP2 GT ISZERO PUSH2 0xA54 JUMPI POP PUSH1 0x0 SWAP3 SWAP2 POP POP JUMP JUMPDEST PUSH1 0x3 SLOAD PUSH1 0x0 SWAP1 PUSH1 0x1 PUSH1 0x1 PUSH1 0xA0 SHL SUB AND CALLER EQ PUSH2 0x119F JUMPI PUSH1 0x40 MLOAD PUSH4 0x559B36F PUSH1 0xE1 SHL DUP2 MSTORE PUSH1 0x4 ADD PUSH1 0x40 MLOAD DUP1 SWAP2 SUB SWAP1 REVERT JUMPDEST PUSH2 0x11A7 PUSH2 0x17BA JUMP JUMPDEST DUP3 PUSH1 0x0 SUB PUSH2 0x11C8 JUMPI PUSH1 0x40 MLOAD PUSH4 0x1F2A2005 PUSH1 0xE0 SHL DUP2 MSTORE PUSH1 0x4 ADD PUSH1 0x40 MLOAD DUP1 SWAP2 SUB SWAP1 REVERT JUMPDEST PUSH1 0x4 SLOAD ISZERO DUP1 PUSH2 0x11D7 JUMPI POP PUSH1 0x5 SLOAD ISZERO JUMPDEST ISZERO PUSH2 0x11F5 JUMPI PUSH1 0x40 MLOAD PUSH4 0x28B35F21 PUSH1 0xE0 SHL DUP2 MSTORE PUSH1 0x4 ADD PUSH1 0x40 MLOAD DUP1 SWAP2 SUB SWAP1 REVERT JUMPDEST DUP3 PUSH1 0x4 SLOAD PUSH2 0x1203 SWAP2 SWAP1 PUSH2 0x1A54 JUMP JUMPDEST PUSH1 0x5 SLOAD PUSH2 0x1210 SWAP1 DUP6 PUSH2 0x1A67 JUMP JUMPDEST PUSH2 0x121A SWAP2 SWAP1 PUSH2 0x1A7E JUMP JUMPDEST SWAP1 POP DUP1 ISZERO DUP1 PUSH2 0x1228 JUMPI POP DUP2 DUP2 LT JUMPDEST ISZERO PUSH2 0x1246 JUMPI PUSH1 0x40 MLOAD PUSH4 0x8199F5F3 PUSH1 0xE0 SHL DUP2 MSTORE PUSH1 0x4 ADD PUSH1 0x40 MLOAD DUP1 SWAP2 SUB SWAP1 REVERT JUMPDEST PUSH2 0x127B PUSH1 0x1 PUSH1 0x1 PUSH1 0xA0 SHL SUB PUSH32 0x0 AND CALLER ADDRESS DUP7 PUSH2 0x17D6 JUMP JUMPDEST PUSH2 0x12AF PUSH1 0x1 PUSH1 0x1 PUSH1 0xA0 SHL SUB PUSH32 0x0 AND CALLER DUP4 PUSH2 0x1817 JUMP JUMPDEST DUP3 PUSH1 0x4 PUSH1 0x0 DUP3 DUP3 SLOAD PUSH2 0x12C1 SWAP2 SWAP1 PUSH2 0x1A54 JUMP JUMPDEST SWAP3 POP POP DUP2 SWAP1 SSTORE POP DUP1 PUSH1 0x5 PUSH1 0x0 DUP3 DUP3 SLOAD PUSH2 0x12DA SWAP2 SWAP1 PUSH2 0x1AB9 JUMP JUMPDEST SWAP3 POP POP DUP2 SWAP1 SSTORE POP DUP3 PUSH1 0x6 PUSH1 0x0 DUP3 DUP3 SLOAD PUSH2 0x12F3 SWAP2 SWAP1 PUSH2 0x1A54 JUMP JUMPDEST SWAP1 SWAP2 SSTORE POP POP PUSH1 0x7 DUP1 SLOAD SWAP1 PUSH1 0x0 PUSH2 0x1308 DUP4 PUSH2 0x1ACC JUMP JUMPDEST SWAP2 SWAP1 POP SSTORE POP PUSH1 0x0 DUP1 PUSH1 0x5 SLOAD GT PUSH2 0x131F JUMPI PUSH1 0x0 PUSH2 0x1341 JUMP JUMPDEST PUSH1 0x5 SLOAD PUSH1 0x4 SLOAD PUSH2 0x1337 SWAP1 PUSH8 0xDE0B6B3A7640000 PUSH2 0x1A67 JUMP JUMPDEST PUSH2 0x1341 SWAP2 SWAP1 PUSH2 0x1A7E JUMP JUMPDEST PUSH1 0x40 DUP1 MLOAD PUSH1 0x1 DUP2 MSTORE PUSH1 0x20 DUP2 ADD DUP8 SWAP1 MSTORE SWAP1 DUP2 ADD DUP5 SWAP1 MSTORE PUSH1 0x60 DUP2 ADD DUP3 SWAP1 MSTORE SWAP1 SWAP2 POP CALLER SWAP1 PUSH32 0x7C707038FB62CB248EC6B437A63EC556BB6233AF235F4518D64693CBA918A6E1 SWAP1 PUSH1 0x80 ADD PUSH2 0xDF3 JUMP JUMPDEST PUSH1 0x1 SLOAD PUSH1 0x1 PUSH1 0x1 PUSH1 0xA0 SHL SUB AND CALLER EQ PUSH2 0xB20 JUMPI PUSH1 0x40 MLOAD PUSH4 0xE05F485 PUSH1 0xE1 SHL DUP2 MSTORE PUSH1 0x4 ADD PUSH1 0x40 MLOAD DUP1 SWAP2 SUB SWAP1 REVERT JUMPDEST PUSH1 0x2 SLOAD PUSH1 0x1 PUSH1 0x1 PUSH1 0xA0 SHL SUB AND CALLER EQ PUSH2 0x13E2 JUMPI PUSH1 0x40 MLOAD PUSH4 0xBE5A3E1 PUSH1 0xE3 SHL DUP2 MSTORE PUSH1 0x4 ADD PUSH1 0x40 MLOAD DUP1 SWAP2 SUB SWAP1 REVERT JUMPDEST DUP1 PUSH1 0x0 SUB PUSH2 0x1403 JUMPI PUSH1 0x40 MLOAD PUSH4 0x1F2A2005 PUSH1 0xE0 SHL DUP2 MSTORE PUSH1 0x4 ADD PUSH1 0x40 MLOAD DUP1 SWAP2 SUB SWAP1 REVERT JUMPDEST PUSH2 0x1438 PUSH1 0x1 PUSH1 0x1 PUSH1 0xA0 SHL SUB PUSH32 0x0 AND CALLER ADDRESS DUP5 PUSH2 0x17D6 JUMP JUMPDEST DUP1 PUSH1 0x4 PUSH1 0x0 DUP3 DUP3 SLOAD PUSH2 0x144A SWAP2 SWAP1 PUSH2 0x1A54 JUMP JUMPDEST SWAP3 POP POP DUP2 SWAP1 SSTORE POP PUSH1 0x0 PUSH32 0x0 PUSH1 0x1 PUSH1 0x1 PUSH1 0xA0 SHL SUB AND PUSH4 0x18160DDD PUSH1 0x40 MLOAD DUP2 PUSH4 0xFFFFFFFF AND PUSH1 0xE0 SHL DUP2 MSTORE PUSH1 0x4 ADD PUSH1 0x20 PUSH1 0x40 MLOAD DUP1 DUP4 SUB DUP2 DUP7 GAS STATICCALL ISZERO DUP1 ISZERO PUSH2 0x14B1 JUMPI RETURNDATASIZE PUSH1 0x0 DUP1 RETURNDATACOPY RETURNDATASIZE PUSH1 0x0 REVERT JUMPDEST POP POP POP POP PUSH1 0x40 MLOAD RETURNDATASIZE PUSH1 0x1F NOT PUSH1 0x1F DUP3 ADD AND DUP3 ADD DUP1 PUSH1 0x40 MSTORE POP DUP2 ADD SWAP1 PUSH2 0x14D5 SWAP2 SWAP1 PUSH2 0x1AA0 JUMP JUMPDEST PUSH1 0x4 SLOAD PUSH2 0x14EA SWAP1 PUSH8 0xDE0B6B3A7640000 PUSH2 0x1A67 JUMP JUMPDEST PUSH2 0x14F4 SWAP2 SWAP1 PUSH2 0x1A7E JUMP JUMPDEST PUSH1 0x40 DUP1 MLOAD DUP5 DUP2 MSTORE PUSH1 0x0 PUSH1 0x20 DUP3 ADD MSTORE SWAP2 SWAP3 POP PUSH32 0x9C86429231ED0411E3112A1DD5C6578826C2D48089D5EC491E874CE0029C0BBE SWAP2 ADD PUSH1 0x40 MLOAD DUP1 SWAP2 SUB SWAP1 LOG1 PUSH1 0x40 MLOAD DUP2 DUP2 MSTORE PUSH1 0x0 DUP1 MLOAD PUSH1 0x20 PUSH2 0x1AE6 DUP4 CODECOPY DUP2 MLOAD SWAP2 MSTORE SWAP1 PUSH1 0x20 ADD PUSH2 0x1102 JUMP JUMPDEST PUSH1 0x3 SLOAD PUSH1 0x0 SWAP1 PUSH1 0x1 PUSH1 0x1 PUSH1 0xA0 SHL SUB AND CALLER EQ PUSH2 0x157C JUMPI PUSH1 0x40 MLOAD PUSH4 0x559B36F PUSH1 0xE1 SHL DUP2 MSTORE PUSH1 0x4 ADD PUSH1 0x40 MLOAD DUP1 SWAP2 SUB SWAP1 REVERT JUMPDEST PUSH2 0x1584 PUSH2 0x17BA JUMP JUMPDEST DUP3 PUSH1 0x0 SUB PUSH2 0x15A5 JUMPI PUSH1 0x40 MLOAD PUSH4 0x1F2A2005 PUSH1 0xE0 SHL DUP2 MSTORE PUSH1 0x4 ADD PUSH1 0x40 MLOAD DUP1 SWAP2 SUB SWAP1 REVERT JUMPDEST PUSH1 0x1 PUSH1 0x1 PUSH1 0xA0 SHL SUB DUP3 AND PUSH2 0x15CC JUMPI PUSH1 0x40 MLOAD PUSH4 0xD92E233D PUSH1 0xE0 SHL DUP2 MSTORE PUSH1 0x4 ADD PUSH1 0x40 MLOAD DUP1 SWAP2 SUB SWAP1 REVERT JUMPDEST PUSH2 0x1601 PUSH1 0x1 PUSH1 0x1 PUSH1 0xA0 SHL SUB PUSH32 0x0 AND CALLER ADDRESS DUP7 PUSH2 0x17D6 JUMP JUMPDEST PUSH1 0x0 PUSH1 0x4 SLOAD GT DUP1 ISZERO PUSH2 0x1615 JUMPI POP PUSH1 0x0 PUSH1 0x5 SLOAD GT JUMPDEST ISZERO PUSH2 0x1646 JUMPI DUP3 PUSH1 0x5 SLOAD PUSH2 0x1628 SWAP2 SWAP1 PUSH2 0x1A54 JUMP JUMPDEST PUSH1 0x4 SLOAD PUSH2 0x1635 SWAP1 DUP6 PUSH2 0x1A67 JUMP JUMPDEST PUSH2 0x163F SWAP2 SWAP1 PUSH2 0x1A7E JUMP JUMPDEST SWAP1 POP PUSH2 0x1649 JUMP JUMPDEST POP DUP2 JUMPDEST DUP1 PUSH1 0x0 SUB PUSH2 0x166A JUMPI PUSH1 0x40 MLOAD PUSH4 0x1F2A2005 PUSH1 0xE0 SHL DUP2 MSTORE PUSH1 0x4 ADD PUSH1 0x40 MLOAD DUP1 SWAP2 SUB SWAP1 REVERT JUMPDEST PUSH1 0x4 SLOAD DUP2 GT ISZERO PUSH2 0x168D JUMPI PUSH1 0x40 MLOAD PUSH4 0x28B35F21 PUSH1 0xE0 SHL DUP2 MSTORE PUSH1 0x4 ADD PUSH1 0x40 MLOAD DUP1 SWAP2 SUB SWAP1 REVERT JUMPDEST DUP3 PUSH1 0x5 PUSH1 0x0 DUP3 DUP3 SLOAD PUSH2 0x169F SWAP2 SWAP1 PUSH2 0x1A54 JUMP JUMPDEST SWAP3 POP POP DUP2 SWAP1 SSTORE POP DUP1 PUSH1 0x4 PUSH1 0x0 DUP3 DUP3 SLOAD PUSH2 0x16B8 SWAP2 SWAP1 PUSH2 0x1AB9 JUMP JUMPDEST SWAP1 SWAP2 SSTORE POP PUSH2 0x16F2 SWAP1 POP PUSH1 0x1 PUSH1 0x1 PUSH1 0xA0 SHL SUB PUSH32 0x0 AND DUP4 DUP4 PUSH2 0x1817 JUMP JUMPDEST PUSH1 0x0 DUP1 PUSH1 0x5 SLOAD GT PUSH2 0x1704 JUMPI PUSH1 0x0 PUSH2 0x1726 JUMP JUMPDEST PUSH1 0x5 SLOAD PUSH1 0x4 SLOAD PUSH2 0x171C SWAP1 PUSH8 0xDE0B6B3A7640000 PUSH2 0x1A67 JUMP JUMPDEST PUSH2 0x1726 SWAP2 SWAP1 PUSH2 0x1A7E JUMP JUMPDEST SWAP1 POP DUP2 PUSH1 0x6 PUSH1 0x0 DUP3 DUP3 SLOAD PUSH2 0x173A SWAP2 SWAP1 PUSH2 0x1A54 JUMP JUMPDEST SWAP1 SWAP2 SSTORE POP POP PUSH1 0x7 DUP1 SLOAD SWAP1 PUSH1 0x0 PUSH2 0x174F DUP4 PUSH2 0x1ACC JUMP JUMPDEST SWAP1 SWAP2 SSTORE POP POP PUSH1 0x40 DUP1 MLOAD DUP6 DUP2 MSTORE PUSH1 0x20 DUP2 ADD DUP5 SWAP1 MSTORE PUSH1 0x1 PUSH1 0x1 PUSH1 0xA0 SHL SUB DUP6 AND DUP2 DUP4 ADD MSTORE SWAP1 MLOAD PUSH32 0x1408158D52D7D739E0848C588738E9B79917E2773E51C49FF4544E3E6A538F8C SWAP2 DUP2 SWAP1 SUB PUSH1 0x60 ADD SWAP1 LOG1 PUSH1 0x40 MLOAD DUP2 DUP2 MSTORE PUSH1 0x0 DUP1 MLOAD PUSH1 0x20 PUSH2 0x1AE6 DUP4 CODECOPY DUP2 MLOAD SWAP2 MSTORE SWAP1 PUSH1 0x20 ADD PUSH2 0xE15 JUMP JUMPDEST PUSH2 0x17C2 PUSH2 0x1851 JUMP JUMPDEST PUSH1 0x2 PUSH1 0x0 DUP1 MLOAD PUSH1 0x20 PUSH2 0x1B06 DUP4 CODECOPY DUP2 MLOAD SWAP2 MSTORE SSTORE JUMP JUMPDEST PUSH2 0x17E4 DUP5 DUP5 DUP5 DUP5 PUSH1 0x1 PUSH2 0x1883 JUMP JUMPDEST PUSH2 0x1811 JUMPI PUSH1 0x40 MLOAD PUSH4 0x5274AFE7 PUSH1 0xE0 SHL DUP2 MSTORE PUSH1 0x1 PUSH1 0x1 PUSH1 0xA0 SHL SUB DUP6 AND PUSH1 0x4 DUP3 ADD MSTORE PUSH1 0x24 ADD JUMPDEST PUSH1 0x40 MLOAD DUP1 SWAP2 SUB SWAP1 REVERT JUMPDEST POP POP POP POP JUMP JUMPDEST PUSH2 0x1824 DUP4 DUP4 DUP4 PUSH1 0x1 PUSH2 0x18F5 JUMP JUMPDEST PUSH2 0x184C JUMPI PUSH1 0x40 MLOAD PUSH4 0x5274AFE7 PUSH1 0xE0 SHL DUP2 MSTORE PUSH1 0x1 PUSH1 0x1 PUSH1 0xA0 SHL SUB DUP5 AND PUSH1 0x4 DUP3 ADD MSTORE PUSH1 0x24 ADD PUSH2 0x1808 JUMP JUMPDEST POP POP POP JUMP JUMPDEST PUSH1 0x0 DUP1 MLOAD PUSH1 0x20 PUSH2 0x1B06 DUP4 CODECOPY DUP2 MLOAD SWAP2 MSTORE SLOAD PUSH1 0x2 SUB PUSH2 0x1881 JUMPI PUSH1 0x40 MLOAD PUSH4 0x3EE5AEB5 PUSH1 0xE0 SHL DUP2 MSTORE PUSH1 0x4 ADD PUSH1 0x40 MLOAD DUP1 SWAP2 SUB SWAP1 REVERT JUMPDEST JUMP JUMPDEST PUSH1 0x40 MLOAD PUSH4 0x23B872DD PUSH1 0xE0 SHL PUSH1 0x0 DUP2 DUP2 MSTORE PUSH1 0x1 PUSH1 0x1 PUSH1 0xA0 SHL SUB DUP8 DUP2 AND PUSH1 0x4 MSTORE DUP7 AND PUSH1 0x24 MSTORE PUSH1 0x44 DUP6 SWAP1 MSTORE SWAP2 PUSH1 0x20 DUP4 PUSH1 0x64 DUP2 DUP1 DUP13 GAS CALL SWAP3 POP PUSH1 0x1 PUSH1 0x0 MLOAD EQ DUP4 AND PUSH2 0x18E3 JUMPI DUP4 DUP4 ISZERO AND ISZERO PUSH2 0x18D6 JUMPI RETURNDATASIZE PUSH1 0x0 DUP3 RETURNDATACOPY RETURNDATASIZE DUP2 REVERT JUMPDEST PUSH1 0x0 DUP9 EXTCODESIZE GT RETURNDATASIZE ISZERO AND DUP4 AND SWAP3 POP JUMPDEST PUSH1 0x40 MSTORE POP PUSH1 0x0 PUSH1 0x60 MSTORE SWAP6 SWAP5 POP POP POP POP POP JUMP JUMPDEST PUSH1 0x40 MLOAD PUSH4 0xA9059CBB PUSH1 0xE0 SHL PUSH1 0x0 DUP2 DUP2 MSTORE PUSH1 0x1 PUSH1 0x1 PUSH1 0xA0 SHL SUB DUP7 AND PUSH1 0x4 MSTORE PUSH1 0x24 DUP6 SWAP1 MSTORE SWAP2 PUSH1 0x20 DUP4 PUSH1 0x44 DUP2 DUP1 DUP12 GAS CALL SWAP3 POP PUSH1 0x1 PUSH1 0x0 MLOAD EQ DUP4 AND PUSH2 0x194F JUMPI DUP4 DUP4 ISZERO AND ISZERO PUSH2 0x1942 JUMPI RETURNDATASIZE PUSH1 0x0 DUP3 RETURNDATACOPY RETURNDATASIZE DUP2 REVERT JUMPDEST PUSH1 0x0 DUP8 EXTCODESIZE GT RETURNDATASIZE ISZERO AND DUP4 AND SWAP3 POP JUMPDEST PUSH1 0x40 MSTORE POP SWAP5 SWAP4 POP POP POP POP JUMP JUMPDEST PUSH1 0x0 PUSH1 0x20 DUP3 DUP5 SUB SLT ISZERO PUSH2 0x196D JUMPI PUSH1 0x0 DUP1 REVERT JUMPDEST POP CALLDATALOAD SWAP2 SWAP1 POP JUMP JUMPDEST PUSH1 0x0 DUP1 PUSH1 0x40 DUP4 DUP6 SUB SLT ISZERO PUSH2 0x1987 JUMPI PUSH1 0x0 DUP1 REVERT JUMPDEST POP POP DUP1 CALLDATALOAD SWAP3 PUSH1 0x20 SWAP1 SWAP2 ADD CALLDATALOAD SWAP2 POP JUMP JUMPDEST DUP1 CALLDATALOAD PUSH1 0x1 PUSH1 0x1 PUSH1 0xA0 SHL SUB DUP2 AND DUP2 EQ PUSH2 0x6DA JUMPI PUSH1 0x0 DUP1 REVERT JUMPDEST PUSH1 0x0 PUSH1 0x20 DUP3 DUP5 SUB SLT ISZERO PUSH2 0x19BF JUMPI PUSH1 0x0 DUP1 REVERT JUMPDEST PUSH2 0x19C8 DUP3 PUSH2 0x1996 JUMP JUMPDEST SWAP4 SWAP3 POP POP POP JUMP JUMPDEST PUSH1 0x0 DUP1 PUSH1 0x40 DUP4 DUP6 SUB SLT ISZERO PUSH2 0x19E2 JUMPI PUSH1 0x0 DUP1 REVERT JUMPDEST DUP3 CALLDATALOAD SWAP2 POP PUSH2 0x19F2 PUSH1 0x20 DUP5 ADD PUSH2 0x1996 JUMP JUMPDEST SWAP1 POP SWAP3 POP SWAP3 SWAP1 POP JUMP JUMPDEST PUSH1 0x0 DUP1 PUSH1 0x0 PUSH1 0x60 DUP5 DUP7 SUB SLT ISZERO PUSH2 0x1A10 JUMPI PUSH1 0x0 DUP1 REVERT JUMPDEST PUSH2 0x1A19 DUP5 PUSH2 0x1996 JUMP JUMPDEST SWAP3 POP PUSH2 0x1A27 PUSH1 0x20 DUP6 ADD PUSH2 0x1996 JUMP JUMPDEST SWAP2 POP PUSH2 0x1A35 PUSH1 0x40 DUP6 ADD PUSH2 0x1996 JUMP JUMPDEST SWAP1 POP SWAP3 POP SWAP3 POP SWAP3 JUMP JUMPDEST PUSH4 0x4E487B71 PUSH1 0xE0 SHL PUSH1 0x0 MSTORE PUSH1 0x11 PUSH1 0x4 MSTORE PUSH1 0x24 PUSH1 0x0 REVERT JUMPDEST DUP1 DUP3 ADD DUP1 DUP3 GT ISZERO PUSH2 0xA54 JUMPI PUSH2 0xA54 PUSH2 0x1A3E JUMP JUMPDEST DUP1 DUP3 MUL DUP2 ISZERO DUP3 DUP3 DIV DUP5 EQ OR PUSH2 0xA54 JUMPI PUSH2 0xA54 PUSH2 0x1A3E JUMP JUMPDEST PUSH1 0x0 DUP3 PUSH2 0x1A9B JUMPI PUSH4 0x4E487B71 PUSH1 0xE0 SHL PUSH1 0x0 MSTORE PUSH1 0x12 PUSH1 0x4 MSTORE PUSH1 0x24 PUSH1 0x0 REVERT JUMPDEST POP DIV SWAP1 JUMP JUMPDEST PUSH1 0x0 PUSH1 0x20 DUP3 DUP5 SUB SLT ISZERO PUSH2 0x1AB2 JUMPI PUSH1 0x0 DUP1 REVERT JUMPDEST POP MLOAD SWAP2 SWAP1 POP JUMP JUMPDEST DUP2 DUP2 SUB DUP2 DUP2 GT ISZERO PUSH2 0xA54 JUMPI PUSH2 0xA54 PUSH2 0x1A3E JUMP JUMPDEST PUSH1 0x0 PUSH1 0x1 DUP3 ADD PUSH2 0x1ADE JUMPI PUSH2 0x1ADE PUSH2 0x1A3E JUMP JUMPDEST POP PUSH1 0x1 ADD SWAP1 JUMP INVALID PUSH7 0xCBCA4F3C64FECF SAR 0xCB SWAP13 0xE0 SWAP5 0xAB 0xCF PUSH32 0x68C3450A1D4E3A8E917DD621EDB4EBE09B779B17422D0DF92223018B32B4D1FA CHAINID 0xE0 PUSH18 0x723D6817E2486D003BECC55F00A264697066 PUSH20 0x582212207DC5B8D4F2593C68C666A6265387ACC6 0xFC SMOD 0xA9 PUSH12 0x97C6189A0B144BB67D1A2A46 PUSH5 0x736F6C6343 STOP ADDMOD XOR STOP CALLER "},"methodIdentifiers":{"addInitialLiquidity(uint256,uint256)":"a40f4fa1","addLiquidityFromFees(uint256)":"ee3b038f","admin()":"f851a440","completeSetup()":"8aea8f71","configure(address,address,address)":"55d28f20","forceSetInvestmentEngine(address)":"3984a3aa","getOSLOForUSDTOutput(uint256)":"a7978031","getPrice()":"98d5fdca","getReserves()":"0902f1ac","getUSDTForOSLOOutput(uint256)":"47aa7ea4","investmentEngine()":"30131384","lastPrice()":"053f14da","liquidityManager()":"33827438","osloReserve()":"a1e26e7b","osloToken()":"2acfbca3","processDeposit(uint256)":"0cc2055a","processWithdrawal(uint256,address)":"f843e641","replenishOsloReserve(uint256)":"362ce52b","setInvestmentEngine(address)":"cb4f51d1","setupComplete()":"b6635be6","swapOSLOForUSDT(uint256,uint256)":"30cf2aeb","swapUSDTForOSLO(uint256,uint256)":"c2c90687","swapYieldForOSLO(uint256,address)":"528816c6","timelock()":"d33219b4","totalSwaps()":"b4a800ce","totalVolumeUSDT()":"83bbdd5f","usdt()":"2f48ab7d","usdtReserve()":"ac257a6e"}}}}}