{"contracts/OSLOInvestmentEngine.sol":{"OSLOInvestmentEngine":{"abi":[{"inputs":[{"internalType":"address","name":"_usdt","type":"address"},{"internalType":"address","name":"_osloToken","type":"address"},{"internalType":"uint256","name":"_launchTimestamp","type":"uint256"}],"stateMutability":"nonpayable","type":"constructor"},{"inputs":[],"name":"BelowWithdrawalThreshold","type":"error"},{"inputs":[],"name":"DEXNotPriced","type":"error"},{"inputs":[],"name":"DepositCapped","type":"error"},{"inputs":[],"name":"DepositTooHigh","type":"error"},{"inputs":[],"name":"DepositTooLow","type":"error"},{"inputs":[],"name":"DepositsPausedError","type":"error"},{"inputs":[],"name":"InsufficientOsloReserve","type":"error"},{"inputs":[],"name":"InsufficientUSDTReserve","type":"error"},{"inputs":[],"name":"InvalidDeposit","type":"error"},{"inputs":[],"name":"NotConfigured","type":"error"},{"inputs":[],"name":"NotInEarlyExitPeriod","type":"error"},{"inputs":[],"name":"NothingToClaim","type":"error"},{"inputs":[],"name":"OnlyAdmin","type":"error"},{"inputs":[],"name":"OnlyRankSystem","type":"error"},{"inputs":[],"name":"OnlyReferral","type":"error"},{"inputs":[],"name":"OnlyTimelock","type":"error"},{"inputs":[],"name":"ReentrancyGuardReentrantCall","type":"error"},{"inputs":[{"internalType":"address","name":"token","type":"address"}],"name":"SafeERC20FailedOperation","type":"error"},{"inputs":[],"name":"SetupAlreadyComplete","type":"error"},{"inputs":[],"name":"ZeroAddress","type":"error"},{"anonymous":false,"inputs":[{"indexed":true,"internalType":"address","name":"user","type":"address"}],"name":"CombinedCapReached","type":"event"},{"anonymous":false,"inputs":[{"indexed":true,"internalType":"address","name":"user","type":"address"},{"indexed":false,"internalType":"uint256","name":"totalCombined","type":"uint256"}],"name":"CombinedEarningsUpdated","type":"event"},{"anonymous":false,"inputs":[{"indexed":true,"internalType":"address","name":"user","type":"address"},{"indexed":false,"internalType":"uint256","name":"amount","type":"uint256"},{"indexed":false,"internalType":"uint256","name":"tier","type":"uint256"},{"indexed":false,"internalType":"uint256","name":"dailyRate","type":"uint256"},{"indexed":false,"internalType":"uint256","name":"depositIndex","type":"uint256"}],"name":"Deposited","type":"event"},{"anonymous":false,"inputs":[{"indexed":false,"internalType":"bool","name":"paused","type":"bool"}],"name":"DepositsPaused","type":"event"},{"anonymous":false,"inputs":[{"indexed":true,"internalType":"address","name":"user","type":"address"},{"indexed":false,"internalType":"uint256","name":"amountReturned","type":"uint256"},{"indexed":false,"internalType":"uint256","name":"feeDeducted","type":"uint256"},{"indexed":false,"internalType":"uint256","name":"yieldDeducted","type":"uint256"},{"indexed":false,"internalType":"uint256","name":"depositIndex","type":"uint256"}],"name":"EarlyExited","type":"event"},{"anonymous":false,"inputs":[{"indexed":true,"internalType":"address","name":"user","type":"address"},{"indexed":false,"internalType":"uint256","name":"netPrincipal","type":"uint256"},{"indexed":false,"internalType":"uint256","name":"depositIndex","type":"uint256"}],"name":"PrincipalWithdrawn","type":"event"},{"anonymous":false,"inputs":[{"indexed":true,"internalType":"address","name":"oldReferral","type":"address"},{"indexed":true,"internalType":"address","name":"newReferral","type":"address"}],"name":"ReferralUpdated","type":"event"},{"anonymous":false,"inputs":[{"indexed":true,"internalType":"address","name":"user","type":"address"},{"indexed":false,"internalType":"uint256","name":"usdtReward","type":"uint256"},{"indexed":false,"internalType":"uint256","name":"osloAmount","type":"uint256"},{"indexed":false,"internalType":"uint256","name":"depositIndex","type":"uint256"}],"name":"RewardsClaimed","type":"event"},{"inputs":[],"name":"admin","outputs":[{"internalType":"address","name":"","type":"address"}],"stateMutability":"view","type":"function"},{"inputs":[{"internalType":"uint256","name":"depositIndex","type":"uint256"}],"name":"claimRewards","outputs":[],"stateMutability":"nonpayable","type":"function"},{"inputs":[],"name":"completeSetup","outputs":[],"stateMutability":"nonpayable","type":"function"},{"inputs":[{"internalType":"address","name":"_treasury","type":"address"},{"internalType":"address","name":"_referral","type":"address"},{"internalType":"address","name":"_rankSystem","type":"address"},{"internalType":"address","name":"_osloDex","type":"address"},{"internalType":"address","name":"_timelock","type":"address"}],"name":"configure","outputs":[],"stateMutability":"nonpayable","type":"function"},{"inputs":[{"internalType":"uint256","name":"amount","type":"uint256"}],"name":"deposit","outputs":[],"stateMutability":"nonpayable","type":"function"},{"inputs":[],"name":"depositsPaused","outputs":[{"internalType":"bool","name":"","type":"bool"}],"stateMutability":"view","type":"function"},{"inputs":[{"internalType":"uint256","name":"depositIndex","type":"uint256"}],"name":"earlyExit","outputs":[],"stateMutability":"nonpayable","type":"function"},{"inputs":[{"internalType":"address","name":"user","type":"address"}],"name":"getActiveDeposit","outputs":[{"internalType":"uint256","name":"","type":"uint256"}],"stateMutability":"view","type":"function"},{"inputs":[{"internalType":"address","name":"user","type":"address"}],"name":"getCombinedEarnings","outputs":[{"internalType":"uint256","name":"","type":"uint256"}],"stateMutability":"view","type":"function"},{"inputs":[{"internalType":"address","name":"user","type":"address"}],"name":"getDepositCount","outputs":[{"internalType":"uint256","name":"","type":"uint256"}],"stateMutability":"view","type":"function"},{"inputs":[{"internalType":"address","name":"user","type":"address"},{"internalType":"uint256","name":"depositIndex","type":"uint256"}],"name":"getEarlyExitAmount","outputs":[{"internalType":"uint256","name":"principal","type":"uint256"},{"internalType":"uint256","name":"accruedYield","type":"uint256"},{"internalType":"uint256","name":"exitFee","type":"uint256"},{"internalType":"uint256","name":"netReturn","type":"uint256"}],"stateMutability":"view","type":"function"},{"inputs":[{"internalType":"address","name":"user","type":"address"},{"internalType":"uint256","name":"depositIndex","type":"uint256"}],"name":"getPendingRewards","outputs":[{"internalType":"uint256","name":"pendingUSDT","type":"uint256"}],"stateMutability":"view","type":"function"},{"inputs":[{"internalType":"address","name":"user","type":"address"}],"name":"getUserTier","outputs":[{"internalType":"uint256","name":"","type":"uint256"}],"stateMutability":"view","type":"function"},{"inputs":[{"internalType":"address","name":"user","type":"address"},{"internalType":"uint256","name":"depositIndex","type":"uint256"}],"name":"isInEarlyExitPeriod","outputs":[{"internalType":"bool","name":"","type":"bool"}],"stateMutability":"view","type":"function"},{"inputs":[],"name":"launchTimestamp","outputs":[{"internalType":"uint256","name":"","type":"uint256"}],"stateMutability":"view","type":"function"},{"inputs":[],"name":"minClaimThreshold","outputs":[{"internalType":"uint256","name":"","type":"uint256"}],"stateMutability":"view","type":"function"},{"inputs":[{"internalType":"address","name":"user","type":"address"},{"internalType":"uint256","name":"amount","type":"uint256"}],"name":"notifyLevelIncome","outputs":[],"stateMutability":"nonpayable","type":"function"},{"inputs":[{"internalType":"address","name":"user","type":"address"},{"internalType":"uint256","name":"amount","type":"uint256"}],"name":"notifyRankBonus","outputs":[],"stateMutability":"nonpayable","type":"function"},{"inputs":[],"name":"osloDex","outputs":[{"internalType":"address","name":"","type":"address"}],"stateMutability":"view","type":"function"},{"inputs":[],"name":"osloToken","outputs":[{"internalType":"contract IERC20","name":"","type":"address"}],"stateMutability":"view","type":"function"},{"inputs":[],"name":"rankSystem","outputs":[{"internalType":"address","name":"","type":"address"}],"stateMutability":"view","type":"function"},{"inputs":[],"name":"referral","outputs":[{"internalType":"address","name":"","type":"address"}],"stateMutability":"view","type":"function"},{"inputs":[{"internalType":"bool","name":"_paused","type":"bool"}],"name":"setDepositsPaused","outputs":[],"stateMutability":"nonpayable","type":"function"},{"inputs":[{"internalType":"uint256","name":"_threshold","type":"uint256"}],"name":"setMinClaimThreshold","outputs":[],"stateMutability":"nonpayable","type":"function"},{"inputs":[{"internalType":"address","name":"_referral","type":"address"}],"name":"setReferral","outputs":[],"stateMutability":"nonpayable","type":"function"},{"inputs":[],"name":"setupComplete","outputs":[{"internalType":"bool","name":"","type":"bool"}],"stateMutability":"view","type":"function"},{"inputs":[],"name":"timelock","outputs":[{"internalType":"address","name":"","type":"address"}],"stateMutability":"view","type":"function"},{"inputs":[],"name":"totalDeposited","outputs":[{"internalType":"uint256","name":"","type":"uint256"}],"stateMutability":"view","type":"function"},{"inputs":[],"name":"totalRewardsPaid","outputs":[{"internalType":"uint256","name":"","type":"uint256"}],"stateMutability":"view","type":"function"},{"inputs":[],"name":"totalWithdrawn","outputs":[{"internalType":"uint256","name":"","type":"uint256"}],"stateMutability":"view","type":"function"},{"inputs":[],"name":"treasury","outputs":[{"internalType":"address","name":"","type":"address"}],"stateMutability":"view","type":"function"},{"inputs":[],"name":"usdt","outputs":[{"internalType":"contract IERC20","name":"","type":"address"}],"stateMutability":"view","type":"function"},{"inputs":[{"internalType":"address","name":"","type":"address"},{"internalType":"uint256","name":"","type":"uint256"}],"name":"userDeposits","outputs":[{"internalType":"uint256","name":"amount","type":"uint256"},{"internalType":"uint256","name":"tier","type":"uint256"},{"internalType":"uint256","name":"dailyRate","type":"uint256"},{"internalType":"uint256","name":"depositTime","type":"uint256"},{"internalType":"uint256","name":"lastClaimTime","type":"uint256"},{"internalType":"uint256","name":"totalClaimed","type":"uint256"},{"internalType":"uint256","name":"maxReturn","type":"uint256"},{"internalType":"bool","name":"active","type":"bool"}],"stateMutability":"view","type":"function"},{"inputs":[{"internalType":"address","name":"","type":"address"}],"name":"users","outputs":[{"internalType":"uint256","name":"totalActiveDeposit","type":"uint256"},{"internalType":"uint256","name":"depositCount","type":"uint256"},{"internalType":"uint256","name":"totalCombinedEarnings","type":"uint256"}],"stateMutability":"view","type":"function"}],"evm":{"bytecode":{"linkReferences":{},"object":"60e0604052670de0b6b3a76400006006553480156200001d57600080fd5b506040516200266c3803806200266c8339810160408190526200004091620000ec565b60017f9b779b17422d0df92223018b32b4d1fa46e071723d6817e2486d003becc55f00556001600160a01b03831615806200008257506001600160a01b038216155b15620000a15760405163d92e233d60e01b815260040160405180910390fd5b6001600160a01b03928316608052911660a05260c052600480546001600160a01b031916331790556200012d565b80516001600160a01b0381168114620000e757600080fd5b919050565b6000806000606084860312156200010257600080fd5b6200010d84620000cf565b92506200011d60208501620000cf565b9150604084015190509250925092565b60805160a05160c0516124ad620001bf600039600081816103ee01528181611c790152611e48015260008181610318015281816107d20152818161090c01528181610f82015281816110f60152818161117b01528181611809015261189501526000818161033f01528181610f370152818161121a0152818161167b01528181611704015261174301526124ad6000f3fe608060405234801561001057600080fd5b50600436106102065760003560e01c8063760fcb3e1161011a578063b6b55f25116100ad578063e4d2620e1161007c578063e4d2620e1461055d578063e4e7c6b414610570578063e9a16bd514610583578063f851a44014610596578063ff50abdc146105a957600080fd5b8063b6b55f25146104f1578063b8af3d3e14610504578063ceace7dd14610517578063d33219b41461054a57600080fd5b80639e5914da116100e95780639e5914da1461046d578063a87430ba14610480578063ac948e83146104ca578063b6635be6146104dd57600080fd5b8063760fcb3e1461042c578063786685e01461043f5780638565c2bf146104525780638aea8f711461046557600080fd5b80633695dad11161019d57806360da3e831161016c57806360da3e83146103b257806361d027b3146103d657806365cf7c9b146103e95780636b9f7ab61461041057806374958e351461042357600080fd5b80633695dad1146103615780633a6f2dcd1461036a5780634b3197131461039657806351637ba91461039f57600080fd5b80631441a5a9116101d95780631441a5a9146102d55780631c481e2d146103005780632acfbca3146103135780632f48ab7d1461033a57600080fd5b806308f433331461020b5780630962ef791461026057806313fcaf5414610275578063142a3da3146102ac575b600080fd5b61021e610219366004612264565b6105b2565b604080519889526020890197909752958701949094526060860192909252608085015260a084015260c0830152151560e0820152610100015b60405180910390f35b61027361026e366004612290565b610617565b005b61029e6102833660046122a9565b6001600160a01b031660009081526007602052604090205490565b604051908152602001610257565b61029e6102ba3660046122a9565b6001600160a01b031660009081526008602052604090205490565b6002546102e8906001600160a01b031681565b6040516001600160a01b039091168152602001610257565b61027361030e3660046122c6565b610a4d565b6102e87f000000000000000000000000000000000000000000000000000000000000000081565b6102e87f000000000000000000000000000000000000000000000000000000000000000081565b61029e60065481565b61029e6103783660046122a9565b6001600160a01b031660009081526008602052604090206002015490565b61029e600a5481565b6102736103ad366004612290565b610ad0565b6005546103c690600160a81b900460ff1681565b6040519015158152602001610257565b6001546102e8906001600160a01b031681565b61029e7f000000000000000000000000000000000000000000000000000000000000000081565b61027361041e366004612264565b610b00565b61029e600b5481565b61027361043a3660046122e8565b610baf565b6103c661044d366004612264565b610c8b565b6000546102e8906001600160a01b031681565b610273610d25565b61027361047b3660046122a9565b610dc9565b6104af61048e3660046122a9565b60086020526000908152604090208054600182015460029092015490919083565b60408051938452602084019290925290820152606001610257565b6102736104d8366004612264565b610e50565b6005546103c690600160a01b900460ff1681565b6102736104ff366004612290565b610e7b565b610273610512366004612290565b611502565b61052a610525366004612264565b611980565b604080519485526020850193909352918301526060820152608001610257565b6005546102e8906001600160a01b031681565b61029e61056b3660046122a9565b611a90565b61029e61057e366004612264565b611ad9565b6003546102e8906001600160a01b031681565b6004546102e8906001600160a01b031681565b61029e60095481565b600760205281600052604060002081815481106105ce57600080fd5b6000918252602090912060089091020180546001820154600283015460038401546004850154600586015460068701546007909701549598509396509194909391929160ff1688565b61061f611b65565b600061062b3383611b81565b905060006106393383611c22565b90508060000361065c576040516312d37ee560e31b815260040160405180910390fd5b60065481101561067f57604051637e3f2b7d60e01b815260040160405180910390fd5b81546000906106909060039061236f565b33600090815260086020526040812060028101549293509183116106b55760006106c4565b60028201546106c49084612386565b90508060000361071e5760078501805460ff1916905560405133907ffa1eb7ba4f65747c7c8882031eb92d63b6fcb684b75052185312fbe1a488d94390600090a26040516305a2e88560e21b815260040160405180910390fd5b8084111561072a578093505b600080546040516311ea9fa960e21b8152600481018790526001600160a01b03909116906347aa7ea490602401602060405180830381865afa158015610774573d6000803e3d6000fd5b505050506040513d601f19601f820116820180604052508101906107989190612399565b9050806000036107bb5760405163cc88465760e01b815260040160405180910390fd5b6040516370a0823160e01b815230600482015281907f00000000000000000000000000000000000000000000000000000000000000006001600160a01b0316906370a0823190602401602060405180830381865afa158015610821573d6000803e3d6000fd5b505050506040513d601f19601f820116820180604052508101906108459190612399565b10156108645760405163075e464560e01b815260040160405180910390fd5b8486600501600082825461087891906123b2565b909155505042600487015560028301805486919060009061089a9084906123b2565b9250508190555084600b60008282546108b391906123b2565b909155505060068601546005870154106108ff5760078601805460ff1916905560405133907ffa1eb7ba4f65747c7c8882031eb92d63b6fcb684b75052185312fbe1a488d94390600090a25b6109336001600160a01b037f0000000000000000000000000000000000000000000000000000000000000000163383611d1e565b6002546001600160a01b0316156109af5784156109af57600254604051638000d99160e01b8152336004820152602481018790526001600160a01b0390911690638000d99190604401600060405180830381600087803b15801561099657600080fd5b505af11580156109aa573d6000803e3d6000fd5b505050505b604080518681526020810183905290810188905233907f56253d287efacdb2c4cd76dd03624a4821c1ce721d1152e8f5f5718f6087c9bf9060600160405180910390a2600283015460405190815233907fdad0e43afdd45daca2566e861ff76f0250960d86947518722c83b1e03f45edd5906020015b60405180910390a2505050505050610a4a600160008051602061245883398151915255565b50565b6005546001600160a01b03163314610a7857604051630e05f48560e11b815260040160405180910390fd5b60058054821515600160a81b0260ff60a81b199091161790556040517f5ef34f53269a04b5b817e5be24a51ba6b477118b399ec9dd5b2baf5b299563dc90610ac590831515815260200190565b60405180910390a150565b6005546001600160a01b03163314610afb57604051630e05f48560e11b815260040160405180910390fd5b600655565b6002546001600160a01b03163314610b2b57604051633864b1e560e21b815260040160405180910390fd5b6001600160a01b03821660009081526008602052604081206002018054839290610b569084906123b2565b90915550506001600160a01b0382166000818152600860209081526040918290206002015491519182527fdad0e43afdd45daca2566e861ff76f0250960d86947518722c83b1e03f45edd5910160405180910390a25050565b6004546001600160a01b03163314610bda57604051634755657960e01b815260040160405180910390fd5b600554600160a01b900460ff1615610c055760405163238f75d360e01b815260040160405180910390fd5b6001600160a01b038216610c2c5760405163d92e233d60e01b815260040160405180910390fd5b600180546001600160a01b03199081166001600160a01b03978816179091556002805482169587169590951790945560038054851693861693909317909255600080548416918516919091179055600580549092169216919091179055565b6001600160a01b0382166000908152600760205260408120548210610cb257506000610d1f565b6001600160a01b0383166000908152600760205260408120805484908110610cdc57610cdc6123c5565b60009182526020909120600890910201600781015490915060ff16610d05576000915050610d1f565b620d2f008160030154610d1891906123b2565b4211159150505b92915050565b6004546001600160a01b03163314610d5057604051634755657960e01b815260040160405180910390fd5b600554600160a01b900460ff1615610d7b5760405163238f75d360e01b815260040160405180910390fd5b6001546001600160a01b0316610da45760405163d311bc3960e01b815260040160405180910390fd5b6005805460ff60a01b1916600160a01b179055600480546001600160a01b0319169055565b6005546001600160a01b03163314610df457604051630e05f48560e11b815260040160405180910390fd5b6002546040516001600160a01b038084169216907feefe1ce2782e4ba3bbccd79617fae74979fa22005f22f7075c0910cd51c8ffd990600090a3600280546001600160a01b0319166001600160a01b0392909216919091179055565b6003546001600160a01b03163314610b2b57604051633327311360e11b815260040160405180910390fd5b610e83611b65565b600554600160a81b900460ff1615610ead57604051627cfe7f60e31b815260040160405180910390fd5b678ac7230489e80000811015610ed657604051632b7786bd60e21b815260040160405180910390fd5b69010f0cf064dd59200000811115610f015760405163c066e1e960e01b815260040160405180910390fd5b6000546001600160a01b0316610f2a5760405163d311bc3960e01b815260040160405180910390fd5b610f5f6001600160a01b037f000000000000000000000000000000000000000000000000000000000000000016333084611d5d565b600080546040516370a0823160e01b81526001600160a01b0391821660048201527f0000000000000000000000000000000000000000000000000000000000000000909116906370a0823190602401602060405180830381865afa158015610fcb573d6000803e3d6000fd5b505050506040513d601f19601f82011682018060405250810190610fef9190612399565b6000805460408051630240bc6b60e21b815281519495509293849384936001600160a01b031692630902f1ac926004808401938290030181865afa15801561103b573d6000803e3d6000fd5b505050506040513d601f19601f8201168201806040525081019061105f91906123db565b915091506000821180156110735750600081115b1561109d5761108285836123b2565b61108c828761236f565b61109691906123ff565b92506110a1565b8492505b683635c9adc5dea000006110b581856123b2565b851015611206576000856110c983876123b2565b6110d39190612386565b6040516370a0823160e01b81523060048201529091506000906001600160a01b037f000000000000000000000000000000000000000000000000000000000000000016906370a0823190602401602060405180830381865afa15801561113d573d6000803e3d6000fd5b505050506040513d601f19601f820116820180604052508101906111619190612399565b9050818110611203576000546111a4906001600160a01b037f00000000000000000000000000000000000000000000000000000000000000008116911684611d99565b60005460405163362ce52b60e01b8152600481018490526001600160a01b039091169063362ce52b90602401600060405180830381600087803b1580156111ea57600080fd5b505af11580156111fe573d6000803e3d6000fd5b505050505b50505b505060005461124693506001600160a01b037f00000000000000000000000000000000000000000000000000000000000000008116935016905083611d99565b6000805460405163066102ad60e11b8152600481018490526001600160a01b0390911690630cc2055a906024016020604051808303816000875af1158015611292573d6000803e3d6000fd5b505050506040513d601f19601f820116820180604052508101906112b69190612399565b905060006112c383611ded565b905060006112d084611e40565b905060006112df60038661236f565b3360008181526007602081815260408084208151610100810183528c81528084018b81528184018b815242606084018181526080850191825260a085018a815260c086018d8152600160e0880181815289548083018b55998e528b8e20985160089a8b02909901988955965190880155935160028701559051600386015590516004850155516005840155516006830155519401805460ff191694151594909417909355938352529081208054929350879290919061139f9084906123b2565b90915550503360009081526008602052604081206001018054916113c283612421565b919050555084600960008282546113d991906123b2565b90915550506002546001600160a01b03161561144d5760025460405163095ce44b60e21b81523360048201526001600160a01b0390911690632573912c90602401600060405180830381600087803b15801561143457600080fd5b505af1158015611448573d6000803e3d6000fd5b505050505b6003546001600160a01b03161580159061147157506002546001600160a01b031615155b15611480576114803386611f5d565b336000818152600760205260409020547fe3b53cd1a44fbf11535e145d80b8ef1ed6d57a73bf5daa7e939b6b01657d6549908790869086906114c490600190612386565b60408051948552602085019390935291830152606082015260800160405180910390a250505050610a4a600160008051602061245883398151915255565b61150a611b65565b60006115163383611b81565b9050620d2f00816003015461152b91906123b2565b42111561154b5760405163693ed15b60e11b815260040160405180910390fd5b805460006115593384611c22565b9050600061271061156c6103e88561236f565b61157691906123ff565b9050600061158482846123b2565b905060008185116115965760006115a0565b6115a08286612386565b60078701805460ff19169055336000908152600860205260408120805492935087929091906115d0908490612386565b9250508190555084600a60008282546115e991906123b2565b90915550506002546001600160a01b03161561165d5760025460405163095ce44b60e21b81523360048201526001600160a01b0390911690632573912c90602401600060405180830381600087803b15801561164457600080fd5b505af1158015611658573d6000803e3d6000fd5b505050505b8015611939576040516370a0823160e01b81523060048201526000907f00000000000000000000000000000000000000000000000000000000000000006001600160a01b0316906370a0823190602401602060405180830381865afa1580156116ca573d6000803e3d6000fd5b505050506040513d601f19601f820116820180604052508101906116ee9190612399565b90508181106117305761172b6001600160a01b037f0000000000000000000000000000000000000000000000000000000000000000163384611d1e565b611937565b80156117775761176a6001600160a01b037f0000000000000000000000000000000000000000000000000000000000000000163383611d1e565b6117748183612386565b91505b600080546040516311ea9fa960e21b8152600481018590526001600160a01b03909116906347aa7ea490602401602060405180830381865afa1580156117c1573d6000803e3d6000fd5b505050506040513d601f19601f820116820180604052508101906117e59190612399565b905060008111801561187f57506040516370a0823160e01b815230600482015281907f00000000000000000000000000000000000000000000000000000000000000006001600160a01b0316906370a0823190602401602060405180830381865afa158015611858573d6000803e3d6000fd5b505050506040513d601f19601f8201168201806040525081019061187c9190612399565b10155b15611935576000546118be906001600160a01b037f00000000000000000000000000000000000000000000000000000000000000008116911683611d99565b60005460405163f843e64160e01b8152600481018390523360248201526001600160a01b039091169063f843e641906044016020604051808303816000875af115801561190f573d6000803e3d6000fd5b505050506040513d601f19601f820116820180604052508101906119339190612399565b505b505b505b60408051828152602081018590529081018590526060810188905233907f4ade67ef7e7c5e4d9c50de61a4e8c555be92c9b37e3ca6716eb02a1f0e471da590608001610a25565b6001600160a01b03821660009081526007602052604081205481908190819085106119b657506000925082915081905080611a87565b6001600160a01b03861660009081526007602052604081208054879081106119e0576119e06123c5565b60009182526020909120600890910201600781015490915060ff161580611a185750620d2f008160030154611a1591906123b2565b42115b15611a3157600080600080945094509450945050611a87565b80549450611a3f8782611c22565b9350612710611a506103e88761236f565b611a5a91906123ff565b92506000611a6884866123b2565b9050808611611a78576000611a82565b611a828187612386565b925050505b92959194509250565b6001600160a01b0381166000908152600860205260408120548103611ab757506000919050565b6001600160a01b038216600090815260086020526040902054610d1f90611ded565b6001600160a01b0382166000908152600760205260408120548210611b0057506000610d1f565b6001600160a01b0383166000908152600760205260408120805484908110611b2a57611b2a6123c5565b60009182526020909120600890910201600781015490915060ff16611b53576000915050610d1f565b611b5d8482611c22565b949350505050565b611b6d612096565b600260008051602061245883398151915255565b6001600160a01b0382166000908152600760205260408120548210611bb957604051635972996f60e11b815260040160405180910390fd5b6001600160a01b0383166000908152600760205260408120805484908110611be357611be36123c5565b60009182526020909120600890910201600781015490915060ff16611c1b576040516305a2e88560e21b815260040160405180910390fd5b9392505050565b600781015460009060ff16611c3957506000610d1f565b6000826004015442611c4b9190612386565b905080600003611c5f576000915050610d1f565b6000611c6e8460000154611e40565b90506276a700611c9e7f000000000000000000000000000000000000000000000000000000000000000042612386565b10611ca75750602d5b611cb66127106201518061236f565b84548390611cc590849061236f565b611ccf919061236f565b611cd991906123ff565b925060008460050154856006015411611cf3576000611d07565b84600501548560060154611d079190612386565b905080841115611d15578093505b50505092915050565b611d2b83838360016120c8565b611d5857604051635274afe760e01b81526001600160a01b03841660048201526024015b60405180910390fd5b505050565b611d6b84848484600161212e565b611d9357604051635274afe760e01b81526001600160a01b0385166004820152602401611d4f565b50505050565b611da683838360006121a0565b611d5857611db88383600060016121a0565b611de057604051635274afe760e01b81526001600160a01b0384166004820152602401611d4f565b611d2b83838360016121a0565b600069010f0cf064dd592000008210611e0857506004919050565b68878678326eac9000008210611e2057506003919050565b681b1ae4d6e2ef5000008210611e3857506002919050565b506001919050565b600080611e6d7f000000000000000000000000000000000000000000000000000000000000000042612386565b90506276a7008110611e825750602d92915050565b6000611e8d84611ded565b905080600103611eb757611b5d84678ac7230489e80000681b0d04202f47ec0000603260646121ed565b80600203611ee057611b5d84681b1ae4d6e2ef500000688778977bbb052c0000604b60736121ed565b80600303611f0a57611b5d8468878678326eac90000069010eff0fae29b1bc0000606460966121ed565b6000690a968163f0a57b4000008511611f235784611f2f565b690a968163f0a57b4000005b9050611f548169010f0cf064dd59200000690a968163f0a57b400000606460af6121ed565b95945050505050565b6002546001600160a01b03161580611f7e57506003546001600160a01b0316155b15611f87575050565b8160005b6014811015611d9357600254604051634a9fefc760e01b81526001600160a01b0384811660048301526000921690634a9fefc790602401602060405180830381865afa158015611fdf573d6000803e3d6000fd5b505050506040513d601f19601f82011682018060405250810190612003919061243a565b90506001600160a01b0381166120195750611d93565b60035460405163d9bd5f2d60e01b81526001600160a01b0383811660048301528581166024830152604482018790529091169063d9bd5f2d90606401600060405180830381600087803b15801561206f57600080fd5b505af1158015612083573d6000803e3d6000fd5b509294505060019092019150611f8b9050565b600080516020612458833981519152546002036120c657604051633ee5aeb560e01b815260040160405180910390fd5b565b60405163a9059cbb60e01b60008181526001600160a01b038616600452602485905291602083604481808b5af192506001600051148316612122578383151615612115573d6000823e3d81fd5b6000873b113d1516831692505b60405250949350505050565b6040516323b872dd60e01b60008181526001600160a01b038781166004528616602452604485905291602083606481808c5af19250600160005114831661218e578383151615612181573d6000823e3d81fd5b6000883b113d1516831692505b60405250600060605295945050505050565b60405163095ea7b360e01b60008181526001600160a01b038616600452602485905291602083604481808b5af192506001600051148316612122578383151615612115573d6000823e3d81fd5b60008484116121fd575081611f54565b60006122098484612386565b905060006122178787612386565b90508082612225898b612386565b61222f919061236f565b61223991906123ff565b61224390866123b2565b98975050505050505050565b6001600160a01b0381168114610a4a57600080fd5b6000806040838503121561227757600080fd5b82356122828161224f565b946020939093013593505050565b6000602082840312156122a257600080fd5b5035919050565b6000602082840312156122bb57600080fd5b8135611c1b8161224f565b6000602082840312156122d857600080fd5b81358015158114611c1b57600080fd5b600080600080600060a0868803121561230057600080fd5b853561230b8161224f565b9450602086013561231b8161224f565b9350604086013561232b8161224f565b9250606086013561233b8161224f565b9150608086013561234b8161224f565b809150509295509295909350565b634e487b7160e01b600052601160045260246000fd5b8082028115828204841417610d1f57610d1f612359565b81810381811115610d1f57610d1f612359565b6000602082840312156123ab57600080fd5b5051919050565b80820180821115610d1f57610d1f612359565b634e487b7160e01b600052603260045260246000fd5b600080604083850312156123ee57600080fd5b505080516020909101519092909150565b60008261241c57634e487b7160e01b600052601260045260246000fd5b500490565b60006001820161243357612433612359565b5060010190565b60006020828403121561244c57600080fd5b8151611c1b8161224f56fe9b779b17422d0df92223018b32b4d1fa46e071723d6817e2486d003becc55f00a26469706673582212200ea39c3ff01c93f9c259369486ae553cb6a5aad492f448fcac9d976a8071610c64736f6c63430008180033","opcodes":"PUSH1 0xE0 PUSH1 0x40 MSTORE PUSH8 0xDE0B6B3A7640000 PUSH1 0x6 SSTORE CALLVALUE DUP1 ISZERO PUSH3 0x1D JUMPI PUSH1 0x0 DUP1 REVERT JUMPDEST POP PUSH1 0x40 MLOAD PUSH3 0x266C CODESIZE SUB DUP1 PUSH3 0x266C DUP4 CODECOPY DUP2 ADD PUSH1 0x40 DUP2 SWAP1 MSTORE PUSH3 0x40 SWAP2 PUSH3 0xEC JUMP JUMPDEST PUSH1 0x1 PUSH32 0x9B779B17422D0DF92223018B32B4D1FA46E071723D6817E2486D003BECC55F00 SSTORE PUSH1 0x1 PUSH1 0x1 PUSH1 0xA0 SHL SUB DUP4 AND ISZERO DUP1 PUSH3 0x82 JUMPI POP PUSH1 0x1 PUSH1 0x1 PUSH1 0xA0 SHL SUB DUP3 AND ISZERO JUMPDEST ISZERO PUSH3 0xA1 JUMPI PUSH1 0x40 MLOAD PUSH4 0xD92E233D PUSH1 0xE0 SHL DUP2 MSTORE PUSH1 0x4 ADD PUSH1 0x40 MLOAD DUP1 SWAP2 SUB SWAP1 REVERT JUMPDEST PUSH1 0x1 PUSH1 0x1 PUSH1 0xA0 SHL SUB SWAP3 DUP4 AND PUSH1 0x80 MSTORE SWAP2 AND PUSH1 0xA0 MSTORE PUSH1 0xC0 MSTORE PUSH1 0x4 DUP1 SLOAD PUSH1 0x1 PUSH1 0x1 PUSH1 0xA0 SHL SUB NOT AND CALLER OR SWAP1 SSTORE PUSH3 0x12D JUMP JUMPDEST DUP1 MLOAD PUSH1 0x1 PUSH1 0x1 PUSH1 0xA0 SHL SUB DUP2 AND DUP2 EQ PUSH3 0xE7 JUMPI PUSH1 0x0 DUP1 REVERT JUMPDEST SWAP2 SWAP1 POP JUMP JUMPDEST PUSH1 0x0 DUP1 PUSH1 0x0 PUSH1 0x60 DUP5 DUP7 SUB SLT ISZERO PUSH3 0x102 JUMPI PUSH1 0x0 DUP1 REVERT JUMPDEST PUSH3 0x10D DUP5 PUSH3 0xCF JUMP JUMPDEST SWAP3 POP PUSH3 0x11D PUSH1 0x20 DUP6 ADD PUSH3 0xCF JUMP JUMPDEST SWAP2 POP PUSH1 0x40 DUP5 ADD MLOAD SWAP1 POP SWAP3 POP SWAP3 POP SWAP3 JUMP JUMPDEST PUSH1 0x80 MLOAD PUSH1 0xA0 MLOAD PUSH1 0xC0 MLOAD PUSH2 0x24AD PUSH3 0x1BF PUSH1 0x0 CODECOPY PUSH1 0x0 DUP2 DUP2 PUSH2 0x3EE ADD MSTORE DUP2 DUP2 PUSH2 0x1C79 ADD MSTORE PUSH2 0x1E48 ADD MSTORE PUSH1 0x0 DUP2 DUP2 PUSH2 0x318 ADD MSTORE DUP2 DUP2 PUSH2 0x7D2 ADD MSTORE DUP2 DUP2 PUSH2 0x90C ADD MSTORE DUP2 DUP2 PUSH2 0xF82 ADD MSTORE DUP2 DUP2 PUSH2 0x10F6 ADD MSTORE DUP2 DUP2 PUSH2 0x117B ADD MSTORE DUP2 DUP2 PUSH2 0x1809 ADD MSTORE PUSH2 0x1895 ADD MSTORE PUSH1 0x0 DUP2 DUP2 PUSH2 0x33F ADD MSTORE DUP2 DUP2 PUSH2 0xF37 ADD MSTORE DUP2 DUP2 PUSH2 0x121A ADD MSTORE DUP2 DUP2 PUSH2 0x167B ADD MSTORE DUP2 DUP2 PUSH2 0x1704 ADD MSTORE PUSH2 0x1743 ADD MSTORE PUSH2 0x24AD PUSH1 0x0 RETURN INVALID PUSH1 0x80 PUSH1 0x40 MSTORE CALLVALUE DUP1 ISZERO PUSH2 0x10 JUMPI PUSH1 0x0 DUP1 REVERT JUMPDEST POP PUSH1 0x4 CALLDATASIZE LT PUSH2 0x206 JUMPI PUSH1 0x0 CALLDATALOAD PUSH1 0xE0 SHR DUP1 PUSH4 0x760FCB3E GT PUSH2 0x11A JUMPI DUP1 PUSH4 0xB6B55F25 GT PUSH2 0xAD JUMPI DUP1 PUSH4 0xE4D2620E GT PUSH2 0x7C JUMPI DUP1 PUSH4 0xE4D2620E EQ PUSH2 0x55D JUMPI DUP1 PUSH4 0xE4E7C6B4 EQ PUSH2 0x570 JUMPI DUP1 PUSH4 0xE9A16BD5 EQ PUSH2 0x583 JUMPI DUP1 PUSH4 0xF851A440 EQ PUSH2 0x596 JUMPI DUP1 PUSH4 0xFF50ABDC EQ PUSH2 0x5A9 JUMPI PUSH1 0x0 DUP1 REVERT JUMPDEST DUP1 PUSH4 0xB6B55F25 EQ PUSH2 0x4F1 JUMPI DUP1 PUSH4 0xB8AF3D3E EQ PUSH2 0x504 JUMPI DUP1 PUSH4 0xCEACE7DD EQ PUSH2 0x517 JUMPI DUP1 PUSH4 0xD33219B4 EQ PUSH2 0x54A JUMPI PUSH1 0x0 DUP1 REVERT JUMPDEST DUP1 PUSH4 0x9E5914DA GT PUSH2 0xE9 JUMPI DUP1 PUSH4 0x9E5914DA EQ PUSH2 0x46D JUMPI DUP1 PUSH4 0xA87430BA EQ PUSH2 0x480 JUMPI DUP1 PUSH4 0xAC948E83 EQ PUSH2 0x4CA JUMPI DUP1 PUSH4 0xB6635BE6 EQ PUSH2 0x4DD JUMPI PUSH1 0x0 DUP1 REVERT JUMPDEST DUP1 PUSH4 0x760FCB3E EQ PUSH2 0x42C JUMPI DUP1 PUSH4 0x786685E0 EQ PUSH2 0x43F JUMPI DUP1 PUSH4 0x8565C2BF EQ PUSH2 0x452 JUMPI DUP1 PUSH4 0x8AEA8F71 EQ PUSH2 0x465 JUMPI PUSH1 0x0 DUP1 REVERT JUMPDEST DUP1 PUSH4 0x3695DAD1 GT PUSH2 0x19D JUMPI DUP1 PUSH4 0x60DA3E83 GT PUSH2 0x16C JUMPI DUP1 PUSH4 0x60DA3E83 EQ PUSH2 0x3B2 JUMPI DUP1 PUSH4 0x61D027B3 EQ PUSH2 0x3D6 JUMPI DUP1 PUSH4 0x65CF7C9B EQ PUSH2 0x3E9 JUMPI DUP1 PUSH4 0x6B9F7AB6 EQ PUSH2 0x410 JUMPI DUP1 PUSH4 0x74958E35 EQ PUSH2 0x423 JUMPI PUSH1 0x0 DUP1 REVERT JUMPDEST DUP1 PUSH4 0x3695DAD1 EQ PUSH2 0x361 JUMPI DUP1 PUSH4 0x3A6F2DCD EQ PUSH2 0x36A JUMPI DUP1 PUSH4 0x4B319713 EQ PUSH2 0x396 JUMPI DUP1 PUSH4 0x51637BA9 EQ PUSH2 0x39F JUMPI PUSH1 0x0 DUP1 REVERT JUMPDEST DUP1 PUSH4 0x1441A5A9 GT PUSH2 0x1D9 JUMPI DUP1 PUSH4 0x1441A5A9 EQ PUSH2 0x2D5 JUMPI DUP1 PUSH4 0x1C481E2D EQ PUSH2 0x300 JUMPI DUP1 PUSH4 0x2ACFBCA3 EQ PUSH2 0x313 JUMPI DUP1 PUSH4 0x2F48AB7D EQ PUSH2 0x33A JUMPI PUSH1 0x0 DUP1 REVERT JUMPDEST DUP1 PUSH4 0x8F43333 EQ PUSH2 0x20B JUMPI DUP1 PUSH4 0x962EF79 EQ PUSH2 0x260 JUMPI DUP1 PUSH4 0x13FCAF54 EQ PUSH2 0x275 JUMPI DUP1 PUSH4 0x142A3DA3 EQ PUSH2 0x2AC JUMPI JUMPDEST PUSH1 0x0 DUP1 REVERT JUMPDEST PUSH2 0x21E PUSH2 0x219 CALLDATASIZE PUSH1 0x4 PUSH2 0x2264 JUMP JUMPDEST PUSH2 0x5B2 JUMP JUMPDEST PUSH1 0x40 DUP1 MLOAD SWAP9 DUP10 MSTORE PUSH1 0x20 DUP10 ADD SWAP8 SWAP1 SWAP8 MSTORE SWAP6 DUP8 ADD SWAP5 SWAP1 SWAP5 MSTORE PUSH1 0x60 DUP7 ADD SWAP3 SWAP1 SWAP3 MSTORE PUSH1 0x80 DUP6 ADD MSTORE PUSH1 0xA0 DUP5 ADD MSTORE PUSH1 0xC0 DUP4 ADD MSTORE ISZERO ISZERO PUSH1 0xE0 DUP3 ADD MSTORE PUSH2 0x100 ADD JUMPDEST PUSH1 0x40 MLOAD DUP1 SWAP2 SUB SWAP1 RETURN JUMPDEST PUSH2 0x273 PUSH2 0x26E CALLDATASIZE PUSH1 0x4 PUSH2 0x2290 JUMP JUMPDEST PUSH2 0x617 JUMP JUMPDEST STOP JUMPDEST PUSH2 0x29E PUSH2 0x283 CALLDATASIZE PUSH1 0x4 PUSH2 0x22A9 JUMP JUMPDEST PUSH1 0x1 PUSH1 0x1 PUSH1 0xA0 SHL SUB AND PUSH1 0x0 SWAP1 DUP2 MSTORE PUSH1 0x7 PUSH1 0x20 MSTORE PUSH1 0x40 SWAP1 KECCAK256 SLOAD SWAP1 JUMP JUMPDEST PUSH1 0x40 MLOAD SWAP1 DUP2 MSTORE PUSH1 0x20 ADD PUSH2 0x257 JUMP JUMPDEST PUSH2 0x29E PUSH2 0x2BA CALLDATASIZE PUSH1 0x4 PUSH2 0x22A9 JUMP JUMPDEST PUSH1 0x1 PUSH1 0x1 PUSH1 0xA0 SHL SUB AND PUSH1 0x0 SWAP1 DUP2 MSTORE PUSH1 0x8 PUSH1 0x20 MSTORE PUSH1 0x40 SWAP1 KECCAK256 SLOAD SWAP1 JUMP JUMPDEST PUSH1 0x2 SLOAD PUSH2 0x2E8 SWAP1 PUSH1 0x1 PUSH1 0x1 PUSH1 0xA0 SHL SUB AND DUP2 JUMP JUMPDEST PUSH1 0x40 MLOAD PUSH1 0x1 PUSH1 0x1 PUSH1 0xA0 SHL SUB SWAP1 SWAP2 AND DUP2 MSTORE PUSH1 0x20 ADD PUSH2 0x257 JUMP JUMPDEST PUSH2 0x273 PUSH2 0x30E CALLDATASIZE PUSH1 0x4 PUSH2 0x22C6 JUMP JUMPDEST PUSH2 0xA4D JUMP JUMPDEST PUSH2 0x2E8 PUSH32 0x0 DUP2 JUMP JUMPDEST PUSH2 0x2E8 PUSH32 0x0 DUP2 JUMP JUMPDEST PUSH2 0x29E PUSH1 0x6 SLOAD DUP2 JUMP JUMPDEST PUSH2 0x29E PUSH2 0x378 CALLDATASIZE PUSH1 0x4 PUSH2 0x22A9 JUMP JUMPDEST PUSH1 0x1 PUSH1 0x1 PUSH1 0xA0 SHL SUB AND PUSH1 0x0 SWAP1 DUP2 MSTORE PUSH1 0x8 PUSH1 0x20 MSTORE PUSH1 0x40 SWAP1 KECCAK256 PUSH1 0x2 ADD SLOAD SWAP1 JUMP JUMPDEST PUSH2 0x29E PUSH1 0xA SLOAD DUP2 JUMP JUMPDEST PUSH2 0x273 PUSH2 0x3AD CALLDATASIZE PUSH1 0x4 PUSH2 0x2290 JUMP JUMPDEST PUSH2 0xAD0 JUMP JUMPDEST PUSH1 0x5 SLOAD PUSH2 0x3C6 SWAP1 PUSH1 0x1 PUSH1 0xA8 SHL SWAP1 DIV PUSH1 0xFF AND DUP2 JUMP JUMPDEST PUSH1 0x40 MLOAD SWAP1 ISZERO ISZERO DUP2 MSTORE PUSH1 0x20 ADD PUSH2 0x257 JUMP JUMPDEST PUSH1 0x1 SLOAD PUSH2 0x2E8 SWAP1 PUSH1 0x1 PUSH1 0x1 PUSH1 0xA0 SHL SUB AND DUP2 JUMP JUMPDEST PUSH2 0x29E PUSH32 0x0 DUP2 JUMP JUMPDEST PUSH2 0x273 PUSH2 0x41E CALLDATASIZE PUSH1 0x4 PUSH2 0x2264 JUMP JUMPDEST PUSH2 0xB00 JUMP JUMPDEST PUSH2 0x29E PUSH1 0xB SLOAD DUP2 JUMP JUMPDEST PUSH2 0x273 PUSH2 0x43A CALLDATASIZE PUSH1 0x4 PUSH2 0x22E8 JUMP JUMPDEST PUSH2 0xBAF JUMP JUMPDEST PUSH2 0x3C6 PUSH2 0x44D CALLDATASIZE PUSH1 0x4 PUSH2 0x2264 JUMP JUMPDEST PUSH2 0xC8B JUMP JUMPDEST PUSH1 0x0 SLOAD PUSH2 0x2E8 SWAP1 PUSH1 0x1 PUSH1 0x1 PUSH1 0xA0 SHL SUB AND DUP2 JUMP JUMPDEST PUSH2 0x273 PUSH2 0xD25 JUMP JUMPDEST PUSH2 0x273 PUSH2 0x47B CALLDATASIZE PUSH1 0x4 PUSH2 0x22A9 JUMP JUMPDEST PUSH2 0xDC9 JUMP JUMPDEST PUSH2 0x4AF PUSH2 0x48E CALLDATASIZE PUSH1 0x4 PUSH2 0x22A9 JUMP JUMPDEST PUSH1 0x8 PUSH1 0x20 MSTORE PUSH1 0x0 SWAP1 DUP2 MSTORE PUSH1 0x40 SWAP1 KECCAK256 DUP1 SLOAD PUSH1 0x1 DUP3 ADD SLOAD PUSH1 0x2 SWAP1 SWAP3 ADD SLOAD SWAP1 SWAP2 SWAP1 DUP4 JUMP JUMPDEST PUSH1 0x40 DUP1 MLOAD SWAP4 DUP5 MSTORE PUSH1 0x20 DUP5 ADD SWAP3 SWAP1 SWAP3 MSTORE SWAP1 DUP3 ADD MSTORE PUSH1 0x60 ADD PUSH2 0x257 JUMP JUMPDEST PUSH2 0x273 PUSH2 0x4D8 CALLDATASIZE PUSH1 0x4 PUSH2 0x2264 JUMP JUMPDEST PUSH2 0xE50 JUMP JUMPDEST PUSH1 0x5 SLOAD PUSH2 0x3C6 SWAP1 PUSH1 0x1 PUSH1 0xA0 SHL SWAP1 DIV PUSH1 0xFF AND DUP2 JUMP JUMPDEST PUSH2 0x273 PUSH2 0x4FF CALLDATASIZE PUSH1 0x4 PUSH2 0x2290 JUMP JUMPDEST PUSH2 0xE7B JUMP JUMPDEST PUSH2 0x273 PUSH2 0x512 CALLDATASIZE PUSH1 0x4 PUSH2 0x2290 JUMP JUMPDEST PUSH2 0x1502 JUMP JUMPDEST PUSH2 0x52A PUSH2 0x525 CALLDATASIZE PUSH1 0x4 PUSH2 0x2264 JUMP JUMPDEST PUSH2 0x1980 JUMP JUMPDEST PUSH1 0x40 DUP1 MLOAD SWAP5 DUP6 MSTORE PUSH1 0x20 DUP6 ADD SWAP4 SWAP1 SWAP4 MSTORE SWAP2 DUP4 ADD MSTORE PUSH1 0x60 DUP3 ADD MSTORE PUSH1 0x80 ADD PUSH2 0x257 JUMP JUMPDEST PUSH1 0x5 SLOAD PUSH2 0x2E8 SWAP1 PUSH1 0x1 PUSH1 0x1 PUSH1 0xA0 SHL SUB AND DUP2 JUMP JUMPDEST PUSH2 0x29E PUSH2 0x56B CALLDATASIZE PUSH1 0x4 PUSH2 0x22A9 JUMP JUMPDEST PUSH2 0x1A90 JUMP JUMPDEST PUSH2 0x29E PUSH2 0x57E CALLDATASIZE PUSH1 0x4 PUSH2 0x2264 JUMP JUMPDEST PUSH2 0x1AD9 JUMP JUMPDEST PUSH1 0x3 SLOAD PUSH2 0x2E8 SWAP1 PUSH1 0x1 PUSH1 0x1 PUSH1 0xA0 SHL SUB AND DUP2 JUMP JUMPDEST PUSH1 0x4 SLOAD PUSH2 0x2E8 SWAP1 PUSH1 0x1 PUSH1 0x1 PUSH1 0xA0 SHL SUB AND DUP2 JUMP JUMPDEST PUSH2 0x29E PUSH1 0x9 SLOAD DUP2 JUMP JUMPDEST PUSH1 0x7 PUSH1 0x20 MSTORE DUP2 PUSH1 0x0 MSTORE PUSH1 0x40 PUSH1 0x0 KECCAK256 DUP2 DUP2 SLOAD DUP2 LT PUSH2 0x5CE JUMPI PUSH1 0x0 DUP1 REVERT JUMPDEST PUSH1 0x0 SWAP2 DUP3 MSTORE PUSH1 0x20 SWAP1 SWAP2 KECCAK256 PUSH1 0x8 SWAP1 SWAP2 MUL ADD DUP1 SLOAD PUSH1 0x1 DUP3 ADD SLOAD PUSH1 0x2 DUP4 ADD SLOAD PUSH1 0x3 DUP5 ADD SLOAD PUSH1 0x4 DUP6 ADD SLOAD PUSH1 0x5 DUP7 ADD SLOAD PUSH1 0x6 DUP8 ADD SLOAD PUSH1 0x7 SWAP1 SWAP8 ADD SLOAD SWAP6 SWAP9 POP SWAP4 SWAP7 POP SWAP2 SWAP5 SWAP1 SWAP4 SWAP2 SWAP3 SWAP2 PUSH1 0xFF AND DUP9 JUMP JUMPDEST PUSH2 0x61F PUSH2 0x1B65 JUMP JUMPDEST PUSH1 0x0 PUSH2 0x62B CALLER DUP4 PUSH2 0x1B81 JUMP JUMPDEST SWAP1 POP PUSH1 0x0 PUSH2 0x639 CALLER DUP4 PUSH2 0x1C22 JUMP JUMPDEST SWAP1 POP DUP1 PUSH1 0x0 SUB PUSH2 0x65C JUMPI PUSH1 0x40 MLOAD PUSH4 0x12D37EE5 PUSH1 0xE3 SHL DUP2 MSTORE PUSH1 0x4 ADD PUSH1 0x40 MLOAD DUP1 SWAP2 SUB SWAP1 REVERT JUMPDEST PUSH1 0x6 SLOAD DUP2 LT ISZERO PUSH2 0x67F JUMPI PUSH1 0x40 MLOAD PUSH4 0x7E3F2B7D PUSH1 0xE0 SHL DUP2 MSTORE PUSH1 0x4 ADD PUSH1 0x40 MLOAD DUP1 SWAP2 SUB SWAP1 REVERT JUMPDEST DUP2 SLOAD PUSH1 0x0 SWAP1 PUSH2 0x690 SWAP1 PUSH1 0x3 SWAP1 PUSH2 0x236F JUMP JUMPDEST CALLER PUSH1 0x0 SWAP1 DUP2 MSTORE PUSH1 0x8 PUSH1 0x20 MSTORE PUSH1 0x40 DUP2 KECCAK256 PUSH1 0x2 DUP2 ADD SLOAD SWAP3 SWAP4 POP SWAP2 DUP4 GT PUSH2 0x6B5 JUMPI PUSH1 0x0 PUSH2 0x6C4 JUMP JUMPDEST PUSH1 0x2 DUP3 ADD SLOAD PUSH2 0x6C4 SWAP1 DUP5 PUSH2 0x2386 JUMP JUMPDEST SWAP1 POP DUP1 PUSH1 0x0 SUB PUSH2 0x71E JUMPI PUSH1 0x7 DUP6 ADD DUP1 SLOAD PUSH1 0xFF NOT AND SWAP1 SSTORE PUSH1 0x40 MLOAD CALLER SWAP1 PUSH32 0xFA1EB7BA4F65747C7C8882031EB92D63B6FCB684B75052185312FBE1A488D943 SWAP1 PUSH1 0x0 SWAP1 LOG2 PUSH1 0x40 MLOAD PUSH4 0x5A2E885 PUSH1 0xE2 SHL DUP2 MSTORE PUSH1 0x4 ADD PUSH1 0x40 MLOAD DUP1 SWAP2 SUB SWAP1 REVERT JUMPDEST DUP1 DUP5 GT ISZERO PUSH2 0x72A JUMPI DUP1 SWAP4 POP JUMPDEST PUSH1 0x0 DUP1 SLOAD PUSH1 0x40 MLOAD PUSH4 0x11EA9FA9 PUSH1 0xE2 SHL DUP2 MSTORE PUSH1 0x4 DUP2 ADD DUP8 SWAP1 MSTORE PUSH1 0x1 PUSH1 0x1 PUSH1 0xA0 SHL SUB SWAP1 SWAP2 AND SWAP1 PUSH4 0x47AA7EA4 SWAP1 PUSH1 0x24 ADD PUSH1 0x20 PUSH1 0x40 MLOAD DUP1 DUP4 SUB DUP2 DUP7 GAS STATICCALL ISZERO DUP1 ISZERO PUSH2 0x774 JUMPI RETURNDATASIZE PUSH1 0x0 DUP1 RETURNDATACOPY RETURNDATASIZE PUSH1 0x0 REVERT JUMPDEST POP POP POP POP PUSH1 0x40 MLOAD RETURNDATASIZE PUSH1 0x1F NOT PUSH1 0x1F DUP3 ADD AND DUP3 ADD DUP1 PUSH1 0x40 MSTORE POP DUP2 ADD SWAP1 PUSH2 0x798 SWAP2 SWAP1 PUSH2 0x2399 JUMP JUMPDEST SWAP1 POP DUP1 PUSH1 0x0 SUB PUSH2 0x7BB JUMPI PUSH1 0x40 MLOAD PUSH4 0xCC884657 PUSH1 0xE0 SHL DUP2 MSTORE PUSH1 0x4 ADD PUSH1 0x40 MLOAD DUP1 SWAP2 SUB SWAP1 REVERT JUMPDEST PUSH1 0x40 MLOAD PUSH4 0x70A08231 PUSH1 0xE0 SHL DUP2 MSTORE ADDRESS PUSH1 0x4 DUP3 ADD MSTORE DUP2 SWAP1 PUSH32 0x0 PUSH1 0x1 PUSH1 0x1 PUSH1 0xA0 SHL SUB AND SWAP1 PUSH4 0x70A08231 SWAP1 PUSH1 0x24 ADD PUSH1 0x20 PUSH1 0x40 MLOAD DUP1 DUP4 SUB DUP2 DUP7 GAS STATICCALL ISZERO DUP1 ISZERO PUSH2 0x821 JUMPI RETURNDATASIZE PUSH1 0x0 DUP1 RETURNDATACOPY RETURNDATASIZE PUSH1 0x0 REVERT JUMPDEST POP POP POP POP PUSH1 0x40 MLOAD RETURNDATASIZE PUSH1 0x1F NOT PUSH1 0x1F DUP3 ADD AND DUP3 ADD DUP1 PUSH1 0x40 MSTORE POP DUP2 ADD SWAP1 PUSH2 0x845 SWAP2 SWAP1 PUSH2 0x2399 JUMP JUMPDEST LT ISZERO PUSH2 0x864 JUMPI PUSH1 0x40 MLOAD PUSH4 0x75E4645 PUSH1 0xE0 SHL DUP2 MSTORE PUSH1 0x4 ADD PUSH1 0x40 MLOAD DUP1 SWAP2 SUB SWAP1 REVERT JUMPDEST DUP5 DUP7 PUSH1 0x5 ADD PUSH1 0x0 DUP3 DUP3 SLOAD PUSH2 0x878 SWAP2 SWAP1 PUSH2 0x23B2 JUMP JUMPDEST SWAP1 SWAP2 SSTORE POP POP TIMESTAMP PUSH1 0x4 DUP8 ADD SSTORE PUSH1 0x2 DUP4 ADD DUP1 SLOAD DUP7 SWAP2 SWAP1 PUSH1 0x0 SWAP1 PUSH2 0x89A SWAP1 DUP5 SWAP1 PUSH2 0x23B2 JUMP JUMPDEST SWAP3 POP POP DUP2 SWAP1 SSTORE POP DUP5 PUSH1 0xB PUSH1 0x0 DUP3 DUP3 SLOAD PUSH2 0x8B3 SWAP2 SWAP1 PUSH2 0x23B2 JUMP JUMPDEST SWAP1 SWAP2 SSTORE POP POP PUSH1 0x6 DUP7 ADD SLOAD PUSH1 0x5 DUP8 ADD SLOAD LT PUSH2 0x8FF JUMPI PUSH1 0x7 DUP7 ADD DUP1 SLOAD PUSH1 0xFF NOT AND SWAP1 SSTORE PUSH1 0x40 MLOAD CALLER SWAP1 PUSH32 0xFA1EB7BA4F65747C7C8882031EB92D63B6FCB684B75052185312FBE1A488D943 SWAP1 PUSH1 0x0 SWAP1 LOG2 JUMPDEST PUSH2 0x933 PUSH1 0x1 PUSH1 0x1 PUSH1 0xA0 SHL SUB PUSH32 0x0 AND CALLER DUP4 PUSH2 0x1D1E JUMP JUMPDEST PUSH1 0x2 SLOAD PUSH1 0x1 PUSH1 0x1 PUSH1 0xA0 SHL SUB AND ISZERO PUSH2 0x9AF JUMPI DUP5 ISZERO PUSH2 0x9AF JUMPI PUSH1 0x2 SLOAD PUSH1 0x40 MLOAD PUSH4 0x8000D991 PUSH1 0xE0 SHL DUP2 MSTORE CALLER PUSH1 0x4 DUP3 ADD MSTORE PUSH1 0x24 DUP2 ADD DUP8 SWAP1 MSTORE PUSH1 0x1 PUSH1 0x1 PUSH1 0xA0 SHL SUB SWAP1 SWAP2 AND SWAP1 PUSH4 0x8000D991 SWAP1 PUSH1 0x44 ADD PUSH1 0x0 PUSH1 0x40 MLOAD DUP1 DUP4 SUB DUP2 PUSH1 0x0 DUP8 DUP1 EXTCODESIZE ISZERO DUP1 ISZERO PUSH2 0x996 JUMPI PUSH1 0x0 DUP1 REVERT JUMPDEST POP GAS CALL ISZERO DUP1 ISZERO PUSH2 0x9AA JUMPI RETURNDATASIZE PUSH1 0x0 DUP1 RETURNDATACOPY RETURNDATASIZE PUSH1 0x0 REVERT JUMPDEST POP POP POP POP JUMPDEST PUSH1 0x40 DUP1 MLOAD DUP7 DUP2 MSTORE PUSH1 0x20 DUP2 ADD DUP4 SWAP1 MSTORE SWAP1 DUP2 ADD DUP9 SWAP1 MSTORE CALLER SWAP1 PUSH32 0x56253D287EFACDB2C4CD76DD03624A4821C1CE721D1152E8F5F5718F6087C9BF SWAP1 PUSH1 0x60 ADD PUSH1 0x40 MLOAD DUP1 SWAP2 SUB SWAP1 LOG2 PUSH1 0x2 DUP4 ADD SLOAD PUSH1 0x40 MLOAD SWAP1 DUP2 MSTORE CALLER SWAP1 PUSH32 0xDAD0E43AFDD45DACA2566E861FF76F0250960D86947518722C83B1E03F45EDD5 SWAP1 PUSH1 0x20 ADD JUMPDEST PUSH1 0x40 MLOAD DUP1 SWAP2 SUB SWAP1 LOG2 POP POP POP POP POP POP PUSH2 0xA4A PUSH1 0x1 PUSH1 0x0 DUP1 MLOAD PUSH1 0x20 PUSH2 0x2458 DUP4 CODECOPY DUP2 MLOAD SWAP2 MSTORE SSTORE JUMP JUMPDEST POP JUMP JUMPDEST PUSH1 0x5 SLOAD PUSH1 0x1 PUSH1 0x1 PUSH1 0xA0 SHL SUB AND CALLER EQ PUSH2 0xA78 JUMPI PUSH1 0x40 MLOAD PUSH4 0xE05F485 PUSH1 0xE1 SHL DUP2 MSTORE PUSH1 0x4 ADD PUSH1 0x40 MLOAD DUP1 SWAP2 SUB SWAP1 REVERT JUMPDEST PUSH1 0x5 DUP1 SLOAD DUP3 ISZERO ISZERO PUSH1 0x1 PUSH1 0xA8 SHL MUL PUSH1 0xFF PUSH1 0xA8 SHL NOT SWAP1 SWAP2 AND OR SWAP1 SSTORE PUSH1 0x40 MLOAD PUSH32 0x5EF34F53269A04B5B817E5BE24A51BA6B477118B399EC9DD5B2BAF5B299563DC SWAP1 PUSH2 0xAC5 SWAP1 DUP4 ISZERO ISZERO DUP2 MSTORE PUSH1 0x20 ADD SWAP1 JUMP JUMPDEST PUSH1 0x40 MLOAD DUP1 SWAP2 SUB SWAP1 LOG1 POP JUMP JUMPDEST PUSH1 0x5 SLOAD PUSH1 0x1 PUSH1 0x1 PUSH1 0xA0 SHL SUB AND CALLER EQ PUSH2 0xAFB JUMPI PUSH1 0x40 MLOAD PUSH4 0xE05F485 PUSH1 0xE1 SHL DUP2 MSTORE PUSH1 0x4 ADD PUSH1 0x40 MLOAD DUP1 SWAP2 SUB SWAP1 REVERT JUMPDEST PUSH1 0x6 SSTORE JUMP JUMPDEST PUSH1 0x2 SLOAD PUSH1 0x1 PUSH1 0x1 PUSH1 0xA0 SHL SUB AND CALLER EQ PUSH2 0xB2B JUMPI PUSH1 0x40 MLOAD PUSH4 0x3864B1E5 PUSH1 0xE2 SHL DUP2 MSTORE PUSH1 0x4 ADD PUSH1 0x40 MLOAD DUP1 SWAP2 SUB SWAP1 REVERT JUMPDEST PUSH1 0x1 PUSH1 0x1 PUSH1 0xA0 SHL SUB DUP3 AND PUSH1 0x0 SWAP1 DUP2 MSTORE PUSH1 0x8 PUSH1 0x20 MSTORE PUSH1 0x40 DUP2 KECCAK256 PUSH1 0x2 ADD DUP1 SLOAD DUP4 SWAP3 SWAP1 PUSH2 0xB56 SWAP1 DUP5 SWAP1 PUSH2 0x23B2 JUMP JUMPDEST SWAP1 SWAP2 SSTORE POP POP PUSH1 0x1 PUSH1 0x1 PUSH1 0xA0 SHL SUB DUP3 AND PUSH1 0x0 DUP2 DUP2 MSTORE PUSH1 0x8 PUSH1 0x20 SWAP1 DUP2 MSTORE PUSH1 0x40 SWAP2 DUP3 SWAP1 KECCAK256 PUSH1 0x2 ADD SLOAD SWAP2 MLOAD SWAP2 DUP3 MSTORE PUSH32 0xDAD0E43AFDD45DACA2566E861FF76F0250960D86947518722C83B1E03F45EDD5 SWAP2 ADD PUSH1 0x40 MLOAD DUP1 SWAP2 SUB SWAP1 LOG2 POP POP JUMP JUMPDEST PUSH1 0x4 SLOAD PUSH1 0x1 PUSH1 0x1 PUSH1 0xA0 SHL SUB AND CALLER EQ PUSH2 0xBDA JUMPI PUSH1 0x40 MLOAD PUSH4 0x47556579 PUSH1 0xE0 SHL DUP2 MSTORE PUSH1 0x4 ADD PUSH1 0x40 MLOAD DUP1 SWAP2 SUB SWAP1 REVERT JUMPDEST PUSH1 0x5 SLOAD PUSH1 0x1 PUSH1 0xA0 SHL SWAP1 DIV PUSH1 0xFF AND ISZERO PUSH2 0xC05 JUMPI PUSH1 0x40 MLOAD PUSH4 0x238F75D3 PUSH1 0xE0 SHL DUP2 MSTORE PUSH1 0x4 ADD PUSH1 0x40 MLOAD DUP1 SWAP2 SUB SWAP1 REVERT JUMPDEST PUSH1 0x1 PUSH1 0x1 PUSH1 0xA0 SHL SUB DUP3 AND PUSH2 0xC2C JUMPI PUSH1 0x40 MLOAD PUSH4 0xD92E233D PUSH1 0xE0 SHL DUP2 MSTORE PUSH1 0x4 ADD PUSH1 0x40 MLOAD DUP1 SWAP2 SUB SWAP1 REVERT JUMPDEST PUSH1 0x1 DUP1 SLOAD PUSH1 0x1 PUSH1 0x1 PUSH1 0xA0 SHL SUB NOT SWAP1 DUP2 AND PUSH1 0x1 PUSH1 0x1 PUSH1 0xA0 SHL SUB SWAP8 DUP9 AND OR SWAP1 SWAP2 SSTORE PUSH1 0x2 DUP1 SLOAD DUP3 AND SWAP6 DUP8 AND SWAP6 SWAP1 SWAP6 OR SWAP1 SWAP5 SSTORE PUSH1 0x3 DUP1 SLOAD DUP6 AND SWAP4 DUP7 AND SWAP4 SWAP1 SWAP4 OR SWAP1 SWAP3 SSTORE PUSH1 0x0 DUP1 SLOAD DUP5 AND SWAP2 DUP6 AND SWAP2 SWAP1 SWAP2 OR SWAP1 SSTORE PUSH1 0x5 DUP1 SLOAD SWAP1 SWAP3 AND SWAP3 AND SWAP2 SWAP1 SWAP2 OR SWAP1 SSTORE JUMP JUMPDEST PUSH1 0x1 PUSH1 0x1 PUSH1 0xA0 SHL SUB DUP3 AND PUSH1 0x0 SWAP1 DUP2 MSTORE PUSH1 0x7 PUSH1 0x20 MSTORE PUSH1 0x40 DUP2 KECCAK256 SLOAD DUP3 LT PUSH2 0xCB2 JUMPI POP PUSH1 0x0 PUSH2 0xD1F JUMP JUMPDEST PUSH1 0x1 PUSH1 0x1 PUSH1 0xA0 SHL SUB DUP4 AND PUSH1 0x0 SWAP1 DUP2 MSTORE PUSH1 0x7 PUSH1 0x20 MSTORE PUSH1 0x40 DUP2 KECCAK256 DUP1 SLOAD DUP5 SWAP1 DUP2 LT PUSH2 0xCDC JUMPI PUSH2 0xCDC PUSH2 0x23C5 JUMP JUMPDEST PUSH1 0x0 SWAP2 DUP3 MSTORE PUSH1 0x20 SWAP1 SWAP2 KECCAK256 PUSH1 0x8 SWAP1 SWAP2 MUL ADD PUSH1 0x7 DUP2 ADD SLOAD SWAP1 SWAP2 POP PUSH1 0xFF AND PUSH2 0xD05 JUMPI PUSH1 0x0 SWAP2 POP POP PUSH2 0xD1F JUMP JUMPDEST PUSH3 0xD2F00 DUP2 PUSH1 0x3 ADD SLOAD PUSH2 0xD18 SWAP2 SWAP1 PUSH2 0x23B2 JUMP JUMPDEST TIMESTAMP GT ISZERO SWAP2 POP POP JUMPDEST SWAP3 SWAP2 POP POP JUMP JUMPDEST PUSH1 0x4 SLOAD PUSH1 0x1 PUSH1 0x1 PUSH1 0xA0 SHL SUB AND CALLER EQ PUSH2 0xD50 JUMPI PUSH1 0x40 MLOAD PUSH4 0x47556579 PUSH1 0xE0 SHL DUP2 MSTORE PUSH1 0x4 ADD PUSH1 0x40 MLOAD DUP1 SWAP2 SUB SWAP1 REVERT JUMPDEST PUSH1 0x5 SLOAD PUSH1 0x1 PUSH1 0xA0 SHL SWAP1 DIV PUSH1 0xFF AND ISZERO PUSH2 0xD7B JUMPI PUSH1 0x40 MLOAD PUSH4 0x238F75D3 PUSH1 0xE0 SHL DUP2 MSTORE PUSH1 0x4 ADD PUSH1 0x40 MLOAD DUP1 SWAP2 SUB SWAP1 REVERT JUMPDEST PUSH1 0x1 SLOAD PUSH1 0x1 PUSH1 0x1 PUSH1 0xA0 SHL SUB AND PUSH2 0xDA4 JUMPI PUSH1 0x40 MLOAD PUSH4 0xD311BC39 PUSH1 0xE0 SHL DUP2 MSTORE PUSH1 0x4 ADD PUSH1 0x40 MLOAD DUP1 SWAP2 SUB SWAP1 REVERT JUMPDEST PUSH1 0x5 DUP1 SLOAD PUSH1 0xFF PUSH1 0xA0 SHL NOT AND PUSH1 0x1 PUSH1 0xA0 SHL OR SWAP1 SSTORE PUSH1 0x4 DUP1 SLOAD PUSH1 0x1 PUSH1 0x1 PUSH1 0xA0 SHL SUB NOT AND SWAP1 SSTORE JUMP JUMPDEST PUSH1 0x5 SLOAD PUSH1 0x1 PUSH1 0x1 PUSH1 0xA0 SHL SUB AND CALLER EQ PUSH2 0xDF4 JUMPI PUSH1 0x40 MLOAD PUSH4 0xE05F485 PUSH1 0xE1 SHL DUP2 MSTORE PUSH1 0x4 ADD PUSH1 0x40 MLOAD DUP1 SWAP2 SUB SWAP1 REVERT JUMPDEST PUSH1 0x2 SLOAD PUSH1 0x40 MLOAD PUSH1 0x1 PUSH1 0x1 PUSH1 0xA0 SHL SUB DUP1 DUP5 AND SWAP3 AND SWAP1 PUSH32 0xEEFE1CE2782E4BA3BBCCD79617FAE74979FA22005F22F7075C0910CD51C8FFD9 SWAP1 PUSH1 0x0 SWAP1 LOG3 PUSH1 0x2 DUP1 SLOAD PUSH1 0x1 PUSH1 0x1 PUSH1 0xA0 SHL SUB NOT AND PUSH1 0x1 PUSH1 0x1 PUSH1 0xA0 SHL SUB SWAP3 SWAP1 SWAP3 AND SWAP2 SWAP1 SWAP2 OR SWAP1 SSTORE JUMP JUMPDEST PUSH1 0x3 SLOAD PUSH1 0x1 PUSH1 0x1 PUSH1 0xA0 SHL SUB AND CALLER EQ PUSH2 0xB2B JUMPI PUSH1 0x40 MLOAD PUSH4 0x33273113 PUSH1 0xE1 SHL DUP2 MSTORE PUSH1 0x4 ADD PUSH1 0x40 MLOAD DUP1 SWAP2 SUB SWAP1 REVERT JUMPDEST PUSH2 0xE83 PUSH2 0x1B65 JUMP JUMPDEST PUSH1 0x5 SLOAD PUSH1 0x1 PUSH1 0xA8 SHL SWAP1 DIV PUSH1 0xFF AND ISZERO PUSH2 0xEAD JUMPI PUSH1 0x40 MLOAD PUSH3 0x7CFE7F PUSH1 0xE3 SHL DUP2 MSTORE PUSH1 0x4 ADD PUSH1 0x40 MLOAD DUP1 SWAP2 SUB SWAP1 REVERT JUMPDEST PUSH8 0x8AC7230489E80000 DUP2 LT ISZERO PUSH2 0xED6 JUMPI PUSH1 0x40 MLOAD PUSH4 0x2B7786BD PUSH1 0xE2 SHL DUP2 MSTORE PUSH1 0x4 ADD PUSH1 0x40 MLOAD DUP1 SWAP2 SUB SWAP1 REVERT JUMPDEST PUSH10 0x10F0CF064DD59200000 DUP2 GT ISZERO PUSH2 0xF01 JUMPI PUSH1 0x40 MLOAD PUSH4 0xC066E1E9 PUSH1 0xE0 SHL DUP2 MSTORE PUSH1 0x4 ADD PUSH1 0x40 MLOAD DUP1 SWAP2 SUB SWAP1 REVERT JUMPDEST PUSH1 0x0 SLOAD PUSH1 0x1 PUSH1 0x1 PUSH1 0xA0 SHL SUB AND PUSH2 0xF2A JUMPI PUSH1 0x40 MLOAD PUSH4 0xD311BC39 PUSH1 0xE0 SHL DUP2 MSTORE PUSH1 0x4 ADD PUSH1 0x40 MLOAD DUP1 SWAP2 SUB SWAP1 REVERT JUMPDEST PUSH2 0xF5F PUSH1 0x1 PUSH1 0x1 PUSH1 0xA0 SHL SUB PUSH32 0x0 AND CALLER ADDRESS DUP5 PUSH2 0x1D5D JUMP JUMPDEST PUSH1 0x0 DUP1 SLOAD PUSH1 0x40 MLOAD PUSH4 0x70A08231 PUSH1 0xE0 SHL DUP2 MSTORE PUSH1 0x1 PUSH1 0x1 PUSH1 0xA0 SHL SUB SWAP2 DUP3 AND PUSH1 0x4 DUP3 ADD MSTORE PUSH32 0x0 SWAP1 SWAP2 AND SWAP1 PUSH4 0x70A08231 SWAP1 PUSH1 0x24 ADD PUSH1 0x20 PUSH1 0x40 MLOAD DUP1 DUP4 SUB DUP2 DUP7 GAS STATICCALL ISZERO DUP1 ISZERO PUSH2 0xFCB JUMPI RETURNDATASIZE PUSH1 0x0 DUP1 RETURNDATACOPY RETURNDATASIZE PUSH1 0x0 REVERT JUMPDEST POP POP POP POP PUSH1 0x40 MLOAD RETURNDATASIZE PUSH1 0x1F NOT PUSH1 0x1F DUP3 ADD AND DUP3 ADD DUP1 PUSH1 0x40 MSTORE POP DUP2 ADD SWAP1 PUSH2 0xFEF SWAP2 SWAP1 PUSH2 0x2399 JUMP JUMPDEST PUSH1 0x0 DUP1 SLOAD PUSH1 0x40 DUP1 MLOAD PUSH4 0x240BC6B PUSH1 0xE2 SHL DUP2 MSTORE DUP2 MLOAD SWAP5 SWAP6 POP SWAP3 SWAP4 DUP5 SWAP4 DUP5 SWAP4 PUSH1 0x1 PUSH1 0x1 PUSH1 0xA0 SHL SUB AND SWAP3 PUSH4 0x902F1AC SWAP3 PUSH1 0x4 DUP1 DUP5 ADD SWAP4 DUP3 SWAP1 SUB ADD DUP2 DUP7 GAS STATICCALL ISZERO DUP1 ISZERO PUSH2 0x103B JUMPI RETURNDATASIZE PUSH1 0x0 DUP1 RETURNDATACOPY RETURNDATASIZE PUSH1 0x0 REVERT JUMPDEST POP POP POP POP PUSH1 0x40 MLOAD RETURNDATASIZE PUSH1 0x1F NOT PUSH1 0x1F DUP3 ADD AND DUP3 ADD DUP1 PUSH1 0x40 MSTORE POP DUP2 ADD SWAP1 PUSH2 0x105F SWAP2 SWAP1 PUSH2 0x23DB JUMP JUMPDEST SWAP2 POP SWAP2 POP PUSH1 0x0 DUP3 GT DUP1 ISZERO PUSH2 0x1073 JUMPI POP PUSH1 0x0 DUP2 GT JUMPDEST ISZERO PUSH2 0x109D JUMPI PUSH2 0x1082 DUP6 DUP4 PUSH2 0x23B2 JUMP JUMPDEST PUSH2 0x108C DUP3 DUP8 PUSH2 0x236F JUMP JUMPDEST PUSH2 0x1096 SWAP2 SWAP1 PUSH2 0x23FF JUMP JUMPDEST SWAP3 POP PUSH2 0x10A1 JUMP JUMPDEST DUP5 SWAP3 POP JUMPDEST PUSH9 0x3635C9ADC5DEA00000 PUSH2 0x10B5 DUP2 DUP6 PUSH2 0x23B2 JUMP JUMPDEST DUP6 LT ISZERO PUSH2 0x1206 JUMPI PUSH1 0x0 DUP6 PUSH2 0x10C9 DUP4 DUP8 PUSH2 0x23B2 JUMP JUMPDEST PUSH2 0x10D3 SWAP2 SWAP1 PUSH2 0x2386 JUMP JUMPDEST PUSH1 0x40 MLOAD PUSH4 0x70A08231 PUSH1 0xE0 SHL DUP2 MSTORE ADDRESS PUSH1 0x4 DUP3 ADD MSTORE SWAP1 SWAP2 POP PUSH1 0x0 SWAP1 PUSH1 0x1 PUSH1 0x1 PUSH1 0xA0 SHL SUB PUSH32 0x0 AND SWAP1 PUSH4 0x70A08231 SWAP1 PUSH1 0x24 ADD PUSH1 0x20 PUSH1 0x40 MLOAD DUP1 DUP4 SUB DUP2 DUP7 GAS STATICCALL ISZERO DUP1 ISZERO PUSH2 0x113D JUMPI RETURNDATASIZE PUSH1 0x0 DUP1 RETURNDATACOPY RETURNDATASIZE PUSH1 0x0 REVERT JUMPDEST POP POP POP POP PUSH1 0x40 MLOAD RETURNDATASIZE PUSH1 0x1F NOT PUSH1 0x1F DUP3 ADD AND DUP3 ADD DUP1 PUSH1 0x40 MSTORE POP DUP2 ADD SWAP1 PUSH2 0x1161 SWAP2 SWAP1 PUSH2 0x2399 JUMP JUMPDEST SWAP1 POP DUP2 DUP2 LT PUSH2 0x1203 JUMPI PUSH1 0x0 SLOAD PUSH2 0x11A4 SWAP1 PUSH1 0x1 PUSH1 0x1 PUSH1 0xA0 SHL SUB PUSH32 0x0 DUP2 AND SWAP2 AND DUP5 PUSH2 0x1D99 JUMP JUMPDEST PUSH1 0x0 SLOAD PUSH1 0x40 MLOAD PUSH4 0x362CE52B PUSH1 0xE0 SHL DUP2 MSTORE PUSH1 0x4 DUP2 ADD DUP5 SWAP1 MSTORE PUSH1 0x1 PUSH1 0x1 PUSH1 0xA0 SHL SUB SWAP1 SWAP2 AND SWAP1 PUSH4 0x362CE52B SWAP1 PUSH1 0x24 ADD PUSH1 0x0 PUSH1 0x40 MLOAD DUP1 DUP4 SUB DUP2 PUSH1 0x0 DUP8 DUP1 EXTCODESIZE ISZERO DUP1 ISZERO PUSH2 0x11EA JUMPI PUSH1 0x0 DUP1 REVERT JUMPDEST POP GAS CALL ISZERO DUP1 ISZERO PUSH2 0x11FE JUMPI RETURNDATASIZE PUSH1 0x0 DUP1 RETURNDATACOPY RETURNDATASIZE PUSH1 0x0 REVERT JUMPDEST POP POP POP POP JUMPDEST POP POP JUMPDEST POP POP PUSH1 0x0 SLOAD PUSH2 0x1246 SWAP4 POP PUSH1 0x1 PUSH1 0x1 PUSH1 0xA0 SHL SUB PUSH32 0x0 DUP2 AND SWAP4 POP AND SWAP1 POP DUP4 PUSH2 0x1D99 JUMP JUMPDEST PUSH1 0x0 DUP1 SLOAD PUSH1 0x40 MLOAD PUSH4 0x66102AD PUSH1 0xE1 SHL DUP2 MSTORE PUSH1 0x4 DUP2 ADD DUP5 SWAP1 MSTORE PUSH1 0x1 PUSH1 0x1 PUSH1 0xA0 SHL SUB SWAP1 SWAP2 AND SWAP1 PUSH4 0xCC2055A SWAP1 PUSH1 0x24 ADD PUSH1 0x20 PUSH1 0x40 MLOAD DUP1 DUP4 SUB DUP2 PUSH1 0x0 DUP8 GAS CALL ISZERO DUP1 ISZERO PUSH2 0x1292 JUMPI RETURNDATASIZE PUSH1 0x0 DUP1 RETURNDATACOPY RETURNDATASIZE PUSH1 0x0 REVERT JUMPDEST POP POP POP POP PUSH1 0x40 MLOAD RETURNDATASIZE PUSH1 0x1F NOT PUSH1 0x1F DUP3 ADD AND DUP3 ADD DUP1 PUSH1 0x40 MSTORE POP DUP2 ADD SWAP1 PUSH2 0x12B6 SWAP2 SWAP1 PUSH2 0x2399 JUMP JUMPDEST SWAP1 POP PUSH1 0x0 PUSH2 0x12C3 DUP4 PUSH2 0x1DED JUMP JUMPDEST SWAP1 POP PUSH1 0x0 PUSH2 0x12D0 DUP5 PUSH2 0x1E40 JUMP JUMPDEST SWAP1 POP PUSH1 0x0 PUSH2 0x12DF PUSH1 0x3 DUP7 PUSH2 0x236F JUMP JUMPDEST CALLER PUSH1 0x0 DUP2 DUP2 MSTORE PUSH1 0x7 PUSH1 0x20 DUP2 DUP2 MSTORE PUSH1 0x40 DUP1 DUP5 KECCAK256 DUP2 MLOAD PUSH2 0x100 DUP2 ADD DUP4 MSTORE DUP13 DUP2 MSTORE DUP1 DUP5 ADD DUP12 DUP2 MSTORE DUP2 DUP5 ADD DUP12 DUP2 MSTORE TIMESTAMP PUSH1 0x60 DUP5 ADD DUP2 DUP2 MSTORE PUSH1 0x80 DUP6 ADD SWAP2 DUP3 MSTORE PUSH1 0xA0 DUP6 ADD DUP11 DUP2 MSTORE PUSH1 0xC0 DUP7 ADD DUP14 DUP2 MSTORE PUSH1 0x1 PUSH1 0xE0 DUP9 ADD DUP2 DUP2 MSTORE DUP10 SLOAD DUP1 DUP4 ADD DUP12 SSTORE SWAP10 DUP15 MSTORE DUP12 DUP15 KECCAK256 SWAP9 MLOAD PUSH1 0x8 SWAP11 DUP12 MUL SWAP1 SWAP10 ADD SWAP9 DUP10 SSTORE SWAP7 MLOAD SWAP1 DUP9 ADD SSTORE SWAP4 MLOAD PUSH1 0x2 DUP8 ADD SSTORE SWAP1 MLOAD PUSH1 0x3 DUP7 ADD SSTORE SWAP1 MLOAD PUSH1 0x4 DUP6 ADD SSTORE MLOAD PUSH1 0x5 DUP5 ADD SSTORE MLOAD PUSH1 0x6 DUP4 ADD SSTORE MLOAD SWAP5 ADD DUP1 SLOAD PUSH1 0xFF NOT AND SWAP5 ISZERO ISZERO SWAP5 SWAP1 SWAP5 OR SWAP1 SWAP4 SSTORE SWAP4 DUP4 MSTORE MSTORE SWAP1 DUP2 KECCAK256 DUP1 SLOAD SWAP3 SWAP4 POP DUP8 SWAP3 SWAP1 SWAP2 SWAP1 PUSH2 0x139F SWAP1 DUP5 SWAP1 PUSH2 0x23B2 JUMP JUMPDEST SWAP1 SWAP2 SSTORE POP POP CALLER PUSH1 0x0 SWAP1 DUP2 MSTORE PUSH1 0x8 PUSH1 0x20 MSTORE PUSH1 0x40 DUP2 KECCAK256 PUSH1 0x1 ADD DUP1 SLOAD SWAP2 PUSH2 0x13C2 DUP4 PUSH2 0x2421 JUMP JUMPDEST SWAP2 SWAP1 POP SSTORE POP DUP5 PUSH1 0x9 PUSH1 0x0 DUP3 DUP3 SLOAD PUSH2 0x13D9 SWAP2 SWAP1 PUSH2 0x23B2 JUMP JUMPDEST SWAP1 SWAP2 SSTORE POP POP PUSH1 0x2 SLOAD PUSH1 0x1 PUSH1 0x1 PUSH1 0xA0 SHL SUB AND ISZERO PUSH2 0x144D JUMPI PUSH1 0x2 SLOAD PUSH1 0x40 MLOAD PUSH4 0x95CE44B PUSH1 0xE2 SHL DUP2 MSTORE CALLER PUSH1 0x4 DUP3 ADD MSTORE PUSH1 0x1 PUSH1 0x1 PUSH1 0xA0 SHL SUB SWAP1 SWAP2 AND SWAP1 PUSH4 0x2573912C SWAP1 PUSH1 0x24 ADD PUSH1 0x0 PUSH1 0x40 MLOAD DUP1 DUP4 SUB DUP2 PUSH1 0x0 DUP8 DUP1 EXTCODESIZE ISZERO DUP1 ISZERO PUSH2 0x1434 JUMPI PUSH1 0x0 DUP1 REVERT JUMPDEST POP GAS CALL ISZERO DUP1 ISZERO PUSH2 0x1448 JUMPI RETURNDATASIZE PUSH1 0x0 DUP1 RETURNDATACOPY RETURNDATASIZE PUSH1 0x0 REVERT JUMPDEST POP POP POP POP JUMPDEST PUSH1 0x3 SLOAD PUSH1 0x1 PUSH1 0x1 PUSH1 0xA0 SHL SUB AND ISZERO DUP1 ISZERO SWAP1 PUSH2 0x1471 JUMPI POP PUSH1 0x2 SLOAD PUSH1 0x1 PUSH1 0x1 PUSH1 0xA0 SHL SUB AND ISZERO ISZERO JUMPDEST ISZERO PUSH2 0x1480 JUMPI PUSH2 0x1480 CALLER DUP7 PUSH2 0x1F5D JUMP JUMPDEST CALLER PUSH1 0x0 DUP2 DUP2 MSTORE PUSH1 0x7 PUSH1 0x20 MSTORE PUSH1 0x40 SWAP1 KECCAK256 SLOAD PUSH32 0xE3B53CD1A44FBF11535E145D80B8EF1ED6D57A73BF5DAA7E939B6B01657D6549 SWAP1 DUP8 SWAP1 DUP7 SWAP1 DUP7 SWAP1 PUSH2 0x14C4 SWAP1 PUSH1 0x1 SWAP1 PUSH2 0x2386 JUMP JUMPDEST PUSH1 0x40 DUP1 MLOAD SWAP5 DUP6 MSTORE PUSH1 0x20 DUP6 ADD SWAP4 SWAP1 SWAP4 MSTORE SWAP2 DUP4 ADD MSTORE PUSH1 0x60 DUP3 ADD MSTORE PUSH1 0x80 ADD PUSH1 0x40 MLOAD DUP1 SWAP2 SUB SWAP1 LOG2 POP POP POP POP PUSH2 0xA4A PUSH1 0x1 PUSH1 0x0 DUP1 MLOAD PUSH1 0x20 PUSH2 0x2458 DUP4 CODECOPY DUP2 MLOAD SWAP2 MSTORE SSTORE JUMP JUMPDEST PUSH2 0x150A PUSH2 0x1B65 JUMP JUMPDEST PUSH1 0x0 PUSH2 0x1516 CALLER DUP4 PUSH2 0x1B81 JUMP JUMPDEST SWAP1 POP PUSH3 0xD2F00 DUP2 PUSH1 0x3 ADD SLOAD PUSH2 0x152B SWAP2 SWAP1 PUSH2 0x23B2 JUMP JUMPDEST TIMESTAMP GT ISZERO PUSH2 0x154B JUMPI PUSH1 0x40 MLOAD PUSH4 0x693ED15B PUSH1 0xE1 SHL DUP2 MSTORE PUSH1 0x4 ADD PUSH1 0x40 MLOAD DUP1 SWAP2 SUB SWAP1 REVERT JUMPDEST DUP1 SLOAD PUSH1 0x0 PUSH2 0x1559 CALLER DUP5 PUSH2 0x1C22 JUMP JUMPDEST SWAP1 POP PUSH1 0x0 PUSH2 0x2710 PUSH2 0x156C PUSH2 0x3E8 DUP6 PUSH2 0x236F JUMP JUMPDEST PUSH2 0x1576 SWAP2 SWAP1 PUSH2 0x23FF JUMP JUMPDEST SWAP1 POP PUSH1 0x0 PUSH2 0x1584 DUP3 DUP5 PUSH2 0x23B2 JUMP JUMPDEST SWAP1 POP PUSH1 0x0 DUP2 DUP6 GT PUSH2 0x1596 JUMPI PUSH1 0x0 PUSH2 0x15A0 JUMP JUMPDEST PUSH2 0x15A0 DUP3 DUP7 PUSH2 0x2386 JUMP JUMPDEST PUSH1 0x7 DUP8 ADD DUP1 SLOAD PUSH1 0xFF NOT AND SWAP1 SSTORE CALLER PUSH1 0x0 SWAP1 DUP2 MSTORE PUSH1 0x8 PUSH1 0x20 MSTORE PUSH1 0x40 DUP2 KECCAK256 DUP1 SLOAD SWAP3 SWAP4 POP DUP8 SWAP3 SWAP1 SWAP2 SWAP1 PUSH2 0x15D0 SWAP1 DUP5 SWAP1 PUSH2 0x2386 JUMP JUMPDEST SWAP3 POP POP DUP2 SWAP1 SSTORE POP DUP5 PUSH1 0xA PUSH1 0x0 DUP3 DUP3 SLOAD PUSH2 0x15E9 SWAP2 SWAP1 PUSH2 0x23B2 JUMP JUMPDEST SWAP1 SWAP2 SSTORE POP POP PUSH1 0x2 SLOAD PUSH1 0x1 PUSH1 0x1 PUSH1 0xA0 SHL SUB AND ISZERO PUSH2 0x165D JUMPI PUSH1 0x2 SLOAD PUSH1 0x40 MLOAD PUSH4 0x95CE44B PUSH1 0xE2 SHL DUP2 MSTORE CALLER PUSH1 0x4 DUP3 ADD MSTORE PUSH1 0x1 PUSH1 0x1 PUSH1 0xA0 SHL SUB SWAP1 SWAP2 AND SWAP1 PUSH4 0x2573912C SWAP1 PUSH1 0x24 ADD PUSH1 0x0 PUSH1 0x40 MLOAD DUP1 DUP4 SUB DUP2 PUSH1 0x0 DUP8 DUP1 EXTCODESIZE ISZERO DUP1 ISZERO PUSH2 0x1644 JUMPI PUSH1 0x0 DUP1 REVERT JUMPDEST POP GAS CALL ISZERO DUP1 ISZERO PUSH2 0x1658 JUMPI RETURNDATASIZE PUSH1 0x0 DUP1 RETURNDATACOPY RETURNDATASIZE PUSH1 0x0 REVERT JUMPDEST POP POP POP POP JUMPDEST DUP1 ISZERO PUSH2 0x1939 JUMPI PUSH1 0x40 MLOAD PUSH4 0x70A08231 PUSH1 0xE0 SHL DUP2 MSTORE ADDRESS PUSH1 0x4 DUP3 ADD MSTORE PUSH1 0x0 SWAP1 PUSH32 0x0 PUSH1 0x1 PUSH1 0x1 PUSH1 0xA0 SHL SUB AND SWAP1 PUSH4 0x70A08231 SWAP1 PUSH1 0x24 ADD PUSH1 0x20 PUSH1 0x40 MLOAD DUP1 DUP4 SUB DUP2 DUP7 GAS STATICCALL ISZERO DUP1 ISZERO PUSH2 0x16CA JUMPI RETURNDATASIZE PUSH1 0x0 DUP1 RETURNDATACOPY RETURNDATASIZE PUSH1 0x0 REVERT JUMPDEST POP POP POP POP PUSH1 0x40 MLOAD RETURNDATASIZE PUSH1 0x1F NOT PUSH1 0x1F DUP3 ADD AND DUP3 ADD DUP1 PUSH1 0x40 MSTORE POP DUP2 ADD SWAP1 PUSH2 0x16EE SWAP2 SWAP1 PUSH2 0x2399 JUMP JUMPDEST SWAP1 POP DUP2 DUP2 LT PUSH2 0x1730 JUMPI PUSH2 0x172B PUSH1 0x1 PUSH1 0x1 PUSH1 0xA0 SHL SUB PUSH32 0x0 AND CALLER DUP5 PUSH2 0x1D1E JUMP JUMPDEST PUSH2 0x1937 JUMP JUMPDEST DUP1 ISZERO PUSH2 0x1777 JUMPI PUSH2 0x176A PUSH1 0x1 PUSH1 0x1 PUSH1 0xA0 SHL SUB PUSH32 0x0 AND CALLER DUP4 PUSH2 0x1D1E JUMP JUMPDEST PUSH2 0x1774 DUP2 DUP4 PUSH2 0x2386 JUMP JUMPDEST SWAP2 POP JUMPDEST PUSH1 0x0 DUP1 SLOAD PUSH1 0x40 MLOAD PUSH4 0x11EA9FA9 PUSH1 0xE2 SHL DUP2 MSTORE PUSH1 0x4 DUP2 ADD DUP6 SWAP1 MSTORE PUSH1 0x1 PUSH1 0x1 PUSH1 0xA0 SHL SUB SWAP1 SWAP2 AND SWAP1 PUSH4 0x47AA7EA4 SWAP1 PUSH1 0x24 ADD PUSH1 0x20 PUSH1 0x40 MLOAD DUP1 DUP4 SUB DUP2 DUP7 GAS STATICCALL ISZERO DUP1 ISZERO PUSH2 0x17C1 JUMPI RETURNDATASIZE PUSH1 0x0 DUP1 RETURNDATACOPY RETURNDATASIZE PUSH1 0x0 REVERT JUMPDEST POP POP POP POP PUSH1 0x40 MLOAD RETURNDATASIZE PUSH1 0x1F NOT PUSH1 0x1F DUP3 ADD AND DUP3 ADD DUP1 PUSH1 0x40 MSTORE POP DUP2 ADD SWAP1 PUSH2 0x17E5 SWAP2 SWAP1 PUSH2 0x2399 JUMP JUMPDEST SWAP1 POP PUSH1 0x0 DUP2 GT DUP1 ISZERO PUSH2 0x187F JUMPI POP PUSH1 0x40 MLOAD PUSH4 0x70A08231 PUSH1 0xE0 SHL DUP2 MSTORE ADDRESS PUSH1 0x4 DUP3 ADD MSTORE DUP2 SWAP1 PUSH32 0x0 PUSH1 0x1 PUSH1 0x1 PUSH1 0xA0 SHL SUB AND SWAP1 PUSH4 0x70A08231 SWAP1 PUSH1 0x24 ADD PUSH1 0x20 PUSH1 0x40 MLOAD DUP1 DUP4 SUB DUP2 DUP7 GAS STATICCALL ISZERO DUP1 ISZERO PUSH2 0x1858 JUMPI RETURNDATASIZE PUSH1 0x0 DUP1 RETURNDATACOPY RETURNDATASIZE PUSH1 0x0 REVERT JUMPDEST POP POP POP POP PUSH1 0x40 MLOAD RETURNDATASIZE PUSH1 0x1F NOT PUSH1 0x1F DUP3 ADD AND DUP3 ADD DUP1 PUSH1 0x40 MSTORE POP DUP2 ADD SWAP1 PUSH2 0x187C SWAP2 SWAP1 PUSH2 0x2399 JUMP JUMPDEST LT ISZERO JUMPDEST ISZERO PUSH2 0x1935 JUMPI PUSH1 0x0 SLOAD PUSH2 0x18BE SWAP1 PUSH1 0x1 PUSH1 0x1 PUSH1 0xA0 SHL SUB PUSH32 0x0 DUP2 AND SWAP2 AND DUP4 PUSH2 0x1D99 JUMP JUMPDEST PUSH1 0x0 SLOAD PUSH1 0x40 MLOAD PUSH4 0xF843E641 PUSH1 0xE0 SHL DUP2 MSTORE PUSH1 0x4 DUP2 ADD DUP4 SWAP1 MSTORE CALLER PUSH1 0x24 DUP3 ADD MSTORE PUSH1 0x1 PUSH1 0x1 PUSH1 0xA0 SHL SUB SWAP1 SWAP2 AND SWAP1 PUSH4 0xF843E641 SWAP1 PUSH1 0x44 ADD PUSH1 0x20 PUSH1 0x40 MLOAD DUP1 DUP4 SUB DUP2 PUSH1 0x0 DUP8 GAS CALL ISZERO DUP1 ISZERO PUSH2 0x190F JUMPI RETURNDATASIZE PUSH1 0x0 DUP1 RETURNDATACOPY RETURNDATASIZE PUSH1 0x0 REVERT JUMPDEST POP POP POP POP PUSH1 0x40 MLOAD RETURNDATASIZE PUSH1 0x1F NOT PUSH1 0x1F DUP3 ADD AND DUP3 ADD DUP1 PUSH1 0x40 MSTORE POP DUP2 ADD SWAP1 PUSH2 0x1933 SWAP2 SWAP1 PUSH2 0x2399 JUMP JUMPDEST POP JUMPDEST POP JUMPDEST POP JUMPDEST PUSH1 0x40 DUP1 MLOAD DUP3 DUP2 MSTORE PUSH1 0x20 DUP2 ADD DUP6 SWAP1 MSTORE SWAP1 DUP2 ADD DUP6 SWAP1 MSTORE PUSH1 0x60 DUP2 ADD DUP9 SWAP1 MSTORE CALLER SWAP1 PUSH32 0x4ADE67EF7E7C5E4D9C50DE61A4E8C555BE92C9B37E3CA6716EB02A1F0E471DA5 SWAP1 PUSH1 0x80 ADD PUSH2 0xA25 JUMP JUMPDEST PUSH1 0x1 PUSH1 0x1 PUSH1 0xA0 SHL SUB DUP3 AND PUSH1 0x0 SWAP1 DUP2 MSTORE PUSH1 0x7 PUSH1 0x20 MSTORE PUSH1 0x40 DUP2 KECCAK256 SLOAD DUP2 SWAP1 DUP2 SWAP1 DUP2 SWAP1 DUP6 LT PUSH2 0x19B6 JUMPI POP PUSH1 0x0 SWAP3 POP DUP3 SWAP2 POP DUP2 SWAP1 POP DUP1 PUSH2 0x1A87 JUMP JUMPDEST PUSH1 0x1 PUSH1 0x1 PUSH1 0xA0 SHL SUB DUP7 AND PUSH1 0x0 SWAP1 DUP2 MSTORE PUSH1 0x7 PUSH1 0x20 MSTORE PUSH1 0x40 DUP2 KECCAK256 DUP1 SLOAD DUP8 SWAP1 DUP2 LT PUSH2 0x19E0 JUMPI PUSH2 0x19E0 PUSH2 0x23C5 JUMP JUMPDEST PUSH1 0x0 SWAP2 DUP3 MSTORE PUSH1 0x20 SWAP1 SWAP2 KECCAK256 PUSH1 0x8 SWAP1 SWAP2 MUL ADD PUSH1 0x7 DUP2 ADD SLOAD SWAP1 SWAP2 POP PUSH1 0xFF AND ISZERO DUP1 PUSH2 0x1A18 JUMPI POP PUSH3 0xD2F00 DUP2 PUSH1 0x3 ADD SLOAD PUSH2 0x1A15 SWAP2 SWAP1 PUSH2 0x23B2 JUMP JUMPDEST TIMESTAMP GT JUMPDEST ISZERO PUSH2 0x1A31 JUMPI PUSH1 0x0 DUP1 PUSH1 0x0 DUP1 SWAP5 POP SWAP5 POP SWAP5 POP SWAP5 POP POP PUSH2 0x1A87 JUMP JUMPDEST DUP1 SLOAD SWAP5 POP PUSH2 0x1A3F DUP8 DUP3 PUSH2 0x1C22 JUMP JUMPDEST SWAP4 POP PUSH2 0x2710 PUSH2 0x1A50 PUSH2 0x3E8 DUP8 PUSH2 0x236F JUMP JUMPDEST PUSH2 0x1A5A SWAP2 SWAP1 PUSH2 0x23FF JUMP JUMPDEST SWAP3 POP PUSH1 0x0 PUSH2 0x1A68 DUP5 DUP7 PUSH2 0x23B2 JUMP JUMPDEST SWAP1 POP DUP1 DUP7 GT PUSH2 0x1A78 JUMPI PUSH1 0x0 PUSH2 0x1A82 JUMP JUMPDEST PUSH2 0x1A82 DUP2 DUP8 PUSH2 0x2386 JUMP JUMPDEST SWAP3 POP POP POP JUMPDEST SWAP3 SWAP6 SWAP2 SWAP5 POP SWAP3 POP JUMP JUMPDEST PUSH1 0x1 PUSH1 0x1 PUSH1 0xA0 SHL SUB DUP2 AND PUSH1 0x0 SWAP1 DUP2 MSTORE PUSH1 0x8 PUSH1 0x20 MSTORE PUSH1 0x40 DUP2 KECCAK256 SLOAD DUP2 SUB PUSH2 0x1AB7 JUMPI POP PUSH1 0x0 SWAP2 SWAP1 POP JUMP JUMPDEST PUSH1 0x1 PUSH1 0x1 PUSH1 0xA0 SHL SUB DUP3 AND PUSH1 0x0 SWAP1 DUP2 MSTORE PUSH1 0x8 PUSH1 0x20 MSTORE PUSH1 0x40 SWAP1 KECCAK256 SLOAD PUSH2 0xD1F SWAP1 PUSH2 0x1DED JUMP JUMPDEST PUSH1 0x1 PUSH1 0x1 PUSH1 0xA0 SHL SUB DUP3 AND PUSH1 0x0 SWAP1 DUP2 MSTORE PUSH1 0x7 PUSH1 0x20 MSTORE PUSH1 0x40 DUP2 KECCAK256 SLOAD DUP3 LT PUSH2 0x1B00 JUMPI POP PUSH1 0x0 PUSH2 0xD1F JUMP JUMPDEST PUSH1 0x1 PUSH1 0x1 PUSH1 0xA0 SHL SUB DUP4 AND PUSH1 0x0 SWAP1 DUP2 MSTORE PUSH1 0x7 PUSH1 0x20 MSTORE PUSH1 0x40 DUP2 KECCAK256 DUP1 SLOAD DUP5 SWAP1 DUP2 LT PUSH2 0x1B2A JUMPI PUSH2 0x1B2A PUSH2 0x23C5 JUMP JUMPDEST PUSH1 0x0 SWAP2 DUP3 MSTORE PUSH1 0x20 SWAP1 SWAP2 KECCAK256 PUSH1 0x8 SWAP1 SWAP2 MUL ADD PUSH1 0x7 DUP2 ADD SLOAD SWAP1 SWAP2 POP PUSH1 0xFF AND PUSH2 0x1B53 JUMPI PUSH1 0x0 SWAP2 POP POP PUSH2 0xD1F JUMP JUMPDEST PUSH2 0x1B5D DUP5 DUP3 PUSH2 0x1C22 JUMP JUMPDEST SWAP5 SWAP4 POP POP POP POP JUMP JUMPDEST PUSH2 0x1B6D PUSH2 0x2096 JUMP JUMPDEST PUSH1 0x2 PUSH1 0x0 DUP1 MLOAD PUSH1 0x20 PUSH2 0x2458 DUP4 CODECOPY DUP2 MLOAD SWAP2 MSTORE SSTORE JUMP JUMPDEST PUSH1 0x1 PUSH1 0x1 PUSH1 0xA0 SHL SUB DUP3 AND PUSH1 0x0 SWAP1 DUP2 MSTORE PUSH1 0x7 PUSH1 0x20 MSTORE PUSH1 0x40 DUP2 KECCAK256 SLOAD DUP3 LT PUSH2 0x1BB9 JUMPI PUSH1 0x40 MLOAD PUSH4 0x5972996F PUSH1 0xE1 SHL DUP2 MSTORE PUSH1 0x4 ADD PUSH1 0x40 MLOAD DUP1 SWAP2 SUB SWAP1 REVERT JUMPDEST PUSH1 0x1 PUSH1 0x1 PUSH1 0xA0 SHL SUB DUP4 AND PUSH1 0x0 SWAP1 DUP2 MSTORE PUSH1 0x7 PUSH1 0x20 MSTORE PUSH1 0x40 DUP2 KECCAK256 DUP1 SLOAD DUP5 SWAP1 DUP2 LT PUSH2 0x1BE3 JUMPI PUSH2 0x1BE3 PUSH2 0x23C5 JUMP JUMPDEST PUSH1 0x0 SWAP2 DUP3 MSTORE PUSH1 0x20 SWAP1 SWAP2 KECCAK256 PUSH1 0x8 SWAP1 SWAP2 MUL ADD PUSH1 0x7 DUP2 ADD SLOAD SWAP1 SWAP2 POP PUSH1 0xFF AND PUSH2 0x1C1B JUMPI PUSH1 0x40 MLOAD PUSH4 0x5A2E885 PUSH1 0xE2 SHL DUP2 MSTORE PUSH1 0x4 ADD PUSH1 0x40 MLOAD DUP1 SWAP2 SUB SWAP1 REVERT JUMPDEST SWAP4 SWAP3 POP POP POP JUMP JUMPDEST PUSH1 0x7 DUP2 ADD SLOAD PUSH1 0x0 SWAP1 PUSH1 0xFF AND PUSH2 0x1C39 JUMPI POP PUSH1 0x0 PUSH2 0xD1F JUMP JUMPDEST PUSH1 0x0 DUP3 PUSH1 0x4 ADD SLOAD TIMESTAMP PUSH2 0x1C4B SWAP2 SWAP1 PUSH2 0x2386 JUMP JUMPDEST SWAP1 POP DUP1 PUSH1 0x0 SUB PUSH2 0x1C5F JUMPI PUSH1 0x0 SWAP2 POP POP PUSH2 0xD1F JUMP JUMPDEST PUSH1 0x0 PUSH2 0x1C6E DUP5 PUSH1 0x0 ADD SLOAD PUSH2 0x1E40 JUMP JUMPDEST SWAP1 POP PUSH3 0x76A700 PUSH2 0x1C9E PUSH32 0x0 TIMESTAMP PUSH2 0x2386 JUMP JUMPDEST LT PUSH2 0x1CA7 JUMPI POP PUSH1 0x2D JUMPDEST PUSH2 0x1CB6 PUSH2 0x2710 PUSH3 0x15180 PUSH2 0x236F JUMP JUMPDEST DUP5 SLOAD DUP4 SWAP1 PUSH2 0x1CC5 SWAP1 DUP5 SWAP1 PUSH2 0x236F JUMP JUMPDEST PUSH2 0x1CCF SWAP2 SWAP1 PUSH2 0x236F JUMP JUMPDEST PUSH2 0x1CD9 SWAP2 SWAP1 PUSH2 0x23FF JUMP JUMPDEST SWAP3 POP PUSH1 0x0 DUP5 PUSH1 0x5 ADD SLOAD DUP6 PUSH1 0x6 ADD SLOAD GT PUSH2 0x1CF3 JUMPI PUSH1 0x0 PUSH2 0x1D07 JUMP JUMPDEST DUP5 PUSH1 0x5 ADD SLOAD DUP6 PUSH1 0x6 ADD SLOAD PUSH2 0x1D07 SWAP2 SWAP1 PUSH2 0x2386 JUMP JUMPDEST SWAP1 POP DUP1 DUP5 GT ISZERO PUSH2 0x1D15 JUMPI DUP1 SWAP4 POP JUMPDEST POP POP POP SWAP3 SWAP2 POP POP JUMP JUMPDEST PUSH2 0x1D2B DUP4 DUP4 DUP4 PUSH1 0x1 PUSH2 0x20C8 JUMP JUMPDEST PUSH2 0x1D58 JUMPI PUSH1 0x40 MLOAD PUSH4 0x5274AFE7 PUSH1 0xE0 SHL DUP2 MSTORE PUSH1 0x1 PUSH1 0x1 PUSH1 0xA0 SHL SUB DUP5 AND PUSH1 0x4 DUP3 ADD MSTORE PUSH1 0x24 ADD JUMPDEST PUSH1 0x40 MLOAD DUP1 SWAP2 SUB SWAP1 REVERT JUMPDEST POP POP POP JUMP JUMPDEST PUSH2 0x1D6B DUP5 DUP5 DUP5 DUP5 PUSH1 0x1 PUSH2 0x212E JUMP JUMPDEST PUSH2 0x1D93 JUMPI PUSH1 0x40 MLOAD PUSH4 0x5274AFE7 PUSH1 0xE0 SHL DUP2 MSTORE PUSH1 0x1 PUSH1 0x1 PUSH1 0xA0 SHL SUB DUP6 AND PUSH1 0x4 DUP3 ADD MSTORE PUSH1 0x24 ADD PUSH2 0x1D4F JUMP JUMPDEST POP POP POP POP JUMP JUMPDEST PUSH2 0x1DA6 DUP4 DUP4 DUP4 PUSH1 0x0 PUSH2 0x21A0 JUMP JUMPDEST PUSH2 0x1D58 JUMPI PUSH2 0x1DB8 DUP4 DUP4 PUSH1 0x0 PUSH1 0x1 PUSH2 0x21A0 JUMP JUMPDEST PUSH2 0x1DE0 JUMPI PUSH1 0x40 MLOAD PUSH4 0x5274AFE7 PUSH1 0xE0 SHL DUP2 MSTORE PUSH1 0x1 PUSH1 0x1 PUSH1 0xA0 SHL SUB DUP5 AND PUSH1 0x4 DUP3 ADD MSTORE PUSH1 0x24 ADD PUSH2 0x1D4F JUMP JUMPDEST PUSH2 0x1D2B DUP4 DUP4 DUP4 PUSH1 0x1 PUSH2 0x21A0 JUMP JUMPDEST PUSH1 0x0 PUSH10 0x10F0CF064DD59200000 DUP3 LT PUSH2 0x1E08 JUMPI POP PUSH1 0x4 SWAP2 SWAP1 POP JUMP JUMPDEST PUSH9 0x878678326EAC900000 DUP3 LT PUSH2 0x1E20 JUMPI POP PUSH1 0x3 SWAP2 SWAP1 POP JUMP JUMPDEST PUSH9 0x1B1AE4D6E2EF500000 DUP3 LT PUSH2 0x1E38 JUMPI POP PUSH1 0x2 SWAP2 SWAP1 POP JUMP JUMPDEST POP PUSH1 0x1 SWAP2 SWAP1 POP JUMP JUMPDEST PUSH1 0x0 DUP1 PUSH2 0x1E6D PUSH32 0x0 TIMESTAMP PUSH2 0x2386 JUMP JUMPDEST SWAP1 POP PUSH3 0x76A700 DUP2 LT PUSH2 0x1E82 JUMPI POP PUSH1 0x2D SWAP3 SWAP2 POP POP JUMP JUMPDEST PUSH1 0x0 PUSH2 0x1E8D DUP5 PUSH2 0x1DED JUMP JUMPDEST SWAP1 POP DUP1 PUSH1 0x1 SUB PUSH2 0x1EB7 JUMPI PUSH2 0x1B5D DUP5 PUSH8 0x8AC7230489E80000 PUSH9 0x1B0D04202F47EC0000 PUSH1 0x32 PUSH1 0x64 PUSH2 0x21ED JUMP JUMPDEST DUP1 PUSH1 0x2 SUB PUSH2 0x1EE0 JUMPI PUSH2 0x1B5D DUP5 PUSH9 0x1B1AE4D6E2EF500000 PUSH9 0x8778977BBB052C0000 PUSH1 0x4B PUSH1 0x73 PUSH2 0x21ED JUMP JUMPDEST DUP1 PUSH1 0x3 SUB PUSH2 0x1F0A JUMPI PUSH2 0x1B5D DUP5 PUSH9 0x878678326EAC900000 PUSH10 0x10EFF0FAE29B1BC0000 PUSH1 0x64 PUSH1 0x96 PUSH2 0x21ED JUMP JUMPDEST PUSH1 0x0 PUSH10 0xA968163F0A57B400000 DUP6 GT PUSH2 0x1F23 JUMPI DUP5 PUSH2 0x1F2F JUMP JUMPDEST PUSH10 0xA968163F0A57B400000 JUMPDEST SWAP1 POP PUSH2 0x1F54 DUP2 PUSH10 0x10F0CF064DD59200000 PUSH10 0xA968163F0A57B400000 PUSH1 0x64 PUSH1 0xAF PUSH2 0x21ED JUMP JUMPDEST SWAP6 SWAP5 POP POP POP POP POP JUMP JUMPDEST PUSH1 0x2 SLOAD PUSH1 0x1 PUSH1 0x1 PUSH1 0xA0 SHL SUB AND ISZERO DUP1 PUSH2 0x1F7E JUMPI POP PUSH1 0x3 SLOAD PUSH1 0x1 PUSH1 0x1 PUSH1 0xA0 SHL SUB AND ISZERO JUMPDEST ISZERO PUSH2 0x1F87 JUMPI POP POP JUMP JUMPDEST DUP2 PUSH1 0x0 JUMPDEST PUSH1 0x14 DUP2 LT ISZERO PUSH2 0x1D93 JUMPI PUSH1 0x2 SLOAD PUSH1 0x40 MLOAD PUSH4 0x4A9FEFC7 PUSH1 0xE0 SHL DUP2 MSTORE PUSH1 0x1 PUSH1 0x1 PUSH1 0xA0 SHL SUB DUP5 DUP2 AND PUSH1 0x4 DUP4 ADD MSTORE PUSH1 0x0 SWAP3 AND SWAP1 PUSH4 0x4A9FEFC7 SWAP1 PUSH1 0x24 ADD PUSH1 0x20 PUSH1 0x40 MLOAD DUP1 DUP4 SUB DUP2 DUP7 GAS STATICCALL ISZERO DUP1 ISZERO PUSH2 0x1FDF JUMPI RETURNDATASIZE PUSH1 0x0 DUP1 RETURNDATACOPY RETURNDATASIZE PUSH1 0x0 REVERT JUMPDEST POP POP POP POP PUSH1 0x40 MLOAD RETURNDATASIZE PUSH1 0x1F NOT PUSH1 0x1F DUP3 ADD AND DUP3 ADD DUP1 PUSH1 0x40 MSTORE POP DUP2 ADD SWAP1 PUSH2 0x2003 SWAP2 SWAP1 PUSH2 0x243A JUMP JUMPDEST SWAP1 POP PUSH1 0x1 PUSH1 0x1 PUSH1 0xA0 SHL SUB DUP2 AND PUSH2 0x2019 JUMPI POP PUSH2 0x1D93 JUMP JUMPDEST PUSH1 0x3 SLOAD PUSH1 0x40 MLOAD PUSH4 0xD9BD5F2D PUSH1 0xE0 SHL DUP2 MSTORE PUSH1 0x1 PUSH1 0x1 PUSH1 0xA0 SHL SUB DUP4 DUP2 AND PUSH1 0x4 DUP4 ADD MSTORE DUP6 DUP2 AND PUSH1 0x24 DUP4 ADD MSTORE PUSH1 0x44 DUP3 ADD DUP8 SWAP1 MSTORE SWAP1 SWAP2 AND SWAP1 PUSH4 0xD9BD5F2D SWAP1 PUSH1 0x64 ADD PUSH1 0x0 PUSH1 0x40 MLOAD DUP1 DUP4 SUB DUP2 PUSH1 0x0 DUP8 DUP1 EXTCODESIZE ISZERO DUP1 ISZERO PUSH2 0x206F JUMPI PUSH1 0x0 DUP1 REVERT JUMPDEST POP GAS CALL ISZERO DUP1 ISZERO PUSH2 0x2083 JUMPI RETURNDATASIZE PUSH1 0x0 DUP1 RETURNDATACOPY RETURNDATASIZE PUSH1 0x0 REVERT JUMPDEST POP SWAP3 SWAP5 POP POP PUSH1 0x1 SWAP1 SWAP3 ADD SWAP2 POP PUSH2 0x1F8B SWAP1 POP JUMP JUMPDEST PUSH1 0x0 DUP1 MLOAD PUSH1 0x20 PUSH2 0x2458 DUP4 CODECOPY DUP2 MLOAD SWAP2 MSTORE SLOAD PUSH1 0x2 SUB PUSH2 0x20C6 JUMPI PUSH1 0x40 MLOAD PUSH4 0x3EE5AEB5 PUSH1 0xE0 SHL DUP2 MSTORE PUSH1 0x4 ADD PUSH1 0x40 MLOAD DUP1 SWAP2 SUB SWAP1 REVERT JUMPDEST JUMP JUMPDEST PUSH1 0x40 MLOAD PUSH4 0xA9059CBB PUSH1 0xE0 SHL PUSH1 0x0 DUP2 DUP2 MSTORE PUSH1 0x1 PUSH1 0x1 PUSH1 0xA0 SHL SUB DUP7 AND PUSH1 0x4 MSTORE PUSH1 0x24 DUP6 SWAP1 MSTORE SWAP2 PUSH1 0x20 DUP4 PUSH1 0x44 DUP2 DUP1 DUP12 GAS CALL SWAP3 POP PUSH1 0x1 PUSH1 0x0 MLOAD EQ DUP4 AND PUSH2 0x2122 JUMPI DUP4 DUP4 ISZERO AND ISZERO PUSH2 0x2115 JUMPI RETURNDATASIZE PUSH1 0x0 DUP3 RETURNDATACOPY RETURNDATASIZE DUP2 REVERT JUMPDEST PUSH1 0x0 DUP8 EXTCODESIZE GT RETURNDATASIZE ISZERO AND DUP4 AND SWAP3 POP JUMPDEST PUSH1 0x40 MSTORE POP SWAP5 SWAP4 POP POP POP POP JUMP JUMPDEST PUSH1 0x40 MLOAD PUSH4 0x23B872DD PUSH1 0xE0 SHL PUSH1 0x0 DUP2 DUP2 MSTORE PUSH1 0x1 PUSH1 0x1 PUSH1 0xA0 SHL SUB DUP8 DUP2 AND PUSH1 0x4 MSTORE DUP7 AND PUSH1 0x24 MSTORE PUSH1 0x44 DUP6 SWAP1 MSTORE SWAP2 PUSH1 0x20 DUP4 PUSH1 0x64 DUP2 DUP1 DUP13 GAS CALL SWAP3 POP PUSH1 0x1 PUSH1 0x0 MLOAD EQ DUP4 AND PUSH2 0x218E JUMPI DUP4 DUP4 ISZERO AND ISZERO PUSH2 0x2181 JUMPI RETURNDATASIZE PUSH1 0x0 DUP3 RETURNDATACOPY RETURNDATASIZE DUP2 REVERT JUMPDEST PUSH1 0x0 DUP9 EXTCODESIZE GT RETURNDATASIZE ISZERO AND DUP4 AND SWAP3 POP JUMPDEST PUSH1 0x40 MSTORE POP PUSH1 0x0 PUSH1 0x60 MSTORE SWAP6 SWAP5 POP POP POP POP POP JUMP JUMPDEST PUSH1 0x40 MLOAD PUSH4 0x95EA7B3 PUSH1 0xE0 SHL PUSH1 0x0 DUP2 DUP2 MSTORE PUSH1 0x1 PUSH1 0x1 PUSH1 0xA0 SHL SUB DUP7 AND PUSH1 0x4 MSTORE PUSH1 0x24 DUP6 SWAP1 MSTORE SWAP2 PUSH1 0x20 DUP4 PUSH1 0x44 DUP2 DUP1 DUP12 GAS CALL SWAP3 POP PUSH1 0x1 PUSH1 0x0 MLOAD EQ DUP4 AND PUSH2 0x2122 JUMPI DUP4 DUP4 ISZERO AND ISZERO PUSH2 0x2115 JUMPI RETURNDATASIZE PUSH1 0x0 DUP3 RETURNDATACOPY RETURNDATASIZE DUP2 REVERT JUMPDEST PUSH1 0x0 DUP5 DUP5 GT PUSH2 0x21FD JUMPI POP DUP2 PUSH2 0x1F54 JUMP JUMPDEST PUSH1 0x0 PUSH2 0x2209 DUP5 DUP5 PUSH2 0x2386 JUMP JUMPDEST SWAP1 POP PUSH1 0x0 PUSH2 0x2217 DUP8 DUP8 PUSH2 0x2386 JUMP JUMPDEST SWAP1 POP DUP1 DUP3 PUSH2 0x2225 DUP10 DUP12 PUSH2 0x2386 JUMP JUMPDEST PUSH2 0x222F SWAP2 SWAP1 PUSH2 0x236F JUMP JUMPDEST PUSH2 0x2239 SWAP2 SWAP1 PUSH2 0x23FF JUMP JUMPDEST PUSH2 0x2243 SWAP1 DUP7 PUSH2 0x23B2 JUMP JUMPDEST SWAP9 SWAP8 POP POP POP POP POP POP POP POP JUMP JUMPDEST PUSH1 0x1 PUSH1 0x1 PUSH1 0xA0 SHL SUB DUP2 AND DUP2 EQ PUSH2 0xA4A JUMPI PUSH1 0x0 DUP1 REVERT JUMPDEST PUSH1 0x0 DUP1 PUSH1 0x40 DUP4 DUP6 SUB SLT ISZERO PUSH2 0x2277 JUMPI PUSH1 0x0 DUP1 REVERT JUMPDEST DUP3 CALLDATALOAD PUSH2 0x2282 DUP2 PUSH2 0x224F JUMP JUMPDEST SWAP5 PUSH1 0x20 SWAP4 SWAP1 SWAP4 ADD CALLDATALOAD SWAP4 POP POP POP JUMP JUMPDEST PUSH1 0x0 PUSH1 0x20 DUP3 DUP5 SUB SLT ISZERO PUSH2 0x22A2 JUMPI PUSH1 0x0 DUP1 REVERT JUMPDEST POP CALLDATALOAD SWAP2 SWAP1 POP JUMP JUMPDEST PUSH1 0x0 PUSH1 0x20 DUP3 DUP5 SUB SLT ISZERO PUSH2 0x22BB JUMPI PUSH1 0x0 DUP1 REVERT JUMPDEST DUP2 CALLDATALOAD PUSH2 0x1C1B DUP2 PUSH2 0x224F JUMP JUMPDEST PUSH1 0x0 PUSH1 0x20 DUP3 DUP5 SUB SLT ISZERO PUSH2 0x22D8 JUMPI PUSH1 0x0 DUP1 REVERT JUMPDEST DUP2 CALLDATALOAD DUP1 ISZERO ISZERO DUP2 EQ PUSH2 0x1C1B JUMPI PUSH1 0x0 DUP1 REVERT JUMPDEST PUSH1 0x0 DUP1 PUSH1 0x0 DUP1 PUSH1 0x0 PUSH1 0xA0 DUP7 DUP9 SUB SLT ISZERO PUSH2 0x2300 JUMPI PUSH1 0x0 DUP1 REVERT JUMPDEST DUP6 CALLDATALOAD PUSH2 0x230B DUP2 PUSH2 0x224F JUMP JUMPDEST SWAP5 POP PUSH1 0x20 DUP7 ADD CALLDATALOAD PUSH2 0x231B DUP2 PUSH2 0x224F JUMP JUMPDEST SWAP4 POP PUSH1 0x40 DUP7 ADD CALLDATALOAD PUSH2 0x232B DUP2 PUSH2 0x224F JUMP JUMPDEST SWAP3 POP PUSH1 0x60 DUP7 ADD CALLDATALOAD PUSH2 0x233B DUP2 PUSH2 0x224F JUMP JUMPDEST SWAP2 POP PUSH1 0x80 DUP7 ADD CALLDATALOAD PUSH2 0x234B DUP2 PUSH2 0x224F JUMP JUMPDEST DUP1 SWAP2 POP POP SWAP3 SWAP6 POP SWAP3 SWAP6 SWAP1 SWAP4 POP JUMP JUMPDEST PUSH4 0x4E487B71 PUSH1 0xE0 SHL PUSH1 0x0 MSTORE PUSH1 0x11 PUSH1 0x4 MSTORE PUSH1 0x24 PUSH1 0x0 REVERT JUMPDEST DUP1 DUP3 MUL DUP2 ISZERO DUP3 DUP3 DIV DUP5 EQ OR PUSH2 0xD1F JUMPI PUSH2 0xD1F PUSH2 0x2359 JUMP JUMPDEST DUP2 DUP2 SUB DUP2 DUP2 GT ISZERO PUSH2 0xD1F JUMPI PUSH2 0xD1F PUSH2 0x2359 JUMP JUMPDEST PUSH1 0x0 PUSH1 0x20 DUP3 DUP5 SUB SLT ISZERO PUSH2 0x23AB JUMPI PUSH1 0x0 DUP1 REVERT JUMPDEST POP MLOAD SWAP2 SWAP1 POP JUMP JUMPDEST DUP1 DUP3 ADD DUP1 DUP3 GT ISZERO PUSH2 0xD1F JUMPI PUSH2 0xD1F PUSH2 0x2359 JUMP JUMPDEST PUSH4 0x4E487B71 PUSH1 0xE0 SHL PUSH1 0x0 MSTORE PUSH1 0x32 PUSH1 0x4 MSTORE PUSH1 0x24 PUSH1 0x0 REVERT JUMPDEST PUSH1 0x0 DUP1 PUSH1 0x40 DUP4 DUP6 SUB SLT ISZERO PUSH2 0x23EE JUMPI PUSH1 0x0 DUP1 REVERT JUMPDEST POP POP DUP1 MLOAD PUSH1 0x20 SWAP1 SWAP2 ADD MLOAD SWAP1 SWAP3 SWAP1 SWAP2 POP JUMP JUMPDEST PUSH1 0x0 DUP3 PUSH2 0x241C JUMPI PUSH4 0x4E487B71 PUSH1 0xE0 SHL PUSH1 0x0 MSTORE PUSH1 0x12 PUSH1 0x4 MSTORE PUSH1 0x24 PUSH1 0x0 REVERT JUMPDEST POP DIV SWAP1 JUMP JUMPDEST PUSH1 0x0 PUSH1 0x1 DUP3 ADD PUSH2 0x2433 JUMPI PUSH2 0x2433 PUSH2 0x2359 JUMP JUMPDEST POP PUSH1 0x1 ADD SWAP1 JUMP JUMPDEST PUSH1 0x0 PUSH1 0x20 DUP3 DUP5 SUB SLT ISZERO PUSH2 0x244C JUMPI PUSH1 0x0 DUP1 REVERT JUMPDEST DUP2 MLOAD PUSH2 0x1C1B DUP2 PUSH2 0x224F JUMP INVALID SWAP12 PUSH24 0x9B17422D0DF92223018B32B4D1FA46E071723D6817E2486D STOP EXTCODESIZE 0xEC 0xC5 PUSH0 STOP LOG2 PUSH5 0x6970667358 0x22 SLT KECCAK256 0xE LOG3 SWAP13 EXTCODEHASH CREATE SHR SWAP4 0xF9 0xC2 MSIZE CALLDATASIZE SWAP5 DUP7 0xAE SSTORE EXTCODECOPY 0xB6 0xA5 0xAA 0xD4 SWAP3 DELEGATECALL BASEFEE 0xFC 0xAC SWAP14 SWAP8 PUSH11 0x8071610C64736F6C634300 ADDMOD XOR STOP CALLER "},"methodIdentifiers":{"admin()":"f851a440","claimRewards(uint256)":"0962ef79","completeSetup()":"8aea8f71","configure(address,address,address,address,address)":"760fcb3e","deposit(uint256)":"b6b55f25","depositsPaused()":"60da3e83","earlyExit(uint256)":"b8af3d3e","getActiveDeposit(address)":"142a3da3","getCombinedEarnings(address)":"3a6f2dcd","getDepositCount(address)":"13fcaf54","getEarlyExitAmount(address,uint256)":"ceace7dd","getPendingRewards(address,uint256)":"e4e7c6b4","getUserTier(address)":"e4d2620e","isInEarlyExitPeriod(address,uint256)":"786685e0","launchTimestamp()":"65cf7c9b","minClaimThreshold()":"3695dad1","notifyLevelIncome(address,uint256)":"6b9f7ab6","notifyRankBonus(address,uint256)":"ac948e83","osloDex()":"8565c2bf","osloToken()":"2acfbca3","rankSystem()":"e9a16bd5","referral()":"1441a5a9","setDepositsPaused(bool)":"1c481e2d","setMinClaimThreshold(uint256)":"51637ba9","setReferral(address)":"9e5914da","setupComplete()":"b6635be6","timelock()":"d33219b4","totalDeposited()":"ff50abdc","totalRewardsPaid()":"74958e35","totalWithdrawn()":"4b319713","treasury()":"61d027b3","usdt()":"2f48ab7d","userDeposits(address,uint256)":"08f43333","users(address)":"a87430ba"}}}}}