{"contracts/OSLOToken.sol":{"OSLOToken":{"abi":[{"inputs":[],"stateMutability":"nonpayable","type":"constructor"},{"inputs":[{"internalType":"address","name":"spender","type":"address"},{"internalType":"uint256","name":"allowance","type":"uint256"},{"internalType":"uint256","name":"needed","type":"uint256"}],"name":"ERC20InsufficientAllowance","type":"error"},{"inputs":[{"internalType":"address","name":"sender","type":"address"},{"internalType":"uint256","name":"balance","type":"uint256"},{"internalType":"uint256","name":"needed","type":"uint256"}],"name":"ERC20InsufficientBalance","type":"error"},{"inputs":[{"internalType":"address","name":"approver","type":"address"}],"name":"ERC20InvalidApprover","type":"error"},{"inputs":[{"internalType":"address","name":"receiver","type":"address"}],"name":"ERC20InvalidReceiver","type":"error"},{"inputs":[{"internalType":"address","name":"sender","type":"address"}],"name":"ERC20InvalidSender","type":"error"},{"inputs":[{"internalType":"address","name":"spender","type":"address"}],"name":"ERC20InvalidSpender","type":"error"},{"inputs":[],"name":"OnlyAdmin","type":"error"},{"inputs":[],"name":"OnlyTimelock","type":"error"},{"inputs":[],"name":"ReentrancyGuardReentrantCall","type":"error"},{"inputs":[],"name":"SetupAlreadyComplete","type":"error"},{"inputs":[],"name":"ZeroAddress","type":"error"},{"anonymous":false,"inputs":[{"indexed":true,"internalType":"address","name":"owner","type":"address"},{"indexed":true,"internalType":"address","name":"spender","type":"address"},{"indexed":false,"internalType":"uint256","name":"value","type":"uint256"}],"name":"Approval","type":"event"},{"anonymous":false,"inputs":[{"indexed":true,"internalType":"address","name":"endpoint","type":"address"},{"indexed":false,"internalType":"bool","name":"status","type":"bool"}],"name":"SellEndpointSet","type":"event"},{"anonymous":false,"inputs":[{"indexed":true,"internalType":"address","name":"from","type":"address"},{"indexed":false,"internalType":"uint256","name":"taxAmount","type":"uint256"},{"indexed":false,"internalType":"uint256","name":"toLp","type":"uint256"},{"indexed":false,"internalType":"uint256","name":"burned","type":"uint256"}],"name":"SellTaxApplied","type":"event"},{"anonymous":false,"inputs":[],"name":"SetupCompleted","type":"event"},{"anonymous":false,"inputs":[{"indexed":true,"internalType":"address","name":"from","type":"address"},{"indexed":true,"internalType":"address","name":"to","type":"address"},{"indexed":false,"internalType":"uint256","name":"value","type":"uint256"}],"name":"Transfer","type":"event"},{"inputs":[],"name":"admin","outputs":[{"internalType":"address","name":"","type":"address"}],"stateMutability":"view","type":"function"},{"inputs":[{"internalType":"address","name":"owner","type":"address"},{"internalType":"address","name":"spender","type":"address"}],"name":"allowance","outputs":[{"internalType":"uint256","name":"","type":"uint256"}],"stateMutability":"view","type":"function"},{"inputs":[{"internalType":"address","name":"spender","type":"address"},{"internalType":"uint256","name":"value","type":"uint256"}],"name":"approve","outputs":[{"internalType":"bool","name":"","type":"bool"}],"stateMutability":"nonpayable","type":"function"},{"inputs":[{"internalType":"address","name":"account","type":"address"}],"name":"balanceOf","outputs":[{"internalType":"uint256","name":"","type":"uint256"}],"stateMutability":"view","type":"function"},{"inputs":[{"internalType":"uint256","name":"value","type":"uint256"}],"name":"burn","outputs":[],"stateMutability":"nonpayable","type":"function"},{"inputs":[{"internalType":"address","name":"account","type":"address"},{"internalType":"uint256","name":"value","type":"uint256"}],"name":"burnFrom","outputs":[],"stateMutability":"nonpayable","type":"function"},{"inputs":[],"name":"completeSetup","outputs":[],"stateMutability":"nonpayable","type":"function"},{"inputs":[],"name":"decimals","outputs":[{"internalType":"uint8","name":"","type":"uint8"}],"stateMutability":"view","type":"function"},{"inputs":[],"name":"investmentEngine","outputs":[{"internalType":"address","name":"","type":"address"}],"stateMutability":"view","type":"function"},{"inputs":[{"internalType":"address","name":"","type":"address"}],"name":"isSellEndpoint","outputs":[{"internalType":"bool","name":"","type":"bool"}],"stateMutability":"view","type":"function"},{"inputs":[{"internalType":"address","name":"account","type":"address"}],"name":"isTaxWhitelisted","outputs":[{"internalType":"bool","name":"","type":"bool"}],"stateMutability":"view","type":"function"},{"inputs":[],"name":"liquidityManager","outputs":[{"internalType":"address","name":"","type":"address"}],"stateMutability":"view","type":"function"},{"inputs":[],"name":"name","outputs":[{"internalType":"string","name":"","type":"string"}],"stateMutability":"view","type":"function"},{"inputs":[{"internalType":"address","name":"endpoint","type":"address"},{"internalType":"bool","name":"status","type":"bool"}],"name":"setSellEndpoint","outputs":[],"stateMutability":"nonpayable","type":"function"},{"inputs":[{"internalType":"address","name":"_liquidityManager","type":"address"},{"internalType":"address","name":"_investmentEngine","type":"address"}],"name":"setSellTaxAddresses","outputs":[],"stateMutability":"nonpayable","type":"function"},{"inputs":[{"internalType":"address","name":"account","type":"address"},{"internalType":"bool","name":"whitelisted","type":"bool"}],"name":"setTaxWhitelist","outputs":[],"stateMutability":"nonpayable","type":"function"},{"inputs":[{"internalType":"address","name":"_timelock","type":"address"}],"name":"setTimelock","outputs":[],"stateMutability":"nonpayable","type":"function"},{"inputs":[],"name":"setupComplete","outputs":[{"internalType":"bool","name":"","type":"bool"}],"stateMutability":"view","type":"function"},{"inputs":[],"name":"symbol","outputs":[{"internalType":"string","name":"","type":"string"}],"stateMutability":"view","type":"function"},{"inputs":[],"name":"timelock","outputs":[{"internalType":"address","name":"","type":"address"}],"stateMutability":"view","type":"function"},{"inputs":[],"name":"totalBurned","outputs":[{"internalType":"uint256","name":"","type":"uint256"}],"stateMutability":"view","type":"function"},{"inputs":[],"name":"totalSupply","outputs":[{"internalType":"uint256","name":"","type":"uint256"}],"stateMutability":"view","type":"function"},{"inputs":[{"internalType":"address","name":"to","type":"address"},{"internalType":"uint256","name":"value","type":"uint256"}],"name":"transfer","outputs":[{"internalType":"bool","name":"","type":"bool"}],"stateMutability":"nonpayable","type":"function"},{"inputs":[{"internalType":"address","name":"from","type":"address"},{"internalType":"address","name":"to","type":"address"},{"internalType":"uint256","name":"value","type":"uint256"}],"name":"transferFrom","outputs":[{"internalType":"bool","name":"","type":"bool"}],"stateMutability":"nonpayable","type":"function"}],"evm":{"bytecode":{"linkReferences":{},"object":"60806040523480156200001157600080fd5b506040518060400160405280600d81526020016c13d4d313c8141c9bdd1bd8dbdb609a1b815250604051806040016040528060048152602001634f534c4f60e01b815250816003908162000066919062000594565b50600462000075828262000594565b5050506001620000916200008e620000c460201b60201c565b90565b55600a80546001600160a01b03191633908117909155620000be906a092e8434aaaf80e1800000620000e8565b620006e5565b7f9b779b17422d0df92223018b32b4d1fa46e071723d6817e2486d003becc55f0090565b6001600160a01b038216620001185760405163ec442f0560e01b8152600060048201526024015b60405180910390fd5b62000126600083836200012a565b5050565b6001600160a01b03831615806200014857506001600160a01b038216155b806200016c57506001600160a01b03831660009081526008602052604090205460ff165b806200019157506001600160a01b03821660009081526009602052604090205460ff16155b80620001a657506006546001600160a01b0316155b15620001be57620001b9838383620003bb565b505050565b6000612710620001d16103e88462000676565b620001dd919062000696565b90506000612710620001f284611b5862000676565b620001fe919062000696565b9050600061271062000213856107d062000676565b6200021f919062000696565b905060006200022f8285620006b9565b9050600083620002408388620006cf565b6200024c9190620006cf565b90506200025b888883620003bb565b6000841180156200027657506007546001600160a01b031615155b156200029657600754620002969089906001600160a01b031686620003bb565b60008215620003645760006005546a084376fc33378d97c0000011620002be576000620002d8565b600554620002d8906a084376fc33378d97c00000620006cf565b9050808411620002e95783620002eb565b805b915081156200031d57620003038a61dead84620003bb565b8160056000828254620003179190620006b9565b90915550505b81841180156200033757506007546001600160a01b031615155b15620003625760075462000362908b906001600160a01b03166200035c8588620006cf565b620003bb565b505b60408051878152600060208201529081018290526001600160a01b038a16907f03a28a3f260782b9c7457ce168826d3100aa6bf6e1124486977dde225498cc479060600160405180910390a2505050505050505050565b6001600160a01b038316620003ea578060026000828254620003de9190620006b9565b909155506200045e9050565b6001600160a01b038316600090815260208190526040902054818110156200043f5760405163391434e360e21b81526001600160a01b038516600482015260248101829052604481018390526064016200010f565b6001600160a01b03841660009081526020819052604090209082900390555b6001600160a01b0382166200047c576002805482900390556200049b565b6001600160a01b03821660009081526020819052604090208054820190555b816001600160a01b0316836001600160a01b03167fddf252ad1be2c89b69c2b068fc378daa952ba7f163c4a11628f55a4df523b3ef83604051620004e191815260200190565b60405180910390a3505050565b634e487b7160e01b600052604160045260246000fd5b600181811c908216806200051957607f821691505b6020821081036200053a57634e487b7160e01b600052602260045260246000fd5b50919050565b601f821115620001b9576000816000526020600020601f850160051c810160208610156200056b5750805b601f850160051c820191505b818110156200058c5782815560010162000577565b505050505050565b81516001600160401b03811115620005b057620005b0620004ee565b620005c881620005c1845462000504565b8462000540565b602080601f831160018114620006005760008415620005e75750858301515b600019600386901b1c1916600185901b1785556200058c565b600085815260208120601f198616915b82811015620006315788860151825594840194600190910190840162000610565b5085821015620006505787850151600019600388901b60f8161c191681555b5050505050600190811b01905550565b634e487b7160e01b600052601160045260246000fd5b808202811582820484141762000690576200069062000660565b92915050565b600082620006b457634e487b7160e01b600052601260045260246000fd5b500490565b8082018082111562000690576200069062000660565b8181038181111562000690576200069062000660565b610fcb80620006f56000396000f3fe608060405234801561001057600080fd5b50600436106101585760003560e01c806370a08231116100c3578063bdacb3031161007c578063bdacb303146102fd578063d33219b414610310578063d5f5b10f14610323578063d89135cd14610346578063dd62ed3e1461034f578063f851a4401461038857600080fd5b806370a082311461028a57806379cc6790146102b35780638aea8f71146102c657806395d89b41146102ce578063a9059cbb146102d6578063b6635be6146102e957600080fd5b8063338274381161011557806333827438146101fd5780633ac16f201461021057806342966c681461022557806347ce0e4f146102385780635383a2c41461024b5780635afde0631461027757600080fd5b806306fdde031461015d578063095ea7b31461017b57806318160ddd1461019e57806323b872dd146101b057806330131384146101c3578063313ce567146101ee575b600080fd5b61016561039b565b6040516101729190610d6b565b60405180910390f35b61018e610189366004610dd6565b61042d565b6040519015158152602001610172565b6002545b604051908152602001610172565b61018e6101be366004610e00565b610447565b6007546101d6906001600160a01b031681565b6040516001600160a01b039091168152602001610172565b60405160128152602001610172565b6006546101d6906001600160a01b031681565b61022361021e366004610e3c565b61046b565b005b610223610233366004610e6f565b61052a565b610223610246366004610e88565b610537565b61018e610259366004610ec4565b6001600160a01b031660009081526008602052604090205460ff1690565b610223610285366004610e88565b6105ec565b6101a2610298366004610ec4565b6001600160a01b031660009081526020819052604090205490565b6102236102c1366004610dd6565b61066d565b610223610686565b61016561072a565b61018e6102e4366004610dd6565b610739565b600b5461018e90600160a01b900460ff1681565b61022361030b366004610ec4565b610747565b600b546101d6906001600160a01b031681565b61018e610331366004610ec4565b60096020526000908152604090205460ff1681565b6101a260055481565b6101a261035d366004610e3c565b6001600160a01b03918216600090815260016020908152604080832093909416825291909152205490565b600a546101d6906001600160a01b031681565b6060600380546103aa90610ee6565b80601f01602080910402602001604051908101604052809291908181526020018280546103d690610ee6565b80156104235780601f106103f857610100808354040283529160200191610423565b820191906000526020600020905b81548152906001019060200180831161040657829003601f168201915b5050505050905090565b60003361043b8185856107e6565b60019150505b92915050565b6000336104558582856107f8565b61046085858561087c565b506001949350505050565b600a546001600160a01b0316331461049657604051634755657960e01b815260040160405180910390fd5b600b54600160a01b900460ff16156104c15760405163238f75d360e01b815260040160405180910390fd5b6001600160a01b03821615806104de57506001600160a01b038116155b156104fc5760405163d92e233d60e01b815260040160405180910390fd5b600680546001600160a01b039384166001600160a01b03199182161790915560078054929093169116179055565b61053433826108db565b50565b600a546001600160a01b0316331461056257604051634755657960e01b815260040160405180910390fd5b600b54600160a01b900460ff161561058d5760405163238f75d360e01b815260040160405180910390fd5b6001600160a01b038216600081815260096020908152604091829020805460ff191685151590811790915591519182527f63b13414a783af74e319d8e85d3970126f5cd6c94a17e53a01689efc01bd2f6e910160405180910390a25050565b600a546001600160a01b0316331461061757604051634755657960e01b815260040160405180910390fd5b600b54600160a01b900460ff16156106425760405163238f75d360e01b815260040160405180910390fd5b6001600160a01b03919091166000908152600860205260409020805460ff1916911515919091179055565b6106788233836107f8565b61068282826108db565b5050565b600a546001600160a01b031633146106b157604051634755657960e01b815260040160405180910390fd5b600b54600160a01b900460ff16156106dc5760405163238f75d360e01b815260040160405180910390fd5b600b805460ff60a01b1916600160a01b179055600a80546001600160a01b03191690556040517f8601fb6b43cf244c5828073ea9e16745bc09e755520a6a80cecae662b31db52890600090a1565b6060600480546103aa90610ee6565b60003361043b81858561087c565b600a546001600160a01b0316331461077257604051634755657960e01b815260040160405180910390fd5b600b54600160a01b900460ff161561079d5760405163238f75d360e01b815260040160405180910390fd5b6001600160a01b0381166107c45760405163d92e233d60e01b815260040160405180910390fd5b600b80546001600160a01b0319166001600160a01b0392909216919091179055565b6107f38383836001610911565b505050565b6001600160a01b03838116600090815260016020908152604080832093861683529290522054600019811015610876578181101561086757604051637dc7a0d960e11b81526001600160a01b038416600482015260248101829052604481018390526064015b60405180910390fd5b61087684848484036000610911565b50505050565b6001600160a01b0383166108a657604051634b637e8f60e11b81526000600482015260240161085e565b6001600160a01b0382166108d05760405163ec442f0560e01b81526000600482015260240161085e565b6107f38383836109e6565b6001600160a01b03821661090557604051634b637e8f60e11b81526000600482015260240161085e565b610682826000836109e6565b6001600160a01b03841661093b5760405163e602df0560e01b81526000600482015260240161085e565b6001600160a01b03831661096557604051634a1406b160e11b81526000600482015260240161085e565b6001600160a01b038085166000908152600160209081526040808320938716835292905220829055801561087657826001600160a01b0316846001600160a01b03167f8c5be1e5ebec7d5bd14f71427d1e84f3dd0314c0f7b2291e5b200ac8c7c3b925846040516109d891815260200190565b60405180910390a350505050565b6001600160a01b0383161580610a0357506001600160a01b038216155b80610a2657506001600160a01b03831660009081526008602052604090205460ff165b80610a4a57506001600160a01b03821660009081526009602052604090205460ff16155b80610a5e57506006546001600160a01b0316155b15610a6e576107f3838383610c41565b6000612710610a7f6103e884610f36565b610a899190610f4d565b90506000612710610a9c84611b58610f36565b610aa69190610f4d565b90506000612710610ab9856107d0610f36565b610ac39190610f4d565b90506000610ad18285610f6f565b9050600083610ae08388610f82565b610aea9190610f82565b9050610af7888883610c41565b600084118015610b1157506007546001600160a01b031615155b15610b2e57600754610b2e9089906001600160a01b031686610c41565b60008215610bea5760006005546a084376fc33378d97c0000011610b53576000610b6b565b600554610b6b906a084376fc33378d97c00000610f82565b9050808411610b7a5783610b7c565b805b91508115610ba957610b918a61dead84610c41565b8160056000828254610ba39190610f6f565b90915550505b8184118015610bc257506007546001600160a01b031615155b15610be857600754610be8908b906001600160a01b0316610be38588610f82565b610c41565b505b60408051878152600060208201529081018290526001600160a01b038a16907f03a28a3f260782b9c7457ce168826d3100aa6bf6e1124486977dde225498cc479060600160405180910390a2505050505050505050565b6001600160a01b038316610c6c578060026000828254610c619190610f6f565b90915550610cde9050565b6001600160a01b03831660009081526020819052604090205481811015610cbf5760405163391434e360e21b81526001600160a01b0385166004820152602481018290526044810183905260640161085e565b6001600160a01b03841660009081526020819052604090209082900390555b6001600160a01b038216610cfa57600280548290039055610d19565b6001600160a01b03821660009081526020819052604090208054820190555b816001600160a01b0316836001600160a01b03167fddf252ad1be2c89b69c2b068fc378daa952ba7f163c4a11628f55a4df523b3ef83604051610d5e91815260200190565b60405180910390a3505050565b60006020808352835180602085015260005b81811015610d9957858101830151858201604001528201610d7d565b506000604082860101526040601f19601f8301168501019250505092915050565b80356001600160a01b0381168114610dd157600080fd5b919050565b60008060408385031215610de957600080fd5b610df283610dba565b946020939093013593505050565b600080600060608486031215610e1557600080fd5b610e1e84610dba565b9250610e2c60208501610dba565b9150604084013590509250925092565b60008060408385031215610e4f57600080fd5b610e5883610dba565b9150610e6660208401610dba565b90509250929050565b600060208284031215610e8157600080fd5b5035919050565b60008060408385031215610e9b57600080fd5b610ea483610dba565b915060208301358015158114610eb957600080fd5b809150509250929050565b600060208284031215610ed657600080fd5b610edf82610dba565b9392505050565b600181811c90821680610efa57607f821691505b602082108103610f1a57634e487b7160e01b600052602260045260246000fd5b50919050565b634e487b7160e01b600052601160045260246000fd5b808202811582820484141761044157610441610f20565b600082610f6a57634e487b7160e01b600052601260045260246000fd5b500490565b8082018082111561044157610441610f20565b8181038181111561044157610441610f2056fea26469706673582212206f0cdf9c4ed6f8fd451c8f0257304d791afeed626965f0760f28106e605f65c464736f6c63430008180033","opcodes":"PUSH1 0x80 PUSH1 0x40 MSTORE CALLVALUE DUP1 ISZERO PUSH3 0x11 JUMPI PUSH1 0x0 DUP1 REVERT JUMPDEST POP PUSH1 0x40 MLOAD DUP1 PUSH1 0x40 ADD PUSH1 0x40 MSTORE DUP1 PUSH1 0xD DUP2 MSTORE PUSH1 0x20 ADD PUSH13 0x13D4D313C8141C9BDD1BD8DBDB PUSH1 0x9A SHL DUP2 MSTORE POP PUSH1 0x40 MLOAD DUP1 PUSH1 0x40 ADD PUSH1 0x40 MSTORE DUP1 PUSH1 0x4 DUP2 MSTORE PUSH1 0x20 ADD PUSH4 0x4F534C4F PUSH1 0xE0 SHL DUP2 MSTORE POP DUP2 PUSH1 0x3 SWAP1 DUP2 PUSH3 0x66 SWAP2 SWAP1 PUSH3 0x594 JUMP JUMPDEST POP PUSH1 0x4 PUSH3 0x75 DUP3 DUP3 PUSH3 0x594 JUMP JUMPDEST POP POP POP PUSH1 0x1 PUSH3 0x91 PUSH3 0x8E PUSH3 0xC4 PUSH1 0x20 SHL PUSH1 0x20 SHR JUMP JUMPDEST SWAP1 JUMP JUMPDEST SSTORE PUSH1 0xA DUP1 SLOAD PUSH1 0x1 PUSH1 0x1 PUSH1 0xA0 SHL SUB NOT AND CALLER SWAP1 DUP2 OR SWAP1 SWAP2 SSTORE PUSH3 0xBE SWAP1 PUSH11 0x92E8434AAAF80E1800000 PUSH3 0xE8 JUMP JUMPDEST PUSH3 0x6E5 JUMP JUMPDEST PUSH32 0x9B779B17422D0DF92223018B32B4D1FA46E071723D6817E2486D003BECC55F00 SWAP1 JUMP JUMPDEST PUSH1 0x1 PUSH1 0x1 PUSH1 0xA0 SHL SUB DUP3 AND PUSH3 0x118 JUMPI PUSH1 0x40 MLOAD PUSH4 0xEC442F05 PUSH1 0xE0 SHL DUP2 MSTORE PUSH1 0x0 PUSH1 0x4 DUP3 ADD MSTORE PUSH1 0x24 ADD JUMPDEST PUSH1 0x40 MLOAD DUP1 SWAP2 SUB SWAP1 REVERT JUMPDEST PUSH3 0x126 PUSH1 0x0 DUP4 DUP4 PUSH3 0x12A JUMP JUMPDEST POP POP JUMP JUMPDEST PUSH1 0x1 PUSH1 0x1 PUSH1 0xA0 SHL SUB DUP4 AND ISZERO DUP1 PUSH3 0x148 JUMPI POP PUSH1 0x1 PUSH1 0x1 PUSH1 0xA0 SHL SUB DUP3 AND ISZERO JUMPDEST DUP1 PUSH3 0x16C JUMPI POP PUSH1 0x1 PUSH1 0x1 PUSH1 0xA0 SHL SUB DUP4 AND PUSH1 0x0 SWAP1 DUP2 MSTORE PUSH1 0x8 PUSH1 0x20 MSTORE PUSH1 0x40 SWAP1 KECCAK256 SLOAD PUSH1 0xFF AND JUMPDEST DUP1 PUSH3 0x191 JUMPI POP PUSH1 0x1 PUSH1 0x1 PUSH1 0xA0 SHL SUB DUP3 AND PUSH1 0x0 SWAP1 DUP2 MSTORE PUSH1 0x9 PUSH1 0x20 MSTORE PUSH1 0x40 SWAP1 KECCAK256 SLOAD PUSH1 0xFF AND ISZERO JUMPDEST DUP1 PUSH3 0x1A6 JUMPI POP PUSH1 0x6 SLOAD PUSH1 0x1 PUSH1 0x1 PUSH1 0xA0 SHL SUB AND ISZERO JUMPDEST ISZERO PUSH3 0x1BE JUMPI PUSH3 0x1B9 DUP4 DUP4 DUP4 PUSH3 0x3BB JUMP JUMPDEST POP POP POP JUMP JUMPDEST PUSH1 0x0 PUSH2 0x2710 PUSH3 0x1D1 PUSH2 0x3E8 DUP5 PUSH3 0x676 JUMP JUMPDEST PUSH3 0x1DD SWAP2 SWAP1 PUSH3 0x696 JUMP JUMPDEST SWAP1 POP PUSH1 0x0 PUSH2 0x2710 PUSH3 0x1F2 DUP5 PUSH2 0x1B58 PUSH3 0x676 JUMP JUMPDEST PUSH3 0x1FE SWAP2 SWAP1 PUSH3 0x696 JUMP JUMPDEST SWAP1 POP PUSH1 0x0 PUSH2 0x2710 PUSH3 0x213 DUP6 PUSH2 0x7D0 PUSH3 0x676 JUMP JUMPDEST PUSH3 0x21F SWAP2 SWAP1 PUSH3 0x696 JUMP JUMPDEST SWAP1 POP PUSH1 0x0 PUSH3 0x22F DUP3 DUP6 PUSH3 0x6B9 JUMP JUMPDEST SWAP1 POP PUSH1 0x0 DUP4 PUSH3 0x240 DUP4 DUP9 PUSH3 0x6CF JUMP JUMPDEST PUSH3 0x24C SWAP2 SWAP1 PUSH3 0x6CF JUMP JUMPDEST SWAP1 POP PUSH3 0x25B DUP9 DUP9 DUP4 PUSH3 0x3BB JUMP JUMPDEST PUSH1 0x0 DUP5 GT DUP1 ISZERO PUSH3 0x276 JUMPI POP PUSH1 0x7 SLOAD PUSH1 0x1 PUSH1 0x1 PUSH1 0xA0 SHL SUB AND ISZERO ISZERO JUMPDEST ISZERO PUSH3 0x296 JUMPI PUSH1 0x7 SLOAD PUSH3 0x296 SWAP1 DUP10 SWAP1 PUSH1 0x1 PUSH1 0x1 PUSH1 0xA0 SHL SUB AND DUP7 PUSH3 0x3BB JUMP JUMPDEST PUSH1 0x0 DUP3 ISZERO PUSH3 0x364 JUMPI PUSH1 0x0 PUSH1 0x5 SLOAD PUSH11 0x84376FC33378D97C00000 GT PUSH3 0x2BE JUMPI PUSH1 0x0 PUSH3 0x2D8 JUMP JUMPDEST PUSH1 0x5 SLOAD PUSH3 0x2D8 SWAP1 PUSH11 0x84376FC33378D97C00000 PUSH3 0x6CF JUMP JUMPDEST SWAP1 POP DUP1 DUP5 GT PUSH3 0x2E9 JUMPI DUP4 PUSH3 0x2EB JUMP JUMPDEST DUP1 JUMPDEST SWAP2 POP DUP2 ISZERO PUSH3 0x31D JUMPI PUSH3 0x303 DUP11 PUSH2 0xDEAD DUP5 PUSH3 0x3BB JUMP JUMPDEST DUP2 PUSH1 0x5 PUSH1 0x0 DUP3 DUP3 SLOAD PUSH3 0x317 SWAP2 SWAP1 PUSH3 0x6B9 JUMP JUMPDEST SWAP1 SWAP2 SSTORE POP POP JUMPDEST DUP2 DUP5 GT DUP1 ISZERO PUSH3 0x337 JUMPI POP PUSH1 0x7 SLOAD PUSH1 0x1 PUSH1 0x1 PUSH1 0xA0 SHL SUB AND ISZERO ISZERO JUMPDEST ISZERO PUSH3 0x362 JUMPI PUSH1 0x7 SLOAD PUSH3 0x362 SWAP1 DUP12 SWAP1 PUSH1 0x1 PUSH1 0x1 PUSH1 0xA0 SHL SUB AND PUSH3 0x35C DUP6 DUP9 PUSH3 0x6CF JUMP JUMPDEST PUSH3 0x3BB JUMP JUMPDEST POP JUMPDEST PUSH1 0x40 DUP1 MLOAD DUP8 DUP2 MSTORE PUSH1 0x0 PUSH1 0x20 DUP3 ADD MSTORE SWAP1 DUP2 ADD DUP3 SWAP1 MSTORE PUSH1 0x1 PUSH1 0x1 PUSH1 0xA0 SHL SUB DUP11 AND SWAP1 PUSH32 0x3A28A3F260782B9C7457CE168826D3100AA6BF6E1124486977DDE225498CC47 SWAP1 PUSH1 0x60 ADD PUSH1 0x40 MLOAD DUP1 SWAP2 SUB SWAP1 LOG2 POP POP POP POP POP POP POP POP POP JUMP JUMPDEST PUSH1 0x1 PUSH1 0x1 PUSH1 0xA0 SHL SUB DUP4 AND PUSH3 0x3EA JUMPI DUP1 PUSH1 0x2 PUSH1 0x0 DUP3 DUP3 SLOAD PUSH3 0x3DE SWAP2 SWAP1 PUSH3 0x6B9 JUMP JUMPDEST SWAP1 SWAP2 SSTORE POP PUSH3 0x45E SWAP1 POP JUMP JUMPDEST PUSH1 0x1 PUSH1 0x1 PUSH1 0xA0 SHL SUB DUP4 AND PUSH1 0x0 SWAP1 DUP2 MSTORE PUSH1 0x20 DUP2 SWAP1 MSTORE PUSH1 0x40 SWAP1 KECCAK256 SLOAD DUP2 DUP2 LT ISZERO PUSH3 0x43F JUMPI PUSH1 0x40 MLOAD PUSH4 0x391434E3 PUSH1 0xE2 SHL DUP2 MSTORE PUSH1 0x1 PUSH1 0x1 PUSH1 0xA0 SHL SUB DUP6 AND PUSH1 0x4 DUP3 ADD MSTORE PUSH1 0x24 DUP2 ADD DUP3 SWAP1 MSTORE PUSH1 0x44 DUP2 ADD DUP4 SWAP1 MSTORE PUSH1 0x64 ADD PUSH3 0x10F JUMP JUMPDEST PUSH1 0x1 PUSH1 0x1 PUSH1 0xA0 SHL SUB DUP5 AND PUSH1 0x0 SWAP1 DUP2 MSTORE PUSH1 0x20 DUP2 SWAP1 MSTORE PUSH1 0x40 SWAP1 KECCAK256 SWAP1 DUP3 SWAP1 SUB SWAP1 SSTORE JUMPDEST PUSH1 0x1 PUSH1 0x1 PUSH1 0xA0 SHL SUB DUP3 AND PUSH3 0x47C JUMPI PUSH1 0x2 DUP1 SLOAD DUP3 SWAP1 SUB SWAP1 SSTORE PUSH3 0x49B JUMP JUMPDEST PUSH1 0x1 PUSH1 0x1 PUSH1 0xA0 SHL SUB DUP3 AND PUSH1 0x0 SWAP1 DUP2 MSTORE PUSH1 0x20 DUP2 SWAP1 MSTORE PUSH1 0x40 SWAP1 KECCAK256 DUP1 SLOAD DUP3 ADD SWAP1 SSTORE JUMPDEST DUP2 PUSH1 0x1 PUSH1 0x1 PUSH1 0xA0 SHL SUB AND DUP4 PUSH1 0x1 PUSH1 0x1 PUSH1 0xA0 SHL SUB AND PUSH32 0xDDF252AD1BE2C89B69C2B068FC378DAA952BA7F163C4A11628F55A4DF523B3EF DUP4 PUSH1 0x40 MLOAD PUSH3 0x4E1 SWAP2 DUP2 MSTORE PUSH1 0x20 ADD SWAP1 JUMP JUMPDEST PUSH1 0x40 MLOAD DUP1 SWAP2 SUB SWAP1 LOG3 POP POP POP JUMP JUMPDEST PUSH4 0x4E487B71 PUSH1 0xE0 SHL PUSH1 0x0 MSTORE PUSH1 0x41 PUSH1 0x4 MSTORE PUSH1 0x24 PUSH1 0x0 REVERT JUMPDEST PUSH1 0x1 DUP2 DUP2 SHR SWAP1 DUP3 AND DUP1 PUSH3 0x519 JUMPI PUSH1 0x7F DUP3 AND SWAP2 POP JUMPDEST PUSH1 0x20 DUP3 LT DUP2 SUB PUSH3 0x53A JUMPI PUSH4 0x4E487B71 PUSH1 0xE0 SHL PUSH1 0x0 MSTORE PUSH1 0x22 PUSH1 0x4 MSTORE PUSH1 0x24 PUSH1 0x0 REVERT JUMPDEST POP SWAP2 SWAP1 POP JUMP JUMPDEST PUSH1 0x1F DUP3 GT ISZERO PUSH3 0x1B9 JUMPI PUSH1 0x0 DUP2 PUSH1 0x0 MSTORE PUSH1 0x20 PUSH1 0x0 KECCAK256 PUSH1 0x1F DUP6 ADD PUSH1 0x5 SHR DUP2 ADD PUSH1 0x20 DUP7 LT ISZERO PUSH3 0x56B JUMPI POP DUP1 JUMPDEST PUSH1 0x1F DUP6 ADD PUSH1 0x5 SHR DUP3 ADD SWAP2 POP JUMPDEST DUP2 DUP2 LT ISZERO PUSH3 0x58C JUMPI DUP3 DUP2 SSTORE PUSH1 0x1 ADD PUSH3 0x577 JUMP JUMPDEST POP POP POP POP POP POP JUMP JUMPDEST DUP2 MLOAD PUSH1 0x1 PUSH1 0x1 PUSH1 0x40 SHL SUB DUP2 GT ISZERO PUSH3 0x5B0 JUMPI PUSH3 0x5B0 PUSH3 0x4EE JUMP JUMPDEST PUSH3 0x5C8 DUP2 PUSH3 0x5C1 DUP5 SLOAD PUSH3 0x504 JUMP JUMPDEST DUP5 PUSH3 0x540 JUMP JUMPDEST PUSH1 0x20 DUP1 PUSH1 0x1F DUP4 GT PUSH1 0x1 DUP2 EQ PUSH3 0x600 JUMPI PUSH1 0x0 DUP5 ISZERO PUSH3 0x5E7 JUMPI POP DUP6 DUP4 ADD MLOAD JUMPDEST PUSH1 0x0 NOT PUSH1 0x3 DUP7 SWAP1 SHL SHR NOT AND PUSH1 0x1 DUP6 SWAP1 SHL OR DUP6 SSTORE PUSH3 0x58C JUMP JUMPDEST PUSH1 0x0 DUP6 DUP2 MSTORE PUSH1 0x20 DUP2 KECCAK256 PUSH1 0x1F NOT DUP7 AND SWAP2 JUMPDEST DUP3 DUP2 LT ISZERO PUSH3 0x631 JUMPI DUP9 DUP7 ADD MLOAD DUP3 SSTORE SWAP5 DUP5 ADD SWAP5 PUSH1 0x1 SWAP1 SWAP2 ADD SWAP1 DUP5 ADD PUSH3 0x610 JUMP JUMPDEST POP DUP6 DUP3 LT ISZERO PUSH3 0x650 JUMPI DUP8 DUP6 ADD MLOAD PUSH1 0x0 NOT PUSH1 0x3 DUP9 SWAP1 SHL PUSH1 0xF8 AND SHR NOT AND DUP2 SSTORE JUMPDEST POP POP POP POP POP PUSH1 0x1 SWAP1 DUP2 SHL ADD SWAP1 SSTORE POP JUMP JUMPDEST PUSH4 0x4E487B71 PUSH1 0xE0 SHL PUSH1 0x0 MSTORE PUSH1 0x11 PUSH1 0x4 MSTORE PUSH1 0x24 PUSH1 0x0 REVERT JUMPDEST DUP1 DUP3 MUL DUP2 ISZERO DUP3 DUP3 DIV DUP5 EQ OR PUSH3 0x690 JUMPI PUSH3 0x690 PUSH3 0x660 JUMP JUMPDEST SWAP3 SWAP2 POP POP JUMP JUMPDEST PUSH1 0x0 DUP3 PUSH3 0x6B4 JUMPI PUSH4 0x4E487B71 PUSH1 0xE0 SHL PUSH1 0x0 MSTORE PUSH1 0x12 PUSH1 0x4 MSTORE PUSH1 0x24 PUSH1 0x0 REVERT JUMPDEST POP DIV SWAP1 JUMP JUMPDEST DUP1 DUP3 ADD DUP1 DUP3 GT ISZERO PUSH3 0x690 JUMPI PUSH3 0x690 PUSH3 0x660 JUMP JUMPDEST DUP2 DUP2 SUB DUP2 DUP2 GT ISZERO PUSH3 0x690 JUMPI PUSH3 0x690 PUSH3 0x660 JUMP JUMPDEST PUSH2 0xFCB DUP1 PUSH3 0x6F5 PUSH1 0x0 CODECOPY PUSH1 0x0 RETURN INVALID PUSH1 0x80 PUSH1 0x40 MSTORE CALLVALUE DUP1 ISZERO PUSH2 0x10 JUMPI PUSH1 0x0 DUP1 REVERT JUMPDEST POP PUSH1 0x4 CALLDATASIZE LT PUSH2 0x158 JUMPI PUSH1 0x0 CALLDATALOAD PUSH1 0xE0 SHR DUP1 PUSH4 0x70A08231 GT PUSH2 0xC3 JUMPI DUP1 PUSH4 0xBDACB303 GT PUSH2 0x7C JUMPI DUP1 PUSH4 0xBDACB303 EQ PUSH2 0x2FD JUMPI DUP1 PUSH4 0xD33219B4 EQ PUSH2 0x310 JUMPI DUP1 PUSH4 0xD5F5B10F EQ PUSH2 0x323 JUMPI DUP1 PUSH4 0xD89135CD EQ PUSH2 0x346 JUMPI DUP1 PUSH4 0xDD62ED3E EQ PUSH2 0x34F JUMPI DUP1 PUSH4 0xF851A440 EQ PUSH2 0x388 JUMPI PUSH1 0x0 DUP1 REVERT JUMPDEST DUP1 PUSH4 0x70A08231 EQ PUSH2 0x28A JUMPI DUP1 PUSH4 0x79CC6790 EQ PUSH2 0x2B3 JUMPI DUP1 PUSH4 0x8AEA8F71 EQ PUSH2 0x2C6 JUMPI DUP1 PUSH4 0x95D89B41 EQ PUSH2 0x2CE JUMPI DUP1 PUSH4 0xA9059CBB EQ PUSH2 0x2D6 JUMPI DUP1 PUSH4 0xB6635BE6 EQ PUSH2 0x2E9 JUMPI PUSH1 0x0 DUP1 REVERT JUMPDEST DUP1 PUSH4 0x33827438 GT PUSH2 0x115 JUMPI DUP1 PUSH4 0x33827438 EQ PUSH2 0x1FD JUMPI DUP1 PUSH4 0x3AC16F20 EQ PUSH2 0x210 JUMPI DUP1 PUSH4 0x42966C68 EQ PUSH2 0x225 JUMPI DUP1 PUSH4 0x47CE0E4F EQ PUSH2 0x238 JUMPI DUP1 PUSH4 0x5383A2C4 EQ PUSH2 0x24B JUMPI DUP1 PUSH4 0x5AFDE063 EQ PUSH2 0x277 JUMPI PUSH1 0x0 DUP1 REVERT JUMPDEST DUP1 PUSH4 0x6FDDE03 EQ PUSH2 0x15D JUMPI DUP1 PUSH4 0x95EA7B3 EQ PUSH2 0x17B JUMPI DUP1 PUSH4 0x18160DDD EQ PUSH2 0x19E JUMPI DUP1 PUSH4 0x23B872DD EQ PUSH2 0x1B0 JUMPI DUP1 PUSH4 0x30131384 EQ PUSH2 0x1C3 JUMPI DUP1 PUSH4 0x313CE567 EQ PUSH2 0x1EE JUMPI JUMPDEST PUSH1 0x0 DUP1 REVERT JUMPDEST PUSH2 0x165 PUSH2 0x39B JUMP JUMPDEST PUSH1 0x40 MLOAD PUSH2 0x172 SWAP2 SWAP1 PUSH2 0xD6B JUMP JUMPDEST PUSH1 0x40 MLOAD DUP1 SWAP2 SUB SWAP1 RETURN JUMPDEST PUSH2 0x18E PUSH2 0x189 CALLDATASIZE PUSH1 0x4 PUSH2 0xDD6 JUMP JUMPDEST PUSH2 0x42D JUMP JUMPDEST PUSH1 0x40 MLOAD SWAP1 ISZERO ISZERO DUP2 MSTORE PUSH1 0x20 ADD PUSH2 0x172 JUMP JUMPDEST PUSH1 0x2 SLOAD JUMPDEST PUSH1 0x40 MLOAD SWAP1 DUP2 MSTORE PUSH1 0x20 ADD PUSH2 0x172 JUMP JUMPDEST PUSH2 0x18E PUSH2 0x1BE CALLDATASIZE PUSH1 0x4 PUSH2 0xE00 JUMP JUMPDEST PUSH2 0x447 JUMP JUMPDEST PUSH1 0x7 SLOAD PUSH2 0x1D6 SWAP1 PUSH1 0x1 PUSH1 0x1 PUSH1 0xA0 SHL SUB AND DUP2 JUMP JUMPDEST PUSH1 0x40 MLOAD PUSH1 0x1 PUSH1 0x1 PUSH1 0xA0 SHL SUB SWAP1 SWAP2 AND DUP2 MSTORE PUSH1 0x20 ADD PUSH2 0x172 JUMP JUMPDEST PUSH1 0x40 MLOAD PUSH1 0x12 DUP2 MSTORE PUSH1 0x20 ADD PUSH2 0x172 JUMP JUMPDEST PUSH1 0x6 SLOAD PUSH2 0x1D6 SWAP1 PUSH1 0x1 PUSH1 0x1 PUSH1 0xA0 SHL SUB AND DUP2 JUMP JUMPDEST PUSH2 0x223 PUSH2 0x21E CALLDATASIZE PUSH1 0x4 PUSH2 0xE3C JUMP JUMPDEST PUSH2 0x46B JUMP JUMPDEST STOP JUMPDEST PUSH2 0x223 PUSH2 0x233 CALLDATASIZE PUSH1 0x4 PUSH2 0xE6F JUMP JUMPDEST PUSH2 0x52A JUMP JUMPDEST PUSH2 0x223 PUSH2 0x246 CALLDATASIZE PUSH1 0x4 PUSH2 0xE88 JUMP JUMPDEST PUSH2 0x537 JUMP JUMPDEST PUSH2 0x18E PUSH2 0x259 CALLDATASIZE PUSH1 0x4 PUSH2 0xEC4 JUMP JUMPDEST PUSH1 0x1 PUSH1 0x1 PUSH1 0xA0 SHL SUB AND PUSH1 0x0 SWAP1 DUP2 MSTORE PUSH1 0x8 PUSH1 0x20 MSTORE PUSH1 0x40 SWAP1 KECCAK256 SLOAD PUSH1 0xFF AND SWAP1 JUMP JUMPDEST PUSH2 0x223 PUSH2 0x285 CALLDATASIZE PUSH1 0x4 PUSH2 0xE88 JUMP JUMPDEST PUSH2 0x5EC JUMP JUMPDEST PUSH2 0x1A2 PUSH2 0x298 CALLDATASIZE PUSH1 0x4 PUSH2 0xEC4 JUMP JUMPDEST PUSH1 0x1 PUSH1 0x1 PUSH1 0xA0 SHL SUB AND PUSH1 0x0 SWAP1 DUP2 MSTORE PUSH1 0x20 DUP2 SWAP1 MSTORE PUSH1 0x40 SWAP1 KECCAK256 SLOAD SWAP1 JUMP JUMPDEST PUSH2 0x223 PUSH2 0x2C1 CALLDATASIZE PUSH1 0x4 PUSH2 0xDD6 JUMP JUMPDEST PUSH2 0x66D JUMP JUMPDEST PUSH2 0x223 PUSH2 0x686 JUMP JUMPDEST PUSH2 0x165 PUSH2 0x72A JUMP JUMPDEST PUSH2 0x18E PUSH2 0x2E4 CALLDATASIZE PUSH1 0x4 PUSH2 0xDD6 JUMP JUMPDEST PUSH2 0x739 JUMP JUMPDEST PUSH1 0xB SLOAD PUSH2 0x18E SWAP1 PUSH1 0x1 PUSH1 0xA0 SHL SWAP1 DIV PUSH1 0xFF AND DUP2 JUMP JUMPDEST PUSH2 0x223 PUSH2 0x30B CALLDATASIZE PUSH1 0x4 PUSH2 0xEC4 JUMP JUMPDEST PUSH2 0x747 JUMP JUMPDEST PUSH1 0xB SLOAD PUSH2 0x1D6 SWAP1 PUSH1 0x1 PUSH1 0x1 PUSH1 0xA0 SHL SUB AND DUP2 JUMP JUMPDEST PUSH2 0x18E PUSH2 0x331 CALLDATASIZE PUSH1 0x4 PUSH2 0xEC4 JUMP JUMPDEST PUSH1 0x9 PUSH1 0x20 MSTORE PUSH1 0x0 SWAP1 DUP2 MSTORE PUSH1 0x40 SWAP1 KECCAK256 SLOAD PUSH1 0xFF AND DUP2 JUMP JUMPDEST PUSH2 0x1A2 PUSH1 0x5 SLOAD DUP2 JUMP JUMPDEST PUSH2 0x1A2 PUSH2 0x35D CALLDATASIZE PUSH1 0x4 PUSH2 0xE3C JUMP JUMPDEST PUSH1 0x1 PUSH1 0x1 PUSH1 0xA0 SHL SUB SWAP2 DUP3 AND PUSH1 0x0 SWAP1 DUP2 MSTORE PUSH1 0x1 PUSH1 0x20 SWAP1 DUP2 MSTORE PUSH1 0x40 DUP1 DUP4 KECCAK256 SWAP4 SWAP1 SWAP5 AND DUP3 MSTORE SWAP2 SWAP1 SWAP2 MSTORE KECCAK256 SLOAD SWAP1 JUMP JUMPDEST PUSH1 0xA SLOAD PUSH2 0x1D6 SWAP1 PUSH1 0x1 PUSH1 0x1 PUSH1 0xA0 SHL SUB AND DUP2 JUMP JUMPDEST PUSH1 0x60 PUSH1 0x3 DUP1 SLOAD PUSH2 0x3AA SWAP1 PUSH2 0xEE6 JUMP JUMPDEST DUP1 PUSH1 0x1F ADD PUSH1 0x20 DUP1 SWAP2 DIV MUL PUSH1 0x20 ADD PUSH1 0x40 MLOAD SWAP1 DUP2 ADD PUSH1 0x40 MSTORE DUP1 SWAP3 SWAP2 SWAP1 DUP2 DUP2 MSTORE PUSH1 0x20 ADD DUP3 DUP1 SLOAD PUSH2 0x3D6 SWAP1 PUSH2 0xEE6 JUMP JUMPDEST DUP1 ISZERO PUSH2 0x423 JUMPI DUP1 PUSH1 0x1F LT PUSH2 0x3F8 JUMPI PUSH2 0x100 DUP1 DUP4 SLOAD DIV MUL DUP4 MSTORE SWAP2 PUSH1 0x20 ADD SWAP2 PUSH2 0x423 JUMP JUMPDEST DUP3 ADD SWAP2 SWAP1 PUSH1 0x0 MSTORE PUSH1 0x20 PUSH1 0x0 KECCAK256 SWAP1 JUMPDEST DUP2 SLOAD DUP2 MSTORE SWAP1 PUSH1 0x1 ADD SWAP1 PUSH1 0x20 ADD DUP1 DUP4 GT PUSH2 0x406 JUMPI DUP3 SWAP1 SUB PUSH1 0x1F AND DUP3 ADD SWAP2 JUMPDEST POP POP POP POP POP SWAP1 POP SWAP1 JUMP JUMPDEST PUSH1 0x0 CALLER PUSH2 0x43B DUP2 DUP6 DUP6 PUSH2 0x7E6 JUMP JUMPDEST PUSH1 0x1 SWAP2 POP POP JUMPDEST SWAP3 SWAP2 POP POP JUMP JUMPDEST PUSH1 0x0 CALLER PUSH2 0x455 DUP6 DUP3 DUP6 PUSH2 0x7F8 JUMP JUMPDEST PUSH2 0x460 DUP6 DUP6 DUP6 PUSH2 0x87C JUMP JUMPDEST POP PUSH1 0x1 SWAP5 SWAP4 POP POP POP POP JUMP JUMPDEST PUSH1 0xA SLOAD PUSH1 0x1 PUSH1 0x1 PUSH1 0xA0 SHL SUB AND CALLER EQ PUSH2 0x496 JUMPI PUSH1 0x40 MLOAD PUSH4 0x47556579 PUSH1 0xE0 SHL DUP2 MSTORE PUSH1 0x4 ADD PUSH1 0x40 MLOAD DUP1 SWAP2 SUB SWAP1 REVERT JUMPDEST PUSH1 0xB SLOAD PUSH1 0x1 PUSH1 0xA0 SHL SWAP1 DIV PUSH1 0xFF AND ISZERO PUSH2 0x4C1 JUMPI PUSH1 0x40 MLOAD PUSH4 0x238F75D3 PUSH1 0xE0 SHL DUP2 MSTORE PUSH1 0x4 ADD PUSH1 0x40 MLOAD DUP1 SWAP2 SUB SWAP1 REVERT JUMPDEST PUSH1 0x1 PUSH1 0x1 PUSH1 0xA0 SHL SUB DUP3 AND ISZERO DUP1 PUSH2 0x4DE JUMPI POP PUSH1 0x1 PUSH1 0x1 PUSH1 0xA0 SHL SUB DUP2 AND ISZERO JUMPDEST ISZERO PUSH2 0x4FC JUMPI PUSH1 0x40 MLOAD PUSH4 0xD92E233D PUSH1 0xE0 SHL DUP2 MSTORE PUSH1 0x4 ADD PUSH1 0x40 MLOAD DUP1 SWAP2 SUB SWAP1 REVERT JUMPDEST PUSH1 0x6 DUP1 SLOAD PUSH1 0x1 PUSH1 0x1 PUSH1 0xA0 SHL SUB SWAP4 DUP5 AND PUSH1 0x1 PUSH1 0x1 PUSH1 0xA0 SHL SUB NOT SWAP2 DUP3 AND OR SWAP1 SWAP2 SSTORE PUSH1 0x7 DUP1 SLOAD SWAP3 SWAP1 SWAP4 AND SWAP2 AND OR SWAP1 SSTORE JUMP JUMPDEST PUSH2 0x534 CALLER DUP3 PUSH2 0x8DB JUMP JUMPDEST POP JUMP JUMPDEST PUSH1 0xA SLOAD PUSH1 0x1 PUSH1 0x1 PUSH1 0xA0 SHL SUB AND CALLER EQ PUSH2 0x562 JUMPI PUSH1 0x40 MLOAD PUSH4 0x47556579 PUSH1 0xE0 SHL DUP2 MSTORE PUSH1 0x4 ADD PUSH1 0x40 MLOAD DUP1 SWAP2 SUB SWAP1 REVERT JUMPDEST PUSH1 0xB SLOAD PUSH1 0x1 PUSH1 0xA0 SHL SWAP1 DIV PUSH1 0xFF AND ISZERO PUSH2 0x58D JUMPI PUSH1 0x40 MLOAD PUSH4 0x238F75D3 PUSH1 0xE0 SHL DUP2 MSTORE PUSH1 0x4 ADD PUSH1 0x40 MLOAD DUP1 SWAP2 SUB SWAP1 REVERT JUMPDEST PUSH1 0x1 PUSH1 0x1 PUSH1 0xA0 SHL SUB DUP3 AND PUSH1 0x0 DUP2 DUP2 MSTORE PUSH1 0x9 PUSH1 0x20 SWAP1 DUP2 MSTORE PUSH1 0x40 SWAP2 DUP3 SWAP1 KECCAK256 DUP1 SLOAD PUSH1 0xFF NOT AND DUP6 ISZERO ISZERO SWAP1 DUP2 OR SWAP1 SWAP2 SSTORE SWAP2 MLOAD SWAP2 DUP3 MSTORE PUSH32 0x63B13414A783AF74E319D8E85D3970126F5CD6C94A17E53A01689EFC01BD2F6E SWAP2 ADD PUSH1 0x40 MLOAD DUP1 SWAP2 SUB SWAP1 LOG2 POP POP JUMP JUMPDEST PUSH1 0xA SLOAD PUSH1 0x1 PUSH1 0x1 PUSH1 0xA0 SHL SUB AND CALLER EQ PUSH2 0x617 JUMPI PUSH1 0x40 MLOAD PUSH4 0x47556579 PUSH1 0xE0 SHL DUP2 MSTORE PUSH1 0x4 ADD PUSH1 0x40 MLOAD DUP1 SWAP2 SUB SWAP1 REVERT JUMPDEST PUSH1 0xB SLOAD PUSH1 0x1 PUSH1 0xA0 SHL SWAP1 DIV PUSH1 0xFF AND ISZERO PUSH2 0x642 JUMPI PUSH1 0x40 MLOAD PUSH4 0x238F75D3 PUSH1 0xE0 SHL DUP2 MSTORE PUSH1 0x4 ADD PUSH1 0x40 MLOAD DUP1 SWAP2 SUB SWAP1 REVERT JUMPDEST PUSH1 0x1 PUSH1 0x1 PUSH1 0xA0 SHL SUB SWAP2 SWAP1 SWAP2 AND PUSH1 0x0 SWAP1 DUP2 MSTORE PUSH1 0x8 PUSH1 0x20 MSTORE PUSH1 0x40 SWAP1 KECCAK256 DUP1 SLOAD PUSH1 0xFF NOT AND SWAP2 ISZERO ISZERO SWAP2 SWAP1 SWAP2 OR SWAP1 SSTORE JUMP JUMPDEST PUSH2 0x678 DUP3 CALLER DUP4 PUSH2 0x7F8 JUMP JUMPDEST PUSH2 0x682 DUP3 DUP3 PUSH2 0x8DB JUMP JUMPDEST POP POP JUMP JUMPDEST PUSH1 0xA SLOAD PUSH1 0x1 PUSH1 0x1 PUSH1 0xA0 SHL SUB AND CALLER EQ PUSH2 0x6B1 JUMPI PUSH1 0x40 MLOAD PUSH4 0x47556579 PUSH1 0xE0 SHL DUP2 MSTORE PUSH1 0x4 ADD PUSH1 0x40 MLOAD DUP1 SWAP2 SUB SWAP1 REVERT JUMPDEST PUSH1 0xB SLOAD PUSH1 0x1 PUSH1 0xA0 SHL SWAP1 DIV PUSH1 0xFF AND ISZERO PUSH2 0x6DC JUMPI PUSH1 0x40 MLOAD PUSH4 0x238F75D3 PUSH1 0xE0 SHL DUP2 MSTORE PUSH1 0x4 ADD PUSH1 0x40 MLOAD DUP1 SWAP2 SUB SWAP1 REVERT JUMPDEST PUSH1 0xB DUP1 SLOAD PUSH1 0xFF PUSH1 0xA0 SHL NOT AND PUSH1 0x1 PUSH1 0xA0 SHL OR SWAP1 SSTORE PUSH1 0xA DUP1 SLOAD PUSH1 0x1 PUSH1 0x1 PUSH1 0xA0 SHL SUB NOT AND SWAP1 SSTORE PUSH1 0x40 MLOAD PUSH32 0x8601FB6B43CF244C5828073EA9E16745BC09E755520A6A80CECAE662B31DB528 SWAP1 PUSH1 0x0 SWAP1 LOG1 JUMP JUMPDEST PUSH1 0x60 PUSH1 0x4 DUP1 SLOAD PUSH2 0x3AA SWAP1 PUSH2 0xEE6 JUMP JUMPDEST PUSH1 0x0 CALLER PUSH2 0x43B DUP2 DUP6 DUP6 PUSH2 0x87C JUMP JUMPDEST PUSH1 0xA SLOAD PUSH1 0x1 PUSH1 0x1 PUSH1 0xA0 SHL SUB AND CALLER EQ PUSH2 0x772 JUMPI PUSH1 0x40 MLOAD PUSH4 0x47556579 PUSH1 0xE0 SHL DUP2 MSTORE PUSH1 0x4 ADD PUSH1 0x40 MLOAD DUP1 SWAP2 SUB SWAP1 REVERT JUMPDEST PUSH1 0xB SLOAD PUSH1 0x1 PUSH1 0xA0 SHL SWAP1 DIV PUSH1 0xFF AND ISZERO PUSH2 0x79D JUMPI PUSH1 0x40 MLOAD PUSH4 0x238F75D3 PUSH1 0xE0 SHL DUP2 MSTORE PUSH1 0x4 ADD PUSH1 0x40 MLOAD DUP1 SWAP2 SUB SWAP1 REVERT JUMPDEST PUSH1 0x1 PUSH1 0x1 PUSH1 0xA0 SHL SUB DUP2 AND PUSH2 0x7C4 JUMPI PUSH1 0x40 MLOAD PUSH4 0xD92E233D PUSH1 0xE0 SHL DUP2 MSTORE PUSH1 0x4 ADD PUSH1 0x40 MLOAD DUP1 SWAP2 SUB SWAP1 REVERT JUMPDEST PUSH1 0xB DUP1 SLOAD PUSH1 0x1 PUSH1 0x1 PUSH1 0xA0 SHL SUB NOT AND PUSH1 0x1 PUSH1 0x1 PUSH1 0xA0 SHL SUB SWAP3 SWAP1 SWAP3 AND SWAP2 SWAP1 SWAP2 OR SWAP1 SSTORE JUMP JUMPDEST PUSH2 0x7F3 DUP4 DUP4 DUP4 PUSH1 0x1 PUSH2 0x911 JUMP JUMPDEST POP POP POP JUMP JUMPDEST PUSH1 0x1 PUSH1 0x1 PUSH1 0xA0 SHL SUB DUP4 DUP2 AND PUSH1 0x0 SWAP1 DUP2 MSTORE PUSH1 0x1 PUSH1 0x20 SWAP1 DUP2 MSTORE PUSH1 0x40 DUP1 DUP4 KECCAK256 SWAP4 DUP7 AND DUP4 MSTORE SWAP3 SWAP1 MSTORE KECCAK256 SLOAD PUSH1 0x0 NOT DUP2 LT ISZERO PUSH2 0x876 JUMPI DUP2 DUP2 LT ISZERO PUSH2 0x867 JUMPI PUSH1 0x40 MLOAD PUSH4 0x7DC7A0D9 PUSH1 0xE1 SHL DUP2 MSTORE PUSH1 0x1 PUSH1 0x1 PUSH1 0xA0 SHL SUB DUP5 AND PUSH1 0x4 DUP3 ADD MSTORE PUSH1 0x24 DUP2 ADD DUP3 SWAP1 MSTORE PUSH1 0x44 DUP2 ADD DUP4 SWAP1 MSTORE PUSH1 0x64 ADD JUMPDEST PUSH1 0x40 MLOAD DUP1 SWAP2 SUB SWAP1 REVERT JUMPDEST PUSH2 0x876 DUP5 DUP5 DUP5 DUP5 SUB PUSH1 0x0 PUSH2 0x911 JUMP JUMPDEST POP POP POP POP JUMP JUMPDEST PUSH1 0x1 PUSH1 0x1 PUSH1 0xA0 SHL SUB DUP4 AND PUSH2 0x8A6 JUMPI PUSH1 0x40 MLOAD PUSH4 0x4B637E8F PUSH1 0xE1 SHL DUP2 MSTORE PUSH1 0x0 PUSH1 0x4 DUP3 ADD MSTORE PUSH1 0x24 ADD PUSH2 0x85E JUMP JUMPDEST PUSH1 0x1 PUSH1 0x1 PUSH1 0xA0 SHL SUB DUP3 AND PUSH2 0x8D0 JUMPI PUSH1 0x40 MLOAD PUSH4 0xEC442F05 PUSH1 0xE0 SHL DUP2 MSTORE PUSH1 0x0 PUSH1 0x4 DUP3 ADD MSTORE PUSH1 0x24 ADD PUSH2 0x85E JUMP JUMPDEST PUSH2 0x7F3 DUP4 DUP4 DUP4 PUSH2 0x9E6 JUMP JUMPDEST PUSH1 0x1 PUSH1 0x1 PUSH1 0xA0 SHL SUB DUP3 AND PUSH2 0x905 JUMPI PUSH1 0x40 MLOAD PUSH4 0x4B637E8F PUSH1 0xE1 SHL DUP2 MSTORE PUSH1 0x0 PUSH1 0x4 DUP3 ADD MSTORE PUSH1 0x24 ADD PUSH2 0x85E JUMP JUMPDEST PUSH2 0x682 DUP3 PUSH1 0x0 DUP4 PUSH2 0x9E6 JUMP JUMPDEST PUSH1 0x1 PUSH1 0x1 PUSH1 0xA0 SHL SUB DUP5 AND PUSH2 0x93B JUMPI PUSH1 0x40 MLOAD PUSH4 0xE602DF05 PUSH1 0xE0 SHL DUP2 MSTORE PUSH1 0x0 PUSH1 0x4 DUP3 ADD MSTORE PUSH1 0x24 ADD PUSH2 0x85E JUMP JUMPDEST PUSH1 0x1 PUSH1 0x1 PUSH1 0xA0 SHL SUB DUP4 AND PUSH2 0x965 JUMPI PUSH1 0x40 MLOAD PUSH4 0x4A1406B1 PUSH1 0xE1 SHL DUP2 MSTORE PUSH1 0x0 PUSH1 0x4 DUP3 ADD MSTORE PUSH1 0x24 ADD PUSH2 0x85E JUMP JUMPDEST PUSH1 0x1 PUSH1 0x1 PUSH1 0xA0 SHL SUB DUP1 DUP6 AND PUSH1 0x0 SWAP1 DUP2 MSTORE PUSH1 0x1 PUSH1 0x20 SWAP1 DUP2 MSTORE PUSH1 0x40 DUP1 DUP4 KECCAK256 SWAP4 DUP8 AND DUP4 MSTORE SWAP3 SWAP1 MSTORE KECCAK256 DUP3 SWAP1 SSTORE DUP1 ISZERO PUSH2 0x876 JUMPI DUP3 PUSH1 0x1 PUSH1 0x1 PUSH1 0xA0 SHL SUB AND DUP5 PUSH1 0x1 PUSH1 0x1 PUSH1 0xA0 SHL SUB AND PUSH32 0x8C5BE1E5EBEC7D5BD14F71427D1E84F3DD0314C0F7B2291E5B200AC8C7C3B925 DUP5 PUSH1 0x40 MLOAD PUSH2 0x9D8 SWAP2 DUP2 MSTORE PUSH1 0x20 ADD SWAP1 JUMP JUMPDEST PUSH1 0x40 MLOAD DUP1 SWAP2 SUB SWAP1 LOG3 POP POP POP POP JUMP JUMPDEST PUSH1 0x1 PUSH1 0x1 PUSH1 0xA0 SHL SUB DUP4 AND ISZERO DUP1 PUSH2 0xA03 JUMPI POP PUSH1 0x1 PUSH1 0x1 PUSH1 0xA0 SHL SUB DUP3 AND ISZERO JUMPDEST DUP1 PUSH2 0xA26 JUMPI POP PUSH1 0x1 PUSH1 0x1 PUSH1 0xA0 SHL SUB DUP4 AND PUSH1 0x0 SWAP1 DUP2 MSTORE PUSH1 0x8 PUSH1 0x20 MSTORE PUSH1 0x40 SWAP1 KECCAK256 SLOAD PUSH1 0xFF AND JUMPDEST DUP1 PUSH2 0xA4A JUMPI POP PUSH1 0x1 PUSH1 0x1 PUSH1 0xA0 SHL SUB DUP3 AND PUSH1 0x0 SWAP1 DUP2 MSTORE PUSH1 0x9 PUSH1 0x20 MSTORE PUSH1 0x40 SWAP1 KECCAK256 SLOAD PUSH1 0xFF AND ISZERO JUMPDEST DUP1 PUSH2 0xA5E JUMPI POP PUSH1 0x6 SLOAD PUSH1 0x1 PUSH1 0x1 PUSH1 0xA0 SHL SUB AND ISZERO JUMPDEST ISZERO PUSH2 0xA6E JUMPI PUSH2 0x7F3 DUP4 DUP4 DUP4 PUSH2 0xC41 JUMP JUMPDEST PUSH1 0x0 PUSH2 0x2710 PUSH2 0xA7F PUSH2 0x3E8 DUP5 PUSH2 0xF36 JUMP JUMPDEST PUSH2 0xA89 SWAP2 SWAP1 PUSH2 0xF4D JUMP JUMPDEST SWAP1 POP PUSH1 0x0 PUSH2 0x2710 PUSH2 0xA9C DUP5 PUSH2 0x1B58 PUSH2 0xF36 JUMP JUMPDEST PUSH2 0xAA6 SWAP2 SWAP1 PUSH2 0xF4D JUMP JUMPDEST SWAP1 POP PUSH1 0x0 PUSH2 0x2710 PUSH2 0xAB9 DUP6 PUSH2 0x7D0 PUSH2 0xF36 JUMP JUMPDEST PUSH2 0xAC3 SWAP2 SWAP1 PUSH2 0xF4D JUMP JUMPDEST SWAP1 POP PUSH1 0x0 PUSH2 0xAD1 DUP3 DUP6 PUSH2 0xF6F JUMP JUMPDEST SWAP1 POP PUSH1 0x0 DUP4 PUSH2 0xAE0 DUP4 DUP9 PUSH2 0xF82 JUMP JUMPDEST PUSH2 0xAEA SWAP2 SWAP1 PUSH2 0xF82 JUMP JUMPDEST SWAP1 POP PUSH2 0xAF7 DUP9 DUP9 DUP4 PUSH2 0xC41 JUMP JUMPDEST PUSH1 0x0 DUP5 GT DUP1 ISZERO PUSH2 0xB11 JUMPI POP PUSH1 0x7 SLOAD PUSH1 0x1 PUSH1 0x1 PUSH1 0xA0 SHL SUB AND ISZERO ISZERO JUMPDEST ISZERO PUSH2 0xB2E JUMPI PUSH1 0x7 SLOAD PUSH2 0xB2E SWAP1 DUP10 SWAP1 PUSH1 0x1 PUSH1 0x1 PUSH1 0xA0 SHL SUB AND DUP7 PUSH2 0xC41 JUMP JUMPDEST PUSH1 0x0 DUP3 ISZERO PUSH2 0xBEA JUMPI PUSH1 0x0 PUSH1 0x5 SLOAD PUSH11 0x84376FC33378D97C00000 GT PUSH2 0xB53 JUMPI PUSH1 0x0 PUSH2 0xB6B JUMP JUMPDEST PUSH1 0x5 SLOAD PUSH2 0xB6B SWAP1 PUSH11 0x84376FC33378D97C00000 PUSH2 0xF82 JUMP JUMPDEST SWAP1 POP DUP1 DUP5 GT PUSH2 0xB7A JUMPI DUP4 PUSH2 0xB7C JUMP JUMPDEST DUP1 JUMPDEST SWAP2 POP DUP2 ISZERO PUSH2 0xBA9 JUMPI PUSH2 0xB91 DUP11 PUSH2 0xDEAD DUP5 PUSH2 0xC41 JUMP JUMPDEST DUP2 PUSH1 0x5 PUSH1 0x0 DUP3 DUP3 SLOAD PUSH2 0xBA3 SWAP2 SWAP1 PUSH2 0xF6F JUMP JUMPDEST SWAP1 SWAP2 SSTORE POP POP JUMPDEST DUP2 DUP5 GT DUP1 ISZERO PUSH2 0xBC2 JUMPI POP PUSH1 0x7 SLOAD PUSH1 0x1 PUSH1 0x1 PUSH1 0xA0 SHL SUB AND ISZERO ISZERO JUMPDEST ISZERO PUSH2 0xBE8 JUMPI PUSH1 0x7 SLOAD PUSH2 0xBE8 SWAP1 DUP12 SWAP1 PUSH1 0x1 PUSH1 0x1 PUSH1 0xA0 SHL SUB AND PUSH2 0xBE3 DUP6 DUP9 PUSH2 0xF82 JUMP JUMPDEST PUSH2 0xC41 JUMP JUMPDEST POP JUMPDEST PUSH1 0x40 DUP1 MLOAD DUP8 DUP2 MSTORE PUSH1 0x0 PUSH1 0x20 DUP3 ADD MSTORE SWAP1 DUP2 ADD DUP3 SWAP1 MSTORE PUSH1 0x1 PUSH1 0x1 PUSH1 0xA0 SHL SUB DUP11 AND SWAP1 PUSH32 0x3A28A3F260782B9C7457CE168826D3100AA6BF6E1124486977DDE225498CC47 SWAP1 PUSH1 0x60 ADD PUSH1 0x40 MLOAD DUP1 SWAP2 SUB SWAP1 LOG2 POP POP POP POP POP POP POP POP POP JUMP JUMPDEST PUSH1 0x1 PUSH1 0x1 PUSH1 0xA0 SHL SUB DUP4 AND PUSH2 0xC6C JUMPI DUP1 PUSH1 0x2 PUSH1 0x0 DUP3 DUP3 SLOAD PUSH2 0xC61 SWAP2 SWAP1 PUSH2 0xF6F JUMP JUMPDEST SWAP1 SWAP2 SSTORE POP PUSH2 0xCDE SWAP1 POP JUMP JUMPDEST PUSH1 0x1 PUSH1 0x1 PUSH1 0xA0 SHL SUB DUP4 AND PUSH1 0x0 SWAP1 DUP2 MSTORE PUSH1 0x20 DUP2 SWAP1 MSTORE PUSH1 0x40 SWAP1 KECCAK256 SLOAD DUP2 DUP2 LT ISZERO PUSH2 0xCBF JUMPI PUSH1 0x40 MLOAD PUSH4 0x391434E3 PUSH1 0xE2 SHL DUP2 MSTORE PUSH1 0x1 PUSH1 0x1 PUSH1 0xA0 SHL SUB DUP6 AND PUSH1 0x4 DUP3 ADD MSTORE PUSH1 0x24 DUP2 ADD DUP3 SWAP1 MSTORE PUSH1 0x44 DUP2 ADD DUP4 SWAP1 MSTORE PUSH1 0x64 ADD PUSH2 0x85E JUMP JUMPDEST PUSH1 0x1 PUSH1 0x1 PUSH1 0xA0 SHL SUB DUP5 AND PUSH1 0x0 SWAP1 DUP2 MSTORE PUSH1 0x20 DUP2 SWAP1 MSTORE PUSH1 0x40 SWAP1 KECCAK256 SWAP1 DUP3 SWAP1 SUB SWAP1 SSTORE JUMPDEST PUSH1 0x1 PUSH1 0x1 PUSH1 0xA0 SHL SUB DUP3 AND PUSH2 0xCFA JUMPI PUSH1 0x2 DUP1 SLOAD DUP3 SWAP1 SUB SWAP1 SSTORE PUSH2 0xD19 JUMP JUMPDEST PUSH1 0x1 PUSH1 0x1 PUSH1 0xA0 SHL SUB DUP3 AND PUSH1 0x0 SWAP1 DUP2 MSTORE PUSH1 0x20 DUP2 SWAP1 MSTORE PUSH1 0x40 SWAP1 KECCAK256 DUP1 SLOAD DUP3 ADD SWAP1 SSTORE JUMPDEST DUP2 PUSH1 0x1 PUSH1 0x1 PUSH1 0xA0 SHL SUB AND DUP4 PUSH1 0x1 PUSH1 0x1 PUSH1 0xA0 SHL SUB AND PUSH32 0xDDF252AD1BE2C89B69C2B068FC378DAA952BA7F163C4A11628F55A4DF523B3EF DUP4 PUSH1 0x40 MLOAD PUSH2 0xD5E SWAP2 DUP2 MSTORE PUSH1 0x20 ADD SWAP1 JUMP JUMPDEST PUSH1 0x40 MLOAD DUP1 SWAP2 SUB SWAP1 LOG3 POP POP POP JUMP JUMPDEST PUSH1 0x0 PUSH1 0x20 DUP1 DUP4 MSTORE DUP4 MLOAD DUP1 PUSH1 0x20 DUP6 ADD MSTORE PUSH1 0x0 JUMPDEST DUP2 DUP2 LT ISZERO PUSH2 0xD99 JUMPI DUP6 DUP2 ADD DUP4 ADD MLOAD DUP6 DUP3 ADD PUSH1 0x40 ADD MSTORE DUP3 ADD PUSH2 0xD7D JUMP JUMPDEST POP PUSH1 0x0 PUSH1 0x40 DUP3 DUP7 ADD ADD MSTORE PUSH1 0x40 PUSH1 0x1F NOT PUSH1 0x1F DUP4 ADD AND DUP6 ADD ADD SWAP3 POP POP POP SWAP3 SWAP2 POP POP JUMP JUMPDEST DUP1 CALLDATALOAD PUSH1 0x1 PUSH1 0x1 PUSH1 0xA0 SHL SUB DUP2 AND DUP2 EQ PUSH2 0xDD1 JUMPI PUSH1 0x0 DUP1 REVERT JUMPDEST SWAP2 SWAP1 POP JUMP JUMPDEST PUSH1 0x0 DUP1 PUSH1 0x40 DUP4 DUP6 SUB SLT ISZERO PUSH2 0xDE9 JUMPI PUSH1 0x0 DUP1 REVERT JUMPDEST PUSH2 0xDF2 DUP4 PUSH2 0xDBA JUMP JUMPDEST SWAP5 PUSH1 0x20 SWAP4 SWAP1 SWAP4 ADD CALLDATALOAD SWAP4 POP POP POP JUMP JUMPDEST PUSH1 0x0 DUP1 PUSH1 0x0 PUSH1 0x60 DUP5 DUP7 SUB SLT ISZERO PUSH2 0xE15 JUMPI PUSH1 0x0 DUP1 REVERT JUMPDEST PUSH2 0xE1E DUP5 PUSH2 0xDBA JUMP JUMPDEST SWAP3 POP PUSH2 0xE2C PUSH1 0x20 DUP6 ADD PUSH2 0xDBA JUMP JUMPDEST SWAP2 POP PUSH1 0x40 DUP5 ADD CALLDATALOAD SWAP1 POP SWAP3 POP SWAP3 POP SWAP3 JUMP JUMPDEST PUSH1 0x0 DUP1 PUSH1 0x40 DUP4 DUP6 SUB SLT ISZERO PUSH2 0xE4F JUMPI PUSH1 0x0 DUP1 REVERT JUMPDEST PUSH2 0xE58 DUP4 PUSH2 0xDBA JUMP JUMPDEST SWAP2 POP PUSH2 0xE66 PUSH1 0x20 DUP5 ADD PUSH2 0xDBA JUMP JUMPDEST SWAP1 POP SWAP3 POP SWAP3 SWAP1 POP JUMP JUMPDEST PUSH1 0x0 PUSH1 0x20 DUP3 DUP5 SUB SLT ISZERO PUSH2 0xE81 JUMPI PUSH1 0x0 DUP1 REVERT JUMPDEST POP CALLDATALOAD SWAP2 SWAP1 POP JUMP JUMPDEST PUSH1 0x0 DUP1 PUSH1 0x40 DUP4 DUP6 SUB SLT ISZERO PUSH2 0xE9B JUMPI PUSH1 0x0 DUP1 REVERT JUMPDEST PUSH2 0xEA4 DUP4 PUSH2 0xDBA JUMP JUMPDEST SWAP2 POP PUSH1 0x20 DUP4 ADD CALLDATALOAD DUP1 ISZERO ISZERO DUP2 EQ PUSH2 0xEB9 JUMPI PUSH1 0x0 DUP1 REVERT JUMPDEST DUP1 SWAP2 POP POP SWAP3 POP SWAP3 SWAP1 POP JUMP JUMPDEST PUSH1 0x0 PUSH1 0x20 DUP3 DUP5 SUB SLT ISZERO PUSH2 0xED6 JUMPI PUSH1 0x0 DUP1 REVERT JUMPDEST PUSH2 0xEDF DUP3 PUSH2 0xDBA JUMP JUMPDEST SWAP4 SWAP3 POP POP POP JUMP JUMPDEST PUSH1 0x1 DUP2 DUP2 SHR SWAP1 DUP3 AND DUP1 PUSH2 0xEFA JUMPI PUSH1 0x7F DUP3 AND SWAP2 POP JUMPDEST PUSH1 0x20 DUP3 LT DUP2 SUB PUSH2 0xF1A JUMPI PUSH4 0x4E487B71 PUSH1 0xE0 SHL PUSH1 0x0 MSTORE PUSH1 0x22 PUSH1 0x4 MSTORE PUSH1 0x24 PUSH1 0x0 REVERT JUMPDEST POP SWAP2 SWAP1 POP JUMP JUMPDEST PUSH4 0x4E487B71 PUSH1 0xE0 SHL PUSH1 0x0 MSTORE PUSH1 0x11 PUSH1 0x4 MSTORE PUSH1 0x24 PUSH1 0x0 REVERT JUMPDEST DUP1 DUP3 MUL DUP2 ISZERO DUP3 DUP3 DIV DUP5 EQ OR PUSH2 0x441 JUMPI PUSH2 0x441 PUSH2 0xF20 JUMP JUMPDEST PUSH1 0x0 DUP3 PUSH2 0xF6A JUMPI PUSH4 0x4E487B71 PUSH1 0xE0 SHL PUSH1 0x0 MSTORE PUSH1 0x12 PUSH1 0x4 MSTORE PUSH1 0x24 PUSH1 0x0 REVERT JUMPDEST POP DIV SWAP1 JUMP JUMPDEST DUP1 DUP3 ADD DUP1 DUP3 GT ISZERO PUSH2 0x441 JUMPI PUSH2 0x441 PUSH2 0xF20 JUMP JUMPDEST DUP2 DUP2 SUB DUP2 DUP2 GT ISZERO PUSH2 0x441 JUMPI PUSH2 0x441 PUSH2 0xF20 JUMP INVALID LOG2 PUSH5 0x6970667358 0x22 SLT KECCAK256 PUSH16 0xCDF9C4ED6F8FD451C8F0257304D791A INVALID 0xED PUSH3 0x6965F0 PUSH23 0xF28106E605F65C464736F6C6343000818003300000000 "},"methodIdentifiers":{"admin()":"f851a440","allowance(address,address)":"dd62ed3e","approve(address,uint256)":"095ea7b3","balanceOf(address)":"70a08231","burn(uint256)":"42966c68","burnFrom(address,uint256)":"79cc6790","completeSetup()":"8aea8f71","decimals()":"313ce567","investmentEngine()":"30131384","isSellEndpoint(address)":"d5f5b10f","isTaxWhitelisted(address)":"5383a2c4","liquidityManager()":"33827438","name()":"06fdde03","setSellEndpoint(address,bool)":"47ce0e4f","setSellTaxAddresses(address,address)":"3ac16f20","setTaxWhitelist(address,bool)":"5afde063","setTimelock(address)":"bdacb303","setupComplete()":"b6635be6","symbol()":"95d89b41","timelock()":"d33219b4","totalBurned()":"d89135cd","totalSupply()":"18160ddd","transfer(address,uint256)":"a9059cbb","transferFrom(address,address,uint256)":"23b872dd"}}}}}