{"contracts/OSLOReferral.sol":{"OSLOReferral":{"abi":[{"inputs":[{"internalType":"address","name":"_usdt","type":"address"},{"internalType":"address","name":"_osloToken","type":"address"}],"stateMutability":"nonpayable","type":"constructor"},{"inputs":[],"name":"AlreadyRegistered","type":"error"},{"inputs":[],"name":"InvalidReferrer","type":"error"},{"inputs":[],"name":"NotRegistered","type":"error"},{"inputs":[],"name":"NothingToClaim","type":"error"},{"inputs":[],"name":"OnlyAdmin","type":"error"},{"inputs":[],"name":"OnlyInvestmentEngine","type":"error"},{"inputs":[],"name":"ReentrancyGuardReentrantCall","type":"error"},{"inputs":[{"internalType":"address","name":"token","type":"address"}],"name":"SafeERC20FailedOperation","type":"error"},{"inputs":[],"name":"SelfReferral","type":"error"},{"inputs":[],"name":"SetupAlreadyComplete","type":"error"},{"inputs":[],"name":"ZeroAddress","type":"error"},{"anonymous":false,"inputs":[{"indexed":true,"internalType":"address","name":"user","type":"address"},{"indexed":false,"internalType":"uint256","name":"level","type":"uint256"}],"name":"LevelUnlocked","type":"event"},{"anonymous":false,"inputs":[{"indexed":true,"internalType":"address","name":"upline","type":"address"},{"indexed":true,"internalType":"address","name":"downline","type":"address"},{"indexed":false,"internalType":"uint256","name":"level","type":"uint256"},{"indexed":false,"internalType":"uint256","name":"amount","type":"uint256"}],"name":"ReferralPaid","type":"event"},{"anonymous":false,"inputs":[{"indexed":true,"internalType":"address","name":"user","type":"address"},{"indexed":false,"internalType":"uint256","name":"amount","type":"uint256"}],"name":"ReferralRewardsClaimed","type":"event"},{"anonymous":false,"inputs":[{"indexed":true,"internalType":"address","name":"user","type":"address"},{"indexed":false,"internalType":"uint256","name":"fee","type":"uint256"},{"indexed":false,"internalType":"uint256","name":"osloBurned","type":"uint256"}],"name":"RegistrationFeeProcessed","type":"event"},{"anonymous":false,"inputs":[{"indexed":true,"internalType":"address","name":"user","type":"address"},{"indexed":true,"internalType":"address","name":"referrer","type":"address"}],"name":"UserRegistered","type":"event"},{"inputs":[],"name":"REGISTRATION_FEE","outputs":[{"internalType":"uint256","name":"","type":"uint256"}],"stateMutability":"view","type":"function"},{"inputs":[],"name":"admin","outputs":[{"internalType":"address","name":"","type":"address"}],"stateMutability":"view","type":"function"},{"inputs":[{"internalType":"address","name":"user","type":"address"}],"name":"checkAndUnlockLevels","outputs":[],"stateMutability":"nonpayable","type":"function"},{"inputs":[],"name":"claimReferralRewards","outputs":[],"stateMutability":"nonpayable","type":"function"},{"inputs":[],"name":"completeSetup","outputs":[],"stateMutability":"nonpayable","type":"function"},{"inputs":[{"internalType":"address","name":"_investmentEngine","type":"address"},{"internalType":"address","name":"_osloDex","type":"address"},{"internalType":"address","name":"_timelock","type":"address"}],"name":"configure","outputs":[],"stateMutability":"nonpayable","type":"function"},{"inputs":[{"internalType":"address","name":"user","type":"address"},{"internalType":"uint256","name":"profitAmount","type":"uint256"}],"name":"distributeReferralCommission","outputs":[],"stateMutability":"nonpayable","type":"function"},{"inputs":[{"internalType":"address","name":"user","type":"address"}],"name":"getAllLevelIncome","outputs":[{"internalType":"uint256[21]","name":"","type":"uint256[21]"}],"stateMutability":"view","type":"function"},{"inputs":[{"internalType":"address","name":"user","type":"address"}],"name":"getDirectReferrals","outputs":[{"internalType":"address[]","name":"","type":"address[]"}],"stateMutability":"view","type":"function"},{"inputs":[{"internalType":"address","name":"user","type":"address"},{"internalType":"uint256","name":"level","type":"uint256"}],"name":"getLevelIncome","outputs":[{"internalType":"uint256","name":"","type":"uint256"}],"stateMutability":"view","type":"function"},{"inputs":[{"internalType":"address","name":"user","type":"address"}],"name":"getQualifiedDirectsCount","outputs":[{"internalType":"uint256","name":"","type":"uint256"}],"stateMutability":"view","type":"function"},{"inputs":[{"internalType":"address","name":"user","type":"address"}],"name":"getReferrer","outputs":[{"internalType":"address","name":"","type":"address"}],"stateMutability":"view","type":"function"},{"inputs":[{"internalType":"address","name":"user","type":"address"}],"name":"getTeamSize","outputs":[{"internalType":"uint256","name":"","type":"uint256"}],"stateMutability":"view","type":"function"},{"inputs":[{"internalType":"address","name":"user","type":"address"}],"name":"getUnlockedLevels","outputs":[{"internalType":"uint256","name":"","type":"uint256"}],"stateMutability":"view","type":"function"},{"inputs":[],"name":"investmentEngine","outputs":[{"internalType":"address","name":"","type":"address"}],"stateMutability":"view","type":"function"},{"inputs":[{"internalType":"address","name":"user","type":"address"}],"name":"isRegistered","outputs":[{"internalType":"bool","name":"","type":"bool"}],"stateMutability":"view","type":"function"},{"inputs":[{"internalType":"address","name":"","type":"address"},{"internalType":"uint256","name":"","type":"uint256"}],"name":"levelIncome","outputs":[{"internalType":"uint256","name":"","type":"uint256"}],"stateMutability":"view","type":"function"},{"inputs":[],"name":"osloDex","outputs":[{"internalType":"address","name":"","type":"address"}],"stateMutability":"view","type":"function"},{"inputs":[],"name":"osloToken","outputs":[{"internalType":"contract IERC20","name":"","type":"address"}],"stateMutability":"view","type":"function"},{"inputs":[{"internalType":"address","name":"","type":"address"}],"name":"referralRewards","outputs":[{"internalType":"uint256","name":"","type":"uint256"}],"stateMutability":"view","type":"function"},{"inputs":[{"internalType":"address","name":"user","type":"address"},{"internalType":"address","name":"referrer","type":"address"}],"name":"register","outputs":[],"stateMutability":"nonpayable","type":"function"},{"inputs":[],"name":"setupComplete","outputs":[{"internalType":"bool","name":"","type":"bool"}],"stateMutability":"view","type":"function"},{"inputs":[],"name":"timelock","outputs":[{"internalType":"address","name":"","type":"address"}],"stateMutability":"view","type":"function"},{"inputs":[],"name":"totalCommissionsPaid","outputs":[{"internalType":"uint256","name":"","type":"uint256"}],"stateMutability":"view","type":"function"},{"inputs":[],"name":"totalFeesCollected","outputs":[{"internalType":"uint256","name":"","type":"uint256"}],"stateMutability":"view","type":"function"},{"inputs":[],"name":"totalRegistered","outputs":[{"internalType":"uint256","name":"","type":"uint256"}],"stateMutability":"view","type":"function"},{"inputs":[],"name":"usdt","outputs":[{"internalType":"contract IERC20","name":"","type":"address"}],"stateMutability":"view","type":"function"},{"inputs":[{"internalType":"address","name":"","type":"address"}],"name":"userInfo","outputs":[{"internalType":"address","name":"referrer","type":"address"},{"internalType":"uint256","name":"unlockedLevels","type":"uint256"},{"internalType":"uint256","name":"totalEarned","type":"uint256"},{"internalType":"bool","name":"registered","type":"bool"}],"stateMutability":"view","type":"function"}],"evm":{"bytecode":{"linkReferences":{},"object":"60c06040523480156200001157600080fd5b506040516200175a3803806200175a8339810160408190526200003491620000dc565b60017f9b779b17422d0df92223018b32b4d1fa46e071723d6817e2486d003becc55f00556001600160a01b03821615806200007657506001600160a01b038116155b15620000955760405163d92e233d60e01b815260040160405180910390fd5b6001600160a01b039182166080521660a052600280546001600160a01b0319163317905562000114565b80516001600160a01b0381168114620000d757600080fd5b919050565b60008060408385031215620000f057600080fd5b620000fb83620000bf565b91506200010b60208401620000bf565b90509250929050565b60805160a05161160462000156600039600081816102e50152610cfa0152600081816103240152818161056801528181610bcb0152610c3c01526116046000f3fe608060405234801561001057600080fd5b50600436106101c45760003560e01c806364b4f751116100f9578063b6635be611610097578063c6d83fcf11610071578063c6d83fcf146104ca578063d2c8e0e5146104d3578063d33219b4146104f3578063f851a4401461050657600080fd5b8063b6635be614610463578063b845828214610487578063c3c5a5471461049a57600080fd5b80638565c2bf116100d35780638565c2bf1461042c5780638aea8f711461043f578063927416c014610447578063aa6773541461045057600080fd5b806364b4f751146103d457806364df8222146103e35780638000d9911461041957600080fd5b80632f48ab7d11610166578063519f164011610140578063519f16401461038557806353aaa63b1461039857806355d28f20146103b857806360c6d8ae146103cb57600080fd5b80632f48ab7d1461031f57806330131384146103465780634a9fefc71461035957600080fd5b80631e97f48a116101a25780631e97f48a146102815780631f791b69146102a15780632573912c146102cd5780632acfbca3146102e057600080fd5b806305eaab4b146101c95780630b35d7d1146101d35780631959a00214610211575b600080fd5b6101d1610519565b005b6101fe6101e13660046113e3565b600660209081526000928352604080842090915290825290205481565b6040519081526020015b60405180910390f35b61025561021f36600461140d565b600460208190526000918252604090912080546002820154600383015492909301546001600160a01b0390911692919060ff1684565b604080516001600160a01b03909516855260208501939093529183015215156060820152608001610208565b61029461028f36600461140d565b6105f8565b604051610208919061142f565b6101fe6102af36600461140d565b6001600160a01b031660009081526004602052604090206002015490565b6101d16102db36600461140d565b610690565b6103077f000000000000000000000000000000000000000000000000000000000000000081565b6040516001600160a01b039091168152602001610208565b6103077f000000000000000000000000000000000000000000000000000000000000000081565b600054610307906001600160a01b031681565b61030761036736600461140d565b6001600160a01b039081166000908152600460205260409020541690565b6101fe61039336600461140d565b610789565b6101fe6103a636600461140d565b60056020526000908152604090205481565b6101d16103c6366004611461565b61079c565b6101fe60095481565b6101fe670de0b6b3a764000081565b6101fe6103f13660046113e3565b6001600160a01b03919091166000908152600660209081526040808320938352929052205490565b6101d16104273660046113e3565b610831565b600154610307906001600160a01b031681565b6101d1610a59565b6101fe60075481565b6101d161045e3660046114a4565b610ad4565b60035461047790600160a01b900460ff1681565b6040519015158152602001610208565b6101fe61049536600461140d565b610e54565b6104776104a836600461140d565b6001600160a01b03166000908152600460208190526040909120015460ff1690565b6101fe60085481565b6104e66104e136600461140d565b610e5f565b60405161020891906114d7565b600354610307906001600160a01b031681565b600254610307906001600160a01b031681565b610521610ed8565b3360009081526005602052604081205490819003610552576040516312d37ee560e31b815260040160405180910390fd5b33600081815260056020526040812055610597907f00000000000000000000000000000000000000000000000000000000000000006001600160a01b03169083610f06565b60405181815233907f98741ecf35c5d20a8ed68dbd8540500684864a6c98c2a41a5844d0b3a2357d439060200160405180910390a2506105f660017f9b779b17422d0df92223018b32b4d1fa46e071723d6817e2486d003becc55f0055565b565b6106006113a8565b6106086113a8565b60015b60148111610689576001600160a01b038416600090815260066020908152604080832084845290915290205482826015811061064957610649611524565b602002015281816015811061066057610660611524565b602002015182518390610674908390611550565b9052508061068181611563565b91505061060b565b5092915050565b6001600160a01b0381166000908152600460208190526040909120015460ff166106b75750565b60006106c282610f40565b905060006106cf8261104a565b6001600160a01b038416600090815260046020526040902060020154909150811115610784576001600160a01b038316600090815260046020526040812060020180549083905590610722826001611550565b90505b82811161078157846001600160a01b03167f084d80ac1b703449f5931daa49aa5ad902f79624e20313db57074f53c5aca3418260405161076791815260200190565b60405180910390a28061077981611563565b915050610725565b50505b505050565b60006107968260006110a4565b92915050565b6002546001600160a01b031633146107c757604051634755657960e01b815260040160405180910390fd5b600354600160a01b900460ff16156107f25760405163238f75d360e01b815260040160405180910390fd5b600080546001600160a01b039485166001600160a01b031991821617909155600180549385169382169390931790925560038054919093169116179055565b8060000361083d575050565b8160015b60148111610a53576001600160a01b03808316600090815260046020526040902054168061086f5750610a53565b6001600160a01b0381166000908152600460205260409020600201548211610a3f57600061089c83611136565b905060006127106108ad838861157c565b6108b79190611593565b90508015610a3c576001600160a01b038316600090815260056020526040812080548392906108e7908490611550565b90915550506001600160a01b03831660009081526006602090815260408083208784529091528120805483929061091f908490611550565b90915550506001600160a01b0383166000908152600460205260408120600301805483929061094f908490611550565b9250508190555080600860008282546109689190611550565b90915550506000546001600160a01b0316156109e5576000546040516335cfbd5b60e11b81526001600160a01b0385811660048301526024820184905290911690636b9f7ab690604401600060405180830381600087803b1580156109cc57600080fd5b505af11580156109e0573d6000803e3d6000fd5b505050505b866001600160a01b0316836001600160a01b03167f65db98422e8b7340e0d6dfa99bbadd4ba95a51fefafd8f0e1cbbb2e819429a428684604051610a33929190918252602082015260400190565b60405180910390a35b50505b915080610a4b81611563565b915050610841565b50505050565b6002546001600160a01b03163314610a8457604051634755657960e01b815260040160405180910390fd5b600354600160a01b900460ff1615610aaf5760405163238f75d360e01b815260040160405180910390fd5b6003805460ff60a01b1916600160a01b179055600280546001600160a01b0319169055565b6001600160a01b038216610afb5760405163d92e233d60e01b815260040160405180910390fd5b6001600160a01b0382166000908152600460208190526040909120015460ff1615610b3957604051630ea075bf60e21b815260040160405180910390fd5b806001600160a01b0316826001600160a01b031603610b6b57604051632af47b8760e11b815260040160405180910390fd5b6001600160a01b03811615801590610ba057506001600160a01b0381166000908152600460208190526040909120015460ff16155b15610bbe57604051630c22084560e31b815260040160405180910390fd5b610bfb6001600160a01b037f0000000000000000000000000000000000000000000000000000000000000000168330670de0b6b3a76400006111b7565b670de0b6b3a764000060096000828254610c159190611550565b90915550506001546001600160a01b031615610d7257600154610c6d906001600160a01b037f000000000000000000000000000000000000000000000000000000000000000081169116670de0b6b3a76400006111ed565b60015460405163c2c9068760e01b8152670de0b6b3a76400006004820152600060248201526001600160a01b039091169063c2c90687906044016020604051808303816000875af1925050508015610ce2575060408051601f3d908101601f19168201909252610cdf918101906115b5565b60015b15610d72578015610d7057610d236001600160a01b037f00000000000000000000000000000000000000000000000000000000000000001661dead83610f06565b60408051670de0b6b3a76400008152602081018390526001600160a01b038516917f285cf258850ff8cf5d55ec19e46476d4e3d5209972f80a7880a38ac7011e7023910160405180910390a25b505b6001600160a01b0380831660009081526004602081905260408220908101805460ff1916600117905580549284166001600160a01b0319909316831781556002015515610dfb576001600160a01b0381811660009081526004602090815260408220600190810180549182018155835291200180546001600160a01b0319169184169190911790555b60078054906000610e0b83611563565b9190505550806001600160a01b0316826001600160a01b03167f2138b9314634f9fdd5e49bee3eaf17ca557b6637524d0db759711c3bfcd3d85060405160405180910390a35050565b600061079682610f40565b6001600160a01b038116600090815260046020908152604091829020600101805483518184028101840190945280845260609392830182828015610ecc57602002820191906000526020600020905b81546001600160a01b03168152600190910190602001808311610eae575b50505050509050919050565b610ee0611241565b60027f9b779b17422d0df92223018b32b4d1fa46e071723d6817e2486d003becc55f0055565b610f138383836001611283565b61078457604051635274afe760e01b81526001600160a01b03841660048201526024015b60405180910390fd5b6001600160a01b03811660009081526004602052604081208190600101815b8154811015611041576000546001600160a01b031615611039576000805483546001600160a01b039091169063142a3da390859085908110610fa357610fa3611524565b60009182526020909120015460405160e083901b6001600160e01b03191681526001600160a01b039091166004820152602401602060405180830381865afa158015610ff3573d6000803e3d6000fd5b505050506040513d601f19601f8201168201806040525081019061101791906115b5565b905068056bc75e2d631000008110611037578361103381611563565b9450505b505b600101610f5f565b50909392505050565b60006007821061105c57506014919050565b6005821061106c57506010919050565b6003821061107c5750600c919050565b6002821061108c57506008919050565b6001821061109c57506003919050565b506000919050565b6000601482106110b657506000610796565b6001600160a01b0383166000908152600460205260408120600101805490915b825481101561112d576111198382815481106110f4576110f4611524565b6000918252602090912001546001600160a01b0316611114876001611550565b6110a4565b6111239083611550565b91506001016110d6565b50949350505050565b6000816001036111495750610bb8919050565b8160020361115a57506107d0919050565b6003821015801561116c5750600a8211155b1561117957506064919050565b600b821015801561118b5750600f8211155b1561119857506032919050565b601082101580156111aa575060148211155b1561109c57506019919050565b6111c58484848460016112e9565b610a5357604051635274afe760e01b81526001600160a01b0385166004820152602401610f37565b6111fa838383600061135b565b6107845761120c83836000600161135b565b61123457604051635274afe760e01b81526001600160a01b0384166004820152602401610f37565b610f13838383600161135b565b7f9b779b17422d0df92223018b32b4d1fa46e071723d6817e2486d003becc55f00546002036105f657604051633ee5aeb560e01b815260040160405180910390fd5b60405163a9059cbb60e01b60008181526001600160a01b038616600452602485905291602083604481808b5af1925060016000511483166112dd5783831516156112d0573d6000823e3d81fd5b6000873b113d1516831692505b60405250949350505050565b6040516323b872dd60e01b60008181526001600160a01b038781166004528616602452604485905291602083606481808c5af19250600160005114831661134957838315161561133c573d6000823e3d81fd5b6000883b113d1516831692505b60405250600060605295945050505050565b60405163095ea7b360e01b60008181526001600160a01b038616600452602485905291602083604481808b5af1925060016000511483166112dd5783831516156112d0573d6000823e3d81fd5b604051806102a001604052806015906020820280368337509192915050565b80356001600160a01b03811681146113de57600080fd5b919050565b600080604083850312156113f657600080fd5b6113ff836113c7565b946020939093013593505050565b60006020828403121561141f57600080fd5b611428826113c7565b9392505050565b6102a08101818360005b6015811015611458578151835260209283019290910190600101611439565b50505092915050565b60008060006060848603121561147657600080fd5b61147f846113c7565b925061148d602085016113c7565b915061149b604085016113c7565b90509250925092565b600080604083850312156114b757600080fd5b6114c0836113c7565b91506114ce602084016113c7565b90509250929050565b6020808252825182820181905260009190848201906040850190845b818110156115185783516001600160a01b0316835292840192918401916001016114f3565b50909695505050505050565b634e487b7160e01b600052603260045260246000fd5b634e487b7160e01b600052601160045260246000fd5b808201808211156107965761079661153a565b6000600182016115755761157561153a565b5060010190565b80820281158282048414176107965761079661153a565b6000826115b057634e487b7160e01b600052601260045260246000fd5b500490565b6000602082840312156115c757600080fd5b505191905056fea2646970667358221220f432a4f7b3174f2393380dddf704150e76a5ce4d512503a9ac756c3c30874efe64736f6c63430008180033","opcodes":"PUSH1 0xC0 PUSH1 0x40 MSTORE CALLVALUE DUP1 ISZERO PUSH3 0x11 JUMPI PUSH1 0x0 DUP1 REVERT JUMPDEST POP PUSH1 0x40 MLOAD PUSH3 0x175A CODESIZE SUB DUP1 PUSH3 0x175A DUP4 CODECOPY DUP2 ADD PUSH1 0x40 DUP2 SWAP1 MSTORE PUSH3 0x34 SWAP2 PUSH3 0xDC JUMP JUMPDEST PUSH1 0x1 PUSH32 0x9B779B17422D0DF92223018B32B4D1FA46E071723D6817E2486D003BECC55F00 SSTORE PUSH1 0x1 PUSH1 0x1 PUSH1 0xA0 SHL SUB DUP3 AND ISZERO DUP1 PUSH3 0x76 JUMPI POP PUSH1 0x1 PUSH1 0x1 PUSH1 0xA0 SHL SUB DUP2 AND ISZERO JUMPDEST ISZERO PUSH3 0x95 JUMPI PUSH1 0x40 MLOAD PUSH4 0xD92E233D PUSH1 0xE0 SHL DUP2 MSTORE PUSH1 0x4 ADD PUSH1 0x40 MLOAD DUP1 SWAP2 SUB SWAP1 REVERT JUMPDEST PUSH1 0x1 PUSH1 0x1 PUSH1 0xA0 SHL SUB SWAP2 DUP3 AND PUSH1 0x80 MSTORE AND PUSH1 0xA0 MSTORE PUSH1 0x2 DUP1 SLOAD PUSH1 0x1 PUSH1 0x1 PUSH1 0xA0 SHL SUB NOT AND CALLER OR SWAP1 SSTORE PUSH3 0x114 JUMP JUMPDEST DUP1 MLOAD PUSH1 0x1 PUSH1 0x1 PUSH1 0xA0 SHL SUB DUP2 AND DUP2 EQ PUSH3 0xD7 JUMPI PUSH1 0x0 DUP1 REVERT JUMPDEST SWAP2 SWAP1 POP JUMP JUMPDEST PUSH1 0x0 DUP1 PUSH1 0x40 DUP4 DUP6 SUB SLT ISZERO PUSH3 0xF0 JUMPI PUSH1 0x0 DUP1 REVERT JUMPDEST PUSH3 0xFB DUP4 PUSH3 0xBF JUMP JUMPDEST SWAP2 POP PUSH3 0x10B PUSH1 0x20 DUP5 ADD PUSH3 0xBF JUMP JUMPDEST SWAP1 POP SWAP3 POP SWAP3 SWAP1 POP JUMP JUMPDEST PUSH1 0x80 MLOAD PUSH1 0xA0 MLOAD PUSH2 0x1604 PUSH3 0x156 PUSH1 0x0 CODECOPY PUSH1 0x0 DUP2 DUP2 PUSH2 0x2E5 ADD MSTORE PUSH2 0xCFA ADD MSTORE PUSH1 0x0 DUP2 DUP2 PUSH2 0x324 ADD MSTORE DUP2 DUP2 PUSH2 0x568 ADD MSTORE DUP2 DUP2 PUSH2 0xBCB ADD MSTORE PUSH2 0xC3C ADD MSTORE PUSH2 0x1604 PUSH1 0x0 RETURN INVALID PUSH1 0x80 PUSH1 0x40 MSTORE CALLVALUE DUP1 ISZERO PUSH2 0x10 JUMPI PUSH1 0x0 DUP1 REVERT JUMPDEST POP PUSH1 0x4 CALLDATASIZE LT PUSH2 0x1C4 JUMPI PUSH1 0x0 CALLDATALOAD PUSH1 0xE0 SHR DUP1 PUSH4 0x64B4F751 GT PUSH2 0xF9 JUMPI DUP1 PUSH4 0xB6635BE6 GT PUSH2 0x97 JUMPI DUP1 PUSH4 0xC6D83FCF GT PUSH2 0x71 JUMPI DUP1 PUSH4 0xC6D83FCF EQ PUSH2 0x4CA JUMPI DUP1 PUSH4 0xD2C8E0E5 EQ PUSH2 0x4D3 JUMPI DUP1 PUSH4 0xD33219B4 EQ PUSH2 0x4F3 JUMPI DUP1 PUSH4 0xF851A440 EQ PUSH2 0x506 JUMPI PUSH1 0x0 DUP1 REVERT JUMPDEST DUP1 PUSH4 0xB6635BE6 EQ PUSH2 0x463 JUMPI DUP1 PUSH4 0xB8458282 EQ PUSH2 0x487 JUMPI DUP1 PUSH4 0xC3C5A547 EQ PUSH2 0x49A JUMPI PUSH1 0x0 DUP1 REVERT JUMPDEST DUP1 PUSH4 0x8565C2BF GT PUSH2 0xD3 JUMPI DUP1 PUSH4 0x8565C2BF EQ PUSH2 0x42C JUMPI DUP1 PUSH4 0x8AEA8F71 EQ PUSH2 0x43F JUMPI DUP1 PUSH4 0x927416C0 EQ PUSH2 0x447 JUMPI DUP1 PUSH4 0xAA677354 EQ PUSH2 0x450 JUMPI PUSH1 0x0 DUP1 REVERT JUMPDEST DUP1 PUSH4 0x64B4F751 EQ PUSH2 0x3D4 JUMPI DUP1 PUSH4 0x64DF8222 EQ PUSH2 0x3E3 JUMPI DUP1 PUSH4 0x8000D991 EQ PUSH2 0x419 JUMPI PUSH1 0x0 DUP1 REVERT JUMPDEST DUP1 PUSH4 0x2F48AB7D GT PUSH2 0x166 JUMPI DUP1 PUSH4 0x519F1640 GT PUSH2 0x140 JUMPI DUP1 PUSH4 0x519F1640 EQ PUSH2 0x385 JUMPI DUP1 PUSH4 0x53AAA63B EQ PUSH2 0x398 JUMPI DUP1 PUSH4 0x55D28F20 EQ PUSH2 0x3B8 JUMPI DUP1 PUSH4 0x60C6D8AE EQ PUSH2 0x3CB JUMPI PUSH1 0x0 DUP1 REVERT JUMPDEST DUP1 PUSH4 0x2F48AB7D EQ PUSH2 0x31F JUMPI DUP1 PUSH4 0x30131384 EQ PUSH2 0x346 JUMPI DUP1 PUSH4 0x4A9FEFC7 EQ PUSH2 0x359 JUMPI PUSH1 0x0 DUP1 REVERT JUMPDEST DUP1 PUSH4 0x1E97F48A GT PUSH2 0x1A2 JUMPI DUP1 PUSH4 0x1E97F48A EQ PUSH2 0x281 JUMPI DUP1 PUSH4 0x1F791B69 EQ PUSH2 0x2A1 JUMPI DUP1 PUSH4 0x2573912C EQ PUSH2 0x2CD JUMPI DUP1 PUSH4 0x2ACFBCA3 EQ PUSH2 0x2E0 JUMPI PUSH1 0x0 DUP1 REVERT JUMPDEST DUP1 PUSH4 0x5EAAB4B EQ PUSH2 0x1C9 JUMPI DUP1 PUSH4 0xB35D7D1 EQ PUSH2 0x1D3 JUMPI DUP1 PUSH4 0x1959A002 EQ PUSH2 0x211 JUMPI JUMPDEST PUSH1 0x0 DUP1 REVERT JUMPDEST PUSH2 0x1D1 PUSH2 0x519 JUMP JUMPDEST STOP JUMPDEST PUSH2 0x1FE PUSH2 0x1E1 CALLDATASIZE PUSH1 0x4 PUSH2 0x13E3 JUMP JUMPDEST PUSH1 0x6 PUSH1 0x20 SWAP1 DUP2 MSTORE PUSH1 0x0 SWAP3 DUP4 MSTORE PUSH1 0x40 DUP1 DUP5 KECCAK256 SWAP1 SWAP2 MSTORE SWAP1 DUP3 MSTORE SWAP1 KECCAK256 SLOAD DUP2 JUMP JUMPDEST PUSH1 0x40 MLOAD SWAP1 DUP2 MSTORE PUSH1 0x20 ADD JUMPDEST PUSH1 0x40 MLOAD DUP1 SWAP2 SUB SWAP1 RETURN JUMPDEST PUSH2 0x255 PUSH2 0x21F CALLDATASIZE PUSH1 0x4 PUSH2 0x140D JUMP JUMPDEST PUSH1 0x4 PUSH1 0x20 DUP2 SWAP1 MSTORE PUSH1 0x0 SWAP2 DUP3 MSTORE PUSH1 0x40 SWAP1 SWAP2 KECCAK256 DUP1 SLOAD PUSH1 0x2 DUP3 ADD SLOAD PUSH1 0x3 DUP4 ADD SLOAD SWAP3 SWAP1 SWAP4 ADD SLOAD PUSH1 0x1 PUSH1 0x1 PUSH1 0xA0 SHL SUB SWAP1 SWAP2 AND SWAP3 SWAP2 SWAP1 PUSH1 0xFF AND DUP5 JUMP JUMPDEST PUSH1 0x40 DUP1 MLOAD PUSH1 0x1 PUSH1 0x1 PUSH1 0xA0 SHL SUB SWAP1 SWAP6 AND DUP6 MSTORE PUSH1 0x20 DUP6 ADD SWAP4 SWAP1 SWAP4 MSTORE SWAP2 DUP4 ADD MSTORE ISZERO ISZERO PUSH1 0x60 DUP3 ADD MSTORE PUSH1 0x80 ADD PUSH2 0x208 JUMP JUMPDEST PUSH2 0x294 PUSH2 0x28F CALLDATASIZE PUSH1 0x4 PUSH2 0x140D JUMP JUMPDEST PUSH2 0x5F8 JUMP JUMPDEST PUSH1 0x40 MLOAD PUSH2 0x208 SWAP2 SWAP1 PUSH2 0x142F JUMP JUMPDEST PUSH2 0x1FE PUSH2 0x2AF CALLDATASIZE PUSH1 0x4 PUSH2 0x140D JUMP JUMPDEST PUSH1 0x1 PUSH1 0x1 PUSH1 0xA0 SHL SUB AND PUSH1 0x0 SWAP1 DUP2 MSTORE PUSH1 0x4 PUSH1 0x20 MSTORE PUSH1 0x40 SWAP1 KECCAK256 PUSH1 0x2 ADD SLOAD SWAP1 JUMP JUMPDEST PUSH2 0x1D1 PUSH2 0x2DB CALLDATASIZE PUSH1 0x4 PUSH2 0x140D JUMP JUMPDEST PUSH2 0x690 JUMP JUMPDEST PUSH2 0x307 PUSH32 0x0 DUP2 JUMP JUMPDEST PUSH1 0x40 MLOAD PUSH1 0x1 PUSH1 0x1 PUSH1 0xA0 SHL SUB SWAP1 SWAP2 AND DUP2 MSTORE PUSH1 0x20 ADD PUSH2 0x208 JUMP JUMPDEST PUSH2 0x307 PUSH32 0x0 DUP2 JUMP JUMPDEST PUSH1 0x0 SLOAD PUSH2 0x307 SWAP1 PUSH1 0x1 PUSH1 0x1 PUSH1 0xA0 SHL SUB AND DUP2 JUMP JUMPDEST PUSH2 0x307 PUSH2 0x367 CALLDATASIZE PUSH1 0x4 PUSH2 0x140D JUMP JUMPDEST PUSH1 0x1 PUSH1 0x1 PUSH1 0xA0 SHL SUB SWAP1 DUP2 AND PUSH1 0x0 SWAP1 DUP2 MSTORE PUSH1 0x4 PUSH1 0x20 MSTORE PUSH1 0x40 SWAP1 KECCAK256 SLOAD AND SWAP1 JUMP JUMPDEST PUSH2 0x1FE PUSH2 0x393 CALLDATASIZE PUSH1 0x4 PUSH2 0x140D JUMP JUMPDEST PUSH2 0x789 JUMP JUMPDEST PUSH2 0x1FE PUSH2 0x3A6 CALLDATASIZE PUSH1 0x4 PUSH2 0x140D JUMP JUMPDEST PUSH1 0x5 PUSH1 0x20 MSTORE PUSH1 0x0 SWAP1 DUP2 MSTORE PUSH1 0x40 SWAP1 KECCAK256 SLOAD DUP2 JUMP JUMPDEST PUSH2 0x1D1 PUSH2 0x3C6 CALLDATASIZE PUSH1 0x4 PUSH2 0x1461 JUMP JUMPDEST PUSH2 0x79C JUMP JUMPDEST PUSH2 0x1FE PUSH1 0x9 SLOAD DUP2 JUMP JUMPDEST PUSH2 0x1FE PUSH8 0xDE0B6B3A7640000 DUP2 JUMP JUMPDEST PUSH2 0x1FE PUSH2 0x3F1 CALLDATASIZE PUSH1 0x4 PUSH2 0x13E3 JUMP JUMPDEST PUSH1 0x1 PUSH1 0x1 PUSH1 0xA0 SHL SUB SWAP2 SWAP1 SWAP2 AND PUSH1 0x0 SWAP1 DUP2 MSTORE PUSH1 0x6 PUSH1 0x20 SWAP1 DUP2 MSTORE PUSH1 0x40 DUP1 DUP4 KECCAK256 SWAP4 DUP4 MSTORE SWAP3 SWAP1 MSTORE KECCAK256 SLOAD SWAP1 JUMP JUMPDEST PUSH2 0x1D1 PUSH2 0x427 CALLDATASIZE PUSH1 0x4 PUSH2 0x13E3 JUMP JUMPDEST PUSH2 0x831 JUMP JUMPDEST PUSH1 0x1 SLOAD PUSH2 0x307 SWAP1 PUSH1 0x1 PUSH1 0x1 PUSH1 0xA0 SHL SUB AND DUP2 JUMP JUMPDEST PUSH2 0x1D1 PUSH2 0xA59 JUMP JUMPDEST PUSH2 0x1FE PUSH1 0x7 SLOAD DUP2 JUMP JUMPDEST PUSH2 0x1D1 PUSH2 0x45E CALLDATASIZE PUSH1 0x4 PUSH2 0x14A4 JUMP JUMPDEST PUSH2 0xAD4 JUMP JUMPDEST PUSH1 0x3 SLOAD PUSH2 0x477 SWAP1 PUSH1 0x1 PUSH1 0xA0 SHL SWAP1 DIV PUSH1 0xFF AND DUP2 JUMP JUMPDEST PUSH1 0x40 MLOAD SWAP1 ISZERO ISZERO DUP2 MSTORE PUSH1 0x20 ADD PUSH2 0x208 JUMP JUMPDEST PUSH2 0x1FE PUSH2 0x495 CALLDATASIZE PUSH1 0x4 PUSH2 0x140D JUMP JUMPDEST PUSH2 0xE54 JUMP JUMPDEST PUSH2 0x477 PUSH2 0x4A8 CALLDATASIZE PUSH1 0x4 PUSH2 0x140D JUMP JUMPDEST PUSH1 0x1 PUSH1 0x1 PUSH1 0xA0 SHL SUB AND PUSH1 0x0 SWAP1 DUP2 MSTORE PUSH1 0x4 PUSH1 0x20 DUP2 SWAP1 MSTORE PUSH1 0x40 SWAP1 SWAP2 KECCAK256 ADD SLOAD PUSH1 0xFF AND SWAP1 JUMP JUMPDEST PUSH2 0x1FE PUSH1 0x8 SLOAD DUP2 JUMP JUMPDEST PUSH2 0x4E6 PUSH2 0x4E1 CALLDATASIZE PUSH1 0x4 PUSH2 0x140D JUMP JUMPDEST PUSH2 0xE5F JUMP JUMPDEST PUSH1 0x40 MLOAD PUSH2 0x208 SWAP2 SWAP1 PUSH2 0x14D7 JUMP JUMPDEST PUSH1 0x3 SLOAD PUSH2 0x307 SWAP1 PUSH1 0x1 PUSH1 0x1 PUSH1 0xA0 SHL SUB AND DUP2 JUMP JUMPDEST PUSH1 0x2 SLOAD PUSH2 0x307 SWAP1 PUSH1 0x1 PUSH1 0x1 PUSH1 0xA0 SHL SUB AND DUP2 JUMP JUMPDEST PUSH2 0x521 PUSH2 0xED8 JUMP JUMPDEST CALLER PUSH1 0x0 SWAP1 DUP2 MSTORE PUSH1 0x5 PUSH1 0x20 MSTORE PUSH1 0x40 DUP2 KECCAK256 SLOAD SWAP1 DUP2 SWAP1 SUB PUSH2 0x552 JUMPI PUSH1 0x40 MLOAD PUSH4 0x12D37EE5 PUSH1 0xE3 SHL DUP2 MSTORE PUSH1 0x4 ADD PUSH1 0x40 MLOAD DUP1 SWAP2 SUB SWAP1 REVERT JUMPDEST CALLER PUSH1 0x0 DUP2 DUP2 MSTORE PUSH1 0x5 PUSH1 0x20 MSTORE PUSH1 0x40 DUP2 KECCAK256 SSTORE PUSH2 0x597 SWAP1 PUSH32 0x0 PUSH1 0x1 PUSH1 0x1 PUSH1 0xA0 SHL SUB AND SWAP1 DUP4 PUSH2 0xF06 JUMP JUMPDEST PUSH1 0x40 MLOAD DUP2 DUP2 MSTORE CALLER SWAP1 PUSH32 0x98741ECF35C5D20A8ED68DBD8540500684864A6C98C2A41A5844D0B3A2357D43 SWAP1 PUSH1 0x20 ADD PUSH1 0x40 MLOAD DUP1 SWAP2 SUB SWAP1 LOG2 POP PUSH2 0x5F6 PUSH1 0x1 PUSH32 0x9B779B17422D0DF92223018B32B4D1FA46E071723D6817E2486D003BECC55F00 SSTORE JUMP JUMPDEST JUMP JUMPDEST PUSH2 0x600 PUSH2 0x13A8 JUMP JUMPDEST PUSH2 0x608 PUSH2 0x13A8 JUMP JUMPDEST PUSH1 0x1 JUMPDEST PUSH1 0x14 DUP2 GT PUSH2 0x689 JUMPI PUSH1 0x1 PUSH1 0x1 PUSH1 0xA0 SHL SUB DUP5 AND PUSH1 0x0 SWAP1 DUP2 MSTORE PUSH1 0x6 PUSH1 0x20 SWAP1 DUP2 MSTORE PUSH1 0x40 DUP1 DUP4 KECCAK256 DUP5 DUP5 MSTORE SWAP1 SWAP2 MSTORE SWAP1 KECCAK256 SLOAD DUP3 DUP3 PUSH1 0x15 DUP2 LT PUSH2 0x649 JUMPI PUSH2 0x649 PUSH2 0x1524 JUMP JUMPDEST PUSH1 0x20 MUL ADD MSTORE DUP2 DUP2 PUSH1 0x15 DUP2 LT PUSH2 0x660 JUMPI PUSH2 0x660 PUSH2 0x1524 JUMP JUMPDEST PUSH1 0x20 MUL ADD MLOAD DUP3 MLOAD DUP4 SWAP1 PUSH2 0x674 SWAP1 DUP4 SWAP1 PUSH2 0x1550 JUMP JUMPDEST SWAP1 MSTORE POP DUP1 PUSH2 0x681 DUP2 PUSH2 0x1563 JUMP JUMPDEST SWAP2 POP POP PUSH2 0x60B JUMP JUMPDEST POP SWAP3 SWAP2 POP POP JUMP JUMPDEST PUSH1 0x1 PUSH1 0x1 PUSH1 0xA0 SHL SUB DUP2 AND PUSH1 0x0 SWAP1 DUP2 MSTORE PUSH1 0x4 PUSH1 0x20 DUP2 SWAP1 MSTORE PUSH1 0x40 SWAP1 SWAP2 KECCAK256 ADD SLOAD PUSH1 0xFF AND PUSH2 0x6B7 JUMPI POP JUMP JUMPDEST PUSH1 0x0 PUSH2 0x6C2 DUP3 PUSH2 0xF40 JUMP JUMPDEST SWAP1 POP PUSH1 0x0 PUSH2 0x6CF DUP3 PUSH2 0x104A JUMP JUMPDEST PUSH1 0x1 PUSH1 0x1 PUSH1 0xA0 SHL SUB DUP5 AND PUSH1 0x0 SWAP1 DUP2 MSTORE PUSH1 0x4 PUSH1 0x20 MSTORE PUSH1 0x40 SWAP1 KECCAK256 PUSH1 0x2 ADD SLOAD SWAP1 SWAP2 POP DUP2 GT ISZERO PUSH2 0x784 JUMPI PUSH1 0x1 PUSH1 0x1 PUSH1 0xA0 SHL SUB DUP4 AND PUSH1 0x0 SWAP1 DUP2 MSTORE PUSH1 0x4 PUSH1 0x20 MSTORE PUSH1 0x40 DUP2 KECCAK256 PUSH1 0x2 ADD DUP1 SLOAD SWAP1 DUP4 SWAP1 SSTORE SWAP1 PUSH2 0x722 DUP3 PUSH1 0x1 PUSH2 0x1550 JUMP JUMPDEST SWAP1 POP JUMPDEST DUP3 DUP2 GT PUSH2 0x781 JUMPI DUP5 PUSH1 0x1 PUSH1 0x1 PUSH1 0xA0 SHL SUB AND PUSH32 0x84D80AC1B703449F5931DAA49AA5AD902F79624E20313DB57074F53C5ACA341 DUP3 PUSH1 0x40 MLOAD PUSH2 0x767 SWAP2 DUP2 MSTORE PUSH1 0x20 ADD SWAP1 JUMP JUMPDEST PUSH1 0x40 MLOAD DUP1 SWAP2 SUB SWAP1 LOG2 DUP1 PUSH2 0x779 DUP2 PUSH2 0x1563 JUMP JUMPDEST SWAP2 POP POP PUSH2 0x725 JUMP JUMPDEST POP POP JUMPDEST POP POP POP JUMP JUMPDEST PUSH1 0x0 PUSH2 0x796 DUP3 PUSH1 0x0 PUSH2 0x10A4 JUMP JUMPDEST SWAP3 SWAP2 POP POP JUMP JUMPDEST PUSH1 0x2 SLOAD PUSH1 0x1 PUSH1 0x1 PUSH1 0xA0 SHL SUB AND CALLER EQ PUSH2 0x7C7 JUMPI PUSH1 0x40 MLOAD PUSH4 0x47556579 PUSH1 0xE0 SHL DUP2 MSTORE PUSH1 0x4 ADD PUSH1 0x40 MLOAD DUP1 SWAP2 SUB SWAP1 REVERT JUMPDEST PUSH1 0x3 SLOAD PUSH1 0x1 PUSH1 0xA0 SHL SWAP1 DIV PUSH1 0xFF AND ISZERO PUSH2 0x7F2 JUMPI PUSH1 0x40 MLOAD PUSH4 0x238F75D3 PUSH1 0xE0 SHL DUP2 MSTORE PUSH1 0x4 ADD PUSH1 0x40 MLOAD DUP1 SWAP2 SUB SWAP1 REVERT JUMPDEST PUSH1 0x0 DUP1 SLOAD PUSH1 0x1 PUSH1 0x1 PUSH1 0xA0 SHL SUB SWAP5 DUP6 AND PUSH1 0x1 PUSH1 0x1 PUSH1 0xA0 SHL SUB NOT SWAP2 DUP3 AND OR SWAP1 SWAP2 SSTORE PUSH1 0x1 DUP1 SLOAD SWAP4 DUP6 AND SWAP4 DUP3 AND SWAP4 SWAP1 SWAP4 OR SWAP1 SWAP3 SSTORE PUSH1 0x3 DUP1 SLOAD SWAP2 SWAP1 SWAP4 AND SWAP2 AND OR SWAP1 SSTORE JUMP JUMPDEST DUP1 PUSH1 0x0 SUB PUSH2 0x83D JUMPI POP POP JUMP JUMPDEST DUP2 PUSH1 0x1 JUMPDEST PUSH1 0x14 DUP2 GT PUSH2 0xA53 JUMPI PUSH1 0x1 PUSH1 0x1 PUSH1 0xA0 SHL SUB DUP1 DUP4 AND PUSH1 0x0 SWAP1 DUP2 MSTORE PUSH1 0x4 PUSH1 0x20 MSTORE PUSH1 0x40 SWAP1 KECCAK256 SLOAD AND DUP1 PUSH2 0x86F JUMPI POP PUSH2 0xA53 JUMP JUMPDEST PUSH1 0x1 PUSH1 0x1 PUSH1 0xA0 SHL SUB DUP2 AND PUSH1 0x0 SWAP1 DUP2 MSTORE PUSH1 0x4 PUSH1 0x20 MSTORE PUSH1 0x40 SWAP1 KECCAK256 PUSH1 0x2 ADD SLOAD DUP3 GT PUSH2 0xA3F JUMPI PUSH1 0x0 PUSH2 0x89C DUP4 PUSH2 0x1136 JUMP JUMPDEST SWAP1 POP PUSH1 0x0 PUSH2 0x2710 PUSH2 0x8AD DUP4 DUP9 PUSH2 0x157C JUMP JUMPDEST PUSH2 0x8B7 SWAP2 SWAP1 PUSH2 0x1593 JUMP JUMPDEST SWAP1 POP DUP1 ISZERO PUSH2 0xA3C JUMPI PUSH1 0x1 PUSH1 0x1 PUSH1 0xA0 SHL SUB DUP4 AND PUSH1 0x0 SWAP1 DUP2 MSTORE PUSH1 0x5 PUSH1 0x20 MSTORE PUSH1 0x40 DUP2 KECCAK256 DUP1 SLOAD DUP4 SWAP3 SWAP1 PUSH2 0x8E7 SWAP1 DUP5 SWAP1 PUSH2 0x1550 JUMP JUMPDEST SWAP1 SWAP2 SSTORE POP POP PUSH1 0x1 PUSH1 0x1 PUSH1 0xA0 SHL SUB DUP4 AND PUSH1 0x0 SWAP1 DUP2 MSTORE PUSH1 0x6 PUSH1 0x20 SWAP1 DUP2 MSTORE PUSH1 0x40 DUP1 DUP4 KECCAK256 DUP8 DUP5 MSTORE SWAP1 SWAP2 MSTORE DUP2 KECCAK256 DUP1 SLOAD DUP4 SWAP3 SWAP1 PUSH2 0x91F SWAP1 DUP5 SWAP1 PUSH2 0x1550 JUMP JUMPDEST SWAP1 SWAP2 SSTORE POP POP PUSH1 0x1 PUSH1 0x1 PUSH1 0xA0 SHL SUB DUP4 AND PUSH1 0x0 SWAP1 DUP2 MSTORE PUSH1 0x4 PUSH1 0x20 MSTORE PUSH1 0x40 DUP2 KECCAK256 PUSH1 0x3 ADD DUP1 SLOAD DUP4 SWAP3 SWAP1 PUSH2 0x94F SWAP1 DUP5 SWAP1 PUSH2 0x1550 JUMP JUMPDEST SWAP3 POP POP DUP2 SWAP1 SSTORE POP DUP1 PUSH1 0x8 PUSH1 0x0 DUP3 DUP3 SLOAD PUSH2 0x968 SWAP2 SWAP1 PUSH2 0x1550 JUMP JUMPDEST SWAP1 SWAP2 SSTORE POP POP PUSH1 0x0 SLOAD PUSH1 0x1 PUSH1 0x1 PUSH1 0xA0 SHL SUB AND ISZERO PUSH2 0x9E5 JUMPI PUSH1 0x0 SLOAD PUSH1 0x40 MLOAD PUSH4 0x35CFBD5B PUSH1 0xE1 SHL DUP2 MSTORE PUSH1 0x1 PUSH1 0x1 PUSH1 0xA0 SHL SUB DUP6 DUP2 AND PUSH1 0x4 DUP4 ADD MSTORE PUSH1 0x24 DUP3 ADD DUP5 SWAP1 MSTORE SWAP1 SWAP2 AND SWAP1 PUSH4 0x6B9F7AB6 SWAP1 PUSH1 0x44 ADD PUSH1 0x0 PUSH1 0x40 MLOAD DUP1 DUP4 SUB DUP2 PUSH1 0x0 DUP8 DUP1 EXTCODESIZE ISZERO DUP1 ISZERO PUSH2 0x9CC JUMPI PUSH1 0x0 DUP1 REVERT JUMPDEST POP GAS CALL ISZERO DUP1 ISZERO PUSH2 0x9E0 JUMPI RETURNDATASIZE PUSH1 0x0 DUP1 RETURNDATACOPY RETURNDATASIZE PUSH1 0x0 REVERT JUMPDEST POP POP POP POP JUMPDEST DUP7 PUSH1 0x1 PUSH1 0x1 PUSH1 0xA0 SHL SUB AND DUP4 PUSH1 0x1 PUSH1 0x1 PUSH1 0xA0 SHL SUB AND PUSH32 0x65DB98422E8B7340E0D6DFA99BBADD4BA95A51FEFAFD8F0E1CBBB2E819429A42 DUP7 DUP5 PUSH1 0x40 MLOAD PUSH2 0xA33 SWAP3 SWAP2 SWAP1 SWAP2 DUP3 MSTORE PUSH1 0x20 DUP3 ADD MSTORE PUSH1 0x40 ADD SWAP1 JUMP JUMPDEST PUSH1 0x40 MLOAD DUP1 SWAP2 SUB SWAP1 LOG3 JUMPDEST POP POP JUMPDEST SWAP2 POP DUP1 PUSH2 0xA4B DUP2 PUSH2 0x1563 JUMP JUMPDEST SWAP2 POP POP PUSH2 0x841 JUMP JUMPDEST POP POP POP POP JUMP JUMPDEST PUSH1 0x2 SLOAD PUSH1 0x1 PUSH1 0x1 PUSH1 0xA0 SHL SUB AND CALLER EQ PUSH2 0xA84 JUMPI PUSH1 0x40 MLOAD PUSH4 0x47556579 PUSH1 0xE0 SHL DUP2 MSTORE PUSH1 0x4 ADD PUSH1 0x40 MLOAD DUP1 SWAP2 SUB SWAP1 REVERT JUMPDEST PUSH1 0x3 SLOAD PUSH1 0x1 PUSH1 0xA0 SHL SWAP1 DIV PUSH1 0xFF AND ISZERO PUSH2 0xAAF JUMPI PUSH1 0x40 MLOAD PUSH4 0x238F75D3 PUSH1 0xE0 SHL DUP2 MSTORE PUSH1 0x4 ADD PUSH1 0x40 MLOAD DUP1 SWAP2 SUB SWAP1 REVERT JUMPDEST PUSH1 0x3 DUP1 SLOAD PUSH1 0xFF PUSH1 0xA0 SHL NOT AND PUSH1 0x1 PUSH1 0xA0 SHL OR SWAP1 SSTORE PUSH1 0x2 DUP1 SLOAD PUSH1 0x1 PUSH1 0x1 PUSH1 0xA0 SHL SUB NOT AND SWAP1 SSTORE JUMP JUMPDEST PUSH1 0x1 PUSH1 0x1 PUSH1 0xA0 SHL SUB DUP3 AND PUSH2 0xAFB JUMPI PUSH1 0x40 MLOAD PUSH4 0xD92E233D PUSH1 0xE0 SHL DUP2 MSTORE PUSH1 0x4 ADD PUSH1 0x40 MLOAD DUP1 SWAP2 SUB SWAP1 REVERT JUMPDEST PUSH1 0x1 PUSH1 0x1 PUSH1 0xA0 SHL SUB DUP3 AND PUSH1 0x0 SWAP1 DUP2 MSTORE PUSH1 0x4 PUSH1 0x20 DUP2 SWAP1 MSTORE PUSH1 0x40 SWAP1 SWAP2 KECCAK256 ADD SLOAD PUSH1 0xFF AND ISZERO PUSH2 0xB39 JUMPI PUSH1 0x40 MLOAD PUSH4 0xEA075BF PUSH1 0xE2 SHL DUP2 MSTORE PUSH1 0x4 ADD PUSH1 0x40 MLOAD DUP1 SWAP2 SUB SWAP1 REVERT JUMPDEST DUP1 PUSH1 0x1 PUSH1 0x1 PUSH1 0xA0 SHL SUB AND DUP3 PUSH1 0x1 PUSH1 0x1 PUSH1 0xA0 SHL SUB AND SUB PUSH2 0xB6B JUMPI PUSH1 0x40 MLOAD PUSH4 0x2AF47B87 PUSH1 0xE1 SHL DUP2 MSTORE PUSH1 0x4 ADD PUSH1 0x40 MLOAD DUP1 SWAP2 SUB SWAP1 REVERT JUMPDEST PUSH1 0x1 PUSH1 0x1 PUSH1 0xA0 SHL SUB DUP2 AND ISZERO DUP1 ISZERO SWAP1 PUSH2 0xBA0 JUMPI POP PUSH1 0x1 PUSH1 0x1 PUSH1 0xA0 SHL SUB DUP2 AND PUSH1 0x0 SWAP1 DUP2 MSTORE PUSH1 0x4 PUSH1 0x20 DUP2 SWAP1 MSTORE PUSH1 0x40 SWAP1 SWAP2 KECCAK256 ADD SLOAD PUSH1 0xFF AND ISZERO JUMPDEST ISZERO PUSH2 0xBBE JUMPI PUSH1 0x40 MLOAD PUSH4 0xC220845 PUSH1 0xE3 SHL DUP2 MSTORE PUSH1 0x4 ADD PUSH1 0x40 MLOAD DUP1 SWAP2 SUB SWAP1 REVERT JUMPDEST PUSH2 0xBFB PUSH1 0x1 PUSH1 0x1 PUSH1 0xA0 SHL SUB PUSH32 0x0 AND DUP4 ADDRESS PUSH8 0xDE0B6B3A7640000 PUSH2 0x11B7 JUMP JUMPDEST PUSH8 0xDE0B6B3A7640000 PUSH1 0x9 PUSH1 0x0 DUP3 DUP3 SLOAD PUSH2 0xC15 SWAP2 SWAP1 PUSH2 0x1550 JUMP JUMPDEST SWAP1 SWAP2 SSTORE POP POP PUSH1 0x1 SLOAD PUSH1 0x1 PUSH1 0x1 PUSH1 0xA0 SHL SUB AND ISZERO PUSH2 0xD72 JUMPI PUSH1 0x1 SLOAD PUSH2 0xC6D SWAP1 PUSH1 0x1 PUSH1 0x1 PUSH1 0xA0 SHL SUB PUSH32 0x0 DUP2 AND SWAP2 AND PUSH8 0xDE0B6B3A7640000 PUSH2 0x11ED JUMP JUMPDEST PUSH1 0x1 SLOAD PUSH1 0x40 MLOAD PUSH4 0xC2C90687 PUSH1 0xE0 SHL DUP2 MSTORE PUSH8 0xDE0B6B3A7640000 PUSH1 0x4 DUP3 ADD MSTORE PUSH1 0x0 PUSH1 0x24 DUP3 ADD MSTORE PUSH1 0x1 PUSH1 0x1 PUSH1 0xA0 SHL SUB SWAP1 SWAP2 AND SWAP1 PUSH4 0xC2C90687 SWAP1 PUSH1 0x44 ADD PUSH1 0x20 PUSH1 0x40 MLOAD DUP1 DUP4 SUB DUP2 PUSH1 0x0 DUP8 GAS CALL SWAP3 POP POP POP DUP1 ISZERO PUSH2 0xCE2 JUMPI POP PUSH1 0x40 DUP1 MLOAD PUSH1 0x1F RETURNDATASIZE SWAP1 DUP2 ADD PUSH1 0x1F NOT AND DUP3 ADD SWAP1 SWAP3 MSTORE PUSH2 0xCDF SWAP2 DUP2 ADD SWAP1 PUSH2 0x15B5 JUMP JUMPDEST PUSH1 0x1 JUMPDEST ISZERO PUSH2 0xD72 JUMPI DUP1 ISZERO PUSH2 0xD70 JUMPI PUSH2 0xD23 PUSH1 0x1 PUSH1 0x1 PUSH1 0xA0 SHL SUB PUSH32 0x0 AND PUSH2 0xDEAD DUP4 PUSH2 0xF06 JUMP JUMPDEST PUSH1 0x40 DUP1 MLOAD PUSH8 0xDE0B6B3A7640000 DUP2 MSTORE PUSH1 0x20 DUP2 ADD DUP4 SWAP1 MSTORE PUSH1 0x1 PUSH1 0x1 PUSH1 0xA0 SHL SUB DUP6 AND SWAP2 PUSH32 0x285CF258850FF8CF5D55EC19E46476D4E3D5209972F80A7880A38AC7011E7023 SWAP2 ADD PUSH1 0x40 MLOAD DUP1 SWAP2 SUB SWAP1 LOG2 JUMPDEST POP JUMPDEST PUSH1 0x1 PUSH1 0x1 PUSH1 0xA0 SHL SUB DUP1 DUP4 AND PUSH1 0x0 SWAP1 DUP2 MSTORE PUSH1 0x4 PUSH1 0x20 DUP2 SWAP1 MSTORE PUSH1 0x40 DUP3 KECCAK256 SWAP1 DUP2 ADD DUP1 SLOAD PUSH1 0xFF NOT AND PUSH1 0x1 OR SWAP1 SSTORE DUP1 SLOAD SWAP3 DUP5 AND PUSH1 0x1 PUSH1 0x1 PUSH1 0xA0 SHL SUB NOT SWAP1 SWAP4 AND DUP4 OR DUP2 SSTORE PUSH1 0x2 ADD SSTORE ISZERO PUSH2 0xDFB JUMPI PUSH1 0x1 PUSH1 0x1 PUSH1 0xA0 SHL SUB DUP2 DUP2 AND PUSH1 0x0 SWAP1 DUP2 MSTORE PUSH1 0x4 PUSH1 0x20 SWAP1 DUP2 MSTORE PUSH1 0x40 DUP3 KECCAK256 PUSH1 0x1 SWAP1 DUP2 ADD DUP1 SLOAD SWAP2 DUP3 ADD DUP2 SSTORE DUP4 MSTORE SWAP2 KECCAK256 ADD DUP1 SLOAD PUSH1 0x1 PUSH1 0x1 PUSH1 0xA0 SHL SUB NOT AND SWAP2 DUP5 AND SWAP2 SWAP1 SWAP2 OR SWAP1 SSTORE JUMPDEST PUSH1 0x7 DUP1 SLOAD SWAP1 PUSH1 0x0 PUSH2 0xE0B DUP4 PUSH2 0x1563 JUMP JUMPDEST SWAP2 SWAP1 POP SSTORE POP DUP1 PUSH1 0x1 PUSH1 0x1 PUSH1 0xA0 SHL SUB AND DUP3 PUSH1 0x1 PUSH1 0x1 PUSH1 0xA0 SHL SUB AND PUSH32 0x2138B9314634F9FDD5E49BEE3EAF17CA557B6637524D0DB759711C3BFCD3D850 PUSH1 0x40 MLOAD PUSH1 0x40 MLOAD DUP1 SWAP2 SUB SWAP1 LOG3 POP POP JUMP JUMPDEST PUSH1 0x0 PUSH2 0x796 DUP3 PUSH2 0xF40 JUMP JUMPDEST PUSH1 0x1 PUSH1 0x1 PUSH1 0xA0 SHL SUB DUP2 AND PUSH1 0x0 SWAP1 DUP2 MSTORE PUSH1 0x4 PUSH1 0x20 SWAP1 DUP2 MSTORE PUSH1 0x40 SWAP2 DUP3 SWAP1 KECCAK256 PUSH1 0x1 ADD DUP1 SLOAD DUP4 MLOAD DUP2 DUP5 MUL DUP2 ADD DUP5 ADD SWAP1 SWAP5 MSTORE DUP1 DUP5 MSTORE PUSH1 0x60 SWAP4 SWAP3 DUP4 ADD DUP3 DUP3 DUP1 ISZERO PUSH2 0xECC JUMPI PUSH1 0x20 MUL DUP3 ADD SWAP2 SWAP1 PUSH1 0x0 MSTORE PUSH1 0x20 PUSH1 0x0 KECCAK256 SWAP1 JUMPDEST DUP2 SLOAD PUSH1 0x1 PUSH1 0x1 PUSH1 0xA0 SHL SUB AND DUP2 MSTORE PUSH1 0x1 SWAP1 SWAP2 ADD SWAP1 PUSH1 0x20 ADD DUP1 DUP4 GT PUSH2 0xEAE JUMPI JUMPDEST POP POP POP POP POP SWAP1 POP SWAP2 SWAP1 POP JUMP JUMPDEST PUSH2 0xEE0 PUSH2 0x1241 JUMP JUMPDEST PUSH1 0x2 PUSH32 0x9B779B17422D0DF92223018B32B4D1FA46E071723D6817E2486D003BECC55F00 SSTORE JUMP JUMPDEST PUSH2 0xF13 DUP4 DUP4 DUP4 PUSH1 0x1 PUSH2 0x1283 JUMP JUMPDEST PUSH2 0x784 JUMPI PUSH1 0x40 MLOAD PUSH4 0x5274AFE7 PUSH1 0xE0 SHL DUP2 MSTORE PUSH1 0x1 PUSH1 0x1 PUSH1 0xA0 SHL SUB DUP5 AND PUSH1 0x4 DUP3 ADD MSTORE PUSH1 0x24 ADD JUMPDEST PUSH1 0x40 MLOAD DUP1 SWAP2 SUB SWAP1 REVERT JUMPDEST PUSH1 0x1 PUSH1 0x1 PUSH1 0xA0 SHL SUB DUP2 AND PUSH1 0x0 SWAP1 DUP2 MSTORE PUSH1 0x4 PUSH1 0x20 MSTORE PUSH1 0x40 DUP2 KECCAK256 DUP2 SWAP1 PUSH1 0x1 ADD DUP2 JUMPDEST DUP2 SLOAD DUP2 LT ISZERO PUSH2 0x1041 JUMPI PUSH1 0x0 SLOAD PUSH1 0x1 PUSH1 0x1 PUSH1 0xA0 SHL SUB AND ISZERO PUSH2 0x1039 JUMPI PUSH1 0x0 DUP1 SLOAD DUP4 SLOAD PUSH1 0x1 PUSH1 0x1 PUSH1 0xA0 SHL SUB SWAP1 SWAP2 AND SWAP1 PUSH4 0x142A3DA3 SWAP1 DUP6 SWAP1 DUP6 SWAP1 DUP2 LT PUSH2 0xFA3 JUMPI PUSH2 0xFA3 PUSH2 0x1524 JUMP JUMPDEST PUSH1 0x0 SWAP2 DUP3 MSTORE PUSH1 0x20 SWAP1 SWAP2 KECCAK256 ADD SLOAD PUSH1 0x40 MLOAD PUSH1 0xE0 DUP4 SWAP1 SHL PUSH1 0x1 PUSH1 0x1 PUSH1 0xE0 SHL SUB NOT AND DUP2 MSTORE PUSH1 0x1 PUSH1 0x1 PUSH1 0xA0 SHL SUB SWAP1 SWAP2 AND PUSH1 0x4 DUP3 ADD MSTORE PUSH1 0x24 ADD PUSH1 0x20 PUSH1 0x40 MLOAD DUP1 DUP4 SUB DUP2 DUP7 GAS STATICCALL ISZERO DUP1 ISZERO PUSH2 0xFF3 JUMPI RETURNDATASIZE PUSH1 0x0 DUP1 RETURNDATACOPY RETURNDATASIZE PUSH1 0x0 REVERT JUMPDEST POP POP POP POP PUSH1 0x40 MLOAD RETURNDATASIZE PUSH1 0x1F NOT PUSH1 0x1F DUP3 ADD AND DUP3 ADD DUP1 PUSH1 0x40 MSTORE POP DUP2 ADD SWAP1 PUSH2 0x1017 SWAP2 SWAP1 PUSH2 0x15B5 JUMP JUMPDEST SWAP1 POP PUSH9 0x56BC75E2D63100000 DUP2 LT PUSH2 0x1037 JUMPI DUP4 PUSH2 0x1033 DUP2 PUSH2 0x1563 JUMP JUMPDEST SWAP5 POP POP JUMPDEST POP JUMPDEST PUSH1 0x1 ADD PUSH2 0xF5F JUMP JUMPDEST POP SWAP1 SWAP4 SWAP3 POP POP POP JUMP JUMPDEST PUSH1 0x0 PUSH1 0x7 DUP3 LT PUSH2 0x105C JUMPI POP PUSH1 0x14 SWAP2 SWAP1 POP JUMP JUMPDEST PUSH1 0x5 DUP3 LT PUSH2 0x106C JUMPI POP PUSH1 0x10 SWAP2 SWAP1 POP JUMP JUMPDEST PUSH1 0x3 DUP3 LT PUSH2 0x107C JUMPI POP PUSH1 0xC SWAP2 SWAP1 POP JUMP JUMPDEST PUSH1 0x2 DUP3 LT PUSH2 0x108C JUMPI POP PUSH1 0x8 SWAP2 SWAP1 POP JUMP JUMPDEST PUSH1 0x1 DUP3 LT PUSH2 0x109C JUMPI POP PUSH1 0x3 SWAP2 SWAP1 POP JUMP JUMPDEST POP PUSH1 0x0 SWAP2 SWAP1 POP JUMP JUMPDEST PUSH1 0x0 PUSH1 0x14 DUP3 LT PUSH2 0x10B6 JUMPI POP PUSH1 0x0 PUSH2 0x796 JUMP JUMPDEST PUSH1 0x1 PUSH1 0x1 PUSH1 0xA0 SHL SUB DUP4 AND PUSH1 0x0 SWAP1 DUP2 MSTORE PUSH1 0x4 PUSH1 0x20 MSTORE PUSH1 0x40 DUP2 KECCAK256 PUSH1 0x1 ADD DUP1 SLOAD SWAP1 SWAP2 JUMPDEST DUP3 SLOAD DUP2 LT ISZERO PUSH2 0x112D JUMPI PUSH2 0x1119 DUP4 DUP3 DUP2 SLOAD DUP2 LT PUSH2 0x10F4 JUMPI PUSH2 0x10F4 PUSH2 0x1524 JUMP JUMPDEST PUSH1 0x0 SWAP2 DUP3 MSTORE PUSH1 0x20 SWAP1 SWAP2 KECCAK256 ADD SLOAD PUSH1 0x1 PUSH1 0x1 PUSH1 0xA0 SHL SUB AND PUSH2 0x1114 DUP8 PUSH1 0x1 PUSH2 0x1550 JUMP JUMPDEST PUSH2 0x10A4 JUMP JUMPDEST PUSH2 0x1123 SWAP1 DUP4 PUSH2 0x1550 JUMP JUMPDEST SWAP2 POP PUSH1 0x1 ADD PUSH2 0x10D6 JUMP JUMPDEST POP SWAP5 SWAP4 POP POP POP POP JUMP JUMPDEST PUSH1 0x0 DUP2 PUSH1 0x1 SUB PUSH2 0x1149 JUMPI POP PUSH2 0xBB8 SWAP2 SWAP1 POP JUMP JUMPDEST DUP2 PUSH1 0x2 SUB PUSH2 0x115A JUMPI POP PUSH2 0x7D0 SWAP2 SWAP1 POP JUMP JUMPDEST PUSH1 0x3 DUP3 LT ISZERO DUP1 ISZERO PUSH2 0x116C JUMPI POP PUSH1 0xA DUP3 GT ISZERO JUMPDEST ISZERO PUSH2 0x1179 JUMPI POP PUSH1 0x64 SWAP2 SWAP1 POP JUMP JUMPDEST PUSH1 0xB DUP3 LT ISZERO DUP1 ISZERO PUSH2 0x118B JUMPI POP PUSH1 0xF DUP3 GT ISZERO JUMPDEST ISZERO PUSH2 0x1198 JUMPI POP PUSH1 0x32 SWAP2 SWAP1 POP JUMP JUMPDEST PUSH1 0x10 DUP3 LT ISZERO DUP1 ISZERO PUSH2 0x11AA JUMPI POP PUSH1 0x14 DUP3 GT ISZERO JUMPDEST ISZERO PUSH2 0x109C JUMPI POP PUSH1 0x19 SWAP2 SWAP1 POP JUMP JUMPDEST PUSH2 0x11C5 DUP5 DUP5 DUP5 DUP5 PUSH1 0x1 PUSH2 0x12E9 JUMP JUMPDEST PUSH2 0xA53 JUMPI PUSH1 0x40 MLOAD PUSH4 0x5274AFE7 PUSH1 0xE0 SHL DUP2 MSTORE PUSH1 0x1 PUSH1 0x1 PUSH1 0xA0 SHL SUB DUP6 AND PUSH1 0x4 DUP3 ADD MSTORE PUSH1 0x24 ADD PUSH2 0xF37 JUMP JUMPDEST PUSH2 0x11FA DUP4 DUP4 DUP4 PUSH1 0x0 PUSH2 0x135B JUMP JUMPDEST PUSH2 0x784 JUMPI PUSH2 0x120C DUP4 DUP4 PUSH1 0x0 PUSH1 0x1 PUSH2 0x135B JUMP JUMPDEST PUSH2 0x1234 JUMPI PUSH1 0x40 MLOAD PUSH4 0x5274AFE7 PUSH1 0xE0 SHL DUP2 MSTORE PUSH1 0x1 PUSH1 0x1 PUSH1 0xA0 SHL SUB DUP5 AND PUSH1 0x4 DUP3 ADD MSTORE PUSH1 0x24 ADD PUSH2 0xF37 JUMP JUMPDEST PUSH2 0xF13 DUP4 DUP4 DUP4 PUSH1 0x1 PUSH2 0x135B JUMP JUMPDEST PUSH32 0x9B779B17422D0DF92223018B32B4D1FA46E071723D6817E2486D003BECC55F00 SLOAD PUSH1 0x2 SUB PUSH2 0x5F6 JUMPI PUSH1 0x40 MLOAD PUSH4 0x3EE5AEB5 PUSH1 0xE0 SHL DUP2 MSTORE PUSH1 0x4 ADD PUSH1 0x40 MLOAD DUP1 SWAP2 SUB SWAP1 REVERT JUMPDEST PUSH1 0x40 MLOAD PUSH4 0xA9059CBB PUSH1 0xE0 SHL PUSH1 0x0 DUP2 DUP2 MSTORE PUSH1 0x1 PUSH1 0x1 PUSH1 0xA0 SHL SUB DUP7 AND PUSH1 0x4 MSTORE PUSH1 0x24 DUP6 SWAP1 MSTORE SWAP2 PUSH1 0x20 DUP4 PUSH1 0x44 DUP2 DUP1 DUP12 GAS CALL SWAP3 POP PUSH1 0x1 PUSH1 0x0 MLOAD EQ DUP4 AND PUSH2 0x12DD JUMPI DUP4 DUP4 ISZERO AND ISZERO PUSH2 0x12D0 JUMPI RETURNDATASIZE PUSH1 0x0 DUP3 RETURNDATACOPY RETURNDATASIZE DUP2 REVERT JUMPDEST PUSH1 0x0 DUP8 EXTCODESIZE GT RETURNDATASIZE ISZERO AND DUP4 AND SWAP3 POP JUMPDEST PUSH1 0x40 MSTORE POP SWAP5 SWAP4 POP POP POP POP JUMP JUMPDEST PUSH1 0x40 MLOAD PUSH4 0x23B872DD PUSH1 0xE0 SHL PUSH1 0x0 DUP2 DUP2 MSTORE PUSH1 0x1 PUSH1 0x1 PUSH1 0xA0 SHL SUB DUP8 DUP2 AND PUSH1 0x4 MSTORE DUP7 AND PUSH1 0x24 MSTORE PUSH1 0x44 DUP6 SWAP1 MSTORE SWAP2 PUSH1 0x20 DUP4 PUSH1 0x64 DUP2 DUP1 DUP13 GAS CALL SWAP3 POP PUSH1 0x1 PUSH1 0x0 MLOAD EQ DUP4 AND PUSH2 0x1349 JUMPI DUP4 DUP4 ISZERO AND ISZERO PUSH2 0x133C JUMPI RETURNDATASIZE PUSH1 0x0 DUP3 RETURNDATACOPY RETURNDATASIZE DUP2 REVERT JUMPDEST PUSH1 0x0 DUP9 EXTCODESIZE GT RETURNDATASIZE ISZERO AND DUP4 AND SWAP3 POP JUMPDEST PUSH1 0x40 MSTORE POP PUSH1 0x0 PUSH1 0x60 MSTORE SWAP6 SWAP5 POP POP POP POP POP JUMP JUMPDEST PUSH1 0x40 MLOAD PUSH4 0x95EA7B3 PUSH1 0xE0 SHL PUSH1 0x0 DUP2 DUP2 MSTORE PUSH1 0x1 PUSH1 0x1 PUSH1 0xA0 SHL SUB DUP7 AND PUSH1 0x4 MSTORE PUSH1 0x24 DUP6 SWAP1 MSTORE SWAP2 PUSH1 0x20 DUP4 PUSH1 0x44 DUP2 DUP1 DUP12 GAS CALL SWAP3 POP PUSH1 0x1 PUSH1 0x0 MLOAD EQ DUP4 AND PUSH2 0x12DD JUMPI DUP4 DUP4 ISZERO AND ISZERO PUSH2 0x12D0 JUMPI RETURNDATASIZE PUSH1 0x0 DUP3 RETURNDATACOPY RETURNDATASIZE DUP2 REVERT JUMPDEST PUSH1 0x40 MLOAD DUP1 PUSH2 0x2A0 ADD PUSH1 0x40 MSTORE DUP1 PUSH1 0x15 SWAP1 PUSH1 0x20 DUP3 MUL DUP1 CALLDATASIZE DUP4 CALLDATACOPY POP SWAP2 SWAP3 SWAP2 POP POP JUMP JUMPDEST DUP1 CALLDATALOAD PUSH1 0x1 PUSH1 0x1 PUSH1 0xA0 SHL SUB DUP2 AND DUP2 EQ PUSH2 0x13DE JUMPI PUSH1 0x0 DUP1 REVERT JUMPDEST SWAP2 SWAP1 POP JUMP JUMPDEST PUSH1 0x0 DUP1 PUSH1 0x40 DUP4 DUP6 SUB SLT ISZERO PUSH2 0x13F6 JUMPI PUSH1 0x0 DUP1 REVERT JUMPDEST PUSH2 0x13FF DUP4 PUSH2 0x13C7 JUMP JUMPDEST SWAP5 PUSH1 0x20 SWAP4 SWAP1 SWAP4 ADD CALLDATALOAD SWAP4 POP POP POP JUMP JUMPDEST PUSH1 0x0 PUSH1 0x20 DUP3 DUP5 SUB SLT ISZERO PUSH2 0x141F JUMPI PUSH1 0x0 DUP1 REVERT JUMPDEST PUSH2 0x1428 DUP3 PUSH2 0x13C7 JUMP JUMPDEST SWAP4 SWAP3 POP POP POP JUMP JUMPDEST PUSH2 0x2A0 DUP2 ADD DUP2 DUP4 PUSH1 0x0 JUMPDEST PUSH1 0x15 DUP2 LT ISZERO PUSH2 0x1458 JUMPI DUP2 MLOAD DUP4 MSTORE PUSH1 0x20 SWAP3 DUP4 ADD SWAP3 SWAP1 SWAP2 ADD SWAP1 PUSH1 0x1 ADD PUSH2 0x1439 JUMP JUMPDEST POP POP POP SWAP3 SWAP2 POP POP JUMP JUMPDEST PUSH1 0x0 DUP1 PUSH1 0x0 PUSH1 0x60 DUP5 DUP7 SUB SLT ISZERO PUSH2 0x1476 JUMPI PUSH1 0x0 DUP1 REVERT JUMPDEST PUSH2 0x147F DUP5 PUSH2 0x13C7 JUMP JUMPDEST SWAP3 POP PUSH2 0x148D PUSH1 0x20 DUP6 ADD PUSH2 0x13C7 JUMP JUMPDEST SWAP2 POP PUSH2 0x149B PUSH1 0x40 DUP6 ADD PUSH2 0x13C7 JUMP JUMPDEST SWAP1 POP SWAP3 POP SWAP3 POP SWAP3 JUMP JUMPDEST PUSH1 0x0 DUP1 PUSH1 0x40 DUP4 DUP6 SUB SLT ISZERO PUSH2 0x14B7 JUMPI PUSH1 0x0 DUP1 REVERT JUMPDEST PUSH2 0x14C0 DUP4 PUSH2 0x13C7 JUMP JUMPDEST SWAP2 POP PUSH2 0x14CE PUSH1 0x20 DUP5 ADD PUSH2 0x13C7 JUMP JUMPDEST SWAP1 POP SWAP3 POP SWAP3 SWAP1 POP JUMP JUMPDEST PUSH1 0x20 DUP1 DUP3 MSTORE DUP3 MLOAD DUP3 DUP3 ADD DUP2 SWAP1 MSTORE PUSH1 0x0 SWAP2 SWAP1 DUP5 DUP3 ADD SWAP1 PUSH1 0x40 DUP6 ADD SWAP1 DUP5 JUMPDEST DUP2 DUP2 LT ISZERO PUSH2 0x1518 JUMPI DUP4 MLOAD PUSH1 0x1 PUSH1 0x1 PUSH1 0xA0 SHL SUB AND DUP4 MSTORE SWAP3 DUP5 ADD SWAP3 SWAP2 DUP5 ADD SWAP2 PUSH1 0x1 ADD PUSH2 0x14F3 JUMP JUMPDEST POP SWAP1 SWAP7 SWAP6 POP POP POP POP POP POP JUMP JUMPDEST PUSH4 0x4E487B71 PUSH1 0xE0 SHL PUSH1 0x0 MSTORE PUSH1 0x32 PUSH1 0x4 MSTORE PUSH1 0x24 PUSH1 0x0 REVERT JUMPDEST PUSH4 0x4E487B71 PUSH1 0xE0 SHL PUSH1 0x0 MSTORE PUSH1 0x11 PUSH1 0x4 MSTORE PUSH1 0x24 PUSH1 0x0 REVERT JUMPDEST DUP1 DUP3 ADD DUP1 DUP3 GT ISZERO PUSH2 0x796 JUMPI PUSH2 0x796 PUSH2 0x153A JUMP JUMPDEST PUSH1 0x0 PUSH1 0x1 DUP3 ADD PUSH2 0x1575 JUMPI PUSH2 0x1575 PUSH2 0x153A JUMP JUMPDEST POP PUSH1 0x1 ADD SWAP1 JUMP JUMPDEST DUP1 DUP3 MUL DUP2 ISZERO DUP3 DUP3 DIV DUP5 EQ OR PUSH2 0x796 JUMPI PUSH2 0x796 PUSH2 0x153A JUMP JUMPDEST PUSH1 0x0 DUP3 PUSH2 0x15B0 JUMPI PUSH4 0x4E487B71 PUSH1 0xE0 SHL PUSH1 0x0 MSTORE PUSH1 0x12 PUSH1 0x4 MSTORE PUSH1 0x24 PUSH1 0x0 REVERT JUMPDEST POP DIV SWAP1 JUMP JUMPDEST PUSH1 0x0 PUSH1 0x20 DUP3 DUP5 SUB SLT ISZERO PUSH2 0x15C7 JUMPI PUSH1 0x0 DUP1 REVERT JUMPDEST POP MLOAD SWAP2 SWAP1 POP JUMP INVALID LOG2 PUSH5 0x6970667358 0x22 SLT KECCAK256 DELEGATECALL ORIGIN LOG4 0xF7 0xB3 OR 0x4F 0x23 SWAP4 CODESIZE 0xD 0xDD 0xF7 DIV ISZERO 0xE PUSH23 0xA5CE4D512503A9AC756C3C30874EFE64736F6C63430008 XOR STOP CALLER "},"methodIdentifiers":{"REGISTRATION_FEE()":"64b4f751","admin()":"f851a440","checkAndUnlockLevels(address)":"2573912c","claimReferralRewards()":"05eaab4b","completeSetup()":"8aea8f71","configure(address,address,address)":"55d28f20","distributeReferralCommission(address,uint256)":"8000d991","getAllLevelIncome(address)":"1e97f48a","getDirectReferrals(address)":"d2c8e0e5","getLevelIncome(address,uint256)":"64df8222","getQualifiedDirectsCount(address)":"b8458282","getReferrer(address)":"4a9fefc7","getTeamSize(address)":"519f1640","getUnlockedLevels(address)":"1f791b69","investmentEngine()":"30131384","isRegistered(address)":"c3c5a547","levelIncome(address,uint256)":"0b35d7d1","osloDex()":"8565c2bf","osloToken()":"2acfbca3","referralRewards(address)":"53aaa63b","register(address,address)":"aa677354","setupComplete()":"b6635be6","timelock()":"d33219b4","totalCommissionsPaid()":"c6d83fcf","totalFeesCollected()":"60c6d8ae","totalRegistered()":"927416c0","usdt()":"2f48ab7d","userInfo(address)":"1959a002"}}}}}