{"contracts/OSLOInvestmentEngine.sol":{"OSLOInvestmentEngine":{"abi":[{"inputs":[{"internalType":"address","name":"_usdt","type":"address"},{"internalType":"address","name":"_osloToken","type":"address"},{"internalType":"uint256","name":"_launchTimestamp","type":"uint256"}],"stateMutability":"nonpayable","type":"constructor"},{"inputs":[],"name":"BelowWithdrawalThreshold","type":"error"},{"inputs":[],"name":"DEXNotPriced","type":"error"},{"inputs":[],"name":"DepositCapped","type":"error"},{"inputs":[],"name":"DepositTooHigh","type":"error"},{"inputs":[],"name":"DepositTooLow","type":"error"},{"inputs":[],"name":"DepositsPausedError","type":"error"},{"inputs":[],"name":"InsufficientOsloReserve","type":"error"},{"inputs":[],"name":"InsufficientUSDTReserve","type":"error"},{"inputs":[],"name":"InvalidDeposit","type":"error"},{"inputs":[],"name":"NotConfigured","type":"error"},{"inputs":[],"name":"NotInEarlyExitPeriod","type":"error"},{"inputs":[],"name":"NothingToClaim","type":"error"},{"inputs":[],"name":"OnlyAdmin","type":"error"},{"inputs":[],"name":"OnlyRankSystem","type":"error"},{"inputs":[],"name":"OnlyReferral","type":"error"},{"inputs":[],"name":"OnlyTimelock","type":"error"},{"inputs":[],"name":"ReentrancyGuardReentrantCall","type":"error"},{"inputs":[{"internalType":"address","name":"token","type":"address"}],"name":"SafeERC20FailedOperation","type":"error"},{"inputs":[],"name":"SetupAlreadyComplete","type":"error"},{"inputs":[],"name":"ZeroAddress","type":"error"},{"anonymous":false,"inputs":[{"indexed":true,"internalType":"address","name":"user","type":"address"}],"name":"CombinedCapReached","type":"event"},{"anonymous":false,"inputs":[{"indexed":true,"internalType":"address","name":"user","type":"address"},{"indexed":false,"internalType":"uint256","name":"totalCombined","type":"uint256"}],"name":"CombinedEarningsUpdated","type":"event"},{"anonymous":false,"inputs":[{"indexed":true,"internalType":"address","name":"user","type":"address"},{"indexed":false,"internalType":"uint256","name":"amount","type":"uint256"},{"indexed":false,"internalType":"uint256","name":"tier","type":"uint256"},{"indexed":false,"internalType":"uint256","name":"dailyRate","type":"uint256"},{"indexed":false,"internalType":"uint256","name":"depositIndex","type":"uint256"}],"name":"Deposited","type":"event"},{"anonymous":false,"inputs":[{"indexed":false,"internalType":"bool","name":"paused","type":"bool"}],"name":"DepositsPaused","type":"event"},{"anonymous":false,"inputs":[{"indexed":true,"internalType":"address","name":"user","type":"address"},{"indexed":false,"internalType":"uint256","name":"amountReturned","type":"uint256"},{"indexed":false,"internalType":"uint256","name":"feeDeducted","type":"uint256"},{"indexed":false,"internalType":"uint256","name":"yieldDeducted","type":"uint256"},{"indexed":false,"internalType":"uint256","name":"depositIndex","type":"uint256"}],"name":"EarlyExited","type":"event"},{"anonymous":false,"inputs":[{"indexed":true,"internalType":"address","name":"user","type":"address"},{"indexed":false,"internalType":"uint256","name":"netPrincipal","type":"uint256"},{"indexed":false,"internalType":"uint256","name":"depositIndex","type":"uint256"}],"name":"PrincipalWithdrawn","type":"event"},{"anonymous":false,"inputs":[{"indexed":true,"internalType":"address","name":"oldReferral","type":"address"},{"indexed":true,"internalType":"address","name":"newReferral","type":"address"}],"name":"ReferralUpdated","type":"event"},{"anonymous":false,"inputs":[{"indexed":true,"internalType":"address","name":"user","type":"address"},{"indexed":false,"internalType":"uint256","name":"usdtReward","type":"uint256"},{"indexed":false,"internalType":"uint256","name":"osloAmount","type":"uint256"},{"indexed":false,"internalType":"uint256","name":"depositIndex","type":"uint256"}],"name":"RewardsClaimed","type":"event"},{"inputs":[],"name":"admin","outputs":[{"internalType":"address","name":"","type":"address"}],"stateMutability":"view","type":"function"},{"inputs":[{"internalType":"uint256","name":"depositIndex","type":"uint256"}],"name":"claimRewards","outputs":[],"stateMutability":"nonpayable","type":"function"},{"inputs":[],"name":"completeSetup","outputs":[],"stateMutability":"nonpayable","type":"function"},{"inputs":[{"internalType":"address","name":"_treasury","type":"address"},{"internalType":"address","name":"_referral","type":"address"},{"internalType":"address","name":"_rankSystem","type":"address"},{"internalType":"address","name":"_osloDex","type":"address"},{"internalType":"address","name":"_timelock","type":"address"}],"name":"configure","outputs":[],"stateMutability":"nonpayable","type":"function"},{"inputs":[{"internalType":"uint256","name":"amount","type":"uint256"}],"name":"deposit","outputs":[],"stateMutability":"nonpayable","type":"function"},{"inputs":[],"name":"depositsPaused","outputs":[{"internalType":"bool","name":"","type":"bool"}],"stateMutability":"view","type":"function"},{"inputs":[{"internalType":"uint256","name":"depositIndex","type":"uint256"}],"name":"earlyExit","outputs":[],"stateMutability":"nonpayable","type":"function"},{"inputs":[{"internalType":"address","name":"user","type":"address"}],"name":"getActiveDeposit","outputs":[{"internalType":"uint256","name":"","type":"uint256"}],"stateMutability":"view","type":"function"},{"inputs":[{"internalType":"address","name":"user","type":"address"}],"name":"getCombinedEarnings","outputs":[{"internalType":"uint256","name":"","type":"uint256"}],"stateMutability":"view","type":"function"},{"inputs":[{"internalType":"address","name":"user","type":"address"}],"name":"getDepositCount","outputs":[{"internalType":"uint256","name":"","type":"uint256"}],"stateMutability":"view","type":"function"},{"inputs":[{"internalType":"address","name":"user","type":"address"},{"internalType":"uint256","name":"depositIndex","type":"uint256"}],"name":"getEarlyExitAmount","outputs":[{"internalType":"uint256","name":"principal","type":"uint256"},{"internalType":"uint256","name":"accruedYield","type":"uint256"},{"internalType":"uint256","name":"exitFee","type":"uint256"},{"internalType":"uint256","name":"netReturn","type":"uint256"}],"stateMutability":"view","type":"function"},{"inputs":[{"internalType":"address","name":"user","type":"address"},{"internalType":"uint256","name":"depositIndex","type":"uint256"}],"name":"getPendingRewards","outputs":[{"internalType":"uint256","name":"pendingUSDT","type":"uint256"}],"stateMutability":"view","type":"function"},{"inputs":[{"internalType":"address","name":"user","type":"address"}],"name":"getUserTier","outputs":[{"internalType":"uint256","name":"","type":"uint256"}],"stateMutability":"view","type":"function"},{"inputs":[{"internalType":"address","name":"user","type":"address"},{"internalType":"uint256","name":"depositIndex","type":"uint256"}],"name":"isInEarlyExitPeriod","outputs":[{"internalType":"bool","name":"","type":"bool"}],"stateMutability":"view","type":"function"},{"inputs":[],"name":"launchTimestamp","outputs":[{"internalType":"uint256","name":"","type":"uint256"}],"stateMutability":"view","type":"function"},{"inputs":[{"internalType":"address","name":"user","type":"address"},{"internalType":"uint256","name":"amount","type":"uint256"}],"name":"notifyLevelIncome","outputs":[],"stateMutability":"nonpayable","type":"function"},{"inputs":[{"internalType":"address","name":"user","type":"address"},{"internalType":"uint256","name":"amount","type":"uint256"}],"name":"notifyRankBonus","outputs":[],"stateMutability":"nonpayable","type":"function"},{"inputs":[],"name":"osloDex","outputs":[{"internalType":"address","name":"","type":"address"}],"stateMutability":"view","type":"function"},{"inputs":[],"name":"osloToken","outputs":[{"internalType":"contract IERC20","name":"","type":"address"}],"stateMutability":"view","type":"function"},{"inputs":[],"name":"rankSystem","outputs":[{"internalType":"address","name":"","type":"address"}],"stateMutability":"view","type":"function"},{"inputs":[],"name":"referral","outputs":[{"internalType":"address","name":"","type":"address"}],"stateMutability":"view","type":"function"},{"inputs":[{"internalType":"bool","name":"_paused","type":"bool"}],"name":"setDepositsPaused","outputs":[],"stateMutability":"nonpayable","type":"function"},{"inputs":[{"internalType":"address","name":"_referral","type":"address"}],"name":"setReferral","outputs":[],"stateMutability":"nonpayable","type":"function"},{"inputs":[],"name":"setupComplete","outputs":[{"internalType":"bool","name":"","type":"bool"}],"stateMutability":"view","type":"function"},{"inputs":[],"name":"timelock","outputs":[{"internalType":"address","name":"","type":"address"}],"stateMutability":"view","type":"function"},{"inputs":[],"name":"totalDeposited","outputs":[{"internalType":"uint256","name":"","type":"uint256"}],"stateMutability":"view","type":"function"},{"inputs":[],"name":"totalRewardsPaid","outputs":[{"internalType":"uint256","name":"","type":"uint256"}],"stateMutability":"view","type":"function"},{"inputs":[],"name":"totalWithdrawn","outputs":[{"internalType":"uint256","name":"","type":"uint256"}],"stateMutability":"view","type":"function"},{"inputs":[],"name":"treasury","outputs":[{"internalType":"address","name":"","type":"address"}],"stateMutability":"view","type":"function"},{"inputs":[],"name":"usdt","outputs":[{"internalType":"contract IERC20","name":"","type":"address"}],"stateMutability":"view","type":"function"},{"inputs":[{"internalType":"address","name":"","type":"address"},{"internalType":"uint256","name":"","type":"uint256"}],"name":"userDeposits","outputs":[{"internalType":"uint256","name":"amount","type":"uint256"},{"internalType":"uint256","name":"tier","type":"uint256"},{"internalType":"uint256","name":"dailyRate","type":"uint256"},{"internalType":"uint256","name":"depositTime","type":"uint256"},{"internalType":"uint256","name":"lastClaimTime","type":"uint256"},{"internalType":"uint256","name":"totalClaimed","type":"uint256"},{"internalType":"uint256","name":"maxReturn","type":"uint256"},{"internalType":"bool","name":"active","type":"bool"}],"stateMutability":"view","type":"function"},{"inputs":[{"internalType":"address","name":"","type":"address"}],"name":"users","outputs":[{"internalType":"uint256","name":"totalActiveDeposit","type":"uint256"},{"internalType":"uint256","name":"depositCount","type":"uint256"},{"internalType":"uint256","name":"totalCombinedEarnings","type":"uint256"}],"stateMutability":"view","type":"function"}],"evm":{"bytecode":{"linkReferences":{},"object":"60e06040523480156200001157600080fd5b5060405162002392380380620023928339810160408190526200003491620000e0565b60017f9b779b17422d0df92223018b32b4d1fa46e071723d6817e2486d003becc55f00556001600160a01b03831615806200007657506001600160a01b038216155b15620000955760405163d92e233d60e01b815260040160405180910390fd5b6001600160a01b03928316608052911660a05260c052600480546001600160a01b0319163317905562000121565b80516001600160a01b0381168114620000db57600080fd5b919050565b600080600060608486031215620000f657600080fd5b6200010184620000c3565b92506200011160208501620000c3565b9150604084015190509250925092565b60805160a05160c0516121f46200019e600039600081816103bc015281816119e40152611bb3015260008181610302015281816107d40152818161090e0152818161155401526115e001526000818161032901528181610f2701528181610f60015281816113c60152818161144f015261148e01526121f46000f3fe608060405234801561001057600080fd5b50600436106101f05760003560e01c8063786685e01161010f578063b8af3d3e116100a2578063e4e7c6b411610071578063e4e7c6b41461053e578063e9a16bd514610551578063f851a44014610564578063ff50abdc1461057757600080fd5b8063b8af3d3e146104d2578063ceace7dd146104e5578063d33219b414610518578063e4d2620e1461052b57600080fd5b8063a87430ba116100de578063a87430ba1461044e578063ac948e8314610498578063b6635be6146104ab578063b6b55f25146104bf57600080fd5b8063786685e01461040d5780638565c2bf146104205780638aea8f71146104335780639e5914da1461043b57600080fd5b80633a6f2dcd1161018757806365cf7c9b1161015657806365cf7c9b146103b75780636b9f7ab6146103de57806374958e35146103f1578063760fcb3e146103fa57600080fd5b80633a6f2dcd1461034b5780634b3197131461037757806360da3e831461038057806361d027b3146103a457600080fd5b80631441a5a9116101c35780631441a5a9146102bf5780631c481e2d146102ea5780632acfbca3146102fd5780632f48ab7d1461032457600080fd5b806308f43333146101f55780630962ef791461024a57806313fcaf541461025f578063142a3da314610296575b600080fd5b610208610203366004611fcf565b610580565b604080519889526020890197909752958701949094526060860192909252608085015260a084015260c0830152151560e0820152610100015b60405180910390f35b61025d610258366004611ffb565b6105e5565b005b61028861026d366004612014565b6001600160a01b031660009081526006602052604090205490565b604051908152602001610241565b6102886102a4366004612014565b6001600160a01b031660009081526007602052604090205490565b6002546102d2906001600160a01b031681565b6040516001600160a01b039091168152602001610241565b61025d6102f8366004612031565b610a6d565b6102d27f000000000000000000000000000000000000000000000000000000000000000081565b6102d27f000000000000000000000000000000000000000000000000000000000000000081565b610288610359366004612014565b6001600160a01b031660009081526007602052604090206002015490565b61028860095481565b60055461039490600160a81b900460ff1681565b6040519015158152602001610241565b6001546102d2906001600160a01b031681565b6102887f000000000000000000000000000000000000000000000000000000000000000081565b61025d6103ec366004611fcf565b610af0565b610288600a5481565b61025d610408366004612053565b610b9f565b61039461041b366004611fcf565b610c7b565b6000546102d2906001600160a01b031681565b61025d610d15565b61025d610449366004612014565b610db9565b61047d61045c366004612014565b60076020526000908152604090208054600182015460029092015490919083565b60408051938452602084019290925290820152606001610241565b61025d6104a6366004611fcf565b610e40565b60055461039490600160a01b900460ff1681565b61025d6104cd366004611ffb565b610e6b565b61025d6104e0366004611ffb565b61124b565b6104f86104f3366004611fcf565b6116eb565b604080519485526020850193909352918301526060820152608001610241565b6005546102d2906001600160a01b031681565b610288610539366004612014565b6117fb565b61028861054c366004611fcf565b611844565b6003546102d2906001600160a01b031681565b6004546102d2906001600160a01b031681565b61028860085481565b6006602052816000526040600020818154811061059c57600080fd5b6000918252602090912060089091020180546001820154600283015460038401546004850154600586015460068701546007909701549598509396509194909391929160ff1688565b6105ed6118d0565b60006105f933836118ec565b90506000610607338361198d565b90508060000361062a576040516312d37ee560e31b815260040160405180910390fd5b678ac7230489e8000081101561065357604051637e3f2b7d60e01b815260040160405180910390fd5b8154600090610664906003906120da565b3360009081526007602052604081206002810154929350918311610689576000610698565b600282015461069890846120f1565b9050806000036106f25760078501805460ff1916905560405133907ffa1eb7ba4f65747c7c8882031eb92d63b6fcb684b75052185312fbe1a488d94390600090a26040516305a2e88560e21b815260040160405180910390fd5b808411156106fe578093505b600061271061070f6103e8876120da565b6107199190612104565b9050600061072782876120f1565b600080546040516311ea9fa960e21b81526004810184905292935090916001600160a01b03909116906347aa7ea490602401602060405180830381865afa158015610776573d6000803e3d6000fd5b505050506040513d601f19601f8201168201806040525081019061079a9190612126565b9050806000036107bd5760405163cc88465760e01b815260040160405180910390fd5b6040516370a0823160e01b815230600482015281907f00000000000000000000000000000000000000000000000000000000000000006001600160a01b0316906370a0823190602401602060405180830381865afa158015610823573d6000803e3d6000fd5b505050506040513d601f19601f820116820180604052508101906108479190612126565b10156108665760405163075e464560e01b815260040160405180910390fd5b8688600501600082825461087a919061213f565b909155505042600489015560028501805488919060009061089c90849061213f565b9250508190555086600a60008282546108b5919061213f565b909155505060068801546005890154106109015760078801805460ff1916905560405133907ffa1eb7ba4f65747c7c8882031eb92d63b6fcb684b75052185312fbe1a488d94390600090a25b6109356001600160a01b037f0000000000000000000000000000000000000000000000000000000000000000163383611a89565b6002546001600160a01b0316156109ce57600060646109558960056120da565b61095f9190612104565b905080156109cc57600254604051638000d99160e01b8152336004820152602481018390526001600160a01b0390911690638000d99190604401600060405180830381600087803b1580156109b357600080fd5b505af11580156109c7573d6000803e3d6000fd5b505050505b505b60408051888152602081018390529081018a905233907f56253d287efacdb2c4cd76dd03624a4821c1ce721d1152e8f5f5718f6087c9bf9060600160405180910390a2600285015460405190815233907fdad0e43afdd45daca2566e861ff76f0250960d86947518722c83b1e03f45edd59060200160405180910390a25050505050505050610a6a600160008051602061219f83398151915255565b50565b6005546001600160a01b03163314610a9857604051630e05f48560e11b815260040160405180910390fd5b60058054821515600160a81b0260ff60a81b199091161790556040517f5ef34f53269a04b5b817e5be24a51ba6b477118b399ec9dd5b2baf5b299563dc90610ae590831515815260200190565b60405180910390a150565b6002546001600160a01b03163314610b1b57604051633864b1e560e21b815260040160405180910390fd5b6001600160a01b03821660009081526007602052604081206002018054839290610b4690849061213f565b90915550506001600160a01b0382166000818152600760209081526040918290206002015491519182527fdad0e43afdd45daca2566e861ff76f0250960d86947518722c83b1e03f45edd5910160405180910390a25050565b6004546001600160a01b03163314610bca57604051634755657960e01b815260040160405180910390fd5b600554600160a01b900460ff1615610bf55760405163238f75d360e01b815260040160405180910390fd5b6001600160a01b038216610c1c5760405163d92e233d60e01b815260040160405180910390fd5b600180546001600160a01b03199081166001600160a01b03978816179091556002805482169587169590951790945560038054851693861693909317909255600080548416918516919091179055600580549092169216919091179055565b6001600160a01b0382166000908152600660205260408120548210610ca257506000610d0f565b6001600160a01b0383166000908152600660205260408120805484908110610ccc57610ccc612152565b60009182526020909120600890910201600781015490915060ff16610cf5576000915050610d0f565b620d2f008160030154610d08919061213f565b4211159150505b92915050565b6004546001600160a01b03163314610d4057604051634755657960e01b815260040160405180910390fd5b600554600160a01b900460ff1615610d6b5760405163238f75d360e01b815260040160405180910390fd5b6001546001600160a01b0316610d945760405163d311bc3960e01b815260040160405180910390fd5b6005805460ff60a01b1916600160a01b179055600480546001600160a01b0319169055565b6005546001600160a01b03163314610de457604051630e05f48560e11b815260040160405180910390fd5b6002546040516001600160a01b038084169216907feefe1ce2782e4ba3bbccd79617fae74979fa22005f22f7075c0910cd51c8ffd990600090a3600280546001600160a01b0319166001600160a01b0392909216919091179055565b6003546001600160a01b03163314610b1b57604051633327311360e11b815260040160405180910390fd5b610e736118d0565b600554600160a81b900460ff1615610e9d57604051627cfe7f60e31b815260040160405180910390fd5b678ac7230489e80000811015610ec657604051632b7786bd60e21b815260040160405180910390fd5b69010f0cf064dd59200000811115610ef15760405163c066e1e960e01b815260040160405180910390fd5b6000546001600160a01b0316610f1a5760405163d311bc3960e01b815260040160405180910390fd5b610f4f6001600160a01b037f000000000000000000000000000000000000000000000000000000000000000016333084611ac8565b600054610f89906001600160a01b037f00000000000000000000000000000000000000000000000000000000000000008116911683611b04565b6000805460405163066102ad60e11b8152600481018490526001600160a01b0390911690630cc2055a906024016020604051808303816000875af1158015610fd5573d6000803e3d6000fd5b505050506040513d601f19601f82011682018060405250810190610ff99190612126565b9050600061100683611b58565b9050600061101384611bab565b905060006110226003866120da565b3360008181526006602081815260408084208151610100810183528c81528084018b81528184018b815242606084018181526080850191825260a085018a815260c086018d8152600160e0880181815289548083018b55998e528b8e2098516008909a0290980198895595519588019590955592516002870155516003860155516004850155516005840155519482019490945592516007938401805460ff191691151591909117905593835252908120805492935087929091906110e890849061213f565b909155505033600090815260076020526040812060010180549161110b83612168565b91905055508460086000828254611122919061213f565b90915550506002546001600160a01b0316156111965760025460405163095ce44b60e21b81523360048201526001600160a01b0390911690632573912c90602401600060405180830381600087803b15801561117d57600080fd5b505af1158015611191573d6000803e3d6000fd5b505050505b6003546001600160a01b0316158015906111ba57506002546001600160a01b031615155b156111c9576111c93386611cc8565b336000818152600660205260409020547fe3b53cd1a44fbf11535e145d80b8ef1ed6d57a73bf5daa7e939b6b01657d65499087908690869061120d906001906120f1565b60408051948552602085019390935291830152606082015260800160405180910390a250505050610a6a600160008051602061219f83398151915255565b6112536118d0565b600061125f33836118ec565b9050620d2f008160030154611274919061213f565b4211156112945760405163693ed15b60e11b815260040160405180910390fd5b805460006112a2338461198d565b905060006127106112b56103e8856120da565b6112bf9190612104565b905060006112cd828461213f565b905060008185116112df5760006112e9565b6112e982866120f1565b6007808801805460ff19169055336000908152602091909152604081208054929350879290919061131b9084906120f1565b925050819055508460096000828254611334919061213f565b90915550506002546001600160a01b0316156113a85760025460405163095ce44b60e21b81523360048201526001600160a01b0390911690632573912c90602401600060405180830381600087803b15801561138f57600080fd5b505af11580156113a3573d6000803e3d6000fd5b505050505b8015611684576040516370a0823160e01b81523060048201526000907f00000000000000000000000000000000000000000000000000000000000000006001600160a01b0316906370a0823190602401602060405180830381865afa158015611415573d6000803e3d6000fd5b505050506040513d601f19601f820116820180604052508101906114399190612126565b905081811061147b576114766001600160a01b037f0000000000000000000000000000000000000000000000000000000000000000163384611a89565b611682565b80156114c2576114b56001600160a01b037f0000000000000000000000000000000000000000000000000000000000000000163383611a89565b6114bf81836120f1565b91505b600080546040516311ea9fa960e21b8152600481018590526001600160a01b03909116906347aa7ea490602401602060405180830381865afa15801561150c573d6000803e3d6000fd5b505050506040513d601f19601f820116820180604052508101906115309190612126565b90506000811180156115ca57506040516370a0823160e01b815230600482015281907f00000000000000000000000000000000000000000000000000000000000000006001600160a01b0316906370a0823190602401602060405180830381865afa1580156115a3573d6000803e3d6000fd5b505050506040513d601f19601f820116820180604052508101906115c79190612126565b10155b1561168057600054611609906001600160a01b037f00000000000000000000000000000000000000000000000000000000000000008116911683611b04565b60005460405163f843e64160e01b8152600481018390523360248201526001600160a01b039091169063f843e641906044016020604051808303816000875af115801561165a573d6000803e3d6000fd5b505050506040513d601f19601f8201168201806040525081019061167e9190612126565b505b505b505b60408051828152602081018590529081018590526060810188905233907f4ade67ef7e7c5e4d9c50de61a4e8c555be92c9b37e3ca6716eb02a1f0e471da59060800160405180910390a2505050505050610a6a600160008051602061219f83398151915255565b6001600160a01b0382166000908152600660205260408120548190819081908510611721575060009250829150819050806117f2565b6001600160a01b038616600090815260066020526040812080548790811061174b5761174b612152565b60009182526020909120600890910201600781015490915060ff1615806117835750620d2f008160030154611780919061213f565b42115b1561179c576000806000809450945094509450506117f2565b805494506117aa878261198d565b93506127106117bb6103e8876120da565b6117c59190612104565b925060006117d3848661213f565b90508086116117e35760006117ed565b6117ed81876120f1565b925050505b92959194509250565b6001600160a01b038116600090815260076020526040812054810361182257506000919050565b6001600160a01b038216600090815260076020526040902054610d0f90611b58565b6001600160a01b038216600090815260066020526040812054821061186b57506000610d0f565b6001600160a01b038316600090815260066020526040812080548490811061189557611895612152565b60009182526020909120600890910201600781015490915060ff166118be576000915050610d0f565b6118c8848261198d565b949350505050565b6118d8611e01565b600260008051602061219f83398151915255565b6001600160a01b038216600090815260066020526040812054821061192457604051635972996f60e11b815260040160405180910390fd5b6001600160a01b038316600090815260066020526040812080548490811061194e5761194e612152565b60009182526020909120600890910201600781015490915060ff16611986576040516305a2e88560e21b815260040160405180910390fd5b9392505050565b600781015460009060ff166119a457506000610d0f565b60008260040154426119b691906120f1565b9050806000036119ca576000915050610d0f565b60006119d98460000154611bab565b90506276a700611a097f0000000000000000000000000000000000000000000000000000000000000000426120f1565b10611a125750602d5b611a21612710620151806120da565b84548390611a309084906120da565b611a3a91906120da565b611a449190612104565b925060008460050154856006015411611a5e576000611a72565b84600501548560060154611a7291906120f1565b905080841115611a80578093505b50505092915050565b611a968383836001611e33565b611ac357604051635274afe760e01b81526001600160a01b03841660048201526024015b60405180910390fd5b505050565b611ad6848484846001611e99565b611afe57604051635274afe760e01b81526001600160a01b0385166004820152602401611aba565b50505050565b611b118383836000611f0b565b611ac357611b23838360006001611f0b565b611b4b57604051635274afe760e01b81526001600160a01b0384166004820152602401611aba565b611a968383836001611f0b565b600069010f0cf064dd592000008210611b7357506004919050565b68878678326eac9000008210611b8b57506003919050565b681b1ae4d6e2ef5000008210611ba357506002919050565b506001919050565b600080611bd87f0000000000000000000000000000000000000000000000000000000000000000426120f1565b90506276a7008110611bed5750602d92915050565b6000611bf884611b58565b905080600103611c22576118c884678ac7230489e80000681b0d04202f47ec000060326064611f58565b80600203611c4b576118c884681b1ae4d6e2ef500000688778977bbb052c0000604b6073611f58565b80600303611c75576118c88468878678326eac90000069010eff0fae29b1bc000060646096611f58565b6000690a968163f0a57b4000008511611c8e5784611c9a565b690a968163f0a57b4000005b9050611cbf8169010f0cf064dd59200000690a968163f0a57b400000606460af611f58565b95945050505050565b6002546001600160a01b03161580611ce957506003546001600160a01b0316155b15611cf2575050565b8160005b6014811015611afe57600254604051634a9fefc760e01b81526001600160a01b0384811660048301526000921690634a9fefc790602401602060405180830381865afa158015611d4a573d6000803e3d6000fd5b505050506040513d601f19601f82011682018060405250810190611d6e9190612181565b90506001600160a01b038116611d845750611afe565b60035460405163d9bd5f2d60e01b81526001600160a01b0383811660048301528581166024830152604482018790529091169063d9bd5f2d90606401600060405180830381600087803b158015611dda57600080fd5b505af1158015611dee573d6000803e3d6000fd5b509294505060019092019150611cf69050565b60008051602061219f83398151915254600203611e3157604051633ee5aeb560e01b815260040160405180910390fd5b565b60405163a9059cbb60e01b60008181526001600160a01b038616600452602485905291602083604481808b5af192506001600051148316611e8d578383151615611e80573d6000823e3d81fd5b6000873b113d1516831692505b60405250949350505050565b6040516323b872dd60e01b60008181526001600160a01b038781166004528616602452604485905291602083606481808c5af192506001600051148316611ef9578383151615611eec573d6000823e3d81fd5b6000883b113d1516831692505b60405250600060605295945050505050565b60405163095ea7b360e01b60008181526001600160a01b038616600452602485905291602083604481808b5af192506001600051148316611e8d578383151615611e80573d6000823e3d81fd5b6000848411611f68575081611cbf565b6000611f7484846120f1565b90506000611f8287876120f1565b90508082611f90898b6120f1565b611f9a91906120da565b611fa49190612104565b611fae908661213f565b98975050505050505050565b6001600160a01b0381168114610a6a57600080fd5b60008060408385031215611fe257600080fd5b8235611fed81611fba565b946020939093013593505050565b60006020828403121561200d57600080fd5b5035919050565b60006020828403121561202657600080fd5b813561198681611fba565b60006020828403121561204357600080fd5b8135801515811461198657600080fd5b600080600080600060a0868803121561206b57600080fd5b853561207681611fba565b9450602086013561208681611fba565b9350604086013561209681611fba565b925060608601356120a681611fba565b915060808601356120b681611fba565b809150509295509295909350565b634e487b7160e01b600052601160045260246000fd5b8082028115828204841417610d0f57610d0f6120c4565b81810381811115610d0f57610d0f6120c4565b60008261212157634e487b7160e01b600052601260045260246000fd5b500490565b60006020828403121561213857600080fd5b5051919050565b80820180821115610d0f57610d0f6120c4565b634e487b7160e01b600052603260045260246000fd5b60006001820161217a5761217a6120c4565b5060010190565b60006020828403121561219357600080fd5b815161198681611fba56fe9b779b17422d0df92223018b32b4d1fa46e071723d6817e2486d003becc55f00a2646970667358221220b9fae6acdfdca8eca8b4639286ce600a1f22f22ca4a65185d75c0c27aab32b4964736f6c63430008180033","opcodes":"PUSH1 0xE0 PUSH1 0x40 MSTORE CALLVALUE DUP1 ISZERO PUSH3 0x11 JUMPI PUSH1 0x0 DUP1 REVERT JUMPDEST POP PUSH1 0x40 MLOAD PUSH3 0x2392 CODESIZE SUB DUP1 PUSH3 0x2392 DUP4 CODECOPY DUP2 ADD PUSH1 0x40 DUP2 SWAP1 MSTORE PUSH3 0x34 SWAP2 PUSH3 0xE0 JUMP JUMPDEST PUSH1 0x1 PUSH32 0x9B779B17422D0DF92223018B32B4D1FA46E071723D6817E2486D003BECC55F00 SSTORE PUSH1 0x1 PUSH1 0x1 PUSH1 0xA0 SHL SUB DUP4 AND ISZERO DUP1 PUSH3 0x76 JUMPI POP PUSH1 0x1 PUSH1 0x1 PUSH1 0xA0 SHL SUB DUP3 AND ISZERO JUMPDEST ISZERO PUSH3 0x95 JUMPI PUSH1 0x40 MLOAD PUSH4 0xD92E233D PUSH1 0xE0 SHL DUP2 MSTORE PUSH1 0x4 ADD PUSH1 0x40 MLOAD DUP1 SWAP2 SUB SWAP1 REVERT JUMPDEST PUSH1 0x1 PUSH1 0x1 PUSH1 0xA0 SHL SUB SWAP3 DUP4 AND PUSH1 0x80 MSTORE SWAP2 AND PUSH1 0xA0 MSTORE PUSH1 0xC0 MSTORE PUSH1 0x4 DUP1 SLOAD PUSH1 0x1 PUSH1 0x1 PUSH1 0xA0 SHL SUB NOT AND CALLER OR SWAP1 SSTORE PUSH3 0x121 JUMP JUMPDEST DUP1 MLOAD PUSH1 0x1 PUSH1 0x1 PUSH1 0xA0 SHL SUB DUP2 AND DUP2 EQ PUSH3 0xDB JUMPI PUSH1 0x0 DUP1 REVERT JUMPDEST SWAP2 SWAP1 POP JUMP JUMPDEST PUSH1 0x0 DUP1 PUSH1 0x0 PUSH1 0x60 DUP5 DUP7 SUB SLT ISZERO PUSH3 0xF6 JUMPI PUSH1 0x0 DUP1 REVERT JUMPDEST PUSH3 0x101 DUP5 PUSH3 0xC3 JUMP JUMPDEST SWAP3 POP PUSH3 0x111 PUSH1 0x20 DUP6 ADD PUSH3 0xC3 JUMP JUMPDEST SWAP2 POP PUSH1 0x40 DUP5 ADD MLOAD SWAP1 POP SWAP3 POP SWAP3 POP SWAP3 JUMP JUMPDEST PUSH1 0x80 MLOAD PUSH1 0xA0 MLOAD PUSH1 0xC0 MLOAD PUSH2 0x21F4 PUSH3 0x19E PUSH1 0x0 CODECOPY PUSH1 0x0 DUP2 DUP2 PUSH2 0x3BC ADD MSTORE DUP2 DUP2 PUSH2 0x19E4 ADD MSTORE PUSH2 0x1BB3 ADD MSTORE PUSH1 0x0 DUP2 DUP2 PUSH2 0x302 ADD MSTORE DUP2 DUP2 PUSH2 0x7D4 ADD MSTORE DUP2 DUP2 PUSH2 0x90E ADD MSTORE DUP2 DUP2 PUSH2 0x1554 ADD MSTORE PUSH2 0x15E0 ADD MSTORE PUSH1 0x0 DUP2 DUP2 PUSH2 0x329 ADD MSTORE DUP2 DUP2 PUSH2 0xF27 ADD MSTORE DUP2 DUP2 PUSH2 0xF60 ADD MSTORE DUP2 DUP2 PUSH2 0x13C6 ADD MSTORE DUP2 DUP2 PUSH2 0x144F ADD MSTORE PUSH2 0x148E ADD MSTORE PUSH2 0x21F4 PUSH1 0x0 RETURN INVALID PUSH1 0x80 PUSH1 0x40 MSTORE CALLVALUE DUP1 ISZERO PUSH2 0x10 JUMPI PUSH1 0x0 DUP1 REVERT JUMPDEST POP PUSH1 0x4 CALLDATASIZE LT PUSH2 0x1F0 JUMPI PUSH1 0x0 CALLDATALOAD PUSH1 0xE0 SHR DUP1 PUSH4 0x786685E0 GT PUSH2 0x10F JUMPI DUP1 PUSH4 0xB8AF3D3E GT PUSH2 0xA2 JUMPI DUP1 PUSH4 0xE4E7C6B4 GT PUSH2 0x71 JUMPI DUP1 PUSH4 0xE4E7C6B4 EQ PUSH2 0x53E JUMPI DUP1 PUSH4 0xE9A16BD5 EQ PUSH2 0x551 JUMPI DUP1 PUSH4 0xF851A440 EQ PUSH2 0x564 JUMPI DUP1 PUSH4 0xFF50ABDC EQ PUSH2 0x577 JUMPI PUSH1 0x0 DUP1 REVERT JUMPDEST DUP1 PUSH4 0xB8AF3D3E EQ PUSH2 0x4D2 JUMPI DUP1 PUSH4 0xCEACE7DD EQ PUSH2 0x4E5 JUMPI DUP1 PUSH4 0xD33219B4 EQ PUSH2 0x518 JUMPI DUP1 PUSH4 0xE4D2620E EQ PUSH2 0x52B JUMPI PUSH1 0x0 DUP1 REVERT JUMPDEST DUP1 PUSH4 0xA87430BA GT PUSH2 0xDE JUMPI DUP1 PUSH4 0xA87430BA EQ PUSH2 0x44E JUMPI DUP1 PUSH4 0xAC948E83 EQ PUSH2 0x498 JUMPI DUP1 PUSH4 0xB6635BE6 EQ PUSH2 0x4AB JUMPI DUP1 PUSH4 0xB6B55F25 EQ PUSH2 0x4BF JUMPI PUSH1 0x0 DUP1 REVERT JUMPDEST DUP1 PUSH4 0x786685E0 EQ PUSH2 0x40D JUMPI DUP1 PUSH4 0x8565C2BF EQ PUSH2 0x420 JUMPI DUP1 PUSH4 0x8AEA8F71 EQ PUSH2 0x433 JUMPI DUP1 PUSH4 0x9E5914DA EQ PUSH2 0x43B JUMPI PUSH1 0x0 DUP1 REVERT JUMPDEST DUP1 PUSH4 0x3A6F2DCD GT PUSH2 0x187 JUMPI DUP1 PUSH4 0x65CF7C9B GT PUSH2 0x156 JUMPI DUP1 PUSH4 0x65CF7C9B EQ PUSH2 0x3B7 JUMPI DUP1 PUSH4 0x6B9F7AB6 EQ PUSH2 0x3DE JUMPI DUP1 PUSH4 0x74958E35 EQ PUSH2 0x3F1 JUMPI DUP1 PUSH4 0x760FCB3E EQ PUSH2 0x3FA JUMPI PUSH1 0x0 DUP1 REVERT JUMPDEST DUP1 PUSH4 0x3A6F2DCD EQ PUSH2 0x34B JUMPI DUP1 PUSH4 0x4B319713 EQ PUSH2 0x377 JUMPI DUP1 PUSH4 0x60DA3E83 EQ PUSH2 0x380 JUMPI DUP1 PUSH4 0x61D027B3 EQ PUSH2 0x3A4 JUMPI PUSH1 0x0 DUP1 REVERT JUMPDEST DUP1 PUSH4 0x1441A5A9 GT PUSH2 0x1C3 JUMPI DUP1 PUSH4 0x1441A5A9 EQ PUSH2 0x2BF JUMPI DUP1 PUSH4 0x1C481E2D EQ PUSH2 0x2EA JUMPI DUP1 PUSH4 0x2ACFBCA3 EQ PUSH2 0x2FD JUMPI DUP1 PUSH4 0x2F48AB7D EQ PUSH2 0x324 JUMPI PUSH1 0x0 DUP1 REVERT JUMPDEST DUP1 PUSH4 0x8F43333 EQ PUSH2 0x1F5 JUMPI DUP1 PUSH4 0x962EF79 EQ PUSH2 0x24A JUMPI DUP1 PUSH4 0x13FCAF54 EQ PUSH2 0x25F JUMPI DUP1 PUSH4 0x142A3DA3 EQ PUSH2 0x296 JUMPI JUMPDEST PUSH1 0x0 DUP1 REVERT JUMPDEST PUSH2 0x208 PUSH2 0x203 CALLDATASIZE PUSH1 0x4 PUSH2 0x1FCF JUMP JUMPDEST PUSH2 0x580 JUMP JUMPDEST PUSH1 0x40 DUP1 MLOAD SWAP9 DUP10 MSTORE PUSH1 0x20 DUP10 ADD SWAP8 SWAP1 SWAP8 MSTORE SWAP6 DUP8 ADD SWAP5 SWAP1 SWAP5 MSTORE PUSH1 0x60 DUP7 ADD SWAP3 SWAP1 SWAP3 MSTORE PUSH1 0x80 DUP6 ADD MSTORE PUSH1 0xA0 DUP5 ADD MSTORE PUSH1 0xC0 DUP4 ADD MSTORE ISZERO ISZERO PUSH1 0xE0 DUP3 ADD MSTORE PUSH2 0x100 ADD JUMPDEST PUSH1 0x40 MLOAD DUP1 SWAP2 SUB SWAP1 RETURN JUMPDEST PUSH2 0x25D PUSH2 0x258 CALLDATASIZE PUSH1 0x4 PUSH2 0x1FFB JUMP JUMPDEST PUSH2 0x5E5 JUMP JUMPDEST STOP JUMPDEST PUSH2 0x288 PUSH2 0x26D CALLDATASIZE PUSH1 0x4 PUSH2 0x2014 JUMP JUMPDEST PUSH1 0x1 PUSH1 0x1 PUSH1 0xA0 SHL SUB AND PUSH1 0x0 SWAP1 DUP2 MSTORE PUSH1 0x6 PUSH1 0x20 MSTORE PUSH1 0x40 SWAP1 KECCAK256 SLOAD SWAP1 JUMP JUMPDEST PUSH1 0x40 MLOAD SWAP1 DUP2 MSTORE PUSH1 0x20 ADD PUSH2 0x241 JUMP JUMPDEST PUSH2 0x288 PUSH2 0x2A4 CALLDATASIZE PUSH1 0x4 PUSH2 0x2014 JUMP JUMPDEST PUSH1 0x1 PUSH1 0x1 PUSH1 0xA0 SHL SUB AND PUSH1 0x0 SWAP1 DUP2 MSTORE PUSH1 0x7 PUSH1 0x20 MSTORE PUSH1 0x40 SWAP1 KECCAK256 SLOAD SWAP1 JUMP JUMPDEST PUSH1 0x2 SLOAD PUSH2 0x2D2 SWAP1 PUSH1 0x1 PUSH1 0x1 PUSH1 0xA0 SHL SUB AND DUP2 JUMP JUMPDEST PUSH1 0x40 MLOAD PUSH1 0x1 PUSH1 0x1 PUSH1 0xA0 SHL SUB SWAP1 SWAP2 AND DUP2 MSTORE PUSH1 0x20 ADD PUSH2 0x241 JUMP JUMPDEST PUSH2 0x25D PUSH2 0x2F8 CALLDATASIZE PUSH1 0x4 PUSH2 0x2031 JUMP JUMPDEST PUSH2 0xA6D JUMP JUMPDEST PUSH2 0x2D2 PUSH32 0x0 DUP2 JUMP JUMPDEST PUSH2 0x2D2 PUSH32 0x0 DUP2 JUMP JUMPDEST PUSH2 0x288 PUSH2 0x359 CALLDATASIZE PUSH1 0x4 PUSH2 0x2014 JUMP JUMPDEST PUSH1 0x1 PUSH1 0x1 PUSH1 0xA0 SHL SUB AND PUSH1 0x0 SWAP1 DUP2 MSTORE PUSH1 0x7 PUSH1 0x20 MSTORE PUSH1 0x40 SWAP1 KECCAK256 PUSH1 0x2 ADD SLOAD SWAP1 JUMP JUMPDEST PUSH2 0x288 PUSH1 0x9 SLOAD DUP2 JUMP JUMPDEST PUSH1 0x5 SLOAD PUSH2 0x394 SWAP1 PUSH1 0x1 PUSH1 0xA8 SHL SWAP1 DIV PUSH1 0xFF AND DUP2 JUMP JUMPDEST PUSH1 0x40 MLOAD SWAP1 ISZERO ISZERO DUP2 MSTORE PUSH1 0x20 ADD PUSH2 0x241 JUMP JUMPDEST PUSH1 0x1 SLOAD PUSH2 0x2D2 SWAP1 PUSH1 0x1 PUSH1 0x1 PUSH1 0xA0 SHL SUB AND DUP2 JUMP JUMPDEST PUSH2 0x288 PUSH32 0x0 DUP2 JUMP JUMPDEST PUSH2 0x25D PUSH2 0x3EC CALLDATASIZE PUSH1 0x4 PUSH2 0x1FCF JUMP JUMPDEST PUSH2 0xAF0 JUMP JUMPDEST PUSH2 0x288 PUSH1 0xA SLOAD DUP2 JUMP JUMPDEST PUSH2 0x25D PUSH2 0x408 CALLDATASIZE PUSH1 0x4 PUSH2 0x2053 JUMP JUMPDEST PUSH2 0xB9F JUMP JUMPDEST PUSH2 0x394 PUSH2 0x41B CALLDATASIZE PUSH1 0x4 PUSH2 0x1FCF JUMP JUMPDEST PUSH2 0xC7B JUMP JUMPDEST PUSH1 0x0 SLOAD PUSH2 0x2D2 SWAP1 PUSH1 0x1 PUSH1 0x1 PUSH1 0xA0 SHL SUB AND DUP2 JUMP JUMPDEST PUSH2 0x25D PUSH2 0xD15 JUMP JUMPDEST PUSH2 0x25D PUSH2 0x449 CALLDATASIZE PUSH1 0x4 PUSH2 0x2014 JUMP JUMPDEST PUSH2 0xDB9 JUMP JUMPDEST PUSH2 0x47D PUSH2 0x45C CALLDATASIZE PUSH1 0x4 PUSH2 0x2014 JUMP JUMPDEST PUSH1 0x7 PUSH1 0x20 MSTORE PUSH1 0x0 SWAP1 DUP2 MSTORE PUSH1 0x40 SWAP1 KECCAK256 DUP1 SLOAD PUSH1 0x1 DUP3 ADD SLOAD PUSH1 0x2 SWAP1 SWAP3 ADD SLOAD SWAP1 SWAP2 SWAP1 DUP4 JUMP JUMPDEST PUSH1 0x40 DUP1 MLOAD SWAP4 DUP5 MSTORE PUSH1 0x20 DUP5 ADD SWAP3 SWAP1 SWAP3 MSTORE SWAP1 DUP3 ADD MSTORE PUSH1 0x60 ADD PUSH2 0x241 JUMP JUMPDEST PUSH2 0x25D PUSH2 0x4A6 CALLDATASIZE PUSH1 0x4 PUSH2 0x1FCF JUMP JUMPDEST PUSH2 0xE40 JUMP JUMPDEST PUSH1 0x5 SLOAD PUSH2 0x394 SWAP1 PUSH1 0x1 PUSH1 0xA0 SHL SWAP1 DIV PUSH1 0xFF AND DUP2 JUMP JUMPDEST PUSH2 0x25D PUSH2 0x4CD CALLDATASIZE PUSH1 0x4 PUSH2 0x1FFB JUMP JUMPDEST PUSH2 0xE6B JUMP JUMPDEST PUSH2 0x25D PUSH2 0x4E0 CALLDATASIZE PUSH1 0x4 PUSH2 0x1FFB JUMP JUMPDEST PUSH2 0x124B JUMP JUMPDEST PUSH2 0x4F8 PUSH2 0x4F3 CALLDATASIZE PUSH1 0x4 PUSH2 0x1FCF JUMP JUMPDEST PUSH2 0x16EB JUMP JUMPDEST PUSH1 0x40 DUP1 MLOAD SWAP5 DUP6 MSTORE PUSH1 0x20 DUP6 ADD SWAP4 SWAP1 SWAP4 MSTORE SWAP2 DUP4 ADD MSTORE PUSH1 0x60 DUP3 ADD MSTORE PUSH1 0x80 ADD PUSH2 0x241 JUMP JUMPDEST PUSH1 0x5 SLOAD PUSH2 0x2D2 SWAP1 PUSH1 0x1 PUSH1 0x1 PUSH1 0xA0 SHL SUB AND DUP2 JUMP JUMPDEST PUSH2 0x288 PUSH2 0x539 CALLDATASIZE PUSH1 0x4 PUSH2 0x2014 JUMP JUMPDEST PUSH2 0x17FB JUMP JUMPDEST PUSH2 0x288 PUSH2 0x54C CALLDATASIZE PUSH1 0x4 PUSH2 0x1FCF JUMP JUMPDEST PUSH2 0x1844 JUMP JUMPDEST PUSH1 0x3 SLOAD PUSH2 0x2D2 SWAP1 PUSH1 0x1 PUSH1 0x1 PUSH1 0xA0 SHL SUB AND DUP2 JUMP JUMPDEST PUSH1 0x4 SLOAD PUSH2 0x2D2 SWAP1 PUSH1 0x1 PUSH1 0x1 PUSH1 0xA0 SHL SUB AND DUP2 JUMP JUMPDEST PUSH2 0x288 PUSH1 0x8 SLOAD DUP2 JUMP JUMPDEST PUSH1 0x6 PUSH1 0x20 MSTORE DUP2 PUSH1 0x0 MSTORE PUSH1 0x40 PUSH1 0x0 KECCAK256 DUP2 DUP2 SLOAD DUP2 LT PUSH2 0x59C JUMPI PUSH1 0x0 DUP1 REVERT JUMPDEST PUSH1 0x0 SWAP2 DUP3 MSTORE PUSH1 0x20 SWAP1 SWAP2 KECCAK256 PUSH1 0x8 SWAP1 SWAP2 MUL ADD DUP1 SLOAD PUSH1 0x1 DUP3 ADD SLOAD PUSH1 0x2 DUP4 ADD SLOAD PUSH1 0x3 DUP5 ADD SLOAD PUSH1 0x4 DUP6 ADD SLOAD PUSH1 0x5 DUP7 ADD SLOAD PUSH1 0x6 DUP8 ADD SLOAD PUSH1 0x7 SWAP1 SWAP8 ADD SLOAD SWAP6 SWAP9 POP SWAP4 SWAP7 POP SWAP2 SWAP5 SWAP1 SWAP4 SWAP2 SWAP3 SWAP2 PUSH1 0xFF AND DUP9 JUMP JUMPDEST PUSH2 0x5ED PUSH2 0x18D0 JUMP JUMPDEST PUSH1 0x0 PUSH2 0x5F9 CALLER DUP4 PUSH2 0x18EC JUMP JUMPDEST SWAP1 POP PUSH1 0x0 PUSH2 0x607 CALLER DUP4 PUSH2 0x198D JUMP JUMPDEST SWAP1 POP DUP1 PUSH1 0x0 SUB PUSH2 0x62A JUMPI PUSH1 0x40 MLOAD PUSH4 0x12D37EE5 PUSH1 0xE3 SHL DUP2 MSTORE PUSH1 0x4 ADD PUSH1 0x40 MLOAD DUP1 SWAP2 SUB SWAP1 REVERT JUMPDEST PUSH8 0x8AC7230489E80000 DUP2 LT ISZERO PUSH2 0x653 JUMPI PUSH1 0x40 MLOAD PUSH4 0x7E3F2B7D PUSH1 0xE0 SHL DUP2 MSTORE PUSH1 0x4 ADD PUSH1 0x40 MLOAD DUP1 SWAP2 SUB SWAP1 REVERT JUMPDEST DUP2 SLOAD PUSH1 0x0 SWAP1 PUSH2 0x664 SWAP1 PUSH1 0x3 SWAP1 PUSH2 0x20DA JUMP JUMPDEST CALLER PUSH1 0x0 SWAP1 DUP2 MSTORE PUSH1 0x7 PUSH1 0x20 MSTORE PUSH1 0x40 DUP2 KECCAK256 PUSH1 0x2 DUP2 ADD SLOAD SWAP3 SWAP4 POP SWAP2 DUP4 GT PUSH2 0x689 JUMPI PUSH1 0x0 PUSH2 0x698 JUMP JUMPDEST PUSH1 0x2 DUP3 ADD SLOAD PUSH2 0x698 SWAP1 DUP5 PUSH2 0x20F1 JUMP JUMPDEST SWAP1 POP DUP1 PUSH1 0x0 SUB PUSH2 0x6F2 JUMPI PUSH1 0x7 DUP6 ADD DUP1 SLOAD PUSH1 0xFF NOT AND SWAP1 SSTORE PUSH1 0x40 MLOAD CALLER SWAP1 PUSH32 0xFA1EB7BA4F65747C7C8882031EB92D63B6FCB684B75052185312FBE1A488D943 SWAP1 PUSH1 0x0 SWAP1 LOG2 PUSH1 0x40 MLOAD PUSH4 0x5A2E885 PUSH1 0xE2 SHL DUP2 MSTORE PUSH1 0x4 ADD PUSH1 0x40 MLOAD DUP1 SWAP2 SUB SWAP1 REVERT JUMPDEST DUP1 DUP5 GT ISZERO PUSH2 0x6FE JUMPI DUP1 SWAP4 POP JUMPDEST PUSH1 0x0 PUSH2 0x2710 PUSH2 0x70F PUSH2 0x3E8 DUP8 PUSH2 0x20DA JUMP JUMPDEST PUSH2 0x719 SWAP2 SWAP1 PUSH2 0x2104 JUMP JUMPDEST SWAP1 POP PUSH1 0x0 PUSH2 0x727 DUP3 DUP8 PUSH2 0x20F1 JUMP JUMPDEST PUSH1 0x0 DUP1 SLOAD PUSH1 0x40 MLOAD PUSH4 0x11EA9FA9 PUSH1 0xE2 SHL DUP2 MSTORE PUSH1 0x4 DUP2 ADD DUP5 SWAP1 MSTORE SWAP3 SWAP4 POP SWAP1 SWAP2 PUSH1 0x1 PUSH1 0x1 PUSH1 0xA0 SHL SUB SWAP1 SWAP2 AND SWAP1 PUSH4 0x47AA7EA4 SWAP1 PUSH1 0x24 ADD PUSH1 0x20 PUSH1 0x40 MLOAD DUP1 DUP4 SUB DUP2 DUP7 GAS STATICCALL ISZERO DUP1 ISZERO PUSH2 0x776 JUMPI RETURNDATASIZE PUSH1 0x0 DUP1 RETURNDATACOPY RETURNDATASIZE PUSH1 0x0 REVERT JUMPDEST POP POP POP POP PUSH1 0x40 MLOAD RETURNDATASIZE PUSH1 0x1F NOT PUSH1 0x1F DUP3 ADD AND DUP3 ADD DUP1 PUSH1 0x40 MSTORE POP DUP2 ADD SWAP1 PUSH2 0x79A SWAP2 SWAP1 PUSH2 0x2126 JUMP JUMPDEST SWAP1 POP DUP1 PUSH1 0x0 SUB PUSH2 0x7BD JUMPI PUSH1 0x40 MLOAD PUSH4 0xCC884657 PUSH1 0xE0 SHL DUP2 MSTORE PUSH1 0x4 ADD PUSH1 0x40 MLOAD DUP1 SWAP2 SUB SWAP1 REVERT JUMPDEST PUSH1 0x40 MLOAD PUSH4 0x70A08231 PUSH1 0xE0 SHL DUP2 MSTORE ADDRESS PUSH1 0x4 DUP3 ADD MSTORE DUP2 SWAP1 PUSH32 0x0 PUSH1 0x1 PUSH1 0x1 PUSH1 0xA0 SHL SUB AND SWAP1 PUSH4 0x70A08231 SWAP1 PUSH1 0x24 ADD PUSH1 0x20 PUSH1 0x40 MLOAD DUP1 DUP4 SUB DUP2 DUP7 GAS STATICCALL ISZERO DUP1 ISZERO PUSH2 0x823 JUMPI RETURNDATASIZE PUSH1 0x0 DUP1 RETURNDATACOPY RETURNDATASIZE PUSH1 0x0 REVERT JUMPDEST POP POP POP POP PUSH1 0x40 MLOAD RETURNDATASIZE PUSH1 0x1F NOT PUSH1 0x1F DUP3 ADD AND DUP3 ADD DUP1 PUSH1 0x40 MSTORE POP DUP2 ADD SWAP1 PUSH2 0x847 SWAP2 SWAP1 PUSH2 0x2126 JUMP JUMPDEST LT ISZERO PUSH2 0x866 JUMPI PUSH1 0x40 MLOAD PUSH4 0x75E4645 PUSH1 0xE0 SHL DUP2 MSTORE PUSH1 0x4 ADD PUSH1 0x40 MLOAD DUP1 SWAP2 SUB SWAP1 REVERT JUMPDEST DUP7 DUP9 PUSH1 0x5 ADD PUSH1 0x0 DUP3 DUP3 SLOAD PUSH2 0x87A SWAP2 SWAP1 PUSH2 0x213F JUMP JUMPDEST SWAP1 SWAP2 SSTORE POP POP TIMESTAMP PUSH1 0x4 DUP10 ADD SSTORE PUSH1 0x2 DUP6 ADD DUP1 SLOAD DUP9 SWAP2 SWAP1 PUSH1 0x0 SWAP1 PUSH2 0x89C SWAP1 DUP5 SWAP1 PUSH2 0x213F JUMP JUMPDEST SWAP3 POP POP DUP2 SWAP1 SSTORE POP DUP7 PUSH1 0xA PUSH1 0x0 DUP3 DUP3 SLOAD PUSH2 0x8B5 SWAP2 SWAP1 PUSH2 0x213F JUMP JUMPDEST SWAP1 SWAP2 SSTORE POP POP PUSH1 0x6 DUP9 ADD SLOAD PUSH1 0x5 DUP10 ADD SLOAD LT PUSH2 0x901 JUMPI PUSH1 0x7 DUP9 ADD DUP1 SLOAD PUSH1 0xFF NOT AND SWAP1 SSTORE PUSH1 0x40 MLOAD CALLER SWAP1 PUSH32 0xFA1EB7BA4F65747C7C8882031EB92D63B6FCB684B75052185312FBE1A488D943 SWAP1 PUSH1 0x0 SWAP1 LOG2 JUMPDEST PUSH2 0x935 PUSH1 0x1 PUSH1 0x1 PUSH1 0xA0 SHL SUB PUSH32 0x0 AND CALLER DUP4 PUSH2 0x1A89 JUMP JUMPDEST PUSH1 0x2 SLOAD PUSH1 0x1 PUSH1 0x1 PUSH1 0xA0 SHL SUB AND ISZERO PUSH2 0x9CE JUMPI PUSH1 0x0 PUSH1 0x64 PUSH2 0x955 DUP10 PUSH1 0x5 PUSH2 0x20DA JUMP JUMPDEST PUSH2 0x95F SWAP2 SWAP1 PUSH2 0x2104 JUMP JUMPDEST SWAP1 POP DUP1 ISZERO PUSH2 0x9CC JUMPI PUSH1 0x2 SLOAD PUSH1 0x40 MLOAD PUSH4 0x8000D991 PUSH1 0xE0 SHL DUP2 MSTORE CALLER PUSH1 0x4 DUP3 ADD MSTORE PUSH1 0x24 DUP2 ADD DUP4 SWAP1 MSTORE PUSH1 0x1 PUSH1 0x1 PUSH1 0xA0 SHL SUB SWAP1 SWAP2 AND SWAP1 PUSH4 0x8000D991 SWAP1 PUSH1 0x44 ADD PUSH1 0x0 PUSH1 0x40 MLOAD DUP1 DUP4 SUB DUP2 PUSH1 0x0 DUP8 DUP1 EXTCODESIZE ISZERO DUP1 ISZERO PUSH2 0x9B3 JUMPI PUSH1 0x0 DUP1 REVERT JUMPDEST POP GAS CALL ISZERO DUP1 ISZERO PUSH2 0x9C7 JUMPI RETURNDATASIZE PUSH1 0x0 DUP1 RETURNDATACOPY RETURNDATASIZE PUSH1 0x0 REVERT JUMPDEST POP POP POP POP JUMPDEST POP JUMPDEST PUSH1 0x40 DUP1 MLOAD DUP9 DUP2 MSTORE PUSH1 0x20 DUP2 ADD DUP4 SWAP1 MSTORE SWAP1 DUP2 ADD DUP11 SWAP1 MSTORE CALLER SWAP1 PUSH32 0x56253D287EFACDB2C4CD76DD03624A4821C1CE721D1152E8F5F5718F6087C9BF SWAP1 PUSH1 0x60 ADD PUSH1 0x40 MLOAD DUP1 SWAP2 SUB SWAP1 LOG2 PUSH1 0x2 DUP6 ADD SLOAD PUSH1 0x40 MLOAD SWAP1 DUP2 MSTORE CALLER SWAP1 PUSH32 0xDAD0E43AFDD45DACA2566E861FF76F0250960D86947518722C83B1E03F45EDD5 SWAP1 PUSH1 0x20 ADD PUSH1 0x40 MLOAD DUP1 SWAP2 SUB SWAP1 LOG2 POP POP POP POP POP POP POP POP PUSH2 0xA6A PUSH1 0x1 PUSH1 0x0 DUP1 MLOAD PUSH1 0x20 PUSH2 0x219F DUP4 CODECOPY DUP2 MLOAD SWAP2 MSTORE SSTORE JUMP JUMPDEST POP JUMP JUMPDEST PUSH1 0x5 SLOAD PUSH1 0x1 PUSH1 0x1 PUSH1 0xA0 SHL SUB AND CALLER EQ PUSH2 0xA98 JUMPI PUSH1 0x40 MLOAD PUSH4 0xE05F485 PUSH1 0xE1 SHL DUP2 MSTORE PUSH1 0x4 ADD PUSH1 0x40 MLOAD DUP1 SWAP2 SUB SWAP1 REVERT JUMPDEST PUSH1 0x5 DUP1 SLOAD DUP3 ISZERO ISZERO PUSH1 0x1 PUSH1 0xA8 SHL MUL PUSH1 0xFF PUSH1 0xA8 SHL NOT SWAP1 SWAP2 AND OR SWAP1 SSTORE PUSH1 0x40 MLOAD PUSH32 0x5EF34F53269A04B5B817E5BE24A51BA6B477118B399EC9DD5B2BAF5B299563DC SWAP1 PUSH2 0xAE5 SWAP1 DUP4 ISZERO ISZERO DUP2 MSTORE PUSH1 0x20 ADD SWAP1 JUMP JUMPDEST PUSH1 0x40 MLOAD DUP1 SWAP2 SUB SWAP1 LOG1 POP JUMP JUMPDEST PUSH1 0x2 SLOAD PUSH1 0x1 PUSH1 0x1 PUSH1 0xA0 SHL SUB AND CALLER EQ PUSH2 0xB1B JUMPI PUSH1 0x40 MLOAD PUSH4 0x3864B1E5 PUSH1 0xE2 SHL DUP2 MSTORE PUSH1 0x4 ADD PUSH1 0x40 MLOAD DUP1 SWAP2 SUB SWAP1 REVERT JUMPDEST PUSH1 0x1 PUSH1 0x1 PUSH1 0xA0 SHL SUB DUP3 AND PUSH1 0x0 SWAP1 DUP2 MSTORE PUSH1 0x7 PUSH1 0x20 MSTORE PUSH1 0x40 DUP2 KECCAK256 PUSH1 0x2 ADD DUP1 SLOAD DUP4 SWAP3 SWAP1 PUSH2 0xB46 SWAP1 DUP5 SWAP1 PUSH2 0x213F JUMP JUMPDEST SWAP1 SWAP2 SSTORE POP POP PUSH1 0x1 PUSH1 0x1 PUSH1 0xA0 SHL SUB DUP3 AND PUSH1 0x0 DUP2 DUP2 MSTORE PUSH1 0x7 PUSH1 0x20 SWAP1 DUP2 MSTORE PUSH1 0x40 SWAP2 DUP3 SWAP1 KECCAK256 PUSH1 0x2 ADD SLOAD SWAP2 MLOAD SWAP2 DUP3 MSTORE PUSH32 0xDAD0E43AFDD45DACA2566E861FF76F0250960D86947518722C83B1E03F45EDD5 SWAP2 ADD PUSH1 0x40 MLOAD DUP1 SWAP2 SUB SWAP1 LOG2 POP POP JUMP JUMPDEST PUSH1 0x4 SLOAD PUSH1 0x1 PUSH1 0x1 PUSH1 0xA0 SHL SUB AND CALLER EQ PUSH2 0xBCA JUMPI PUSH1 0x40 MLOAD PUSH4 0x47556579 PUSH1 0xE0 SHL DUP2 MSTORE PUSH1 0x4 ADD PUSH1 0x40 MLOAD DUP1 SWAP2 SUB SWAP1 REVERT JUMPDEST PUSH1 0x5 SLOAD PUSH1 0x1 PUSH1 0xA0 SHL SWAP1 DIV PUSH1 0xFF AND ISZERO PUSH2 0xBF5 JUMPI PUSH1 0x40 MLOAD PUSH4 0x238F75D3 PUSH1 0xE0 SHL DUP2 MSTORE PUSH1 0x4 ADD PUSH1 0x40 MLOAD DUP1 SWAP2 SUB SWAP1 REVERT JUMPDEST PUSH1 0x1 PUSH1 0x1 PUSH1 0xA0 SHL SUB DUP3 AND PUSH2 0xC1C JUMPI PUSH1 0x40 MLOAD PUSH4 0xD92E233D PUSH1 0xE0 SHL DUP2 MSTORE PUSH1 0x4 ADD PUSH1 0x40 MLOAD DUP1 SWAP2 SUB SWAP1 REVERT JUMPDEST PUSH1 0x1 DUP1 SLOAD PUSH1 0x1 PUSH1 0x1 PUSH1 0xA0 SHL SUB NOT SWAP1 DUP2 AND PUSH1 0x1 PUSH1 0x1 PUSH1 0xA0 SHL SUB SWAP8 DUP9 AND OR SWAP1 SWAP2 SSTORE PUSH1 0x2 DUP1 SLOAD DUP3 AND SWAP6 DUP8 AND SWAP6 SWAP1 SWAP6 OR SWAP1 SWAP5 SSTORE PUSH1 0x3 DUP1 SLOAD DUP6 AND SWAP4 DUP7 AND SWAP4 SWAP1 SWAP4 OR SWAP1 SWAP3 SSTORE PUSH1 0x0 DUP1 SLOAD DUP5 AND SWAP2 DUP6 AND SWAP2 SWAP1 SWAP2 OR SWAP1 SSTORE PUSH1 0x5 DUP1 SLOAD SWAP1 SWAP3 AND SWAP3 AND SWAP2 SWAP1 SWAP2 OR SWAP1 SSTORE JUMP JUMPDEST PUSH1 0x1 PUSH1 0x1 PUSH1 0xA0 SHL SUB DUP3 AND PUSH1 0x0 SWAP1 DUP2 MSTORE PUSH1 0x6 PUSH1 0x20 MSTORE PUSH1 0x40 DUP2 KECCAK256 SLOAD DUP3 LT PUSH2 0xCA2 JUMPI POP PUSH1 0x0 PUSH2 0xD0F JUMP JUMPDEST PUSH1 0x1 PUSH1 0x1 PUSH1 0xA0 SHL SUB DUP4 AND PUSH1 0x0 SWAP1 DUP2 MSTORE PUSH1 0x6 PUSH1 0x20 MSTORE PUSH1 0x40 DUP2 KECCAK256 DUP1 SLOAD DUP5 SWAP1 DUP2 LT PUSH2 0xCCC JUMPI PUSH2 0xCCC PUSH2 0x2152 JUMP JUMPDEST PUSH1 0x0 SWAP2 DUP3 MSTORE PUSH1 0x20 SWAP1 SWAP2 KECCAK256 PUSH1 0x8 SWAP1 SWAP2 MUL ADD PUSH1 0x7 DUP2 ADD SLOAD SWAP1 SWAP2 POP PUSH1 0xFF AND PUSH2 0xCF5 JUMPI PUSH1 0x0 SWAP2 POP POP PUSH2 0xD0F JUMP JUMPDEST PUSH3 0xD2F00 DUP2 PUSH1 0x3 ADD SLOAD PUSH2 0xD08 SWAP2 SWAP1 PUSH2 0x213F JUMP JUMPDEST TIMESTAMP GT ISZERO SWAP2 POP POP JUMPDEST SWAP3 SWAP2 POP POP JUMP JUMPDEST PUSH1 0x4 SLOAD PUSH1 0x1 PUSH1 0x1 PUSH1 0xA0 SHL SUB AND CALLER EQ PUSH2 0xD40 JUMPI PUSH1 0x40 MLOAD PUSH4 0x47556579 PUSH1 0xE0 SHL DUP2 MSTORE PUSH1 0x4 ADD PUSH1 0x40 MLOAD DUP1 SWAP2 SUB SWAP1 REVERT JUMPDEST PUSH1 0x5 SLOAD PUSH1 0x1 PUSH1 0xA0 SHL SWAP1 DIV PUSH1 0xFF AND ISZERO PUSH2 0xD6B JUMPI PUSH1 0x40 MLOAD PUSH4 0x238F75D3 PUSH1 0xE0 SHL DUP2 MSTORE PUSH1 0x4 ADD PUSH1 0x40 MLOAD DUP1 SWAP2 SUB SWAP1 REVERT JUMPDEST PUSH1 0x1 SLOAD PUSH1 0x1 PUSH1 0x1 PUSH1 0xA0 SHL SUB AND PUSH2 0xD94 JUMPI PUSH1 0x40 MLOAD PUSH4 0xD311BC39 PUSH1 0xE0 SHL DUP2 MSTORE PUSH1 0x4 ADD PUSH1 0x40 MLOAD DUP1 SWAP2 SUB SWAP1 REVERT JUMPDEST PUSH1 0x5 DUP1 SLOAD PUSH1 0xFF PUSH1 0xA0 SHL NOT AND PUSH1 0x1 PUSH1 0xA0 SHL OR SWAP1 SSTORE PUSH1 0x4 DUP1 SLOAD PUSH1 0x1 PUSH1 0x1 PUSH1 0xA0 SHL SUB NOT AND SWAP1 SSTORE JUMP JUMPDEST PUSH1 0x5 SLOAD PUSH1 0x1 PUSH1 0x1 PUSH1 0xA0 SHL SUB AND CALLER EQ PUSH2 0xDE4 JUMPI PUSH1 0x40 MLOAD PUSH4 0xE05F485 PUSH1 0xE1 SHL DUP2 MSTORE PUSH1 0x4 ADD PUSH1 0x40 MLOAD DUP1 SWAP2 SUB SWAP1 REVERT JUMPDEST PUSH1 0x2 SLOAD PUSH1 0x40 MLOAD PUSH1 0x1 PUSH1 0x1 PUSH1 0xA0 SHL SUB DUP1 DUP5 AND SWAP3 AND SWAP1 PUSH32 0xEEFE1CE2782E4BA3BBCCD79617FAE74979FA22005F22F7075C0910CD51C8FFD9 SWAP1 PUSH1 0x0 SWAP1 LOG3 PUSH1 0x2 DUP1 SLOAD PUSH1 0x1 PUSH1 0x1 PUSH1 0xA0 SHL SUB NOT AND PUSH1 0x1 PUSH1 0x1 PUSH1 0xA0 SHL SUB SWAP3 SWAP1 SWAP3 AND SWAP2 SWAP1 SWAP2 OR SWAP1 SSTORE JUMP JUMPDEST PUSH1 0x3 SLOAD PUSH1 0x1 PUSH1 0x1 PUSH1 0xA0 SHL SUB AND CALLER EQ PUSH2 0xB1B JUMPI PUSH1 0x40 MLOAD PUSH4 0x33273113 PUSH1 0xE1 SHL DUP2 MSTORE PUSH1 0x4 ADD PUSH1 0x40 MLOAD DUP1 SWAP2 SUB SWAP1 REVERT JUMPDEST PUSH2 0xE73 PUSH2 0x18D0 JUMP JUMPDEST PUSH1 0x5 SLOAD PUSH1 0x1 PUSH1 0xA8 SHL SWAP1 DIV PUSH1 0xFF AND ISZERO PUSH2 0xE9D JUMPI PUSH1 0x40 MLOAD PUSH3 0x7CFE7F PUSH1 0xE3 SHL DUP2 MSTORE PUSH1 0x4 ADD PUSH1 0x40 MLOAD DUP1 SWAP2 SUB SWAP1 REVERT JUMPDEST PUSH8 0x8AC7230489E80000 DUP2 LT ISZERO PUSH2 0xEC6 JUMPI PUSH1 0x40 MLOAD PUSH4 0x2B7786BD PUSH1 0xE2 SHL DUP2 MSTORE PUSH1 0x4 ADD PUSH1 0x40 MLOAD DUP1 SWAP2 SUB SWAP1 REVERT JUMPDEST PUSH10 0x10F0CF064DD59200000 DUP2 GT ISZERO PUSH2 0xEF1 JUMPI PUSH1 0x40 MLOAD PUSH4 0xC066E1E9 PUSH1 0xE0 SHL DUP2 MSTORE PUSH1 0x4 ADD PUSH1 0x40 MLOAD DUP1 SWAP2 SUB SWAP1 REVERT JUMPDEST PUSH1 0x0 SLOAD PUSH1 0x1 PUSH1 0x1 PUSH1 0xA0 SHL SUB AND PUSH2 0xF1A JUMPI PUSH1 0x40 MLOAD PUSH4 0xD311BC39 PUSH1 0xE0 SHL DUP2 MSTORE PUSH1 0x4 ADD PUSH1 0x40 MLOAD DUP1 SWAP2 SUB SWAP1 REVERT JUMPDEST PUSH2 0xF4F PUSH1 0x1 PUSH1 0x1 PUSH1 0xA0 SHL SUB PUSH32 0x0 AND CALLER ADDRESS DUP5 PUSH2 0x1AC8 JUMP JUMPDEST PUSH1 0x0 SLOAD PUSH2 0xF89 SWAP1 PUSH1 0x1 PUSH1 0x1 PUSH1 0xA0 SHL SUB PUSH32 0x0 DUP2 AND SWAP2 AND DUP4 PUSH2 0x1B04 JUMP JUMPDEST PUSH1 0x0 DUP1 SLOAD PUSH1 0x40 MLOAD PUSH4 0x66102AD PUSH1 0xE1 SHL DUP2 MSTORE PUSH1 0x4 DUP2 ADD DUP5 SWAP1 MSTORE PUSH1 0x1 PUSH1 0x1 PUSH1 0xA0 SHL SUB SWAP1 SWAP2 AND SWAP1 PUSH4 0xCC2055A SWAP1 PUSH1 0x24 ADD PUSH1 0x20 PUSH1 0x40 MLOAD DUP1 DUP4 SUB DUP2 PUSH1 0x0 DUP8 GAS CALL ISZERO DUP1 ISZERO PUSH2 0xFD5 JUMPI RETURNDATASIZE PUSH1 0x0 DUP1 RETURNDATACOPY RETURNDATASIZE PUSH1 0x0 REVERT JUMPDEST POP POP POP POP PUSH1 0x40 MLOAD RETURNDATASIZE PUSH1 0x1F NOT PUSH1 0x1F DUP3 ADD AND DUP3 ADD DUP1 PUSH1 0x40 MSTORE POP DUP2 ADD SWAP1 PUSH2 0xFF9 SWAP2 SWAP1 PUSH2 0x2126 JUMP JUMPDEST SWAP1 POP PUSH1 0x0 PUSH2 0x1006 DUP4 PUSH2 0x1B58 JUMP JUMPDEST SWAP1 POP PUSH1 0x0 PUSH2 0x1013 DUP5 PUSH2 0x1BAB JUMP JUMPDEST SWAP1 POP PUSH1 0x0 PUSH2 0x1022 PUSH1 0x3 DUP7 PUSH2 0x20DA JUMP JUMPDEST CALLER PUSH1 0x0 DUP2 DUP2 MSTORE PUSH1 0x6 PUSH1 0x20 DUP2 DUP2 MSTORE PUSH1 0x40 DUP1 DUP5 KECCAK256 DUP2 MLOAD PUSH2 0x100 DUP2 ADD DUP4 MSTORE DUP13 DUP2 MSTORE DUP1 DUP5 ADD DUP12 DUP2 MSTORE DUP2 DUP5 ADD DUP12 DUP2 MSTORE TIMESTAMP PUSH1 0x60 DUP5 ADD DUP2 DUP2 MSTORE PUSH1 0x80 DUP6 ADD SWAP2 DUP3 MSTORE PUSH1 0xA0 DUP6 ADD DUP11 DUP2 MSTORE PUSH1 0xC0 DUP7 ADD DUP14 DUP2 MSTORE PUSH1 0x1 PUSH1 0xE0 DUP9 ADD DUP2 DUP2 MSTORE DUP10 SLOAD DUP1 DUP4 ADD DUP12 SSTORE SWAP10 DUP15 MSTORE DUP12 DUP15 KECCAK256 SWAP9 MLOAD PUSH1 0x8 SWAP1 SWAP11 MUL SWAP1 SWAP9 ADD SWAP9 DUP10 SSTORE SWAP6 MLOAD SWAP6 DUP9 ADD SWAP6 SWAP1 SWAP6 SSTORE SWAP3 MLOAD PUSH1 0x2 DUP8 ADD SSTORE MLOAD PUSH1 0x3 DUP7 ADD SSTORE MLOAD PUSH1 0x4 DUP6 ADD SSTORE MLOAD PUSH1 0x5 DUP5 ADD SSTORE MLOAD SWAP5 DUP3 ADD SWAP5 SWAP1 SWAP5 SSTORE SWAP3 MLOAD PUSH1 0x7 SWAP4 DUP5 ADD DUP1 SLOAD PUSH1 0xFF NOT AND SWAP2 ISZERO ISZERO SWAP2 SWAP1 SWAP2 OR SWAP1 SSTORE SWAP4 DUP4 MSTORE MSTORE SWAP1 DUP2 KECCAK256 DUP1 SLOAD SWAP3 SWAP4 POP DUP8 SWAP3 SWAP1 SWAP2 SWAP1 PUSH2 0x10E8 SWAP1 DUP5 SWAP1 PUSH2 0x213F JUMP JUMPDEST SWAP1 SWAP2 SSTORE POP POP CALLER PUSH1 0x0 SWAP1 DUP2 MSTORE PUSH1 0x7 PUSH1 0x20 MSTORE PUSH1 0x40 DUP2 KECCAK256 PUSH1 0x1 ADD DUP1 SLOAD SWAP2 PUSH2 0x110B DUP4 PUSH2 0x2168 JUMP JUMPDEST SWAP2 SWAP1 POP SSTORE POP DUP5 PUSH1 0x8 PUSH1 0x0 DUP3 DUP3 SLOAD PUSH2 0x1122 SWAP2 SWAP1 PUSH2 0x213F JUMP JUMPDEST SWAP1 SWAP2 SSTORE POP POP PUSH1 0x2 SLOAD PUSH1 0x1 PUSH1 0x1 PUSH1 0xA0 SHL SUB AND ISZERO PUSH2 0x1196 JUMPI PUSH1 0x2 SLOAD PUSH1 0x40 MLOAD PUSH4 0x95CE44B PUSH1 0xE2 SHL DUP2 MSTORE CALLER PUSH1 0x4 DUP3 ADD MSTORE PUSH1 0x1 PUSH1 0x1 PUSH1 0xA0 SHL SUB SWAP1 SWAP2 AND SWAP1 PUSH4 0x2573912C SWAP1 PUSH1 0x24 ADD PUSH1 0x0 PUSH1 0x40 MLOAD DUP1 DUP4 SUB DUP2 PUSH1 0x0 DUP8 DUP1 EXTCODESIZE ISZERO DUP1 ISZERO PUSH2 0x117D JUMPI PUSH1 0x0 DUP1 REVERT JUMPDEST POP GAS CALL ISZERO DUP1 ISZERO PUSH2 0x1191 JUMPI RETURNDATASIZE PUSH1 0x0 DUP1 RETURNDATACOPY RETURNDATASIZE PUSH1 0x0 REVERT JUMPDEST POP POP POP POP JUMPDEST PUSH1 0x3 SLOAD PUSH1 0x1 PUSH1 0x1 PUSH1 0xA0 SHL SUB AND ISZERO DUP1 ISZERO SWAP1 PUSH2 0x11BA JUMPI POP PUSH1 0x2 SLOAD PUSH1 0x1 PUSH1 0x1 PUSH1 0xA0 SHL SUB AND ISZERO ISZERO JUMPDEST ISZERO PUSH2 0x11C9 JUMPI PUSH2 0x11C9 CALLER DUP7 PUSH2 0x1CC8 JUMP JUMPDEST CALLER PUSH1 0x0 DUP2 DUP2 MSTORE PUSH1 0x6 PUSH1 0x20 MSTORE PUSH1 0x40 SWAP1 KECCAK256 SLOAD PUSH32 0xE3B53CD1A44FBF11535E145D80B8EF1ED6D57A73BF5DAA7E939B6B01657D6549 SWAP1 DUP8 SWAP1 DUP7 SWAP1 DUP7 SWAP1 PUSH2 0x120D SWAP1 PUSH1 0x1 SWAP1 PUSH2 0x20F1 JUMP JUMPDEST PUSH1 0x40 DUP1 MLOAD SWAP5 DUP6 MSTORE PUSH1 0x20 DUP6 ADD SWAP4 SWAP1 SWAP4 MSTORE SWAP2 DUP4 ADD MSTORE PUSH1 0x60 DUP3 ADD MSTORE PUSH1 0x80 ADD PUSH1 0x40 MLOAD DUP1 SWAP2 SUB SWAP1 LOG2 POP POP POP POP PUSH2 0xA6A PUSH1 0x1 PUSH1 0x0 DUP1 MLOAD PUSH1 0x20 PUSH2 0x219F DUP4 CODECOPY DUP2 MLOAD SWAP2 MSTORE SSTORE JUMP JUMPDEST PUSH2 0x1253 PUSH2 0x18D0 JUMP JUMPDEST PUSH1 0x0 PUSH2 0x125F CALLER DUP4 PUSH2 0x18EC JUMP JUMPDEST SWAP1 POP PUSH3 0xD2F00 DUP2 PUSH1 0x3 ADD SLOAD PUSH2 0x1274 SWAP2 SWAP1 PUSH2 0x213F JUMP JUMPDEST TIMESTAMP GT ISZERO PUSH2 0x1294 JUMPI PUSH1 0x40 MLOAD PUSH4 0x693ED15B PUSH1 0xE1 SHL DUP2 MSTORE PUSH1 0x4 ADD PUSH1 0x40 MLOAD DUP1 SWAP2 SUB SWAP1 REVERT JUMPDEST DUP1 SLOAD PUSH1 0x0 PUSH2 0x12A2 CALLER DUP5 PUSH2 0x198D JUMP JUMPDEST SWAP1 POP PUSH1 0x0 PUSH2 0x2710 PUSH2 0x12B5 PUSH2 0x3E8 DUP6 PUSH2 0x20DA JUMP JUMPDEST PUSH2 0x12BF SWAP2 SWAP1 PUSH2 0x2104 JUMP JUMPDEST SWAP1 POP PUSH1 0x0 PUSH2 0x12CD DUP3 DUP5 PUSH2 0x213F JUMP JUMPDEST SWAP1 POP PUSH1 0x0 DUP2 DUP6 GT PUSH2 0x12DF JUMPI PUSH1 0x0 PUSH2 0x12E9 JUMP JUMPDEST PUSH2 0x12E9 DUP3 DUP7 PUSH2 0x20F1 JUMP JUMPDEST PUSH1 0x7 DUP1 DUP9 ADD DUP1 SLOAD PUSH1 0xFF NOT AND SWAP1 SSTORE CALLER PUSH1 0x0 SWAP1 DUP2 MSTORE PUSH1 0x20 SWAP2 SWAP1 SWAP2 MSTORE PUSH1 0x40 DUP2 KECCAK256 DUP1 SLOAD SWAP3 SWAP4 POP DUP8 SWAP3 SWAP1 SWAP2 SWAP1 PUSH2 0x131B SWAP1 DUP5 SWAP1 PUSH2 0x20F1 JUMP JUMPDEST SWAP3 POP POP DUP2 SWAP1 SSTORE POP DUP5 PUSH1 0x9 PUSH1 0x0 DUP3 DUP3 SLOAD PUSH2 0x1334 SWAP2 SWAP1 PUSH2 0x213F JUMP JUMPDEST SWAP1 SWAP2 SSTORE POP POP PUSH1 0x2 SLOAD PUSH1 0x1 PUSH1 0x1 PUSH1 0xA0 SHL SUB AND ISZERO PUSH2 0x13A8 JUMPI PUSH1 0x2 SLOAD PUSH1 0x40 MLOAD PUSH4 0x95CE44B PUSH1 0xE2 SHL DUP2 MSTORE CALLER PUSH1 0x4 DUP3 ADD MSTORE PUSH1 0x1 PUSH1 0x1 PUSH1 0xA0 SHL SUB SWAP1 SWAP2 AND SWAP1 PUSH4 0x2573912C SWAP1 PUSH1 0x24 ADD PUSH1 0x0 PUSH1 0x40 MLOAD DUP1 DUP4 SUB DUP2 PUSH1 0x0 DUP8 DUP1 EXTCODESIZE ISZERO DUP1 ISZERO PUSH2 0x138F JUMPI PUSH1 0x0 DUP1 REVERT JUMPDEST POP GAS CALL ISZERO DUP1 ISZERO PUSH2 0x13A3 JUMPI RETURNDATASIZE PUSH1 0x0 DUP1 RETURNDATACOPY RETURNDATASIZE PUSH1 0x0 REVERT JUMPDEST POP POP POP POP JUMPDEST DUP1 ISZERO PUSH2 0x1684 JUMPI PUSH1 0x40 MLOAD PUSH4 0x70A08231 PUSH1 0xE0 SHL DUP2 MSTORE ADDRESS PUSH1 0x4 DUP3 ADD MSTORE PUSH1 0x0 SWAP1 PUSH32 0x0 PUSH1 0x1 PUSH1 0x1 PUSH1 0xA0 SHL SUB AND SWAP1 PUSH4 0x70A08231 SWAP1 PUSH1 0x24 ADD PUSH1 0x20 PUSH1 0x40 MLOAD DUP1 DUP4 SUB DUP2 DUP7 GAS STATICCALL ISZERO DUP1 ISZERO PUSH2 0x1415 JUMPI RETURNDATASIZE PUSH1 0x0 DUP1 RETURNDATACOPY RETURNDATASIZE PUSH1 0x0 REVERT JUMPDEST POP POP POP POP PUSH1 0x40 MLOAD RETURNDATASIZE PUSH1 0x1F NOT PUSH1 0x1F DUP3 ADD AND DUP3 ADD DUP1 PUSH1 0x40 MSTORE POP DUP2 ADD SWAP1 PUSH2 0x1439 SWAP2 SWAP1 PUSH2 0x2126 JUMP JUMPDEST SWAP1 POP DUP2 DUP2 LT PUSH2 0x147B JUMPI PUSH2 0x1476 PUSH1 0x1 PUSH1 0x1 PUSH1 0xA0 SHL SUB PUSH32 0x0 AND CALLER DUP5 PUSH2 0x1A89 JUMP JUMPDEST PUSH2 0x1682 JUMP JUMPDEST DUP1 ISZERO PUSH2 0x14C2 JUMPI PUSH2 0x14B5 PUSH1 0x1 PUSH1 0x1 PUSH1 0xA0 SHL SUB PUSH32 0x0 AND CALLER DUP4 PUSH2 0x1A89 JUMP JUMPDEST PUSH2 0x14BF DUP2 DUP4 PUSH2 0x20F1 JUMP JUMPDEST SWAP2 POP JUMPDEST PUSH1 0x0 DUP1 SLOAD PUSH1 0x40 MLOAD PUSH4 0x11EA9FA9 PUSH1 0xE2 SHL DUP2 MSTORE PUSH1 0x4 DUP2 ADD DUP6 SWAP1 MSTORE PUSH1 0x1 PUSH1 0x1 PUSH1 0xA0 SHL SUB SWAP1 SWAP2 AND SWAP1 PUSH4 0x47AA7EA4 SWAP1 PUSH1 0x24 ADD PUSH1 0x20 PUSH1 0x40 MLOAD DUP1 DUP4 SUB DUP2 DUP7 GAS STATICCALL ISZERO DUP1 ISZERO PUSH2 0x150C JUMPI RETURNDATASIZE PUSH1 0x0 DUP1 RETURNDATACOPY RETURNDATASIZE PUSH1 0x0 REVERT JUMPDEST POP POP POP POP PUSH1 0x40 MLOAD RETURNDATASIZE PUSH1 0x1F NOT PUSH1 0x1F DUP3 ADD AND DUP3 ADD DUP1 PUSH1 0x40 MSTORE POP DUP2 ADD SWAP1 PUSH2 0x1530 SWAP2 SWAP1 PUSH2 0x2126 JUMP JUMPDEST SWAP1 POP PUSH1 0x0 DUP2 GT DUP1 ISZERO PUSH2 0x15CA JUMPI POP PUSH1 0x40 MLOAD PUSH4 0x70A08231 PUSH1 0xE0 SHL DUP2 MSTORE ADDRESS PUSH1 0x4 DUP3 ADD MSTORE DUP2 SWAP1 PUSH32 0x0 PUSH1 0x1 PUSH1 0x1 PUSH1 0xA0 SHL SUB AND SWAP1 PUSH4 0x70A08231 SWAP1 PUSH1 0x24 ADD PUSH1 0x20 PUSH1 0x40 MLOAD DUP1 DUP4 SUB DUP2 DUP7 GAS STATICCALL ISZERO DUP1 ISZERO PUSH2 0x15A3 JUMPI RETURNDATASIZE PUSH1 0x0 DUP1 RETURNDATACOPY RETURNDATASIZE PUSH1 0x0 REVERT JUMPDEST POP POP POP POP PUSH1 0x40 MLOAD RETURNDATASIZE PUSH1 0x1F NOT PUSH1 0x1F DUP3 ADD AND DUP3 ADD DUP1 PUSH1 0x40 MSTORE POP DUP2 ADD SWAP1 PUSH2 0x15C7 SWAP2 SWAP1 PUSH2 0x2126 JUMP JUMPDEST LT ISZERO JUMPDEST ISZERO PUSH2 0x1680 JUMPI PUSH1 0x0 SLOAD PUSH2 0x1609 SWAP1 PUSH1 0x1 PUSH1 0x1 PUSH1 0xA0 SHL SUB PUSH32 0x0 DUP2 AND SWAP2 AND DUP4 PUSH2 0x1B04 JUMP JUMPDEST PUSH1 0x0 SLOAD PUSH1 0x40 MLOAD PUSH4 0xF843E641 PUSH1 0xE0 SHL DUP2 MSTORE PUSH1 0x4 DUP2 ADD DUP4 SWAP1 MSTORE CALLER PUSH1 0x24 DUP3 ADD MSTORE PUSH1 0x1 PUSH1 0x1 PUSH1 0xA0 SHL SUB SWAP1 SWAP2 AND SWAP1 PUSH4 0xF843E641 SWAP1 PUSH1 0x44 ADD PUSH1 0x20 PUSH1 0x40 MLOAD DUP1 DUP4 SUB DUP2 PUSH1 0x0 DUP8 GAS CALL ISZERO DUP1 ISZERO PUSH2 0x165A JUMPI RETURNDATASIZE PUSH1 0x0 DUP1 RETURNDATACOPY RETURNDATASIZE PUSH1 0x0 REVERT JUMPDEST POP POP POP POP PUSH1 0x40 MLOAD RETURNDATASIZE PUSH1 0x1F NOT PUSH1 0x1F DUP3 ADD AND DUP3 ADD DUP1 PUSH1 0x40 MSTORE POP DUP2 ADD SWAP1 PUSH2 0x167E SWAP2 SWAP1 PUSH2 0x2126 JUMP JUMPDEST POP JUMPDEST POP JUMPDEST POP JUMPDEST PUSH1 0x40 DUP1 MLOAD DUP3 DUP2 MSTORE PUSH1 0x20 DUP2 ADD DUP6 SWAP1 MSTORE SWAP1 DUP2 ADD DUP6 SWAP1 MSTORE PUSH1 0x60 DUP2 ADD DUP9 SWAP1 MSTORE CALLER SWAP1 PUSH32 0x4ADE67EF7E7C5E4D9C50DE61A4E8C555BE92C9B37E3CA6716EB02A1F0E471DA5 SWAP1 PUSH1 0x80 ADD PUSH1 0x40 MLOAD DUP1 SWAP2 SUB SWAP1 LOG2 POP POP POP POP POP POP PUSH2 0xA6A PUSH1 0x1 PUSH1 0x0 DUP1 MLOAD PUSH1 0x20 PUSH2 0x219F DUP4 CODECOPY DUP2 MLOAD SWAP2 MSTORE SSTORE JUMP JUMPDEST PUSH1 0x1 PUSH1 0x1 PUSH1 0xA0 SHL SUB DUP3 AND PUSH1 0x0 SWAP1 DUP2 MSTORE PUSH1 0x6 PUSH1 0x20 MSTORE PUSH1 0x40 DUP2 KECCAK256 SLOAD DUP2 SWAP1 DUP2 SWAP1 DUP2 SWAP1 DUP6 LT PUSH2 0x1721 JUMPI POP PUSH1 0x0 SWAP3 POP DUP3 SWAP2 POP DUP2 SWAP1 POP DUP1 PUSH2 0x17F2 JUMP JUMPDEST PUSH1 0x1 PUSH1 0x1 PUSH1 0xA0 SHL SUB DUP7 AND PUSH1 0x0 SWAP1 DUP2 MSTORE PUSH1 0x6 PUSH1 0x20 MSTORE PUSH1 0x40 DUP2 KECCAK256 DUP1 SLOAD DUP8 SWAP1 DUP2 LT PUSH2 0x174B JUMPI PUSH2 0x174B PUSH2 0x2152 JUMP JUMPDEST PUSH1 0x0 SWAP2 DUP3 MSTORE PUSH1 0x20 SWAP1 SWAP2 KECCAK256 PUSH1 0x8 SWAP1 SWAP2 MUL ADD PUSH1 0x7 DUP2 ADD SLOAD SWAP1 SWAP2 POP PUSH1 0xFF AND ISZERO DUP1 PUSH2 0x1783 JUMPI POP PUSH3 0xD2F00 DUP2 PUSH1 0x3 ADD SLOAD PUSH2 0x1780 SWAP2 SWAP1 PUSH2 0x213F JUMP JUMPDEST TIMESTAMP GT JUMPDEST ISZERO PUSH2 0x179C JUMPI PUSH1 0x0 DUP1 PUSH1 0x0 DUP1 SWAP5 POP SWAP5 POP SWAP5 POP SWAP5 POP POP PUSH2 0x17F2 JUMP JUMPDEST DUP1 SLOAD SWAP5 POP PUSH2 0x17AA DUP8 DUP3 PUSH2 0x198D JUMP JUMPDEST SWAP4 POP PUSH2 0x2710 PUSH2 0x17BB PUSH2 0x3E8 DUP8 PUSH2 0x20DA JUMP JUMPDEST PUSH2 0x17C5 SWAP2 SWAP1 PUSH2 0x2104 JUMP JUMPDEST SWAP3 POP PUSH1 0x0 PUSH2 0x17D3 DUP5 DUP7 PUSH2 0x213F JUMP JUMPDEST SWAP1 POP DUP1 DUP7 GT PUSH2 0x17E3 JUMPI PUSH1 0x0 PUSH2 0x17ED JUMP JUMPDEST PUSH2 0x17ED DUP2 DUP8 PUSH2 0x20F1 JUMP JUMPDEST SWAP3 POP POP POP JUMPDEST SWAP3 SWAP6 SWAP2 SWAP5 POP SWAP3 POP JUMP JUMPDEST PUSH1 0x1 PUSH1 0x1 PUSH1 0xA0 SHL SUB DUP2 AND PUSH1 0x0 SWAP1 DUP2 MSTORE PUSH1 0x7 PUSH1 0x20 MSTORE PUSH1 0x40 DUP2 KECCAK256 SLOAD DUP2 SUB PUSH2 0x1822 JUMPI POP PUSH1 0x0 SWAP2 SWAP1 POP JUMP JUMPDEST PUSH1 0x1 PUSH1 0x1 PUSH1 0xA0 SHL SUB DUP3 AND PUSH1 0x0 SWAP1 DUP2 MSTORE PUSH1 0x7 PUSH1 0x20 MSTORE PUSH1 0x40 SWAP1 KECCAK256 SLOAD PUSH2 0xD0F SWAP1 PUSH2 0x1B58 JUMP JUMPDEST PUSH1 0x1 PUSH1 0x1 PUSH1 0xA0 SHL SUB DUP3 AND PUSH1 0x0 SWAP1 DUP2 MSTORE PUSH1 0x6 PUSH1 0x20 MSTORE PUSH1 0x40 DUP2 KECCAK256 SLOAD DUP3 LT PUSH2 0x186B JUMPI POP PUSH1 0x0 PUSH2 0xD0F JUMP JUMPDEST PUSH1 0x1 PUSH1 0x1 PUSH1 0xA0 SHL SUB DUP4 AND PUSH1 0x0 SWAP1 DUP2 MSTORE PUSH1 0x6 PUSH1 0x20 MSTORE PUSH1 0x40 DUP2 KECCAK256 DUP1 SLOAD DUP5 SWAP1 DUP2 LT PUSH2 0x1895 JUMPI PUSH2 0x1895 PUSH2 0x2152 JUMP JUMPDEST PUSH1 0x0 SWAP2 DUP3 MSTORE PUSH1 0x20 SWAP1 SWAP2 KECCAK256 PUSH1 0x8 SWAP1 SWAP2 MUL ADD PUSH1 0x7 DUP2 ADD SLOAD SWAP1 SWAP2 POP PUSH1 0xFF AND PUSH2 0x18BE JUMPI PUSH1 0x0 SWAP2 POP POP PUSH2 0xD0F JUMP JUMPDEST PUSH2 0x18C8 DUP5 DUP3 PUSH2 0x198D JUMP JUMPDEST SWAP5 SWAP4 POP POP POP POP JUMP JUMPDEST PUSH2 0x18D8 PUSH2 0x1E01 JUMP JUMPDEST PUSH1 0x2 PUSH1 0x0 DUP1 MLOAD PUSH1 0x20 PUSH2 0x219F DUP4 CODECOPY DUP2 MLOAD SWAP2 MSTORE SSTORE JUMP JUMPDEST PUSH1 0x1 PUSH1 0x1 PUSH1 0xA0 SHL SUB DUP3 AND PUSH1 0x0 SWAP1 DUP2 MSTORE PUSH1 0x6 PUSH1 0x20 MSTORE PUSH1 0x40 DUP2 KECCAK256 SLOAD DUP3 LT PUSH2 0x1924 JUMPI PUSH1 0x40 MLOAD PUSH4 0x5972996F PUSH1 0xE1 SHL DUP2 MSTORE PUSH1 0x4 ADD PUSH1 0x40 MLOAD DUP1 SWAP2 SUB SWAP1 REVERT JUMPDEST PUSH1 0x1 PUSH1 0x1 PUSH1 0xA0 SHL SUB DUP4 AND PUSH1 0x0 SWAP1 DUP2 MSTORE PUSH1 0x6 PUSH1 0x20 MSTORE PUSH1 0x40 DUP2 KECCAK256 DUP1 SLOAD DUP5 SWAP1 DUP2 LT PUSH2 0x194E JUMPI PUSH2 0x194E PUSH2 0x2152 JUMP JUMPDEST PUSH1 0x0 SWAP2 DUP3 MSTORE PUSH1 0x20 SWAP1 SWAP2 KECCAK256 PUSH1 0x8 SWAP1 SWAP2 MUL ADD PUSH1 0x7 DUP2 ADD SLOAD SWAP1 SWAP2 POP PUSH1 0xFF AND PUSH2 0x1986 JUMPI PUSH1 0x40 MLOAD PUSH4 0x5A2E885 PUSH1 0xE2 SHL DUP2 MSTORE PUSH1 0x4 ADD PUSH1 0x40 MLOAD DUP1 SWAP2 SUB SWAP1 REVERT JUMPDEST SWAP4 SWAP3 POP POP POP JUMP JUMPDEST PUSH1 0x7 DUP2 ADD SLOAD PUSH1 0x0 SWAP1 PUSH1 0xFF AND PUSH2 0x19A4 JUMPI POP PUSH1 0x0 PUSH2 0xD0F JUMP JUMPDEST PUSH1 0x0 DUP3 PUSH1 0x4 ADD SLOAD TIMESTAMP PUSH2 0x19B6 SWAP2 SWAP1 PUSH2 0x20F1 JUMP JUMPDEST SWAP1 POP DUP1 PUSH1 0x0 SUB PUSH2 0x19CA JUMPI PUSH1 0x0 SWAP2 POP POP PUSH2 0xD0F JUMP JUMPDEST PUSH1 0x0 PUSH2 0x19D9 DUP5 PUSH1 0x0 ADD SLOAD PUSH2 0x1BAB JUMP JUMPDEST SWAP1 POP PUSH3 0x76A700 PUSH2 0x1A09 PUSH32 0x0 TIMESTAMP PUSH2 0x20F1 JUMP JUMPDEST LT PUSH2 0x1A12 JUMPI POP PUSH1 0x2D JUMPDEST PUSH2 0x1A21 PUSH2 0x2710 PUSH3 0x15180 PUSH2 0x20DA JUMP JUMPDEST DUP5 SLOAD DUP4 SWAP1 PUSH2 0x1A30 SWAP1 DUP5 SWAP1 PUSH2 0x20DA JUMP JUMPDEST PUSH2 0x1A3A SWAP2 SWAP1 PUSH2 0x20DA JUMP JUMPDEST PUSH2 0x1A44 SWAP2 SWAP1 PUSH2 0x2104 JUMP JUMPDEST SWAP3 POP PUSH1 0x0 DUP5 PUSH1 0x5 ADD SLOAD DUP6 PUSH1 0x6 ADD SLOAD GT PUSH2 0x1A5E JUMPI PUSH1 0x0 PUSH2 0x1A72 JUMP JUMPDEST DUP5 PUSH1 0x5 ADD SLOAD DUP6 PUSH1 0x6 ADD SLOAD PUSH2 0x1A72 SWAP2 SWAP1 PUSH2 0x20F1 JUMP JUMPDEST SWAP1 POP DUP1 DUP5 GT ISZERO PUSH2 0x1A80 JUMPI DUP1 SWAP4 POP JUMPDEST POP POP POP SWAP3 SWAP2 POP POP JUMP JUMPDEST PUSH2 0x1A96 DUP4 DUP4 DUP4 PUSH1 0x1 PUSH2 0x1E33 JUMP JUMPDEST PUSH2 0x1AC3 JUMPI PUSH1 0x40 MLOAD PUSH4 0x5274AFE7 PUSH1 0xE0 SHL DUP2 MSTORE PUSH1 0x1 PUSH1 0x1 PUSH1 0xA0 SHL SUB DUP5 AND PUSH1 0x4 DUP3 ADD MSTORE PUSH1 0x24 ADD JUMPDEST PUSH1 0x40 MLOAD DUP1 SWAP2 SUB SWAP1 REVERT JUMPDEST POP POP POP JUMP JUMPDEST PUSH2 0x1AD6 DUP5 DUP5 DUP5 DUP5 PUSH1 0x1 PUSH2 0x1E99 JUMP JUMPDEST PUSH2 0x1AFE JUMPI PUSH1 0x40 MLOAD PUSH4 0x5274AFE7 PUSH1 0xE0 SHL DUP2 MSTORE PUSH1 0x1 PUSH1 0x1 PUSH1 0xA0 SHL SUB DUP6 AND PUSH1 0x4 DUP3 ADD MSTORE PUSH1 0x24 ADD PUSH2 0x1ABA JUMP JUMPDEST POP POP POP POP JUMP JUMPDEST PUSH2 0x1B11 DUP4 DUP4 DUP4 PUSH1 0x0 PUSH2 0x1F0B JUMP JUMPDEST PUSH2 0x1AC3 JUMPI PUSH2 0x1B23 DUP4 DUP4 PUSH1 0x0 PUSH1 0x1 PUSH2 0x1F0B JUMP JUMPDEST PUSH2 0x1B4B JUMPI PUSH1 0x40 MLOAD PUSH4 0x5274AFE7 PUSH1 0xE0 SHL DUP2 MSTORE PUSH1 0x1 PUSH1 0x1 PUSH1 0xA0 SHL SUB DUP5 AND PUSH1 0x4 DUP3 ADD MSTORE PUSH1 0x24 ADD PUSH2 0x1ABA JUMP JUMPDEST PUSH2 0x1A96 DUP4 DUP4 DUP4 PUSH1 0x1 PUSH2 0x1F0B JUMP JUMPDEST PUSH1 0x0 PUSH10 0x10F0CF064DD59200000 DUP3 LT PUSH2 0x1B73 JUMPI POP PUSH1 0x4 SWAP2 SWAP1 POP JUMP JUMPDEST PUSH9 0x878678326EAC900000 DUP3 LT PUSH2 0x1B8B JUMPI POP PUSH1 0x3 SWAP2 SWAP1 POP JUMP JUMPDEST PUSH9 0x1B1AE4D6E2EF500000 DUP3 LT PUSH2 0x1BA3 JUMPI POP PUSH1 0x2 SWAP2 SWAP1 POP JUMP JUMPDEST POP PUSH1 0x1 SWAP2 SWAP1 POP JUMP JUMPDEST PUSH1 0x0 DUP1 PUSH2 0x1BD8 PUSH32 0x0 TIMESTAMP PUSH2 0x20F1 JUMP JUMPDEST SWAP1 POP PUSH3 0x76A700 DUP2 LT PUSH2 0x1BED JUMPI POP PUSH1 0x2D SWAP3 SWAP2 POP POP JUMP JUMPDEST PUSH1 0x0 PUSH2 0x1BF8 DUP5 PUSH2 0x1B58 JUMP JUMPDEST SWAP1 POP DUP1 PUSH1 0x1 SUB PUSH2 0x1C22 JUMPI PUSH2 0x18C8 DUP5 PUSH8 0x8AC7230489E80000 PUSH9 0x1B0D04202F47EC0000 PUSH1 0x32 PUSH1 0x64 PUSH2 0x1F58 JUMP JUMPDEST DUP1 PUSH1 0x2 SUB PUSH2 0x1C4B JUMPI PUSH2 0x18C8 DUP5 PUSH9 0x1B1AE4D6E2EF500000 PUSH9 0x8778977BBB052C0000 PUSH1 0x4B PUSH1 0x73 PUSH2 0x1F58 JUMP JUMPDEST DUP1 PUSH1 0x3 SUB PUSH2 0x1C75 JUMPI PUSH2 0x18C8 DUP5 PUSH9 0x878678326EAC900000 PUSH10 0x10EFF0FAE29B1BC0000 PUSH1 0x64 PUSH1 0x96 PUSH2 0x1F58 JUMP JUMPDEST PUSH1 0x0 PUSH10 0xA968163F0A57B400000 DUP6 GT PUSH2 0x1C8E JUMPI DUP5 PUSH2 0x1C9A JUMP JUMPDEST PUSH10 0xA968163F0A57B400000 JUMPDEST SWAP1 POP PUSH2 0x1CBF DUP2 PUSH10 0x10F0CF064DD59200000 PUSH10 0xA968163F0A57B400000 PUSH1 0x64 PUSH1 0xAF PUSH2 0x1F58 JUMP JUMPDEST SWAP6 SWAP5 POP POP POP POP POP JUMP JUMPDEST PUSH1 0x2 SLOAD PUSH1 0x1 PUSH1 0x1 PUSH1 0xA0 SHL SUB AND ISZERO DUP1 PUSH2 0x1CE9 JUMPI POP PUSH1 0x3 SLOAD PUSH1 0x1 PUSH1 0x1 PUSH1 0xA0 SHL SUB AND ISZERO JUMPDEST ISZERO PUSH2 0x1CF2 JUMPI POP POP JUMP JUMPDEST DUP2 PUSH1 0x0 JUMPDEST PUSH1 0x14 DUP2 LT ISZERO PUSH2 0x1AFE JUMPI PUSH1 0x2 SLOAD PUSH1 0x40 MLOAD PUSH4 0x4A9FEFC7 PUSH1 0xE0 SHL DUP2 MSTORE PUSH1 0x1 PUSH1 0x1 PUSH1 0xA0 SHL SUB DUP5 DUP2 AND PUSH1 0x4 DUP4 ADD MSTORE PUSH1 0x0 SWAP3 AND SWAP1 PUSH4 0x4A9FEFC7 SWAP1 PUSH1 0x24 ADD PUSH1 0x20 PUSH1 0x40 MLOAD DUP1 DUP4 SUB DUP2 DUP7 GAS STATICCALL ISZERO DUP1 ISZERO PUSH2 0x1D4A JUMPI RETURNDATASIZE PUSH1 0x0 DUP1 RETURNDATACOPY RETURNDATASIZE PUSH1 0x0 REVERT JUMPDEST POP POP POP POP PUSH1 0x40 MLOAD RETURNDATASIZE PUSH1 0x1F NOT PUSH1 0x1F DUP3 ADD AND DUP3 ADD DUP1 PUSH1 0x40 MSTORE POP DUP2 ADD SWAP1 PUSH2 0x1D6E SWAP2 SWAP1 PUSH2 0x2181 JUMP JUMPDEST SWAP1 POP PUSH1 0x1 PUSH1 0x1 PUSH1 0xA0 SHL SUB DUP2 AND PUSH2 0x1D84 JUMPI POP PUSH2 0x1AFE JUMP JUMPDEST PUSH1 0x3 SLOAD PUSH1 0x40 MLOAD PUSH4 0xD9BD5F2D PUSH1 0xE0 SHL DUP2 MSTORE PUSH1 0x1 PUSH1 0x1 PUSH1 0xA0 SHL SUB DUP4 DUP2 AND PUSH1 0x4 DUP4 ADD MSTORE DUP6 DUP2 AND PUSH1 0x24 DUP4 ADD MSTORE PUSH1 0x44 DUP3 ADD DUP8 SWAP1 MSTORE SWAP1 SWAP2 AND SWAP1 PUSH4 0xD9BD5F2D SWAP1 PUSH1 0x64 ADD PUSH1 0x0 PUSH1 0x40 MLOAD DUP1 DUP4 SUB DUP2 PUSH1 0x0 DUP8 DUP1 EXTCODESIZE ISZERO DUP1 ISZERO PUSH2 0x1DDA JUMPI PUSH1 0x0 DUP1 REVERT JUMPDEST POP GAS CALL ISZERO DUP1 ISZERO PUSH2 0x1DEE JUMPI RETURNDATASIZE PUSH1 0x0 DUP1 RETURNDATACOPY RETURNDATASIZE PUSH1 0x0 REVERT JUMPDEST POP SWAP3 SWAP5 POP POP PUSH1 0x1 SWAP1 SWAP3 ADD SWAP2 POP PUSH2 0x1CF6 SWAP1 POP JUMP JUMPDEST PUSH1 0x0 DUP1 MLOAD PUSH1 0x20 PUSH2 0x219F DUP4 CODECOPY DUP2 MLOAD SWAP2 MSTORE SLOAD PUSH1 0x2 SUB PUSH2 0x1E31 JUMPI PUSH1 0x40 MLOAD PUSH4 0x3EE5AEB5 PUSH1 0xE0 SHL DUP2 MSTORE PUSH1 0x4 ADD PUSH1 0x40 MLOAD DUP1 SWAP2 SUB SWAP1 REVERT JUMPDEST JUMP JUMPDEST PUSH1 0x40 MLOAD PUSH4 0xA9059CBB PUSH1 0xE0 SHL PUSH1 0x0 DUP2 DUP2 MSTORE PUSH1 0x1 PUSH1 0x1 PUSH1 0xA0 SHL SUB DUP7 AND PUSH1 0x4 MSTORE PUSH1 0x24 DUP6 SWAP1 MSTORE SWAP2 PUSH1 0x20 DUP4 PUSH1 0x44 DUP2 DUP1 DUP12 GAS CALL SWAP3 POP PUSH1 0x1 PUSH1 0x0 MLOAD EQ DUP4 AND PUSH2 0x1E8D JUMPI DUP4 DUP4 ISZERO AND ISZERO PUSH2 0x1E80 JUMPI RETURNDATASIZE PUSH1 0x0 DUP3 RETURNDATACOPY RETURNDATASIZE DUP2 REVERT JUMPDEST PUSH1 0x0 DUP8 EXTCODESIZE GT RETURNDATASIZE ISZERO AND DUP4 AND SWAP3 POP JUMPDEST PUSH1 0x40 MSTORE POP SWAP5 SWAP4 POP POP POP POP JUMP JUMPDEST PUSH1 0x40 MLOAD PUSH4 0x23B872DD PUSH1 0xE0 SHL PUSH1 0x0 DUP2 DUP2 MSTORE PUSH1 0x1 PUSH1 0x1 PUSH1 0xA0 SHL SUB DUP8 DUP2 AND PUSH1 0x4 MSTORE DUP7 AND PUSH1 0x24 MSTORE PUSH1 0x44 DUP6 SWAP1 MSTORE SWAP2 PUSH1 0x20 DUP4 PUSH1 0x64 DUP2 DUP1 DUP13 GAS CALL SWAP3 POP PUSH1 0x1 PUSH1 0x0 MLOAD EQ DUP4 AND PUSH2 0x1EF9 JUMPI DUP4 DUP4 ISZERO AND ISZERO PUSH2 0x1EEC JUMPI RETURNDATASIZE PUSH1 0x0 DUP3 RETURNDATACOPY RETURNDATASIZE DUP2 REVERT JUMPDEST PUSH1 0x0 DUP9 EXTCODESIZE GT RETURNDATASIZE ISZERO AND DUP4 AND SWAP3 POP JUMPDEST PUSH1 0x40 MSTORE POP PUSH1 0x0 PUSH1 0x60 MSTORE SWAP6 SWAP5 POP POP POP POP POP JUMP JUMPDEST PUSH1 0x40 MLOAD PUSH4 0x95EA7B3 PUSH1 0xE0 SHL PUSH1 0x0 DUP2 DUP2 MSTORE PUSH1 0x1 PUSH1 0x1 PUSH1 0xA0 SHL SUB DUP7 AND PUSH1 0x4 MSTORE PUSH1 0x24 DUP6 SWAP1 MSTORE SWAP2 PUSH1 0x20 DUP4 PUSH1 0x44 DUP2 DUP1 DUP12 GAS CALL SWAP3 POP PUSH1 0x1 PUSH1 0x0 MLOAD EQ DUP4 AND PUSH2 0x1E8D JUMPI DUP4 DUP4 ISZERO AND ISZERO PUSH2 0x1E80 JUMPI RETURNDATASIZE PUSH1 0x0 DUP3 RETURNDATACOPY RETURNDATASIZE DUP2 REVERT JUMPDEST PUSH1 0x0 DUP5 DUP5 GT PUSH2 0x1F68 JUMPI POP DUP2 PUSH2 0x1CBF JUMP JUMPDEST PUSH1 0x0 PUSH2 0x1F74 DUP5 DUP5 PUSH2 0x20F1 JUMP JUMPDEST SWAP1 POP PUSH1 0x0 PUSH2 0x1F82 DUP8 DUP8 PUSH2 0x20F1 JUMP JUMPDEST SWAP1 POP DUP1 DUP3 PUSH2 0x1F90 DUP10 DUP12 PUSH2 0x20F1 JUMP JUMPDEST PUSH2 0x1F9A SWAP2 SWAP1 PUSH2 0x20DA JUMP JUMPDEST PUSH2 0x1FA4 SWAP2 SWAP1 PUSH2 0x2104 JUMP JUMPDEST PUSH2 0x1FAE SWAP1 DUP7 PUSH2 0x213F JUMP JUMPDEST SWAP9 SWAP8 POP POP POP POP POP POP POP POP JUMP JUMPDEST PUSH1 0x1 PUSH1 0x1 PUSH1 0xA0 SHL SUB DUP2 AND DUP2 EQ PUSH2 0xA6A JUMPI PUSH1 0x0 DUP1 REVERT JUMPDEST PUSH1 0x0 DUP1 PUSH1 0x40 DUP4 DUP6 SUB SLT ISZERO PUSH2 0x1FE2 JUMPI PUSH1 0x0 DUP1 REVERT JUMPDEST DUP3 CALLDATALOAD PUSH2 0x1FED DUP2 PUSH2 0x1FBA JUMP JUMPDEST SWAP5 PUSH1 0x20 SWAP4 SWAP1 SWAP4 ADD CALLDATALOAD SWAP4 POP POP POP JUMP JUMPDEST PUSH1 0x0 PUSH1 0x20 DUP3 DUP5 SUB SLT ISZERO PUSH2 0x200D JUMPI PUSH1 0x0 DUP1 REVERT JUMPDEST POP CALLDATALOAD SWAP2 SWAP1 POP JUMP JUMPDEST PUSH1 0x0 PUSH1 0x20 DUP3 DUP5 SUB SLT ISZERO PUSH2 0x2026 JUMPI PUSH1 0x0 DUP1 REVERT JUMPDEST DUP2 CALLDATALOAD PUSH2 0x1986 DUP2 PUSH2 0x1FBA JUMP JUMPDEST PUSH1 0x0 PUSH1 0x20 DUP3 DUP5 SUB SLT ISZERO PUSH2 0x2043 JUMPI PUSH1 0x0 DUP1 REVERT JUMPDEST DUP2 CALLDATALOAD DUP1 ISZERO ISZERO DUP2 EQ PUSH2 0x1986 JUMPI PUSH1 0x0 DUP1 REVERT JUMPDEST PUSH1 0x0 DUP1 PUSH1 0x0 DUP1 PUSH1 0x0 PUSH1 0xA0 DUP7 DUP9 SUB SLT ISZERO PUSH2 0x206B JUMPI PUSH1 0x0 DUP1 REVERT JUMPDEST DUP6 CALLDATALOAD PUSH2 0x2076 DUP2 PUSH2 0x1FBA JUMP JUMPDEST SWAP5 POP PUSH1 0x20 DUP7 ADD CALLDATALOAD PUSH2 0x2086 DUP2 PUSH2 0x1FBA JUMP JUMPDEST SWAP4 POP PUSH1 0x40 DUP7 ADD CALLDATALOAD PUSH2 0x2096 DUP2 PUSH2 0x1FBA JUMP JUMPDEST SWAP3 POP PUSH1 0x60 DUP7 ADD CALLDATALOAD PUSH2 0x20A6 DUP2 PUSH2 0x1FBA JUMP JUMPDEST SWAP2 POP PUSH1 0x80 DUP7 ADD CALLDATALOAD PUSH2 0x20B6 DUP2 PUSH2 0x1FBA JUMP JUMPDEST DUP1 SWAP2 POP POP SWAP3 SWAP6 POP SWAP3 SWAP6 SWAP1 SWAP4 POP JUMP JUMPDEST PUSH4 0x4E487B71 PUSH1 0xE0 SHL PUSH1 0x0 MSTORE PUSH1 0x11 PUSH1 0x4 MSTORE PUSH1 0x24 PUSH1 0x0 REVERT JUMPDEST DUP1 DUP3 MUL DUP2 ISZERO DUP3 DUP3 DIV DUP5 EQ OR PUSH2 0xD0F JUMPI PUSH2 0xD0F PUSH2 0x20C4 JUMP JUMPDEST DUP2 DUP2 SUB DUP2 DUP2 GT ISZERO PUSH2 0xD0F JUMPI PUSH2 0xD0F PUSH2 0x20C4 JUMP JUMPDEST PUSH1 0x0 DUP3 PUSH2 0x2121 JUMPI PUSH4 0x4E487B71 PUSH1 0xE0 SHL PUSH1 0x0 MSTORE PUSH1 0x12 PUSH1 0x4 MSTORE PUSH1 0x24 PUSH1 0x0 REVERT JUMPDEST POP DIV SWAP1 JUMP JUMPDEST PUSH1 0x0 PUSH1 0x20 DUP3 DUP5 SUB SLT ISZERO PUSH2 0x2138 JUMPI PUSH1 0x0 DUP1 REVERT JUMPDEST POP MLOAD SWAP2 SWAP1 POP JUMP JUMPDEST DUP1 DUP3 ADD DUP1 DUP3 GT ISZERO PUSH2 0xD0F JUMPI PUSH2 0xD0F PUSH2 0x20C4 JUMP JUMPDEST PUSH4 0x4E487B71 PUSH1 0xE0 SHL PUSH1 0x0 MSTORE PUSH1 0x32 PUSH1 0x4 MSTORE PUSH1 0x24 PUSH1 0x0 REVERT JUMPDEST PUSH1 0x0 PUSH1 0x1 DUP3 ADD PUSH2 0x217A JUMPI PUSH2 0x217A PUSH2 0x20C4 JUMP JUMPDEST POP PUSH1 0x1 ADD SWAP1 JUMP JUMPDEST PUSH1 0x0 PUSH1 0x20 DUP3 DUP5 SUB SLT ISZERO PUSH2 0x2193 JUMPI PUSH1 0x0 DUP1 REVERT JUMPDEST DUP2 MLOAD PUSH2 0x1986 DUP2 PUSH2 0x1FBA JUMP INVALID SWAP12 PUSH24 0x9B17422D0DF92223018B32B4D1FA46E071723D6817E2486D STOP EXTCODESIZE 0xEC 0xC5 PUSH0 STOP LOG2 PUSH5 0x6970667358 0x22 SLT KECCAK256 0xB9 STATICCALL 0xE6 0xAC 0xDF 0xDC 0xA8 0xEC 0xA8 0xB4 PUSH4 0x9286CE60 EXP 0x1F 0x22 CALLCODE 0x2C LOG4 0xA6 MLOAD DUP6 0xD7 TLOAD 0xC 0x27 0xAA 0xB3 0x2B BLOBHASH PUSH5 0x736F6C6343 STOP ADDMOD XOR STOP CALLER "},"methodIdentifiers":{"admin()":"f851a440","claimRewards(uint256)":"0962ef79","completeSetup()":"8aea8f71","configure(address,address,address,address,address)":"760fcb3e","deposit(uint256)":"b6b55f25","depositsPaused()":"60da3e83","earlyExit(uint256)":"b8af3d3e","getActiveDeposit(address)":"142a3da3","getCombinedEarnings(address)":"3a6f2dcd","getDepositCount(address)":"13fcaf54","getEarlyExitAmount(address,uint256)":"ceace7dd","getPendingRewards(address,uint256)":"e4e7c6b4","getUserTier(address)":"e4d2620e","isInEarlyExitPeriod(address,uint256)":"786685e0","launchTimestamp()":"65cf7c9b","notifyLevelIncome(address,uint256)":"6b9f7ab6","notifyRankBonus(address,uint256)":"ac948e83","osloDex()":"8565c2bf","osloToken()":"2acfbca3","rankSystem()":"e9a16bd5","referral()":"1441a5a9","setDepositsPaused(bool)":"1c481e2d","setReferral(address)":"9e5914da","setupComplete()":"b6635be6","timelock()":"d33219b4","totalDeposited()":"ff50abdc","totalRewardsPaid()":"74958e35","totalWithdrawn()":"4b319713","treasury()":"61d027b3","usdt()":"2f48ab7d","userDeposits(address,uint256)":"08f43333","users(address)":"a87430ba"}}}}}