{"contracts/mocks/MockPancakeRouter.sol":{"MockPancakeRouter":{"abi":[{"inputs":[{"internalType":"address","name":"token","type":"address"}],"name":"SafeERC20FailedOperation","type":"error"},{"inputs":[],"name":"WETH","outputs":[{"internalType":"address","name":"","type":"address"}],"stateMutability":"pure","type":"function"},{"inputs":[{"internalType":"address","name":"tokenA","type":"address"},{"internalType":"address","name":"tokenB","type":"address"},{"internalType":"uint256","name":"amountADesired","type":"uint256"},{"internalType":"uint256","name":"amountBDesired","type":"uint256"},{"internalType":"uint256","name":"","type":"uint256"},{"internalType":"uint256","name":"","type":"uint256"},{"internalType":"address","name":"to","type":"address"},{"internalType":"uint256","name":"","type":"uint256"}],"name":"addLiquidity","outputs":[{"internalType":"uint256","name":"amountA","type":"uint256"},{"internalType":"uint256","name":"amountB","type":"uint256"},{"internalType":"uint256","name":"liquidity","type":"uint256"}],"stateMutability":"nonpayable","type":"function"},{"inputs":[],"name":"factory","outputs":[{"internalType":"address","name":"","type":"address"}],"stateMutability":"pure","type":"function"},{"inputs":[{"internalType":"uint256","name":"amountIn","type":"uint256"},{"internalType":"uint256","name":"","type":"uint256"},{"internalType":"address[]","name":"path","type":"address[]"},{"internalType":"address","name":"to","type":"address"},{"internalType":"uint256","name":"","type":"uint256"}],"name":"swapExactTokensForTokensSupportingFeeOnTransferTokens","outputs":[],"stateMutability":"nonpayable","type":"function"}],"evm":{"bytecode":{"linkReferences":{},"object":"608060405234801561001057600080fd5b50610460806100206000396000f3fe608060405234801561001057600080fd5b506004361061004c5760003560e01c80635c11d79514610051578063ad5c464814610066578063c45a015514610066578063e8e337001461007a575b600080fd5b61006461005f3660046102dc565b6100a8565b005b604051600081526020015b60405180910390f35b61008d61008836600461037e565b61012c565b60408051938452602084019290925290820152606001610071565b6100e7333088878760008181106100c1576100c16103f2565b90506020020160208101906100d69190610408565b6001600160a01b031692919061016d565b6101248287868660018181106100ff576100ff6103f2565b90506020020160208101906101149190610408565b6001600160a01b031691906101ae565b505050505050565b600080806101456001600160a01b038c1633308c61016d565b61015a6001600160a01b038b1633308b61016d565b5096999598508997509495505050505050565b61017b8484848460016101e8565b6101a857604051635274afe760e01b81526001600160a01b03851660048201526024015b60405180910390fd5b50505050565b6101bb838383600161025a565b6101e357604051635274afe760e01b81526001600160a01b038416600482015260240161019f565b505050565b6040516323b872dd60e01b60008181526001600160a01b038781166004528616602452604485905291602083606481808c5af19250600160005114831661024857838315161561023b573d6000823e3d81fd5b6000883b113d1516831692505b60405250600060605295945050505050565b60405163a9059cbb60e01b60008181526001600160a01b038616600452602485905291602083604481808b5af1925060016000511483166102b45783831516156102a7573d6000823e3d81fd5b6000873b113d1516831692505b60405250949350505050565b80356001600160a01b03811681146102d757600080fd5b919050565b60008060008060008060a087890312156102f557600080fd5b8635955060208701359450604087013567ffffffffffffffff8082111561031b57600080fd5b818901915089601f83011261032f57600080fd5b81358181111561033e57600080fd5b8a60208260051b850101111561035357600080fd5b60208301965080955050505061036b606088016102c0565b9150608087013590509295509295509295565b600080600080600080600080610100898b03121561039b57600080fd5b6103a4896102c0565b97506103b260208a016102c0565b965060408901359550606089013594506080890135935060a089013592506103dc60c08a016102c0565b915060e089013590509295985092959890939650565b634e487b7160e01b600052603260045260246000fd5b60006020828403121561041a57600080fd5b610423826102c0565b939250505056fea26469706673582212209ee48f2f643636503847275f482dfd3372e8a07cb9afb0c293ccccf0346f47db64736f6c63430008180033","opcodes":"PUSH1 0x80 PUSH1 0x40 MSTORE CALLVALUE DUP1 ISZERO PUSH2 0x10 JUMPI PUSH1 0x0 DUP1 REVERT JUMPDEST POP PUSH2 0x460 DUP1 PUSH2 0x20 PUSH1 0x0 CODECOPY PUSH1 0x0 RETURN INVALID PUSH1 0x80 PUSH1 0x40 MSTORE CALLVALUE DUP1 ISZERO PUSH2 0x10 JUMPI PUSH1 0x0 DUP1 REVERT JUMPDEST POP PUSH1 0x4 CALLDATASIZE LT PUSH2 0x4C JUMPI PUSH1 0x0 CALLDATALOAD PUSH1 0xE0 SHR DUP1 PUSH4 0x5C11D795 EQ PUSH2 0x51 JUMPI DUP1 PUSH4 0xAD5C4648 EQ PUSH2 0x66 JUMPI DUP1 PUSH4 0xC45A0155 EQ PUSH2 0x66 JUMPI DUP1 PUSH4 0xE8E33700 EQ PUSH2 0x7A JUMPI JUMPDEST PUSH1 0x0 DUP1 REVERT JUMPDEST PUSH2 0x64 PUSH2 0x5F CALLDATASIZE PUSH1 0x4 PUSH2 0x2DC JUMP JUMPDEST PUSH2 0xA8 JUMP JUMPDEST STOP JUMPDEST PUSH1 0x40 MLOAD PUSH1 0x0 DUP2 MSTORE PUSH1 0x20 ADD JUMPDEST PUSH1 0x40 MLOAD DUP1 SWAP2 SUB SWAP1 RETURN JUMPDEST PUSH2 0x8D PUSH2 0x88 CALLDATASIZE PUSH1 0x4 PUSH2 0x37E JUMP JUMPDEST PUSH2 0x12C JUMP JUMPDEST PUSH1 0x40 DUP1 MLOAD SWAP4 DUP5 MSTORE PUSH1 0x20 DUP5 ADD SWAP3 SWAP1 SWAP3 MSTORE SWAP1 DUP3 ADD MSTORE PUSH1 0x60 ADD PUSH2 0x71 JUMP JUMPDEST PUSH2 0xE7 CALLER ADDRESS DUP9 DUP8 DUP8 PUSH1 0x0 DUP2 DUP2 LT PUSH2 0xC1 JUMPI PUSH2 0xC1 PUSH2 0x3F2 JUMP JUMPDEST SWAP1 POP PUSH1 0x20 MUL ADD PUSH1 0x20 DUP2 ADD SWAP1 PUSH2 0xD6 SWAP2 SWAP1 PUSH2 0x408 JUMP JUMPDEST PUSH1 0x1 PUSH1 0x1 PUSH1 0xA0 SHL SUB AND SWAP3 SWAP2 SWAP1 PUSH2 0x16D JUMP JUMPDEST PUSH2 0x124 DUP3 DUP8 DUP7 DUP7 PUSH1 0x1 DUP2 DUP2 LT PUSH2 0xFF JUMPI PUSH2 0xFF PUSH2 0x3F2 JUMP JUMPDEST SWAP1 POP PUSH1 0x20 MUL ADD PUSH1 0x20 DUP2 ADD SWAP1 PUSH2 0x114 SWAP2 SWAP1 PUSH2 0x408 JUMP JUMPDEST PUSH1 0x1 PUSH1 0x1 PUSH1 0xA0 SHL SUB AND SWAP2 SWAP1 PUSH2 0x1AE JUMP JUMPDEST POP POP POP POP POP POP JUMP JUMPDEST PUSH1 0x0 DUP1 DUP1 PUSH2 0x145 PUSH1 0x1 PUSH1 0x1 PUSH1 0xA0 SHL SUB DUP13 AND CALLER ADDRESS DUP13 PUSH2 0x16D JUMP JUMPDEST PUSH2 0x15A PUSH1 0x1 PUSH1 0x1 PUSH1 0xA0 SHL SUB DUP12 AND CALLER ADDRESS DUP12 PUSH2 0x16D JUMP JUMPDEST POP SWAP7 SWAP10 SWAP6 SWAP9 POP DUP10 SWAP8 POP SWAP5 SWAP6 POP POP POP POP POP POP JUMP JUMPDEST PUSH2 0x17B DUP5 DUP5 DUP5 DUP5 PUSH1 0x1 PUSH2 0x1E8 JUMP JUMPDEST PUSH2 0x1A8 JUMPI PUSH1 0x40 MLOAD PUSH4 0x5274AFE7 PUSH1 0xE0 SHL DUP2 MSTORE PUSH1 0x1 PUSH1 0x1 PUSH1 0xA0 SHL SUB DUP6 AND PUSH1 0x4 DUP3 ADD MSTORE PUSH1 0x24 ADD JUMPDEST PUSH1 0x40 MLOAD DUP1 SWAP2 SUB SWAP1 REVERT JUMPDEST POP POP POP POP JUMP JUMPDEST PUSH2 0x1BB DUP4 DUP4 DUP4 PUSH1 0x1 PUSH2 0x25A JUMP JUMPDEST PUSH2 0x1E3 JUMPI PUSH1 0x40 MLOAD PUSH4 0x5274AFE7 PUSH1 0xE0 SHL DUP2 MSTORE PUSH1 0x1 PUSH1 0x1 PUSH1 0xA0 SHL SUB DUP5 AND PUSH1 0x4 DUP3 ADD MSTORE PUSH1 0x24 ADD PUSH2 0x19F JUMP JUMPDEST POP POP POP JUMP JUMPDEST PUSH1 0x40 MLOAD PUSH4 0x23B872DD PUSH1 0xE0 SHL PUSH1 0x0 DUP2 DUP2 MSTORE PUSH1 0x1 PUSH1 0x1 PUSH1 0xA0 SHL SUB DUP8 DUP2 AND PUSH1 0x4 MSTORE DUP7 AND PUSH1 0x24 MSTORE PUSH1 0x44 DUP6 SWAP1 MSTORE SWAP2 PUSH1 0x20 DUP4 PUSH1 0x64 DUP2 DUP1 DUP13 GAS CALL SWAP3 POP PUSH1 0x1 PUSH1 0x0 MLOAD EQ DUP4 AND PUSH2 0x248 JUMPI DUP4 DUP4 ISZERO AND ISZERO PUSH2 0x23B JUMPI RETURNDATASIZE PUSH1 0x0 DUP3 RETURNDATACOPY RETURNDATASIZE DUP2 REVERT JUMPDEST PUSH1 0x0 DUP9 EXTCODESIZE GT RETURNDATASIZE ISZERO AND DUP4 AND SWAP3 POP JUMPDEST PUSH1 0x40 MSTORE POP PUSH1 0x0 PUSH1 0x60 MSTORE SWAP6 SWAP5 POP POP POP POP POP JUMP JUMPDEST PUSH1 0x40 MLOAD PUSH4 0xA9059CBB PUSH1 0xE0 SHL PUSH1 0x0 DUP2 DUP2 MSTORE PUSH1 0x1 PUSH1 0x1 PUSH1 0xA0 SHL SUB DUP7 AND PUSH1 0x4 MSTORE PUSH1 0x24 DUP6 SWAP1 MSTORE SWAP2 PUSH1 0x20 DUP4 PUSH1 0x44 DUP2 DUP1 DUP12 GAS CALL SWAP3 POP PUSH1 0x1 PUSH1 0x0 MLOAD EQ DUP4 AND PUSH2 0x2B4 JUMPI DUP4 DUP4 ISZERO AND ISZERO PUSH2 0x2A7 JUMPI RETURNDATASIZE PUSH1 0x0 DUP3 RETURNDATACOPY RETURNDATASIZE DUP2 REVERT JUMPDEST PUSH1 0x0 DUP8 EXTCODESIZE GT RETURNDATASIZE ISZERO AND DUP4 AND SWAP3 POP JUMPDEST PUSH1 0x40 MSTORE POP SWAP5 SWAP4 POP POP POP POP JUMP JUMPDEST DUP1 CALLDATALOAD PUSH1 0x1 PUSH1 0x1 PUSH1 0xA0 SHL SUB DUP2 AND DUP2 EQ PUSH2 0x2D7 JUMPI PUSH1 0x0 DUP1 REVERT JUMPDEST SWAP2 SWAP1 POP JUMP JUMPDEST PUSH1 0x0 DUP1 PUSH1 0x0 DUP1 PUSH1 0x0 DUP1 PUSH1 0xA0 DUP8 DUP10 SUB SLT ISZERO PUSH2 0x2F5 JUMPI PUSH1 0x0 DUP1 REVERT JUMPDEST DUP7 CALLDATALOAD SWAP6 POP PUSH1 0x20 DUP8 ADD CALLDATALOAD SWAP5 POP PUSH1 0x40 DUP8 ADD CALLDATALOAD PUSH8 0xFFFFFFFFFFFFFFFF DUP1 DUP3 GT ISZERO PUSH2 0x31B JUMPI PUSH1 0x0 DUP1 REVERT JUMPDEST DUP2 DUP10 ADD SWAP2 POP DUP10 PUSH1 0x1F DUP4 ADD SLT PUSH2 0x32F JUMPI PUSH1 0x0 DUP1 REVERT JUMPDEST DUP2 CALLDATALOAD DUP2 DUP2 GT ISZERO PUSH2 0x33E JUMPI PUSH1 0x0 DUP1 REVERT JUMPDEST DUP11 PUSH1 0x20 DUP3 PUSH1 0x5 SHL DUP6 ADD ADD GT ISZERO PUSH2 0x353 JUMPI PUSH1 0x0 DUP1 REVERT JUMPDEST PUSH1 0x20 DUP4 ADD SWAP7 POP DUP1 SWAP6 POP POP POP POP PUSH2 0x36B PUSH1 0x60 DUP9 ADD PUSH2 0x2C0 JUMP JUMPDEST SWAP2 POP PUSH1 0x80 DUP8 ADD CALLDATALOAD SWAP1 POP SWAP3 SWAP6 POP SWAP3 SWAP6 POP SWAP3 SWAP6 JUMP JUMPDEST PUSH1 0x0 DUP1 PUSH1 0x0 DUP1 PUSH1 0x0 DUP1 PUSH1 0x0 DUP1 PUSH2 0x100 DUP10 DUP12 SUB SLT ISZERO PUSH2 0x39B JUMPI PUSH1 0x0 DUP1 REVERT JUMPDEST PUSH2 0x3A4 DUP10 PUSH2 0x2C0 JUMP JUMPDEST SWAP8 POP PUSH2 0x3B2 PUSH1 0x20 DUP11 ADD PUSH2 0x2C0 JUMP JUMPDEST SWAP7 POP PUSH1 0x40 DUP10 ADD CALLDATALOAD SWAP6 POP PUSH1 0x60 DUP10 ADD CALLDATALOAD SWAP5 POP PUSH1 0x80 DUP10 ADD CALLDATALOAD SWAP4 POP PUSH1 0xA0 DUP10 ADD CALLDATALOAD SWAP3 POP PUSH2 0x3DC PUSH1 0xC0 DUP11 ADD PUSH2 0x2C0 JUMP JUMPDEST SWAP2 POP PUSH1 0xE0 DUP10 ADD CALLDATALOAD SWAP1 POP SWAP3 SWAP6 SWAP9 POP SWAP3 SWAP6 SWAP9 SWAP1 SWAP4 SWAP7 POP JUMP JUMPDEST PUSH4 0x4E487B71 PUSH1 0xE0 SHL PUSH1 0x0 MSTORE PUSH1 0x32 PUSH1 0x4 MSTORE PUSH1 0x24 PUSH1 0x0 REVERT JUMPDEST PUSH1 0x0 PUSH1 0x20 DUP3 DUP5 SUB SLT ISZERO PUSH2 0x41A JUMPI PUSH1 0x0 DUP1 REVERT JUMPDEST PUSH2 0x423 DUP3 PUSH2 0x2C0 JUMP JUMPDEST SWAP4 SWAP3 POP POP POP JUMP INVALID LOG2 PUSH5 0x6970667358 0x22 SLT KECCAK256 SWAP15 0xE4 DUP16 0x2F PUSH5 0x3636503847 0x27 PUSH0 BASEFEE 0x2D REVERT CALLER PUSH19 0xE8A07CB9AFB0C293CCCCF0346F47DB64736F6C PUSH4 0x43000818 STOP CALLER "},"methodIdentifiers":{"WETH()":"ad5c4648","addLiquidity(address,address,uint256,uint256,uint256,uint256,address,uint256)":"e8e33700","factory()":"c45a0155","swapExactTokensForTokensSupportingFeeOnTransferTokens(uint256,uint256,address[],address,uint256)":"5c11d795"}}}}}