{"contracts/OSLODEX.sol":{"OSLODEX":{"abi":[{"inputs":[{"internalType":"address","name":"_usdt","type":"address"},{"internalType":"address","name":"_osloToken","type":"address"}],"stateMutability":"nonpayable","type":"constructor"},{"inputs":[],"name":"InsufficientReserve","type":"error"},{"inputs":[],"name":"OnlyAdmin","type":"error"},{"inputs":[],"name":"OnlyInvestmentEngine","type":"error"},{"inputs":[],"name":"OnlyLiquidityManager","type":"error"},{"inputs":[],"name":"OnlyTimelock","type":"error"},{"inputs":[],"name":"ReentrancyGuardReentrantCall","type":"error"},{"inputs":[{"internalType":"address","name":"token","type":"address"}],"name":"SafeERC20FailedOperation","type":"error"},{"inputs":[],"name":"SetupAlreadyComplete","type":"error"},{"inputs":[],"name":"SlippageExceeded","type":"error"},{"inputs":[],"name":"ZeroAddress","type":"error"},{"inputs":[],"name":"ZeroAmount","type":"error"},{"anonymous":false,"inputs":[{"indexed":false,"internalType":"uint256","name":"usdtIn","type":"uint256"},{"indexed":false,"internalType":"uint256","name":"osloOut","type":"uint256"}],"name":"DepositProcessed","type":"event"},{"anonymous":false,"inputs":[{"indexed":false,"internalType":"uint256","name":"usdtAmount","type":"uint256"},{"indexed":false,"internalType":"uint256","name":"osloAmount","type":"uint256"}],"name":"LiquidityDeposited","type":"event"},{"anonymous":false,"inputs":[{"indexed":false,"internalType":"uint256","name":"newPrice","type":"uint256"}],"name":"PriceUpdated","type":"event"},{"anonymous":false,"inputs":[{"indexed":true,"internalType":"address","name":"user","type":"address"},{"indexed":false,"internalType":"bool","name":"usdtToOslo","type":"bool"},{"indexed":false,"internalType":"uint256","name":"inputAmount","type":"uint256"},{"indexed":false,"internalType":"uint256","name":"outputAmount","type":"uint256"},{"indexed":false,"internalType":"uint256","name":"price","type":"uint256"}],"name":"Swapped","type":"event"},{"anonymous":false,"inputs":[{"indexed":false,"internalType":"uint256","name":"osloIn","type":"uint256"},{"indexed":false,"internalType":"uint256","name":"usdtOut","type":"uint256"},{"indexed":false,"internalType":"address","name":"recipient","type":"address"}],"name":"WithdrawalProcessed","type":"event"},{"inputs":[{"internalType":"uint256","name":"usdtAmount","type":"uint256"},{"internalType":"uint256","name":"osloAmount","type":"uint256"}],"name":"addInitialLiquidity","outputs":[],"stateMutability":"nonpayable","type":"function"},{"inputs":[{"internalType":"uint256","name":"usdtAmount","type":"uint256"}],"name":"addLiquidityFromFees","outputs":[],"stateMutability":"nonpayable","type":"function"},{"inputs":[],"name":"admin","outputs":[{"internalType":"address","name":"","type":"address"}],"stateMutability":"view","type":"function"},{"inputs":[],"name":"completeSetup","outputs":[],"stateMutability":"nonpayable","type":"function"},{"inputs":[{"internalType":"address","name":"_timelock","type":"address"},{"internalType":"address","name":"_liquidityManager","type":"address"},{"internalType":"address","name":"_investmentEngine","type":"address"}],"name":"configure","outputs":[],"stateMutability":"nonpayable","type":"function"},{"inputs":[{"internalType":"uint256","name":"osloAmount","type":"uint256"}],"name":"getOSLOForUSDTOutput","outputs":[{"internalType":"uint256","name":"","type":"uint256"}],"stateMutability":"view","type":"function"},{"inputs":[],"name":"getPrice","outputs":[{"internalType":"uint256","name":"","type":"uint256"}],"stateMutability":"view","type":"function"},{"inputs":[],"name":"getReserves","outputs":[{"internalType":"uint256","name":"_usdtRes","type":"uint256"},{"internalType":"uint256","name":"_osloRes","type":"uint256"}],"stateMutability":"view","type":"function"},{"inputs":[{"internalType":"uint256","name":"usdtAmount","type":"uint256"}],"name":"getUSDTForOSLOOutput","outputs":[{"internalType":"uint256","name":"","type":"uint256"}],"stateMutability":"view","type":"function"},{"inputs":[],"name":"investmentEngine","outputs":[{"internalType":"address","name":"","type":"address"}],"stateMutability":"view","type":"function"},{"inputs":[],"name":"lastPrice","outputs":[{"internalType":"uint256","name":"","type":"uint256"}],"stateMutability":"view","type":"function"},{"inputs":[],"name":"liquidityManager","outputs":[{"internalType":"address","name":"","type":"address"}],"stateMutability":"view","type":"function"},{"inputs":[],"name":"osloReserve","outputs":[{"internalType":"uint256","name":"","type":"uint256"}],"stateMutability":"view","type":"function"},{"inputs":[],"name":"osloToken","outputs":[{"internalType":"contract IERC20","name":"","type":"address"}],"stateMutability":"view","type":"function"},{"inputs":[{"internalType":"uint256","name":"usdtAmount","type":"uint256"}],"name":"processDeposit","outputs":[{"internalType":"uint256","name":"osloAmount","type":"uint256"}],"stateMutability":"nonpayable","type":"function"},{"inputs":[{"internalType":"uint256","name":"osloAmount","type":"uint256"},{"internalType":"address","name":"recipient","type":"address"}],"name":"processWithdrawal","outputs":[{"internalType":"uint256","name":"usdtAmount","type":"uint256"}],"stateMutability":"nonpayable","type":"function"},{"inputs":[],"name":"setupComplete","outputs":[{"internalType":"bool","name":"","type":"bool"}],"stateMutability":"view","type":"function"},{"inputs":[{"internalType":"uint256","name":"osloAmount","type":"uint256"},{"internalType":"uint256","name":"minUSDTAmount","type":"uint256"}],"name":"swapOSLOForUSDT","outputs":[{"internalType":"uint256","name":"usdtAmount","type":"uint256"}],"stateMutability":"nonpayable","type":"function"},{"inputs":[{"internalType":"uint256","name":"usdtAmount","type":"uint256"},{"internalType":"uint256","name":"minOsloAmount","type":"uint256"}],"name":"swapUSDTForOSLO","outputs":[{"internalType":"uint256","name":"osloAmount","type":"uint256"}],"stateMutability":"nonpayable","type":"function"},{"inputs":[],"name":"timelock","outputs":[{"internalType":"address","name":"","type":"address"}],"stateMutability":"view","type":"function"},{"inputs":[],"name":"totalSwaps","outputs":[{"internalType":"uint256","name":"","type":"uint256"}],"stateMutability":"view","type":"function"},{"inputs":[],"name":"totalVolumeUSDT","outputs":[{"internalType":"uint256","name":"","type":"uint256"}],"stateMutability":"view","type":"function"},{"inputs":[],"name":"usdt","outputs":[{"internalType":"contract IERC20","name":"","type":"address"}],"stateMutability":"view","type":"function"},{"inputs":[],"name":"usdtReserve","outputs":[{"internalType":"uint256","name":"","type":"uint256"}],"stateMutability":"view","type":"function"}],"evm":{"bytecode":{"linkReferences":{},"object":"60c06040523480156200001157600080fd5b506040516200187b3803806200187b8339810160408190526200003491620000dc565b60017f9b779b17422d0df92223018b32b4d1fa46e071723d6817e2486d003becc55f00556001600160a01b03821615806200007657506001600160a01b038116155b15620000955760405163d92e233d60e01b815260040160405180910390fd5b6001600160a01b039182166080521660a052600080546001600160a01b0319163317905562000114565b80516001600160a01b0381168114620000d757600080fd5b919050565b60008060408385031215620000f057600080fd5b620000fb83620000bf565b91506200010b60208401620000bf565b90509250929050565b60805160a0516116d8620001a3600039600081816101ac015281816104570152818161052701528181610697015281816107190152818161076301528181610be801528181610e1501528181610ff401526111780152600081816101eb015281816103af0152818161088c01528181610bb301528181610de001528181610faf015261126a01526116d86000f3fe608060405234801561001057600080fd5b50600436106101585760003560e01c806398d5fdca116100c3578063b6635be61161007c578063b6635be6146102c8578063c2c90687146102ec578063d33219b4146102ff578063ee3b038f14610312578063f843e64114610325578063f851a4401461033857600080fd5b806398d5fdca1461027f578063a1e26e7b14610287578063a40f4fa114610290578063a7978031146102a3578063ac257a6e146102b6578063b4a800ce146102bf57600080fd5b806330cf2aeb1161011557806330cf2aeb14610220578063338274381461023357806347aa7ea41461024657806355d28f201461025957806383bbdd5f1461026e5780638aea8f711461027757600080fd5b8063053f14da1461015d5780630902f1ac146101795780630cc2055a146101945780632acfbca3146101a75780632f48ab7d146101e6578063301313841461020d575b600080fd5b61016660085481565b6040519081526020015b60405180910390f35b60045460055460408051928352602083019190915201610170565b6101666101a23660046114fa565b61034b565b6101ce7f000000000000000000000000000000000000000000000000000000000000000081565b6040516001600160a01b039091168152602001610170565b6101ce7f000000000000000000000000000000000000000000000000000000000000000081565b6003546101ce906001600160a01b031681565b61016661022e366004611513565b610627565b6002546101ce906001600160a01b031681565b6101666102543660046114fa565b6109a2565b61026c61026736600461154c565b6109ee565b005b61016660065481565b61026c610a92565b610166610b0d565b61016660055481565b61026c61029e366004611513565b610b52565b6101666102b13660046114fa565b610cc7565b61016660045481565b61016660075481565b6003546102dc90600160a01b900460ff1681565b6040519015158152602001610170565b6101666102fa366004611513565b610d2a565b6001546101ce906001600160a01b031681565b61026c6103203660046114fa565b610f56565b61016661033336600461158f565b6110ed565b6000546101ce906001600160a01b031681565b6003546000906001600160a01b0316331461037957604051630559b36f60e11b815260040160405180910390fd5b610381611359565b816000036103a257604051631f2a200560e01b815260040160405180910390fd5b6103d76001600160a01b037f000000000000000000000000000000000000000000000000000000000000000016333085611375565b60006004541180156103eb57506000600554115b1561041c57816004546103fe91906115d1565b60055461040b90846115e4565b61041591906115fb565b905061041f565b50805b8060000361044057604051631f2a200560e01b815260040160405180910390fd5b6040516370a0823160e01b815230600482015281907f00000000000000000000000000000000000000000000000000000000000000006001600160a01b0316906370a0823190602401602060405180830381865afa1580156104a6573d6000803e3d6000fd5b505050506040513d601f19601f820116820180604052508101906104ca919061161d565b10156104e9576040516328b35f2160e01b815260040160405180910390fd5b81600460008282546104fb91906115d1565b9250508190555080600560008282546105149190611636565b9091555061054e90506001600160a01b037f00000000000000000000000000000000000000000000000000000000000000001633836113b6565b60008060055411610560576000610582565b60055460045461057890670de0b6b3a76400006115e4565b61058291906115fb565b9050826006600082825461059691906115d1565b9091555050600780549060006105ab83611649565b909155505060408051848152602081018490527f3d53ffd94e6169fe8616aef06a81eba2335ff27eac4a60886ad869b22c4f347b910160405180910390a16040518181526000805160206116638339815191529060200160405180910390a150610622600160008051602061168383398151915255565b919050565b6000610631611359565b8260000361065257604051631f2a200560e01b815260040160405180910390fd5b60045415806106615750600554155b1561067f576040516328b35f2160e01b815260040160405180910390fd5b6040516370a0823160e01b81523060048201526000907f00000000000000000000000000000000000000000000000000000000000000006001600160a01b0316906370a0823190602401602060405180830381865afa1580156106e6573d6000803e3d6000fd5b505050506040513d601f19601f8201168201806040525081019061070a919061161d565b90506107416001600160a01b037f000000000000000000000000000000000000000000000000000000000000000016333087611375565b6040516370a0823160e01b815230600482015260009082906001600160a01b037f000000000000000000000000000000000000000000000000000000000000000016906370a0823190602401602060405180830381865afa1580156107aa573d6000803e3d6000fd5b505050506040513d601f19601f820116820180604052508101906107ce919061161d565b6107d89190611636565b9050846005546107e891906115d1565b6004546107f590876115e4565b6107ff91906115fb565b925082158061080d57508383105b1561082b57604051638199f5f360e01b815260040160405180910390fd5b60045483111561084e576040516328b35f2160e01b815260040160405180910390fd5b82600460008282546108609190611636565b92505081905550806005600082825461087991906115d1565b909155506108b390506001600160a01b037f00000000000000000000000000000000000000000000000000000000000000001633856113b6565b82600660008282546108c591906115d1565b9091555050600780549060006108da83611649565b9190505550600080600554116108f1576000610913565b60055460045461090990670de0b6b3a76400006115e4565b61091391906115fb565b6040805160008152602081018990529081018690526060810182905290915033907f7c707038fb62cb248ec6b437a63ec556bb6233af235f4518d64693cba918a6e19060800160405180910390a26040518181526000805160206116638339815191529060200160405180910390a150505061099c600160008051602061168383398151915255565b92915050565b60008115806109b15750600454155b806109bc5750600554155b156109c957506000919050565b816004546109d791906115d1565b6005546109e490846115e4565b61099c91906115fb565b6000546001600160a01b03163314610a1957604051634755657960e01b815260040160405180910390fd5b600354600160a01b900460ff1615610a445760405163238f75d360e01b815260040160405180910390fd5b600180546001600160a01b039485166001600160a01b031991821617909155600280549385169390911692909217909155600380546001600160a81b0319169190921617600160a01b179055565b6000546001600160a01b03163314610abd57604051634755657960e01b815260040160405180910390fd5b600354600160a01b900460ff1615610ae85760405163238f75d360e01b815260040160405180910390fd5b6003805460ff60a01b1916600160a01b179055600080546001600160a01b0319169055565b600060055460001480610b205750600454155b15610b2b5750600090565b600554600454610b4390670de0b6b3a76400006115e4565b610b4d91906115fb565b905090565b6002546001600160a01b03163314610b7d57604051630be5a3e160e31b815260040160405180910390fd5b811580610b88575080155b15610ba657604051631f2a200560e01b815260040160405180910390fd5b610bdb6001600160a01b037f000000000000000000000000000000000000000000000000000000000000000016333085611375565b610c106001600160a01b037f000000000000000000000000000000000000000000000000000000000000000016333084611375565b8160046000828254610c2291906115d1565b925050819055508060056000828254610c3b91906115d1565b90915550819050610c5483670de0b6b3a76400006115e4565b610c5e91906115fb565b60085560408051838152602081018390527f9c86429231ed0411e3112a1dd5c6578826c2d48089d5ec491e874ce0029c0bbe910160405180910390a1600080516020611663833981519152600854604051610cbb91815260200190565b60405180910390a15050565b6000811580610cd65750600454155b80610ce15750600554155b15610cee57506000919050565b600082600554610cfe91906115d1565b600454610d0b90856115e4565b610d1591906115fb565b905060045481111561099c5750600092915050565b6000610d34611359565b82600003610d5557604051631f2a200560e01b815260040160405180910390fd5b6004541580610d645750600554155b15610d82576040516328b35f2160e01b815260040160405180910390fd5b82600454610d9091906115d1565b600554610d9d90856115e4565b610da791906115fb565b9050801580610db557508181105b15610dd357604051638199f5f360e01b815260040160405180910390fd5b610e086001600160a01b037f000000000000000000000000000000000000000000000000000000000000000016333086611375565b610e3c6001600160a01b037f00000000000000000000000000000000000000000000000000000000000000001633836113b6565b8260046000828254610e4e91906115d1565b925050819055508060056000828254610e679190611636565b925050819055508260066000828254610e8091906115d1565b909155505060078054906000610e9583611649565b919050555060008060055411610eac576000610ece565b600554600454610ec490670de0b6b3a76400006115e4565b610ece91906115fb565b6040805160018152602081018790529081018490526060810182905290915033907f7c707038fb62cb248ec6b437a63ec556bb6233af235f4518d64693cba918a6e19060800160405180910390a2604051818152600080516020611663833981519152906020015b60405180910390a15061099c600160008051602061168383398151915255565b6002546001600160a01b03163314610f8157604051630be5a3e160e31b815260040160405180910390fd5b80600003610fa257604051631f2a200560e01b815260040160405180910390fd5b610fd76001600160a01b037f000000000000000000000000000000000000000000000000000000000000000016333084611375565b8060046000828254610fe991906115d1565b9250508190555060007f00000000000000000000000000000000000000000000000000000000000000006001600160a01b03166318160ddd6040518163ffffffff1660e01b8152600401602060405180830381865afa158015611050573d6000803e3d6000fd5b505050506040513d601f19601f82011682018060405250810190611074919061161d565b60045461108990670de0b6b3a76400006115e4565b61109391906115fb565b60408051848152600060208201529192507f9c86429231ed0411e3112a1dd5c6578826c2d48089d5ec491e874ce0029c0bbe910160405180910390a160405181815260008051602061166383398151915290602001610cbb565b6003546000906001600160a01b0316331461111b57604051630559b36f60e11b815260040160405180910390fd5b611123611359565b8260000361114457604051631f2a200560e01b815260040160405180910390fd5b6001600160a01b03821661116b5760405163d92e233d60e01b815260040160405180910390fd5b6111a06001600160a01b037f000000000000000000000000000000000000000000000000000000000000000016333086611375565b60006004541180156111b457506000600554115b156111e557826005546111c791906115d1565b6004546111d490856115e4565b6111de91906115fb565b90506111e8565b50815b8060000361120957604051631f2a200560e01b815260040160405180910390fd5b60045481111561122c576040516328b35f2160e01b815260040160405180910390fd5b826005600082825461123e91906115d1565b9250508190555080600460008282546112579190611636565b9091555061129190506001600160a01b037f00000000000000000000000000000000000000000000000000000000000000001683836113b6565b600080600554116112a35760006112c5565b6005546004546112bb90670de0b6b3a76400006115e4565b6112c591906115fb565b905081600660008282546112d991906115d1565b9091555050600780549060006112ee83611649565b909155505060408051858152602081018490526001600160a01b0385168183015290517f1408158d52d7d739e0848c588738e9b79917e2773e51c49ff4544e3e6a538f8c9181900360600190a160405181815260008051602061166383398151915290602001610f36565b6113616113f0565b600260008051602061168383398151915255565b611383848484846001611422565b6113b057604051635274afe760e01b81526001600160a01b03851660048201526024015b60405180910390fd5b50505050565b6113c38383836001611494565b6113eb57604051635274afe760e01b81526001600160a01b03841660048201526024016113a7565b505050565b6000805160206116838339815191525460020361142057604051633ee5aeb560e01b815260040160405180910390fd5b565b6040516323b872dd60e01b60008181526001600160a01b038781166004528616602452604485905291602083606481808c5af192506001600051148316611482578383151615611475573d6000823e3d81fd5b6000883b113d1516831692505b60405250600060605295945050505050565b60405163a9059cbb60e01b60008181526001600160a01b038616600452602485905291602083604481808b5af1925060016000511483166114ee5783831516156114e1573d6000823e3d81fd5b6000873b113d1516831692505b60405250949350505050565b60006020828403121561150c57600080fd5b5035919050565b6000806040838503121561152657600080fd5b50508035926020909101359150565b80356001600160a01b038116811461062257600080fd5b60008060006060848603121561156157600080fd5b61156a84611535565b925061157860208501611535565b915061158660408501611535565b90509250925092565b600080604083850312156115a257600080fd5b823591506115b260208401611535565b90509250929050565b634e487b7160e01b600052601160045260246000fd5b8082018082111561099c5761099c6115bb565b808202811582820484141761099c5761099c6115bb565b60008261161857634e487b7160e01b600052601260045260246000fd5b500490565b60006020828403121561162f57600080fd5b5051919050565b8181038181111561099c5761099c6115bb565b60006001820161165b5761165b6115bb565b506001019056fe66cbca4f3c64fecf1dcb9ce094abcf7f68c3450a1d4e3a8e917dd621edb4ebe09b779b17422d0df92223018b32b4d1fa46e071723d6817e2486d003becc55f00a264697066735822122060885aeea4c7ed16f34b79c377d5a8ea9af3547a3d56d877b37271fef8bcd94b64736f6c63430008180033","opcodes":"PUSH1 0xC0 PUSH1 0x40 MSTORE CALLVALUE DUP1 ISZERO PUSH3 0x11 JUMPI PUSH1 0x0 DUP1 REVERT JUMPDEST POP PUSH1 0x40 MLOAD PUSH3 0x187B CODESIZE SUB DUP1 PUSH3 0x187B DUP4 CODECOPY DUP2 ADD PUSH1 0x40 DUP2 SWAP1 MSTORE PUSH3 0x34 SWAP2 PUSH3 0xDC JUMP JUMPDEST PUSH1 0x1 PUSH32 0x9B779B17422D0DF92223018B32B4D1FA46E071723D6817E2486D003BECC55F00 SSTORE PUSH1 0x1 PUSH1 0x1 PUSH1 0xA0 SHL SUB DUP3 AND ISZERO DUP1 PUSH3 0x76 JUMPI POP PUSH1 0x1 PUSH1 0x1 PUSH1 0xA0 SHL SUB DUP2 AND ISZERO JUMPDEST ISZERO PUSH3 0x95 JUMPI PUSH1 0x40 MLOAD PUSH4 0xD92E233D PUSH1 0xE0 SHL DUP2 MSTORE PUSH1 0x4 ADD PUSH1 0x40 MLOAD DUP1 SWAP2 SUB SWAP1 REVERT JUMPDEST PUSH1 0x1 PUSH1 0x1 PUSH1 0xA0 SHL SUB SWAP2 DUP3 AND PUSH1 0x80 MSTORE AND PUSH1 0xA0 MSTORE PUSH1 0x0 DUP1 SLOAD PUSH1 0x1 PUSH1 0x1 PUSH1 0xA0 SHL SUB NOT AND CALLER OR SWAP1 SSTORE PUSH3 0x114 JUMP JUMPDEST DUP1 MLOAD PUSH1 0x1 PUSH1 0x1 PUSH1 0xA0 SHL SUB DUP2 AND DUP2 EQ PUSH3 0xD7 JUMPI PUSH1 0x0 DUP1 REVERT JUMPDEST SWAP2 SWAP1 POP JUMP JUMPDEST PUSH1 0x0 DUP1 PUSH1 0x40 DUP4 DUP6 SUB SLT ISZERO PUSH3 0xF0 JUMPI PUSH1 0x0 DUP1 REVERT JUMPDEST PUSH3 0xFB DUP4 PUSH3 0xBF JUMP JUMPDEST SWAP2 POP PUSH3 0x10B PUSH1 0x20 DUP5 ADD PUSH3 0xBF JUMP JUMPDEST SWAP1 POP SWAP3 POP SWAP3 SWAP1 POP JUMP JUMPDEST PUSH1 0x80 MLOAD PUSH1 0xA0 MLOAD PUSH2 0x16D8 PUSH3 0x1A3 PUSH1 0x0 CODECOPY PUSH1 0x0 DUP2 DUP2 PUSH2 0x1AC ADD MSTORE DUP2 DUP2 PUSH2 0x457 ADD MSTORE DUP2 DUP2 PUSH2 0x527 ADD MSTORE DUP2 DUP2 PUSH2 0x697 ADD MSTORE DUP2 DUP2 PUSH2 0x719 ADD MSTORE DUP2 DUP2 PUSH2 0x763 ADD MSTORE DUP2 DUP2 PUSH2 0xBE8 ADD MSTORE DUP2 DUP2 PUSH2 0xE15 ADD MSTORE DUP2 DUP2 PUSH2 0xFF4 ADD MSTORE PUSH2 0x1178 ADD MSTORE PUSH1 0x0 DUP2 DUP2 PUSH2 0x1EB ADD MSTORE DUP2 DUP2 PUSH2 0x3AF ADD MSTORE DUP2 DUP2 PUSH2 0x88C ADD MSTORE DUP2 DUP2 PUSH2 0xBB3 ADD MSTORE DUP2 DUP2 PUSH2 0xDE0 ADD MSTORE DUP2 DUP2 PUSH2 0xFAF ADD MSTORE PUSH2 0x126A ADD MSTORE PUSH2 0x16D8 PUSH1 0x0 RETURN INVALID PUSH1 0x80 PUSH1 0x40 MSTORE CALLVALUE DUP1 ISZERO PUSH2 0x10 JUMPI PUSH1 0x0 DUP1 REVERT JUMPDEST POP PUSH1 0x4 CALLDATASIZE LT PUSH2 0x158 JUMPI PUSH1 0x0 CALLDATALOAD PUSH1 0xE0 SHR DUP1 PUSH4 0x98D5FDCA GT PUSH2 0xC3 JUMPI DUP1 PUSH4 0xB6635BE6 GT PUSH2 0x7C JUMPI DUP1 PUSH4 0xB6635BE6 EQ PUSH2 0x2C8 JUMPI DUP1 PUSH4 0xC2C90687 EQ PUSH2 0x2EC JUMPI DUP1 PUSH4 0xD33219B4 EQ PUSH2 0x2FF JUMPI DUP1 PUSH4 0xEE3B038F EQ PUSH2 0x312 JUMPI DUP1 PUSH4 0xF843E641 EQ PUSH2 0x325 JUMPI DUP1 PUSH4 0xF851A440 EQ PUSH2 0x338 JUMPI PUSH1 0x0 DUP1 REVERT JUMPDEST DUP1 PUSH4 0x98D5FDCA EQ PUSH2 0x27F JUMPI DUP1 PUSH4 0xA1E26E7B EQ PUSH2 0x287 JUMPI DUP1 PUSH4 0xA40F4FA1 EQ PUSH2 0x290 JUMPI DUP1 PUSH4 0xA7978031 EQ PUSH2 0x2A3 JUMPI DUP1 PUSH4 0xAC257A6E EQ PUSH2 0x2B6 JUMPI DUP1 PUSH4 0xB4A800CE EQ PUSH2 0x2BF JUMPI PUSH1 0x0 DUP1 REVERT JUMPDEST DUP1 PUSH4 0x30CF2AEB GT PUSH2 0x115 JUMPI DUP1 PUSH4 0x30CF2AEB EQ PUSH2 0x220 JUMPI DUP1 PUSH4 0x33827438 EQ PUSH2 0x233 JUMPI DUP1 PUSH4 0x47AA7EA4 EQ PUSH2 0x246 JUMPI DUP1 PUSH4 0x55D28F20 EQ PUSH2 0x259 JUMPI DUP1 PUSH4 0x83BBDD5F EQ PUSH2 0x26E JUMPI DUP1 PUSH4 0x8AEA8F71 EQ PUSH2 0x277 JUMPI PUSH1 0x0 DUP1 REVERT JUMPDEST DUP1 PUSH4 0x53F14DA EQ PUSH2 0x15D JUMPI DUP1 PUSH4 0x902F1AC EQ PUSH2 0x179 JUMPI DUP1 PUSH4 0xCC2055A EQ PUSH2 0x194 JUMPI DUP1 PUSH4 0x2ACFBCA3 EQ PUSH2 0x1A7 JUMPI DUP1 PUSH4 0x2F48AB7D EQ PUSH2 0x1E6 JUMPI DUP1 PUSH4 0x30131384 EQ PUSH2 0x20D JUMPI JUMPDEST PUSH1 0x0 DUP1 REVERT JUMPDEST PUSH2 0x166 PUSH1 0x8 SLOAD DUP2 JUMP JUMPDEST PUSH1 0x40 MLOAD SWAP1 DUP2 MSTORE PUSH1 0x20 ADD JUMPDEST PUSH1 0x40 MLOAD DUP1 SWAP2 SUB SWAP1 RETURN JUMPDEST PUSH1 0x4 SLOAD PUSH1 0x5 SLOAD PUSH1 0x40 DUP1 MLOAD SWAP3 DUP4 MSTORE PUSH1 0x20 DUP4 ADD SWAP2 SWAP1 SWAP2 MSTORE ADD PUSH2 0x170 JUMP JUMPDEST PUSH2 0x166 PUSH2 0x1A2 CALLDATASIZE PUSH1 0x4 PUSH2 0x14FA JUMP JUMPDEST PUSH2 0x34B JUMP JUMPDEST PUSH2 0x1CE PUSH32 0x0 DUP2 JUMP JUMPDEST PUSH1 0x40 MLOAD PUSH1 0x1 PUSH1 0x1 PUSH1 0xA0 SHL SUB SWAP1 SWAP2 AND DUP2 MSTORE PUSH1 0x20 ADD PUSH2 0x170 JUMP JUMPDEST PUSH2 0x1CE PUSH32 0x0 DUP2 JUMP JUMPDEST PUSH1 0x3 SLOAD PUSH2 0x1CE SWAP1 PUSH1 0x1 PUSH1 0x1 PUSH1 0xA0 SHL SUB AND DUP2 JUMP JUMPDEST PUSH2 0x166 PUSH2 0x22E CALLDATASIZE PUSH1 0x4 PUSH2 0x1513 JUMP JUMPDEST PUSH2 0x627 JUMP JUMPDEST PUSH1 0x2 SLOAD PUSH2 0x1CE SWAP1 PUSH1 0x1 PUSH1 0x1 PUSH1 0xA0 SHL SUB AND DUP2 JUMP JUMPDEST PUSH2 0x166 PUSH2 0x254 CALLDATASIZE PUSH1 0x4 PUSH2 0x14FA JUMP JUMPDEST PUSH2 0x9A2 JUMP JUMPDEST PUSH2 0x26C PUSH2 0x267 CALLDATASIZE PUSH1 0x4 PUSH2 0x154C JUMP JUMPDEST PUSH2 0x9EE JUMP JUMPDEST STOP JUMPDEST PUSH2 0x166 PUSH1 0x6 SLOAD DUP2 JUMP JUMPDEST PUSH2 0x26C PUSH2 0xA92 JUMP JUMPDEST PUSH2 0x166 PUSH2 0xB0D JUMP JUMPDEST PUSH2 0x166 PUSH1 0x5 SLOAD DUP2 JUMP JUMPDEST PUSH2 0x26C PUSH2 0x29E CALLDATASIZE PUSH1 0x4 PUSH2 0x1513 JUMP JUMPDEST PUSH2 0xB52 JUMP JUMPDEST PUSH2 0x166 PUSH2 0x2B1 CALLDATASIZE PUSH1 0x4 PUSH2 0x14FA JUMP JUMPDEST PUSH2 0xCC7 JUMP JUMPDEST PUSH2 0x166 PUSH1 0x4 SLOAD DUP2 JUMP JUMPDEST PUSH2 0x166 PUSH1 0x7 SLOAD DUP2 JUMP JUMPDEST PUSH1 0x3 SLOAD PUSH2 0x2DC SWAP1 PUSH1 0x1 PUSH1 0xA0 SHL SWAP1 DIV PUSH1 0xFF AND DUP2 JUMP JUMPDEST PUSH1 0x40 MLOAD SWAP1 ISZERO ISZERO DUP2 MSTORE PUSH1 0x20 ADD PUSH2 0x170 JUMP JUMPDEST PUSH2 0x166 PUSH2 0x2FA CALLDATASIZE PUSH1 0x4 PUSH2 0x1513 JUMP JUMPDEST PUSH2 0xD2A JUMP JUMPDEST PUSH1 0x1 SLOAD PUSH2 0x1CE SWAP1 PUSH1 0x1 PUSH1 0x1 PUSH1 0xA0 SHL SUB AND DUP2 JUMP JUMPDEST PUSH2 0x26C PUSH2 0x320 CALLDATASIZE PUSH1 0x4 PUSH2 0x14FA JUMP JUMPDEST PUSH2 0xF56 JUMP JUMPDEST PUSH2 0x166 PUSH2 0x333 CALLDATASIZE PUSH1 0x4 PUSH2 0x158F JUMP JUMPDEST PUSH2 0x10ED JUMP JUMPDEST PUSH1 0x0 SLOAD PUSH2 0x1CE SWAP1 PUSH1 0x1 PUSH1 0x1 PUSH1 0xA0 SHL SUB AND DUP2 JUMP JUMPDEST PUSH1 0x3 SLOAD PUSH1 0x0 SWAP1 PUSH1 0x1 PUSH1 0x1 PUSH1 0xA0 SHL SUB AND CALLER EQ PUSH2 0x379 JUMPI PUSH1 0x40 MLOAD PUSH4 0x559B36F PUSH1 0xE1 SHL DUP2 MSTORE PUSH1 0x4 ADD PUSH1 0x40 MLOAD DUP1 SWAP2 SUB SWAP1 REVERT JUMPDEST PUSH2 0x381 PUSH2 0x1359 JUMP JUMPDEST DUP2 PUSH1 0x0 SUB PUSH2 0x3A2 JUMPI PUSH1 0x40 MLOAD PUSH4 0x1F2A2005 PUSH1 0xE0 SHL DUP2 MSTORE PUSH1 0x4 ADD PUSH1 0x40 MLOAD DUP1 SWAP2 SUB SWAP1 REVERT JUMPDEST PUSH2 0x3D7 PUSH1 0x1 PUSH1 0x1 PUSH1 0xA0 SHL SUB PUSH32 0x0 AND CALLER ADDRESS DUP6 PUSH2 0x1375 JUMP JUMPDEST PUSH1 0x0 PUSH1 0x4 SLOAD GT DUP1 ISZERO PUSH2 0x3EB JUMPI POP PUSH1 0x0 PUSH1 0x5 SLOAD GT JUMPDEST ISZERO PUSH2 0x41C JUMPI DUP2 PUSH1 0x4 SLOAD PUSH2 0x3FE SWAP2 SWAP1 PUSH2 0x15D1 JUMP JUMPDEST PUSH1 0x5 SLOAD PUSH2 0x40B SWAP1 DUP5 PUSH2 0x15E4 JUMP JUMPDEST PUSH2 0x415 SWAP2 SWAP1 PUSH2 0x15FB JUMP JUMPDEST SWAP1 POP PUSH2 0x41F JUMP JUMPDEST POP DUP1 JUMPDEST DUP1 PUSH1 0x0 SUB PUSH2 0x440 JUMPI PUSH1 0x40 MLOAD PUSH4 0x1F2A2005 PUSH1 0xE0 SHL DUP2 MSTORE PUSH1 0x4 ADD PUSH1 0x40 MLOAD DUP1 SWAP2 SUB SWAP1 REVERT JUMPDEST PUSH1 0x40 MLOAD PUSH4 0x70A08231 PUSH1 0xE0 SHL DUP2 MSTORE ADDRESS PUSH1 0x4 DUP3 ADD MSTORE DUP2 SWAP1 PUSH32 0x0 PUSH1 0x1 PUSH1 0x1 PUSH1 0xA0 SHL SUB AND SWAP1 PUSH4 0x70A08231 SWAP1 PUSH1 0x24 ADD PUSH1 0x20 PUSH1 0x40 MLOAD DUP1 DUP4 SUB DUP2 DUP7 GAS STATICCALL ISZERO DUP1 ISZERO PUSH2 0x4A6 JUMPI RETURNDATASIZE PUSH1 0x0 DUP1 RETURNDATACOPY RETURNDATASIZE PUSH1 0x0 REVERT JUMPDEST POP POP POP POP PUSH1 0x40 MLOAD RETURNDATASIZE PUSH1 0x1F NOT PUSH1 0x1F DUP3 ADD AND DUP3 ADD DUP1 PUSH1 0x40 MSTORE POP DUP2 ADD SWAP1 PUSH2 0x4CA SWAP2 SWAP1 PUSH2 0x161D JUMP JUMPDEST LT ISZERO PUSH2 0x4E9 JUMPI PUSH1 0x40 MLOAD PUSH4 0x28B35F21 PUSH1 0xE0 SHL DUP2 MSTORE PUSH1 0x4 ADD PUSH1 0x40 MLOAD DUP1 SWAP2 SUB SWAP1 REVERT JUMPDEST DUP2 PUSH1 0x4 PUSH1 0x0 DUP3 DUP3 SLOAD PUSH2 0x4FB SWAP2 SWAP1 PUSH2 0x15D1 JUMP JUMPDEST SWAP3 POP POP DUP2 SWAP1 SSTORE POP DUP1 PUSH1 0x5 PUSH1 0x0 DUP3 DUP3 SLOAD PUSH2 0x514 SWAP2 SWAP1 PUSH2 0x1636 JUMP JUMPDEST SWAP1 SWAP2 SSTORE POP PUSH2 0x54E SWAP1 POP PUSH1 0x1 PUSH1 0x1 PUSH1 0xA0 SHL SUB PUSH32 0x0 AND CALLER DUP4 PUSH2 0x13B6 JUMP JUMPDEST PUSH1 0x0 DUP1 PUSH1 0x5 SLOAD GT PUSH2 0x560 JUMPI PUSH1 0x0 PUSH2 0x582 JUMP JUMPDEST PUSH1 0x5 SLOAD PUSH1 0x4 SLOAD PUSH2 0x578 SWAP1 PUSH8 0xDE0B6B3A7640000 PUSH2 0x15E4 JUMP JUMPDEST PUSH2 0x582 SWAP2 SWAP1 PUSH2 0x15FB JUMP JUMPDEST SWAP1 POP DUP3 PUSH1 0x6 PUSH1 0x0 DUP3 DUP3 SLOAD PUSH2 0x596 SWAP2 SWAP1 PUSH2 0x15D1 JUMP JUMPDEST SWAP1 SWAP2 SSTORE POP POP PUSH1 0x7 DUP1 SLOAD SWAP1 PUSH1 0x0 PUSH2 0x5AB DUP4 PUSH2 0x1649 JUMP JUMPDEST SWAP1 SWAP2 SSTORE POP POP PUSH1 0x40 DUP1 MLOAD DUP5 DUP2 MSTORE PUSH1 0x20 DUP2 ADD DUP5 SWAP1 MSTORE PUSH32 0x3D53FFD94E6169FE8616AEF06A81EBA2335FF27EAC4A60886AD869B22C4F347B SWAP2 ADD PUSH1 0x40 MLOAD DUP1 SWAP2 SUB SWAP1 LOG1 PUSH1 0x40 MLOAD DUP2 DUP2 MSTORE PUSH1 0x0 DUP1 MLOAD PUSH1 0x20 PUSH2 0x1663 DUP4 CODECOPY DUP2 MLOAD SWAP2 MSTORE SWAP1 PUSH1 0x20 ADD PUSH1 0x40 MLOAD DUP1 SWAP2 SUB SWAP1 LOG1 POP PUSH2 0x622 PUSH1 0x1 PUSH1 0x0 DUP1 MLOAD PUSH1 0x20 PUSH2 0x1683 DUP4 CODECOPY DUP2 MLOAD SWAP2 MSTORE SSTORE JUMP JUMPDEST SWAP2 SWAP1 POP JUMP JUMPDEST PUSH1 0x0 PUSH2 0x631 PUSH2 0x1359 JUMP JUMPDEST DUP3 PUSH1 0x0 SUB PUSH2 0x652 JUMPI PUSH1 0x40 MLOAD PUSH4 0x1F2A2005 PUSH1 0xE0 SHL DUP2 MSTORE PUSH1 0x4 ADD PUSH1 0x40 MLOAD DUP1 SWAP2 SUB SWAP1 REVERT JUMPDEST PUSH1 0x4 SLOAD ISZERO DUP1 PUSH2 0x661 JUMPI POP PUSH1 0x5 SLOAD ISZERO JUMPDEST ISZERO PUSH2 0x67F JUMPI PUSH1 0x40 MLOAD PUSH4 0x28B35F21 PUSH1 0xE0 SHL DUP2 MSTORE PUSH1 0x4 ADD PUSH1 0x40 MLOAD DUP1 SWAP2 SUB SWAP1 REVERT JUMPDEST PUSH1 0x40 MLOAD PUSH4 0x70A08231 PUSH1 0xE0 SHL DUP2 MSTORE ADDRESS PUSH1 0x4 DUP3 ADD MSTORE PUSH1 0x0 SWAP1 PUSH32 0x0 PUSH1 0x1 PUSH1 0x1 PUSH1 0xA0 SHL SUB AND SWAP1 PUSH4 0x70A08231 SWAP1 PUSH1 0x24 ADD PUSH1 0x20 PUSH1 0x40 MLOAD DUP1 DUP4 SUB DUP2 DUP7 GAS STATICCALL ISZERO DUP1 ISZERO PUSH2 0x6E6 JUMPI RETURNDATASIZE PUSH1 0x0 DUP1 RETURNDATACOPY RETURNDATASIZE PUSH1 0x0 REVERT JUMPDEST POP POP POP POP PUSH1 0x40 MLOAD RETURNDATASIZE PUSH1 0x1F NOT PUSH1 0x1F DUP3 ADD AND DUP3 ADD DUP1 PUSH1 0x40 MSTORE POP DUP2 ADD SWAP1 PUSH2 0x70A SWAP2 SWAP1 PUSH2 0x161D JUMP JUMPDEST SWAP1 POP PUSH2 0x741 PUSH1 0x1 PUSH1 0x1 PUSH1 0xA0 SHL SUB PUSH32 0x0 AND CALLER ADDRESS DUP8 PUSH2 0x1375 JUMP JUMPDEST PUSH1 0x40 MLOAD PUSH4 0x70A08231 PUSH1 0xE0 SHL DUP2 MSTORE ADDRESS PUSH1 0x4 DUP3 ADD MSTORE PUSH1 0x0 SWAP1 DUP3 SWAP1 PUSH1 0x1 PUSH1 0x1 PUSH1 0xA0 SHL SUB PUSH32 0x0 AND SWAP1 PUSH4 0x70A08231 SWAP1 PUSH1 0x24 ADD PUSH1 0x20 PUSH1 0x40 MLOAD DUP1 DUP4 SUB DUP2 DUP7 GAS STATICCALL ISZERO DUP1 ISZERO PUSH2 0x7AA JUMPI RETURNDATASIZE PUSH1 0x0 DUP1 RETURNDATACOPY RETURNDATASIZE PUSH1 0x0 REVERT JUMPDEST POP POP POP POP PUSH1 0x40 MLOAD RETURNDATASIZE PUSH1 0x1F NOT PUSH1 0x1F DUP3 ADD AND DUP3 ADD DUP1 PUSH1 0x40 MSTORE POP DUP2 ADD SWAP1 PUSH2 0x7CE SWAP2 SWAP1 PUSH2 0x161D JUMP JUMPDEST PUSH2 0x7D8 SWAP2 SWAP1 PUSH2 0x1636 JUMP JUMPDEST SWAP1 POP DUP5 PUSH1 0x5 SLOAD PUSH2 0x7E8 SWAP2 SWAP1 PUSH2 0x15D1 JUMP JUMPDEST PUSH1 0x4 SLOAD PUSH2 0x7F5 SWAP1 DUP8 PUSH2 0x15E4 JUMP JUMPDEST PUSH2 0x7FF SWAP2 SWAP1 PUSH2 0x15FB JUMP JUMPDEST SWAP3 POP DUP3 ISZERO DUP1 PUSH2 0x80D JUMPI POP DUP4 DUP4 LT JUMPDEST ISZERO PUSH2 0x82B JUMPI PUSH1 0x40 MLOAD PUSH4 0x8199F5F3 PUSH1 0xE0 SHL DUP2 MSTORE PUSH1 0x4 ADD PUSH1 0x40 MLOAD DUP1 SWAP2 SUB SWAP1 REVERT JUMPDEST PUSH1 0x4 SLOAD DUP4 GT ISZERO PUSH2 0x84E JUMPI PUSH1 0x40 MLOAD PUSH4 0x28B35F21 PUSH1 0xE0 SHL DUP2 MSTORE PUSH1 0x4 ADD PUSH1 0x40 MLOAD DUP1 SWAP2 SUB SWAP1 REVERT JUMPDEST DUP3 PUSH1 0x4 PUSH1 0x0 DUP3 DUP3 SLOAD PUSH2 0x860 SWAP2 SWAP1 PUSH2 0x1636 JUMP JUMPDEST SWAP3 POP POP DUP2 SWAP1 SSTORE POP DUP1 PUSH1 0x5 PUSH1 0x0 DUP3 DUP3 SLOAD PUSH2 0x879 SWAP2 SWAP1 PUSH2 0x15D1 JUMP JUMPDEST SWAP1 SWAP2 SSTORE POP PUSH2 0x8B3 SWAP1 POP PUSH1 0x1 PUSH1 0x1 PUSH1 0xA0 SHL SUB PUSH32 0x0 AND CALLER DUP6 PUSH2 0x13B6 JUMP JUMPDEST DUP3 PUSH1 0x6 PUSH1 0x0 DUP3 DUP3 SLOAD PUSH2 0x8C5 SWAP2 SWAP1 PUSH2 0x15D1 JUMP JUMPDEST SWAP1 SWAP2 SSTORE POP POP PUSH1 0x7 DUP1 SLOAD SWAP1 PUSH1 0x0 PUSH2 0x8DA DUP4 PUSH2 0x1649 JUMP JUMPDEST SWAP2 SWAP1 POP SSTORE POP PUSH1 0x0 DUP1 PUSH1 0x5 SLOAD GT PUSH2 0x8F1 JUMPI PUSH1 0x0 PUSH2 0x913 JUMP JUMPDEST PUSH1 0x5 SLOAD PUSH1 0x4 SLOAD PUSH2 0x909 SWAP1 PUSH8 0xDE0B6B3A7640000 PUSH2 0x15E4 JUMP JUMPDEST PUSH2 0x913 SWAP2 SWAP1 PUSH2 0x15FB JUMP JUMPDEST PUSH1 0x40 DUP1 MLOAD PUSH1 0x0 DUP2 MSTORE PUSH1 0x20 DUP2 ADD DUP10 SWAP1 MSTORE SWAP1 DUP2 ADD DUP7 SWAP1 MSTORE PUSH1 0x60 DUP2 ADD DUP3 SWAP1 MSTORE SWAP1 SWAP2 POP CALLER SWAP1 PUSH32 0x7C707038FB62CB248EC6B437A63EC556BB6233AF235F4518D64693CBA918A6E1 SWAP1 PUSH1 0x80 ADD PUSH1 0x40 MLOAD DUP1 SWAP2 SUB SWAP1 LOG2 PUSH1 0x40 MLOAD DUP2 DUP2 MSTORE PUSH1 0x0 DUP1 MLOAD PUSH1 0x20 PUSH2 0x1663 DUP4 CODECOPY DUP2 MLOAD SWAP2 MSTORE SWAP1 PUSH1 0x20 ADD PUSH1 0x40 MLOAD DUP1 SWAP2 SUB SWAP1 LOG1 POP POP POP PUSH2 0x99C PUSH1 0x1 PUSH1 0x0 DUP1 MLOAD PUSH1 0x20 PUSH2 0x1683 DUP4 CODECOPY DUP2 MLOAD SWAP2 MSTORE SSTORE JUMP JUMPDEST SWAP3 SWAP2 POP POP JUMP JUMPDEST PUSH1 0x0 DUP2 ISZERO DUP1 PUSH2 0x9B1 JUMPI POP PUSH1 0x4 SLOAD ISZERO JUMPDEST DUP1 PUSH2 0x9BC JUMPI POP PUSH1 0x5 SLOAD ISZERO JUMPDEST ISZERO PUSH2 0x9C9 JUMPI POP PUSH1 0x0 SWAP2 SWAP1 POP JUMP JUMPDEST DUP2 PUSH1 0x4 SLOAD PUSH2 0x9D7 SWAP2 SWAP1 PUSH2 0x15D1 JUMP JUMPDEST PUSH1 0x5 SLOAD PUSH2 0x9E4 SWAP1 DUP5 PUSH2 0x15E4 JUMP JUMPDEST PUSH2 0x99C SWAP2 SWAP1 PUSH2 0x15FB JUMP JUMPDEST PUSH1 0x0 SLOAD PUSH1 0x1 PUSH1 0x1 PUSH1 0xA0 SHL SUB AND CALLER EQ PUSH2 0xA19 JUMPI PUSH1 0x40 MLOAD PUSH4 0x47556579 PUSH1 0xE0 SHL DUP2 MSTORE PUSH1 0x4 ADD PUSH1 0x40 MLOAD DUP1 SWAP2 SUB SWAP1 REVERT JUMPDEST PUSH1 0x3 SLOAD PUSH1 0x1 PUSH1 0xA0 SHL SWAP1 DIV PUSH1 0xFF AND ISZERO PUSH2 0xA44 JUMPI PUSH1 0x40 MLOAD PUSH4 0x238F75D3 PUSH1 0xE0 SHL DUP2 MSTORE PUSH1 0x4 ADD PUSH1 0x40 MLOAD DUP1 SWAP2 SUB SWAP1 REVERT JUMPDEST PUSH1 0x1 DUP1 SLOAD PUSH1 0x1 PUSH1 0x1 PUSH1 0xA0 SHL SUB SWAP5 DUP6 AND PUSH1 0x1 PUSH1 0x1 PUSH1 0xA0 SHL SUB NOT SWAP2 DUP3 AND OR SWAP1 SWAP2 SSTORE PUSH1 0x2 DUP1 SLOAD SWAP4 DUP6 AND SWAP4 SWAP1 SWAP2 AND SWAP3 SWAP1 SWAP3 OR SWAP1 SWAP2 SSTORE PUSH1 0x3 DUP1 SLOAD PUSH1 0x1 PUSH1 0x1 PUSH1 0xA8 SHL SUB NOT AND SWAP2 SWAP1 SWAP3 AND OR PUSH1 0x1 PUSH1 0xA0 SHL OR SWAP1 SSTORE JUMP JUMPDEST PUSH1 0x0 SLOAD PUSH1 0x1 PUSH1 0x1 PUSH1 0xA0 SHL SUB AND CALLER EQ PUSH2 0xABD JUMPI PUSH1 0x40 MLOAD PUSH4 0x47556579 PUSH1 0xE0 SHL DUP2 MSTORE PUSH1 0x4 ADD PUSH1 0x40 MLOAD DUP1 SWAP2 SUB SWAP1 REVERT JUMPDEST PUSH1 0x3 SLOAD PUSH1 0x1 PUSH1 0xA0 SHL SWAP1 DIV PUSH1 0xFF AND ISZERO PUSH2 0xAE8 JUMPI PUSH1 0x40 MLOAD PUSH4 0x238F75D3 PUSH1 0xE0 SHL DUP2 MSTORE PUSH1 0x4 ADD PUSH1 0x40 MLOAD DUP1 SWAP2 SUB SWAP1 REVERT JUMPDEST PUSH1 0x3 DUP1 SLOAD PUSH1 0xFF PUSH1 0xA0 SHL NOT AND PUSH1 0x1 PUSH1 0xA0 SHL OR SWAP1 SSTORE PUSH1 0x0 DUP1 SLOAD PUSH1 0x1 PUSH1 0x1 PUSH1 0xA0 SHL SUB NOT AND SWAP1 SSTORE JUMP JUMPDEST PUSH1 0x0 PUSH1 0x5 SLOAD PUSH1 0x0 EQ DUP1 PUSH2 0xB20 JUMPI POP PUSH1 0x4 SLOAD ISZERO JUMPDEST ISZERO PUSH2 0xB2B JUMPI POP PUSH1 0x0 SWAP1 JUMP JUMPDEST PUSH1 0x5 SLOAD PUSH1 0x4 SLOAD PUSH2 0xB43 SWAP1 PUSH8 0xDE0B6B3A7640000 PUSH2 0x15E4 JUMP JUMPDEST PUSH2 0xB4D SWAP2 SWAP1 PUSH2 0x15FB JUMP JUMPDEST SWAP1 POP SWAP1 JUMP JUMPDEST PUSH1 0x2 SLOAD PUSH1 0x1 PUSH1 0x1 PUSH1 0xA0 SHL SUB AND CALLER EQ PUSH2 0xB7D JUMPI PUSH1 0x40 MLOAD PUSH4 0xBE5A3E1 PUSH1 0xE3 SHL DUP2 MSTORE PUSH1 0x4 ADD PUSH1 0x40 MLOAD DUP1 SWAP2 SUB SWAP1 REVERT JUMPDEST DUP2 ISZERO DUP1 PUSH2 0xB88 JUMPI POP DUP1 ISZERO JUMPDEST ISZERO PUSH2 0xBA6 JUMPI PUSH1 0x40 MLOAD PUSH4 0x1F2A2005 PUSH1 0xE0 SHL DUP2 MSTORE PUSH1 0x4 ADD PUSH1 0x40 MLOAD DUP1 SWAP2 SUB SWAP1 REVERT JUMPDEST PUSH2 0xBDB PUSH1 0x1 PUSH1 0x1 PUSH1 0xA0 SHL SUB PUSH32 0x0 AND CALLER ADDRESS DUP6 PUSH2 0x1375 JUMP JUMPDEST PUSH2 0xC10 PUSH1 0x1 PUSH1 0x1 PUSH1 0xA0 SHL SUB PUSH32 0x0 AND CALLER ADDRESS DUP5 PUSH2 0x1375 JUMP JUMPDEST DUP2 PUSH1 0x4 PUSH1 0x0 DUP3 DUP3 SLOAD PUSH2 0xC22 SWAP2 SWAP1 PUSH2 0x15D1 JUMP JUMPDEST SWAP3 POP POP DUP2 SWAP1 SSTORE POP DUP1 PUSH1 0x5 PUSH1 0x0 DUP3 DUP3 SLOAD PUSH2 0xC3B SWAP2 SWAP1 PUSH2 0x15D1 JUMP JUMPDEST SWAP1 SWAP2 SSTORE POP DUP2 SWAP1 POP PUSH2 0xC54 DUP4 PUSH8 0xDE0B6B3A7640000 PUSH2 0x15E4 JUMP JUMPDEST PUSH2 0xC5E SWAP2 SWAP1 PUSH2 0x15FB JUMP JUMPDEST PUSH1 0x8 SSTORE PUSH1 0x40 DUP1 MLOAD DUP4 DUP2 MSTORE PUSH1 0x20 DUP2 ADD DUP4 SWAP1 MSTORE PUSH32 0x9C86429231ED0411E3112A1DD5C6578826C2D48089D5EC491E874CE0029C0BBE SWAP2 ADD PUSH1 0x40 MLOAD DUP1 SWAP2 SUB SWAP1 LOG1 PUSH1 0x0 DUP1 MLOAD PUSH1 0x20 PUSH2 0x1663 DUP4 CODECOPY DUP2 MLOAD SWAP2 MSTORE PUSH1 0x8 SLOAD PUSH1 0x40 MLOAD PUSH2 0xCBB SWAP2 DUP2 MSTORE PUSH1 0x20 ADD SWAP1 JUMP JUMPDEST PUSH1 0x40 MLOAD DUP1 SWAP2 SUB SWAP1 LOG1 POP POP JUMP JUMPDEST PUSH1 0x0 DUP2 ISZERO DUP1 PUSH2 0xCD6 JUMPI POP PUSH1 0x4 SLOAD ISZERO JUMPDEST DUP1 PUSH2 0xCE1 JUMPI POP PUSH1 0x5 SLOAD ISZERO JUMPDEST ISZERO PUSH2 0xCEE JUMPI POP PUSH1 0x0 SWAP2 SWAP1 POP JUMP JUMPDEST PUSH1 0x0 DUP3 PUSH1 0x5 SLOAD PUSH2 0xCFE SWAP2 SWAP1 PUSH2 0x15D1 JUMP JUMPDEST PUSH1 0x4 SLOAD PUSH2 0xD0B SWAP1 DUP6 PUSH2 0x15E4 JUMP JUMPDEST PUSH2 0xD15 SWAP2 SWAP1 PUSH2 0x15FB JUMP JUMPDEST SWAP1 POP PUSH1 0x4 SLOAD DUP2 GT ISZERO PUSH2 0x99C JUMPI POP PUSH1 0x0 SWAP3 SWAP2 POP POP JUMP JUMPDEST PUSH1 0x0 PUSH2 0xD34 PUSH2 0x1359 JUMP JUMPDEST DUP3 PUSH1 0x0 SUB PUSH2 0xD55 JUMPI PUSH1 0x40 MLOAD PUSH4 0x1F2A2005 PUSH1 0xE0 SHL DUP2 MSTORE PUSH1 0x4 ADD PUSH1 0x40 MLOAD DUP1 SWAP2 SUB SWAP1 REVERT JUMPDEST PUSH1 0x4 SLOAD ISZERO DUP1 PUSH2 0xD64 JUMPI POP PUSH1 0x5 SLOAD ISZERO JUMPDEST ISZERO PUSH2 0xD82 JUMPI PUSH1 0x40 MLOAD PUSH4 0x28B35F21 PUSH1 0xE0 SHL DUP2 MSTORE PUSH1 0x4 ADD PUSH1 0x40 MLOAD DUP1 SWAP2 SUB SWAP1 REVERT JUMPDEST DUP3 PUSH1 0x4 SLOAD PUSH2 0xD90 SWAP2 SWAP1 PUSH2 0x15D1 JUMP JUMPDEST PUSH1 0x5 SLOAD PUSH2 0xD9D SWAP1 DUP6 PUSH2 0x15E4 JUMP JUMPDEST PUSH2 0xDA7 SWAP2 SWAP1 PUSH2 0x15FB JUMP JUMPDEST SWAP1 POP DUP1 ISZERO DUP1 PUSH2 0xDB5 JUMPI POP DUP2 DUP2 LT JUMPDEST ISZERO PUSH2 0xDD3 JUMPI PUSH1 0x40 MLOAD PUSH4 0x8199F5F3 PUSH1 0xE0 SHL DUP2 MSTORE PUSH1 0x4 ADD PUSH1 0x40 MLOAD DUP1 SWAP2 SUB SWAP1 REVERT JUMPDEST PUSH2 0xE08 PUSH1 0x1 PUSH1 0x1 PUSH1 0xA0 SHL SUB PUSH32 0x0 AND CALLER ADDRESS DUP7 PUSH2 0x1375 JUMP JUMPDEST PUSH2 0xE3C PUSH1 0x1 PUSH1 0x1 PUSH1 0xA0 SHL SUB PUSH32 0x0 AND CALLER DUP4 PUSH2 0x13B6 JUMP JUMPDEST DUP3 PUSH1 0x4 PUSH1 0x0 DUP3 DUP3 SLOAD PUSH2 0xE4E SWAP2 SWAP1 PUSH2 0x15D1 JUMP JUMPDEST SWAP3 POP POP DUP2 SWAP1 SSTORE POP DUP1 PUSH1 0x5 PUSH1 0x0 DUP3 DUP3 SLOAD PUSH2 0xE67 SWAP2 SWAP1 PUSH2 0x1636 JUMP JUMPDEST SWAP3 POP POP DUP2 SWAP1 SSTORE POP DUP3 PUSH1 0x6 PUSH1 0x0 DUP3 DUP3 SLOAD PUSH2 0xE80 SWAP2 SWAP1 PUSH2 0x15D1 JUMP JUMPDEST SWAP1 SWAP2 SSTORE POP POP PUSH1 0x7 DUP1 SLOAD SWAP1 PUSH1 0x0 PUSH2 0xE95 DUP4 PUSH2 0x1649 JUMP JUMPDEST SWAP2 SWAP1 POP SSTORE POP PUSH1 0x0 DUP1 PUSH1 0x5 SLOAD GT PUSH2 0xEAC JUMPI PUSH1 0x0 PUSH2 0xECE JUMP JUMPDEST PUSH1 0x5 SLOAD PUSH1 0x4 SLOAD PUSH2 0xEC4 SWAP1 PUSH8 0xDE0B6B3A7640000 PUSH2 0x15E4 JUMP JUMPDEST PUSH2 0xECE SWAP2 SWAP1 PUSH2 0x15FB JUMP JUMPDEST PUSH1 0x40 DUP1 MLOAD PUSH1 0x1 DUP2 MSTORE PUSH1 0x20 DUP2 ADD DUP8 SWAP1 MSTORE SWAP1 DUP2 ADD DUP5 SWAP1 MSTORE PUSH1 0x60 DUP2 ADD DUP3 SWAP1 MSTORE SWAP1 SWAP2 POP CALLER SWAP1 PUSH32 0x7C707038FB62CB248EC6B437A63EC556BB6233AF235F4518D64693CBA918A6E1 SWAP1 PUSH1 0x80 ADD PUSH1 0x40 MLOAD DUP1 SWAP2 SUB SWAP1 LOG2 PUSH1 0x40 MLOAD DUP2 DUP2 MSTORE PUSH1 0x0 DUP1 MLOAD PUSH1 0x20 PUSH2 0x1663 DUP4 CODECOPY DUP2 MLOAD SWAP2 MSTORE SWAP1 PUSH1 0x20 ADD JUMPDEST PUSH1 0x40 MLOAD DUP1 SWAP2 SUB SWAP1 LOG1 POP PUSH2 0x99C PUSH1 0x1 PUSH1 0x0 DUP1 MLOAD PUSH1 0x20 PUSH2 0x1683 DUP4 CODECOPY DUP2 MLOAD SWAP2 MSTORE SSTORE JUMP JUMPDEST PUSH1 0x2 SLOAD PUSH1 0x1 PUSH1 0x1 PUSH1 0xA0 SHL SUB AND CALLER EQ PUSH2 0xF81 JUMPI PUSH1 0x40 MLOAD PUSH4 0xBE5A3E1 PUSH1 0xE3 SHL DUP2 MSTORE PUSH1 0x4 ADD PUSH1 0x40 MLOAD DUP1 SWAP2 SUB SWAP1 REVERT JUMPDEST DUP1 PUSH1 0x0 SUB PUSH2 0xFA2 JUMPI PUSH1 0x40 MLOAD PUSH4 0x1F2A2005 PUSH1 0xE0 SHL DUP2 MSTORE PUSH1 0x4 ADD PUSH1 0x40 MLOAD DUP1 SWAP2 SUB SWAP1 REVERT JUMPDEST PUSH2 0xFD7 PUSH1 0x1 PUSH1 0x1 PUSH1 0xA0 SHL SUB PUSH32 0x0 AND CALLER ADDRESS DUP5 PUSH2 0x1375 JUMP JUMPDEST DUP1 PUSH1 0x4 PUSH1 0x0 DUP3 DUP3 SLOAD PUSH2 0xFE9 SWAP2 SWAP1 PUSH2 0x15D1 JUMP JUMPDEST SWAP3 POP POP DUP2 SWAP1 SSTORE POP PUSH1 0x0 PUSH32 0x0 PUSH1 0x1 PUSH1 0x1 PUSH1 0xA0 SHL SUB AND PUSH4 0x18160DDD PUSH1 0x40 MLOAD DUP2 PUSH4 0xFFFFFFFF AND PUSH1 0xE0 SHL DUP2 MSTORE PUSH1 0x4 ADD PUSH1 0x20 PUSH1 0x40 MLOAD DUP1 DUP4 SUB DUP2 DUP7 GAS STATICCALL ISZERO DUP1 ISZERO PUSH2 0x1050 JUMPI RETURNDATASIZE PUSH1 0x0 DUP1 RETURNDATACOPY RETURNDATASIZE PUSH1 0x0 REVERT JUMPDEST POP POP POP POP PUSH1 0x40 MLOAD RETURNDATASIZE PUSH1 0x1F NOT PUSH1 0x1F DUP3 ADD AND DUP3 ADD DUP1 PUSH1 0x40 MSTORE POP DUP2 ADD SWAP1 PUSH2 0x1074 SWAP2 SWAP1 PUSH2 0x161D JUMP JUMPDEST PUSH1 0x4 SLOAD PUSH2 0x1089 SWAP1 PUSH8 0xDE0B6B3A7640000 PUSH2 0x15E4 JUMP JUMPDEST PUSH2 0x1093 SWAP2 SWAP1 PUSH2 0x15FB JUMP JUMPDEST PUSH1 0x40 DUP1 MLOAD DUP5 DUP2 MSTORE PUSH1 0x0 PUSH1 0x20 DUP3 ADD MSTORE SWAP2 SWAP3 POP PUSH32 0x9C86429231ED0411E3112A1DD5C6578826C2D48089D5EC491E874CE0029C0BBE SWAP2 ADD PUSH1 0x40 MLOAD DUP1 SWAP2 SUB SWAP1 LOG1 PUSH1 0x40 MLOAD DUP2 DUP2 MSTORE PUSH1 0x0 DUP1 MLOAD PUSH1 0x20 PUSH2 0x1663 DUP4 CODECOPY DUP2 MLOAD SWAP2 MSTORE SWAP1 PUSH1 0x20 ADD PUSH2 0xCBB JUMP JUMPDEST PUSH1 0x3 SLOAD PUSH1 0x0 SWAP1 PUSH1 0x1 PUSH1 0x1 PUSH1 0xA0 SHL SUB AND CALLER EQ PUSH2 0x111B JUMPI PUSH1 0x40 MLOAD PUSH4 0x559B36F PUSH1 0xE1 SHL DUP2 MSTORE PUSH1 0x4 ADD PUSH1 0x40 MLOAD DUP1 SWAP2 SUB SWAP1 REVERT JUMPDEST PUSH2 0x1123 PUSH2 0x1359 JUMP JUMPDEST DUP3 PUSH1 0x0 SUB PUSH2 0x1144 JUMPI PUSH1 0x40 MLOAD PUSH4 0x1F2A2005 PUSH1 0xE0 SHL DUP2 MSTORE PUSH1 0x4 ADD PUSH1 0x40 MLOAD DUP1 SWAP2 SUB SWAP1 REVERT JUMPDEST PUSH1 0x1 PUSH1 0x1 PUSH1 0xA0 SHL SUB DUP3 AND PUSH2 0x116B JUMPI PUSH1 0x40 MLOAD PUSH4 0xD92E233D PUSH1 0xE0 SHL DUP2 MSTORE PUSH1 0x4 ADD PUSH1 0x40 MLOAD DUP1 SWAP2 SUB SWAP1 REVERT JUMPDEST PUSH2 0x11A0 PUSH1 0x1 PUSH1 0x1 PUSH1 0xA0 SHL SUB PUSH32 0x0 AND CALLER ADDRESS DUP7 PUSH2 0x1375 JUMP JUMPDEST PUSH1 0x0 PUSH1 0x4 SLOAD GT DUP1 ISZERO PUSH2 0x11B4 JUMPI POP PUSH1 0x0 PUSH1 0x5 SLOAD GT JUMPDEST ISZERO PUSH2 0x11E5 JUMPI DUP3 PUSH1 0x5 SLOAD PUSH2 0x11C7 SWAP2 SWAP1 PUSH2 0x15D1 JUMP JUMPDEST PUSH1 0x4 SLOAD PUSH2 0x11D4 SWAP1 DUP6 PUSH2 0x15E4 JUMP JUMPDEST PUSH2 0x11DE SWAP2 SWAP1 PUSH2 0x15FB JUMP JUMPDEST SWAP1 POP PUSH2 0x11E8 JUMP JUMPDEST POP DUP2 JUMPDEST DUP1 PUSH1 0x0 SUB PUSH2 0x1209 JUMPI PUSH1 0x40 MLOAD PUSH4 0x1F2A2005 PUSH1 0xE0 SHL DUP2 MSTORE PUSH1 0x4 ADD PUSH1 0x40 MLOAD DUP1 SWAP2 SUB SWAP1 REVERT JUMPDEST PUSH1 0x4 SLOAD DUP2 GT ISZERO PUSH2 0x122C JUMPI PUSH1 0x40 MLOAD PUSH4 0x28B35F21 PUSH1 0xE0 SHL DUP2 MSTORE PUSH1 0x4 ADD PUSH1 0x40 MLOAD DUP1 SWAP2 SUB SWAP1 REVERT JUMPDEST DUP3 PUSH1 0x5 PUSH1 0x0 DUP3 DUP3 SLOAD PUSH2 0x123E SWAP2 SWAP1 PUSH2 0x15D1 JUMP JUMPDEST SWAP3 POP POP DUP2 SWAP1 SSTORE POP DUP1 PUSH1 0x4 PUSH1 0x0 DUP3 DUP3 SLOAD PUSH2 0x1257 SWAP2 SWAP1 PUSH2 0x1636 JUMP JUMPDEST SWAP1 SWAP2 SSTORE POP PUSH2 0x1291 SWAP1 POP PUSH1 0x1 PUSH1 0x1 PUSH1 0xA0 SHL SUB PUSH32 0x0 AND DUP4 DUP4 PUSH2 0x13B6 JUMP JUMPDEST PUSH1 0x0 DUP1 PUSH1 0x5 SLOAD GT PUSH2 0x12A3 JUMPI PUSH1 0x0 PUSH2 0x12C5 JUMP JUMPDEST PUSH1 0x5 SLOAD PUSH1 0x4 SLOAD PUSH2 0x12BB SWAP1 PUSH8 0xDE0B6B3A7640000 PUSH2 0x15E4 JUMP JUMPDEST PUSH2 0x12C5 SWAP2 SWAP1 PUSH2 0x15FB JUMP JUMPDEST SWAP1 POP DUP2 PUSH1 0x6 PUSH1 0x0 DUP3 DUP3 SLOAD PUSH2 0x12D9 SWAP2 SWAP1 PUSH2 0x15D1 JUMP JUMPDEST SWAP1 SWAP2 SSTORE POP POP PUSH1 0x7 DUP1 SLOAD SWAP1 PUSH1 0x0 PUSH2 0x12EE DUP4 PUSH2 0x1649 JUMP JUMPDEST SWAP1 SWAP2 SSTORE POP POP PUSH1 0x40 DUP1 MLOAD DUP6 DUP2 MSTORE PUSH1 0x20 DUP2 ADD DUP5 SWAP1 MSTORE PUSH1 0x1 PUSH1 0x1 PUSH1 0xA0 SHL SUB DUP6 AND DUP2 DUP4 ADD MSTORE SWAP1 MLOAD PUSH32 0x1408158D52D7D739E0848C588738E9B79917E2773E51C49FF4544E3E6A538F8C SWAP2 DUP2 SWAP1 SUB PUSH1 0x60 ADD SWAP1 LOG1 PUSH1 0x40 MLOAD DUP2 DUP2 MSTORE PUSH1 0x0 DUP1 MLOAD PUSH1 0x20 PUSH2 0x1663 DUP4 CODECOPY DUP2 MLOAD SWAP2 MSTORE SWAP1 PUSH1 0x20 ADD PUSH2 0xF36 JUMP JUMPDEST PUSH2 0x1361 PUSH2 0x13F0 JUMP JUMPDEST PUSH1 0x2 PUSH1 0x0 DUP1 MLOAD PUSH1 0x20 PUSH2 0x1683 DUP4 CODECOPY DUP2 MLOAD SWAP2 MSTORE SSTORE JUMP JUMPDEST PUSH2 0x1383 DUP5 DUP5 DUP5 DUP5 PUSH1 0x1 PUSH2 0x1422 JUMP JUMPDEST PUSH2 0x13B0 JUMPI PUSH1 0x40 MLOAD PUSH4 0x5274AFE7 PUSH1 0xE0 SHL DUP2 MSTORE PUSH1 0x1 PUSH1 0x1 PUSH1 0xA0 SHL SUB DUP6 AND PUSH1 0x4 DUP3 ADD MSTORE PUSH1 0x24 ADD JUMPDEST PUSH1 0x40 MLOAD DUP1 SWAP2 SUB SWAP1 REVERT JUMPDEST POP POP POP POP JUMP JUMPDEST PUSH2 0x13C3 DUP4 DUP4 DUP4 PUSH1 0x1 PUSH2 0x1494 JUMP JUMPDEST PUSH2 0x13EB JUMPI PUSH1 0x40 MLOAD PUSH4 0x5274AFE7 PUSH1 0xE0 SHL DUP2 MSTORE PUSH1 0x1 PUSH1 0x1 PUSH1 0xA0 SHL SUB DUP5 AND PUSH1 0x4 DUP3 ADD MSTORE PUSH1 0x24 ADD PUSH2 0x13A7 JUMP JUMPDEST POP POP POP JUMP JUMPDEST PUSH1 0x0 DUP1 MLOAD PUSH1 0x20 PUSH2 0x1683 DUP4 CODECOPY DUP2 MLOAD SWAP2 MSTORE SLOAD PUSH1 0x2 SUB PUSH2 0x1420 JUMPI PUSH1 0x40 MLOAD PUSH4 0x3EE5AEB5 PUSH1 0xE0 SHL DUP2 MSTORE PUSH1 0x4 ADD PUSH1 0x40 MLOAD DUP1 SWAP2 SUB SWAP1 REVERT JUMPDEST JUMP JUMPDEST PUSH1 0x40 MLOAD PUSH4 0x23B872DD PUSH1 0xE0 SHL PUSH1 0x0 DUP2 DUP2 MSTORE PUSH1 0x1 PUSH1 0x1 PUSH1 0xA0 SHL SUB DUP8 DUP2 AND PUSH1 0x4 MSTORE DUP7 AND PUSH1 0x24 MSTORE PUSH1 0x44 DUP6 SWAP1 MSTORE SWAP2 PUSH1 0x20 DUP4 PUSH1 0x64 DUP2 DUP1 DUP13 GAS CALL SWAP3 POP PUSH1 0x1 PUSH1 0x0 MLOAD EQ DUP4 AND PUSH2 0x1482 JUMPI DUP4 DUP4 ISZERO AND ISZERO PUSH2 0x1475 JUMPI RETURNDATASIZE PUSH1 0x0 DUP3 RETURNDATACOPY RETURNDATASIZE DUP2 REVERT JUMPDEST PUSH1 0x0 DUP9 EXTCODESIZE GT RETURNDATASIZE ISZERO AND DUP4 AND SWAP3 POP JUMPDEST PUSH1 0x40 MSTORE POP PUSH1 0x0 PUSH1 0x60 MSTORE SWAP6 SWAP5 POP POP POP POP POP JUMP JUMPDEST PUSH1 0x40 MLOAD PUSH4 0xA9059CBB PUSH1 0xE0 SHL PUSH1 0x0 DUP2 DUP2 MSTORE PUSH1 0x1 PUSH1 0x1 PUSH1 0xA0 SHL SUB DUP7 AND PUSH1 0x4 MSTORE PUSH1 0x24 DUP6 SWAP1 MSTORE SWAP2 PUSH1 0x20 DUP4 PUSH1 0x44 DUP2 DUP1 DUP12 GAS CALL SWAP3 POP PUSH1 0x1 PUSH1 0x0 MLOAD EQ DUP4 AND PUSH2 0x14EE JUMPI DUP4 DUP4 ISZERO AND ISZERO PUSH2 0x14E1 JUMPI RETURNDATASIZE PUSH1 0x0 DUP3 RETURNDATACOPY RETURNDATASIZE DUP2 REVERT JUMPDEST PUSH1 0x0 DUP8 EXTCODESIZE GT RETURNDATASIZE ISZERO AND DUP4 AND SWAP3 POP JUMPDEST PUSH1 0x40 MSTORE POP SWAP5 SWAP4 POP POP POP POP JUMP JUMPDEST PUSH1 0x0 PUSH1 0x20 DUP3 DUP5 SUB SLT ISZERO PUSH2 0x150C JUMPI PUSH1 0x0 DUP1 REVERT JUMPDEST POP CALLDATALOAD SWAP2 SWAP1 POP JUMP JUMPDEST PUSH1 0x0 DUP1 PUSH1 0x40 DUP4 DUP6 SUB SLT ISZERO PUSH2 0x1526 JUMPI PUSH1 0x0 DUP1 REVERT JUMPDEST POP POP DUP1 CALLDATALOAD SWAP3 PUSH1 0x20 SWAP1 SWAP2 ADD CALLDATALOAD SWAP2 POP JUMP JUMPDEST DUP1 CALLDATALOAD PUSH1 0x1 PUSH1 0x1 PUSH1 0xA0 SHL SUB DUP2 AND DUP2 EQ PUSH2 0x622 JUMPI PUSH1 0x0 DUP1 REVERT JUMPDEST PUSH1 0x0 DUP1 PUSH1 0x0 PUSH1 0x60 DUP5 DUP7 SUB SLT ISZERO PUSH2 0x1561 JUMPI PUSH1 0x0 DUP1 REVERT JUMPDEST PUSH2 0x156A DUP5 PUSH2 0x1535 JUMP JUMPDEST SWAP3 POP PUSH2 0x1578 PUSH1 0x20 DUP6 ADD PUSH2 0x1535 JUMP JUMPDEST SWAP2 POP PUSH2 0x1586 PUSH1 0x40 DUP6 ADD PUSH2 0x1535 JUMP JUMPDEST SWAP1 POP SWAP3 POP SWAP3 POP SWAP3 JUMP JUMPDEST PUSH1 0x0 DUP1 PUSH1 0x40 DUP4 DUP6 SUB SLT ISZERO PUSH2 0x15A2 JUMPI PUSH1 0x0 DUP1 REVERT JUMPDEST DUP3 CALLDATALOAD SWAP2 POP PUSH2 0x15B2 PUSH1 0x20 DUP5 ADD PUSH2 0x1535 JUMP JUMPDEST SWAP1 POP SWAP3 POP SWAP3 SWAP1 POP JUMP JUMPDEST PUSH4 0x4E487B71 PUSH1 0xE0 SHL PUSH1 0x0 MSTORE PUSH1 0x11 PUSH1 0x4 MSTORE PUSH1 0x24 PUSH1 0x0 REVERT JUMPDEST DUP1 DUP3 ADD DUP1 DUP3 GT ISZERO PUSH2 0x99C JUMPI PUSH2 0x99C PUSH2 0x15BB JUMP JUMPDEST DUP1 DUP3 MUL DUP2 ISZERO DUP3 DUP3 DIV DUP5 EQ OR PUSH2 0x99C JUMPI PUSH2 0x99C PUSH2 0x15BB JUMP JUMPDEST PUSH1 0x0 DUP3 PUSH2 0x1618 JUMPI PUSH4 0x4E487B71 PUSH1 0xE0 SHL PUSH1 0x0 MSTORE PUSH1 0x12 PUSH1 0x4 MSTORE PUSH1 0x24 PUSH1 0x0 REVERT JUMPDEST POP DIV SWAP1 JUMP JUMPDEST PUSH1 0x0 PUSH1 0x20 DUP3 DUP5 SUB SLT ISZERO PUSH2 0x162F JUMPI PUSH1 0x0 DUP1 REVERT JUMPDEST POP MLOAD SWAP2 SWAP1 POP JUMP JUMPDEST DUP2 DUP2 SUB DUP2 DUP2 GT ISZERO PUSH2 0x99C JUMPI PUSH2 0x99C PUSH2 0x15BB JUMP JUMPDEST PUSH1 0x0 PUSH1 0x1 DUP3 ADD PUSH2 0x165B JUMPI PUSH2 0x165B PUSH2 0x15BB JUMP JUMPDEST POP PUSH1 0x1 ADD SWAP1 JUMP INVALID PUSH7 0xCBCA4F3C64FECF SAR 0xCB SWAP13 0xE0 SWAP5 0xAB 0xCF PUSH32 0x68C3450A1D4E3A8E917DD621EDB4EBE09B779B17422D0DF92223018B32B4D1FA CHAINID 0xE0 PUSH18 0x723D6817E2486D003BECC55F00A264697066 PUSH20 0x5822122060885AEEA4C7ED16F34B79C377D5A8EA SWAP11 RETURN SLOAD PUSH27 0x3D56D877B37271FEF8BCD94B64736F6C6343000818003300000000 "},"methodIdentifiers":{"addInitialLiquidity(uint256,uint256)":"a40f4fa1","addLiquidityFromFees(uint256)":"ee3b038f","admin()":"f851a440","completeSetup()":"8aea8f71","configure(address,address,address)":"55d28f20","getOSLOForUSDTOutput(uint256)":"a7978031","getPrice()":"98d5fdca","getReserves()":"0902f1ac","getUSDTForOSLOOutput(uint256)":"47aa7ea4","investmentEngine()":"30131384","lastPrice()":"053f14da","liquidityManager()":"33827438","osloReserve()":"a1e26e7b","osloToken()":"2acfbca3","processDeposit(uint256)":"0cc2055a","processWithdrawal(uint256,address)":"f843e641","setupComplete()":"b6635be6","swapOSLOForUSDT(uint256,uint256)":"30cf2aeb","swapUSDTForOSLO(uint256,uint256)":"c2c90687","timelock()":"d33219b4","totalSwaps()":"b4a800ce","totalVolumeUSDT()":"83bbdd5f","usdt()":"2f48ab7d","usdtReserve()":"ac257a6e"}}}}}