{"contracts/OSLORankSystem.sol":{"OSLORankSystem":{"abi":[{"inputs":[{"internalType":"address","name":"_usdt","type":"address"}],"stateMutability":"nonpayable","type":"constructor"},{"inputs":[],"name":"AlreadyClaimed","type":"error"},{"inputs":[],"name":"CurrentWeekNotClaimable","type":"error"},{"inputs":[],"name":"InsufficientBonusPool","type":"error"},{"inputs":[],"name":"NoBonus","type":"error"},{"inputs":[],"name":"OnlyAdmin","type":"error"},{"inputs":[],"name":"ReentrancyGuardReentrantCall","type":"error"},{"inputs":[{"internalType":"address","name":"token","type":"address"}],"name":"SafeERC20FailedOperation","type":"error"},{"inputs":[],"name":"SetupAlreadyComplete","type":"error"},{"inputs":[],"name":"ZeroAddress","type":"error"},{"anonymous":false,"inputs":[{"indexed":false,"internalType":"uint256","name":"amount","type":"uint256"}],"name":"BonusPoolFunded","type":"event"},{"anonymous":false,"inputs":[{"indexed":true,"internalType":"address","name":"user","type":"address"},{"indexed":false,"internalType":"uint256","name":"rank","type":"uint256"},{"indexed":false,"internalType":"uint256","name":"weekId","type":"uint256"},{"indexed":false,"internalType":"uint256","name":"turnover","type":"uint256"}],"name":"RankAchieved","type":"event"},{"anonymous":false,"inputs":[{"indexed":true,"internalType":"address","name":"user","type":"address"},{"indexed":false,"internalType":"uint256","name":"amount","type":"uint256"},{"indexed":false,"internalType":"uint256","name":"weekId","type":"uint256"}],"name":"RankBonusClaimed","type":"event"},{"anonymous":false,"inputs":[{"indexed":true,"internalType":"address","name":"user","type":"address"},{"indexed":false,"internalType":"uint256","name":"amount","type":"uint256"},{"indexed":false,"internalType":"uint256","name":"weekId","type":"uint256"}],"name":"TurnoverRecorded","type":"event"},{"inputs":[],"name":"admin","outputs":[{"internalType":"address","name":"","type":"address"}],"stateMutability":"view","type":"function"},{"inputs":[],"name":"bonusPoolBalance","outputs":[{"internalType":"uint256","name":"","type":"uint256"}],"stateMutability":"view","type":"function"},{"inputs":[],"name":"claimRankBonus","outputs":[],"stateMutability":"nonpayable","type":"function"},{"inputs":[],"name":"completeSetup","outputs":[],"stateMutability":"nonpayable","type":"function"},{"inputs":[{"internalType":"address","name":"_investmentEngine","type":"address"},{"internalType":"address","name":"_referral","type":"address"},{"internalType":"address","name":"_timelock","type":"address"}],"name":"configure","outputs":[],"stateMutability":"nonpayable","type":"function"},{"inputs":[],"name":"genesisTimestamp","outputs":[{"internalType":"uint256","name":"","type":"uint256"}],"stateMutability":"view","type":"function"},{"inputs":[{"internalType":"address","name":"user","type":"address"}],"name":"getCurrentRank","outputs":[{"internalType":"uint256","name":"","type":"uint256"}],"stateMutability":"view","type":"function"},{"inputs":[],"name":"getCurrentWeekId","outputs":[{"internalType":"uint256","name":"","type":"uint256"}],"stateMutability":"view","type":"function"},{"inputs":[{"internalType":"address","name":"user","type":"address"},{"internalType":"uint256","name":"weekId","type":"uint256"},{"internalType":"address","name":"leg","type":"address"}],"name":"getLegTurnover","outputs":[{"internalType":"uint256","name":"","type":"uint256"}],"stateMutability":"view","type":"function"},{"inputs":[{"internalType":"address","name":"user","type":"address"}],"name":"getPendingBonus","outputs":[{"internalType":"uint256","name":"","type":"uint256"}],"stateMutability":"view","type":"function"},{"inputs":[{"internalType":"address","name":"user","type":"address"},{"internalType":"uint256","name":"weekId","type":"uint256"}],"name":"getWeeklyTurnover","outputs":[{"internalType":"uint256","name":"","type":"uint256"}],"stateMutability":"view","type":"function"},{"inputs":[],"name":"investmentEngine","outputs":[{"internalType":"address","name":"","type":"address"}],"stateMutability":"view","type":"function"},{"inputs":[{"internalType":"address","name":"user","type":"address"}],"name":"isRankQualified","outputs":[{"internalType":"bool","name":"","type":"bool"}],"stateMutability":"view","type":"function"},{"inputs":[{"internalType":"address","name":"","type":"address"},{"internalType":"uint256","name":"","type":"uint256"},{"internalType":"address","name":"","type":"address"}],"name":"legTurnover","outputs":[{"internalType":"uint256","name":"","type":"uint256"}],"stateMutability":"view","type":"function"},{"inputs":[{"internalType":"uint256","name":"amount","type":"uint256"}],"name":"receiveBonusPool","outputs":[],"stateMutability":"nonpayable","type":"function"},{"inputs":[{"internalType":"address","name":"user","type":"address"},{"internalType":"address","name":"leg","type":"address"},{"internalType":"uint256","name":"amount","type":"uint256"}],"name":"recordTurnover","outputs":[],"stateMutability":"nonpayable","type":"function"},{"inputs":[],"name":"referral","outputs":[{"internalType":"address","name":"","type":"address"}],"stateMutability":"view","type":"function"},{"inputs":[],"name":"setupComplete","outputs":[{"internalType":"bool","name":"","type":"bool"}],"stateMutability":"view","type":"function"},{"inputs":[],"name":"timelock","outputs":[{"internalType":"address","name":"","type":"address"}],"stateMutability":"view","type":"function"},{"inputs":[],"name":"totalBonusesDistributed","outputs":[{"internalType":"uint256","name":"","type":"uint256"}],"stateMutability":"view","type":"function"},{"inputs":[],"name":"usdt","outputs":[{"internalType":"contract IERC20","name":"","type":"address"}],"stateMutability":"view","type":"function"},{"inputs":[{"internalType":"address","name":"","type":"address"},{"internalType":"uint256","name":"","type":"uint256"}],"name":"weekBonusClaimed","outputs":[{"internalType":"bool","name":"","type":"bool"}],"stateMutability":"view","type":"function"},{"inputs":[{"internalType":"address","name":"","type":"address"},{"internalType":"uint256","name":"","type":"uint256"}],"name":"weeklyTurnoverData","outputs":[{"internalType":"uint256","name":"","type":"uint256"}],"stateMutability":"view","type":"function"}],"evm":{"bytecode":{"linkReferences":{},"object":"60c060405234801561001057600080fd5b5060405161136d38038061136d83398101604081905261002f916100a5565b60017f9b779b17422d0df92223018b32b4d1fa46e071723d6817e2486d003becc55f00556001600160a01b03811661007a5760405163d92e233d60e01b815260040160405180910390fd5b6001600160a01b0316608052600280546001600160a01b03191633179055636592008060a0526100d5565b6000602082840312156100b757600080fd5b81516001600160a01b03811681146100ce57600080fd5b9392505050565b60805160a05161125e61010f6000396000818161034001526109000152600081816101b1015281816104a20152610750015261125e6000f3fe608060405234801561001057600080fd5b506004361061014d5760003560e01c80638b19d70e116100c3578063cacf66ab1161007c578063cacf66ab1461033b578063d31725cc14610362578063d33219b41461036b578063d9bd5f2d1461037e578063f851a44014610391578063fc22833e146103a457600080fd5b80638b19d70e14610295578063952d4c011461029d578063b594b0c7146102cb578063b6635be6146102de578063b835f389146102f2578063bcd3321e1461033357600080fd5b8063301313841161011557806330131384146101f657806355d28f201461020957806357cecd8b1461021e5780635b6bcf3b14610249578063886975471461027a5780638aea8f711461028d57600080fd5b80631441a5a9146101525780632409c9a91461018257806329e9ad82146101a35780632f48ab7d146101ac5780632fe3c0cc146101d3575b600080fd5b600154610165906001600160a01b031681565b6040516001600160a01b0390911681526020015b60405180910390f35b610195610190366004610f8d565b6103b7565b604051908152602001610179565b61019560075481565b6101657f000000000000000000000000000000000000000000000000000000000000000081565b6101e66101e1366004610fb9565b6103e2565b6040519015158152602001610179565b600054610165906001600160a01b031681565b61021c610217366004610fd6565b610400565b005b61019561022c366004610f8d565b600460209081526000928352604080842090915290825290205481565b610195610257366004611021565b600560209081526000938452604080852082529284528284209052825290205481565b61021c610288366004611058565b610495565b61021c610517565b61021c610592565b6101e66102ab366004610f8d565b600660209081526000928352604080842090915290825290205460ff1681565b6101956102d9366004610fb9565b61089c565b6003546101e690600160a01b900460ff1681565b610195610300366004611021565b6001600160a01b039283166000908152600560209081526040808320948352938152838220929094168152925290205490565b6101956108f5565b6101957f000000000000000000000000000000000000000000000000000000000000000081565b61019560085481565b600354610165906001600160a01b031681565b61021c61038c366004611071565b61093f565b600254610165906001600160a01b031681565b6101956103b2366004610fb9565b610a14565b6001600160a01b03821660009081526004602090815260408083208484529091529020545b92915050565b6000806103ed6108f5565b90506103f98382610b03565b9392505050565b6002546001600160a01b0316331461042b57604051634755657960e01b815260040160405180910390fd5b600354600160a01b900460ff16156104565760405163238f75d360e01b815260040160405180910390fd5b600080546001600160a01b039485166001600160a01b031991821617909155600180549385169382169390931790925560038054919093169116179055565b6104ca6001600160a01b037f000000000000000000000000000000000000000000000000000000000000000016333084610c86565b80600760008282546104dc91906110c8565b90915550506040518181527fe0489ce487df31ae7db1f183cd20f4589bfa5715c26827c41e89d4a4b11e4b079060200160405180910390a150565b6002546001600160a01b0316331461054257604051634755657960e01b815260040160405180910390fd5b600354600160a01b900460ff161561056d5760405163238f75d360e01b815260040160405180910390fd5b6003805460ff60a01b1916600160a01b179055600280546001600160a01b0319169055565b61059a610cc7565b60006105a46108f5565b905060006105b36001836110db565b9050806000036105d657604051630330b36160e21b815260040160405180910390fd5b33600090815260066020908152604080832084845290915290205460ff161561061257604051630c8d9eab60e31b815260040160405180910390fd5b61061c3382610b03565b61063957604051630330b36160e21b815260040160405180910390fd5b3360009081526004602090815260408083208484529091528120549061065e82610cf5565b90508060000361068157604051630330b36160e21b815260040160405180910390fd5b600061068c82610daf565b9050600061271061069d83866110ee565b6106a79190611105565b9050806000036106ca57604051630330b36160e21b815260040160405180910390fd5b6007548111156106ed57604051631476485760e31b815260040160405180910390fd5b3360009081526006602090815260408083208884529091528120805460ff19166001179055600780548392906107249084906110db565b92505081905550806008600082825461073d91906110c8565b9091555061077790506001600160a01b037f0000000000000000000000000000000000000000000000000000000000000000163383610e21565b6000546001600160a01b0316156107ed5760005460405163ac948e8360e01b8152336004820152602481018390526001600160a01b039091169063ac948e8390604401600060405180830381600087803b1580156107d457600080fd5b505af11580156107e8573d6000803e3d6000fd5b505050505b604080518481526020810187905290810185905233907f3e7c6fa8ffec4566e8e55031ea1f71dee2bd6dfe73e926dfb6a8f9d449f3845c9060600160405180910390a2604080518281526020810187905233917fd5797264912088cd40b5265cc25f087a017182a84a0aacdca76ebbf8c0d04e89910160405180910390a250505050505061089a60017f9b779b17422d0df92223018b32b4d1fa46e071723d6817e2486d003becc55f0055565b565b6000806108a76108f5565b90506108b38382610b03565b6108c05750600092915050565b6001600160a01b03831660009081526004602090815260408083208484529091529020546108ed81610cf5565b949350505050565b600062093a806109257f0000000000000000000000000000000000000000000000000000000000000000426110db565b61092f9190611105565b61093a9060016110c8565b905090565b60006109496108f5565b6001600160a01b03851660009081526004602090815260408083208484529091528120805492935084929091906109819084906110c8565b90915550506001600160a01b0380851660009081526005602090815260408083208584528252808320938716835292905290812080548492906109c59084906110c8565b909155505060408051838152602081018390526001600160a01b038616917fd5d37757267f0f02fe273b0ead41331fe90ae635b0954da937d3454e9623daf4910160405180910390a250505050565b600080610a1f6108f5565b905060018111610a325750600092915050565b6000610a3f6001836110db565b6001600160a01b038516600090815260066020908152604080832084845290915290205490915060ff1615610a78575060009392505050565b610a828482610b03565b610a90575060009392505050565b6001600160a01b038416600090815260046020908152604080832084845290915281205490610abe82610cf5565b905080600003610ad45750600095945050505050565b6000610adf82610daf565b9050612710610aee82856110ee565b610af89190611105565b979650505050505050565b6001600160a01b0382166000908152600460209081526040808320848452909152812054808203610b385760009150506103dc565b6001546001600160a01b0316610b525760019150506103dc565b60015460405163d2c8e0e560e01b81526001600160a01b038681166004830152600092169063d2c8e0e590602401600060405180830381865afa158015610b9d573d6000803e3d6000fd5b505050506040513d6000823e601f3d908101601f19168201604052610bc5919081019061114d565b90508051600003610bdb576000925050506103dc565b6000805b8251811015610c61576001600160a01b0387166000908152600560209081526040808320898452909152812084518290869085908110610c2157610c21611212565b60200260200101516001600160a01b03166001600160a01b0316815260200190815260200160002054905082811115610c58578092505b50600101610bdf565b50610c6e610fa0846110ee565b610c7a612710836110ee565b11159695505050505050565b610c94848484846001610e5b565b610cc157604051635274afe760e01b81526001600160a01b03851660048201526024015b60405180910390fd5b50505050565b610ccf610ecd565b60027f9b779b17422d0df92223018b32b4d1fa46e071723d6817e2486d003becc55f0055565b60006a02116545850052128000008210610d1157506007919050565b69fe1c215e8f838e0000008210610d2a57506006919050565b6969e10de76676d08000008210610d4357506005919050565b692a5a058fc295ed0000008210610d5c57506004919050565b690fe1c215e8f838e000008210610d7557506003919050565b69054b40b1f852bda000008210610d8e57506002919050565b69021e19e0c9bab24000008210610da757506001919050565b506000919050565b600081600703610dc157506005919050565b81600603610dd15750600a919050565b81600503610de15750600f919050565b81600403610df157506014919050565b81600303610e015750601e919050565b81600203610e1157506032919050565b81600103610da757506064919050565b610e2e8383836001610f0f565b610e5657604051635274afe760e01b81526001600160a01b0384166004820152602401610cb8565b505050565b6040516323b872dd60e01b60008181526001600160a01b038781166004528616602452604485905291602083606481808c5af192506001600051148316610ebb578383151615610eae573d6000823e3d81fd5b6000883b113d1516831692505b60405250600060605295945050505050565b7f9b779b17422d0df92223018b32b4d1fa46e071723d6817e2486d003becc55f005460020361089a57604051633ee5aeb560e01b815260040160405180910390fd5b60405163a9059cbb60e01b60008181526001600160a01b038616600452602485905291602083604481808b5af192506001600051148316610f69578383151615610f5c573d6000823e3d81fd5b6000873b113d1516831692505b60405250949350505050565b6001600160a01b0381168114610f8a57600080fd5b50565b60008060408385031215610fa057600080fd5b8235610fab81610f75565b946020939093013593505050565b600060208284031215610fcb57600080fd5b81356103f981610f75565b600080600060608486031215610feb57600080fd5b8335610ff681610f75565b9250602084013561100681610f75565b9150604084013561101681610f75565b809150509250925092565b60008060006060848603121561103657600080fd5b833561104181610f75565b925060208401359150604084013561101681610f75565b60006020828403121561106a57600080fd5b5035919050565b60008060006060848603121561108657600080fd5b833561109181610f75565b925060208401356110a181610f75565b929592945050506040919091013590565b634e487b7160e01b600052601160045260246000fd5b808201808211156103dc576103dc6110b2565b818103818111156103dc576103dc6110b2565b80820281158282048414176103dc576103dc6110b2565b60008261112257634e487b7160e01b600052601260045260246000fd5b500490565b634e487b7160e01b600052604160045260246000fd5b805161114881610f75565b919050565b6000602080838503121561116057600080fd5b825167ffffffffffffffff8082111561117857600080fd5b818501915085601f83011261118c57600080fd5b81518181111561119e5761119e611127565b8060051b604051601f19603f830116810181811085821117156111c3576111c3611127565b6040529182528482019250838101850191888311156111e157600080fd5b938501935b82851015611206576111f78561113d565b845293850193928501926111e6565b98975050505050505050565b634e487b7160e01b600052603260045260246000fdfea26469706673582212204be3e3fd75ee269b6f2512b6ab6e756c63b30f4664165d1ff8bc1716b10bbf9464736f6c63430008180033","opcodes":"PUSH1 0xC0 PUSH1 0x40 MSTORE CALLVALUE DUP1 ISZERO PUSH2 0x10 JUMPI PUSH1 0x0 DUP1 REVERT JUMPDEST POP PUSH1 0x40 MLOAD PUSH2 0x136D CODESIZE SUB DUP1 PUSH2 0x136D DUP4 CODECOPY DUP2 ADD PUSH1 0x40 DUP2 SWAP1 MSTORE PUSH2 0x2F SWAP2 PUSH2 0xA5 JUMP JUMPDEST PUSH1 0x1 PUSH32 0x9B779B17422D0DF92223018B32B4D1FA46E071723D6817E2486D003BECC55F00 SSTORE PUSH1 0x1 PUSH1 0x1 PUSH1 0xA0 SHL SUB DUP2 AND PUSH2 0x7A JUMPI PUSH1 0x40 MLOAD PUSH4 0xD92E233D PUSH1 0xE0 SHL DUP2 MSTORE PUSH1 0x4 ADD PUSH1 0x40 MLOAD DUP1 SWAP2 SUB SWAP1 REVERT JUMPDEST PUSH1 0x1 PUSH1 0x1 PUSH1 0xA0 SHL SUB AND PUSH1 0x80 MSTORE PUSH1 0x2 DUP1 SLOAD PUSH1 0x1 PUSH1 0x1 PUSH1 0xA0 SHL SUB NOT AND CALLER OR SWAP1 SSTORE PUSH4 0x65920080 PUSH1 0xA0 MSTORE PUSH2 0xD5 JUMP JUMPDEST PUSH1 0x0 PUSH1 0x20 DUP3 DUP5 SUB SLT ISZERO PUSH2 0xB7 JUMPI PUSH1 0x0 DUP1 REVERT JUMPDEST DUP2 MLOAD PUSH1 0x1 PUSH1 0x1 PUSH1 0xA0 SHL SUB DUP2 AND DUP2 EQ PUSH2 0xCE JUMPI PUSH1 0x0 DUP1 REVERT JUMPDEST SWAP4 SWAP3 POP POP POP JUMP JUMPDEST PUSH1 0x80 MLOAD PUSH1 0xA0 MLOAD PUSH2 0x125E PUSH2 0x10F PUSH1 0x0 CODECOPY PUSH1 0x0 DUP2 DUP2 PUSH2 0x340 ADD MSTORE PUSH2 0x900 ADD MSTORE PUSH1 0x0 DUP2 DUP2 PUSH2 0x1B1 ADD MSTORE DUP2 DUP2 PUSH2 0x4A2 ADD MSTORE PUSH2 0x750 ADD MSTORE PUSH2 0x125E PUSH1 0x0 RETURN INVALID PUSH1 0x80 PUSH1 0x40 MSTORE CALLVALUE DUP1 ISZERO PUSH2 0x10 JUMPI PUSH1 0x0 DUP1 REVERT JUMPDEST POP PUSH1 0x4 CALLDATASIZE LT PUSH2 0x14D JUMPI PUSH1 0x0 CALLDATALOAD PUSH1 0xE0 SHR DUP1 PUSH4 0x8B19D70E GT PUSH2 0xC3 JUMPI DUP1 PUSH4 0xCACF66AB GT PUSH2 0x7C JUMPI DUP1 PUSH4 0xCACF66AB EQ PUSH2 0x33B JUMPI DUP1 PUSH4 0xD31725CC EQ PUSH2 0x362 JUMPI DUP1 PUSH4 0xD33219B4 EQ PUSH2 0x36B JUMPI DUP1 PUSH4 0xD9BD5F2D EQ PUSH2 0x37E JUMPI DUP1 PUSH4 0xF851A440 EQ PUSH2 0x391 JUMPI DUP1 PUSH4 0xFC22833E EQ PUSH2 0x3A4 JUMPI PUSH1 0x0 DUP1 REVERT JUMPDEST DUP1 PUSH4 0x8B19D70E EQ PUSH2 0x295 JUMPI DUP1 PUSH4 0x952D4C01 EQ PUSH2 0x29D JUMPI DUP1 PUSH4 0xB594B0C7 EQ PUSH2 0x2CB JUMPI DUP1 PUSH4 0xB6635BE6 EQ PUSH2 0x2DE JUMPI DUP1 PUSH4 0xB835F389 EQ PUSH2 0x2F2 JUMPI DUP1 PUSH4 0xBCD3321E EQ PUSH2 0x333 JUMPI PUSH1 0x0 DUP1 REVERT JUMPDEST DUP1 PUSH4 0x30131384 GT PUSH2 0x115 JUMPI DUP1 PUSH4 0x30131384 EQ PUSH2 0x1F6 JUMPI DUP1 PUSH4 0x55D28F20 EQ PUSH2 0x209 JUMPI DUP1 PUSH4 0x57CECD8B EQ PUSH2 0x21E JUMPI DUP1 PUSH4 0x5B6BCF3B EQ PUSH2 0x249 JUMPI DUP1 PUSH4 0x88697547 EQ PUSH2 0x27A JUMPI DUP1 PUSH4 0x8AEA8F71 EQ PUSH2 0x28D JUMPI PUSH1 0x0 DUP1 REVERT JUMPDEST DUP1 PUSH4 0x1441A5A9 EQ PUSH2 0x152 JUMPI DUP1 PUSH4 0x2409C9A9 EQ PUSH2 0x182 JUMPI DUP1 PUSH4 0x29E9AD82 EQ PUSH2 0x1A3 JUMPI DUP1 PUSH4 0x2F48AB7D EQ PUSH2 0x1AC JUMPI DUP1 PUSH4 0x2FE3C0CC EQ PUSH2 0x1D3 JUMPI JUMPDEST PUSH1 0x0 DUP1 REVERT JUMPDEST PUSH1 0x1 SLOAD PUSH2 0x165 SWAP1 PUSH1 0x1 PUSH1 0x1 PUSH1 0xA0 SHL SUB AND DUP2 JUMP JUMPDEST PUSH1 0x40 MLOAD PUSH1 0x1 PUSH1 0x1 PUSH1 0xA0 SHL SUB SWAP1 SWAP2 AND DUP2 MSTORE PUSH1 0x20 ADD JUMPDEST PUSH1 0x40 MLOAD DUP1 SWAP2 SUB SWAP1 RETURN JUMPDEST PUSH2 0x195 PUSH2 0x190 CALLDATASIZE PUSH1 0x4 PUSH2 0xF8D JUMP JUMPDEST PUSH2 0x3B7 JUMP JUMPDEST PUSH1 0x40 MLOAD SWAP1 DUP2 MSTORE PUSH1 0x20 ADD PUSH2 0x179 JUMP JUMPDEST PUSH2 0x195 PUSH1 0x7 SLOAD DUP2 JUMP JUMPDEST PUSH2 0x165 PUSH32 0x0 DUP2 JUMP JUMPDEST PUSH2 0x1E6 PUSH2 0x1E1 CALLDATASIZE PUSH1 0x4 PUSH2 0xFB9 JUMP JUMPDEST PUSH2 0x3E2 JUMP JUMPDEST PUSH1 0x40 MLOAD SWAP1 ISZERO ISZERO DUP2 MSTORE PUSH1 0x20 ADD PUSH2 0x179 JUMP JUMPDEST PUSH1 0x0 SLOAD PUSH2 0x165 SWAP1 PUSH1 0x1 PUSH1 0x1 PUSH1 0xA0 SHL SUB AND DUP2 JUMP JUMPDEST PUSH2 0x21C PUSH2 0x217 CALLDATASIZE PUSH1 0x4 PUSH2 0xFD6 JUMP JUMPDEST PUSH2 0x400 JUMP JUMPDEST STOP JUMPDEST PUSH2 0x195 PUSH2 0x22C CALLDATASIZE PUSH1 0x4 PUSH2 0xF8D JUMP JUMPDEST PUSH1 0x4 PUSH1 0x20 SWAP1 DUP2 MSTORE PUSH1 0x0 SWAP3 DUP4 MSTORE PUSH1 0x40 DUP1 DUP5 KECCAK256 SWAP1 SWAP2 MSTORE SWAP1 DUP3 MSTORE SWAP1 KECCAK256 SLOAD DUP2 JUMP JUMPDEST PUSH2 0x195 PUSH2 0x257 CALLDATASIZE PUSH1 0x4 PUSH2 0x1021 JUMP JUMPDEST PUSH1 0x5 PUSH1 0x20 SWAP1 DUP2 MSTORE PUSH1 0x0 SWAP4 DUP5 MSTORE PUSH1 0x40 DUP1 DUP6 KECCAK256 DUP3 MSTORE SWAP3 DUP5 MSTORE DUP3 DUP5 KECCAK256 SWAP1 MSTORE DUP3 MSTORE SWAP1 KECCAK256 SLOAD DUP2 JUMP JUMPDEST PUSH2 0x21C PUSH2 0x288 CALLDATASIZE PUSH1 0x4 PUSH2 0x1058 JUMP JUMPDEST PUSH2 0x495 JUMP JUMPDEST PUSH2 0x21C PUSH2 0x517 JUMP JUMPDEST PUSH2 0x21C PUSH2 0x592 JUMP JUMPDEST PUSH2 0x1E6 PUSH2 0x2AB CALLDATASIZE PUSH1 0x4 PUSH2 0xF8D JUMP JUMPDEST PUSH1 0x6 PUSH1 0x20 SWAP1 DUP2 MSTORE PUSH1 0x0 SWAP3 DUP4 MSTORE PUSH1 0x40 DUP1 DUP5 KECCAK256 SWAP1 SWAP2 MSTORE SWAP1 DUP3 MSTORE SWAP1 KECCAK256 SLOAD PUSH1 0xFF AND DUP2 JUMP JUMPDEST PUSH2 0x195 PUSH2 0x2D9 CALLDATASIZE PUSH1 0x4 PUSH2 0xFB9 JUMP JUMPDEST PUSH2 0x89C JUMP JUMPDEST PUSH1 0x3 SLOAD PUSH2 0x1E6 SWAP1 PUSH1 0x1 PUSH1 0xA0 SHL SWAP1 DIV PUSH1 0xFF AND DUP2 JUMP JUMPDEST PUSH2 0x195 PUSH2 0x300 CALLDATASIZE PUSH1 0x4 PUSH2 0x1021 JUMP JUMPDEST PUSH1 0x1 PUSH1 0x1 PUSH1 0xA0 SHL SUB SWAP3 DUP4 AND PUSH1 0x0 SWAP1 DUP2 MSTORE PUSH1 0x5 PUSH1 0x20 SWAP1 DUP2 MSTORE PUSH1 0x40 DUP1 DUP4 KECCAK256 SWAP5 DUP4 MSTORE SWAP4 DUP2 MSTORE DUP4 DUP3 KECCAK256 SWAP3 SWAP1 SWAP5 AND DUP2 MSTORE SWAP3 MSTORE SWAP1 KECCAK256 SLOAD SWAP1 JUMP JUMPDEST PUSH2 0x195 PUSH2 0x8F5 JUMP JUMPDEST PUSH2 0x195 PUSH32 0x0 DUP2 JUMP JUMPDEST PUSH2 0x195 PUSH1 0x8 SLOAD DUP2 JUMP JUMPDEST PUSH1 0x3 SLOAD PUSH2 0x165 SWAP1 PUSH1 0x1 PUSH1 0x1 PUSH1 0xA0 SHL SUB AND DUP2 JUMP JUMPDEST PUSH2 0x21C PUSH2 0x38C CALLDATASIZE PUSH1 0x4 PUSH2 0x1071 JUMP JUMPDEST PUSH2 0x93F JUMP JUMPDEST PUSH1 0x2 SLOAD PUSH2 0x165 SWAP1 PUSH1 0x1 PUSH1 0x1 PUSH1 0xA0 SHL SUB AND DUP2 JUMP JUMPDEST PUSH2 0x195 PUSH2 0x3B2 CALLDATASIZE PUSH1 0x4 PUSH2 0xFB9 JUMP JUMPDEST PUSH2 0xA14 JUMP JUMPDEST PUSH1 0x1 PUSH1 0x1 PUSH1 0xA0 SHL SUB DUP3 AND PUSH1 0x0 SWAP1 DUP2 MSTORE PUSH1 0x4 PUSH1 0x20 SWAP1 DUP2 MSTORE PUSH1 0x40 DUP1 DUP4 KECCAK256 DUP5 DUP5 MSTORE SWAP1 SWAP2 MSTORE SWAP1 KECCAK256 SLOAD JUMPDEST SWAP3 SWAP2 POP POP JUMP JUMPDEST PUSH1 0x0 DUP1 PUSH2 0x3ED PUSH2 0x8F5 JUMP JUMPDEST SWAP1 POP PUSH2 0x3F9 DUP4 DUP3 PUSH2 0xB03 JUMP JUMPDEST SWAP4 SWAP3 POP POP POP JUMP JUMPDEST PUSH1 0x2 SLOAD PUSH1 0x1 PUSH1 0x1 PUSH1 0xA0 SHL SUB AND CALLER EQ PUSH2 0x42B JUMPI PUSH1 0x40 MLOAD PUSH4 0x47556579 PUSH1 0xE0 SHL DUP2 MSTORE PUSH1 0x4 ADD PUSH1 0x40 MLOAD DUP1 SWAP2 SUB SWAP1 REVERT JUMPDEST PUSH1 0x3 SLOAD PUSH1 0x1 PUSH1 0xA0 SHL SWAP1 DIV PUSH1 0xFF AND ISZERO PUSH2 0x456 JUMPI PUSH1 0x40 MLOAD PUSH4 0x238F75D3 PUSH1 0xE0 SHL DUP2 MSTORE PUSH1 0x4 ADD PUSH1 0x40 MLOAD DUP1 SWAP2 SUB SWAP1 REVERT JUMPDEST PUSH1 0x0 DUP1 SLOAD PUSH1 0x1 PUSH1 0x1 PUSH1 0xA0 SHL SUB SWAP5 DUP6 AND PUSH1 0x1 PUSH1 0x1 PUSH1 0xA0 SHL SUB NOT SWAP2 DUP3 AND OR SWAP1 SWAP2 SSTORE PUSH1 0x1 DUP1 SLOAD SWAP4 DUP6 AND SWAP4 DUP3 AND SWAP4 SWAP1 SWAP4 OR SWAP1 SWAP3 SSTORE PUSH1 0x3 DUP1 SLOAD SWAP2 SWAP1 SWAP4 AND SWAP2 AND OR SWAP1 SSTORE JUMP JUMPDEST PUSH2 0x4CA PUSH1 0x1 PUSH1 0x1 PUSH1 0xA0 SHL SUB PUSH32 0x0 AND CALLER ADDRESS DUP5 PUSH2 0xC86 JUMP JUMPDEST DUP1 PUSH1 0x7 PUSH1 0x0 DUP3 DUP3 SLOAD PUSH2 0x4DC SWAP2 SWAP1 PUSH2 0x10C8 JUMP JUMPDEST SWAP1 SWAP2 SSTORE POP POP PUSH1 0x40 MLOAD DUP2 DUP2 MSTORE PUSH32 0xE0489CE487DF31AE7DB1F183CD20F4589BFA5715C26827C41E89D4A4B11E4B07 SWAP1 PUSH1 0x20 ADD PUSH1 0x40 MLOAD DUP1 SWAP2 SUB SWAP1 LOG1 POP JUMP JUMPDEST PUSH1 0x2 SLOAD PUSH1 0x1 PUSH1 0x1 PUSH1 0xA0 SHL SUB AND CALLER EQ PUSH2 0x542 JUMPI PUSH1 0x40 MLOAD PUSH4 0x47556579 PUSH1 0xE0 SHL DUP2 MSTORE PUSH1 0x4 ADD PUSH1 0x40 MLOAD DUP1 SWAP2 SUB SWAP1 REVERT JUMPDEST PUSH1 0x3 SLOAD PUSH1 0x1 PUSH1 0xA0 SHL SWAP1 DIV PUSH1 0xFF AND ISZERO PUSH2 0x56D JUMPI PUSH1 0x40 MLOAD PUSH4 0x238F75D3 PUSH1 0xE0 SHL DUP2 MSTORE PUSH1 0x4 ADD PUSH1 0x40 MLOAD DUP1 SWAP2 SUB SWAP1 REVERT JUMPDEST PUSH1 0x3 DUP1 SLOAD PUSH1 0xFF PUSH1 0xA0 SHL NOT AND PUSH1 0x1 PUSH1 0xA0 SHL OR SWAP1 SSTORE PUSH1 0x2 DUP1 SLOAD PUSH1 0x1 PUSH1 0x1 PUSH1 0xA0 SHL SUB NOT AND SWAP1 SSTORE JUMP JUMPDEST PUSH2 0x59A PUSH2 0xCC7 JUMP JUMPDEST PUSH1 0x0 PUSH2 0x5A4 PUSH2 0x8F5 JUMP JUMPDEST SWAP1 POP PUSH1 0x0 PUSH2 0x5B3 PUSH1 0x1 DUP4 PUSH2 0x10DB JUMP JUMPDEST SWAP1 POP DUP1 PUSH1 0x0 SUB PUSH2 0x5D6 JUMPI PUSH1 0x40 MLOAD PUSH4 0x330B361 PUSH1 0xE2 SHL DUP2 MSTORE PUSH1 0x4 ADD PUSH1 0x40 MLOAD DUP1 SWAP2 SUB SWAP1 REVERT JUMPDEST CALLER PUSH1 0x0 SWAP1 DUP2 MSTORE PUSH1 0x6 PUSH1 0x20 SWAP1 DUP2 MSTORE PUSH1 0x40 DUP1 DUP4 KECCAK256 DUP5 DUP5 MSTORE SWAP1 SWAP2 MSTORE SWAP1 KECCAK256 SLOAD PUSH1 0xFF AND ISZERO PUSH2 0x612 JUMPI PUSH1 0x40 MLOAD PUSH4 0xC8D9EAB PUSH1 0xE3 SHL DUP2 MSTORE PUSH1 0x4 ADD PUSH1 0x40 MLOAD DUP1 SWAP2 SUB SWAP1 REVERT JUMPDEST PUSH2 0x61C CALLER DUP3 PUSH2 0xB03 JUMP JUMPDEST PUSH2 0x639 JUMPI PUSH1 0x40 MLOAD PUSH4 0x330B361 PUSH1 0xE2 SHL DUP2 MSTORE PUSH1 0x4 ADD PUSH1 0x40 MLOAD DUP1 SWAP2 SUB SWAP1 REVERT JUMPDEST CALLER PUSH1 0x0 SWAP1 DUP2 MSTORE PUSH1 0x4 PUSH1 0x20 SWAP1 DUP2 MSTORE PUSH1 0x40 DUP1 DUP4 KECCAK256 DUP5 DUP5 MSTORE SWAP1 SWAP2 MSTORE DUP2 KECCAK256 SLOAD SWAP1 PUSH2 0x65E DUP3 PUSH2 0xCF5 JUMP JUMPDEST SWAP1 POP DUP1 PUSH1 0x0 SUB PUSH2 0x681 JUMPI PUSH1 0x40 MLOAD PUSH4 0x330B361 PUSH1 0xE2 SHL DUP2 MSTORE PUSH1 0x4 ADD PUSH1 0x40 MLOAD DUP1 SWAP2 SUB SWAP1 REVERT JUMPDEST PUSH1 0x0 PUSH2 0x68C DUP3 PUSH2 0xDAF JUMP JUMPDEST SWAP1 POP PUSH1 0x0 PUSH2 0x2710 PUSH2 0x69D DUP4 DUP7 PUSH2 0x10EE JUMP JUMPDEST PUSH2 0x6A7 SWAP2 SWAP1 PUSH2 0x1105 JUMP JUMPDEST SWAP1 POP DUP1 PUSH1 0x0 SUB PUSH2 0x6CA JUMPI PUSH1 0x40 MLOAD PUSH4 0x330B361 PUSH1 0xE2 SHL DUP2 MSTORE PUSH1 0x4 ADD PUSH1 0x40 MLOAD DUP1 SWAP2 SUB SWAP1 REVERT JUMPDEST PUSH1 0x7 SLOAD DUP2 GT ISZERO PUSH2 0x6ED JUMPI PUSH1 0x40 MLOAD PUSH4 0x14764857 PUSH1 0xE3 SHL DUP2 MSTORE PUSH1 0x4 ADD PUSH1 0x40 MLOAD DUP1 SWAP2 SUB SWAP1 REVERT JUMPDEST CALLER PUSH1 0x0 SWAP1 DUP2 MSTORE PUSH1 0x6 PUSH1 0x20 SWAP1 DUP2 MSTORE PUSH1 0x40 DUP1 DUP4 KECCAK256 DUP9 DUP5 MSTORE SWAP1 SWAP2 MSTORE DUP2 KECCAK256 DUP1 SLOAD PUSH1 0xFF NOT AND PUSH1 0x1 OR SWAP1 SSTORE PUSH1 0x7 DUP1 SLOAD DUP4 SWAP3 SWAP1 PUSH2 0x724 SWAP1 DUP5 SWAP1 PUSH2 0x10DB JUMP JUMPDEST SWAP3 POP POP DUP2 SWAP1 SSTORE POP DUP1 PUSH1 0x8 PUSH1 0x0 DUP3 DUP3 SLOAD PUSH2 0x73D SWAP2 SWAP1 PUSH2 0x10C8 JUMP JUMPDEST SWAP1 SWAP2 SSTORE POP PUSH2 0x777 SWAP1 POP PUSH1 0x1 PUSH1 0x1 PUSH1 0xA0 SHL SUB PUSH32 0x0 AND CALLER DUP4 PUSH2 0xE21 JUMP JUMPDEST PUSH1 0x0 SLOAD PUSH1 0x1 PUSH1 0x1 PUSH1 0xA0 SHL SUB AND ISZERO PUSH2 0x7ED JUMPI PUSH1 0x0 SLOAD PUSH1 0x40 MLOAD PUSH4 0xAC948E83 PUSH1 0xE0 SHL DUP2 MSTORE CALLER PUSH1 0x4 DUP3 ADD MSTORE PUSH1 0x24 DUP2 ADD DUP4 SWAP1 MSTORE PUSH1 0x1 PUSH1 0x1 PUSH1 0xA0 SHL SUB SWAP1 SWAP2 AND SWAP1 PUSH4 0xAC948E83 SWAP1 PUSH1 0x44 ADD PUSH1 0x0 PUSH1 0x40 MLOAD DUP1 DUP4 SUB DUP2 PUSH1 0x0 DUP8 DUP1 EXTCODESIZE ISZERO DUP1 ISZERO PUSH2 0x7D4 JUMPI PUSH1 0x0 DUP1 REVERT JUMPDEST POP GAS CALL ISZERO DUP1 ISZERO PUSH2 0x7E8 JUMPI RETURNDATASIZE PUSH1 0x0 DUP1 RETURNDATACOPY RETURNDATASIZE PUSH1 0x0 REVERT JUMPDEST POP POP POP POP JUMPDEST PUSH1 0x40 DUP1 MLOAD DUP5 DUP2 MSTORE PUSH1 0x20 DUP2 ADD DUP8 SWAP1 MSTORE SWAP1 DUP2 ADD DUP6 SWAP1 MSTORE CALLER SWAP1 PUSH32 0x3E7C6FA8FFEC4566E8E55031EA1F71DEE2BD6DFE73E926DFB6A8F9D449F3845C SWAP1 PUSH1 0x60 ADD PUSH1 0x40 MLOAD DUP1 SWAP2 SUB SWAP1 LOG2 PUSH1 0x40 DUP1 MLOAD DUP3 DUP2 MSTORE PUSH1 0x20 DUP2 ADD DUP8 SWAP1 MSTORE CALLER SWAP2 PUSH32 0xD5797264912088CD40B5265CC25F087A017182A84A0AACDCA76EBBF8C0D04E89 SWAP2 ADD PUSH1 0x40 MLOAD DUP1 SWAP2 SUB SWAP1 LOG2 POP POP POP POP POP POP PUSH2 0x89A PUSH1 0x1 PUSH32 0x9B779B17422D0DF92223018B32B4D1FA46E071723D6817E2486D003BECC55F00 SSTORE JUMP JUMPDEST JUMP JUMPDEST PUSH1 0x0 DUP1 PUSH2 0x8A7 PUSH2 0x8F5 JUMP JUMPDEST SWAP1 POP PUSH2 0x8B3 DUP4 DUP3 PUSH2 0xB03 JUMP JUMPDEST PUSH2 0x8C0 JUMPI POP PUSH1 0x0 SWAP3 SWAP2 POP POP JUMP JUMPDEST PUSH1 0x1 PUSH1 0x1 PUSH1 0xA0 SHL SUB DUP4 AND PUSH1 0x0 SWAP1 DUP2 MSTORE PUSH1 0x4 PUSH1 0x20 SWAP1 DUP2 MSTORE PUSH1 0x40 DUP1 DUP4 KECCAK256 DUP5 DUP5 MSTORE SWAP1 SWAP2 MSTORE SWAP1 KECCAK256 SLOAD PUSH2 0x8ED DUP2 PUSH2 0xCF5 JUMP JUMPDEST SWAP5 SWAP4 POP POP POP POP JUMP JUMPDEST PUSH1 0x0 PUSH3 0x93A80 PUSH2 0x925 PUSH32 0x0 TIMESTAMP PUSH2 0x10DB JUMP JUMPDEST PUSH2 0x92F SWAP2 SWAP1 PUSH2 0x1105 JUMP JUMPDEST PUSH2 0x93A SWAP1 PUSH1 0x1 PUSH2 0x10C8 JUMP JUMPDEST SWAP1 POP SWAP1 JUMP JUMPDEST PUSH1 0x0 PUSH2 0x949 PUSH2 0x8F5 JUMP JUMPDEST PUSH1 0x1 PUSH1 0x1 PUSH1 0xA0 SHL SUB DUP6 AND PUSH1 0x0 SWAP1 DUP2 MSTORE PUSH1 0x4 PUSH1 0x20 SWAP1 DUP2 MSTORE PUSH1 0x40 DUP1 DUP4 KECCAK256 DUP5 DUP5 MSTORE SWAP1 SWAP2 MSTORE DUP2 KECCAK256 DUP1 SLOAD SWAP3 SWAP4 POP DUP5 SWAP3 SWAP1 SWAP2 SWAP1 PUSH2 0x981 SWAP1 DUP5 SWAP1 PUSH2 0x10C8 JUMP JUMPDEST SWAP1 SWAP2 SSTORE POP POP PUSH1 0x1 PUSH1 0x1 PUSH1 0xA0 SHL SUB DUP1 DUP6 AND PUSH1 0x0 SWAP1 DUP2 MSTORE PUSH1 0x5 PUSH1 0x20 SWAP1 DUP2 MSTORE PUSH1 0x40 DUP1 DUP4 KECCAK256 DUP6 DUP5 MSTORE DUP3 MSTORE DUP1 DUP4 KECCAK256 SWAP4 DUP8 AND DUP4 MSTORE SWAP3 SWAP1 MSTORE SWAP1 DUP2 KECCAK256 DUP1 SLOAD DUP5 SWAP3 SWAP1 PUSH2 0x9C5 SWAP1 DUP5 SWAP1 PUSH2 0x10C8 JUMP JUMPDEST SWAP1 SWAP2 SSTORE POP POP PUSH1 0x40 DUP1 MLOAD DUP4 DUP2 MSTORE PUSH1 0x20 DUP2 ADD DUP4 SWAP1 MSTORE PUSH1 0x1 PUSH1 0x1 PUSH1 0xA0 SHL SUB DUP7 AND SWAP2 PUSH32 0xD5D37757267F0F02FE273B0EAD41331FE90AE635B0954DA937D3454E9623DAF4 SWAP2 ADD PUSH1 0x40 MLOAD DUP1 SWAP2 SUB SWAP1 LOG2 POP POP POP POP JUMP JUMPDEST PUSH1 0x0 DUP1 PUSH2 0xA1F PUSH2 0x8F5 JUMP JUMPDEST SWAP1 POP PUSH1 0x1 DUP2 GT PUSH2 0xA32 JUMPI POP PUSH1 0x0 SWAP3 SWAP2 POP POP JUMP JUMPDEST PUSH1 0x0 PUSH2 0xA3F PUSH1 0x1 DUP4 PUSH2 0x10DB JUMP JUMPDEST PUSH1 0x1 PUSH1 0x1 PUSH1 0xA0 SHL SUB DUP6 AND PUSH1 0x0 SWAP1 DUP2 MSTORE PUSH1 0x6 PUSH1 0x20 SWAP1 DUP2 MSTORE PUSH1 0x40 DUP1 DUP4 KECCAK256 DUP5 DUP5 MSTORE SWAP1 SWAP2 MSTORE SWAP1 KECCAK256 SLOAD SWAP1 SWAP2 POP PUSH1 0xFF AND ISZERO PUSH2 0xA78 JUMPI POP PUSH1 0x0 SWAP4 SWAP3 POP POP POP JUMP JUMPDEST PUSH2 0xA82 DUP5 DUP3 PUSH2 0xB03 JUMP JUMPDEST PUSH2 0xA90 JUMPI POP PUSH1 0x0 SWAP4 SWAP3 POP POP POP JUMP JUMPDEST PUSH1 0x1 PUSH1 0x1 PUSH1 0xA0 SHL SUB DUP5 AND PUSH1 0x0 SWAP1 DUP2 MSTORE PUSH1 0x4 PUSH1 0x20 SWAP1 DUP2 MSTORE PUSH1 0x40 DUP1 DUP4 KECCAK256 DUP5 DUP5 MSTORE SWAP1 SWAP2 MSTORE DUP2 KECCAK256 SLOAD SWAP1 PUSH2 0xABE DUP3 PUSH2 0xCF5 JUMP JUMPDEST SWAP1 POP DUP1 PUSH1 0x0 SUB PUSH2 0xAD4 JUMPI POP PUSH1 0x0 SWAP6 SWAP5 POP POP POP POP POP JUMP JUMPDEST PUSH1 0x0 PUSH2 0xADF DUP3 PUSH2 0xDAF JUMP JUMPDEST SWAP1 POP PUSH2 0x2710 PUSH2 0xAEE DUP3 DUP6 PUSH2 0x10EE JUMP JUMPDEST PUSH2 0xAF8 SWAP2 SWAP1 PUSH2 0x1105 JUMP JUMPDEST SWAP8 SWAP7 POP POP POP POP POP POP POP JUMP JUMPDEST PUSH1 0x1 PUSH1 0x1 PUSH1 0xA0 SHL SUB DUP3 AND PUSH1 0x0 SWAP1 DUP2 MSTORE PUSH1 0x4 PUSH1 0x20 SWAP1 DUP2 MSTORE PUSH1 0x40 DUP1 DUP4 KECCAK256 DUP5 DUP5 MSTORE SWAP1 SWAP2 MSTORE DUP2 KECCAK256 SLOAD DUP1 DUP3 SUB PUSH2 0xB38 JUMPI PUSH1 0x0 SWAP2 POP POP PUSH2 0x3DC JUMP JUMPDEST PUSH1 0x1 SLOAD PUSH1 0x1 PUSH1 0x1 PUSH1 0xA0 SHL SUB AND PUSH2 0xB52 JUMPI PUSH1 0x1 SWAP2 POP POP PUSH2 0x3DC JUMP JUMPDEST PUSH1 0x1 SLOAD PUSH1 0x40 MLOAD PUSH4 0xD2C8E0E5 PUSH1 0xE0 SHL DUP2 MSTORE PUSH1 0x1 PUSH1 0x1 PUSH1 0xA0 SHL SUB DUP7 DUP2 AND PUSH1 0x4 DUP4 ADD MSTORE PUSH1 0x0 SWAP3 AND SWAP1 PUSH4 0xD2C8E0E5 SWAP1 PUSH1 0x24 ADD PUSH1 0x0 PUSH1 0x40 MLOAD DUP1 DUP4 SUB DUP2 DUP7 GAS STATICCALL ISZERO DUP1 ISZERO PUSH2 0xB9D JUMPI RETURNDATASIZE PUSH1 0x0 DUP1 RETURNDATACOPY RETURNDATASIZE PUSH1 0x0 REVERT JUMPDEST POP POP POP POP PUSH1 0x40 MLOAD RETURNDATASIZE PUSH1 0x0 DUP3 RETURNDATACOPY PUSH1 0x1F RETURNDATASIZE SWAP1 DUP2 ADD PUSH1 0x1F NOT AND DUP3 ADD PUSH1 0x40 MSTORE PUSH2 0xBC5 SWAP2 SWAP1 DUP2 ADD SWAP1 PUSH2 0x114D JUMP JUMPDEST SWAP1 POP DUP1 MLOAD PUSH1 0x0 SUB PUSH2 0xBDB JUMPI PUSH1 0x0 SWAP3 POP POP POP PUSH2 0x3DC JUMP JUMPDEST PUSH1 0x0 DUP1 JUMPDEST DUP3 MLOAD DUP2 LT ISZERO PUSH2 0xC61 JUMPI PUSH1 0x1 PUSH1 0x1 PUSH1 0xA0 SHL SUB DUP8 AND PUSH1 0x0 SWAP1 DUP2 MSTORE PUSH1 0x5 PUSH1 0x20 SWAP1 DUP2 MSTORE PUSH1 0x40 DUP1 DUP4 KECCAK256 DUP10 DUP5 MSTORE SWAP1 SWAP2 MSTORE DUP2 KECCAK256 DUP5 MLOAD DUP3 SWAP1 DUP7 SWAP1 DUP6 SWAP1 DUP2 LT PUSH2 0xC21 JUMPI PUSH2 0xC21 PUSH2 0x1212 JUMP JUMPDEST PUSH1 0x20 MUL PUSH1 0x20 ADD ADD MLOAD PUSH1 0x1 PUSH1 0x1 PUSH1 0xA0 SHL SUB AND PUSH1 0x1 PUSH1 0x1 PUSH1 0xA0 SHL SUB AND DUP2 MSTORE PUSH1 0x20 ADD SWAP1 DUP2 MSTORE PUSH1 0x20 ADD PUSH1 0x0 KECCAK256 SLOAD SWAP1 POP DUP3 DUP2 GT ISZERO PUSH2 0xC58 JUMPI DUP1 SWAP3 POP JUMPDEST POP PUSH1 0x1 ADD PUSH2 0xBDF JUMP JUMPDEST POP PUSH2 0xC6E PUSH2 0xFA0 DUP5 PUSH2 0x10EE JUMP JUMPDEST PUSH2 0xC7A PUSH2 0x2710 DUP4 PUSH2 0x10EE JUMP JUMPDEST GT ISZERO SWAP7 SWAP6 POP POP POP POP POP POP JUMP JUMPDEST PUSH2 0xC94 DUP5 DUP5 DUP5 DUP5 PUSH1 0x1 PUSH2 0xE5B JUMP JUMPDEST PUSH2 0xCC1 JUMPI PUSH1 0x40 MLOAD PUSH4 0x5274AFE7 PUSH1 0xE0 SHL DUP2 MSTORE PUSH1 0x1 PUSH1 0x1 PUSH1 0xA0 SHL SUB DUP6 AND PUSH1 0x4 DUP3 ADD MSTORE PUSH1 0x24 ADD JUMPDEST PUSH1 0x40 MLOAD DUP1 SWAP2 SUB SWAP1 REVERT JUMPDEST POP POP POP POP JUMP JUMPDEST PUSH2 0xCCF PUSH2 0xECD JUMP JUMPDEST PUSH1 0x2 PUSH32 0x9B779B17422D0DF92223018B32B4D1FA46E071723D6817E2486D003BECC55F00 SSTORE JUMP JUMPDEST PUSH1 0x0 PUSH11 0x211654585005212800000 DUP3 LT PUSH2 0xD11 JUMPI POP PUSH1 0x7 SWAP2 SWAP1 POP JUMP JUMPDEST PUSH10 0xFE1C215E8F838E000000 DUP3 LT PUSH2 0xD2A JUMPI POP PUSH1 0x6 SWAP2 SWAP1 POP JUMP JUMPDEST PUSH10 0x69E10DE76676D0800000 DUP3 LT PUSH2 0xD43 JUMPI POP PUSH1 0x5 SWAP2 SWAP1 POP JUMP JUMPDEST PUSH10 0x2A5A058FC295ED000000 DUP3 LT PUSH2 0xD5C JUMPI POP PUSH1 0x4 SWAP2 SWAP1 POP JUMP JUMPDEST PUSH10 0xFE1C215E8F838E00000 DUP3 LT PUSH2 0xD75 JUMPI POP PUSH1 0x3 SWAP2 SWAP1 POP JUMP JUMPDEST PUSH10 0x54B40B1F852BDA00000 DUP3 LT PUSH2 0xD8E JUMPI POP PUSH1 0x2 SWAP2 SWAP1 POP JUMP JUMPDEST PUSH10 0x21E19E0C9BAB2400000 DUP3 LT PUSH2 0xDA7 JUMPI POP PUSH1 0x1 SWAP2 SWAP1 POP JUMP JUMPDEST POP PUSH1 0x0 SWAP2 SWAP1 POP JUMP JUMPDEST PUSH1 0x0 DUP2 PUSH1 0x7 SUB PUSH2 0xDC1 JUMPI POP PUSH1 0x5 SWAP2 SWAP1 POP JUMP JUMPDEST DUP2 PUSH1 0x6 SUB PUSH2 0xDD1 JUMPI POP PUSH1 0xA SWAP2 SWAP1 POP JUMP JUMPDEST DUP2 PUSH1 0x5 SUB PUSH2 0xDE1 JUMPI POP PUSH1 0xF SWAP2 SWAP1 POP JUMP JUMPDEST DUP2 PUSH1 0x4 SUB PUSH2 0xDF1 JUMPI POP PUSH1 0x14 SWAP2 SWAP1 POP JUMP JUMPDEST DUP2 PUSH1 0x3 SUB PUSH2 0xE01 JUMPI POP PUSH1 0x1E SWAP2 SWAP1 POP JUMP JUMPDEST DUP2 PUSH1 0x2 SUB PUSH2 0xE11 JUMPI POP PUSH1 0x32 SWAP2 SWAP1 POP JUMP JUMPDEST DUP2 PUSH1 0x1 SUB PUSH2 0xDA7 JUMPI POP PUSH1 0x64 SWAP2 SWAP1 POP JUMP JUMPDEST PUSH2 0xE2E DUP4 DUP4 DUP4 PUSH1 0x1 PUSH2 0xF0F JUMP JUMPDEST PUSH2 0xE56 JUMPI PUSH1 0x40 MLOAD PUSH4 0x5274AFE7 PUSH1 0xE0 SHL DUP2 MSTORE PUSH1 0x1 PUSH1 0x1 PUSH1 0xA0 SHL SUB DUP5 AND PUSH1 0x4 DUP3 ADD MSTORE PUSH1 0x24 ADD PUSH2 0xCB8 JUMP JUMPDEST POP POP POP JUMP JUMPDEST PUSH1 0x40 MLOAD PUSH4 0x23B872DD PUSH1 0xE0 SHL PUSH1 0x0 DUP2 DUP2 MSTORE PUSH1 0x1 PUSH1 0x1 PUSH1 0xA0 SHL SUB DUP8 DUP2 AND PUSH1 0x4 MSTORE DUP7 AND PUSH1 0x24 MSTORE PUSH1 0x44 DUP6 SWAP1 MSTORE SWAP2 PUSH1 0x20 DUP4 PUSH1 0x64 DUP2 DUP1 DUP13 GAS CALL SWAP3 POP PUSH1 0x1 PUSH1 0x0 MLOAD EQ DUP4 AND PUSH2 0xEBB JUMPI DUP4 DUP4 ISZERO AND ISZERO PUSH2 0xEAE JUMPI RETURNDATASIZE PUSH1 0x0 DUP3 RETURNDATACOPY RETURNDATASIZE DUP2 REVERT JUMPDEST PUSH1 0x0 DUP9 EXTCODESIZE GT RETURNDATASIZE ISZERO AND DUP4 AND SWAP3 POP JUMPDEST PUSH1 0x40 MSTORE POP PUSH1 0x0 PUSH1 0x60 MSTORE SWAP6 SWAP5 POP POP POP POP POP JUMP JUMPDEST PUSH32 0x9B779B17422D0DF92223018B32B4D1FA46E071723D6817E2486D003BECC55F00 SLOAD PUSH1 0x2 SUB PUSH2 0x89A JUMPI PUSH1 0x40 MLOAD PUSH4 0x3EE5AEB5 PUSH1 0xE0 SHL DUP2 MSTORE PUSH1 0x4 ADD PUSH1 0x40 MLOAD DUP1 SWAP2 SUB SWAP1 REVERT JUMPDEST PUSH1 0x40 MLOAD PUSH4 0xA9059CBB PUSH1 0xE0 SHL PUSH1 0x0 DUP2 DUP2 MSTORE PUSH1 0x1 PUSH1 0x1 PUSH1 0xA0 SHL SUB DUP7 AND PUSH1 0x4 MSTORE PUSH1 0x24 DUP6 SWAP1 MSTORE SWAP2 PUSH1 0x20 DUP4 PUSH1 0x44 DUP2 DUP1 DUP12 GAS CALL SWAP3 POP PUSH1 0x1 PUSH1 0x0 MLOAD EQ DUP4 AND PUSH2 0xF69 JUMPI DUP4 DUP4 ISZERO AND ISZERO PUSH2 0xF5C JUMPI RETURNDATASIZE PUSH1 0x0 DUP3 RETURNDATACOPY RETURNDATASIZE DUP2 REVERT JUMPDEST PUSH1 0x0 DUP8 EXTCODESIZE GT RETURNDATASIZE ISZERO AND DUP4 AND SWAP3 POP JUMPDEST PUSH1 0x40 MSTORE POP SWAP5 SWAP4 POP POP POP POP JUMP JUMPDEST PUSH1 0x1 PUSH1 0x1 PUSH1 0xA0 SHL SUB DUP2 AND DUP2 EQ PUSH2 0xF8A JUMPI PUSH1 0x0 DUP1 REVERT JUMPDEST POP JUMP JUMPDEST PUSH1 0x0 DUP1 PUSH1 0x40 DUP4 DUP6 SUB SLT ISZERO PUSH2 0xFA0 JUMPI PUSH1 0x0 DUP1 REVERT JUMPDEST DUP3 CALLDATALOAD PUSH2 0xFAB DUP2 PUSH2 0xF75 JUMP JUMPDEST SWAP5 PUSH1 0x20 SWAP4 SWAP1 SWAP4 ADD CALLDATALOAD SWAP4 POP POP POP JUMP JUMPDEST PUSH1 0x0 PUSH1 0x20 DUP3 DUP5 SUB SLT ISZERO PUSH2 0xFCB JUMPI PUSH1 0x0 DUP1 REVERT JUMPDEST DUP2 CALLDATALOAD PUSH2 0x3F9 DUP2 PUSH2 0xF75 JUMP JUMPDEST PUSH1 0x0 DUP1 PUSH1 0x0 PUSH1 0x60 DUP5 DUP7 SUB SLT ISZERO PUSH2 0xFEB JUMPI PUSH1 0x0 DUP1 REVERT JUMPDEST DUP4 CALLDATALOAD PUSH2 0xFF6 DUP2 PUSH2 0xF75 JUMP JUMPDEST SWAP3 POP PUSH1 0x20 DUP5 ADD CALLDATALOAD PUSH2 0x1006 DUP2 PUSH2 0xF75 JUMP JUMPDEST SWAP2 POP PUSH1 0x40 DUP5 ADD CALLDATALOAD PUSH2 0x1016 DUP2 PUSH2 0xF75 JUMP JUMPDEST DUP1 SWAP2 POP POP SWAP3 POP SWAP3 POP SWAP3 JUMP JUMPDEST PUSH1 0x0 DUP1 PUSH1 0x0 PUSH1 0x60 DUP5 DUP7 SUB SLT ISZERO PUSH2 0x1036 JUMPI PUSH1 0x0 DUP1 REVERT JUMPDEST DUP4 CALLDATALOAD PUSH2 0x1041 DUP2 PUSH2 0xF75 JUMP JUMPDEST SWAP3 POP PUSH1 0x20 DUP5 ADD CALLDATALOAD SWAP2 POP PUSH1 0x40 DUP5 ADD CALLDATALOAD PUSH2 0x1016 DUP2 PUSH2 0xF75 JUMP JUMPDEST PUSH1 0x0 PUSH1 0x20 DUP3 DUP5 SUB SLT ISZERO PUSH2 0x106A JUMPI PUSH1 0x0 DUP1 REVERT JUMPDEST POP CALLDATALOAD SWAP2 SWAP1 POP JUMP JUMPDEST PUSH1 0x0 DUP1 PUSH1 0x0 PUSH1 0x60 DUP5 DUP7 SUB SLT ISZERO PUSH2 0x1086 JUMPI PUSH1 0x0 DUP1 REVERT JUMPDEST DUP4 CALLDATALOAD PUSH2 0x1091 DUP2 PUSH2 0xF75 JUMP JUMPDEST SWAP3 POP PUSH1 0x20 DUP5 ADD CALLDATALOAD PUSH2 0x10A1 DUP2 PUSH2 0xF75 JUMP JUMPDEST SWAP3 SWAP6 SWAP3 SWAP5 POP POP POP PUSH1 0x40 SWAP2 SWAP1 SWAP2 ADD CALLDATALOAD SWAP1 JUMP JUMPDEST PUSH4 0x4E487B71 PUSH1 0xE0 SHL PUSH1 0x0 MSTORE PUSH1 0x11 PUSH1 0x4 MSTORE PUSH1 0x24 PUSH1 0x0 REVERT JUMPDEST DUP1 DUP3 ADD DUP1 DUP3 GT ISZERO PUSH2 0x3DC JUMPI PUSH2 0x3DC PUSH2 0x10B2 JUMP JUMPDEST DUP2 DUP2 SUB DUP2 DUP2 GT ISZERO PUSH2 0x3DC JUMPI PUSH2 0x3DC PUSH2 0x10B2 JUMP JUMPDEST DUP1 DUP3 MUL DUP2 ISZERO DUP3 DUP3 DIV DUP5 EQ OR PUSH2 0x3DC JUMPI PUSH2 0x3DC PUSH2 0x10B2 JUMP JUMPDEST PUSH1 0x0 DUP3 PUSH2 0x1122 JUMPI PUSH4 0x4E487B71 PUSH1 0xE0 SHL PUSH1 0x0 MSTORE PUSH1 0x12 PUSH1 0x4 MSTORE PUSH1 0x24 PUSH1 0x0 REVERT JUMPDEST POP DIV SWAP1 JUMP JUMPDEST PUSH4 0x4E487B71 PUSH1 0xE0 SHL PUSH1 0x0 MSTORE PUSH1 0x41 PUSH1 0x4 MSTORE PUSH1 0x24 PUSH1 0x0 REVERT JUMPDEST DUP1 MLOAD PUSH2 0x1148 DUP2 PUSH2 0xF75 JUMP JUMPDEST SWAP2 SWAP1 POP JUMP JUMPDEST PUSH1 0x0 PUSH1 0x20 DUP1 DUP4 DUP6 SUB SLT ISZERO PUSH2 0x1160 JUMPI PUSH1 0x0 DUP1 REVERT JUMPDEST DUP3 MLOAD PUSH8 0xFFFFFFFFFFFFFFFF DUP1 DUP3 GT ISZERO PUSH2 0x1178 JUMPI PUSH1 0x0 DUP1 REVERT JUMPDEST DUP2 DUP6 ADD SWAP2 POP DUP6 PUSH1 0x1F DUP4 ADD SLT PUSH2 0x118C JUMPI PUSH1 0x0 DUP1 REVERT JUMPDEST DUP2 MLOAD DUP2 DUP2 GT ISZERO PUSH2 0x119E JUMPI PUSH2 0x119E PUSH2 0x1127 JUMP JUMPDEST DUP1 PUSH1 0x5 SHL PUSH1 0x40 MLOAD PUSH1 0x1F NOT PUSH1 0x3F DUP4 ADD AND DUP2 ADD DUP2 DUP2 LT DUP6 DUP3 GT OR ISZERO PUSH2 0x11C3 JUMPI PUSH2 0x11C3 PUSH2 0x1127 JUMP JUMPDEST PUSH1 0x40 MSTORE SWAP2 DUP3 MSTORE DUP5 DUP3 ADD SWAP3 POP DUP4 DUP2 ADD DUP6 ADD SWAP2 DUP9 DUP4 GT ISZERO PUSH2 0x11E1 JUMPI PUSH1 0x0 DUP1 REVERT JUMPDEST SWAP4 DUP6 ADD SWAP4 JUMPDEST DUP3 DUP6 LT ISZERO PUSH2 0x1206 JUMPI PUSH2 0x11F7 DUP6 PUSH2 0x113D JUMP JUMPDEST DUP5 MSTORE SWAP4 DUP6 ADD SWAP4 SWAP3 DUP6 ADD SWAP3 PUSH2 0x11E6 JUMP JUMPDEST SWAP9 SWAP8 POP POP POP POP POP POP POP POP JUMP JUMPDEST PUSH4 0x4E487B71 PUSH1 0xE0 SHL PUSH1 0x0 MSTORE PUSH1 0x32 PUSH1 0x4 MSTORE PUSH1 0x24 PUSH1 0x0 REVERT INVALID LOG2 PUSH5 0x6970667358 0x22 SLT KECCAK256 0x4B 0xE3 0xE3 REVERT PUSH22 0xEE269B6F2512B6AB6E756C63B30F4664165D1FF8BC17 AND 0xB1 SIGNEXTEND 0xBF SWAP5 PUSH5 0x736F6C6343 STOP ADDMOD XOR STOP CALLER "},"methodIdentifiers":{"admin()":"f851a440","bonusPoolBalance()":"29e9ad82","claimRankBonus()":"8b19d70e","completeSetup()":"8aea8f71","configure(address,address,address)":"55d28f20","genesisTimestamp()":"cacf66ab","getCurrentRank(address)":"b594b0c7","getCurrentWeekId()":"bcd3321e","getLegTurnover(address,uint256,address)":"b835f389","getPendingBonus(address)":"fc22833e","getWeeklyTurnover(address,uint256)":"2409c9a9","investmentEngine()":"30131384","isRankQualified(address)":"2fe3c0cc","legTurnover(address,uint256,address)":"5b6bcf3b","receiveBonusPool(uint256)":"88697547","recordTurnover(address,address,uint256)":"d9bd5f2d","referral()":"1441a5a9","setupComplete()":"b6635be6","timelock()":"d33219b4","totalBonusesDistributed()":"d31725cc","usdt()":"2f48ab7d","weekBonusClaimed(address,uint256)":"952d4c01","weeklyTurnoverData(address,uint256)":"57cecd8b"}}}}}