{"contracts/libraries/OSLOConstants.sol":{"OSLOConstants":{"abi":[{"inputs":[],"name":"BASIS_POINTS","outputs":[{"internalType":"uint256","name":"","type":"uint256"}],"stateMutability":"view","type":"function"},{"inputs":[],"name":"CONTRACT_RESERVE","outputs":[{"internalType":"uint256","name":"","type":"uint256"}],"stateMutability":"view","type":"function"},{"inputs":[],"name":"DAO_MONTHLY_ROYALTY_BP","outputs":[{"internalType":"uint256","name":"","type":"uint256"}],"stateMutability":"view","type":"function"},{"inputs":[],"name":"DAO_TEAM_SIZE_REQUIREMENT","outputs":[{"internalType":"uint256","name":"","type":"uint256"}],"stateMutability":"view","type":"function"},{"inputs":[],"name":"DEAD_ADDRESS","outputs":[{"internalType":"address","name":"","type":"address"}],"stateMutability":"view","type":"function"},{"inputs":[],"name":"DEX_ALLOCATION","outputs":[{"internalType":"uint256","name":"","type":"uint256"}],"stateMutability":"view","type":"function"},{"inputs":[],"name":"EARLY_EXIT_FEE_BP","outputs":[{"internalType":"uint256","name":"","type":"uint256"}],"stateMutability":"view","type":"function"},{"inputs":[],"name":"EARLY_EXIT_PERIOD","outputs":[{"internalType":"uint256","name":"","type":"uint256"}],"stateMutability":"view","type":"function"},{"inputs":[],"name":"LAUNCH_TIMESTAMP","outputs":[{"internalType":"uint256","name":"","type":"uint256"}],"stateMutability":"view","type":"function"},{"inputs":[],"name":"LIFETIME_RATE","outputs":[{"internalType":"uint256","name":"","type":"uint256"}],"stateMutability":"view","type":"function"},{"inputs":[],"name":"LIFETIME_RATE_START","outputs":[{"internalType":"uint256","name":"","type":"uint256"}],"stateMutability":"view","type":"function"},{"inputs":[],"name":"MAX_BURN_SUPPLY","outputs":[{"internalType":"uint256","name":"","type":"uint256"}],"stateMutability":"view","type":"function"},{"inputs":[],"name":"MAX_DAO_MEMBERS","outputs":[{"internalType":"uint256","name":"","type":"uint256"}],"stateMutability":"view","type":"function"},{"inputs":[],"name":"MAX_DEPOSIT_PER_TX","outputs":[{"internalType":"uint256","name":"","type":"uint256"}],"stateMutability":"view","type":"function"},{"inputs":[],"name":"MAX_REFERRAL_LEVELS","outputs":[{"internalType":"uint256","name":"","type":"uint256"}],"stateMutability":"view","type":"function"},{"inputs":[],"name":"MIN_REMAINING_SUPPLY","outputs":[{"internalType":"uint256","name":"","type":"uint256"}],"stateMutability":"view","type":"function"},{"inputs":[],"name":"MIN_WITHDRAWAL_THRESHOLD","outputs":[{"internalType":"uint256","name":"","type":"uint256"}],"stateMutability":"view","type":"function"},{"inputs":[],"name":"PROPOSAL_THRESHOLD_BP","outputs":[{"internalType":"uint256","name":"","type":"uint256"}],"stateMutability":"view","type":"function"},{"inputs":[],"name":"QUALIFIED_DIRECT_MIN_DEPOSIT","outputs":[{"internalType":"uint256","name":"","type":"uint256"}],"stateMutability":"view","type":"function"},{"inputs":[],"name":"RANK1_BONUS_BP","outputs":[{"internalType":"uint256","name":"","type":"uint256"}],"stateMutability":"view","type":"function"},{"inputs":[],"name":"RANK1_TURNOVER","outputs":[{"internalType":"uint256","name":"","type":"uint256"}],"stateMutability":"view","type":"function"},{"inputs":[],"name":"RANK2_BONUS_BP","outputs":[{"internalType":"uint256","name":"","type":"uint256"}],"stateMutability":"view","type":"function"},{"inputs":[],"name":"RANK2_TURNOVER","outputs":[{"internalType":"uint256","name":"","type":"uint256"}],"stateMutability":"view","type":"function"},{"inputs":[],"name":"RANK3_BONUS_BP","outputs":[{"internalType":"uint256","name":"","type":"uint256"}],"stateMutability":"view","type":"function"},{"inputs":[],"name":"RANK3_TURNOVER","outputs":[{"internalType":"uint256","name":"","type":"uint256"}],"stateMutability":"view","type":"function"},{"inputs":[],"name":"RANK4_BONUS_BP","outputs":[{"internalType":"uint256","name":"","type":"uint256"}],"stateMutability":"view","type":"function"},{"inputs":[],"name":"RANK4_TURNOVER","outputs":[{"internalType":"uint256","name":"","type":"uint256"}],"stateMutability":"view","type":"function"},{"inputs":[],"name":"RANK5_BONUS_BP","outputs":[{"internalType":"uint256","name":"","type":"uint256"}],"stateMutability":"view","type":"function"},{"inputs":[],"name":"RANK5_TURNOVER","outputs":[{"internalType":"uint256","name":"","type":"uint256"}],"stateMutability":"view","type":"function"},{"inputs":[],"name":"RANK6_BONUS_BP","outputs":[{"internalType":"uint256","name":"","type":"uint256"}],"stateMutability":"view","type":"function"},{"inputs":[],"name":"RANK6_TURNOVER","outputs":[{"internalType":"uint256","name":"","type":"uint256"}],"stateMutability":"view","type":"function"},{"inputs":[],"name":"RANK7_BONUS_BP","outputs":[{"internalType":"uint256","name":"","type":"uint256"}],"stateMutability":"view","type":"function"},{"inputs":[],"name":"RANK7_TURNOVER","outputs":[{"internalType":"uint256","name":"","type":"uint256"}],"stateMutability":"view","type":"function"},{"inputs":[],"name":"RANK_MAIN_LEG_MAX_BP","outputs":[{"internalType":"uint256","name":"","type":"uint256"}],"stateMutability":"view","type":"function"},{"inputs":[],"name":"RANK_OTHER_LEGS_MIN_BP","outputs":[{"internalType":"uint256","name":"","type":"uint256"}],"stateMutability":"view","type":"function"},{"inputs":[],"name":"REFERRAL_L11_15_BP","outputs":[{"internalType":"uint256","name":"","type":"uint256"}],"stateMutability":"view","type":"function"},{"inputs":[],"name":"REFERRAL_L16_20_BP","outputs":[{"internalType":"uint256","name":"","type":"uint256"}],"stateMutability":"view","type":"function"},{"inputs":[],"name":"REFERRAL_L1_BP","outputs":[{"internalType":"uint256","name":"","type":"uint256"}],"stateMutability":"view","type":"function"},{"inputs":[],"name":"REFERRAL_L2_BP","outputs":[{"internalType":"uint256","name":"","type":"uint256"}],"stateMutability":"view","type":"function"},{"inputs":[],"name":"REFERRAL_L3_10_BP","outputs":[{"internalType":"uint256","name":"","type":"uint256"}],"stateMutability":"view","type":"function"},{"inputs":[],"name":"RETURN_CAP_MULTIPLIER","outputs":[{"internalType":"uint256","name":"","type":"uint256"}],"stateMutability":"view","type":"function"},{"inputs":[],"name":"SELL_TAX_BP","outputs":[{"internalType":"uint256","name":"","type":"uint256"}],"stateMutability":"view","type":"function"},{"inputs":[],"name":"SELL_TAX_FEE_BURN_BP","outputs":[{"internalType":"uint256","name":"","type":"uint256"}],"stateMutability":"view","type":"function"},{"inputs":[],"name":"SELL_TAX_TO_BURN_BP","outputs":[{"internalType":"uint256","name":"","type":"uint256"}],"stateMutability":"view","type":"function"},{"inputs":[],"name":"SELL_TAX_TO_CONTRACT_BP","outputs":[{"internalType":"uint256","name":"","type":"uint256"}],"stateMutability":"view","type":"function"},{"inputs":[],"name":"TIER1_MAX","outputs":[{"internalType":"uint256","name":"","type":"uint256"}],"stateMutability":"view","type":"function"},{"inputs":[],"name":"TIER1_MIN","outputs":[{"internalType":"uint256","name":"","type":"uint256"}],"stateMutability":"view","type":"function"},{"inputs":[],"name":"TIER1_RATE_MAX","outputs":[{"internalType":"uint256","name":"","type":"uint256"}],"stateMutability":"view","type":"function"},{"inputs":[],"name":"TIER1_RATE_MIN","outputs":[{"internalType":"uint256","name":"","type":"uint256"}],"stateMutability":"view","type":"function"},{"inputs":[],"name":"TIER2_MAX","outputs":[{"internalType":"uint256","name":"","type":"uint256"}],"stateMutability":"view","type":"function"},{"inputs":[],"name":"TIER2_MIN","outputs":[{"internalType":"uint256","name":"","type":"uint256"}],"stateMutability":"view","type":"function"},{"inputs":[],"name":"TIER2_RATE_MAX","outputs":[{"internalType":"uint256","name":"","type":"uint256"}],"stateMutability":"view","type":"function"},{"inputs":[],"name":"TIER2_RATE_MIN","outputs":[{"internalType":"uint256","name":"","type":"uint256"}],"stateMutability":"view","type":"function"},{"inputs":[],"name":"TIER3_MAX","outputs":[{"internalType":"uint256","name":"","type":"uint256"}],"stateMutability":"view","type":"function"},{"inputs":[],"name":"TIER3_MIN","outputs":[{"internalType":"uint256","name":"","type":"uint256"}],"stateMutability":"view","type":"function"},{"inputs":[],"name":"TIER3_RATE_MAX","outputs":[{"internalType":"uint256","name":"","type":"uint256"}],"stateMutability":"view","type":"function"},{"inputs":[],"name":"TIER3_RATE_MIN","outputs":[{"internalType":"uint256","name":"","type":"uint256"}],"stateMutability":"view","type":"function"},{"inputs":[],"name":"TIER4_IMPLICIT_MAX","outputs":[{"internalType":"uint256","name":"","type":"uint256"}],"stateMutability":"view","type":"function"},{"inputs":[],"name":"TIER4_MIN","outputs":[{"internalType":"uint256","name":"","type":"uint256"}],"stateMutability":"view","type":"function"},{"inputs":[],"name":"TIER4_RATE_MAX","outputs":[{"internalType":"uint256","name":"","type":"uint256"}],"stateMutability":"view","type":"function"},{"inputs":[],"name":"TIER4_RATE_MIN","outputs":[{"internalType":"uint256","name":"","type":"uint256"}],"stateMutability":"view","type":"function"},{"inputs":[],"name":"TIMELOCK_DELAY","outputs":[{"internalType":"uint256","name":"","type":"uint256"}],"stateMutability":"view","type":"function"},{"inputs":[],"name":"TOTAL_SUPPLY","outputs":[{"internalType":"uint256","name":"","type":"uint256"}],"stateMutability":"view","type":"function"},{"inputs":[],"name":"TREASURY_TO_DAO_BP","outputs":[{"internalType":"uint256","name":"","type":"uint256"}],"stateMutability":"view","type":"function"},{"inputs":[],"name":"TREASURY_TO_LP_BP","outputs":[{"internalType":"uint256","name":"","type":"uint256"}],"stateMutability":"view","type":"function"},{"inputs":[],"name":"TREASURY_TO_RANK_BP","outputs":[{"internalType":"uint256","name":"","type":"uint256"}],"stateMutability":"view","type":"function"},{"inputs":[],"name":"VOTING_PERIOD_BLOCKS","outputs":[{"internalType":"uint256","name":"","type":"uint256"}],"stateMutability":"view","type":"function"},{"inputs":[],"name":"WEEK_DURATION","outputs":[{"internalType":"uint256","name":"","type":"uint256"}],"stateMutability":"view","type":"function"},{"inputs":[],"name":"WITHDRAWAL_FEE_BP","outputs":[{"internalType":"uint256","name":"","type":"uint256"}],"stateMutability":"view","type":"function"}],"evm":{"bytecode":{"linkReferences":{},"object":"6106e661003a600b82828239805160001a60731461002d57634e487b7160e01b600052600060045260246000fd5b30600052607381538281f3fe73000000000000000000000000000000000000000030146080604052600436106104115760003560e01c806376f5f7001161022a578063a497b1341161013a578063dadf4022116100c2578063e954f41d11610091578063e954f41d14610673578063ed4d5f971461067e578063f5dd1f5d1461068f578063f64ff5b014610697578063fdce696c146106a857600080fd5b8063dadf402214610547578063dc67edbe14610455578063e1f1c4a714610617578063e4bd07c41461066357600080fd5b8063c7ccbafe11610109578063c7ccbafe14610639578063c86ebc991461057c578063cbbe2e8f146104ea578063ce18b69f1461064a578063d64667661461065257600080fd5b8063a497b1341461060e578063a4f8bd1514610617578063b136bdda14610620578063c5f7dd3c1461062957600080fd5b80638bfef2f4116101bd578063902d55a51161018c578063902d55a5146105da5780639fa42572146105ec578063a23df8dc14610455578063a29dfff3146105fc578063a35e793d1461060657600080fd5b80638bfef2f4146105b65780638bffc5b5146104555780638c46387a146105c85780638d419d71146104c857600080fd5b806382b14df3116101f957806382b14df3146104bf578063831f23ee1461059457806386f72d9f1461059c578063882d893b146105ad57600080fd5b806376f5f700146105725780637961954c1461057c5780637a8ba8ad14610525578063810f01b91461058b57600080fd5b8063484d395f1161032557806359942d29116102b8578063617b99d211610287578063617b99d21461054757806364d19609146104165780636e464a001461054f5780636f140bb714610557578063740bb5fa1461056157600080fd5b806359942d29146104555780635ba1c1a91461052d5780635cbbd382146104ea5780635ecd37e21461053757600080fd5b80634e6fd6c4116102f45780634e6fd6c4146104fc5780634edeb4bb1461051d5780635049700f1461052557806356b50540146104ea57600080fd5b8063484d395f146104d95780634936704e146104ea5780634bcaeb8d146104f25780634cdf912b1461041657600080fd5b80631d55c1c4116103a857806327d88e9f1161037757806327d88e9f1461045557806330b05bf5146104af578063313b0df4146104b75780633ca73ba1146104bf57806341f1c0d9146104c857600080fd5b80631d55c1c41461047e57806320f5735014610486578063232c53481461049757806324ebae691461049f57600080fd5b80630c48c5ee116103e45780630c48c5ee146104555780630e3fce461461045d57806318b64e03146104655780631b14f4eb1461046d57600080fd5b8063018b21f614610416578063039a9a2814610432578063063f391114610416578063080c1b3e14610443575b600080fd5b61041f6103e881565b6040519081526020015b60405180910390f35b61041f69054b40b1f852bda0000081565b61041f6a09195731e2ce35eb00000081565b61041f606481565b61041f602d81565b61041f601981565b61041f69152d02c7e14af680000081565b61041f601e81565b61041f6969e10de76676d080000081565b61041f60c881565b61041f681b0d04202f47ec000081565b61041f604b81565b61041f600f81565b61041f6107d081565b61041f69010f0cf064dd5920000081565b61041f690fe1c215e8f838e0000081565b61041f603281565b61041f6276a70081565b61050561dead81565b6040516001600160a01b039091168152602001610429565b61041f609681565b61041f600081565b61041f6202a30081565b61041f688778977bbb052c000081565b61041f601481565b61041f607381565b61041f620d2f0081565b61041f69fe1c215e8f838e00000081565b61041f62093a8081565b61041f678ac7230489e8000081565b61041f610fa081565b61041f600a81565b61041f692a5a058fc295ed00000081565b61041f610bb881565b61041f6a021165458500521280000081565b61041f6a084376fc33378d97c0000081565b61041f6a092e8434aaaf80e180000081565b61041f68056bc75e2d6310000081565b61041f6201518081565b61041f60fa81565b61041f61177081565b61041f61271081565b61041f611b5881565b61041f68878678326eac90000081565b61041f69021e19e0c9bab240000081565b61041f600381565b61041f690a968163f0a57b40000081565b61041f681b1ae4d6e2ef50000081565b61041f6369ffca8081565b61041f69eb0d387777f349c0000081565b61041f60af81565b61041f69010eff0fae29b1bc000081565b61041f60058156fea2646970667358221220387130dc5cc88e6b395b5aaabcf60cc1cedc0e8668689624920efebf6bd9983064736f6c63430008180033","opcodes":"PUSH2 0x6E6 PUSH2 0x3A PUSH1 0xB DUP3 DUP3 DUP3 CODECOPY DUP1 MLOAD PUSH1 0x0 BYTE PUSH1 0x73 EQ PUSH2 0x2D JUMPI PUSH4 0x4E487B71 PUSH1 0xE0 SHL PUSH1 0x0 MSTORE PUSH1 0x0 PUSH1 0x4 MSTORE PUSH1 0x24 PUSH1 0x0 REVERT JUMPDEST ADDRESS PUSH1 0x0 MSTORE PUSH1 0x73 DUP2 MSTORE8 DUP3 DUP2 RETURN INVALID PUSH20 0x0 ADDRESS EQ PUSH1 0x80 PUSH1 0x40 MSTORE PUSH1 0x4 CALLDATASIZE LT PUSH2 0x411 JUMPI PUSH1 0x0 CALLDATALOAD PUSH1 0xE0 SHR DUP1 PUSH4 0x76F5F700 GT PUSH2 0x22A JUMPI DUP1 PUSH4 0xA497B134 GT PUSH2 0x13A JUMPI DUP1 PUSH4 0xDADF4022 GT PUSH2 0xC2 JUMPI DUP1 PUSH4 0xE954F41D GT PUSH2 0x91 JUMPI DUP1 PUSH4 0xE954F41D EQ PUSH2 0x673 JUMPI DUP1 PUSH4 0xED4D5F97 EQ PUSH2 0x67E JUMPI DUP1 PUSH4 0xF5DD1F5D EQ PUSH2 0x68F JUMPI DUP1 PUSH4 0xF64FF5B0 EQ PUSH2 0x697 JUMPI DUP1 PUSH4 0xFDCE696C EQ PUSH2 0x6A8 JUMPI PUSH1 0x0 DUP1 REVERT JUMPDEST DUP1 PUSH4 0xDADF4022 EQ PUSH2 0x547 JUMPI DUP1 PUSH4 0xDC67EDBE EQ PUSH2 0x455 JUMPI DUP1 PUSH4 0xE1F1C4A7 EQ PUSH2 0x617 JUMPI DUP1 PUSH4 0xE4BD07C4 EQ PUSH2 0x663 JUMPI PUSH1 0x0 DUP1 REVERT JUMPDEST DUP1 PUSH4 0xC7CCBAFE GT PUSH2 0x109 JUMPI DUP1 PUSH4 0xC7CCBAFE EQ PUSH2 0x639 JUMPI DUP1 PUSH4 0xC86EBC99 EQ PUSH2 0x57C JUMPI DUP1 PUSH4 0xCBBE2E8F EQ PUSH2 0x4EA JUMPI DUP1 PUSH4 0xCE18B69F EQ PUSH2 0x64A JUMPI DUP1 PUSH4 0xD6466766 EQ PUSH2 0x652 JUMPI PUSH1 0x0 DUP1 REVERT JUMPDEST DUP1 PUSH4 0xA497B134 EQ PUSH2 0x60E JUMPI DUP1 PUSH4 0xA4F8BD15 EQ PUSH2 0x617 JUMPI DUP1 PUSH4 0xB136BDDA EQ PUSH2 0x620 JUMPI DUP1 PUSH4 0xC5F7DD3C EQ PUSH2 0x629 JUMPI PUSH1 0x0 DUP1 REVERT JUMPDEST DUP1 PUSH4 0x8BFEF2F4 GT PUSH2 0x1BD JUMPI DUP1 PUSH4 0x902D55A5 GT PUSH2 0x18C JUMPI DUP1 PUSH4 0x902D55A5 EQ PUSH2 0x5DA JUMPI DUP1 PUSH4 0x9FA42572 EQ PUSH2 0x5EC JUMPI DUP1 PUSH4 0xA23DF8DC EQ PUSH2 0x455 JUMPI DUP1 PUSH4 0xA29DFFF3 EQ PUSH2 0x5FC JUMPI DUP1 PUSH4 0xA35E793D EQ PUSH2 0x606 JUMPI PUSH1 0x0 DUP1 REVERT JUMPDEST DUP1 PUSH4 0x8BFEF2F4 EQ PUSH2 0x5B6 JUMPI DUP1 PUSH4 0x8BFFC5B5 EQ PUSH2 0x455 JUMPI DUP1 PUSH4 0x8C46387A EQ PUSH2 0x5C8 JUMPI DUP1 PUSH4 0x8D419D71 EQ PUSH2 0x4C8 JUMPI PUSH1 0x0 DUP1 REVERT JUMPDEST DUP1 PUSH4 0x82B14DF3 GT PUSH2 0x1F9 JUMPI DUP1 PUSH4 0x82B14DF3 EQ PUSH2 0x4BF JUMPI DUP1 PUSH4 0x831F23EE EQ PUSH2 0x594 JUMPI DUP1 PUSH4 0x86F72D9F EQ PUSH2 0x59C JUMPI DUP1 PUSH4 0x882D893B EQ PUSH2 0x5AD JUMPI PUSH1 0x0 DUP1 REVERT JUMPDEST DUP1 PUSH4 0x76F5F700 EQ PUSH2 0x572 JUMPI DUP1 PUSH4 0x7961954C EQ PUSH2 0x57C JUMPI DUP1 PUSH4 0x7A8BA8AD EQ PUSH2 0x525 JUMPI DUP1 PUSH4 0x810F01B9 EQ PUSH2 0x58B JUMPI PUSH1 0x0 DUP1 REVERT JUMPDEST DUP1 PUSH4 0x484D395F GT PUSH2 0x325 JUMPI DUP1 PUSH4 0x59942D29 GT PUSH2 0x2B8 JUMPI DUP1 PUSH4 0x617B99D2 GT PUSH2 0x287 JUMPI DUP1 PUSH4 0x617B99D2 EQ PUSH2 0x547 JUMPI DUP1 PUSH4 0x64D19609 EQ PUSH2 0x416 JUMPI DUP1 PUSH4 0x6E464A00 EQ PUSH2 0x54F JUMPI DUP1 PUSH4 0x6F140BB7 EQ PUSH2 0x557 JUMPI DUP1 PUSH4 0x740BB5FA EQ PUSH2 0x561 JUMPI PUSH1 0x0 DUP1 REVERT JUMPDEST DUP1 PUSH4 0x59942D29 EQ PUSH2 0x455 JUMPI DUP1 PUSH4 0x5BA1C1A9 EQ PUSH2 0x52D JUMPI DUP1 PUSH4 0x5CBBD382 EQ PUSH2 0x4EA JUMPI DUP1 PUSH4 0x5ECD37E2 EQ PUSH2 0x537 JUMPI PUSH1 0x0 DUP1 REVERT JUMPDEST DUP1 PUSH4 0x4E6FD6C4 GT PUSH2 0x2F4 JUMPI DUP1 PUSH4 0x4E6FD6C4 EQ PUSH2 0x4FC JUMPI DUP1 PUSH4 0x4EDEB4BB EQ PUSH2 0x51D JUMPI DUP1 PUSH4 0x5049700F EQ PUSH2 0x525 JUMPI DUP1 PUSH4 0x56B50540 EQ PUSH2 0x4EA JUMPI PUSH1 0x0 DUP1 REVERT JUMPDEST DUP1 PUSH4 0x484D395F EQ PUSH2 0x4D9 JUMPI DUP1 PUSH4 0x4936704E EQ PUSH2 0x4EA JUMPI DUP1 PUSH4 0x4BCAEB8D EQ PUSH2 0x4F2 JUMPI DUP1 PUSH4 0x4CDF912B EQ PUSH2 0x416 JUMPI PUSH1 0x0 DUP1 REVERT JUMPDEST DUP1 PUSH4 0x1D55C1C4 GT PUSH2 0x3A8 JUMPI DUP1 PUSH4 0x27D88E9F GT PUSH2 0x377 JUMPI DUP1 PUSH4 0x27D88E9F EQ PUSH2 0x455 JUMPI DUP1 PUSH4 0x30B05BF5 EQ PUSH2 0x4AF JUMPI DUP1 PUSH4 0x313B0DF4 EQ PUSH2 0x4B7 JUMPI DUP1 PUSH4 0x3CA73BA1 EQ PUSH2 0x4BF JUMPI DUP1 PUSH4 0x41F1C0D9 EQ PUSH2 0x4C8 JUMPI PUSH1 0x0 DUP1 REVERT JUMPDEST DUP1 PUSH4 0x1D55C1C4 EQ PUSH2 0x47E JUMPI DUP1 PUSH4 0x20F57350 EQ PUSH2 0x486 JUMPI DUP1 PUSH4 0x232C5348 EQ PUSH2 0x497 JUMPI DUP1 PUSH4 0x24EBAE69 EQ PUSH2 0x49F JUMPI PUSH1 0x0 DUP1 REVERT JUMPDEST DUP1 PUSH4 0xC48C5EE GT PUSH2 0x3E4 JUMPI DUP1 PUSH4 0xC48C5EE EQ PUSH2 0x455 JUMPI DUP1 PUSH4 0xE3FCE46 EQ PUSH2 0x45D JUMPI DUP1 PUSH4 0x18B64E03 EQ PUSH2 0x465 JUMPI DUP1 PUSH4 0x1B14F4EB EQ PUSH2 0x46D JUMPI PUSH1 0x0 DUP1 REVERT JUMPDEST DUP1 PUSH4 0x18B21F6 EQ PUSH2 0x416 JUMPI DUP1 PUSH4 0x39A9A28 EQ PUSH2 0x432 JUMPI DUP1 PUSH4 0x63F3911 EQ PUSH2 0x416 JUMPI DUP1 PUSH4 0x80C1B3E EQ PUSH2 0x443 JUMPI JUMPDEST PUSH1 0x0 DUP1 REVERT JUMPDEST PUSH2 0x41F PUSH2 0x3E8 DUP2 JUMP JUMPDEST PUSH1 0x40 MLOAD SWAP1 DUP2 MSTORE PUSH1 0x20 ADD JUMPDEST PUSH1 0x40 MLOAD DUP1 SWAP2 SUB SWAP1 RETURN JUMPDEST PUSH2 0x41F PUSH10 0x54B40B1F852BDA00000 DUP2 JUMP JUMPDEST PUSH2 0x41F PUSH11 0x9195731E2CE35EB000000 DUP2 JUMP JUMPDEST PUSH2 0x41F PUSH1 0x64 DUP2 JUMP JUMPDEST PUSH2 0x41F PUSH1 0x2D DUP2 JUMP JUMPDEST PUSH2 0x41F PUSH1 0x19 DUP2 JUMP JUMPDEST PUSH2 0x41F PUSH10 0x152D02C7E14AF6800000 DUP2 JUMP JUMPDEST PUSH2 0x41F PUSH1 0x1E DUP2 JUMP JUMPDEST PUSH2 0x41F PUSH10 0x69E10DE76676D0800000 DUP2 JUMP JUMPDEST PUSH2 0x41F PUSH1 0xC8 DUP2 JUMP JUMPDEST PUSH2 0x41F PUSH9 0x1B0D04202F47EC0000 DUP2 JUMP JUMPDEST PUSH2 0x41F PUSH1 0x4B DUP2 JUMP JUMPDEST PUSH2 0x41F PUSH1 0xF DUP2 JUMP JUMPDEST PUSH2 0x41F PUSH2 0x7D0 DUP2 JUMP JUMPDEST PUSH2 0x41F PUSH10 0x10F0CF064DD59200000 DUP2 JUMP JUMPDEST PUSH2 0x41F PUSH10 0xFE1C215E8F838E00000 DUP2 JUMP JUMPDEST PUSH2 0x41F PUSH1 0x32 DUP2 JUMP JUMPDEST PUSH2 0x41F PUSH3 0x76A700 DUP2 JUMP JUMPDEST PUSH2 0x505 PUSH2 0xDEAD DUP2 JUMP JUMPDEST PUSH1 0x40 MLOAD PUSH1 0x1 PUSH1 0x1 PUSH1 0xA0 SHL SUB SWAP1 SWAP2 AND DUP2 MSTORE PUSH1 0x20 ADD PUSH2 0x429 JUMP JUMPDEST PUSH2 0x41F PUSH1 0x96 DUP2 JUMP JUMPDEST PUSH2 0x41F PUSH1 0x0 DUP2 JUMP JUMPDEST PUSH2 0x41F PUSH3 0x2A300 DUP2 JUMP JUMPDEST PUSH2 0x41F PUSH9 0x8778977BBB052C0000 DUP2 JUMP JUMPDEST PUSH2 0x41F PUSH1 0x14 DUP2 JUMP JUMPDEST PUSH2 0x41F PUSH1 0x73 DUP2 JUMP JUMPDEST PUSH2 0x41F PUSH3 0xD2F00 DUP2 JUMP JUMPDEST PUSH2 0x41F PUSH10 0xFE1C215E8F838E000000 DUP2 JUMP JUMPDEST PUSH2 0x41F PUSH3 0x93A80 DUP2 JUMP JUMPDEST PUSH2 0x41F PUSH8 0x8AC7230489E80000 DUP2 JUMP JUMPDEST PUSH2 0x41F PUSH2 0xFA0 DUP2 JUMP JUMPDEST PUSH2 0x41F PUSH1 0xA DUP2 JUMP JUMPDEST PUSH2 0x41F PUSH10 0x2A5A058FC295ED000000 DUP2 JUMP JUMPDEST PUSH2 0x41F PUSH2 0xBB8 DUP2 JUMP JUMPDEST PUSH2 0x41F PUSH11 0x211654585005212800000 DUP2 JUMP JUMPDEST PUSH2 0x41F PUSH11 0x84376FC33378D97C00000 DUP2 JUMP JUMPDEST PUSH2 0x41F PUSH11 0x92E8434AAAF80E1800000 DUP2 JUMP JUMPDEST PUSH2 0x41F PUSH9 0x56BC75E2D63100000 DUP2 JUMP JUMPDEST PUSH2 0x41F PUSH3 0x15180 DUP2 JUMP JUMPDEST PUSH2 0x41F PUSH1 0xFA DUP2 JUMP JUMPDEST PUSH2 0x41F PUSH2 0x1770 DUP2 JUMP JUMPDEST PUSH2 0x41F PUSH2 0x2710 DUP2 JUMP JUMPDEST PUSH2 0x41F PUSH2 0x1B58 DUP2 JUMP JUMPDEST PUSH2 0x41F PUSH9 0x878678326EAC900000 DUP2 JUMP JUMPDEST PUSH2 0x41F PUSH10 0x21E19E0C9BAB2400000 DUP2 JUMP JUMPDEST PUSH2 0x41F PUSH1 0x3 DUP2 JUMP JUMPDEST PUSH2 0x41F PUSH10 0xA968163F0A57B400000 DUP2 JUMP JUMPDEST PUSH2 0x41F PUSH9 0x1B1AE4D6E2EF500000 DUP2 JUMP JUMPDEST PUSH2 0x41F PUSH4 0x69FFCA80 DUP2 JUMP JUMPDEST PUSH2 0x41F PUSH10 0xEB0D387777F349C00000 DUP2 JUMP JUMPDEST PUSH2 0x41F PUSH1 0xAF DUP2 JUMP JUMPDEST PUSH2 0x41F PUSH10 0x10EFF0FAE29B1BC0000 DUP2 JUMP JUMPDEST PUSH2 0x41F PUSH1 0x5 DUP2 JUMP INVALID LOG2 PUSH5 0x6970667358 0x22 SLT KECCAK256 CODESIZE PUSH18 0x30DC5CC88E6B395B5AAABCF60CC1CEDC0E86 PUSH9 0x689624920EFEBF6BD9 SWAP9 ADDRESS PUSH5 0x736F6C6343 STOP ADDMOD XOR STOP CALLER "},"methodIdentifiers":{"BASIS_POINTS()":"e1f1c4a7","CONTRACT_RESERVE()":"080c1b3e","DAO_MONTHLY_ROYALTY_BP()":"56b50540","DAO_TEAM_SIZE_REQUIREMENT()":"a35e793d","DEAD_ADDRESS()":"4e6fd6c4","DEX_ALLOCATION()":"1b14f4eb","EARLY_EXIT_FEE_BP()":"4cdf912b","EARLY_EXIT_PERIOD()":"6f140bb7","LAUNCH_TIMESTAMP()":"e954f41d","LIFETIME_RATE()":"0e3fce46","LIFETIME_RATE_START()":"4bcaeb8d","MAX_BURN_SUPPLY()":"8c46387a","MAX_DAO_MEMBERS()":"232c5348","MAX_DEPOSIT_PER_TX()":"41f1c0d9","MAX_REFERRAL_LEVELS()":"617b99d2","MIN_REMAINING_SUPPLY()":"ed4d5f97","MIN_WITHDRAWAL_THRESHOLD()":"c86ebc99","PROPOSAL_THRESHOLD_BP()":"dc67edbe","QUALIFIED_DIRECT_MIN_DEPOSIT()":"9fa42572","RANK1_BONUS_BP()":"8bffc5b5","RANK1_TURNOVER()":"c7ccbafe","RANK2_BONUS_BP()":"4936704e","RANK2_TURNOVER()":"039a9a28","RANK3_BONUS_BP()":"1d55c1c4","RANK3_TURNOVER()":"484d395f","RANK4_BONUS_BP()":"dadf4022","RANK4_TURNOVER()":"86f72d9f","RANK5_BONUS_BP()":"313b0df4","RANK5_TURNOVER()":"20f57350","RANK6_BONUS_BP()":"831f23ee","RANK6_TURNOVER()":"740bb5fa","RANK7_BONUS_BP()":"fdce696c","RANK7_TURNOVER()":"8bfef2f4","RANK_MAIN_LEG_MAX_BP()":"810f01b9","RANK_OTHER_LEGS_MIN_BP()":"a497b134","REFERRAL_L11_15_BP()":"5cbbd382","REFERRAL_L16_20_BP()":"18b64e03","REFERRAL_L1_BP()":"882d893b","REFERRAL_L2_BP()":"82b14df3","REFERRAL_L3_10_BP()":"a23df8dc","RETURN_CAP_MULTIPLIER()":"ce18b69f","SELL_TAX_BP()":"64d19609","SELL_TAX_FEE_BURN_BP()":"063f3911","SELL_TAX_TO_BURN_BP()":"3ca73ba1","SELL_TAX_TO_CONTRACT_BP()":"b136bdda","TIER1_MAX()":"24ebae69","TIER1_MIN()":"7961954c","TIER1_RATE_MAX()":"0c48c5ee","TIER1_RATE_MIN()":"cbbe2e8f","TIER2_MAX()":"5ecd37e2","TIER2_MIN()":"e4bd07c4","TIER2_RATE_MAX()":"6e464a00","TIER2_RATE_MIN()":"30b05bf5","TIER3_MAX()":"f64ff5b0","TIER3_MIN()":"c5f7dd3c","TIER3_RATE_MAX()":"4edeb4bb","TIER3_RATE_MIN()":"59942d29","TIER4_IMPLICIT_MAX()":"d6466766","TIER4_MIN()":"8d419d71","TIER4_RATE_MAX()":"f5dd1f5d","TIER4_RATE_MIN()":"27d88e9f","TIMELOCK_DELAY()":"5ba1c1a9","TOTAL_SUPPLY()":"902d55a5","TREASURY_TO_DAO_BP()":"7a8ba8ad","TREASURY_TO_LP_BP()":"a4f8bd15","TREASURY_TO_RANK_BP()":"5049700f","VOTING_PERIOD_BLOCKS()":"a29dfff3","WEEK_DURATION()":"76f5f700","WITHDRAWAL_FEE_BP()":"018b21f6"}}}}}