{"contracts/OSLODAO.sol":{"OSLODAO":{"abi":[{"inputs":[{"internalType":"address","name":"_usdt","type":"address"}],"stateMutability":"nonpayable","type":"constructor"},{"inputs":[],"name":"AlreadyClaimed","type":"error"},{"inputs":[],"name":"AlreadyDAOMember","type":"error"},{"inputs":[],"name":"CurrentMonthNotClaimable","type":"error"},{"inputs":[],"name":"InsufficientRoyaltyPool","type":"error"},{"inputs":[],"name":"MaxDAOMembersReached","type":"error"},{"inputs":[],"name":"NoRoyalty","type":"error"},{"inputs":[],"name":"NotDAOMember","type":"error"},{"inputs":[],"name":"OnlyAdmin","type":"error"},{"inputs":[],"name":"OnlyTimelock","type":"error"},{"inputs":[],"name":"ReentrancyGuardReentrantCall","type":"error"},{"inputs":[{"internalType":"address","name":"token","type":"address"}],"name":"SafeERC20FailedOperation","type":"error"},{"inputs":[],"name":"SetupAlreadyComplete","type":"error"},{"inputs":[],"name":"ZeroAddress","type":"error"},{"anonymous":false,"inputs":[{"indexed":true,"internalType":"address","name":"user","type":"address"},{"indexed":false,"internalType":"uint256","name":"memberNumber","type":"uint256"},{"indexed":false,"internalType":"uint256","name":"teamSize","type":"uint256"}],"name":"DAOMemberQualified","type":"event"},{"anonymous":false,"inputs":[{"indexed":false,"internalType":"uint256","name":"monthId","type":"uint256"},{"indexed":false,"internalType":"uint256","name":"amount","type":"uint256"}],"name":"MonthlyTurnoverRecorded","type":"event"},{"anonymous":false,"inputs":[{"indexed":true,"internalType":"address","name":"user","type":"address"},{"indexed":false,"internalType":"uint256","name":"amount","type":"uint256"},{"indexed":false,"internalType":"uint256","name":"monthId","type":"uint256"}],"name":"RoyaltyClaimed","type":"event"},{"anonymous":false,"inputs":[{"indexed":false,"internalType":"uint256","name":"amount","type":"uint256"}],"name":"RoyaltyPoolFunded","type":"event"},{"inputs":[],"name":"admin","outputs":[{"internalType":"address","name":"","type":"address"}],"stateMutability":"view","type":"function"},{"inputs":[{"internalType":"address","name":"user","type":"address"},{"internalType":"uint256","name":"teamSize","type":"uint256"}],"name":"checkAndQualify","outputs":[],"stateMutability":"nonpayable","type":"function"},{"inputs":[],"name":"claimRoyalty","outputs":[],"stateMutability":"nonpayable","type":"function"},{"inputs":[],"name":"completeSetup","outputs":[],"stateMutability":"nonpayable","type":"function"},{"inputs":[{"internalType":"address","name":"_timelock","type":"address"},{"internalType":"address","name":"_investmentEngine","type":"address"}],"name":"configure","outputs":[],"stateMutability":"nonpayable","type":"function"},{"inputs":[],"name":"daoMemberCount","outputs":[{"internalType":"uint256","name":"","type":"uint256"}],"stateMutability":"view","type":"function"},{"inputs":[{"internalType":"uint256","name":"","type":"uint256"}],"name":"daoMembers","outputs":[{"internalType":"address","name":"","type":"address"}],"stateMutability":"view","type":"function"},{"inputs":[],"name":"genesisTimestamp","outputs":[{"internalType":"uint256","name":"","type":"uint256"}],"stateMutability":"view","type":"function"},{"inputs":[],"name":"getAllDAOMembers","outputs":[{"internalType":"address[]","name":"","type":"address[]"}],"stateMutability":"view","type":"function"},{"inputs":[],"name":"getCurrentMonthId","outputs":[{"internalType":"uint256","name":"","type":"uint256"}],"stateMutability":"view","type":"function"},{"inputs":[{"internalType":"address","name":"user","type":"address"}],"name":"getPendingRoyalty","outputs":[{"internalType":"uint256","name":"","type":"uint256"}],"stateMutability":"view","type":"function"},{"inputs":[],"name":"investmentEngine","outputs":[{"internalType":"address","name":"","type":"address"}],"stateMutability":"view","type":"function"},{"inputs":[{"internalType":"address","name":"","type":"address"}],"name":"isDAOMember","outputs":[{"internalType":"bool","name":"","type":"bool"}],"stateMutability":"view","type":"function"},{"inputs":[{"internalType":"uint256","name":"","type":"uint256"}],"name":"monthlyTurnover","outputs":[{"internalType":"uint256","name":"","type":"uint256"}],"stateMutability":"view","type":"function"},{"inputs":[{"internalType":"uint256","name":"amount","type":"uint256"}],"name":"receiveRoyaltyPool","outputs":[],"stateMutability":"nonpayable","type":"function"},{"inputs":[{"internalType":"uint256","name":"amount","type":"uint256"}],"name":"recordMonthlyTurnover","outputs":[],"stateMutability":"nonpayable","type":"function"},{"inputs":[{"internalType":"address","name":"","type":"address"},{"internalType":"uint256","name":"","type":"uint256"}],"name":"royaltyClaimed","outputs":[{"internalType":"bool","name":"","type":"bool"}],"stateMutability":"view","type":"function"},{"inputs":[],"name":"royaltyPoolBalance","outputs":[{"internalType":"uint256","name":"","type":"uint256"}],"stateMutability":"view","type":"function"},{"inputs":[],"name":"setupComplete","outputs":[{"internalType":"bool","name":"","type":"bool"}],"stateMutability":"view","type":"function"},{"inputs":[],"name":"timelock","outputs":[{"internalType":"address","name":"","type":"address"}],"stateMutability":"view","type":"function"},{"inputs":[],"name":"totalRoyaltiesDistributed","outputs":[{"internalType":"uint256","name":"","type":"uint256"}],"stateMutability":"view","type":"function"},{"inputs":[],"name":"usdt","outputs":[{"internalType":"contract IERC20","name":"","type":"address"}],"stateMutability":"view","type":"function"}],"evm":{"bytecode":{"linkReferences":{},"object":"60c060405234801561001057600080fd5b50604051610f55380380610f5583398101604081905261002f916100a1565b60017f9b779b17422d0df92223018b32b4d1fa46e071723d6817e2486d003becc55f00556001600160a01b03811661007a5760405163d92e233d60e01b815260040160405180910390fd5b6001600160a01b0316608052600780546001600160a01b031916331790554260a0526100d1565b6000602082840312156100b357600080fd5b81516001600160a01b03811681146100ca57600080fd5b9392505050565b60805160a051610e4a61010b6000396000818161028d01526105380152600081816101870152818161058401526108c10152610e4a6000f3fe608060405234801561001057600080fd5b50600436106101425760003560e01c8063af9221b4116100b8578063d33219b41161007c578063d33219b4146102af578063e470d5cf146102c2578063eade149c146102d5578063f5444d36146102e8578063f851a44014610316578063fb2343471461032957600080fd5b8063af9221b414610224578063b1e44d8f1461022c578063b6635be61461025f578063c7166dd514610273578063cacf66ab1461028857600080fd5b80634e9380a91161010a5780634e9380a9146101dd5780636f0803be146101e557806371a152b2146101ee5780638aea8f7114610201578063900e92c4146102095780639d51173f1461021157600080fd5b806304d8adca1461014757806327ab371b1461016d5780632f48ab7d1461018257806330131384146101c15780633a9f6292146101d4575b600080fd5b61015a610155366004610cb4565b610349565b6040519081526020015b60405180910390f35b61018061017b366004610cd6565b610441565b005b6101a97f000000000000000000000000000000000000000000000000000000000000000081565b6040516001600160a01b039091168152602001610164565b6000546101a9906001600160a01b031681565b61015a60055481565b61015a61052d565b61015a60065481565b6101806101fc366004610d00565b610577565b6101806105f9565b610180610674565b6101a961021f366004610d00565b610954565b60015461015a565b61024f61023a366004610cb4565b60026020526000908152604090205460ff1681565b6040519015158152602001610164565b60085461024f90600160a01b900460ff1681565b61027b61097e565b6040516101649190610d19565b61015a7f000000000000000000000000000000000000000000000000000000000000000081565b6008546101a9906001600160a01b031681565b6101806102d0366004610d66565b6109e0565b6101806102e3366004610d00565b610a64565b61024f6102f6366004610cd6565b600460209081526000928352604080842090915290825290205460ff1681565b6007546101a9906001600160a01b031681565b61015a610337366004610d00565b60036020526000908152604090205481565b6001600160a01b03811660009081526002602052604081205460ff1661037157506000919050565b600061037b61052d565b90506001811161038e5750600092915050565b600061039b600183610daf565b6001600160a01b038516600090815260046020908152604080832084845290915290205490915060ff16156103d4575060009392505050565b600081815260036020526040812054908190036103f657506000949350505050565b6000612710610406603284610dc8565b6104109190610ddf565b600154909150600081900361042c575060009695505050505050565b6104368183610ddf565b979650505050505050565b6001600160a01b03821660009081526002602052604090205460ff1615610466575050565b60015460c811610474575050565b60fa811015610481575050565b6001600160a01b038216600081815260026020526040808220805460ff1916600190811790915580548082018255928190527fb10e2d527612073b26eecdfd717e6a320cf44b4afac2b0732d9fcbe2b7fa0cf690920180546001600160a01b03191684179055905490517fb0799360241064b125fa79f16388e5c5eb36b2d5b259b2b626838eb6a934b05f91610521918590918252602082015260400190565b60405180910390a25050565b600062278d0061055d7f000000000000000000000000000000000000000000000000000000000000000042610daf565b6105679190610ddf565b610572906001610e01565b905090565b6105ac6001600160a01b037f000000000000000000000000000000000000000000000000000000000000000016333084610ad5565b80600560008282546105be9190610e01565b90915550506040518181527f3c8ad648a1ddfefe02b27d709d3a201184855e03e5a57564dd8d3ddcd0912e639060200160405180910390a150565b6007546001600160a01b0316331461062457604051634755657960e01b815260040160405180910390fd5b600854600160a01b900460ff161561064f5760405163238f75d360e01b815260040160405180910390fd5b6008805460ff60a01b1916600160a01b179055600780546001600160a01b0319169055565b61067c610b16565b3360009081526002602052604090205460ff166106ac57604051636acb7bb760e01b815260040160405180910390fd5b60006106b661052d565b9050600181116106d957604051633c9754b360e11b815260040160405180910390fd5b60006106e6600183610daf565b33600090815260046020908152604080832084845290915290205490915060ff161561072557604051630c8d9eab60e31b815260040160405180910390fd5b6000818152600360205260408120549081900361075557604051633c9754b360e11b815260040160405180910390fd5b6000612710610765603284610dc8565b61076f9190610ddf565b600154909150600081900361079757604051633c9754b360e11b815260040160405180910390fd5b60006107a38284610ddf565b9050806000036107c657604051633c9754b360e11b815260040160405180910390fd5b6005548111156107e9576040516307d202ff60e11b815260040160405180910390fd5b3360009081526004602090815260408083208884529091528120805460ff1916600117905560058054839290610820908490610daf565b9250508190555080600660008282546108399190610e01565b90915550506000546001600160a01b0316156108b4576000546040516335cfbd5b60e11b8152336004820152602481018390526001600160a01b0390911690636b9f7ab690604401600060405180830381600087803b15801561089b57600080fd5b505af11580156108af573d6000803e3d6000fd5b505050505b6108e86001600160a01b037f0000000000000000000000000000000000000000000000000000000000000000163383610b44565b604080518281526020810187905233917f6fe778711f06ca052305b633ba1b304f4d71c1523776f2aa3059d8d99f5420de910160405180910390a250505050505061095260017f9b779b17422d0df92223018b32b4d1fa46e071723d6817e2486d003becc55f0055565b565b6001818154811061096457600080fd5b6000918252602090912001546001600160a01b0316905081565b606060018054806020026020016040519081016040528092919081815260200182805480156109d657602002820191906000526020600020905b81546001600160a01b031681526001909101906020018083116109b8575b5050505050905090565b6007546001600160a01b03163314610a0b57604051634755657960e01b815260040160405180910390fd5b600854600160a01b900460ff1615610a365760405163238f75d360e01b815260040160405180910390fd5b600880546001600160a01b039384166001600160a01b03199182161790915560008054929093169116179055565b6000610a6e61052d565b905081600360008381526020019081526020016000206000828254610a939190610e01565b909155505060408051828152602081018490527f3b9c1e7aaf9f822c701e3b3eb12e06265bbd2e6871a1574446b3f8a9fda4e612910160405180910390a15050565b610ae3848484846001610b7e565b610b1057604051635274afe760e01b81526001600160a01b03851660048201526024015b60405180910390fd5b50505050565b610b1e610bf0565b60027f9b779b17422d0df92223018b32b4d1fa46e071723d6817e2486d003becc55f0055565b610b518383836001610c32565b610b7957604051635274afe760e01b81526001600160a01b0384166004820152602401610b07565b505050565b6040516323b872dd60e01b60008181526001600160a01b038781166004528616602452604485905291602083606481808c5af192506001600051148316610bde578383151615610bd1573d6000823e3d81fd5b6000883b113d1516831692505b60405250600060605295945050505050565b7f9b779b17422d0df92223018b32b4d1fa46e071723d6817e2486d003becc55f005460020361095257604051633ee5aeb560e01b815260040160405180910390fd5b60405163a9059cbb60e01b60008181526001600160a01b038616600452602485905291602083604481808b5af192506001600051148316610c8c578383151615610c7f573d6000823e3d81fd5b6000873b113d1516831692505b60405250949350505050565b80356001600160a01b0381168114610caf57600080fd5b919050565b600060208284031215610cc657600080fd5b610ccf82610c98565b9392505050565b60008060408385031215610ce957600080fd5b610cf283610c98565b946020939093013593505050565b600060208284031215610d1257600080fd5b5035919050565b6020808252825182820181905260009190848201906040850190845b81811015610d5a5783516001600160a01b031683529284019291840191600101610d35565b50909695505050505050565b60008060408385031215610d7957600080fd5b610d8283610c98565b9150610d9060208401610c98565b90509250929050565b634e487b7160e01b600052601160045260246000fd5b81810381811115610dc257610dc2610d99565b92915050565b8082028115828204841417610dc257610dc2610d99565b600082610dfc57634e487b7160e01b600052601260045260246000fd5b500490565b80820180821115610dc257610dc2610d9956fea2646970667358221220880e5b239d6e0363112f64f1f1981dedd51e3458a84223fb93faa39962a9121d64736f6c63430008180033","opcodes":"PUSH1 0xC0 PUSH1 0x40 MSTORE CALLVALUE DUP1 ISZERO PUSH2 0x10 JUMPI PUSH1 0x0 DUP1 REVERT JUMPDEST POP PUSH1 0x40 MLOAD PUSH2 0xF55 CODESIZE SUB DUP1 PUSH2 0xF55 DUP4 CODECOPY DUP2 ADD PUSH1 0x40 DUP2 SWAP1 MSTORE PUSH2 0x2F SWAP2 PUSH2 0xA1 JUMP JUMPDEST PUSH1 0x1 PUSH32 0x9B779B17422D0DF92223018B32B4D1FA46E071723D6817E2486D003BECC55F00 SSTORE PUSH1 0x1 PUSH1 0x1 PUSH1 0xA0 SHL SUB DUP2 AND PUSH2 0x7A JUMPI PUSH1 0x40 MLOAD PUSH4 0xD92E233D PUSH1 0xE0 SHL DUP2 MSTORE PUSH1 0x4 ADD PUSH1 0x40 MLOAD DUP1 SWAP2 SUB SWAP1 REVERT JUMPDEST PUSH1 0x1 PUSH1 0x1 PUSH1 0xA0 SHL SUB AND PUSH1 0x80 MSTORE PUSH1 0x7 DUP1 SLOAD PUSH1 0x1 PUSH1 0x1 PUSH1 0xA0 SHL SUB NOT AND CALLER OR SWAP1 SSTORE TIMESTAMP PUSH1 0xA0 MSTORE PUSH2 0xD1 JUMP JUMPDEST PUSH1 0x0 PUSH1 0x20 DUP3 DUP5 SUB SLT ISZERO PUSH2 0xB3 JUMPI PUSH1 0x0 DUP1 REVERT JUMPDEST DUP2 MLOAD PUSH1 0x1 PUSH1 0x1 PUSH1 0xA0 SHL SUB DUP2 AND DUP2 EQ PUSH2 0xCA JUMPI PUSH1 0x0 DUP1 REVERT JUMPDEST SWAP4 SWAP3 POP POP POP JUMP JUMPDEST PUSH1 0x80 MLOAD PUSH1 0xA0 MLOAD PUSH2 0xE4A PUSH2 0x10B PUSH1 0x0 CODECOPY PUSH1 0x0 DUP2 DUP2 PUSH2 0x28D ADD MSTORE PUSH2 0x538 ADD MSTORE PUSH1 0x0 DUP2 DUP2 PUSH2 0x187 ADD MSTORE DUP2 DUP2 PUSH2 0x584 ADD MSTORE PUSH2 0x8C1 ADD MSTORE PUSH2 0xE4A PUSH1 0x0 RETURN INVALID PUSH1 0x80 PUSH1 0x40 MSTORE CALLVALUE DUP1 ISZERO PUSH2 0x10 JUMPI PUSH1 0x0 DUP1 REVERT JUMPDEST POP PUSH1 0x4 CALLDATASIZE LT PUSH2 0x142 JUMPI PUSH1 0x0 CALLDATALOAD PUSH1 0xE0 SHR DUP1 PUSH4 0xAF9221B4 GT PUSH2 0xB8 JUMPI DUP1 PUSH4 0xD33219B4 GT PUSH2 0x7C JUMPI DUP1 PUSH4 0xD33219B4 EQ PUSH2 0x2AF JUMPI DUP1 PUSH4 0xE470D5CF EQ PUSH2 0x2C2 JUMPI DUP1 PUSH4 0xEADE149C EQ PUSH2 0x2D5 JUMPI DUP1 PUSH4 0xF5444D36 EQ PUSH2 0x2E8 JUMPI DUP1 PUSH4 0xF851A440 EQ PUSH2 0x316 JUMPI DUP1 PUSH4 0xFB234347 EQ PUSH2 0x329 JUMPI PUSH1 0x0 DUP1 REVERT JUMPDEST DUP1 PUSH4 0xAF9221B4 EQ PUSH2 0x224 JUMPI DUP1 PUSH4 0xB1E44D8F EQ PUSH2 0x22C JUMPI DUP1 PUSH4 0xB6635BE6 EQ PUSH2 0x25F JUMPI DUP1 PUSH4 0xC7166DD5 EQ PUSH2 0x273 JUMPI DUP1 PUSH4 0xCACF66AB EQ PUSH2 0x288 JUMPI PUSH1 0x0 DUP1 REVERT JUMPDEST DUP1 PUSH4 0x4E9380A9 GT PUSH2 0x10A JUMPI DUP1 PUSH4 0x4E9380A9 EQ PUSH2 0x1DD JUMPI DUP1 PUSH4 0x6F0803BE EQ PUSH2 0x1E5 JUMPI DUP1 PUSH4 0x71A152B2 EQ PUSH2 0x1EE JUMPI DUP1 PUSH4 0x8AEA8F71 EQ PUSH2 0x201 JUMPI DUP1 PUSH4 0x900E92C4 EQ PUSH2 0x209 JUMPI DUP1 PUSH4 0x9D51173F EQ PUSH2 0x211 JUMPI PUSH1 0x0 DUP1 REVERT JUMPDEST DUP1 PUSH4 0x4D8ADCA EQ PUSH2 0x147 JUMPI DUP1 PUSH4 0x27AB371B EQ PUSH2 0x16D JUMPI DUP1 PUSH4 0x2F48AB7D EQ PUSH2 0x182 JUMPI DUP1 PUSH4 0x30131384 EQ PUSH2 0x1C1 JUMPI DUP1 PUSH4 0x3A9F6292 EQ PUSH2 0x1D4 JUMPI JUMPDEST PUSH1 0x0 DUP1 REVERT JUMPDEST PUSH2 0x15A PUSH2 0x155 CALLDATASIZE PUSH1 0x4 PUSH2 0xCB4 JUMP JUMPDEST PUSH2 0x349 JUMP JUMPDEST PUSH1 0x40 MLOAD SWAP1 DUP2 MSTORE PUSH1 0x20 ADD JUMPDEST PUSH1 0x40 MLOAD DUP1 SWAP2 SUB SWAP1 RETURN JUMPDEST PUSH2 0x180 PUSH2 0x17B CALLDATASIZE PUSH1 0x4 PUSH2 0xCD6 JUMP JUMPDEST PUSH2 0x441 JUMP JUMPDEST STOP JUMPDEST PUSH2 0x1A9 PUSH32 0x0 DUP2 JUMP JUMPDEST PUSH1 0x40 MLOAD PUSH1 0x1 PUSH1 0x1 PUSH1 0xA0 SHL SUB SWAP1 SWAP2 AND DUP2 MSTORE PUSH1 0x20 ADD PUSH2 0x164 JUMP JUMPDEST PUSH1 0x0 SLOAD PUSH2 0x1A9 SWAP1 PUSH1 0x1 PUSH1 0x1 PUSH1 0xA0 SHL SUB AND DUP2 JUMP JUMPDEST PUSH2 0x15A PUSH1 0x5 SLOAD DUP2 JUMP JUMPDEST PUSH2 0x15A PUSH2 0x52D JUMP JUMPDEST PUSH2 0x15A PUSH1 0x6 SLOAD DUP2 JUMP JUMPDEST PUSH2 0x180 PUSH2 0x1FC CALLDATASIZE PUSH1 0x4 PUSH2 0xD00 JUMP JUMPDEST PUSH2 0x577 JUMP JUMPDEST PUSH2 0x180 PUSH2 0x5F9 JUMP JUMPDEST PUSH2 0x180 PUSH2 0x674 JUMP JUMPDEST PUSH2 0x1A9 PUSH2 0x21F CALLDATASIZE PUSH1 0x4 PUSH2 0xD00 JUMP JUMPDEST PUSH2 0x954 JUMP JUMPDEST PUSH1 0x1 SLOAD PUSH2 0x15A JUMP JUMPDEST PUSH2 0x24F PUSH2 0x23A CALLDATASIZE PUSH1 0x4 PUSH2 0xCB4 JUMP JUMPDEST PUSH1 0x2 PUSH1 0x20 MSTORE PUSH1 0x0 SWAP1 DUP2 MSTORE PUSH1 0x40 SWAP1 KECCAK256 SLOAD PUSH1 0xFF AND DUP2 JUMP JUMPDEST PUSH1 0x40 MLOAD SWAP1 ISZERO ISZERO DUP2 MSTORE PUSH1 0x20 ADD PUSH2 0x164 JUMP JUMPDEST PUSH1 0x8 SLOAD PUSH2 0x24F SWAP1 PUSH1 0x1 PUSH1 0xA0 SHL SWAP1 DIV PUSH1 0xFF AND DUP2 JUMP JUMPDEST PUSH2 0x27B PUSH2 0x97E JUMP JUMPDEST PUSH1 0x40 MLOAD PUSH2 0x164 SWAP2 SWAP1 PUSH2 0xD19 JUMP JUMPDEST PUSH2 0x15A PUSH32 0x0 DUP2 JUMP JUMPDEST PUSH1 0x8 SLOAD PUSH2 0x1A9 SWAP1 PUSH1 0x1 PUSH1 0x1 PUSH1 0xA0 SHL SUB AND DUP2 JUMP JUMPDEST PUSH2 0x180 PUSH2 0x2D0 CALLDATASIZE PUSH1 0x4 PUSH2 0xD66 JUMP JUMPDEST PUSH2 0x9E0 JUMP JUMPDEST PUSH2 0x180 PUSH2 0x2E3 CALLDATASIZE PUSH1 0x4 PUSH2 0xD00 JUMP JUMPDEST PUSH2 0xA64 JUMP JUMPDEST PUSH2 0x24F PUSH2 0x2F6 CALLDATASIZE PUSH1 0x4 PUSH2 0xCD6 JUMP JUMPDEST PUSH1 0x4 PUSH1 0x20 SWAP1 DUP2 MSTORE PUSH1 0x0 SWAP3 DUP4 MSTORE PUSH1 0x40 DUP1 DUP5 KECCAK256 SWAP1 SWAP2 MSTORE SWAP1 DUP3 MSTORE SWAP1 KECCAK256 SLOAD PUSH1 0xFF AND DUP2 JUMP JUMPDEST PUSH1 0x7 SLOAD PUSH2 0x1A9 SWAP1 PUSH1 0x1 PUSH1 0x1 PUSH1 0xA0 SHL SUB AND DUP2 JUMP JUMPDEST PUSH2 0x15A PUSH2 0x337 CALLDATASIZE PUSH1 0x4 PUSH2 0xD00 JUMP JUMPDEST PUSH1 0x3 PUSH1 0x20 MSTORE PUSH1 0x0 SWAP1 DUP2 MSTORE PUSH1 0x40 SWAP1 KECCAK256 SLOAD DUP2 JUMP JUMPDEST PUSH1 0x1 PUSH1 0x1 PUSH1 0xA0 SHL SUB DUP2 AND PUSH1 0x0 SWAP1 DUP2 MSTORE PUSH1 0x2 PUSH1 0x20 MSTORE PUSH1 0x40 DUP2 KECCAK256 SLOAD PUSH1 0xFF AND PUSH2 0x371 JUMPI POP PUSH1 0x0 SWAP2 SWAP1 POP JUMP JUMPDEST PUSH1 0x0 PUSH2 0x37B PUSH2 0x52D JUMP JUMPDEST SWAP1 POP PUSH1 0x1 DUP2 GT PUSH2 0x38E JUMPI POP PUSH1 0x0 SWAP3 SWAP2 POP POP JUMP JUMPDEST PUSH1 0x0 PUSH2 0x39B PUSH1 0x1 DUP4 PUSH2 0xDAF JUMP JUMPDEST PUSH1 0x1 PUSH1 0x1 PUSH1 0xA0 SHL SUB DUP6 AND PUSH1 0x0 SWAP1 DUP2 MSTORE PUSH1 0x4 PUSH1 0x20 SWAP1 DUP2 MSTORE PUSH1 0x40 DUP1 DUP4 KECCAK256 DUP5 DUP5 MSTORE SWAP1 SWAP2 MSTORE SWAP1 KECCAK256 SLOAD SWAP1 SWAP2 POP PUSH1 0xFF AND ISZERO PUSH2 0x3D4 JUMPI POP PUSH1 0x0 SWAP4 SWAP3 POP POP POP JUMP JUMPDEST PUSH1 0x0 DUP2 DUP2 MSTORE PUSH1 0x3 PUSH1 0x20 MSTORE PUSH1 0x40 DUP2 KECCAK256 SLOAD SWAP1 DUP2 SWAP1 SUB PUSH2 0x3F6 JUMPI POP PUSH1 0x0 SWAP5 SWAP4 POP POP POP POP JUMP JUMPDEST PUSH1 0x0 PUSH2 0x2710 PUSH2 0x406 PUSH1 0x32 DUP5 PUSH2 0xDC8 JUMP JUMPDEST PUSH2 0x410 SWAP2 SWAP1 PUSH2 0xDDF JUMP JUMPDEST PUSH1 0x1 SLOAD SWAP1 SWAP2 POP PUSH1 0x0 DUP2 SWAP1 SUB PUSH2 0x42C JUMPI POP PUSH1 0x0 SWAP7 SWAP6 POP POP POP POP POP POP JUMP JUMPDEST PUSH2 0x436 DUP2 DUP4 PUSH2 0xDDF JUMP JUMPDEST SWAP8 SWAP7 POP POP POP POP POP POP POP JUMP JUMPDEST PUSH1 0x1 PUSH1 0x1 PUSH1 0xA0 SHL SUB DUP3 AND PUSH1 0x0 SWAP1 DUP2 MSTORE PUSH1 0x2 PUSH1 0x20 MSTORE PUSH1 0x40 SWAP1 KECCAK256 SLOAD PUSH1 0xFF AND ISZERO PUSH2 0x466 JUMPI POP POP JUMP JUMPDEST PUSH1 0x1 SLOAD PUSH1 0xC8 GT PUSH2 0x474 JUMPI POP POP JUMP JUMPDEST PUSH1 0xFA DUP2 LT ISZERO PUSH2 0x481 JUMPI POP POP JUMP JUMPDEST PUSH1 0x1 PUSH1 0x1 PUSH1 0xA0 SHL SUB DUP3 AND PUSH1 0x0 DUP2 DUP2 MSTORE PUSH1 0x2 PUSH1 0x20 MSTORE PUSH1 0x40 DUP1 DUP3 KECCAK256 DUP1 SLOAD PUSH1 0xFF NOT AND PUSH1 0x1 SWAP1 DUP2 OR SWAP1 SWAP2 SSTORE DUP1 SLOAD DUP1 DUP3 ADD DUP3 SSTORE SWAP3 DUP2 SWAP1 MSTORE PUSH32 0xB10E2D527612073B26EECDFD717E6A320CF44B4AFAC2B0732D9FCBE2B7FA0CF6 SWAP1 SWAP3 ADD DUP1 SLOAD PUSH1 0x1 PUSH1 0x1 PUSH1 0xA0 SHL SUB NOT AND DUP5 OR SWAP1 SSTORE SWAP1 SLOAD SWAP1 MLOAD PUSH32 0xB0799360241064B125FA79F16388E5C5EB36B2D5B259B2B626838EB6A934B05F SWAP2 PUSH2 0x521 SWAP2 DUP6 SWAP1 SWAP2 DUP3 MSTORE PUSH1 0x20 DUP3 ADD MSTORE PUSH1 0x40 ADD SWAP1 JUMP JUMPDEST PUSH1 0x40 MLOAD DUP1 SWAP2 SUB SWAP1 LOG2 POP POP JUMP JUMPDEST PUSH1 0x0 PUSH3 0x278D00 PUSH2 0x55D PUSH32 0x0 TIMESTAMP PUSH2 0xDAF JUMP JUMPDEST PUSH2 0x567 SWAP2 SWAP1 PUSH2 0xDDF JUMP JUMPDEST PUSH2 0x572 SWAP1 PUSH1 0x1 PUSH2 0xE01 JUMP JUMPDEST SWAP1 POP SWAP1 JUMP JUMPDEST PUSH2 0x5AC PUSH1 0x1 PUSH1 0x1 PUSH1 0xA0 SHL SUB PUSH32 0x0 AND CALLER ADDRESS DUP5 PUSH2 0xAD5 JUMP JUMPDEST DUP1 PUSH1 0x5 PUSH1 0x0 DUP3 DUP3 SLOAD PUSH2 0x5BE SWAP2 SWAP1 PUSH2 0xE01 JUMP JUMPDEST SWAP1 SWAP2 SSTORE POP POP PUSH1 0x40 MLOAD DUP2 DUP2 MSTORE PUSH32 0x3C8AD648A1DDFEFE02B27D709D3A201184855E03E5A57564DD8D3DDCD0912E63 SWAP1 PUSH1 0x20 ADD PUSH1 0x40 MLOAD DUP1 SWAP2 SUB SWAP1 LOG1 POP JUMP JUMPDEST PUSH1 0x7 SLOAD PUSH1 0x1 PUSH1 0x1 PUSH1 0xA0 SHL SUB AND CALLER EQ PUSH2 0x624 JUMPI PUSH1 0x40 MLOAD PUSH4 0x47556579 PUSH1 0xE0 SHL DUP2 MSTORE PUSH1 0x4 ADD PUSH1 0x40 MLOAD DUP1 SWAP2 SUB SWAP1 REVERT JUMPDEST PUSH1 0x8 SLOAD PUSH1 0x1 PUSH1 0xA0 SHL SWAP1 DIV PUSH1 0xFF AND ISZERO PUSH2 0x64F JUMPI PUSH1 0x40 MLOAD PUSH4 0x238F75D3 PUSH1 0xE0 SHL DUP2 MSTORE PUSH1 0x4 ADD PUSH1 0x40 MLOAD DUP1 SWAP2 SUB SWAP1 REVERT JUMPDEST PUSH1 0x8 DUP1 SLOAD PUSH1 0xFF PUSH1 0xA0 SHL NOT AND PUSH1 0x1 PUSH1 0xA0 SHL OR SWAP1 SSTORE PUSH1 0x7 DUP1 SLOAD PUSH1 0x1 PUSH1 0x1 PUSH1 0xA0 SHL SUB NOT AND SWAP1 SSTORE JUMP JUMPDEST PUSH2 0x67C PUSH2 0xB16 JUMP JUMPDEST CALLER PUSH1 0x0 SWAP1 DUP2 MSTORE PUSH1 0x2 PUSH1 0x20 MSTORE PUSH1 0x40 SWAP1 KECCAK256 SLOAD PUSH1 0xFF AND PUSH2 0x6AC JUMPI PUSH1 0x40 MLOAD PUSH4 0x6ACB7BB7 PUSH1 0xE0 SHL DUP2 MSTORE PUSH1 0x4 ADD PUSH1 0x40 MLOAD DUP1 SWAP2 SUB SWAP1 REVERT JUMPDEST PUSH1 0x0 PUSH2 0x6B6 PUSH2 0x52D JUMP JUMPDEST SWAP1 POP PUSH1 0x1 DUP2 GT PUSH2 0x6D9 JUMPI PUSH1 0x40 MLOAD PUSH4 0x3C9754B3 PUSH1 0xE1 SHL DUP2 MSTORE PUSH1 0x4 ADD PUSH1 0x40 MLOAD DUP1 SWAP2 SUB SWAP1 REVERT JUMPDEST PUSH1 0x0 PUSH2 0x6E6 PUSH1 0x1 DUP4 PUSH2 0xDAF JUMP JUMPDEST CALLER PUSH1 0x0 SWAP1 DUP2 MSTORE PUSH1 0x4 PUSH1 0x20 SWAP1 DUP2 MSTORE PUSH1 0x40 DUP1 DUP4 KECCAK256 DUP5 DUP5 MSTORE SWAP1 SWAP2 MSTORE SWAP1 KECCAK256 SLOAD SWAP1 SWAP2 POP PUSH1 0xFF AND ISZERO PUSH2 0x725 JUMPI PUSH1 0x40 MLOAD PUSH4 0xC8D9EAB PUSH1 0xE3 SHL DUP2 MSTORE PUSH1 0x4 ADD PUSH1 0x40 MLOAD DUP1 SWAP2 SUB SWAP1 REVERT JUMPDEST PUSH1 0x0 DUP2 DUP2 MSTORE PUSH1 0x3 PUSH1 0x20 MSTORE PUSH1 0x40 DUP2 KECCAK256 SLOAD SWAP1 DUP2 SWAP1 SUB PUSH2 0x755 JUMPI PUSH1 0x40 MLOAD PUSH4 0x3C9754B3 PUSH1 0xE1 SHL DUP2 MSTORE PUSH1 0x4 ADD PUSH1 0x40 MLOAD DUP1 SWAP2 SUB SWAP1 REVERT JUMPDEST PUSH1 0x0 PUSH2 0x2710 PUSH2 0x765 PUSH1 0x32 DUP5 PUSH2 0xDC8 JUMP JUMPDEST PUSH2 0x76F SWAP2 SWAP1 PUSH2 0xDDF JUMP JUMPDEST PUSH1 0x1 SLOAD SWAP1 SWAP2 POP PUSH1 0x0 DUP2 SWAP1 SUB PUSH2 0x797 JUMPI PUSH1 0x40 MLOAD PUSH4 0x3C9754B3 PUSH1 0xE1 SHL DUP2 MSTORE PUSH1 0x4 ADD PUSH1 0x40 MLOAD DUP1 SWAP2 SUB SWAP1 REVERT JUMPDEST PUSH1 0x0 PUSH2 0x7A3 DUP3 DUP5 PUSH2 0xDDF JUMP JUMPDEST SWAP1 POP DUP1 PUSH1 0x0 SUB PUSH2 0x7C6 JUMPI PUSH1 0x40 MLOAD PUSH4 0x3C9754B3 PUSH1 0xE1 SHL DUP2 MSTORE PUSH1 0x4 ADD PUSH1 0x40 MLOAD DUP1 SWAP2 SUB SWAP1 REVERT JUMPDEST PUSH1 0x5 SLOAD DUP2 GT ISZERO PUSH2 0x7E9 JUMPI PUSH1 0x40 MLOAD PUSH4 0x7D202FF PUSH1 0xE1 SHL DUP2 MSTORE PUSH1 0x4 ADD PUSH1 0x40 MLOAD DUP1 SWAP2 SUB SWAP1 REVERT JUMPDEST CALLER PUSH1 0x0 SWAP1 DUP2 MSTORE PUSH1 0x4 PUSH1 0x20 SWAP1 DUP2 MSTORE PUSH1 0x40 DUP1 DUP4 KECCAK256 DUP9 DUP5 MSTORE SWAP1 SWAP2 MSTORE DUP2 KECCAK256 DUP1 SLOAD PUSH1 0xFF NOT AND PUSH1 0x1 OR SWAP1 SSTORE PUSH1 0x5 DUP1 SLOAD DUP4 SWAP3 SWAP1 PUSH2 0x820 SWAP1 DUP5 SWAP1 PUSH2 0xDAF JUMP JUMPDEST SWAP3 POP POP DUP2 SWAP1 SSTORE POP DUP1 PUSH1 0x6 PUSH1 0x0 DUP3 DUP3 SLOAD PUSH2 0x839 SWAP2 SWAP1 PUSH2 0xE01 JUMP JUMPDEST SWAP1 SWAP2 SSTORE POP POP PUSH1 0x0 SLOAD PUSH1 0x1 PUSH1 0x1 PUSH1 0xA0 SHL SUB AND ISZERO PUSH2 0x8B4 JUMPI PUSH1 0x0 SLOAD PUSH1 0x40 MLOAD PUSH4 0x35CFBD5B PUSH1 0xE1 SHL DUP2 MSTORE CALLER PUSH1 0x4 DUP3 ADD MSTORE PUSH1 0x24 DUP2 ADD DUP4 SWAP1 MSTORE PUSH1 0x1 PUSH1 0x1 PUSH1 0xA0 SHL SUB SWAP1 SWAP2 AND SWAP1 PUSH4 0x6B9F7AB6 SWAP1 PUSH1 0x44 ADD PUSH1 0x0 PUSH1 0x40 MLOAD DUP1 DUP4 SUB DUP2 PUSH1 0x0 DUP8 DUP1 EXTCODESIZE ISZERO DUP1 ISZERO PUSH2 0x89B JUMPI PUSH1 0x0 DUP1 REVERT JUMPDEST POP GAS CALL ISZERO DUP1 ISZERO PUSH2 0x8AF JUMPI RETURNDATASIZE PUSH1 0x0 DUP1 RETURNDATACOPY RETURNDATASIZE PUSH1 0x0 REVERT JUMPDEST POP POP POP POP JUMPDEST PUSH2 0x8E8 PUSH1 0x1 PUSH1 0x1 PUSH1 0xA0 SHL SUB PUSH32 0x0 AND CALLER DUP4 PUSH2 0xB44 JUMP JUMPDEST PUSH1 0x40 DUP1 MLOAD DUP3 DUP2 MSTORE PUSH1 0x20 DUP2 ADD DUP8 SWAP1 MSTORE CALLER SWAP2 PUSH32 0x6FE778711F06CA052305B633BA1B304F4D71C1523776F2AA3059D8D99F5420DE SWAP2 ADD PUSH1 0x40 MLOAD DUP1 SWAP2 SUB SWAP1 LOG2 POP POP POP POP POP POP PUSH2 0x952 PUSH1 0x1 PUSH32 0x9B779B17422D0DF92223018B32B4D1FA46E071723D6817E2486D003BECC55F00 SSTORE JUMP JUMPDEST JUMP JUMPDEST PUSH1 0x1 DUP2 DUP2 SLOAD DUP2 LT PUSH2 0x964 JUMPI PUSH1 0x0 DUP1 REVERT JUMPDEST PUSH1 0x0 SWAP2 DUP3 MSTORE PUSH1 0x20 SWAP1 SWAP2 KECCAK256 ADD SLOAD PUSH1 0x1 PUSH1 0x1 PUSH1 0xA0 SHL SUB AND SWAP1 POP DUP2 JUMP JUMPDEST PUSH1 0x60 PUSH1 0x1 DUP1 SLOAD DUP1 PUSH1 0x20 MUL PUSH1 0x20 ADD PUSH1 0x40 MLOAD SWAP1 DUP2 ADD PUSH1 0x40 MSTORE DUP1 SWAP3 SWAP2 SWAP1 DUP2 DUP2 MSTORE PUSH1 0x20 ADD DUP3 DUP1 SLOAD DUP1 ISZERO PUSH2 0x9D6 JUMPI PUSH1 0x20 MUL DUP3 ADD SWAP2 SWAP1 PUSH1 0x0 MSTORE PUSH1 0x20 PUSH1 0x0 KECCAK256 SWAP1 JUMPDEST DUP2 SLOAD PUSH1 0x1 PUSH1 0x1 PUSH1 0xA0 SHL SUB AND DUP2 MSTORE PUSH1 0x1 SWAP1 SWAP2 ADD SWAP1 PUSH1 0x20 ADD DUP1 DUP4 GT PUSH2 0x9B8 JUMPI JUMPDEST POP POP POP POP POP SWAP1 POP SWAP1 JUMP JUMPDEST PUSH1 0x7 SLOAD PUSH1 0x1 PUSH1 0x1 PUSH1 0xA0 SHL SUB AND CALLER EQ PUSH2 0xA0B JUMPI PUSH1 0x40 MLOAD PUSH4 0x47556579 PUSH1 0xE0 SHL DUP2 MSTORE PUSH1 0x4 ADD PUSH1 0x40 MLOAD DUP1 SWAP2 SUB SWAP1 REVERT JUMPDEST PUSH1 0x8 SLOAD PUSH1 0x1 PUSH1 0xA0 SHL SWAP1 DIV PUSH1 0xFF AND ISZERO PUSH2 0xA36 JUMPI PUSH1 0x40 MLOAD PUSH4 0x238F75D3 PUSH1 0xE0 SHL DUP2 MSTORE PUSH1 0x4 ADD PUSH1 0x40 MLOAD DUP1 SWAP2 SUB SWAP1 REVERT JUMPDEST PUSH1 0x8 DUP1 SLOAD PUSH1 0x1 PUSH1 0x1 PUSH1 0xA0 SHL SUB SWAP4 DUP5 AND PUSH1 0x1 PUSH1 0x1 PUSH1 0xA0 SHL SUB NOT SWAP2 DUP3 AND OR SWAP1 SWAP2 SSTORE PUSH1 0x0 DUP1 SLOAD SWAP3 SWAP1 SWAP4 AND SWAP2 AND OR SWAP1 SSTORE JUMP JUMPDEST PUSH1 0x0 PUSH2 0xA6E PUSH2 0x52D JUMP JUMPDEST SWAP1 POP DUP2 PUSH1 0x3 PUSH1 0x0 DUP4 DUP2 MSTORE PUSH1 0x20 ADD SWAP1 DUP2 MSTORE PUSH1 0x20 ADD PUSH1 0x0 KECCAK256 PUSH1 0x0 DUP3 DUP3 SLOAD PUSH2 0xA93 SWAP2 SWAP1 PUSH2 0xE01 JUMP JUMPDEST SWAP1 SWAP2 SSTORE POP POP PUSH1 0x40 DUP1 MLOAD DUP3 DUP2 MSTORE PUSH1 0x20 DUP2 ADD DUP5 SWAP1 MSTORE PUSH32 0x3B9C1E7AAF9F822C701E3B3EB12E06265BBD2E6871A1574446B3F8A9FDA4E612 SWAP2 ADD PUSH1 0x40 MLOAD DUP1 SWAP2 SUB SWAP1 LOG1 POP POP JUMP JUMPDEST PUSH2 0xAE3 DUP5 DUP5 DUP5 DUP5 PUSH1 0x1 PUSH2 0xB7E JUMP JUMPDEST PUSH2 0xB10 JUMPI PUSH1 0x40 MLOAD PUSH4 0x5274AFE7 PUSH1 0xE0 SHL DUP2 MSTORE PUSH1 0x1 PUSH1 0x1 PUSH1 0xA0 SHL SUB DUP6 AND PUSH1 0x4 DUP3 ADD MSTORE PUSH1 0x24 ADD JUMPDEST PUSH1 0x40 MLOAD DUP1 SWAP2 SUB SWAP1 REVERT JUMPDEST POP POP POP POP JUMP JUMPDEST PUSH2 0xB1E PUSH2 0xBF0 JUMP JUMPDEST PUSH1 0x2 PUSH32 0x9B779B17422D0DF92223018B32B4D1FA46E071723D6817E2486D003BECC55F00 SSTORE JUMP JUMPDEST PUSH2 0xB51 DUP4 DUP4 DUP4 PUSH1 0x1 PUSH2 0xC32 JUMP JUMPDEST PUSH2 0xB79 JUMPI PUSH1 0x40 MLOAD PUSH4 0x5274AFE7 PUSH1 0xE0 SHL DUP2 MSTORE PUSH1 0x1 PUSH1 0x1 PUSH1 0xA0 SHL SUB DUP5 AND PUSH1 0x4 DUP3 ADD MSTORE PUSH1 0x24 ADD PUSH2 0xB07 JUMP JUMPDEST POP POP POP JUMP JUMPDEST PUSH1 0x40 MLOAD PUSH4 0x23B872DD PUSH1 0xE0 SHL PUSH1 0x0 DUP2 DUP2 MSTORE PUSH1 0x1 PUSH1 0x1 PUSH1 0xA0 SHL SUB DUP8 DUP2 AND PUSH1 0x4 MSTORE DUP7 AND PUSH1 0x24 MSTORE PUSH1 0x44 DUP6 SWAP1 MSTORE SWAP2 PUSH1 0x20 DUP4 PUSH1 0x64 DUP2 DUP1 DUP13 GAS CALL SWAP3 POP PUSH1 0x1 PUSH1 0x0 MLOAD EQ DUP4 AND PUSH2 0xBDE JUMPI DUP4 DUP4 ISZERO AND ISZERO PUSH2 0xBD1 JUMPI RETURNDATASIZE PUSH1 0x0 DUP3 RETURNDATACOPY RETURNDATASIZE DUP2 REVERT JUMPDEST PUSH1 0x0 DUP9 EXTCODESIZE GT RETURNDATASIZE ISZERO AND DUP4 AND SWAP3 POP JUMPDEST PUSH1 0x40 MSTORE POP PUSH1 0x0 PUSH1 0x60 MSTORE SWAP6 SWAP5 POP POP POP POP POP JUMP JUMPDEST PUSH32 0x9B779B17422D0DF92223018B32B4D1FA46E071723D6817E2486D003BECC55F00 SLOAD PUSH1 0x2 SUB PUSH2 0x952 JUMPI PUSH1 0x40 MLOAD PUSH4 0x3EE5AEB5 PUSH1 0xE0 SHL DUP2 MSTORE PUSH1 0x4 ADD PUSH1 0x40 MLOAD DUP1 SWAP2 SUB SWAP1 REVERT JUMPDEST PUSH1 0x40 MLOAD PUSH4 0xA9059CBB PUSH1 0xE0 SHL PUSH1 0x0 DUP2 DUP2 MSTORE PUSH1 0x1 PUSH1 0x1 PUSH1 0xA0 SHL SUB DUP7 AND PUSH1 0x4 MSTORE PUSH1 0x24 DUP6 SWAP1 MSTORE SWAP2 PUSH1 0x20 DUP4 PUSH1 0x44 DUP2 DUP1 DUP12 GAS CALL SWAP3 POP PUSH1 0x1 PUSH1 0x0 MLOAD EQ DUP4 AND PUSH2 0xC8C JUMPI DUP4 DUP4 ISZERO AND ISZERO PUSH2 0xC7F JUMPI RETURNDATASIZE PUSH1 0x0 DUP3 RETURNDATACOPY RETURNDATASIZE DUP2 REVERT JUMPDEST PUSH1 0x0 DUP8 EXTCODESIZE GT RETURNDATASIZE ISZERO AND DUP4 AND SWAP3 POP JUMPDEST PUSH1 0x40 MSTORE POP SWAP5 SWAP4 POP POP POP POP JUMP JUMPDEST DUP1 CALLDATALOAD PUSH1 0x1 PUSH1 0x1 PUSH1 0xA0 SHL SUB DUP2 AND DUP2 EQ PUSH2 0xCAF JUMPI PUSH1 0x0 DUP1 REVERT JUMPDEST SWAP2 SWAP1 POP JUMP JUMPDEST PUSH1 0x0 PUSH1 0x20 DUP3 DUP5 SUB SLT ISZERO PUSH2 0xCC6 JUMPI PUSH1 0x0 DUP1 REVERT JUMPDEST PUSH2 0xCCF DUP3 PUSH2 0xC98 JUMP JUMPDEST SWAP4 SWAP3 POP POP POP JUMP JUMPDEST PUSH1 0x0 DUP1 PUSH1 0x40 DUP4 DUP6 SUB SLT ISZERO PUSH2 0xCE9 JUMPI PUSH1 0x0 DUP1 REVERT JUMPDEST PUSH2 0xCF2 DUP4 PUSH2 0xC98 JUMP JUMPDEST SWAP5 PUSH1 0x20 SWAP4 SWAP1 SWAP4 ADD CALLDATALOAD SWAP4 POP POP POP JUMP JUMPDEST PUSH1 0x0 PUSH1 0x20 DUP3 DUP5 SUB SLT ISZERO PUSH2 0xD12 JUMPI PUSH1 0x0 DUP1 REVERT JUMPDEST POP CALLDATALOAD SWAP2 SWAP1 POP JUMP JUMPDEST PUSH1 0x20 DUP1 DUP3 MSTORE DUP3 MLOAD DUP3 DUP3 ADD DUP2 SWAP1 MSTORE PUSH1 0x0 SWAP2 SWAP1 DUP5 DUP3 ADD SWAP1 PUSH1 0x40 DUP6 ADD SWAP1 DUP5 JUMPDEST DUP2 DUP2 LT ISZERO PUSH2 0xD5A JUMPI DUP4 MLOAD PUSH1 0x1 PUSH1 0x1 PUSH1 0xA0 SHL SUB AND DUP4 MSTORE SWAP3 DUP5 ADD SWAP3 SWAP2 DUP5 ADD SWAP2 PUSH1 0x1 ADD PUSH2 0xD35 JUMP JUMPDEST POP SWAP1 SWAP7 SWAP6 POP POP POP POP POP POP JUMP JUMPDEST PUSH1 0x0 DUP1 PUSH1 0x40 DUP4 DUP6 SUB SLT ISZERO PUSH2 0xD79 JUMPI PUSH1 0x0 DUP1 REVERT JUMPDEST PUSH2 0xD82 DUP4 PUSH2 0xC98 JUMP JUMPDEST SWAP2 POP PUSH2 0xD90 PUSH1 0x20 DUP5 ADD PUSH2 0xC98 JUMP JUMPDEST SWAP1 POP SWAP3 POP SWAP3 SWAP1 POP JUMP JUMPDEST PUSH4 0x4E487B71 PUSH1 0xE0 SHL PUSH1 0x0 MSTORE PUSH1 0x11 PUSH1 0x4 MSTORE PUSH1 0x24 PUSH1 0x0 REVERT JUMPDEST DUP2 DUP2 SUB DUP2 DUP2 GT ISZERO PUSH2 0xDC2 JUMPI PUSH2 0xDC2 PUSH2 0xD99 JUMP JUMPDEST SWAP3 SWAP2 POP POP JUMP JUMPDEST DUP1 DUP3 MUL DUP2 ISZERO DUP3 DUP3 DIV DUP5 EQ OR PUSH2 0xDC2 JUMPI PUSH2 0xDC2 PUSH2 0xD99 JUMP JUMPDEST PUSH1 0x0 DUP3 PUSH2 0xDFC JUMPI PUSH4 0x4E487B71 PUSH1 0xE0 SHL PUSH1 0x0 MSTORE PUSH1 0x12 PUSH1 0x4 MSTORE PUSH1 0x24 PUSH1 0x0 REVERT JUMPDEST POP DIV SWAP1 JUMP JUMPDEST DUP1 DUP3 ADD DUP1 DUP3 GT ISZERO PUSH2 0xDC2 JUMPI PUSH2 0xDC2 PUSH2 0xD99 JUMP INVALID LOG2 PUSH5 0x6970667358 0x22 SLT KECCAK256 DUP9 0xE JUMPDEST 0x23 SWAP14 PUSH15 0x363112F64F1F1981DEDD51E3458A8 TIMESTAMP 0x23 0xFB SWAP4 STATICCALL LOG3 SWAP10 PUSH3 0xA9121D PUSH5 0x736F6C6343 STOP ADDMOD XOR STOP CALLER "},"methodIdentifiers":{"admin()":"f851a440","checkAndQualify(address,uint256)":"27ab371b","claimRoyalty()":"900e92c4","completeSetup()":"8aea8f71","configure(address,address)":"e470d5cf","daoMemberCount()":"af9221b4","daoMembers(uint256)":"9d51173f","genesisTimestamp()":"cacf66ab","getAllDAOMembers()":"c7166dd5","getCurrentMonthId()":"4e9380a9","getPendingRoyalty(address)":"04d8adca","investmentEngine()":"30131384","isDAOMember(address)":"b1e44d8f","monthlyTurnover(uint256)":"fb234347","receiveRoyaltyPool(uint256)":"71a152b2","recordMonthlyTurnover(uint256)":"eade149c","royaltyClaimed(address,uint256)":"f5444d36","royaltyPoolBalance()":"3a9f6292","setupComplete()":"b6635be6","timelock()":"d33219b4","totalRoyaltiesDistributed()":"6f0803be","usdt()":"2f48ab7d"}}}}}