{"contracts/libraries/OSLOConstants.sol":{"OSLOConstants":{"abi":[{"inputs":[],"name":"BASIS_POINTS","outputs":[{"internalType":"uint256","name":"","type":"uint256"}],"stateMutability":"view","type":"function"},{"inputs":[],"name":"CONTRACT_RESERVE","outputs":[{"internalType":"uint256","name":"","type":"uint256"}],"stateMutability":"view","type":"function"},{"inputs":[],"name":"DAO_MONTHLY_ROYALTY_BP","outputs":[{"internalType":"uint256","name":"","type":"uint256"}],"stateMutability":"view","type":"function"},{"inputs":[],"name":"DAO_TEAM_SIZE_REQUIREMENT","outputs":[{"internalType":"uint256","name":"","type":"uint256"}],"stateMutability":"view","type":"function"},{"inputs":[],"name":"DEAD_ADDRESS","outputs":[{"internalType":"address","name":"","type":"address"}],"stateMutability":"view","type":"function"},{"inputs":[],"name":"DEPOSIT_TO_COMPANY_BP","outputs":[{"internalType":"uint256","name":"","type":"uint256"}],"stateMutability":"view","type":"function"},{"inputs":[],"name":"DEPOSIT_TO_DEX_BP","outputs":[{"internalType":"uint256","name":"","type":"uint256"}],"stateMutability":"view","type":"function"},{"inputs":[],"name":"DEPOSIT_TO_PERFORMANCE_BP","outputs":[{"internalType":"uint256","name":"","type":"uint256"}],"stateMutability":"view","type":"function"},{"inputs":[],"name":"DEPOSIT_TO_REWARD_BP","outputs":[{"internalType":"uint256","name":"","type":"uint256"}],"stateMutability":"view","type":"function"},{"inputs":[],"name":"DEX_ALLOCATION","outputs":[{"internalType":"uint256","name":"","type":"uint256"}],"stateMutability":"view","type":"function"},{"inputs":[],"name":"EARLY_EXIT_FEE_BP","outputs":[{"internalType":"uint256","name":"","type":"uint256"}],"stateMutability":"view","type":"function"},{"inputs":[],"name":"EARLY_EXIT_PERIOD","outputs":[{"internalType":"uint256","name":"","type":"uint256"}],"stateMutability":"view","type":"function"},{"inputs":[],"name":"LAUNCH_TIMESTAMP","outputs":[{"internalType":"uint256","name":"","type":"uint256"}],"stateMutability":"view","type":"function"},{"inputs":[],"name":"LIFETIME_RATE","outputs":[{"internalType":"uint256","name":"","type":"uint256"}],"stateMutability":"view","type":"function"},{"inputs":[],"name":"LIFETIME_RATE_START","outputs":[{"internalType":"uint256","name":"","type":"uint256"}],"stateMutability":"view","type":"function"},{"inputs":[],"name":"MAX_BURN_SUPPLY","outputs":[{"internalType":"uint256","name":"","type":"uint256"}],"stateMutability":"view","type":"function"},{"inputs":[],"name":"MAX_DAO_MEMBERS","outputs":[{"internalType":"uint256","name":"","type":"uint256"}],"stateMutability":"view","type":"function"},{"inputs":[],"name":"MAX_DEPOSIT_PER_TX","outputs":[{"internalType":"uint256","name":"","type":"uint256"}],"stateMutability":"view","type":"function"},{"inputs":[],"name":"MAX_REFERRAL_LEVELS","outputs":[{"internalType":"uint256","name":"","type":"uint256"}],"stateMutability":"view","type":"function"},{"inputs":[],"name":"MIN_REMAINING_SUPPLY","outputs":[{"internalType":"uint256","name":"","type":"uint256"}],"stateMutability":"view","type":"function"},{"inputs":[],"name":"MIN_WITHDRAWAL_THRESHOLD","outputs":[{"internalType":"uint256","name":"","type":"uint256"}],"stateMutability":"view","type":"function"},{"inputs":[],"name":"PROPOSAL_THRESHOLD_BP","outputs":[{"internalType":"uint256","name":"","type":"uint256"}],"stateMutability":"view","type":"function"},{"inputs":[],"name":"QUALIFIED_DIRECT_MIN_DEPOSIT","outputs":[{"internalType":"uint256","name":"","type":"uint256"}],"stateMutability":"view","type":"function"},{"inputs":[],"name":"RANK1_BONUS_BP","outputs":[{"internalType":"uint256","name":"","type":"uint256"}],"stateMutability":"view","type":"function"},{"inputs":[],"name":"RANK1_TURNOVER","outputs":[{"internalType":"uint256","name":"","type":"uint256"}],"stateMutability":"view","type":"function"},{"inputs":[],"name":"RANK2_BONUS_BP","outputs":[{"internalType":"uint256","name":"","type":"uint256"}],"stateMutability":"view","type":"function"},{"inputs":[],"name":"RANK2_TURNOVER","outputs":[{"internalType":"uint256","name":"","type":"uint256"}],"stateMutability":"view","type":"function"},{"inputs":[],"name":"RANK3_BONUS_BP","outputs":[{"internalType":"uint256","name":"","type":"uint256"}],"stateMutability":"view","type":"function"},{"inputs":[],"name":"RANK3_TURNOVER","outputs":[{"internalType":"uint256","name":"","type":"uint256"}],"stateMutability":"view","type":"function"},{"inputs":[],"name":"RANK4_BONUS_BP","outputs":[{"internalType":"uint256","name":"","type":"uint256"}],"stateMutability":"view","type":"function"},{"inputs":[],"name":"RANK4_TURNOVER","outputs":[{"internalType":"uint256","name":"","type":"uint256"}],"stateMutability":"view","type":"function"},{"inputs":[],"name":"RANK5_BONUS_BP","outputs":[{"internalType":"uint256","name":"","type":"uint256"}],"stateMutability":"view","type":"function"},{"inputs":[],"name":"RANK5_TURNOVER","outputs":[{"internalType":"uint256","name":"","type":"uint256"}],"stateMutability":"view","type":"function"},{"inputs":[],"name":"RANK6_BONUS_BP","outputs":[{"internalType":"uint256","name":"","type":"uint256"}],"stateMutability":"view","type":"function"},{"inputs":[],"name":"RANK6_TURNOVER","outputs":[{"internalType":"uint256","name":"","type":"uint256"}],"stateMutability":"view","type":"function"},{"inputs":[],"name":"RANK7_BONUS_BP","outputs":[{"internalType":"uint256","name":"","type":"uint256"}],"stateMutability":"view","type":"function"},{"inputs":[],"name":"RANK7_TURNOVER","outputs":[{"internalType":"uint256","name":"","type":"uint256"}],"stateMutability":"view","type":"function"},{"inputs":[],"name":"RANK_MAIN_LEG_MAX_BP","outputs":[{"internalType":"uint256","name":"","type":"uint256"}],"stateMutability":"view","type":"function"},{"inputs":[],"name":"RANK_OTHER_LEGS_MIN_BP","outputs":[{"internalType":"uint256","name":"","type":"uint256"}],"stateMutability":"view","type":"function"},{"inputs":[],"name":"REFERRAL_L11_15_BP","outputs":[{"internalType":"uint256","name":"","type":"uint256"}],"stateMutability":"view","type":"function"},{"inputs":[],"name":"REFERRAL_L16_20_BP","outputs":[{"internalType":"uint256","name":"","type":"uint256"}],"stateMutability":"view","type":"function"},{"inputs":[],"name":"REFERRAL_L1_BP","outputs":[{"internalType":"uint256","name":"","type":"uint256"}],"stateMutability":"view","type":"function"},{"inputs":[],"name":"REFERRAL_L2_BP","outputs":[{"internalType":"uint256","name":"","type":"uint256"}],"stateMutability":"view","type":"function"},{"inputs":[],"name":"REFERRAL_L3_10_BP","outputs":[{"internalType":"uint256","name":"","type":"uint256"}],"stateMutability":"view","type":"function"},{"inputs":[],"name":"RETURN_CAP_MULTIPLIER","outputs":[{"internalType":"uint256","name":"","type":"uint256"}],"stateMutability":"view","type":"function"},{"inputs":[],"name":"SELL_TAX_BP","outputs":[{"internalType":"uint256","name":"","type":"uint256"}],"stateMutability":"view","type":"function"},{"inputs":[],"name":"SELL_TAX_FEE_BURN_BP","outputs":[{"internalType":"uint256","name":"","type":"uint256"}],"stateMutability":"view","type":"function"},{"inputs":[],"name":"SELL_TAX_TO_BURN_BP","outputs":[{"internalType":"uint256","name":"","type":"uint256"}],"stateMutability":"view","type":"function"},{"inputs":[],"name":"SELL_TAX_TO_CONTRACT_BP","outputs":[{"internalType":"uint256","name":"","type":"uint256"}],"stateMutability":"view","type":"function"},{"inputs":[],"name":"TIER1_MAX","outputs":[{"internalType":"uint256","name":"","type":"uint256"}],"stateMutability":"view","type":"function"},{"inputs":[],"name":"TIER1_MIN","outputs":[{"internalType":"uint256","name":"","type":"uint256"}],"stateMutability":"view","type":"function"},{"inputs":[],"name":"TIER1_RATE_MAX","outputs":[{"internalType":"uint256","name":"","type":"uint256"}],"stateMutability":"view","type":"function"},{"inputs":[],"name":"TIER1_RATE_MIN","outputs":[{"internalType":"uint256","name":"","type":"uint256"}],"stateMutability":"view","type":"function"},{"inputs":[],"name":"TIER2_MAX","outputs":[{"internalType":"uint256","name":"","type":"uint256"}],"stateMutability":"view","type":"function"},{"inputs":[],"name":"TIER2_MIN","outputs":[{"internalType":"uint256","name":"","type":"uint256"}],"stateMutability":"view","type":"function"},{"inputs":[],"name":"TIER2_RATE_MAX","outputs":[{"internalType":"uint256","name":"","type":"uint256"}],"stateMutability":"view","type":"function"},{"inputs":[],"name":"TIER2_RATE_MIN","outputs":[{"internalType":"uint256","name":"","type":"uint256"}],"stateMutability":"view","type":"function"},{"inputs":[],"name":"TIER3_MAX","outputs":[{"internalType":"uint256","name":"","type":"uint256"}],"stateMutability":"view","type":"function"},{"inputs":[],"name":"TIER3_MIN","outputs":[{"internalType":"uint256","name":"","type":"uint256"}],"stateMutability":"view","type":"function"},{"inputs":[],"name":"TIER3_RATE_MAX","outputs":[{"internalType":"uint256","name":"","type":"uint256"}],"stateMutability":"view","type":"function"},{"inputs":[],"name":"TIER3_RATE_MIN","outputs":[{"internalType":"uint256","name":"","type":"uint256"}],"stateMutability":"view","type":"function"},{"inputs":[],"name":"TIER4_IMPLICIT_MAX","outputs":[{"internalType":"uint256","name":"","type":"uint256"}],"stateMutability":"view","type":"function"},{"inputs":[],"name":"TIER4_MIN","outputs":[{"internalType":"uint256","name":"","type":"uint256"}],"stateMutability":"view","type":"function"},{"inputs":[],"name":"TIER4_RATE_MAX","outputs":[{"internalType":"uint256","name":"","type":"uint256"}],"stateMutability":"view","type":"function"},{"inputs":[],"name":"TIER4_RATE_MIN","outputs":[{"internalType":"uint256","name":"","type":"uint256"}],"stateMutability":"view","type":"function"},{"inputs":[],"name":"TIMELOCK_DELAY","outputs":[{"internalType":"uint256","name":"","type":"uint256"}],"stateMutability":"view","type":"function"},{"inputs":[],"name":"TOTAL_SUPPLY","outputs":[{"internalType":"uint256","name":"","type":"uint256"}],"stateMutability":"view","type":"function"},{"inputs":[],"name":"TREASURY_TO_DAO_BP","outputs":[{"internalType":"uint256","name":"","type":"uint256"}],"stateMutability":"view","type":"function"},{"inputs":[],"name":"TREASURY_TO_LP_BP","outputs":[{"internalType":"uint256","name":"","type":"uint256"}],"stateMutability":"view","type":"function"},{"inputs":[],"name":"TREASURY_TO_RANK_BP","outputs":[{"internalType":"uint256","name":"","type":"uint256"}],"stateMutability":"view","type":"function"},{"inputs":[],"name":"VOTING_PERIOD_BLOCKS","outputs":[{"internalType":"uint256","name":"","type":"uint256"}],"stateMutability":"view","type":"function"},{"inputs":[],"name":"WEEK_DURATION","outputs":[{"internalType":"uint256","name":"","type":"uint256"}],"stateMutability":"view","type":"function"},{"inputs":[],"name":"WITHDRAWAL_FEE_BP","outputs":[{"internalType":"uint256","name":"","type":"uint256"}],"stateMutability":"view","type":"function"}],"evm":{"bytecode":{"linkReferences":{},"object":"61070b61003a600b82828239805160001a60731461002d57634e487b7160e01b600052600060045260246000fd5b30600052607381538281f3fe730000000000000000000000000000000000000000301460806040526004361061043d5760003560e01c806376f5f70011610240578063a4f8bd1511610145578063d6466766116100cd578063e954f41d11610091578063e954f41d14610698578063ed4d5f97146106a3578063f5dd1f5d146106b4578063f64ff5b0146106bc578063fdce696c146106cd57600080fd5b8063d646676614610677578063dadf402214610573578063dc67edbe14610489578063e1f1c4a71461063c578063e4bd07c41461068857600080fd5b8063c5f7dd3c11610114578063c5f7dd3c1461064e578063c7ccbafe1461065e578063c86ebc99146105b1578063cbbe2e8f1461046f578063ce18b69f1461066f57600080fd5b8063a4f8bd151461063c578063b136bdda14610645578063b8b8fe861461046f578063b9d39bb41461048957600080fd5b80638bffc5b5116101c85780639fa42572116101975780639fa42572146105b1578063a23df8dc14610489578063a29dfff314610621578063a35e793d1461062b578063a497b1341461063357600080fd5b80638bffc5b5146104895780638c46387a146105fd5780638d419d71146104fc578063902d55a51461060f57600080fd5b806382b14df31161020f57806382b14df3146104f3578063831f23ee146105c957806386f72d9f146105d1578063882d893b146105e25780638bfef2f4146105eb57600080fd5b806376f5f700146105a75780637961954c146105b15780637a8ba8ad14610551578063810f01b9146105c057600080fd5b8063484d395f116103465780635ba1c1a9116102ce57806364d196091161029d57806364d19609146104425780636e464a001461057b5780636f140bb714610583578063736627111461058d578063740bb5fa1461059657600080fd5b80635ba1c1a9146105595780635cbbd3821461046f5780635ecd37e214610563578063617b99d21461057357600080fd5b80634e6fd6c4116103155780634e6fd6c4146105285780634edeb4bb146105495780635049700f1461055157806356b505401461046f57806359942d291461048957600080fd5b8063484d395f1461050d5780634936704e1461046f5780634bcaeb8d1461051e5780634cdf912b1461044257600080fd5b80631d55c1c4116103c957806327d88e9f1161039857806327d88e9f1461048957806330b05bf5146104e3578063313b0df4146104eb5780633ca73ba1146104f357806341f1c0d9146104fc57600080fd5b80631d55c1c4146104b257806320f57350146104ba578063232c5348146104cb57806324ebae69146104d357600080fd5b8063080c1b3e11610410578063080c1b3e146104775780630c48c5ee146104895780630e3fce461461049157806318b64e03146104995780631b14f4eb146104a157600080fd5b8063018b21f614610442578063039a9a281461045e578063059d7efc1461046f578063063f391114610442575b600080fd5b61044b6103e881565b6040519081526020015b60405180910390f35b61044b69054b40b1f852bda0000081565b61044b603281565b61044b6a09195731e2ce35eb00000081565b61044b606481565b61044b602d81565b61044b601981565b61044b69152d02c7e14af680000081565b61044b601e81565b61044b6969e10de76676d080000081565b61044b60c881565b61044b681b0d04202f47ec000081565b61044b604b81565b61044b600f81565b61044b6107d081565b61044b69010f0cf064dd5920000081565b61044b690fe1c215e8f838e0000081565b61044b6276a70081565b61053161dead81565b6040516001600160a01b039091168152602001610455565b61044b609681565b61044b600081565b61044b6202a30081565b61044b688778977bbb052c000081565b61044b601481565b61044b607381565b61044b620d2f0081565b61044b61264881565b61044b69fe1c215e8f838e00000081565b61044b62093a8081565b61044b678ac7230489e8000081565b61044b610fa081565b61044b600a81565b61044b692a5a058fc295ed00000081565b61044b610bb881565b61044b6a021165458500521280000081565b61044b6a084376fc33378d97c0000081565b61044b6a092e8434aaaf80e180000081565b61044b6201518081565b61044b60fa81565b61044b61177081565b61044b61271081565b61044b611b5881565b61044b68878678326eac90000081565b61044b69021e19e0c9bab240000081565b61044b600381565b61044b690a968163f0a57b40000081565b61044b681b1ae4d6e2ef50000081565b61044b6369ffca8081565b61044b69eb0d387777f349c0000081565b61044b60af81565b61044b69010eff0fae29b1bc000081565b61044b60058156fea264697066735822122095fadf9ec1db4960c6a3f9a6f4886b32b7ccec341b9e464f52720f5553a13faa64736f6c63430008180033","opcodes":"PUSH2 0x70B PUSH2 0x3A PUSH1 0xB DUP3 DUP3 DUP3 CODECOPY DUP1 MLOAD PUSH1 0x0 BYTE PUSH1 0x73 EQ PUSH2 0x2D JUMPI PUSH4 0x4E487B71 PUSH1 0xE0 SHL PUSH1 0x0 MSTORE PUSH1 0x0 PUSH1 0x4 MSTORE PUSH1 0x24 PUSH1 0x0 REVERT JUMPDEST ADDRESS PUSH1 0x0 MSTORE PUSH1 0x73 DUP2 MSTORE8 DUP3 DUP2 RETURN INVALID PUSH20 0x0 ADDRESS EQ PUSH1 0x80 PUSH1 0x40 MSTORE PUSH1 0x4 CALLDATASIZE LT PUSH2 0x43D JUMPI PUSH1 0x0 CALLDATALOAD PUSH1 0xE0 SHR DUP1 PUSH4 0x76F5F700 GT PUSH2 0x240 JUMPI DUP1 PUSH4 0xA4F8BD15 GT PUSH2 0x145 JUMPI DUP1 PUSH4 0xD6466766 GT PUSH2 0xCD JUMPI DUP1 PUSH4 0xE954F41D GT PUSH2 0x91 JUMPI DUP1 PUSH4 0xE954F41D EQ PUSH2 0x698 JUMPI DUP1 PUSH4 0xED4D5F97 EQ PUSH2 0x6A3 JUMPI DUP1 PUSH4 0xF5DD1F5D EQ PUSH2 0x6B4 JUMPI DUP1 PUSH4 0xF64FF5B0 EQ PUSH2 0x6BC JUMPI DUP1 PUSH4 0xFDCE696C EQ PUSH2 0x6CD JUMPI PUSH1 0x0 DUP1 REVERT JUMPDEST DUP1 PUSH4 0xD6466766 EQ PUSH2 0x677 JUMPI DUP1 PUSH4 0xDADF4022 EQ PUSH2 0x573 JUMPI DUP1 PUSH4 0xDC67EDBE EQ PUSH2 0x489 JUMPI DUP1 PUSH4 0xE1F1C4A7 EQ PUSH2 0x63C JUMPI DUP1 PUSH4 0xE4BD07C4 EQ PUSH2 0x688 JUMPI PUSH1 0x0 DUP1 REVERT JUMPDEST DUP1 PUSH4 0xC5F7DD3C GT PUSH2 0x114 JUMPI DUP1 PUSH4 0xC5F7DD3C EQ PUSH2 0x64E JUMPI DUP1 PUSH4 0xC7CCBAFE EQ PUSH2 0x65E JUMPI DUP1 PUSH4 0xC86EBC99 EQ PUSH2 0x5B1 JUMPI DUP1 PUSH4 0xCBBE2E8F EQ PUSH2 0x46F JUMPI DUP1 PUSH4 0xCE18B69F EQ PUSH2 0x66F JUMPI PUSH1 0x0 DUP1 REVERT JUMPDEST DUP1 PUSH4 0xA4F8BD15 EQ PUSH2 0x63C JUMPI DUP1 PUSH4 0xB136BDDA EQ PUSH2 0x645 JUMPI DUP1 PUSH4 0xB8B8FE86 EQ PUSH2 0x46F JUMPI DUP1 PUSH4 0xB9D39BB4 EQ PUSH2 0x489 JUMPI PUSH1 0x0 DUP1 REVERT JUMPDEST DUP1 PUSH4 0x8BFFC5B5 GT PUSH2 0x1C8 JUMPI DUP1 PUSH4 0x9FA42572 GT PUSH2 0x197 JUMPI DUP1 PUSH4 0x9FA42572 EQ PUSH2 0x5B1 JUMPI DUP1 PUSH4 0xA23DF8DC EQ PUSH2 0x489 JUMPI DUP1 PUSH4 0xA29DFFF3 EQ PUSH2 0x621 JUMPI DUP1 PUSH4 0xA35E793D EQ PUSH2 0x62B JUMPI DUP1 PUSH4 0xA497B134 EQ PUSH2 0x633 JUMPI PUSH1 0x0 DUP1 REVERT JUMPDEST DUP1 PUSH4 0x8BFFC5B5 EQ PUSH2 0x489 JUMPI DUP1 PUSH4 0x8C46387A EQ PUSH2 0x5FD JUMPI DUP1 PUSH4 0x8D419D71 EQ PUSH2 0x4FC JUMPI DUP1 PUSH4 0x902D55A5 EQ PUSH2 0x60F JUMPI PUSH1 0x0 DUP1 REVERT JUMPDEST DUP1 PUSH4 0x82B14DF3 GT PUSH2 0x20F JUMPI DUP1 PUSH4 0x82B14DF3 EQ PUSH2 0x4F3 JUMPI DUP1 PUSH4 0x831F23EE EQ PUSH2 0x5C9 JUMPI DUP1 PUSH4 0x86F72D9F EQ PUSH2 0x5D1 JUMPI DUP1 PUSH4 0x882D893B EQ PUSH2 0x5E2 JUMPI DUP1 PUSH4 0x8BFEF2F4 EQ PUSH2 0x5EB JUMPI PUSH1 0x0 DUP1 REVERT JUMPDEST DUP1 PUSH4 0x76F5F700 EQ PUSH2 0x5A7 JUMPI DUP1 PUSH4 0x7961954C EQ PUSH2 0x5B1 JUMPI DUP1 PUSH4 0x7A8BA8AD EQ PUSH2 0x551 JUMPI DUP1 PUSH4 0x810F01B9 EQ PUSH2 0x5C0 JUMPI PUSH1 0x0 DUP1 REVERT JUMPDEST DUP1 PUSH4 0x484D395F GT PUSH2 0x346 JUMPI DUP1 PUSH4 0x5BA1C1A9 GT PUSH2 0x2CE JUMPI DUP1 PUSH4 0x64D19609 GT PUSH2 0x29D JUMPI DUP1 PUSH4 0x64D19609 EQ PUSH2 0x442 JUMPI DUP1 PUSH4 0x6E464A00 EQ PUSH2 0x57B JUMPI DUP1 PUSH4 0x6F140BB7 EQ PUSH2 0x583 JUMPI DUP1 PUSH4 0x73662711 EQ PUSH2 0x58D JUMPI DUP1 PUSH4 0x740BB5FA EQ PUSH2 0x596 JUMPI PUSH1 0x0 DUP1 REVERT JUMPDEST DUP1 PUSH4 0x5BA1C1A9 EQ PUSH2 0x559 JUMPI DUP1 PUSH4 0x5CBBD382 EQ PUSH2 0x46F JUMPI DUP1 PUSH4 0x5ECD37E2 EQ PUSH2 0x563 JUMPI DUP1 PUSH4 0x617B99D2 EQ PUSH2 0x573 JUMPI PUSH1 0x0 DUP1 REVERT JUMPDEST DUP1 PUSH4 0x4E6FD6C4 GT PUSH2 0x315 JUMPI DUP1 PUSH4 0x4E6FD6C4 EQ PUSH2 0x528 JUMPI DUP1 PUSH4 0x4EDEB4BB EQ PUSH2 0x549 JUMPI DUP1 PUSH4 0x5049700F EQ PUSH2 0x551 JUMPI DUP1 PUSH4 0x56B50540 EQ PUSH2 0x46F JUMPI DUP1 PUSH4 0x59942D29 EQ PUSH2 0x489 JUMPI PUSH1 0x0 DUP1 REVERT JUMPDEST DUP1 PUSH4 0x484D395F EQ PUSH2 0x50D JUMPI DUP1 PUSH4 0x4936704E EQ PUSH2 0x46F JUMPI DUP1 PUSH4 0x4BCAEB8D EQ PUSH2 0x51E JUMPI DUP1 PUSH4 0x4CDF912B EQ PUSH2 0x442 JUMPI PUSH1 0x0 DUP1 REVERT JUMPDEST DUP1 PUSH4 0x1D55C1C4 GT PUSH2 0x3C9 JUMPI DUP1 PUSH4 0x27D88E9F GT PUSH2 0x398 JUMPI DUP1 PUSH4 0x27D88E9F EQ PUSH2 0x489 JUMPI DUP1 PUSH4 0x30B05BF5 EQ PUSH2 0x4E3 JUMPI DUP1 PUSH4 0x313B0DF4 EQ PUSH2 0x4EB JUMPI DUP1 PUSH4 0x3CA73BA1 EQ PUSH2 0x4F3 JUMPI DUP1 PUSH4 0x41F1C0D9 EQ PUSH2 0x4FC JUMPI PUSH1 0x0 DUP1 REVERT JUMPDEST DUP1 PUSH4 0x1D55C1C4 EQ PUSH2 0x4B2 JUMPI DUP1 PUSH4 0x20F57350 EQ PUSH2 0x4BA JUMPI DUP1 PUSH4 0x232C5348 EQ PUSH2 0x4CB JUMPI DUP1 PUSH4 0x24EBAE69 EQ PUSH2 0x4D3 JUMPI PUSH1 0x0 DUP1 REVERT JUMPDEST DUP1 PUSH4 0x80C1B3E GT PUSH2 0x410 JUMPI DUP1 PUSH4 0x80C1B3E EQ PUSH2 0x477 JUMPI DUP1 PUSH4 0xC48C5EE EQ PUSH2 0x489 JUMPI DUP1 PUSH4 0xE3FCE46 EQ PUSH2 0x491 JUMPI DUP1 PUSH4 0x18B64E03 EQ PUSH2 0x499 JUMPI DUP1 PUSH4 0x1B14F4EB EQ PUSH2 0x4A1 JUMPI PUSH1 0x0 DUP1 REVERT JUMPDEST DUP1 PUSH4 0x18B21F6 EQ PUSH2 0x442 JUMPI DUP1 PUSH4 0x39A9A28 EQ PUSH2 0x45E JUMPI DUP1 PUSH4 0x59D7EFC EQ PUSH2 0x46F JUMPI DUP1 PUSH4 0x63F3911 EQ PUSH2 0x442 JUMPI JUMPDEST PUSH1 0x0 DUP1 REVERT JUMPDEST PUSH2 0x44B PUSH2 0x3E8 DUP2 JUMP JUMPDEST PUSH1 0x40 MLOAD SWAP1 DUP2 MSTORE PUSH1 0x20 ADD JUMPDEST PUSH1 0x40 MLOAD DUP1 SWAP2 SUB SWAP1 RETURN JUMPDEST PUSH2 0x44B PUSH10 0x54B40B1F852BDA00000 DUP2 JUMP JUMPDEST PUSH2 0x44B PUSH1 0x32 DUP2 JUMP JUMPDEST PUSH2 0x44B PUSH11 0x9195731E2CE35EB000000 DUP2 JUMP JUMPDEST PUSH2 0x44B PUSH1 0x64 DUP2 JUMP JUMPDEST PUSH2 0x44B PUSH1 0x2D DUP2 JUMP JUMPDEST PUSH2 0x44B PUSH1 0x19 DUP2 JUMP JUMPDEST PUSH2 0x44B PUSH10 0x152D02C7E14AF6800000 DUP2 JUMP JUMPDEST PUSH2 0x44B PUSH1 0x1E DUP2 JUMP JUMPDEST PUSH2 0x44B PUSH10 0x69E10DE76676D0800000 DUP2 JUMP JUMPDEST PUSH2 0x44B PUSH1 0xC8 DUP2 JUMP JUMPDEST PUSH2 0x44B PUSH9 0x1B0D04202F47EC0000 DUP2 JUMP JUMPDEST PUSH2 0x44B PUSH1 0x4B DUP2 JUMP JUMPDEST PUSH2 0x44B PUSH1 0xF DUP2 JUMP JUMPDEST PUSH2 0x44B PUSH2 0x7D0 DUP2 JUMP JUMPDEST PUSH2 0x44B PUSH10 0x10F0CF064DD59200000 DUP2 JUMP JUMPDEST PUSH2 0x44B PUSH10 0xFE1C215E8F838E00000 DUP2 JUMP JUMPDEST PUSH2 0x44B PUSH3 0x76A700 DUP2 JUMP JUMPDEST PUSH2 0x531 PUSH2 0xDEAD DUP2 JUMP JUMPDEST PUSH1 0x40 MLOAD PUSH1 0x1 PUSH1 0x1 PUSH1 0xA0 SHL SUB SWAP1 SWAP2 AND DUP2 MSTORE PUSH1 0x20 ADD PUSH2 0x455 JUMP JUMPDEST PUSH2 0x44B PUSH1 0x96 DUP2 JUMP JUMPDEST PUSH2 0x44B PUSH1 0x0 DUP2 JUMP JUMPDEST PUSH2 0x44B PUSH3 0x2A300 DUP2 JUMP JUMPDEST PUSH2 0x44B PUSH9 0x8778977BBB052C0000 DUP2 JUMP JUMPDEST PUSH2 0x44B PUSH1 0x14 DUP2 JUMP JUMPDEST PUSH2 0x44B PUSH1 0x73 DUP2 JUMP JUMPDEST PUSH2 0x44B PUSH3 0xD2F00 DUP2 JUMP JUMPDEST PUSH2 0x44B PUSH2 0x2648 DUP2 JUMP JUMPDEST PUSH2 0x44B PUSH10 0xFE1C215E8F838E000000 DUP2 JUMP JUMPDEST PUSH2 0x44B PUSH3 0x93A80 DUP2 JUMP JUMPDEST PUSH2 0x44B PUSH8 0x8AC7230489E80000 DUP2 JUMP JUMPDEST PUSH2 0x44B PUSH2 0xFA0 DUP2 JUMP JUMPDEST PUSH2 0x44B PUSH1 0xA DUP2 JUMP JUMPDEST PUSH2 0x44B PUSH10 0x2A5A058FC295ED000000 DUP2 JUMP JUMPDEST PUSH2 0x44B PUSH2 0xBB8 DUP2 JUMP JUMPDEST PUSH2 0x44B PUSH11 0x211654585005212800000 DUP2 JUMP JUMPDEST PUSH2 0x44B PUSH11 0x84376FC33378D97C00000 DUP2 JUMP JUMPDEST PUSH2 0x44B PUSH11 0x92E8434AAAF80E1800000 DUP2 JUMP JUMPDEST PUSH2 0x44B PUSH3 0x15180 DUP2 JUMP JUMPDEST PUSH2 0x44B PUSH1 0xFA DUP2 JUMP JUMPDEST PUSH2 0x44B PUSH2 0x1770 DUP2 JUMP JUMPDEST PUSH2 0x44B PUSH2 0x2710 DUP2 JUMP JUMPDEST PUSH2 0x44B PUSH2 0x1B58 DUP2 JUMP JUMPDEST PUSH2 0x44B PUSH9 0x878678326EAC900000 DUP2 JUMP JUMPDEST PUSH2 0x44B PUSH10 0x21E19E0C9BAB2400000 DUP2 JUMP JUMPDEST PUSH2 0x44B PUSH1 0x3 DUP2 JUMP JUMPDEST PUSH2 0x44B PUSH10 0xA968163F0A57B400000 DUP2 JUMP JUMPDEST PUSH2 0x44B PUSH9 0x1B1AE4D6E2EF500000 DUP2 JUMP JUMPDEST PUSH2 0x44B PUSH4 0x69FFCA80 DUP2 JUMP JUMPDEST PUSH2 0x44B PUSH10 0xEB0D387777F349C00000 DUP2 JUMP JUMPDEST PUSH2 0x44B PUSH1 0xAF DUP2 JUMP JUMPDEST PUSH2 0x44B PUSH10 0x10EFF0FAE29B1BC0000 DUP2 JUMP JUMPDEST PUSH2 0x44B PUSH1 0x5 DUP2 JUMP INVALID LOG2 PUSH5 0x6970667358 0x22 SLT KECCAK256 SWAP6 STATICCALL 0xDF SWAP15 0xC1 0xDB BLOBHASH PUSH1 0xC6 LOG3 0xF9 0xA6 DELEGATECALL DUP9 PUSH12 0x32B7CCEC341B9E464F52720F SSTORE MSTORE8 LOG1 EXTCODEHASH 0xAA PUSH5 0x736F6C6343 STOP ADDMOD XOR STOP CALLER "},"methodIdentifiers":{"BASIS_POINTS()":"e1f1c4a7","CONTRACT_RESERVE()":"080c1b3e","DAO_MONTHLY_ROYALTY_BP()":"56b50540","DAO_TEAM_SIZE_REQUIREMENT()":"a35e793d","DEAD_ADDRESS()":"4e6fd6c4","DEPOSIT_TO_COMPANY_BP()":"b8b8fe86","DEPOSIT_TO_DEX_BP()":"73662711","DEPOSIT_TO_PERFORMANCE_BP()":"059d7efc","DEPOSIT_TO_REWARD_BP()":"b9d39bb4","DEX_ALLOCATION()":"1b14f4eb","EARLY_EXIT_FEE_BP()":"4cdf912b","EARLY_EXIT_PERIOD()":"6f140bb7","LAUNCH_TIMESTAMP()":"e954f41d","LIFETIME_RATE()":"0e3fce46","LIFETIME_RATE_START()":"4bcaeb8d","MAX_BURN_SUPPLY()":"8c46387a","MAX_DAO_MEMBERS()":"232c5348","MAX_DEPOSIT_PER_TX()":"41f1c0d9","MAX_REFERRAL_LEVELS()":"617b99d2","MIN_REMAINING_SUPPLY()":"ed4d5f97","MIN_WITHDRAWAL_THRESHOLD()":"c86ebc99","PROPOSAL_THRESHOLD_BP()":"dc67edbe","QUALIFIED_DIRECT_MIN_DEPOSIT()":"9fa42572","RANK1_BONUS_BP()":"8bffc5b5","RANK1_TURNOVER()":"c7ccbafe","RANK2_BONUS_BP()":"4936704e","RANK2_TURNOVER()":"039a9a28","RANK3_BONUS_BP()":"1d55c1c4","RANK3_TURNOVER()":"484d395f","RANK4_BONUS_BP()":"dadf4022","RANK4_TURNOVER()":"86f72d9f","RANK5_BONUS_BP()":"313b0df4","RANK5_TURNOVER()":"20f57350","RANK6_BONUS_BP()":"831f23ee","RANK6_TURNOVER()":"740bb5fa","RANK7_BONUS_BP()":"fdce696c","RANK7_TURNOVER()":"8bfef2f4","RANK_MAIN_LEG_MAX_BP()":"810f01b9","RANK_OTHER_LEGS_MIN_BP()":"a497b134","REFERRAL_L11_15_BP()":"5cbbd382","REFERRAL_L16_20_BP()":"18b64e03","REFERRAL_L1_BP()":"882d893b","REFERRAL_L2_BP()":"82b14df3","REFERRAL_L3_10_BP()":"a23df8dc","RETURN_CAP_MULTIPLIER()":"ce18b69f","SELL_TAX_BP()":"64d19609","SELL_TAX_FEE_BURN_BP()":"063f3911","SELL_TAX_TO_BURN_BP()":"3ca73ba1","SELL_TAX_TO_CONTRACT_BP()":"b136bdda","TIER1_MAX()":"24ebae69","TIER1_MIN()":"7961954c","TIER1_RATE_MAX()":"0c48c5ee","TIER1_RATE_MIN()":"cbbe2e8f","TIER2_MAX()":"5ecd37e2","TIER2_MIN()":"e4bd07c4","TIER2_RATE_MAX()":"6e464a00","TIER2_RATE_MIN()":"30b05bf5","TIER3_MAX()":"f64ff5b0","TIER3_MIN()":"c5f7dd3c","TIER3_RATE_MAX()":"4edeb4bb","TIER3_RATE_MIN()":"59942d29","TIER4_IMPLICIT_MAX()":"d6466766","TIER4_MIN()":"8d419d71","TIER4_RATE_MAX()":"f5dd1f5d","TIER4_RATE_MIN()":"27d88e9f","TIMELOCK_DELAY()":"5ba1c1a9","TOTAL_SUPPLY()":"902d55a5","TREASURY_TO_DAO_BP()":"7a8ba8ad","TREASURY_TO_LP_BP()":"a4f8bd15","TREASURY_TO_RANK_BP()":"5049700f","VOTING_PERIOD_BLOCKS()":"a29dfff3","WEEK_DURATION()":"76f5f700","WITHDRAWAL_FEE_BP()":"018b21f6"}}}}}