{"contracts/OSLOInvestmentEngine.sol":{"OSLOInvestmentEngine":{"abi":[{"inputs":[{"internalType":"address","name":"_usdt","type":"address"},{"internalType":"address","name":"_osloToken","type":"address"},{"internalType":"uint256","name":"_launchTimestamp","type":"uint256"}],"stateMutability":"nonpayable","type":"constructor"},{"inputs":[],"name":"BelowWithdrawalThreshold","type":"error"},{"inputs":[],"name":"DEXNotPriced","type":"error"},{"inputs":[],"name":"DepositCapped","type":"error"},{"inputs":[],"name":"DepositTooHigh","type":"error"},{"inputs":[],"name":"DepositTooLow","type":"error"},{"inputs":[],"name":"DepositsPausedError","type":"error"},{"inputs":[],"name":"InsufficientOsloReserve","type":"error"},{"inputs":[],"name":"InsufficientUSDTReserve","type":"error"},{"inputs":[],"name":"InvalidDeposit","type":"error"},{"inputs":[],"name":"InvalidExitPercentage","type":"error"},{"inputs":[],"name":"NotConfigured","type":"error"},{"inputs":[],"name":"NotInEarlyExitPeriod","type":"error"},{"inputs":[],"name":"NothingToClaim","type":"error"},{"inputs":[],"name":"OnlyAdmin","type":"error"},{"inputs":[],"name":"OnlyRankSystem","type":"error"},{"inputs":[],"name":"OnlyReferral","type":"error"},{"inputs":[],"name":"OnlyTimelock","type":"error"},{"inputs":[],"name":"ReentrancyGuardReentrantCall","type":"error"},{"inputs":[{"internalType":"address","name":"token","type":"address"}],"name":"SafeERC20FailedOperation","type":"error"},{"inputs":[],"name":"SetupAlreadyComplete","type":"error"},{"inputs":[],"name":"ZeroAddress","type":"error"},{"anonymous":false,"inputs":[{"indexed":true,"internalType":"address","name":"user","type":"address"}],"name":"CombinedCapReached","type":"event"},{"anonymous":false,"inputs":[{"indexed":true,"internalType":"address","name":"user","type":"address"},{"indexed":false,"internalType":"uint256","name":"totalCombined","type":"uint256"}],"name":"CombinedEarningsUpdated","type":"event"},{"anonymous":false,"inputs":[{"indexed":true,"internalType":"address","name":"user","type":"address"},{"indexed":false,"internalType":"uint256","name":"amount","type":"uint256"},{"indexed":false,"internalType":"uint256","name":"tier","type":"uint256"},{"indexed":false,"internalType":"uint256","name":"dailyRate","type":"uint256"},{"indexed":false,"internalType":"uint256","name":"depositIndex","type":"uint256"}],"name":"Deposited","type":"event"},{"anonymous":false,"inputs":[{"indexed":false,"internalType":"bool","name":"paused","type":"bool"}],"name":"DepositsPaused","type":"event"},{"anonymous":false,"inputs":[{"indexed":true,"internalType":"address","name":"user","type":"address"},{"indexed":false,"internalType":"uint256","name":"amountReturned","type":"uint256"},{"indexed":false,"internalType":"uint256","name":"feeDeducted","type":"uint256"},{"indexed":false,"internalType":"uint256","name":"yieldDeducted","type":"uint256"},{"indexed":false,"internalType":"uint256","name":"depositIndex","type":"uint256"}],"name":"EarlyExited","type":"event"},{"anonymous":false,"inputs":[{"indexed":true,"internalType":"address","name":"user","type":"address"},{"indexed":false,"internalType":"uint256","name":"netPrincipal","type":"uint256"},{"indexed":false,"internalType":"uint256","name":"depositIndex","type":"uint256"}],"name":"PrincipalWithdrawn","type":"event"},{"anonymous":false,"inputs":[{"indexed":true,"internalType":"address","name":"oldReferral","type":"address"},{"indexed":true,"internalType":"address","name":"newReferral","type":"address"}],"name":"ReferralUpdated","type":"event"},{"anonymous":false,"inputs":[{"indexed":true,"internalType":"address","name":"user","type":"address"},{"indexed":false,"internalType":"uint256","name":"usdtReward","type":"uint256"},{"indexed":false,"internalType":"uint256","name":"osloAmount","type":"uint256"},{"indexed":false,"internalType":"uint256","name":"depositIndex","type":"uint256"}],"name":"RewardsClaimed","type":"event"},{"inputs":[],"name":"admin","outputs":[{"internalType":"address","name":"","type":"address"}],"stateMutability":"view","type":"function"},{"inputs":[{"internalType":"uint256","name":"depositIndex","type":"uint256"}],"name":"claimRewards","outputs":[],"stateMutability":"nonpayable","type":"function"},{"inputs":[],"name":"companyWallet","outputs":[{"internalType":"address","name":"","type":"address"}],"stateMutability":"view","type":"function"},{"inputs":[],"name":"completeSetup","outputs":[],"stateMutability":"nonpayable","type":"function"},{"inputs":[{"internalType":"address","name":"_treasury","type":"address"},{"internalType":"address","name":"_referral","type":"address"},{"internalType":"address","name":"_rankSystem","type":"address"},{"internalType":"address","name":"_osloDex","type":"address"},{"internalType":"address","name":"_timelock","type":"address"}],"name":"configure","outputs":[],"stateMutability":"nonpayable","type":"function"},{"inputs":[{"internalType":"uint256","name":"amount","type":"uint256"}],"name":"deposit","outputs":[],"stateMutability":"nonpayable","type":"function"},{"inputs":[],"name":"depositsPaused","outputs":[{"internalType":"bool","name":"","type":"bool"}],"stateMutability":"view","type":"function"},{"inputs":[{"internalType":"uint256","name":"depositIndex","type":"uint256"}],"name":"earlyExit","outputs":[],"stateMutability":"nonpayable","type":"function"},{"inputs":[{"internalType":"address","name":"user","type":"address"}],"name":"getActiveDeposit","outputs":[{"internalType":"uint256","name":"","type":"uint256"}],"stateMutability":"view","type":"function"},{"inputs":[{"internalType":"address","name":"user","type":"address"}],"name":"getCombinedEarnings","outputs":[{"internalType":"uint256","name":"","type":"uint256"}],"stateMutability":"view","type":"function"},{"inputs":[{"internalType":"address","name":"user","type":"address"}],"name":"getDepositCount","outputs":[{"internalType":"uint256","name":"","type":"uint256"}],"stateMutability":"view","type":"function"},{"inputs":[{"internalType":"address","name":"user","type":"address"},{"internalType":"uint256","name":"depositIndex","type":"uint256"}],"name":"getEarlyExitAmount","outputs":[{"internalType":"uint256","name":"principal","type":"uint256"},{"internalType":"uint256","name":"accruedYield","type":"uint256"},{"internalType":"uint256","name":"exitFee","type":"uint256"},{"internalType":"uint256","name":"netReturn","type":"uint256"}],"stateMutability":"view","type":"function"},{"inputs":[{"internalType":"address","name":"user","type":"address"},{"internalType":"uint256","name":"depositIndex","type":"uint256"},{"internalType":"uint256","name":"percentageBp","type":"uint256"}],"name":"getPartialEarlyExitAmount","outputs":[{"internalType":"uint256","name":"exitAmount","type":"uint256"},{"internalType":"uint256","name":"exitFee","type":"uint256"},{"internalType":"uint256","name":"netReturn","type":"uint256"},{"internalType":"uint256","name":"remainingBalance","type":"uint256"}],"stateMutability":"view","type":"function"},{"inputs":[{"internalType":"address","name":"user","type":"address"},{"internalType":"uint256","name":"depositIndex","type":"uint256"}],"name":"getPendingRewards","outputs":[{"internalType":"uint256","name":"pendingUSDT","type":"uint256"}],"stateMutability":"view","type":"function"},{"inputs":[{"internalType":"address","name":"user","type":"address"}],"name":"getUserTier","outputs":[{"internalType":"uint256","name":"","type":"uint256"}],"stateMutability":"view","type":"function"},{"inputs":[{"internalType":"address","name":"user","type":"address"},{"internalType":"uint256","name":"depositIndex","type":"uint256"}],"name":"isInEarlyExitPeriod","outputs":[{"internalType":"bool","name":"","type":"bool"}],"stateMutability":"view","type":"function"},{"inputs":[],"name":"launchTimestamp","outputs":[{"internalType":"uint256","name":"","type":"uint256"}],"stateMutability":"view","type":"function"},{"inputs":[{"components":[{"internalType":"address","name":"owner","type":"address"},{"internalType":"uint256","name":"amount","type":"uint256"},{"internalType":"uint256","name":"tier","type":"uint256"},{"internalType":"uint256","name":"dailyRate","type":"uint256"},{"internalType":"uint256","name":"depositTime","type":"uint256"},{"internalType":"uint256","name":"lastClaimTime","type":"uint256"},{"internalType":"uint256","name":"totalClaimed","type":"uint256"},{"internalType":"uint256","name":"maxReturn","type":"uint256"}],"internalType":"struct OSLOInvestmentEngine.DepositMigration[]","name":"entries","type":"tuple[]"}],"name":"migrateDeposits","outputs":[],"stateMutability":"nonpayable","type":"function"},{"inputs":[],"name":"minClaimThreshold","outputs":[{"internalType":"uint256","name":"","type":"uint256"}],"stateMutability":"view","type":"function"},{"inputs":[{"internalType":"address","name":"user","type":"address"},{"internalType":"uint256","name":"amount","type":"uint256"}],"name":"notifyLevelIncome","outputs":[],"stateMutability":"nonpayable","type":"function"},{"inputs":[{"internalType":"address","name":"user","type":"address"},{"internalType":"uint256","name":"amount","type":"uint256"}],"name":"notifyRankBonus","outputs":[],"stateMutability":"nonpayable","type":"function"},{"inputs":[],"name":"osloDex","outputs":[{"internalType":"address","name":"","type":"address"}],"stateMutability":"view","type":"function"},{"inputs":[],"name":"osloToken","outputs":[{"internalType":"contract IERC20","name":"","type":"address"}],"stateMutability":"view","type":"function"},{"inputs":[{"internalType":"uint256","name":"depositIndex","type":"uint256"},{"internalType":"uint256","name":"percentageBp","type":"uint256"}],"name":"partialEarlyExit","outputs":[],"stateMutability":"nonpayable","type":"function"},{"inputs":[],"name":"performanceWallet","outputs":[{"internalType":"address","name":"","type":"address"}],"stateMutability":"view","type":"function"},{"inputs":[],"name":"rankSystem","outputs":[{"internalType":"address","name":"","type":"address"}],"stateMutability":"view","type":"function"},{"inputs":[],"name":"referral","outputs":[{"internalType":"address","name":"","type":"address"}],"stateMutability":"view","type":"function"},{"inputs":[],"name":"rewardWallet","outputs":[{"internalType":"address","name":"","type":"address"}],"stateMutability":"view","type":"function"},{"inputs":[{"internalType":"bool","name":"_paused","type":"bool"}],"name":"setDepositsPaused","outputs":[],"stateMutability":"nonpayable","type":"function"},{"inputs":[{"internalType":"uint256","name":"_threshold","type":"uint256"}],"name":"setMinClaimThreshold","outputs":[],"stateMutability":"nonpayable","type":"function"},{"inputs":[{"internalType":"address","name":"_referral","type":"address"}],"name":"setReferral","outputs":[],"stateMutability":"nonpayable","type":"function"},{"inputs":[{"internalType":"address","name":"_rewardWallet","type":"address"},{"internalType":"address","name":"_companyWallet","type":"address"},{"internalType":"address","name":"_performanceWallet","type":"address"}],"name":"setRewardWallets","outputs":[],"stateMutability":"nonpayable","type":"function"},{"inputs":[],"name":"setupComplete","outputs":[{"internalType":"bool","name":"","type":"bool"}],"stateMutability":"view","type":"function"},{"inputs":[],"name":"timelock","outputs":[{"internalType":"address","name":"","type":"address"}],"stateMutability":"view","type":"function"},{"inputs":[],"name":"totalDeposited","outputs":[{"internalType":"uint256","name":"","type":"uint256"}],"stateMutability":"view","type":"function"},{"inputs":[],"name":"totalRewardsPaid","outputs":[{"internalType":"uint256","name":"","type":"uint256"}],"stateMutability":"view","type":"function"},{"inputs":[],"name":"totalWithdrawn","outputs":[{"internalType":"uint256","name":"","type":"uint256"}],"stateMutability":"view","type":"function"},{"inputs":[],"name":"treasury","outputs":[{"internalType":"address","name":"","type":"address"}],"stateMutability":"view","type":"function"},{"inputs":[],"name":"usdt","outputs":[{"internalType":"contract IERC20","name":"","type":"address"}],"stateMutability":"view","type":"function"},{"inputs":[{"internalType":"address","name":"","type":"address"},{"internalType":"uint256","name":"","type":"uint256"}],"name":"userDeposits","outputs":[{"internalType":"uint256","name":"amount","type":"uint256"},{"internalType":"uint256","name":"tier","type":"uint256"},{"internalType":"uint256","name":"dailyRate","type":"uint256"},{"internalType":"uint256","name":"depositTime","type":"uint256"},{"internalType":"uint256","name":"lastClaimTime","type":"uint256"},{"internalType":"uint256","name":"totalClaimed","type":"uint256"},{"internalType":"uint256","name":"maxReturn","type":"uint256"},{"internalType":"bool","name":"active","type":"bool"}],"stateMutability":"view","type":"function"},{"inputs":[{"internalType":"address","name":"","type":"address"}],"name":"users","outputs":[{"internalType":"uint256","name":"totalActiveDeposit","type":"uint256"},{"internalType":"uint256","name":"depositCount","type":"uint256"},{"internalType":"uint256","name":"totalCombinedEarnings","type":"uint256"}],"stateMutability":"view","type":"function"}],"evm":{"bytecode":{"linkReferences":{},"object":"60e0604052670de0b6b3a76400006006553480156200001d57600080fd5b50604051620030ea380380620030ea8339810160408190526200004091620000ec565b60017f9b779b17422d0df92223018b32b4d1fa46e071723d6817e2486d003becc55f00556001600160a01b03831615806200008257506001600160a01b038216155b15620000a15760405163d92e233d60e01b815260040160405180910390fd5b6001600160a01b03928316608052911660a05260c052600480546001600160a01b031916331790556200012d565b80516001600160a01b0381168114620000e757600080fd5b919050565b6000806000606084860312156200010257600080fd5b6200010d84620000cf565b92506200011d60208501620000cf565b9150604084015190509250925092565b60805160a05160c051612f08620001e260003960008181610461015281816120c0015261278c01526000818161038b015281816108a4015281816109de01528181610b6d01528181610bf901528181611839015281816119ad01528181611a320152818161256601526125f20152600081816103b201528181611684015281816117530152818161178d015281816117c701528181611ad1015281816123d80152818161246101526124a00152612f086000f3fe608060405234801561001057600080fd5b50600436106102535760003560e01c8063786685e011610146578063b6635be6116100c3578063e4d2620e11610087578063e4d2620e1461061c578063e4e7c6b41461062f578063e9a16bd514610642578063f851a44014610655578063fb75b2c714610668578063ff50abdc1461067b57600080fd5b8063b6635be6146105bc578063b6b55f25146105d0578063b8af3d3e146105e3578063ceace7dd146105f6578063d33219b41461060957600080fd5b80639e5914da1161010a5780639e5914da14610506578063a87430ba14610519578063aa9cc81814610563578063ac948e8314610596578063b12cd625146105a957600080fd5b8063786685e0146104b257806384b273f6146104c55780638565c2bf146104d85780638aea8f71146104eb5780638fb1bb50146104f357600080fd5b80633695dad1116101d457806361d027b31161019857806361d027b31461044957806365cf7c9b1461045c5780636b9f7ab61461048357806374958e3514610496578063760fcb3e1461049f57600080fd5b80633695dad1146103d45780633a6f2dcd146103dd5780634b3197131461040957806351637ba91461041257806360da3e831461042557600080fd5b80631c481e2d1161021b5780631c481e2d1461034d5780631d687f0c146103605780631ec32d15146103735780632acfbca3146103865780632f48ab7d146103ad57600080fd5b806308f43333146102585780630962ef79146102ad57806313fcaf54146102c2578063142a3da3146102f95780631441a5a914610322575b600080fd5b61026b610266366004612ba8565b610684565b604080519889526020890197909752958701949094526060860192909252608085015260a084015260c0830152151560e0820152610100015b60405180910390f35b6102c06102bb366004612bd4565b6106e9565b005b6102eb6102d0366004612bed565b6001600160a01b03166000908152600a602052604090205490565b6040519081526020016102a4565b6102eb610307366004612bed565b6001600160a01b03166000908152600b602052604090205490565b600254610335906001600160a01b031681565b6040516001600160a01b0390911681526020016102a4565b6102c061035b366004612c0a565b610d41565b6102c061036e366004612c2c565b610dc4565b600854610335906001600160a01b031681565b6103357f000000000000000000000000000000000000000000000000000000000000000081565b6103357f000000000000000000000000000000000000000000000000000000000000000081565b6102eb60065481565b6102eb6103eb366004612bed565b6001600160a01b03166000908152600b602052604090206002015490565b6102eb600d5481565b6102c0610420366004612bd4565b610ebd565b60055461043990600160a81b900460ff1681565b60405190151581526020016102a4565b600154610335906001600160a01b031681565b6102eb7f000000000000000000000000000000000000000000000000000000000000000081565b6102c0610491366004612ba8565b610eed565b6102eb600e5481565b6102c06104ad366004612c77565b610f9c565b6104396104c0366004612ba8565b611078565b6102c06104d3366004612ce8565b611112565b600054610335906001600160a01b031681565b6102c06112fe565b6102c0610501366004612d5d565b6113a2565b6102c0610514366004612bed565b6113d0565b610548610527366004612bed565b600b6020526000908152604090208054600182015460029092015490919083565b604080519384526020840192909252908201526060016102a4565b610576610571366004612d7f565b611457565b6040805194855260208501939093529183015260608201526080016102a4565b6102c06105a4366004612ba8565b61159d565b600954610335906001600160a01b031681565b60055461043990600160a01b900460ff1681565b6102c06105de366004612bd4565b6115c8565b6102c06105f1366004612bd4565b611dc0565b610576610604366004612ba8565b611dec565b600554610335906001600160a01b031681565b6102eb61062a366004612bed565b611ed7565b6102eb61063d366004612ba8565b611f20565b600354610335906001600160a01b031681565b600454610335906001600160a01b031681565b600754610335906001600160a01b031681565b6102eb600c5481565b600a60205281600052604060002081815481106106a057600080fd5b6000918252602090912060089091020180546001820154600283015460038401546004850154600586015460068701546007909701549598509396509194909391929160ff1688565b6106f1611fac565b60006106fd3383611fc8565b9050600061070b3383612069565b90508060000361072e576040516312d37ee560e31b815260040160405180910390fd5b60065481101561075157604051637e3f2b7d60e01b815260040160405180910390fd5b815460009061076290600390612dca565b336000908152600b602052604081206002810154929350918311610787576000610796565b60028201546107969084612de1565b9050806000036107f05760078501805460ff1916905560405133907ffa1eb7ba4f65747c7c8882031eb92d63b6fcb684b75052185312fbe1a488d94390600090a26040516305a2e88560e21b815260040160405180910390fd5b808411156107fc578093505b600080546040516311ea9fa960e21b8152600481018790526001600160a01b03909116906347aa7ea490602401602060405180830381865afa158015610846573d6000803e3d6000fd5b505050506040513d601f19601f8201168201806040525081019061086a9190612df4565b90508060000361088d5760405163cc88465760e01b815260040160405180910390fd5b6040516370a0823160e01b815230600482015281907f00000000000000000000000000000000000000000000000000000000000000006001600160a01b0316906370a0823190602401602060405180830381865afa1580156108f3573d6000803e3d6000fd5b505050506040513d601f19601f820116820180604052508101906109179190612df4565b10156109365760405163075e464560e01b815260040160405180910390fd5b8486600501600082825461094a9190612e0d565b909155505042600487015560028301805486919060009061096c908490612e0d565b9250508190555084600e60008282546109859190612e0d565b909155505060068601546005870154106109d15760078601805460ff1916905560405133907ffa1eb7ba4f65747c7c8882031eb92d63b6fcb684b75052185312fbe1a488d94390600090a25b610a056001600160a01b037f0000000000000000000000000000000000000000000000000000000000000000163383612165565b6002546001600160a01b031615610ca4578415610ca457600254604051638000d99160e01b8152336004820152602481018790526000916001600160a01b031690638000d991906044016020604051808303816000875af1158015610a6e573d6000803e3d6000fd5b505050506040513d601f19601f82011682018060405250810190610a929190612df4565b90508015610ca2576000805460408051630240bc6b60e21b8152815184936001600160a01b031692630902f1ac92600480820193918290030181865afa158015610ae0573d6000803e3d6000fd5b505050506040513d601f19601f82011682018060405250810190610b049190612e20565b915091508282118015610b175750600081115b15610c9f576000610b288484612de1565b610b328386612dca565b610b3c9190612e44565b9050610b49816001612e0d565b9050600081118015610be357506040516370a0823160e01b815230600482015281907f00000000000000000000000000000000000000000000000000000000000000006001600160a01b0316906370a0823190602401602060405180830381865afa158015610bbc573d6000803e3d6000fd5b505050506040513d601f19601f82011682018060405250810190610be09190612df4565b10155b15610c9d57600054610c22906001600160a01b037f0000000000000000000000000000000000000000000000000000000000000000811691168361219f565b60005460025460405163f843e64160e01b8152600481018490526001600160a01b03918216602482015291169063f843e641906044016020604051808303816000875af1158015610c77573d6000803e3d6000fd5b505050506040513d601f19601f82011682018060405250810190610c9b9190612df4565b505b505b50505b505b604080518681526020810183905290810188905233907f56253d287efacdb2c4cd76dd03624a4821c1ce721d1152e8f5f5718f6087c9bf9060600160405180910390a2600283015460405190815233907fdad0e43afdd45daca2566e861ff76f0250960d86947518722c83b1e03f45edd59060200160405180910390a2505050505050610d3e6001600080516020612eb383398151915255565b50565b6005546001600160a01b03163314610d6c57604051630e05f48560e11b815260040160405180910390fd5b60058054821515600160a81b0260ff60a81b199091161790556040517f5ef34f53269a04b5b817e5be24a51ba6b477118b399ec9dd5b2baf5b299563dc90610db990831515815260200190565b60405180910390a150565b600554600160a01b900460ff1615610e06576005546001600160a01b03163314610e0157604051630e05f48560e11b815260040160405180910390fd5b610e31565b6004546001600160a01b03163314610e3157604051634755657960e01b815260040160405180910390fd5b6001600160a01b0383161580610e4e57506001600160a01b038216155b80610e6057506001600160a01b038116155b15610e7e5760405163d92e233d60e01b815260040160405180910390fd5b600780546001600160a01b039485166001600160a01b031991821617909155600880549385169382169390931790925560098054919093169116179055565b6005546001600160a01b03163314610ee857604051630e05f48560e11b815260040160405180910390fd5b600655565b6002546001600160a01b03163314610f1857604051633864b1e560e21b815260040160405180910390fd5b6001600160a01b0382166000908152600b602052604081206002018054839290610f43908490612e0d565b90915550506001600160a01b0382166000818152600b60209081526040918290206002015491519182527fdad0e43afdd45daca2566e861ff76f0250960d86947518722c83b1e03f45edd5910160405180910390a25050565b6004546001600160a01b03163314610fc757604051634755657960e01b815260040160405180910390fd5b600554600160a01b900460ff1615610ff25760405163238f75d360e01b815260040160405180910390fd5b6001600160a01b0382166110195760405163d92e233d60e01b815260040160405180910390fd5b600180546001600160a01b03199081166001600160a01b03978816179091556002805482169587169590951790945560038054851693861693909317909255600080548416918516919091179055600580549092169216919091179055565b6001600160a01b0382166000908152600a6020526040812054821061109f5750600061110c565b6001600160a01b0383166000908152600a602052604081208054849081106110c9576110c9612e66565b60009182526020909120600890910201600781015490915060ff166110f257600091505061110c565b620d2f0081600301546111059190612e0d565b4211159150505b92915050565b6004546001600160a01b0316331461113d57604051634755657960e01b815260040160405180910390fd5b60005b818110156112f9573683838381811061115b5761115b612e66565b61010002919091019150600a905060006111786020840184612bed565b6001600160a01b03168152602080820192909252604090810160009081208251610100810184528585018035808352878601358388019081526060808a01359785019788526080808b013591860191825260a0808c013591870191825260c0808d013591880191825260e0808e013591890191825260019089018181528a548083018c559a8c529c8b2098516008909a029098019889559351968801969096559751600287015551600386015595516004850155915160058401559351600683015593516007909101805460ff1916911515919091179055600b9161125d9085612bed565b6001600160a01b03166001600160a01b03168152602001908152602001600020600001600082825461128f9190612e0d565b90915550600b905060006112a66020840184612bed565b6001600160a01b03168152602081019190915260400160009081206001018054916112d083612e7c565b91905055508060200135600c60008282546112eb9190612e0d565b909155505050600101611140565b505050565b6004546001600160a01b0316331461132957604051634755657960e01b815260040160405180910390fd5b600554600160a01b900460ff16156113545760405163238f75d360e01b815260040160405180910390fd5b6001546001600160a01b031661137d5760405163d311bc3960e01b815260040160405180910390fd5b6005805460ff60a01b1916600160a01b179055600480546001600160a01b0319169055565b6113aa611fac565b6113b53383836121f3565b6113cc6001600080516020612eb383398151915255565b5050565b6005546001600160a01b031633146113fb57604051630e05f48560e11b815260040160405180910390fd5b6002546040516001600160a01b038084169216907feefe1ce2782e4ba3bbccd79617fae74979fa22005f22f7075c0910cd51c8ffd990600090a3600280546001600160a01b0319166001600160a01b0392909216919091179055565b6001600160a01b0383166000908152600a6020526040812054819081908190861061148d57506000925082915081905080611594565b6001600160a01b0387166000908152600a602052604081208054889081106114b7576114b7612e66565b60009182526020909120600890910201600781015490915060ff1615806114ef5750620d2f0081600301546114ec9190612e0d565b42115b1561150857600080600080945094509450945050611594565b856127101415801561151c57508561138814155b801561152a5750856109c414155b1561154357600080600080945094509450945050611594565b80546127106115528883612dca565b61155c9190612e44565b955061271061156d6103e888612dca565b6115779190612e44565b94506115838587612de1565b935061158f8682612de1565b925050505b93509350935093565b6003546001600160a01b03163314610f1857604051633327311360e11b815260040160405180910390fd5b6115d0611fac565b600554600160a81b900460ff16156115fa57604051627cfe7f60e31b815260040160405180910390fd5b678ac7230489e8000081101561162357604051632b7786bd60e21b815260040160405180910390fd5b69010f0cf064dd5920000081111561164e5760405163c066e1e960e01b815260040160405180910390fd5b6000546001600160a01b03166116775760405163d311bc3960e01b815260040160405180910390fd5b6116ac6001600160a01b037f0000000000000000000000000000000000000000000000000000000000000000163330846126f5565b60075481906001600160a01b0316158015906116d257506008546001600160a01b031615155b80156116e857506009546001600160a01b031615155b156118165760006127106116fd606485612dca565b6117079190612e44565b90506000612710611719603286612dca565b6117239190612e44565b90506000612710611735603287612dca565b61173f9190612e44565b60075490915061177c906001600160a01b037f00000000000000000000000000000000000000000000000000000000000000008116911685612165565b6008546117b6906001600160a01b037f00000000000000000000000000000000000000000000000000000000000000008116911684612165565b6009546117f0906001600160a01b037f00000000000000000000000000000000000000000000000000000000000000008116911683612165565b80826117fc8588612de1565b6118069190612de1565b6118109190612de1565b93505050505b600080546040516370a0823160e01b81526001600160a01b0391821660048201527f0000000000000000000000000000000000000000000000000000000000000000909116906370a0823190602401602060405180830381865afa158015611882573d6000803e3d6000fd5b505050506040513d601f19601f820116820180604052508101906118a69190612df4565b6000805460408051630240bc6b60e21b815281519495509293849384936001600160a01b031692630902f1ac926004808401938290030181865afa1580156118f2573d6000803e3d6000fd5b505050506040513d601f19601f820116820180604052508101906119169190612e20565b9150915060008211801561192a5750600081115b15611954576119398583612e0d565b6119438287612dca565b61194d9190612e44565b9250611958565b8492505b683635c9adc5dea0000061196c8185612e0d565b851015611abd576000856119808387612e0d565b61198a9190612de1565b6040516370a0823160e01b81523060048201529091506000906001600160a01b037f000000000000000000000000000000000000000000000000000000000000000016906370a0823190602401602060405180830381865afa1580156119f4573d6000803e3d6000fd5b505050506040513d601f19601f82011682018060405250810190611a189190612df4565b9050818110611aba57600054611a5b906001600160a01b037f0000000000000000000000000000000000000000000000000000000000000000811691168461219f565b60005460405163362ce52b60e01b8152600481018490526001600160a01b039091169063362ce52b90602401600060405180830381600087803b158015611aa157600080fd5b505af1158015611ab5573d6000803e3d6000fd5b505050505b50505b5050600054611afd93506001600160a01b037f0000000000000000000000000000000000000000000000000000000000000000811693501690508361219f565b6000805460405163066102ad60e11b8152600481018490526001600160a01b0390911690630cc2055a906024016020604051808303816000875af1158015611b49573d6000803e3d6000fd5b505050506040513d601f19601f82011682018060405250810190611b6d9190612df4565b90506000611b7a84612731565b90506000611b8785612784565b90506000611b96600387612dca565b336000818152600a602090815260408083208151610100810183528c81528084018a81528184018a815242606084018181526080850191825260a0850189815260c086018c8152600160e0880181815289548083018b55998d528b8d2098516008909a0290980198895595519588019590955592516002870155516003860155516004850155516005840155516006830155516007909101805460ff1916911515919091179055928252600b905290812080549293508892909190611c5c908490612e0d565b9091555050336000908152600b60205260408120600101805491611c7f83612e7c565b919050555085600c6000828254611c969190612e0d565b90915550506002546001600160a01b031615611d0a5760025460405163095ce44b60e21b81523360048201526001600160a01b0390911690632573912c90602401600060405180830381600087803b158015611cf157600080fd5b505af1158015611d05573d6000803e3d6000fd5b505050505b6003546001600160a01b031615801590611d2e57506002546001600160a01b031615155b15611d3d57611d3d33876128a1565b336000818152600a60205260409020547fe3b53cd1a44fbf11535e145d80b8ef1ed6d57a73bf5daa7e939b6b01657d654990889086908690611d8190600190612de1565b60408051948552602085019390935291830152606082015260800160405180910390a25050505050610d3e6001600080516020612eb383398151915255565b611dc8611fac565b611dd533826127106121f3565b610d3e6001600080516020612eb383398151915255565b6001600160a01b0382166000908152600a60205260408120548190819081908510611e2257506000925082915081905080611ece565b6001600160a01b0386166000908152600a60205260408120805487908110611e4c57611e4c612e66565b60009182526020909120600890910201600781015490915060ff161580611e845750620d2f008160030154611e819190612e0d565b42115b15611e9d57600080600080945094509450945050611ece565b8054945060009350612710611eb46103e887612dca565b611ebe9190612e44565b9250611eca8386612de1565b9150505b92959194509250565b6001600160a01b0381166000908152600b60205260408120548103611efe57506000919050565b6001600160a01b0382166000908152600b602052604090205461110c90612731565b6001600160a01b0382166000908152600a60205260408120548210611f475750600061110c565b6001600160a01b0383166000908152600a60205260408120805484908110611f7157611f71612e66565b60009182526020909120600890910201600781015490915060ff16611f9a57600091505061110c565b611fa48482612069565b949350505050565b611fb46129da565b6002600080516020612eb383398151915255565b6001600160a01b0382166000908152600a6020526040812054821061200057604051635972996f60e11b815260040160405180910390fd5b6001600160a01b0383166000908152600a6020526040812080548490811061202a5761202a612e66565b60009182526020909120600890910201600781015490915060ff16612062576040516305a2e88560e21b815260040160405180910390fd5b9392505050565b600781015460009060ff166120805750600061110c565b60008260040154426120929190612de1565b9050806000036120a657600091505061110c565b60006120b58460000154612784565b90506276a7006120e57f000000000000000000000000000000000000000000000000000000000000000042612de1565b106120ee5750602d5b6120fd61271062015180612dca565b8454839061210c908490612dca565b6121169190612dca565b6121209190612e44565b92506000846005015485600601541161213a57600061214e565b8460050154856006015461214e9190612de1565b90508084111561215c578093505b50505092915050565b6121728383836001612a0c565b6112f957604051635274afe760e01b81526001600160a01b03841660048201526024015b60405180910390fd5b6121ac8383836000612a72565b6112f9576121be838360006001612a72565b6121e657604051635274afe760e01b81526001600160a01b0384166004820152602401612196565b6121728383836001612a72565b806127101415801561220757508061138814155b80156122155750806109c414155b1561223357604051635c1d07cb60e01b815260040160405180910390fd5b600061223f8484611fc8565b9050620d2f0081600301546122549190612e0d565b4211156122745760405163693ed15b60e11b815260040160405180910390fd5b805460006127106122858584612dca565b61228f9190612e44565b905060006127106122a26103e884612dca565b6122ac9190612e44565b905060006122ba8284612de1565b905085612710036122d65760078501805460ff19169055612303565b828560000160008282546122ea9190612de1565b909155505084546122fd90600390612dca565b60068601555b6001600160a01b0388166000908152600b60205260408120805485929061232b908490612de1565b9250508190555082600d60008282546123449190612e0d565b90915550506002546001600160a01b0316156123ba5760025460405163095ce44b60e21b81526001600160a01b038a8116600483015290911690632573912c90602401600060405180830381600087803b1580156123a157600080fd5b505af11580156123b5573d6000803e3d6000fd5b505050505b8015612698576040516370a0823160e01b81523060048201526000907f00000000000000000000000000000000000000000000000000000000000000006001600160a01b0316906370a0823190602401602060405180830381865afa158015612427573d6000803e3d6000fd5b505050506040513d601f19601f8201168201806040525081019061244b9190612df4565b905081811061248d576124886001600160a01b037f0000000000000000000000000000000000000000000000000000000000000000168a84612165565b612696565b80156124d4576124c76001600160a01b037f0000000000000000000000000000000000000000000000000000000000000000168a83612165565b6124d18183612de1565b91505b600080546040516311ea9fa960e21b8152600481018590526001600160a01b03909116906347aa7ea490602401602060405180830381865afa15801561251e573d6000803e3d6000fd5b505050506040513d601f19601f820116820180604052508101906125429190612df4565b90506000811180156125dc57506040516370a0823160e01b815230600482015281907f00000000000000000000000000000000000000000000000000000000000000006001600160a01b0316906370a0823190602401602060405180830381865afa1580156125b5573d6000803e3d6000fd5b505050506040513d601f19601f820116820180604052508101906125d99190612df4565b10155b156126945760005461261b906001600160a01b037f0000000000000000000000000000000000000000000000000000000000000000811691168361219f565b60005460405163f843e64160e01b8152600481018390526001600160a01b038c811660248301529091169063f843e641906044016020604051808303816000875af115801561266e573d6000803e3d6000fd5b505050506040513d601f19601f820116820180604052508101906126929190612df4565b505b505b505b60408051828152602081018490526000818301526060810189905290516001600160a01b038a16917f4ade67ef7e7c5e4d9c50de61a4e8c555be92c9b37e3ca6716eb02a1f0e471da5919081900360800190a25050505050505050565b612703848484846001612abf565b61272b57604051635274afe760e01b81526001600160a01b0385166004820152602401612196565b50505050565b600069010f0cf064dd59200000821061274c57506004919050565b68878678326eac900000821061276457506003919050565b681b1ae4d6e2ef500000821061277c57506002919050565b506001919050565b6000806127b17f000000000000000000000000000000000000000000000000000000000000000042612de1565b90506276a70081106127c65750602d92915050565b60006127d184612731565b9050806001036127fb57611fa484678ac7230489e80000681b0d04202f47ec000060326064612b31565b8060020361282457611fa484681b1ae4d6e2ef500000688778977bbb052c0000604b6073612b31565b8060030361284e57611fa48468878678326eac90000069010eff0fae29b1bc000060646096612b31565b6000690a968163f0a57b40000085116128675784612873565b690a968163f0a57b4000005b90506128988169010f0cf064dd59200000690a968163f0a57b400000606460af612b31565b95945050505050565b6002546001600160a01b031615806128c257506003546001600160a01b0316155b156128cb575050565b8160005b601481101561272b57600254604051634a9fefc760e01b81526001600160a01b0384811660048301526000921690634a9fefc790602401602060405180830381865afa158015612923573d6000803e3d6000fd5b505050506040513d601f19601f820116820180604052508101906129479190612e95565b90506001600160a01b03811661295d575061272b565b60035460405163d9bd5f2d60e01b81526001600160a01b0383811660048301528581166024830152604482018790529091169063d9bd5f2d90606401600060405180830381600087803b1580156129b357600080fd5b505af11580156129c7573d6000803e3d6000fd5b5092945050600190920191506128cf9050565b600080516020612eb383398151915254600203612a0a57604051633ee5aeb560e01b815260040160405180910390fd5b565b60405163a9059cbb60e01b60008181526001600160a01b038616600452602485905291602083604481808b5af192506001600051148316612a66578383151615612a59573d6000823e3d81fd5b6000873b113d1516831692505b60405250949350505050565b60405163095ea7b360e01b60008181526001600160a01b038616600452602485905291602083604481808b5af192506001600051148316612a66578383151615612a59573d6000823e3d81fd5b6040516323b872dd60e01b60008181526001600160a01b038781166004528616602452604485905291602083606481808c5af192506001600051148316612b1f578383151615612b12573d6000823e3d81fd5b6000883b113d1516831692505b60405250600060605295945050505050565b6000848411612b41575081612898565b6000612b4d8484612de1565b90506000612b5b8787612de1565b90508082612b69898b612de1565b612b739190612dca565b612b7d9190612e44565b612b879086612e0d565b98975050505050505050565b6001600160a01b0381168114610d3e57600080fd5b60008060408385031215612bbb57600080fd5b8235612bc681612b93565b946020939093013593505050565b600060208284031215612be657600080fd5b5035919050565b600060208284031215612bff57600080fd5b813561206281612b93565b600060208284031215612c1c57600080fd5b8135801515811461206257600080fd5b600080600060608486031215612c4157600080fd5b8335612c4c81612b93565b92506020840135612c5c81612b93565b91506040840135612c6c81612b93565b809150509250925092565b600080600080600060a08688031215612c8f57600080fd5b8535612c9a81612b93565b94506020860135612caa81612b93565b93506040860135612cba81612b93565b92506060860135612cca81612b93565b91506080860135612cda81612b93565b809150509295509295909350565b60008060208385031215612cfb57600080fd5b823567ffffffffffffffff80821115612d1357600080fd5b818501915085601f830112612d2757600080fd5b813581811115612d3657600080fd5b8660208260081b8501011115612d4b57600080fd5b60209290920196919550909350505050565b60008060408385031215612d7057600080fd5b50508035926020909101359150565b600080600060608486031215612d9457600080fd5b8335612d9f81612b93565b95602085013595506040909401359392505050565b634e487b7160e01b600052601160045260246000fd5b808202811582820484141761110c5761110c612db4565b8181038181111561110c5761110c612db4565b600060208284031215612e0657600080fd5b5051919050565b8082018082111561110c5761110c612db4565b60008060408385031215612e3357600080fd5b505080516020909101519092909150565b600082612e6157634e487b7160e01b600052601260045260246000fd5b500490565b634e487b7160e01b600052603260045260246000fd5b600060018201612e8e57612e8e612db4565b5060010190565b600060208284031215612ea757600080fd5b815161206281612b9356fe9b779b17422d0df92223018b32b4d1fa46e071723d6817e2486d003becc55f00a2646970667358221220eaf1892d4f75ac1b4bdead25547f7c60dfcda7ae1b5a0dfaaa9d573dfde0d7eb64736f6c63430008180033","opcodes":"PUSH1 0xE0 PUSH1 0x40 MSTORE PUSH8 0xDE0B6B3A7640000 PUSH1 0x6 SSTORE CALLVALUE DUP1 ISZERO PUSH3 0x1D JUMPI PUSH1 0x0 DUP1 REVERT JUMPDEST POP PUSH1 0x40 MLOAD PUSH3 0x30EA CODESIZE SUB DUP1 PUSH3 0x30EA DUP4 CODECOPY DUP2 ADD PUSH1 0x40 DUP2 SWAP1 MSTORE PUSH3 0x40 SWAP2 PUSH3 0xEC JUMP JUMPDEST PUSH1 0x1 PUSH32 0x9B779B17422D0DF92223018B32B4D1FA46E071723D6817E2486D003BECC55F00 SSTORE PUSH1 0x1 PUSH1 0x1 PUSH1 0xA0 SHL SUB DUP4 AND ISZERO DUP1 PUSH3 0x82 JUMPI POP PUSH1 0x1 PUSH1 0x1 PUSH1 0xA0 SHL SUB DUP3 AND ISZERO JUMPDEST ISZERO PUSH3 0xA1 JUMPI PUSH1 0x40 MLOAD PUSH4 0xD92E233D PUSH1 0xE0 SHL DUP2 MSTORE PUSH1 0x4 ADD PUSH1 0x40 MLOAD DUP1 SWAP2 SUB SWAP1 REVERT JUMPDEST PUSH1 0x1 PUSH1 0x1 PUSH1 0xA0 SHL SUB SWAP3 DUP4 AND PUSH1 0x80 MSTORE SWAP2 AND PUSH1 0xA0 MSTORE PUSH1 0xC0 MSTORE PUSH1 0x4 DUP1 SLOAD PUSH1 0x1 PUSH1 0x1 PUSH1 0xA0 SHL SUB NOT AND CALLER OR SWAP1 SSTORE PUSH3 0x12D JUMP JUMPDEST DUP1 MLOAD PUSH1 0x1 PUSH1 0x1 PUSH1 0xA0 SHL SUB DUP2 AND DUP2 EQ PUSH3 0xE7 JUMPI PUSH1 0x0 DUP1 REVERT JUMPDEST SWAP2 SWAP1 POP JUMP JUMPDEST PUSH1 0x0 DUP1 PUSH1 0x0 PUSH1 0x60 DUP5 DUP7 SUB SLT ISZERO PUSH3 0x102 JUMPI PUSH1 0x0 DUP1 REVERT JUMPDEST PUSH3 0x10D DUP5 PUSH3 0xCF JUMP JUMPDEST SWAP3 POP PUSH3 0x11D PUSH1 0x20 DUP6 ADD PUSH3 0xCF JUMP JUMPDEST SWAP2 POP PUSH1 0x40 DUP5 ADD MLOAD SWAP1 POP SWAP3 POP SWAP3 POP SWAP3 JUMP JUMPDEST PUSH1 0x80 MLOAD PUSH1 0xA0 MLOAD PUSH1 0xC0 MLOAD PUSH2 0x2F08 PUSH3 0x1E2 PUSH1 0x0 CODECOPY PUSH1 0x0 DUP2 DUP2 PUSH2 0x461 ADD MSTORE DUP2 DUP2 PUSH2 0x20C0 ADD MSTORE PUSH2 0x278C ADD MSTORE PUSH1 0x0 DUP2 DUP2 PUSH2 0x38B ADD MSTORE DUP2 DUP2 PUSH2 0x8A4 ADD MSTORE DUP2 DUP2 PUSH2 0x9DE ADD MSTORE DUP2 DUP2 PUSH2 0xB6D ADD MSTORE DUP2 DUP2 PUSH2 0xBF9 ADD MSTORE DUP2 DUP2 PUSH2 0x1839 ADD MSTORE DUP2 DUP2 PUSH2 0x19AD ADD MSTORE DUP2 DUP2 PUSH2 0x1A32 ADD MSTORE DUP2 DUP2 PUSH2 0x2566 ADD MSTORE PUSH2 0x25F2 ADD MSTORE PUSH1 0x0 DUP2 DUP2 PUSH2 0x3B2 ADD MSTORE DUP2 DUP2 PUSH2 0x1684 ADD MSTORE DUP2 DUP2 PUSH2 0x1753 ADD MSTORE DUP2 DUP2 PUSH2 0x178D ADD MSTORE DUP2 DUP2 PUSH2 0x17C7 ADD MSTORE DUP2 DUP2 PUSH2 0x1AD1 ADD MSTORE DUP2 DUP2 PUSH2 0x23D8 ADD MSTORE DUP2 DUP2 PUSH2 0x2461 ADD MSTORE PUSH2 0x24A0 ADD MSTORE PUSH2 0x2F08 PUSH1 0x0 RETURN INVALID PUSH1 0x80 PUSH1 0x40 MSTORE CALLVALUE DUP1 ISZERO PUSH2 0x10 JUMPI PUSH1 0x0 DUP1 REVERT JUMPDEST POP PUSH1 0x4 CALLDATASIZE LT PUSH2 0x253 JUMPI PUSH1 0x0 CALLDATALOAD PUSH1 0xE0 SHR DUP1 PUSH4 0x786685E0 GT PUSH2 0x146 JUMPI DUP1 PUSH4 0xB6635BE6 GT PUSH2 0xC3 JUMPI DUP1 PUSH4 0xE4D2620E GT PUSH2 0x87 JUMPI DUP1 PUSH4 0xE4D2620E EQ PUSH2 0x61C JUMPI DUP1 PUSH4 0xE4E7C6B4 EQ PUSH2 0x62F JUMPI DUP1 PUSH4 0xE9A16BD5 EQ PUSH2 0x642 JUMPI DUP1 PUSH4 0xF851A440 EQ PUSH2 0x655 JUMPI DUP1 PUSH4 0xFB75B2C7 EQ PUSH2 0x668 JUMPI DUP1 PUSH4 0xFF50ABDC EQ PUSH2 0x67B JUMPI PUSH1 0x0 DUP1 REVERT JUMPDEST DUP1 PUSH4 0xB6635BE6 EQ PUSH2 0x5BC JUMPI DUP1 PUSH4 0xB6B55F25 EQ PUSH2 0x5D0 JUMPI DUP1 PUSH4 0xB8AF3D3E EQ PUSH2 0x5E3 JUMPI DUP1 PUSH4 0xCEACE7DD EQ PUSH2 0x5F6 JUMPI DUP1 PUSH4 0xD33219B4 EQ PUSH2 0x609 JUMPI PUSH1 0x0 DUP1 REVERT JUMPDEST DUP1 PUSH4 0x9E5914DA GT PUSH2 0x10A JUMPI DUP1 PUSH4 0x9E5914DA EQ PUSH2 0x506 JUMPI DUP1 PUSH4 0xA87430BA EQ PUSH2 0x519 JUMPI DUP1 PUSH4 0xAA9CC818 EQ PUSH2 0x563 JUMPI DUP1 PUSH4 0xAC948E83 EQ PUSH2 0x596 JUMPI DUP1 PUSH4 0xB12CD625 EQ PUSH2 0x5A9 JUMPI PUSH1 0x0 DUP1 REVERT JUMPDEST DUP1 PUSH4 0x786685E0 EQ PUSH2 0x4B2 JUMPI DUP1 PUSH4 0x84B273F6 EQ PUSH2 0x4C5 JUMPI DUP1 PUSH4 0x8565C2BF EQ PUSH2 0x4D8 JUMPI DUP1 PUSH4 0x8AEA8F71 EQ PUSH2 0x4EB JUMPI DUP1 PUSH4 0x8FB1BB50 EQ PUSH2 0x4F3 JUMPI PUSH1 0x0 DUP1 REVERT JUMPDEST DUP1 PUSH4 0x3695DAD1 GT PUSH2 0x1D4 JUMPI DUP1 PUSH4 0x61D027B3 GT PUSH2 0x198 JUMPI DUP1 PUSH4 0x61D027B3 EQ PUSH2 0x449 JUMPI DUP1 PUSH4 0x65CF7C9B EQ PUSH2 0x45C JUMPI DUP1 PUSH4 0x6B9F7AB6 EQ PUSH2 0x483 JUMPI DUP1 PUSH4 0x74958E35 EQ PUSH2 0x496 JUMPI DUP1 PUSH4 0x760FCB3E EQ PUSH2 0x49F JUMPI PUSH1 0x0 DUP1 REVERT JUMPDEST DUP1 PUSH4 0x3695DAD1 EQ PUSH2 0x3D4 JUMPI DUP1 PUSH4 0x3A6F2DCD EQ PUSH2 0x3DD JUMPI DUP1 PUSH4 0x4B319713 EQ PUSH2 0x409 JUMPI DUP1 PUSH4 0x51637BA9 EQ PUSH2 0x412 JUMPI DUP1 PUSH4 0x60DA3E83 EQ PUSH2 0x425 JUMPI PUSH1 0x0 DUP1 REVERT JUMPDEST DUP1 PUSH4 0x1C481E2D GT PUSH2 0x21B JUMPI DUP1 PUSH4 0x1C481E2D EQ PUSH2 0x34D JUMPI DUP1 PUSH4 0x1D687F0C EQ PUSH2 0x360 JUMPI DUP1 PUSH4 0x1EC32D15 EQ PUSH2 0x373 JUMPI DUP1 PUSH4 0x2ACFBCA3 EQ PUSH2 0x386 JUMPI DUP1 PUSH4 0x2F48AB7D EQ PUSH2 0x3AD JUMPI PUSH1 0x0 DUP1 REVERT JUMPDEST DUP1 PUSH4 0x8F43333 EQ PUSH2 0x258 JUMPI DUP1 PUSH4 0x962EF79 EQ PUSH2 0x2AD JUMPI DUP1 PUSH4 0x13FCAF54 EQ PUSH2 0x2C2 JUMPI DUP1 PUSH4 0x142A3DA3 EQ PUSH2 0x2F9 JUMPI DUP1 PUSH4 0x1441A5A9 EQ PUSH2 0x322 JUMPI JUMPDEST PUSH1 0x0 DUP1 REVERT JUMPDEST PUSH2 0x26B PUSH2 0x266 CALLDATASIZE PUSH1 0x4 PUSH2 0x2BA8 JUMP JUMPDEST PUSH2 0x684 JUMP JUMPDEST PUSH1 0x40 DUP1 MLOAD SWAP9 DUP10 MSTORE PUSH1 0x20 DUP10 ADD SWAP8 SWAP1 SWAP8 MSTORE SWAP6 DUP8 ADD SWAP5 SWAP1 SWAP5 MSTORE PUSH1 0x60 DUP7 ADD SWAP3 SWAP1 SWAP3 MSTORE PUSH1 0x80 DUP6 ADD MSTORE PUSH1 0xA0 DUP5 ADD MSTORE PUSH1 0xC0 DUP4 ADD MSTORE ISZERO ISZERO PUSH1 0xE0 DUP3 ADD MSTORE PUSH2 0x100 ADD JUMPDEST PUSH1 0x40 MLOAD DUP1 SWAP2 SUB SWAP1 RETURN JUMPDEST PUSH2 0x2C0 PUSH2 0x2BB CALLDATASIZE PUSH1 0x4 PUSH2 0x2BD4 JUMP JUMPDEST PUSH2 0x6E9 JUMP JUMPDEST STOP JUMPDEST PUSH2 0x2EB PUSH2 0x2D0 CALLDATASIZE PUSH1 0x4 PUSH2 0x2BED JUMP JUMPDEST PUSH1 0x1 PUSH1 0x1 PUSH1 0xA0 SHL SUB AND PUSH1 0x0 SWAP1 DUP2 MSTORE PUSH1 0xA PUSH1 0x20 MSTORE PUSH1 0x40 SWAP1 KECCAK256 SLOAD SWAP1 JUMP JUMPDEST PUSH1 0x40 MLOAD SWAP1 DUP2 MSTORE PUSH1 0x20 ADD PUSH2 0x2A4 JUMP JUMPDEST PUSH2 0x2EB PUSH2 0x307 CALLDATASIZE PUSH1 0x4 PUSH2 0x2BED JUMP JUMPDEST PUSH1 0x1 PUSH1 0x1 PUSH1 0xA0 SHL SUB AND PUSH1 0x0 SWAP1 DUP2 MSTORE PUSH1 0xB PUSH1 0x20 MSTORE PUSH1 0x40 SWAP1 KECCAK256 SLOAD SWAP1 JUMP JUMPDEST PUSH1 0x2 SLOAD PUSH2 0x335 SWAP1 PUSH1 0x1 PUSH1 0x1 PUSH1 0xA0 SHL SUB AND DUP2 JUMP JUMPDEST PUSH1 0x40 MLOAD PUSH1 0x1 PUSH1 0x1 PUSH1 0xA0 SHL SUB SWAP1 SWAP2 AND DUP2 MSTORE PUSH1 0x20 ADD PUSH2 0x2A4 JUMP JUMPDEST PUSH2 0x2C0 PUSH2 0x35B CALLDATASIZE PUSH1 0x4 PUSH2 0x2C0A JUMP JUMPDEST PUSH2 0xD41 JUMP JUMPDEST PUSH2 0x2C0 PUSH2 0x36E CALLDATASIZE PUSH1 0x4 PUSH2 0x2C2C JUMP JUMPDEST PUSH2 0xDC4 JUMP JUMPDEST PUSH1 0x8 SLOAD PUSH2 0x335 SWAP1 PUSH1 0x1 PUSH1 0x1 PUSH1 0xA0 SHL SUB AND DUP2 JUMP JUMPDEST PUSH2 0x335 PUSH32 0x0 DUP2 JUMP JUMPDEST PUSH2 0x335 PUSH32 0x0 DUP2 JUMP JUMPDEST PUSH2 0x2EB PUSH1 0x6 SLOAD DUP2 JUMP JUMPDEST PUSH2 0x2EB PUSH2 0x3EB CALLDATASIZE PUSH1 0x4 PUSH2 0x2BED JUMP JUMPDEST PUSH1 0x1 PUSH1 0x1 PUSH1 0xA0 SHL SUB AND PUSH1 0x0 SWAP1 DUP2 MSTORE PUSH1 0xB PUSH1 0x20 MSTORE PUSH1 0x40 SWAP1 KECCAK256 PUSH1 0x2 ADD SLOAD SWAP1 JUMP JUMPDEST PUSH2 0x2EB PUSH1 0xD SLOAD DUP2 JUMP JUMPDEST PUSH2 0x2C0 PUSH2 0x420 CALLDATASIZE PUSH1 0x4 PUSH2 0x2BD4 JUMP JUMPDEST PUSH2 0xEBD JUMP JUMPDEST PUSH1 0x5 SLOAD PUSH2 0x439 SWAP1 PUSH1 0x1 PUSH1 0xA8 SHL SWAP1 DIV PUSH1 0xFF AND DUP2 JUMP JUMPDEST PUSH1 0x40 MLOAD SWAP1 ISZERO ISZERO DUP2 MSTORE PUSH1 0x20 ADD PUSH2 0x2A4 JUMP JUMPDEST PUSH1 0x1 SLOAD PUSH2 0x335 SWAP1 PUSH1 0x1 PUSH1 0x1 PUSH1 0xA0 SHL SUB AND DUP2 JUMP JUMPDEST PUSH2 0x2EB PUSH32 0x0 DUP2 JUMP JUMPDEST PUSH2 0x2C0 PUSH2 0x491 CALLDATASIZE PUSH1 0x4 PUSH2 0x2BA8 JUMP JUMPDEST PUSH2 0xEED JUMP JUMPDEST PUSH2 0x2EB PUSH1 0xE SLOAD DUP2 JUMP JUMPDEST PUSH2 0x2C0 PUSH2 0x4AD CALLDATASIZE PUSH1 0x4 PUSH2 0x2C77 JUMP JUMPDEST PUSH2 0xF9C JUMP JUMPDEST PUSH2 0x439 PUSH2 0x4C0 CALLDATASIZE PUSH1 0x4 PUSH2 0x2BA8 JUMP JUMPDEST PUSH2 0x1078 JUMP JUMPDEST PUSH2 0x2C0 PUSH2 0x4D3 CALLDATASIZE PUSH1 0x4 PUSH2 0x2CE8 JUMP JUMPDEST PUSH2 0x1112 JUMP JUMPDEST PUSH1 0x0 SLOAD PUSH2 0x335 SWAP1 PUSH1 0x1 PUSH1 0x1 PUSH1 0xA0 SHL SUB AND DUP2 JUMP JUMPDEST PUSH2 0x2C0 PUSH2 0x12FE JUMP JUMPDEST PUSH2 0x2C0 PUSH2 0x501 CALLDATASIZE PUSH1 0x4 PUSH2 0x2D5D JUMP JUMPDEST PUSH2 0x13A2 JUMP JUMPDEST PUSH2 0x2C0 PUSH2 0x514 CALLDATASIZE PUSH1 0x4 PUSH2 0x2BED JUMP JUMPDEST PUSH2 0x13D0 JUMP JUMPDEST PUSH2 0x548 PUSH2 0x527 CALLDATASIZE PUSH1 0x4 PUSH2 0x2BED JUMP JUMPDEST PUSH1 0xB PUSH1 0x20 MSTORE PUSH1 0x0 SWAP1 DUP2 MSTORE PUSH1 0x40 SWAP1 KECCAK256 DUP1 SLOAD PUSH1 0x1 DUP3 ADD SLOAD PUSH1 0x2 SWAP1 SWAP3 ADD SLOAD SWAP1 SWAP2 SWAP1 DUP4 JUMP JUMPDEST PUSH1 0x40 DUP1 MLOAD SWAP4 DUP5 MSTORE PUSH1 0x20 DUP5 ADD SWAP3 SWAP1 SWAP3 MSTORE SWAP1 DUP3 ADD MSTORE PUSH1 0x60 ADD PUSH2 0x2A4 JUMP JUMPDEST PUSH2 0x576 PUSH2 0x571 CALLDATASIZE PUSH1 0x4 PUSH2 0x2D7F JUMP JUMPDEST PUSH2 0x1457 JUMP JUMPDEST PUSH1 0x40 DUP1 MLOAD SWAP5 DUP6 MSTORE PUSH1 0x20 DUP6 ADD SWAP4 SWAP1 SWAP4 MSTORE SWAP2 DUP4 ADD MSTORE PUSH1 0x60 DUP3 ADD MSTORE PUSH1 0x80 ADD PUSH2 0x2A4 JUMP JUMPDEST PUSH2 0x2C0 PUSH2 0x5A4 CALLDATASIZE PUSH1 0x4 PUSH2 0x2BA8 JUMP JUMPDEST PUSH2 0x159D JUMP JUMPDEST PUSH1 0x9 SLOAD PUSH2 0x335 SWAP1 PUSH1 0x1 PUSH1 0x1 PUSH1 0xA0 SHL SUB AND DUP2 JUMP JUMPDEST PUSH1 0x5 SLOAD PUSH2 0x439 SWAP1 PUSH1 0x1 PUSH1 0xA0 SHL SWAP1 DIV PUSH1 0xFF AND DUP2 JUMP JUMPDEST PUSH2 0x2C0 PUSH2 0x5DE CALLDATASIZE PUSH1 0x4 PUSH2 0x2BD4 JUMP JUMPDEST PUSH2 0x15C8 JUMP JUMPDEST PUSH2 0x2C0 PUSH2 0x5F1 CALLDATASIZE PUSH1 0x4 PUSH2 0x2BD4 JUMP JUMPDEST PUSH2 0x1DC0 JUMP JUMPDEST PUSH2 0x576 PUSH2 0x604 CALLDATASIZE PUSH1 0x4 PUSH2 0x2BA8 JUMP JUMPDEST PUSH2 0x1DEC JUMP JUMPDEST PUSH1 0x5 SLOAD PUSH2 0x335 SWAP1 PUSH1 0x1 PUSH1 0x1 PUSH1 0xA0 SHL SUB AND DUP2 JUMP JUMPDEST PUSH2 0x2EB PUSH2 0x62A CALLDATASIZE PUSH1 0x4 PUSH2 0x2BED JUMP JUMPDEST PUSH2 0x1ED7 JUMP JUMPDEST PUSH2 0x2EB PUSH2 0x63D CALLDATASIZE PUSH1 0x4 PUSH2 0x2BA8 JUMP JUMPDEST PUSH2 0x1F20 JUMP JUMPDEST PUSH1 0x3 SLOAD PUSH2 0x335 SWAP1 PUSH1 0x1 PUSH1 0x1 PUSH1 0xA0 SHL SUB AND DUP2 JUMP JUMPDEST PUSH1 0x4 SLOAD PUSH2 0x335 SWAP1 PUSH1 0x1 PUSH1 0x1 PUSH1 0xA0 SHL SUB AND DUP2 JUMP JUMPDEST PUSH1 0x7 SLOAD PUSH2 0x335 SWAP1 PUSH1 0x1 PUSH1 0x1 PUSH1 0xA0 SHL SUB AND DUP2 JUMP JUMPDEST PUSH2 0x2EB PUSH1 0xC SLOAD DUP2 JUMP JUMPDEST PUSH1 0xA PUSH1 0x20 MSTORE DUP2 PUSH1 0x0 MSTORE PUSH1 0x40 PUSH1 0x0 KECCAK256 DUP2 DUP2 SLOAD DUP2 LT PUSH2 0x6A0 JUMPI PUSH1 0x0 DUP1 REVERT JUMPDEST PUSH1 0x0 SWAP2 DUP3 MSTORE PUSH1 0x20 SWAP1 SWAP2 KECCAK256 PUSH1 0x8 SWAP1 SWAP2 MUL ADD DUP1 SLOAD PUSH1 0x1 DUP3 ADD SLOAD PUSH1 0x2 DUP4 ADD SLOAD PUSH1 0x3 DUP5 ADD SLOAD PUSH1 0x4 DUP6 ADD SLOAD PUSH1 0x5 DUP7 ADD SLOAD PUSH1 0x6 DUP8 ADD SLOAD PUSH1 0x7 SWAP1 SWAP8 ADD SLOAD SWAP6 SWAP9 POP SWAP4 SWAP7 POP SWAP2 SWAP5 SWAP1 SWAP4 SWAP2 SWAP3 SWAP2 PUSH1 0xFF AND DUP9 JUMP JUMPDEST PUSH2 0x6F1 PUSH2 0x1FAC JUMP JUMPDEST PUSH1 0x0 PUSH2 0x6FD CALLER DUP4 PUSH2 0x1FC8 JUMP JUMPDEST SWAP1 POP PUSH1 0x0 PUSH2 0x70B CALLER DUP4 PUSH2 0x2069 JUMP JUMPDEST SWAP1 POP DUP1 PUSH1 0x0 SUB PUSH2 0x72E JUMPI PUSH1 0x40 MLOAD PUSH4 0x12D37EE5 PUSH1 0xE3 SHL DUP2 MSTORE PUSH1 0x4 ADD PUSH1 0x40 MLOAD DUP1 SWAP2 SUB SWAP1 REVERT JUMPDEST PUSH1 0x6 SLOAD DUP2 LT ISZERO PUSH2 0x751 JUMPI PUSH1 0x40 MLOAD PUSH4 0x7E3F2B7D PUSH1 0xE0 SHL DUP2 MSTORE PUSH1 0x4 ADD PUSH1 0x40 MLOAD DUP1 SWAP2 SUB SWAP1 REVERT JUMPDEST DUP2 SLOAD PUSH1 0x0 SWAP1 PUSH2 0x762 SWAP1 PUSH1 0x3 SWAP1 PUSH2 0x2DCA JUMP JUMPDEST CALLER PUSH1 0x0 SWAP1 DUP2 MSTORE PUSH1 0xB PUSH1 0x20 MSTORE PUSH1 0x40 DUP2 KECCAK256 PUSH1 0x2 DUP2 ADD SLOAD SWAP3 SWAP4 POP SWAP2 DUP4 GT PUSH2 0x787 JUMPI PUSH1 0x0 PUSH2 0x796 JUMP JUMPDEST PUSH1 0x2 DUP3 ADD SLOAD PUSH2 0x796 SWAP1 DUP5 PUSH2 0x2DE1 JUMP JUMPDEST SWAP1 POP DUP1 PUSH1 0x0 SUB PUSH2 0x7F0 JUMPI PUSH1 0x7 DUP6 ADD DUP1 SLOAD PUSH1 0xFF NOT AND SWAP1 SSTORE PUSH1 0x40 MLOAD CALLER SWAP1 PUSH32 0xFA1EB7BA4F65747C7C8882031EB92D63B6FCB684B75052185312FBE1A488D943 SWAP1 PUSH1 0x0 SWAP1 LOG2 PUSH1 0x40 MLOAD PUSH4 0x5A2E885 PUSH1 0xE2 SHL DUP2 MSTORE PUSH1 0x4 ADD PUSH1 0x40 MLOAD DUP1 SWAP2 SUB SWAP1 REVERT JUMPDEST DUP1 DUP5 GT ISZERO PUSH2 0x7FC JUMPI DUP1 SWAP4 POP JUMPDEST PUSH1 0x0 DUP1 SLOAD PUSH1 0x40 MLOAD PUSH4 0x11EA9FA9 PUSH1 0xE2 SHL DUP2 MSTORE PUSH1 0x4 DUP2 ADD DUP8 SWAP1 MSTORE PUSH1 0x1 PUSH1 0x1 PUSH1 0xA0 SHL SUB SWAP1 SWAP2 AND SWAP1 PUSH4 0x47AA7EA4 SWAP1 PUSH1 0x24 ADD PUSH1 0x20 PUSH1 0x40 MLOAD DUP1 DUP4 SUB DUP2 DUP7 GAS STATICCALL ISZERO DUP1 ISZERO PUSH2 0x846 JUMPI RETURNDATASIZE PUSH1 0x0 DUP1 RETURNDATACOPY RETURNDATASIZE PUSH1 0x0 REVERT JUMPDEST POP POP POP POP PUSH1 0x40 MLOAD RETURNDATASIZE PUSH1 0x1F NOT PUSH1 0x1F DUP3 ADD AND DUP3 ADD DUP1 PUSH1 0x40 MSTORE POP DUP2 ADD SWAP1 PUSH2 0x86A SWAP2 SWAP1 PUSH2 0x2DF4 JUMP JUMPDEST SWAP1 POP DUP1 PUSH1 0x0 SUB PUSH2 0x88D JUMPI PUSH1 0x40 MLOAD PUSH4 0xCC884657 PUSH1 0xE0 SHL DUP2 MSTORE PUSH1 0x4 ADD PUSH1 0x40 MLOAD DUP1 SWAP2 SUB SWAP1 REVERT JUMPDEST PUSH1 0x40 MLOAD PUSH4 0x70A08231 PUSH1 0xE0 SHL DUP2 MSTORE ADDRESS PUSH1 0x4 DUP3 ADD MSTORE DUP2 SWAP1 PUSH32 0x0 PUSH1 0x1 PUSH1 0x1 PUSH1 0xA0 SHL SUB AND SWAP1 PUSH4 0x70A08231 SWAP1 PUSH1 0x24 ADD PUSH1 0x20 PUSH1 0x40 MLOAD DUP1 DUP4 SUB DUP2 DUP7 GAS STATICCALL ISZERO DUP1 ISZERO PUSH2 0x8F3 JUMPI RETURNDATASIZE PUSH1 0x0 DUP1 RETURNDATACOPY RETURNDATASIZE PUSH1 0x0 REVERT JUMPDEST POP POP POP POP PUSH1 0x40 MLOAD RETURNDATASIZE PUSH1 0x1F NOT PUSH1 0x1F DUP3 ADD AND DUP3 ADD DUP1 PUSH1 0x40 MSTORE POP DUP2 ADD SWAP1 PUSH2 0x917 SWAP2 SWAP1 PUSH2 0x2DF4 JUMP JUMPDEST LT ISZERO PUSH2 0x936 JUMPI PUSH1 0x40 MLOAD PUSH4 0x75E4645 PUSH1 0xE0 SHL DUP2 MSTORE PUSH1 0x4 ADD PUSH1 0x40 MLOAD DUP1 SWAP2 SUB SWAP1 REVERT JUMPDEST DUP5 DUP7 PUSH1 0x5 ADD PUSH1 0x0 DUP3 DUP3 SLOAD PUSH2 0x94A SWAP2 SWAP1 PUSH2 0x2E0D JUMP JUMPDEST SWAP1 SWAP2 SSTORE POP POP TIMESTAMP PUSH1 0x4 DUP8 ADD SSTORE PUSH1 0x2 DUP4 ADD DUP1 SLOAD DUP7 SWAP2 SWAP1 PUSH1 0x0 SWAP1 PUSH2 0x96C SWAP1 DUP5 SWAP1 PUSH2 0x2E0D JUMP JUMPDEST SWAP3 POP POP DUP2 SWAP1 SSTORE POP DUP5 PUSH1 0xE PUSH1 0x0 DUP3 DUP3 SLOAD PUSH2 0x985 SWAP2 SWAP1 PUSH2 0x2E0D JUMP JUMPDEST SWAP1 SWAP2 SSTORE POP POP PUSH1 0x6 DUP7 ADD SLOAD PUSH1 0x5 DUP8 ADD SLOAD LT PUSH2 0x9D1 JUMPI PUSH1 0x7 DUP7 ADD DUP1 SLOAD PUSH1 0xFF NOT AND SWAP1 SSTORE PUSH1 0x40 MLOAD CALLER SWAP1 PUSH32 0xFA1EB7BA4F65747C7C8882031EB92D63B6FCB684B75052185312FBE1A488D943 SWAP1 PUSH1 0x0 SWAP1 LOG2 JUMPDEST PUSH2 0xA05 PUSH1 0x1 PUSH1 0x1 PUSH1 0xA0 SHL SUB PUSH32 0x0 AND CALLER DUP4 PUSH2 0x2165 JUMP JUMPDEST PUSH1 0x2 SLOAD PUSH1 0x1 PUSH1 0x1 PUSH1 0xA0 SHL SUB AND ISZERO PUSH2 0xCA4 JUMPI DUP5 ISZERO PUSH2 0xCA4 JUMPI PUSH1 0x2 SLOAD PUSH1 0x40 MLOAD PUSH4 0x8000D991 PUSH1 0xE0 SHL DUP2 MSTORE CALLER PUSH1 0x4 DUP3 ADD MSTORE PUSH1 0x24 DUP2 ADD DUP8 SWAP1 MSTORE PUSH1 0x0 SWAP2 PUSH1 0x1 PUSH1 0x1 PUSH1 0xA0 SHL SUB AND SWAP1 PUSH4 0x8000D991 SWAP1 PUSH1 0x44 ADD PUSH1 0x20 PUSH1 0x40 MLOAD DUP1 DUP4 SUB DUP2 PUSH1 0x0 DUP8 GAS CALL ISZERO DUP1 ISZERO PUSH2 0xA6E JUMPI RETURNDATASIZE PUSH1 0x0 DUP1 RETURNDATACOPY RETURNDATASIZE PUSH1 0x0 REVERT JUMPDEST POP POP POP POP PUSH1 0x40 MLOAD RETURNDATASIZE PUSH1 0x1F NOT PUSH1 0x1F DUP3 ADD AND DUP3 ADD DUP1 PUSH1 0x40 MSTORE POP DUP2 ADD SWAP1 PUSH2 0xA92 SWAP2 SWAP1 PUSH2 0x2DF4 JUMP JUMPDEST SWAP1 POP DUP1 ISZERO PUSH2 0xCA2 JUMPI PUSH1 0x0 DUP1 SLOAD PUSH1 0x40 DUP1 MLOAD PUSH4 0x240BC6B PUSH1 0xE2 SHL DUP2 MSTORE DUP2 MLOAD DUP5 SWAP4 PUSH1 0x1 PUSH1 0x1 PUSH1 0xA0 SHL SUB AND SWAP3 PUSH4 0x902F1AC SWAP3 PUSH1 0x4 DUP1 DUP3 ADD SWAP4 SWAP2 DUP3 SWAP1 SUB ADD DUP2 DUP7 GAS STATICCALL ISZERO DUP1 ISZERO PUSH2 0xAE0 JUMPI RETURNDATASIZE PUSH1 0x0 DUP1 RETURNDATACOPY RETURNDATASIZE PUSH1 0x0 REVERT JUMPDEST POP POP POP POP PUSH1 0x40 MLOAD RETURNDATASIZE PUSH1 0x1F NOT PUSH1 0x1F DUP3 ADD AND DUP3 ADD DUP1 PUSH1 0x40 MSTORE POP DUP2 ADD SWAP1 PUSH2 0xB04 SWAP2 SWAP1 PUSH2 0x2E20 JUMP JUMPDEST SWAP2 POP SWAP2 POP DUP3 DUP3 GT DUP1 ISZERO PUSH2 0xB17 JUMPI POP PUSH1 0x0 DUP2 GT JUMPDEST ISZERO PUSH2 0xC9F JUMPI PUSH1 0x0 PUSH2 0xB28 DUP5 DUP5 PUSH2 0x2DE1 JUMP JUMPDEST PUSH2 0xB32 DUP4 DUP7 PUSH2 0x2DCA JUMP JUMPDEST PUSH2 0xB3C SWAP2 SWAP1 PUSH2 0x2E44 JUMP JUMPDEST SWAP1 POP PUSH2 0xB49 DUP2 PUSH1 0x1 PUSH2 0x2E0D JUMP JUMPDEST SWAP1 POP PUSH1 0x0 DUP2 GT DUP1 ISZERO PUSH2 0xBE3 JUMPI POP PUSH1 0x40 MLOAD PUSH4 0x70A08231 PUSH1 0xE0 SHL DUP2 MSTORE ADDRESS PUSH1 0x4 DUP3 ADD MSTORE DUP2 SWAP1 PUSH32 0x0 PUSH1 0x1 PUSH1 0x1 PUSH1 0xA0 SHL SUB AND SWAP1 PUSH4 0x70A08231 SWAP1 PUSH1 0x24 ADD PUSH1 0x20 PUSH1 0x40 MLOAD DUP1 DUP4 SUB DUP2 DUP7 GAS STATICCALL ISZERO DUP1 ISZERO PUSH2 0xBBC JUMPI RETURNDATASIZE PUSH1 0x0 DUP1 RETURNDATACOPY RETURNDATASIZE PUSH1 0x0 REVERT JUMPDEST POP POP POP POP PUSH1 0x40 MLOAD RETURNDATASIZE PUSH1 0x1F NOT PUSH1 0x1F DUP3 ADD AND DUP3 ADD DUP1 PUSH1 0x40 MSTORE POP DUP2 ADD SWAP1 PUSH2 0xBE0 SWAP2 SWAP1 PUSH2 0x2DF4 JUMP JUMPDEST LT ISZERO JUMPDEST ISZERO PUSH2 0xC9D JUMPI PUSH1 0x0 SLOAD PUSH2 0xC22 SWAP1 PUSH1 0x1 PUSH1 0x1 PUSH1 0xA0 SHL SUB PUSH32 0x0 DUP2 AND SWAP2 AND DUP4 PUSH2 0x219F JUMP JUMPDEST PUSH1 0x0 SLOAD PUSH1 0x2 SLOAD PUSH1 0x40 MLOAD PUSH4 0xF843E641 PUSH1 0xE0 SHL DUP2 MSTORE PUSH1 0x4 DUP2 ADD DUP5 SWAP1 MSTORE PUSH1 0x1 PUSH1 0x1 PUSH1 0xA0 SHL SUB SWAP2 DUP3 AND PUSH1 0x24 DUP3 ADD MSTORE SWAP2 AND SWAP1 PUSH4 0xF843E641 SWAP1 PUSH1 0x44 ADD PUSH1 0x20 PUSH1 0x40 MLOAD DUP1 DUP4 SUB DUP2 PUSH1 0x0 DUP8 GAS CALL ISZERO DUP1 ISZERO PUSH2 0xC77 JUMPI RETURNDATASIZE PUSH1 0x0 DUP1 RETURNDATACOPY RETURNDATASIZE PUSH1 0x0 REVERT JUMPDEST POP POP POP POP PUSH1 0x40 MLOAD RETURNDATASIZE PUSH1 0x1F NOT PUSH1 0x1F DUP3 ADD AND DUP3 ADD DUP1 PUSH1 0x40 MSTORE POP DUP2 ADD SWAP1 PUSH2 0xC9B SWAP2 SWAP1 PUSH2 0x2DF4 JUMP JUMPDEST POP JUMPDEST POP JUMPDEST POP POP JUMPDEST POP JUMPDEST PUSH1 0x40 DUP1 MLOAD DUP7 DUP2 MSTORE PUSH1 0x20 DUP2 ADD DUP4 SWAP1 MSTORE SWAP1 DUP2 ADD DUP9 SWAP1 MSTORE CALLER SWAP1 PUSH32 0x56253D287EFACDB2C4CD76DD03624A4821C1CE721D1152E8F5F5718F6087C9BF SWAP1 PUSH1 0x60 ADD PUSH1 0x40 MLOAD DUP1 SWAP2 SUB SWAP1 LOG2 PUSH1 0x2 DUP4 ADD SLOAD PUSH1 0x40 MLOAD SWAP1 DUP2 MSTORE CALLER SWAP1 PUSH32 0xDAD0E43AFDD45DACA2566E861FF76F0250960D86947518722C83B1E03F45EDD5 SWAP1 PUSH1 0x20 ADD PUSH1 0x40 MLOAD DUP1 SWAP2 SUB SWAP1 LOG2 POP POP POP POP POP POP PUSH2 0xD3E PUSH1 0x1 PUSH1 0x0 DUP1 MLOAD PUSH1 0x20 PUSH2 0x2EB3 DUP4 CODECOPY DUP2 MLOAD SWAP2 MSTORE SSTORE JUMP JUMPDEST POP JUMP JUMPDEST PUSH1 0x5 SLOAD PUSH1 0x1 PUSH1 0x1 PUSH1 0xA0 SHL SUB AND CALLER EQ PUSH2 0xD6C JUMPI PUSH1 0x40 MLOAD PUSH4 0xE05F485 PUSH1 0xE1 SHL DUP2 MSTORE PUSH1 0x4 ADD PUSH1 0x40 MLOAD DUP1 SWAP2 SUB SWAP1 REVERT JUMPDEST PUSH1 0x5 DUP1 SLOAD DUP3 ISZERO ISZERO PUSH1 0x1 PUSH1 0xA8 SHL MUL PUSH1 0xFF PUSH1 0xA8 SHL NOT SWAP1 SWAP2 AND OR SWAP1 SSTORE PUSH1 0x40 MLOAD PUSH32 0x5EF34F53269A04B5B817E5BE24A51BA6B477118B399EC9DD5B2BAF5B299563DC SWAP1 PUSH2 0xDB9 SWAP1 DUP4 ISZERO ISZERO DUP2 MSTORE PUSH1 0x20 ADD SWAP1 JUMP JUMPDEST PUSH1 0x40 MLOAD DUP1 SWAP2 SUB SWAP1 LOG1 POP JUMP JUMPDEST PUSH1 0x5 SLOAD PUSH1 0x1 PUSH1 0xA0 SHL SWAP1 DIV PUSH1 0xFF AND ISZERO PUSH2 0xE06 JUMPI PUSH1 0x5 SLOAD PUSH1 0x1 PUSH1 0x1 PUSH1 0xA0 SHL SUB AND CALLER EQ PUSH2 0xE01 JUMPI PUSH1 0x40 MLOAD PUSH4 0xE05F485 PUSH1 0xE1 SHL DUP2 MSTORE PUSH1 0x4 ADD PUSH1 0x40 MLOAD DUP1 SWAP2 SUB SWAP1 REVERT JUMPDEST PUSH2 0xE31 JUMP JUMPDEST PUSH1 0x4 SLOAD PUSH1 0x1 PUSH1 0x1 PUSH1 0xA0 SHL SUB AND CALLER EQ PUSH2 0xE31 JUMPI PUSH1 0x40 MLOAD PUSH4 0x47556579 PUSH1 0xE0 SHL DUP2 MSTORE PUSH1 0x4 ADD PUSH1 0x40 MLOAD DUP1 SWAP2 SUB SWAP1 REVERT JUMPDEST PUSH1 0x1 PUSH1 0x1 PUSH1 0xA0 SHL SUB DUP4 AND ISZERO DUP1 PUSH2 0xE4E JUMPI POP PUSH1 0x1 PUSH1 0x1 PUSH1 0xA0 SHL SUB DUP3 AND ISZERO JUMPDEST DUP1 PUSH2 0xE60 JUMPI POP PUSH1 0x1 PUSH1 0x1 PUSH1 0xA0 SHL SUB DUP2 AND ISZERO JUMPDEST ISZERO PUSH2 0xE7E JUMPI PUSH1 0x40 MLOAD PUSH4 0xD92E233D PUSH1 0xE0 SHL DUP2 MSTORE PUSH1 0x4 ADD PUSH1 0x40 MLOAD DUP1 SWAP2 SUB SWAP1 REVERT JUMPDEST PUSH1 0x7 DUP1 SLOAD PUSH1 0x1 PUSH1 0x1 PUSH1 0xA0 SHL SUB SWAP5 DUP6 AND PUSH1 0x1 PUSH1 0x1 PUSH1 0xA0 SHL SUB NOT SWAP2 DUP3 AND OR SWAP1 SWAP2 SSTORE PUSH1 0x8 DUP1 SLOAD SWAP4 DUP6 AND SWAP4 DUP3 AND SWAP4 SWAP1 SWAP4 OR SWAP1 SWAP3 SSTORE PUSH1 0x9 DUP1 SLOAD SWAP2 SWAP1 SWAP4 AND SWAP2 AND OR SWAP1 SSTORE JUMP JUMPDEST PUSH1 0x5 SLOAD PUSH1 0x1 PUSH1 0x1 PUSH1 0xA0 SHL SUB AND CALLER EQ PUSH2 0xEE8 JUMPI PUSH1 0x40 MLOAD PUSH4 0xE05F485 PUSH1 0xE1 SHL DUP2 MSTORE PUSH1 0x4 ADD PUSH1 0x40 MLOAD DUP1 SWAP2 SUB SWAP1 REVERT JUMPDEST PUSH1 0x6 SSTORE JUMP JUMPDEST PUSH1 0x2 SLOAD PUSH1 0x1 PUSH1 0x1 PUSH1 0xA0 SHL SUB AND CALLER EQ PUSH2 0xF18 JUMPI PUSH1 0x40 MLOAD PUSH4 0x3864B1E5 PUSH1 0xE2 SHL DUP2 MSTORE PUSH1 0x4 ADD PUSH1 0x40 MLOAD DUP1 SWAP2 SUB SWAP1 REVERT JUMPDEST PUSH1 0x1 PUSH1 0x1 PUSH1 0xA0 SHL SUB DUP3 AND PUSH1 0x0 SWAP1 DUP2 MSTORE PUSH1 0xB PUSH1 0x20 MSTORE PUSH1 0x40 DUP2 KECCAK256 PUSH1 0x2 ADD DUP1 SLOAD DUP4 SWAP3 SWAP1 PUSH2 0xF43 SWAP1 DUP5 SWAP1 PUSH2 0x2E0D JUMP JUMPDEST SWAP1 SWAP2 SSTORE POP POP PUSH1 0x1 PUSH1 0x1 PUSH1 0xA0 SHL SUB DUP3 AND PUSH1 0x0 DUP2 DUP2 MSTORE PUSH1 0xB PUSH1 0x20 SWAP1 DUP2 MSTORE PUSH1 0x40 SWAP2 DUP3 SWAP1 KECCAK256 PUSH1 0x2 ADD SLOAD SWAP2 MLOAD SWAP2 DUP3 MSTORE PUSH32 0xDAD0E43AFDD45DACA2566E861FF76F0250960D86947518722C83B1E03F45EDD5 SWAP2 ADD PUSH1 0x40 MLOAD DUP1 SWAP2 SUB SWAP1 LOG2 POP POP JUMP JUMPDEST PUSH1 0x4 SLOAD PUSH1 0x1 PUSH1 0x1 PUSH1 0xA0 SHL SUB AND CALLER EQ PUSH2 0xFC7 JUMPI PUSH1 0x40 MLOAD PUSH4 0x47556579 PUSH1 0xE0 SHL DUP2 MSTORE PUSH1 0x4 ADD PUSH1 0x40 MLOAD DUP1 SWAP2 SUB SWAP1 REVERT JUMPDEST PUSH1 0x5 SLOAD PUSH1 0x1 PUSH1 0xA0 SHL SWAP1 DIV PUSH1 0xFF AND ISZERO PUSH2 0xFF2 JUMPI PUSH1 0x40 MLOAD PUSH4 0x238F75D3 PUSH1 0xE0 SHL DUP2 MSTORE PUSH1 0x4 ADD PUSH1 0x40 MLOAD DUP1 SWAP2 SUB SWAP1 REVERT JUMPDEST PUSH1 0x1 PUSH1 0x1 PUSH1 0xA0 SHL SUB DUP3 AND PUSH2 0x1019 JUMPI PUSH1 0x40 MLOAD PUSH4 0xD92E233D PUSH1 0xE0 SHL DUP2 MSTORE PUSH1 0x4 ADD PUSH1 0x40 MLOAD DUP1 SWAP2 SUB SWAP1 REVERT JUMPDEST PUSH1 0x1 DUP1 SLOAD PUSH1 0x1 PUSH1 0x1 PUSH1 0xA0 SHL SUB NOT SWAP1 DUP2 AND PUSH1 0x1 PUSH1 0x1 PUSH1 0xA0 SHL SUB SWAP8 DUP9 AND OR SWAP1 SWAP2 SSTORE PUSH1 0x2 DUP1 SLOAD DUP3 AND SWAP6 DUP8 AND SWAP6 SWAP1 SWAP6 OR SWAP1 SWAP5 SSTORE PUSH1 0x3 DUP1 SLOAD DUP6 AND SWAP4 DUP7 AND SWAP4 SWAP1 SWAP4 OR SWAP1 SWAP3 SSTORE PUSH1 0x0 DUP1 SLOAD DUP5 AND SWAP2 DUP6 AND SWAP2 SWAP1 SWAP2 OR SWAP1 SSTORE PUSH1 0x5 DUP1 SLOAD SWAP1 SWAP3 AND SWAP3 AND SWAP2 SWAP1 SWAP2 OR SWAP1 SSTORE JUMP JUMPDEST PUSH1 0x1 PUSH1 0x1 PUSH1 0xA0 SHL SUB DUP3 AND PUSH1 0x0 SWAP1 DUP2 MSTORE PUSH1 0xA PUSH1 0x20 MSTORE PUSH1 0x40 DUP2 KECCAK256 SLOAD DUP3 LT PUSH2 0x109F JUMPI POP PUSH1 0x0 PUSH2 0x110C JUMP JUMPDEST PUSH1 0x1 PUSH1 0x1 PUSH1 0xA0 SHL SUB DUP4 AND PUSH1 0x0 SWAP1 DUP2 MSTORE PUSH1 0xA PUSH1 0x20 MSTORE PUSH1 0x40 DUP2 KECCAK256 DUP1 SLOAD DUP5 SWAP1 DUP2 LT PUSH2 0x10C9 JUMPI PUSH2 0x10C9 PUSH2 0x2E66 JUMP JUMPDEST PUSH1 0x0 SWAP2 DUP3 MSTORE PUSH1 0x20 SWAP1 SWAP2 KECCAK256 PUSH1 0x8 SWAP1 SWAP2 MUL ADD PUSH1 0x7 DUP2 ADD SLOAD SWAP1 SWAP2 POP PUSH1 0xFF AND PUSH2 0x10F2 JUMPI PUSH1 0x0 SWAP2 POP POP PUSH2 0x110C JUMP JUMPDEST PUSH3 0xD2F00 DUP2 PUSH1 0x3 ADD SLOAD PUSH2 0x1105 SWAP2 SWAP1 PUSH2 0x2E0D JUMP JUMPDEST TIMESTAMP GT ISZERO SWAP2 POP POP JUMPDEST SWAP3 SWAP2 POP POP JUMP JUMPDEST PUSH1 0x4 SLOAD PUSH1 0x1 PUSH1 0x1 PUSH1 0xA0 SHL SUB AND CALLER EQ PUSH2 0x113D JUMPI PUSH1 0x40 MLOAD PUSH4 0x47556579 PUSH1 0xE0 SHL DUP2 MSTORE PUSH1 0x4 ADD PUSH1 0x40 MLOAD DUP1 SWAP2 SUB SWAP1 REVERT JUMPDEST PUSH1 0x0 JUMPDEST DUP2 DUP2 LT ISZERO PUSH2 0x12F9 JUMPI CALLDATASIZE DUP4 DUP4 DUP4 DUP2 DUP2 LT PUSH2 0x115B JUMPI PUSH2 0x115B PUSH2 0x2E66 JUMP JUMPDEST PUSH2 0x100 MUL SWAP2 SWAP1 SWAP2 ADD SWAP2 POP PUSH1 0xA SWAP1 POP PUSH1 0x0 PUSH2 0x1178 PUSH1 0x20 DUP5 ADD DUP5 PUSH2 0x2BED JUMP JUMPDEST PUSH1 0x1 PUSH1 0x1 PUSH1 0xA0 SHL SUB AND DUP2 MSTORE PUSH1 0x20 DUP1 DUP3 ADD SWAP3 SWAP1 SWAP3 MSTORE PUSH1 0x40 SWAP1 DUP2 ADD PUSH1 0x0 SWAP1 DUP2 KECCAK256 DUP3 MLOAD PUSH2 0x100 DUP2 ADD DUP5 MSTORE DUP6 DUP6 ADD DUP1 CALLDATALOAD DUP1 DUP4 MSTORE DUP8 DUP7 ADD CALLDATALOAD DUP4 DUP9 ADD SWAP1 DUP2 MSTORE PUSH1 0x60 DUP1 DUP11 ADD CALLDATALOAD SWAP8 DUP6 ADD SWAP8 DUP9 MSTORE PUSH1 0x80 DUP1 DUP12 ADD CALLDATALOAD SWAP2 DUP7 ADD SWAP2 DUP3 MSTORE PUSH1 0xA0 DUP1 DUP13 ADD CALLDATALOAD SWAP2 DUP8 ADD SWAP2 DUP3 MSTORE PUSH1 0xC0 DUP1 DUP14 ADD CALLDATALOAD SWAP2 DUP9 ADD SWAP2 DUP3 MSTORE PUSH1 0xE0 DUP1 DUP15 ADD CALLDATALOAD SWAP2 DUP10 ADD SWAP2 DUP3 MSTORE PUSH1 0x1 SWAP1 DUP10 ADD DUP2 DUP2 MSTORE DUP11 SLOAD DUP1 DUP4 ADD DUP13 SSTORE SWAP11 DUP13 MSTORE SWAP13 DUP12 KECCAK256 SWAP9 MLOAD PUSH1 0x8 SWAP1 SWAP11 MUL SWAP1 SWAP9 ADD SWAP9 DUP10 SSTORE SWAP4 MLOAD SWAP7 DUP9 ADD SWAP7 SWAP1 SWAP7 SSTORE SWAP8 MLOAD PUSH1 0x2 DUP8 ADD SSTORE MLOAD PUSH1 0x3 DUP7 ADD SSTORE SWAP6 MLOAD PUSH1 0x4 DUP6 ADD SSTORE SWAP2 MLOAD PUSH1 0x5 DUP5 ADD SSTORE SWAP4 MLOAD PUSH1 0x6 DUP4 ADD SSTORE SWAP4 MLOAD PUSH1 0x7 SWAP1 SWAP2 ADD DUP1 SLOAD PUSH1 0xFF NOT AND SWAP2 ISZERO ISZERO SWAP2 SWAP1 SWAP2 OR SWAP1 SSTORE PUSH1 0xB SWAP2 PUSH2 0x125D SWAP1 DUP6 PUSH2 0x2BED JUMP JUMPDEST PUSH1 0x1 PUSH1 0x1 PUSH1 0xA0 SHL SUB AND PUSH1 0x1 PUSH1 0x1 PUSH1 0xA0 SHL SUB AND DUP2 MSTORE PUSH1 0x20 ADD SWAP1 DUP2 MSTORE PUSH1 0x20 ADD PUSH1 0x0 KECCAK256 PUSH1 0x0 ADD PUSH1 0x0 DUP3 DUP3 SLOAD PUSH2 0x128F SWAP2 SWAP1 PUSH2 0x2E0D JUMP JUMPDEST SWAP1 SWAP2 SSTORE POP PUSH1 0xB SWAP1 POP PUSH1 0x0 PUSH2 0x12A6 PUSH1 0x20 DUP5 ADD DUP5 PUSH2 0x2BED JUMP JUMPDEST PUSH1 0x1 PUSH1 0x1 PUSH1 0xA0 SHL SUB AND DUP2 MSTORE PUSH1 0x20 DUP2 ADD SWAP2 SWAP1 SWAP2 MSTORE PUSH1 0x40 ADD PUSH1 0x0 SWAP1 DUP2 KECCAK256 PUSH1 0x1 ADD DUP1 SLOAD SWAP2 PUSH2 0x12D0 DUP4 PUSH2 0x2E7C JUMP JUMPDEST SWAP2 SWAP1 POP SSTORE POP DUP1 PUSH1 0x20 ADD CALLDATALOAD PUSH1 0xC PUSH1 0x0 DUP3 DUP3 SLOAD PUSH2 0x12EB SWAP2 SWAP1 PUSH2 0x2E0D JUMP JUMPDEST SWAP1 SWAP2 SSTORE POP POP POP PUSH1 0x1 ADD PUSH2 0x1140 JUMP JUMPDEST POP POP POP JUMP JUMPDEST PUSH1 0x4 SLOAD PUSH1 0x1 PUSH1 0x1 PUSH1 0xA0 SHL SUB AND CALLER EQ PUSH2 0x1329 JUMPI PUSH1 0x40 MLOAD PUSH4 0x47556579 PUSH1 0xE0 SHL DUP2 MSTORE PUSH1 0x4 ADD PUSH1 0x40 MLOAD DUP1 SWAP2 SUB SWAP1 REVERT JUMPDEST PUSH1 0x5 SLOAD PUSH1 0x1 PUSH1 0xA0 SHL SWAP1 DIV PUSH1 0xFF AND ISZERO PUSH2 0x1354 JUMPI PUSH1 0x40 MLOAD PUSH4 0x238F75D3 PUSH1 0xE0 SHL DUP2 MSTORE PUSH1 0x4 ADD PUSH1 0x40 MLOAD DUP1 SWAP2 SUB SWAP1 REVERT JUMPDEST PUSH1 0x1 SLOAD PUSH1 0x1 PUSH1 0x1 PUSH1 0xA0 SHL SUB AND PUSH2 0x137D JUMPI PUSH1 0x40 MLOAD PUSH4 0xD311BC39 PUSH1 0xE0 SHL DUP2 MSTORE PUSH1 0x4 ADD PUSH1 0x40 MLOAD DUP1 SWAP2 SUB SWAP1 REVERT JUMPDEST PUSH1 0x5 DUP1 SLOAD PUSH1 0xFF PUSH1 0xA0 SHL NOT AND PUSH1 0x1 PUSH1 0xA0 SHL OR SWAP1 SSTORE PUSH1 0x4 DUP1 SLOAD PUSH1 0x1 PUSH1 0x1 PUSH1 0xA0 SHL SUB NOT AND SWAP1 SSTORE JUMP JUMPDEST PUSH2 0x13AA PUSH2 0x1FAC JUMP JUMPDEST PUSH2 0x13B5 CALLER DUP4 DUP4 PUSH2 0x21F3 JUMP JUMPDEST PUSH2 0x13CC PUSH1 0x1 PUSH1 0x0 DUP1 MLOAD PUSH1 0x20 PUSH2 0x2EB3 DUP4 CODECOPY DUP2 MLOAD SWAP2 MSTORE SSTORE JUMP JUMPDEST POP POP JUMP JUMPDEST PUSH1 0x5 SLOAD PUSH1 0x1 PUSH1 0x1 PUSH1 0xA0 SHL SUB AND CALLER EQ PUSH2 0x13FB JUMPI PUSH1 0x40 MLOAD PUSH4 0xE05F485 PUSH1 0xE1 SHL DUP2 MSTORE PUSH1 0x4 ADD PUSH1 0x40 MLOAD DUP1 SWAP2 SUB SWAP1 REVERT JUMPDEST PUSH1 0x2 SLOAD PUSH1 0x40 MLOAD PUSH1 0x1 PUSH1 0x1 PUSH1 0xA0 SHL SUB DUP1 DUP5 AND SWAP3 AND SWAP1 PUSH32 0xEEFE1CE2782E4BA3BBCCD79617FAE74979FA22005F22F7075C0910CD51C8FFD9 SWAP1 PUSH1 0x0 SWAP1 LOG3 PUSH1 0x2 DUP1 SLOAD PUSH1 0x1 PUSH1 0x1 PUSH1 0xA0 SHL SUB NOT AND PUSH1 0x1 PUSH1 0x1 PUSH1 0xA0 SHL SUB SWAP3 SWAP1 SWAP3 AND SWAP2 SWAP1 SWAP2 OR SWAP1 SSTORE JUMP JUMPDEST PUSH1 0x1 PUSH1 0x1 PUSH1 0xA0 SHL SUB DUP4 AND PUSH1 0x0 SWAP1 DUP2 MSTORE PUSH1 0xA PUSH1 0x20 MSTORE PUSH1 0x40 DUP2 KECCAK256 SLOAD DUP2 SWAP1 DUP2 SWAP1 DUP2 SWAP1 DUP7 LT PUSH2 0x148D JUMPI POP PUSH1 0x0 SWAP3 POP DUP3 SWAP2 POP DUP2 SWAP1 POP DUP1 PUSH2 0x1594 JUMP JUMPDEST PUSH1 0x1 PUSH1 0x1 PUSH1 0xA0 SHL SUB DUP8 AND PUSH1 0x0 SWAP1 DUP2 MSTORE PUSH1 0xA PUSH1 0x20 MSTORE PUSH1 0x40 DUP2 KECCAK256 DUP1 SLOAD DUP9 SWAP1 DUP2 LT PUSH2 0x14B7 JUMPI PUSH2 0x14B7 PUSH2 0x2E66 JUMP JUMPDEST PUSH1 0x0 SWAP2 DUP3 MSTORE PUSH1 0x20 SWAP1 SWAP2 KECCAK256 PUSH1 0x8 SWAP1 SWAP2 MUL ADD PUSH1 0x7 DUP2 ADD SLOAD SWAP1 SWAP2 POP PUSH1 0xFF AND ISZERO DUP1 PUSH2 0x14EF JUMPI POP PUSH3 0xD2F00 DUP2 PUSH1 0x3 ADD SLOAD PUSH2 0x14EC SWAP2 SWAP1 PUSH2 0x2E0D JUMP JUMPDEST TIMESTAMP GT JUMPDEST ISZERO PUSH2 0x1508 JUMPI PUSH1 0x0 DUP1 PUSH1 0x0 DUP1 SWAP5 POP SWAP5 POP SWAP5 POP SWAP5 POP POP PUSH2 0x1594 JUMP JUMPDEST DUP6 PUSH2 0x2710 EQ ISZERO DUP1 ISZERO PUSH2 0x151C JUMPI POP DUP6 PUSH2 0x1388 EQ ISZERO JUMPDEST DUP1 ISZERO PUSH2 0x152A JUMPI POP DUP6 PUSH2 0x9C4 EQ ISZERO JUMPDEST ISZERO PUSH2 0x1543 JUMPI PUSH1 0x0 DUP1 PUSH1 0x0 DUP1 SWAP5 POP SWAP5 POP SWAP5 POP SWAP5 POP POP PUSH2 0x1594 JUMP JUMPDEST DUP1 SLOAD PUSH2 0x2710 PUSH2 0x1552 DUP9 DUP4 PUSH2 0x2DCA JUMP JUMPDEST PUSH2 0x155C SWAP2 SWAP1 PUSH2 0x2E44 JUMP JUMPDEST SWAP6 POP PUSH2 0x2710 PUSH2 0x156D PUSH2 0x3E8 DUP9 PUSH2 0x2DCA JUMP JUMPDEST PUSH2 0x1577 SWAP2 SWAP1 PUSH2 0x2E44 JUMP JUMPDEST SWAP5 POP PUSH2 0x1583 DUP6 DUP8 PUSH2 0x2DE1 JUMP JUMPDEST SWAP4 POP PUSH2 0x158F DUP7 DUP3 PUSH2 0x2DE1 JUMP JUMPDEST SWAP3 POP POP POP JUMPDEST SWAP4 POP SWAP4 POP SWAP4 POP SWAP4 JUMP JUMPDEST PUSH1 0x3 SLOAD PUSH1 0x1 PUSH1 0x1 PUSH1 0xA0 SHL SUB AND CALLER EQ PUSH2 0xF18 JUMPI PUSH1 0x40 MLOAD PUSH4 0x33273113 PUSH1 0xE1 SHL DUP2 MSTORE PUSH1 0x4 ADD PUSH1 0x40 MLOAD DUP1 SWAP2 SUB SWAP1 REVERT JUMPDEST PUSH2 0x15D0 PUSH2 0x1FAC JUMP JUMPDEST PUSH1 0x5 SLOAD PUSH1 0x1 PUSH1 0xA8 SHL SWAP1 DIV PUSH1 0xFF AND ISZERO PUSH2 0x15FA JUMPI PUSH1 0x40 MLOAD PUSH3 0x7CFE7F PUSH1 0xE3 SHL DUP2 MSTORE PUSH1 0x4 ADD PUSH1 0x40 MLOAD DUP1 SWAP2 SUB SWAP1 REVERT JUMPDEST PUSH8 0x8AC7230489E80000 DUP2 LT ISZERO PUSH2 0x1623 JUMPI PUSH1 0x40 MLOAD PUSH4 0x2B7786BD PUSH1 0xE2 SHL DUP2 MSTORE PUSH1 0x4 ADD PUSH1 0x40 MLOAD DUP1 SWAP2 SUB SWAP1 REVERT JUMPDEST PUSH10 0x10F0CF064DD59200000 DUP2 GT ISZERO PUSH2 0x164E JUMPI PUSH1 0x40 MLOAD PUSH4 0xC066E1E9 PUSH1 0xE0 SHL DUP2 MSTORE PUSH1 0x4 ADD PUSH1 0x40 MLOAD DUP1 SWAP2 SUB SWAP1 REVERT JUMPDEST PUSH1 0x0 SLOAD PUSH1 0x1 PUSH1 0x1 PUSH1 0xA0 SHL SUB AND PUSH2 0x1677 JUMPI PUSH1 0x40 MLOAD PUSH4 0xD311BC39 PUSH1 0xE0 SHL DUP2 MSTORE PUSH1 0x4 ADD PUSH1 0x40 MLOAD DUP1 SWAP2 SUB SWAP1 REVERT JUMPDEST PUSH2 0x16AC PUSH1 0x1 PUSH1 0x1 PUSH1 0xA0 SHL SUB PUSH32 0x0 AND CALLER ADDRESS DUP5 PUSH2 0x26F5 JUMP JUMPDEST PUSH1 0x7 SLOAD DUP2 SWAP1 PUSH1 0x1 PUSH1 0x1 PUSH1 0xA0 SHL SUB AND ISZERO DUP1 ISZERO SWAP1 PUSH2 0x16D2 JUMPI POP PUSH1 0x8 SLOAD PUSH1 0x1 PUSH1 0x1 PUSH1 0xA0 SHL SUB AND ISZERO ISZERO JUMPDEST DUP1 ISZERO PUSH2 0x16E8 JUMPI POP PUSH1 0x9 SLOAD PUSH1 0x1 PUSH1 0x1 PUSH1 0xA0 SHL SUB AND ISZERO ISZERO JUMPDEST ISZERO PUSH2 0x1816 JUMPI PUSH1 0x0 PUSH2 0x2710 PUSH2 0x16FD PUSH1 0x64 DUP6 PUSH2 0x2DCA JUMP JUMPDEST PUSH2 0x1707 SWAP2 SWAP1 PUSH2 0x2E44 JUMP JUMPDEST SWAP1 POP PUSH1 0x0 PUSH2 0x2710 PUSH2 0x1719 PUSH1 0x32 DUP7 PUSH2 0x2DCA JUMP JUMPDEST PUSH2 0x1723 SWAP2 SWAP1 PUSH2 0x2E44 JUMP JUMPDEST SWAP1 POP PUSH1 0x0 PUSH2 0x2710 PUSH2 0x1735 PUSH1 0x32 DUP8 PUSH2 0x2DCA JUMP JUMPDEST PUSH2 0x173F SWAP2 SWAP1 PUSH2 0x2E44 JUMP JUMPDEST PUSH1 0x7 SLOAD SWAP1 SWAP2 POP PUSH2 0x177C SWAP1 PUSH1 0x1 PUSH1 0x1 PUSH1 0xA0 SHL SUB PUSH32 0x0 DUP2 AND SWAP2 AND DUP6 PUSH2 0x2165 JUMP JUMPDEST PUSH1 0x8 SLOAD PUSH2 0x17B6 SWAP1 PUSH1 0x1 PUSH1 0x1 PUSH1 0xA0 SHL SUB PUSH32 0x0 DUP2 AND SWAP2 AND DUP5 PUSH2 0x2165 JUMP JUMPDEST PUSH1 0x9 SLOAD PUSH2 0x17F0 SWAP1 PUSH1 0x1 PUSH1 0x1 PUSH1 0xA0 SHL SUB PUSH32 0x0 DUP2 AND SWAP2 AND DUP4 PUSH2 0x2165 JUMP JUMPDEST DUP1 DUP3 PUSH2 0x17FC DUP6 DUP9 PUSH2 0x2DE1 JUMP JUMPDEST PUSH2 0x1806 SWAP2 SWAP1 PUSH2 0x2DE1 JUMP JUMPDEST PUSH2 0x1810 SWAP2 SWAP1 PUSH2 0x2DE1 JUMP JUMPDEST SWAP4 POP POP POP POP JUMPDEST PUSH1 0x0 DUP1 SLOAD PUSH1 0x40 MLOAD PUSH4 0x70A08231 PUSH1 0xE0 SHL DUP2 MSTORE PUSH1 0x1 PUSH1 0x1 PUSH1 0xA0 SHL SUB SWAP2 DUP3 AND PUSH1 0x4 DUP3 ADD MSTORE PUSH32 0x0 SWAP1 SWAP2 AND SWAP1 PUSH4 0x70A08231 SWAP1 PUSH1 0x24 ADD PUSH1 0x20 PUSH1 0x40 MLOAD DUP1 DUP4 SUB DUP2 DUP7 GAS STATICCALL ISZERO DUP1 ISZERO PUSH2 0x1882 JUMPI RETURNDATASIZE PUSH1 0x0 DUP1 RETURNDATACOPY RETURNDATASIZE PUSH1 0x0 REVERT JUMPDEST POP POP POP POP PUSH1 0x40 MLOAD RETURNDATASIZE PUSH1 0x1F NOT PUSH1 0x1F DUP3 ADD AND DUP3 ADD DUP1 PUSH1 0x40 MSTORE POP DUP2 ADD SWAP1 PUSH2 0x18A6 SWAP2 SWAP1 PUSH2 0x2DF4 JUMP JUMPDEST PUSH1 0x0 DUP1 SLOAD PUSH1 0x40 DUP1 MLOAD PUSH4 0x240BC6B PUSH1 0xE2 SHL DUP2 MSTORE DUP2 MLOAD SWAP5 SWAP6 POP SWAP3 SWAP4 DUP5 SWAP4 DUP5 SWAP4 PUSH1 0x1 PUSH1 0x1 PUSH1 0xA0 SHL SUB AND SWAP3 PUSH4 0x902F1AC SWAP3 PUSH1 0x4 DUP1 DUP5 ADD SWAP4 DUP3 SWAP1 SUB ADD DUP2 DUP7 GAS STATICCALL ISZERO DUP1 ISZERO PUSH2 0x18F2 JUMPI RETURNDATASIZE PUSH1 0x0 DUP1 RETURNDATACOPY RETURNDATASIZE PUSH1 0x0 REVERT JUMPDEST POP POP POP POP PUSH1 0x40 MLOAD RETURNDATASIZE PUSH1 0x1F NOT PUSH1 0x1F DUP3 ADD AND DUP3 ADD DUP1 PUSH1 0x40 MSTORE POP DUP2 ADD SWAP1 PUSH2 0x1916 SWAP2 SWAP1 PUSH2 0x2E20 JUMP JUMPDEST SWAP2 POP SWAP2 POP PUSH1 0x0 DUP3 GT DUP1 ISZERO PUSH2 0x192A JUMPI POP PUSH1 0x0 DUP2 GT JUMPDEST ISZERO PUSH2 0x1954 JUMPI PUSH2 0x1939 DUP6 DUP4 PUSH2 0x2E0D JUMP JUMPDEST PUSH2 0x1943 DUP3 DUP8 PUSH2 0x2DCA JUMP JUMPDEST PUSH2 0x194D SWAP2 SWAP1 PUSH2 0x2E44 JUMP JUMPDEST SWAP3 POP PUSH2 0x1958 JUMP JUMPDEST DUP5 SWAP3 POP JUMPDEST PUSH9 0x3635C9ADC5DEA00000 PUSH2 0x196C DUP2 DUP6 PUSH2 0x2E0D JUMP JUMPDEST DUP6 LT ISZERO PUSH2 0x1ABD JUMPI PUSH1 0x0 DUP6 PUSH2 0x1980 DUP4 DUP8 PUSH2 0x2E0D JUMP JUMPDEST PUSH2 0x198A SWAP2 SWAP1 PUSH2 0x2DE1 JUMP JUMPDEST PUSH1 0x40 MLOAD PUSH4 0x70A08231 PUSH1 0xE0 SHL DUP2 MSTORE ADDRESS PUSH1 0x4 DUP3 ADD MSTORE SWAP1 SWAP2 POP PUSH1 0x0 SWAP1 PUSH1 0x1 PUSH1 0x1 PUSH1 0xA0 SHL SUB PUSH32 0x0 AND SWAP1 PUSH4 0x70A08231 SWAP1 PUSH1 0x24 ADD PUSH1 0x20 PUSH1 0x40 MLOAD DUP1 DUP4 SUB DUP2 DUP7 GAS STATICCALL ISZERO DUP1 ISZERO PUSH2 0x19F4 JUMPI RETURNDATASIZE PUSH1 0x0 DUP1 RETURNDATACOPY RETURNDATASIZE PUSH1 0x0 REVERT JUMPDEST POP POP POP POP PUSH1 0x40 MLOAD RETURNDATASIZE PUSH1 0x1F NOT PUSH1 0x1F DUP3 ADD AND DUP3 ADD DUP1 PUSH1 0x40 MSTORE POP DUP2 ADD SWAP1 PUSH2 0x1A18 SWAP2 SWAP1 PUSH2 0x2DF4 JUMP JUMPDEST SWAP1 POP DUP2 DUP2 LT PUSH2 0x1ABA JUMPI PUSH1 0x0 SLOAD PUSH2 0x1A5B SWAP1 PUSH1 0x1 PUSH1 0x1 PUSH1 0xA0 SHL SUB PUSH32 0x0 DUP2 AND SWAP2 AND DUP5 PUSH2 0x219F JUMP JUMPDEST PUSH1 0x0 SLOAD PUSH1 0x40 MLOAD PUSH4 0x362CE52B PUSH1 0xE0 SHL DUP2 MSTORE PUSH1 0x4 DUP2 ADD DUP5 SWAP1 MSTORE PUSH1 0x1 PUSH1 0x1 PUSH1 0xA0 SHL SUB SWAP1 SWAP2 AND SWAP1 PUSH4 0x362CE52B SWAP1 PUSH1 0x24 ADD PUSH1 0x0 PUSH1 0x40 MLOAD DUP1 DUP4 SUB DUP2 PUSH1 0x0 DUP8 DUP1 EXTCODESIZE ISZERO DUP1 ISZERO PUSH2 0x1AA1 JUMPI PUSH1 0x0 DUP1 REVERT JUMPDEST POP GAS CALL ISZERO DUP1 ISZERO PUSH2 0x1AB5 JUMPI RETURNDATASIZE PUSH1 0x0 DUP1 RETURNDATACOPY RETURNDATASIZE PUSH1 0x0 REVERT JUMPDEST POP POP POP POP JUMPDEST POP POP JUMPDEST POP POP PUSH1 0x0 SLOAD PUSH2 0x1AFD SWAP4 POP PUSH1 0x1 PUSH1 0x1 PUSH1 0xA0 SHL SUB PUSH32 0x0 DUP2 AND SWAP4 POP AND SWAP1 POP DUP4 PUSH2 0x219F JUMP JUMPDEST PUSH1 0x0 DUP1 SLOAD PUSH1 0x40 MLOAD PUSH4 0x66102AD PUSH1 0xE1 SHL DUP2 MSTORE PUSH1 0x4 DUP2 ADD DUP5 SWAP1 MSTORE PUSH1 0x1 PUSH1 0x1 PUSH1 0xA0 SHL SUB SWAP1 SWAP2 AND SWAP1 PUSH4 0xCC2055A SWAP1 PUSH1 0x24 ADD PUSH1 0x20 PUSH1 0x40 MLOAD DUP1 DUP4 SUB DUP2 PUSH1 0x0 DUP8 GAS CALL ISZERO DUP1 ISZERO PUSH2 0x1B49 JUMPI RETURNDATASIZE PUSH1 0x0 DUP1 RETURNDATACOPY RETURNDATASIZE PUSH1 0x0 REVERT JUMPDEST POP POP POP POP PUSH1 0x40 MLOAD RETURNDATASIZE PUSH1 0x1F NOT PUSH1 0x1F DUP3 ADD AND DUP3 ADD DUP1 PUSH1 0x40 MSTORE POP DUP2 ADD SWAP1 PUSH2 0x1B6D SWAP2 SWAP1 PUSH2 0x2DF4 JUMP JUMPDEST SWAP1 POP PUSH1 0x0 PUSH2 0x1B7A DUP5 PUSH2 0x2731 JUMP JUMPDEST SWAP1 POP PUSH1 0x0 PUSH2 0x1B87 DUP6 PUSH2 0x2784 JUMP JUMPDEST SWAP1 POP PUSH1 0x0 PUSH2 0x1B96 PUSH1 0x3 DUP8 PUSH2 0x2DCA JUMP JUMPDEST CALLER PUSH1 0x0 DUP2 DUP2 MSTORE PUSH1 0xA PUSH1 0x20 SWAP1 DUP2 MSTORE PUSH1 0x40 DUP1 DUP4 KECCAK256 DUP2 MLOAD PUSH2 0x100 DUP2 ADD DUP4 MSTORE DUP13 DUP2 MSTORE DUP1 DUP5 ADD DUP11 DUP2 MSTORE DUP2 DUP5 ADD DUP11 DUP2 MSTORE TIMESTAMP PUSH1 0x60 DUP5 ADD DUP2 DUP2 MSTORE PUSH1 0x80 DUP6 ADD SWAP2 DUP3 MSTORE PUSH1 0xA0 DUP6 ADD DUP10 DUP2 MSTORE PUSH1 0xC0 DUP7 ADD DUP13 DUP2 MSTORE PUSH1 0x1 PUSH1 0xE0 DUP9 ADD DUP2 DUP2 MSTORE DUP10 SLOAD DUP1 DUP4 ADD DUP12 SSTORE SWAP10 DUP14 MSTORE DUP12 DUP14 KECCAK256 SWAP9 MLOAD PUSH1 0x8 SWAP1 SWAP11 MUL SWAP1 SWAP9 ADD SWAP9 DUP10 SSTORE SWAP6 MLOAD SWAP6 DUP9 ADD SWAP6 SWAP1 SWAP6 SSTORE SWAP3 MLOAD PUSH1 0x2 DUP8 ADD SSTORE MLOAD PUSH1 0x3 DUP7 ADD SSTORE MLOAD PUSH1 0x4 DUP6 ADD SSTORE MLOAD PUSH1 0x5 DUP5 ADD SSTORE MLOAD PUSH1 0x6 DUP4 ADD SSTORE MLOAD PUSH1 0x7 SWAP1 SWAP2 ADD DUP1 SLOAD PUSH1 0xFF NOT AND SWAP2 ISZERO ISZERO SWAP2 SWAP1 SWAP2 OR SWAP1 SSTORE SWAP3 DUP3 MSTORE PUSH1 0xB SWAP1 MSTORE SWAP1 DUP2 KECCAK256 DUP1 SLOAD SWAP3 SWAP4 POP DUP9 SWAP3 SWAP1 SWAP2 SWAP1 PUSH2 0x1C5C SWAP1 DUP5 SWAP1 PUSH2 0x2E0D JUMP JUMPDEST SWAP1 SWAP2 SSTORE POP POP CALLER PUSH1 0x0 SWAP1 DUP2 MSTORE PUSH1 0xB PUSH1 0x20 MSTORE PUSH1 0x40 DUP2 KECCAK256 PUSH1 0x1 ADD DUP1 SLOAD SWAP2 PUSH2 0x1C7F DUP4 PUSH2 0x2E7C JUMP JUMPDEST SWAP2 SWAP1 POP SSTORE POP DUP6 PUSH1 0xC PUSH1 0x0 DUP3 DUP3 SLOAD PUSH2 0x1C96 SWAP2 SWAP1 PUSH2 0x2E0D JUMP JUMPDEST SWAP1 SWAP2 SSTORE POP POP PUSH1 0x2 SLOAD PUSH1 0x1 PUSH1 0x1 PUSH1 0xA0 SHL SUB AND ISZERO PUSH2 0x1D0A JUMPI PUSH1 0x2 SLOAD PUSH1 0x40 MLOAD PUSH4 0x95CE44B PUSH1 0xE2 SHL DUP2 MSTORE CALLER PUSH1 0x4 DUP3 ADD MSTORE PUSH1 0x1 PUSH1 0x1 PUSH1 0xA0 SHL SUB SWAP1 SWAP2 AND SWAP1 PUSH4 0x2573912C SWAP1 PUSH1 0x24 ADD PUSH1 0x0 PUSH1 0x40 MLOAD DUP1 DUP4 SUB DUP2 PUSH1 0x0 DUP8 DUP1 EXTCODESIZE ISZERO DUP1 ISZERO PUSH2 0x1CF1 JUMPI PUSH1 0x0 DUP1 REVERT JUMPDEST POP GAS CALL ISZERO DUP1 ISZERO PUSH2 0x1D05 JUMPI RETURNDATASIZE PUSH1 0x0 DUP1 RETURNDATACOPY RETURNDATASIZE PUSH1 0x0 REVERT JUMPDEST POP POP POP POP JUMPDEST PUSH1 0x3 SLOAD PUSH1 0x1 PUSH1 0x1 PUSH1 0xA0 SHL SUB AND ISZERO DUP1 ISZERO SWAP1 PUSH2 0x1D2E JUMPI POP PUSH1 0x2 SLOAD PUSH1 0x1 PUSH1 0x1 PUSH1 0xA0 SHL SUB AND ISZERO ISZERO JUMPDEST ISZERO PUSH2 0x1D3D JUMPI PUSH2 0x1D3D CALLER DUP8 PUSH2 0x28A1 JUMP JUMPDEST CALLER PUSH1 0x0 DUP2 DUP2 MSTORE PUSH1 0xA PUSH1 0x20 MSTORE PUSH1 0x40 SWAP1 KECCAK256 SLOAD PUSH32 0xE3B53CD1A44FBF11535E145D80B8EF1ED6D57A73BF5DAA7E939B6B01657D6549 SWAP1 DUP9 SWAP1 DUP7 SWAP1 DUP7 SWAP1 PUSH2 0x1D81 SWAP1 PUSH1 0x1 SWAP1 PUSH2 0x2DE1 JUMP JUMPDEST PUSH1 0x40 DUP1 MLOAD SWAP5 DUP6 MSTORE PUSH1 0x20 DUP6 ADD SWAP4 SWAP1 SWAP4 MSTORE SWAP2 DUP4 ADD MSTORE PUSH1 0x60 DUP3 ADD MSTORE PUSH1 0x80 ADD PUSH1 0x40 MLOAD DUP1 SWAP2 SUB SWAP1 LOG2 POP POP POP POP POP PUSH2 0xD3E PUSH1 0x1 PUSH1 0x0 DUP1 MLOAD PUSH1 0x20 PUSH2 0x2EB3 DUP4 CODECOPY DUP2 MLOAD SWAP2 MSTORE SSTORE JUMP JUMPDEST PUSH2 0x1DC8 PUSH2 0x1FAC JUMP JUMPDEST PUSH2 0x1DD5 CALLER DUP3 PUSH2 0x2710 PUSH2 0x21F3 JUMP JUMPDEST PUSH2 0xD3E PUSH1 0x1 PUSH1 0x0 DUP1 MLOAD PUSH1 0x20 PUSH2 0x2EB3 DUP4 CODECOPY DUP2 MLOAD SWAP2 MSTORE SSTORE JUMP JUMPDEST PUSH1 0x1 PUSH1 0x1 PUSH1 0xA0 SHL SUB DUP3 AND PUSH1 0x0 SWAP1 DUP2 MSTORE PUSH1 0xA PUSH1 0x20 MSTORE PUSH1 0x40 DUP2 KECCAK256 SLOAD DUP2 SWAP1 DUP2 SWAP1 DUP2 SWAP1 DUP6 LT PUSH2 0x1E22 JUMPI POP PUSH1 0x0 SWAP3 POP DUP3 SWAP2 POP DUP2 SWAP1 POP DUP1 PUSH2 0x1ECE JUMP JUMPDEST PUSH1 0x1 PUSH1 0x1 PUSH1 0xA0 SHL SUB DUP7 AND PUSH1 0x0 SWAP1 DUP2 MSTORE PUSH1 0xA PUSH1 0x20 MSTORE PUSH1 0x40 DUP2 KECCAK256 DUP1 SLOAD DUP8 SWAP1 DUP2 LT PUSH2 0x1E4C JUMPI PUSH2 0x1E4C PUSH2 0x2E66 JUMP JUMPDEST PUSH1 0x0 SWAP2 DUP3 MSTORE PUSH1 0x20 SWAP1 SWAP2 KECCAK256 PUSH1 0x8 SWAP1 SWAP2 MUL ADD PUSH1 0x7 DUP2 ADD SLOAD SWAP1 SWAP2 POP PUSH1 0xFF AND ISZERO DUP1 PUSH2 0x1E84 JUMPI POP PUSH3 0xD2F00 DUP2 PUSH1 0x3 ADD SLOAD PUSH2 0x1E81 SWAP2 SWAP1 PUSH2 0x2E0D JUMP JUMPDEST TIMESTAMP GT JUMPDEST ISZERO PUSH2 0x1E9D JUMPI PUSH1 0x0 DUP1 PUSH1 0x0 DUP1 SWAP5 POP SWAP5 POP SWAP5 POP SWAP5 POP POP PUSH2 0x1ECE JUMP JUMPDEST DUP1 SLOAD SWAP5 POP PUSH1 0x0 SWAP4 POP PUSH2 0x2710 PUSH2 0x1EB4 PUSH2 0x3E8 DUP8 PUSH2 0x2DCA JUMP JUMPDEST PUSH2 0x1EBE SWAP2 SWAP1 PUSH2 0x2E44 JUMP JUMPDEST SWAP3 POP PUSH2 0x1ECA DUP4 DUP7 PUSH2 0x2DE1 JUMP JUMPDEST SWAP2 POP POP JUMPDEST SWAP3 SWAP6 SWAP2 SWAP5 POP SWAP3 POP JUMP JUMPDEST PUSH1 0x1 PUSH1 0x1 PUSH1 0xA0 SHL SUB DUP2 AND PUSH1 0x0 SWAP1 DUP2 MSTORE PUSH1 0xB PUSH1 0x20 MSTORE PUSH1 0x40 DUP2 KECCAK256 SLOAD DUP2 SUB PUSH2 0x1EFE JUMPI POP PUSH1 0x0 SWAP2 SWAP1 POP JUMP JUMPDEST PUSH1 0x1 PUSH1 0x1 PUSH1 0xA0 SHL SUB DUP3 AND PUSH1 0x0 SWAP1 DUP2 MSTORE PUSH1 0xB PUSH1 0x20 MSTORE PUSH1 0x40 SWAP1 KECCAK256 SLOAD PUSH2 0x110C SWAP1 PUSH2 0x2731 JUMP JUMPDEST PUSH1 0x1 PUSH1 0x1 PUSH1 0xA0 SHL SUB DUP3 AND PUSH1 0x0 SWAP1 DUP2 MSTORE PUSH1 0xA PUSH1 0x20 MSTORE PUSH1 0x40 DUP2 KECCAK256 SLOAD DUP3 LT PUSH2 0x1F47 JUMPI POP PUSH1 0x0 PUSH2 0x110C JUMP JUMPDEST PUSH1 0x1 PUSH1 0x1 PUSH1 0xA0 SHL SUB DUP4 AND PUSH1 0x0 SWAP1 DUP2 MSTORE PUSH1 0xA PUSH1 0x20 MSTORE PUSH1 0x40 DUP2 KECCAK256 DUP1 SLOAD DUP5 SWAP1 DUP2 LT PUSH2 0x1F71 JUMPI PUSH2 0x1F71 PUSH2 0x2E66 JUMP JUMPDEST PUSH1 0x0 SWAP2 DUP3 MSTORE PUSH1 0x20 SWAP1 SWAP2 KECCAK256 PUSH1 0x8 SWAP1 SWAP2 MUL ADD PUSH1 0x7 DUP2 ADD SLOAD SWAP1 SWAP2 POP PUSH1 0xFF AND PUSH2 0x1F9A JUMPI PUSH1 0x0 SWAP2 POP POP PUSH2 0x110C JUMP JUMPDEST PUSH2 0x1FA4 DUP5 DUP3 PUSH2 0x2069 JUMP JUMPDEST SWAP5 SWAP4 POP POP POP POP JUMP JUMPDEST PUSH2 0x1FB4 PUSH2 0x29DA JUMP JUMPDEST PUSH1 0x2 PUSH1 0x0 DUP1 MLOAD PUSH1 0x20 PUSH2 0x2EB3 DUP4 CODECOPY DUP2 MLOAD SWAP2 MSTORE SSTORE JUMP JUMPDEST PUSH1 0x1 PUSH1 0x1 PUSH1 0xA0 SHL SUB DUP3 AND PUSH1 0x0 SWAP1 DUP2 MSTORE PUSH1 0xA PUSH1 0x20 MSTORE PUSH1 0x40 DUP2 KECCAK256 SLOAD DUP3 LT PUSH2 0x2000 JUMPI PUSH1 0x40 MLOAD PUSH4 0x5972996F PUSH1 0xE1 SHL DUP2 MSTORE PUSH1 0x4 ADD PUSH1 0x40 MLOAD DUP1 SWAP2 SUB SWAP1 REVERT JUMPDEST PUSH1 0x1 PUSH1 0x1 PUSH1 0xA0 SHL SUB DUP4 AND PUSH1 0x0 SWAP1 DUP2 MSTORE PUSH1 0xA PUSH1 0x20 MSTORE PUSH1 0x40 DUP2 KECCAK256 DUP1 SLOAD DUP5 SWAP1 DUP2 LT PUSH2 0x202A JUMPI PUSH2 0x202A PUSH2 0x2E66 JUMP JUMPDEST PUSH1 0x0 SWAP2 DUP3 MSTORE PUSH1 0x20 SWAP1 SWAP2 KECCAK256 PUSH1 0x8 SWAP1 SWAP2 MUL ADD PUSH1 0x7 DUP2 ADD SLOAD SWAP1 SWAP2 POP PUSH1 0xFF AND PUSH2 0x2062 JUMPI PUSH1 0x40 MLOAD PUSH4 0x5A2E885 PUSH1 0xE2 SHL DUP2 MSTORE PUSH1 0x4 ADD PUSH1 0x40 MLOAD DUP1 SWAP2 SUB SWAP1 REVERT JUMPDEST SWAP4 SWAP3 POP POP POP JUMP JUMPDEST PUSH1 0x7 DUP2 ADD SLOAD PUSH1 0x0 SWAP1 PUSH1 0xFF AND PUSH2 0x2080 JUMPI POP PUSH1 0x0 PUSH2 0x110C JUMP JUMPDEST PUSH1 0x0 DUP3 PUSH1 0x4 ADD SLOAD TIMESTAMP PUSH2 0x2092 SWAP2 SWAP1 PUSH2 0x2DE1 JUMP JUMPDEST SWAP1 POP DUP1 PUSH1 0x0 SUB PUSH2 0x20A6 JUMPI PUSH1 0x0 SWAP2 POP POP PUSH2 0x110C JUMP JUMPDEST PUSH1 0x0 PUSH2 0x20B5 DUP5 PUSH1 0x0 ADD SLOAD PUSH2 0x2784 JUMP JUMPDEST SWAP1 POP PUSH3 0x76A700 PUSH2 0x20E5 PUSH32 0x0 TIMESTAMP PUSH2 0x2DE1 JUMP JUMPDEST LT PUSH2 0x20EE JUMPI POP PUSH1 0x2D JUMPDEST PUSH2 0x20FD PUSH2 0x2710 PUSH3 0x15180 PUSH2 0x2DCA JUMP JUMPDEST DUP5 SLOAD DUP4 SWAP1 PUSH2 0x210C SWAP1 DUP5 SWAP1 PUSH2 0x2DCA JUMP JUMPDEST PUSH2 0x2116 SWAP2 SWAP1 PUSH2 0x2DCA JUMP JUMPDEST PUSH2 0x2120 SWAP2 SWAP1 PUSH2 0x2E44 JUMP JUMPDEST SWAP3 POP PUSH1 0x0 DUP5 PUSH1 0x5 ADD SLOAD DUP6 PUSH1 0x6 ADD SLOAD GT PUSH2 0x213A JUMPI PUSH1 0x0 PUSH2 0x214E JUMP JUMPDEST DUP5 PUSH1 0x5 ADD SLOAD DUP6 PUSH1 0x6 ADD SLOAD PUSH2 0x214E SWAP2 SWAP1 PUSH2 0x2DE1 JUMP JUMPDEST SWAP1 POP DUP1 DUP5 GT ISZERO PUSH2 0x215C JUMPI DUP1 SWAP4 POP JUMPDEST POP POP POP SWAP3 SWAP2 POP POP JUMP JUMPDEST PUSH2 0x2172 DUP4 DUP4 DUP4 PUSH1 0x1 PUSH2 0x2A0C JUMP JUMPDEST PUSH2 0x12F9 JUMPI PUSH1 0x40 MLOAD PUSH4 0x5274AFE7 PUSH1 0xE0 SHL DUP2 MSTORE PUSH1 0x1 PUSH1 0x1 PUSH1 0xA0 SHL SUB DUP5 AND PUSH1 0x4 DUP3 ADD MSTORE PUSH1 0x24 ADD JUMPDEST PUSH1 0x40 MLOAD DUP1 SWAP2 SUB SWAP1 REVERT JUMPDEST PUSH2 0x21AC DUP4 DUP4 DUP4 PUSH1 0x0 PUSH2 0x2A72 JUMP JUMPDEST PUSH2 0x12F9 JUMPI PUSH2 0x21BE DUP4 DUP4 PUSH1 0x0 PUSH1 0x1 PUSH2 0x2A72 JUMP JUMPDEST PUSH2 0x21E6 JUMPI PUSH1 0x40 MLOAD PUSH4 0x5274AFE7 PUSH1 0xE0 SHL DUP2 MSTORE PUSH1 0x1 PUSH1 0x1 PUSH1 0xA0 SHL SUB DUP5 AND PUSH1 0x4 DUP3 ADD MSTORE PUSH1 0x24 ADD PUSH2 0x2196 JUMP JUMPDEST PUSH2 0x2172 DUP4 DUP4 DUP4 PUSH1 0x1 PUSH2 0x2A72 JUMP JUMPDEST DUP1 PUSH2 0x2710 EQ ISZERO DUP1 ISZERO PUSH2 0x2207 JUMPI POP DUP1 PUSH2 0x1388 EQ ISZERO JUMPDEST DUP1 ISZERO PUSH2 0x2215 JUMPI POP DUP1 PUSH2 0x9C4 EQ ISZERO JUMPDEST ISZERO PUSH2 0x2233 JUMPI PUSH1 0x40 MLOAD PUSH4 0x5C1D07CB PUSH1 0xE0 SHL DUP2 MSTORE PUSH1 0x4 ADD PUSH1 0x40 MLOAD DUP1 SWAP2 SUB SWAP1 REVERT JUMPDEST PUSH1 0x0 PUSH2 0x223F DUP5 DUP5 PUSH2 0x1FC8 JUMP JUMPDEST SWAP1 POP PUSH3 0xD2F00 DUP2 PUSH1 0x3 ADD SLOAD PUSH2 0x2254 SWAP2 SWAP1 PUSH2 0x2E0D JUMP JUMPDEST TIMESTAMP GT ISZERO PUSH2 0x2274 JUMPI PUSH1 0x40 MLOAD PUSH4 0x693ED15B PUSH1 0xE1 SHL DUP2 MSTORE PUSH1 0x4 ADD PUSH1 0x40 MLOAD DUP1 SWAP2 SUB SWAP1 REVERT JUMPDEST DUP1 SLOAD PUSH1 0x0 PUSH2 0x2710 PUSH2 0x2285 DUP6 DUP5 PUSH2 0x2DCA JUMP JUMPDEST PUSH2 0x228F SWAP2 SWAP1 PUSH2 0x2E44 JUMP JUMPDEST SWAP1 POP PUSH1 0x0 PUSH2 0x2710 PUSH2 0x22A2 PUSH2 0x3E8 DUP5 PUSH2 0x2DCA JUMP JUMPDEST PUSH2 0x22AC SWAP2 SWAP1 PUSH2 0x2E44 JUMP JUMPDEST SWAP1 POP PUSH1 0x0 PUSH2 0x22BA DUP3 DUP5 PUSH2 0x2DE1 JUMP JUMPDEST SWAP1 POP DUP6 PUSH2 0x2710 SUB PUSH2 0x22D6 JUMPI PUSH1 0x7 DUP6 ADD DUP1 SLOAD PUSH1 0xFF NOT AND SWAP1 SSTORE PUSH2 0x2303 JUMP JUMPDEST DUP3 DUP6 PUSH1 0x0 ADD PUSH1 0x0 DUP3 DUP3 SLOAD PUSH2 0x22EA SWAP2 SWAP1 PUSH2 0x2DE1 JUMP JUMPDEST SWAP1 SWAP2 SSTORE POP POP DUP5 SLOAD PUSH2 0x22FD SWAP1 PUSH1 0x3 SWAP1 PUSH2 0x2DCA JUMP JUMPDEST PUSH1 0x6 DUP7 ADD SSTORE JUMPDEST PUSH1 0x1 PUSH1 0x1 PUSH1 0xA0 SHL SUB DUP9 AND PUSH1 0x0 SWAP1 DUP2 MSTORE PUSH1 0xB PUSH1 0x20 MSTORE PUSH1 0x40 DUP2 KECCAK256 DUP1 SLOAD DUP6 SWAP3 SWAP1 PUSH2 0x232B SWAP1 DUP5 SWAP1 PUSH2 0x2DE1 JUMP JUMPDEST SWAP3 POP POP DUP2 SWAP1 SSTORE POP DUP3 PUSH1 0xD PUSH1 0x0 DUP3 DUP3 SLOAD PUSH2 0x2344 SWAP2 SWAP1 PUSH2 0x2E0D JUMP JUMPDEST SWAP1 SWAP2 SSTORE POP POP PUSH1 0x2 SLOAD PUSH1 0x1 PUSH1 0x1 PUSH1 0xA0 SHL SUB AND ISZERO PUSH2 0x23BA JUMPI PUSH1 0x2 SLOAD PUSH1 0x40 MLOAD PUSH4 0x95CE44B PUSH1 0xE2 SHL DUP2 MSTORE PUSH1 0x1 PUSH1 0x1 PUSH1 0xA0 SHL SUB DUP11 DUP2 AND PUSH1 0x4 DUP4 ADD MSTORE SWAP1 SWAP2 AND SWAP1 PUSH4 0x2573912C SWAP1 PUSH1 0x24 ADD PUSH1 0x0 PUSH1 0x40 MLOAD DUP1 DUP4 SUB DUP2 PUSH1 0x0 DUP8 DUP1 EXTCODESIZE ISZERO DUP1 ISZERO PUSH2 0x23A1 JUMPI PUSH1 0x0 DUP1 REVERT JUMPDEST POP GAS CALL ISZERO DUP1 ISZERO PUSH2 0x23B5 JUMPI RETURNDATASIZE PUSH1 0x0 DUP1 RETURNDATACOPY RETURNDATASIZE PUSH1 0x0 REVERT JUMPDEST POP POP POP POP JUMPDEST DUP1 ISZERO PUSH2 0x2698 JUMPI PUSH1 0x40 MLOAD PUSH4 0x70A08231 PUSH1 0xE0 SHL DUP2 MSTORE ADDRESS PUSH1 0x4 DUP3 ADD MSTORE PUSH1 0x0 SWAP1 PUSH32 0x0 PUSH1 0x1 PUSH1 0x1 PUSH1 0xA0 SHL SUB AND SWAP1 PUSH4 0x70A08231 SWAP1 PUSH1 0x24 ADD PUSH1 0x20 PUSH1 0x40 MLOAD DUP1 DUP4 SUB DUP2 DUP7 GAS STATICCALL ISZERO DUP1 ISZERO PUSH2 0x2427 JUMPI RETURNDATASIZE PUSH1 0x0 DUP1 RETURNDATACOPY RETURNDATASIZE PUSH1 0x0 REVERT JUMPDEST POP POP POP POP PUSH1 0x40 MLOAD RETURNDATASIZE PUSH1 0x1F NOT PUSH1 0x1F DUP3 ADD AND DUP3 ADD DUP1 PUSH1 0x40 MSTORE POP DUP2 ADD SWAP1 PUSH2 0x244B SWAP2 SWAP1 PUSH2 0x2DF4 JUMP JUMPDEST SWAP1 POP DUP2 DUP2 LT PUSH2 0x248D JUMPI PUSH2 0x2488 PUSH1 0x1 PUSH1 0x1 PUSH1 0xA0 SHL SUB PUSH32 0x0 AND DUP11 DUP5 PUSH2 0x2165 JUMP JUMPDEST PUSH2 0x2696 JUMP JUMPDEST DUP1 ISZERO PUSH2 0x24D4 JUMPI PUSH2 0x24C7 PUSH1 0x1 PUSH1 0x1 PUSH1 0xA0 SHL SUB PUSH32 0x0 AND DUP11 DUP4 PUSH2 0x2165 JUMP JUMPDEST PUSH2 0x24D1 DUP2 DUP4 PUSH2 0x2DE1 JUMP JUMPDEST SWAP2 POP JUMPDEST PUSH1 0x0 DUP1 SLOAD PUSH1 0x40 MLOAD PUSH4 0x11EA9FA9 PUSH1 0xE2 SHL DUP2 MSTORE PUSH1 0x4 DUP2 ADD DUP6 SWAP1 MSTORE PUSH1 0x1 PUSH1 0x1 PUSH1 0xA0 SHL SUB SWAP1 SWAP2 AND SWAP1 PUSH4 0x47AA7EA4 SWAP1 PUSH1 0x24 ADD PUSH1 0x20 PUSH1 0x40 MLOAD DUP1 DUP4 SUB DUP2 DUP7 GAS STATICCALL ISZERO DUP1 ISZERO PUSH2 0x251E JUMPI RETURNDATASIZE PUSH1 0x0 DUP1 RETURNDATACOPY RETURNDATASIZE PUSH1 0x0 REVERT JUMPDEST POP POP POP POP PUSH1 0x40 MLOAD RETURNDATASIZE PUSH1 0x1F NOT PUSH1 0x1F DUP3 ADD AND DUP3 ADD DUP1 PUSH1 0x40 MSTORE POP DUP2 ADD SWAP1 PUSH2 0x2542 SWAP2 SWAP1 PUSH2 0x2DF4 JUMP JUMPDEST SWAP1 POP PUSH1 0x0 DUP2 GT DUP1 ISZERO PUSH2 0x25DC JUMPI POP PUSH1 0x40 MLOAD PUSH4 0x70A08231 PUSH1 0xE0 SHL DUP2 MSTORE ADDRESS PUSH1 0x4 DUP3 ADD MSTORE DUP2 SWAP1 PUSH32 0x0 PUSH1 0x1 PUSH1 0x1 PUSH1 0xA0 SHL SUB AND SWAP1 PUSH4 0x70A08231 SWAP1 PUSH1 0x24 ADD PUSH1 0x20 PUSH1 0x40 MLOAD DUP1 DUP4 SUB DUP2 DUP7 GAS STATICCALL ISZERO DUP1 ISZERO PUSH2 0x25B5 JUMPI RETURNDATASIZE PUSH1 0x0 DUP1 RETURNDATACOPY RETURNDATASIZE PUSH1 0x0 REVERT JUMPDEST POP POP POP POP PUSH1 0x40 MLOAD RETURNDATASIZE PUSH1 0x1F NOT PUSH1 0x1F DUP3 ADD AND DUP3 ADD DUP1 PUSH1 0x40 MSTORE POP DUP2 ADD SWAP1 PUSH2 0x25D9 SWAP2 SWAP1 PUSH2 0x2DF4 JUMP JUMPDEST LT ISZERO JUMPDEST ISZERO PUSH2 0x2694 JUMPI PUSH1 0x0 SLOAD PUSH2 0x261B SWAP1 PUSH1 0x1 PUSH1 0x1 PUSH1 0xA0 SHL SUB PUSH32 0x0 DUP2 AND SWAP2 AND DUP4 PUSH2 0x219F JUMP JUMPDEST PUSH1 0x0 SLOAD PUSH1 0x40 MLOAD PUSH4 0xF843E641 PUSH1 0xE0 SHL DUP2 MSTORE PUSH1 0x4 DUP2 ADD DUP4 SWAP1 MSTORE PUSH1 0x1 PUSH1 0x1 PUSH1 0xA0 SHL SUB DUP13 DUP2 AND PUSH1 0x24 DUP4 ADD MSTORE SWAP1 SWAP2 AND SWAP1 PUSH4 0xF843E641 SWAP1 PUSH1 0x44 ADD PUSH1 0x20 PUSH1 0x40 MLOAD DUP1 DUP4 SUB DUP2 PUSH1 0x0 DUP8 GAS CALL ISZERO DUP1 ISZERO PUSH2 0x266E JUMPI RETURNDATASIZE PUSH1 0x0 DUP1 RETURNDATACOPY RETURNDATASIZE PUSH1 0x0 REVERT JUMPDEST POP POP POP POP PUSH1 0x40 MLOAD RETURNDATASIZE PUSH1 0x1F NOT PUSH1 0x1F DUP3 ADD AND DUP3 ADD DUP1 PUSH1 0x40 MSTORE POP DUP2 ADD SWAP1 PUSH2 0x2692 SWAP2 SWAP1 PUSH2 0x2DF4 JUMP JUMPDEST POP JUMPDEST POP JUMPDEST POP JUMPDEST PUSH1 0x40 DUP1 MLOAD DUP3 DUP2 MSTORE PUSH1 0x20 DUP2 ADD DUP5 SWAP1 MSTORE PUSH1 0x0 DUP2 DUP4 ADD MSTORE PUSH1 0x60 DUP2 ADD DUP10 SWAP1 MSTORE SWAP1 MLOAD PUSH1 0x1 PUSH1 0x1 PUSH1 0xA0 SHL SUB DUP11 AND SWAP2 PUSH32 0x4ADE67EF7E7C5E4D9C50DE61A4E8C555BE92C9B37E3CA6716EB02A1F0E471DA5 SWAP2 SWAP1 DUP2 SWAP1 SUB PUSH1 0x80 ADD SWAP1 LOG2 POP POP POP POP POP POP POP POP JUMP JUMPDEST PUSH2 0x2703 DUP5 DUP5 DUP5 DUP5 PUSH1 0x1 PUSH2 0x2ABF JUMP JUMPDEST PUSH2 0x272B JUMPI PUSH1 0x40 MLOAD PUSH4 0x5274AFE7 PUSH1 0xE0 SHL DUP2 MSTORE PUSH1 0x1 PUSH1 0x1 PUSH1 0xA0 SHL SUB DUP6 AND PUSH1 0x4 DUP3 ADD MSTORE PUSH1 0x24 ADD PUSH2 0x2196 JUMP JUMPDEST POP POP POP POP JUMP JUMPDEST PUSH1 0x0 PUSH10 0x10F0CF064DD59200000 DUP3 LT PUSH2 0x274C JUMPI POP PUSH1 0x4 SWAP2 SWAP1 POP JUMP JUMPDEST PUSH9 0x878678326EAC900000 DUP3 LT PUSH2 0x2764 JUMPI POP PUSH1 0x3 SWAP2 SWAP1 POP JUMP JUMPDEST PUSH9 0x1B1AE4D6E2EF500000 DUP3 LT PUSH2 0x277C JUMPI POP PUSH1 0x2 SWAP2 SWAP1 POP JUMP JUMPDEST POP PUSH1 0x1 SWAP2 SWAP1 POP JUMP JUMPDEST PUSH1 0x0 DUP1 PUSH2 0x27B1 PUSH32 0x0 TIMESTAMP PUSH2 0x2DE1 JUMP JUMPDEST SWAP1 POP PUSH3 0x76A700 DUP2 LT PUSH2 0x27C6 JUMPI POP PUSH1 0x2D SWAP3 SWAP2 POP POP JUMP JUMPDEST PUSH1 0x0 PUSH2 0x27D1 DUP5 PUSH2 0x2731 JUMP JUMPDEST SWAP1 POP DUP1 PUSH1 0x1 SUB PUSH2 0x27FB JUMPI PUSH2 0x1FA4 DUP5 PUSH8 0x8AC7230489E80000 PUSH9 0x1B0D04202F47EC0000 PUSH1 0x32 PUSH1 0x64 PUSH2 0x2B31 JUMP JUMPDEST DUP1 PUSH1 0x2 SUB PUSH2 0x2824 JUMPI PUSH2 0x1FA4 DUP5 PUSH9 0x1B1AE4D6E2EF500000 PUSH9 0x8778977BBB052C0000 PUSH1 0x4B PUSH1 0x73 PUSH2 0x2B31 JUMP JUMPDEST DUP1 PUSH1 0x3 SUB PUSH2 0x284E JUMPI PUSH2 0x1FA4 DUP5 PUSH9 0x878678326EAC900000 PUSH10 0x10EFF0FAE29B1BC0000 PUSH1 0x64 PUSH1 0x96 PUSH2 0x2B31 JUMP JUMPDEST PUSH1 0x0 PUSH10 0xA968163F0A57B400000 DUP6 GT PUSH2 0x2867 JUMPI DUP5 PUSH2 0x2873 JUMP JUMPDEST PUSH10 0xA968163F0A57B400000 JUMPDEST SWAP1 POP PUSH2 0x2898 DUP2 PUSH10 0x10F0CF064DD59200000 PUSH10 0xA968163F0A57B400000 PUSH1 0x64 PUSH1 0xAF PUSH2 0x2B31 JUMP JUMPDEST SWAP6 SWAP5 POP POP POP POP POP JUMP JUMPDEST PUSH1 0x2 SLOAD PUSH1 0x1 PUSH1 0x1 PUSH1 0xA0 SHL SUB AND ISZERO DUP1 PUSH2 0x28C2 JUMPI POP PUSH1 0x3 SLOAD PUSH1 0x1 PUSH1 0x1 PUSH1 0xA0 SHL SUB AND ISZERO JUMPDEST ISZERO PUSH2 0x28CB JUMPI POP POP JUMP JUMPDEST DUP2 PUSH1 0x0 JUMPDEST PUSH1 0x14 DUP2 LT ISZERO PUSH2 0x272B JUMPI PUSH1 0x2 SLOAD PUSH1 0x40 MLOAD PUSH4 0x4A9FEFC7 PUSH1 0xE0 SHL DUP2 MSTORE PUSH1 0x1 PUSH1 0x1 PUSH1 0xA0 SHL SUB DUP5 DUP2 AND PUSH1 0x4 DUP4 ADD MSTORE PUSH1 0x0 SWAP3 AND SWAP1 PUSH4 0x4A9FEFC7 SWAP1 PUSH1 0x24 ADD PUSH1 0x20 PUSH1 0x40 MLOAD DUP1 DUP4 SUB DUP2 DUP7 GAS STATICCALL ISZERO DUP1 ISZERO PUSH2 0x2923 JUMPI RETURNDATASIZE PUSH1 0x0 DUP1 RETURNDATACOPY RETURNDATASIZE PUSH1 0x0 REVERT JUMPDEST POP POP POP POP PUSH1 0x40 MLOAD RETURNDATASIZE PUSH1 0x1F NOT PUSH1 0x1F DUP3 ADD AND DUP3 ADD DUP1 PUSH1 0x40 MSTORE POP DUP2 ADD SWAP1 PUSH2 0x2947 SWAP2 SWAP1 PUSH2 0x2E95 JUMP JUMPDEST SWAP1 POP PUSH1 0x1 PUSH1 0x1 PUSH1 0xA0 SHL SUB DUP2 AND PUSH2 0x295D JUMPI POP PUSH2 0x272B JUMP JUMPDEST PUSH1 0x3 SLOAD PUSH1 0x40 MLOAD PUSH4 0xD9BD5F2D PUSH1 0xE0 SHL DUP2 MSTORE PUSH1 0x1 PUSH1 0x1 PUSH1 0xA0 SHL SUB DUP4 DUP2 AND PUSH1 0x4 DUP4 ADD MSTORE DUP6 DUP2 AND PUSH1 0x24 DUP4 ADD MSTORE PUSH1 0x44 DUP3 ADD DUP8 SWAP1 MSTORE SWAP1 SWAP2 AND SWAP1 PUSH4 0xD9BD5F2D SWAP1 PUSH1 0x64 ADD PUSH1 0x0 PUSH1 0x40 MLOAD DUP1 DUP4 SUB DUP2 PUSH1 0x0 DUP8 DUP1 EXTCODESIZE ISZERO DUP1 ISZERO PUSH2 0x29B3 JUMPI PUSH1 0x0 DUP1 REVERT JUMPDEST POP GAS CALL ISZERO DUP1 ISZERO PUSH2 0x29C7 JUMPI RETURNDATASIZE PUSH1 0x0 DUP1 RETURNDATACOPY RETURNDATASIZE PUSH1 0x0 REVERT JUMPDEST POP SWAP3 SWAP5 POP POP PUSH1 0x1 SWAP1 SWAP3 ADD SWAP2 POP PUSH2 0x28CF SWAP1 POP JUMP JUMPDEST PUSH1 0x0 DUP1 MLOAD PUSH1 0x20 PUSH2 0x2EB3 DUP4 CODECOPY DUP2 MLOAD SWAP2 MSTORE SLOAD PUSH1 0x2 SUB PUSH2 0x2A0A JUMPI PUSH1 0x40 MLOAD PUSH4 0x3EE5AEB5 PUSH1 0xE0 SHL DUP2 MSTORE PUSH1 0x4 ADD PUSH1 0x40 MLOAD DUP1 SWAP2 SUB SWAP1 REVERT JUMPDEST JUMP JUMPDEST PUSH1 0x40 MLOAD PUSH4 0xA9059CBB PUSH1 0xE0 SHL PUSH1 0x0 DUP2 DUP2 MSTORE PUSH1 0x1 PUSH1 0x1 PUSH1 0xA0 SHL SUB DUP7 AND PUSH1 0x4 MSTORE PUSH1 0x24 DUP6 SWAP1 MSTORE SWAP2 PUSH1 0x20 DUP4 PUSH1 0x44 DUP2 DUP1 DUP12 GAS CALL SWAP3 POP PUSH1 0x1 PUSH1 0x0 MLOAD EQ DUP4 AND PUSH2 0x2A66 JUMPI DUP4 DUP4 ISZERO AND ISZERO PUSH2 0x2A59 JUMPI RETURNDATASIZE PUSH1 0x0 DUP3 RETURNDATACOPY RETURNDATASIZE DUP2 REVERT JUMPDEST PUSH1 0x0 DUP8 EXTCODESIZE GT RETURNDATASIZE ISZERO AND DUP4 AND SWAP3 POP JUMPDEST PUSH1 0x40 MSTORE POP SWAP5 SWAP4 POP POP POP POP JUMP JUMPDEST PUSH1 0x40 MLOAD PUSH4 0x95EA7B3 PUSH1 0xE0 SHL PUSH1 0x0 DUP2 DUP2 MSTORE PUSH1 0x1 PUSH1 0x1 PUSH1 0xA0 SHL SUB DUP7 AND PUSH1 0x4 MSTORE PUSH1 0x24 DUP6 SWAP1 MSTORE SWAP2 PUSH1 0x20 DUP4 PUSH1 0x44 DUP2 DUP1 DUP12 GAS CALL SWAP3 POP PUSH1 0x1 PUSH1 0x0 MLOAD EQ DUP4 AND PUSH2 0x2A66 JUMPI DUP4 DUP4 ISZERO AND ISZERO PUSH2 0x2A59 JUMPI RETURNDATASIZE PUSH1 0x0 DUP3 RETURNDATACOPY RETURNDATASIZE DUP2 REVERT JUMPDEST PUSH1 0x40 MLOAD PUSH4 0x23B872DD PUSH1 0xE0 SHL PUSH1 0x0 DUP2 DUP2 MSTORE PUSH1 0x1 PUSH1 0x1 PUSH1 0xA0 SHL SUB DUP8 DUP2 AND PUSH1 0x4 MSTORE DUP7 AND PUSH1 0x24 MSTORE PUSH1 0x44 DUP6 SWAP1 MSTORE SWAP2 PUSH1 0x20 DUP4 PUSH1 0x64 DUP2 DUP1 DUP13 GAS CALL SWAP3 POP PUSH1 0x1 PUSH1 0x0 MLOAD EQ DUP4 AND PUSH2 0x2B1F JUMPI DUP4 DUP4 ISZERO AND ISZERO PUSH2 0x2B12 JUMPI RETURNDATASIZE PUSH1 0x0 DUP3 RETURNDATACOPY RETURNDATASIZE DUP2 REVERT JUMPDEST PUSH1 0x0 DUP9 EXTCODESIZE GT RETURNDATASIZE ISZERO AND DUP4 AND SWAP3 POP JUMPDEST PUSH1 0x40 MSTORE POP PUSH1 0x0 PUSH1 0x60 MSTORE SWAP6 SWAP5 POP POP POP POP POP JUMP JUMPDEST PUSH1 0x0 DUP5 DUP5 GT PUSH2 0x2B41 JUMPI POP DUP2 PUSH2 0x2898 JUMP JUMPDEST PUSH1 0x0 PUSH2 0x2B4D DUP5 DUP5 PUSH2 0x2DE1 JUMP JUMPDEST SWAP1 POP PUSH1 0x0 PUSH2 0x2B5B DUP8 DUP8 PUSH2 0x2DE1 JUMP JUMPDEST SWAP1 POP DUP1 DUP3 PUSH2 0x2B69 DUP10 DUP12 PUSH2 0x2DE1 JUMP JUMPDEST PUSH2 0x2B73 SWAP2 SWAP1 PUSH2 0x2DCA JUMP JUMPDEST PUSH2 0x2B7D SWAP2 SWAP1 PUSH2 0x2E44 JUMP JUMPDEST PUSH2 0x2B87 SWAP1 DUP7 PUSH2 0x2E0D JUMP JUMPDEST SWAP9 SWAP8 POP POP POP POP POP POP POP POP JUMP JUMPDEST PUSH1 0x1 PUSH1 0x1 PUSH1 0xA0 SHL SUB DUP2 AND DUP2 EQ PUSH2 0xD3E JUMPI PUSH1 0x0 DUP1 REVERT JUMPDEST PUSH1 0x0 DUP1 PUSH1 0x40 DUP4 DUP6 SUB SLT ISZERO PUSH2 0x2BBB JUMPI PUSH1 0x0 DUP1 REVERT JUMPDEST DUP3 CALLDATALOAD PUSH2 0x2BC6 DUP2 PUSH2 0x2B93 JUMP JUMPDEST SWAP5 PUSH1 0x20 SWAP4 SWAP1 SWAP4 ADD CALLDATALOAD SWAP4 POP POP POP JUMP JUMPDEST PUSH1 0x0 PUSH1 0x20 DUP3 DUP5 SUB SLT ISZERO PUSH2 0x2BE6 JUMPI PUSH1 0x0 DUP1 REVERT JUMPDEST POP CALLDATALOAD SWAP2 SWAP1 POP JUMP JUMPDEST PUSH1 0x0 PUSH1 0x20 DUP3 DUP5 SUB SLT ISZERO PUSH2 0x2BFF JUMPI PUSH1 0x0 DUP1 REVERT JUMPDEST DUP2 CALLDATALOAD PUSH2 0x2062 DUP2 PUSH2 0x2B93 JUMP JUMPDEST PUSH1 0x0 PUSH1 0x20 DUP3 DUP5 SUB SLT ISZERO PUSH2 0x2C1C JUMPI PUSH1 0x0 DUP1 REVERT JUMPDEST DUP2 CALLDATALOAD DUP1 ISZERO ISZERO DUP2 EQ PUSH2 0x2062 JUMPI PUSH1 0x0 DUP1 REVERT JUMPDEST PUSH1 0x0 DUP1 PUSH1 0x0 PUSH1 0x60 DUP5 DUP7 SUB SLT ISZERO PUSH2 0x2C41 JUMPI PUSH1 0x0 DUP1 REVERT JUMPDEST DUP4 CALLDATALOAD PUSH2 0x2C4C DUP2 PUSH2 0x2B93 JUMP JUMPDEST SWAP3 POP PUSH1 0x20 DUP5 ADD CALLDATALOAD PUSH2 0x2C5C DUP2 PUSH2 0x2B93 JUMP JUMPDEST SWAP2 POP PUSH1 0x40 DUP5 ADD CALLDATALOAD PUSH2 0x2C6C DUP2 PUSH2 0x2B93 JUMP JUMPDEST DUP1 SWAP2 POP POP SWAP3 POP SWAP3 POP SWAP3 JUMP JUMPDEST PUSH1 0x0 DUP1 PUSH1 0x0 DUP1 PUSH1 0x0 PUSH1 0xA0 DUP7 DUP9 SUB SLT ISZERO PUSH2 0x2C8F JUMPI PUSH1 0x0 DUP1 REVERT JUMPDEST DUP6 CALLDATALOAD PUSH2 0x2C9A DUP2 PUSH2 0x2B93 JUMP JUMPDEST SWAP5 POP PUSH1 0x20 DUP7 ADD CALLDATALOAD PUSH2 0x2CAA DUP2 PUSH2 0x2B93 JUMP JUMPDEST SWAP4 POP PUSH1 0x40 DUP7 ADD CALLDATALOAD PUSH2 0x2CBA DUP2 PUSH2 0x2B93 JUMP JUMPDEST SWAP3 POP PUSH1 0x60 DUP7 ADD CALLDATALOAD PUSH2 0x2CCA DUP2 PUSH2 0x2B93 JUMP JUMPDEST SWAP2 POP PUSH1 0x80 DUP7 ADD CALLDATALOAD PUSH2 0x2CDA DUP2 PUSH2 0x2B93 JUMP JUMPDEST DUP1 SWAP2 POP POP SWAP3 SWAP6 POP SWAP3 SWAP6 SWAP1 SWAP4 POP JUMP JUMPDEST PUSH1 0x0 DUP1 PUSH1 0x20 DUP4 DUP6 SUB SLT ISZERO PUSH2 0x2CFB JUMPI PUSH1 0x0 DUP1 REVERT JUMPDEST DUP3 CALLDATALOAD PUSH8 0xFFFFFFFFFFFFFFFF DUP1 DUP3 GT ISZERO PUSH2 0x2D13 JUMPI PUSH1 0x0 DUP1 REVERT JUMPDEST DUP2 DUP6 ADD SWAP2 POP DUP6 PUSH1 0x1F DUP4 ADD SLT PUSH2 0x2D27 JUMPI PUSH1 0x0 DUP1 REVERT JUMPDEST DUP2 CALLDATALOAD DUP2 DUP2 GT ISZERO PUSH2 0x2D36 JUMPI PUSH1 0x0 DUP1 REVERT JUMPDEST DUP7 PUSH1 0x20 DUP3 PUSH1 0x8 SHL DUP6 ADD ADD GT ISZERO PUSH2 0x2D4B JUMPI PUSH1 0x0 DUP1 REVERT JUMPDEST PUSH1 0x20 SWAP3 SWAP1 SWAP3 ADD SWAP7 SWAP2 SWAP6 POP SWAP1 SWAP4 POP POP POP POP JUMP JUMPDEST PUSH1 0x0 DUP1 PUSH1 0x40 DUP4 DUP6 SUB SLT ISZERO PUSH2 0x2D70 JUMPI PUSH1 0x0 DUP1 REVERT JUMPDEST POP POP DUP1 CALLDATALOAD SWAP3 PUSH1 0x20 SWAP1 SWAP2 ADD CALLDATALOAD SWAP2 POP JUMP JUMPDEST PUSH1 0x0 DUP1 PUSH1 0x0 PUSH1 0x60 DUP5 DUP7 SUB SLT ISZERO PUSH2 0x2D94 JUMPI PUSH1 0x0 DUP1 REVERT JUMPDEST DUP4 CALLDATALOAD PUSH2 0x2D9F DUP2 PUSH2 0x2B93 JUMP JUMPDEST SWAP6 PUSH1 0x20 DUP6 ADD CALLDATALOAD SWAP6 POP PUSH1 0x40 SWAP1 SWAP5 ADD CALLDATALOAD SWAP4 SWAP3 POP POP POP JUMP JUMPDEST PUSH4 0x4E487B71 PUSH1 0xE0 SHL PUSH1 0x0 MSTORE PUSH1 0x11 PUSH1 0x4 MSTORE PUSH1 0x24 PUSH1 0x0 REVERT JUMPDEST DUP1 DUP3 MUL DUP2 ISZERO DUP3 DUP3 DIV DUP5 EQ OR PUSH2 0x110C JUMPI PUSH2 0x110C PUSH2 0x2DB4 JUMP JUMPDEST DUP2 DUP2 SUB DUP2 DUP2 GT ISZERO PUSH2 0x110C JUMPI PUSH2 0x110C PUSH2 0x2DB4 JUMP JUMPDEST PUSH1 0x0 PUSH1 0x20 DUP3 DUP5 SUB SLT ISZERO PUSH2 0x2E06 JUMPI PUSH1 0x0 DUP1 REVERT JUMPDEST POP MLOAD SWAP2 SWAP1 POP JUMP JUMPDEST DUP1 DUP3 ADD DUP1 DUP3 GT ISZERO PUSH2 0x110C JUMPI PUSH2 0x110C PUSH2 0x2DB4 JUMP JUMPDEST PUSH1 0x0 DUP1 PUSH1 0x40 DUP4 DUP6 SUB SLT ISZERO PUSH2 0x2E33 JUMPI PUSH1 0x0 DUP1 REVERT JUMPDEST POP POP DUP1 MLOAD PUSH1 0x20 SWAP1 SWAP2 ADD MLOAD SWAP1 SWAP3 SWAP1 SWAP2 POP JUMP JUMPDEST PUSH1 0x0 DUP3 PUSH2 0x2E61 JUMPI PUSH4 0x4E487B71 PUSH1 0xE0 SHL PUSH1 0x0 MSTORE PUSH1 0x12 PUSH1 0x4 MSTORE PUSH1 0x24 PUSH1 0x0 REVERT JUMPDEST POP DIV SWAP1 JUMP JUMPDEST PUSH4 0x4E487B71 PUSH1 0xE0 SHL PUSH1 0x0 MSTORE PUSH1 0x32 PUSH1 0x4 MSTORE PUSH1 0x24 PUSH1 0x0 REVERT JUMPDEST PUSH1 0x0 PUSH1 0x1 DUP3 ADD PUSH2 0x2E8E JUMPI PUSH2 0x2E8E PUSH2 0x2DB4 JUMP JUMPDEST POP PUSH1 0x1 ADD SWAP1 JUMP JUMPDEST PUSH1 0x0 PUSH1 0x20 DUP3 DUP5 SUB SLT ISZERO PUSH2 0x2EA7 JUMPI PUSH1 0x0 DUP1 REVERT JUMPDEST DUP2 MLOAD PUSH2 0x2062 DUP2 PUSH2 0x2B93 JUMP INVALID SWAP12 PUSH24 0x9B17422D0DF92223018B32B4D1FA46E071723D6817E2486D STOP EXTCODESIZE 0xEC 0xC5 PUSH0 STOP LOG2 PUSH5 0x6970667358 0x22 SLT KECCAK256 0xEA CALL DUP10 0x2D 0x4F PUSH22 0xAC1B4BDEAD25547F7C60DFCDA7AE1B5A0DFAAA9D573D REVERT 0xE0 0xD7 0xEB PUSH5 0x736F6C6343 STOP ADDMOD XOR STOP CALLER "},"methodIdentifiers":{"admin()":"f851a440","claimRewards(uint256)":"0962ef79","companyWallet()":"1ec32d15","completeSetup()":"8aea8f71","configure(address,address,address,address,address)":"760fcb3e","deposit(uint256)":"b6b55f25","depositsPaused()":"60da3e83","earlyExit(uint256)":"b8af3d3e","getActiveDeposit(address)":"142a3da3","getCombinedEarnings(address)":"3a6f2dcd","getDepositCount(address)":"13fcaf54","getEarlyExitAmount(address,uint256)":"ceace7dd","getPartialEarlyExitAmount(address,uint256,uint256)":"aa9cc818","getPendingRewards(address,uint256)":"e4e7c6b4","getUserTier(address)":"e4d2620e","isInEarlyExitPeriod(address,uint256)":"786685e0","launchTimestamp()":"65cf7c9b","migrateDeposits((address,uint256,uint256,uint256,uint256,uint256,uint256,uint256)[])":"84b273f6","minClaimThreshold()":"3695dad1","notifyLevelIncome(address,uint256)":"6b9f7ab6","notifyRankBonus(address,uint256)":"ac948e83","osloDex()":"8565c2bf","osloToken()":"2acfbca3","partialEarlyExit(uint256,uint256)":"8fb1bb50","performanceWallet()":"b12cd625","rankSystem()":"e9a16bd5","referral()":"1441a5a9","rewardWallet()":"fb75b2c7","setDepositsPaused(bool)":"1c481e2d","setMinClaimThreshold(uint256)":"51637ba9","setReferral(address)":"9e5914da","setRewardWallets(address,address,address)":"1d687f0c","setupComplete()":"b6635be6","timelock()":"d33219b4","totalDeposited()":"ff50abdc","totalRewardsPaid()":"74958e35","totalWithdrawn()":"4b319713","treasury()":"61d027b3","usdt()":"2f48ab7d","userDeposits(address,uint256)":"08f43333","users(address)":"a87430ba"}}}}}