{"contracts/OSLOLiquidityManager.sol":{"OSLOLiquidityManager":{"abi":[{"inputs":[{"internalType":"address","name":"_usdt","type":"address"},{"internalType":"address","name":"_osloToken","type":"address"}],"stateMutability":"nonpayable","type":"constructor"},{"inputs":[],"name":"CannotRescueProtocolTokens","type":"error"},{"inputs":[],"name":"OnlyAdmin","type":"error"},{"inputs":[],"name":"OnlyTimelock","type":"error"},{"inputs":[],"name":"ReentrancyGuardReentrantCall","type":"error"},{"inputs":[{"internalType":"address","name":"token","type":"address"}],"name":"SafeERC20FailedOperation","type":"error"},{"inputs":[],"name":"SetupAlreadyComplete","type":"error"},{"inputs":[],"name":"ZeroAddress","type":"error"},{"inputs":[],"name":"ZeroAmount","type":"error"},{"anonymous":false,"inputs":[{"indexed":false,"internalType":"uint256","name":"usdtAmount","type":"uint256"},{"indexed":false,"internalType":"uint256","name":"osloAmount","type":"uint256"}],"name":"LiquidityAdded","type":"event"},{"anonymous":false,"inputs":[{"indexed":true,"internalType":"address","name":"token","type":"address"},{"indexed":false,"internalType":"uint256","name":"amount","type":"uint256"}],"name":"TokensRescued","type":"event"},{"inputs":[{"internalType":"uint256","name":"usdtAmount","type":"uint256"}],"name":"addInitialLiquidity","outputs":[],"stateMutability":"nonpayable","type":"function"},{"inputs":[{"internalType":"uint256","name":"usdtAmount","type":"uint256"}],"name":"addLiquidityFromFees","outputs":[],"stateMutability":"nonpayable","type":"function"},{"inputs":[],"name":"admin","outputs":[{"internalType":"address","name":"","type":"address"}],"stateMutability":"view","type":"function"},{"inputs":[],"name":"completeSetup","outputs":[],"stateMutability":"nonpayable","type":"function"},{"inputs":[{"internalType":"address","name":"_timelock","type":"address"},{"internalType":"address","name":"_oslodex","type":"address"}],"name":"configure","outputs":[],"stateMutability":"nonpayable","type":"function"},{"inputs":[],"name":"getDEXReserves","outputs":[{"internalType":"uint256","name":"_usdtRes","type":"uint256"},{"internalType":"uint256","name":"_osloRes","type":"uint256"}],"stateMutability":"view","type":"function"},{"inputs":[],"name":"getOSLOPrice","outputs":[{"internalType":"uint256","name":"","type":"uint256"}],"stateMutability":"view","type":"function"},{"inputs":[],"name":"osloToken","outputs":[{"internalType":"contract IERC20","name":"","type":"address"}],"stateMutability":"view","type":"function"},{"inputs":[],"name":"oslodex","outputs":[{"internalType":"address","name":"","type":"address"}],"stateMutability":"view","type":"function"},{"inputs":[{"internalType":"address","name":"token","type":"address"},{"internalType":"uint256","name":"amount","type":"uint256"}],"name":"rescueERC20","outputs":[],"stateMutability":"nonpayable","type":"function"},{"inputs":[],"name":"setupComplete","outputs":[{"internalType":"bool","name":"","type":"bool"}],"stateMutability":"view","type":"function"},{"inputs":[],"name":"timelock","outputs":[{"internalType":"address","name":"","type":"address"}],"stateMutability":"view","type":"function"},{"inputs":[],"name":"totalLiquidityAdded","outputs":[{"internalType":"uint256","name":"","type":"uint256"}],"stateMutability":"view","type":"function"},{"inputs":[],"name":"usdt","outputs":[{"internalType":"contract IERC20","name":"","type":"address"}],"stateMutability":"view","type":"function"}],"evm":{"bytecode":{"linkReferences":{},"object":"60c060405234801561001057600080fd5b50604051610cef380380610cef83398101604081905261002f916100d3565b60017f9b779b17422d0df92223018b32b4d1fa46e071723d6817e2486d003becc55f00556001600160a01b038216158061007057506001600160a01b038116155b1561008e5760405163d92e233d60e01b815260040160405180910390fd5b6001600160a01b039182166080521660a052600180546001600160a01b03191633179055610106565b80516001600160a01b03811681146100ce57600080fd5b919050565b600080604083850312156100e657600080fd5b6100ef836100b7565b91506100fd602084016100b7565b90509250929050565b60805160a051610b9a6101556000396000818161010f0152818161032a0152818161040b01526105d001526000818161014e015281816103d10152818161059501526107b30152610b9a6000f3fe608060405234801561001057600080fd5b50600436106100ea5760003560e01c8063b39060981161008c578063d77ab17211610066578063d77ab172146101fd578063e470d5cf14610210578063ee3b038f14610223578063f851a4401461023657600080fd5b8063b3906098146101a9578063b6635be6146101c6578063d33219b4146101ea57600080fd5b806341a22cc2116100c857806341a22cc21461017057806343b63b9d146101855780638aea8f711461018e5780638cd4426d1461019657600080fd5b806304f8c8b3146100ef5780632acfbca31461010a5780632f48ab7d14610149575b600080fd5b6100f7610249565b6040519081526020015b60405180910390f35b6101317f000000000000000000000000000000000000000000000000000000000000000081565b6040516001600160a01b039091168152602001610101565b6101317f000000000000000000000000000000000000000000000000000000000000000081565b61018361017e366004610a6e565b6102c6565b005b6100f760035481565b6101836104ed565b6101836101a4366004610aa3565b610568565b6101b1610683565b60408051928352602083019190915201610101565b6002546101da90600160a01b900460ff1681565b6040519015158152602001610101565b600254610131906001600160a01b031681565b600054610131906001600160a01b031681565b61018361021e366004610acd565b6106f5565b610183610231366004610a6e565b610779565b600154610131906001600160a01b031681565b60008060009054906101000a90046001600160a01b03166001600160a01b03166398d5fdca6040518163ffffffff1660e01b8152600401602060405180830381865afa15801561029d573d6000803e3d6000fd5b505050506040513d601f19601f820116820180604052508101906102c19190610b00565b905090565b6001546001600160a01b031633146102f157604051634755657960e01b815260040160405180910390fd5b8060000361031257604051631f2a200560e01b815260040160405180910390fd5b6040516370a0823160e01b81523060048201526000907f00000000000000000000000000000000000000000000000000000000000000006001600160a01b0316906370a0823190602401602060405180830381865afa158015610379573d6000803e3d6000fd5b505050506040513d601f19601f8201168201806040525081019061039d9190610b00565b9050806000036103c057604051631f2a200560e01b815260040160405180910390fd5b6000546103fa906001600160a01b037f000000000000000000000000000000000000000000000000000000000000000081169116846108b6565b600054610434906001600160a01b037f000000000000000000000000000000000000000000000000000000000000000081169116836108b6565b60005460405163a40f4fa160e01b815260048101849052602481018390526001600160a01b039091169063a40f4fa190604401600060405180830381600087803b15801561048157600080fd5b505af1158015610495573d6000803e3d6000fd5b5050505081600360008282546104ab9190610b19565b909155505060408051838152602081018390527f38f8a0c92f4c5b0b6877f878cb4c0c8d348a47b76d716c8e78f425043df9515b910160405180910390a15050565b6001546001600160a01b0316331461051857604051634755657960e01b815260040160405180910390fd5b600254600160a01b900460ff16156105435760405163238f75d360e01b815260040160405180910390fd5b6002805460ff60a01b1916600160a01b179055600180546001600160a01b0319169055565b6002546001600160a01b0316331461059357604051630e05f48560e11b815260040160405180910390fd5b7f00000000000000000000000000000000000000000000000000000000000000006001600160a01b0316826001600160a01b0316148061060457507f00000000000000000000000000000000000000000000000000000000000000006001600160a01b0316826001600160a01b0316145b15610622576040516311c9c0e360e01b815260040160405180910390fd5b60025461063c906001600160a01b0384811691168361093c565b816001600160a01b03167f68f67de89e96b13a3ea058af5fd44cc125efceb528482d539c7b43db2faa066e8260405161067791815260200190565b60405180910390a25050565b6000805460408051630240bc6b60e21b8152815184936001600160a01b031692630902f1ac92600480820193918290030181865afa1580156106c9573d6000803e3d6000fd5b505050506040513d601f19601f820116820180604052508101906106ed9190610b40565b915091509091565b6001546001600160a01b0316331461072057604051634755657960e01b815260040160405180910390fd5b600254600160a01b900460ff161561074b5760405163238f75d360e01b815260040160405180910390fd5b600280546001600160a01b039384166001600160a01b03199182161790915560008054929093169116179055565b610781610949565b806000036107a257604051631f2a200560e01b815260040160405180910390fd5b6000546107dc906001600160a01b037f000000000000000000000000000000000000000000000000000000000000000081169116836108b6565b60005460405163ee3b038f60e01b8152600481018390526001600160a01b039091169063ee3b038f90602401600060405180830381600087803b15801561082257600080fd5b505af1158015610836573d6000803e3d6000fd5b50505050806003600082825461084c9190610b19565b909155505060408051828152600060208201527f38f8a0c92f4c5b0b6877f878cb4c0c8d348a47b76d716c8e78f425043df9515b910160405180910390a16108b360017f9b779b17422d0df92223018b32b4d1fa46e071723d6817e2486d003becc55f0055565b50565b6108c38383836000610977565b610937576108d5838360006001610977565b61090257604051635274afe760e01b81526001600160a01b03841660048201526024015b60405180910390fd5b61090f8383836001610977565b61093757604051635274afe760e01b81526001600160a01b03841660048201526024016108f9565b505050565b61090f83838360016109dd565b610951610a2a565b60027f9b779b17422d0df92223018b32b4d1fa46e071723d6817e2486d003becc55f0055565b60405163095ea7b360e01b60008181526001600160a01b038616600452602485905291602083604481808b5af1925060016000511483166109d15783831516156109c4573d6000823e3d81fd5b6000873b113d1516831692505b60405250949350505050565b60405163a9059cbb60e01b60008181526001600160a01b038616600452602485905291602083604481808b5af1925060016000511483166109d15783831516156109c4573d6000823e3d81fd5b7f9b779b17422d0df92223018b32b4d1fa46e071723d6817e2486d003becc55f0054600203610a6c57604051633ee5aeb560e01b815260040160405180910390fd5b565b600060208284031215610a8057600080fd5b5035919050565b80356001600160a01b0381168114610a9e57600080fd5b919050565b60008060408385031215610ab657600080fd5b610abf83610a87565b946020939093013593505050565b60008060408385031215610ae057600080fd5b610ae983610a87565b9150610af760208401610a87565b90509250929050565b600060208284031215610b1257600080fd5b5051919050565b80820180821115610b3a57634e487b7160e01b600052601160045260246000fd5b92915050565b60008060408385031215610b5357600080fd5b50508051602090910151909290915056fea2646970667358221220cd47de04de13bc233f49f49f241ebf8f4557ebb88206988f0df28665e5ac368764736f6c63430008180033","opcodes":"PUSH1 0xC0 PUSH1 0x40 MSTORE CALLVALUE DUP1 ISZERO PUSH2 0x10 JUMPI PUSH1 0x0 DUP1 REVERT JUMPDEST POP PUSH1 0x40 MLOAD PUSH2 0xCEF CODESIZE SUB DUP1 PUSH2 0xCEF DUP4 CODECOPY DUP2 ADD PUSH1 0x40 DUP2 SWAP1 MSTORE PUSH2 0x2F SWAP2 PUSH2 0xD3 JUMP JUMPDEST PUSH1 0x1 PUSH32 0x9B779B17422D0DF92223018B32B4D1FA46E071723D6817E2486D003BECC55F00 SSTORE PUSH1 0x1 PUSH1 0x1 PUSH1 0xA0 SHL SUB DUP3 AND ISZERO DUP1 PUSH2 0x70 JUMPI POP PUSH1 0x1 PUSH1 0x1 PUSH1 0xA0 SHL SUB DUP2 AND ISZERO JUMPDEST ISZERO PUSH2 0x8E JUMPI PUSH1 0x40 MLOAD PUSH4 0xD92E233D PUSH1 0xE0 SHL DUP2 MSTORE PUSH1 0x4 ADD PUSH1 0x40 MLOAD DUP1 SWAP2 SUB SWAP1 REVERT JUMPDEST PUSH1 0x1 PUSH1 0x1 PUSH1 0xA0 SHL SUB SWAP2 DUP3 AND PUSH1 0x80 MSTORE AND PUSH1 0xA0 MSTORE PUSH1 0x1 DUP1 SLOAD PUSH1 0x1 PUSH1 0x1 PUSH1 0xA0 SHL SUB NOT AND CALLER OR SWAP1 SSTORE PUSH2 0x106 JUMP JUMPDEST DUP1 MLOAD PUSH1 0x1 PUSH1 0x1 PUSH1 0xA0 SHL SUB DUP2 AND DUP2 EQ PUSH2 0xCE JUMPI PUSH1 0x0 DUP1 REVERT JUMPDEST SWAP2 SWAP1 POP JUMP JUMPDEST PUSH1 0x0 DUP1 PUSH1 0x40 DUP4 DUP6 SUB SLT ISZERO PUSH2 0xE6 JUMPI PUSH1 0x0 DUP1 REVERT JUMPDEST PUSH2 0xEF DUP4 PUSH2 0xB7 JUMP JUMPDEST SWAP2 POP PUSH2 0xFD PUSH1 0x20 DUP5 ADD PUSH2 0xB7 JUMP JUMPDEST SWAP1 POP SWAP3 POP SWAP3 SWAP1 POP JUMP JUMPDEST PUSH1 0x80 MLOAD PUSH1 0xA0 MLOAD PUSH2 0xB9A PUSH2 0x155 PUSH1 0x0 CODECOPY PUSH1 0x0 DUP2 DUP2 PUSH2 0x10F ADD MSTORE DUP2 DUP2 PUSH2 0x32A ADD MSTORE DUP2 DUP2 PUSH2 0x40B ADD MSTORE PUSH2 0x5D0 ADD MSTORE PUSH1 0x0 DUP2 DUP2 PUSH2 0x14E ADD MSTORE DUP2 DUP2 PUSH2 0x3D1 ADD MSTORE DUP2 DUP2 PUSH2 0x595 ADD MSTORE PUSH2 0x7B3 ADD MSTORE PUSH2 0xB9A PUSH1 0x0 RETURN INVALID PUSH1 0x80 PUSH1 0x40 MSTORE CALLVALUE DUP1 ISZERO PUSH2 0x10 JUMPI PUSH1 0x0 DUP1 REVERT JUMPDEST POP PUSH1 0x4 CALLDATASIZE LT PUSH2 0xEA JUMPI PUSH1 0x0 CALLDATALOAD PUSH1 0xE0 SHR DUP1 PUSH4 0xB3906098 GT PUSH2 0x8C JUMPI DUP1 PUSH4 0xD77AB172 GT PUSH2 0x66 JUMPI DUP1 PUSH4 0xD77AB172 EQ PUSH2 0x1FD JUMPI DUP1 PUSH4 0xE470D5CF EQ PUSH2 0x210 JUMPI DUP1 PUSH4 0xEE3B038F EQ PUSH2 0x223 JUMPI DUP1 PUSH4 0xF851A440 EQ PUSH2 0x236 JUMPI PUSH1 0x0 DUP1 REVERT JUMPDEST DUP1 PUSH4 0xB3906098 EQ PUSH2 0x1A9 JUMPI DUP1 PUSH4 0xB6635BE6 EQ PUSH2 0x1C6 JUMPI DUP1 PUSH4 0xD33219B4 EQ PUSH2 0x1EA JUMPI PUSH1 0x0 DUP1 REVERT JUMPDEST DUP1 PUSH4 0x41A22CC2 GT PUSH2 0xC8 JUMPI DUP1 PUSH4 0x41A22CC2 EQ PUSH2 0x170 JUMPI DUP1 PUSH4 0x43B63B9D EQ PUSH2 0x185 JUMPI DUP1 PUSH4 0x8AEA8F71 EQ PUSH2 0x18E JUMPI DUP1 PUSH4 0x8CD4426D EQ PUSH2 0x196 JUMPI PUSH1 0x0 DUP1 REVERT JUMPDEST DUP1 PUSH4 0x4F8C8B3 EQ PUSH2 0xEF JUMPI DUP1 PUSH4 0x2ACFBCA3 EQ PUSH2 0x10A JUMPI DUP1 PUSH4 0x2F48AB7D EQ PUSH2 0x149 JUMPI JUMPDEST PUSH1 0x0 DUP1 REVERT JUMPDEST PUSH2 0xF7 PUSH2 0x249 JUMP JUMPDEST PUSH1 0x40 MLOAD SWAP1 DUP2 MSTORE PUSH1 0x20 ADD JUMPDEST PUSH1 0x40 MLOAD DUP1 SWAP2 SUB SWAP1 RETURN JUMPDEST PUSH2 0x131 PUSH32 0x0 DUP2 JUMP JUMPDEST PUSH1 0x40 MLOAD PUSH1 0x1 PUSH1 0x1 PUSH1 0xA0 SHL SUB SWAP1 SWAP2 AND DUP2 MSTORE PUSH1 0x20 ADD PUSH2 0x101 JUMP JUMPDEST PUSH2 0x131 PUSH32 0x0 DUP2 JUMP JUMPDEST PUSH2 0x183 PUSH2 0x17E CALLDATASIZE PUSH1 0x4 PUSH2 0xA6E JUMP JUMPDEST PUSH2 0x2C6 JUMP JUMPDEST STOP JUMPDEST PUSH2 0xF7 PUSH1 0x3 SLOAD DUP2 JUMP JUMPDEST PUSH2 0x183 PUSH2 0x4ED JUMP JUMPDEST PUSH2 0x183 PUSH2 0x1A4 CALLDATASIZE PUSH1 0x4 PUSH2 0xAA3 JUMP JUMPDEST PUSH2 0x568 JUMP JUMPDEST PUSH2 0x1B1 PUSH2 0x683 JUMP JUMPDEST PUSH1 0x40 DUP1 MLOAD SWAP3 DUP4 MSTORE PUSH1 0x20 DUP4 ADD SWAP2 SWAP1 SWAP2 MSTORE ADD PUSH2 0x101 JUMP JUMPDEST PUSH1 0x2 SLOAD PUSH2 0x1DA SWAP1 PUSH1 0x1 PUSH1 0xA0 SHL SWAP1 DIV PUSH1 0xFF AND DUP2 JUMP JUMPDEST PUSH1 0x40 MLOAD SWAP1 ISZERO ISZERO DUP2 MSTORE PUSH1 0x20 ADD PUSH2 0x101 JUMP JUMPDEST PUSH1 0x2 SLOAD PUSH2 0x131 SWAP1 PUSH1 0x1 PUSH1 0x1 PUSH1 0xA0 SHL SUB AND DUP2 JUMP JUMPDEST PUSH1 0x0 SLOAD PUSH2 0x131 SWAP1 PUSH1 0x1 PUSH1 0x1 PUSH1 0xA0 SHL SUB AND DUP2 JUMP JUMPDEST PUSH2 0x183 PUSH2 0x21E CALLDATASIZE PUSH1 0x4 PUSH2 0xACD JUMP JUMPDEST PUSH2 0x6F5 JUMP JUMPDEST PUSH2 0x183 PUSH2 0x231 CALLDATASIZE PUSH1 0x4 PUSH2 0xA6E JUMP JUMPDEST PUSH2 0x779 JUMP JUMPDEST PUSH1 0x1 SLOAD PUSH2 0x131 SWAP1 PUSH1 0x1 PUSH1 0x1 PUSH1 0xA0 SHL SUB AND DUP2 JUMP JUMPDEST PUSH1 0x0 DUP1 PUSH1 0x0 SWAP1 SLOAD SWAP1 PUSH2 0x100 EXP SWAP1 DIV PUSH1 0x1 PUSH1 0x1 PUSH1 0xA0 SHL SUB AND PUSH1 0x1 PUSH1 0x1 PUSH1 0xA0 SHL SUB AND PUSH4 0x98D5FDCA PUSH1 0x40 MLOAD DUP2 PUSH4 0xFFFFFFFF AND PUSH1 0xE0 SHL DUP2 MSTORE PUSH1 0x4 ADD PUSH1 0x20 PUSH1 0x40 MLOAD DUP1 DUP4 SUB DUP2 DUP7 GAS STATICCALL ISZERO DUP1 ISZERO PUSH2 0x29D JUMPI RETURNDATASIZE PUSH1 0x0 DUP1 RETURNDATACOPY RETURNDATASIZE PUSH1 0x0 REVERT JUMPDEST POP POP POP POP PUSH1 0x40 MLOAD RETURNDATASIZE PUSH1 0x1F NOT PUSH1 0x1F DUP3 ADD AND DUP3 ADD DUP1 PUSH1 0x40 MSTORE POP DUP2 ADD SWAP1 PUSH2 0x2C1 SWAP2 SWAP1 PUSH2 0xB00 JUMP JUMPDEST SWAP1 POP SWAP1 JUMP JUMPDEST PUSH1 0x1 SLOAD PUSH1 0x1 PUSH1 0x1 PUSH1 0xA0 SHL SUB AND CALLER EQ PUSH2 0x2F1 JUMPI PUSH1 0x40 MLOAD PUSH4 0x47556579 PUSH1 0xE0 SHL DUP2 MSTORE PUSH1 0x4 ADD PUSH1 0x40 MLOAD DUP1 SWAP2 SUB SWAP1 REVERT JUMPDEST DUP1 PUSH1 0x0 SUB PUSH2 0x312 JUMPI PUSH1 0x40 MLOAD PUSH4 0x1F2A2005 PUSH1 0xE0 SHL DUP2 MSTORE PUSH1 0x4 ADD PUSH1 0x40 MLOAD DUP1 SWAP2 SUB SWAP1 REVERT JUMPDEST PUSH1 0x40 MLOAD PUSH4 0x70A08231 PUSH1 0xE0 SHL DUP2 MSTORE ADDRESS PUSH1 0x4 DUP3 ADD MSTORE PUSH1 0x0 SWAP1 PUSH32 0x0 PUSH1 0x1 PUSH1 0x1 PUSH1 0xA0 SHL SUB AND SWAP1 PUSH4 0x70A08231 SWAP1 PUSH1 0x24 ADD PUSH1 0x20 PUSH1 0x40 MLOAD DUP1 DUP4 SUB DUP2 DUP7 GAS STATICCALL ISZERO DUP1 ISZERO PUSH2 0x379 JUMPI RETURNDATASIZE PUSH1 0x0 DUP1 RETURNDATACOPY RETURNDATASIZE PUSH1 0x0 REVERT JUMPDEST POP POP POP POP PUSH1 0x40 MLOAD RETURNDATASIZE PUSH1 0x1F NOT PUSH1 0x1F DUP3 ADD AND DUP3 ADD DUP1 PUSH1 0x40 MSTORE POP DUP2 ADD SWAP1 PUSH2 0x39D SWAP2 SWAP1 PUSH2 0xB00 JUMP JUMPDEST SWAP1 POP DUP1 PUSH1 0x0 SUB PUSH2 0x3C0 JUMPI PUSH1 0x40 MLOAD PUSH4 0x1F2A2005 PUSH1 0xE0 SHL DUP2 MSTORE PUSH1 0x4 ADD PUSH1 0x40 MLOAD DUP1 SWAP2 SUB SWAP1 REVERT JUMPDEST PUSH1 0x0 SLOAD PUSH2 0x3FA SWAP1 PUSH1 0x1 PUSH1 0x1 PUSH1 0xA0 SHL SUB PUSH32 0x0 DUP2 AND SWAP2 AND DUP5 PUSH2 0x8B6 JUMP JUMPDEST PUSH1 0x0 SLOAD PUSH2 0x434 SWAP1 PUSH1 0x1 PUSH1 0x1 PUSH1 0xA0 SHL SUB PUSH32 0x0 DUP2 AND SWAP2 AND DUP4 PUSH2 0x8B6 JUMP JUMPDEST PUSH1 0x0 SLOAD PUSH1 0x40 MLOAD PUSH4 0xA40F4FA1 PUSH1 0xE0 SHL DUP2 MSTORE PUSH1 0x4 DUP2 ADD DUP5 SWAP1 MSTORE PUSH1 0x24 DUP2 ADD DUP4 SWAP1 MSTORE PUSH1 0x1 PUSH1 0x1 PUSH1 0xA0 SHL SUB SWAP1 SWAP2 AND SWAP1 PUSH4 0xA40F4FA1 SWAP1 PUSH1 0x44 ADD PUSH1 0x0 PUSH1 0x40 MLOAD DUP1 DUP4 SUB DUP2 PUSH1 0x0 DUP8 DUP1 EXTCODESIZE ISZERO DUP1 ISZERO PUSH2 0x481 JUMPI PUSH1 0x0 DUP1 REVERT JUMPDEST POP GAS CALL ISZERO DUP1 ISZERO PUSH2 0x495 JUMPI RETURNDATASIZE PUSH1 0x0 DUP1 RETURNDATACOPY RETURNDATASIZE PUSH1 0x0 REVERT JUMPDEST POP POP POP POP DUP2 PUSH1 0x3 PUSH1 0x0 DUP3 DUP3 SLOAD PUSH2 0x4AB SWAP2 SWAP1 PUSH2 0xB19 JUMP JUMPDEST SWAP1 SWAP2 SSTORE POP POP PUSH1 0x40 DUP1 MLOAD DUP4 DUP2 MSTORE PUSH1 0x20 DUP2 ADD DUP4 SWAP1 MSTORE PUSH32 0x38F8A0C92F4C5B0B6877F878CB4C0C8D348A47B76D716C8E78F425043DF9515B SWAP2 ADD PUSH1 0x40 MLOAD DUP1 SWAP2 SUB SWAP1 LOG1 POP POP JUMP JUMPDEST PUSH1 0x1 SLOAD PUSH1 0x1 PUSH1 0x1 PUSH1 0xA0 SHL SUB AND CALLER EQ PUSH2 0x518 JUMPI PUSH1 0x40 MLOAD PUSH4 0x47556579 PUSH1 0xE0 SHL DUP2 MSTORE PUSH1 0x4 ADD PUSH1 0x40 MLOAD DUP1 SWAP2 SUB SWAP1 REVERT JUMPDEST PUSH1 0x2 SLOAD PUSH1 0x1 PUSH1 0xA0 SHL SWAP1 DIV PUSH1 0xFF AND ISZERO PUSH2 0x543 JUMPI PUSH1 0x40 MLOAD PUSH4 0x238F75D3 PUSH1 0xE0 SHL DUP2 MSTORE PUSH1 0x4 ADD PUSH1 0x40 MLOAD DUP1 SWAP2 SUB SWAP1 REVERT JUMPDEST PUSH1 0x2 DUP1 SLOAD PUSH1 0xFF PUSH1 0xA0 SHL NOT AND PUSH1 0x1 PUSH1 0xA0 SHL OR SWAP1 SSTORE PUSH1 0x1 DUP1 SLOAD PUSH1 0x1 PUSH1 0x1 PUSH1 0xA0 SHL SUB NOT AND SWAP1 SSTORE JUMP JUMPDEST PUSH1 0x2 SLOAD PUSH1 0x1 PUSH1 0x1 PUSH1 0xA0 SHL SUB AND CALLER EQ PUSH2 0x593 JUMPI PUSH1 0x40 MLOAD PUSH4 0xE05F485 PUSH1 0xE1 SHL DUP2 MSTORE PUSH1 0x4 ADD PUSH1 0x40 MLOAD DUP1 SWAP2 SUB SWAP1 REVERT JUMPDEST PUSH32 0x0 PUSH1 0x1 PUSH1 0x1 PUSH1 0xA0 SHL SUB AND DUP3 PUSH1 0x1 PUSH1 0x1 PUSH1 0xA0 SHL SUB AND EQ DUP1 PUSH2 0x604 JUMPI POP PUSH32 0x0 PUSH1 0x1 PUSH1 0x1 PUSH1 0xA0 SHL SUB AND DUP3 PUSH1 0x1 PUSH1 0x1 PUSH1 0xA0 SHL SUB AND EQ JUMPDEST ISZERO PUSH2 0x622 JUMPI PUSH1 0x40 MLOAD PUSH4 0x11C9C0E3 PUSH1 0xE0 SHL DUP2 MSTORE PUSH1 0x4 ADD PUSH1 0x40 MLOAD DUP1 SWAP2 SUB SWAP1 REVERT JUMPDEST PUSH1 0x2 SLOAD PUSH2 0x63C SWAP1 PUSH1 0x1 PUSH1 0x1 PUSH1 0xA0 SHL SUB DUP5 DUP2 AND SWAP2 AND DUP4 PUSH2 0x93C JUMP JUMPDEST DUP2 PUSH1 0x1 PUSH1 0x1 PUSH1 0xA0 SHL SUB AND PUSH32 0x68F67DE89E96B13A3EA058AF5FD44CC125EFCEB528482D539C7B43DB2FAA066E DUP3 PUSH1 0x40 MLOAD PUSH2 0x677 SWAP2 DUP2 MSTORE PUSH1 0x20 ADD SWAP1 JUMP JUMPDEST PUSH1 0x40 MLOAD DUP1 SWAP2 SUB SWAP1 LOG2 POP POP JUMP JUMPDEST PUSH1 0x0 DUP1 SLOAD PUSH1 0x40 DUP1 MLOAD PUSH4 0x240BC6B PUSH1 0xE2 SHL DUP2 MSTORE DUP2 MLOAD DUP5 SWAP4 PUSH1 0x1 PUSH1 0x1 PUSH1 0xA0 SHL SUB AND SWAP3 PUSH4 0x902F1AC SWAP3 PUSH1 0x4 DUP1 DUP3 ADD SWAP4 SWAP2 DUP3 SWAP1 SUB ADD DUP2 DUP7 GAS STATICCALL ISZERO DUP1 ISZERO PUSH2 0x6C9 JUMPI RETURNDATASIZE PUSH1 0x0 DUP1 RETURNDATACOPY RETURNDATASIZE PUSH1 0x0 REVERT JUMPDEST POP POP POP POP PUSH1 0x40 MLOAD RETURNDATASIZE PUSH1 0x1F NOT PUSH1 0x1F DUP3 ADD AND DUP3 ADD DUP1 PUSH1 0x40 MSTORE POP DUP2 ADD SWAP1 PUSH2 0x6ED SWAP2 SWAP1 PUSH2 0xB40 JUMP JUMPDEST SWAP2 POP SWAP2 POP SWAP1 SWAP2 JUMP JUMPDEST PUSH1 0x1 SLOAD PUSH1 0x1 PUSH1 0x1 PUSH1 0xA0 SHL SUB AND CALLER EQ PUSH2 0x720 JUMPI PUSH1 0x40 MLOAD PUSH4 0x47556579 PUSH1 0xE0 SHL DUP2 MSTORE PUSH1 0x4 ADD PUSH1 0x40 MLOAD DUP1 SWAP2 SUB SWAP1 REVERT JUMPDEST PUSH1 0x2 SLOAD PUSH1 0x1 PUSH1 0xA0 SHL SWAP1 DIV PUSH1 0xFF AND ISZERO PUSH2 0x74B JUMPI PUSH1 0x40 MLOAD PUSH4 0x238F75D3 PUSH1 0xE0 SHL DUP2 MSTORE PUSH1 0x4 ADD PUSH1 0x40 MLOAD DUP1 SWAP2 SUB SWAP1 REVERT JUMPDEST PUSH1 0x2 DUP1 SLOAD PUSH1 0x1 PUSH1 0x1 PUSH1 0xA0 SHL SUB SWAP4 DUP5 AND PUSH1 0x1 PUSH1 0x1 PUSH1 0xA0 SHL SUB NOT SWAP2 DUP3 AND OR SWAP1 SWAP2 SSTORE PUSH1 0x0 DUP1 SLOAD SWAP3 SWAP1 SWAP4 AND SWAP2 AND OR SWAP1 SSTORE JUMP JUMPDEST PUSH2 0x781 PUSH2 0x949 JUMP JUMPDEST DUP1 PUSH1 0x0 SUB PUSH2 0x7A2 JUMPI PUSH1 0x40 MLOAD PUSH4 0x1F2A2005 PUSH1 0xE0 SHL DUP2 MSTORE PUSH1 0x4 ADD PUSH1 0x40 MLOAD DUP1 SWAP2 SUB SWAP1 REVERT JUMPDEST PUSH1 0x0 SLOAD PUSH2 0x7DC SWAP1 PUSH1 0x1 PUSH1 0x1 PUSH1 0xA0 SHL SUB PUSH32 0x0 DUP2 AND SWAP2 AND DUP4 PUSH2 0x8B6 JUMP JUMPDEST PUSH1 0x0 SLOAD PUSH1 0x40 MLOAD PUSH4 0xEE3B038F PUSH1 0xE0 SHL DUP2 MSTORE PUSH1 0x4 DUP2 ADD DUP4 SWAP1 MSTORE PUSH1 0x1 PUSH1 0x1 PUSH1 0xA0 SHL SUB SWAP1 SWAP2 AND SWAP1 PUSH4 0xEE3B038F SWAP1 PUSH1 0x24 ADD PUSH1 0x0 PUSH1 0x40 MLOAD DUP1 DUP4 SUB DUP2 PUSH1 0x0 DUP8 DUP1 EXTCODESIZE ISZERO DUP1 ISZERO PUSH2 0x822 JUMPI PUSH1 0x0 DUP1 REVERT JUMPDEST POP GAS CALL ISZERO DUP1 ISZERO PUSH2 0x836 JUMPI RETURNDATASIZE PUSH1 0x0 DUP1 RETURNDATACOPY RETURNDATASIZE PUSH1 0x0 REVERT JUMPDEST POP POP POP POP DUP1 PUSH1 0x3 PUSH1 0x0 DUP3 DUP3 SLOAD PUSH2 0x84C SWAP2 SWAP1 PUSH2 0xB19 JUMP JUMPDEST SWAP1 SWAP2 SSTORE POP POP PUSH1 0x40 DUP1 MLOAD DUP3 DUP2 MSTORE PUSH1 0x0 PUSH1 0x20 DUP3 ADD MSTORE PUSH32 0x38F8A0C92F4C5B0B6877F878CB4C0C8D348A47B76D716C8E78F425043DF9515B SWAP2 ADD PUSH1 0x40 MLOAD DUP1 SWAP2 SUB SWAP1 LOG1 PUSH2 0x8B3 PUSH1 0x1 PUSH32 0x9B779B17422D0DF92223018B32B4D1FA46E071723D6817E2486D003BECC55F00 SSTORE JUMP JUMPDEST POP JUMP JUMPDEST PUSH2 0x8C3 DUP4 DUP4 DUP4 PUSH1 0x0 PUSH2 0x977 JUMP JUMPDEST PUSH2 0x937 JUMPI PUSH2 0x8D5 DUP4 DUP4 PUSH1 0x0 PUSH1 0x1 PUSH2 0x977 JUMP JUMPDEST PUSH2 0x902 JUMPI PUSH1 0x40 MLOAD PUSH4 0x5274AFE7 PUSH1 0xE0 SHL DUP2 MSTORE PUSH1 0x1 PUSH1 0x1 PUSH1 0xA0 SHL SUB DUP5 AND PUSH1 0x4 DUP3 ADD MSTORE PUSH1 0x24 ADD JUMPDEST PUSH1 0x40 MLOAD DUP1 SWAP2 SUB SWAP1 REVERT JUMPDEST PUSH2 0x90F DUP4 DUP4 DUP4 PUSH1 0x1 PUSH2 0x977 JUMP JUMPDEST PUSH2 0x937 JUMPI PUSH1 0x40 MLOAD PUSH4 0x5274AFE7 PUSH1 0xE0 SHL DUP2 MSTORE PUSH1 0x1 PUSH1 0x1 PUSH1 0xA0 SHL SUB DUP5 AND PUSH1 0x4 DUP3 ADD MSTORE PUSH1 0x24 ADD PUSH2 0x8F9 JUMP JUMPDEST POP POP POP JUMP JUMPDEST PUSH2 0x90F DUP4 DUP4 DUP4 PUSH1 0x1 PUSH2 0x9DD JUMP JUMPDEST PUSH2 0x951 PUSH2 0xA2A JUMP JUMPDEST PUSH1 0x2 PUSH32 0x9B779B17422D0DF92223018B32B4D1FA46E071723D6817E2486D003BECC55F00 SSTORE JUMP JUMPDEST PUSH1 0x40 MLOAD PUSH4 0x95EA7B3 PUSH1 0xE0 SHL PUSH1 0x0 DUP2 DUP2 MSTORE PUSH1 0x1 PUSH1 0x1 PUSH1 0xA0 SHL SUB DUP7 AND PUSH1 0x4 MSTORE PUSH1 0x24 DUP6 SWAP1 MSTORE SWAP2 PUSH1 0x20 DUP4 PUSH1 0x44 DUP2 DUP1 DUP12 GAS CALL SWAP3 POP PUSH1 0x1 PUSH1 0x0 MLOAD EQ DUP4 AND PUSH2 0x9D1 JUMPI DUP4 DUP4 ISZERO AND ISZERO PUSH2 0x9C4 JUMPI RETURNDATASIZE PUSH1 0x0 DUP3 RETURNDATACOPY RETURNDATASIZE DUP2 REVERT JUMPDEST PUSH1 0x0 DUP8 EXTCODESIZE GT RETURNDATASIZE ISZERO AND DUP4 AND SWAP3 POP JUMPDEST PUSH1 0x40 MSTORE POP SWAP5 SWAP4 POP POP POP POP JUMP JUMPDEST PUSH1 0x40 MLOAD PUSH4 0xA9059CBB PUSH1 0xE0 SHL PUSH1 0x0 DUP2 DUP2 MSTORE PUSH1 0x1 PUSH1 0x1 PUSH1 0xA0 SHL SUB DUP7 AND PUSH1 0x4 MSTORE PUSH1 0x24 DUP6 SWAP1 MSTORE SWAP2 PUSH1 0x20 DUP4 PUSH1 0x44 DUP2 DUP1 DUP12 GAS CALL SWAP3 POP PUSH1 0x1 PUSH1 0x0 MLOAD EQ DUP4 AND PUSH2 0x9D1 JUMPI DUP4 DUP4 ISZERO AND ISZERO PUSH2 0x9C4 JUMPI RETURNDATASIZE PUSH1 0x0 DUP3 RETURNDATACOPY RETURNDATASIZE DUP2 REVERT JUMPDEST PUSH32 0x9B779B17422D0DF92223018B32B4D1FA46E071723D6817E2486D003BECC55F00 SLOAD PUSH1 0x2 SUB PUSH2 0xA6C JUMPI PUSH1 0x40 MLOAD PUSH4 0x3EE5AEB5 PUSH1 0xE0 SHL DUP2 MSTORE PUSH1 0x4 ADD PUSH1 0x40 MLOAD DUP1 SWAP2 SUB SWAP1 REVERT JUMPDEST JUMP JUMPDEST PUSH1 0x0 PUSH1 0x20 DUP3 DUP5 SUB SLT ISZERO PUSH2 0xA80 JUMPI PUSH1 0x0 DUP1 REVERT JUMPDEST POP CALLDATALOAD SWAP2 SWAP1 POP JUMP JUMPDEST DUP1 CALLDATALOAD PUSH1 0x1 PUSH1 0x1 PUSH1 0xA0 SHL SUB DUP2 AND DUP2 EQ PUSH2 0xA9E JUMPI PUSH1 0x0 DUP1 REVERT JUMPDEST SWAP2 SWAP1 POP JUMP JUMPDEST PUSH1 0x0 DUP1 PUSH1 0x40 DUP4 DUP6 SUB SLT ISZERO PUSH2 0xAB6 JUMPI PUSH1 0x0 DUP1 REVERT JUMPDEST PUSH2 0xABF DUP4 PUSH2 0xA87 JUMP JUMPDEST SWAP5 PUSH1 0x20 SWAP4 SWAP1 SWAP4 ADD CALLDATALOAD SWAP4 POP POP POP JUMP JUMPDEST PUSH1 0x0 DUP1 PUSH1 0x40 DUP4 DUP6 SUB SLT ISZERO PUSH2 0xAE0 JUMPI PUSH1 0x0 DUP1 REVERT JUMPDEST PUSH2 0xAE9 DUP4 PUSH2 0xA87 JUMP JUMPDEST SWAP2 POP PUSH2 0xAF7 PUSH1 0x20 DUP5 ADD PUSH2 0xA87 JUMP JUMPDEST SWAP1 POP SWAP3 POP SWAP3 SWAP1 POP JUMP JUMPDEST PUSH1 0x0 PUSH1 0x20 DUP3 DUP5 SUB SLT ISZERO PUSH2 0xB12 JUMPI PUSH1 0x0 DUP1 REVERT JUMPDEST POP MLOAD SWAP2 SWAP1 POP JUMP JUMPDEST DUP1 DUP3 ADD DUP1 DUP3 GT ISZERO PUSH2 0xB3A JUMPI PUSH4 0x4E487B71 PUSH1 0xE0 SHL PUSH1 0x0 MSTORE PUSH1 0x11 PUSH1 0x4 MSTORE PUSH1 0x24 PUSH1 0x0 REVERT JUMPDEST SWAP3 SWAP2 POP POP JUMP JUMPDEST PUSH1 0x0 DUP1 PUSH1 0x40 DUP4 DUP6 SUB SLT ISZERO PUSH2 0xB53 JUMPI PUSH1 0x0 DUP1 REVERT JUMPDEST POP POP DUP1 MLOAD PUSH1 0x20 SWAP1 SWAP2 ADD MLOAD SWAP1 SWAP3 SWAP1 SWAP2 POP JUMP INVALID LOG2 PUSH5 0x6970667358 0x22 SLT KECCAK256 0xCD SELFBALANCE 0xDE DIV 0xDE SGT 0xBC 0x23 EXTCODEHASH BLOBHASH DELEGATECALL SWAP16 0x24 0x1E 0xBF DUP16 GASLIMIT JUMPI 0xEB 0xB8 DUP3 MOD SWAP9 DUP16 0xD CALLCODE DUP7 PUSH6 0xE5AC36876473 PUSH16 0x6C634300081800330000000000000000 "},"methodIdentifiers":{"addInitialLiquidity(uint256)":"41a22cc2","addLiquidityFromFees(uint256)":"ee3b038f","admin()":"f851a440","completeSetup()":"8aea8f71","configure(address,address)":"e470d5cf","getDEXReserves()":"b3906098","getOSLOPrice()":"04f8c8b3","osloToken()":"2acfbca3","oslodex()":"d77ab172","rescueERC20(address,uint256)":"8cd4426d","setupComplete()":"b6635be6","timelock()":"d33219b4","totalLiquidityAdded()":"43b63b9d","usdt()":"2f48ab7d"}}}}}