{"contracts/OSLORankSystem.sol":{"OSLORankSystem":{"abi":[{"inputs":[{"internalType":"address","name":"_usdt","type":"address"}],"stateMutability":"nonpayable","type":"constructor"},{"inputs":[],"name":"AlreadyClaimed","type":"error"},{"inputs":[],"name":"CurrentWeekNotClaimable","type":"error"},{"inputs":[],"name":"InsufficientBonusPool","type":"error"},{"inputs":[],"name":"NoBonus","type":"error"},{"inputs":[],"name":"OnlyAdmin","type":"error"},{"inputs":[],"name":"OnlyTimelock","type":"error"},{"inputs":[],"name":"ReentrancyGuardReentrantCall","type":"error"},{"inputs":[{"internalType":"address","name":"token","type":"address"}],"name":"SafeERC20FailedOperation","type":"error"},{"inputs":[],"name":"SetupAlreadyComplete","type":"error"},{"inputs":[],"name":"ZeroAddress","type":"error"},{"anonymous":false,"inputs":[{"indexed":false,"internalType":"uint256","name":"amount","type":"uint256"}],"name":"BonusPoolFunded","type":"event"},{"anonymous":false,"inputs":[{"indexed":true,"internalType":"address","name":"user","type":"address"},{"indexed":false,"internalType":"uint256","name":"rank","type":"uint256"},{"indexed":false,"internalType":"uint256","name":"weekId","type":"uint256"},{"indexed":false,"internalType":"uint256","name":"turnover","type":"uint256"}],"name":"RankAchieved","type":"event"},{"anonymous":false,"inputs":[{"indexed":true,"internalType":"address","name":"user","type":"address"},{"indexed":false,"internalType":"uint256","name":"amount","type":"uint256"},{"indexed":false,"internalType":"uint256","name":"weekId","type":"uint256"}],"name":"RankBonusClaimed","type":"event"},{"anonymous":false,"inputs":[{"indexed":true,"internalType":"address","name":"user","type":"address"},{"indexed":false,"internalType":"uint256","name":"amount","type":"uint256"},{"indexed":false,"internalType":"uint256","name":"weekId","type":"uint256"}],"name":"TurnoverRecorded","type":"event"},{"inputs":[],"name":"admin","outputs":[{"internalType":"address","name":"","type":"address"}],"stateMutability":"view","type":"function"},{"inputs":[],"name":"bonusPoolBalance","outputs":[{"internalType":"uint256","name":"","type":"uint256"}],"stateMutability":"view","type":"function"},{"inputs":[],"name":"claimRankBonus","outputs":[],"stateMutability":"nonpayable","type":"function"},{"inputs":[],"name":"completeSetup","outputs":[],"stateMutability":"nonpayable","type":"function"},{"inputs":[{"internalType":"address","name":"_investmentEngine","type":"address"},{"internalType":"address","name":"_referral","type":"address"},{"internalType":"address","name":"_timelock","type":"address"}],"name":"configure","outputs":[],"stateMutability":"nonpayable","type":"function"},{"inputs":[],"name":"genesisTimestamp","outputs":[{"internalType":"uint256","name":"","type":"uint256"}],"stateMutability":"view","type":"function"},{"inputs":[{"internalType":"address","name":"user","type":"address"}],"name":"getCurrentRank","outputs":[{"internalType":"uint256","name":"","type":"uint256"}],"stateMutability":"view","type":"function"},{"inputs":[],"name":"getCurrentWeekId","outputs":[{"internalType":"uint256","name":"","type":"uint256"}],"stateMutability":"view","type":"function"},{"inputs":[{"internalType":"address","name":"user","type":"address"},{"internalType":"uint256","name":"weekId","type":"uint256"},{"internalType":"address","name":"leg","type":"address"}],"name":"getLegTurnover","outputs":[{"internalType":"uint256","name":"","type":"uint256"}],"stateMutability":"view","type":"function"},{"inputs":[{"internalType":"address","name":"user","type":"address"}],"name":"getPendingBonus","outputs":[{"internalType":"uint256","name":"","type":"uint256"}],"stateMutability":"view","type":"function"},{"inputs":[{"internalType":"address","name":"user","type":"address"},{"internalType":"uint256","name":"weekId","type":"uint256"}],"name":"getWeeklyTurnover","outputs":[{"internalType":"uint256","name":"","type":"uint256"}],"stateMutability":"view","type":"function"},{"inputs":[],"name":"investmentEngine","outputs":[{"internalType":"address","name":"","type":"address"}],"stateMutability":"view","type":"function"},{"inputs":[{"internalType":"address","name":"user","type":"address"}],"name":"isRankQualified","outputs":[{"internalType":"bool","name":"","type":"bool"}],"stateMutability":"view","type":"function"},{"inputs":[{"internalType":"address","name":"","type":"address"},{"internalType":"uint256","name":"","type":"uint256"},{"internalType":"address","name":"","type":"address"}],"name":"legTurnover","outputs":[{"internalType":"uint256","name":"","type":"uint256"}],"stateMutability":"view","type":"function"},{"inputs":[{"internalType":"uint256","name":"amount","type":"uint256"}],"name":"receiveBonusPool","outputs":[],"stateMutability":"nonpayable","type":"function"},{"inputs":[{"internalType":"address","name":"user","type":"address"},{"internalType":"address","name":"leg","type":"address"},{"internalType":"uint256","name":"amount","type":"uint256"}],"name":"recordTurnover","outputs":[],"stateMutability":"nonpayable","type":"function"},{"inputs":[],"name":"referral","outputs":[{"internalType":"address","name":"","type":"address"}],"stateMutability":"view","type":"function"},{"inputs":[{"internalType":"address","name":"_investmentEngine","type":"address"}],"name":"setInvestmentEngine","outputs":[],"stateMutability":"nonpayable","type":"function"},{"inputs":[],"name":"setupComplete","outputs":[{"internalType":"bool","name":"","type":"bool"}],"stateMutability":"view","type":"function"},{"inputs":[],"name":"timelock","outputs":[{"internalType":"address","name":"","type":"address"}],"stateMutability":"view","type":"function"},{"inputs":[],"name":"totalBonusesDistributed","outputs":[{"internalType":"uint256","name":"","type":"uint256"}],"stateMutability":"view","type":"function"},{"inputs":[],"name":"usdt","outputs":[{"internalType":"contract IERC20","name":"","type":"address"}],"stateMutability":"view","type":"function"},{"inputs":[{"internalType":"address","name":"","type":"address"},{"internalType":"uint256","name":"","type":"uint256"}],"name":"weekBonusClaimed","outputs":[{"internalType":"bool","name":"","type":"bool"}],"stateMutability":"view","type":"function"},{"inputs":[{"internalType":"address","name":"","type":"address"},{"internalType":"uint256","name":"","type":"uint256"}],"name":"weeklyTurnoverData","outputs":[{"internalType":"uint256","name":"","type":"uint256"}],"stateMutability":"view","type":"function"}],"evm":{"bytecode":{"linkReferences":{},"object":"60c060405234801561001057600080fd5b506040516113d83803806113d883398101604081905261002f916100a5565b60017f9b779b17422d0df92223018b32b4d1fa46e071723d6817e2486d003becc55f00556001600160a01b03811661007a5760405163d92e233d60e01b815260040160405180910390fd5b6001600160a01b0316608052600280546001600160a01b03191633179055636592008060a0526100d5565b6000602082840312156100b757600080fd5b81516001600160a01b03811681146100ce57600080fd5b9392505050565b60805160a0516112c961010f6000396000818161034b015261091e0152600081816101bc015281816104c0015261076e01526112c96000f3fe608060405234801561001057600080fd5b50600436106101585760003560e01c8063952d4c01116100c3578063cb4f51d11161007c578063cb4f51d11461036d578063d31725cc14610380578063d33219b414610389578063d9bd5f2d1461039c578063f851a440146103af578063fc22833e146103c257600080fd5b8063952d4c01146102a8578063b594b0c7146102d6578063b6635be6146102e9578063b835f389146102fd578063bcd3321e1461033e578063cacf66ab1461034657600080fd5b806355d28f201161011557806355d28f201461021457806357cecd8b146102295780635b6bcf3b1461025457806388697547146102855780638aea8f71146102985780638b19d70e146102a057600080fd5b80631441a5a91461015d5780632409c9a91461018d57806329e9ad82146101ae5780632f48ab7d146101b75780632fe3c0cc146101de5780633013138414610201575b600080fd5b600154610170906001600160a01b031681565b6040516001600160a01b0390911681526020015b60405180910390f35b6101a061019b366004610ff8565b6103d5565b604051908152602001610184565b6101a060075481565b6101707f000000000000000000000000000000000000000000000000000000000000000081565b6101f16101ec366004611024565b610400565b6040519015158152602001610184565b600054610170906001600160a01b031681565b610227610222366004611041565b61041e565b005b6101a0610237366004610ff8565b600460209081526000928352604080842090915290825290205481565b6101a061026236600461108c565b600560209081526000938452604080852082529284528284209052825290205481565b6102276102933660046110c3565b6104b3565b610227610535565b6102276105b0565b6101f16102b6366004610ff8565b600660209081526000928352604080842090915290825290205460ff1681565b6101a06102e4366004611024565b6108ba565b6003546101f190600160a01b900460ff1681565b6101a061030b36600461108c565b6001600160a01b039283166000908152600560209081526040808320948352938152838220929094168152925290205490565b6101a0610913565b6101a07f000000000000000000000000000000000000000000000000000000000000000081565b61022761037b366004611024565b61095d565b6101a060085481565b600354610170906001600160a01b031681565b6102276103aa3660046110dc565b6109aa565b600254610170906001600160a01b031681565b6101a06103d0366004611024565b610a7f565b6001600160a01b03821660009081526004602090815260408083208484529091529020545b92915050565b60008061040b610913565b90506104178382610b6e565b9392505050565b6002546001600160a01b0316331461044957604051634755657960e01b815260040160405180910390fd5b600354600160a01b900460ff16156104745760405163238f75d360e01b815260040160405180910390fd5b600080546001600160a01b039485166001600160a01b031991821617909155600180549385169382169390931790925560038054919093169116179055565b6104e86001600160a01b037f000000000000000000000000000000000000000000000000000000000000000016333084610cf1565b80600760008282546104fa9190611133565b90915550506040518181527fe0489ce487df31ae7db1f183cd20f4589bfa5715c26827c41e89d4a4b11e4b079060200160405180910390a150565b6002546001600160a01b0316331461056057604051634755657960e01b815260040160405180910390fd5b600354600160a01b900460ff161561058b5760405163238f75d360e01b815260040160405180910390fd5b6003805460ff60a01b1916600160a01b179055600280546001600160a01b0319169055565b6105b8610d32565b60006105c2610913565b905060006105d1600183611146565b9050806000036105f457604051630330b36160e21b815260040160405180910390fd5b33600090815260066020908152604080832084845290915290205460ff161561063057604051630c8d9eab60e31b815260040160405180910390fd5b61063a3382610b6e565b61065757604051630330b36160e21b815260040160405180910390fd5b3360009081526004602090815260408083208484529091528120549061067c82610d60565b90508060000361069f57604051630330b36160e21b815260040160405180910390fd5b60006106aa82610e1a565b905060006127106106bb8386611159565b6106c59190611170565b9050806000036106e857604051630330b36160e21b815260040160405180910390fd5b60075481111561070b57604051631476485760e31b815260040160405180910390fd5b3360009081526006602090815260408083208884529091528120805460ff1916600117905560078054839290610742908490611146565b92505081905550806008600082825461075b9190611133565b9091555061079590506001600160a01b037f0000000000000000000000000000000000000000000000000000000000000000163383610e8c565b6000546001600160a01b03161561080b5760005460405163ac948e8360e01b8152336004820152602481018390526001600160a01b039091169063ac948e8390604401600060405180830381600087803b1580156107f257600080fd5b505af1158015610806573d6000803e3d6000fd5b505050505b604080518481526020810187905290810185905233907f3e7c6fa8ffec4566e8e55031ea1f71dee2bd6dfe73e926dfb6a8f9d449f3845c9060600160405180910390a2604080518281526020810187905233917fd5797264912088cd40b5265cc25f087a017182a84a0aacdca76ebbf8c0d04e89910160405180910390a25050505050506108b860017f9b779b17422d0df92223018b32b4d1fa46e071723d6817e2486d003becc55f0055565b565b6000806108c5610913565b90506108d18382610b6e565b6108de5750600092915050565b6001600160a01b038316600090815260046020908152604080832084845290915290205461090b81610d60565b949350505050565b600062093a806109437f000000000000000000000000000000000000000000000000000000000000000042611146565b61094d9190611170565b610958906001611133565b905090565b6003546001600160a01b0316331461098857604051630e05f48560e11b815260040160405180910390fd5b600080546001600160a01b0319166001600160a01b0392909216919091179055565b60006109b4610913565b6001600160a01b03851660009081526004602090815260408083208484529091528120805492935084929091906109ec908490611133565b90915550506001600160a01b038085166000908152600560209081526040808320858452825280832093871683529290529081208054849290610a30908490611133565b909155505060408051838152602081018390526001600160a01b038616917fd5d37757267f0f02fe273b0ead41331fe90ae635b0954da937d3454e9623daf4910160405180910390a250505050565b600080610a8a610913565b905060018111610a9d5750600092915050565b6000610aaa600183611146565b6001600160a01b038516600090815260066020908152604080832084845290915290205490915060ff1615610ae3575060009392505050565b610aed8482610b6e565b610afb575060009392505050565b6001600160a01b038416600090815260046020908152604080832084845290915281205490610b2982610d60565b905080600003610b3f5750600095945050505050565b6000610b4a82610e1a565b9050612710610b598285611159565b610b639190611170565b979650505050505050565b6001600160a01b0382166000908152600460209081526040808320848452909152812054808203610ba35760009150506103fa565b6001546001600160a01b0316610bbd5760019150506103fa565b60015460405163d2c8e0e560e01b81526001600160a01b038681166004830152600092169063d2c8e0e590602401600060405180830381865afa158015610c08573d6000803e3d6000fd5b505050506040513d6000823e601f3d908101601f19168201604052610c3091908101906111b8565b90508051600003610c46576000925050506103fa565b6000805b8251811015610ccc576001600160a01b0387166000908152600560209081526040808320898452909152812084518290869085908110610c8c57610c8c61127d565b60200260200101516001600160a01b03166001600160a01b0316815260200190815260200160002054905082811115610cc3578092505b50600101610c4a565b50610cd9610fa084611159565b610ce561271083611159565b11159695505050505050565b610cff848484846001610ec6565b610d2c57604051635274afe760e01b81526001600160a01b03851660048201526024015b60405180910390fd5b50505050565b610d3a610f38565b60027f9b779b17422d0df92223018b32b4d1fa46e071723d6817e2486d003becc55f0055565b60006a02116545850052128000008210610d7c57506007919050565b69fe1c215e8f838e0000008210610d9557506006919050565b6969e10de76676d08000008210610dae57506005919050565b692a5a058fc295ed0000008210610dc757506004919050565b690fe1c215e8f838e000008210610de057506003919050565b69054b40b1f852bda000008210610df957506002919050565b69021e19e0c9bab24000008210610e1257506001919050565b506000919050565b600081600703610e2c57506005919050565b81600603610e3c5750600a919050565b81600503610e4c5750600f919050565b81600403610e5c57506014919050565b81600303610e6c5750601e919050565b81600203610e7c57506032919050565b81600103610e1257506064919050565b610e998383836001610f7a565b610ec157604051635274afe760e01b81526001600160a01b0384166004820152602401610d23565b505050565b6040516323b872dd60e01b60008181526001600160a01b038781166004528616602452604485905291602083606481808c5af192506001600051148316610f26578383151615610f19573d6000823e3d81fd5b6000883b113d1516831692505b60405250600060605295945050505050565b7f9b779b17422d0df92223018b32b4d1fa46e071723d6817e2486d003becc55f00546002036108b857604051633ee5aeb560e01b815260040160405180910390fd5b60405163a9059cbb60e01b60008181526001600160a01b038616600452602485905291602083604481808b5af192506001600051148316610fd4578383151615610fc7573d6000823e3d81fd5b6000873b113d1516831692505b60405250949350505050565b6001600160a01b0381168114610ff557600080fd5b50565b6000806040838503121561100b57600080fd5b823561101681610fe0565b946020939093013593505050565b60006020828403121561103657600080fd5b813561041781610fe0565b60008060006060848603121561105657600080fd5b833561106181610fe0565b9250602084013561107181610fe0565b9150604084013561108181610fe0565b809150509250925092565b6000806000606084860312156110a157600080fd5b83356110ac81610fe0565b925060208401359150604084013561108181610fe0565b6000602082840312156110d557600080fd5b5035919050565b6000806000606084860312156110f157600080fd5b83356110fc81610fe0565b9250602084013561110c81610fe0565b929592945050506040919091013590565b634e487b7160e01b600052601160045260246000fd5b808201808211156103fa576103fa61111d565b818103818111156103fa576103fa61111d565b80820281158282048414176103fa576103fa61111d565b60008261118d57634e487b7160e01b600052601260045260246000fd5b500490565b634e487b7160e01b600052604160045260246000fd5b80516111b381610fe0565b919050565b600060208083850312156111cb57600080fd5b825167ffffffffffffffff808211156111e357600080fd5b818501915085601f8301126111f757600080fd5b81518181111561120957611209611192565b8060051b604051601f19603f8301168101818110858211171561122e5761122e611192565b60405291825284820192508381018501918883111561124c57600080fd5b938501935b8285101561127157611262856111a8565b84529385019392850192611251565b98975050505050505050565b634e487b7160e01b600052603260045260246000fdfea2646970667358221220b045a99ff96df169ea8a748cb1c796562348f256360e5552a1d75d55c3178bd364736f6c63430008180033","opcodes":"PUSH1 0xC0 PUSH1 0x40 MSTORE CALLVALUE DUP1 ISZERO PUSH2 0x10 JUMPI PUSH1 0x0 DUP1 REVERT JUMPDEST POP PUSH1 0x40 MLOAD PUSH2 0x13D8 CODESIZE SUB DUP1 PUSH2 0x13D8 DUP4 CODECOPY DUP2 ADD PUSH1 0x40 DUP2 SWAP1 MSTORE PUSH2 0x2F SWAP2 PUSH2 0xA5 JUMP JUMPDEST PUSH1 0x1 PUSH32 0x9B779B17422D0DF92223018B32B4D1FA46E071723D6817E2486D003BECC55F00 SSTORE PUSH1 0x1 PUSH1 0x1 PUSH1 0xA0 SHL SUB DUP2 AND PUSH2 0x7A JUMPI PUSH1 0x40 MLOAD PUSH4 0xD92E233D PUSH1 0xE0 SHL DUP2 MSTORE PUSH1 0x4 ADD PUSH1 0x40 MLOAD DUP1 SWAP2 SUB SWAP1 REVERT JUMPDEST PUSH1 0x1 PUSH1 0x1 PUSH1 0xA0 SHL SUB AND PUSH1 0x80 MSTORE PUSH1 0x2 DUP1 SLOAD PUSH1 0x1 PUSH1 0x1 PUSH1 0xA0 SHL SUB NOT AND CALLER OR SWAP1 SSTORE PUSH4 0x65920080 PUSH1 0xA0 MSTORE PUSH2 0xD5 JUMP JUMPDEST PUSH1 0x0 PUSH1 0x20 DUP3 DUP5 SUB SLT ISZERO PUSH2 0xB7 JUMPI PUSH1 0x0 DUP1 REVERT JUMPDEST DUP2 MLOAD PUSH1 0x1 PUSH1 0x1 PUSH1 0xA0 SHL SUB DUP2 AND DUP2 EQ PUSH2 0xCE JUMPI PUSH1 0x0 DUP1 REVERT JUMPDEST SWAP4 SWAP3 POP POP POP JUMP JUMPDEST PUSH1 0x80 MLOAD PUSH1 0xA0 MLOAD PUSH2 0x12C9 PUSH2 0x10F PUSH1 0x0 CODECOPY PUSH1 0x0 DUP2 DUP2 PUSH2 0x34B ADD MSTORE PUSH2 0x91E ADD MSTORE PUSH1 0x0 DUP2 DUP2 PUSH2 0x1BC ADD MSTORE DUP2 DUP2 PUSH2 0x4C0 ADD MSTORE PUSH2 0x76E ADD MSTORE PUSH2 0x12C9 PUSH1 0x0 RETURN INVALID PUSH1 0x80 PUSH1 0x40 MSTORE CALLVALUE DUP1 ISZERO PUSH2 0x10 JUMPI PUSH1 0x0 DUP1 REVERT JUMPDEST POP PUSH1 0x4 CALLDATASIZE LT PUSH2 0x158 JUMPI PUSH1 0x0 CALLDATALOAD PUSH1 0xE0 SHR DUP1 PUSH4 0x952D4C01 GT PUSH2 0xC3 JUMPI DUP1 PUSH4 0xCB4F51D1 GT PUSH2 0x7C JUMPI DUP1 PUSH4 0xCB4F51D1 EQ PUSH2 0x36D JUMPI DUP1 PUSH4 0xD31725CC EQ PUSH2 0x380 JUMPI DUP1 PUSH4 0xD33219B4 EQ PUSH2 0x389 JUMPI DUP1 PUSH4 0xD9BD5F2D EQ PUSH2 0x39C JUMPI DUP1 PUSH4 0xF851A440 EQ PUSH2 0x3AF JUMPI DUP1 PUSH4 0xFC22833E EQ PUSH2 0x3C2 JUMPI PUSH1 0x0 DUP1 REVERT JUMPDEST DUP1 PUSH4 0x952D4C01 EQ PUSH2 0x2A8 JUMPI DUP1 PUSH4 0xB594B0C7 EQ PUSH2 0x2D6 JUMPI DUP1 PUSH4 0xB6635BE6 EQ PUSH2 0x2E9 JUMPI DUP1 PUSH4 0xB835F389 EQ PUSH2 0x2FD JUMPI DUP1 PUSH4 0xBCD3321E EQ PUSH2 0x33E JUMPI DUP1 PUSH4 0xCACF66AB EQ PUSH2 0x346 JUMPI PUSH1 0x0 DUP1 REVERT JUMPDEST DUP1 PUSH4 0x55D28F20 GT PUSH2 0x115 JUMPI DUP1 PUSH4 0x55D28F20 EQ PUSH2 0x214 JUMPI DUP1 PUSH4 0x57CECD8B EQ PUSH2 0x229 JUMPI DUP1 PUSH4 0x5B6BCF3B EQ PUSH2 0x254 JUMPI DUP1 PUSH4 0x88697547 EQ PUSH2 0x285 JUMPI DUP1 PUSH4 0x8AEA8F71 EQ PUSH2 0x298 JUMPI DUP1 PUSH4 0x8B19D70E EQ PUSH2 0x2A0 JUMPI PUSH1 0x0 DUP1 REVERT JUMPDEST DUP1 PUSH4 0x1441A5A9 EQ PUSH2 0x15D JUMPI DUP1 PUSH4 0x2409C9A9 EQ PUSH2 0x18D JUMPI DUP1 PUSH4 0x29E9AD82 EQ PUSH2 0x1AE JUMPI DUP1 PUSH4 0x2F48AB7D EQ PUSH2 0x1B7 JUMPI DUP1 PUSH4 0x2FE3C0CC EQ PUSH2 0x1DE JUMPI DUP1 PUSH4 0x30131384 EQ PUSH2 0x201 JUMPI JUMPDEST PUSH1 0x0 DUP1 REVERT JUMPDEST PUSH1 0x1 SLOAD PUSH2 0x170 SWAP1 PUSH1 0x1 PUSH1 0x1 PUSH1 0xA0 SHL SUB AND DUP2 JUMP JUMPDEST PUSH1 0x40 MLOAD PUSH1 0x1 PUSH1 0x1 PUSH1 0xA0 SHL SUB SWAP1 SWAP2 AND DUP2 MSTORE PUSH1 0x20 ADD JUMPDEST PUSH1 0x40 MLOAD DUP1 SWAP2 SUB SWAP1 RETURN JUMPDEST PUSH2 0x1A0 PUSH2 0x19B CALLDATASIZE PUSH1 0x4 PUSH2 0xFF8 JUMP JUMPDEST PUSH2 0x3D5 JUMP JUMPDEST PUSH1 0x40 MLOAD SWAP1 DUP2 MSTORE PUSH1 0x20 ADD PUSH2 0x184 JUMP JUMPDEST PUSH2 0x1A0 PUSH1 0x7 SLOAD DUP2 JUMP JUMPDEST PUSH2 0x170 PUSH32 0x0 DUP2 JUMP JUMPDEST PUSH2 0x1F1 PUSH2 0x1EC CALLDATASIZE PUSH1 0x4 PUSH2 0x1024 JUMP JUMPDEST PUSH2 0x400 JUMP JUMPDEST PUSH1 0x40 MLOAD SWAP1 ISZERO ISZERO DUP2 MSTORE PUSH1 0x20 ADD PUSH2 0x184 JUMP JUMPDEST PUSH1 0x0 SLOAD PUSH2 0x170 SWAP1 PUSH1 0x1 PUSH1 0x1 PUSH1 0xA0 SHL SUB AND DUP2 JUMP JUMPDEST PUSH2 0x227 PUSH2 0x222 CALLDATASIZE PUSH1 0x4 PUSH2 0x1041 JUMP JUMPDEST PUSH2 0x41E JUMP JUMPDEST STOP JUMPDEST PUSH2 0x1A0 PUSH2 0x237 CALLDATASIZE PUSH1 0x4 PUSH2 0xFF8 JUMP JUMPDEST PUSH1 0x4 PUSH1 0x20 SWAP1 DUP2 MSTORE PUSH1 0x0 SWAP3 DUP4 MSTORE PUSH1 0x40 DUP1 DUP5 KECCAK256 SWAP1 SWAP2 MSTORE SWAP1 DUP3 MSTORE SWAP1 KECCAK256 SLOAD DUP2 JUMP JUMPDEST PUSH2 0x1A0 PUSH2 0x262 CALLDATASIZE PUSH1 0x4 PUSH2 0x108C JUMP JUMPDEST PUSH1 0x5 PUSH1 0x20 SWAP1 DUP2 MSTORE PUSH1 0x0 SWAP4 DUP5 MSTORE PUSH1 0x40 DUP1 DUP6 KECCAK256 DUP3 MSTORE SWAP3 DUP5 MSTORE DUP3 DUP5 KECCAK256 SWAP1 MSTORE DUP3 MSTORE SWAP1 KECCAK256 SLOAD DUP2 JUMP JUMPDEST PUSH2 0x227 PUSH2 0x293 CALLDATASIZE PUSH1 0x4 PUSH2 0x10C3 JUMP JUMPDEST PUSH2 0x4B3 JUMP JUMPDEST PUSH2 0x227 PUSH2 0x535 JUMP JUMPDEST PUSH2 0x227 PUSH2 0x5B0 JUMP JUMPDEST PUSH2 0x1F1 PUSH2 0x2B6 CALLDATASIZE PUSH1 0x4 PUSH2 0xFF8 JUMP JUMPDEST PUSH1 0x6 PUSH1 0x20 SWAP1 DUP2 MSTORE PUSH1 0x0 SWAP3 DUP4 MSTORE PUSH1 0x40 DUP1 DUP5 KECCAK256 SWAP1 SWAP2 MSTORE SWAP1 DUP3 MSTORE SWAP1 KECCAK256 SLOAD PUSH1 0xFF AND DUP2 JUMP JUMPDEST PUSH2 0x1A0 PUSH2 0x2E4 CALLDATASIZE PUSH1 0x4 PUSH2 0x1024 JUMP JUMPDEST PUSH2 0x8BA JUMP JUMPDEST PUSH1 0x3 SLOAD PUSH2 0x1F1 SWAP1 PUSH1 0x1 PUSH1 0xA0 SHL SWAP1 DIV PUSH1 0xFF AND DUP2 JUMP JUMPDEST PUSH2 0x1A0 PUSH2 0x30B CALLDATASIZE PUSH1 0x4 PUSH2 0x108C JUMP JUMPDEST PUSH1 0x1 PUSH1 0x1 PUSH1 0xA0 SHL SUB SWAP3 DUP4 AND PUSH1 0x0 SWAP1 DUP2 MSTORE PUSH1 0x5 PUSH1 0x20 SWAP1 DUP2 MSTORE PUSH1 0x40 DUP1 DUP4 KECCAK256 SWAP5 DUP4 MSTORE SWAP4 DUP2 MSTORE DUP4 DUP3 KECCAK256 SWAP3 SWAP1 SWAP5 AND DUP2 MSTORE SWAP3 MSTORE SWAP1 KECCAK256 SLOAD SWAP1 JUMP JUMPDEST PUSH2 0x1A0 PUSH2 0x913 JUMP JUMPDEST PUSH2 0x1A0 PUSH32 0x0 DUP2 JUMP JUMPDEST PUSH2 0x227 PUSH2 0x37B CALLDATASIZE PUSH1 0x4 PUSH2 0x1024 JUMP JUMPDEST PUSH2 0x95D JUMP JUMPDEST PUSH2 0x1A0 PUSH1 0x8 SLOAD DUP2 JUMP JUMPDEST PUSH1 0x3 SLOAD PUSH2 0x170 SWAP1 PUSH1 0x1 PUSH1 0x1 PUSH1 0xA0 SHL SUB AND DUP2 JUMP JUMPDEST PUSH2 0x227 PUSH2 0x3AA CALLDATASIZE PUSH1 0x4 PUSH2 0x10DC JUMP JUMPDEST PUSH2 0x9AA JUMP JUMPDEST PUSH1 0x2 SLOAD PUSH2 0x170 SWAP1 PUSH1 0x1 PUSH1 0x1 PUSH1 0xA0 SHL SUB AND DUP2 JUMP JUMPDEST PUSH2 0x1A0 PUSH2 0x3D0 CALLDATASIZE PUSH1 0x4 PUSH2 0x1024 JUMP JUMPDEST PUSH2 0xA7F JUMP JUMPDEST PUSH1 0x1 PUSH1 0x1 PUSH1 0xA0 SHL SUB DUP3 AND PUSH1 0x0 SWAP1 DUP2 MSTORE PUSH1 0x4 PUSH1 0x20 SWAP1 DUP2 MSTORE PUSH1 0x40 DUP1 DUP4 KECCAK256 DUP5 DUP5 MSTORE SWAP1 SWAP2 MSTORE SWAP1 KECCAK256 SLOAD JUMPDEST SWAP3 SWAP2 POP POP JUMP JUMPDEST PUSH1 0x0 DUP1 PUSH2 0x40B PUSH2 0x913 JUMP JUMPDEST SWAP1 POP PUSH2 0x417 DUP4 DUP3 PUSH2 0xB6E JUMP JUMPDEST SWAP4 SWAP3 POP POP POP JUMP JUMPDEST PUSH1 0x2 SLOAD PUSH1 0x1 PUSH1 0x1 PUSH1 0xA0 SHL SUB AND CALLER EQ PUSH2 0x449 JUMPI PUSH1 0x40 MLOAD PUSH4 0x47556579 PUSH1 0xE0 SHL DUP2 MSTORE PUSH1 0x4 ADD PUSH1 0x40 MLOAD DUP1 SWAP2 SUB SWAP1 REVERT JUMPDEST PUSH1 0x3 SLOAD PUSH1 0x1 PUSH1 0xA0 SHL SWAP1 DIV PUSH1 0xFF AND ISZERO PUSH2 0x474 JUMPI PUSH1 0x40 MLOAD PUSH4 0x238F75D3 PUSH1 0xE0 SHL DUP2 MSTORE PUSH1 0x4 ADD PUSH1 0x40 MLOAD DUP1 SWAP2 SUB SWAP1 REVERT JUMPDEST PUSH1 0x0 DUP1 SLOAD PUSH1 0x1 PUSH1 0x1 PUSH1 0xA0 SHL SUB SWAP5 DUP6 AND PUSH1 0x1 PUSH1 0x1 PUSH1 0xA0 SHL SUB NOT SWAP2 DUP3 AND OR SWAP1 SWAP2 SSTORE PUSH1 0x1 DUP1 SLOAD SWAP4 DUP6 AND SWAP4 DUP3 AND SWAP4 SWAP1 SWAP4 OR SWAP1 SWAP3 SSTORE PUSH1 0x3 DUP1 SLOAD SWAP2 SWAP1 SWAP4 AND SWAP2 AND OR SWAP1 SSTORE JUMP JUMPDEST PUSH2 0x4E8 PUSH1 0x1 PUSH1 0x1 PUSH1 0xA0 SHL SUB PUSH32 0x0 AND CALLER ADDRESS DUP5 PUSH2 0xCF1 JUMP JUMPDEST DUP1 PUSH1 0x7 PUSH1 0x0 DUP3 DUP3 SLOAD PUSH2 0x4FA SWAP2 SWAP1 PUSH2 0x1133 JUMP JUMPDEST SWAP1 SWAP2 SSTORE POP POP PUSH1 0x40 MLOAD DUP2 DUP2 MSTORE PUSH32 0xE0489CE487DF31AE7DB1F183CD20F4589BFA5715C26827C41E89D4A4B11E4B07 SWAP1 PUSH1 0x20 ADD PUSH1 0x40 MLOAD DUP1 SWAP2 SUB SWAP1 LOG1 POP JUMP JUMPDEST PUSH1 0x2 SLOAD PUSH1 0x1 PUSH1 0x1 PUSH1 0xA0 SHL SUB AND CALLER EQ PUSH2 0x560 JUMPI PUSH1 0x40 MLOAD PUSH4 0x47556579 PUSH1 0xE0 SHL DUP2 MSTORE PUSH1 0x4 ADD PUSH1 0x40 MLOAD DUP1 SWAP2 SUB SWAP1 REVERT JUMPDEST PUSH1 0x3 SLOAD PUSH1 0x1 PUSH1 0xA0 SHL SWAP1 DIV PUSH1 0xFF AND ISZERO PUSH2 0x58B JUMPI PUSH1 0x40 MLOAD PUSH4 0x238F75D3 PUSH1 0xE0 SHL DUP2 MSTORE PUSH1 0x4 ADD PUSH1 0x40 MLOAD DUP1 SWAP2 SUB SWAP1 REVERT JUMPDEST PUSH1 0x3 DUP1 SLOAD PUSH1 0xFF PUSH1 0xA0 SHL NOT AND PUSH1 0x1 PUSH1 0xA0 SHL OR SWAP1 SSTORE PUSH1 0x2 DUP1 SLOAD PUSH1 0x1 PUSH1 0x1 PUSH1 0xA0 SHL SUB NOT AND SWAP1 SSTORE JUMP JUMPDEST PUSH2 0x5B8 PUSH2 0xD32 JUMP JUMPDEST PUSH1 0x0 PUSH2 0x5C2 PUSH2 0x913 JUMP JUMPDEST SWAP1 POP PUSH1 0x0 PUSH2 0x5D1 PUSH1 0x1 DUP4 PUSH2 0x1146 JUMP JUMPDEST SWAP1 POP DUP1 PUSH1 0x0 SUB PUSH2 0x5F4 JUMPI PUSH1 0x40 MLOAD PUSH4 0x330B361 PUSH1 0xE2 SHL DUP2 MSTORE PUSH1 0x4 ADD PUSH1 0x40 MLOAD DUP1 SWAP2 SUB SWAP1 REVERT JUMPDEST CALLER PUSH1 0x0 SWAP1 DUP2 MSTORE PUSH1 0x6 PUSH1 0x20 SWAP1 DUP2 MSTORE PUSH1 0x40 DUP1 DUP4 KECCAK256 DUP5 DUP5 MSTORE SWAP1 SWAP2 MSTORE SWAP1 KECCAK256 SLOAD PUSH1 0xFF AND ISZERO PUSH2 0x630 JUMPI PUSH1 0x40 MLOAD PUSH4 0xC8D9EAB PUSH1 0xE3 SHL DUP2 MSTORE PUSH1 0x4 ADD PUSH1 0x40 MLOAD DUP1 SWAP2 SUB SWAP1 REVERT JUMPDEST PUSH2 0x63A CALLER DUP3 PUSH2 0xB6E JUMP JUMPDEST PUSH2 0x657 JUMPI PUSH1 0x40 MLOAD PUSH4 0x330B361 PUSH1 0xE2 SHL DUP2 MSTORE PUSH1 0x4 ADD PUSH1 0x40 MLOAD DUP1 SWAP2 SUB SWAP1 REVERT JUMPDEST CALLER PUSH1 0x0 SWAP1 DUP2 MSTORE PUSH1 0x4 PUSH1 0x20 SWAP1 DUP2 MSTORE PUSH1 0x40 DUP1 DUP4 KECCAK256 DUP5 DUP5 MSTORE SWAP1 SWAP2 MSTORE DUP2 KECCAK256 SLOAD SWAP1 PUSH2 0x67C DUP3 PUSH2 0xD60 JUMP JUMPDEST SWAP1 POP DUP1 PUSH1 0x0 SUB PUSH2 0x69F JUMPI PUSH1 0x40 MLOAD PUSH4 0x330B361 PUSH1 0xE2 SHL DUP2 MSTORE PUSH1 0x4 ADD PUSH1 0x40 MLOAD DUP1 SWAP2 SUB SWAP1 REVERT JUMPDEST PUSH1 0x0 PUSH2 0x6AA DUP3 PUSH2 0xE1A JUMP JUMPDEST SWAP1 POP PUSH1 0x0 PUSH2 0x2710 PUSH2 0x6BB DUP4 DUP7 PUSH2 0x1159 JUMP JUMPDEST PUSH2 0x6C5 SWAP2 SWAP1 PUSH2 0x1170 JUMP JUMPDEST SWAP1 POP DUP1 PUSH1 0x0 SUB PUSH2 0x6E8 JUMPI PUSH1 0x40 MLOAD PUSH4 0x330B361 PUSH1 0xE2 SHL DUP2 MSTORE PUSH1 0x4 ADD PUSH1 0x40 MLOAD DUP1 SWAP2 SUB SWAP1 REVERT JUMPDEST PUSH1 0x7 SLOAD DUP2 GT ISZERO PUSH2 0x70B JUMPI PUSH1 0x40 MLOAD PUSH4 0x14764857 PUSH1 0xE3 SHL DUP2 MSTORE PUSH1 0x4 ADD PUSH1 0x40 MLOAD DUP1 SWAP2 SUB SWAP1 REVERT JUMPDEST CALLER PUSH1 0x0 SWAP1 DUP2 MSTORE PUSH1 0x6 PUSH1 0x20 SWAP1 DUP2 MSTORE PUSH1 0x40 DUP1 DUP4 KECCAK256 DUP9 DUP5 MSTORE SWAP1 SWAP2 MSTORE DUP2 KECCAK256 DUP1 SLOAD PUSH1 0xFF NOT AND PUSH1 0x1 OR SWAP1 SSTORE PUSH1 0x7 DUP1 SLOAD DUP4 SWAP3 SWAP1 PUSH2 0x742 SWAP1 DUP5 SWAP1 PUSH2 0x1146 JUMP JUMPDEST SWAP3 POP POP DUP2 SWAP1 SSTORE POP DUP1 PUSH1 0x8 PUSH1 0x0 DUP3 DUP3 SLOAD PUSH2 0x75B SWAP2 SWAP1 PUSH2 0x1133 JUMP JUMPDEST SWAP1 SWAP2 SSTORE POP PUSH2 0x795 SWAP1 POP PUSH1 0x1 PUSH1 0x1 PUSH1 0xA0 SHL SUB PUSH32 0x0 AND CALLER DUP4 PUSH2 0xE8C JUMP JUMPDEST PUSH1 0x0 SLOAD PUSH1 0x1 PUSH1 0x1 PUSH1 0xA0 SHL SUB AND ISZERO PUSH2 0x80B JUMPI PUSH1 0x0 SLOAD PUSH1 0x40 MLOAD PUSH4 0xAC948E83 PUSH1 0xE0 SHL DUP2 MSTORE CALLER PUSH1 0x4 DUP3 ADD MSTORE PUSH1 0x24 DUP2 ADD DUP4 SWAP1 MSTORE PUSH1 0x1 PUSH1 0x1 PUSH1 0xA0 SHL SUB SWAP1 SWAP2 AND SWAP1 PUSH4 0xAC948E83 SWAP1 PUSH1 0x44 ADD PUSH1 0x0 PUSH1 0x40 MLOAD DUP1 DUP4 SUB DUP2 PUSH1 0x0 DUP8 DUP1 EXTCODESIZE ISZERO DUP1 ISZERO PUSH2 0x7F2 JUMPI PUSH1 0x0 DUP1 REVERT JUMPDEST POP GAS CALL ISZERO DUP1 ISZERO PUSH2 0x806 JUMPI RETURNDATASIZE PUSH1 0x0 DUP1 RETURNDATACOPY RETURNDATASIZE PUSH1 0x0 REVERT JUMPDEST POP POP POP POP JUMPDEST PUSH1 0x40 DUP1 MLOAD DUP5 DUP2 MSTORE PUSH1 0x20 DUP2 ADD DUP8 SWAP1 MSTORE SWAP1 DUP2 ADD DUP6 SWAP1 MSTORE CALLER SWAP1 PUSH32 0x3E7C6FA8FFEC4566E8E55031EA1F71DEE2BD6DFE73E926DFB6A8F9D449F3845C SWAP1 PUSH1 0x60 ADD PUSH1 0x40 MLOAD DUP1 SWAP2 SUB SWAP1 LOG2 PUSH1 0x40 DUP1 MLOAD DUP3 DUP2 MSTORE PUSH1 0x20 DUP2 ADD DUP8 SWAP1 MSTORE CALLER SWAP2 PUSH32 0xD5797264912088CD40B5265CC25F087A017182A84A0AACDCA76EBBF8C0D04E89 SWAP2 ADD PUSH1 0x40 MLOAD DUP1 SWAP2 SUB SWAP1 LOG2 POP POP POP POP POP POP PUSH2 0x8B8 PUSH1 0x1 PUSH32 0x9B779B17422D0DF92223018B32B4D1FA46E071723D6817E2486D003BECC55F00 SSTORE JUMP JUMPDEST JUMP JUMPDEST PUSH1 0x0 DUP1 PUSH2 0x8C5 PUSH2 0x913 JUMP JUMPDEST SWAP1 POP PUSH2 0x8D1 DUP4 DUP3 PUSH2 0xB6E JUMP JUMPDEST PUSH2 0x8DE JUMPI POP PUSH1 0x0 SWAP3 SWAP2 POP POP JUMP JUMPDEST PUSH1 0x1 PUSH1 0x1 PUSH1 0xA0 SHL SUB DUP4 AND PUSH1 0x0 SWAP1 DUP2 MSTORE PUSH1 0x4 PUSH1 0x20 SWAP1 DUP2 MSTORE PUSH1 0x40 DUP1 DUP4 KECCAK256 DUP5 DUP5 MSTORE SWAP1 SWAP2 MSTORE SWAP1 KECCAK256 SLOAD PUSH2 0x90B DUP2 PUSH2 0xD60 JUMP JUMPDEST SWAP5 SWAP4 POP POP POP POP JUMP JUMPDEST PUSH1 0x0 PUSH3 0x93A80 PUSH2 0x943 PUSH32 0x0 TIMESTAMP PUSH2 0x1146 JUMP JUMPDEST PUSH2 0x94D SWAP2 SWAP1 PUSH2 0x1170 JUMP JUMPDEST PUSH2 0x958 SWAP1 PUSH1 0x1 PUSH2 0x1133 JUMP JUMPDEST SWAP1 POP SWAP1 JUMP JUMPDEST PUSH1 0x3 SLOAD PUSH1 0x1 PUSH1 0x1 PUSH1 0xA0 SHL SUB AND CALLER EQ PUSH2 0x988 JUMPI PUSH1 0x40 MLOAD PUSH4 0xE05F485 PUSH1 0xE1 SHL DUP2 MSTORE PUSH1 0x4 ADD PUSH1 0x40 MLOAD DUP1 SWAP2 SUB SWAP1 REVERT JUMPDEST PUSH1 0x0 DUP1 SLOAD PUSH1 0x1 PUSH1 0x1 PUSH1 0xA0 SHL SUB NOT AND PUSH1 0x1 PUSH1 0x1 PUSH1 0xA0 SHL SUB SWAP3 SWAP1 SWAP3 AND SWAP2 SWAP1 SWAP2 OR SWAP1 SSTORE JUMP JUMPDEST PUSH1 0x0 PUSH2 0x9B4 PUSH2 0x913 JUMP JUMPDEST PUSH1 0x1 PUSH1 0x1 PUSH1 0xA0 SHL SUB DUP6 AND PUSH1 0x0 SWAP1 DUP2 MSTORE PUSH1 0x4 PUSH1 0x20 SWAP1 DUP2 MSTORE PUSH1 0x40 DUP1 DUP4 KECCAK256 DUP5 DUP5 MSTORE SWAP1 SWAP2 MSTORE DUP2 KECCAK256 DUP1 SLOAD SWAP3 SWAP4 POP DUP5 SWAP3 SWAP1 SWAP2 SWAP1 PUSH2 0x9EC SWAP1 DUP5 SWAP1 PUSH2 0x1133 JUMP JUMPDEST SWAP1 SWAP2 SSTORE POP POP PUSH1 0x1 PUSH1 0x1 PUSH1 0xA0 SHL SUB DUP1 DUP6 AND PUSH1 0x0 SWAP1 DUP2 MSTORE PUSH1 0x5 PUSH1 0x20 SWAP1 DUP2 MSTORE PUSH1 0x40 DUP1 DUP4 KECCAK256 DUP6 DUP5 MSTORE DUP3 MSTORE DUP1 DUP4 KECCAK256 SWAP4 DUP8 AND DUP4 MSTORE SWAP3 SWAP1 MSTORE SWAP1 DUP2 KECCAK256 DUP1 SLOAD DUP5 SWAP3 SWAP1 PUSH2 0xA30 SWAP1 DUP5 SWAP1 PUSH2 0x1133 JUMP JUMPDEST SWAP1 SWAP2 SSTORE POP POP PUSH1 0x40 DUP1 MLOAD DUP4 DUP2 MSTORE PUSH1 0x20 DUP2 ADD DUP4 SWAP1 MSTORE PUSH1 0x1 PUSH1 0x1 PUSH1 0xA0 SHL SUB DUP7 AND SWAP2 PUSH32 0xD5D37757267F0F02FE273B0EAD41331FE90AE635B0954DA937D3454E9623DAF4 SWAP2 ADD PUSH1 0x40 MLOAD DUP1 SWAP2 SUB SWAP1 LOG2 POP POP POP POP JUMP JUMPDEST PUSH1 0x0 DUP1 PUSH2 0xA8A PUSH2 0x913 JUMP JUMPDEST SWAP1 POP PUSH1 0x1 DUP2 GT PUSH2 0xA9D JUMPI POP PUSH1 0x0 SWAP3 SWAP2 POP POP JUMP JUMPDEST PUSH1 0x0 PUSH2 0xAAA PUSH1 0x1 DUP4 PUSH2 0x1146 JUMP JUMPDEST PUSH1 0x1 PUSH1 0x1 PUSH1 0xA0 SHL SUB DUP6 AND PUSH1 0x0 SWAP1 DUP2 MSTORE PUSH1 0x6 PUSH1 0x20 SWAP1 DUP2 MSTORE PUSH1 0x40 DUP1 DUP4 KECCAK256 DUP5 DUP5 MSTORE SWAP1 SWAP2 MSTORE SWAP1 KECCAK256 SLOAD SWAP1 SWAP2 POP PUSH1 0xFF AND ISZERO PUSH2 0xAE3 JUMPI POP PUSH1 0x0 SWAP4 SWAP3 POP POP POP JUMP JUMPDEST PUSH2 0xAED DUP5 DUP3 PUSH2 0xB6E JUMP JUMPDEST PUSH2 0xAFB JUMPI POP PUSH1 0x0 SWAP4 SWAP3 POP POP POP JUMP JUMPDEST PUSH1 0x1 PUSH1 0x1 PUSH1 0xA0 SHL SUB DUP5 AND PUSH1 0x0 SWAP1 DUP2 MSTORE PUSH1 0x4 PUSH1 0x20 SWAP1 DUP2 MSTORE PUSH1 0x40 DUP1 DUP4 KECCAK256 DUP5 DUP5 MSTORE SWAP1 SWAP2 MSTORE DUP2 KECCAK256 SLOAD SWAP1 PUSH2 0xB29 DUP3 PUSH2 0xD60 JUMP JUMPDEST SWAP1 POP DUP1 PUSH1 0x0 SUB PUSH2 0xB3F JUMPI POP PUSH1 0x0 SWAP6 SWAP5 POP POP POP POP POP JUMP JUMPDEST PUSH1 0x0 PUSH2 0xB4A DUP3 PUSH2 0xE1A JUMP JUMPDEST SWAP1 POP PUSH2 0x2710 PUSH2 0xB59 DUP3 DUP6 PUSH2 0x1159 JUMP JUMPDEST PUSH2 0xB63 SWAP2 SWAP1 PUSH2 0x1170 JUMP JUMPDEST SWAP8 SWAP7 POP POP POP POP POP POP POP JUMP JUMPDEST PUSH1 0x1 PUSH1 0x1 PUSH1 0xA0 SHL SUB DUP3 AND PUSH1 0x0 SWAP1 DUP2 MSTORE PUSH1 0x4 PUSH1 0x20 SWAP1 DUP2 MSTORE PUSH1 0x40 DUP1 DUP4 KECCAK256 DUP5 DUP5 MSTORE SWAP1 SWAP2 MSTORE DUP2 KECCAK256 SLOAD DUP1 DUP3 SUB PUSH2 0xBA3 JUMPI PUSH1 0x0 SWAP2 POP POP PUSH2 0x3FA JUMP JUMPDEST PUSH1 0x1 SLOAD PUSH1 0x1 PUSH1 0x1 PUSH1 0xA0 SHL SUB AND PUSH2 0xBBD JUMPI PUSH1 0x1 SWAP2 POP POP PUSH2 0x3FA JUMP JUMPDEST PUSH1 0x1 SLOAD PUSH1 0x40 MLOAD PUSH4 0xD2C8E0E5 PUSH1 0xE0 SHL DUP2 MSTORE PUSH1 0x1 PUSH1 0x1 PUSH1 0xA0 SHL SUB DUP7 DUP2 AND PUSH1 0x4 DUP4 ADD MSTORE PUSH1 0x0 SWAP3 AND SWAP1 PUSH4 0xD2C8E0E5 SWAP1 PUSH1 0x24 ADD PUSH1 0x0 PUSH1 0x40 MLOAD DUP1 DUP4 SUB DUP2 DUP7 GAS STATICCALL ISZERO DUP1 ISZERO PUSH2 0xC08 JUMPI RETURNDATASIZE PUSH1 0x0 DUP1 RETURNDATACOPY RETURNDATASIZE PUSH1 0x0 REVERT JUMPDEST POP POP POP POP PUSH1 0x40 MLOAD RETURNDATASIZE PUSH1 0x0 DUP3 RETURNDATACOPY PUSH1 0x1F RETURNDATASIZE SWAP1 DUP2 ADD PUSH1 0x1F NOT AND DUP3 ADD PUSH1 0x40 MSTORE PUSH2 0xC30 SWAP2 SWAP1 DUP2 ADD SWAP1 PUSH2 0x11B8 JUMP JUMPDEST SWAP1 POP DUP1 MLOAD PUSH1 0x0 SUB PUSH2 0xC46 JUMPI PUSH1 0x0 SWAP3 POP POP POP PUSH2 0x3FA JUMP JUMPDEST PUSH1 0x0 DUP1 JUMPDEST DUP3 MLOAD DUP2 LT ISZERO PUSH2 0xCCC JUMPI PUSH1 0x1 PUSH1 0x1 PUSH1 0xA0 SHL SUB DUP8 AND PUSH1 0x0 SWAP1 DUP2 MSTORE PUSH1 0x5 PUSH1 0x20 SWAP1 DUP2 MSTORE PUSH1 0x40 DUP1 DUP4 KECCAK256 DUP10 DUP5 MSTORE SWAP1 SWAP2 MSTORE DUP2 KECCAK256 DUP5 MLOAD DUP3 SWAP1 DUP7 SWAP1 DUP6 SWAP1 DUP2 LT PUSH2 0xC8C JUMPI PUSH2 0xC8C PUSH2 0x127D JUMP JUMPDEST PUSH1 0x20 MUL PUSH1 0x20 ADD ADD MLOAD PUSH1 0x1 PUSH1 0x1 PUSH1 0xA0 SHL SUB AND PUSH1 0x1 PUSH1 0x1 PUSH1 0xA0 SHL SUB AND DUP2 MSTORE PUSH1 0x20 ADD SWAP1 DUP2 MSTORE PUSH1 0x20 ADD PUSH1 0x0 KECCAK256 SLOAD SWAP1 POP DUP3 DUP2 GT ISZERO PUSH2 0xCC3 JUMPI DUP1 SWAP3 POP JUMPDEST POP PUSH1 0x1 ADD PUSH2 0xC4A JUMP JUMPDEST POP PUSH2 0xCD9 PUSH2 0xFA0 DUP5 PUSH2 0x1159 JUMP JUMPDEST PUSH2 0xCE5 PUSH2 0x2710 DUP4 PUSH2 0x1159 JUMP JUMPDEST GT ISZERO SWAP7 SWAP6 POP POP POP POP POP POP JUMP JUMPDEST PUSH2 0xCFF DUP5 DUP5 DUP5 DUP5 PUSH1 0x1 PUSH2 0xEC6 JUMP JUMPDEST PUSH2 0xD2C JUMPI PUSH1 0x40 MLOAD PUSH4 0x5274AFE7 PUSH1 0xE0 SHL DUP2 MSTORE PUSH1 0x1 PUSH1 0x1 PUSH1 0xA0 SHL SUB DUP6 AND PUSH1 0x4 DUP3 ADD MSTORE PUSH1 0x24 ADD JUMPDEST PUSH1 0x40 MLOAD DUP1 SWAP2 SUB SWAP1 REVERT JUMPDEST POP POP POP POP JUMP JUMPDEST PUSH2 0xD3A PUSH2 0xF38 JUMP JUMPDEST PUSH1 0x2 PUSH32 0x9B779B17422D0DF92223018B32B4D1FA46E071723D6817E2486D003BECC55F00 SSTORE JUMP JUMPDEST PUSH1 0x0 PUSH11 0x211654585005212800000 DUP3 LT PUSH2 0xD7C JUMPI POP PUSH1 0x7 SWAP2 SWAP1 POP JUMP JUMPDEST PUSH10 0xFE1C215E8F838E000000 DUP3 LT PUSH2 0xD95 JUMPI POP PUSH1 0x6 SWAP2 SWAP1 POP JUMP JUMPDEST PUSH10 0x69E10DE76676D0800000 DUP3 LT PUSH2 0xDAE JUMPI POP PUSH1 0x5 SWAP2 SWAP1 POP JUMP JUMPDEST PUSH10 0x2A5A058FC295ED000000 DUP3 LT PUSH2 0xDC7 JUMPI POP PUSH1 0x4 SWAP2 SWAP1 POP JUMP JUMPDEST PUSH10 0xFE1C215E8F838E00000 DUP3 LT PUSH2 0xDE0 JUMPI POP PUSH1 0x3 SWAP2 SWAP1 POP JUMP JUMPDEST PUSH10 0x54B40B1F852BDA00000 DUP3 LT PUSH2 0xDF9 JUMPI POP PUSH1 0x2 SWAP2 SWAP1 POP JUMP JUMPDEST PUSH10 0x21E19E0C9BAB2400000 DUP3 LT PUSH2 0xE12 JUMPI POP PUSH1 0x1 SWAP2 SWAP1 POP JUMP JUMPDEST POP PUSH1 0x0 SWAP2 SWAP1 POP JUMP JUMPDEST PUSH1 0x0 DUP2 PUSH1 0x7 SUB PUSH2 0xE2C JUMPI POP PUSH1 0x5 SWAP2 SWAP1 POP JUMP JUMPDEST DUP2 PUSH1 0x6 SUB PUSH2 0xE3C JUMPI POP PUSH1 0xA SWAP2 SWAP1 POP JUMP JUMPDEST DUP2 PUSH1 0x5 SUB PUSH2 0xE4C JUMPI POP PUSH1 0xF SWAP2 SWAP1 POP JUMP JUMPDEST DUP2 PUSH1 0x4 SUB PUSH2 0xE5C JUMPI POP PUSH1 0x14 SWAP2 SWAP1 POP JUMP JUMPDEST DUP2 PUSH1 0x3 SUB PUSH2 0xE6C JUMPI POP PUSH1 0x1E SWAP2 SWAP1 POP JUMP JUMPDEST DUP2 PUSH1 0x2 SUB PUSH2 0xE7C JUMPI POP PUSH1 0x32 SWAP2 SWAP1 POP JUMP JUMPDEST DUP2 PUSH1 0x1 SUB PUSH2 0xE12 JUMPI POP PUSH1 0x64 SWAP2 SWAP1 POP JUMP JUMPDEST PUSH2 0xE99 DUP4 DUP4 DUP4 PUSH1 0x1 PUSH2 0xF7A JUMP JUMPDEST PUSH2 0xEC1 JUMPI PUSH1 0x40 MLOAD PUSH4 0x5274AFE7 PUSH1 0xE0 SHL DUP2 MSTORE PUSH1 0x1 PUSH1 0x1 PUSH1 0xA0 SHL SUB DUP5 AND PUSH1 0x4 DUP3 ADD MSTORE PUSH1 0x24 ADD PUSH2 0xD23 JUMP JUMPDEST POP POP POP JUMP JUMPDEST PUSH1 0x40 MLOAD PUSH4 0x23B872DD PUSH1 0xE0 SHL PUSH1 0x0 DUP2 DUP2 MSTORE PUSH1 0x1 PUSH1 0x1 PUSH1 0xA0 SHL SUB DUP8 DUP2 AND PUSH1 0x4 MSTORE DUP7 AND PUSH1 0x24 MSTORE PUSH1 0x44 DUP6 SWAP1 MSTORE SWAP2 PUSH1 0x20 DUP4 PUSH1 0x64 DUP2 DUP1 DUP13 GAS CALL SWAP3 POP PUSH1 0x1 PUSH1 0x0 MLOAD EQ DUP4 AND PUSH2 0xF26 JUMPI DUP4 DUP4 ISZERO AND ISZERO PUSH2 0xF19 JUMPI RETURNDATASIZE PUSH1 0x0 DUP3 RETURNDATACOPY RETURNDATASIZE DUP2 REVERT JUMPDEST PUSH1 0x0 DUP9 EXTCODESIZE GT RETURNDATASIZE ISZERO AND DUP4 AND SWAP3 POP JUMPDEST PUSH1 0x40 MSTORE POP PUSH1 0x0 PUSH1 0x60 MSTORE SWAP6 SWAP5 POP POP POP POP POP JUMP JUMPDEST PUSH32 0x9B779B17422D0DF92223018B32B4D1FA46E071723D6817E2486D003BECC55F00 SLOAD PUSH1 0x2 SUB PUSH2 0x8B8 JUMPI PUSH1 0x40 MLOAD PUSH4 0x3EE5AEB5 PUSH1 0xE0 SHL DUP2 MSTORE PUSH1 0x4 ADD PUSH1 0x40 MLOAD DUP1 SWAP2 SUB SWAP1 REVERT JUMPDEST PUSH1 0x40 MLOAD PUSH4 0xA9059CBB PUSH1 0xE0 SHL PUSH1 0x0 DUP2 DUP2 MSTORE PUSH1 0x1 PUSH1 0x1 PUSH1 0xA0 SHL SUB DUP7 AND PUSH1 0x4 MSTORE PUSH1 0x24 DUP6 SWAP1 MSTORE SWAP2 PUSH1 0x20 DUP4 PUSH1 0x44 DUP2 DUP1 DUP12 GAS CALL SWAP3 POP PUSH1 0x1 PUSH1 0x0 MLOAD EQ DUP4 AND PUSH2 0xFD4 JUMPI DUP4 DUP4 ISZERO AND ISZERO PUSH2 0xFC7 JUMPI RETURNDATASIZE PUSH1 0x0 DUP3 RETURNDATACOPY RETURNDATASIZE DUP2 REVERT JUMPDEST PUSH1 0x0 DUP8 EXTCODESIZE GT RETURNDATASIZE ISZERO AND DUP4 AND SWAP3 POP JUMPDEST PUSH1 0x40 MSTORE POP SWAP5 SWAP4 POP POP POP POP JUMP JUMPDEST PUSH1 0x1 PUSH1 0x1 PUSH1 0xA0 SHL SUB DUP2 AND DUP2 EQ PUSH2 0xFF5 JUMPI PUSH1 0x0 DUP1 REVERT JUMPDEST POP JUMP JUMPDEST PUSH1 0x0 DUP1 PUSH1 0x40 DUP4 DUP6 SUB SLT ISZERO PUSH2 0x100B JUMPI PUSH1 0x0 DUP1 REVERT JUMPDEST DUP3 CALLDATALOAD PUSH2 0x1016 DUP2 PUSH2 0xFE0 JUMP JUMPDEST SWAP5 PUSH1 0x20 SWAP4 SWAP1 SWAP4 ADD CALLDATALOAD SWAP4 POP POP POP JUMP JUMPDEST PUSH1 0x0 PUSH1 0x20 DUP3 DUP5 SUB SLT ISZERO PUSH2 0x1036 JUMPI PUSH1 0x0 DUP1 REVERT JUMPDEST DUP2 CALLDATALOAD PUSH2 0x417 DUP2 PUSH2 0xFE0 JUMP JUMPDEST PUSH1 0x0 DUP1 PUSH1 0x0 PUSH1 0x60 DUP5 DUP7 SUB SLT ISZERO PUSH2 0x1056 JUMPI PUSH1 0x0 DUP1 REVERT JUMPDEST DUP4 CALLDATALOAD PUSH2 0x1061 DUP2 PUSH2 0xFE0 JUMP JUMPDEST SWAP3 POP PUSH1 0x20 DUP5 ADD CALLDATALOAD PUSH2 0x1071 DUP2 PUSH2 0xFE0 JUMP JUMPDEST SWAP2 POP PUSH1 0x40 DUP5 ADD CALLDATALOAD PUSH2 0x1081 DUP2 PUSH2 0xFE0 JUMP JUMPDEST DUP1 SWAP2 POP POP SWAP3 POP SWAP3 POP SWAP3 JUMP JUMPDEST PUSH1 0x0 DUP1 PUSH1 0x0 PUSH1 0x60 DUP5 DUP7 SUB SLT ISZERO PUSH2 0x10A1 JUMPI PUSH1 0x0 DUP1 REVERT JUMPDEST DUP4 CALLDATALOAD PUSH2 0x10AC DUP2 PUSH2 0xFE0 JUMP JUMPDEST SWAP3 POP PUSH1 0x20 DUP5 ADD CALLDATALOAD SWAP2 POP PUSH1 0x40 DUP5 ADD CALLDATALOAD PUSH2 0x1081 DUP2 PUSH2 0xFE0 JUMP JUMPDEST PUSH1 0x0 PUSH1 0x20 DUP3 DUP5 SUB SLT ISZERO PUSH2 0x10D5 JUMPI PUSH1 0x0 DUP1 REVERT JUMPDEST POP CALLDATALOAD SWAP2 SWAP1 POP JUMP JUMPDEST PUSH1 0x0 DUP1 PUSH1 0x0 PUSH1 0x60 DUP5 DUP7 SUB SLT ISZERO PUSH2 0x10F1 JUMPI PUSH1 0x0 DUP1 REVERT JUMPDEST DUP4 CALLDATALOAD PUSH2 0x10FC DUP2 PUSH2 0xFE0 JUMP JUMPDEST SWAP3 POP PUSH1 0x20 DUP5 ADD CALLDATALOAD PUSH2 0x110C DUP2 PUSH2 0xFE0 JUMP JUMPDEST SWAP3 SWAP6 SWAP3 SWAP5 POP POP POP PUSH1 0x40 SWAP2 SWAP1 SWAP2 ADD CALLDATALOAD SWAP1 JUMP JUMPDEST PUSH4 0x4E487B71 PUSH1 0xE0 SHL PUSH1 0x0 MSTORE PUSH1 0x11 PUSH1 0x4 MSTORE PUSH1 0x24 PUSH1 0x0 REVERT JUMPDEST DUP1 DUP3 ADD DUP1 DUP3 GT ISZERO PUSH2 0x3FA JUMPI PUSH2 0x3FA PUSH2 0x111D JUMP JUMPDEST DUP2 DUP2 SUB DUP2 DUP2 GT ISZERO PUSH2 0x3FA JUMPI PUSH2 0x3FA PUSH2 0x111D JUMP JUMPDEST DUP1 DUP3 MUL DUP2 ISZERO DUP3 DUP3 DIV DUP5 EQ OR PUSH2 0x3FA JUMPI PUSH2 0x3FA PUSH2 0x111D JUMP JUMPDEST PUSH1 0x0 DUP3 PUSH2 0x118D JUMPI PUSH4 0x4E487B71 PUSH1 0xE0 SHL PUSH1 0x0 MSTORE PUSH1 0x12 PUSH1 0x4 MSTORE PUSH1 0x24 PUSH1 0x0 REVERT JUMPDEST POP DIV SWAP1 JUMP JUMPDEST PUSH4 0x4E487B71 PUSH1 0xE0 SHL PUSH1 0x0 MSTORE PUSH1 0x41 PUSH1 0x4 MSTORE PUSH1 0x24 PUSH1 0x0 REVERT JUMPDEST DUP1 MLOAD PUSH2 0x11B3 DUP2 PUSH2 0xFE0 JUMP JUMPDEST SWAP2 SWAP1 POP JUMP JUMPDEST PUSH1 0x0 PUSH1 0x20 DUP1 DUP4 DUP6 SUB SLT ISZERO PUSH2 0x11CB JUMPI PUSH1 0x0 DUP1 REVERT JUMPDEST DUP3 MLOAD PUSH8 0xFFFFFFFFFFFFFFFF DUP1 DUP3 GT ISZERO PUSH2 0x11E3 JUMPI PUSH1 0x0 DUP1 REVERT JUMPDEST DUP2 DUP6 ADD SWAP2 POP DUP6 PUSH1 0x1F DUP4 ADD SLT PUSH2 0x11F7 JUMPI PUSH1 0x0 DUP1 REVERT JUMPDEST DUP2 MLOAD DUP2 DUP2 GT ISZERO PUSH2 0x1209 JUMPI PUSH2 0x1209 PUSH2 0x1192 JUMP JUMPDEST DUP1 PUSH1 0x5 SHL PUSH1 0x40 MLOAD PUSH1 0x1F NOT PUSH1 0x3F DUP4 ADD AND DUP2 ADD DUP2 DUP2 LT DUP6 DUP3 GT OR ISZERO PUSH2 0x122E JUMPI PUSH2 0x122E PUSH2 0x1192 JUMP JUMPDEST PUSH1 0x40 MSTORE SWAP2 DUP3 MSTORE DUP5 DUP3 ADD SWAP3 POP DUP4 DUP2 ADD DUP6 ADD SWAP2 DUP9 DUP4 GT ISZERO PUSH2 0x124C JUMPI PUSH1 0x0 DUP1 REVERT JUMPDEST SWAP4 DUP6 ADD SWAP4 JUMPDEST DUP3 DUP6 LT ISZERO PUSH2 0x1271 JUMPI PUSH2 0x1262 DUP6 PUSH2 0x11A8 JUMP JUMPDEST DUP5 MSTORE SWAP4 DUP6 ADD SWAP4 SWAP3 DUP6 ADD SWAP3 PUSH2 0x1251 JUMP JUMPDEST SWAP9 SWAP8 POP POP POP POP POP POP POP POP JUMP JUMPDEST PUSH4 0x4E487B71 PUSH1 0xE0 SHL PUSH1 0x0 MSTORE PUSH1 0x32 PUSH1 0x4 MSTORE PUSH1 0x24 PUSH1 0x0 REVERT INVALID LOG2 PUSH5 0x6970667358 0x22 SLT KECCAK256 0xB0 GASLIMIT 0xA9 SWAP16 0xF9 PUSH14 0xF169EA8A748CB1C796562348F256 CALLDATASIZE 0xE SSTORE MSTORE LOG1 0xD7 TSTORE SSTORE 0xC3 OR DUP12 0xD3 PUSH5 0x736F6C6343 STOP ADDMOD XOR STOP CALLER "},"methodIdentifiers":{"admin()":"f851a440","bonusPoolBalance()":"29e9ad82","claimRankBonus()":"8b19d70e","completeSetup()":"8aea8f71","configure(address,address,address)":"55d28f20","genesisTimestamp()":"cacf66ab","getCurrentRank(address)":"b594b0c7","getCurrentWeekId()":"bcd3321e","getLegTurnover(address,uint256,address)":"b835f389","getPendingBonus(address)":"fc22833e","getWeeklyTurnover(address,uint256)":"2409c9a9","investmentEngine()":"30131384","isRankQualified(address)":"2fe3c0cc","legTurnover(address,uint256,address)":"5b6bcf3b","receiveBonusPool(uint256)":"88697547","recordTurnover(address,address,uint256)":"d9bd5f2d","referral()":"1441a5a9","setInvestmentEngine(address)":"cb4f51d1","setupComplete()":"b6635be6","timelock()":"d33219b4","totalBonusesDistributed()":"d31725cc","usdt()":"2f48ab7d","weekBonusClaimed(address,uint256)":"952d4c01","weeklyTurnoverData(address,uint256)":"57cecd8b"}}}}}