{"contracts/OSLOTreasury.sol":{"OSLOTreasury":{"abi":[{"inputs":[{"internalType":"address","name":"_usdt","type":"address"},{"internalType":"address","name":"_osloToken","type":"address"}],"stateMutability":"nonpayable","type":"constructor"},{"inputs":[],"name":"CannotRescueProtocolTokens","type":"error"},{"inputs":[],"name":"NotConfigured","type":"error"},{"inputs":[],"name":"NothingToDistribute","type":"error"},{"inputs":[],"name":"OnlyAdmin","type":"error"},{"inputs":[],"name":"OnlyTimelock","type":"error"},{"inputs":[],"name":"ReentrancyGuardReentrantCall","type":"error"},{"inputs":[{"internalType":"address","name":"token","type":"address"}],"name":"SafeERC20FailedOperation","type":"error"},{"inputs":[],"name":"SetupAlreadyComplete","type":"error"},{"inputs":[],"name":"ZeroAddress","type":"error"},{"anonymous":false,"inputs":[{"indexed":false,"internalType":"uint256","name":"toRank","type":"uint256"},{"indexed":false,"internalType":"uint256","name":"toDAO","type":"uint256"},{"indexed":false,"internalType":"uint256","name":"toLP","type":"uint256"}],"name":"Distributed","type":"event"},{"anonymous":false,"inputs":[{"indexed":false,"internalType":"uint256","name":"amount","type":"uint256"}],"name":"FeesReceived","type":"event"},{"anonymous":false,"inputs":[{"indexed":true,"internalType":"address","name":"token","type":"address"},{"indexed":false,"internalType":"uint256","name":"amount","type":"uint256"},{"indexed":false,"internalType":"address","name":"to","type":"address"}],"name":"TokensRescued","type":"event"},{"inputs":[],"name":"admin","outputs":[{"internalType":"address","name":"","type":"address"}],"stateMutability":"view","type":"function"},{"inputs":[],"name":"completeSetup","outputs":[],"stateMutability":"nonpayable","type":"function"},{"inputs":[{"internalType":"address","name":"_rankSystem","type":"address"},{"internalType":"address","name":"_dao","type":"address"},{"internalType":"address","name":"_liquidityManager","type":"address"},{"internalType":"address","name":"_timelock","type":"address"}],"name":"configure","outputs":[],"stateMutability":"nonpayable","type":"function"},{"inputs":[],"name":"dao","outputs":[{"internalType":"address","name":"","type":"address"}],"stateMutability":"view","type":"function"},{"inputs":[],"name":"distribute","outputs":[],"stateMutability":"nonpayable","type":"function"},{"inputs":[],"name":"liquidityManager","outputs":[{"internalType":"address","name":"","type":"address"}],"stateMutability":"view","type":"function"},{"inputs":[],"name":"osloToken","outputs":[{"internalType":"contract IERC20","name":"","type":"address"}],"stateMutability":"view","type":"function"},{"inputs":[],"name":"pendingDistribution","outputs":[{"internalType":"uint256","name":"","type":"uint256"}],"stateMutability":"view","type":"function"},{"inputs":[],"name":"rankSystem","outputs":[{"internalType":"address","name":"","type":"address"}],"stateMutability":"view","type":"function"},{"inputs":[{"internalType":"uint256","name":"amount","type":"uint256"}],"name":"receiveFees","outputs":[],"stateMutability":"nonpayable","type":"function"},{"inputs":[{"internalType":"address","name":"token","type":"address"},{"internalType":"uint256","name":"amount","type":"uint256"}],"name":"rescueERC20","outputs":[],"stateMutability":"nonpayable","type":"function"},{"inputs":[],"name":"setupComplete","outputs":[{"internalType":"bool","name":"","type":"bool"}],"stateMutability":"view","type":"function"},{"inputs":[],"name":"timelock","outputs":[{"internalType":"address","name":"","type":"address"}],"stateMutability":"view","type":"function"},{"inputs":[],"name":"totalDistributed","outputs":[{"internalType":"uint256","name":"","type":"uint256"}],"stateMutability":"view","type":"function"},{"inputs":[],"name":"totalReceived","outputs":[{"internalType":"uint256","name":"","type":"uint256"}],"stateMutability":"view","type":"function"},{"inputs":[],"name":"usdt","outputs":[{"internalType":"contract IERC20","name":"","type":"address"}],"stateMutability":"view","type":"function"}],"evm":{"bytecode":{"linkReferences":{},"object":"60c060405234801561001057600080fd5b50604051610b0e380380610b0e83398101604081905261002f916100d3565b60017f9b779b17422d0df92223018b32b4d1fa46e071723d6817e2486d003becc55f00556001600160a01b038216158061007057506001600160a01b038116155b1561008e5760405163d92e233d60e01b815260040160405180910390fd5b6001600160a01b039182166080521660a052600480546001600160a01b03191633179055610106565b80516001600160a01b03811681146100ce57600080fd5b919050565b600080604083850312156100e657600080fd5b6100ef836100b7565b91506100fd602084016100b7565b90509250929050565b60805160a0516109c76101476000396000818161011f01526104c30152600081816101630152818161026d0152818161048801526105e901526109c76000f3fe608060405234801561001057600080fd5b50600436106101005760003560e01c80639c22b9a611610097578063e4fc6b6d11610066578063e4fc6b6d14610229578063e9a16bd514610231578063efca2eed14610244578063f851a4401461024d57600080fd5b80639c22b9a6146101d9578063a3c2c462146101f0578063b6635be6146101f9578063d33219b41461021657600080fd5b80634162169f116100d35780634162169f146101985780635acb5082146101ab5780638aea8f71146101be5780638cd4426d146101c657600080fd5b80630420592e146101055780632acfbca31461011a5780632f48ab7d1461015e5780633382743814610185575b600080fd5b6101186101133660046108b7565b610260565b005b6101417f000000000000000000000000000000000000000000000000000000000000000081565b6040516001600160a01b0390911681526020015b60405180910390f35b6101417f000000000000000000000000000000000000000000000000000000000000000081565b600254610141906001600160a01b031681565b600154610141906001600160a01b031681565b6101186101b93660046108ec565b6102fb565b61011861039a565b6101186101d4366004610940565b61045b565b6101e260075481565b604051908152602001610155565b6101e260055481565b6008546102069060ff1681565b6040519015158152602001610155565b600354610141906001600160a01b031681565b61011861057c565b600054610141906001600160a01b031681565b6101e260065481565b600454610141906001600160a01b031681565b6102956001600160a01b037f0000000000000000000000000000000000000000000000000000000000000000163330846106f4565b80600560008282546102a7919061096a565b9250508190555080600760008282546102c0919061096a565b90915550506040518181527f91b044947b8ab661360de0aedacf8d16ad45adfb1f3bafb2ac8c4633e297b9719060200160405180910390a150565b6004546001600160a01b0316331461032657604051634755657960e01b815260040160405180910390fd5b60085460ff161561034a5760405163238f75d360e01b815260040160405180910390fd5b600080546001600160a01b039586166001600160a01b0319918216179091556001805494861694821694909417909355600280549285169284169290921790915560038054919093169116179055565b6004546001600160a01b031633146103c557604051634755657960e01b815260040160405180910390fd5b60085460ff16156103e95760405163238f75d360e01b815260040160405180910390fd5b6000546001600160a01b0316158061040a57506001546001600160a01b0316155b8061041e57506002546001600160a01b0316155b1561043c5760405163d311bc3960e01b815260040160405180910390fd5b6008805460ff19166001179055600480546001600160a01b0319169055565b6003546001600160a01b0316331461048657604051630e05f48560e11b815260040160405180910390fd5b7f00000000000000000000000000000000000000000000000000000000000000006001600160a01b0316826001600160a01b031614806104f757507f00000000000000000000000000000000000000000000000000000000000000006001600160a01b0316826001600160a01b0316145b15610515576040516311c9c0e360e01b815260040160405180910390fd5b60035461052f906001600160a01b03848116911683610735565b600354604080518381526001600160a01b039283166020820152918416917ffb475a842bad10d3800b61bd1a92e716051afba979b124b583bd99a2d1d7bfd5910160405180910390a25050565b61058461076f565b6007546000036105a65760405162598fc960e21b815260040160405180910390fd5b6002546001600160a01b03166105cf5760405163d311bc3960e01b815260040160405180910390fd5b600780546000909155600254610612906001600160a01b037f00000000000000000000000000000000000000000000000000000000000000008116911683610735565b60025460405163ee3b038f60e01b8152600481018390526001600160a01b039091169063ee3b038f90602401600060405180830381600087803b15801561065857600080fd5b505af115801561066c573d6000803e3d6000fd5b505050508060066000828254610682919061096a565b909155505060408051600080825260208201529081018290527fc5d35a65af09b3042394b742529d10f7fbf9a37294d6b13e4d63d06f9909a15b9060600160405180910390a1506106f260017f9b779b17422d0df92223018b32b4d1fa46e071723d6817e2486d003becc55f0055565b565b61070284848484600161079d565b61072f57604051635274afe760e01b81526001600160a01b03851660048201526024015b60405180910390fd5b50505050565b610742838383600161080f565b61076a57604051635274afe760e01b81526001600160a01b0384166004820152602401610726565b505050565b610777610875565b60027f9b779b17422d0df92223018b32b4d1fa46e071723d6817e2486d003becc55f0055565b6040516323b872dd60e01b60008181526001600160a01b038781166004528616602452604485905291602083606481808c5af1925060016000511483166107fd5783831516156107f0573d6000823e3d81fd5b6000883b113d1516831692505b60405250600060605295945050505050565b60405163a9059cbb60e01b60008181526001600160a01b038616600452602485905291602083604481808b5af19250600160005114831661086957838315161561085c573d6000823e3d81fd5b6000873b113d1516831692505b60405250949350505050565b7f9b779b17422d0df92223018b32b4d1fa46e071723d6817e2486d003becc55f00546002036106f257604051633ee5aeb560e01b815260040160405180910390fd5b6000602082840312156108c957600080fd5b5035919050565b80356001600160a01b03811681146108e757600080fd5b919050565b6000806000806080858703121561090257600080fd5b61090b856108d0565b9350610919602086016108d0565b9250610927604086016108d0565b9150610935606086016108d0565b905092959194509250565b6000806040838503121561095357600080fd5b61095c836108d0565b946020939093013593505050565b8082018082111561098b57634e487b7160e01b600052601160045260246000fd5b9291505056fea264697066735822122007a2d75253c76b86a9a8f9f0521a005307c396b22da8b60b63c9b635cc888c0064736f6c63430008180033","opcodes":"PUSH1 0xC0 PUSH1 0x40 MSTORE CALLVALUE DUP1 ISZERO PUSH2 0x10 JUMPI PUSH1 0x0 DUP1 REVERT JUMPDEST POP PUSH1 0x40 MLOAD PUSH2 0xB0E CODESIZE SUB DUP1 PUSH2 0xB0E DUP4 CODECOPY DUP2 ADD PUSH1 0x40 DUP2 SWAP1 MSTORE PUSH2 0x2F SWAP2 PUSH2 0xD3 JUMP JUMPDEST PUSH1 0x1 PUSH32 0x9B779B17422D0DF92223018B32B4D1FA46E071723D6817E2486D003BECC55F00 SSTORE PUSH1 0x1 PUSH1 0x1 PUSH1 0xA0 SHL SUB DUP3 AND ISZERO DUP1 PUSH2 0x70 JUMPI POP PUSH1 0x1 PUSH1 0x1 PUSH1 0xA0 SHL SUB DUP2 AND ISZERO JUMPDEST ISZERO PUSH2 0x8E JUMPI PUSH1 0x40 MLOAD PUSH4 0xD92E233D PUSH1 0xE0 SHL DUP2 MSTORE PUSH1 0x4 ADD PUSH1 0x40 MLOAD DUP1 SWAP2 SUB SWAP1 REVERT JUMPDEST PUSH1 0x1 PUSH1 0x1 PUSH1 0xA0 SHL SUB SWAP2 DUP3 AND PUSH1 0x80 MSTORE AND PUSH1 0xA0 MSTORE PUSH1 0x4 DUP1 SLOAD PUSH1 0x1 PUSH1 0x1 PUSH1 0xA0 SHL SUB NOT AND CALLER OR SWAP1 SSTORE PUSH2 0x106 JUMP JUMPDEST DUP1 MLOAD PUSH1 0x1 PUSH1 0x1 PUSH1 0xA0 SHL SUB DUP2 AND DUP2 EQ PUSH2 0xCE JUMPI PUSH1 0x0 DUP1 REVERT JUMPDEST SWAP2 SWAP1 POP JUMP JUMPDEST PUSH1 0x0 DUP1 PUSH1 0x40 DUP4 DUP6 SUB SLT ISZERO PUSH2 0xE6 JUMPI PUSH1 0x0 DUP1 REVERT JUMPDEST PUSH2 0xEF DUP4 PUSH2 0xB7 JUMP JUMPDEST SWAP2 POP PUSH2 0xFD PUSH1 0x20 DUP5 ADD PUSH2 0xB7 JUMP JUMPDEST SWAP1 POP SWAP3 POP SWAP3 SWAP1 POP JUMP JUMPDEST PUSH1 0x80 MLOAD PUSH1 0xA0 MLOAD PUSH2 0x9C7 PUSH2 0x147 PUSH1 0x0 CODECOPY PUSH1 0x0 DUP2 DUP2 PUSH2 0x11F ADD MSTORE PUSH2 0x4C3 ADD MSTORE PUSH1 0x0 DUP2 DUP2 PUSH2 0x163 ADD MSTORE DUP2 DUP2 PUSH2 0x26D ADD MSTORE DUP2 DUP2 PUSH2 0x488 ADD MSTORE PUSH2 0x5E9 ADD MSTORE PUSH2 0x9C7 PUSH1 0x0 RETURN INVALID PUSH1 0x80 PUSH1 0x40 MSTORE CALLVALUE DUP1 ISZERO PUSH2 0x10 JUMPI PUSH1 0x0 DUP1 REVERT JUMPDEST POP PUSH1 0x4 CALLDATASIZE LT PUSH2 0x100 JUMPI PUSH1 0x0 CALLDATALOAD PUSH1 0xE0 SHR DUP1 PUSH4 0x9C22B9A6 GT PUSH2 0x97 JUMPI DUP1 PUSH4 0xE4FC6B6D GT PUSH2 0x66 JUMPI DUP1 PUSH4 0xE4FC6B6D EQ PUSH2 0x229 JUMPI DUP1 PUSH4 0xE9A16BD5 EQ PUSH2 0x231 JUMPI DUP1 PUSH4 0xEFCA2EED EQ PUSH2 0x244 JUMPI DUP1 PUSH4 0xF851A440 EQ PUSH2 0x24D JUMPI PUSH1 0x0 DUP1 REVERT JUMPDEST DUP1 PUSH4 0x9C22B9A6 EQ PUSH2 0x1D9 JUMPI DUP1 PUSH4 0xA3C2C462 EQ PUSH2 0x1F0 JUMPI DUP1 PUSH4 0xB6635BE6 EQ PUSH2 0x1F9 JUMPI DUP1 PUSH4 0xD33219B4 EQ PUSH2 0x216 JUMPI PUSH1 0x0 DUP1 REVERT JUMPDEST DUP1 PUSH4 0x4162169F GT PUSH2 0xD3 JUMPI DUP1 PUSH4 0x4162169F EQ PUSH2 0x198 JUMPI DUP1 PUSH4 0x5ACB5082 EQ PUSH2 0x1AB JUMPI DUP1 PUSH4 0x8AEA8F71 EQ PUSH2 0x1BE JUMPI DUP1 PUSH4 0x8CD4426D EQ PUSH2 0x1C6 JUMPI PUSH1 0x0 DUP1 REVERT JUMPDEST DUP1 PUSH4 0x420592E EQ PUSH2 0x105 JUMPI DUP1 PUSH4 0x2ACFBCA3 EQ PUSH2 0x11A JUMPI DUP1 PUSH4 0x2F48AB7D EQ PUSH2 0x15E JUMPI DUP1 PUSH4 0x33827438 EQ PUSH2 0x185 JUMPI JUMPDEST PUSH1 0x0 DUP1 REVERT JUMPDEST PUSH2 0x118 PUSH2 0x113 CALLDATASIZE PUSH1 0x4 PUSH2 0x8B7 JUMP JUMPDEST PUSH2 0x260 JUMP JUMPDEST STOP JUMPDEST PUSH2 0x141 PUSH32 0x0 DUP2 JUMP JUMPDEST PUSH1 0x40 MLOAD PUSH1 0x1 PUSH1 0x1 PUSH1 0xA0 SHL SUB SWAP1 SWAP2 AND DUP2 MSTORE PUSH1 0x20 ADD JUMPDEST PUSH1 0x40 MLOAD DUP1 SWAP2 SUB SWAP1 RETURN JUMPDEST PUSH2 0x141 PUSH32 0x0 DUP2 JUMP JUMPDEST PUSH1 0x2 SLOAD PUSH2 0x141 SWAP1 PUSH1 0x1 PUSH1 0x1 PUSH1 0xA0 SHL SUB AND DUP2 JUMP JUMPDEST PUSH1 0x1 SLOAD PUSH2 0x141 SWAP1 PUSH1 0x1 PUSH1 0x1 PUSH1 0xA0 SHL SUB AND DUP2 JUMP JUMPDEST PUSH2 0x118 PUSH2 0x1B9 CALLDATASIZE PUSH1 0x4 PUSH2 0x8EC JUMP JUMPDEST PUSH2 0x2FB JUMP JUMPDEST PUSH2 0x118 PUSH2 0x39A JUMP JUMPDEST PUSH2 0x118 PUSH2 0x1D4 CALLDATASIZE PUSH1 0x4 PUSH2 0x940 JUMP JUMPDEST PUSH2 0x45B JUMP JUMPDEST PUSH2 0x1E2 PUSH1 0x7 SLOAD DUP2 JUMP JUMPDEST PUSH1 0x40 MLOAD SWAP1 DUP2 MSTORE PUSH1 0x20 ADD PUSH2 0x155 JUMP JUMPDEST PUSH2 0x1E2 PUSH1 0x5 SLOAD DUP2 JUMP JUMPDEST PUSH1 0x8 SLOAD PUSH2 0x206 SWAP1 PUSH1 0xFF AND DUP2 JUMP JUMPDEST PUSH1 0x40 MLOAD SWAP1 ISZERO ISZERO DUP2 MSTORE PUSH1 0x20 ADD PUSH2 0x155 JUMP JUMPDEST PUSH1 0x3 SLOAD PUSH2 0x141 SWAP1 PUSH1 0x1 PUSH1 0x1 PUSH1 0xA0 SHL SUB AND DUP2 JUMP JUMPDEST PUSH2 0x118 PUSH2 0x57C JUMP JUMPDEST PUSH1 0x0 SLOAD PUSH2 0x141 SWAP1 PUSH1 0x1 PUSH1 0x1 PUSH1 0xA0 SHL SUB AND DUP2 JUMP JUMPDEST PUSH2 0x1E2 PUSH1 0x6 SLOAD DUP2 JUMP JUMPDEST PUSH1 0x4 SLOAD PUSH2 0x141 SWAP1 PUSH1 0x1 PUSH1 0x1 PUSH1 0xA0 SHL SUB AND DUP2 JUMP JUMPDEST PUSH2 0x295 PUSH1 0x1 PUSH1 0x1 PUSH1 0xA0 SHL SUB PUSH32 0x0 AND CALLER ADDRESS DUP5 PUSH2 0x6F4 JUMP JUMPDEST DUP1 PUSH1 0x5 PUSH1 0x0 DUP3 DUP3 SLOAD PUSH2 0x2A7 SWAP2 SWAP1 PUSH2 0x96A JUMP JUMPDEST SWAP3 POP POP DUP2 SWAP1 SSTORE POP DUP1 PUSH1 0x7 PUSH1 0x0 DUP3 DUP3 SLOAD PUSH2 0x2C0 SWAP2 SWAP1 PUSH2 0x96A JUMP JUMPDEST SWAP1 SWAP2 SSTORE POP POP PUSH1 0x40 MLOAD DUP2 DUP2 MSTORE PUSH32 0x91B044947B8AB661360DE0AEDACF8D16AD45ADFB1F3BAFB2AC8C4633E297B971 SWAP1 PUSH1 0x20 ADD PUSH1 0x40 MLOAD DUP1 SWAP2 SUB SWAP1 LOG1 POP JUMP JUMPDEST PUSH1 0x4 SLOAD PUSH1 0x1 PUSH1 0x1 PUSH1 0xA0 SHL SUB AND CALLER EQ PUSH2 0x326 JUMPI PUSH1 0x40 MLOAD PUSH4 0x47556579 PUSH1 0xE0 SHL DUP2 MSTORE PUSH1 0x4 ADD PUSH1 0x40 MLOAD DUP1 SWAP2 SUB SWAP1 REVERT JUMPDEST PUSH1 0x8 SLOAD PUSH1 0xFF AND ISZERO PUSH2 0x34A JUMPI PUSH1 0x40 MLOAD PUSH4 0x238F75D3 PUSH1 0xE0 SHL DUP2 MSTORE PUSH1 0x4 ADD PUSH1 0x40 MLOAD DUP1 SWAP2 SUB SWAP1 REVERT JUMPDEST PUSH1 0x0 DUP1 SLOAD PUSH1 0x1 PUSH1 0x1 PUSH1 0xA0 SHL SUB SWAP6 DUP7 AND PUSH1 0x1 PUSH1 0x1 PUSH1 0xA0 SHL SUB NOT SWAP2 DUP3 AND OR SWAP1 SWAP2 SSTORE PUSH1 0x1 DUP1 SLOAD SWAP5 DUP7 AND SWAP5 DUP3 AND SWAP5 SWAP1 SWAP5 OR SWAP1 SWAP4 SSTORE PUSH1 0x2 DUP1 SLOAD SWAP3 DUP6 AND SWAP3 DUP5 AND SWAP3 SWAP1 SWAP3 OR SWAP1 SWAP2 SSTORE PUSH1 0x3 DUP1 SLOAD SWAP2 SWAP1 SWAP4 AND SWAP2 AND OR SWAP1 SSTORE JUMP JUMPDEST PUSH1 0x4 SLOAD PUSH1 0x1 PUSH1 0x1 PUSH1 0xA0 SHL SUB AND CALLER EQ PUSH2 0x3C5 JUMPI PUSH1 0x40 MLOAD PUSH4 0x47556579 PUSH1 0xE0 SHL DUP2 MSTORE PUSH1 0x4 ADD PUSH1 0x40 MLOAD DUP1 SWAP2 SUB SWAP1 REVERT JUMPDEST PUSH1 0x8 SLOAD PUSH1 0xFF AND ISZERO PUSH2 0x3E9 JUMPI PUSH1 0x40 MLOAD PUSH4 0x238F75D3 PUSH1 0xE0 SHL DUP2 MSTORE PUSH1 0x4 ADD PUSH1 0x40 MLOAD DUP1 SWAP2 SUB SWAP1 REVERT JUMPDEST PUSH1 0x0 SLOAD PUSH1 0x1 PUSH1 0x1 PUSH1 0xA0 SHL SUB AND ISZERO DUP1 PUSH2 0x40A JUMPI POP PUSH1 0x1 SLOAD PUSH1 0x1 PUSH1 0x1 PUSH1 0xA0 SHL SUB AND ISZERO JUMPDEST DUP1 PUSH2 0x41E JUMPI POP PUSH1 0x2 SLOAD PUSH1 0x1 PUSH1 0x1 PUSH1 0xA0 SHL SUB AND ISZERO JUMPDEST ISZERO PUSH2 0x43C JUMPI PUSH1 0x40 MLOAD PUSH4 0xD311BC39 PUSH1 0xE0 SHL DUP2 MSTORE PUSH1 0x4 ADD PUSH1 0x40 MLOAD DUP1 SWAP2 SUB SWAP1 REVERT JUMPDEST PUSH1 0x8 DUP1 SLOAD PUSH1 0xFF NOT AND PUSH1 0x1 OR SWAP1 SSTORE PUSH1 0x4 DUP1 SLOAD PUSH1 0x1 PUSH1 0x1 PUSH1 0xA0 SHL SUB NOT AND SWAP1 SSTORE JUMP JUMPDEST PUSH1 0x3 SLOAD PUSH1 0x1 PUSH1 0x1 PUSH1 0xA0 SHL SUB AND CALLER EQ PUSH2 0x486 JUMPI PUSH1 0x40 MLOAD PUSH4 0xE05F485 PUSH1 0xE1 SHL DUP2 MSTORE PUSH1 0x4 ADD PUSH1 0x40 MLOAD DUP1 SWAP2 SUB SWAP1 REVERT JUMPDEST PUSH32 0x0 PUSH1 0x1 PUSH1 0x1 PUSH1 0xA0 SHL SUB AND DUP3 PUSH1 0x1 PUSH1 0x1 PUSH1 0xA0 SHL SUB AND EQ DUP1 PUSH2 0x4F7 JUMPI POP PUSH32 0x0 PUSH1 0x1 PUSH1 0x1 PUSH1 0xA0 SHL SUB AND DUP3 PUSH1 0x1 PUSH1 0x1 PUSH1 0xA0 SHL SUB AND EQ JUMPDEST ISZERO PUSH2 0x515 JUMPI PUSH1 0x40 MLOAD PUSH4 0x11C9C0E3 PUSH1 0xE0 SHL DUP2 MSTORE PUSH1 0x4 ADD PUSH1 0x40 MLOAD DUP1 SWAP2 SUB SWAP1 REVERT JUMPDEST PUSH1 0x3 SLOAD PUSH2 0x52F SWAP1 PUSH1 0x1 PUSH1 0x1 PUSH1 0xA0 SHL SUB DUP5 DUP2 AND SWAP2 AND DUP4 PUSH2 0x735 JUMP JUMPDEST PUSH1 0x3 SLOAD PUSH1 0x40 DUP1 MLOAD DUP4 DUP2 MSTORE PUSH1 0x1 PUSH1 0x1 PUSH1 0xA0 SHL SUB SWAP3 DUP4 AND PUSH1 0x20 DUP3 ADD MSTORE SWAP2 DUP5 AND SWAP2 PUSH32 0xFB475A842BAD10D3800B61BD1A92E716051AFBA979B124B583BD99A2D1D7BFD5 SWAP2 ADD PUSH1 0x40 MLOAD DUP1 SWAP2 SUB SWAP1 LOG2 POP POP JUMP JUMPDEST PUSH2 0x584 PUSH2 0x76F JUMP JUMPDEST PUSH1 0x7 SLOAD PUSH1 0x0 SUB PUSH2 0x5A6 JUMPI PUSH1 0x40 MLOAD PUSH3 0x598FC9 PUSH1 0xE2 SHL DUP2 MSTORE PUSH1 0x4 ADD PUSH1 0x40 MLOAD DUP1 SWAP2 SUB SWAP1 REVERT JUMPDEST PUSH1 0x2 SLOAD PUSH1 0x1 PUSH1 0x1 PUSH1 0xA0 SHL SUB AND PUSH2 0x5CF JUMPI PUSH1 0x40 MLOAD PUSH4 0xD311BC39 PUSH1 0xE0 SHL DUP2 MSTORE PUSH1 0x4 ADD PUSH1 0x40 MLOAD DUP1 SWAP2 SUB SWAP1 REVERT JUMPDEST PUSH1 0x7 DUP1 SLOAD PUSH1 0x0 SWAP1 SWAP2 SSTORE PUSH1 0x2 SLOAD PUSH2 0x612 SWAP1 PUSH1 0x1 PUSH1 0x1 PUSH1 0xA0 SHL SUB PUSH32 0x0 DUP2 AND SWAP2 AND DUP4 PUSH2 0x735 JUMP JUMPDEST PUSH1 0x2 SLOAD PUSH1 0x40 MLOAD PUSH4 0xEE3B038F PUSH1 0xE0 SHL DUP2 MSTORE PUSH1 0x4 DUP2 ADD DUP4 SWAP1 MSTORE PUSH1 0x1 PUSH1 0x1 PUSH1 0xA0 SHL SUB SWAP1 SWAP2 AND SWAP1 PUSH4 0xEE3B038F SWAP1 PUSH1 0x24 ADD PUSH1 0x0 PUSH1 0x40 MLOAD DUP1 DUP4 SUB DUP2 PUSH1 0x0 DUP8 DUP1 EXTCODESIZE ISZERO DUP1 ISZERO PUSH2 0x658 JUMPI PUSH1 0x0 DUP1 REVERT JUMPDEST POP GAS CALL ISZERO DUP1 ISZERO PUSH2 0x66C JUMPI RETURNDATASIZE PUSH1 0x0 DUP1 RETURNDATACOPY RETURNDATASIZE PUSH1 0x0 REVERT JUMPDEST POP POP POP POP DUP1 PUSH1 0x6 PUSH1 0x0 DUP3 DUP3 SLOAD PUSH2 0x682 SWAP2 SWAP1 PUSH2 0x96A JUMP JUMPDEST SWAP1 SWAP2 SSTORE POP POP PUSH1 0x40 DUP1 MLOAD PUSH1 0x0 DUP1 DUP3 MSTORE PUSH1 0x20 DUP3 ADD MSTORE SWAP1 DUP2 ADD DUP3 SWAP1 MSTORE PUSH32 0xC5D35A65AF09B3042394B742529D10F7FBF9A37294D6B13E4D63D06F9909A15B SWAP1 PUSH1 0x60 ADD PUSH1 0x40 MLOAD DUP1 SWAP2 SUB SWAP1 LOG1 POP PUSH2 0x6F2 PUSH1 0x1 PUSH32 0x9B779B17422D0DF92223018B32B4D1FA46E071723D6817E2486D003BECC55F00 SSTORE JUMP JUMPDEST JUMP JUMPDEST PUSH2 0x702 DUP5 DUP5 DUP5 DUP5 PUSH1 0x1 PUSH2 0x79D JUMP JUMPDEST PUSH2 0x72F JUMPI PUSH1 0x40 MLOAD PUSH4 0x5274AFE7 PUSH1 0xE0 SHL DUP2 MSTORE PUSH1 0x1 PUSH1 0x1 PUSH1 0xA0 SHL SUB DUP6 AND PUSH1 0x4 DUP3 ADD MSTORE PUSH1 0x24 ADD JUMPDEST PUSH1 0x40 MLOAD DUP1 SWAP2 SUB SWAP1 REVERT JUMPDEST POP POP POP POP JUMP JUMPDEST PUSH2 0x742 DUP4 DUP4 DUP4 PUSH1 0x1 PUSH2 0x80F JUMP JUMPDEST PUSH2 0x76A JUMPI PUSH1 0x40 MLOAD PUSH4 0x5274AFE7 PUSH1 0xE0 SHL DUP2 MSTORE PUSH1 0x1 PUSH1 0x1 PUSH1 0xA0 SHL SUB DUP5 AND PUSH1 0x4 DUP3 ADD MSTORE PUSH1 0x24 ADD PUSH2 0x726 JUMP JUMPDEST POP POP POP JUMP JUMPDEST PUSH2 0x777 PUSH2 0x875 JUMP JUMPDEST PUSH1 0x2 PUSH32 0x9B779B17422D0DF92223018B32B4D1FA46E071723D6817E2486D003BECC55F00 SSTORE JUMP JUMPDEST PUSH1 0x40 MLOAD PUSH4 0x23B872DD PUSH1 0xE0 SHL PUSH1 0x0 DUP2 DUP2 MSTORE PUSH1 0x1 PUSH1 0x1 PUSH1 0xA0 SHL SUB DUP8 DUP2 AND PUSH1 0x4 MSTORE DUP7 AND PUSH1 0x24 MSTORE PUSH1 0x44 DUP6 SWAP1 MSTORE SWAP2 PUSH1 0x20 DUP4 PUSH1 0x64 DUP2 DUP1 DUP13 GAS CALL SWAP3 POP PUSH1 0x1 PUSH1 0x0 MLOAD EQ DUP4 AND PUSH2 0x7FD JUMPI DUP4 DUP4 ISZERO AND ISZERO PUSH2 0x7F0 JUMPI RETURNDATASIZE PUSH1 0x0 DUP3 RETURNDATACOPY RETURNDATASIZE DUP2 REVERT JUMPDEST PUSH1 0x0 DUP9 EXTCODESIZE GT RETURNDATASIZE ISZERO AND DUP4 AND SWAP3 POP JUMPDEST PUSH1 0x40 MSTORE POP PUSH1 0x0 PUSH1 0x60 MSTORE SWAP6 SWAP5 POP POP POP POP POP JUMP JUMPDEST PUSH1 0x40 MLOAD PUSH4 0xA9059CBB PUSH1 0xE0 SHL PUSH1 0x0 DUP2 DUP2 MSTORE PUSH1 0x1 PUSH1 0x1 PUSH1 0xA0 SHL SUB DUP7 AND PUSH1 0x4 MSTORE PUSH1 0x24 DUP6 SWAP1 MSTORE SWAP2 PUSH1 0x20 DUP4 PUSH1 0x44 DUP2 DUP1 DUP12 GAS CALL SWAP3 POP PUSH1 0x1 PUSH1 0x0 MLOAD EQ DUP4 AND PUSH2 0x869 JUMPI DUP4 DUP4 ISZERO AND ISZERO PUSH2 0x85C JUMPI RETURNDATASIZE PUSH1 0x0 DUP3 RETURNDATACOPY RETURNDATASIZE DUP2 REVERT JUMPDEST PUSH1 0x0 DUP8 EXTCODESIZE GT RETURNDATASIZE ISZERO AND DUP4 AND SWAP3 POP JUMPDEST PUSH1 0x40 MSTORE POP SWAP5 SWAP4 POP POP POP POP JUMP JUMPDEST PUSH32 0x9B779B17422D0DF92223018B32B4D1FA46E071723D6817E2486D003BECC55F00 SLOAD PUSH1 0x2 SUB PUSH2 0x6F2 JUMPI PUSH1 0x40 MLOAD PUSH4 0x3EE5AEB5 PUSH1 0xE0 SHL DUP2 MSTORE PUSH1 0x4 ADD PUSH1 0x40 MLOAD DUP1 SWAP2 SUB SWAP1 REVERT JUMPDEST PUSH1 0x0 PUSH1 0x20 DUP3 DUP5 SUB SLT ISZERO PUSH2 0x8C9 JUMPI PUSH1 0x0 DUP1 REVERT JUMPDEST POP CALLDATALOAD SWAP2 SWAP1 POP JUMP JUMPDEST DUP1 CALLDATALOAD PUSH1 0x1 PUSH1 0x1 PUSH1 0xA0 SHL SUB DUP2 AND DUP2 EQ PUSH2 0x8E7 JUMPI PUSH1 0x0 DUP1 REVERT JUMPDEST SWAP2 SWAP1 POP JUMP JUMPDEST PUSH1 0x0 DUP1 PUSH1 0x0 DUP1 PUSH1 0x80 DUP6 DUP8 SUB SLT ISZERO PUSH2 0x902 JUMPI PUSH1 0x0 DUP1 REVERT JUMPDEST PUSH2 0x90B DUP6 PUSH2 0x8D0 JUMP JUMPDEST SWAP4 POP PUSH2 0x919 PUSH1 0x20 DUP7 ADD PUSH2 0x8D0 JUMP JUMPDEST SWAP3 POP PUSH2 0x927 PUSH1 0x40 DUP7 ADD PUSH2 0x8D0 JUMP JUMPDEST SWAP2 POP PUSH2 0x935 PUSH1 0x60 DUP7 ADD PUSH2 0x8D0 JUMP JUMPDEST SWAP1 POP SWAP3 SWAP6 SWAP2 SWAP5 POP SWAP3 POP JUMP JUMPDEST PUSH1 0x0 DUP1 PUSH1 0x40 DUP4 DUP6 SUB SLT ISZERO PUSH2 0x953 JUMPI PUSH1 0x0 DUP1 REVERT JUMPDEST PUSH2 0x95C DUP4 PUSH2 0x8D0 JUMP JUMPDEST SWAP5 PUSH1 0x20 SWAP4 SWAP1 SWAP4 ADD CALLDATALOAD SWAP4 POP POP POP JUMP JUMPDEST DUP1 DUP3 ADD DUP1 DUP3 GT ISZERO PUSH2 0x98B JUMPI PUSH4 0x4E487B71 PUSH1 0xE0 SHL PUSH1 0x0 MSTORE PUSH1 0x11 PUSH1 0x4 MSTORE PUSH1 0x24 PUSH1 0x0 REVERT JUMPDEST SWAP3 SWAP2 POP POP JUMP INVALID LOG2 PUSH5 0x6970667358 0x22 SLT KECCAK256 SMOD LOG2 0xD7 MSTORE MSTORE8 0xC7 PUSH12 0x86A9A8F9F0521A005307C396 0xB2 0x2D 0xA8 0xB6 SIGNEXTEND PUSH4 0xC9B635CC DUP9 DUP13 STOP PUSH5 0x736F6C6343 STOP ADDMOD XOR STOP CALLER "},"methodIdentifiers":{"admin()":"f851a440","completeSetup()":"8aea8f71","configure(address,address,address,address)":"5acb5082","dao()":"4162169f","distribute()":"e4fc6b6d","liquidityManager()":"33827438","osloToken()":"2acfbca3","pendingDistribution()":"9c22b9a6","rankSystem()":"e9a16bd5","receiveFees(uint256)":"0420592e","rescueERC20(address,uint256)":"8cd4426d","setupComplete()":"b6635be6","timelock()":"d33219b4","totalDistributed()":"efca2eed","totalReceived()":"a3c2c462","usdt()":"2f48ab7d"}}}}}