{
  "_format": "hh-sol-artifact-1",
  "contractName": "FeeRouterV2",
  "sourceName": "contracts/FeeRouterV2.sol",
  "abi": [
    {
      "inputs": [
        {
          "internalType": "address",
          "name": "_usdt",
          "type": "address"
        },
        {
          "internalType": "address",
          "name": "_dex",
          "type": "address"
        }
      ],
      "stateMutability": "nonpayable",
      "type": "constructor"
    },
    {
      "inputs": [],
      "name": "OnlyAdmin",
      "type": "error"
    },
    {
      "inputs": [
        {
          "internalType": "address",
          "name": "token",
          "type": "address"
        }
      ],
      "name": "SafeERC20FailedOperation",
      "type": "error"
    },
    {
      "inputs": [],
      "name": "ZeroAddress",
      "type": "error"
    },
    {
      "inputs": [],
      "name": "ZeroAmount",
      "type": "error"
    },
    {
      "anonymous": false,
      "inputs": [
        {
          "indexed": true,
          "internalType": "address",
          "name": "newDex",
          "type": "address"
        }
      ],
      "name": "DexUpdated",
      "type": "event"
    },
    {
      "anonymous": false,
      "inputs": [
        {
          "indexed": true,
          "internalType": "address",
          "name": "from",
          "type": "address"
        },
        {
          "indexed": false,
          "internalType": "uint256",
          "name": "amount",
          "type": "uint256"
        },
        {
          "indexed": true,
          "internalType": "address",
          "name": "dex",
          "type": "address"
        }
      ],
      "name": "FeeForwarded",
      "type": "event"
    },
    {
      "inputs": [],
      "name": "admin",
      "outputs": [
        {
          "internalType": "address",
          "name": "",
          "type": "address"
        }
      ],
      "stateMutability": "view",
      "type": "function"
    },
    {
      "inputs": [],
      "name": "dex",
      "outputs": [
        {
          "internalType": "address",
          "name": "",
          "type": "address"
        }
      ],
      "stateMutability": "view",
      "type": "function"
    },
    {
      "inputs": [
        {
          "internalType": "uint256",
          "name": "amount",
          "type": "uint256"
        }
      ],
      "name": "injectUSDTLiquidity",
      "outputs": [],
      "stateMutability": "nonpayable",
      "type": "function"
    },
    {
      "inputs": [
        {
          "internalType": "address",
          "name": "token",
          "type": "address"
        },
        {
          "internalType": "uint256",
          "name": "amount",
          "type": "uint256"
        }
      ],
      "name": "rescue",
      "outputs": [],
      "stateMutability": "nonpayable",
      "type": "function"
    },
    {
      "inputs": [
        {
          "internalType": "address",
          "name": "_dex",
          "type": "address"
        }
      ],
      "name": "setDex",
      "outputs": [],
      "stateMutability": "nonpayable",
      "type": "function"
    },
    {
      "inputs": [],
      "name": "usdt",
      "outputs": [
        {
          "internalType": "contract IERC20",
          "name": "",
          "type": "address"
        }
      ],
      "stateMutability": "view",
      "type": "function"
    }
  ],
  "bytecode": "0x60c060405234801561001057600080fd5b5060405161066438038061066483398101604081905261002f916100b2565b6001600160a01b038216158061004c57506001600160a01b038116155b1561006a5760405163d92e233d60e01b815260040160405180910390fd5b6001600160a01b039182166080523360a052600080546001600160a01b031916919092161790556100e5565b80516001600160a01b03811681146100ad57600080fd5b919050565b600080604083850312156100c557600080fd5b6100ce83610096565b91506100dc60208401610096565b90509250929050565b60805160a05161053961012b6000396000818160fd01528181610201015281816102b9015261030601526000818160810152818161014d015261018601526105396000f3fe608060405234801561001057600080fd5b50600436106100625760003560e01c80632276741b146100675780632f48ab7d1461007c578063447fa8b7146100bf578063692058c2146100d25780637a4e4ecf146100e5578063f851a440146100f8575b600080fd5b61007a610075366004610482565b61011f565b005b6100a37f000000000000000000000000000000000000000000000000000000000000000081565b6040516001600160a01b03909116815260200160405180910390f35b61007a6100cd3660046104b7565b6101f6565b6000546100a3906001600160a01b031681565b61007a6100f33660046104d9565b6102ae565b6100a37f000000000000000000000000000000000000000000000000000000000000000081565b8060000361014057604051631f2a200560e01b815260040160405180910390fd5b6101756001600160a01b037f00000000000000000000000000000000000000000000000000000000000000001633308461032f565b6000546101af906001600160a01b037f00000000000000000000000000000000000000000000000000000000000000008116911683610370565b6000546040518281526001600160a01b039091169033907fd6638fe01cb17b5c4dc9cda93285b8c43f1c8a0b88e4243f3af7c314d0b3cefb9060200160405180910390a350565b336001600160a01b037f0000000000000000000000000000000000000000000000000000000000000000161461023f57604051634755657960e01b815260040160405180910390fd5b6001600160a01b0381166102665760405163d92e233d60e01b815260040160405180910390fd5b600080546001600160a01b0319166001600160a01b038316908117825560405190917faacb837fd75c322df09111e08088e3f80699286f494e4d7d93b3b35623e8520d91a250565b336001600160a01b037f000000000000000000000000000000000000000000000000000000000000000016146102f757604051634755657960e01b815260040160405180910390fd5b61032b6001600160a01b0383167f000000000000000000000000000000000000000000000000000000000000000083610370565b5050565b61033d8484848460016103aa565b61036a57604051635274afe760e01b81526001600160a01b03851660048201526024015b60405180910390fd5b50505050565b61037d838383600161041c565b6103a557604051635274afe760e01b81526001600160a01b0384166004820152602401610361565b505050565b6040516323b872dd60e01b60008181526001600160a01b038781166004528616602452604485905291602083606481808c5af19250600160005114831661040a5783831516156103fd573d6000823e3d81fd5b6000883b113d1516831692505b60405250600060605295945050505050565b60405163a9059cbb60e01b60008181526001600160a01b038616600452602485905291602083604481808b5af192506001600051148316610476578383151615610469573d6000823e3d81fd5b6000873b113d1516831692505b60405250949350505050565b60006020828403121561049457600080fd5b5035919050565b80356001600160a01b03811681146104b257600080fd5b919050565b6000602082840312156104c957600080fd5b6104d28261049b565b9392505050565b600080604083850312156104ec57600080fd5b6104f58361049b565b94602093909301359350505056fea2646970667358221220db383af8daccd27983f2778fbb2629de31d14708e162640f8cfdf1465afa956164736f6c63430008180033",
  "linkReferences": {},
  "deployedLinkReferences": {}
}