{
  "_format": "hh-sol-artifact-1",
  "contractName": "OSLODEX",
  "sourceName": "contracts/OSLODEX.sol",
  "abi": [
    {
      "inputs": [
        {
          "internalType": "address",
          "name": "_usdt",
          "type": "address"
        },
        {
          "internalType": "address",
          "name": "_osloToken",
          "type": "address"
        }
      ],
      "stateMutability": "nonpayable",
      "type": "constructor"
    },
    {
      "inputs": [],
      "name": "InsufficientReserve",
      "type": "error"
    },
    {
      "inputs": [],
      "name": "OnlyAdmin",
      "type": "error"
    },
    {
      "inputs": [],
      "name": "OnlyInvestmentEngine",
      "type": "error"
    },
    {
      "inputs": [],
      "name": "OnlyLiquidityManager",
      "type": "error"
    },
    {
      "inputs": [],
      "name": "OnlyTimelock",
      "type": "error"
    },
    {
      "inputs": [],
      "name": "ReentrancyGuardReentrantCall",
      "type": "error"
    },
    {
      "inputs": [
        {
          "internalType": "address",
          "name": "token",
          "type": "address"
        }
      ],
      "name": "SafeERC20FailedOperation",
      "type": "error"
    },
    {
      "inputs": [],
      "name": "SetupAlreadyComplete",
      "type": "error"
    },
    {
      "inputs": [],
      "name": "SlippageExceeded",
      "type": "error"
    },
    {
      "inputs": [],
      "name": "ZeroAddress",
      "type": "error"
    },
    {
      "inputs": [],
      "name": "ZeroAmount",
      "type": "error"
    },
    {
      "anonymous": false,
      "inputs": [
        {
          "indexed": false,
          "internalType": "uint256",
          "name": "usdtIn",
          "type": "uint256"
        },
        {
          "indexed": false,
          "internalType": "uint256",
          "name": "osloOut",
          "type": "uint256"
        }
      ],
      "name": "DepositProcessed",
      "type": "event"
    },
    {
      "anonymous": false,
      "inputs": [
        {
          "indexed": false,
          "internalType": "uint256",
          "name": "usdtAmount",
          "type": "uint256"
        },
        {
          "indexed": false,
          "internalType": "uint256",
          "name": "osloAmount",
          "type": "uint256"
        }
      ],
      "name": "LiquidityDeposited",
      "type": "event"
    },
    {
      "anonymous": false,
      "inputs": [
        {
          "indexed": false,
          "internalType": "uint256",
          "name": "newPrice",
          "type": "uint256"
        }
      ],
      "name": "PriceUpdated",
      "type": "event"
    },
    {
      "anonymous": false,
      "inputs": [
        {
          "indexed": true,
          "internalType": "address",
          "name": "user",
          "type": "address"
        },
        {
          "indexed": false,
          "internalType": "bool",
          "name": "usdtToOslo",
          "type": "bool"
        },
        {
          "indexed": false,
          "internalType": "uint256",
          "name": "inputAmount",
          "type": "uint256"
        },
        {
          "indexed": false,
          "internalType": "uint256",
          "name": "outputAmount",
          "type": "uint256"
        },
        {
          "indexed": false,
          "internalType": "uint256",
          "name": "price",
          "type": "uint256"
        }
      ],
      "name": "Swapped",
      "type": "event"
    },
    {
      "anonymous": false,
      "inputs": [
        {
          "indexed": false,
          "internalType": "uint256",
          "name": "osloIn",
          "type": "uint256"
        },
        {
          "indexed": false,
          "internalType": "uint256",
          "name": "usdtOut",
          "type": "uint256"
        },
        {
          "indexed": false,
          "internalType": "address",
          "name": "recipient",
          "type": "address"
        }
      ],
      "name": "WithdrawalProcessed",
      "type": "event"
    },
    {
      "inputs": [
        {
          "internalType": "uint256",
          "name": "usdtAmount",
          "type": "uint256"
        },
        {
          "internalType": "uint256",
          "name": "osloAmount",
          "type": "uint256"
        }
      ],
      "name": "addInitialLiquidity",
      "outputs": [],
      "stateMutability": "nonpayable",
      "type": "function"
    },
    {
      "inputs": [
        {
          "internalType": "uint256",
          "name": "usdtAmount",
          "type": "uint256"
        }
      ],
      "name": "addLiquidityFromFees",
      "outputs": [],
      "stateMutability": "nonpayable",
      "type": "function"
    },
    {
      "inputs": [],
      "name": "admin",
      "outputs": [
        {
          "internalType": "address",
          "name": "",
          "type": "address"
        }
      ],
      "stateMutability": "view",
      "type": "function"
    },
    {
      "inputs": [],
      "name": "completeSetup",
      "outputs": [],
      "stateMutability": "nonpayable",
      "type": "function"
    },
    {
      "inputs": [
        {
          "internalType": "address",
          "name": "_timelock",
          "type": "address"
        },
        {
          "internalType": "address",
          "name": "_liquidityManager",
          "type": "address"
        },
        {
          "internalType": "address",
          "name": "_investmentEngine",
          "type": "address"
        }
      ],
      "name": "configure",
      "outputs": [],
      "stateMutability": "nonpayable",
      "type": "function"
    },
    {
      "inputs": [
        {
          "internalType": "address",
          "name": "_investmentEngine",
          "type": "address"
        }
      ],
      "name": "forceSetInvestmentEngine",
      "outputs": [],
      "stateMutability": "nonpayable",
      "type": "function"
    },
    {
      "inputs": [
        {
          "internalType": "uint256",
          "name": "osloAmount",
          "type": "uint256"
        }
      ],
      "name": "getOSLOForUSDTOutput",
      "outputs": [
        {
          "internalType": "uint256",
          "name": "",
          "type": "uint256"
        }
      ],
      "stateMutability": "view",
      "type": "function"
    },
    {
      "inputs": [],
      "name": "getPrice",
      "outputs": [
        {
          "internalType": "uint256",
          "name": "",
          "type": "uint256"
        }
      ],
      "stateMutability": "view",
      "type": "function"
    },
    {
      "inputs": [],
      "name": "getReserves",
      "outputs": [
        {
          "internalType": "uint256",
          "name": "_usdtRes",
          "type": "uint256"
        },
        {
          "internalType": "uint256",
          "name": "_osloRes",
          "type": "uint256"
        }
      ],
      "stateMutability": "view",
      "type": "function"
    },
    {
      "inputs": [
        {
          "internalType": "uint256",
          "name": "usdtAmount",
          "type": "uint256"
        }
      ],
      "name": "getUSDTForOSLOOutput",
      "outputs": [
        {
          "internalType": "uint256",
          "name": "",
          "type": "uint256"
        }
      ],
      "stateMutability": "view",
      "type": "function"
    },
    {
      "inputs": [],
      "name": "investmentEngine",
      "outputs": [
        {
          "internalType": "address",
          "name": "",
          "type": "address"
        }
      ],
      "stateMutability": "view",
      "type": "function"
    },
    {
      "inputs": [],
      "name": "lastPrice",
      "outputs": [
        {
          "internalType": "uint256",
          "name": "",
          "type": "uint256"
        }
      ],
      "stateMutability": "view",
      "type": "function"
    },
    {
      "inputs": [],
      "name": "liquidityManager",
      "outputs": [
        {
          "internalType": "address",
          "name": "",
          "type": "address"
        }
      ],
      "stateMutability": "view",
      "type": "function"
    },
    {
      "inputs": [],
      "name": "osloReserve",
      "outputs": [
        {
          "internalType": "uint256",
          "name": "",
          "type": "uint256"
        }
      ],
      "stateMutability": "view",
      "type": "function"
    },
    {
      "inputs": [],
      "name": "osloToken",
      "outputs": [
        {
          "internalType": "contract IERC20",
          "name": "",
          "type": "address"
        }
      ],
      "stateMutability": "view",
      "type": "function"
    },
    {
      "inputs": [
        {
          "internalType": "uint256",
          "name": "usdtAmount",
          "type": "uint256"
        }
      ],
      "name": "processDeposit",
      "outputs": [
        {
          "internalType": "uint256",
          "name": "osloAmount",
          "type": "uint256"
        }
      ],
      "stateMutability": "nonpayable",
      "type": "function"
    },
    {
      "inputs": [
        {
          "internalType": "uint256",
          "name": "osloAmount",
          "type": "uint256"
        },
        {
          "internalType": "address",
          "name": "recipient",
          "type": "address"
        }
      ],
      "name": "processWithdrawal",
      "outputs": [
        {
          "internalType": "uint256",
          "name": "usdtAmount",
          "type": "uint256"
        }
      ],
      "stateMutability": "nonpayable",
      "type": "function"
    },
    {
      "inputs": [
        {
          "internalType": "uint256",
          "name": "osloAmount",
          "type": "uint256"
        }
      ],
      "name": "replenishOsloReserve",
      "outputs": [],
      "stateMutability": "nonpayable",
      "type": "function"
    },
    {
      "inputs": [
        {
          "internalType": "address",
          "name": "_investmentEngine",
          "type": "address"
        }
      ],
      "name": "setInvestmentEngine",
      "outputs": [],
      "stateMutability": "nonpayable",
      "type": "function"
    },
    {
      "inputs": [],
      "name": "setupComplete",
      "outputs": [
        {
          "internalType": "bool",
          "name": "",
          "type": "bool"
        }
      ],
      "stateMutability": "view",
      "type": "function"
    },
    {
      "inputs": [
        {
          "internalType": "uint256",
          "name": "osloAmount",
          "type": "uint256"
        },
        {
          "internalType": "uint256",
          "name": "minUSDTAmount",
          "type": "uint256"
        }
      ],
      "name": "swapOSLOForUSDT",
      "outputs": [
        {
          "internalType": "uint256",
          "name": "usdtAmount",
          "type": "uint256"
        }
      ],
      "stateMutability": "nonpayable",
      "type": "function"
    },
    {
      "inputs": [
        {
          "internalType": "uint256",
          "name": "usdtAmount",
          "type": "uint256"
        },
        {
          "internalType": "uint256",
          "name": "minOsloAmount",
          "type": "uint256"
        }
      ],
      "name": "swapUSDTForOSLO",
      "outputs": [
        {
          "internalType": "uint256",
          "name": "osloAmount",
          "type": "uint256"
        }
      ],
      "stateMutability": "nonpayable",
      "type": "function"
    },
    {
      "inputs": [
        {
          "internalType": "uint256",
          "name": "usdtAmount",
          "type": "uint256"
        },
        {
          "internalType": "address",
          "name": "recipient",
          "type": "address"
        }
      ],
      "name": "swapYieldForOSLO",
      "outputs": [
        {
          "internalType": "uint256",
          "name": "osloAmount",
          "type": "uint256"
        }
      ],
      "stateMutability": "nonpayable",
      "type": "function"
    },
    {
      "inputs": [],
      "name": "timelock",
      "outputs": [
        {
          "internalType": "address",
          "name": "",
          "type": "address"
        }
      ],
      "stateMutability": "view",
      "type": "function"
    },
    {
      "inputs": [],
      "name": "totalSwaps",
      "outputs": [
        {
          "internalType": "uint256",
          "name": "",
          "type": "uint256"
        }
      ],
      "stateMutability": "view",
      "type": "function"
    },
    {
      "inputs": [],
      "name": "totalVolumeUSDT",
      "outputs": [
        {
          "internalType": "uint256",
          "name": "",
          "type": "uint256"
        }
      ],
      "stateMutability": "view",
      "type": "function"
    },
    {
      "inputs": [],
      "name": "usdt",
      "outputs": [
        {
          "internalType": "contract IERC20",
          "name": "",
          "type": "address"
        }
      ],
      "stateMutability": "view",
      "type": "function"
    },
    {
      "inputs": [],
      "name": "usdtReserve",
      "outputs": [
        {
          "internalType": "uint256",
          "name": "",
          "type": "uint256"
        }
      ],
      "stateMutability": "view",
      "type": "function"
    }
  ],
  "bytecode": "0x60c06040523480156200001157600080fd5b5060405162001d1338038062001d138339810160408190526200003491620000dc565b60017f9b779b17422d0df92223018b32b4d1fa46e071723d6817e2486d003becc55f00556001600160a01b03821615806200007657506001600160a01b038116155b15620000955760405163d92e233d60e01b815260040160405180910390fd5b6001600160a01b039182166080521660a052600080546001600160a01b0319163317905562000114565b80516001600160a01b0381168114620000d757600080fd5b919050565b60008060408385031215620000f057600080fd5b620000fb83620000bf565b91506200010b60208401620000bf565b90509250929050565b60805160a051611b5b620001b8600039600081816102180152818161050f015281816105df0152818161074f015281816107d10152818161081b01528181610ab301528181610cea0152818161102f015281816112880152818161145501526115d9015260008181610257015281816104670152818161094401528181610cb501528181610ffa015281816112530152818161141001526116cb0152611b5b6000f3fe608060405234801561001057600080fd5b50600436106101c45760003560e01c80638aea8f71116100f9578063b6635be611610097578063d33219b411610071578063d33219b4146103b7578063ee3b038f146103ca578063f843e641146103dd578063f851a440146103f057600080fd5b8063b6635be61461036d578063c2c9068714610391578063cb4f51d1146103a457600080fd5b8063a40f4fa1116100d3578063a40f4fa114610335578063a797803114610348578063ac257a6e1461035b578063b4a800ce1461036457600080fd5b80638aea8f711461031c57806398d5fdca14610324578063a1e26e7b1461032c57600080fd5b8063338274381161016657806347aa7ea41161014057806347aa7ea4146102da578063528816c6146102ed57806355d28f201461030057806383bbdd5f1461031357600080fd5b8063338274381461029f578063362ce52b146102b25780633984a3aa146102c757600080fd5b80632acfbca3116101a25780632acfbca3146102135780632f48ab7d14610252578063301313841461027957806330cf2aeb1461028c57600080fd5b8063053f14da146101c95780630902f1ac146101e55780630cc2055a14610200575b600080fd5b6101d260085481565b6040519081526020015b60405180910390f35b600454600554604080519283526020830191909152016101dc565b6101d261020e36600461195b565b610403565b61023a7f000000000000000000000000000000000000000000000000000000000000000081565b6040516001600160a01b0390911681526020016101dc565b61023a7f000000000000000000000000000000000000000000000000000000000000000081565b60035461023a906001600160a01b031681565b6101d261029a366004611974565b6106df565b60025461023a906001600160a01b031681565b6102c56102c036600461195b565b610a5a565b005b6102c56102d53660046119ad565b610af5565b6101d26102e836600461195b565b610b69565b6101d26102fb3660046119cf565b610bb5565b6102c561030e3660046119fb565b610e35565b6101d260065481565b6102c5610ed9565b6101d2610f54565b6101d260055481565b6102c5610343366004611974565b610f99565b6101d261035636600461195b565b61110e565b6101d260045481565b6101d260075481565b60035461038190600160a01b900460ff1681565b60405190151581526020016101dc565b6101d261039f366004611974565b611171565b6102c56103b23660046119ad565b61138c565b60015461023a906001600160a01b031681565b6102c56103d836600461195b565b6113b7565b6101d26103eb3660046119cf565b61154e565b60005461023a906001600160a01b031681565b6003546000906001600160a01b0316331461043157604051630559b36f60e11b815260040160405180910390fd5b6104396117ba565b8160000361045a57604051631f2a200560e01b815260040160405180910390fd5b61048f6001600160a01b037f0000000000000000000000000000000000000000000000000000000000000000163330856117d6565b60006004541180156104a357506000600554115b156104d457816004546104b69190611a54565b6005546104c39084611a67565b6104cd9190611a7e565b90506104d7565b50805b806000036104f857604051631f2a200560e01b815260040160405180910390fd5b6040516370a0823160e01b815230600482015281907f00000000000000000000000000000000000000000000000000000000000000006001600160a01b0316906370a0823190602401602060405180830381865afa15801561055e573d6000803e3d6000fd5b505050506040513d601f19601f820116820180604052508101906105829190611aa0565b10156105a1576040516328b35f2160e01b815260040160405180910390fd5b81600460008282546105b39190611a54565b9250508190555080600560008282546105cc9190611ab9565b9091555061060690506001600160a01b037f0000000000000000000000000000000000000000000000000000000000000000163383611817565b6000806005541161061857600061063a565b60055460045461063090670de0b6b3a7640000611a67565b61063a9190611a7e565b9050826006600082825461064e9190611a54565b90915550506007805490600061066383611acc565b909155505060408051848152602081018490527f3d53ffd94e6169fe8616aef06a81eba2335ff27eac4a60886ad869b22c4f347b910160405180910390a1604051818152600080516020611ae68339815191529060200160405180910390a1506106da6001600080516020611b0683398151915255565b919050565b60006106e96117ba565b8260000361070a57604051631f2a200560e01b815260040160405180910390fd5b60045415806107195750600554155b15610737576040516328b35f2160e01b815260040160405180910390fd5b6040516370a0823160e01b81523060048201526000907f00000000000000000000000000000000000000000000000000000000000000006001600160a01b0316906370a0823190602401602060405180830381865afa15801561079e573d6000803e3d6000fd5b505050506040513d601f19601f820116820180604052508101906107c29190611aa0565b90506107f96001600160a01b037f0000000000000000000000000000000000000000000000000000000000000000163330876117d6565b6040516370a0823160e01b815230600482015260009082906001600160a01b037f000000000000000000000000000000000000000000000000000000000000000016906370a0823190602401602060405180830381865afa158015610862573d6000803e3d6000fd5b505050506040513d601f19601f820116820180604052508101906108869190611aa0565b6108909190611ab9565b9050846005546108a09190611a54565b6004546108ad9087611a67565b6108b79190611a7e565b92508215806108c557508383105b156108e357604051638199f5f360e01b815260040160405180910390fd5b600454831115610906576040516328b35f2160e01b815260040160405180910390fd5b82600460008282546109189190611ab9565b9250508190555080600560008282546109319190611a54565b9091555061096b90506001600160a01b037f0000000000000000000000000000000000000000000000000000000000000000163385611817565b826006600082825461097d9190611a54565b90915550506007805490600061099283611acc565b9190505550600080600554116109a95760006109cb565b6005546004546109c190670de0b6b3a7640000611a67565b6109cb9190611a7e565b6040805160008152602081018990529081018690526060810182905290915033907f7c707038fb62cb248ec6b437a63ec556bb6233af235f4518d64693cba918a6e19060800160405180910390a2604051818152600080516020611ae68339815191529060200160405180910390a1505050610a546001600080516020611b0683398151915255565b92915050565b6003546001600160a01b03163314610a8557604051630559b36f60e11b815260040160405180910390fd5b80600003610aa657604051631f2a200560e01b815260040160405180910390fd5b610adb6001600160a01b037f0000000000000000000000000000000000000000000000000000000000000000163330846117d6565b8060056000828254610aed9190611a54565b909155505050565b6000546001600160a01b03163314610b2057604051634755657960e01b815260040160405180910390fd5b6001600160a01b038116610b475760405163d92e233d60e01b815260040160405180910390fd5b600380546001600160a01b0319166001600160a01b0392909216919091179055565b6000811580610b785750600454155b80610b835750600554155b15610b9057506000919050565b81600454610b9e9190611a54565b600554610bab9084611a67565b610a549190611a7e565b6003546000906001600160a01b03163314610be357604051630559b36f60e11b815260040160405180910390fd5b610beb6117ba565b82600003610c0c57604051631f2a200560e01b815260040160405180910390fd5b6001600160a01b038216610c335760405163d92e233d60e01b815260040160405180910390fd5b6004541580610c425750600554155b15610c60576040516328b35f2160e01b815260040160405180910390fd5b82600454610c6e9190611a54565b600554610c7b9085611a67565b610c859190611a7e565b905080600003610ca857604051631f2a200560e01b815260040160405180910390fd5b610cdd6001600160a01b037f0000000000000000000000000000000000000000000000000000000000000000163330866117d6565b610d116001600160a01b037f0000000000000000000000000000000000000000000000000000000000000000168383611817565b8260046000828254610d239190611a54565b925050819055508060056000828254610d3c9190611ab9565b925050819055508260066000828254610d559190611a54565b909155505060078054906000610d6a83611acc565b919050555060008060055411610d81576000610da3565b600554600454610d9990670de0b6b3a7640000611a67565b610da39190611a7e565b604080516001815260208101879052908101849052606081018290529091506001600160a01b038416907f7c707038fb62cb248ec6b437a63ec556bb6233af235f4518d64693cba918a6e1906080015b60405180910390a2604051818152600080516020611ae6833981519152906020015b60405180910390a150610a546001600080516020611b0683398151915255565b6000546001600160a01b03163314610e6057604051634755657960e01b815260040160405180910390fd5b600354600160a01b900460ff1615610e8b5760405163238f75d360e01b815260040160405180910390fd5b600180546001600160a01b039485166001600160a01b031991821617909155600280549385169390911692909217909155600380546001600160a81b0319169190921617600160a01b179055565b6000546001600160a01b03163314610f0457604051634755657960e01b815260040160405180910390fd5b600354600160a01b900460ff1615610f2f5760405163238f75d360e01b815260040160405180910390fd5b6003805460ff60a01b1916600160a01b179055600080546001600160a01b0319169055565b600060055460001480610f675750600454155b15610f725750600090565b600554600454610f8a90670de0b6b3a7640000611a67565b610f949190611a7e565b905090565b6002546001600160a01b03163314610fc457604051630be5a3e160e31b815260040160405180910390fd5b811580610fcf575080155b15610fed57604051631f2a200560e01b815260040160405180910390fd5b6110226001600160a01b037f0000000000000000000000000000000000000000000000000000000000000000163330856117d6565b6110576001600160a01b037f0000000000000000000000000000000000000000000000000000000000000000163330846117d6565b81600460008282546110699190611a54565b9250508190555080600560008282546110829190611a54565b9091555081905061109b83670de0b6b3a7640000611a67565b6110a59190611a7e565b60085560408051838152602081018390527f9c86429231ed0411e3112a1dd5c6578826c2d48089d5ec491e874ce0029c0bbe910160405180910390a1600080516020611ae683398151915260085460405161110291815260200190565b60405180910390a15050565b600081158061111d5750600454155b806111285750600554155b1561113557506000919050565b6000826005546111459190611a54565b6004546111529085611a67565b61115c9190611a7e565b9050600454811115610a545750600092915050565b6003546000906001600160a01b0316331461119f57604051630559b36f60e11b815260040160405180910390fd5b6111a76117ba565b826000036111c857604051631f2a200560e01b815260040160405180910390fd5b60045415806111d75750600554155b156111f5576040516328b35f2160e01b815260040160405180910390fd5b826004546112039190611a54565b6005546112109085611a67565b61121a9190611a7e565b905080158061122857508181105b1561124657604051638199f5f360e01b815260040160405180910390fd5b61127b6001600160a01b037f0000000000000000000000000000000000000000000000000000000000000000163330866117d6565b6112af6001600160a01b037f0000000000000000000000000000000000000000000000000000000000000000163383611817565b82600460008282546112c19190611a54565b9250508190555080600560008282546112da9190611ab9565b9250508190555082600660008282546112f39190611a54565b90915550506007805490600061130883611acc565b91905055506000806005541161131f576000611341565b60055460045461133790670de0b6b3a7640000611a67565b6113419190611a7e565b6040805160018152602081018790529081018490526060810182905290915033907f7c707038fb62cb248ec6b437a63ec556bb6233af235f4518d64693cba918a6e190608001610df3565b6001546001600160a01b03163314610b2057604051630e05f48560e11b815260040160405180910390fd5b6002546001600160a01b031633146113e257604051630be5a3e160e31b815260040160405180910390fd5b8060000361140357604051631f2a200560e01b815260040160405180910390fd5b6114386001600160a01b037f0000000000000000000000000000000000000000000000000000000000000000163330846117d6565b806004600082825461144a9190611a54565b9250508190555060007f00000000000000000000000000000000000000000000000000000000000000006001600160a01b03166318160ddd6040518163ffffffff1660e01b8152600401602060405180830381865afa1580156114b1573d6000803e3d6000fd5b505050506040513d601f19601f820116820180604052508101906114d59190611aa0565b6004546114ea90670de0b6b3a7640000611a67565b6114f49190611a7e565b60408051848152600060208201529192507f9c86429231ed0411e3112a1dd5c6578826c2d48089d5ec491e874ce0029c0bbe910160405180910390a1604051818152600080516020611ae683398151915290602001611102565b6003546000906001600160a01b0316331461157c57604051630559b36f60e11b815260040160405180910390fd5b6115846117ba565b826000036115a557604051631f2a200560e01b815260040160405180910390fd5b6001600160a01b0382166115cc5760405163d92e233d60e01b815260040160405180910390fd5b6116016001600160a01b037f0000000000000000000000000000000000000000000000000000000000000000163330866117d6565b600060045411801561161557506000600554115b1561164657826005546116289190611a54565b6004546116359085611a67565b61163f9190611a7e565b9050611649565b50815b8060000361166a57604051631f2a200560e01b815260040160405180910390fd5b60045481111561168d576040516328b35f2160e01b815260040160405180910390fd5b826005600082825461169f9190611a54565b9250508190555080600460008282546116b89190611ab9565b909155506116f290506001600160a01b037f0000000000000000000000000000000000000000000000000000000000000000168383611817565b60008060055411611704576000611726565b60055460045461171c90670de0b6b3a7640000611a67565b6117269190611a7e565b9050816006600082825461173a9190611a54565b90915550506007805490600061174f83611acc565b909155505060408051858152602081018490526001600160a01b0385168183015290517f1408158d52d7d739e0848c588738e9b79917e2773e51c49ff4544e3e6a538f8c9181900360600190a1604051818152600080516020611ae683398151915290602001610e15565b6117c2611851565b6002600080516020611b0683398151915255565b6117e4848484846001611883565b61181157604051635274afe760e01b81526001600160a01b03851660048201526024015b60405180910390fd5b50505050565b61182483838360016118f5565b61184c57604051635274afe760e01b81526001600160a01b0384166004820152602401611808565b505050565b600080516020611b068339815191525460020361188157604051633ee5aeb560e01b815260040160405180910390fd5b565b6040516323b872dd60e01b60008181526001600160a01b038781166004528616602452604485905291602083606481808c5af1925060016000511483166118e35783831516156118d6573d6000823e3d81fd5b6000883b113d1516831692505b60405250600060605295945050505050565b60405163a9059cbb60e01b60008181526001600160a01b038616600452602485905291602083604481808b5af19250600160005114831661194f578383151615611942573d6000823e3d81fd5b6000873b113d1516831692505b60405250949350505050565b60006020828403121561196d57600080fd5b5035919050565b6000806040838503121561198757600080fd5b50508035926020909101359150565b80356001600160a01b03811681146106da57600080fd5b6000602082840312156119bf57600080fd5b6119c882611996565b9392505050565b600080604083850312156119e257600080fd5b823591506119f260208401611996565b90509250929050565b600080600060608486031215611a1057600080fd5b611a1984611996565b9250611a2760208501611996565b9150611a3560408501611996565b90509250925092565b634e487b7160e01b600052601160045260246000fd5b80820180821115610a5457610a54611a3e565b8082028115828204841417610a5457610a54611a3e565b600082611a9b57634e487b7160e01b600052601260045260246000fd5b500490565b600060208284031215611ab257600080fd5b5051919050565b81810381811115610a5457610a54611a3e565b600060018201611ade57611ade611a3e565b506001019056fe66cbca4f3c64fecf1dcb9ce094abcf7f68c3450a1d4e3a8e917dd621edb4ebe09b779b17422d0df92223018b32b4d1fa46e071723d6817e2486d003becc55f00a26469706673582212207dc5b8d4f2593c68c666a6265387acc6fc07a96b97c6189a0b144bb67d1a2a4664736f6c63430008180033",
  "linkReferences": {},
  "deployedLinkReferences": {}
}