{
  "_format": "hh-sol-artifact-1",
  "contractName": "OSLOInvestmentEngine",
  "sourceName": "contracts/OSLOInvestmentEngine.sol",
  "abi": [
    {
      "inputs": [
        {
          "internalType": "address",
          "name": "_usdt",
          "type": "address"
        },
        {
          "internalType": "address",
          "name": "_osloToken",
          "type": "address"
        },
        {
          "internalType": "uint256",
          "name": "_launchTimestamp",
          "type": "uint256"
        }
      ],
      "stateMutability": "nonpayable",
      "type": "constructor"
    },
    {
      "inputs": [],
      "name": "BelowWithdrawalThreshold",
      "type": "error"
    },
    {
      "inputs": [],
      "name": "DEXNotPriced",
      "type": "error"
    },
    {
      "inputs": [],
      "name": "DepositCapped",
      "type": "error"
    },
    {
      "inputs": [],
      "name": "DepositTooHigh",
      "type": "error"
    },
    {
      "inputs": [],
      "name": "DepositTooLow",
      "type": "error"
    },
    {
      "inputs": [],
      "name": "DepositsPausedError",
      "type": "error"
    },
    {
      "inputs": [],
      "name": "InsufficientOsloReserve",
      "type": "error"
    },
    {
      "inputs": [],
      "name": "InvalidDeposit",
      "type": "error"
    },
    {
      "inputs": [],
      "name": "NotConfigured",
      "type": "error"
    },
    {
      "inputs": [],
      "name": "NothingToClaim",
      "type": "error"
    },
    {
      "inputs": [],
      "name": "OnlyAdmin",
      "type": "error"
    },
    {
      "inputs": [],
      "name": "OnlyRankSystem",
      "type": "error"
    },
    {
      "inputs": [],
      "name": "OnlyReferral",
      "type": "error"
    },
    {
      "inputs": [],
      "name": "OnlyTimelock",
      "type": "error"
    },
    {
      "inputs": [],
      "name": "ReentrancyGuardReentrantCall",
      "type": "error"
    },
    {
      "inputs": [
        {
          "internalType": "address",
          "name": "token",
          "type": "address"
        }
      ],
      "name": "SafeERC20FailedOperation",
      "type": "error"
    },
    {
      "inputs": [],
      "name": "SetupAlreadyComplete",
      "type": "error"
    },
    {
      "inputs": [],
      "name": "ZeroAddress",
      "type": "error"
    },
    {
      "anonymous": false,
      "inputs": [
        {
          "indexed": true,
          "internalType": "address",
          "name": "user",
          "type": "address"
        }
      ],
      "name": "CombinedCapReached",
      "type": "event"
    },
    {
      "anonymous": false,
      "inputs": [
        {
          "indexed": true,
          "internalType": "address",
          "name": "user",
          "type": "address"
        },
        {
          "indexed": false,
          "internalType": "uint256",
          "name": "totalCombined",
          "type": "uint256"
        }
      ],
      "name": "CombinedEarningsUpdated",
      "type": "event"
    },
    {
      "anonymous": false,
      "inputs": [
        {
          "indexed": true,
          "internalType": "address",
          "name": "user",
          "type": "address"
        },
        {
          "indexed": false,
          "internalType": "uint256",
          "name": "amount",
          "type": "uint256"
        },
        {
          "indexed": false,
          "internalType": "uint256",
          "name": "tier",
          "type": "uint256"
        },
        {
          "indexed": false,
          "internalType": "uint256",
          "name": "dailyRate",
          "type": "uint256"
        },
        {
          "indexed": false,
          "internalType": "uint256",
          "name": "depositIndex",
          "type": "uint256"
        }
      ],
      "name": "Deposited",
      "type": "event"
    },
    {
      "anonymous": false,
      "inputs": [
        {
          "indexed": false,
          "internalType": "bool",
          "name": "paused",
          "type": "bool"
        }
      ],
      "name": "DepositsPaused",
      "type": "event"
    },
    {
      "anonymous": false,
      "inputs": [
        {
          "indexed": true,
          "internalType": "address",
          "name": "user",
          "type": "address"
        },
        {
          "indexed": false,
          "internalType": "uint256",
          "name": "netPrincipal",
          "type": "uint256"
        },
        {
          "indexed": false,
          "internalType": "uint256",
          "name": "depositIndex",
          "type": "uint256"
        }
      ],
      "name": "PrincipalWithdrawn",
      "type": "event"
    },
    {
      "anonymous": false,
      "inputs": [
        {
          "indexed": true,
          "internalType": "address",
          "name": "oldReferral",
          "type": "address"
        },
        {
          "indexed": true,
          "internalType": "address",
          "name": "newReferral",
          "type": "address"
        }
      ],
      "name": "ReferralUpdated",
      "type": "event"
    },
    {
      "anonymous": false,
      "inputs": [
        {
          "indexed": true,
          "internalType": "address",
          "name": "user",
          "type": "address"
        },
        {
          "indexed": false,
          "internalType": "uint256",
          "name": "usdtReward",
          "type": "uint256"
        },
        {
          "indexed": false,
          "internalType": "uint256",
          "name": "osloAmount",
          "type": "uint256"
        },
        {
          "indexed": false,
          "internalType": "uint256",
          "name": "depositIndex",
          "type": "uint256"
        }
      ],
      "name": "RewardsClaimed",
      "type": "event"
    },
    {
      "inputs": [],
      "name": "admin",
      "outputs": [
        {
          "internalType": "address",
          "name": "",
          "type": "address"
        }
      ],
      "stateMutability": "view",
      "type": "function"
    },
    {
      "inputs": [
        {
          "internalType": "uint256",
          "name": "depositIndex",
          "type": "uint256"
        }
      ],
      "name": "claimRewards",
      "outputs": [],
      "stateMutability": "nonpayable",
      "type": "function"
    },
    {
      "inputs": [],
      "name": "companyWallet",
      "outputs": [
        {
          "internalType": "address",
          "name": "",
          "type": "address"
        }
      ],
      "stateMutability": "view",
      "type": "function"
    },
    {
      "inputs": [],
      "name": "completeSetup",
      "outputs": [],
      "stateMutability": "nonpayable",
      "type": "function"
    },
    {
      "inputs": [
        {
          "internalType": "address",
          "name": "_treasury",
          "type": "address"
        },
        {
          "internalType": "address",
          "name": "_referral",
          "type": "address"
        },
        {
          "internalType": "address",
          "name": "_rankSystem",
          "type": "address"
        },
        {
          "internalType": "address",
          "name": "_osloDex",
          "type": "address"
        },
        {
          "internalType": "address",
          "name": "_timelock",
          "type": "address"
        }
      ],
      "name": "configure",
      "outputs": [],
      "stateMutability": "nonpayable",
      "type": "function"
    },
    {
      "inputs": [
        {
          "internalType": "uint256",
          "name": "amount",
          "type": "uint256"
        }
      ],
      "name": "deposit",
      "outputs": [],
      "stateMutability": "nonpayable",
      "type": "function"
    },
    {
      "inputs": [],
      "name": "depositsPaused",
      "outputs": [
        {
          "internalType": "bool",
          "name": "",
          "type": "bool"
        }
      ],
      "stateMutability": "view",
      "type": "function"
    },
    {
      "inputs": [
        {
          "internalType": "address",
          "name": "user",
          "type": "address"
        }
      ],
      "name": "getActiveDeposit",
      "outputs": [
        {
          "internalType": "uint256",
          "name": "",
          "type": "uint256"
        }
      ],
      "stateMutability": "view",
      "type": "function"
    },
    {
      "inputs": [
        {
          "internalType": "address",
          "name": "user",
          "type": "address"
        }
      ],
      "name": "getCombinedEarnings",
      "outputs": [
        {
          "internalType": "uint256",
          "name": "",
          "type": "uint256"
        }
      ],
      "stateMutability": "view",
      "type": "function"
    },
    {
      "inputs": [
        {
          "internalType": "address",
          "name": "user",
          "type": "address"
        }
      ],
      "name": "getDepositCount",
      "outputs": [
        {
          "internalType": "uint256",
          "name": "",
          "type": "uint256"
        }
      ],
      "stateMutability": "view",
      "type": "function"
    },
    {
      "inputs": [
        {
          "internalType": "address",
          "name": "user",
          "type": "address"
        },
        {
          "internalType": "uint256",
          "name": "depositIndex",
          "type": "uint256"
        }
      ],
      "name": "getPendingRewards",
      "outputs": [
        {
          "internalType": "uint256",
          "name": "pendingUSDT",
          "type": "uint256"
        }
      ],
      "stateMutability": "view",
      "type": "function"
    },
    {
      "inputs": [
        {
          "internalType": "address",
          "name": "user",
          "type": "address"
        }
      ],
      "name": "getUserTier",
      "outputs": [
        {
          "internalType": "uint256",
          "name": "",
          "type": "uint256"
        }
      ],
      "stateMutability": "view",
      "type": "function"
    },
    {
      "inputs": [],
      "name": "launchTimestamp",
      "outputs": [
        {
          "internalType": "uint256",
          "name": "",
          "type": "uint256"
        }
      ],
      "stateMutability": "view",
      "type": "function"
    },
    {
      "inputs": [
        {
          "internalType": "address[]",
          "name": "_users",
          "type": "address[]"
        },
        {
          "internalType": "uint256[]",
          "name": "_amounts",
          "type": "uint256[]"
        }
      ],
      "name": "migrateCombinedEarnings",
      "outputs": [],
      "stateMutability": "nonpayable",
      "type": "function"
    },
    {
      "inputs": [
        {
          "components": [
            {
              "internalType": "address",
              "name": "owner",
              "type": "address"
            },
            {
              "internalType": "uint256",
              "name": "amount",
              "type": "uint256"
            },
            {
              "internalType": "uint256",
              "name": "tier",
              "type": "uint256"
            },
            {
              "internalType": "uint256",
              "name": "dailyRate",
              "type": "uint256"
            },
            {
              "internalType": "uint256",
              "name": "depositTime",
              "type": "uint256"
            },
            {
              "internalType": "uint256",
              "name": "lastClaimTime",
              "type": "uint256"
            },
            {
              "internalType": "uint256",
              "name": "totalClaimed",
              "type": "uint256"
            },
            {
              "internalType": "uint256",
              "name": "maxReturn",
              "type": "uint256"
            }
          ],
          "internalType": "struct OSLOInvestmentEngine.DepositMigration[]",
          "name": "entries",
          "type": "tuple[]"
        }
      ],
      "name": "migrateDeposits",
      "outputs": [],
      "stateMutability": "nonpayable",
      "type": "function"
    },
    {
      "inputs": [],
      "name": "minClaimThreshold",
      "outputs": [
        {
          "internalType": "uint256",
          "name": "",
          "type": "uint256"
        }
      ],
      "stateMutability": "view",
      "type": "function"
    },
    {
      "inputs": [
        {
          "internalType": "address",
          "name": "user",
          "type": "address"
        },
        {
          "internalType": "uint256",
          "name": "amount",
          "type": "uint256"
        }
      ],
      "name": "notifyLevelIncome",
      "outputs": [],
      "stateMutability": "nonpayable",
      "type": "function"
    },
    {
      "inputs": [
        {
          "internalType": "address",
          "name": "user",
          "type": "address"
        },
        {
          "internalType": "uint256",
          "name": "amount",
          "type": "uint256"
        }
      ],
      "name": "notifyRankBonus",
      "outputs": [],
      "stateMutability": "nonpayable",
      "type": "function"
    },
    {
      "inputs": [],
      "name": "osloDex",
      "outputs": [
        {
          "internalType": "address",
          "name": "",
          "type": "address"
        }
      ],
      "stateMutability": "view",
      "type": "function"
    },
    {
      "inputs": [],
      "name": "osloToken",
      "outputs": [
        {
          "internalType": "contract IERC20",
          "name": "",
          "type": "address"
        }
      ],
      "stateMutability": "view",
      "type": "function"
    },
    {
      "inputs": [],
      "name": "performanceWallet",
      "outputs": [
        {
          "internalType": "address",
          "name": "",
          "type": "address"
        }
      ],
      "stateMutability": "view",
      "type": "function"
    },
    {
      "inputs": [],
      "name": "rankSystem",
      "outputs": [
        {
          "internalType": "address",
          "name": "",
          "type": "address"
        }
      ],
      "stateMutability": "view",
      "type": "function"
    },
    {
      "inputs": [],
      "name": "referral",
      "outputs": [
        {
          "internalType": "address",
          "name": "",
          "type": "address"
        }
      ],
      "stateMutability": "view",
      "type": "function"
    },
    {
      "inputs": [],
      "name": "rewardWallet",
      "outputs": [
        {
          "internalType": "address",
          "name": "",
          "type": "address"
        }
      ],
      "stateMutability": "view",
      "type": "function"
    },
    {
      "inputs": [
        {
          "internalType": "bool",
          "name": "_paused",
          "type": "bool"
        }
      ],
      "name": "setDepositsPaused",
      "outputs": [],
      "stateMutability": "nonpayable",
      "type": "function"
    },
    {
      "inputs": [
        {
          "internalType": "uint256",
          "name": "_threshold",
          "type": "uint256"
        }
      ],
      "name": "setMinClaimThreshold",
      "outputs": [],
      "stateMutability": "nonpayable",
      "type": "function"
    },
    {
      "inputs": [
        {
          "internalType": "address",
          "name": "_referral",
          "type": "address"
        }
      ],
      "name": "setReferral",
      "outputs": [],
      "stateMutability": "nonpayable",
      "type": "function"
    },
    {
      "inputs": [
        {
          "internalType": "address",
          "name": "_rewardWallet",
          "type": "address"
        },
        {
          "internalType": "address",
          "name": "_companyWallet",
          "type": "address"
        },
        {
          "internalType": "address",
          "name": "_performanceWallet",
          "type": "address"
        }
      ],
      "name": "setRewardWallets",
      "outputs": [],
      "stateMutability": "nonpayable",
      "type": "function"
    },
    {
      "inputs": [],
      "name": "setupComplete",
      "outputs": [
        {
          "internalType": "bool",
          "name": "",
          "type": "bool"
        }
      ],
      "stateMutability": "view",
      "type": "function"
    },
    {
      "inputs": [],
      "name": "timelock",
      "outputs": [
        {
          "internalType": "address",
          "name": "",
          "type": "address"
        }
      ],
      "stateMutability": "view",
      "type": "function"
    },
    {
      "inputs": [],
      "name": "totalDeposited",
      "outputs": [
        {
          "internalType": "uint256",
          "name": "",
          "type": "uint256"
        }
      ],
      "stateMutability": "view",
      "type": "function"
    },
    {
      "inputs": [],
      "name": "totalRewardsPaid",
      "outputs": [
        {
          "internalType": "uint256",
          "name": "",
          "type": "uint256"
        }
      ],
      "stateMutability": "view",
      "type": "function"
    },
    {
      "inputs": [],
      "name": "totalWithdrawn",
      "outputs": [
        {
          "internalType": "uint256",
          "name": "",
          "type": "uint256"
        }
      ],
      "stateMutability": "view",
      "type": "function"
    },
    {
      "inputs": [],
      "name": "treasury",
      "outputs": [
        {
          "internalType": "address",
          "name": "",
          "type": "address"
        }
      ],
      "stateMutability": "view",
      "type": "function"
    },
    {
      "inputs": [],
      "name": "usdt",
      "outputs": [
        {
          "internalType": "contract IERC20",
          "name": "",
          "type": "address"
        }
      ],
      "stateMutability": "view",
      "type": "function"
    },
    {
      "inputs": [
        {
          "internalType": "address",
          "name": "",
          "type": "address"
        },
        {
          "internalType": "uint256",
          "name": "",
          "type": "uint256"
        }
      ],
      "name": "userDeposits",
      "outputs": [
        {
          "internalType": "uint256",
          "name": "amount",
          "type": "uint256"
        },
        {
          "internalType": "uint256",
          "name": "tier",
          "type": "uint256"
        },
        {
          "internalType": "uint256",
          "name": "dailyRate",
          "type": "uint256"
        },
        {
          "internalType": "uint256",
          "name": "depositTime",
          "type": "uint256"
        },
        {
          "internalType": "uint256",
          "name": "lastClaimTime",
          "type": "uint256"
        },
        {
          "internalType": "uint256",
          "name": "totalClaimed",
          "type": "uint256"
        },
        {
          "internalType": "uint256",
          "name": "maxReturn",
          "type": "uint256"
        },
        {
          "internalType": "bool",
          "name": "active",
          "type": "bool"
        }
      ],
      "stateMutability": "view",
      "type": "function"
    },
    {
      "inputs": [
        {
          "internalType": "address",
          "name": "",
          "type": "address"
        }
      ],
      "name": "users",
      "outputs": [
        {
          "internalType": "uint256",
          "name": "totalActiveDeposit",
          "type": "uint256"
        },
        {
          "internalType": "uint256",
          "name": "depositCount",
          "type": "uint256"
        },
        {
          "internalType": "uint256",
          "name": "totalCombinedEarnings",
          "type": "uint256"
        }
      ],
      "stateMutability": "view",
      "type": "function"
    }
  ],
  "bytecode": "0x60e0604052670de0b6b3a76400006006553480156200001d57600080fd5b506040516200274e3803806200274e8339810160408190526200004091620000ec565b60017f9b779b17422d0df92223018b32b4d1fa46e071723d6817e2486d003becc55f00556001600160a01b03831615806200008257506001600160a01b038216155b15620000a15760405163d92e233d60e01b815260040160405180910390fd5b6001600160a01b03928316608052911660a05260c052600480546001600160a01b031916331790556200012d565b80516001600160a01b0381168114620000e757600080fd5b919050565b6000806000606084860312156200010257600080fd5b6200010d84620000cf565b92506200011d60208501620000cf565b9150604084015190509250925092565b60805160a05160c0516125a4620001aa6000396000818161044801528181611b5b0152611e0201526000818161035f0152818161076f015281816108a9015281816109f70152610a83015260008181610386015281816113aa01528181611479015281816114b3015281816114ed015261156501526125a46000f3fe608060405234801561001057600080fd5b50600436106102275760003560e01c80636b9f7ab611610130578063b12cd625116100b8578063e4e7c6b41161007c578063e4e7c6b414610597578063e9a16bd5146105aa578063f851a440146105bd578063fb75b2c7146105d0578063ff50abdc146105e357600080fd5b8063b12cd62514610537578063b6635be61461054a578063b6b55f251461055e578063d33219b414610571578063e4d2620e1461058457600080fd5b80638565c2bf116100ff5780638565c2bf146104ac5780638aea8f71146104bf5780639e5914da146104c7578063a87430ba146104da578063ac948e831461052457600080fd5b80636b9f7ab61461046a57806374958e351461047d578063760fcb3e1461048657806384b273f61461049957600080fd5b80632f48ab7d116101b35780634b319713116101825780634b319713146103f057806351637ba9146103f957806360da3e831461040c57806361d027b31461043057806365cf7c9b1461044357600080fd5b80632f48ab7d146103815780633695dad1146103a857806337914a07146103b15780633a6f2dcd146103c457600080fd5b80631441a5a9116101fa5780631441a5a9146102f65780631c481e2d146103215780631d687f0c146103345780631ec32d15146103475780632acfbca31461035a57600080fd5b806308f433331461022c5780630962ef791461028157806313fcaf5414610296578063142a3da3146102cd575b600080fd5b61023f61023a3660046121c5565b6105ec565b604080519889526020890197909752958701949094526060860192909252608085015260a084015260c0830152151560e0820152610100015b60405180910390f35b61029461028f3660046121f1565b610651565b005b6102bf6102a436600461220a565b6001600160a01b03166000908152600a602052604090205490565b604051908152602001610278565b6102bf6102db36600461220a565b6001600160a01b03166000908152600b602052604090205490565b600254610309906001600160a01b031681565b6040516001600160a01b039091168152602001610278565b61029461032f366004612235565b610b4b565b610294610342366004612252565b610bce565b600854610309906001600160a01b031681565b6103097f000000000000000000000000000000000000000000000000000000000000000081565b6103097f000000000000000000000000000000000000000000000000000000000000000081565b6102bf60065481565b6102946103bf3660046122e9565b610cc7565b6102bf6103d236600461220a565b6001600160a01b03166000908152600b602052604090206002015490565b6102bf600d5481565b6102946104073660046121f1565b610db3565b60055461042090600160a81b900460ff1681565b6040519015158152602001610278565b600154610309906001600160a01b031681565b6102bf7f000000000000000000000000000000000000000000000000000000000000000081565b6102946104783660046121c5565b610de3565b6102bf600e5481565b610294610494366004612355565b610e92565b6102946104a73660046123c6565b610f6e565b600054610309906001600160a01b031681565b61029461115a565b6102946104d536600461220a565b6111fe565b6105096104e836600461220a565b600b6020526000908152604090208054600182015460029092015490919083565b60408051938452602084019290925290820152606001610278565b6102946105323660046121c5565b611285565b600954610309906001600160a01b031681565b60055461042090600160a01b900460ff1681565b61029461056c3660046121f1565b6112b0565b600554610309906001600160a01b031681565b6102bf61059236600461220a565b61197a565b6102bf6105a53660046121c5565b6119c9565b600354610309906001600160a01b031681565b600454610309906001600160a01b031681565b600754610309906001600160a01b031681565b6102bf600c5481565b600a602052816000526040600020818154811061060857600080fd5b6000918252602090912060089091020180546001820154600283015460038401546004850154600586015460068701546007909701549598509396509194909391929160ff1688565b610659611a55565b60006106653383611a71565b905060006106733383611b12565b905080600003610696576040516312d37ee560e31b815260040160405180910390fd5b6006548110156106b957604051637e3f2b7d60e01b815260040160405180910390fd5b336000908152600b6020526040808220825491516311ea9fa960e21b8152600481018590529092916001600160a01b0316906347aa7ea490602401602060405180830381865afa158015610711573d6000803e3d6000fd5b505050506040513d601f19601f82011682018060405250810190610735919061243b565b9050806000036107585760405163cc88465760e01b815260040160405180910390fd5b6040516370a0823160e01b815230600482015281907f00000000000000000000000000000000000000000000000000000000000000006001600160a01b0316906370a0823190602401602060405180830381865afa1580156107be573d6000803e3d6000fd5b505050506040513d601f19601f820116820180604052508101906107e2919061243b565b10156108015760405163075e464560e01b815260040160405180910390fd5b82846005016000828254610815919061246a565b909155505042600485015560028201805484919060009061083790849061246a565b9250508190555082600e6000828254610850919061246a565b9091555050600684015460058501541061089c5760078401805460ff1916905560405133907ffa1eb7ba4f65747c7c8882031eb92d63b6fcb684b75052185312fbe1a488d94390600090a25b6108d06001600160a01b037f0000000000000000000000000000000000000000000000000000000000000000163383611d67565b6002546001600160a01b031615610ab0578215610ab057600254604051638000d99160e01b8152336004820152602481018590526000916001600160a01b031690638000d991906044016020604051808303816000875af1158015610939573d6000803e3d6000fd5b505050506040513d601f19601f8201168201806040525081019061095d919061243b565b90508015610aae57600080546040516311ea9fa960e21b8152600481018490526001600160a01b03909116906347aa7ea490602401602060405180830381865afa1580156109af573d6000803e3d6000fd5b505050506040513d601f19601f820116820180604052508101906109d3919061243b565b9050600081118015610a6d57506040516370a0823160e01b815230600482015281907f00000000000000000000000000000000000000000000000000000000000000006001600160a01b0316906370a0823190602401602060405180830381865afa158015610a46573d6000803e3d6000fd5b505050506040513d601f19601f82011682018060405250810190610a6a919061243b565b10155b15610aac57600254610aac906001600160a01b037f00000000000000000000000000000000000000000000000000000000000000008116911683611d67565b505b505b604080518481526020810183905290810186905233907f56253d287efacdb2c4cd76dd03624a4821c1ce721d1152e8f5f5718f6087c9bf9060600160405180910390a2600282015460405190815233907fdad0e43afdd45daca2566e861ff76f0250960d86947518722c83b1e03f45edd59060200160405180910390a250505050610b48600160008051602061254f83398151915255565b50565b6005546001600160a01b03163314610b7657604051630e05f48560e11b815260040160405180910390fd5b60058054821515600160a81b0260ff60a81b199091161790556040517f5ef34f53269a04b5b817e5be24a51ba6b477118b399ec9dd5b2baf5b299563dc90610bc390831515815260200190565b60405180910390a150565b600554600160a01b900460ff1615610c10576005546001600160a01b03163314610c0b57604051630e05f48560e11b815260040160405180910390fd5b610c3b565b6004546001600160a01b03163314610c3b57604051634755657960e01b815260040160405180910390fd5b6001600160a01b0383161580610c5857506001600160a01b038216155b80610c6a57506001600160a01b038116155b15610c885760405163d92e233d60e01b815260040160405180910390fd5b600780546001600160a01b039485166001600160a01b031991821617909155600880549385169382169390931790925560098054919093169116179055565b6004546001600160a01b03163314610cf257604051634755657960e01b815260040160405180910390fd5b828114610d385760405162461bcd60e51b815260206004820152600f60248201526e098cadccee8d040dad2e6dac2e8c6d608b1b60448201526064015b60405180910390fd5b60005b83811015610dac57828282818110610d5557610d5561247d565b90506020020135600b6000878785818110610d7257610d7261247d565b9050602002016020810190610d87919061220a565b6001600160a01b03168152602081019190915260400160002060020155600101610d3b565b5050505050565b6005546001600160a01b03163314610dde57604051630e05f48560e11b815260040160405180910390fd5b600655565b6002546001600160a01b03163314610e0e57604051633864b1e560e21b815260040160405180910390fd5b6001600160a01b0382166000908152600b602052604081206002018054839290610e3990849061246a565b90915550506001600160a01b0382166000818152600b60209081526040918290206002015491519182527fdad0e43afdd45daca2566e861ff76f0250960d86947518722c83b1e03f45edd5910160405180910390a25050565b6004546001600160a01b03163314610ebd57604051634755657960e01b815260040160405180910390fd5b600554600160a01b900460ff1615610ee85760405163238f75d360e01b815260040160405180910390fd5b6001600160a01b038216610f0f5760405163d92e233d60e01b815260040160405180910390fd5b600180546001600160a01b03199081166001600160a01b03978816179091556002805482169587169590951790945560038054851693861693909317909255600080548416918516919091179055600580549092169216919091179055565b6004546001600160a01b03163314610f9957604051634755657960e01b815260040160405180910390fd5b60005b818110156111555736838383818110610fb757610fb761247d565b61010002919091019150600a90506000610fd4602084018461220a565b6001600160a01b03168152602080820192909252604090810160009081208251610100810184528585018035808352878601358388019081526060808a01359785019788526080808b013591860191825260a0808c013591870191825260c0808d013591880191825260e0808e013591890191825260019089018181528a548083018c559a8c529c8b2098516008909a029098019889559351968801969096559751600287015551600386015595516004850155915160058401559351600683015593516007909101805460ff1916911515919091179055600b916110b9908561220a565b6001600160a01b03166001600160a01b0316815260200190815260200160002060000160008282546110eb919061246a565b90915550600b90506000611102602084018461220a565b6001600160a01b031681526020810191909152604001600090812060010180549161112c83612493565b91905055508060200135600c6000828254611147919061246a565b909155505050600101610f9c565b505050565b6004546001600160a01b0316331461118557604051634755657960e01b815260040160405180910390fd5b600554600160a01b900460ff16156111b05760405163238f75d360e01b815260040160405180910390fd5b6001546001600160a01b03166111d95760405163d311bc3960e01b815260040160405180910390fd5b6005805460ff60a01b1916600160a01b179055600480546001600160a01b0319169055565b6005546001600160a01b0316331461122957604051630e05f48560e11b815260040160405180910390fd5b6002546040516001600160a01b038084169216907feefe1ce2782e4ba3bbccd79617fae74979fa22005f22f7075c0910cd51c8ffd990600090a3600280546001600160a01b0319166001600160a01b0392909216919091179055565b6003546001600160a01b03163314610e0e57604051633327311360e11b815260040160405180910390fd5b6112b8611a55565b600554600160a81b900460ff16156112e257604051627cfe7f60e31b815260040160405180910390fd5b8060000361130357604051632b7786bd60e21b815260040160405180910390fd5b69010f0cf064dd5920000081111561132e5760405163c066e1e960e01b815260040160405180910390fd5b336000908152600b602052604090205469010f0cf064dd592000009061135590839061246a565b11156113745760405163c066e1e960e01b815260040160405180910390fd5b6000546001600160a01b031661139d5760405163d311bc3960e01b815260040160405180910390fd5b6113d26001600160a01b037f000000000000000000000000000000000000000000000000000000000000000016333084611d9c565b60075481906001600160a01b0316158015906113f857506008546001600160a01b031615155b801561140e57506009546001600160a01b031615155b1561153c5760006127106114236064856124ac565b61142d91906124d9565b9050600061271061143f6032866124ac565b61144991906124d9565b9050600061271061145b6032876124ac565b61146591906124d9565b6007549091506114a2906001600160a01b037f00000000000000000000000000000000000000000000000000000000000000008116911685611d67565b6008546114dc906001600160a01b037f00000000000000000000000000000000000000000000000000000000000000008116911684611d67565b600954611516906001600160a01b037f00000000000000000000000000000000000000000000000000000000000000008116911683611d67565b808261152285886124ed565b61152c91906124ed565b61153691906124ed565b93505050505b60005460405163095ea7b360e01b81526001600160a01b039182166004820152602481018390527f00000000000000000000000000000000000000000000000000000000000000009091169063095ea7b3906044016020604051808303816000875af11580156115b0573d6000803e3d6000fd5b505050506040513d601f19601f820116820180604052508101906115d49190612500565b506000805460405163066102ad60e11b8152600481018490526001600160a01b0390911690630cc2055a906024016020604051808303816000875af1158015611621573d6000803e3d6000fd5b505050506040513d601f19601f82011682018060405250810190611645919061243b565b9050600061165284611dd8565b905060006116608542611dfa565b9050600061166f6003876124ac565b336000818152600a602090815260408083208151610100810183528c81528084018a81528184018a815242606084018181526080850191825260a0850189815260c086018c8152600160e0880181815289548083018b55998d528b8d2098516008909a0290980198895595519588019590955592516002870155516003860155516004850155516005840155516006830155516007909101805460ff1916911515919091179055928252600b90529081208054929350889290919061173590849061246a565b9091555050336000908152600b6020526040812060010180549161175883612493565b919050555085600c600082825461176f919061246a565b90915550506002546001600160a01b0316156118c45760025460405163095ce44b60e21b81523360048201526001600160a01b0390911690632573912c90602401600060405180830381600087803b1580156117ca57600080fd5b505af11580156117de573d6000803e3d6000fd5b5050600254604051634a9fefc760e01b8152336004820152600093506001600160a01b039091169150634a9fefc790602401602060405180830381865afa15801561182d573d6000803e3d6000fd5b505050506040513d601f19601f82011682018060405250810190611851919061251d565b90506001600160a01b038116156118c25760025460405163095ce44b60e21b81526001600160a01b03838116600483015290911690632573912c90602401600060405180830381600087803b1580156118a957600080fd5b505af11580156118bd573d6000803e3d6000fd5b505050505b505b6003546001600160a01b0316158015906118e857506002546001600160a01b031615155b156118f7576118f73387611e99565b336000818152600a60205260409020547fe3b53cd1a44fbf11535e145d80b8ef1ed6d57a73bf5daa7e939b6b01657d65499088908690869061193b906001906124ed565b60408051948552602085019390935291830152606082015260800160405180910390a25050505050610b48600160008051602061254f83398151915255565b6001600160a01b0381166000908152600b602052604081205481036119a157506000919050565b6001600160a01b0382166000908152600b60205260409020546119c390611dd8565b92915050565b6001600160a01b0382166000908152600a602052604081205482106119f0575060006119c3565b6001600160a01b0383166000908152600a60205260408120805484908110611a1a57611a1a61247d565b60009182526020909120600890910201600781015490915060ff16611a435760009150506119c3565b611a4d8482611b12565b949350505050565b611a5d611fd2565b600260008051602061254f83398151915255565b6001600160a01b0382166000908152600a60205260408120548210611aa957604051635972996f60e11b815260040160405180910390fd5b6001600160a01b0383166000908152600a60205260408120805484908110611ad357611ad361247d565b60009182526020909120600890910201600781015490915060ff16611b0b576040516305a2e88560e21b815260040160405180910390fd5b9392505050565b600781015460009060ff16611b29575060006119c3565b600482015442818111611b41576000925050506119c3565b6000611b4d83836124ed565b85549091506276a700611b807f0000000000000000000000000000000000000000000000000000000000000000856124ed565b10611bbb57611b94612710620151806124ac565b82611ba0602d846124ac565b611baa91906124ac565b611bb491906124d9565b9450611d22565b68878678326eac900000811015600081611bd75761023f611bdb565b6103025b90506000611bec62093a80866124d9565b905061271081611bfc84876124ac565b611c0691906124ac565b611c1091906124d9565b97506000611c218262093a806124ac565b611c2b908961246a565b905060005b87821015611ced5760006007611c4962015180856124d9565b611c5490600361246a565b611c5e919061253a565b9050600086611c7557611c7082612004565b611c7e565b611c7e8261206e565b90506000611c8f62015180866124d9565b611c9a90600161246a565b611ca790620151806124ac565b90506000818c10611cb85781611cba565b8b5b90506000611cc887836124ed565b9050611cd481856124ac565b611cde908761246a565b95508296505050505050611c30565b611cfc612710620151806124ac565b611d0682886124ac565b611d1091906124d9565b611d1a908b61246a565b995050505050505b60008660050154876006015411611d3a576000611d4e565b86600501548760060154611d4e91906124ed565b905080861115611d5c578095505b505050505092915050565b611d7483838360016120d8565b61115557604051635274afe760e01b81526001600160a01b0384166004820152602401610d2f565b611daa84848484600161213e565b611dd257604051635274afe760e01b81526001600160a01b0385166004820152602401610d2f565b50505050565b600068878678326eac9000008210611df257506002919050565b506001919050565b600080611e277f0000000000000000000000000000000000000000000000000000000000000000846124ed565b90506276a7008110611e3d57602d9150506119c3565b60006007611e4e62015180866124d9565b611e5990600361246a565b611e63919061253a565b905068878678326eac9000008510611e8757611e7e8161206e565b925050506119c3565b611e9081612004565b95945050505050565b6002546001600160a01b03161580611eba57506003546001600160a01b0316155b15611ec3575050565b8160005b6014811015611dd257600254604051634a9fefc760e01b81526001600160a01b0384811660048301526000921690634a9fefc790602401602060405180830381865afa158015611f1b573d6000803e3d6000fd5b505050506040513d601f19601f82011682018060405250810190611f3f919061251d565b90506001600160a01b038116611f555750611dd2565b60035460405163d9bd5f2d60e01b81526001600160a01b0383811660048301528581166024830152604482018790529091169063d9bd5f2d90606401600060405180830381600087803b158015611fab57600080fd5b505af1158015611fbf573d6000803e3d6000fd5b509294505060019092019150611ec79050565b60008051602061254f8339815191525460020361200257604051633ee5aeb560e01b815260040160405180910390fd5b565b60008160000361201657506064919050565b816001036120265750604b919050565b816002036120365750605f919050565b8160030361204657506041919050565b8160040361205657506064919050565b8160050361206657506055919050565b506037919050565b60008160000361208057506073919050565b8160010361209057506064919050565b816002036120a057506073919050565b816003036120b05750606e919050565b816004036120c057506069919050565b816005036120d057506064919050565b50607d919050565b60405163a9059cbb60e01b60008181526001600160a01b038616600452602485905291602083604481808b5af192506001600051148316612132578383151615612125573d6000823e3d81fd5b6000873b113d1516831692505b60405250949350505050565b6040516323b872dd60e01b60008181526001600160a01b038781166004528616602452604485905291602083606481808c5af19250600160005114831661219e578383151615612191573d6000823e3d81fd5b6000883b113d1516831692505b60405250600060605295945050505050565b6001600160a01b0381168114610b4857600080fd5b600080604083850312156121d857600080fd5b82356121e3816121b0565b946020939093013593505050565b60006020828403121561220357600080fd5b5035919050565b60006020828403121561221c57600080fd5b8135611b0b816121b0565b8015158114610b4857600080fd5b60006020828403121561224757600080fd5b8135611b0b81612227565b60008060006060848603121561226757600080fd5b8335612272816121b0565b92506020840135612282816121b0565b91506040840135612292816121b0565b809150509250925092565b60008083601f8401126122af57600080fd5b50813567ffffffffffffffff8111156122c757600080fd5b6020830191508360208260051b85010111156122e257600080fd5b9250929050565b600080600080604085870312156122ff57600080fd5b843567ffffffffffffffff8082111561231757600080fd5b6123238883890161229d565b9096509450602087013591508082111561233c57600080fd5b506123498782880161229d565b95989497509550505050565b600080600080600060a0868803121561236d57600080fd5b8535612378816121b0565b94506020860135612388816121b0565b93506040860135612398816121b0565b925060608601356123a8816121b0565b915060808601356123b8816121b0565b809150509295509295909350565b600080602083850312156123d957600080fd5b823567ffffffffffffffff808211156123f157600080fd5b818501915085601f83011261240557600080fd5b81358181111561241457600080fd5b8660208260081b850101111561242957600080fd5b60209290920196919550909350505050565b60006020828403121561244d57600080fd5b5051919050565b634e487b7160e01b600052601160045260246000fd5b808201808211156119c3576119c3612454565b634e487b7160e01b600052603260045260246000fd5b6000600182016124a5576124a5612454565b5060010190565b80820281158282048414176119c3576119c3612454565b634e487b7160e01b600052601260045260246000fd5b6000826124e8576124e86124c3565b500490565b818103818111156119c3576119c3612454565b60006020828403121561251257600080fd5b8151611b0b81612227565b60006020828403121561252f57600080fd5b8151611b0b816121b0565b600082612549576125496124c3565b50069056fe9b779b17422d0df92223018b32b4d1fa46e071723d6817e2486d003becc55f00a26469706673582212209a839e1299ce7f543f506b0882bc295ed98342e00fd06af57388e827050294c864736f6c63430008180033",
  "linkReferences": {},
  "deployedLinkReferences": {}
}