{
  "_format": "hh-sol-artifact-1",
  "contractName": "OSLOInvestmentEngine",
  "sourceName": "contracts/OSLOInvestmentEngine.sol",
  "abi": [
    {
      "inputs": [
        {
          "internalType": "address",
          "name": "_usdt",
          "type": "address"
        },
        {
          "internalType": "address",
          "name": "_osloToken",
          "type": "address"
        },
        {
          "internalType": "uint256",
          "name": "_launchTimestamp",
          "type": "uint256"
        }
      ],
      "stateMutability": "nonpayable",
      "type": "constructor"
    },
    {
      "inputs": [],
      "name": "BelowWithdrawalThreshold",
      "type": "error"
    },
    {
      "inputs": [],
      "name": "DEXNotPriced",
      "type": "error"
    },
    {
      "inputs": [],
      "name": "DepositCapped",
      "type": "error"
    },
    {
      "inputs": [],
      "name": "DepositTooHigh",
      "type": "error"
    },
    {
      "inputs": [],
      "name": "DepositTooLow",
      "type": "error"
    },
    {
      "inputs": [],
      "name": "DepositsPausedError",
      "type": "error"
    },
    {
      "inputs": [],
      "name": "InsufficientOsloReserve",
      "type": "error"
    },
    {
      "inputs": [],
      "name": "InsufficientUSDTReserve",
      "type": "error"
    },
    {
      "inputs": [],
      "name": "InvalidDeposit",
      "type": "error"
    },
    {
      "inputs": [],
      "name": "NotConfigured",
      "type": "error"
    },
    {
      "inputs": [],
      "name": "NotInEarlyExitPeriod",
      "type": "error"
    },
    {
      "inputs": [],
      "name": "NothingToClaim",
      "type": "error"
    },
    {
      "inputs": [],
      "name": "OnlyAdmin",
      "type": "error"
    },
    {
      "inputs": [],
      "name": "OnlyRankSystem",
      "type": "error"
    },
    {
      "inputs": [],
      "name": "OnlyReferral",
      "type": "error"
    },
    {
      "inputs": [],
      "name": "OnlyTimelock",
      "type": "error"
    },
    {
      "inputs": [],
      "name": "ReentrancyGuardReentrantCall",
      "type": "error"
    },
    {
      "inputs": [
        {
          "internalType": "address",
          "name": "token",
          "type": "address"
        }
      ],
      "name": "SafeERC20FailedOperation",
      "type": "error"
    },
    {
      "inputs": [],
      "name": "SetupAlreadyComplete",
      "type": "error"
    },
    {
      "inputs": [],
      "name": "ZeroAddress",
      "type": "error"
    },
    {
      "anonymous": false,
      "inputs": [
        {
          "indexed": true,
          "internalType": "address",
          "name": "user",
          "type": "address"
        }
      ],
      "name": "CombinedCapReached",
      "type": "event"
    },
    {
      "anonymous": false,
      "inputs": [
        {
          "indexed": true,
          "internalType": "address",
          "name": "user",
          "type": "address"
        },
        {
          "indexed": false,
          "internalType": "uint256",
          "name": "totalCombined",
          "type": "uint256"
        }
      ],
      "name": "CombinedEarningsUpdated",
      "type": "event"
    },
    {
      "anonymous": false,
      "inputs": [
        {
          "indexed": true,
          "internalType": "address",
          "name": "user",
          "type": "address"
        },
        {
          "indexed": false,
          "internalType": "uint256",
          "name": "amount",
          "type": "uint256"
        },
        {
          "indexed": false,
          "internalType": "uint256",
          "name": "tier",
          "type": "uint256"
        },
        {
          "indexed": false,
          "internalType": "uint256",
          "name": "dailyRate",
          "type": "uint256"
        },
        {
          "indexed": false,
          "internalType": "uint256",
          "name": "depositIndex",
          "type": "uint256"
        }
      ],
      "name": "Deposited",
      "type": "event"
    },
    {
      "anonymous": false,
      "inputs": [
        {
          "indexed": false,
          "internalType": "bool",
          "name": "paused",
          "type": "bool"
        }
      ],
      "name": "DepositsPaused",
      "type": "event"
    },
    {
      "anonymous": false,
      "inputs": [
        {
          "indexed": true,
          "internalType": "address",
          "name": "user",
          "type": "address"
        },
        {
          "indexed": false,
          "internalType": "uint256",
          "name": "amountReturned",
          "type": "uint256"
        },
        {
          "indexed": false,
          "internalType": "uint256",
          "name": "feeDeducted",
          "type": "uint256"
        },
        {
          "indexed": false,
          "internalType": "uint256",
          "name": "yieldDeducted",
          "type": "uint256"
        },
        {
          "indexed": false,
          "internalType": "uint256",
          "name": "depositIndex",
          "type": "uint256"
        }
      ],
      "name": "EarlyExited",
      "type": "event"
    },
    {
      "anonymous": false,
      "inputs": [
        {
          "indexed": true,
          "internalType": "address",
          "name": "user",
          "type": "address"
        },
        {
          "indexed": false,
          "internalType": "uint256",
          "name": "netPrincipal",
          "type": "uint256"
        },
        {
          "indexed": false,
          "internalType": "uint256",
          "name": "depositIndex",
          "type": "uint256"
        }
      ],
      "name": "PrincipalWithdrawn",
      "type": "event"
    },
    {
      "anonymous": false,
      "inputs": [
        {
          "indexed": true,
          "internalType": "address",
          "name": "oldReferral",
          "type": "address"
        },
        {
          "indexed": true,
          "internalType": "address",
          "name": "newReferral",
          "type": "address"
        }
      ],
      "name": "ReferralUpdated",
      "type": "event"
    },
    {
      "anonymous": false,
      "inputs": [
        {
          "indexed": true,
          "internalType": "address",
          "name": "user",
          "type": "address"
        },
        {
          "indexed": false,
          "internalType": "uint256",
          "name": "usdtReward",
          "type": "uint256"
        },
        {
          "indexed": false,
          "internalType": "uint256",
          "name": "osloAmount",
          "type": "uint256"
        },
        {
          "indexed": false,
          "internalType": "uint256",
          "name": "depositIndex",
          "type": "uint256"
        }
      ],
      "name": "RewardsClaimed",
      "type": "event"
    },
    {
      "inputs": [],
      "name": "admin",
      "outputs": [
        {
          "internalType": "address",
          "name": "",
          "type": "address"
        }
      ],
      "stateMutability": "view",
      "type": "function"
    },
    {
      "inputs": [
        {
          "internalType": "uint256",
          "name": "depositIndex",
          "type": "uint256"
        }
      ],
      "name": "claimRewards",
      "outputs": [],
      "stateMutability": "nonpayable",
      "type": "function"
    },
    {
      "inputs": [],
      "name": "companyWallet",
      "outputs": [
        {
          "internalType": "address",
          "name": "",
          "type": "address"
        }
      ],
      "stateMutability": "view",
      "type": "function"
    },
    {
      "inputs": [],
      "name": "completeSetup",
      "outputs": [],
      "stateMutability": "nonpayable",
      "type": "function"
    },
    {
      "inputs": [
        {
          "internalType": "address",
          "name": "_treasury",
          "type": "address"
        },
        {
          "internalType": "address",
          "name": "_referral",
          "type": "address"
        },
        {
          "internalType": "address",
          "name": "_rankSystem",
          "type": "address"
        },
        {
          "internalType": "address",
          "name": "_osloDex",
          "type": "address"
        },
        {
          "internalType": "address",
          "name": "_timelock",
          "type": "address"
        }
      ],
      "name": "configure",
      "outputs": [],
      "stateMutability": "nonpayable",
      "type": "function"
    },
    {
      "inputs": [
        {
          "internalType": "uint256",
          "name": "amount",
          "type": "uint256"
        }
      ],
      "name": "deposit",
      "outputs": [],
      "stateMutability": "nonpayable",
      "type": "function"
    },
    {
      "inputs": [],
      "name": "depositsPaused",
      "outputs": [
        {
          "internalType": "bool",
          "name": "",
          "type": "bool"
        }
      ],
      "stateMutability": "view",
      "type": "function"
    },
    {
      "inputs": [
        {
          "internalType": "uint256",
          "name": "depositIndex",
          "type": "uint256"
        }
      ],
      "name": "earlyExit",
      "outputs": [],
      "stateMutability": "nonpayable",
      "type": "function"
    },
    {
      "inputs": [
        {
          "internalType": "address",
          "name": "user",
          "type": "address"
        }
      ],
      "name": "getActiveDeposit",
      "outputs": [
        {
          "internalType": "uint256",
          "name": "",
          "type": "uint256"
        }
      ],
      "stateMutability": "view",
      "type": "function"
    },
    {
      "inputs": [
        {
          "internalType": "address",
          "name": "user",
          "type": "address"
        }
      ],
      "name": "getCombinedEarnings",
      "outputs": [
        {
          "internalType": "uint256",
          "name": "",
          "type": "uint256"
        }
      ],
      "stateMutability": "view",
      "type": "function"
    },
    {
      "inputs": [
        {
          "internalType": "address",
          "name": "user",
          "type": "address"
        }
      ],
      "name": "getDepositCount",
      "outputs": [
        {
          "internalType": "uint256",
          "name": "",
          "type": "uint256"
        }
      ],
      "stateMutability": "view",
      "type": "function"
    },
    {
      "inputs": [
        {
          "internalType": "address",
          "name": "user",
          "type": "address"
        },
        {
          "internalType": "uint256",
          "name": "depositIndex",
          "type": "uint256"
        }
      ],
      "name": "getEarlyExitAmount",
      "outputs": [
        {
          "internalType": "uint256",
          "name": "principal",
          "type": "uint256"
        },
        {
          "internalType": "uint256",
          "name": "accruedYield",
          "type": "uint256"
        },
        {
          "internalType": "uint256",
          "name": "exitFee",
          "type": "uint256"
        },
        {
          "internalType": "uint256",
          "name": "netReturn",
          "type": "uint256"
        }
      ],
      "stateMutability": "view",
      "type": "function"
    },
    {
      "inputs": [
        {
          "internalType": "address",
          "name": "user",
          "type": "address"
        },
        {
          "internalType": "uint256",
          "name": "depositIndex",
          "type": "uint256"
        }
      ],
      "name": "getPendingRewards",
      "outputs": [
        {
          "internalType": "uint256",
          "name": "pendingUSDT",
          "type": "uint256"
        }
      ],
      "stateMutability": "view",
      "type": "function"
    },
    {
      "inputs": [
        {
          "internalType": "address",
          "name": "user",
          "type": "address"
        }
      ],
      "name": "getUserTier",
      "outputs": [
        {
          "internalType": "uint256",
          "name": "",
          "type": "uint256"
        }
      ],
      "stateMutability": "view",
      "type": "function"
    },
    {
      "inputs": [
        {
          "internalType": "address",
          "name": "user",
          "type": "address"
        },
        {
          "internalType": "uint256",
          "name": "depositIndex",
          "type": "uint256"
        }
      ],
      "name": "isInEarlyExitPeriod",
      "outputs": [
        {
          "internalType": "bool",
          "name": "",
          "type": "bool"
        }
      ],
      "stateMutability": "view",
      "type": "function"
    },
    {
      "inputs": [],
      "name": "launchTimestamp",
      "outputs": [
        {
          "internalType": "uint256",
          "name": "",
          "type": "uint256"
        }
      ],
      "stateMutability": "view",
      "type": "function"
    },
    {
      "inputs": [
        {
          "components": [
            {
              "internalType": "address",
              "name": "owner",
              "type": "address"
            },
            {
              "internalType": "uint256",
              "name": "amount",
              "type": "uint256"
            },
            {
              "internalType": "uint256",
              "name": "tier",
              "type": "uint256"
            },
            {
              "internalType": "uint256",
              "name": "dailyRate",
              "type": "uint256"
            },
            {
              "internalType": "uint256",
              "name": "depositTime",
              "type": "uint256"
            },
            {
              "internalType": "uint256",
              "name": "lastClaimTime",
              "type": "uint256"
            },
            {
              "internalType": "uint256",
              "name": "totalClaimed",
              "type": "uint256"
            },
            {
              "internalType": "uint256",
              "name": "maxReturn",
              "type": "uint256"
            }
          ],
          "internalType": "struct OSLOInvestmentEngine.DepositMigration[]",
          "name": "entries",
          "type": "tuple[]"
        }
      ],
      "name": "migrateDeposits",
      "outputs": [],
      "stateMutability": "nonpayable",
      "type": "function"
    },
    {
      "inputs": [],
      "name": "minClaimThreshold",
      "outputs": [
        {
          "internalType": "uint256",
          "name": "",
          "type": "uint256"
        }
      ],
      "stateMutability": "view",
      "type": "function"
    },
    {
      "inputs": [
        {
          "internalType": "address",
          "name": "user",
          "type": "address"
        },
        {
          "internalType": "uint256",
          "name": "amount",
          "type": "uint256"
        }
      ],
      "name": "notifyLevelIncome",
      "outputs": [],
      "stateMutability": "nonpayable",
      "type": "function"
    },
    {
      "inputs": [
        {
          "internalType": "address",
          "name": "user",
          "type": "address"
        },
        {
          "internalType": "uint256",
          "name": "amount",
          "type": "uint256"
        }
      ],
      "name": "notifyRankBonus",
      "outputs": [],
      "stateMutability": "nonpayable",
      "type": "function"
    },
    {
      "inputs": [],
      "name": "osloDex",
      "outputs": [
        {
          "internalType": "address",
          "name": "",
          "type": "address"
        }
      ],
      "stateMutability": "view",
      "type": "function"
    },
    {
      "inputs": [],
      "name": "osloToken",
      "outputs": [
        {
          "internalType": "contract IERC20",
          "name": "",
          "type": "address"
        }
      ],
      "stateMutability": "view",
      "type": "function"
    },
    {
      "inputs": [],
      "name": "performanceWallet",
      "outputs": [
        {
          "internalType": "address",
          "name": "",
          "type": "address"
        }
      ],
      "stateMutability": "view",
      "type": "function"
    },
    {
      "inputs": [],
      "name": "rankSystem",
      "outputs": [
        {
          "internalType": "address",
          "name": "",
          "type": "address"
        }
      ],
      "stateMutability": "view",
      "type": "function"
    },
    {
      "inputs": [],
      "name": "referral",
      "outputs": [
        {
          "internalType": "address",
          "name": "",
          "type": "address"
        }
      ],
      "stateMutability": "view",
      "type": "function"
    },
    {
      "inputs": [],
      "name": "rewardWallet",
      "outputs": [
        {
          "internalType": "address",
          "name": "",
          "type": "address"
        }
      ],
      "stateMutability": "view",
      "type": "function"
    },
    {
      "inputs": [
        {
          "internalType": "bool",
          "name": "_paused",
          "type": "bool"
        }
      ],
      "name": "setDepositsPaused",
      "outputs": [],
      "stateMutability": "nonpayable",
      "type": "function"
    },
    {
      "inputs": [
        {
          "internalType": "uint256",
          "name": "_threshold",
          "type": "uint256"
        }
      ],
      "name": "setMinClaimThreshold",
      "outputs": [],
      "stateMutability": "nonpayable",
      "type": "function"
    },
    {
      "inputs": [
        {
          "internalType": "address",
          "name": "_referral",
          "type": "address"
        }
      ],
      "name": "setReferral",
      "outputs": [],
      "stateMutability": "nonpayable",
      "type": "function"
    },
    {
      "inputs": [
        {
          "internalType": "address",
          "name": "_rewardWallet",
          "type": "address"
        },
        {
          "internalType": "address",
          "name": "_companyWallet",
          "type": "address"
        },
        {
          "internalType": "address",
          "name": "_performanceWallet",
          "type": "address"
        }
      ],
      "name": "setRewardWallets",
      "outputs": [],
      "stateMutability": "nonpayable",
      "type": "function"
    },
    {
      "inputs": [],
      "name": "setupComplete",
      "outputs": [
        {
          "internalType": "bool",
          "name": "",
          "type": "bool"
        }
      ],
      "stateMutability": "view",
      "type": "function"
    },
    {
      "inputs": [],
      "name": "timelock",
      "outputs": [
        {
          "internalType": "address",
          "name": "",
          "type": "address"
        }
      ],
      "stateMutability": "view",
      "type": "function"
    },
    {
      "inputs": [],
      "name": "totalDeposited",
      "outputs": [
        {
          "internalType": "uint256",
          "name": "",
          "type": "uint256"
        }
      ],
      "stateMutability": "view",
      "type": "function"
    },
    {
      "inputs": [],
      "name": "totalRewardsPaid",
      "outputs": [
        {
          "internalType": "uint256",
          "name": "",
          "type": "uint256"
        }
      ],
      "stateMutability": "view",
      "type": "function"
    },
    {
      "inputs": [],
      "name": "totalWithdrawn",
      "outputs": [
        {
          "internalType": "uint256",
          "name": "",
          "type": "uint256"
        }
      ],
      "stateMutability": "view",
      "type": "function"
    },
    {
      "inputs": [],
      "name": "treasury",
      "outputs": [
        {
          "internalType": "address",
          "name": "",
          "type": "address"
        }
      ],
      "stateMutability": "view",
      "type": "function"
    },
    {
      "inputs": [],
      "name": "usdt",
      "outputs": [
        {
          "internalType": "contract IERC20",
          "name": "",
          "type": "address"
        }
      ],
      "stateMutability": "view",
      "type": "function"
    },
    {
      "inputs": [
        {
          "internalType": "address",
          "name": "",
          "type": "address"
        },
        {
          "internalType": "uint256",
          "name": "",
          "type": "uint256"
        }
      ],
      "name": "userDeposits",
      "outputs": [
        {
          "internalType": "uint256",
          "name": "amount",
          "type": "uint256"
        },
        {
          "internalType": "uint256",
          "name": "tier",
          "type": "uint256"
        },
        {
          "internalType": "uint256",
          "name": "dailyRate",
          "type": "uint256"
        },
        {
          "internalType": "uint256",
          "name": "depositTime",
          "type": "uint256"
        },
        {
          "internalType": "uint256",
          "name": "lastClaimTime",
          "type": "uint256"
        },
        {
          "internalType": "uint256",
          "name": "totalClaimed",
          "type": "uint256"
        },
        {
          "internalType": "uint256",
          "name": "maxReturn",
          "type": "uint256"
        },
        {
          "internalType": "bool",
          "name": "active",
          "type": "bool"
        }
      ],
      "stateMutability": "view",
      "type": "function"
    },
    {
      "inputs": [
        {
          "internalType": "address",
          "name": "",
          "type": "address"
        }
      ],
      "name": "users",
      "outputs": [
        {
          "internalType": "uint256",
          "name": "totalActiveDeposit",
          "type": "uint256"
        },
        {
          "internalType": "uint256",
          "name": "depositCount",
          "type": "uint256"
        },
        {
          "internalType": "uint256",
          "name": "totalCombinedEarnings",
          "type": "uint256"
        }
      ],
      "stateMutability": "view",
      "type": "function"
    }
  ],
  "bytecode": "0x60e0604052670de0b6b3a76400006006553480156200001d57600080fd5b5060405162002bf638038062002bf68339810160408190526200004091620000ec565b60017f9b779b17422d0df92223018b32b4d1fa46e071723d6817e2486d003becc55f00556001600160a01b03831615806200008257506001600160a01b038216155b15620000a15760405163d92e233d60e01b815260040160405180910390fd5b6001600160a01b03928316608052911660a05260c052600480546001600160a01b031916331790556200012d565b80516001600160a01b0381168114620000e757600080fd5b919050565b6000806000606084860312156200010257600080fd5b6200010d84620000cf565b92506200011d60208501620000cf565b9150604084015190509250925092565b60805160a05160c051612a22620001d46000396000818161044b0152818161213301526122fd01526000818161037501528181610868015281816109a201528181611466015281816115da0152818161165f01528181611cca0152611d5601526000818161039c015281816112b101528181611380015281816113ba015281816113f4015281816116fe01528181611b3c01528181611bc50152611c040152612a226000f3fe608060405234801561001057600080fd5b506004361061023d5760003560e01c8063760fcb3e1161013b578063b6b55f25116100b8578063e4e7c6b41161007c578063e4e7c6b4146105f3578063e9a16bd514610606578063f851a44014610619578063fb75b2c71461062c578063ff50abdc1461063f57600080fd5b8063b6b55f2514610574578063b8af3d3e14610587578063ceace7dd1461059a578063d33219b4146105cd578063e4d2620e146105e057600080fd5b80639e5914da116100ff5780639e5914da146104dd578063a87430ba146104f0578063ac948e831461053a578063b12cd6251461054d578063b6635be61461056057600080fd5b8063760fcb3e14610489578063786685e01461049c57806384b273f6146104af5780638565c2bf146104c25780638aea8f71146104d557600080fd5b80632f48ab7d116101c957806360da3e831161018d57806360da3e831461040f57806361d027b31461043357806365cf7c9b146104465780636b9f7ab61461046d57806374958e351461048057600080fd5b80632f48ab7d146103975780633695dad1146103be5780633a6f2dcd146103c75780634b319713146103f357806351637ba9146103fc57600080fd5b80631441a5a9116102105780631441a5a91461030c5780631c481e2d146103375780631d687f0c1461034a5780631ec32d151461035d5780632acfbca31461037057600080fd5b806308f43333146102425780630962ef791461029757806313fcaf54146102ac578063142a3da3146102e3575b600080fd5b610255610250366004612719565b610648565b604080519889526020890197909752958701949094526060860192909252608085015260a084015260c0830152151560e0820152610100015b60405180910390f35b6102aa6102a5366004612745565b6106ad565b005b6102d56102ba36600461275e565b6001600160a01b03166000908152600a602052604090205490565b60405190815260200161028e565b6102d56102f136600461275e565b6001600160a01b03166000908152600b602052604090205490565b60025461031f906001600160a01b031681565b6040516001600160a01b03909116815260200161028e565b6102aa61034536600461277b565b610ae2565b6102aa61035836600461279d565b610b65565b60085461031f906001600160a01b031681565b61031f7f000000000000000000000000000000000000000000000000000000000000000081565b61031f7f000000000000000000000000000000000000000000000000000000000000000081565b6102d560065481565b6102d56103d536600461275e565b6001600160a01b03166000908152600b602052604090206002015490565b6102d5600d5481565b6102aa61040a366004612745565b610c5e565b60055461042390600160a81b900460ff1681565b604051901515815260200161028e565b60015461031f906001600160a01b031681565b6102d57f000000000000000000000000000000000000000000000000000000000000000081565b6102aa61047b366004612719565b610c8e565b6102d5600e5481565b6102aa6104973660046127e8565b610d3d565b6104236104aa366004612719565b610e19565b6102aa6104bd366004612859565b610eb3565b60005461031f906001600160a01b031681565b6102aa61109f565b6102aa6104eb36600461275e565b611143565b61051f6104fe36600461275e565b600b6020526000908152604090208054600182015460029092015490919083565b6040805193845260208401929092529082015260600161028e565b6102aa610548366004612719565b6111ca565b60095461031f906001600160a01b031681565b60055461042390600160a01b900460ff1681565b6102aa610582366004612745565b6111f5565b6102aa610595366004612745565b6119ed565b6105ad6105a8366004612719565b611e5f565b60408051948552602085019390935291830152606082015260800161028e565b60055461031f906001600160a01b031681565b6102d56105ee36600461275e565b611f4a565b6102d5610601366004612719565b611f93565b60035461031f906001600160a01b031681565b60045461031f906001600160a01b031681565b60075461031f906001600160a01b031681565b6102d5600c5481565b600a602052816000526040600020818154811061066457600080fd5b6000918252602090912060089091020180546001820154600283015460038401546004850154600586015460068701546007909701549598509396509194909391929160ff1688565b6106b561201f565b60006106c1338361203b565b905060006106cf33836120dc565b9050806000036106f2576040516312d37ee560e31b815260040160405180910390fd5b60065481101561071557604051637e3f2b7d60e01b815260040160405180910390fd5b8154600090610726906003906128e4565b336000908152600b60205260408120600281015492935091831161074b57600061075a565b600282015461075a90846128fb565b9050806000036107b45760078501805460ff1916905560405133907ffa1eb7ba4f65747c7c8882031eb92d63b6fcb684b75052185312fbe1a488d94390600090a26040516305a2e88560e21b815260040160405180910390fd5b808411156107c0578093505b600080546040516311ea9fa960e21b8152600481018790526001600160a01b03909116906347aa7ea490602401602060405180830381865afa15801561080a573d6000803e3d6000fd5b505050506040513d601f19601f8201168201806040525081019061082e919061290e565b9050806000036108515760405163cc88465760e01b815260040160405180910390fd5b6040516370a0823160e01b815230600482015281907f00000000000000000000000000000000000000000000000000000000000000006001600160a01b0316906370a0823190602401602060405180830381865afa1580156108b7573d6000803e3d6000fd5b505050506040513d601f19601f820116820180604052508101906108db919061290e565b10156108fa5760405163075e464560e01b815260040160405180910390fd5b8486600501600082825461090e9190612927565b9091555050426004870155600283018054869190600090610930908490612927565b9250508190555084600e60008282546109499190612927565b909155505060068601546005870154106109955760078601805460ff1916905560405133907ffa1eb7ba4f65747c7c8882031eb92d63b6fcb684b75052185312fbe1a488d94390600090a25b6109c96001600160a01b037f00000000000000000000000000000000000000000000000000000000000000001633836121d8565b6002546001600160a01b031615610a45578415610a4557600254604051638000d99160e01b8152336004820152602481018790526001600160a01b0390911690638000d99190604401600060405180830381600087803b158015610a2c57600080fd5b505af1158015610a40573d6000803e3d6000fd5b505050505b604080518681526020810183905290810188905233907f56253d287efacdb2c4cd76dd03624a4821c1ce721d1152e8f5f5718f6087c9bf9060600160405180910390a2600283015460405190815233907fdad0e43afdd45daca2566e861ff76f0250960d86947518722c83b1e03f45edd59060200160405180910390a2505050505050610adf60016000805160206129cd83398151915255565b50565b6005546001600160a01b03163314610b0d57604051630e05f48560e11b815260040160405180910390fd5b60058054821515600160a81b0260ff60a81b199091161790556040517f5ef34f53269a04b5b817e5be24a51ba6b477118b399ec9dd5b2baf5b299563dc90610b5a90831515815260200190565b60405180910390a150565b600554600160a01b900460ff1615610ba7576005546001600160a01b03163314610ba257604051630e05f48560e11b815260040160405180910390fd5b610bd2565b6004546001600160a01b03163314610bd257604051634755657960e01b815260040160405180910390fd5b6001600160a01b0383161580610bef57506001600160a01b038216155b80610c0157506001600160a01b038116155b15610c1f5760405163d92e233d60e01b815260040160405180910390fd5b600780546001600160a01b039485166001600160a01b031991821617909155600880549385169382169390931790925560098054919093169116179055565b6005546001600160a01b03163314610c8957604051630e05f48560e11b815260040160405180910390fd5b600655565b6002546001600160a01b03163314610cb957604051633864b1e560e21b815260040160405180910390fd5b6001600160a01b0382166000908152600b602052604081206002018054839290610ce4908490612927565b90915550506001600160a01b0382166000818152600b60209081526040918290206002015491519182527fdad0e43afdd45daca2566e861ff76f0250960d86947518722c83b1e03f45edd5910160405180910390a25050565b6004546001600160a01b03163314610d6857604051634755657960e01b815260040160405180910390fd5b600554600160a01b900460ff1615610d935760405163238f75d360e01b815260040160405180910390fd5b6001600160a01b038216610dba5760405163d92e233d60e01b815260040160405180910390fd5b600180546001600160a01b03199081166001600160a01b03978816179091556002805482169587169590951790945560038054851693861693909317909255600080548416918516919091179055600580549092169216919091179055565b6001600160a01b0382166000908152600a60205260408120548210610e4057506000610ead565b6001600160a01b0383166000908152600a60205260408120805484908110610e6a57610e6a61293a565b60009182526020909120600890910201600781015490915060ff16610e93576000915050610ead565b620d2f008160030154610ea69190612927565b4211159150505b92915050565b6004546001600160a01b03163314610ede57604051634755657960e01b815260040160405180910390fd5b60005b8181101561109a5736838383818110610efc57610efc61293a565b61010002919091019150600a90506000610f19602084018461275e565b6001600160a01b03168152602080820192909252604090810160009081208251610100810184528585018035808352878601358388019081526060808a01359785019788526080808b013591860191825260a0808c013591870191825260c0808d013591880191825260e0808e013591890191825260019089018181528a548083018c559a8c529c8b2098516008909a029098019889559351968801969096559751600287015551600386015595516004850155915160058401559351600683015593516007909101805460ff1916911515919091179055600b91610ffe908561275e565b6001600160a01b03166001600160a01b0316815260200190815260200160002060000160008282546110309190612927565b90915550600b90506000611047602084018461275e565b6001600160a01b031681526020810191909152604001600090812060010180549161107183612950565b91905055508060200135600c600082825461108c9190612927565b909155505050600101610ee1565b505050565b6004546001600160a01b031633146110ca57604051634755657960e01b815260040160405180910390fd5b600554600160a01b900460ff16156110f55760405163238f75d360e01b815260040160405180910390fd5b6001546001600160a01b031661111e5760405163d311bc3960e01b815260040160405180910390fd5b6005805460ff60a01b1916600160a01b179055600480546001600160a01b0319169055565b6005546001600160a01b0316331461116e57604051630e05f48560e11b815260040160405180910390fd5b6002546040516001600160a01b038084169216907feefe1ce2782e4ba3bbccd79617fae74979fa22005f22f7075c0910cd51c8ffd990600090a3600280546001600160a01b0319166001600160a01b0392909216919091179055565b6003546001600160a01b03163314610cb957604051633327311360e11b815260040160405180910390fd5b6111fd61201f565b600554600160a81b900460ff161561122757604051627cfe7f60e31b815260040160405180910390fd5b678ac7230489e8000081101561125057604051632b7786bd60e21b815260040160405180910390fd5b69010f0cf064dd5920000081111561127b5760405163c066e1e960e01b815260040160405180910390fd5b6000546001600160a01b03166112a45760405163d311bc3960e01b815260040160405180910390fd5b6112d96001600160a01b037f000000000000000000000000000000000000000000000000000000000000000016333084612212565b60075481906001600160a01b0316158015906112ff57506008546001600160a01b031615155b801561131557506009546001600160a01b031615155b1561144357600061271061132a6064856128e4565b6113349190612969565b905060006127106113466032866128e4565b6113509190612969565b905060006127106113626032876128e4565b61136c9190612969565b6007549091506113a9906001600160a01b037f000000000000000000000000000000000000000000000000000000000000000081169116856121d8565b6008546113e3906001600160a01b037f000000000000000000000000000000000000000000000000000000000000000081169116846121d8565b60095461141d906001600160a01b037f000000000000000000000000000000000000000000000000000000000000000081169116836121d8565b808261142985886128fb565b61143391906128fb565b61143d91906128fb565b93505050505b600080546040516370a0823160e01b81526001600160a01b0391821660048201527f0000000000000000000000000000000000000000000000000000000000000000909116906370a0823190602401602060405180830381865afa1580156114af573d6000803e3d6000fd5b505050506040513d601f19601f820116820180604052508101906114d3919061290e565b6000805460408051630240bc6b60e21b815281519495509293849384936001600160a01b031692630902f1ac926004808401938290030181865afa15801561151f573d6000803e3d6000fd5b505050506040513d601f19601f82011682018060405250810190611543919061298b565b915091506000821180156115575750600081115b15611581576115668583612927565b61157082876128e4565b61157a9190612969565b9250611585565b8492505b683635c9adc5dea000006115998185612927565b8510156116ea576000856115ad8387612927565b6115b791906128fb565b6040516370a0823160e01b81523060048201529091506000906001600160a01b037f000000000000000000000000000000000000000000000000000000000000000016906370a0823190602401602060405180830381865afa158015611621573d6000803e3d6000fd5b505050506040513d601f19601f82011682018060405250810190611645919061290e565b90508181106116e757600054611688906001600160a01b037f0000000000000000000000000000000000000000000000000000000000000000811691168461224e565b60005460405163362ce52b60e01b8152600481018490526001600160a01b039091169063362ce52b90602401600060405180830381600087803b1580156116ce57600080fd5b505af11580156116e2573d6000803e3d6000fd5b505050505b50505b505060005461172a93506001600160a01b037f0000000000000000000000000000000000000000000000000000000000000000811693501690508361224e565b6000805460405163066102ad60e11b8152600481018490526001600160a01b0390911690630cc2055a906024016020604051808303816000875af1158015611776573d6000803e3d6000fd5b505050506040513d601f19601f8201168201806040525081019061179a919061290e565b905060006117a7846122a2565b905060006117b4856122f5565b905060006117c36003876128e4565b336000818152600a602090815260408083208151610100810183528c81528084018a81528184018a815242606084018181526080850191825260a0850189815260c086018c8152600160e0880181815289548083018b55998d528b8d2098516008909a0290980198895595519588019590955592516002870155516003860155516004850155516005840155516006830155516007909101805460ff1916911515919091179055928252600b905290812080549293508892909190611889908490612927565b9091555050336000908152600b602052604081206001018054916118ac83612950565b919050555085600c60008282546118c39190612927565b90915550506002546001600160a01b0316156119375760025460405163095ce44b60e21b81523360048201526001600160a01b0390911690632573912c90602401600060405180830381600087803b15801561191e57600080fd5b505af1158015611932573d6000803e3d6000fd5b505050505b6003546001600160a01b03161580159061195b57506002546001600160a01b031615155b1561196a5761196a3387612412565b336000818152600a60205260409020547fe3b53cd1a44fbf11535e145d80b8ef1ed6d57a73bf5daa7e939b6b01657d6549908890869086906119ae906001906128fb565b60408051948552602085019390935291830152606082015260800160405180910390a25050505050610adf60016000805160206129cd83398151915255565b6119f561201f565b6000611a01338361203b565b9050620d2f008160030154611a169190612927565b421115611a365760405163693ed15b60e11b815260040160405180910390fd5b80546000612710611a496103e8846128e4565b611a539190612969565b90506000611a6182846128fb565b60078501805460ff19169055336000908152600b6020526040812080549293508592909190611a919084906128fb565b9250508190555082600d6000828254611aaa9190612927565b90915550506002546001600160a01b031615611b1e5760025460405163095ce44b60e21b81523360048201526001600160a01b0390911690632573912c90602401600060405180830381600087803b158015611b0557600080fd5b505af1158015611b19573d6000803e3d6000fd5b505050505b8015611dfa576040516370a0823160e01b81523060048201526000907f00000000000000000000000000000000000000000000000000000000000000006001600160a01b0316906370a0823190602401602060405180830381865afa158015611b8b573d6000803e3d6000fd5b505050506040513d601f19601f82011682018060405250810190611baf919061290e565b9050818110611bf157611bec6001600160a01b037f00000000000000000000000000000000000000000000000000000000000000001633846121d8565b611df8565b8015611c3857611c2b6001600160a01b037f00000000000000000000000000000000000000000000000000000000000000001633836121d8565b611c3581836128fb565b91505b600080546040516311ea9fa960e21b8152600481018590526001600160a01b03909116906347aa7ea490602401602060405180830381865afa158015611c82573d6000803e3d6000fd5b505050506040513d601f19601f82011682018060405250810190611ca6919061290e565b9050600081118015611d4057506040516370a0823160e01b815230600482015281907f00000000000000000000000000000000000000000000000000000000000000006001600160a01b0316906370a0823190602401602060405180830381865afa158015611d19573d6000803e3d6000fd5b505050506040513d601f19601f82011682018060405250810190611d3d919061290e565b10155b15611df657600054611d7f906001600160a01b037f0000000000000000000000000000000000000000000000000000000000000000811691168361224e565b60005460405163f843e64160e01b8152600481018390523360248201526001600160a01b039091169063f843e641906044016020604051808303816000875af1158015611dd0573d6000803e3d6000fd5b505050506040513d601f19601f82011682018060405250810190611df4919061290e565b505b505b505b604080518281526020810184905260008183015260608101879052905133917f4ade67ef7e7c5e4d9c50de61a4e8c555be92c9b37e3ca6716eb02a1f0e471da5919081900360800190a250505050610adf60016000805160206129cd83398151915255565b6001600160a01b0382166000908152600a60205260408120548190819081908510611e9557506000925082915081905080611f41565b6001600160a01b0386166000908152600a60205260408120805487908110611ebf57611ebf61293a565b60009182526020909120600890910201600781015490915060ff161580611ef75750620d2f008160030154611ef49190612927565b42115b15611f1057600080600080945094509450945050611f41565b8054945060009350612710611f276103e8876128e4565b611f319190612969565b9250611f3d83866128fb565b9150505b92959194509250565b6001600160a01b0381166000908152600b60205260408120548103611f7157506000919050565b6001600160a01b0382166000908152600b6020526040902054610ead906122a2565b6001600160a01b0382166000908152600a60205260408120548210611fba57506000610ead565b6001600160a01b0383166000908152600a60205260408120805484908110611fe457611fe461293a565b60009182526020909120600890910201600781015490915060ff1661200d576000915050610ead565b61201784826120dc565b949350505050565b61202761254b565b60026000805160206129cd83398151915255565b6001600160a01b0382166000908152600a6020526040812054821061207357604051635972996f60e11b815260040160405180910390fd5b6001600160a01b0383166000908152600a6020526040812080548490811061209d5761209d61293a565b60009182526020909120600890910201600781015490915060ff166120d5576040516305a2e88560e21b815260040160405180910390fd5b9392505050565b600781015460009060ff166120f357506000610ead565b600082600401544261210591906128fb565b905080600003612119576000915050610ead565b600061212884600001546122f5565b90506276a7006121587f0000000000000000000000000000000000000000000000000000000000000000426128fb565b106121615750602d5b612170612710620151806128e4565b8454839061217f9084906128e4565b61218991906128e4565b6121939190612969565b9250600084600501548560060154116121ad5760006121c1565b846005015485600601546121c191906128fb565b9050808411156121cf578093505b50505092915050565b6121e5838383600161257d565b61109a57604051635274afe760e01b81526001600160a01b03841660048201526024015b60405180910390fd5b6122208484848460016125e3565b61224857604051635274afe760e01b81526001600160a01b0385166004820152602401612209565b50505050565b61225b8383836000612655565b61109a5761226d838360006001612655565b61229557604051635274afe760e01b81526001600160a01b0384166004820152602401612209565b6121e58383836001612655565b600069010f0cf064dd5920000082106122bd57506004919050565b68878678326eac90000082106122d557506003919050565b681b1ae4d6e2ef50000082106122ed57506002919050565b506001919050565b6000806123227f0000000000000000000000000000000000000000000000000000000000000000426128fb565b90506276a70081106123375750602d92915050565b6000612342846122a2565b90508060010361236c5761201784678ac7230489e80000681b0d04202f47ec0000603260646126a2565b806002036123955761201784681b1ae4d6e2ef500000688778977bbb052c0000604b60736126a2565b806003036123bf576120178468878678326eac90000069010eff0fae29b1bc0000606460966126a2565b6000690a968163f0a57b40000085116123d857846123e4565b690a968163f0a57b4000005b90506124098169010f0cf064dd59200000690a968163f0a57b400000606460af6126a2565b95945050505050565b6002546001600160a01b0316158061243357506003546001600160a01b0316155b1561243c575050565b8160005b601481101561224857600254604051634a9fefc760e01b81526001600160a01b0384811660048301526000921690634a9fefc790602401602060405180830381865afa158015612494573d6000803e3d6000fd5b505050506040513d601f19601f820116820180604052508101906124b891906129af565b90506001600160a01b0381166124ce5750612248565b60035460405163d9bd5f2d60e01b81526001600160a01b0383811660048301528581166024830152604482018790529091169063d9bd5f2d90606401600060405180830381600087803b15801561252457600080fd5b505af1158015612538573d6000803e3d6000fd5b5092945050600190920191506124409050565b6000805160206129cd8339815191525460020361257b57604051633ee5aeb560e01b815260040160405180910390fd5b565b60405163a9059cbb60e01b60008181526001600160a01b038616600452602485905291602083604481808b5af1925060016000511483166125d75783831516156125ca573d6000823e3d81fd5b6000873b113d1516831692505b60405250949350505050565b6040516323b872dd60e01b60008181526001600160a01b038781166004528616602452604485905291602083606481808c5af192506001600051148316612643578383151615612636573d6000823e3d81fd5b6000883b113d1516831692505b60405250600060605295945050505050565b60405163095ea7b360e01b60008181526001600160a01b038616600452602485905291602083604481808b5af1925060016000511483166125d75783831516156125ca573d6000823e3d81fd5b60008484116126b2575081612409565b60006126be84846128fb565b905060006126cc87876128fb565b905080826126da898b6128fb565b6126e491906128e4565b6126ee9190612969565b6126f89086612927565b98975050505050505050565b6001600160a01b0381168114610adf57600080fd5b6000806040838503121561272c57600080fd5b823561273781612704565b946020939093013593505050565b60006020828403121561275757600080fd5b5035919050565b60006020828403121561277057600080fd5b81356120d581612704565b60006020828403121561278d57600080fd5b813580151581146120d557600080fd5b6000806000606084860312156127b257600080fd5b83356127bd81612704565b925060208401356127cd81612704565b915060408401356127dd81612704565b809150509250925092565b600080600080600060a0868803121561280057600080fd5b853561280b81612704565b9450602086013561281b81612704565b9350604086013561282b81612704565b9250606086013561283b81612704565b9150608086013561284b81612704565b809150509295509295909350565b6000806020838503121561286c57600080fd5b823567ffffffffffffffff8082111561288457600080fd5b818501915085601f83011261289857600080fd5b8135818111156128a757600080fd5b8660208260081b85010111156128bc57600080fd5b60209290920196919550909350505050565b634e487b7160e01b600052601160045260246000fd5b8082028115828204841417610ead57610ead6128ce565b81810381811115610ead57610ead6128ce565b60006020828403121561292057600080fd5b5051919050565b80820180821115610ead57610ead6128ce565b634e487b7160e01b600052603260045260246000fd5b600060018201612962576129626128ce565b5060010190565b60008261298657634e487b7160e01b600052601260045260246000fd5b500490565b6000806040838503121561299e57600080fd5b505080516020909101519092909150565b6000602082840312156129c157600080fd5b81516120d58161270456fe9b779b17422d0df92223018b32b4d1fa46e071723d6817e2486d003becc55f00a264697066735822122062666099fcf6da0ca9d502e406d94295c64ff519dfc46fafb10788c30fd06cf164736f6c63430008180033",
  "linkReferences": {},
  "deployedLinkReferences": {}
}