{
  "_format": "hh-sol-artifact-1",
  "contractName": "OSLOInvestmentEngine",
  "sourceName": "contracts/OSLOInvestmentEngine.sol",
  "abi": [
    {
      "inputs": [
        {
          "internalType": "address",
          "name": "_usdt",
          "type": "address"
        },
        {
          "internalType": "address",
          "name": "_osloToken",
          "type": "address"
        },
        {
          "internalType": "uint256",
          "name": "_launchTimestamp",
          "type": "uint256"
        }
      ],
      "stateMutability": "nonpayable",
      "type": "constructor"
    },
    {
      "inputs": [],
      "name": "BelowWithdrawalThreshold",
      "type": "error"
    },
    {
      "inputs": [],
      "name": "DEXNotPriced",
      "type": "error"
    },
    {
      "inputs": [],
      "name": "DepositCapped",
      "type": "error"
    },
    {
      "inputs": [],
      "name": "DepositTooHigh",
      "type": "error"
    },
    {
      "inputs": [],
      "name": "DepositTooLow",
      "type": "error"
    },
    {
      "inputs": [],
      "name": "DepositsPausedError",
      "type": "error"
    },
    {
      "inputs": [],
      "name": "InsufficientOsloReserve",
      "type": "error"
    },
    {
      "inputs": [],
      "name": "InsufficientUSDTReserve",
      "type": "error"
    },
    {
      "inputs": [],
      "name": "InvalidDeposit",
      "type": "error"
    },
    {
      "inputs": [],
      "name": "InvalidExitPercentage",
      "type": "error"
    },
    {
      "inputs": [],
      "name": "NotConfigured",
      "type": "error"
    },
    {
      "inputs": [],
      "name": "NotInEarlyExitPeriod",
      "type": "error"
    },
    {
      "inputs": [],
      "name": "NothingToClaim",
      "type": "error"
    },
    {
      "inputs": [],
      "name": "OnlyAdmin",
      "type": "error"
    },
    {
      "inputs": [],
      "name": "OnlyRankSystem",
      "type": "error"
    },
    {
      "inputs": [],
      "name": "OnlyReferral",
      "type": "error"
    },
    {
      "inputs": [],
      "name": "OnlyTimelock",
      "type": "error"
    },
    {
      "inputs": [],
      "name": "ReentrancyGuardReentrantCall",
      "type": "error"
    },
    {
      "inputs": [
        {
          "internalType": "address",
          "name": "token",
          "type": "address"
        }
      ],
      "name": "SafeERC20FailedOperation",
      "type": "error"
    },
    {
      "inputs": [],
      "name": "SetupAlreadyComplete",
      "type": "error"
    },
    {
      "inputs": [],
      "name": "ZeroAddress",
      "type": "error"
    },
    {
      "anonymous": false,
      "inputs": [
        {
          "indexed": true,
          "internalType": "address",
          "name": "user",
          "type": "address"
        }
      ],
      "name": "CombinedCapReached",
      "type": "event"
    },
    {
      "anonymous": false,
      "inputs": [
        {
          "indexed": true,
          "internalType": "address",
          "name": "user",
          "type": "address"
        },
        {
          "indexed": false,
          "internalType": "uint256",
          "name": "totalCombined",
          "type": "uint256"
        }
      ],
      "name": "CombinedEarningsUpdated",
      "type": "event"
    },
    {
      "anonymous": false,
      "inputs": [
        {
          "indexed": true,
          "internalType": "address",
          "name": "user",
          "type": "address"
        },
        {
          "indexed": false,
          "internalType": "uint256",
          "name": "amount",
          "type": "uint256"
        },
        {
          "indexed": false,
          "internalType": "uint256",
          "name": "tier",
          "type": "uint256"
        },
        {
          "indexed": false,
          "internalType": "uint256",
          "name": "dailyRate",
          "type": "uint256"
        },
        {
          "indexed": false,
          "internalType": "uint256",
          "name": "depositIndex",
          "type": "uint256"
        }
      ],
      "name": "Deposited",
      "type": "event"
    },
    {
      "anonymous": false,
      "inputs": [
        {
          "indexed": false,
          "internalType": "bool",
          "name": "paused",
          "type": "bool"
        }
      ],
      "name": "DepositsPaused",
      "type": "event"
    },
    {
      "anonymous": false,
      "inputs": [
        {
          "indexed": true,
          "internalType": "address",
          "name": "user",
          "type": "address"
        },
        {
          "indexed": false,
          "internalType": "uint256",
          "name": "amountReturned",
          "type": "uint256"
        },
        {
          "indexed": false,
          "internalType": "uint256",
          "name": "feeDeducted",
          "type": "uint256"
        },
        {
          "indexed": false,
          "internalType": "uint256",
          "name": "yieldDeducted",
          "type": "uint256"
        },
        {
          "indexed": false,
          "internalType": "uint256",
          "name": "depositIndex",
          "type": "uint256"
        }
      ],
      "name": "EarlyExited",
      "type": "event"
    },
    {
      "anonymous": false,
      "inputs": [
        {
          "indexed": true,
          "internalType": "address",
          "name": "user",
          "type": "address"
        },
        {
          "indexed": false,
          "internalType": "uint256",
          "name": "netPrincipal",
          "type": "uint256"
        },
        {
          "indexed": false,
          "internalType": "uint256",
          "name": "depositIndex",
          "type": "uint256"
        }
      ],
      "name": "PrincipalWithdrawn",
      "type": "event"
    },
    {
      "anonymous": false,
      "inputs": [
        {
          "indexed": true,
          "internalType": "address",
          "name": "oldReferral",
          "type": "address"
        },
        {
          "indexed": true,
          "internalType": "address",
          "name": "newReferral",
          "type": "address"
        }
      ],
      "name": "ReferralUpdated",
      "type": "event"
    },
    {
      "anonymous": false,
      "inputs": [
        {
          "indexed": true,
          "internalType": "address",
          "name": "user",
          "type": "address"
        },
        {
          "indexed": false,
          "internalType": "uint256",
          "name": "usdtReward",
          "type": "uint256"
        },
        {
          "indexed": false,
          "internalType": "uint256",
          "name": "osloAmount",
          "type": "uint256"
        },
        {
          "indexed": false,
          "internalType": "uint256",
          "name": "depositIndex",
          "type": "uint256"
        }
      ],
      "name": "RewardsClaimed",
      "type": "event"
    },
    {
      "inputs": [],
      "name": "admin",
      "outputs": [
        {
          "internalType": "address",
          "name": "",
          "type": "address"
        }
      ],
      "stateMutability": "view",
      "type": "function"
    },
    {
      "inputs": [
        {
          "internalType": "uint256",
          "name": "depositIndex",
          "type": "uint256"
        }
      ],
      "name": "claimRewards",
      "outputs": [],
      "stateMutability": "nonpayable",
      "type": "function"
    },
    {
      "inputs": [],
      "name": "companyWallet",
      "outputs": [
        {
          "internalType": "address",
          "name": "",
          "type": "address"
        }
      ],
      "stateMutability": "view",
      "type": "function"
    },
    {
      "inputs": [],
      "name": "completeSetup",
      "outputs": [],
      "stateMutability": "nonpayable",
      "type": "function"
    },
    {
      "inputs": [
        {
          "internalType": "address",
          "name": "_treasury",
          "type": "address"
        },
        {
          "internalType": "address",
          "name": "_referral",
          "type": "address"
        },
        {
          "internalType": "address",
          "name": "_rankSystem",
          "type": "address"
        },
        {
          "internalType": "address",
          "name": "_osloDex",
          "type": "address"
        },
        {
          "internalType": "address",
          "name": "_timelock",
          "type": "address"
        }
      ],
      "name": "configure",
      "outputs": [],
      "stateMutability": "nonpayable",
      "type": "function"
    },
    {
      "inputs": [
        {
          "internalType": "uint256",
          "name": "amount",
          "type": "uint256"
        }
      ],
      "name": "deposit",
      "outputs": [],
      "stateMutability": "nonpayable",
      "type": "function"
    },
    {
      "inputs": [],
      "name": "depositsPaused",
      "outputs": [
        {
          "internalType": "bool",
          "name": "",
          "type": "bool"
        }
      ],
      "stateMutability": "view",
      "type": "function"
    },
    {
      "inputs": [
        {
          "internalType": "uint256",
          "name": "depositIndex",
          "type": "uint256"
        }
      ],
      "name": "earlyExit",
      "outputs": [],
      "stateMutability": "nonpayable",
      "type": "function"
    },
    {
      "inputs": [
        {
          "internalType": "address",
          "name": "user",
          "type": "address"
        }
      ],
      "name": "getActiveDeposit",
      "outputs": [
        {
          "internalType": "uint256",
          "name": "",
          "type": "uint256"
        }
      ],
      "stateMutability": "view",
      "type": "function"
    },
    {
      "inputs": [
        {
          "internalType": "address",
          "name": "user",
          "type": "address"
        }
      ],
      "name": "getCombinedEarnings",
      "outputs": [
        {
          "internalType": "uint256",
          "name": "",
          "type": "uint256"
        }
      ],
      "stateMutability": "view",
      "type": "function"
    },
    {
      "inputs": [
        {
          "internalType": "address",
          "name": "user",
          "type": "address"
        }
      ],
      "name": "getDepositCount",
      "outputs": [
        {
          "internalType": "uint256",
          "name": "",
          "type": "uint256"
        }
      ],
      "stateMutability": "view",
      "type": "function"
    },
    {
      "inputs": [
        {
          "internalType": "address",
          "name": "user",
          "type": "address"
        },
        {
          "internalType": "uint256",
          "name": "depositIndex",
          "type": "uint256"
        }
      ],
      "name": "getEarlyExitAmount",
      "outputs": [
        {
          "internalType": "uint256",
          "name": "principal",
          "type": "uint256"
        },
        {
          "internalType": "uint256",
          "name": "accruedYield",
          "type": "uint256"
        },
        {
          "internalType": "uint256",
          "name": "exitFee",
          "type": "uint256"
        },
        {
          "internalType": "uint256",
          "name": "netReturn",
          "type": "uint256"
        }
      ],
      "stateMutability": "view",
      "type": "function"
    },
    {
      "inputs": [
        {
          "internalType": "address",
          "name": "user",
          "type": "address"
        },
        {
          "internalType": "uint256",
          "name": "depositIndex",
          "type": "uint256"
        },
        {
          "internalType": "uint256",
          "name": "percentageBp",
          "type": "uint256"
        }
      ],
      "name": "getPartialEarlyExitAmount",
      "outputs": [
        {
          "internalType": "uint256",
          "name": "exitAmount",
          "type": "uint256"
        },
        {
          "internalType": "uint256",
          "name": "exitFee",
          "type": "uint256"
        },
        {
          "internalType": "uint256",
          "name": "netReturn",
          "type": "uint256"
        },
        {
          "internalType": "uint256",
          "name": "remainingBalance",
          "type": "uint256"
        }
      ],
      "stateMutability": "view",
      "type": "function"
    },
    {
      "inputs": [
        {
          "internalType": "address",
          "name": "user",
          "type": "address"
        },
        {
          "internalType": "uint256",
          "name": "depositIndex",
          "type": "uint256"
        }
      ],
      "name": "getPendingRewards",
      "outputs": [
        {
          "internalType": "uint256",
          "name": "pendingUSDT",
          "type": "uint256"
        }
      ],
      "stateMutability": "view",
      "type": "function"
    },
    {
      "inputs": [
        {
          "internalType": "address",
          "name": "user",
          "type": "address"
        }
      ],
      "name": "getUserTier",
      "outputs": [
        {
          "internalType": "uint256",
          "name": "",
          "type": "uint256"
        }
      ],
      "stateMutability": "view",
      "type": "function"
    },
    {
      "inputs": [
        {
          "internalType": "address",
          "name": "user",
          "type": "address"
        },
        {
          "internalType": "uint256",
          "name": "depositIndex",
          "type": "uint256"
        }
      ],
      "name": "isInEarlyExitPeriod",
      "outputs": [
        {
          "internalType": "bool",
          "name": "",
          "type": "bool"
        }
      ],
      "stateMutability": "view",
      "type": "function"
    },
    {
      "inputs": [],
      "name": "launchTimestamp",
      "outputs": [
        {
          "internalType": "uint256",
          "name": "",
          "type": "uint256"
        }
      ],
      "stateMutability": "view",
      "type": "function"
    },
    {
      "inputs": [
        {
          "components": [
            {
              "internalType": "address",
              "name": "owner",
              "type": "address"
            },
            {
              "internalType": "uint256",
              "name": "amount",
              "type": "uint256"
            },
            {
              "internalType": "uint256",
              "name": "tier",
              "type": "uint256"
            },
            {
              "internalType": "uint256",
              "name": "dailyRate",
              "type": "uint256"
            },
            {
              "internalType": "uint256",
              "name": "depositTime",
              "type": "uint256"
            },
            {
              "internalType": "uint256",
              "name": "lastClaimTime",
              "type": "uint256"
            },
            {
              "internalType": "uint256",
              "name": "totalClaimed",
              "type": "uint256"
            },
            {
              "internalType": "uint256",
              "name": "maxReturn",
              "type": "uint256"
            }
          ],
          "internalType": "struct OSLOInvestmentEngine.DepositMigration[]",
          "name": "entries",
          "type": "tuple[]"
        }
      ],
      "name": "migrateDeposits",
      "outputs": [],
      "stateMutability": "nonpayable",
      "type": "function"
    },
    {
      "inputs": [],
      "name": "minClaimThreshold",
      "outputs": [
        {
          "internalType": "uint256",
          "name": "",
          "type": "uint256"
        }
      ],
      "stateMutability": "view",
      "type": "function"
    },
    {
      "inputs": [
        {
          "internalType": "address",
          "name": "user",
          "type": "address"
        },
        {
          "internalType": "uint256",
          "name": "amount",
          "type": "uint256"
        }
      ],
      "name": "notifyLevelIncome",
      "outputs": [],
      "stateMutability": "nonpayable",
      "type": "function"
    },
    {
      "inputs": [
        {
          "internalType": "address",
          "name": "user",
          "type": "address"
        },
        {
          "internalType": "uint256",
          "name": "amount",
          "type": "uint256"
        }
      ],
      "name": "notifyRankBonus",
      "outputs": [],
      "stateMutability": "nonpayable",
      "type": "function"
    },
    {
      "inputs": [],
      "name": "osloDex",
      "outputs": [
        {
          "internalType": "address",
          "name": "",
          "type": "address"
        }
      ],
      "stateMutability": "view",
      "type": "function"
    },
    {
      "inputs": [],
      "name": "osloToken",
      "outputs": [
        {
          "internalType": "contract IERC20",
          "name": "",
          "type": "address"
        }
      ],
      "stateMutability": "view",
      "type": "function"
    },
    {
      "inputs": [
        {
          "internalType": "uint256",
          "name": "depositIndex",
          "type": "uint256"
        },
        {
          "internalType": "uint256",
          "name": "percentageBp",
          "type": "uint256"
        }
      ],
      "name": "partialEarlyExit",
      "outputs": [],
      "stateMutability": "nonpayable",
      "type": "function"
    },
    {
      "inputs": [],
      "name": "performanceWallet",
      "outputs": [
        {
          "internalType": "address",
          "name": "",
          "type": "address"
        }
      ],
      "stateMutability": "view",
      "type": "function"
    },
    {
      "inputs": [],
      "name": "rankSystem",
      "outputs": [
        {
          "internalType": "address",
          "name": "",
          "type": "address"
        }
      ],
      "stateMutability": "view",
      "type": "function"
    },
    {
      "inputs": [],
      "name": "referral",
      "outputs": [
        {
          "internalType": "address",
          "name": "",
          "type": "address"
        }
      ],
      "stateMutability": "view",
      "type": "function"
    },
    {
      "inputs": [],
      "name": "rewardWallet",
      "outputs": [
        {
          "internalType": "address",
          "name": "",
          "type": "address"
        }
      ],
      "stateMutability": "view",
      "type": "function"
    },
    {
      "inputs": [
        {
          "internalType": "bool",
          "name": "_paused",
          "type": "bool"
        }
      ],
      "name": "setDepositsPaused",
      "outputs": [],
      "stateMutability": "nonpayable",
      "type": "function"
    },
    {
      "inputs": [
        {
          "internalType": "uint256",
          "name": "_threshold",
          "type": "uint256"
        }
      ],
      "name": "setMinClaimThreshold",
      "outputs": [],
      "stateMutability": "nonpayable",
      "type": "function"
    },
    {
      "inputs": [
        {
          "internalType": "address",
          "name": "_referral",
          "type": "address"
        }
      ],
      "name": "setReferral",
      "outputs": [],
      "stateMutability": "nonpayable",
      "type": "function"
    },
    {
      "inputs": [
        {
          "internalType": "address",
          "name": "_rewardWallet",
          "type": "address"
        },
        {
          "internalType": "address",
          "name": "_companyWallet",
          "type": "address"
        },
        {
          "internalType": "address",
          "name": "_performanceWallet",
          "type": "address"
        }
      ],
      "name": "setRewardWallets",
      "outputs": [],
      "stateMutability": "nonpayable",
      "type": "function"
    },
    {
      "inputs": [],
      "name": "setupComplete",
      "outputs": [
        {
          "internalType": "bool",
          "name": "",
          "type": "bool"
        }
      ],
      "stateMutability": "view",
      "type": "function"
    },
    {
      "inputs": [],
      "name": "timelock",
      "outputs": [
        {
          "internalType": "address",
          "name": "",
          "type": "address"
        }
      ],
      "stateMutability": "view",
      "type": "function"
    },
    {
      "inputs": [],
      "name": "totalDeposited",
      "outputs": [
        {
          "internalType": "uint256",
          "name": "",
          "type": "uint256"
        }
      ],
      "stateMutability": "view",
      "type": "function"
    },
    {
      "inputs": [],
      "name": "totalRewardsPaid",
      "outputs": [
        {
          "internalType": "uint256",
          "name": "",
          "type": "uint256"
        }
      ],
      "stateMutability": "view",
      "type": "function"
    },
    {
      "inputs": [],
      "name": "totalWithdrawn",
      "outputs": [
        {
          "internalType": "uint256",
          "name": "",
          "type": "uint256"
        }
      ],
      "stateMutability": "view",
      "type": "function"
    },
    {
      "inputs": [],
      "name": "treasury",
      "outputs": [
        {
          "internalType": "address",
          "name": "",
          "type": "address"
        }
      ],
      "stateMutability": "view",
      "type": "function"
    },
    {
      "inputs": [],
      "name": "usdt",
      "outputs": [
        {
          "internalType": "contract IERC20",
          "name": "",
          "type": "address"
        }
      ],
      "stateMutability": "view",
      "type": "function"
    },
    {
      "inputs": [
        {
          "internalType": "address",
          "name": "",
          "type": "address"
        },
        {
          "internalType": "uint256",
          "name": "",
          "type": "uint256"
        }
      ],
      "name": "userDeposits",
      "outputs": [
        {
          "internalType": "uint256",
          "name": "amount",
          "type": "uint256"
        },
        {
          "internalType": "uint256",
          "name": "tier",
          "type": "uint256"
        },
        {
          "internalType": "uint256",
          "name": "dailyRate",
          "type": "uint256"
        },
        {
          "internalType": "uint256",
          "name": "depositTime",
          "type": "uint256"
        },
        {
          "internalType": "uint256",
          "name": "lastClaimTime",
          "type": "uint256"
        },
        {
          "internalType": "uint256",
          "name": "totalClaimed",
          "type": "uint256"
        },
        {
          "internalType": "uint256",
          "name": "maxReturn",
          "type": "uint256"
        },
        {
          "internalType": "bool",
          "name": "active",
          "type": "bool"
        }
      ],
      "stateMutability": "view",
      "type": "function"
    },
    {
      "inputs": [
        {
          "internalType": "address",
          "name": "",
          "type": "address"
        }
      ],
      "name": "users",
      "outputs": [
        {
          "internalType": "uint256",
          "name": "totalActiveDeposit",
          "type": "uint256"
        },
        {
          "internalType": "uint256",
          "name": "depositCount",
          "type": "uint256"
        },
        {
          "internalType": "uint256",
          "name": "totalCombinedEarnings",
          "type": "uint256"
        }
      ],
      "stateMutability": "view",
      "type": "function"
    }
  ],
  "bytecode": "0x60e0604052670de0b6b3a76400006006553480156200001d57600080fd5b506040516200310c3803806200310c8339810160408190526200004091620000ec565b60017f9b779b17422d0df92223018b32b4d1fa46e071723d6817e2486d003becc55f00556001600160a01b03831615806200008257506001600160a01b038216155b15620000a15760405163d92e233d60e01b815260040160405180910390fd5b6001600160a01b03928316608052911660a05260c052600480546001600160a01b031916331790556200012d565b80516001600160a01b0381168114620000e757600080fd5b919050565b6000806000606084860312156200010257600080fd5b6200010d84620000cf565b92506200011d60208501620000cf565b9150604084015190509250925092565b60805160a05160c051612f2a620001e260003960008181610461015281816120e201526127ae01526000818161038b015281816108a4015281816109de01528181610b2c01528181610bb80152818161177a015281816118ee015281816119730152818161253401526125c00152600081816103b2015281816115c501528181611694015281816116ce0152818161170801528181611a12015281816123a60152818161242f015261246e0152612f2a6000f3fe608060405234801561001057600080fd5b50600436106102535760003560e01c8063786685e011610146578063b6635be6116100c3578063e4d2620e11610087578063e4d2620e1461061c578063e4e7c6b41461062f578063e9a16bd514610642578063f851a44014610655578063fb75b2c714610668578063ff50abdc1461067b57600080fd5b8063b6635be6146105bc578063b6b55f25146105d0578063b8af3d3e146105e3578063ceace7dd146105f6578063d33219b41461060957600080fd5b80639e5914da1161010a5780639e5914da14610506578063a87430ba14610519578063aa9cc81814610563578063ac948e8314610596578063b12cd625146105a957600080fd5b8063786685e0146104b257806384b273f6146104c55780638565c2bf146104d85780638aea8f71146104eb5780638fb1bb50146104f357600080fd5b80633695dad1116101d457806361d027b31161019857806361d027b31461044957806365cf7c9b1461045c5780636b9f7ab61461048357806374958e3514610496578063760fcb3e1461049f57600080fd5b80633695dad1146103d45780633a6f2dcd146103dd5780634b3197131461040957806351637ba91461041257806360da3e831461042557600080fd5b80631c481e2d1161021b5780631c481e2d1461034d5780631d687f0c146103605780631ec32d15146103735780632acfbca3146103865780632f48ab7d146103ad57600080fd5b806308f43333146102585780630962ef79146102ad57806313fcaf54146102c2578063142a3da3146102f95780631441a5a914610322575b600080fd5b61026b610266366004612bca565b610684565b604080519889526020890197909752958701949094526060860192909252608085015260a084015260c0830152151560e0820152610100015b60405180910390f35b6102c06102bb366004612bf6565b6106e9565b005b6102eb6102d0366004612c0f565b6001600160a01b03166000908152600a602052604090205490565b6040519081526020016102a4565b6102eb610307366004612c0f565b6001600160a01b03166000908152600b602052604090205490565b600254610335906001600160a01b031681565b6040516001600160a01b0390911681526020016102a4565b6102c061035b366004612c2c565b610c82565b6102c061036e366004612c4e565b610d05565b600854610335906001600160a01b031681565b6103357f000000000000000000000000000000000000000000000000000000000000000081565b6103357f000000000000000000000000000000000000000000000000000000000000000081565b6102eb60065481565b6102eb6103eb366004612c0f565b6001600160a01b03166000908152600b602052604090206002015490565b6102eb600d5481565b6102c0610420366004612bf6565b610dfe565b60055461043990600160a81b900460ff1681565b60405190151581526020016102a4565b600154610335906001600160a01b031681565b6102eb7f000000000000000000000000000000000000000000000000000000000000000081565b6102c0610491366004612bca565b610e2e565b6102eb600e5481565b6102c06104ad366004612c99565b610edd565b6104396104c0366004612bca565b610fb9565b6102c06104d3366004612d0a565b611053565b600054610335906001600160a01b031681565b6102c061123f565b6102c0610501366004612d7f565b6112e3565b6102c0610514366004612c0f565b611311565b610548610527366004612c0f565b600b6020526000908152604090208054600182015460029092015490919083565b604080519384526020840192909252908201526060016102a4565b610576610571366004612da1565b611398565b6040805194855260208501939093529183015260608201526080016102a4565b6102c06105a4366004612bca565b6114de565b600954610335906001600160a01b031681565b60055461043990600160a01b900460ff1681565b6102c06105de366004612bf6565b611509565b6102c06105f1366004612bf6565b611de2565b610576610604366004612bca565b611e0e565b600554610335906001600160a01b031681565b6102eb61062a366004612c0f565b611ef9565b6102eb61063d366004612bca565b611f42565b600354610335906001600160a01b031681565b600454610335906001600160a01b031681565b600754610335906001600160a01b031681565b6102eb600c5481565b600a60205281600052604060002081815481106106a057600080fd5b6000918252602090912060089091020180546001820154600283015460038401546004850154600586015460068701546007909701549598509396509194909391929160ff1688565b6106f1611fce565b60006106fd3383611fea565b9050600061070b338361208b565b90508060000361072e576040516312d37ee560e31b815260040160405180910390fd5b60065481101561075157604051637e3f2b7d60e01b815260040160405180910390fd5b815460009061076290600390612dec565b336000908152600b602052604081206002810154929350918311610787576000610796565b60028201546107969084612e03565b9050806000036107f05760078501805460ff1916905560405133907ffa1eb7ba4f65747c7c8882031eb92d63b6fcb684b75052185312fbe1a488d94390600090a26040516305a2e88560e21b815260040160405180910390fd5b808411156107fc578093505b600080546040516311ea9fa960e21b8152600481018790526001600160a01b03909116906347aa7ea490602401602060405180830381865afa158015610846573d6000803e3d6000fd5b505050506040513d601f19601f8201168201806040525081019061086a9190612e16565b90508060000361088d5760405163cc88465760e01b815260040160405180910390fd5b6040516370a0823160e01b815230600482015281907f00000000000000000000000000000000000000000000000000000000000000006001600160a01b0316906370a0823190602401602060405180830381865afa1580156108f3573d6000803e3d6000fd5b505050506040513d601f19601f820116820180604052508101906109179190612e16565b10156109365760405163075e464560e01b815260040160405180910390fd5b8486600501600082825461094a9190612e2f565b909155505042600487015560028301805486919060009061096c908490612e2f565b9250508190555084600e60008282546109859190612e2f565b909155505060068601546005870154106109d15760078601805460ff1916905560405133907ffa1eb7ba4f65747c7c8882031eb92d63b6fcb684b75052185312fbe1a488d94390600090a25b610a056001600160a01b037f0000000000000000000000000000000000000000000000000000000000000000163383612187565b6002546001600160a01b031615610be5578415610be557600254604051638000d99160e01b8152336004820152602481018790526000916001600160a01b031690638000d991906044016020604051808303816000875af1158015610a6e573d6000803e3d6000fd5b505050506040513d601f19601f82011682018060405250810190610a929190612e16565b90508015610be357600080546040516311ea9fa960e21b8152600481018490526001600160a01b03909116906347aa7ea490602401602060405180830381865afa158015610ae4573d6000803e3d6000fd5b505050506040513d601f19601f82011682018060405250810190610b089190612e16565b9050600081118015610ba257506040516370a0823160e01b815230600482015281907f00000000000000000000000000000000000000000000000000000000000000006001600160a01b0316906370a0823190602401602060405180830381865afa158015610b7b573d6000803e3d6000fd5b505050506040513d601f19601f82011682018060405250810190610b9f9190612e16565b10155b15610be157600254610be1906001600160a01b037f00000000000000000000000000000000000000000000000000000000000000008116911683612187565b505b505b604080518681526020810183905290810188905233907f56253d287efacdb2c4cd76dd03624a4821c1ce721d1152e8f5f5718f6087c9bf9060600160405180910390a2600283015460405190815233907fdad0e43afdd45daca2566e861ff76f0250960d86947518722c83b1e03f45edd59060200160405180910390a2505050505050610c7f6001600080516020612ed583398151915255565b50565b6005546001600160a01b03163314610cad57604051630e05f48560e11b815260040160405180910390fd5b60058054821515600160a81b0260ff60a81b199091161790556040517f5ef34f53269a04b5b817e5be24a51ba6b477118b399ec9dd5b2baf5b299563dc90610cfa90831515815260200190565b60405180910390a150565b600554600160a01b900460ff1615610d47576005546001600160a01b03163314610d4257604051630e05f48560e11b815260040160405180910390fd5b610d72565b6004546001600160a01b03163314610d7257604051634755657960e01b815260040160405180910390fd5b6001600160a01b0383161580610d8f57506001600160a01b038216155b80610da157506001600160a01b038116155b15610dbf5760405163d92e233d60e01b815260040160405180910390fd5b600780546001600160a01b039485166001600160a01b031991821617909155600880549385169382169390931790925560098054919093169116179055565b6005546001600160a01b03163314610e2957604051630e05f48560e11b815260040160405180910390fd5b600655565b6002546001600160a01b03163314610e5957604051633864b1e560e21b815260040160405180910390fd5b6001600160a01b0382166000908152600b602052604081206002018054839290610e84908490612e2f565b90915550506001600160a01b0382166000818152600b60209081526040918290206002015491519182527fdad0e43afdd45daca2566e861ff76f0250960d86947518722c83b1e03f45edd5910160405180910390a25050565b6004546001600160a01b03163314610f0857604051634755657960e01b815260040160405180910390fd5b600554600160a01b900460ff1615610f335760405163238f75d360e01b815260040160405180910390fd5b6001600160a01b038216610f5a5760405163d92e233d60e01b815260040160405180910390fd5b600180546001600160a01b03199081166001600160a01b03978816179091556002805482169587169590951790945560038054851693861693909317909255600080548416918516919091179055600580549092169216919091179055565b6001600160a01b0382166000908152600a60205260408120548210610fe05750600061104d565b6001600160a01b0383166000908152600a6020526040812080548490811061100a5761100a612e42565b60009182526020909120600890910201600781015490915060ff1661103357600091505061104d565b620d2f0081600301546110469190612e2f565b4211159150505b92915050565b6004546001600160a01b0316331461107e57604051634755657960e01b815260040160405180910390fd5b60005b8181101561123a573683838381811061109c5761109c612e42565b61010002919091019150600a905060006110b96020840184612c0f565b6001600160a01b03168152602080820192909252604090810160009081208251610100810184528585018035808352878601358388019081526060808a01359785019788526080808b013591860191825260a0808c013591870191825260c0808d013591880191825260e0808e013591890191825260019089018181528a548083018c559a8c529c8b2098516008909a029098019889559351968801969096559751600287015551600386015595516004850155915160058401559351600683015593516007909101805460ff1916911515919091179055600b9161119e9085612c0f565b6001600160a01b03166001600160a01b0316815260200190815260200160002060000160008282546111d09190612e2f565b90915550600b905060006111e76020840184612c0f565b6001600160a01b031681526020810191909152604001600090812060010180549161121183612e58565b91905055508060200135600c600082825461122c9190612e2f565b909155505050600101611081565b505050565b6004546001600160a01b0316331461126a57604051634755657960e01b815260040160405180910390fd5b600554600160a01b900460ff16156112955760405163238f75d360e01b815260040160405180910390fd5b6001546001600160a01b03166112be5760405163d311bc3960e01b815260040160405180910390fd5b6005805460ff60a01b1916600160a01b179055600480546001600160a01b0319169055565b6112eb611fce565b6112f63383836121c1565b61130d6001600080516020612ed583398151915255565b5050565b6005546001600160a01b0316331461133c57604051630e05f48560e11b815260040160405180910390fd5b6002546040516001600160a01b038084169216907feefe1ce2782e4ba3bbccd79617fae74979fa22005f22f7075c0910cd51c8ffd990600090a3600280546001600160a01b0319166001600160a01b0392909216919091179055565b6001600160a01b0383166000908152600a602052604081205481908190819086106113ce575060009250829150819050806114d5565b6001600160a01b0387166000908152600a602052604081208054889081106113f8576113f8612e42565b60009182526020909120600890910201600781015490915060ff1615806114305750620d2f00816003015461142d9190612e2f565b42115b15611449576000806000809450945094509450506114d5565b856127101415801561145d57508561138814155b801561146b5750856109c414155b15611484576000806000809450945094509450506114d5565b80546127106114938883612dec565b61149d9190612e71565b95506127106114ae6103e888612dec565b6114b89190612e71565b94506114c48587612e03565b93506114d08682612e03565b925050505b93509350935093565b6003546001600160a01b03163314610e5957604051633327311360e11b815260040160405180910390fd5b611511611fce565b600554600160a81b900460ff161561153b57604051627cfe7f60e31b815260040160405180910390fd5b678ac7230489e8000081101561156457604051632b7786bd60e21b815260040160405180910390fd5b69010f0cf064dd5920000081111561158f5760405163c066e1e960e01b815260040160405180910390fd5b6000546001600160a01b03166115b85760405163d311bc3960e01b815260040160405180910390fd5b6115ed6001600160a01b037f0000000000000000000000000000000000000000000000000000000000000000163330846126c3565b60075481906001600160a01b03161580159061161357506008546001600160a01b031615155b801561162957506009546001600160a01b031615155b1561175757600061271061163e606485612dec565b6116489190612e71565b9050600061271061165a603286612dec565b6116649190612e71565b90506000612710611676603287612dec565b6116809190612e71565b6007549091506116bd906001600160a01b037f00000000000000000000000000000000000000000000000000000000000000008116911685612187565b6008546116f7906001600160a01b037f00000000000000000000000000000000000000000000000000000000000000008116911684612187565b600954611731906001600160a01b037f00000000000000000000000000000000000000000000000000000000000000008116911683612187565b808261173d8588612e03565b6117479190612e03565b6117519190612e03565b93505050505b600080546040516370a0823160e01b81526001600160a01b0391821660048201527f0000000000000000000000000000000000000000000000000000000000000000909116906370a0823190602401602060405180830381865afa1580156117c3573d6000803e3d6000fd5b505050506040513d601f19601f820116820180604052508101906117e79190612e16565b6000805460408051630240bc6b60e21b815281519495509293849384936001600160a01b031692630902f1ac926004808401938290030181865afa158015611833573d6000803e3d6000fd5b505050506040513d601f19601f820116820180604052508101906118579190612e93565b9150915060008211801561186b5750600081115b156118955761187a8583612e2f565b6118848287612dec565b61188e9190612e71565b9250611899565b8492505b683635c9adc5dea000006118ad8185612e2f565b8510156119fe576000856118c18387612e2f565b6118cb9190612e03565b6040516370a0823160e01b81523060048201529091506000906001600160a01b037f000000000000000000000000000000000000000000000000000000000000000016906370a0823190602401602060405180830381865afa158015611935573d6000803e3d6000fd5b505050506040513d601f19601f820116820180604052508101906119599190612e16565b90508181106119fb5760005461199c906001600160a01b037f000000000000000000000000000000000000000000000000000000000000000081169116846126ff565b60005460405163362ce52b60e01b8152600481018490526001600160a01b039091169063362ce52b90602401600060405180830381600087803b1580156119e257600080fd5b505af11580156119f6573d6000803e3d6000fd5b505050505b50505b5050600054611a3e93506001600160a01b037f000000000000000000000000000000000000000000000000000000000000000081169350169050836126ff565b6000805460405163066102ad60e11b8152600481018490526001600160a01b0390911690630cc2055a906024016020604051808303816000875af1158015611a8a573d6000803e3d6000fd5b505050506040513d601f19601f82011682018060405250810190611aae9190612e16565b90506000611abb84612753565b90506000611ac8856127a6565b90506000611ad7600387612dec565b336000818152600a602090815260408083208151610100810183528c81528084018a81528184018a815242606084018181526080850191825260a0850189815260c086018c8152600160e0880181815289548083018b55998d528b8d2098516008909a0290980198895595519588019590955592516002870155516003860155516004850155516005840155516006830155516007909101805460ff1916911515919091179055928252600b905290812080549293508892909190611b9d908490612e2f565b9091555050336000908152600b60205260408120600101805491611bc083612e58565b919050555085600c6000828254611bd79190612e2f565b90915550506002546001600160a01b031615611d2c5760025460405163095ce44b60e21b81523360048201526001600160a01b0390911690632573912c90602401600060405180830381600087803b158015611c3257600080fd5b505af1158015611c46573d6000803e3d6000fd5b5050600254604051634a9fefc760e01b8152336004820152600093506001600160a01b039091169150634a9fefc790602401602060405180830381865afa158015611c95573d6000803e3d6000fd5b505050506040513d601f19601f82011682018060405250810190611cb99190612eb7565b90506001600160a01b03811615611d2a5760025460405163095ce44b60e21b81526001600160a01b03838116600483015290911690632573912c90602401600060405180830381600087803b158015611d1157600080fd5b505af1158015611d25573d6000803e3d6000fd5b505050505b505b6003546001600160a01b031615801590611d5057506002546001600160a01b031615155b15611d5f57611d5f33876128c3565b336000818152600a60205260409020547fe3b53cd1a44fbf11535e145d80b8ef1ed6d57a73bf5daa7e939b6b01657d654990889086908690611da390600190612e03565b60408051948552602085019390935291830152606082015260800160405180910390a25050505050610c7f6001600080516020612ed583398151915255565b611dea611fce565b611df733826127106121c1565b610c7f6001600080516020612ed583398151915255565b6001600160a01b0382166000908152600a60205260408120548190819081908510611e4457506000925082915081905080611ef0565b6001600160a01b0386166000908152600a60205260408120805487908110611e6e57611e6e612e42565b60009182526020909120600890910201600781015490915060ff161580611ea65750620d2f008160030154611ea39190612e2f565b42115b15611ebf57600080600080945094509450945050611ef0565b8054945060009350612710611ed66103e887612dec565b611ee09190612e71565b9250611eec8386612e03565b9150505b92959194509250565b6001600160a01b0381166000908152600b60205260408120548103611f2057506000919050565b6001600160a01b0382166000908152600b602052604090205461104d90612753565b6001600160a01b0382166000908152600a60205260408120548210611f695750600061104d565b6001600160a01b0383166000908152600a60205260408120805484908110611f9357611f93612e42565b60009182526020909120600890910201600781015490915060ff16611fbc57600091505061104d565b611fc6848261208b565b949350505050565b611fd66129fc565b6002600080516020612ed583398151915255565b6001600160a01b0382166000908152600a6020526040812054821061202257604051635972996f60e11b815260040160405180910390fd5b6001600160a01b0383166000908152600a6020526040812080548490811061204c5761204c612e42565b60009182526020909120600890910201600781015490915060ff16612084576040516305a2e88560e21b815260040160405180910390fd5b9392505050565b600781015460009060ff166120a25750600061104d565b60008260040154426120b49190612e03565b9050806000036120c857600091505061104d565b60006120d784600001546127a6565b90506276a7006121077f000000000000000000000000000000000000000000000000000000000000000042612e03565b106121105750602d5b61211f61271062015180612dec565b8454839061212e908490612dec565b6121389190612dec565b6121429190612e71565b92506000846005015485600601541161215c576000612170565b846005015485600601546121709190612e03565b90508084111561217e578093505b50505092915050565b6121948383836001612a2e565b61123a57604051635274afe760e01b81526001600160a01b03841660048201526024015b60405180910390fd5b80612710141580156121d557508061138814155b80156121e35750806109c414155b1561220157604051635c1d07cb60e01b815260040160405180910390fd5b600061220d8484611fea565b9050620d2f0081600301546122229190612e2f565b4211156122425760405163693ed15b60e11b815260040160405180910390fd5b805460006127106122538584612dec565b61225d9190612e71565b905060006127106122706103e884612dec565b61227a9190612e71565b905060006122888284612e03565b905085612710036122a45760078501805460ff191690556122d1565b828560000160008282546122b89190612e03565b909155505084546122cb90600390612dec565b60068601555b6001600160a01b0388166000908152600b6020526040812080548592906122f9908490612e03565b9250508190555082600d60008282546123129190612e2f565b90915550506002546001600160a01b0316156123885760025460405163095ce44b60e21b81526001600160a01b038a8116600483015290911690632573912c90602401600060405180830381600087803b15801561236f57600080fd5b505af1158015612383573d6000803e3d6000fd5b505050505b8015612666576040516370a0823160e01b81523060048201526000907f00000000000000000000000000000000000000000000000000000000000000006001600160a01b0316906370a0823190602401602060405180830381865afa1580156123f5573d6000803e3d6000fd5b505050506040513d601f19601f820116820180604052508101906124199190612e16565b905081811061245b576124566001600160a01b037f0000000000000000000000000000000000000000000000000000000000000000168a84612187565b612664565b80156124a2576124956001600160a01b037f0000000000000000000000000000000000000000000000000000000000000000168a83612187565b61249f8183612e03565b91505b600080546040516311ea9fa960e21b8152600481018590526001600160a01b03909116906347aa7ea490602401602060405180830381865afa1580156124ec573d6000803e3d6000fd5b505050506040513d601f19601f820116820180604052508101906125109190612e16565b90506000811180156125aa57506040516370a0823160e01b815230600482015281907f00000000000000000000000000000000000000000000000000000000000000006001600160a01b0316906370a0823190602401602060405180830381865afa158015612583573d6000803e3d6000fd5b505050506040513d601f19601f820116820180604052508101906125a79190612e16565b10155b15612662576000546125e9906001600160a01b037f000000000000000000000000000000000000000000000000000000000000000081169116836126ff565b60005460405163f843e64160e01b8152600481018390526001600160a01b038c811660248301529091169063f843e641906044016020604051808303816000875af115801561263c573d6000803e3d6000fd5b505050506040513d601f19601f820116820180604052508101906126609190612e16565b505b505b505b60408051828152602081018490526000818301526060810189905290516001600160a01b038a16917f4ade67ef7e7c5e4d9c50de61a4e8c555be92c9b37e3ca6716eb02a1f0e471da5919081900360800190a25050505050505050565b6126d1848484846001612a94565b6126f957604051635274afe760e01b81526001600160a01b03851660048201526024016121b8565b50505050565b61270c8383836000612b06565b61123a5761271e838360006001612b06565b61274657604051635274afe760e01b81526001600160a01b03841660048201526024016121b8565b6121948383836001612b06565b600069010f0cf064dd59200000821061276e57506004919050565b68878678326eac900000821061278657506003919050565b681b1ae4d6e2ef500000821061279e57506002919050565b506001919050565b6000806127d37f000000000000000000000000000000000000000000000000000000000000000042612e03565b90506276a70081106127e85750602d92915050565b60006127f384612753565b90508060010361281d57611fc684678ac7230489e80000681b0d04202f47ec000060326064612b53565b8060020361284657611fc684681b1ae4d6e2ef500000688778977bbb052c0000604b6073612b53565b8060030361287057611fc68468878678326eac90000069010eff0fae29b1bc000060646096612b53565b6000690a968163f0a57b40000085116128895784612895565b690a968163f0a57b4000005b90506128ba8169010f0cf064dd59200000690a968163f0a57b400000606460af612b53565b95945050505050565b6002546001600160a01b031615806128e457506003546001600160a01b0316155b156128ed575050565b8160005b60148110156126f957600254604051634a9fefc760e01b81526001600160a01b0384811660048301526000921690634a9fefc790602401602060405180830381865afa158015612945573d6000803e3d6000fd5b505050506040513d601f19601f820116820180604052508101906129699190612eb7565b90506001600160a01b03811661297f57506126f9565b60035460405163d9bd5f2d60e01b81526001600160a01b0383811660048301528581166024830152604482018790529091169063d9bd5f2d90606401600060405180830381600087803b1580156129d557600080fd5b505af11580156129e9573d6000803e3d6000fd5b5092945050600190920191506128f19050565b600080516020612ed583398151915254600203612a2c57604051633ee5aeb560e01b815260040160405180910390fd5b565b60405163a9059cbb60e01b60008181526001600160a01b038616600452602485905291602083604481808b5af192506001600051148316612a88578383151615612a7b573d6000823e3d81fd5b6000873b113d1516831692505b60405250949350505050565b6040516323b872dd60e01b60008181526001600160a01b038781166004528616602452604485905291602083606481808c5af192506001600051148316612af4578383151615612ae7573d6000823e3d81fd5b6000883b113d1516831692505b60405250600060605295945050505050565b60405163095ea7b360e01b60008181526001600160a01b038616600452602485905291602083604481808b5af192506001600051148316612a88578383151615612a7b573d6000823e3d81fd5b6000848411612b635750816128ba565b6000612b6f8484612e03565b90506000612b7d8787612e03565b90508082612b8b898b612e03565b612b959190612dec565b612b9f9190612e71565b612ba99086612e2f565b98975050505050505050565b6001600160a01b0381168114610c7f57600080fd5b60008060408385031215612bdd57600080fd5b8235612be881612bb5565b946020939093013593505050565b600060208284031215612c0857600080fd5b5035919050565b600060208284031215612c2157600080fd5b813561208481612bb5565b600060208284031215612c3e57600080fd5b8135801515811461208457600080fd5b600080600060608486031215612c6357600080fd5b8335612c6e81612bb5565b92506020840135612c7e81612bb5565b91506040840135612c8e81612bb5565b809150509250925092565b600080600080600060a08688031215612cb157600080fd5b8535612cbc81612bb5565b94506020860135612ccc81612bb5565b93506040860135612cdc81612bb5565b92506060860135612cec81612bb5565b91506080860135612cfc81612bb5565b809150509295509295909350565b60008060208385031215612d1d57600080fd5b823567ffffffffffffffff80821115612d3557600080fd5b818501915085601f830112612d4957600080fd5b813581811115612d5857600080fd5b8660208260081b8501011115612d6d57600080fd5b60209290920196919550909350505050565b60008060408385031215612d9257600080fd5b50508035926020909101359150565b600080600060608486031215612db657600080fd5b8335612dc181612bb5565b95602085013595506040909401359392505050565b634e487b7160e01b600052601160045260246000fd5b808202811582820484141761104d5761104d612dd6565b8181038181111561104d5761104d612dd6565b600060208284031215612e2857600080fd5b5051919050565b8082018082111561104d5761104d612dd6565b634e487b7160e01b600052603260045260246000fd5b600060018201612e6a57612e6a612dd6565b5060010190565b600082612e8e57634e487b7160e01b600052601260045260246000fd5b500490565b60008060408385031215612ea657600080fd5b505080516020909101519092909150565b600060208284031215612ec957600080fd5b815161208481612bb556fe9b779b17422d0df92223018b32b4d1fa46e071723d6817e2486d003becc55f00a26469706673582212205b677a6970462e2473080260ac08465f7c6a25789137ae4ddaae795ccba8e6ce64736f6c63430008180033",
  "linkReferences": {},
  "deployedLinkReferences": {}
}