{
  "_format": "hh-sol-artifact-1",
  "contractName": "MockPancakeRouter",
  "sourceName": "contracts/mocks/MockPancakeRouter.sol",
  "abi": [
    {
      "inputs": [
        {
          "internalType": "address",
          "name": "token",
          "type": "address"
        }
      ],
      "name": "SafeERC20FailedOperation",
      "type": "error"
    },
    {
      "inputs": [],
      "name": "WETH",
      "outputs": [
        {
          "internalType": "address",
          "name": "",
          "type": "address"
        }
      ],
      "stateMutability": "pure",
      "type": "function"
    },
    {
      "inputs": [
        {
          "internalType": "address",
          "name": "tokenA",
          "type": "address"
        },
        {
          "internalType": "address",
          "name": "tokenB",
          "type": "address"
        },
        {
          "internalType": "uint256",
          "name": "amountADesired",
          "type": "uint256"
        },
        {
          "internalType": "uint256",
          "name": "amountBDesired",
          "type": "uint256"
        },
        {
          "internalType": "uint256",
          "name": "",
          "type": "uint256"
        },
        {
          "internalType": "uint256",
          "name": "",
          "type": "uint256"
        },
        {
          "internalType": "address",
          "name": "to",
          "type": "address"
        },
        {
          "internalType": "uint256",
          "name": "",
          "type": "uint256"
        }
      ],
      "name": "addLiquidity",
      "outputs": [
        {
          "internalType": "uint256",
          "name": "amountA",
          "type": "uint256"
        },
        {
          "internalType": "uint256",
          "name": "amountB",
          "type": "uint256"
        },
        {
          "internalType": "uint256",
          "name": "liquidity",
          "type": "uint256"
        }
      ],
      "stateMutability": "nonpayable",
      "type": "function"
    },
    {
      "inputs": [],
      "name": "factory",
      "outputs": [
        {
          "internalType": "address",
          "name": "",
          "type": "address"
        }
      ],
      "stateMutability": "pure",
      "type": "function"
    },
    {
      "inputs": [
        {
          "internalType": "uint256",
          "name": "amountIn",
          "type": "uint256"
        },
        {
          "internalType": "uint256",
          "name": "",
          "type": "uint256"
        },
        {
          "internalType": "address[]",
          "name": "path",
          "type": "address[]"
        },
        {
          "internalType": "address",
          "name": "to",
          "type": "address"
        },
        {
          "internalType": "uint256",
          "name": "",
          "type": "uint256"
        }
      ],
      "name": "swapExactTokensForTokensSupportingFeeOnTransferTokens",
      "outputs": [],
      "stateMutability": "nonpayable",
      "type": "function"
    }
  ],
  "bytecode": "0x608060405234801561001057600080fd5b50610460806100206000396000f3fe608060405234801561001057600080fd5b506004361061004c5760003560e01c80635c11d79514610051578063ad5c464814610066578063c45a015514610066578063e8e337001461007a575b600080fd5b61006461005f3660046102dc565b6100a8565b005b604051600081526020015b60405180910390f35b61008d61008836600461037e565b61012c565b60408051938452602084019290925290820152606001610071565b6100e7333088878760008181106100c1576100c16103f2565b90506020020160208101906100d69190610408565b6001600160a01b031692919061016d565b6101248287868660018181106100ff576100ff6103f2565b90506020020160208101906101149190610408565b6001600160a01b031691906101ae565b505050505050565b600080806101456001600160a01b038c1633308c61016d565b61015a6001600160a01b038b1633308b61016d565b5096999598508997509495505050505050565b61017b8484848460016101e8565b6101a857604051635274afe760e01b81526001600160a01b03851660048201526024015b60405180910390fd5b50505050565b6101bb838383600161025a565b6101e357604051635274afe760e01b81526001600160a01b038416600482015260240161019f565b505050565b6040516323b872dd60e01b60008181526001600160a01b038781166004528616602452604485905291602083606481808c5af19250600160005114831661024857838315161561023b573d6000823e3d81fd5b6000883b113d1516831692505b60405250600060605295945050505050565b60405163a9059cbb60e01b60008181526001600160a01b038616600452602485905291602083604481808b5af1925060016000511483166102b45783831516156102a7573d6000823e3d81fd5b6000873b113d1516831692505b60405250949350505050565b80356001600160a01b03811681146102d757600080fd5b919050565b60008060008060008060a087890312156102f557600080fd5b8635955060208701359450604087013567ffffffffffffffff8082111561031b57600080fd5b818901915089601f83011261032f57600080fd5b81358181111561033e57600080fd5b8a60208260051b850101111561035357600080fd5b60208301965080955050505061036b606088016102c0565b9150608087013590509295509295509295565b600080600080600080600080610100898b03121561039b57600080fd5b6103a4896102c0565b97506103b260208a016102c0565b965060408901359550606089013594506080890135935060a089013592506103dc60c08a016102c0565b915060e089013590509295985092959890939650565b634e487b7160e01b600052603260045260246000fd5b60006020828403121561041a57600080fd5b610423826102c0565b939250505056fea26469706673582212209ee48f2f643636503847275f482dfd3372e8a07cb9afb0c293ccccf0346f47db64736f6c63430008180033",
  "linkReferences": {},
  "deployedLinkReferences": {}
}