{
  "_format": "hh-sol-artifact-1",
  "contractName": "OSLOVault",
  "sourceName": "contracts/OSLOVault.sol",
  "abi": [
    {
      "inputs": [
        {
          "internalType": "address",
          "name": "_usdt",
          "type": "address"
        },
        {
          "internalType": "address",
          "name": "_osloToken",
          "type": "address"
        },
        {
          "internalType": "uint256",
          "name": "_launchTimestamp",
          "type": "uint256"
        }
      ],
      "stateMutability": "nonpayable",
      "type": "constructor"
    },
    {
      "inputs": [],
      "name": "BelowWithdrawalThreshold",
      "type": "error"
    },
    {
      "inputs": [],
      "name": "DEXNotPriced",
      "type": "error"
    },
    {
      "inputs": [],
      "name": "DepositTooHigh",
      "type": "error"
    },
    {
      "inputs": [],
      "name": "DepositTooLow",
      "type": "error"
    },
    {
      "inputs": [],
      "name": "DepositsPausedError",
      "type": "error"
    },
    {
      "inputs": [],
      "name": "InsufficientOsloReserve",
      "type": "error"
    },
    {
      "inputs": [],
      "name": "NoBalance",
      "type": "error"
    },
    {
      "inputs": [],
      "name": "NotConfigured",
      "type": "error"
    },
    {
      "inputs": [],
      "name": "NothingToClaim",
      "type": "error"
    },
    {
      "inputs": [],
      "name": "OnlyAdmin",
      "type": "error"
    },
    {
      "inputs": [],
      "name": "OnlyRankSystem",
      "type": "error"
    },
    {
      "inputs": [],
      "name": "OnlyReferral",
      "type": "error"
    },
    {
      "inputs": [],
      "name": "OnlyTimelock",
      "type": "error"
    },
    {
      "inputs": [],
      "name": "PoolInactive",
      "type": "error"
    },
    {
      "inputs": [],
      "name": "ReentrancyGuardReentrantCall",
      "type": "error"
    },
    {
      "inputs": [
        {
          "internalType": "address",
          "name": "token",
          "type": "address"
        }
      ],
      "name": "SafeERC20FailedOperation",
      "type": "error"
    },
    {
      "inputs": [],
      "name": "SetupAlreadyComplete",
      "type": "error"
    },
    {
      "inputs": [],
      "name": "ZeroAddress",
      "type": "error"
    },
    {
      "anonymous": false,
      "inputs": [
        {
          "indexed": true,
          "internalType": "address",
          "name": "user",
          "type": "address"
        }
      ],
      "name": "CombinedCapReached",
      "type": "event"
    },
    {
      "anonymous": false,
      "inputs": [
        {
          "indexed": true,
          "internalType": "address",
          "name": "user",
          "type": "address"
        },
        {
          "indexed": false,
          "internalType": "uint256",
          "name": "totalCombined",
          "type": "uint256"
        }
      ],
      "name": "CombinedEarningsUpdated",
      "type": "event"
    },
    {
      "anonymous": false,
      "inputs": [
        {
          "indexed": true,
          "internalType": "address",
          "name": "user",
          "type": "address"
        },
        {
          "indexed": false,
          "internalType": "uint256",
          "name": "amount",
          "type": "uint256"
        },
        {
          "indexed": false,
          "internalType": "uint256",
          "name": "newTotal",
          "type": "uint256"
        },
        {
          "indexed": false,
          "internalType": "uint256",
          "name": "tier",
          "type": "uint256"
        }
      ],
      "name": "Deposited",
      "type": "event"
    },
    {
      "anonymous": false,
      "inputs": [
        {
          "indexed": false,
          "internalType": "bool",
          "name": "paused",
          "type": "bool"
        }
      ],
      "name": "DepositsPaused",
      "type": "event"
    },
    {
      "anonymous": false,
      "inputs": [
        {
          "indexed": true,
          "internalType": "address",
          "name": "user",
          "type": "address"
        },
        {
          "indexed": false,
          "internalType": "uint256",
          "name": "usdtReward",
          "type": "uint256"
        },
        {
          "indexed": false,
          "internalType": "uint256",
          "name": "osloAmount",
          "type": "uint256"
        }
      ],
      "name": "RewardsClaimed",
      "type": "event"
    },
    {
      "inputs": [],
      "name": "admin",
      "outputs": [
        {
          "internalType": "address",
          "name": "",
          "type": "address"
        }
      ],
      "stateMutability": "view",
      "type": "function"
    },
    {
      "inputs": [],
      "name": "claimRewards",
      "outputs": [],
      "stateMutability": "nonpayable",
      "type": "function"
    },
    {
      "inputs": [],
      "name": "companyWallet",
      "outputs": [
        {
          "internalType": "address",
          "name": "",
          "type": "address"
        }
      ],
      "stateMutability": "view",
      "type": "function"
    },
    {
      "inputs": [],
      "name": "completeSetup",
      "outputs": [],
      "stateMutability": "nonpayable",
      "type": "function"
    },
    {
      "inputs": [
        {
          "internalType": "address",
          "name": "_osloDex",
          "type": "address"
        },
        {
          "internalType": "address",
          "name": "_referral",
          "type": "address"
        },
        {
          "internalType": "address",
          "name": "_rankSystem",
          "type": "address"
        },
        {
          "internalType": "address",
          "name": "_timelock",
          "type": "address"
        }
      ],
      "name": "configure",
      "outputs": [],
      "stateMutability": "nonpayable",
      "type": "function"
    },
    {
      "inputs": [
        {
          "internalType": "uint256",
          "name": "amount",
          "type": "uint256"
        }
      ],
      "name": "deposit",
      "outputs": [],
      "stateMutability": "nonpayable",
      "type": "function"
    },
    {
      "inputs": [],
      "name": "depositsPaused",
      "outputs": [
        {
          "internalType": "bool",
          "name": "",
          "type": "bool"
        }
      ],
      "stateMutability": "view",
      "type": "function"
    },
    {
      "inputs": [
        {
          "internalType": "address",
          "name": "user",
          "type": "address"
        }
      ],
      "name": "getActiveDeposit",
      "outputs": [
        {
          "internalType": "uint256",
          "name": "",
          "type": "uint256"
        }
      ],
      "stateMutability": "view",
      "type": "function"
    },
    {
      "inputs": [
        {
          "internalType": "address",
          "name": "user",
          "type": "address"
        }
      ],
      "name": "getCombinedEarnings",
      "outputs": [
        {
          "internalType": "uint256",
          "name": "",
          "type": "uint256"
        }
      ],
      "stateMutability": "view",
      "type": "function"
    },
    {
      "inputs": [
        {
          "internalType": "address",
          "name": "user",
          "type": "address"
        }
      ],
      "name": "getPendingRewards",
      "outputs": [
        {
          "internalType": "uint256",
          "name": "pendingUSDT",
          "type": "uint256"
        }
      ],
      "stateMutability": "view",
      "type": "function"
    },
    {
      "inputs": [
        {
          "internalType": "address",
          "name": "user",
          "type": "address"
        }
      ],
      "name": "getUserPool",
      "outputs": [
        {
          "internalType": "uint256",
          "name": "totalBalance",
          "type": "uint256"
        },
        {
          "internalType": "uint256",
          "name": "lastClaimTime",
          "type": "uint256"
        },
        {
          "internalType": "uint256",
          "name": "accruedRewards",
          "type": "uint256"
        },
        {
          "internalType": "uint256",
          "name": "totalClaimed",
          "type": "uint256"
        },
        {
          "internalType": "uint256",
          "name": "maxReturn",
          "type": "uint256"
        },
        {
          "internalType": "uint256",
          "name": "totalCombinedEarnings",
          "type": "uint256"
        },
        {
          "internalType": "uint256",
          "name": "lastDepositTime",
          "type": "uint256"
        },
        {
          "internalType": "bool",
          "name": "active",
          "type": "bool"
        }
      ],
      "stateMutability": "view",
      "type": "function"
    },
    {
      "inputs": [
        {
          "internalType": "address",
          "name": "user",
          "type": "address"
        }
      ],
      "name": "getUserTier",
      "outputs": [
        {
          "internalType": "uint256",
          "name": "",
          "type": "uint256"
        }
      ],
      "stateMutability": "view",
      "type": "function"
    },
    {
      "inputs": [],
      "name": "launchTimestamp",
      "outputs": [
        {
          "internalType": "uint256",
          "name": "",
          "type": "uint256"
        }
      ],
      "stateMutability": "view",
      "type": "function"
    },
    {
      "inputs": [
        {
          "internalType": "address[]",
          "name": "_users",
          "type": "address[]"
        },
        {
          "internalType": "uint256[]",
          "name": "_amounts",
          "type": "uint256[]"
        }
      ],
      "name": "migrateCombinedEarnings",
      "outputs": [],
      "stateMutability": "nonpayable",
      "type": "function"
    },
    {
      "inputs": [
        {
          "components": [
            {
              "internalType": "address",
              "name": "owner",
              "type": "address"
            },
            {
              "internalType": "uint256",
              "name": "totalBalance",
              "type": "uint256"
            },
            {
              "internalType": "uint256",
              "name": "lastClaimTime",
              "type": "uint256"
            },
            {
              "internalType": "uint256",
              "name": "totalClaimed",
              "type": "uint256"
            },
            {
              "internalType": "uint256",
              "name": "totalCombinedEarnings",
              "type": "uint256"
            },
            {
              "internalType": "uint256",
              "name": "lastDepositTime",
              "type": "uint256"
            }
          ],
          "internalType": "struct OSLOVault.PoolMigration[]",
          "name": "entries",
          "type": "tuple[]"
        }
      ],
      "name": "migrateConsolidated",
      "outputs": [],
      "stateMutability": "nonpayable",
      "type": "function"
    },
    {
      "inputs": [],
      "name": "minClaimThreshold",
      "outputs": [
        {
          "internalType": "uint256",
          "name": "",
          "type": "uint256"
        }
      ],
      "stateMutability": "view",
      "type": "function"
    },
    {
      "inputs": [
        {
          "internalType": "address",
          "name": "user",
          "type": "address"
        },
        {
          "internalType": "uint256",
          "name": "amount",
          "type": "uint256"
        }
      ],
      "name": "notifyLevelIncome",
      "outputs": [],
      "stateMutability": "nonpayable",
      "type": "function"
    },
    {
      "inputs": [
        {
          "internalType": "address",
          "name": "user",
          "type": "address"
        },
        {
          "internalType": "uint256",
          "name": "amount",
          "type": "uint256"
        }
      ],
      "name": "notifyRankBonus",
      "outputs": [],
      "stateMutability": "nonpayable",
      "type": "function"
    },
    {
      "inputs": [],
      "name": "osloDex",
      "outputs": [
        {
          "internalType": "address",
          "name": "",
          "type": "address"
        }
      ],
      "stateMutability": "view",
      "type": "function"
    },
    {
      "inputs": [],
      "name": "osloToken",
      "outputs": [
        {
          "internalType": "contract IERC20",
          "name": "",
          "type": "address"
        }
      ],
      "stateMutability": "view",
      "type": "function"
    },
    {
      "inputs": [],
      "name": "performanceWallet",
      "outputs": [
        {
          "internalType": "address",
          "name": "",
          "type": "address"
        }
      ],
      "stateMutability": "view",
      "type": "function"
    },
    {
      "inputs": [],
      "name": "rankSystem",
      "outputs": [
        {
          "internalType": "address",
          "name": "",
          "type": "address"
        }
      ],
      "stateMutability": "view",
      "type": "function"
    },
    {
      "inputs": [],
      "name": "referral",
      "outputs": [
        {
          "internalType": "address",
          "name": "",
          "type": "address"
        }
      ],
      "stateMutability": "view",
      "type": "function"
    },
    {
      "inputs": [],
      "name": "rewardWallet",
      "outputs": [
        {
          "internalType": "address",
          "name": "",
          "type": "address"
        }
      ],
      "stateMutability": "view",
      "type": "function"
    },
    {
      "inputs": [
        {
          "internalType": "bool",
          "name": "_paused",
          "type": "bool"
        }
      ],
      "name": "setDepositsPaused",
      "outputs": [],
      "stateMutability": "nonpayable",
      "type": "function"
    },
    {
      "inputs": [
        {
          "internalType": "uint256",
          "name": "_threshold",
          "type": "uint256"
        }
      ],
      "name": "setMinClaimThreshold",
      "outputs": [],
      "stateMutability": "nonpayable",
      "type": "function"
    },
    {
      "inputs": [
        {
          "internalType": "address",
          "name": "_referral",
          "type": "address"
        }
      ],
      "name": "setReferral",
      "outputs": [],
      "stateMutability": "nonpayable",
      "type": "function"
    },
    {
      "inputs": [
        {
          "internalType": "address",
          "name": "_rewardWallet",
          "type": "address"
        },
        {
          "internalType": "address",
          "name": "_companyWallet",
          "type": "address"
        },
        {
          "internalType": "address",
          "name": "_performanceWallet",
          "type": "address"
        }
      ],
      "name": "setRewardWallets",
      "outputs": [],
      "stateMutability": "nonpayable",
      "type": "function"
    },
    {
      "inputs": [],
      "name": "setupComplete",
      "outputs": [
        {
          "internalType": "bool",
          "name": "",
          "type": "bool"
        }
      ],
      "stateMutability": "view",
      "type": "function"
    },
    {
      "inputs": [],
      "name": "timelock",
      "outputs": [
        {
          "internalType": "address",
          "name": "",
          "type": "address"
        }
      ],
      "stateMutability": "view",
      "type": "function"
    },
    {
      "inputs": [],
      "name": "totalDeposited",
      "outputs": [
        {
          "internalType": "uint256",
          "name": "",
          "type": "uint256"
        }
      ],
      "stateMutability": "view",
      "type": "function"
    },
    {
      "inputs": [],
      "name": "totalRewardsPaid",
      "outputs": [
        {
          "internalType": "uint256",
          "name": "",
          "type": "uint256"
        }
      ],
      "stateMutability": "view",
      "type": "function"
    },
    {
      "inputs": [],
      "name": "totalWithdrawn",
      "outputs": [
        {
          "internalType": "uint256",
          "name": "",
          "type": "uint256"
        }
      ],
      "stateMutability": "view",
      "type": "function"
    },
    {
      "inputs": [],
      "name": "usdt",
      "outputs": [
        {
          "internalType": "contract IERC20",
          "name": "",
          "type": "address"
        }
      ],
      "stateMutability": "view",
      "type": "function"
    },
    {
      "inputs": [
        {
          "internalType": "address",
          "name": "",
          "type": "address"
        }
      ],
      "name": "userPools",
      "outputs": [
        {
          "internalType": "uint256",
          "name": "totalBalance",
          "type": "uint256"
        },
        {
          "internalType": "uint256",
          "name": "lastClaimTime",
          "type": "uint256"
        },
        {
          "internalType": "uint256",
          "name": "accruedRewards",
          "type": "uint256"
        },
        {
          "internalType": "uint256",
          "name": "totalClaimed",
          "type": "uint256"
        },
        {
          "internalType": "uint256",
          "name": "maxReturn",
          "type": "uint256"
        },
        {
          "internalType": "uint256",
          "name": "totalCombinedEarnings",
          "type": "uint256"
        },
        {
          "internalType": "uint256",
          "name": "lastDepositTime",
          "type": "uint256"
        },
        {
          "internalType": "bool",
          "name": "active",
          "type": "bool"
        }
      ],
      "stateMutability": "view",
      "type": "function"
    }
  ],
  "bytecode": "0x60e0604052670de0b6b3a76400006005553480156200001d57600080fd5b5060405162002720380380620027208339810160408190526200004091620000ec565b60017f9b779b17422d0df92223018b32b4d1fa46e071723d6817e2486d003becc55f00556001600160a01b03831615806200008257506001600160a01b038216155b15620000a15760405163d92e233d60e01b815260040160405180910390fd5b6001600160a01b03928316608052911660a05260c052600380546001600160a01b031916331790556200012d565b80516001600160a01b0381168114620000e757600080fd5b919050565b6000806000606084860312156200010257600080fd5b6200010d84620000cf565b92506200011d60208501620000cf565b9150604084015190509250925092565b60805160a05160c051612568620001b8600039600081816104b301526118d901526000818161036e01528181610a5c01528181610b9c01528181610ca301528181610d2f01528181611be901528181611cad0152611d32015260008181610395015281816112df015281816113ae015281816113e801528181611422015261148b01526125686000f3fe608060405234801561001057600080fd5b50600436106102115760003560e01c806360da3e8311610125578063b6635be6116100ad578063e9a16bd51161007c578063e9a16bd514610592578063f6ed2017146105a5578063f851a440146105b8578063fb75b2c7146105cb578063ff50abdc146105de57600080fd5b8063b6635be614610545578063b6b55f2514610559578063d33219b41461056c578063e4d2620e1461057f57600080fd5b80638565c2bf116100f45780638565c2bf146104f15780638aea8f71146105045780639e5914da1461050c578063ac948e831461051f578063b12cd6251461053257600080fd5b806360da3e831461048a57806365cf7c9b146104ae5780636b9f7ab6146104d557806374958e35146104e857600080fd5b80632f48ab7d116101a857806337914a071161017757806337914a071461041c5780633a6f2dcd1461042f5780634b3197131461045b57806351637ba9146104645780635acb50821461047757600080fd5b80632f48ab7d1461039057806333049e0e146103b75780633695dad11461040b578063372500ab1461041457600080fd5b80631d687f0c116101e45780631d687f0c146103305780631ec32d15146103435780632955440e146103565780632acfbca31461036957600080fd5b8063107a480214610216578063142a3da3146102b95780631441a5a9146102f05780631c481e2d1461031b575b600080fd5b6102776102243660046121b2565b6001600160a01b031660009081526009602052604090208054600182015460028301546003840154600485015460058601546006870154600790970154959794969395929491939092909160ff90911690565b604080519889526020890197909752958701949094526060860192909252608085015260a084015260c0830152151560e0820152610100015b60405180910390f35b6102e26102c73660046121b2565b6001600160a01b031660009081526009602052604090205490565b6040519081526020016102b0565b600154610303906001600160a01b031681565b6040516001600160a01b0390911681526020016102b0565b61032e6103293660046121d6565b6105e7565b005b61032e61033e3660046121f8565b61066a565b600754610303906001600160a01b031681565b61032e610364366004612243565b610763565b6103037f000000000000000000000000000000000000000000000000000000000000000081565b6103037f000000000000000000000000000000000000000000000000000000000000000081565b6102776103c53660046121b2565b6009602052600090815260409020805460018201546002830154600384015460048501546005860154600687015460079097015495969495939492939192909160ff1688565b6102e260055481565b61032e610870565b61032e61042a366004612304565b610def565b6102e261043d3660046121b2565b6001600160a01b031660009081526009602052604090206005015490565b6102e2600b5481565b61032e610472366004612370565b610edb565b61032e610485366004612389565b610f0b565b60045461049e90600160a81b900460ff1681565b60405190151581526020016102b0565b6102e27f000000000000000000000000000000000000000000000000000000000000000081565b61032e6104e33660046123e5565b610fd8565b6102e2600c5481565b600054610303906001600160a01b031681565b61032e611087565b61032e61051a3660046121b2565b61112b565b61032e61052d3660046123e5565b611178565b600854610303906001600160a01b031681565b60045461049e90600160a01b900460ff1681565b61032e610567366004612370565b6111a3565b600454610303906001600160a01b031681565b6102e261058d3660046121b2565b611786565b600254610303906001600160a01b031681565b6102e26105b33660046121b2565b6117d5565b600354610303906001600160a01b031681565b600654610303906001600160a01b031681565b6102e2600a5481565b6004546001600160a01b0316331461061257604051630e05f48560e11b815260040160405180910390fd5b60048054821515600160a81b0260ff60a81b199091161790556040517f5ef34f53269a04b5b817e5be24a51ba6b477118b399ec9dd5b2baf5b299563dc9061065f90831515815260200190565b60405180910390a150565b600454600160a01b900460ff16156106ac576004546001600160a01b031633146106a757604051630e05f48560e11b815260040160405180910390fd5b6106d7565b6003546001600160a01b031633146106d757604051634755657960e01b815260040160405180910390fd5b6001600160a01b03831615806106f457506001600160a01b038216155b8061070657506001600160a01b038116155b156107245760405163d92e233d60e01b815260040160405180910390fd5b600680546001600160a01b039485166001600160a01b031991821617909155600780549385169382169390931790925560088054919093169116179055565b6003546001600160a01b0316331461078e57604051634755657960e01b815260040160405180910390fd5b60005b8181101561086b57368383838181106107ac576107ac612411565b60c002919091019150600090506009816107c960208501856121b2565b6001600160a01b03168152602080820192909252604090810160009081209285013580845591850135600184015560028301556060840135600380840191909155919250610817919061243d565b60048201556080820135600582015560a0820135600682015560078101805460ff19166001179055600a805460208401359190600090610858908490612454565b9091555050600190920191506107919050565b505050565b610878611869565b33600090815260096020526040812080549091036108a957604051636165515360e11b815260040160405180910390fd5b600781015460ff166108ce57604051630f509b1160e01b815260040160405180910390fd5b60006108d982611885565b82600201546108e89190612454565b90508060000361090b576040516312d37ee560e31b815260040160405180910390fd5b60055481101561092e57604051637e3f2b7d60e01b815260040160405180910390fd5b6000826003015483600401541161094657600061095a565b8260030154836004015461095a9190612467565b905080821115610968578091505b60008060009054906101000a90046001600160a01b03166001600160a01b03166398d5fdca6040518163ffffffff1660e01b8152600401602060405180830381865afa1580156109bc573d6000803e3d6000fd5b505050506040513d601f19601f820116820180604052508101906109e0919061247a565b905080600003610a035760405163cc88465760e01b815260040160405180910390fd5b600081610a1885670de0b6b3a764000061243d565b610a2291906124a9565b905080600003610a455760405163cc88465760e01b815260040160405180910390fd5b6040516370a0823160e01b815230600482015281907f00000000000000000000000000000000000000000000000000000000000000006001600160a01b0316906370a0823190602401602060405180830381865afa158015610aab573d6000803e3d6000fd5b505050506040513d601f19601f82011682018060405250810190610acf919061247a565b1015610aee5760405163075e464560e01b815260040160405180910390fd5b83856003016000828254610b029190612454565b9091555050426001860155600060028601819055600586018054869290610b2a908490612454565b9250508190555083600c6000828254610b439190612454565b90915550506004850154600386015410610b8f5760078501805460ff1916905560405133907ffa1eb7ba4f65747c7c8882031eb92d63b6fcb684b75052185312fbe1a488d94390600090a25b610bc36001600160a01b037f0000000000000000000000000000000000000000000000000000000000000000163383611aa9565b6001546001600160a01b031615801590610bdd5750600084115b15610d5c57600154604051638000d99160e01b8152336004820152602481018690526000916001600160a01b031690638000d991906044016020604051808303816000875af1158015610c34573d6000803e3d6000fd5b505050506040513d601f19601f82011682018060405250810190610c58919061247a565b90508015610d5a57600083610c7583670de0b6b3a764000061243d565b610c7f91906124a9565b9050600081118015610d1957506040516370a0823160e01b815230600482015281907f00000000000000000000000000000000000000000000000000000000000000006001600160a01b0316906370a0823190602401602060405180830381865afa158015610cf2573d6000803e3d6000fd5b505050506040513d601f19601f82011682018060405250810190610d16919061247a565b10155b15610d5857600154610d58906001600160a01b037f00000000000000000000000000000000000000000000000000000000000000008116911683611aa9565b505b505b604080518581526020810183905233917fdacbdde355ba930696a362ea6738feb9f8bd52dfb3d81947558fd3217e23e325910160405180910390a2600585015460405190815233907fdad0e43afdd45daca2566e861ff76f0250960d86947518722c83b1e03f45edd59060200160405180910390a25050505050610ded600160008051602061251383398151915255565b565b6003546001600160a01b03163314610e1a57604051634755657960e01b815260040160405180910390fd5b828114610e605760405162461bcd60e51b815260206004820152600f60248201526e098cadccee8d040dad2e6dac2e8c6d608b1b60448201526064015b60405180910390fd5b60005b83811015610ed457828282818110610e7d57610e7d612411565b9050602002013560096000878785818110610e9a57610e9a612411565b9050602002016020810190610eaf91906121b2565b6001600160a01b03168152602081019190915260400160002060050155600101610e63565b5050505050565b6004546001600160a01b03163314610f0657604051630e05f48560e11b815260040160405180910390fd5b600555565b6003546001600160a01b03163314610f3657604051634755657960e01b815260040160405180910390fd5b600454600160a01b900460ff1615610f615760405163238f75d360e01b815260040160405180910390fd5b6001600160a01b038416610f885760405163d92e233d60e01b815260040160405180910390fd5b600080546001600160a01b039586166001600160a01b0319918216179091556001805494861694821694909417909355600280549285169284169290921790915560048054919093169116179055565b6001546001600160a01b0316331461100357604051633864b1e560e21b815260040160405180910390fd5b6001600160a01b0382166000908152600960205260408120600501805483929061102e908490612454565b90915550506001600160a01b0382166000818152600960209081526040918290206005015491519182527fdad0e43afdd45daca2566e861ff76f0250960d86947518722c83b1e03f45edd5910160405180910390a25050565b6003546001600160a01b031633146110b257604051634755657960e01b815260040160405180910390fd5b600454600160a01b900460ff16156110dd5760405163238f75d360e01b815260040160405180910390fd5b6000546001600160a01b03166111065760405163d311bc3960e01b815260040160405180910390fd5b6004805460ff60a01b1916600160a01b179055600380546001600160a01b0319169055565b6004546001600160a01b0316331461115657604051630e05f48560e11b815260040160405180910390fd5b600180546001600160a01b0319166001600160a01b0392909216919091179055565b6002546001600160a01b0316331461100357604051633327311360e11b815260040160405180910390fd5b6111ab611869565b600454600160a81b900460ff16156111d557604051627cfe7f60e31b815260040160405180910390fd5b806000036111f657604051632b7786bd60e21b815260040160405180910390fd5b69010f0cf064dd592000008111156112215760405163c066e1e960e01b815260040160405180910390fd5b6000546001600160a01b031661124a5760405163d311bc3960e01b815260040160405180910390fd5b336000908152600960205260409020805469010f0cf064dd5920000090611272908490612454565b11156112915760405163c066e1e960e01b815260040160405180910390fd5b8054158015906112a55750600781015460ff165b156112d25760006112b582611885565b9050808260020160008282546112cb9190612454565b9091555050505b6113076001600160a01b037f000000000000000000000000000000000000000000000000000000000000000016333085611ade565b60065482906001600160a01b03161580159061132d57506007546001600160a01b031615155b801561134357506008546001600160a01b031615155b1561147157600061271061135860648661243d565b61136291906124a9565b9050600061271061137460328761243d565b61137e91906124a9565b9050600061271061139060328861243d565b61139a91906124a9565b6006549091506113d7906001600160a01b037f00000000000000000000000000000000000000000000000000000000000000008116911685611aa9565b600754611411906001600160a01b037f00000000000000000000000000000000000000000000000000000000000000008116911684611aa9565b60085461144b906001600160a01b037f00000000000000000000000000000000000000000000000000000000000000008116911683611aa9565b80826114578589612467565b6114619190612467565b61146b9190612467565b93505050505b61147a81611b1a565b6000546114b4906001600160a01b037f00000000000000000000000000000000000000000000000000000000000000008116911683611dc5565b600054604051631c79d1e560e21b8152600481018390526001600160a01b03909116906371e74794906024016020604051808303816000875af11580156114ff573d6000803e3d6000fd5b505050506040513d601f19601f82011682018060405250810190611523919061247a565b5081548015908490849060009061153b908490612454565b9091555050825461154e9060039061243d565b60048401554260018401558015611566574260068401555b60078301805460ff19166001179055600a805485919060009061158a908490612454565b9091555050825460009061159d90611e19565b6001549091506001600160a01b0316156116f05760015460405163095ce44b60e21b81523360048201526001600160a01b0390911690632573912c90602401600060405180830381600087803b1580156115f657600080fd5b505af115801561160a573d6000803e3d6000fd5b5050600154604051634a9fefc760e01b8152336004820152600093506001600160a01b039091169150634a9fefc790602401602060405180830381865afa158015611659573d6000803e3d6000fd5b505050506040513d601f19601f8201168201806040525081019061167d91906124bd565b90506001600160a01b038116156116ee5760015460405163095ce44b60e21b81526001600160a01b03838116600483015290911690632573912c90602401600060405180830381600087803b1580156116d557600080fd5b505af11580156116e9573d6000803e3d6000fd5b505050505b505b6002546001600160a01b03161580159061171457506001546001600160a01b031615155b15611723576117233386611e3b565b8354604080518781526020810192909252810182905233907f91ede45f04a37a7c170f5c1207df3b6bc748dc1e04ad5e917a241d0f52feada39060600160405180910390a250505050611783600160008051602061251383398151915255565b50565b6001600160a01b03811660009081526009602052604081205481036117ad57506000919050565b6001600160a01b0382166000908152600960205260409020546117cf90611e19565b92915050565b6001600160a01b0381166000908152600960205260408120805415806118005750600781015460ff16155b1561180e5750600092915050565b61181781611885565b81600201546118269190612454565b915060008160030154826004015411611840576000611854565b816003015482600401546118549190612467565b905080831115611862578092505b5050919050565b611871611f74565b600260008051602061251383398151915255565b600781015460009060ff16158061189b57508154155b156118a857506000919050565b6001820154428181116118bf575060009392505050565b60006118cb8383612467565b85549091506276a7006118fe7f000000000000000000000000000000000000000000000000000000000000000085612467565b10611939576119126127106201518061243d565b8261191e602d8461243d565b611928919061243d565b61193291906124a9565b9450611aa0565b68878678326eac9000008110156000816119555761023f611959565b6103025b9050600061196a62093a80866124a9565b90506127108161197a848761243d565b611984919061243d565b61198e91906124a9565b9750600061199f8262093a8061243d565b6119a99089612454565b905060005b87821015611a6b57600060076119c762015180856124a9565b6119d2906003612454565b6119dc91906124da565b90506000866119f3576119ee82611fa4565b6119fc565b6119fc8261200e565b90506000611a0d62015180866124a9565b611a18906001612454565b611a25906201518061243d565b90506000818c10611a365781611a38565b8b5b90506000611a468783612467565b9050611a52818561243d565b611a5c9087612454565b955082965050505050506119ae565b611a7a6127106201518061243d565b611a84828861243d565b611a8e91906124a9565b611a98908b612454565b995050505050505b50505050919050565b611ab68383836001612078565b61086b57604051635274afe760e01b81526001600160a01b0384166004820152602401610e57565b611aec8484848460016120de565b611b1457604051635274afe760e01b81526001600160a01b0385166004820152602401610e57565b50505050565b6000805460408051630240bc6b60e21b8152815184936001600160a01b031692630902f1ac92600480820193918290030181865afa158015611b60573d6000803e3d6000fd5b505050506040513d601f19601f82011682018060405250810190611b8491906124ee565b9150915060008083118015611b995750600082115b15611bc357611ba88484612454565b611bb2838661243d565b611bbc91906124a9565b9050611bc6565b50825b600080546040516370a0823160e01b81526001600160a01b0391821660048201527f0000000000000000000000000000000000000000000000000000000000000000909116906370a0823190602401602060405180830381865afa158015611c32573d6000803e3d6000fd5b505050506040513d601f19601f82011682018060405250810190611c56919061247a565b9050683635c9adc5dea00000611c6c8184612454565b821015611dbd57600082611c808386612454565b611c8a9190612467565b6040516370a0823160e01b81523060048201529091506000906001600160a01b037f000000000000000000000000000000000000000000000000000000000000000016906370a0823190602401602060405180830381865afa158015611cf4573d6000803e3d6000fd5b505050506040513d601f19601f82011682018060405250810190611d18919061247a565b9050818110611dba57600054611d5b906001600160a01b037f00000000000000000000000000000000000000000000000000000000000000008116911684611dc5565b60005460405163362ce52b60e01b8152600481018490526001600160a01b039091169063362ce52b90602401600060405180830381600087803b158015611da157600080fd5b505af1158015611db5573d6000803e3d6000fd5b505050505b50505b505050505050565b611dd28383836000612150565b61086b57611de4838360006001612150565b611e0c57604051635274afe760e01b81526001600160a01b0384166004820152602401610e57565b611ab68383836001612150565b600068878678326eac9000008210611e3357506002919050565b506001919050565b6001546001600160a01b03161580611e5c57506002546001600160a01b0316155b15611e65575050565b8160005b6014811015611b1457600154604051634a9fefc760e01b81526001600160a01b0384811660048301526000921690634a9fefc790602401602060405180830381865afa158015611ebd573d6000803e3d6000fd5b505050506040513d601f19601f82011682018060405250810190611ee191906124bd565b90506001600160a01b038116611ef75750611b14565b60025460405163d9bd5f2d60e01b81526001600160a01b0383811660048301528581166024830152604482018790529091169063d9bd5f2d90606401600060405180830381600087803b158015611f4d57600080fd5b505af1158015611f61573d6000803e3d6000fd5b509294505060019092019150611e699050565b60008051602061251383398151915254600203610ded57604051633ee5aeb560e01b815260040160405180910390fd5b600081600003611fb657506064919050565b81600103611fc65750604b919050565b81600203611fd65750605f919050565b81600303611fe657506041919050565b81600403611ff657506064919050565b8160050361200657506055919050565b506037919050565b60008160000361202057506073919050565b8160010361203057506064919050565b8160020361204057506073919050565b816003036120505750606e919050565b8160040361206057506069919050565b8160050361207057506064919050565b50607d919050565b60405163a9059cbb60e01b60008181526001600160a01b038616600452602485905291602083604481808b5af1925060016000511483166120d25783831516156120c5573d6000823e3d81fd5b6000873b113d1516831692505b60405250949350505050565b6040516323b872dd60e01b60008181526001600160a01b038781166004528616602452604485905291602083606481808c5af19250600160005114831661213e578383151615612131573d6000823e3d81fd5b6000883b113d1516831692505b60405250600060605295945050505050565b60405163095ea7b360e01b60008181526001600160a01b038616600452602485905291602083604481808b5af1925060016000511483166120d25783831516156120c5573d6000823e3d81fd5b6001600160a01b038116811461178357600080fd5b6000602082840312156121c457600080fd5b81356121cf8161219d565b9392505050565b6000602082840312156121e857600080fd5b813580151581146121cf57600080fd5b60008060006060848603121561220d57600080fd5b83356122188161219d565b925060208401356122288161219d565b915060408401356122388161219d565b809150509250925092565b6000806020838503121561225657600080fd5b823567ffffffffffffffff8082111561226e57600080fd5b818501915085601f83011261228257600080fd5b81358181111561229157600080fd5b86602060c0830285010111156122a657600080fd5b60209290920196919550909350505050565b60008083601f8401126122ca57600080fd5b50813567ffffffffffffffff8111156122e257600080fd5b6020830191508360208260051b85010111156122fd57600080fd5b9250929050565b6000806000806040858703121561231a57600080fd5b843567ffffffffffffffff8082111561233257600080fd5b61233e888389016122b8565b9096509450602087013591508082111561235757600080fd5b50612364878288016122b8565b95989497509550505050565b60006020828403121561238257600080fd5b5035919050565b6000806000806080858703121561239f57600080fd5b84356123aa8161219d565b935060208501356123ba8161219d565b925060408501356123ca8161219d565b915060608501356123da8161219d565b939692955090935050565b600080604083850312156123f857600080fd5b82356124038161219d565b946020939093013593505050565b634e487b7160e01b600052603260045260246000fd5b634e487b7160e01b600052601160045260246000fd5b80820281158282048414176117cf576117cf612427565b808201808211156117cf576117cf612427565b818103818111156117cf576117cf612427565b60006020828403121561248c57600080fd5b5051919050565b634e487b7160e01b600052601260045260246000fd5b6000826124b8576124b8612493565b500490565b6000602082840312156124cf57600080fd5b81516121cf8161219d565b6000826124e9576124e9612493565b500690565b6000806040838503121561250157600080fd5b50508051602090910151909290915056fe9b779b17422d0df92223018b32b4d1fa46e071723d6817e2486d003becc55f00a26469706673582212203030c7c26ad1687e28ba94852cbd25571bc242623aa0d16cafbc83aad681e62764736f6c63430008180033",
  "linkReferences": {},
  "deployedLinkReferences": {}
}