{
  "_format": "hh-sol-artifact-1",
  "contractName": "OSLOReferral",
  "sourceName": "contracts/OSLOReferral.sol",
  "abi": [
    {
      "inputs": [
        {
          "internalType": "address",
          "name": "_usdt",
          "type": "address"
        },
        {
          "internalType": "address",
          "name": "_osloToken",
          "type": "address"
        }
      ],
      "stateMutability": "nonpayable",
      "type": "constructor"
    },
    {
      "inputs": [],
      "name": "AlreadyRegistered",
      "type": "error"
    },
    {
      "inputs": [],
      "name": "InvalidReferrer",
      "type": "error"
    },
    {
      "inputs": [],
      "name": "NotRegistered",
      "type": "error"
    },
    {
      "inputs": [],
      "name": "NothingToClaim",
      "type": "error"
    },
    {
      "inputs": [],
      "name": "OnlyAdmin",
      "type": "error"
    },
    {
      "inputs": [],
      "name": "OnlyInvestmentEngine",
      "type": "error"
    },
    {
      "inputs": [],
      "name": "ReentrancyGuardReentrantCall",
      "type": "error"
    },
    {
      "inputs": [
        {
          "internalType": "address",
          "name": "token",
          "type": "address"
        }
      ],
      "name": "SafeERC20FailedOperation",
      "type": "error"
    },
    {
      "inputs": [],
      "name": "SelfReferral",
      "type": "error"
    },
    {
      "inputs": [],
      "name": "SetupAlreadyComplete",
      "type": "error"
    },
    {
      "inputs": [],
      "name": "ZeroAddress",
      "type": "error"
    },
    {
      "anonymous": false,
      "inputs": [
        {
          "indexed": true,
          "internalType": "address",
          "name": "user",
          "type": "address"
        },
        {
          "indexed": false,
          "internalType": "uint256",
          "name": "level",
          "type": "uint256"
        }
      ],
      "name": "LevelUnlocked",
      "type": "event"
    },
    {
      "anonymous": false,
      "inputs": [
        {
          "indexed": true,
          "internalType": "address",
          "name": "upline",
          "type": "address"
        },
        {
          "indexed": true,
          "internalType": "address",
          "name": "downline",
          "type": "address"
        },
        {
          "indexed": false,
          "internalType": "uint256",
          "name": "level",
          "type": "uint256"
        },
        {
          "indexed": false,
          "internalType": "uint256",
          "name": "amount",
          "type": "uint256"
        }
      ],
      "name": "ReferralPaid",
      "type": "event"
    },
    {
      "anonymous": false,
      "inputs": [
        {
          "indexed": true,
          "internalType": "address",
          "name": "user",
          "type": "address"
        },
        {
          "indexed": false,
          "internalType": "uint256",
          "name": "amount",
          "type": "uint256"
        }
      ],
      "name": "ReferralRewardsClaimed",
      "type": "event"
    },
    {
      "anonymous": false,
      "inputs": [
        {
          "indexed": true,
          "internalType": "address",
          "name": "user",
          "type": "address"
        },
        {
          "indexed": false,
          "internalType": "uint256",
          "name": "fee",
          "type": "uint256"
        },
        {
          "indexed": false,
          "internalType": "uint256",
          "name": "osloBurned",
          "type": "uint256"
        }
      ],
      "name": "RegistrationFeeProcessed",
      "type": "event"
    },
    {
      "anonymous": false,
      "inputs": [
        {
          "indexed": true,
          "internalType": "address",
          "name": "user",
          "type": "address"
        },
        {
          "indexed": true,
          "internalType": "address",
          "name": "referrer",
          "type": "address"
        }
      ],
      "name": "UserRegistered",
      "type": "event"
    },
    {
      "inputs": [],
      "name": "REGISTRATION_FEE",
      "outputs": [
        {
          "internalType": "uint256",
          "name": "",
          "type": "uint256"
        }
      ],
      "stateMutability": "view",
      "type": "function"
    },
    {
      "inputs": [],
      "name": "admin",
      "outputs": [
        {
          "internalType": "address",
          "name": "",
          "type": "address"
        }
      ],
      "stateMutability": "view",
      "type": "function"
    },
    {
      "inputs": [
        {
          "internalType": "address",
          "name": "user",
          "type": "address"
        }
      ],
      "name": "checkAndUnlockLevels",
      "outputs": [],
      "stateMutability": "nonpayable",
      "type": "function"
    },
    {
      "inputs": [],
      "name": "claimReferralRewards",
      "outputs": [],
      "stateMutability": "nonpayable",
      "type": "function"
    },
    {
      "inputs": [],
      "name": "completeSetup",
      "outputs": [],
      "stateMutability": "nonpayable",
      "type": "function"
    },
    {
      "inputs": [
        {
          "internalType": "address",
          "name": "_investmentEngine",
          "type": "address"
        },
        {
          "internalType": "address",
          "name": "_osloDex",
          "type": "address"
        },
        {
          "internalType": "address",
          "name": "_timelock",
          "type": "address"
        }
      ],
      "name": "configure",
      "outputs": [],
      "stateMutability": "nonpayable",
      "type": "function"
    },
    {
      "inputs": [
        {
          "internalType": "address",
          "name": "user",
          "type": "address"
        },
        {
          "internalType": "uint256",
          "name": "profitAmount",
          "type": "uint256"
        }
      ],
      "name": "distributeReferralCommission",
      "outputs": [],
      "stateMutability": "nonpayable",
      "type": "function"
    },
    {
      "inputs": [
        {
          "internalType": "address",
          "name": "user",
          "type": "address"
        }
      ],
      "name": "getAllLevelIncome",
      "outputs": [
        {
          "internalType": "uint256[21]",
          "name": "",
          "type": "uint256[21]"
        }
      ],
      "stateMutability": "view",
      "type": "function"
    },
    {
      "inputs": [
        {
          "internalType": "address",
          "name": "user",
          "type": "address"
        }
      ],
      "name": "getDirectReferrals",
      "outputs": [
        {
          "internalType": "address[]",
          "name": "",
          "type": "address[]"
        }
      ],
      "stateMutability": "view",
      "type": "function"
    },
    {
      "inputs": [
        {
          "internalType": "address",
          "name": "user",
          "type": "address"
        },
        {
          "internalType": "uint256",
          "name": "level",
          "type": "uint256"
        }
      ],
      "name": "getLevelIncome",
      "outputs": [
        {
          "internalType": "uint256",
          "name": "",
          "type": "uint256"
        }
      ],
      "stateMutability": "view",
      "type": "function"
    },
    {
      "inputs": [
        {
          "internalType": "address",
          "name": "user",
          "type": "address"
        }
      ],
      "name": "getQualifiedDirectsCount",
      "outputs": [
        {
          "internalType": "uint256",
          "name": "",
          "type": "uint256"
        }
      ],
      "stateMutability": "view",
      "type": "function"
    },
    {
      "inputs": [
        {
          "internalType": "address",
          "name": "user",
          "type": "address"
        }
      ],
      "name": "getReferrer",
      "outputs": [
        {
          "internalType": "address",
          "name": "",
          "type": "address"
        }
      ],
      "stateMutability": "view",
      "type": "function"
    },
    {
      "inputs": [
        {
          "internalType": "address",
          "name": "user",
          "type": "address"
        }
      ],
      "name": "getTeamSize",
      "outputs": [
        {
          "internalType": "uint256",
          "name": "",
          "type": "uint256"
        }
      ],
      "stateMutability": "view",
      "type": "function"
    },
    {
      "inputs": [
        {
          "internalType": "address",
          "name": "user",
          "type": "address"
        }
      ],
      "name": "getUnlockedLevels",
      "outputs": [
        {
          "internalType": "uint256",
          "name": "",
          "type": "uint256"
        }
      ],
      "stateMutability": "view",
      "type": "function"
    },
    {
      "inputs": [],
      "name": "investmentEngine",
      "outputs": [
        {
          "internalType": "address",
          "name": "",
          "type": "address"
        }
      ],
      "stateMutability": "view",
      "type": "function"
    },
    {
      "inputs": [
        {
          "internalType": "address",
          "name": "user",
          "type": "address"
        }
      ],
      "name": "isRegistered",
      "outputs": [
        {
          "internalType": "bool",
          "name": "",
          "type": "bool"
        }
      ],
      "stateMutability": "view",
      "type": "function"
    },
    {
      "inputs": [
        {
          "internalType": "address",
          "name": "",
          "type": "address"
        },
        {
          "internalType": "uint256",
          "name": "",
          "type": "uint256"
        }
      ],
      "name": "levelIncome",
      "outputs": [
        {
          "internalType": "uint256",
          "name": "",
          "type": "uint256"
        }
      ],
      "stateMutability": "view",
      "type": "function"
    },
    {
      "inputs": [],
      "name": "osloDex",
      "outputs": [
        {
          "internalType": "address",
          "name": "",
          "type": "address"
        }
      ],
      "stateMutability": "view",
      "type": "function"
    },
    {
      "inputs": [],
      "name": "osloToken",
      "outputs": [
        {
          "internalType": "contract IERC20",
          "name": "",
          "type": "address"
        }
      ],
      "stateMutability": "view",
      "type": "function"
    },
    {
      "inputs": [
        {
          "internalType": "address",
          "name": "",
          "type": "address"
        }
      ],
      "name": "referralRewards",
      "outputs": [
        {
          "internalType": "uint256",
          "name": "",
          "type": "uint256"
        }
      ],
      "stateMutability": "view",
      "type": "function"
    },
    {
      "inputs": [
        {
          "internalType": "address",
          "name": "user",
          "type": "address"
        },
        {
          "internalType": "address",
          "name": "referrer",
          "type": "address"
        }
      ],
      "name": "register",
      "outputs": [],
      "stateMutability": "nonpayable",
      "type": "function"
    },
    {
      "inputs": [],
      "name": "setupComplete",
      "outputs": [
        {
          "internalType": "bool",
          "name": "",
          "type": "bool"
        }
      ],
      "stateMutability": "view",
      "type": "function"
    },
    {
      "inputs": [],
      "name": "timelock",
      "outputs": [
        {
          "internalType": "address",
          "name": "",
          "type": "address"
        }
      ],
      "stateMutability": "view",
      "type": "function"
    },
    {
      "inputs": [],
      "name": "totalCommissionsPaid",
      "outputs": [
        {
          "internalType": "uint256",
          "name": "",
          "type": "uint256"
        }
      ],
      "stateMutability": "view",
      "type": "function"
    },
    {
      "inputs": [],
      "name": "totalFeesCollected",
      "outputs": [
        {
          "internalType": "uint256",
          "name": "",
          "type": "uint256"
        }
      ],
      "stateMutability": "view",
      "type": "function"
    },
    {
      "inputs": [],
      "name": "totalRegistered",
      "outputs": [
        {
          "internalType": "uint256",
          "name": "",
          "type": "uint256"
        }
      ],
      "stateMutability": "view",
      "type": "function"
    },
    {
      "inputs": [],
      "name": "usdt",
      "outputs": [
        {
          "internalType": "contract IERC20",
          "name": "",
          "type": "address"
        }
      ],
      "stateMutability": "view",
      "type": "function"
    },
    {
      "inputs": [
        {
          "internalType": "address",
          "name": "",
          "type": "address"
        }
      ],
      "name": "userInfo",
      "outputs": [
        {
          "internalType": "address",
          "name": "referrer",
          "type": "address"
        },
        {
          "internalType": "uint256",
          "name": "unlockedLevels",
          "type": "uint256"
        },
        {
          "internalType": "uint256",
          "name": "totalEarned",
          "type": "uint256"
        },
        {
          "internalType": "bool",
          "name": "registered",
          "type": "bool"
        }
      ],
      "stateMutability": "view",
      "type": "function"
    }
  ],
  "bytecode": "0x60c06040523480156200001157600080fd5b506040516200175a3803806200175a8339810160408190526200003491620000dc565b60017f9b779b17422d0df92223018b32b4d1fa46e071723d6817e2486d003becc55f00556001600160a01b03821615806200007657506001600160a01b038116155b15620000955760405163d92e233d60e01b815260040160405180910390fd5b6001600160a01b039182166080521660a052600280546001600160a01b0319163317905562000114565b80516001600160a01b0381168114620000d757600080fd5b919050565b60008060408385031215620000f057600080fd5b620000fb83620000bf565b91506200010b60208401620000bf565b90509250929050565b60805160a05161160462000156600039600081816102e50152610cfa0152600081816103240152818161056801528181610bcb0152610c3c01526116046000f3fe608060405234801561001057600080fd5b50600436106101c45760003560e01c806364b4f751116100f9578063b6635be611610097578063c6d83fcf11610071578063c6d83fcf146104ca578063d2c8e0e5146104d3578063d33219b4146104f3578063f851a4401461050657600080fd5b8063b6635be614610463578063b845828214610487578063c3c5a5471461049a57600080fd5b80638565c2bf116100d35780638565c2bf1461042c5780638aea8f711461043f578063927416c014610447578063aa6773541461045057600080fd5b806364b4f751146103d457806364df8222146103e35780638000d9911461041957600080fd5b80632f48ab7d11610166578063519f164011610140578063519f16401461038557806353aaa63b1461039857806355d28f20146103b857806360c6d8ae146103cb57600080fd5b80632f48ab7d1461031f57806330131384146103465780634a9fefc71461035957600080fd5b80631e97f48a116101a25780631e97f48a146102815780631f791b69146102a15780632573912c146102cd5780632acfbca3146102e057600080fd5b806305eaab4b146101c95780630b35d7d1146101d35780631959a00214610211575b600080fd5b6101d1610519565b005b6101fe6101e13660046113e3565b600660209081526000928352604080842090915290825290205481565b6040519081526020015b60405180910390f35b61025561021f36600461140d565b600460208190526000918252604090912080546002820154600383015492909301546001600160a01b0390911692919060ff1684565b604080516001600160a01b03909516855260208501939093529183015215156060820152608001610208565b61029461028f36600461140d565b6105f8565b604051610208919061142f565b6101fe6102af36600461140d565b6001600160a01b031660009081526004602052604090206002015490565b6101d16102db36600461140d565b610690565b6103077f000000000000000000000000000000000000000000000000000000000000000081565b6040516001600160a01b039091168152602001610208565b6103077f000000000000000000000000000000000000000000000000000000000000000081565b600054610307906001600160a01b031681565b61030761036736600461140d565b6001600160a01b039081166000908152600460205260409020541690565b6101fe61039336600461140d565b610789565b6101fe6103a636600461140d565b60056020526000908152604090205481565b6101d16103c6366004611461565b61079c565b6101fe60095481565b6101fe670de0b6b3a764000081565b6101fe6103f13660046113e3565b6001600160a01b03919091166000908152600660209081526040808320938352929052205490565b6101d16104273660046113e3565b610831565b600154610307906001600160a01b031681565b6101d1610a59565b6101fe60075481565b6101d161045e3660046114a4565b610ad4565b60035461047790600160a01b900460ff1681565b6040519015158152602001610208565b6101fe61049536600461140d565b610e54565b6104776104a836600461140d565b6001600160a01b03166000908152600460208190526040909120015460ff1690565b6101fe60085481565b6104e66104e136600461140d565b610e5f565b60405161020891906114d7565b600354610307906001600160a01b031681565b600254610307906001600160a01b031681565b610521610ed8565b3360009081526005602052604081205490819003610552576040516312d37ee560e31b815260040160405180910390fd5b33600081815260056020526040812055610597907f00000000000000000000000000000000000000000000000000000000000000006001600160a01b03169083610f06565b60405181815233907f98741ecf35c5d20a8ed68dbd8540500684864a6c98c2a41a5844d0b3a2357d439060200160405180910390a2506105f660017f9b779b17422d0df92223018b32b4d1fa46e071723d6817e2486d003becc55f0055565b565b6106006113a8565b6106086113a8565b60015b60148111610689576001600160a01b038416600090815260066020908152604080832084845290915290205482826015811061064957610649611524565b602002015281816015811061066057610660611524565b602002015182518390610674908390611550565b9052508061068181611563565b91505061060b565b5092915050565b6001600160a01b0381166000908152600460208190526040909120015460ff166106b75750565b60006106c282610f40565b905060006106cf8261104a565b6001600160a01b038416600090815260046020526040902060020154909150811115610784576001600160a01b038316600090815260046020526040812060020180549083905590610722826001611550565b90505b82811161078157846001600160a01b03167f084d80ac1b703449f5931daa49aa5ad902f79624e20313db57074f53c5aca3418260405161076791815260200190565b60405180910390a28061077981611563565b915050610725565b50505b505050565b60006107968260006110a4565b92915050565b6002546001600160a01b031633146107c757604051634755657960e01b815260040160405180910390fd5b600354600160a01b900460ff16156107f25760405163238f75d360e01b815260040160405180910390fd5b600080546001600160a01b039485166001600160a01b031991821617909155600180549385169382169390931790925560038054919093169116179055565b8060000361083d575050565b8160015b60148111610a53576001600160a01b03808316600090815260046020526040902054168061086f5750610a53565b6001600160a01b0381166000908152600460205260409020600201548211610a3f57600061089c83611136565b905060006127106108ad838861157c565b6108b79190611593565b90508015610a3c576001600160a01b038316600090815260056020526040812080548392906108e7908490611550565b90915550506001600160a01b03831660009081526006602090815260408083208784529091528120805483929061091f908490611550565b90915550506001600160a01b0383166000908152600460205260408120600301805483929061094f908490611550565b9250508190555080600860008282546109689190611550565b90915550506000546001600160a01b0316156109e5576000546040516335cfbd5b60e11b81526001600160a01b0385811660048301526024820184905290911690636b9f7ab690604401600060405180830381600087803b1580156109cc57600080fd5b505af11580156109e0573d6000803e3d6000fd5b505050505b866001600160a01b0316836001600160a01b03167f65db98422e8b7340e0d6dfa99bbadd4ba95a51fefafd8f0e1cbbb2e819429a428684604051610a33929190918252602082015260400190565b60405180910390a35b50505b915080610a4b81611563565b915050610841565b50505050565b6002546001600160a01b03163314610a8457604051634755657960e01b815260040160405180910390fd5b600354600160a01b900460ff1615610aaf5760405163238f75d360e01b815260040160405180910390fd5b6003805460ff60a01b1916600160a01b179055600280546001600160a01b0319169055565b6001600160a01b038216610afb5760405163d92e233d60e01b815260040160405180910390fd5b6001600160a01b0382166000908152600460208190526040909120015460ff1615610b3957604051630ea075bf60e21b815260040160405180910390fd5b806001600160a01b0316826001600160a01b031603610b6b57604051632af47b8760e11b815260040160405180910390fd5b6001600160a01b03811615801590610ba057506001600160a01b0381166000908152600460208190526040909120015460ff16155b15610bbe57604051630c22084560e31b815260040160405180910390fd5b610bfb6001600160a01b037f0000000000000000000000000000000000000000000000000000000000000000168330670de0b6b3a76400006111b7565b670de0b6b3a764000060096000828254610c159190611550565b90915550506001546001600160a01b031615610d7257600154610c6d906001600160a01b037f000000000000000000000000000000000000000000000000000000000000000081169116670de0b6b3a76400006111ed565b60015460405163c2c9068760e01b8152670de0b6b3a76400006004820152600060248201526001600160a01b039091169063c2c90687906044016020604051808303816000875af1925050508015610ce2575060408051601f3d908101601f19168201909252610cdf918101906115b5565b60015b15610d72578015610d7057610d236001600160a01b037f00000000000000000000000000000000000000000000000000000000000000001661dead83610f06565b60408051670de0b6b3a76400008152602081018390526001600160a01b038516917f285cf258850ff8cf5d55ec19e46476d4e3d5209972f80a7880a38ac7011e7023910160405180910390a25b505b6001600160a01b0380831660009081526004602081905260408220908101805460ff1916600117905580549284166001600160a01b0319909316831781556002015515610dfb576001600160a01b0381811660009081526004602090815260408220600190810180549182018155835291200180546001600160a01b0319169184169190911790555b60078054906000610e0b83611563565b9190505550806001600160a01b0316826001600160a01b03167f2138b9314634f9fdd5e49bee3eaf17ca557b6637524d0db759711c3bfcd3d85060405160405180910390a35050565b600061079682610f40565b6001600160a01b038116600090815260046020908152604091829020600101805483518184028101840190945280845260609392830182828015610ecc57602002820191906000526020600020905b81546001600160a01b03168152600190910190602001808311610eae575b50505050509050919050565b610ee0611241565b60027f9b779b17422d0df92223018b32b4d1fa46e071723d6817e2486d003becc55f0055565b610f138383836001611283565b61078457604051635274afe760e01b81526001600160a01b03841660048201526024015b60405180910390fd5b6001600160a01b03811660009081526004602052604081208190600101815b8154811015611041576000546001600160a01b031615611039576000805483546001600160a01b039091169063142a3da390859085908110610fa357610fa3611524565b60009182526020909120015460405160e083901b6001600160e01b03191681526001600160a01b039091166004820152602401602060405180830381865afa158015610ff3573d6000803e3d6000fd5b505050506040513d601f19601f8201168201806040525081019061101791906115b5565b905068056bc75e2d631000008110611037578361103381611563565b9450505b505b600101610f5f565b50909392505050565b60006007821061105c57506014919050565b6005821061106c57506010919050565b6003821061107c5750600c919050565b6002821061108c57506008919050565b6001821061109c57506003919050565b506000919050565b6000601482106110b657506000610796565b6001600160a01b0383166000908152600460205260408120600101805490915b825481101561112d576111198382815481106110f4576110f4611524565b6000918252602090912001546001600160a01b0316611114876001611550565b6110a4565b6111239083611550565b91506001016110d6565b50949350505050565b6000816001036111495750610bb8919050565b8160020361115a57506107d0919050565b6003821015801561116c5750600a8211155b1561117957506064919050565b600b821015801561118b5750600f8211155b1561119857506032919050565b601082101580156111aa575060148211155b1561109c57506019919050565b6111c58484848460016112e9565b610a5357604051635274afe760e01b81526001600160a01b0385166004820152602401610f37565b6111fa838383600061135b565b6107845761120c83836000600161135b565b61123457604051635274afe760e01b81526001600160a01b0384166004820152602401610f37565b610f13838383600161135b565b7f9b779b17422d0df92223018b32b4d1fa46e071723d6817e2486d003becc55f00546002036105f657604051633ee5aeb560e01b815260040160405180910390fd5b60405163a9059cbb60e01b60008181526001600160a01b038616600452602485905291602083604481808b5af1925060016000511483166112dd5783831516156112d0573d6000823e3d81fd5b6000873b113d1516831692505b60405250949350505050565b6040516323b872dd60e01b60008181526001600160a01b038781166004528616602452604485905291602083606481808c5af19250600160005114831661134957838315161561133c573d6000823e3d81fd5b6000883b113d1516831692505b60405250600060605295945050505050565b60405163095ea7b360e01b60008181526001600160a01b038616600452602485905291602083604481808b5af1925060016000511483166112dd5783831516156112d0573d6000823e3d81fd5b604051806102a001604052806015906020820280368337509192915050565b80356001600160a01b03811681146113de57600080fd5b919050565b600080604083850312156113f657600080fd5b6113ff836113c7565b946020939093013593505050565b60006020828403121561141f57600080fd5b611428826113c7565b9392505050565b6102a08101818360005b6015811015611458578151835260209283019290910190600101611439565b50505092915050565b60008060006060848603121561147657600080fd5b61147f846113c7565b925061148d602085016113c7565b915061149b604085016113c7565b90509250925092565b600080604083850312156114b757600080fd5b6114c0836113c7565b91506114ce602084016113c7565b90509250929050565b6020808252825182820181905260009190848201906040850190845b818110156115185783516001600160a01b0316835292840192918401916001016114f3565b50909695505050505050565b634e487b7160e01b600052603260045260246000fd5b634e487b7160e01b600052601160045260246000fd5b808201808211156107965761079661153a565b6000600182016115755761157561153a565b5060010190565b80820281158282048414176107965761079661153a565b6000826115b057634e487b7160e01b600052601260045260246000fd5b500490565b6000602082840312156115c757600080fd5b505191905056fea2646970667358221220de3f92638f6980ecea02f0ceb77c2bd0c261be7e515afca99c717aee459c677d64736f6c63430008180033",
  "linkReferences": {},
  "deployedLinkReferences": {}
}