{
  "_format": "hh-sol-artifact-1",
  "contractName": "OSLOInvestmentEngine",
  "sourceName": "contracts/OSLOInvestmentEngine.sol",
  "abi": [
    {
      "inputs": [
        {
          "internalType": "address",
          "name": "_usdt",
          "type": "address"
        },
        {
          "internalType": "address",
          "name": "_osloToken",
          "type": "address"
        },
        {
          "internalType": "uint256",
          "name": "_launchTimestamp",
          "type": "uint256"
        }
      ],
      "stateMutability": "nonpayable",
      "type": "constructor"
    },
    {
      "inputs": [],
      "name": "BelowWithdrawalThreshold",
      "type": "error"
    },
    {
      "inputs": [],
      "name": "DEXNotPriced",
      "type": "error"
    },
    {
      "inputs": [],
      "name": "DepositCapped",
      "type": "error"
    },
    {
      "inputs": [],
      "name": "DepositTooHigh",
      "type": "error"
    },
    {
      "inputs": [],
      "name": "DepositTooLow",
      "type": "error"
    },
    {
      "inputs": [],
      "name": "DepositsPausedError",
      "type": "error"
    },
    {
      "inputs": [],
      "name": "InsufficientOsloReserve",
      "type": "error"
    },
    {
      "inputs": [],
      "name": "InvalidDeposit",
      "type": "error"
    },
    {
      "inputs": [],
      "name": "NotConfigured",
      "type": "error"
    },
    {
      "inputs": [],
      "name": "NothingToClaim",
      "type": "error"
    },
    {
      "inputs": [],
      "name": "OnlyAdmin",
      "type": "error"
    },
    {
      "inputs": [],
      "name": "OnlyRankSystem",
      "type": "error"
    },
    {
      "inputs": [],
      "name": "OnlyReferral",
      "type": "error"
    },
    {
      "inputs": [],
      "name": "OnlyTimelock",
      "type": "error"
    },
    {
      "inputs": [],
      "name": "ReentrancyGuardReentrantCall",
      "type": "error"
    },
    {
      "inputs": [
        {
          "internalType": "address",
          "name": "token",
          "type": "address"
        }
      ],
      "name": "SafeERC20FailedOperation",
      "type": "error"
    },
    {
      "inputs": [],
      "name": "SetupAlreadyComplete",
      "type": "error"
    },
    {
      "inputs": [],
      "name": "ZeroAddress",
      "type": "error"
    },
    {
      "anonymous": false,
      "inputs": [
        {
          "indexed": true,
          "internalType": "address",
          "name": "user",
          "type": "address"
        }
      ],
      "name": "CombinedCapReached",
      "type": "event"
    },
    {
      "anonymous": false,
      "inputs": [
        {
          "indexed": true,
          "internalType": "address",
          "name": "user",
          "type": "address"
        },
        {
          "indexed": false,
          "internalType": "uint256",
          "name": "totalCombined",
          "type": "uint256"
        }
      ],
      "name": "CombinedEarningsUpdated",
      "type": "event"
    },
    {
      "anonymous": false,
      "inputs": [
        {
          "indexed": true,
          "internalType": "address",
          "name": "user",
          "type": "address"
        },
        {
          "indexed": false,
          "internalType": "uint256",
          "name": "amount",
          "type": "uint256"
        },
        {
          "indexed": false,
          "internalType": "uint256",
          "name": "tier",
          "type": "uint256"
        },
        {
          "indexed": false,
          "internalType": "uint256",
          "name": "dailyRate",
          "type": "uint256"
        },
        {
          "indexed": false,
          "internalType": "uint256",
          "name": "depositIndex",
          "type": "uint256"
        }
      ],
      "name": "Deposited",
      "type": "event"
    },
    {
      "anonymous": false,
      "inputs": [
        {
          "indexed": false,
          "internalType": "bool",
          "name": "paused",
          "type": "bool"
        }
      ],
      "name": "DepositsPaused",
      "type": "event"
    },
    {
      "anonymous": false,
      "inputs": [
        {
          "indexed": true,
          "internalType": "address",
          "name": "user",
          "type": "address"
        },
        {
          "indexed": false,
          "internalType": "uint256",
          "name": "netPrincipal",
          "type": "uint256"
        },
        {
          "indexed": false,
          "internalType": "uint256",
          "name": "depositIndex",
          "type": "uint256"
        }
      ],
      "name": "PrincipalWithdrawn",
      "type": "event"
    },
    {
      "anonymous": false,
      "inputs": [
        {
          "indexed": true,
          "internalType": "address",
          "name": "oldReferral",
          "type": "address"
        },
        {
          "indexed": true,
          "internalType": "address",
          "name": "newReferral",
          "type": "address"
        }
      ],
      "name": "ReferralUpdated",
      "type": "event"
    },
    {
      "anonymous": false,
      "inputs": [
        {
          "indexed": true,
          "internalType": "address",
          "name": "user",
          "type": "address"
        },
        {
          "indexed": false,
          "internalType": "uint256",
          "name": "usdtReward",
          "type": "uint256"
        },
        {
          "indexed": false,
          "internalType": "uint256",
          "name": "osloAmount",
          "type": "uint256"
        },
        {
          "indexed": false,
          "internalType": "uint256",
          "name": "depositIndex",
          "type": "uint256"
        }
      ],
      "name": "RewardsClaimed",
      "type": "event"
    },
    {
      "inputs": [],
      "name": "admin",
      "outputs": [
        {
          "internalType": "address",
          "name": "",
          "type": "address"
        }
      ],
      "stateMutability": "view",
      "type": "function"
    },
    {
      "inputs": [
        {
          "internalType": "uint256",
          "name": "depositIndex",
          "type": "uint256"
        }
      ],
      "name": "claimRewards",
      "outputs": [],
      "stateMutability": "nonpayable",
      "type": "function"
    },
    {
      "inputs": [],
      "name": "completeSetup",
      "outputs": [],
      "stateMutability": "nonpayable",
      "type": "function"
    },
    {
      "inputs": [
        {
          "internalType": "address",
          "name": "_treasury",
          "type": "address"
        },
        {
          "internalType": "address",
          "name": "_referral",
          "type": "address"
        },
        {
          "internalType": "address",
          "name": "_rankSystem",
          "type": "address"
        },
        {
          "internalType": "address",
          "name": "_osloDex",
          "type": "address"
        },
        {
          "internalType": "address",
          "name": "_timelock",
          "type": "address"
        }
      ],
      "name": "configure",
      "outputs": [],
      "stateMutability": "nonpayable",
      "type": "function"
    },
    {
      "inputs": [
        {
          "internalType": "uint256",
          "name": "amount",
          "type": "uint256"
        }
      ],
      "name": "deposit",
      "outputs": [],
      "stateMutability": "nonpayable",
      "type": "function"
    },
    {
      "inputs": [],
      "name": "depositsPaused",
      "outputs": [
        {
          "internalType": "bool",
          "name": "",
          "type": "bool"
        }
      ],
      "stateMutability": "view",
      "type": "function"
    },
    {
      "inputs": [
        {
          "internalType": "address",
          "name": "user",
          "type": "address"
        }
      ],
      "name": "getActiveDeposit",
      "outputs": [
        {
          "internalType": "uint256",
          "name": "",
          "type": "uint256"
        }
      ],
      "stateMutability": "view",
      "type": "function"
    },
    {
      "inputs": [
        {
          "internalType": "address",
          "name": "user",
          "type": "address"
        }
      ],
      "name": "getCombinedEarnings",
      "outputs": [
        {
          "internalType": "uint256",
          "name": "",
          "type": "uint256"
        }
      ],
      "stateMutability": "view",
      "type": "function"
    },
    {
      "inputs": [
        {
          "internalType": "address",
          "name": "user",
          "type": "address"
        }
      ],
      "name": "getDepositCount",
      "outputs": [
        {
          "internalType": "uint256",
          "name": "",
          "type": "uint256"
        }
      ],
      "stateMutability": "view",
      "type": "function"
    },
    {
      "inputs": [
        {
          "internalType": "address",
          "name": "user",
          "type": "address"
        },
        {
          "internalType": "uint256",
          "name": "depositIndex",
          "type": "uint256"
        }
      ],
      "name": "getPendingRewards",
      "outputs": [
        {
          "internalType": "uint256",
          "name": "pendingUSDT",
          "type": "uint256"
        }
      ],
      "stateMutability": "view",
      "type": "function"
    },
    {
      "inputs": [
        {
          "internalType": "address",
          "name": "user",
          "type": "address"
        }
      ],
      "name": "getUserTier",
      "outputs": [
        {
          "internalType": "uint256",
          "name": "",
          "type": "uint256"
        }
      ],
      "stateMutability": "view",
      "type": "function"
    },
    {
      "inputs": [],
      "name": "launchTimestamp",
      "outputs": [
        {
          "internalType": "uint256",
          "name": "",
          "type": "uint256"
        }
      ],
      "stateMutability": "view",
      "type": "function"
    },
    {
      "inputs": [
        {
          "internalType": "address",
          "name": "user",
          "type": "address"
        },
        {
          "internalType": "uint256",
          "name": "amount",
          "type": "uint256"
        }
      ],
      "name": "notifyLevelIncome",
      "outputs": [],
      "stateMutability": "nonpayable",
      "type": "function"
    },
    {
      "inputs": [
        {
          "internalType": "address",
          "name": "user",
          "type": "address"
        },
        {
          "internalType": "uint256",
          "name": "amount",
          "type": "uint256"
        }
      ],
      "name": "notifyRankBonus",
      "outputs": [],
      "stateMutability": "nonpayable",
      "type": "function"
    },
    {
      "inputs": [],
      "name": "osloDex",
      "outputs": [
        {
          "internalType": "address",
          "name": "",
          "type": "address"
        }
      ],
      "stateMutability": "view",
      "type": "function"
    },
    {
      "inputs": [],
      "name": "osloToken",
      "outputs": [
        {
          "internalType": "contract IERC20",
          "name": "",
          "type": "address"
        }
      ],
      "stateMutability": "view",
      "type": "function"
    },
    {
      "inputs": [],
      "name": "rankSystem",
      "outputs": [
        {
          "internalType": "address",
          "name": "",
          "type": "address"
        }
      ],
      "stateMutability": "view",
      "type": "function"
    },
    {
      "inputs": [],
      "name": "referral",
      "outputs": [
        {
          "internalType": "address",
          "name": "",
          "type": "address"
        }
      ],
      "stateMutability": "view",
      "type": "function"
    },
    {
      "inputs": [
        {
          "internalType": "bool",
          "name": "_paused",
          "type": "bool"
        }
      ],
      "name": "setDepositsPaused",
      "outputs": [],
      "stateMutability": "nonpayable",
      "type": "function"
    },
    {
      "inputs": [
        {
          "internalType": "address",
          "name": "_referral",
          "type": "address"
        }
      ],
      "name": "setReferral",
      "outputs": [],
      "stateMutability": "nonpayable",
      "type": "function"
    },
    {
      "inputs": [],
      "name": "setupComplete",
      "outputs": [
        {
          "internalType": "bool",
          "name": "",
          "type": "bool"
        }
      ],
      "stateMutability": "view",
      "type": "function"
    },
    {
      "inputs": [],
      "name": "timelock",
      "outputs": [
        {
          "internalType": "address",
          "name": "",
          "type": "address"
        }
      ],
      "stateMutability": "view",
      "type": "function"
    },
    {
      "inputs": [],
      "name": "totalDeposited",
      "outputs": [
        {
          "internalType": "uint256",
          "name": "",
          "type": "uint256"
        }
      ],
      "stateMutability": "view",
      "type": "function"
    },
    {
      "inputs": [],
      "name": "totalRewardsPaid",
      "outputs": [
        {
          "internalType": "uint256",
          "name": "",
          "type": "uint256"
        }
      ],
      "stateMutability": "view",
      "type": "function"
    },
    {
      "inputs": [],
      "name": "totalWithdrawn",
      "outputs": [
        {
          "internalType": "uint256",
          "name": "",
          "type": "uint256"
        }
      ],
      "stateMutability": "view",
      "type": "function"
    },
    {
      "inputs": [],
      "name": "treasury",
      "outputs": [
        {
          "internalType": "address",
          "name": "",
          "type": "address"
        }
      ],
      "stateMutability": "view",
      "type": "function"
    },
    {
      "inputs": [],
      "name": "usdt",
      "outputs": [
        {
          "internalType": "contract IERC20",
          "name": "",
          "type": "address"
        }
      ],
      "stateMutability": "view",
      "type": "function"
    },
    {
      "inputs": [
        {
          "internalType": "address",
          "name": "",
          "type": "address"
        },
        {
          "internalType": "uint256",
          "name": "",
          "type": "uint256"
        }
      ],
      "name": "userDeposits",
      "outputs": [
        {
          "internalType": "uint256",
          "name": "amount",
          "type": "uint256"
        },
        {
          "internalType": "uint256",
          "name": "tier",
          "type": "uint256"
        },
        {
          "internalType": "uint256",
          "name": "dailyRate",
          "type": "uint256"
        },
        {
          "internalType": "uint256",
          "name": "depositTime",
          "type": "uint256"
        },
        {
          "internalType": "uint256",
          "name": "lastClaimTime",
          "type": "uint256"
        },
        {
          "internalType": "uint256",
          "name": "totalClaimed",
          "type": "uint256"
        },
        {
          "internalType": "uint256",
          "name": "maxReturn",
          "type": "uint256"
        },
        {
          "internalType": "bool",
          "name": "active",
          "type": "bool"
        }
      ],
      "stateMutability": "view",
      "type": "function"
    },
    {
      "inputs": [
        {
          "internalType": "address",
          "name": "",
          "type": "address"
        }
      ],
      "name": "users",
      "outputs": [
        {
          "internalType": "uint256",
          "name": "totalActiveDeposit",
          "type": "uint256"
        },
        {
          "internalType": "uint256",
          "name": "depositCount",
          "type": "uint256"
        },
        {
          "internalType": "uint256",
          "name": "totalCombinedEarnings",
          "type": "uint256"
        }
      ],
      "stateMutability": "view",
      "type": "function"
    },
    {
      "inputs": [
        {
          "internalType": "uint256",
          "name": "depositIndex",
          "type": "uint256"
        }
      ],
      "name": "withdrawPrincipal",
      "outputs": [],
      "stateMutability": "nonpayable",
      "type": "function"
    }
  ],
  "bytecode": "0x60e06040523480156200001157600080fd5b5060405162002034380380620020348339810160408190526200003491620000e0565b60017f9b779b17422d0df92223018b32b4d1fa46e071723d6817e2486d003becc55f00556001600160a01b03831615806200007657506001600160a01b038216155b15620000955760405163d92e233d60e01b815260040160405180910390fd5b6001600160a01b03928316608052911660a05260c052600480546001600160a01b0319163317905562000121565b80516001600160a01b0381168114620000db57600080fd5b919050565b600080600060608486031215620000f657600080fd5b6200010184620000c3565b92506200011160208501620000c3565b9150604084015190509250925092565b60805160a05160c051611ea462000190600039600081816103b90152818161169401526118630152600081816102ec01528181610778015281816108b201528181610c290152610cb501526000818161031301528181610d660152818161118101526111ba0152611ea46000f3fe608060405234801561001057600080fd5b50600436106101da5760003560e01c806374958e3511610104578063b6635be6116100a2578063e4e7c6b411610071578063e4e7c6b4146104e2578063e9a16bd5146104f5578063f851a44014610508578063ff50abdc1461051b57600080fd5b8063b6635be614610495578063b6b55f25146104a9578063d33219b4146104bc578063e4d2620e146104cf57600080fd5b80638aea8f71116100de5780638aea8f711461041d5780639e5914da14610425578063a87430ba14610438578063ac948e831461048257600080fd5b806374958e35146103ee578063760fcb3e146103f75780638565c2bf1461040a57600080fd5b80632f48ab7d1161017c57806361d027b31161014b57806361d027b31461038e578063658e28a4146103a157806365cf7c9b146103b45780636b9f7ab6146103db57600080fd5b80632f48ab7d1461030e5780633a6f2dcd146103355780634b3197131461036157806360da3e831461036a57600080fd5b8063142a3da3116101b8578063142a3da3146102805780631441a5a9146102a95780631c481e2d146102d45780632acfbca3146102e757600080fd5b806308f43333146101df5780630962ef791461023457806313fcaf5414610249575b600080fd5b6101f26101ed366004611c7f565b610524565b604080519889526020890197909752958701949094526060860192909252608085015260a084015260c0830152151560e0820152610100015b60405180910390f35b610247610242366004611cab565b610589565b005b610272610257366004611cc4565b6001600160a01b031660009081526006602052604090205490565b60405190815260200161022b565b61027261028e366004611cc4565b6001600160a01b031660009081526007602052604090205490565b6002546102bc906001600160a01b031681565b6040516001600160a01b03909116815260200161022b565b6102476102e2366004611ce1565b610a11565b6102bc7f000000000000000000000000000000000000000000000000000000000000000081565b6102bc7f000000000000000000000000000000000000000000000000000000000000000081565b610272610343366004611cc4565b6001600160a01b031660009081526007602052604090206002015490565b61027260095481565b60055461037e90600160a81b900460ff1681565b604051901515815260200161022b565b6001546102bc906001600160a01b031681565b6102476103af366004611cab565b610a94565b6102727f000000000000000000000000000000000000000000000000000000000000000081565b6102476103e9366004611c7f565b610de4565b610272600a5481565b610247610405366004611d03565b610e93565b6000546102bc906001600160a01b031681565b610247610f6f565b610247610433366004611cc4565b611013565b610467610446366004611cc4565b60076020526000908152604090208054600182015460029092015490919083565b6040805193845260208401929092529082015260600161022b565b610247610490366004611c7f565b61109a565b60055461037e90600160a01b900460ff1681565b6102476104b7366004611cab565b6110c5565b6005546102bc906001600160a01b031681565b6102726104dd366004611cc4565b6114a5565b6102726104f0366004611c7f565b6114f4565b6003546102bc906001600160a01b031681565b6004546102bc906001600160a01b031681565b61027260085481565b6006602052816000526040600020818154811061054057600080fd5b6000918252602090912060089091020180546001820154600283015460038401546004850154600586015460068701546007909701549598509396509194909391929160ff1688565b610591611580565b600061059d338361159c565b905060006105ab338361163d565b9050806000036105ce576040516312d37ee560e31b815260040160405180910390fd5b678ac7230489e800008110156105f757604051637e3f2b7d60e01b815260040160405180910390fd5b815460009061060890600390611d8a565b336000908152600760205260408120600281015492935091831161062d57600061063c565b600282015461063c9084611da1565b9050806000036106965760078501805460ff1916905560405133907ffa1eb7ba4f65747c7c8882031eb92d63b6fcb684b75052185312fbe1a488d94390600090a26040516305a2e88560e21b815260040160405180910390fd5b808411156106a2578093505b60006127106106b36103e887611d8a565b6106bd9190611db4565b905060006106cb8287611da1565b600080546040516311ea9fa960e21b81526004810184905292935090916001600160a01b03909116906347aa7ea490602401602060405180830381865afa15801561071a573d6000803e3d6000fd5b505050506040513d601f19601f8201168201806040525081019061073e9190611dd6565b9050806000036107615760405163cc88465760e01b815260040160405180910390fd5b6040516370a0823160e01b815230600482015281907f00000000000000000000000000000000000000000000000000000000000000006001600160a01b0316906370a0823190602401602060405180830381865afa1580156107c7573d6000803e3d6000fd5b505050506040513d601f19601f820116820180604052508101906107eb9190611dd6565b101561080a5760405163075e464560e01b815260040160405180910390fd5b8688600501600082825461081e9190611def565b9091555050426004890155600285018054889190600090610840908490611def565b9250508190555086600a60008282546108599190611def565b909155505060068801546005890154106108a55760078801805460ff1916905560405133907ffa1eb7ba4f65747c7c8882031eb92d63b6fcb684b75052185312fbe1a488d94390600090a25b6108d96001600160a01b037f0000000000000000000000000000000000000000000000000000000000000000163383611739565b6002546001600160a01b03161561097257600060646108f9896005611d8a565b6109039190611db4565b9050801561097057600254604051638000d99160e01b8152336004820152602481018390526001600160a01b0390911690638000d99190604401600060405180830381600087803b15801561095757600080fd5b505af115801561096b573d6000803e3d6000fd5b505050505b505b60408051888152602081018390529081018a905233907f56253d287efacdb2c4cd76dd03624a4821c1ce721d1152e8f5f5718f6087c9bf9060600160405180910390a2600285015460405190815233907fdad0e43afdd45daca2566e861ff76f0250960d86947518722c83b1e03f45edd59060200160405180910390a25050505050505050610a0e6001600080516020611e4f83398151915255565b50565b6005546001600160a01b03163314610a3c57604051630e05f48560e11b815260040160405180910390fd5b60058054821515600160a81b0260ff60a81b199091161790556040517f5ef34f53269a04b5b817e5be24a51ba6b477118b399ec9dd5b2baf5b299563dc90610a8990831515815260200190565b60405180910390a150565b610a9c611580565b6000610aa8338361159c565b8054600582015491925090600090821115610ad3576005830154610acc9083611da1565b9050610ad7565b5060005b6007808401805460ff19169055336000908152602091909152604081208054849290610b04908490611da1565b925050819055508160096000828254610b1d9190611def565b90915550506002546001600160a01b031615610b915760025460405163095ce44b60e21b81523360048201526001600160a01b0390911690632573912c90602401600060405180830381600087803b158015610b7857600080fd5b505af1158015610b8c573d6000803e3d6000fd5b505050505b8015610d8f57600080546040516311ea9fa960e21b8152600481018490526001600160a01b03909116906347aa7ea490602401602060405180830381865afa158015610be1573d6000803e3d6000fd5b505050506040513d601f19601f82011682018060405250810190610c059190611dd6565b9050600081118015610c9f57506040516370a0823160e01b815230600482015281907f00000000000000000000000000000000000000000000000000000000000000006001600160a01b0316906370a0823190602401602060405180830381865afa158015610c78573d6000803e3d6000fd5b505050506040513d601f19601f82011682018060405250810190610c9c9190611dd6565b10155b15610d5957600054610cde906001600160a01b037f00000000000000000000000000000000000000000000000000000000000000008116911683611778565b60005460405163f843e64160e01b8152600481018390523360248201526001600160a01b039091169063f843e641906044016020604051808303816000875af1158015610d2f573d6000803e3d6000fd5b505050506040513d601f19601f82011682018060405250810190610d539190611dd6565b50610d8d565b610d8d6001600160a01b037f0000000000000000000000000000000000000000000000000000000000000000163384611739565b505b604080518281526020810186905233917f217ea3989b9d3112d2133a930216f444b7fbcaeaa4d5bc0220d099fdc928e71e910160405180910390a2505050610a0e6001600080516020611e4f83398151915255565b6002546001600160a01b03163314610e0f57604051633864b1e560e21b815260040160405180910390fd5b6001600160a01b03821660009081526007602052604081206002018054839290610e3a908490611def565b90915550506001600160a01b0382166000818152600760209081526040918290206002015491519182527fdad0e43afdd45daca2566e861ff76f0250960d86947518722c83b1e03f45edd5910160405180910390a25050565b6004546001600160a01b03163314610ebe57604051634755657960e01b815260040160405180910390fd5b600554600160a01b900460ff1615610ee95760405163238f75d360e01b815260040160405180910390fd5b6001600160a01b038216610f105760405163d92e233d60e01b815260040160405180910390fd5b600180546001600160a01b03199081166001600160a01b03978816179091556002805482169587169590951790945560038054851693861693909317909255600080548416918516919091179055600580549092169216919091179055565b6004546001600160a01b03163314610f9a57604051634755657960e01b815260040160405180910390fd5b600554600160a01b900460ff1615610fc55760405163238f75d360e01b815260040160405180910390fd5b6001546001600160a01b0316610fee5760405163d311bc3960e01b815260040160405180910390fd5b6005805460ff60a01b1916600160a01b179055600480546001600160a01b0319169055565b6005546001600160a01b0316331461103e57604051630e05f48560e11b815260040160405180910390fd5b6002546040516001600160a01b038084169216907feefe1ce2782e4ba3bbccd79617fae74979fa22005f22f7075c0910cd51c8ffd990600090a3600280546001600160a01b0319166001600160a01b0392909216919091179055565b6003546001600160a01b03163314610e0f57604051633327311360e11b815260040160405180910390fd5b6110cd611580565b600554600160a81b900460ff16156110f757604051627cfe7f60e31b815260040160405180910390fd5b678ac7230489e8000081101561112057604051632b7786bd60e21b815260040160405180910390fd5b69010f0cf064dd5920000081111561114b5760405163c066e1e960e01b815260040160405180910390fd5b6000546001600160a01b03166111745760405163d311bc3960e01b815260040160405180910390fd5b6111a96001600160a01b037f0000000000000000000000000000000000000000000000000000000000000000163330846117cc565b6000546111e3906001600160a01b037f00000000000000000000000000000000000000000000000000000000000000008116911683611778565b6000805460405163066102ad60e11b8152600481018490526001600160a01b0390911690630cc2055a906024016020604051808303816000875af115801561122f573d6000803e3d6000fd5b505050506040513d601f19601f820116820180604052508101906112539190611dd6565b9050600061126083611808565b9050600061126d8461185b565b9050600061127c600386611d8a565b3360008181526006602081815260408084208151610100810183528c81528084018b81528184018b815242606084018181526080850191825260a085018a815260c086018d8152600160e0880181815289548083018b55998e528b8e2098516008909a0290980198895595519588019590955592516002870155516003860155516004850155516005840155519482019490945592516007938401805460ff19169115159190911790559383525290812080549293508792909190611342908490611def565b909155505033600090815260076020526040812060010180549161136583611e02565b9190505550846008600082825461137c9190611def565b90915550506002546001600160a01b0316156113f05760025460405163095ce44b60e21b81523360048201526001600160a01b0390911690632573912c90602401600060405180830381600087803b1580156113d757600080fd5b505af11580156113eb573d6000803e3d6000fd5b505050505b6003546001600160a01b03161580159061141457506002546001600160a01b031615155b15611423576114233386611978565b336000818152600660205260409020547fe3b53cd1a44fbf11535e145d80b8ef1ed6d57a73bf5daa7e939b6b01657d65499087908690869061146790600190611da1565b60408051948552602085019390935291830152606082015260800160405180910390a250505050610a0e6001600080516020611e4f83398151915255565b6001600160a01b03811660009081526007602052604081205481036114cc57506000919050565b6001600160a01b0382166000908152600760205260409020546114ee90611808565b92915050565b6001600160a01b038216600090815260066020526040812054821061151b575060006114ee565b6001600160a01b038316600090815260066020526040812080548490811061154557611545611e1b565b60009182526020909120600890910201600781015490915060ff1661156e5760009150506114ee565b611578848261163d565b949350505050565b611588611ab1565b6002600080516020611e4f83398151915255565b6001600160a01b03821660009081526006602052604081205482106115d457604051635972996f60e11b815260040160405180910390fd5b6001600160a01b03831660009081526006602052604081208054849081106115fe576115fe611e1b565b60009182526020909120600890910201600781015490915060ff16611636576040516305a2e88560e21b815260040160405180910390fd5b9392505050565b600781015460009060ff16611654575060006114ee565b60008260040154426116669190611da1565b90508060000361167a5760009150506114ee565b6000611689846000015461185b565b90506276a7006116b97f000000000000000000000000000000000000000000000000000000000000000042611da1565b106116c25750602d5b6116d161271062015180611d8a565b845483906116e0908490611d8a565b6116ea9190611d8a565b6116f49190611db4565b92506000846005015485600601541161170e576000611722565b846005015485600601546117229190611da1565b905080841115611730578093505b50505092915050565b6117468383836001611ae3565b61177357604051635274afe760e01b81526001600160a01b03841660048201526024015b60405180910390fd5b505050565b6117858383836000611b49565b61177357611797838360006001611b49565b6117bf57604051635274afe760e01b81526001600160a01b038416600482015260240161176a565b6117468383836001611b49565b6117da848484846001611b96565b61180257604051635274afe760e01b81526001600160a01b038516600482015260240161176a565b50505050565b600069010f0cf064dd59200000821061182357506004919050565b68878678326eac900000821061183b57506003919050565b681b1ae4d6e2ef500000821061185357506002919050565b506001919050565b6000806118887f000000000000000000000000000000000000000000000000000000000000000042611da1565b90506276a700811061189d5750602d92915050565b60006118a884611808565b9050806001036118d25761157884678ac7230489e80000681b0d04202f47ec000060326064611c08565b806002036118fb5761157884681b1ae4d6e2ef500000688778977bbb052c0000604b6073611c08565b80600303611925576115788468878678326eac90000069010eff0fae29b1bc000060646096611c08565b6000690a968163f0a57b400000851161193e578461194a565b690a968163f0a57b4000005b905061196f8169010f0cf064dd59200000690a968163f0a57b400000606460af611c08565b95945050505050565b6002546001600160a01b0316158061199957506003546001600160a01b0316155b156119a2575050565b8160005b601481101561180257600254604051634a9fefc760e01b81526001600160a01b0384811660048301526000921690634a9fefc790602401602060405180830381865afa1580156119fa573d6000803e3d6000fd5b505050506040513d601f19601f82011682018060405250810190611a1e9190611e31565b90506001600160a01b038116611a345750611802565b60035460405163d9bd5f2d60e01b81526001600160a01b0383811660048301528581166024830152604482018790529091169063d9bd5f2d90606401600060405180830381600087803b158015611a8a57600080fd5b505af1158015611a9e573d6000803e3d6000fd5b5092945050600190920191506119a69050565b600080516020611e4f83398151915254600203611ae157604051633ee5aeb560e01b815260040160405180910390fd5b565b60405163a9059cbb60e01b60008181526001600160a01b038616600452602485905291602083604481808b5af192506001600051148316611b3d578383151615611b30573d6000823e3d81fd5b6000873b113d1516831692505b60405250949350505050565b60405163095ea7b360e01b60008181526001600160a01b038616600452602485905291602083604481808b5af192506001600051148316611b3d578383151615611b30573d6000823e3d81fd5b6040516323b872dd60e01b60008181526001600160a01b038781166004528616602452604485905291602083606481808c5af192506001600051148316611bf6578383151615611be9573d6000823e3d81fd5b6000883b113d1516831692505b60405250600060605295945050505050565b6000848411611c1857508161196f565b6000611c248484611da1565b90506000611c328787611da1565b90508082611c40898b611da1565b611c4a9190611d8a565b611c549190611db4565b611c5e9086611def565b98975050505050505050565b6001600160a01b0381168114610a0e57600080fd5b60008060408385031215611c9257600080fd5b8235611c9d81611c6a565b946020939093013593505050565b600060208284031215611cbd57600080fd5b5035919050565b600060208284031215611cd657600080fd5b813561163681611c6a565b600060208284031215611cf357600080fd5b8135801515811461163657600080fd5b600080600080600060a08688031215611d1b57600080fd5b8535611d2681611c6a565b94506020860135611d3681611c6a565b93506040860135611d4681611c6a565b92506060860135611d5681611c6a565b91506080860135611d6681611c6a565b809150509295509295909350565b634e487b7160e01b600052601160045260246000fd5b80820281158282048414176114ee576114ee611d74565b818103818111156114ee576114ee611d74565b600082611dd157634e487b7160e01b600052601260045260246000fd5b500490565b600060208284031215611de857600080fd5b5051919050565b808201808211156114ee576114ee611d74565b600060018201611e1457611e14611d74565b5060010190565b634e487b7160e01b600052603260045260246000fd5b600060208284031215611e4357600080fd5b815161163681611c6a56fe9b779b17422d0df92223018b32b4d1fa46e071723d6817e2486d003becc55f00a2646970667358221220ec24a61abb97585afcc62ccbddf9ce6c8b47cd4b3c9498ddb6a89f04eb19b82d64736f6c63430008180033",
  "linkReferences": {},
  "deployedLinkReferences": {}
}