{
  "_format": "hh-sol-artifact-1",
  "contractName": "OSLORankSystem",
  "sourceName": "contracts/OSLORankSystem.sol",
  "abi": [
    {
      "inputs": [
        {
          "internalType": "address",
          "name": "_usdt",
          "type": "address"
        }
      ],
      "stateMutability": "nonpayable",
      "type": "constructor"
    },
    {
      "inputs": [],
      "name": "AlreadyClaimed",
      "type": "error"
    },
    {
      "inputs": [],
      "name": "CurrentWeekNotClaimable",
      "type": "error"
    },
    {
      "inputs": [],
      "name": "InsufficientBonusPool",
      "type": "error"
    },
    {
      "inputs": [],
      "name": "NoBonus",
      "type": "error"
    },
    {
      "inputs": [],
      "name": "OnlyAdmin",
      "type": "error"
    },
    {
      "inputs": [],
      "name": "ReentrancyGuardReentrantCall",
      "type": "error"
    },
    {
      "inputs": [
        {
          "internalType": "address",
          "name": "token",
          "type": "address"
        }
      ],
      "name": "SafeERC20FailedOperation",
      "type": "error"
    },
    {
      "inputs": [],
      "name": "SetupAlreadyComplete",
      "type": "error"
    },
    {
      "inputs": [],
      "name": "ZeroAddress",
      "type": "error"
    },
    {
      "anonymous": false,
      "inputs": [
        {
          "indexed": false,
          "internalType": "uint256",
          "name": "amount",
          "type": "uint256"
        }
      ],
      "name": "BonusPoolFunded",
      "type": "event"
    },
    {
      "anonymous": false,
      "inputs": [
        {
          "indexed": true,
          "internalType": "address",
          "name": "user",
          "type": "address"
        },
        {
          "indexed": false,
          "internalType": "uint256",
          "name": "rank",
          "type": "uint256"
        },
        {
          "indexed": false,
          "internalType": "uint256",
          "name": "weekId",
          "type": "uint256"
        },
        {
          "indexed": false,
          "internalType": "uint256",
          "name": "turnover",
          "type": "uint256"
        }
      ],
      "name": "RankAchieved",
      "type": "event"
    },
    {
      "anonymous": false,
      "inputs": [
        {
          "indexed": true,
          "internalType": "address",
          "name": "user",
          "type": "address"
        },
        {
          "indexed": false,
          "internalType": "uint256",
          "name": "amount",
          "type": "uint256"
        },
        {
          "indexed": false,
          "internalType": "uint256",
          "name": "weekId",
          "type": "uint256"
        }
      ],
      "name": "RankBonusClaimed",
      "type": "event"
    },
    {
      "anonymous": false,
      "inputs": [
        {
          "indexed": true,
          "internalType": "address",
          "name": "user",
          "type": "address"
        },
        {
          "indexed": false,
          "internalType": "uint256",
          "name": "amount",
          "type": "uint256"
        },
        {
          "indexed": false,
          "internalType": "uint256",
          "name": "weekId",
          "type": "uint256"
        }
      ],
      "name": "TurnoverRecorded",
      "type": "event"
    },
    {
      "inputs": [],
      "name": "admin",
      "outputs": [
        {
          "internalType": "address",
          "name": "",
          "type": "address"
        }
      ],
      "stateMutability": "view",
      "type": "function"
    },
    {
      "inputs": [],
      "name": "bonusPoolBalance",
      "outputs": [
        {
          "internalType": "uint256",
          "name": "",
          "type": "uint256"
        }
      ],
      "stateMutability": "view",
      "type": "function"
    },
    {
      "inputs": [],
      "name": "claimRankBonus",
      "outputs": [],
      "stateMutability": "nonpayable",
      "type": "function"
    },
    {
      "inputs": [],
      "name": "completeSetup",
      "outputs": [],
      "stateMutability": "nonpayable",
      "type": "function"
    },
    {
      "inputs": [
        {
          "internalType": "address",
          "name": "_investmentEngine",
          "type": "address"
        },
        {
          "internalType": "address",
          "name": "_referral",
          "type": "address"
        },
        {
          "internalType": "address",
          "name": "_timelock",
          "type": "address"
        }
      ],
      "name": "configure",
      "outputs": [],
      "stateMutability": "nonpayable",
      "type": "function"
    },
    {
      "inputs": [],
      "name": "genesisTimestamp",
      "outputs": [
        {
          "internalType": "uint256",
          "name": "",
          "type": "uint256"
        }
      ],
      "stateMutability": "view",
      "type": "function"
    },
    {
      "inputs": [
        {
          "internalType": "address",
          "name": "user",
          "type": "address"
        }
      ],
      "name": "getCurrentRank",
      "outputs": [
        {
          "internalType": "uint256",
          "name": "",
          "type": "uint256"
        }
      ],
      "stateMutability": "view",
      "type": "function"
    },
    {
      "inputs": [],
      "name": "getCurrentWeekId",
      "outputs": [
        {
          "internalType": "uint256",
          "name": "",
          "type": "uint256"
        }
      ],
      "stateMutability": "view",
      "type": "function"
    },
    {
      "inputs": [
        {
          "internalType": "address",
          "name": "user",
          "type": "address"
        },
        {
          "internalType": "uint256",
          "name": "weekId",
          "type": "uint256"
        },
        {
          "internalType": "address",
          "name": "leg",
          "type": "address"
        }
      ],
      "name": "getLegTurnover",
      "outputs": [
        {
          "internalType": "uint256",
          "name": "",
          "type": "uint256"
        }
      ],
      "stateMutability": "view",
      "type": "function"
    },
    {
      "inputs": [
        {
          "internalType": "address",
          "name": "user",
          "type": "address"
        }
      ],
      "name": "getPendingBonus",
      "outputs": [
        {
          "internalType": "uint256",
          "name": "",
          "type": "uint256"
        }
      ],
      "stateMutability": "view",
      "type": "function"
    },
    {
      "inputs": [
        {
          "internalType": "address",
          "name": "user",
          "type": "address"
        },
        {
          "internalType": "uint256",
          "name": "weekId",
          "type": "uint256"
        }
      ],
      "name": "getWeeklyTurnover",
      "outputs": [
        {
          "internalType": "uint256",
          "name": "",
          "type": "uint256"
        }
      ],
      "stateMutability": "view",
      "type": "function"
    },
    {
      "inputs": [],
      "name": "investmentEngine",
      "outputs": [
        {
          "internalType": "address",
          "name": "",
          "type": "address"
        }
      ],
      "stateMutability": "view",
      "type": "function"
    },
    {
      "inputs": [
        {
          "internalType": "address",
          "name": "user",
          "type": "address"
        }
      ],
      "name": "isRankQualified",
      "outputs": [
        {
          "internalType": "bool",
          "name": "",
          "type": "bool"
        }
      ],
      "stateMutability": "view",
      "type": "function"
    },
    {
      "inputs": [
        {
          "internalType": "address",
          "name": "",
          "type": "address"
        },
        {
          "internalType": "uint256",
          "name": "",
          "type": "uint256"
        },
        {
          "internalType": "address",
          "name": "",
          "type": "address"
        }
      ],
      "name": "legTurnover",
      "outputs": [
        {
          "internalType": "uint256",
          "name": "",
          "type": "uint256"
        }
      ],
      "stateMutability": "view",
      "type": "function"
    },
    {
      "inputs": [
        {
          "internalType": "uint256",
          "name": "amount",
          "type": "uint256"
        }
      ],
      "name": "receiveBonusPool",
      "outputs": [],
      "stateMutability": "nonpayable",
      "type": "function"
    },
    {
      "inputs": [
        {
          "internalType": "address",
          "name": "user",
          "type": "address"
        },
        {
          "internalType": "address",
          "name": "leg",
          "type": "address"
        },
        {
          "internalType": "uint256",
          "name": "amount",
          "type": "uint256"
        }
      ],
      "name": "recordTurnover",
      "outputs": [],
      "stateMutability": "nonpayable",
      "type": "function"
    },
    {
      "inputs": [],
      "name": "referral",
      "outputs": [
        {
          "internalType": "address",
          "name": "",
          "type": "address"
        }
      ],
      "stateMutability": "view",
      "type": "function"
    },
    {
      "inputs": [],
      "name": "setupComplete",
      "outputs": [
        {
          "internalType": "bool",
          "name": "",
          "type": "bool"
        }
      ],
      "stateMutability": "view",
      "type": "function"
    },
    {
      "inputs": [],
      "name": "timelock",
      "outputs": [
        {
          "internalType": "address",
          "name": "",
          "type": "address"
        }
      ],
      "stateMutability": "view",
      "type": "function"
    },
    {
      "inputs": [],
      "name": "totalBonusesDistributed",
      "outputs": [
        {
          "internalType": "uint256",
          "name": "",
          "type": "uint256"
        }
      ],
      "stateMutability": "view",
      "type": "function"
    },
    {
      "inputs": [],
      "name": "usdt",
      "outputs": [
        {
          "internalType": "contract IERC20",
          "name": "",
          "type": "address"
        }
      ],
      "stateMutability": "view",
      "type": "function"
    },
    {
      "inputs": [
        {
          "internalType": "address",
          "name": "",
          "type": "address"
        },
        {
          "internalType": "uint256",
          "name": "",
          "type": "uint256"
        }
      ],
      "name": "weekBonusClaimed",
      "outputs": [
        {
          "internalType": "bool",
          "name": "",
          "type": "bool"
        }
      ],
      "stateMutability": "view",
      "type": "function"
    },
    {
      "inputs": [
        {
          "internalType": "address",
          "name": "",
          "type": "address"
        },
        {
          "internalType": "uint256",
          "name": "",
          "type": "uint256"
        }
      ],
      "name": "weeklyTurnoverData",
      "outputs": [
        {
          "internalType": "uint256",
          "name": "",
          "type": "uint256"
        }
      ],
      "stateMutability": "view",
      "type": "function"
    }
  ],
  "bytecode": "0x60c060405234801561001057600080fd5b5060405161136d38038061136d83398101604081905261002f916100a5565b60017f9b779b17422d0df92223018b32b4d1fa46e071723d6817e2486d003becc55f00556001600160a01b03811661007a5760405163d92e233d60e01b815260040160405180910390fd5b6001600160a01b0316608052600280546001600160a01b03191633179055636592008060a0526100d5565b6000602082840312156100b757600080fd5b81516001600160a01b03811681146100ce57600080fd5b9392505050565b60805160a05161125e61010f6000396000818161034001526109000152600081816101b1015281816104a20152610750015261125e6000f3fe608060405234801561001057600080fd5b506004361061014d5760003560e01c80638b19d70e116100c3578063cacf66ab1161007c578063cacf66ab1461033b578063d31725cc14610362578063d33219b41461036b578063d9bd5f2d1461037e578063f851a44014610391578063fc22833e146103a457600080fd5b80638b19d70e14610295578063952d4c011461029d578063b594b0c7146102cb578063b6635be6146102de578063b835f389146102f2578063bcd3321e1461033357600080fd5b8063301313841161011557806330131384146101f657806355d28f201461020957806357cecd8b1461021e5780635b6bcf3b14610249578063886975471461027a5780638aea8f711461028d57600080fd5b80631441a5a9146101525780632409c9a91461018257806329e9ad82146101a35780632f48ab7d146101ac5780632fe3c0cc146101d3575b600080fd5b600154610165906001600160a01b031681565b6040516001600160a01b0390911681526020015b60405180910390f35b610195610190366004610f8d565b6103b7565b604051908152602001610179565b61019560075481565b6101657f000000000000000000000000000000000000000000000000000000000000000081565b6101e66101e1366004610fb9565b6103e2565b6040519015158152602001610179565b600054610165906001600160a01b031681565b61021c610217366004610fd6565b610400565b005b61019561022c366004610f8d565b600460209081526000928352604080842090915290825290205481565b610195610257366004611021565b600560209081526000938452604080852082529284528284209052825290205481565b61021c610288366004611058565b610495565b61021c610517565b61021c610592565b6101e66102ab366004610f8d565b600660209081526000928352604080842090915290825290205460ff1681565b6101956102d9366004610fb9565b61089c565b6003546101e690600160a01b900460ff1681565b610195610300366004611021565b6001600160a01b039283166000908152600560209081526040808320948352938152838220929094168152925290205490565b6101956108f5565b6101957f000000000000000000000000000000000000000000000000000000000000000081565b61019560085481565b600354610165906001600160a01b031681565b61021c61038c366004611071565b61093f565b600254610165906001600160a01b031681565b6101956103b2366004610fb9565b610a14565b6001600160a01b03821660009081526004602090815260408083208484529091529020545b92915050565b6000806103ed6108f5565b90506103f98382610b03565b9392505050565b6002546001600160a01b0316331461042b57604051634755657960e01b815260040160405180910390fd5b600354600160a01b900460ff16156104565760405163238f75d360e01b815260040160405180910390fd5b600080546001600160a01b039485166001600160a01b031991821617909155600180549385169382169390931790925560038054919093169116179055565b6104ca6001600160a01b037f000000000000000000000000000000000000000000000000000000000000000016333084610c86565b80600760008282546104dc91906110c8565b90915550506040518181527fe0489ce487df31ae7db1f183cd20f4589bfa5715c26827c41e89d4a4b11e4b079060200160405180910390a150565b6002546001600160a01b0316331461054257604051634755657960e01b815260040160405180910390fd5b600354600160a01b900460ff161561056d5760405163238f75d360e01b815260040160405180910390fd5b6003805460ff60a01b1916600160a01b179055600280546001600160a01b0319169055565b61059a610cc7565b60006105a46108f5565b905060006105b36001836110db565b9050806000036105d657604051630330b36160e21b815260040160405180910390fd5b33600090815260066020908152604080832084845290915290205460ff161561061257604051630c8d9eab60e31b815260040160405180910390fd5b61061c3382610b03565b61063957604051630330b36160e21b815260040160405180910390fd5b3360009081526004602090815260408083208484529091528120549061065e82610cf5565b90508060000361068157604051630330b36160e21b815260040160405180910390fd5b600061068c82610daf565b9050600061271061069d83866110ee565b6106a79190611105565b9050806000036106ca57604051630330b36160e21b815260040160405180910390fd5b6007548111156106ed57604051631476485760e31b815260040160405180910390fd5b3360009081526006602090815260408083208884529091528120805460ff19166001179055600780548392906107249084906110db565b92505081905550806008600082825461073d91906110c8565b9091555061077790506001600160a01b037f0000000000000000000000000000000000000000000000000000000000000000163383610e21565b6000546001600160a01b0316156107ed5760005460405163ac948e8360e01b8152336004820152602481018390526001600160a01b039091169063ac948e8390604401600060405180830381600087803b1580156107d457600080fd5b505af11580156107e8573d6000803e3d6000fd5b505050505b604080518481526020810187905290810185905233907f3e7c6fa8ffec4566e8e55031ea1f71dee2bd6dfe73e926dfb6a8f9d449f3845c9060600160405180910390a2604080518281526020810187905233917fd5797264912088cd40b5265cc25f087a017182a84a0aacdca76ebbf8c0d04e89910160405180910390a250505050505061089a60017f9b779b17422d0df92223018b32b4d1fa46e071723d6817e2486d003becc55f0055565b565b6000806108a76108f5565b90506108b38382610b03565b6108c05750600092915050565b6001600160a01b03831660009081526004602090815260408083208484529091529020546108ed81610cf5565b949350505050565b600062093a806109257f0000000000000000000000000000000000000000000000000000000000000000426110db565b61092f9190611105565b61093a9060016110c8565b905090565b60006109496108f5565b6001600160a01b03851660009081526004602090815260408083208484529091528120805492935084929091906109819084906110c8565b90915550506001600160a01b0380851660009081526005602090815260408083208584528252808320938716835292905290812080548492906109c59084906110c8565b909155505060408051838152602081018390526001600160a01b038616917fd5d37757267f0f02fe273b0ead41331fe90ae635b0954da937d3454e9623daf4910160405180910390a250505050565b600080610a1f6108f5565b905060018111610a325750600092915050565b6000610a3f6001836110db565b6001600160a01b038516600090815260066020908152604080832084845290915290205490915060ff1615610a78575060009392505050565b610a828482610b03565b610a90575060009392505050565b6001600160a01b038416600090815260046020908152604080832084845290915281205490610abe82610cf5565b905080600003610ad45750600095945050505050565b6000610adf82610daf565b9050612710610aee82856110ee565b610af89190611105565b979650505050505050565b6001600160a01b0382166000908152600460209081526040808320848452909152812054808203610b385760009150506103dc565b6001546001600160a01b0316610b525760019150506103dc565b60015460405163d2c8e0e560e01b81526001600160a01b038681166004830152600092169063d2c8e0e590602401600060405180830381865afa158015610b9d573d6000803e3d6000fd5b505050506040513d6000823e601f3d908101601f19168201604052610bc5919081019061114d565b90508051600003610bdb576000925050506103dc565b6000805b8251811015610c61576001600160a01b0387166000908152600560209081526040808320898452909152812084518290869085908110610c2157610c21611212565b60200260200101516001600160a01b03166001600160a01b0316815260200190815260200160002054905082811115610c58578092505b50600101610bdf565b50610c6e610fa0846110ee565b610c7a612710836110ee565b11159695505050505050565b610c94848484846001610e5b565b610cc157604051635274afe760e01b81526001600160a01b03851660048201526024015b60405180910390fd5b50505050565b610ccf610ecd565b60027f9b779b17422d0df92223018b32b4d1fa46e071723d6817e2486d003becc55f0055565b60006a02116545850052128000008210610d1157506007919050565b69fe1c215e8f838e0000008210610d2a57506006919050565b6969e10de76676d08000008210610d4357506005919050565b692a5a058fc295ed0000008210610d5c57506004919050565b690fe1c215e8f838e000008210610d7557506003919050565b69054b40b1f852bda000008210610d8e57506002919050565b69021e19e0c9bab24000008210610da757506001919050565b506000919050565b600081600703610dc157506005919050565b81600603610dd15750600a919050565b81600503610de15750600f919050565b81600403610df157506014919050565b81600303610e015750601e919050565b81600203610e1157506032919050565b81600103610da757506064919050565b610e2e8383836001610f0f565b610e5657604051635274afe760e01b81526001600160a01b0384166004820152602401610cb8565b505050565b6040516323b872dd60e01b60008181526001600160a01b038781166004528616602452604485905291602083606481808c5af192506001600051148316610ebb578383151615610eae573d6000823e3d81fd5b6000883b113d1516831692505b60405250600060605295945050505050565b7f9b779b17422d0df92223018b32b4d1fa46e071723d6817e2486d003becc55f005460020361089a57604051633ee5aeb560e01b815260040160405180910390fd5b60405163a9059cbb60e01b60008181526001600160a01b038616600452602485905291602083604481808b5af192506001600051148316610f69578383151615610f5c573d6000823e3d81fd5b6000873b113d1516831692505b60405250949350505050565b6001600160a01b0381168114610f8a57600080fd5b50565b60008060408385031215610fa057600080fd5b8235610fab81610f75565b946020939093013593505050565b600060208284031215610fcb57600080fd5b81356103f981610f75565b600080600060608486031215610feb57600080fd5b8335610ff681610f75565b9250602084013561100681610f75565b9150604084013561101681610f75565b809150509250925092565b60008060006060848603121561103657600080fd5b833561104181610f75565b925060208401359150604084013561101681610f75565b60006020828403121561106a57600080fd5b5035919050565b60008060006060848603121561108657600080fd5b833561109181610f75565b925060208401356110a181610f75565b929592945050506040919091013590565b634e487b7160e01b600052601160045260246000fd5b808201808211156103dc576103dc6110b2565b818103818111156103dc576103dc6110b2565b80820281158282048414176103dc576103dc6110b2565b60008261112257634e487b7160e01b600052601260045260246000fd5b500490565b634e487b7160e01b600052604160045260246000fd5b805161114881610f75565b919050565b6000602080838503121561116057600080fd5b825167ffffffffffffffff8082111561117857600080fd5b818501915085601f83011261118c57600080fd5b81518181111561119e5761119e611127565b8060051b604051601f19603f830116810181811085821117156111c3576111c3611127565b6040529182528482019250838101850191888311156111e157600080fd5b938501935b82851015611206576111f78561113d565b845293850193928501926111e6565b98975050505050505050565b634e487b7160e01b600052603260045260246000fdfea2646970667358221220bfb525b0f98ffeb657133a871d5236e90fa014676934f45e5ea2361a3e176f6d64736f6c63430008180033",
  "linkReferences": {},
  "deployedLinkReferences": {}
}