{
  "_format": "hh-sol-artifact-1",
  "contractName": "OSLOReferral",
  "sourceName": "contracts/OSLOReferral.sol",
  "abi": [
    {
      "inputs": [
        {
          "internalType": "address",
          "name": "_usdt",
          "type": "address"
        },
        {
          "internalType": "address",
          "name": "_osloToken",
          "type": "address"
        }
      ],
      "stateMutability": "nonpayable",
      "type": "constructor"
    },
    {
      "inputs": [],
      "name": "AlreadyRegistered",
      "type": "error"
    },
    {
      "inputs": [],
      "name": "InvalidReferrer",
      "type": "error"
    },
    {
      "inputs": [],
      "name": "NotRegistered",
      "type": "error"
    },
    {
      "inputs": [],
      "name": "NothingToClaim",
      "type": "error"
    },
    {
      "inputs": [],
      "name": "OnlyAdmin",
      "type": "error"
    },
    {
      "inputs": [],
      "name": "OnlyInvestmentEngine",
      "type": "error"
    },
    {
      "inputs": [],
      "name": "OnlyTimelock",
      "type": "error"
    },
    {
      "inputs": [],
      "name": "ReentrancyGuardReentrantCall",
      "type": "error"
    },
    {
      "inputs": [
        {
          "internalType": "address",
          "name": "token",
          "type": "address"
        }
      ],
      "name": "SafeERC20FailedOperation",
      "type": "error"
    },
    {
      "inputs": [],
      "name": "SelfReferral",
      "type": "error"
    },
    {
      "inputs": [],
      "name": "SetupAlreadyComplete",
      "type": "error"
    },
    {
      "inputs": [],
      "name": "ZeroAddress",
      "type": "error"
    },
    {
      "anonymous": false,
      "inputs": [
        {
          "indexed": true,
          "internalType": "address",
          "name": "user",
          "type": "address"
        },
        {
          "indexed": false,
          "internalType": "uint256",
          "name": "level",
          "type": "uint256"
        }
      ],
      "name": "LevelUnlocked",
      "type": "event"
    },
    {
      "anonymous": false,
      "inputs": [
        {
          "indexed": true,
          "internalType": "address",
          "name": "upline",
          "type": "address"
        },
        {
          "indexed": true,
          "internalType": "address",
          "name": "downline",
          "type": "address"
        },
        {
          "indexed": false,
          "internalType": "uint256",
          "name": "level",
          "type": "uint256"
        },
        {
          "indexed": false,
          "internalType": "uint256",
          "name": "amount",
          "type": "uint256"
        }
      ],
      "name": "ReferralPaid",
      "type": "event"
    },
    {
      "anonymous": false,
      "inputs": [
        {
          "indexed": true,
          "internalType": "address",
          "name": "user",
          "type": "address"
        },
        {
          "indexed": false,
          "internalType": "uint256",
          "name": "amount",
          "type": "uint256"
        }
      ],
      "name": "ReferralRewardsClaimed",
      "type": "event"
    },
    {
      "anonymous": false,
      "inputs": [
        {
          "indexed": true,
          "internalType": "address",
          "name": "user",
          "type": "address"
        },
        {
          "indexed": false,
          "internalType": "uint256",
          "name": "fee",
          "type": "uint256"
        },
        {
          "indexed": false,
          "internalType": "uint256",
          "name": "osloBurned",
          "type": "uint256"
        }
      ],
      "name": "RegistrationFeeProcessed",
      "type": "event"
    },
    {
      "anonymous": false,
      "inputs": [
        {
          "indexed": true,
          "internalType": "address",
          "name": "user",
          "type": "address"
        },
        {
          "indexed": true,
          "internalType": "address",
          "name": "referrer",
          "type": "address"
        }
      ],
      "name": "UserRegistered",
      "type": "event"
    },
    {
      "inputs": [],
      "name": "REGISTRATION_FEE",
      "outputs": [
        {
          "internalType": "uint256",
          "name": "",
          "type": "uint256"
        }
      ],
      "stateMutability": "view",
      "type": "function"
    },
    {
      "inputs": [],
      "name": "admin",
      "outputs": [
        {
          "internalType": "address",
          "name": "",
          "type": "address"
        }
      ],
      "stateMutability": "view",
      "type": "function"
    },
    {
      "inputs": [
        {
          "internalType": "address",
          "name": "user",
          "type": "address"
        }
      ],
      "name": "checkAndUnlockLevels",
      "outputs": [],
      "stateMutability": "nonpayable",
      "type": "function"
    },
    {
      "inputs": [],
      "name": "claimReferralRewards",
      "outputs": [],
      "stateMutability": "nonpayable",
      "type": "function"
    },
    {
      "inputs": [],
      "name": "completeSetup",
      "outputs": [],
      "stateMutability": "nonpayable",
      "type": "function"
    },
    {
      "inputs": [
        {
          "internalType": "address",
          "name": "_investmentEngine",
          "type": "address"
        },
        {
          "internalType": "address",
          "name": "_osloDex",
          "type": "address"
        },
        {
          "internalType": "address",
          "name": "_timelock",
          "type": "address"
        }
      ],
      "name": "configure",
      "outputs": [],
      "stateMutability": "nonpayable",
      "type": "function"
    },
    {
      "inputs": [
        {
          "internalType": "address",
          "name": "user",
          "type": "address"
        },
        {
          "internalType": "uint256",
          "name": "profitAmount",
          "type": "uint256"
        }
      ],
      "name": "distributeReferralCommission",
      "outputs": [],
      "stateMutability": "nonpayable",
      "type": "function"
    },
    {
      "inputs": [
        {
          "internalType": "address",
          "name": "user",
          "type": "address"
        }
      ],
      "name": "getAllLevelIncome",
      "outputs": [
        {
          "internalType": "uint256[21]",
          "name": "",
          "type": "uint256[21]"
        }
      ],
      "stateMutability": "view",
      "type": "function"
    },
    {
      "inputs": [
        {
          "internalType": "address",
          "name": "user",
          "type": "address"
        }
      ],
      "name": "getDirectReferrals",
      "outputs": [
        {
          "internalType": "address[]",
          "name": "",
          "type": "address[]"
        }
      ],
      "stateMutability": "view",
      "type": "function"
    },
    {
      "inputs": [
        {
          "internalType": "address",
          "name": "user",
          "type": "address"
        },
        {
          "internalType": "uint256",
          "name": "level",
          "type": "uint256"
        }
      ],
      "name": "getLevelIncome",
      "outputs": [
        {
          "internalType": "uint256",
          "name": "",
          "type": "uint256"
        }
      ],
      "stateMutability": "view",
      "type": "function"
    },
    {
      "inputs": [
        {
          "internalType": "address",
          "name": "user",
          "type": "address"
        }
      ],
      "name": "getQualifiedDirectsCount",
      "outputs": [
        {
          "internalType": "uint256",
          "name": "",
          "type": "uint256"
        }
      ],
      "stateMutability": "view",
      "type": "function"
    },
    {
      "inputs": [
        {
          "internalType": "address",
          "name": "user",
          "type": "address"
        }
      ],
      "name": "getReferrer",
      "outputs": [
        {
          "internalType": "address",
          "name": "",
          "type": "address"
        }
      ],
      "stateMutability": "view",
      "type": "function"
    },
    {
      "inputs": [
        {
          "internalType": "address",
          "name": "user",
          "type": "address"
        }
      ],
      "name": "getTeamSize",
      "outputs": [
        {
          "internalType": "uint256",
          "name": "",
          "type": "uint256"
        }
      ],
      "stateMutability": "view",
      "type": "function"
    },
    {
      "inputs": [
        {
          "internalType": "address",
          "name": "user",
          "type": "address"
        }
      ],
      "name": "getUnlockedLevels",
      "outputs": [
        {
          "internalType": "uint256",
          "name": "",
          "type": "uint256"
        }
      ],
      "stateMutability": "view",
      "type": "function"
    },
    {
      "inputs": [],
      "name": "investmentEngine",
      "outputs": [
        {
          "internalType": "address",
          "name": "",
          "type": "address"
        }
      ],
      "stateMutability": "view",
      "type": "function"
    },
    {
      "inputs": [
        {
          "internalType": "address",
          "name": "user",
          "type": "address"
        }
      ],
      "name": "isRegistered",
      "outputs": [
        {
          "internalType": "bool",
          "name": "",
          "type": "bool"
        }
      ],
      "stateMutability": "view",
      "type": "function"
    },
    {
      "inputs": [
        {
          "internalType": "address",
          "name": "",
          "type": "address"
        },
        {
          "internalType": "uint256",
          "name": "",
          "type": "uint256"
        }
      ],
      "name": "levelIncome",
      "outputs": [
        {
          "internalType": "uint256",
          "name": "",
          "type": "uint256"
        }
      ],
      "stateMutability": "view",
      "type": "function"
    },
    {
      "inputs": [
        {
          "internalType": "address[]",
          "name": "_users",
          "type": "address[]"
        },
        {
          "internalType": "address[]",
          "name": "_referrers",
          "type": "address[]"
        },
        {
          "internalType": "uint256[]",
          "name": "_unlockedLevels",
          "type": "uint256[]"
        }
      ],
      "name": "migrateUsers",
      "outputs": [],
      "stateMutability": "nonpayable",
      "type": "function"
    },
    {
      "inputs": [],
      "name": "osloDex",
      "outputs": [
        {
          "internalType": "address",
          "name": "",
          "type": "address"
        }
      ],
      "stateMutability": "view",
      "type": "function"
    },
    {
      "inputs": [],
      "name": "osloToken",
      "outputs": [
        {
          "internalType": "contract IERC20",
          "name": "",
          "type": "address"
        }
      ],
      "stateMutability": "view",
      "type": "function"
    },
    {
      "inputs": [
        {
          "internalType": "address",
          "name": "",
          "type": "address"
        }
      ],
      "name": "referralRewards",
      "outputs": [
        {
          "internalType": "uint256",
          "name": "",
          "type": "uint256"
        }
      ],
      "stateMutability": "view",
      "type": "function"
    },
    {
      "inputs": [
        {
          "internalType": "address",
          "name": "user",
          "type": "address"
        },
        {
          "internalType": "address",
          "name": "referrer",
          "type": "address"
        }
      ],
      "name": "register",
      "outputs": [],
      "stateMutability": "nonpayable",
      "type": "function"
    },
    {
      "inputs": [
        {
          "internalType": "address",
          "name": "_investmentEngine",
          "type": "address"
        }
      ],
      "name": "setInvestmentEngine",
      "outputs": [],
      "stateMutability": "nonpayable",
      "type": "function"
    },
    {
      "inputs": [],
      "name": "setupComplete",
      "outputs": [
        {
          "internalType": "bool",
          "name": "",
          "type": "bool"
        }
      ],
      "stateMutability": "view",
      "type": "function"
    },
    {
      "inputs": [],
      "name": "timelock",
      "outputs": [
        {
          "internalType": "address",
          "name": "",
          "type": "address"
        }
      ],
      "stateMutability": "view",
      "type": "function"
    },
    {
      "inputs": [],
      "name": "totalCommissionsPaid",
      "outputs": [
        {
          "internalType": "uint256",
          "name": "",
          "type": "uint256"
        }
      ],
      "stateMutability": "view",
      "type": "function"
    },
    {
      "inputs": [],
      "name": "totalFeesCollected",
      "outputs": [
        {
          "internalType": "uint256",
          "name": "",
          "type": "uint256"
        }
      ],
      "stateMutability": "view",
      "type": "function"
    },
    {
      "inputs": [],
      "name": "totalRegistered",
      "outputs": [
        {
          "internalType": "uint256",
          "name": "",
          "type": "uint256"
        }
      ],
      "stateMutability": "view",
      "type": "function"
    },
    {
      "inputs": [],
      "name": "usdt",
      "outputs": [
        {
          "internalType": "contract IERC20",
          "name": "",
          "type": "address"
        }
      ],
      "stateMutability": "view",
      "type": "function"
    },
    {
      "inputs": [
        {
          "internalType": "address",
          "name": "",
          "type": "address"
        }
      ],
      "name": "userInfo",
      "outputs": [
        {
          "internalType": "address",
          "name": "referrer",
          "type": "address"
        },
        {
          "internalType": "uint256",
          "name": "unlockedLevels",
          "type": "uint256"
        },
        {
          "internalType": "uint256",
          "name": "totalEarned",
          "type": "uint256"
        },
        {
          "internalType": "bool",
          "name": "registered",
          "type": "bool"
        }
      ],
      "stateMutability": "view",
      "type": "function"
    }
  ],
  "bytecode": "0x60c06040523480156200001157600080fd5b5060405162001ac838038062001ac88339810160408190526200003491620000dc565b60017f9b779b17422d0df92223018b32b4d1fa46e071723d6817e2486d003becc55f00556001600160a01b03821615806200007657506001600160a01b038116155b15620000955760405163d92e233d60e01b815260040160405180910390fd5b6001600160a01b039182166080521660a052600280546001600160a01b0319163317905562000114565b80516001600160a01b0381168114620000d757600080fd5b919050565b60008060408385031215620000f057600080fd5b620000fb83620000bf565b91506200010b60208401620000bf565b90509250929050565b60805160a0516119796200014f60003960006102fb01526000818161033a015281816105a401528181610c070152610c7801526119796000f3fe608060405234801561001057600080fd5b50600436106101da5760003560e01c806364df822211610104578063b8458282116100a2578063cb4f51d111610071578063cb4f51d1146104fc578063d2c8e0e51461050f578063d33219b41461052f578063f851a4401461054257600080fd5b8063b84582821461049d578063c3c5a547146104b0578063c631e2bd146104e0578063c6d83fcf146104f357600080fd5b80638aea8f71116100de5780638aea8f7114610455578063927416c01461045d578063aa67735414610466578063b6635be61461047957600080fd5b806364df8222146103f95780638000d9911461042f5780638565c2bf1461044257600080fd5b80632f48ab7d1161017c57806353aaa63b1161014b57806353aaa63b146103ae57806355d28f20146103ce57806360c6d8ae146103e157806364b4f751146103ea57600080fd5b80632f48ab7d14610335578063301313841461035c5780634a9fefc71461036f578063519f16401461039b57600080fd5b80631e97f48a116101b85780631e97f48a146102975780631f791b69146102b75780632573912c146102e35780632acfbca3146102f657600080fd5b806305eaab4b146101df5780630b35d7d1146101e95780631959a00214610227575b600080fd5b6101e7610555565b005b6102146101f7366004611672565b600660209081526000928352604080842090915290825290205481565b6040519081526020015b60405180910390f35b61026b61023536600461169c565b600460208190526000918252604090912080546002820154600383015492909301546001600160a01b0390911692919060ff1684565b604080516001600160a01b0390951685526020850193909352918301521515606082015260800161021e565b6102aa6102a536600461169c565b610634565b60405161021e91906116be565b6102146102c536600461169c565b6001600160a01b031660009081526004602052604090206002015490565b6101e76102f136600461169c565b6106cc565b61031d7f000000000000000000000000000000000000000000000000000000000000000081565b6040516001600160a01b03909116815260200161021e565b61031d7f000000000000000000000000000000000000000000000000000000000000000081565b60005461031d906001600160a01b031681565b61031d61037d36600461169c565b6001600160a01b039081166000908152600460205260409020541690565b6102146103a936600461169c565b6107c5565b6102146103bc36600461169c565b60056020526000908152604090205481565b6101e76103dc3660046116f0565b6107d8565b61021460095481565b610214670de0b6b3a764000081565b610214610407366004611672565b6001600160a01b03919091166000908152600660209081526040808320938352929052205490565b6101e761043d366004611672565b61086d565b60015461031d906001600160a01b031681565b6101e7610a95565b61021460075481565b6101e7610474366004611733565b610b10565b60035461048d90600160a01b900460ff1681565b604051901515815260200161021e565b6102146104ab36600461169c565b610e3b565b61048d6104be36600461169c565b6001600160a01b03166000908152600460208190526040909120015460ff1690565b6101e76104ee3660046117b2565b610e46565b61021460085481565b6101e761050a36600461169c565b6110a6565b61052261051d36600461169c565b6110f3565b60405161021e919061184c565b60035461031d906001600160a01b031681565b60025461031d906001600160a01b031681565b61055d61116c565b336000908152600560205260408120549081900361058e576040516312d37ee560e31b815260040160405180910390fd5b336000818152600560205260408120556105d3907f00000000000000000000000000000000000000000000000000000000000000006001600160a01b0316908361119a565b60405181815233907f98741ecf35c5d20a8ed68dbd8540500684864a6c98c2a41a5844d0b3a2357d439060200160405180910390a25061063260017f9b779b17422d0df92223018b32b4d1fa46e071723d6817e2486d003becc55f0055565b565b61063c611637565b610644611637565b60015b601481116106c5576001600160a01b038416600090815260066020908152604080832084845290915290205482826015811061068557610685611899565b602002015281816015811061069c5761069c611899565b6020020151825183906106b09083906118c5565b905250806106bd816118d8565b915050610647565b5092915050565b6001600160a01b0381166000908152600460208190526040909120015460ff166106f35750565b60006106fe826111cf565b9050600061070b826112d9565b6001600160a01b0384166000908152600460205260409020600201549091508111156107c0576001600160a01b03831660009081526004602052604081206002018054908390559061075e8260016118c5565b90505b8281116107bd57846001600160a01b03167f084d80ac1b703449f5931daa49aa5ad902f79624e20313db57074f53c5aca341826040516107a391815260200190565b60405180910390a2806107b5816118d8565b915050610761565b50505b505050565b60006107d2826000611333565b92915050565b6002546001600160a01b0316331461080357604051634755657960e01b815260040160405180910390fd5b600354600160a01b900460ff161561082e5760405163238f75d360e01b815260040160405180910390fd5b600080546001600160a01b039485166001600160a01b031991821617909155600180549385169382169390931790925560038054919093169116179055565b80600003610879575050565b8160015b60148111610a8f576001600160a01b0380831660009081526004602052604090205416806108ab5750610a8f565b6001600160a01b0381166000908152600460205260409020600201548211610a7b5760006108d8836113c5565b905060006127106108e983886118f1565b6108f39190611908565b90508015610a78576001600160a01b038316600090815260056020526040812080548392906109239084906118c5565b90915550506001600160a01b03831660009081526006602090815260408083208784529091528120805483929061095b9084906118c5565b90915550506001600160a01b0383166000908152600460205260408120600301805483929061098b9084906118c5565b9250508190555080600860008282546109a491906118c5565b90915550506000546001600160a01b031615610a21576000546040516335cfbd5b60e11b81526001600160a01b0385811660048301526024820184905290911690636b9f7ab690604401600060405180830381600087803b158015610a0857600080fd5b505af1158015610a1c573d6000803e3d6000fd5b505050505b866001600160a01b0316836001600160a01b03167f65db98422e8b7340e0d6dfa99bbadd4ba95a51fefafd8f0e1cbbb2e819429a428684604051610a6f929190918252602082015260400190565b60405180910390a35b50505b915080610a87816118d8565b91505061087d565b50505050565b6002546001600160a01b03163314610ac057604051634755657960e01b815260040160405180910390fd5b600354600160a01b900460ff1615610aeb5760405163238f75d360e01b815260040160405180910390fd5b6003805460ff60a01b1916600160a01b179055600280546001600160a01b0319169055565b6001600160a01b038216610b375760405163d92e233d60e01b815260040160405180910390fd5b6001600160a01b0382166000908152600460208190526040909120015460ff1615610b7557604051630ea075bf60e21b815260040160405180910390fd5b806001600160a01b0316826001600160a01b031603610ba757604051632af47b8760e11b815260040160405180910390fd5b6001600160a01b03811615801590610bdc57506001600160a01b0381166000908152600460208190526040909120015460ff16155b15610bfa57604051630c22084560e31b815260040160405180910390fd5b610c376001600160a01b037f0000000000000000000000000000000000000000000000000000000000000000168330670de0b6b3a7640000611446565b670de0b6b3a764000060096000828254610c5191906118c5565b90915550506001546001600160a01b031615610d5957600154610ca9906001600160a01b037f000000000000000000000000000000000000000000000000000000000000000081169116670de0b6b3a764000061147c565b600154604051632276741b60e01b8152670de0b6b3a764000060048201526001600160a01b0390911690632276741b90602401600060405180830381600087803b158015610cf657600080fd5b505af1925050508015610d07575060015b15610d595760408051670de0b6b3a76400008152600060208201526001600160a01b038416917f285cf258850ff8cf5d55ec19e46476d4e3d5209972f80a7880a38ac7011e7023910160405180910390a25b6001600160a01b0380831660009081526004602081905260408220908101805460ff1916600117905580549284166001600160a01b0319909316831781556002015515610de2576001600160a01b0381811660009081526004602090815260408220600190810180549182018155835291200180546001600160a01b0319169184169190911790555b60078054906000610df2836118d8565b9190505550806001600160a01b0316826001600160a01b03167f2138b9314634f9fdd5e49bee3eaf17ca557b6637524d0db759711c3bfcd3d85060405160405180910390a35050565b60006107d2826111cf565b6002546001600160a01b03163314610e7157604051634755657960e01b815260040160405180910390fd5b600354600160a01b900460ff1615610e9c5760405163238f75d360e01b815260040160405180910390fd5b8483148015610eaa57508481145b610eed5760405162461bcd60e51b815260206004820152600f60248201526e098cadccee8d040dad2e6dac2e8c6d608b1b60448201526064015b60405180910390fd5b60005b8581101561109d576000878783818110610f0c57610f0c611899565b9050602002016020810190610f21919061169c565b90506000868684818110610f3757610f37611899565b9050602002016020810190610f4c919061169c565b6001600160a01b0383166000908152600460208190526040909120015490915060ff1615610f7b575050611095565b6001600160a01b03828116600090815260046020819052604090912080546001600160a01b03191692841692909217825501805460ff19166001179055848484818110610fca57610fca611899565b6001600160a01b038086166000908152600460209081526040909120920293909301356002909101555081161561103d576001600160a01b0381811660009081526004602090815260408220600190810180549182018155835291200180546001600160a01b0319169184169190911790555b6007805490600061104d836118d8565b9190505550806001600160a01b0316826001600160a01b03167f2138b9314634f9fdd5e49bee3eaf17ca557b6637524d0db759711c3bfcd3d85060405160405180910390a350505b600101610ef0565b50505050505050565b6003546001600160a01b031633146110d157604051630e05f48560e11b815260040160405180910390fd5b600080546001600160a01b0319166001600160a01b0392909216919091179055565b6001600160a01b03811660009081526004602090815260409182902060010180548351818402810184019094528084526060939283018282801561116057602002820191906000526020600020905b81546001600160a01b03168152600190910190602001808311611142575b50505050509050919050565b6111746114d0565b60027f9b779b17422d0df92223018b32b4d1fa46e071723d6817e2486d003becc55f0055565b6111a78383836001611512565b6107c057604051635274afe760e01b81526001600160a01b0384166004820152602401610ee4565b6001600160a01b03811660009081526004602052604081208190600101815b81548110156112d0576000546001600160a01b0316156112c8576000805483546001600160a01b039091169063142a3da39085908590811061123257611232611899565b60009182526020909120015460405160e083901b6001600160e01b03191681526001600160a01b039091166004820152602401602060405180830381865afa158015611282573d6000803e3d6000fd5b505050506040513d601f19601f820116820180604052508101906112a6919061192a565b905068056bc75e2d6310000081106112c657836112c2816118d8565b9450505b505b6001016111ee565b50909392505050565b6000600782106112eb57506014919050565b600582106112fb57506010919050565b6003821061130b5750600c919050565b6002821061131b57506008919050565b6001821061132b57506003919050565b506000919050565b600060148210611345575060006107d2565b6001600160a01b0383166000908152600460205260408120600101805490915b82548110156113bc576113a883828154811061138357611383611899565b6000918252602090912001546001600160a01b03166113a38760016118c5565b611333565b6113b290836118c5565b9150600101611365565b50949350505050565b6000816001036113d85750610bb8919050565b816002036113e957506107d0919050565b600382101580156113fb5750600a8211155b1561140857506064919050565b600b821015801561141a5750600f8211155b1561142757506032919050565b60108210158015611439575060148211155b1561132b57506019919050565b611454848484846001611578565b610a8f57604051635274afe760e01b81526001600160a01b0385166004820152602401610ee4565b61148983838360006115ea565b6107c05761149b8383600060016115ea565b6114c357604051635274afe760e01b81526001600160a01b0384166004820152602401610ee4565b6111a783838360016115ea565b7f9b779b17422d0df92223018b32b4d1fa46e071723d6817e2486d003becc55f005460020361063257604051633ee5aeb560e01b815260040160405180910390fd5b60405163a9059cbb60e01b60008181526001600160a01b038616600452602485905291602083604481808b5af19250600160005114831661156c57838315161561155f573d6000823e3d81fd5b6000873b113d1516831692505b60405250949350505050565b6040516323b872dd60e01b60008181526001600160a01b038781166004528616602452604485905291602083606481808c5af1925060016000511483166115d85783831516156115cb573d6000823e3d81fd5b6000883b113d1516831692505b60405250600060605295945050505050565b60405163095ea7b360e01b60008181526001600160a01b038616600452602485905291602083604481808b5af19250600160005114831661156c57838315161561155f573d6000823e3d81fd5b604051806102a001604052806015906020820280368337509192915050565b80356001600160a01b038116811461166d57600080fd5b919050565b6000806040838503121561168557600080fd5b61168e83611656565b946020939093013593505050565b6000602082840312156116ae57600080fd5b6116b782611656565b9392505050565b6102a08101818360005b60158110156116e75781518352602092830192909101906001016116c8565b50505092915050565b60008060006060848603121561170557600080fd5b61170e84611656565b925061171c60208501611656565b915061172a60408501611656565b90509250925092565b6000806040838503121561174657600080fd5b61174f83611656565b915061175d60208401611656565b90509250929050565b60008083601f84011261177857600080fd5b50813567ffffffffffffffff81111561179057600080fd5b6020830191508360208260051b85010111156117ab57600080fd5b9250929050565b600080600080600080606087890312156117cb57600080fd5b863567ffffffffffffffff808211156117e357600080fd5b6117ef8a838b01611766565b9098509650602089013591508082111561180857600080fd5b6118148a838b01611766565b9096509450604089013591508082111561182d57600080fd5b5061183a89828a01611766565b979a9699509497509295939492505050565b6020808252825182820181905260009190848201906040850190845b8181101561188d5783516001600160a01b031683529284019291840191600101611868565b50909695505050505050565b634e487b7160e01b600052603260045260246000fd5b634e487b7160e01b600052601160045260246000fd5b808201808211156107d2576107d26118af565b6000600182016118ea576118ea6118af565b5060010190565b80820281158282048414176107d2576107d26118af565b60008261192557634e487b7160e01b600052601260045260246000fd5b500490565b60006020828403121561193c57600080fd5b505191905056fea26469706673582212201284ec7e8d4455dc36013e0dc60c1b4c586eb673f09aa8b8f3938151cfeb3a9b64736f6c63430008180033",
  "linkReferences": {},
  "deployedLinkReferences": {}
}