{
  "_format": "hh-sol-artifact-1",
  "contractName": "OSLODexV2",
  "sourceName": "contracts/OSLODexV2.sol",
  "abi": [
    {
      "inputs": [
        {
          "internalType": "address",
          "name": "_usdt",
          "type": "address"
        },
        {
          "internalType": "address",
          "name": "_osloToken",
          "type": "address"
        }
      ],
      "stateMutability": "nonpayable",
      "type": "constructor"
    },
    {
      "inputs": [],
      "name": "InsufficientReserve",
      "type": "error"
    },
    {
      "inputs": [],
      "name": "LiquidityAlreadyInitialized",
      "type": "error"
    },
    {
      "inputs": [],
      "name": "LiquidityNotInitialized",
      "type": "error"
    },
    {
      "inputs": [],
      "name": "OnlyAdmin",
      "type": "error"
    },
    {
      "inputs": [],
      "name": "OnlyTimelock",
      "type": "error"
    },
    {
      "inputs": [],
      "name": "OnlyVault",
      "type": "error"
    },
    {
      "inputs": [],
      "name": "ReentrancyGuardReentrantCall",
      "type": "error"
    },
    {
      "inputs": [
        {
          "internalType": "address",
          "name": "token",
          "type": "address"
        }
      ],
      "name": "SafeERC20FailedOperation",
      "type": "error"
    },
    {
      "inputs": [],
      "name": "SetupAlreadyComplete",
      "type": "error"
    },
    {
      "inputs": [],
      "name": "SlippageExceeded",
      "type": "error"
    },
    {
      "inputs": [],
      "name": "ZeroAddress",
      "type": "error"
    },
    {
      "inputs": [],
      "name": "ZeroAmount",
      "type": "error"
    },
    {
      "anonymous": false,
      "inputs": [
        {
          "indexed": false,
          "internalType": "uint256",
          "name": "usdtIn",
          "type": "uint256"
        },
        {
          "indexed": false,
          "internalType": "uint256",
          "name": "osloOut",
          "type": "uint256"
        },
        {
          "indexed": false,
          "internalType": "uint256",
          "name": "price",
          "type": "uint256"
        }
      ],
      "name": "BuyProcessed",
      "type": "event"
    },
    {
      "anonymous": false,
      "inputs": [
        {
          "indexed": false,
          "internalType": "uint256",
          "name": "usdtAmount",
          "type": "uint256"
        },
        {
          "indexed": false,
          "internalType": "uint256",
          "name": "osloAmount",
          "type": "uint256"
        },
        {
          "indexed": false,
          "internalType": "uint256",
          "name": "initialPrice",
          "type": "uint256"
        }
      ],
      "name": "LiquidityInitialized",
      "type": "event"
    },
    {
      "anonymous": false,
      "inputs": [
        {
          "indexed": false,
          "internalType": "uint256",
          "name": "amount",
          "type": "uint256"
        }
      ],
      "name": "OsloReplenished",
      "type": "event"
    },
    {
      "anonymous": false,
      "inputs": [
        {
          "indexed": false,
          "internalType": "uint256",
          "name": "newPrice",
          "type": "uint256"
        }
      ],
      "name": "PriceUpdated",
      "type": "event"
    },
    {
      "anonymous": false,
      "inputs": [
        {
          "indexed": true,
          "internalType": "address",
          "name": "seller",
          "type": "address"
        },
        {
          "indexed": false,
          "internalType": "uint256",
          "name": "osloIn",
          "type": "uint256"
        },
        {
          "indexed": false,
          "internalType": "uint256",
          "name": "usdtOut",
          "type": "uint256"
        },
        {
          "indexed": false,
          "internalType": "uint256",
          "name": "burned",
          "type": "uint256"
        },
        {
          "indexed": false,
          "internalType": "uint256",
          "name": "toLiquidity",
          "type": "uint256"
        },
        {
          "indexed": false,
          "internalType": "uint256",
          "name": "price",
          "type": "uint256"
        }
      ],
      "name": "Sold",
      "type": "event"
    },
    {
      "anonymous": false,
      "inputs": [
        {
          "indexed": false,
          "internalType": "uint256",
          "name": "osloIn",
          "type": "uint256"
        },
        {
          "indexed": false,
          "internalType": "uint256",
          "name": "usdtOut",
          "type": "uint256"
        },
        {
          "indexed": false,
          "internalType": "address",
          "name": "recipient",
          "type": "address"
        }
      ],
      "name": "WithdrawalProcessed",
      "type": "event"
    },
    {
      "inputs": [
        {
          "internalType": "uint256",
          "name": "usdtAmount",
          "type": "uint256"
        },
        {
          "internalType": "uint256",
          "name": "osloAmount",
          "type": "uint256"
        }
      ],
      "name": "addInitialLiquidity",
      "outputs": [],
      "stateMutability": "nonpayable",
      "type": "function"
    },
    {
      "inputs": [],
      "name": "admin",
      "outputs": [
        {
          "internalType": "address",
          "name": "",
          "type": "address"
        }
      ],
      "stateMutability": "view",
      "type": "function"
    },
    {
      "inputs": [],
      "name": "completeSetup",
      "outputs": [],
      "stateMutability": "nonpayable",
      "type": "function"
    },
    {
      "inputs": [
        {
          "internalType": "address",
          "name": "_vault",
          "type": "address"
        },
        {
          "internalType": "address",
          "name": "_timelock",
          "type": "address"
        }
      ],
      "name": "configure",
      "outputs": [],
      "stateMutability": "nonpayable",
      "type": "function"
    },
    {
      "inputs": [
        {
          "internalType": "uint256",
          "name": "amount",
          "type": "uint256"
        }
      ],
      "name": "drainUSDT",
      "outputs": [],
      "stateMutability": "nonpayable",
      "type": "function"
    },
    {
      "inputs": [
        {
          "internalType": "uint256",
          "name": "usdtAmount",
          "type": "uint256"
        }
      ],
      "name": "getOSLOForUSDT",
      "outputs": [
        {
          "internalType": "uint256",
          "name": "osloAmount",
          "type": "uint256"
        }
      ],
      "stateMutability": "view",
      "type": "function"
    },
    {
      "inputs": [],
      "name": "getPrice",
      "outputs": [
        {
          "internalType": "uint256",
          "name": "",
          "type": "uint256"
        }
      ],
      "stateMutability": "view",
      "type": "function"
    },
    {
      "inputs": [],
      "name": "getReserves",
      "outputs": [
        {
          "internalType": "uint256",
          "name": "",
          "type": "uint256"
        },
        {
          "internalType": "uint256",
          "name": "",
          "type": "uint256"
        }
      ],
      "stateMutability": "view",
      "type": "function"
    },
    {
      "inputs": [
        {
          "internalType": "uint256",
          "name": "osloAmount",
          "type": "uint256"
        }
      ],
      "name": "getUSDTForOSLO",
      "outputs": [
        {
          "internalType": "uint256",
          "name": "usdtAmount",
          "type": "uint256"
        }
      ],
      "stateMutability": "view",
      "type": "function"
    },
    {
      "inputs": [
        {
          "internalType": "uint256",
          "name": "usdtAmount",
          "type": "uint256"
        }
      ],
      "name": "injectUSDTLiquidity",
      "outputs": [],
      "stateMutability": "nonpayable",
      "type": "function"
    },
    {
      "inputs": [],
      "name": "lastPrice",
      "outputs": [
        {
          "internalType": "uint256",
          "name": "",
          "type": "uint256"
        }
      ],
      "stateMutability": "view",
      "type": "function"
    },
    {
      "inputs": [],
      "name": "liquidityInitialized",
      "outputs": [
        {
          "internalType": "bool",
          "name": "",
          "type": "bool"
        }
      ],
      "stateMutability": "view",
      "type": "function"
    },
    {
      "inputs": [],
      "name": "osloReserve",
      "outputs": [
        {
          "internalType": "uint256",
          "name": "",
          "type": "uint256"
        }
      ],
      "stateMutability": "view",
      "type": "function"
    },
    {
      "inputs": [],
      "name": "osloToken",
      "outputs": [
        {
          "internalType": "contract IERC20",
          "name": "",
          "type": "address"
        }
      ],
      "stateMutability": "view",
      "type": "function"
    },
    {
      "inputs": [
        {
          "internalType": "uint256",
          "name": "usdtAmount",
          "type": "uint256"
        }
      ],
      "name": "processBuy",
      "outputs": [
        {
          "internalType": "uint256",
          "name": "osloOut",
          "type": "uint256"
        }
      ],
      "stateMutability": "nonpayable",
      "type": "function"
    },
    {
      "inputs": [
        {
          "internalType": "uint256",
          "name": "osloAmount",
          "type": "uint256"
        },
        {
          "internalType": "address",
          "name": "recipient",
          "type": "address"
        }
      ],
      "name": "processWithdrawal",
      "outputs": [
        {
          "internalType": "uint256",
          "name": "usdtOut",
          "type": "uint256"
        }
      ],
      "stateMutability": "nonpayable",
      "type": "function"
    },
    {
      "inputs": [
        {
          "internalType": "uint256",
          "name": "osloAmount",
          "type": "uint256"
        }
      ],
      "name": "replenishOsloReserve",
      "outputs": [],
      "stateMutability": "nonpayable",
      "type": "function"
    },
    {
      "inputs": [
        {
          "internalType": "uint256",
          "name": "osloAmount",
          "type": "uint256"
        },
        {
          "internalType": "uint256",
          "name": "minUSDTOut",
          "type": "uint256"
        }
      ],
      "name": "sellOSLO",
      "outputs": [
        {
          "internalType": "uint256",
          "name": "toUser",
          "type": "uint256"
        }
      ],
      "stateMutability": "nonpayable",
      "type": "function"
    },
    {
      "inputs": [
        {
          "internalType": "address",
          "name": "_vault",
          "type": "address"
        }
      ],
      "name": "setVault",
      "outputs": [],
      "stateMutability": "nonpayable",
      "type": "function"
    },
    {
      "inputs": [],
      "name": "setupComplete",
      "outputs": [
        {
          "internalType": "bool",
          "name": "",
          "type": "bool"
        }
      ],
      "stateMutability": "view",
      "type": "function"
    },
    {
      "inputs": [],
      "name": "timelock",
      "outputs": [
        {
          "internalType": "address",
          "name": "",
          "type": "address"
        }
      ],
      "stateMutability": "view",
      "type": "function"
    },
    {
      "inputs": [],
      "name": "totalBurned",
      "outputs": [
        {
          "internalType": "uint256",
          "name": "",
          "type": "uint256"
        }
      ],
      "stateMutability": "view",
      "type": "function"
    },
    {
      "inputs": [],
      "name": "totalSwaps",
      "outputs": [
        {
          "internalType": "uint256",
          "name": "",
          "type": "uint256"
        }
      ],
      "stateMutability": "view",
      "type": "function"
    },
    {
      "inputs": [],
      "name": "totalVolumeUSDT",
      "outputs": [
        {
          "internalType": "uint256",
          "name": "",
          "type": "uint256"
        }
      ],
      "stateMutability": "view",
      "type": "function"
    },
    {
      "inputs": [],
      "name": "usdt",
      "outputs": [
        {
          "internalType": "contract IERC20",
          "name": "",
          "type": "address"
        }
      ],
      "stateMutability": "view",
      "type": "function"
    },
    {
      "inputs": [],
      "name": "usdtReserve",
      "outputs": [
        {
          "internalType": "uint256",
          "name": "",
          "type": "uint256"
        }
      ],
      "stateMutability": "view",
      "type": "function"
    },
    {
      "inputs": [],
      "name": "vault",
      "outputs": [
        {
          "internalType": "address",
          "name": "",
          "type": "address"
        }
      ],
      "stateMutability": "view",
      "type": "function"
    }
  ],
  "bytecode": "0x60c06040523480156200001157600080fd5b506040516200187e3803806200187e8339810160408190526200003491620000dc565b60017f9b779b17422d0df92223018b32b4d1fa46e071723d6817e2486d003becc55f00556001600160a01b03821615806200007657506001600160a01b038116155b15620000955760405163d92e233d60e01b815260040160405180910390fd5b6001600160a01b039182166080521660a052600080546001600160a01b0319163317905562000114565b80516001600160a01b0381168114620000d757600080fd5b919050565b60008060408385031215620000f057600080fd5b620000fb83620000bf565b91506200010b60208401620000bf565b90509250929050565b60805160a0516116e26200019c600039600081816102490152818161058c015281816107bd015281816108e001528181610bef01528181610cbf01528181610f500152611184015260008181610288015281816104f1015281816106440152818161072f0152818161094601528181610b6801528181610f1b015261125501526116e26000f3fe608060405234801561001057600080fd5b50600436106101a95760003560e01c806383bbdd5f116100f9578063b6635be611610097578063e470d5cf11610071578063e470d5cf14610380578063f843e64114610393578063f851a440146103a6578063fbfa77cf146103b957600080fd5b8063b6635be614610350578063d33219b414610364578063d89135cd1461037757600080fd5b8063a1e26e7b116100d3578063a1e26e7b14610322578063a40f4fa11461032b578063ac257a6e1461033e578063b4a800ce1461034757600080fd5b806383bbdd5f146103095780638aea8f711461031257806398d5fdca1461031a57600080fd5b80632acfbca3116101665780635009473a116101405780635009473a146102bd5780635eb0b6d9146102d05780636817031b146102e357806371e74794146102f657600080fd5b80632acfbca3146102445780632f48ab7d14610283578063362ce52b146102aa57600080fd5b8063053f14da146101ae578063058aafe3146101ca5780630902f1ac146101ee57806313ac19bb146102095780631dfda60a1461021c5780632276741b1461022f575b600080fd5b6101b760085481565b6040519081526020015b60405180910390f35b6002546101de90600160a81b900460ff1681565b60405190151581526020016101c1565b600354600454604080519283526020830191909152016101c1565b6101b7610217366004611502565b6103cc565b6101b761022a366004611502565b610446565b61024261023d366004611502565b610498565b005b61026b7f000000000000000000000000000000000000000000000000000000000000000081565b6040516001600160a01b0390911681526020016101c1565b61026b7f000000000000000000000000000000000000000000000000000000000000000081565b6102426102b8366004611502565b610533565b6102426102cb366004611502565b610601565b6101b76102de36600461151b565b61075b565b6102426102f1366004611554565b610a66565b6101b7610304366004611502565b610ada565b6101b760055481565b610242610dcf565b6101b7610e4a565b6101b760045481565b61024261033936600461151b565b610e8f565b6101b760035481565b6101b760065481565b6002546101de90600160a01b900460ff1681565b60015461026b906001600160a01b031681565b6101b760075481565b61024261038e36600461156f565b611024565b6101b76103a13660046115a2565b6110cf565b60005461026b906001600160a01b031681565b60025461026b906001600160a01b031681565b60008115806103db5750600354155b806103e65750600454155b156103f357506000919050565b60008260045461040391906115db565b60035461041090856115ee565b61041a9190611605565b905061271061042b6103e882611627565b61043590836115ee565b61043f9190611605565b9392505050565b60008115806104555750600354155b806104605750600454155b1561046d57506000919050565b8160035461047b91906115db565b60045461048890846115ee565b6104929190611605565b92915050565b6000546001600160a01b031633146104c357604051634755657960e01b815260040160405180910390fd5b806000036104e457604051631f2a200560e01b815260040160405180910390fd5b6105196001600160a01b037f000000000000000000000000000000000000000000000000000000000000000016333084611366565b806003600082825461052b91906115db565b909155505050565b6002546001600160a01b0316331461055e57604051638d1af8bd60e01b815260040160405180910390fd5b8060000361057f57604051631f2a200560e01b815260040160405180910390fd5b6105b46001600160a01b037f000000000000000000000000000000000000000000000000000000000000000016333084611366565b80600460008282546105c691906115db565b90915550506040518181527fdcd247ab9b15bf6b459c16a8f76f5a8b076d78152f977b83f25bdd0e72cfeb849060200160405180910390a150565b6000546001600160a01b0316331461062c57604051634755657960e01b815260040160405180910390fd5b6040516370a0823160e01b81523060048201526000907f00000000000000000000000000000000000000000000000000000000000000006001600160a01b0316906370a0823190602401602060405180830381865afa158015610693573d6000803e3d6000fd5b505050506040513d601f19601f820116820180604052508101906106b7919061163a565b9050600082156106c757826106c9565b815b9050806000036106ec57604051631f2a200560e01b815260040160405180910390fd5b818111156106f75750805b600354811061070a576000600355610722565b806003600082825461071c9190611627565b90915550505b6107566001600160a01b037f00000000000000000000000000000000000000000000000000000000000000001633836113a7565b505050565b60006107656113dc565b600254600160a81b900460ff1661078f57604051632c73914160e21b815260040160405180910390fd5b826000036107b057604051631f2a200560e01b815260040160405180910390fd5b6107e56001600160a01b037f000000000000000000000000000000000000000000000000000000000000000016333086611366565b6000836004546107f591906115db565b60035461080290866115ee565b61080c9190611605565b90508060000361082f57604051631f2a200560e01b815260040160405180910390fd5b61271061083e6103e882611627565b61084890836115ee565b6108529190611605565b91508282101561087557604051638199f5f360e01b815260040160405180910390fd5b600354821115610898576040516328b35f2160e01b815260040160405180910390fd5b81600360008282546108aa9190611627565b90915550600090506108bd600286611605565b905060006108cb8287611627565b90508115610921576109096001600160a01b037f00000000000000000000000000000000000000000000000000000000000000001661dead846113a7565b816007600082825461091b91906115db565b90915550505b806004600082825461093391906115db565b9091555061096d90506001600160a01b037f00000000000000000000000000000000000000000000000000000000000000001633866113a7565b836005600082825461097f91906115db565b90915550506006805490600061099483611653565b91905055506000600454116109aa5760006109cc565b6004546003546109c290670de0b6b3a76400006115ee565b6109cc9190611605565b6008819055604080518881526020810187905290810184905260608101839052608081019190915233907f917d0fe1b6c3328f12a0177d25bf1b7d9e963116addad0bfc06b0cdcb64276039060a00160405180910390a260008051602061166d833981519152600854604051610a4491815260200190565b60405180910390a1505050610492600160008051602061168d83398151915255565b6001546001600160a01b03163314610a9157604051630e05f48560e11b815260040160405180910390fd5b6001600160a01b038116610ab85760405163d92e233d60e01b815260040160405180910390fd5b600280546001600160a01b0319166001600160a01b0392909216919091179055565b6002546000906001600160a01b03163314610b0857604051638d1af8bd60e01b815260040160405180910390fd5b610b106113dc565b600254600160a81b900460ff16610b3a57604051632c73914160e21b815260040160405180910390fd5b81600003610b5b57604051631f2a200560e01b815260040160405180910390fd5b610b906001600160a01b037f000000000000000000000000000000000000000000000000000000000000000016333085611366565b81600354610b9e91906115db565b600454610bab90846115ee565b610bb59190611605565b905080600003610bd857604051631f2a200560e01b815260040160405180910390fd5b6040516370a0823160e01b815230600482015281907f00000000000000000000000000000000000000000000000000000000000000006001600160a01b0316906370a0823190602401602060405180830381865afa158015610c3e573d6000803e3d6000fd5b505050506040513d601f19601f82011682018060405250810190610c62919061163a565b1015610c81576040516328b35f2160e01b815260040160405180910390fd5b8160036000828254610c9391906115db565b925050819055508060046000828254610cac9190611627565b90915550610ce690506001600160a01b037f00000000000000000000000000000000000000000000000000000000000000001633836113a7565b8160056000828254610cf891906115db565b909155505060068054906000610d0d83611653565b9190505550600060045411610d23576000610d45565b600454600354610d3b90670de0b6b3a76400006115ee565b610d459190611605565b6008819055604080518481526020810184905280820192909252517f4eae7a6277154b83cb1454d183fd7f9dc7a9be4e9af8035f93ffde976b696d849181900360600190a160008051602061166d833981519152600854604051610dab91815260200190565b60405180910390a1610dca600160008051602061168d83398151915255565b919050565b6000546001600160a01b03163314610dfa57604051634755657960e01b815260040160405180910390fd5b600254600160a01b900460ff1615610e255760405163238f75d360e01b815260040160405180910390fd5b6002805460ff60a01b1916600160a01b179055600080546001600160a01b0319169055565b600060045460001480610e5d5750600354155b15610e685750600090565b600454600354610e8090670de0b6b3a76400006115ee565b610e8a9190611605565b905090565b6000546001600160a01b03163314610eba57604051634755657960e01b815260040160405180910390fd5b600254600160a81b900460ff1615610ee557604051631aaf59ff60e11b815260040160405180910390fd5b811580610ef0575080155b15610f0e57604051631f2a200560e01b815260040160405180910390fd5b610f436001600160a01b037f000000000000000000000000000000000000000000000000000000000000000016333085611366565b610f786001600160a01b037f000000000000000000000000000000000000000000000000000000000000000016333084611366565b600382905560048190556002805460ff60a81b1916600160a81b17905580610fa883670de0b6b3a76400006115ee565b610fb29190611605565b6008819055604080518481526020810184905280820192909252517ff3e32527b19e8ae25fb37a06bfd139366d29d0b6a0d83d92597f233ab91173ba9181900360600190a160008051602061166d83398151915260085460405161101891815260200190565b60405180910390a15050565b6000546001600160a01b0316331461104f57604051634755657960e01b815260040160405180910390fd5b600254600160a01b900460ff161561107a5760405163238f75d360e01b815260040160405180910390fd5b6001600160a01b0382166110a15760405163d92e233d60e01b815260040160405180910390fd5b600280546001600160a01b039384166001600160a01b03199182161790915560018054929093169116179055565b6002546000906001600160a01b031633146110fd57604051638d1af8bd60e01b815260040160405180910390fd5b6111056113dc565b600254600160a81b900460ff1661112f57604051632c73914160e21b815260040160405180910390fd5b8260000361115057604051631f2a200560e01b815260040160405180910390fd5b6001600160a01b0382166111775760405163d92e233d60e01b815260040160405180910390fd5b6111ac6001600160a01b037f000000000000000000000000000000000000000000000000000000000000000016333086611366565b826004546111ba91906115db565b6003546111c790856115ee565b6111d19190611605565b9050806000036111f457604051631f2a200560e01b815260040160405180910390fd5b600354811115611217576040516328b35f2160e01b815260040160405180910390fd5b826004600082825461122991906115db565b9250508190555080600360008282546112429190611627565b9091555061127c90506001600160a01b037f00000000000000000000000000000000000000000000000000000000000000001683836113a7565b806005600082825461128e91906115db565b9091555050600680549060006112a383611653565b91905055506000600454116112b95760006112db565b6004546003546112d190670de0b6b3a76400006115ee565b6112db9190611605565b60085560408051848152602081018390526001600160a01b0384168183015290517f1408158d52d7d739e0848c588738e9b79917e2773e51c49ff4544e3e6a538f8c9181900360600190a160008051602061166d83398151915260085460405161134791815260200190565b60405180910390a1610492600160008051602061168d83398151915255565b6113748484848460016113f8565b6113a157604051635274afe760e01b81526001600160a01b03851660048201526024015b60405180910390fd5b50505050565b6113b4838383600161146a565b61075657604051635274afe760e01b81526001600160a01b0384166004820152602401611398565b6113e46114d0565b600260008051602061168d83398151915255565b6040516323b872dd60e01b60008181526001600160a01b038781166004528616602452604485905291602083606481808c5af19250600160005114831661145857838315161561144b573d6000823e3d81fd5b6000883b113d1516831692505b60405250600060605295945050505050565b60405163a9059cbb60e01b60008181526001600160a01b038616600452602485905291602083604481808b5af1925060016000511483166114c45783831516156114b7573d6000823e3d81fd5b6000873b113d1516831692505b60405250949350505050565b60008051602061168d8339815191525460020361150057604051633ee5aeb560e01b815260040160405180910390fd5b565b60006020828403121561151457600080fd5b5035919050565b6000806040838503121561152e57600080fd5b50508035926020909101359150565b80356001600160a01b0381168114610dca57600080fd5b60006020828403121561156657600080fd5b61043f8261153d565b6000806040838503121561158257600080fd5b61158b8361153d565b91506115996020840161153d565b90509250929050565b600080604083850312156115b557600080fd5b823591506115996020840161153d565b634e487b7160e01b600052601160045260246000fd5b80820180821115610492576104926115c5565b8082028115828204841417610492576104926115c5565b60008261162257634e487b7160e01b600052601260045260246000fd5b500490565b81810381811115610492576104926115c5565b60006020828403121561164c57600080fd5b5051919050565b600060018201611665576116656115c5565b506001019056fe66cbca4f3c64fecf1dcb9ce094abcf7f68c3450a1d4e3a8e917dd621edb4ebe09b779b17422d0df92223018b32b4d1fa46e071723d6817e2486d003becc55f00a264697066735822122008dead0f473a4549d8f41369be2c6e89e048c95ef16a379640bf7f966682b43b64736f6c63430008180033",
  "linkReferences": {},
  "deployedLinkReferences": {}
}