{
  "_format": "hh-sol-artifact-1",
  "contractName": "OSLODEX",
  "sourceName": "contracts/OSLODEX.sol",
  "abi": [
    {
      "inputs": [
        {
          "internalType": "address",
          "name": "_usdt",
          "type": "address"
        },
        {
          "internalType": "address",
          "name": "_osloToken",
          "type": "address"
        }
      ],
      "stateMutability": "nonpayable",
      "type": "constructor"
    },
    {
      "inputs": [],
      "name": "InsufficientReserve",
      "type": "error"
    },
    {
      "inputs": [],
      "name": "OnlyAdmin",
      "type": "error"
    },
    {
      "inputs": [],
      "name": "OnlyInvestmentEngine",
      "type": "error"
    },
    {
      "inputs": [],
      "name": "OnlyLiquidityManager",
      "type": "error"
    },
    {
      "inputs": [],
      "name": "OnlyTimelock",
      "type": "error"
    },
    {
      "inputs": [],
      "name": "ReentrancyGuardReentrantCall",
      "type": "error"
    },
    {
      "inputs": [
        {
          "internalType": "address",
          "name": "token",
          "type": "address"
        }
      ],
      "name": "SafeERC20FailedOperation",
      "type": "error"
    },
    {
      "inputs": [],
      "name": "SetupAlreadyComplete",
      "type": "error"
    },
    {
      "inputs": [],
      "name": "SlippageExceeded",
      "type": "error"
    },
    {
      "inputs": [],
      "name": "ZeroAddress",
      "type": "error"
    },
    {
      "inputs": [],
      "name": "ZeroAmount",
      "type": "error"
    },
    {
      "anonymous": false,
      "inputs": [
        {
          "indexed": false,
          "internalType": "uint256",
          "name": "usdtIn",
          "type": "uint256"
        },
        {
          "indexed": false,
          "internalType": "uint256",
          "name": "osloOut",
          "type": "uint256"
        }
      ],
      "name": "DepositProcessed",
      "type": "event"
    },
    {
      "anonymous": false,
      "inputs": [
        {
          "indexed": false,
          "internalType": "uint256",
          "name": "usdtAmount",
          "type": "uint256"
        },
        {
          "indexed": false,
          "internalType": "uint256",
          "name": "osloAmount",
          "type": "uint256"
        }
      ],
      "name": "LiquidityDeposited",
      "type": "event"
    },
    {
      "anonymous": false,
      "inputs": [
        {
          "indexed": false,
          "internalType": "uint256",
          "name": "newPrice",
          "type": "uint256"
        }
      ],
      "name": "PriceUpdated",
      "type": "event"
    },
    {
      "anonymous": false,
      "inputs": [
        {
          "indexed": true,
          "internalType": "address",
          "name": "user",
          "type": "address"
        },
        {
          "indexed": false,
          "internalType": "bool",
          "name": "usdtToOslo",
          "type": "bool"
        },
        {
          "indexed": false,
          "internalType": "uint256",
          "name": "inputAmount",
          "type": "uint256"
        },
        {
          "indexed": false,
          "internalType": "uint256",
          "name": "outputAmount",
          "type": "uint256"
        },
        {
          "indexed": false,
          "internalType": "uint256",
          "name": "price",
          "type": "uint256"
        }
      ],
      "name": "Swapped",
      "type": "event"
    },
    {
      "anonymous": false,
      "inputs": [
        {
          "indexed": false,
          "internalType": "uint256",
          "name": "osloIn",
          "type": "uint256"
        },
        {
          "indexed": false,
          "internalType": "uint256",
          "name": "usdtOut",
          "type": "uint256"
        },
        {
          "indexed": false,
          "internalType": "address",
          "name": "recipient",
          "type": "address"
        }
      ],
      "name": "WithdrawalProcessed",
      "type": "event"
    },
    {
      "inputs": [
        {
          "internalType": "uint256",
          "name": "usdtAmount",
          "type": "uint256"
        },
        {
          "internalType": "uint256",
          "name": "osloAmount",
          "type": "uint256"
        }
      ],
      "name": "addInitialLiquidity",
      "outputs": [],
      "stateMutability": "nonpayable",
      "type": "function"
    },
    {
      "inputs": [
        {
          "internalType": "uint256",
          "name": "usdtAmount",
          "type": "uint256"
        }
      ],
      "name": "addLiquidityFromFees",
      "outputs": [],
      "stateMutability": "nonpayable",
      "type": "function"
    },
    {
      "inputs": [],
      "name": "admin",
      "outputs": [
        {
          "internalType": "address",
          "name": "",
          "type": "address"
        }
      ],
      "stateMutability": "view",
      "type": "function"
    },
    {
      "inputs": [],
      "name": "completeSetup",
      "outputs": [],
      "stateMutability": "nonpayable",
      "type": "function"
    },
    {
      "inputs": [
        {
          "internalType": "address",
          "name": "_timelock",
          "type": "address"
        },
        {
          "internalType": "address",
          "name": "_liquidityManager",
          "type": "address"
        },
        {
          "internalType": "address",
          "name": "_investmentEngine",
          "type": "address"
        }
      ],
      "name": "configure",
      "outputs": [],
      "stateMutability": "nonpayable",
      "type": "function"
    },
    {
      "inputs": [
        {
          "internalType": "uint256",
          "name": "osloAmount",
          "type": "uint256"
        }
      ],
      "name": "getOSLOForUSDTOutput",
      "outputs": [
        {
          "internalType": "uint256",
          "name": "",
          "type": "uint256"
        }
      ],
      "stateMutability": "view",
      "type": "function"
    },
    {
      "inputs": [],
      "name": "getPrice",
      "outputs": [
        {
          "internalType": "uint256",
          "name": "",
          "type": "uint256"
        }
      ],
      "stateMutability": "view",
      "type": "function"
    },
    {
      "inputs": [],
      "name": "getReserves",
      "outputs": [
        {
          "internalType": "uint256",
          "name": "_usdtRes",
          "type": "uint256"
        },
        {
          "internalType": "uint256",
          "name": "_osloRes",
          "type": "uint256"
        }
      ],
      "stateMutability": "view",
      "type": "function"
    },
    {
      "inputs": [
        {
          "internalType": "uint256",
          "name": "usdtAmount",
          "type": "uint256"
        }
      ],
      "name": "getUSDTForOSLOOutput",
      "outputs": [
        {
          "internalType": "uint256",
          "name": "",
          "type": "uint256"
        }
      ],
      "stateMutability": "view",
      "type": "function"
    },
    {
      "inputs": [],
      "name": "investmentEngine",
      "outputs": [
        {
          "internalType": "address",
          "name": "",
          "type": "address"
        }
      ],
      "stateMutability": "view",
      "type": "function"
    },
    {
      "inputs": [],
      "name": "lastPrice",
      "outputs": [
        {
          "internalType": "uint256",
          "name": "",
          "type": "uint256"
        }
      ],
      "stateMutability": "view",
      "type": "function"
    },
    {
      "inputs": [],
      "name": "liquidityManager",
      "outputs": [
        {
          "internalType": "address",
          "name": "",
          "type": "address"
        }
      ],
      "stateMutability": "view",
      "type": "function"
    },
    {
      "inputs": [],
      "name": "osloReserve",
      "outputs": [
        {
          "internalType": "uint256",
          "name": "",
          "type": "uint256"
        }
      ],
      "stateMutability": "view",
      "type": "function"
    },
    {
      "inputs": [],
      "name": "osloToken",
      "outputs": [
        {
          "internalType": "contract IERC20",
          "name": "",
          "type": "address"
        }
      ],
      "stateMutability": "view",
      "type": "function"
    },
    {
      "inputs": [
        {
          "internalType": "uint256",
          "name": "usdtAmount",
          "type": "uint256"
        }
      ],
      "name": "processDeposit",
      "outputs": [
        {
          "internalType": "uint256",
          "name": "osloAmount",
          "type": "uint256"
        }
      ],
      "stateMutability": "nonpayable",
      "type": "function"
    },
    {
      "inputs": [
        {
          "internalType": "uint256",
          "name": "osloAmount",
          "type": "uint256"
        },
        {
          "internalType": "address",
          "name": "recipient",
          "type": "address"
        }
      ],
      "name": "processWithdrawal",
      "outputs": [
        {
          "internalType": "uint256",
          "name": "usdtAmount",
          "type": "uint256"
        }
      ],
      "stateMutability": "nonpayable",
      "type": "function"
    },
    {
      "inputs": [],
      "name": "setupComplete",
      "outputs": [
        {
          "internalType": "bool",
          "name": "",
          "type": "bool"
        }
      ],
      "stateMutability": "view",
      "type": "function"
    },
    {
      "inputs": [
        {
          "internalType": "uint256",
          "name": "osloAmount",
          "type": "uint256"
        },
        {
          "internalType": "uint256",
          "name": "minUSDTAmount",
          "type": "uint256"
        }
      ],
      "name": "swapOSLOForUSDT",
      "outputs": [
        {
          "internalType": "uint256",
          "name": "usdtAmount",
          "type": "uint256"
        }
      ],
      "stateMutability": "nonpayable",
      "type": "function"
    },
    {
      "inputs": [
        {
          "internalType": "uint256",
          "name": "usdtAmount",
          "type": "uint256"
        },
        {
          "internalType": "uint256",
          "name": "minOsloAmount",
          "type": "uint256"
        }
      ],
      "name": "swapUSDTForOSLO",
      "outputs": [
        {
          "internalType": "uint256",
          "name": "osloAmount",
          "type": "uint256"
        }
      ],
      "stateMutability": "nonpayable",
      "type": "function"
    },
    {
      "inputs": [],
      "name": "timelock",
      "outputs": [
        {
          "internalType": "address",
          "name": "",
          "type": "address"
        }
      ],
      "stateMutability": "view",
      "type": "function"
    },
    {
      "inputs": [],
      "name": "totalSwaps",
      "outputs": [
        {
          "internalType": "uint256",
          "name": "",
          "type": "uint256"
        }
      ],
      "stateMutability": "view",
      "type": "function"
    },
    {
      "inputs": [],
      "name": "totalVolumeUSDT",
      "outputs": [
        {
          "internalType": "uint256",
          "name": "",
          "type": "uint256"
        }
      ],
      "stateMutability": "view",
      "type": "function"
    },
    {
      "inputs": [],
      "name": "usdt",
      "outputs": [
        {
          "internalType": "contract IERC20",
          "name": "",
          "type": "address"
        }
      ],
      "stateMutability": "view",
      "type": "function"
    },
    {
      "inputs": [],
      "name": "usdtReserve",
      "outputs": [
        {
          "internalType": "uint256",
          "name": "",
          "type": "uint256"
        }
      ],
      "stateMutability": "view",
      "type": "function"
    }
  ],
  "bytecode": "0x60c06040523480156200001157600080fd5b5060405162001c5838038062001c588339810160408190526200003491620000dc565b60017f9b779b17422d0df92223018b32b4d1fa46e071723d6817e2486d003becc55f00556001600160a01b03821615806200007657506001600160a01b038116155b15620000955760405163d92e233d60e01b815260040160405180910390fd5b6001600160a01b039182166080521660a052600080546001600160a01b0319163317905562000114565b80516001600160a01b0381168114620000d757600080fd5b919050565b60008060408385031215620000f057600080fd5b620000fb83620000bf565b91506200010b60208401620000bf565b90509250929050565b60805160a051611a76620001e2600039600081816101ac015281816103db015281816104d9015281816105a9015281816105d40152818161076b015281816108620152818161092001528181610a6f01528181610c3401528181610d8d01528181610e8c01528181610f910152818161109901528181611122015281816112aa0152818161142e0152818161145a01526115c40152600081816101eb015281816103af0152818161089701528181610d58015281816110640152818161126501526115990152611a766000f3fe608060405234801561001057600080fd5b50600436106101585760003560e01c806398d5fdca116100c3578063b6635be61161007c578063b6635be6146102c8578063c2c90687146102ec578063d33219b4146102ff578063ee3b038f14610312578063f843e64114610325578063f851a4401461033857600080fd5b806398d5fdca1461027f578063a1e26e7b14610287578063a40f4fa114610290578063a7978031146102a3578063ac257a6e146102b6578063b4a800ce146102bf57600080fd5b806330cf2aeb1161011557806330cf2aeb14610220578063338274381461023357806347aa7ea41461024657806355d28f201461025957806383bbdd5f1461026e5780638aea8f711461027757600080fd5b8063053f14da1461015d5780630902f1ac146101795780630cc2055a146101945780632acfbca3146101a75780632f48ab7d146101e6578063301313841461020d575b600080fd5b61016660085481565b6040519081526020015b60405180910390f35b60045460055460408051928352602083019190915201610170565b6101666101a2366004611898565b61034b565b6101ce7f000000000000000000000000000000000000000000000000000000000000000081565b6040516001600160a01b039091168152602001610170565b6101ce7f000000000000000000000000000000000000000000000000000000000000000081565b6003546101ce906001600160a01b031681565b61016661022e3660046118b1565b610719565b6002546101ce906001600160a01b031681565b610166610254366004611898565b610a4f565b61026c6102673660046118ea565b610b10565b005b61016660065481565b61026c610bb4565b610166610c2f565b61016660055481565b61026c61029e3660046118b1565b610cf7565b6101666102b1366004611898565b610e6c565b61016660045481565b61016660075481565b6003546102dc90600160a01b900460ff1681565b6040519015158152602001610170565b6101666102fa3660046118b1565b610f3f565b6001546101ce906001600160a01b031681565b61026c610320366004611898565b61120c565b61016661033336600461192d565b6113a3565b6000546101ce906001600160a01b031681565b6003546000906001600160a01b0316331461037957604051630559b36f60e11b815260040160405180910390fd5b6103816116f7565b816000036103a257604051631f2a200560e01b815260040160405180910390fd5b6103d76001600160a01b037f000000000000000000000000000000000000000000000000000000000000000016333085611713565b60007f00000000000000000000000000000000000000000000000000000000000000006001600160a01b03166318160ddd6040518163ffffffff1660e01b8152600401602060405180830381865afa158015610437573d6000803e3d6000fd5b505050506040513d601f19601f8201168201806040525081019061045b9190611959565b9050600060045411801561046f5750600081115b1561049d57826004546104829190611988565b61048c828561199b565b61049691906119b2565b91506104a1565b8291505b816000036104c257604051631f2a200560e01b815260040160405180910390fd5b6040516370a0823160e01b815230600482015282907f00000000000000000000000000000000000000000000000000000000000000006001600160a01b0316906370a0823190602401602060405180830381865afa158015610528573d6000803e3d6000fd5b505050506040513d601f19601f8201168201806040525081019061054c9190611959565b101561056b576040516328b35f2160e01b815260040160405180910390fd5b826004600082825461057d9190611988565b92505081905550816005600082825461059691906119d4565b909155506105d090506001600160a01b037f0000000000000000000000000000000000000000000000000000000000000000163384611754565b60007f00000000000000000000000000000000000000000000000000000000000000006001600160a01b03166318160ddd6040518163ffffffff1660e01b8152600401602060405180830381865afa158015610630573d6000803e3d6000fd5b505050506040513d601f19601f820116820180604052508101906106549190611959565b60045461066990670de0b6b3a764000061199b565b61067391906119b2565b905083600660008282546106879190611988565b90915550506007805490600061069c836119e7565b909155505060408051858152602081018590527f3d53ffd94e6169fe8616aef06a81eba2335ff27eac4a60886ad869b22c4f347b910160405180910390a1604051818152600080516020611a018339815191529060200160405180910390a150506107146001600080516020611a2183398151915255565b919050565b60006107236116f7565b8260000361074457604051631f2a200560e01b815260040160405180910390fd5b600454600003610767576040516328b35f2160e01b815260040160405180910390fd5b60007f00000000000000000000000000000000000000000000000000000000000000006001600160a01b03166318160ddd6040518163ffffffff1660e01b8152600401602060405180830381865afa1580156107c7573d6000803e3d6000fd5b505050506040513d601f19601f820116820180604052508101906107eb9190611959565b905080600454856107fc919061199b565b61080691906119b2565b915081158061081457508282105b1561083257604051638199f5f360e01b815260040160405180910390fd5b600454821115610855576040516328b35f2160e01b815260040160405180910390fd5b61088a6001600160a01b037f000000000000000000000000000000000000000000000000000000000000000016333087611713565b6108be6001600160a01b037f0000000000000000000000000000000000000000000000000000000000000000163384611754565b81600460008282546108d091906119d4565b9250508190555083600560008282546108e99190611988565b9250508190555081600660008282546109029190611988565b909155505060078054906000610917836119e7565b919050555060007f00000000000000000000000000000000000000000000000000000000000000006001600160a01b03166318160ddd6040518163ffffffff1660e01b8152600401602060405180830381865afa15801561097c573d6000803e3d6000fd5b505050506040513d601f19601f820116820180604052508101906109a09190611959565b6004546109b590670de0b6b3a764000061199b565b6109bf91906119b2565b6040805160008152602081018890529081018590526060810182905290915033907f7c707038fb62cb248ec6b437a63ec556bb6233af235f4518d64693cba918a6e1906080015b60405180910390a2604051818152600080516020611a01833981519152906020015b60405180910390a15050610a496001600080516020611a2183398151915255565b92915050565b6000811580610a5e5750600454155b15610a6b57506000919050565b60007f00000000000000000000000000000000000000000000000000000000000000006001600160a01b03166318160ddd6040518163ffffffff1660e01b8152600401602060405180830381865afa158015610acb573d6000803e3d6000fd5b505050506040513d601f19601f82011682018060405250810190610aef9190611959565b600454909150610aff828561199b565b610b0991906119b2565b9392505050565b6000546001600160a01b03163314610b3b57604051634755657960e01b815260040160405180910390fd5b600354600160a01b900460ff1615610b665760405163238f75d360e01b815260040160405180910390fd5b600180546001600160a01b039485166001600160a01b031991821617909155600280549385169390911692909217909155600380546001600160a81b0319169190921617600160a01b179055565b6000546001600160a01b03163314610bdf57604051634755657960e01b815260040160405180910390fd5b600354600160a01b900460ff1615610c0a5760405163238f75d360e01b815260040160405180910390fd5b6003805460ff60a01b1916600160a01b179055600080546001600160a01b0319169055565b6000807f00000000000000000000000000000000000000000000000000000000000000006001600160a01b03166318160ddd6040518163ffffffff1660e01b8152600401602060405180830381865afa158015610c90573d6000803e3d6000fd5b505050506040513d601f19601f82011682018060405250810190610cb49190611959565b9050801580610cc35750600454155b15610cd057600091505090565b80600454670de0b6b3a7640000610ce7919061199b565b610cf191906119b2565b91505090565b6002546001600160a01b03163314610d2257604051630be5a3e160e31b815260040160405180910390fd5b811580610d2d575080155b15610d4b57604051631f2a200560e01b815260040160405180910390fd5b610d806001600160a01b037f000000000000000000000000000000000000000000000000000000000000000016333085611713565b610db56001600160a01b037f000000000000000000000000000000000000000000000000000000000000000016333084611713565b8160046000828254610dc79190611988565b925050819055508060056000828254610de09190611988565b90915550819050610df983670de0b6b3a764000061199b565b610e0391906119b2565b60085560408051838152602081018390527f9c86429231ed0411e3112a1dd5c6578826c2d48089d5ec491e874ce0029c0bbe910160405180910390a1600080516020611a01833981519152600854604051610e6091815260200190565b60405180910390a15050565b6000811580610e7b5750600454155b15610e8857506000919050565b60007f00000000000000000000000000000000000000000000000000000000000000006001600160a01b03166318160ddd6040518163ffffffff1660e01b8152600401602060405180830381865afa158015610ee8573d6000803e3d6000fd5b505050506040513d601f19601f82011682018060405250810190610f0c9190611959565b905060008160045485610f1f919061199b565b610f2991906119b2565b9050600454811115610b09575060009392505050565b6000610f496116f7565b82600003610f6a57604051631f2a200560e01b815260040160405180910390fd5b600454600003610f8d576040516328b35f2160e01b815260040160405180910390fd5b60007f00000000000000000000000000000000000000000000000000000000000000006001600160a01b03166318160ddd6040518163ffffffff1660e01b8152600401602060405180830381865afa158015610fed573d6000803e3d6000fd5b505050506040513d601f19601f820116820180604052508101906110119190611959565b600454909150611021828661199b565b61102b91906119b2565b915081158061103957508282105b1561105757604051638199f5f360e01b815260040160405180910390fd5b61108c6001600160a01b037f000000000000000000000000000000000000000000000000000000000000000016333087611713565b6110c06001600160a01b037f0000000000000000000000000000000000000000000000000000000000000000163384611754565b83600460008282546110d29190611988565b9250508190555081600560008282546110eb91906119d4565b9250508190555083600660008282546111049190611988565b909155505060078054906000611119836119e7565b919050555060007f00000000000000000000000000000000000000000000000000000000000000006001600160a01b03166318160ddd6040518163ffffffff1660e01b8152600401602060405180830381865afa15801561117e573d6000803e3d6000fd5b505050506040513d601f19601f820116820180604052508101906111a29190611959565b6004546111b790670de0b6b3a764000061199b565b6111c191906119b2565b6040805160018152602081018890529081018590526060810182905290915033907f7c707038fb62cb248ec6b437a63ec556bb6233af235f4518d64693cba918a6e190608001610a06565b6002546001600160a01b0316331461123757604051630be5a3e160e31b815260040160405180910390fd5b8060000361125857604051631f2a200560e01b815260040160405180910390fd5b61128d6001600160a01b037f000000000000000000000000000000000000000000000000000000000000000016333084611713565b806004600082825461129f9190611988565b9250508190555060007f00000000000000000000000000000000000000000000000000000000000000006001600160a01b03166318160ddd6040518163ffffffff1660e01b8152600401602060405180830381865afa158015611306573d6000803e3d6000fd5b505050506040513d601f19601f8201168201806040525081019061132a9190611959565b60045461133f90670de0b6b3a764000061199b565b61134991906119b2565b60408051848152600060208201529192507f9c86429231ed0411e3112a1dd5c6578826c2d48089d5ec491e874ce0029c0bbe910160405180910390a1604051818152600080516020611a0183398151915290602001610e60565b6003546000906001600160a01b031633146113d157604051630559b36f60e11b815260040160405180910390fd5b6113d96116f7565b826000036113fa57604051631f2a200560e01b815260040160405180910390fd5b6001600160a01b0382166114215760405163d92e233d60e01b815260040160405180910390fd5b6114566001600160a01b037f000000000000000000000000000000000000000000000000000000000000000016333086611713565b60007f00000000000000000000000000000000000000000000000000000000000000006001600160a01b03166318160ddd6040518163ffffffff1660e01b8152600401602060405180830381865afa1580156114b6573d6000803e3d6000fd5b505050506040513d601f19601f820116820180604052508101906114da9190611959565b905060006004541180156114ee5750600081115b15611513578060045485611502919061199b565b61150c91906119b2565b9150611517565b8391505b8160000361153857604051631f2a200560e01b815260040160405180910390fd5b60045482111561155b576040516328b35f2160e01b815260040160405180910390fd5b836005600082825461156d9190611988565b92505081905550816004600082825461158691906119d4565b909155506115c090506001600160a01b037f0000000000000000000000000000000000000000000000000000000000000000168484611754565b60007f00000000000000000000000000000000000000000000000000000000000000006001600160a01b03166318160ddd6040518163ffffffff1660e01b8152600401602060405180830381865afa158015611620573d6000803e3d6000fd5b505050506040513d601f19601f820116820180604052508101906116449190611959565b60045461165990670de0b6b3a764000061199b565b61166391906119b2565b905082600660008282546116779190611988565b90915550506007805490600061168c836119e7565b909155505060408051868152602081018590526001600160a01b0386168183015290517f1408158d52d7d739e0848c588738e9b79917e2773e51c49ff4544e3e6a538f8c9181900360600190a1604051818152600080516020611a0183398151915290602001610a28565b6116ff61178e565b6002600080516020611a2183398151915255565b6117218484848460016117c0565b61174e57604051635274afe760e01b81526001600160a01b03851660048201526024015b60405180910390fd5b50505050565b6117618383836001611832565b61178957604051635274afe760e01b81526001600160a01b0384166004820152602401611745565b505050565b600080516020611a21833981519152546002036117be57604051633ee5aeb560e01b815260040160405180910390fd5b565b6040516323b872dd60e01b60008181526001600160a01b038781166004528616602452604485905291602083606481808c5af192506001600051148316611820578383151615611813573d6000823e3d81fd5b6000883b113d1516831692505b60405250600060605295945050505050565b60405163a9059cbb60e01b60008181526001600160a01b038616600452602485905291602083604481808b5af19250600160005114831661188c57838315161561187f573d6000823e3d81fd5b6000873b113d1516831692505b60405250949350505050565b6000602082840312156118aa57600080fd5b5035919050565b600080604083850312156118c457600080fd5b50508035926020909101359150565b80356001600160a01b038116811461071457600080fd5b6000806000606084860312156118ff57600080fd5b611908846118d3565b9250611916602085016118d3565b9150611924604085016118d3565b90509250925092565b6000806040838503121561194057600080fd5b82359150611950602084016118d3565b90509250929050565b60006020828403121561196b57600080fd5b5051919050565b634e487b7160e01b600052601160045260246000fd5b80820180821115610a4957610a49611972565b8082028115828204841417610a4957610a49611972565b6000826119cf57634e487b7160e01b600052601260045260246000fd5b500490565b81810381811115610a4957610a49611972565b6000600182016119f9576119f9611972565b506001019056fe66cbca4f3c64fecf1dcb9ce094abcf7f68c3450a1d4e3a8e917dd621edb4ebe09b779b17422d0df92223018b32b4d1fa46e071723d6817e2486d003becc55f00a26469706673582212200de5e556d91562cc10eb83583c6cf4f506124d9d9730bcd60adefb5f1d7f480e64736f6c63430008180033",
  "linkReferences": {},
  "deployedLinkReferences": {}
}