{
  "_format": "hh-sol-artifact-1",
  "contractName": "OSLOInvestmentEngine",
  "sourceName": "contracts/OSLOInvestmentEngine.sol",
  "abi": [
    {
      "inputs": [
        {
          "internalType": "address",
          "name": "_usdt",
          "type": "address"
        },
        {
          "internalType": "address",
          "name": "_osloToken",
          "type": "address"
        },
        {
          "internalType": "uint256",
          "name": "_launchTimestamp",
          "type": "uint256"
        }
      ],
      "stateMutability": "nonpayable",
      "type": "constructor"
    },
    {
      "inputs": [],
      "name": "BelowWithdrawalThreshold",
      "type": "error"
    },
    {
      "inputs": [],
      "name": "DEXNotPriced",
      "type": "error"
    },
    {
      "inputs": [],
      "name": "DepositCapped",
      "type": "error"
    },
    {
      "inputs": [],
      "name": "DepositTooLow",
      "type": "error"
    },
    {
      "inputs": [],
      "name": "DepositsPausedError",
      "type": "error"
    },
    {
      "inputs": [],
      "name": "InsufficientOsloReserve",
      "type": "error"
    },
    {
      "inputs": [],
      "name": "InvalidDeposit",
      "type": "error"
    },
    {
      "inputs": [],
      "name": "NotConfigured",
      "type": "error"
    },
    {
      "inputs": [],
      "name": "NothingToClaim",
      "type": "error"
    },
    {
      "inputs": [],
      "name": "OnlyAdmin",
      "type": "error"
    },
    {
      "inputs": [],
      "name": "OnlyRankSystem",
      "type": "error"
    },
    {
      "inputs": [],
      "name": "OnlyReferral",
      "type": "error"
    },
    {
      "inputs": [],
      "name": "OnlyTimelock",
      "type": "error"
    },
    {
      "inputs": [],
      "name": "ReentrancyGuardReentrantCall",
      "type": "error"
    },
    {
      "inputs": [
        {
          "internalType": "address",
          "name": "token",
          "type": "address"
        }
      ],
      "name": "SafeERC20FailedOperation",
      "type": "error"
    },
    {
      "inputs": [],
      "name": "SetupAlreadyComplete",
      "type": "error"
    },
    {
      "inputs": [],
      "name": "ZeroAddress",
      "type": "error"
    },
    {
      "anonymous": false,
      "inputs": [
        {
          "indexed": true,
          "internalType": "address",
          "name": "user",
          "type": "address"
        }
      ],
      "name": "CombinedCapReached",
      "type": "event"
    },
    {
      "anonymous": false,
      "inputs": [
        {
          "indexed": true,
          "internalType": "address",
          "name": "user",
          "type": "address"
        },
        {
          "indexed": false,
          "internalType": "uint256",
          "name": "totalCombined",
          "type": "uint256"
        }
      ],
      "name": "CombinedEarningsUpdated",
      "type": "event"
    },
    {
      "anonymous": false,
      "inputs": [
        {
          "indexed": true,
          "internalType": "address",
          "name": "user",
          "type": "address"
        },
        {
          "indexed": false,
          "internalType": "uint256",
          "name": "amount",
          "type": "uint256"
        },
        {
          "indexed": false,
          "internalType": "uint256",
          "name": "tier",
          "type": "uint256"
        },
        {
          "indexed": false,
          "internalType": "uint256",
          "name": "dailyRate",
          "type": "uint256"
        },
        {
          "indexed": false,
          "internalType": "uint256",
          "name": "depositIndex",
          "type": "uint256"
        }
      ],
      "name": "Deposited",
      "type": "event"
    },
    {
      "anonymous": false,
      "inputs": [
        {
          "indexed": false,
          "internalType": "bool",
          "name": "paused",
          "type": "bool"
        }
      ],
      "name": "DepositsPaused",
      "type": "event"
    },
    {
      "anonymous": false,
      "inputs": [
        {
          "indexed": true,
          "internalType": "address",
          "name": "user",
          "type": "address"
        },
        {
          "indexed": false,
          "internalType": "uint256",
          "name": "netPrincipal",
          "type": "uint256"
        },
        {
          "indexed": false,
          "internalType": "uint256",
          "name": "depositIndex",
          "type": "uint256"
        }
      ],
      "name": "PrincipalWithdrawn",
      "type": "event"
    },
    {
      "anonymous": false,
      "inputs": [
        {
          "indexed": true,
          "internalType": "address",
          "name": "user",
          "type": "address"
        },
        {
          "indexed": false,
          "internalType": "uint256",
          "name": "usdtReward",
          "type": "uint256"
        },
        {
          "indexed": false,
          "internalType": "uint256",
          "name": "osloAmount",
          "type": "uint256"
        },
        {
          "indexed": false,
          "internalType": "uint256",
          "name": "depositIndex",
          "type": "uint256"
        }
      ],
      "name": "RewardsClaimed",
      "type": "event"
    },
    {
      "inputs": [],
      "name": "admin",
      "outputs": [
        {
          "internalType": "address",
          "name": "",
          "type": "address"
        }
      ],
      "stateMutability": "view",
      "type": "function"
    },
    {
      "inputs": [
        {
          "internalType": "uint256",
          "name": "depositIndex",
          "type": "uint256"
        }
      ],
      "name": "claimRewards",
      "outputs": [],
      "stateMutability": "nonpayable",
      "type": "function"
    },
    {
      "inputs": [],
      "name": "completeSetup",
      "outputs": [],
      "stateMutability": "nonpayable",
      "type": "function"
    },
    {
      "inputs": [
        {
          "internalType": "address",
          "name": "_treasury",
          "type": "address"
        },
        {
          "internalType": "address",
          "name": "_referral",
          "type": "address"
        },
        {
          "internalType": "address",
          "name": "_rankSystem",
          "type": "address"
        },
        {
          "internalType": "address",
          "name": "_osloDex",
          "type": "address"
        },
        {
          "internalType": "address",
          "name": "_timelock",
          "type": "address"
        }
      ],
      "name": "configure",
      "outputs": [],
      "stateMutability": "nonpayable",
      "type": "function"
    },
    {
      "inputs": [
        {
          "internalType": "uint256",
          "name": "amount",
          "type": "uint256"
        }
      ],
      "name": "deposit",
      "outputs": [],
      "stateMutability": "nonpayable",
      "type": "function"
    },
    {
      "inputs": [],
      "name": "depositsPaused",
      "outputs": [
        {
          "internalType": "bool",
          "name": "",
          "type": "bool"
        }
      ],
      "stateMutability": "view",
      "type": "function"
    },
    {
      "inputs": [
        {
          "internalType": "address",
          "name": "user",
          "type": "address"
        }
      ],
      "name": "getActiveDeposit",
      "outputs": [
        {
          "internalType": "uint256",
          "name": "",
          "type": "uint256"
        }
      ],
      "stateMutability": "view",
      "type": "function"
    },
    {
      "inputs": [
        {
          "internalType": "address",
          "name": "user",
          "type": "address"
        }
      ],
      "name": "getCombinedEarnings",
      "outputs": [
        {
          "internalType": "uint256",
          "name": "",
          "type": "uint256"
        }
      ],
      "stateMutability": "view",
      "type": "function"
    },
    {
      "inputs": [
        {
          "internalType": "address",
          "name": "user",
          "type": "address"
        }
      ],
      "name": "getDepositCount",
      "outputs": [
        {
          "internalType": "uint256",
          "name": "",
          "type": "uint256"
        }
      ],
      "stateMutability": "view",
      "type": "function"
    },
    {
      "inputs": [
        {
          "internalType": "address",
          "name": "user",
          "type": "address"
        },
        {
          "internalType": "uint256",
          "name": "depositIndex",
          "type": "uint256"
        }
      ],
      "name": "getPendingRewards",
      "outputs": [
        {
          "internalType": "uint256",
          "name": "pendingUSDT",
          "type": "uint256"
        }
      ],
      "stateMutability": "view",
      "type": "function"
    },
    {
      "inputs": [
        {
          "internalType": "address",
          "name": "user",
          "type": "address"
        }
      ],
      "name": "getUserTier",
      "outputs": [
        {
          "internalType": "uint256",
          "name": "",
          "type": "uint256"
        }
      ],
      "stateMutability": "view",
      "type": "function"
    },
    {
      "inputs": [],
      "name": "launchTimestamp",
      "outputs": [
        {
          "internalType": "uint256",
          "name": "",
          "type": "uint256"
        }
      ],
      "stateMutability": "view",
      "type": "function"
    },
    {
      "inputs": [
        {
          "internalType": "address",
          "name": "user",
          "type": "address"
        },
        {
          "internalType": "uint256",
          "name": "amount",
          "type": "uint256"
        }
      ],
      "name": "notifyLevelIncome",
      "outputs": [],
      "stateMutability": "nonpayable",
      "type": "function"
    },
    {
      "inputs": [
        {
          "internalType": "address",
          "name": "user",
          "type": "address"
        },
        {
          "internalType": "uint256",
          "name": "amount",
          "type": "uint256"
        }
      ],
      "name": "notifyRankBonus",
      "outputs": [],
      "stateMutability": "nonpayable",
      "type": "function"
    },
    {
      "inputs": [],
      "name": "osloDex",
      "outputs": [
        {
          "internalType": "address",
          "name": "",
          "type": "address"
        }
      ],
      "stateMutability": "view",
      "type": "function"
    },
    {
      "inputs": [],
      "name": "osloToken",
      "outputs": [
        {
          "internalType": "contract IERC20",
          "name": "",
          "type": "address"
        }
      ],
      "stateMutability": "view",
      "type": "function"
    },
    {
      "inputs": [],
      "name": "rankSystem",
      "outputs": [
        {
          "internalType": "address",
          "name": "",
          "type": "address"
        }
      ],
      "stateMutability": "view",
      "type": "function"
    },
    {
      "inputs": [],
      "name": "referral",
      "outputs": [
        {
          "internalType": "address",
          "name": "",
          "type": "address"
        }
      ],
      "stateMutability": "view",
      "type": "function"
    },
    {
      "inputs": [
        {
          "internalType": "bool",
          "name": "_paused",
          "type": "bool"
        }
      ],
      "name": "setDepositsPaused",
      "outputs": [],
      "stateMutability": "nonpayable",
      "type": "function"
    },
    {
      "inputs": [],
      "name": "setupComplete",
      "outputs": [
        {
          "internalType": "bool",
          "name": "",
          "type": "bool"
        }
      ],
      "stateMutability": "view",
      "type": "function"
    },
    {
      "inputs": [],
      "name": "timelock",
      "outputs": [
        {
          "internalType": "address",
          "name": "",
          "type": "address"
        }
      ],
      "stateMutability": "view",
      "type": "function"
    },
    {
      "inputs": [],
      "name": "totalDeposited",
      "outputs": [
        {
          "internalType": "uint256",
          "name": "",
          "type": "uint256"
        }
      ],
      "stateMutability": "view",
      "type": "function"
    },
    {
      "inputs": [],
      "name": "totalRewardsPaid",
      "outputs": [
        {
          "internalType": "uint256",
          "name": "",
          "type": "uint256"
        }
      ],
      "stateMutability": "view",
      "type": "function"
    },
    {
      "inputs": [],
      "name": "totalWithdrawn",
      "outputs": [
        {
          "internalType": "uint256",
          "name": "",
          "type": "uint256"
        }
      ],
      "stateMutability": "view",
      "type": "function"
    },
    {
      "inputs": [],
      "name": "treasury",
      "outputs": [
        {
          "internalType": "address",
          "name": "",
          "type": "address"
        }
      ],
      "stateMutability": "view",
      "type": "function"
    },
    {
      "inputs": [],
      "name": "usdt",
      "outputs": [
        {
          "internalType": "contract IERC20",
          "name": "",
          "type": "address"
        }
      ],
      "stateMutability": "view",
      "type": "function"
    },
    {
      "inputs": [
        {
          "internalType": "address",
          "name": "",
          "type": "address"
        },
        {
          "internalType": "uint256",
          "name": "",
          "type": "uint256"
        }
      ],
      "name": "userDeposits",
      "outputs": [
        {
          "internalType": "uint256",
          "name": "amount",
          "type": "uint256"
        },
        {
          "internalType": "uint256",
          "name": "tier",
          "type": "uint256"
        },
        {
          "internalType": "uint256",
          "name": "dailyRate",
          "type": "uint256"
        },
        {
          "internalType": "uint256",
          "name": "depositTime",
          "type": "uint256"
        },
        {
          "internalType": "uint256",
          "name": "lastClaimTime",
          "type": "uint256"
        },
        {
          "internalType": "uint256",
          "name": "totalClaimed",
          "type": "uint256"
        },
        {
          "internalType": "uint256",
          "name": "maxReturn",
          "type": "uint256"
        },
        {
          "internalType": "bool",
          "name": "active",
          "type": "bool"
        }
      ],
      "stateMutability": "view",
      "type": "function"
    },
    {
      "inputs": [
        {
          "internalType": "address",
          "name": "",
          "type": "address"
        }
      ],
      "name": "users",
      "outputs": [
        {
          "internalType": "uint256",
          "name": "totalActiveDeposit",
          "type": "uint256"
        },
        {
          "internalType": "uint256",
          "name": "depositCount",
          "type": "uint256"
        },
        {
          "internalType": "uint256",
          "name": "totalCombinedEarnings",
          "type": "uint256"
        }
      ],
      "stateMutability": "view",
      "type": "function"
    },
    {
      "inputs": [
        {
          "internalType": "uint256",
          "name": "depositIndex",
          "type": "uint256"
        }
      ],
      "name": "withdrawPrincipal",
      "outputs": [],
      "stateMutability": "nonpayable",
      "type": "function"
    }
  ],
  "bytecode": "0x60e06040523480156200001157600080fd5b5060405162001f6438038062001f648339810160408190526200003491620000e0565b60017f9b779b17422d0df92223018b32b4d1fa46e071723d6817e2486d003becc55f00556001600160a01b03831615806200007657506001600160a01b038216155b15620000955760405163d92e233d60e01b815260040160405180910390fd5b6001600160a01b03928316608052911660a05260c052600480546001600160a01b0319163317905562000121565b80516001600160a01b0381168114620000db57600080fd5b919050565b600080600060608486031215620000f657600080fd5b6200010184620000c3565b92506200011160208501620000c3565b9150604084015190509250925092565b60805160a05160c051611dd462000190600039600081816103ae015281816115c401526117930152600081816102e10152818161075a0152818161089401528181610c0b0152610c9701526000818161030801528181610d48015281816110b101526110ea0152611dd46000f3fe608060405234801561001057600080fd5b50600436106101cf5760003560e01c80636b9f7ab611610104578063b6635be6116100a2578063e4e7c6b411610071578063e4e7c6b4146104c4578063e9a16bd5146104d7578063f851a440146104ea578063ff50abdc146104fd57600080fd5b8063b6635be614610477578063b6b55f251461048b578063d33219b41461049e578063e4d2620e146104b157600080fd5b80638565c2bf116100de5780638565c2bf146103ff5780638aea8f7114610412578063a87430ba1461041a578063ac948e831461046457600080fd5b80636b9f7ab6146103d057806374958e35146103e3578063760fcb3e146103ec57600080fd5b80632f48ab7d1161017157806360da3e831161014b57806360da3e831461035f57806361d027b314610383578063658e28a41461039657806365cf7c9b146103a957600080fd5b80632f48ab7d146103035780633a6f2dcd1461032a5780634b3197131461035657600080fd5b8063142a3da3116101ad578063142a3da3146102755780631441a5a91461029e5780631c481e2d146102c95780632acfbca3146102dc57600080fd5b806308f43333146101d45780630962ef791461022957806313fcaf541461023e575b600080fd5b6101e76101e2366004611baf565b610506565b604080519889526020890197909752958701949094526060860192909252608085015260a084015260c0830152151560e0820152610100015b60405180910390f35b61023c610237366004611bdb565b61056b565b005b61026761024c366004611bf4565b6001600160a01b031660009081526006602052604090205490565b604051908152602001610220565b610267610283366004611bf4565b6001600160a01b031660009081526007602052604090205490565b6002546102b1906001600160a01b031681565b6040516001600160a01b039091168152602001610220565b61023c6102d7366004611c11565b6109f3565b6102b17f000000000000000000000000000000000000000000000000000000000000000081565b6102b17f000000000000000000000000000000000000000000000000000000000000000081565b610267610338366004611bf4565b6001600160a01b031660009081526007602052604090206002015490565b61026760095481565b60055461037390600160a81b900460ff1681565b6040519015158152602001610220565b6001546102b1906001600160a01b031681565b61023c6103a4366004611bdb565b610a76565b6102677f000000000000000000000000000000000000000000000000000000000000000081565b61023c6103de366004611baf565b610dc6565b610267600a5481565b61023c6103fa366004611c33565b610e75565b6000546102b1906001600160a01b031681565b61023c610f51565b610449610428366004611bf4565b60076020526000908152604090208054600182015460029092015490919083565b60408051938452602084019290925290820152606001610220565b61023c610472366004611baf565b610ff5565b60055461037390600160a01b900460ff1681565b61023c610499366004611bdb565b611020565b6005546102b1906001600160a01b031681565b6102676104bf366004611bf4565b6113d5565b6102676104d2366004611baf565b611424565b6003546102b1906001600160a01b031681565b6004546102b1906001600160a01b031681565b61026760085481565b6006602052816000526040600020818154811061052257600080fd5b6000918252602090912060089091020180546001820154600283015460038401546004850154600586015460068701546007909701549598509396509194909391929160ff1688565b6105736114b0565b600061057f33836114cc565b9050600061058d338361156d565b9050806000036105b0576040516312d37ee560e31b815260040160405180910390fd5b678ac7230489e800008110156105d957604051637e3f2b7d60e01b815260040160405180910390fd5b81546000906105ea90600390611cba565b336000908152600760205260408120600281015492935091831161060f57600061061e565b600282015461061e9084611cd1565b9050806000036106785760078501805460ff1916905560405133907ffa1eb7ba4f65747c7c8882031eb92d63b6fcb684b75052185312fbe1a488d94390600090a26040516305a2e88560e21b815260040160405180910390fd5b80841115610684578093505b60006127106106956103e887611cba565b61069f9190611ce4565b905060006106ad8287611cd1565b600080546040516311ea9fa960e21b81526004810184905292935090916001600160a01b03909116906347aa7ea490602401602060405180830381865afa1580156106fc573d6000803e3d6000fd5b505050506040513d601f19601f820116820180604052508101906107209190611d06565b9050806000036107435760405163cc88465760e01b815260040160405180910390fd5b6040516370a0823160e01b815230600482015281907f00000000000000000000000000000000000000000000000000000000000000006001600160a01b0316906370a0823190602401602060405180830381865afa1580156107a9573d6000803e3d6000fd5b505050506040513d601f19601f820116820180604052508101906107cd9190611d06565b10156107ec5760405163075e464560e01b815260040160405180910390fd5b868860050160008282546108009190611d1f565b9091555050426004890155600285018054889190600090610822908490611d1f565b9250508190555086600a600082825461083b9190611d1f565b909155505060068801546005890154106108875760078801805460ff1916905560405133907ffa1eb7ba4f65747c7c8882031eb92d63b6fcb684b75052185312fbe1a488d94390600090a25b6108bb6001600160a01b037f0000000000000000000000000000000000000000000000000000000000000000163383611669565b6002546001600160a01b03161561095457600060646108db896005611cba565b6108e59190611ce4565b9050801561095257600254604051638000d99160e01b8152336004820152602481018390526001600160a01b0390911690638000d99190604401600060405180830381600087803b15801561093957600080fd5b505af115801561094d573d6000803e3d6000fd5b505050505b505b60408051888152602081018390529081018a905233907f56253d287efacdb2c4cd76dd03624a4821c1ce721d1152e8f5f5718f6087c9bf9060600160405180910390a2600285015460405190815233907fdad0e43afdd45daca2566e861ff76f0250960d86947518722c83b1e03f45edd59060200160405180910390a250505050505050506109f06001600080516020611d7f83398151915255565b50565b6005546001600160a01b03163314610a1e57604051630e05f48560e11b815260040160405180910390fd5b60058054821515600160a81b0260ff60a81b199091161790556040517f5ef34f53269a04b5b817e5be24a51ba6b477118b399ec9dd5b2baf5b299563dc90610a6b90831515815260200190565b60405180910390a150565b610a7e6114b0565b6000610a8a33836114cc565b8054600582015491925090600090821115610ab5576005830154610aae9083611cd1565b9050610ab9565b5060005b6007808401805460ff19169055336000908152602091909152604081208054849290610ae6908490611cd1565b925050819055508160096000828254610aff9190611d1f565b90915550506002546001600160a01b031615610b735760025460405163095ce44b60e21b81523360048201526001600160a01b0390911690632573912c90602401600060405180830381600087803b158015610b5a57600080fd5b505af1158015610b6e573d6000803e3d6000fd5b505050505b8015610d7157600080546040516311ea9fa960e21b8152600481018490526001600160a01b03909116906347aa7ea490602401602060405180830381865afa158015610bc3573d6000803e3d6000fd5b505050506040513d601f19601f82011682018060405250810190610be79190611d06565b9050600081118015610c8157506040516370a0823160e01b815230600482015281907f00000000000000000000000000000000000000000000000000000000000000006001600160a01b0316906370a0823190602401602060405180830381865afa158015610c5a573d6000803e3d6000fd5b505050506040513d601f19601f82011682018060405250810190610c7e9190611d06565b10155b15610d3b57600054610cc0906001600160a01b037f000000000000000000000000000000000000000000000000000000000000000081169116836116a8565b60005460405163f843e64160e01b8152600481018390523360248201526001600160a01b039091169063f843e641906044016020604051808303816000875af1158015610d11573d6000803e3d6000fd5b505050506040513d601f19601f82011682018060405250810190610d359190611d06565b50610d6f565b610d6f6001600160a01b037f0000000000000000000000000000000000000000000000000000000000000000163384611669565b505b604080518281526020810186905233917f217ea3989b9d3112d2133a930216f444b7fbcaeaa4d5bc0220d099fdc928e71e910160405180910390a25050506109f06001600080516020611d7f83398151915255565b6002546001600160a01b03163314610df157604051633864b1e560e21b815260040160405180910390fd5b6001600160a01b03821660009081526007602052604081206002018054839290610e1c908490611d1f565b90915550506001600160a01b0382166000818152600760209081526040918290206002015491519182527fdad0e43afdd45daca2566e861ff76f0250960d86947518722c83b1e03f45edd5910160405180910390a25050565b6004546001600160a01b03163314610ea057604051634755657960e01b815260040160405180910390fd5b600554600160a01b900460ff1615610ecb5760405163238f75d360e01b815260040160405180910390fd5b6001600160a01b038216610ef25760405163d92e233d60e01b815260040160405180910390fd5b600180546001600160a01b03199081166001600160a01b03978816179091556002805482169587169590951790945560038054851693861693909317909255600080548416918516919091179055600580549092169216919091179055565b6004546001600160a01b03163314610f7c57604051634755657960e01b815260040160405180910390fd5b600554600160a01b900460ff1615610fa75760405163238f75d360e01b815260040160405180910390fd5b6001546001600160a01b0316610fd05760405163d311bc3960e01b815260040160405180910390fd5b6005805460ff60a01b1916600160a01b179055600480546001600160a01b0319169055565b6003546001600160a01b03163314610df157604051633327311360e11b815260040160405180910390fd5b6110286114b0565b600554600160a81b900460ff161561105257604051627cfe7f60e31b815260040160405180910390fd5b678ac7230489e8000081101561107b57604051632b7786bd60e21b815260040160405180910390fd5b6000546001600160a01b03166110a45760405163d311bc3960e01b815260040160405180910390fd5b6110d96001600160a01b037f0000000000000000000000000000000000000000000000000000000000000000163330846116fc565b600054611113906001600160a01b037f000000000000000000000000000000000000000000000000000000000000000081169116836116a8565b6000805460405163066102ad60e11b8152600481018490526001600160a01b0390911690630cc2055a906024016020604051808303816000875af115801561115f573d6000803e3d6000fd5b505050506040513d601f19601f820116820180604052508101906111839190611d06565b9050600061119083611738565b9050600061119d8461178b565b905060006111ac600386611cba565b3360008181526006602081815260408084208151610100810183528c81528084018b81528184018b815242606084018181526080850191825260a085018a815260c086018d8152600160e0880181815289548083018b55998e528b8e2098516008909a0290980198895595519588019590955592516002870155516003860155516004850155516005840155519482019490945592516007938401805460ff19169115159190911790559383525290812080549293508792909190611272908490611d1f565b909155505033600090815260076020526040812060010180549161129583611d32565b919050555084600860008282546112ac9190611d1f565b90915550506002546001600160a01b0316156113205760025460405163095ce44b60e21b81523360048201526001600160a01b0390911690632573912c90602401600060405180830381600087803b15801561130757600080fd5b505af115801561131b573d6000803e3d6000fd5b505050505b6003546001600160a01b03161580159061134457506002546001600160a01b031615155b156113535761135333866118a8565b336000818152600660205260409020547fe3b53cd1a44fbf11535e145d80b8ef1ed6d57a73bf5daa7e939b6b01657d65499087908690869061139790600190611cd1565b60408051948552602085019390935291830152606082015260800160405180910390a2505050506109f06001600080516020611d7f83398151915255565b6001600160a01b03811660009081526007602052604081205481036113fc57506000919050565b6001600160a01b03821660009081526007602052604090205461141e90611738565b92915050565b6001600160a01b038216600090815260066020526040812054821061144b5750600061141e565b6001600160a01b038316600090815260066020526040812080548490811061147557611475611d4b565b60009182526020909120600890910201600781015490915060ff1661149e57600091505061141e565b6114a8848261156d565b949350505050565b6114b86119e1565b6002600080516020611d7f83398151915255565b6001600160a01b038216600090815260066020526040812054821061150457604051635972996f60e11b815260040160405180910390fd5b6001600160a01b038316600090815260066020526040812080548490811061152e5761152e611d4b565b60009182526020909120600890910201600781015490915060ff16611566576040516305a2e88560e21b815260040160405180910390fd5b9392505050565b600781015460009060ff166115845750600061141e565b60008260040154426115969190611cd1565b9050806000036115aa57600091505061141e565b60006115b9846000015461178b565b90506276a7006115e97f000000000000000000000000000000000000000000000000000000000000000042611cd1565b106115f25750602d5b61160161271062015180611cba565b84548390611610908490611cba565b61161a9190611cba565b6116249190611ce4565b92506000846005015485600601541161163e576000611652565b846005015485600601546116529190611cd1565b905080841115611660578093505b50505092915050565b6116768383836001611a13565b6116a357604051635274afe760e01b81526001600160a01b03841660048201526024015b60405180910390fd5b505050565b6116b58383836000611a79565b6116a3576116c7838360006001611a79565b6116ef57604051635274afe760e01b81526001600160a01b038416600482015260240161169a565b6116768383836001611a79565b61170a848484846001611ac6565b61173257604051635274afe760e01b81526001600160a01b038516600482015260240161169a565b50505050565b600069010f0cf064dd59200000821061175357506004919050565b68878678326eac900000821061176b57506003919050565b681b1ae4d6e2ef500000821061178357506002919050565b506001919050565b6000806117b87f000000000000000000000000000000000000000000000000000000000000000042611cd1565b90506276a70081106117cd5750602d92915050565b60006117d884611738565b905080600103611802576114a884678ac7230489e80000681b0d04202f47ec000060326064611b38565b8060020361182b576114a884681b1ae4d6e2ef500000688778977bbb052c0000604b6073611b38565b80600303611855576114a88468878678326eac90000069010eff0fae29b1bc000060646096611b38565b6000690a968163f0a57b400000851161186e578461187a565b690a968163f0a57b4000005b905061189f8169010f0cf064dd59200000690a968163f0a57b400000606460af611b38565b95945050505050565b6002546001600160a01b031615806118c957506003546001600160a01b0316155b156118d2575050565b8160005b601481101561173257600254604051634a9fefc760e01b81526001600160a01b0384811660048301526000921690634a9fefc790602401602060405180830381865afa15801561192a573d6000803e3d6000fd5b505050506040513d601f19601f8201168201806040525081019061194e9190611d61565b90506001600160a01b0381166119645750611732565b60035460405163d9bd5f2d60e01b81526001600160a01b0383811660048301528581166024830152604482018790529091169063d9bd5f2d90606401600060405180830381600087803b1580156119ba57600080fd5b505af11580156119ce573d6000803e3d6000fd5b5092945050600190920191506118d69050565b600080516020611d7f83398151915254600203611a1157604051633ee5aeb560e01b815260040160405180910390fd5b565b60405163a9059cbb60e01b60008181526001600160a01b038616600452602485905291602083604481808b5af192506001600051148316611a6d578383151615611a60573d6000823e3d81fd5b6000873b113d1516831692505b60405250949350505050565b60405163095ea7b360e01b60008181526001600160a01b038616600452602485905291602083604481808b5af192506001600051148316611a6d578383151615611a60573d6000823e3d81fd5b6040516323b872dd60e01b60008181526001600160a01b038781166004528616602452604485905291602083606481808c5af192506001600051148316611b26578383151615611b19573d6000823e3d81fd5b6000883b113d1516831692505b60405250600060605295945050505050565b6000848411611b4857508161189f565b6000611b548484611cd1565b90506000611b628787611cd1565b90508082611b70898b611cd1565b611b7a9190611cba565b611b849190611ce4565b611b8e9086611d1f565b98975050505050505050565b6001600160a01b03811681146109f057600080fd5b60008060408385031215611bc257600080fd5b8235611bcd81611b9a565b946020939093013593505050565b600060208284031215611bed57600080fd5b5035919050565b600060208284031215611c0657600080fd5b813561156681611b9a565b600060208284031215611c2357600080fd5b8135801515811461156657600080fd5b600080600080600060a08688031215611c4b57600080fd5b8535611c5681611b9a565b94506020860135611c6681611b9a565b93506040860135611c7681611b9a565b92506060860135611c8681611b9a565b91506080860135611c9681611b9a565b809150509295509295909350565b634e487b7160e01b600052601160045260246000fd5b808202811582820484141761141e5761141e611ca4565b8181038181111561141e5761141e611ca4565b600082611d0157634e487b7160e01b600052601260045260246000fd5b500490565b600060208284031215611d1857600080fd5b5051919050565b8082018082111561141e5761141e611ca4565b600060018201611d4457611d44611ca4565b5060010190565b634e487b7160e01b600052603260045260246000fd5b600060208284031215611d7357600080fd5b815161156681611b9a56fe9b779b17422d0df92223018b32b4d1fa46e071723d6817e2486d003becc55f00a2646970667358221220bcd7187c6d5faeba4239e5f117d2b77159df6740098709b0efdf9c487e81658764736f6c63430008180033",
  "linkReferences": {},
  "deployedLinkReferences": {}
}