{
  "_format": "hh-sol-artifact-1",
  "contractName": "OSLOReferral",
  "sourceName": "contracts/OSLOReferral.sol",
  "abi": [
    {
      "inputs": [
        {
          "internalType": "address",
          "name": "_usdt",
          "type": "address"
        }
      ],
      "stateMutability": "nonpayable",
      "type": "constructor"
    },
    {
      "inputs": [],
      "name": "AlreadyRegistered",
      "type": "error"
    },
    {
      "inputs": [],
      "name": "InvalidReferrer",
      "type": "error"
    },
    {
      "inputs": [],
      "name": "NotRegistered",
      "type": "error"
    },
    {
      "inputs": [],
      "name": "NothingToClaim",
      "type": "error"
    },
    {
      "inputs": [],
      "name": "OnlyAdmin",
      "type": "error"
    },
    {
      "inputs": [],
      "name": "OnlyInvestmentEngine",
      "type": "error"
    },
    {
      "inputs": [],
      "name": "ReentrancyGuardReentrantCall",
      "type": "error"
    },
    {
      "inputs": [
        {
          "internalType": "address",
          "name": "token",
          "type": "address"
        }
      ],
      "name": "SafeERC20FailedOperation",
      "type": "error"
    },
    {
      "inputs": [],
      "name": "SelfReferral",
      "type": "error"
    },
    {
      "inputs": [],
      "name": "SetupAlreadyComplete",
      "type": "error"
    },
    {
      "inputs": [],
      "name": "ZeroAddress",
      "type": "error"
    },
    {
      "anonymous": false,
      "inputs": [
        {
          "indexed": true,
          "internalType": "address",
          "name": "user",
          "type": "address"
        },
        {
          "indexed": false,
          "internalType": "uint256",
          "name": "level",
          "type": "uint256"
        }
      ],
      "name": "LevelUnlocked",
      "type": "event"
    },
    {
      "anonymous": false,
      "inputs": [
        {
          "indexed": true,
          "internalType": "address",
          "name": "upline",
          "type": "address"
        },
        {
          "indexed": true,
          "internalType": "address",
          "name": "downline",
          "type": "address"
        },
        {
          "indexed": false,
          "internalType": "uint256",
          "name": "level",
          "type": "uint256"
        },
        {
          "indexed": false,
          "internalType": "uint256",
          "name": "amount",
          "type": "uint256"
        }
      ],
      "name": "ReferralPaid",
      "type": "event"
    },
    {
      "anonymous": false,
      "inputs": [
        {
          "indexed": true,
          "internalType": "address",
          "name": "user",
          "type": "address"
        },
        {
          "indexed": false,
          "internalType": "uint256",
          "name": "amount",
          "type": "uint256"
        }
      ],
      "name": "ReferralRewardsClaimed",
      "type": "event"
    },
    {
      "anonymous": false,
      "inputs": [
        {
          "indexed": true,
          "internalType": "address",
          "name": "user",
          "type": "address"
        },
        {
          "indexed": true,
          "internalType": "address",
          "name": "referrer",
          "type": "address"
        }
      ],
      "name": "UserRegistered",
      "type": "event"
    },
    {
      "inputs": [],
      "name": "admin",
      "outputs": [
        {
          "internalType": "address",
          "name": "",
          "type": "address"
        }
      ],
      "stateMutability": "view",
      "type": "function"
    },
    {
      "inputs": [
        {
          "internalType": "address",
          "name": "user",
          "type": "address"
        }
      ],
      "name": "checkAndUnlockLevels",
      "outputs": [],
      "stateMutability": "nonpayable",
      "type": "function"
    },
    {
      "inputs": [],
      "name": "claimReferralRewards",
      "outputs": [],
      "stateMutability": "nonpayable",
      "type": "function"
    },
    {
      "inputs": [],
      "name": "completeSetup",
      "outputs": [],
      "stateMutability": "nonpayable",
      "type": "function"
    },
    {
      "inputs": [
        {
          "internalType": "address",
          "name": "_investmentEngine",
          "type": "address"
        },
        {
          "internalType": "address",
          "name": "_timelock",
          "type": "address"
        }
      ],
      "name": "configure",
      "outputs": [],
      "stateMutability": "nonpayable",
      "type": "function"
    },
    {
      "inputs": [
        {
          "internalType": "address",
          "name": "user",
          "type": "address"
        },
        {
          "internalType": "uint256",
          "name": "profitAmount",
          "type": "uint256"
        }
      ],
      "name": "distributeReferralCommission",
      "outputs": [],
      "stateMutability": "nonpayable",
      "type": "function"
    },
    {
      "inputs": [
        {
          "internalType": "address",
          "name": "user",
          "type": "address"
        }
      ],
      "name": "getAllLevelIncome",
      "outputs": [
        {
          "internalType": "uint256[21]",
          "name": "",
          "type": "uint256[21]"
        }
      ],
      "stateMutability": "view",
      "type": "function"
    },
    {
      "inputs": [
        {
          "internalType": "address",
          "name": "user",
          "type": "address"
        }
      ],
      "name": "getDirectReferrals",
      "outputs": [
        {
          "internalType": "address[]",
          "name": "",
          "type": "address[]"
        }
      ],
      "stateMutability": "view",
      "type": "function"
    },
    {
      "inputs": [
        {
          "internalType": "address",
          "name": "user",
          "type": "address"
        },
        {
          "internalType": "uint256",
          "name": "level",
          "type": "uint256"
        }
      ],
      "name": "getLevelIncome",
      "outputs": [
        {
          "internalType": "uint256",
          "name": "",
          "type": "uint256"
        }
      ],
      "stateMutability": "view",
      "type": "function"
    },
    {
      "inputs": [
        {
          "internalType": "address",
          "name": "user",
          "type": "address"
        }
      ],
      "name": "getQualifiedDirectsCount",
      "outputs": [
        {
          "internalType": "uint256",
          "name": "",
          "type": "uint256"
        }
      ],
      "stateMutability": "view",
      "type": "function"
    },
    {
      "inputs": [
        {
          "internalType": "address",
          "name": "user",
          "type": "address"
        }
      ],
      "name": "getReferrer",
      "outputs": [
        {
          "internalType": "address",
          "name": "",
          "type": "address"
        }
      ],
      "stateMutability": "view",
      "type": "function"
    },
    {
      "inputs": [
        {
          "internalType": "address",
          "name": "user",
          "type": "address"
        }
      ],
      "name": "getTeamSize",
      "outputs": [
        {
          "internalType": "uint256",
          "name": "",
          "type": "uint256"
        }
      ],
      "stateMutability": "view",
      "type": "function"
    },
    {
      "inputs": [
        {
          "internalType": "address",
          "name": "user",
          "type": "address"
        }
      ],
      "name": "getUnlockedLevels",
      "outputs": [
        {
          "internalType": "uint256",
          "name": "",
          "type": "uint256"
        }
      ],
      "stateMutability": "view",
      "type": "function"
    },
    {
      "inputs": [],
      "name": "investmentEngine",
      "outputs": [
        {
          "internalType": "address",
          "name": "",
          "type": "address"
        }
      ],
      "stateMutability": "view",
      "type": "function"
    },
    {
      "inputs": [
        {
          "internalType": "address",
          "name": "user",
          "type": "address"
        }
      ],
      "name": "isRegistered",
      "outputs": [
        {
          "internalType": "bool",
          "name": "",
          "type": "bool"
        }
      ],
      "stateMutability": "view",
      "type": "function"
    },
    {
      "inputs": [
        {
          "internalType": "address",
          "name": "",
          "type": "address"
        },
        {
          "internalType": "uint256",
          "name": "",
          "type": "uint256"
        }
      ],
      "name": "levelIncome",
      "outputs": [
        {
          "internalType": "uint256",
          "name": "",
          "type": "uint256"
        }
      ],
      "stateMutability": "view",
      "type": "function"
    },
    {
      "inputs": [
        {
          "internalType": "address",
          "name": "",
          "type": "address"
        }
      ],
      "name": "referralRewards",
      "outputs": [
        {
          "internalType": "uint256",
          "name": "",
          "type": "uint256"
        }
      ],
      "stateMutability": "view",
      "type": "function"
    },
    {
      "inputs": [
        {
          "internalType": "address",
          "name": "user",
          "type": "address"
        },
        {
          "internalType": "address",
          "name": "referrer",
          "type": "address"
        }
      ],
      "name": "register",
      "outputs": [],
      "stateMutability": "nonpayable",
      "type": "function"
    },
    {
      "inputs": [],
      "name": "setupComplete",
      "outputs": [
        {
          "internalType": "bool",
          "name": "",
          "type": "bool"
        }
      ],
      "stateMutability": "view",
      "type": "function"
    },
    {
      "inputs": [],
      "name": "timelock",
      "outputs": [
        {
          "internalType": "address",
          "name": "",
          "type": "address"
        }
      ],
      "stateMutability": "view",
      "type": "function"
    },
    {
      "inputs": [],
      "name": "totalCommissionsPaid",
      "outputs": [
        {
          "internalType": "uint256",
          "name": "",
          "type": "uint256"
        }
      ],
      "stateMutability": "view",
      "type": "function"
    },
    {
      "inputs": [],
      "name": "totalRegistered",
      "outputs": [
        {
          "internalType": "uint256",
          "name": "",
          "type": "uint256"
        }
      ],
      "stateMutability": "view",
      "type": "function"
    },
    {
      "inputs": [],
      "name": "usdt",
      "outputs": [
        {
          "internalType": "contract IERC20",
          "name": "",
          "type": "address"
        }
      ],
      "stateMutability": "view",
      "type": "function"
    },
    {
      "inputs": [
        {
          "internalType": "address",
          "name": "",
          "type": "address"
        }
      ],
      "name": "userInfo",
      "outputs": [
        {
          "internalType": "address",
          "name": "referrer",
          "type": "address"
        },
        {
          "internalType": "uint256",
          "name": "unlockedLevels",
          "type": "uint256"
        },
        {
          "internalType": "uint256",
          "name": "totalEarned",
          "type": "uint256"
        },
        {
          "internalType": "bool",
          "name": "registered",
          "type": "bool"
        }
      ],
      "stateMutability": "view",
      "type": "function"
    }
  ],
  "bytecode": "0x60a060405234801561001057600080fd5b506040516112de3803806112de83398101604081905261002f9161009d565b60017f9b779b17422d0df92223018b32b4d1fa46e071723d6817e2486d003becc55f00556001600160a01b03811661007a5760405163d92e233d60e01b815260040160405180910390fd5b6001600160a01b0316608052600180546001600160a01b031916331790556100cd565b6000602082840312156100af57600080fd5b81516001600160a01b03811681146100c657600080fd5b9392505050565b6080516111ef6100ef6000396000818161027901526104a901526111ef6000f3fe608060405234801561001057600080fd5b50600436106101585760003560e01c80638000d991116100c3578063c3c5a5471161007c578063c3c5a547146103c9578063c6d83fcf146103f8578063d2c8e0e514610401578063d33219b414610421578063e470d5cf14610434578063f851a4401461044757600080fd5b80638000d9911461035b5780638aea8f711461036e578063927416c014610376578063aa6773541461037f578063b6635be614610392578063b8458282146103b657600080fd5b80632f48ab7d116101155780632f48ab7d1461027457806330131384146102b35780634a9fefc7146102c6578063519f1640146102f257806353aaa63b1461030557806364df82221461032557600080fd5b806305eaab4b1461015d5780630b35d7d1146101675780631959a002146101a55780631e97f48a146102155780631f791b69146102355780632573912c14610261575b600080fd5b61016561045a565b005b610192610175366004611011565b600560209081526000928352604080842090915290825290205481565b6040519081526020015b60405180910390f35b6101e96101b336600461103b565b600360208190526000918252604090912080546002820154928201546004909201546001600160a01b0390911692919060ff1684565b604080516001600160a01b0390951685526020850193909352918301521515606082015260800161019c565b61022861022336600461103b565b610539565b60405161019c919061105d565b61019261024336600461103b565b6001600160a01b031660009081526003602052604090206002015490565b61016561026f36600461103b565b6105d1565b61029b7f000000000000000000000000000000000000000000000000000000000000000081565b6040516001600160a01b03909116815260200161019c565b60005461029b906001600160a01b031681565b61029b6102d436600461103b565b6001600160a01b039081166000908152600360205260409020541690565b61019261030036600461103b565b6106c9565b61019261031336600461103b565b60046020526000908152604090205481565b610192610333366004611011565b6001600160a01b03919091166000908152600560209081526040808320938352929052205490565b610165610369366004611011565b6106dc565b610165610904565b61019260065481565b61016561038d36600461108f565b61097f565b6002546103a690600160a01b900460ff1681565b604051901515815260200161019c565b6101926103c436600461103b565b610b48565b6103a66103d736600461103b565b6001600160a01b031660009081526003602052604090206004015460ff1690565b61019260075481565b61041461040f36600461103b565b610b53565b60405161019c91906110c2565b60025461029b906001600160a01b031681565b61016561044236600461108f565b610bcc565b60015461029b906001600160a01b031681565b610462610c50565b3360009081526004602052604081205490819003610493576040516312d37ee560e31b815260040160405180910390fd5b336000818152600460205260408120556104d8907f00000000000000000000000000000000000000000000000000000000000000006001600160a01b03169083610c7e565b60405181815233907f98741ecf35c5d20a8ed68dbd8540500684864a6c98c2a41a5844d0b3a2357d439060200160405180910390a25061053760017f9b779b17422d0df92223018b32b4d1fa46e071723d6817e2486d003becc55f0055565b565b610541610fd6565b610549610fd6565b60015b601481116105ca576001600160a01b038416600090815260056020908152604080832084845290915290205482826015811061058a5761058a61110f565b60200201528181601581106105a1576105a161110f565b6020020151825183906105b590839061113b565b905250806105c28161114e565b91505061054c565b5092915050565b6001600160a01b03811660009081526003602052604090206004015460ff166105f75750565b600061060282610cb7565b9050600061060f82610dc1565b6001600160a01b0384166000908152600360205260409020600201549091508111156106c4576001600160a01b03831660009081526003602052604081206002018054908390559061066282600161113b565b90505b8281116106c157846001600160a01b03167f084d80ac1b703449f5931daa49aa5ad902f79624e20313db57074f53c5aca341826040516106a791815260200190565b60405180910390a2806106b98161114e565b915050610665565b50505b505050565b60006106d6826000610e1b565b92915050565b806000036106e8575050565b8160015b601481116108fe576001600160a01b03808316600090815260036020526040902054168061071a57506108fe565b6001600160a01b03811660009081526003602052604090206002015482116108ea57600061074783610ead565b905060006127106107588388611167565b610762919061117e565b905080156108e7576001600160a01b0383166000908152600460205260408120805483929061079290849061113b565b90915550506001600160a01b0383166000908152600560209081526040808320878452909152812080548392906107ca90849061113b565b90915550506001600160a01b038316600090815260036020819052604082200180548392906107fa90849061113b565b925050819055508060076000828254610813919061113b565b90915550506000546001600160a01b031615610890576000546040516335cfbd5b60e11b81526001600160a01b0385811660048301526024820184905290911690636b9f7ab690604401600060405180830381600087803b15801561087757600080fd5b505af115801561088b573d6000803e3d6000fd5b505050505b866001600160a01b0316836001600160a01b03167f65db98422e8b7340e0d6dfa99bbadd4ba95a51fefafd8f0e1cbbb2e819429a4286846040516108de929190918252602082015260400190565b60405180910390a35b50505b9150806108f68161114e565b9150506106ec565b50505050565b6001546001600160a01b0316331461092f57604051634755657960e01b815260040160405180910390fd5b600254600160a01b900460ff161561095a5760405163238f75d360e01b815260040160405180910390fd5b6002805460ff60a01b1916600160a01b179055600180546001600160a01b0319169055565b6001600160a01b0382166109a65760405163d92e233d60e01b815260040160405180910390fd5b6001600160a01b03821660009081526003602052604090206004015460ff16156109e357604051630ea075bf60e21b815260040160405180910390fd5b806001600160a01b0316826001600160a01b031603610a1557604051632af47b8760e11b815260040160405180910390fd5b6001600160a01b03811615801590610a4957506001600160a01b03811660009081526003602052604090206004015460ff16155b15610a6757604051630c22084560e31b815260040160405180910390fd5b6001600160a01b03808316600090815260036020526040812060048101805460ff1916600117905580549284166001600160a01b0319909316831781556002015515610aef576001600160a01b0381811660009081526003602090815260408220600190810180549182018155835291200180546001600160a01b0319169184169190911790555b60068054906000610aff8361114e565b9190505550806001600160a01b0316826001600160a01b03167f2138b9314634f9fdd5e49bee3eaf17ca557b6637524d0db759711c3bfcd3d85060405160405180910390a35050565b60006106d682610cb7565b6001600160a01b038116600090815260036020908152604091829020600101805483518184028101840190945280845260609392830182828015610bc057602002820191906000526020600020905b81546001600160a01b03168152600190910190602001808311610ba2575b50505050509050919050565b6001546001600160a01b03163314610bf757604051634755657960e01b815260040160405180910390fd5b600254600160a01b900460ff1615610c225760405163238f75d360e01b815260040160405180910390fd5b600080546001600160a01b039384166001600160a01b03199182161790915560028054929093169116179055565b610c58610f2e565b60027f9b779b17422d0df92223018b32b4d1fa46e071723d6817e2486d003becc55f0055565b610c8b8383836001610f70565b6106c457604051635274afe760e01b81526001600160a01b038416600482015260240160405180910390fd5b6001600160a01b03811660009081526003602052604081208190600101815b8154811015610db8576000546001600160a01b031615610db0576000805483546001600160a01b039091169063142a3da390859085908110610d1a57610d1a61110f565b60009182526020909120015460405160e083901b6001600160e01b03191681526001600160a01b039091166004820152602401602060405180830381865afa158015610d6a573d6000803e3d6000fd5b505050506040513d601f19601f82011682018060405250810190610d8e91906111a0565b905068056bc75e2d631000008110610dae5783610daa8161114e565b9450505b505b600101610cd6565b50909392505050565b600060078210610dd357506014919050565b60058210610de357506010919050565b60038210610df35750600c919050565b60028210610e0357506008919050565b60018210610e1357506003919050565b506000919050565b600060148210610e2d575060006106d6565b6001600160a01b0383166000908152600360205260408120600101805490915b8254811015610ea457610e90838281548110610e6b57610e6b61110f565b6000918252602090912001546001600160a01b0316610e8b87600161113b565b610e1b565b610e9a908361113b565b9150600101610e4d565b50949350505050565b600081600103610ec05750610bb8919050565b81600203610ed157506107d0919050565b60038210158015610ee35750600a8211155b15610ef057506064919050565b600b8210158015610f025750600f8211155b15610f0f57506032919050565b60108210158015610f21575060148211155b15610e1357506019919050565b7f9b779b17422d0df92223018b32b4d1fa46e071723d6817e2486d003becc55f005460020361053757604051633ee5aeb560e01b815260040160405180910390fd5b60405163a9059cbb60e01b60008181526001600160a01b038616600452602485905291602083604481808b5af192506001600051148316610fca578383151615610fbd573d6000823e3d81fd5b6000873b113d1516831692505b60405250949350505050565b604051806102a001604052806015906020820280368337509192915050565b80356001600160a01b038116811461100c57600080fd5b919050565b6000806040838503121561102457600080fd5b61102d83610ff5565b946020939093013593505050565b60006020828403121561104d57600080fd5b61105682610ff5565b9392505050565b6102a08101818360005b6015811015611086578151835260209283019290910190600101611067565b50505092915050565b600080604083850312156110a257600080fd5b6110ab83610ff5565b91506110b960208401610ff5565b90509250929050565b6020808252825182820181905260009190848201906040850190845b818110156111035783516001600160a01b0316835292840192918401916001016110de565b50909695505050505050565b634e487b7160e01b600052603260045260246000fd5b634e487b7160e01b600052601160045260246000fd5b808201808211156106d6576106d6611125565b60006001820161116057611160611125565b5060010190565b80820281158282048414176106d6576106d6611125565b60008261119b57634e487b7160e01b600052601260045260246000fd5b500490565b6000602082840312156111b257600080fd5b505191905056fea2646970667358221220443e50a3bd67f9abab2909d9b29f0eb8365b992ff074e0ebc320807e84a671d664736f6c63430008180033",
  "linkReferences": {},
  "deployedLinkReferences": {}
}