{
  "_format": "hh-sol-artifact-1",
  "contractName": "OSLOToken",
  "sourceName": "contracts/OSLOToken.sol",
  "abi": [
    {
      "inputs": [],
      "stateMutability": "nonpayable",
      "type": "constructor"
    },
    {
      "inputs": [
        {
          "internalType": "address",
          "name": "spender",
          "type": "address"
        },
        {
          "internalType": "uint256",
          "name": "allowance",
          "type": "uint256"
        },
        {
          "internalType": "uint256",
          "name": "needed",
          "type": "uint256"
        }
      ],
      "name": "ERC20InsufficientAllowance",
      "type": "error"
    },
    {
      "inputs": [
        {
          "internalType": "address",
          "name": "sender",
          "type": "address"
        },
        {
          "internalType": "uint256",
          "name": "balance",
          "type": "uint256"
        },
        {
          "internalType": "uint256",
          "name": "needed",
          "type": "uint256"
        }
      ],
      "name": "ERC20InsufficientBalance",
      "type": "error"
    },
    {
      "inputs": [
        {
          "internalType": "address",
          "name": "approver",
          "type": "address"
        }
      ],
      "name": "ERC20InvalidApprover",
      "type": "error"
    },
    {
      "inputs": [
        {
          "internalType": "address",
          "name": "receiver",
          "type": "address"
        }
      ],
      "name": "ERC20InvalidReceiver",
      "type": "error"
    },
    {
      "inputs": [
        {
          "internalType": "address",
          "name": "sender",
          "type": "address"
        }
      ],
      "name": "ERC20InvalidSender",
      "type": "error"
    },
    {
      "inputs": [
        {
          "internalType": "address",
          "name": "spender",
          "type": "address"
        }
      ],
      "name": "ERC20InvalidSpender",
      "type": "error"
    },
    {
      "inputs": [],
      "name": "OnlyAdmin",
      "type": "error"
    },
    {
      "inputs": [],
      "name": "OnlyTimelock",
      "type": "error"
    },
    {
      "inputs": [],
      "name": "ReentrancyGuardReentrantCall",
      "type": "error"
    },
    {
      "inputs": [],
      "name": "SetupAlreadyComplete",
      "type": "error"
    },
    {
      "inputs": [],
      "name": "ZeroAddress",
      "type": "error"
    },
    {
      "anonymous": false,
      "inputs": [
        {
          "indexed": true,
          "internalType": "address",
          "name": "owner",
          "type": "address"
        },
        {
          "indexed": true,
          "internalType": "address",
          "name": "spender",
          "type": "address"
        },
        {
          "indexed": false,
          "internalType": "uint256",
          "name": "value",
          "type": "uint256"
        }
      ],
      "name": "Approval",
      "type": "event"
    },
    {
      "anonymous": false,
      "inputs": [
        {
          "indexed": true,
          "internalType": "address",
          "name": "endpoint",
          "type": "address"
        },
        {
          "indexed": false,
          "internalType": "bool",
          "name": "status",
          "type": "bool"
        }
      ],
      "name": "SellEndpointSet",
      "type": "event"
    },
    {
      "anonymous": false,
      "inputs": [
        {
          "indexed": true,
          "internalType": "address",
          "name": "from",
          "type": "address"
        },
        {
          "indexed": false,
          "internalType": "uint256",
          "name": "taxAmount",
          "type": "uint256"
        },
        {
          "indexed": false,
          "internalType": "uint256",
          "name": "toLp",
          "type": "uint256"
        },
        {
          "indexed": false,
          "internalType": "uint256",
          "name": "burned",
          "type": "uint256"
        }
      ],
      "name": "SellTaxApplied",
      "type": "event"
    },
    {
      "anonymous": false,
      "inputs": [],
      "name": "SetupCompleted",
      "type": "event"
    },
    {
      "anonymous": false,
      "inputs": [
        {
          "indexed": true,
          "internalType": "address",
          "name": "from",
          "type": "address"
        },
        {
          "indexed": true,
          "internalType": "address",
          "name": "to",
          "type": "address"
        },
        {
          "indexed": false,
          "internalType": "uint256",
          "name": "value",
          "type": "uint256"
        }
      ],
      "name": "Transfer",
      "type": "event"
    },
    {
      "inputs": [],
      "name": "admin",
      "outputs": [
        {
          "internalType": "address",
          "name": "",
          "type": "address"
        }
      ],
      "stateMutability": "view",
      "type": "function"
    },
    {
      "inputs": [
        {
          "internalType": "address",
          "name": "owner",
          "type": "address"
        },
        {
          "internalType": "address",
          "name": "spender",
          "type": "address"
        }
      ],
      "name": "allowance",
      "outputs": [
        {
          "internalType": "uint256",
          "name": "",
          "type": "uint256"
        }
      ],
      "stateMutability": "view",
      "type": "function"
    },
    {
      "inputs": [
        {
          "internalType": "address",
          "name": "spender",
          "type": "address"
        },
        {
          "internalType": "uint256",
          "name": "value",
          "type": "uint256"
        }
      ],
      "name": "approve",
      "outputs": [
        {
          "internalType": "bool",
          "name": "",
          "type": "bool"
        }
      ],
      "stateMutability": "nonpayable",
      "type": "function"
    },
    {
      "inputs": [
        {
          "internalType": "address",
          "name": "account",
          "type": "address"
        }
      ],
      "name": "balanceOf",
      "outputs": [
        {
          "internalType": "uint256",
          "name": "",
          "type": "uint256"
        }
      ],
      "stateMutability": "view",
      "type": "function"
    },
    {
      "inputs": [
        {
          "internalType": "uint256",
          "name": "value",
          "type": "uint256"
        }
      ],
      "name": "burn",
      "outputs": [],
      "stateMutability": "nonpayable",
      "type": "function"
    },
    {
      "inputs": [
        {
          "internalType": "address",
          "name": "account",
          "type": "address"
        },
        {
          "internalType": "uint256",
          "name": "value",
          "type": "uint256"
        }
      ],
      "name": "burnFrom",
      "outputs": [],
      "stateMutability": "nonpayable",
      "type": "function"
    },
    {
      "inputs": [],
      "name": "completeSetup",
      "outputs": [],
      "stateMutability": "nonpayable",
      "type": "function"
    },
    {
      "inputs": [],
      "name": "decimals",
      "outputs": [
        {
          "internalType": "uint8",
          "name": "",
          "type": "uint8"
        }
      ],
      "stateMutability": "view",
      "type": "function"
    },
    {
      "inputs": [
        {
          "internalType": "address",
          "name": "",
          "type": "address"
        }
      ],
      "name": "isSellEndpoint",
      "outputs": [
        {
          "internalType": "bool",
          "name": "",
          "type": "bool"
        }
      ],
      "stateMutability": "view",
      "type": "function"
    },
    {
      "inputs": [
        {
          "internalType": "address",
          "name": "account",
          "type": "address"
        }
      ],
      "name": "isTaxWhitelisted",
      "outputs": [
        {
          "internalType": "bool",
          "name": "",
          "type": "bool"
        }
      ],
      "stateMutability": "view",
      "type": "function"
    },
    {
      "inputs": [],
      "name": "liquidityManager",
      "outputs": [
        {
          "internalType": "address",
          "name": "",
          "type": "address"
        }
      ],
      "stateMutability": "view",
      "type": "function"
    },
    {
      "inputs": [],
      "name": "name",
      "outputs": [
        {
          "internalType": "string",
          "name": "",
          "type": "string"
        }
      ],
      "stateMutability": "view",
      "type": "function"
    },
    {
      "inputs": [
        {
          "internalType": "address",
          "name": "endpoint",
          "type": "address"
        },
        {
          "internalType": "bool",
          "name": "status",
          "type": "bool"
        }
      ],
      "name": "setSellEndpoint",
      "outputs": [],
      "stateMutability": "nonpayable",
      "type": "function"
    },
    {
      "inputs": [
        {
          "internalType": "address",
          "name": "_liquidityManager",
          "type": "address"
        }
      ],
      "name": "setSellTaxAddresses",
      "outputs": [],
      "stateMutability": "nonpayable",
      "type": "function"
    },
    {
      "inputs": [
        {
          "internalType": "address",
          "name": "account",
          "type": "address"
        },
        {
          "internalType": "bool",
          "name": "whitelisted",
          "type": "bool"
        }
      ],
      "name": "setTaxWhitelist",
      "outputs": [],
      "stateMutability": "nonpayable",
      "type": "function"
    },
    {
      "inputs": [
        {
          "internalType": "address",
          "name": "_timelock",
          "type": "address"
        }
      ],
      "name": "setTimelock",
      "outputs": [],
      "stateMutability": "nonpayable",
      "type": "function"
    },
    {
      "inputs": [],
      "name": "setupComplete",
      "outputs": [
        {
          "internalType": "bool",
          "name": "",
          "type": "bool"
        }
      ],
      "stateMutability": "view",
      "type": "function"
    },
    {
      "inputs": [],
      "name": "symbol",
      "outputs": [
        {
          "internalType": "string",
          "name": "",
          "type": "string"
        }
      ],
      "stateMutability": "view",
      "type": "function"
    },
    {
      "inputs": [],
      "name": "timelock",
      "outputs": [
        {
          "internalType": "address",
          "name": "",
          "type": "address"
        }
      ],
      "stateMutability": "view",
      "type": "function"
    },
    {
      "inputs": [],
      "name": "totalBurned",
      "outputs": [
        {
          "internalType": "uint256",
          "name": "",
          "type": "uint256"
        }
      ],
      "stateMutability": "view",
      "type": "function"
    },
    {
      "inputs": [],
      "name": "totalSupply",
      "outputs": [
        {
          "internalType": "uint256",
          "name": "",
          "type": "uint256"
        }
      ],
      "stateMutability": "view",
      "type": "function"
    },
    {
      "inputs": [
        {
          "internalType": "address",
          "name": "to",
          "type": "address"
        },
        {
          "internalType": "uint256",
          "name": "value",
          "type": "uint256"
        }
      ],
      "name": "transfer",
      "outputs": [
        {
          "internalType": "bool",
          "name": "",
          "type": "bool"
        }
      ],
      "stateMutability": "nonpayable",
      "type": "function"
    },
    {
      "inputs": [
        {
          "internalType": "address",
          "name": "from",
          "type": "address"
        },
        {
          "internalType": "address",
          "name": "to",
          "type": "address"
        },
        {
          "internalType": "uint256",
          "name": "value",
          "type": "uint256"
        }
      ],
      "name": "transferFrom",
      "outputs": [
        {
          "internalType": "bool",
          "name": "",
          "type": "bool"
        }
      ],
      "stateMutability": "nonpayable",
      "type": "function"
    }
  ],
  "bytecode": "0x60806040523480156200001157600080fd5b506040518060400160405280600d81526020016c13d4d313c8141c9bdd1bd8dbdb609a1b815250604051806040016040528060048152602001634f534c4f60e01b815250816003908162000066919062000497565b50600462000075828262000497565b5050506001620000916200008e620000c460201b60201c565b90565b55600980546001600160a01b03191633908117909155620000be906a092e8434aaaf80e1800000620000e8565b620005e8565b7f9b779b17422d0df92223018b32b4d1fa46e071723d6817e2486d003becc55f0090565b6001600160a01b038216620001185760405163ec442f0560e01b8152600060048201526024015b60405180910390fd5b62000126600083836200012a565b5050565b6001600160a01b03831615806200014857506001600160a01b038216155b806200016c57506001600160a01b03831660009081526007602052604090205460ff165b806200019157506001600160a01b03821660009081526008602052604090205460ff16155b80620001a657506006546001600160a01b0316155b15620001be57620001b9838383620002be565b505050565b6000612710620001d16103e88462000579565b620001dd919062000599565b90506000612710620001f26123288462000579565b620001fe919062000599565b905060006200020e8284620005bc565b9050620002288686620002228688620005bc565b620002be565b600654620002429087906001600160a01b031684620002be565b620002518661dead83620002be565b8060056000828254620002659190620005d2565b909155505060408051848152602081018490529081018290526001600160a01b038716907f03a28a3f260782b9c7457ce168826d3100aa6bf6e1124486977dde225498cc479060600160405180910390a2505050505050565b6001600160a01b038316620002ed578060026000828254620002e19190620005d2565b90915550620003619050565b6001600160a01b03831660009081526020819052604090205481811015620003425760405163391434e360e21b81526001600160a01b038516600482015260248101829052604481018390526064016200010f565b6001600160a01b03841660009081526020819052604090209082900390555b6001600160a01b0382166200037f576002805482900390556200039e565b6001600160a01b03821660009081526020819052604090208054820190555b816001600160a01b0316836001600160a01b03167fddf252ad1be2c89b69c2b068fc378daa952ba7f163c4a11628f55a4df523b3ef83604051620003e491815260200190565b60405180910390a3505050565b634e487b7160e01b600052604160045260246000fd5b600181811c908216806200041c57607f821691505b6020821081036200043d57634e487b7160e01b600052602260045260246000fd5b50919050565b601f821115620001b9576000816000526020600020601f850160051c810160208610156200046e5750805b601f850160051c820191505b818110156200048f578281556001016200047a565b505050505050565b81516001600160401b03811115620004b357620004b3620003f1565b620004cb81620004c4845462000407565b8462000443565b602080601f831160018114620005035760008415620004ea5750858301515b600019600386901b1c1916600185901b1785556200048f565b600085815260208120601f198616915b82811015620005345788860151825594840194600190910190840162000513565b5085821015620005535787850151600019600388901b60f8161c191681555b5050505050600190811b01905550565b634e487b7160e01b600052601160045260246000fd5b808202811582820484141762000593576200059362000563565b92915050565b600082620005b757634e487b7160e01b600052601260045260246000fd5b500490565b8181038181111562000593576200059362000563565b8082018082111562000593576200059362000563565b610ea680620005f86000396000f3fe608060405234801561001057600080fd5b506004361061014d5760003560e01c806379cc6790116100c3578063bdacb3031161007c578063bdacb303146102df578063d33219b4146102f2578063d5f5b10f14610305578063d89135cd14610328578063dd62ed3e14610331578063f851a4401461036a57600080fd5b806379cc6790146102825780638aea8f711461029557806395d89b411461029d57806399b8605f146102a5578063a9059cbb146102b8578063b6635be6146102cb57600080fd5b8063338274381161011557806333827438146101c757806342966c68146101f257806347ce0e4f146102075780635383a2c41461021a5780635afde0631461024657806370a082311461025957600080fd5b806306fdde0314610152578063095ea7b31461017057806318160ddd1461019357806323b872dd146101a5578063313ce567146101b8575b600080fd5b61015a61037d565b6040516101679190610c46565b60405180910390f35b61018361017e366004610cb1565b61040f565b6040519015158152602001610167565b6002545b604051908152602001610167565b6101836101b3366004610cdb565b610429565b60405160128152602001610167565b6006546101da906001600160a01b031681565b6040516001600160a01b039091168152602001610167565b610205610200366004610d17565b61044d565b005b610205610215366004610d30565b61045a565b610183610228366004610d6c565b6001600160a01b031660009081526007602052604090205460ff1690565b610205610254366004610d30565b61050f565b610197610267366004610d6c565b6001600160a01b031660009081526020819052604090205490565b610205610290366004610cb1565b610590565b6102056105a9565b61015a61064d565b6102056102b3366004610d6c565b61065c565b6101836102c6366004610cb1565b6106fb565b600a5461018390600160a01b900460ff1681565b6102056102ed366004610d6c565b610709565b600a546101da906001600160a01b031681565b610183610313366004610d6c565b60086020526000908152604090205460ff1681565b61019760055481565b61019761033f366004610d8e565b6001600160a01b03918216600090815260016020908152604080832093909416825291909152205490565b6009546101da906001600160a01b031681565b60606003805461038c90610dc1565b80601f01602080910402602001604051908101604052809291908181526020018280546103b890610dc1565b80156104055780601f106103da57610100808354040283529160200191610405565b820191906000526020600020905b8154815290600101906020018083116103e857829003601f168201915b5050505050905090565b60003361041d8185856107a8565b60019150505b92915050565b6000336104378582856107ba565b61044285858561083e565b506001949350505050565b610457338261089d565b50565b6009546001600160a01b0316331461048557604051634755657960e01b815260040160405180910390fd5b600a54600160a01b900460ff16156104b05760405163238f75d360e01b815260040160405180910390fd5b6001600160a01b038216600081815260086020908152604091829020805460ff191685151590811790915591519182527f63b13414a783af74e319d8e85d3970126f5cd6c94a17e53a01689efc01bd2f6e910160405180910390a25050565b6009546001600160a01b0316331461053a57604051634755657960e01b815260040160405180910390fd5b600a54600160a01b900460ff16156105655760405163238f75d360e01b815260040160405180910390fd5b6001600160a01b03919091166000908152600760205260409020805460ff1916911515919091179055565b61059b8233836107ba565b6105a5828261089d565b5050565b6009546001600160a01b031633146105d457604051634755657960e01b815260040160405180910390fd5b600a54600160a01b900460ff16156105ff5760405163238f75d360e01b815260040160405180910390fd5b600a805460ff60a01b1916600160a01b179055600980546001600160a01b03191690556040517f8601fb6b43cf244c5828073ea9e16745bc09e755520a6a80cecae662b31db52890600090a1565b60606004805461038c90610dc1565b6009546001600160a01b0316331461068757604051634755657960e01b815260040160405180910390fd5b600a54600160a01b900460ff16156106b25760405163238f75d360e01b815260040160405180910390fd5b6001600160a01b0381166106d95760405163d92e233d60e01b815260040160405180910390fd5b600680546001600160a01b0319166001600160a01b0392909216919091179055565b60003361041d81858561083e565b6009546001600160a01b0316331461073457604051634755657960e01b815260040160405180910390fd5b600a54600160a01b900460ff161561075f5760405163238f75d360e01b815260040160405180910390fd5b6001600160a01b0381166107865760405163d92e233d60e01b815260040160405180910390fd5b600a80546001600160a01b0319166001600160a01b0392909216919091179055565b6107b583838360016108d3565b505050565b6001600160a01b03838116600090815260016020908152604080832093861683529290522054600019811015610838578181101561082957604051637dc7a0d960e11b81526001600160a01b038416600482015260248101829052604481018390526064015b60405180910390fd5b610838848484840360006108d3565b50505050565b6001600160a01b03831661086857604051634b637e8f60e11b815260006004820152602401610820565b6001600160a01b0382166108925760405163ec442f0560e01b815260006004820152602401610820565b6107b58383836109a8565b6001600160a01b0382166108c757604051634b637e8f60e11b815260006004820152602401610820565b6105a5826000836109a8565b6001600160a01b0384166108fd5760405163e602df0560e01b815260006004820152602401610820565b6001600160a01b03831661092757604051634a1406b160e11b815260006004820152602401610820565b6001600160a01b038085166000908152600160209081526040808320938716835292905220829055801561083857826001600160a01b0316846001600160a01b03167f8c5be1e5ebec7d5bd14f71427d1e84f3dd0314c0f7b2291e5b200ac8c7c3b9258460405161099a91815260200190565b60405180910390a350505050565b6001600160a01b03831615806109c557506001600160a01b038216155b806109e857506001600160a01b03831660009081526007602052604090205460ff165b80610a0c57506001600160a01b03821660009081526008602052604090205460ff16155b80610a2057506006546001600160a01b0316155b15610a30576107b5838383610b1c565b6000612710610a416103e884610e11565b610a4b9190610e28565b90506000612710610a5e61232884610e11565b610a689190610e28565b90506000610a768284610e4a565b9050610a8c8686610a878688610e4a565b610b1c565b600654610aa49087906001600160a01b031684610b1c565b610ab18661dead83610b1c565b8060056000828254610ac39190610e5d565b909155505060408051848152602081018490529081018290526001600160a01b038716907f03a28a3f260782b9c7457ce168826d3100aa6bf6e1124486977dde225498cc479060600160405180910390a2505050505050565b6001600160a01b038316610b47578060026000828254610b3c9190610e5d565b90915550610bb99050565b6001600160a01b03831660009081526020819052604090205481811015610b9a5760405163391434e360e21b81526001600160a01b03851660048201526024810182905260448101839052606401610820565b6001600160a01b03841660009081526020819052604090209082900390555b6001600160a01b038216610bd557600280548290039055610bf4565b6001600160a01b03821660009081526020819052604090208054820190555b816001600160a01b0316836001600160a01b03167fddf252ad1be2c89b69c2b068fc378daa952ba7f163c4a11628f55a4df523b3ef83604051610c3991815260200190565b60405180910390a3505050565b60006020808352835180602085015260005b81811015610c7457858101830151858201604001528201610c58565b506000604082860101526040601f19601f8301168501019250505092915050565b80356001600160a01b0381168114610cac57600080fd5b919050565b60008060408385031215610cc457600080fd5b610ccd83610c95565b946020939093013593505050565b600080600060608486031215610cf057600080fd5b610cf984610c95565b9250610d0760208501610c95565b9150604084013590509250925092565b600060208284031215610d2957600080fd5b5035919050565b60008060408385031215610d4357600080fd5b610d4c83610c95565b915060208301358015158114610d6157600080fd5b809150509250929050565b600060208284031215610d7e57600080fd5b610d8782610c95565b9392505050565b60008060408385031215610da157600080fd5b610daa83610c95565b9150610db860208401610c95565b90509250929050565b600181811c90821680610dd557607f821691505b602082108103610df557634e487b7160e01b600052602260045260246000fd5b50919050565b634e487b7160e01b600052601160045260246000fd5b808202811582820484141761042357610423610dfb565b600082610e4557634e487b7160e01b600052601260045260246000fd5b500490565b8181038181111561042357610423610dfb565b8082018082111561042357610423610dfb56fea2646970667358221220c85e123c9cf78bfc9a31c27287eb18d6ffe283059775dec3800dbbf967ebb63b64736f6c63430008180033",
  "linkReferences": {},
  "deployedLinkReferences": {}
}